{
	"contracts\\PriceGuranteeStaking.sol": {
		"StakingContract": {
			"abi": [
				{
					"inputs": [
						{
							"internalType": "address",
							"name": "_grlTokenAddress",
							"type": "address"
						},
						{
							"internalType": "address",
							"name": "_wethAddress",
							"type": "address"
						},
						{
							"internalType": "address",
							"name": "_uniswapRouterAddress",
							"type": "address"
						},
						{
							"internalType": "address",
							"name": "_ethUsdAggregatorAddress",
							"type": "address"
						}
					],
					"stateMutability": "nonpayable",
					"type": "constructor"
				},
				{
					"anonymous": false,
					"inputs": [
						{
							"indexed": true,
							"internalType": "address",
							"name": "user",
							"type": "address"
						},
						{
							"indexed": false,
							"internalType": "uint256",
							"name": "amount",
							"type": "uint256"
						},
						{
							"indexed": false,
							"internalType": "uint256",
							"name": "duration",
							"type": "uint256"
						},
						{
							"indexed": false,
							"internalType": "uint256",
							"name": "endTime",
							"type": "uint256"
						},
						{
							"indexed": false,
							"internalType": "uint256",
							"name": "priceInUsd",
							"type": "uint256"
						},
						{
							"indexed": false,
							"internalType": "uint256",
							"name": "fee",
							"type": "uint256"
						},
						{
							"indexed": false,
							"internalType": "uint256",
							"name": "amountInUsd",
							"type": "uint256"
						}
					],
					"name": "Staked",
					"type": "event"
				},
				{
					"anonymous": false,
					"inputs": [
						{
							"indexed": true,
							"internalType": "address",
							"name": "user",
							"type": "address"
						},
						{
							"indexed": false,
							"internalType": "uint256",
							"name": "amount",
							"type": "uint256"
						}
					],
					"name": "Unstaked",
					"type": "event"
				},
				{
					"inputs": [],
					"name": "DECIMALS",
					"outputs": [
						{
							"internalType": "uint256",
							"name": "",
							"type": "uint256"
						}
					],
					"stateMutability": "view",
					"type": "function"
				},
				{
					"inputs": [],
					"name": "admin",
					"outputs": [
						{
							"internalType": "address",
							"name": "",
							"type": "address"
						}
					],
					"stateMutability": "view",
					"type": "function"
				},
				{
					"inputs": [],
					"name": "calculatePriceOfGrlInUsd",
					"outputs": [
						{
							"internalType": "uint256",
							"name": "",
							"type": "uint256"
						}
					],
					"stateMutability": "view",
					"type": "function"
				},
				{
					"inputs": [],
					"name": "ethUsdAggregatorAddress",
					"outputs": [
						{
							"internalType": "address",
							"name": "",
							"type": "address"
						}
					],
					"stateMutability": "view",
					"type": "function"
				},
				{
					"inputs": [],
					"name": "getEthToUsdValue",
					"outputs": [
						{
							"internalType": "uint256",
							"name": "",
							"type": "uint256"
						}
					],
					"stateMutability": "view",
					"type": "function"
				},
				{
					"inputs": [],
					"name": "getPriceOfGrlInEth",
					"outputs": [
						{
							"internalType": "uint256",
							"name": "",
							"type": "uint256"
						}
					],
					"stateMutability": "view",
					"type": "function"
				},
				{
					"inputs": [
						{
							"internalType": "address",
							"name": "user",
							"type": "address"
						},
						{
							"internalType": "uint256",
							"name": "durationInDays",
							"type": "uint256"
						}
					],
					"name": "getUserStakes",
					"outputs": [
						{
							"components": [
								{
									"internalType": "uint256",
									"name": "amount",
									"type": "uint256"
								},
								{
									"internalType": "uint256",
									"name": "duration",
									"type": "uint256"
								},
								{
									"internalType": "uint256",
									"name": "priceInUsd",
									"type": "uint256"
								},
								{
									"internalType": "uint256",
									"name": "amountInUsd",
									"type": "uint256"
								}
							],
							"internalType": "struct StakingContract.Stake[]",
							"name": "",
							"type": "tuple[]"
						}
					],
					"stateMutability": "view",
					"type": "function"
				},
				{
					"inputs": [
						{
							"internalType": "address",
							"name": "user",
							"type": "address"
						}
					],
					"name": "getUserStakingDurations",
					"outputs": [
						{
							"internalType": "uint256[]",
							"name": "",
							"type": "uint256[]"
						}
					],
					"stateMutability": "view",
					"type": "function"
				},
				{
					"inputs": [],
					"name": "grlTokenAddress",
					"outputs": [
						{
							"internalType": "address",
							"name": "",
							"type": "address"
						}
					],
					"stateMutability": "view",
					"type": "function"
				},
				{
					"inputs": [
						{
							"internalType": "uint256",
							"name": "amount",
							"type": "uint256"
						},
						{
							"internalType": "uint256",
							"name": "durationInDays",
							"type": "uint256"
						}
					],
					"name": "stake",
					"outputs": [],
					"stateMutability": "nonpayable",
					"type": "function"
				},
				{
					"inputs": [],
					"name": "uniswapRouterAddress",
					"outputs": [
						{
							"internalType": "address",
							"name": "",
							"type": "address"
						}
					],
					"stateMutability": "view",
					"type": "function"
				},
				{
					"inputs": [
						{
							"internalType": "uint256",
							"name": "durationInDays",
							"type": "uint256"
						}
					],
					"name": "unstake",
					"outputs": [],
					"stateMutability": "nonpayable",
					"type": "function"
				},
				{
					"inputs": [
						{
							"internalType": "address",
							"name": "",
							"type": "address"
						},
						{
							"internalType": "uint256",
							"name": "",
							"type": "uint256"
						},
						{
							"internalType": "uint256",
							"name": "",
							"type": "uint256"
						}
					],
					"name": "userStakes",
					"outputs": [
						{
							"internalType": "uint256",
							"name": "amount",
							"type": "uint256"
						},
						{
							"internalType": "uint256",
							"name": "duration",
							"type": "uint256"
						},
						{
							"internalType": "uint256",
							"name": "priceInUsd",
							"type": "uint256"
						},
						{
							"internalType": "uint256",
							"name": "amountInUsd",
							"type": "uint256"
						}
					],
					"stateMutability": "view",
					"type": "function"
				},
				{
					"inputs": [],
					"name": "wethAddress",
					"outputs": [
						{
							"internalType": "address",
							"name": "",
							"type": "address"
						}
					],
					"stateMutability": "view",
					"type": "function"
				}
			],
			"devdoc": {
				"kind": "dev",
				"methods": {},
				"version": 1
			},
			"evm": {
				"assembly": "    /* \"contracts\\\\PriceGuranteeStaking.sol\":909:7788  contract StakingContract {... */\n  mstore(0x40, 0x80)\n    /* \"contracts\\\\PriceGuranteeStaking.sol\":1469:1872  constructor(... */\n  callvalue\n  dup1\n  iszero\n  tag_1\n  jumpi\n  0x00\n  dup1\n  revert\ntag_1:\n  pop\n  mload(0x40)\n  sub(codesize, bytecodeSize)\n  dup1\n  bytecodeSize\n  dup4\n  codecopy\n  dup2\n  dup2\n  add\n  0x40\n  mstore\n  dup2\n  add\n  swap1\n  tag_2\n  swap2\n  swap1\n  tag_3\n  jump\t// in\ntag_2:\n    /* \"contracts\\\\PriceGuranteeStaking.sol\":1656:1666  msg.sender */\n  caller\n    /* \"contracts\\\\PriceGuranteeStaking.sol\":1648:1653  admin */\n  0x00\n  dup1\n    /* \"contracts\\\\PriceGuranteeStaking.sol\":1648:1666  admin = msg.sender */\n  0x0100\n  exp\n  dup2\n  sload\n  dup2\n  0xffffffffffffffffffffffffffffffffffffffff\n  mul\n  not\n  and\n  swap1\n  dup4\n  0xffffffffffffffffffffffffffffffffffffffff\n  and\n  mul\n  or\n  swap1\n  sstore\n  pop\n    /* \"contracts\\\\PriceGuranteeStaking.sol\":1695:1711  _grlTokenAddress */\n  dup4\n    /* \"contracts\\\\PriceGuranteeStaking.sol\":1677:1692  grlTokenAddress */\n  0x01\n  0x00\n    /* \"contracts\\\\PriceGuranteeStaking.sol\":1677:1711  grlTokenAddress = _grlTokenAddress */\n  0x0100\n  exp\n  dup2\n  sload\n  dup2\n  0xffffffffffffffffffffffffffffffffffffffff\n  mul\n  not\n  and\n  swap1\n  dup4\n  0xffffffffffffffffffffffffffffffffffffffff\n  and\n  mul\n  or\n  swap1\n  sstore\n  pop\n    /* \"contracts\\\\PriceGuranteeStaking.sol\":1736:1748  _wethAddress */\n  dup3\n    /* \"contracts\\\\PriceGuranteeStaking.sol\":1722:1733  wethAddress */\n  0x02\n  0x00\n    /* \"contracts\\\\PriceGuranteeStaking.sol\":1722:1748  wethAddress = _wethAddress */\n  0x0100\n  exp\n  dup2\n  sload\n  dup2\n  0xffffffffffffffffffffffffffffffffffffffff\n  mul\n  not\n  and\n  swap1\n  dup4\n  0xffffffffffffffffffffffffffffffffffffffff\n  and\n  mul\n  or\n  swap1\n  sstore\n  pop\n    /* \"contracts\\\\PriceGuranteeStaking.sol\":1782:1803  _uniswapRouterAddress */\n  dup2\n    /* \"contracts\\\\PriceGuranteeStaking.sol\":1759:1779  uniswapRouterAddress */\n  0x03\n  0x00\n    /* \"contracts\\\\PriceGuranteeStaking.sol\":1759:1803  uniswapRouterAddress = _uniswapRouterAddress */\n  0x0100\n  exp\n  dup2\n  sload\n  dup2\n  0xffffffffffffffffffffffffffffffffffffffff\n  mul\n  not\n  and\n  swap1\n  dup4\n  0xffffffffffffffffffffffffffffffffffffffff\n  and\n  mul\n  or\n  swap1\n  sstore\n  pop\n    /* \"contracts\\\\PriceGuranteeStaking.sol\":1840:1864  _ethUsdAggregatorAddress */\n  dup1\n    /* \"contracts\\\\PriceGuranteeStaking.sol\":1814:1837  ethUsdAggregatorAddress */\n  0x04\n  0x00\n    /* \"contracts\\\\PriceGuranteeStaking.sol\":1814:1864  ethUsdAggregatorAddress = _ethUsdAggregatorAddress */\n  0x0100\n  exp\n  dup2\n  sload\n  dup2\n  0xffffffffffffffffffffffffffffffffffffffff\n  mul\n  not\n  and\n  swap1\n  dup4\n  0xffffffffffffffffffffffffffffffffffffffff\n  and\n  mul\n  or\n  swap1\n  sstore\n  pop\n    /* \"contracts\\\\PriceGuranteeStaking.sol\":1469:1872  constructor(... */\n  pop\n  pop\n  pop\n  pop\n    /* \"contracts\\\\PriceGuranteeStaking.sol\":909:7788  contract StakingContract {... */\n  jump(tag_6)\n    /* \"#utility.yul\":88:205   */\ntag_8:\n    /* \"#utility.yul\":197:198   */\n  0x00\n    /* \"#utility.yul\":194:195   */\n  dup1\n    /* \"#utility.yul\":187:199   */\n  revert\n    /* \"#utility.yul\":334:460   */\ntag_10:\n    /* \"#utility.yul\":371:378   */\n  0x00\n    /* \"#utility.yul\":411:453   */\n  0xffffffffffffffffffffffffffffffffffffffff\n    /* \"#utility.yul\":404:409   */\n  dup3\n    /* \"#utility.yul\":400:454   */\n  and\n    /* \"#utility.yul\":389:454   */\n  swap1\n  pop\n    /* \"#utility.yul\":334:460   */\n  swap2\n  swap1\n  pop\n  jump\t// out\n    /* \"#utility.yul\":466:562   */\ntag_11:\n    /* \"#utility.yul\":503:510   */\n  0x00\n    /* \"#utility.yul\":532:556   */\n  tag_20\n    /* \"#utility.yul\":550:555   */\n  dup3\n    /* \"#utility.yul\":532:556   */\n  tag_10\n  jump\t// in\ntag_20:\n    /* \"#utility.yul\":521:556   */\n  swap1\n  pop\n    /* \"#utility.yul\":466:562   */\n  swap2\n  swap1\n  pop\n  jump\t// out\n    /* \"#utility.yul\":568:690   */\ntag_12:\n    /* \"#utility.yul\":641:665   */\n  tag_22\n    /* \"#utility.yul\":659:664   */\n  dup2\n    /* \"#utility.yul\":641:665   */\n  tag_11\n  jump\t// in\ntag_22:\n    /* \"#utility.yul\":634:639   */\n  dup2\n    /* \"#utility.yul\":631:666   */\n  eq\n    /* \"#utility.yul\":621:684   */\n  tag_23\n  jumpi\n    /* \"#utility.yul\":680:681   */\n  0x00\n    /* \"#utility.yul\":677:678   */\n  dup1\n    /* \"#utility.yul\":670:682   */\n  revert\n    /* \"#utility.yul\":621:684   */\ntag_23:\n    /* \"#utility.yul\":568:690   */\n  pop\n  jump\t// out\n    /* \"#utility.yul\":696:839   */\ntag_13:\n    /* \"#utility.yul\":753:758   */\n  0x00\n    /* \"#utility.yul\":784:790   */\n  dup2\n    /* \"#utility.yul\":778:791   */\n  mload\n    /* \"#utility.yul\":769:791   */\n  swap1\n  pop\n    /* \"#utility.yul\":800:833   */\n  tag_25\n    /* \"#utility.yul\":827:832   */\n  dup2\n    /* \"#utility.yul\":800:833   */\n  tag_12\n  jump\t// in\ntag_25:\n    /* \"#utility.yul\":696:839   */\n  swap3\n  swap2\n  pop\n  pop\n  jump\t// out\n    /* \"#utility.yul\":845:1665   */\ntag_3:\n    /* \"#utility.yul\":942:948   */\n  0x00\n    /* \"#utility.yul\":950:956   */\n  dup1\n    /* \"#utility.yul\":958:964   */\n  0x00\n    /* \"#utility.yul\":966:972   */\n  dup1\n    /* \"#utility.yul\":1015:1018   */\n  0x80\n    /* \"#utility.yul\":1003:1012   */\n  dup6\n    /* \"#utility.yul\":994:1001   */\n  dup8\n    /* \"#utility.yul\":990:1013   */\n  sub\n    /* \"#utility.yul\":986:1019   */\n  slt\n    /* \"#utility.yul\":983:1103   */\n  iszero\n  tag_27\n  jumpi\n    /* \"#utility.yul\":1022:1101   */\n  tag_28\n  tag_8\n  jump\t// in\ntag_28:\n    /* \"#utility.yul\":983:1103   */\ntag_27:\n    /* \"#utility.yul\":1142:1143   */\n  0x00\n    /* \"#utility.yul\":1167:1231   */\n  tag_29\n    /* \"#utility.yul\":1223:1230   */\n  dup8\n    /* \"#utility.yul\":1214:1220   */\n  dup3\n    /* \"#utility.yul\":1203:1212   */\n  dup9\n    /* \"#utility.yul\":1199:1221   */\n  add\n    /* \"#utility.yul\":1167:1231   */\n  tag_13\n  jump\t// in\ntag_29:\n    /* \"#utility.yul\":1157:1231   */\n  swap5\n  pop\n    /* \"#utility.yul\":1113:1241   */\n  pop\n    /* \"#utility.yul\":1280:1282   */\n  0x20\n    /* \"#utility.yul\":1306:1370   */\n  tag_30\n    /* \"#utility.yul\":1362:1369   */\n  dup8\n    /* \"#utility.yul\":1353:1359   */\n  dup3\n    /* \"#utility.yul\":1342:1351   */\n  dup9\n    /* \"#utility.yul\":1338:1360   */\n  add\n    /* \"#utility.yul\":1306:1370   */\n  tag_13\n  jump\t// in\ntag_30:\n    /* \"#utility.yul\":1296:1370   */\n  swap4\n  pop\n    /* \"#utility.yul\":1251:1380   */\n  pop\n    /* \"#utility.yul\":1419:1421   */\n  0x40\n    /* \"#utility.yul\":1445:1509   */\n  tag_31\n    /* \"#utility.yul\":1501:1508   */\n  dup8\n    /* \"#utility.yul\":1492:1498   */\n  dup3\n    /* \"#utility.yul\":1481:1490   */\n  dup9\n    /* \"#utility.yul\":1477:1499   */\n  add\n    /* \"#utility.yul\":1445:1509   */\n  tag_13\n  jump\t// in\ntag_31:\n    /* \"#utility.yul\":1435:1509   */\n  swap3\n  pop\n    /* \"#utility.yul\":1390:1519   */\n  pop\n    /* \"#utility.yul\":1558:1560   */\n  0x60\n    /* \"#utility.yul\":1584:1648   */\n  tag_32\n    /* \"#utility.yul\":1640:1647   */\n  dup8\n    /* \"#utility.yul\":1631:1637   */\n  dup3\n    /* \"#utility.yul\":1620:1629   */\n  dup9\n    /* \"#utility.yul\":1616:1638   */\n  add\n    /* \"#utility.yul\":1584:1648   */\n  tag_13\n  jump\t// in\ntag_32:\n    /* \"#utility.yul\":1574:1648   */\n  swap2\n  pop\n    /* \"#utility.yul\":1529:1658   */\n  pop\n    /* \"#utility.yul\":845:1665   */\n  swap3\n  swap6\n  swap2\n  swap5\n  pop\n  swap3\n  pop\n  jump\t// out\n    /* \"contracts\\\\PriceGuranteeStaking.sol\":909:7788  contract StakingContract {... */\ntag_6:\n  dataSize(sub_0)\n  dup1\n  dataOffset(sub_0)\n  0x00\n  codecopy\n  0x00\n  return\nstop\n\nsub_0: assembly {\n        /* \"contracts\\\\PriceGuranteeStaking.sol\":909:7788  contract StakingContract {... */\n      mstore(0x40, 0x80)\n      callvalue\n      dup1\n      iszero\n      tag_1\n      jumpi\n      0x00\n      dup1\n      revert\n    tag_1:\n      pop\n      jumpi(tag_2, lt(calldatasize, 0x04))\n      shr(0xe0, calldataload(0x00))\n      dup1\n      0x50f3845b\n      gt\n      tag_17\n      jumpi\n      dup1\n      0xb92d21c4\n      gt\n      tag_18\n      jumpi\n      dup1\n      0xb92d21c4\n      eq\n      tag_13\n      jumpi\n      dup1\n      0xb9aa6ec4\n      eq\n      tag_14\n      jumpi\n      dup1\n      0xe60f5ae4\n      eq\n      tag_15\n      jumpi\n      dup1\n      0xf851a440\n      eq\n      tag_16\n      jumpi\n      jump(tag_2)\n    tag_18:\n      dup1\n      0x50f3845b\n      eq\n      tag_10\n      jumpi\n      dup1\n      0x7b0472f0\n      eq\n      tag_11\n      jumpi\n      dup1\n      0x851f7147\n      eq\n      tag_12\n      jumpi\n      jump(tag_2)\n    tag_17:\n      dup1\n      0x2e17de78\n      gt\n      tag_19\n      jumpi\n      dup1\n      0x2e17de78\n      eq\n      tag_6\n      jumpi\n      dup1\n      0x34144b0f\n      eq\n      tag_7\n      jumpi\n      dup1\n      0x419bc8ad\n      eq\n      tag_8\n      jumpi\n      dup1\n      0x4f0e0ef3\n      eq\n      tag_9\n      jumpi\n      jump(tag_2)\n    tag_19:\n      dup1\n      0xc3a272\n      eq\n      tag_3\n      jumpi\n      dup1\n      0x20ca3c7f\n      eq\n      tag_4\n      jumpi\n      dup1\n      0x2e0f2625\n      eq\n      tag_5\n      jumpi\n    tag_2:\n      0x00\n      dup1\n      revert\n        /* \"contracts\\\\PriceGuranteeStaking.sol\":1080:1118  address public ethUsdAggregatorAddress */\n    tag_3:\n      tag_20\n      tag_21\n      jump\t// in\n    tag_20:\n      mload(0x40)\n      tag_22\n      swap2\n      swap1\n      tag_23\n      jump\t// in\n    tag_22:\n      mload(0x40)\n      dup1\n      swap2\n      sub\n      swap1\n      return\n        /* \"contracts\\\\PriceGuranteeStaking.sol\":1038:1073  address public uniswapRouterAddress */\n    tag_4:\n      tag_24\n      tag_25\n      jump\t// in\n    tag_24:\n      mload(0x40)\n      tag_26\n      swap2\n      swap1\n      tag_23\n      jump\t// in\n    tag_26:\n      mload(0x40)\n      dup1\n      swap2\n      sub\n      swap1\n      return\n        /* \"contracts\\\\PriceGuranteeStaking.sol\":1125:1162  uint256 public constant DECIMALS = 18 */\n    tag_5:\n      tag_27\n      tag_28\n      jump\t// in\n    tag_27:\n      mload(0x40)\n      tag_29\n      swap2\n      swap1\n      tag_30\n      jump\t// in\n    tag_29:\n      mload(0x40)\n      dup1\n      swap2\n      sub\n      swap1\n      return\n        /* \"contracts\\\\PriceGuranteeStaking.sol\":4306:5540  function unstake(uint256 durationInDays) external {... */\n    tag_6:\n      tag_31\n      0x04\n      dup1\n      calldatasize\n      sub\n      dup2\n      add\n      swap1\n      tag_32\n      swap2\n      swap1\n      tag_33\n      jump\t// in\n    tag_32:\n      tag_34\n      jump\t// in\n    tag_31:\n      stop\n        /* \"contracts\\\\PriceGuranteeStaking.sol\":1395:1460  mapping(address => mapping(uint256 => Stake[])) public userStakes */\n    tag_7:\n      tag_35\n      0x04\n      dup1\n      calldatasize\n      sub\n      dup2\n      add\n      swap1\n      tag_36\n      swap2\n      swap1\n      tag_37\n      jump\t// in\n    tag_36:\n      tag_38\n      jump\t// in\n    tag_35:\n      mload(0x40)\n      tag_39\n      swap5\n      swap4\n      swap3\n      swap2\n      swap1\n      tag_40\n      jump\t// in\n    tag_39:\n      mload(0x40)\n      dup1\n      swap2\n      sub\n      swap1\n      return\n        /* \"contracts\\\\PriceGuranteeStaking.sol\":6793:6952  function getUserStakes(address user, uint256 durationInDays ) external view returns (Stake[] memory) {... */\n    tag_8:\n      tag_41\n      0x04\n      dup1\n      calldatasize\n      sub\n      dup2\n      add\n      swap1\n      tag_42\n      swap2\n      swap1\n      tag_43\n      jump\t// in\n    tag_42:\n      tag_44\n      jump\t// in\n    tag_41:\n      mload(0x40)\n      tag_45\n      swap2\n      swap1\n      tag_46\n      jump\t// in\n    tag_45:\n      mload(0x40)\n      dup1\n      swap2\n      sub\n      swap1\n      return\n        /* \"contracts\\\\PriceGuranteeStaking.sol\":1005:1031  address public wethAddress */\n    tag_9:\n      tag_47\n      tag_48\n      jump\t// in\n    tag_47:\n      mload(0x40)\n      tag_49\n      swap2\n      swap1\n      tag_23\n      jump\t// in\n    tag_49:\n      mload(0x40)\n      dup1\n      swap2\n      sub\n      swap1\n      return\n        /* \"contracts\\\\PriceGuranteeStaking.sol\":2244:2662  function getPriceOfGrlInEth() public view returns (uint256) {... */\n    tag_10:\n      tag_50\n      tag_51\n      jump\t// in\n    tag_50:\n      mload(0x40)\n      tag_52\n      swap2\n      swap1\n      tag_30\n      jump\t// in\n    tag_52:\n      mload(0x40)\n      dup1\n      swap2\n      sub\n      swap1\n      return\n        /* \"contracts\\\\PriceGuranteeStaking.sol\":2922:4298  function stake(uint256 amount, uint256 durationInDays) external {... */\n    tag_11:\n      tag_53\n      0x04\n      dup1\n      calldatasize\n      sub\n      dup2\n      add\n      swap1\n      tag_54\n      swap2\n      swap1\n      tag_55\n      jump\t// in\n    tag_54:\n      tag_56\n      jump\t// in\n    tag_53:\n      stop\n        /* \"contracts\\\\PriceGuranteeStaking.sol\":1880:2236  function getEthToUsdValue() public view returns (uint256) {... */\n    tag_12:\n      tag_57\n      tag_58\n      jump\t// in\n    tag_57:\n      mload(0x40)\n      tag_59\n      swap2\n      swap1\n      tag_30\n      jump\t// in\n    tag_59:\n      mload(0x40)\n      dup1\n      swap2\n      sub\n      swap1\n      return\n        /* \"contracts\\\\PriceGuranteeStaking.sol\":2670:2914  function calculatePriceOfGrlInUsd() public view returns (uint256) {... */\n    tag_13:\n      tag_60\n      tag_61\n      jump\t// in\n    tag_60:\n      mload(0x40)\n      tag_62\n      swap2\n      swap1\n      tag_30\n      jump\t// in\n    tag_62:\n      mload(0x40)\n      dup1\n      swap2\n      sub\n      swap1\n      return\n        /* \"contracts\\\\PriceGuranteeStaking.sol\":968:998  address public grlTokenAddress */\n    tag_14:\n      tag_63\n      tag_64\n      jump\t// in\n    tag_63:\n      mload(0x40)\n      tag_65\n      swap2\n      swap1\n      tag_23\n      jump\t// in\n    tag_65:\n      mload(0x40)\n      dup1\n      swap2\n      sub\n      swap1\n      return\n        /* \"contracts\\\\PriceGuranteeStaking.sol\":6960:7506  function getUserStakingDurations(address user) external view returns (uint256[] memory) {... */\n    tag_15:\n      tag_66\n      0x04\n      dup1\n      calldatasize\n      sub\n      dup2\n      add\n      swap1\n      tag_67\n      swap2\n      swap1\n      tag_68\n      jump\t// in\n    tag_67:\n      tag_69\n      jump\t// in\n    tag_66:\n      mload(0x40)\n      tag_70\n      swap2\n      swap1\n      tag_71\n      jump\t// in\n    tag_70:\n      mload(0x40)\n      dup1\n      swap2\n      sub\n      swap1\n      return\n        /* \"contracts\\\\PriceGuranteeStaking.sol\":941:961  address public admin */\n    tag_16:\n      tag_72\n      tag_73\n      jump\t// in\n    tag_72:\n      mload(0x40)\n      tag_74\n      swap2\n      swap1\n      tag_23\n      jump\t// in\n    tag_74:\n      mload(0x40)\n      dup1\n      swap2\n      sub\n      swap1\n      return\n        /* \"contracts\\\\PriceGuranteeStaking.sol\":1080:1118  address public ethUsdAggregatorAddress */\n    tag_21:\n      0x04\n      0x00\n      swap1\n      sload\n      swap1\n      0x0100\n      exp\n      swap1\n      div\n      0xffffffffffffffffffffffffffffffffffffffff\n      and\n      dup2\n      jump\t// out\n        /* \"contracts\\\\PriceGuranteeStaking.sol\":1038:1073  address public uniswapRouterAddress */\n    tag_25:\n      0x03\n      0x00\n      swap1\n      sload\n      swap1\n      0x0100\n      exp\n      swap1\n      div\n      0xffffffffffffffffffffffffffffffffffffffff\n      and\n      dup2\n      jump\t// out\n        /* \"contracts\\\\PriceGuranteeStaking.sol\":1125:1162  uint256 public constant DECIMALS = 18 */\n    tag_28:\n        /* \"contracts\\\\PriceGuranteeStaking.sol\":1160:1162  18 */\n      0x12\n        /* \"contracts\\\\PriceGuranteeStaking.sol\":1125:1162  uint256 public constant DECIMALS = 18 */\n      dup2\n      jump\t// out\n        /* \"contracts\\\\PriceGuranteeStaking.sol\":4306:5540  function unstake(uint256 durationInDays) external {... */\n    tag_34:\n        /* \"contracts\\\\PriceGuranteeStaking.sol\":4392:4393  0 */\n      0x00\n        /* \"contracts\\\\PriceGuranteeStaking.sol\":4375:4389  durationInDays */\n      dup2\n        /* \"contracts\\\\PriceGuranteeStaking.sol\":4375:4393  durationInDays > 0 */\n      gt\n        /* \"contracts\\\\PriceGuranteeStaking.sol\":4367:4414  require(durationInDays > 0, \"Invalid duration\") */\n      tag_76\n      jumpi\n      mload(0x40)\n      0x08c379a000000000000000000000000000000000000000000000000000000000\n      dup2\n      mstore\n      0x04\n      add\n      tag_77\n      swap1\n      tag_78\n      jump\t// in\n    tag_77:\n      mload(0x40)\n      dup1\n      swap2\n      sub\n      swap1\n      revert\n    tag_76:\n        /* \"contracts\\\\PriceGuranteeStaking.sol\":4427:4449  Stake[] storage stakes */\n      0x00\n        /* \"contracts\\\\PriceGuranteeStaking.sol\":4452:4462  userStakes */\n      0x05\n        /* \"contracts\\\\PriceGuranteeStaking.sol\":4452:4474  userStakes[msg.sender] */\n      0x00\n        /* \"contracts\\\\PriceGuranteeStaking.sol\":4463:4473  msg.sender */\n      caller\n        /* \"contracts\\\\PriceGuranteeStaking.sol\":4452:4474  userStakes[msg.sender] */\n      0xffffffffffffffffffffffffffffffffffffffff\n      and\n      0xffffffffffffffffffffffffffffffffffffffff\n      and\n      dup2\n      mstore\n      0x20\n      add\n      swap1\n      dup2\n      mstore\n      0x20\n      add\n      0x00\n      keccak256\n        /* \"contracts\\\\PriceGuranteeStaking.sol\":4452:4490  userStakes[msg.sender][durationInDays] */\n      0x00\n        /* \"contracts\\\\PriceGuranteeStaking.sol\":4475:4489  durationInDays */\n      dup4\n        /* \"contracts\\\\PriceGuranteeStaking.sol\":4452:4490  userStakes[msg.sender][durationInDays] */\n      dup2\n      mstore\n      0x20\n      add\n      swap1\n      dup2\n      mstore\n      0x20\n      add\n      0x00\n      keccak256\n        /* \"contracts\\\\PriceGuranteeStaking.sol\":4427:4490  Stake[] storage stakes = userStakes[msg.sender][durationInDays] */\n      swap1\n      pop\n        /* \"contracts\\\\PriceGuranteeStaking.sol\":4525:4526  0 */\n      0x00\n        /* \"contracts\\\\PriceGuranteeStaking.sol\":4509:4515  stakes */\n      dup2\n        /* \"contracts\\\\PriceGuranteeStaking.sol\":4509:4522  stakes.length */\n      dup1\n      sload\n      swap1\n      pop\n        /* \"contracts\\\\PriceGuranteeStaking.sol\":4509:4526  stakes.length > 0 */\n      gt\n        /* \"contracts\\\\PriceGuranteeStaking.sol\":4501:4569  require(stakes.length > 0, \"No stakes found for the given duration\") */\n      tag_79\n      jumpi\n      mload(0x40)\n      0x08c379a000000000000000000000000000000000000000000000000000000000\n      dup2\n      mstore\n      0x04\n      add\n      tag_80\n      swap1\n      tag_81\n      jump\t// in\n    tag_80:\n      mload(0x40)\n      dup1\n      swap2\n      sub\n      swap1\n      revert\n    tag_79:\n        /* \"contracts\\\\PriceGuranteeStaking.sol\":4582:4601  uint256 grlUsdPrice */\n      0x00\n        /* \"contracts\\\\PriceGuranteeStaking.sol\":4604:4630  calculatePriceOfGrlInUsd() */\n      tag_82\n        /* \"contracts\\\\PriceGuranteeStaking.sol\":4604:4628  calculatePriceOfGrlInUsd */\n      tag_61\n        /* \"contracts\\\\PriceGuranteeStaking.sol\":4604:4630  calculatePriceOfGrlInUsd() */\n      jump\t// in\n    tag_82:\n        /* \"contracts\\\\PriceGuranteeStaking.sol\":4582:4630  uint256 grlUsdPrice = calculatePriceOfGrlInUsd() */\n      swap1\n      pop\n        /* \"contracts\\\\PriceGuranteeStaking.sol\":4641:4667  uint256 currentGrlUsdPrice */\n      0x00\n        /* \"contracts\\\\PriceGuranteeStaking.sol\":4670:4676  stakes */\n      dup3\n        /* \"contracts\\\\PriceGuranteeStaking.sol\":4693:4694  1 */\n      0x01\n        /* \"contracts\\\\PriceGuranteeStaking.sol\":4677:4683  stakes */\n      dup5\n        /* \"contracts\\\\PriceGuranteeStaking.sol\":4677:4690  stakes.length */\n      dup1\n      sload\n      swap1\n      pop\n        /* \"contracts\\\\PriceGuranteeStaking.sol\":4677:4694  stakes.length - 1 */\n      tag_83\n      swap2\n      swap1\n      tag_84\n      jump\t// in\n    tag_83:\n        /* \"contracts\\\\PriceGuranteeStaking.sol\":4670:4695  stakes[stakes.length - 1] */\n      dup2\n      sload\n      dup2\n      lt\n      tag_85\n      jumpi\n      tag_86\n      tag_87\n      jump\t// in\n    tag_86:\n    tag_85:\n      swap1\n      0x00\n      mstore\n      keccak256(0x00, 0x20)\n      swap1\n      0x04\n      mul\n      add\n        /* \"contracts\\\\PriceGuranteeStaking.sol\":4670:4706  stakes[stakes.length - 1].priceInUsd */\n      0x02\n      add\n      sload\n        /* \"contracts\\\\PriceGuranteeStaking.sol\":4641:4706  uint256 currentGrlUsdPrice = stakes[stakes.length - 1].priceInUsd */\n      swap1\n      pop\n        /* \"contracts\\\\PriceGuranteeStaking.sol\":4719:4741  uint256 amountToReturn */\n      0x00\n        /* \"contracts\\\\PriceGuranteeStaking.sol\":4756:4777  uint256 usdDifference */\n      dup1\n        /* \"contracts\\\\PriceGuranteeStaking.sol\":4801:4812  grlUsdPrice */\n      dup4\n        /* \"contracts\\\\PriceGuranteeStaking.sol\":4780:4798  currentGrlUsdPrice */\n      dup4\n        /* \"contracts\\\\PriceGuranteeStaking.sol\":4780:4812  currentGrlUsdPrice - grlUsdPrice */\n      tag_89\n      swap2\n      swap1\n      tag_84\n      jump\t// in\n    tag_89:\n        /* \"contracts\\\\PriceGuranteeStaking.sol\":4756:4812  uint256 usdDifference = currentGrlUsdPrice - grlUsdPrice */\n      swap1\n      pop\n        /* \"contracts\\\\PriceGuranteeStaking.sol\":4830:4839  uint256 i */\n      0x00\n        /* \"contracts\\\\PriceGuranteeStaking.sol\":4825:5046  for (uint256 i = 0; i < stakes.length; i++) {... */\n    tag_90:\n        /* \"contracts\\\\PriceGuranteeStaking.sol\":4849:4855  stakes */\n      dup6\n        /* \"contracts\\\\PriceGuranteeStaking.sol\":4849:4862  stakes.length */\n      dup1\n      sload\n      swap1\n      pop\n        /* \"contracts\\\\PriceGuranteeStaking.sol\":4845:4846  i */\n      dup2\n        /* \"contracts\\\\PriceGuranteeStaking.sol\":4845:4862  i < stakes.length */\n      lt\n        /* \"contracts\\\\PriceGuranteeStaking.sol\":4825:5046  for (uint256 i = 0; i < stakes.length; i++) {... */\n      iszero\n      tag_91\n      jumpi\n        /* \"contracts\\\\PriceGuranteeStaking.sol\":4907:4913  stakes */\n      dup6\n        /* \"contracts\\\\PriceGuranteeStaking.sol\":4914:4915  i */\n      dup2\n        /* \"contracts\\\\PriceGuranteeStaking.sol\":4907:4916  stakes[i] */\n      dup2\n      sload\n      dup2\n      lt\n      tag_93\n      jumpi\n      tag_94\n      tag_87\n      jump\t// in\n    tag_94:\n    tag_93:\n      swap1\n      0x00\n      mstore\n      keccak256(0x00, 0x20)\n      swap1\n      0x04\n      mul\n      add\n        /* \"contracts\\\\PriceGuranteeStaking.sol\":4907:4925  stakes[i].duration */\n      0x01\n      add\n      sload\n        /* \"contracts\\\\PriceGuranteeStaking.sol\":4888:4903  block.timestamp */\n      timestamp\n        /* \"contracts\\\\PriceGuranteeStaking.sol\":4888:4925  block.timestamp >= stakes[i].duration */\n      lt\n        /* \"contracts\\\\PriceGuranteeStaking.sol\":4884:5035  if (block.timestamp >= stakes[i].duration) {... */\n      tag_96\n      jumpi\n        /* \"contracts\\\\PriceGuranteeStaking.sol\":4964:4970  stakes */\n      dup6\n        /* \"contracts\\\\PriceGuranteeStaking.sol\":4971:4972  i */\n      dup2\n        /* \"contracts\\\\PriceGuranteeStaking.sol\":4964:4973  stakes[i] */\n      dup2\n      sload\n      dup2\n      lt\n      tag_97\n      jumpi\n      tag_98\n      tag_87\n      jump\t// in\n    tag_98:\n    tag_97:\n      swap1\n      0x00\n      mstore\n      keccak256(0x00, 0x20)\n      swap1\n      0x04\n      mul\n      add\n        /* \"contracts\\\\PriceGuranteeStaking.sol\":4964:4980  stakes[i].amount */\n      0x00\n      add\n      sload\n        /* \"contracts\\\\PriceGuranteeStaking.sol\":4946:4980  amountToReturn += stakes[i].amount */\n      dup4\n      tag_100\n      swap2\n      swap1\n      tag_101\n      jump\t// in\n    tag_100:\n      swap3\n      pop\n        /* \"contracts\\\\PriceGuranteeStaking.sol\":5018:5019  0 */\n      0x00\n        /* \"contracts\\\\PriceGuranteeStaking.sol\":4999:5005  stakes */\n      dup7\n        /* \"contracts\\\\PriceGuranteeStaking.sol\":5006:5007  i */\n      dup3\n        /* \"contracts\\\\PriceGuranteeStaking.sol\":4999:5008  stakes[i] */\n      dup2\n      sload\n      dup2\n      lt\n      tag_102\n      jumpi\n      tag_103\n      tag_87\n      jump\t// in\n    tag_103:\n    tag_102:\n      swap1\n      0x00\n      mstore\n      keccak256(0x00, 0x20)\n      swap1\n      0x04\n      mul\n      add\n        /* \"contracts\\\\PriceGuranteeStaking.sol\":4999:5015  stakes[i].amount */\n      0x00\n      add\n        /* \"contracts\\\\PriceGuranteeStaking.sol\":4999:5019  stakes[i].amount = 0 */\n      dup2\n      swap1\n      sstore\n      pop\n        /* \"contracts\\\\PriceGuranteeStaking.sol\":4884:5035  if (block.timestamp >= stakes[i].duration) {... */\n    tag_96:\n        /* \"contracts\\\\PriceGuranteeStaking.sol\":4864:4867  i++ */\n      dup1\n      dup1\n      0x01\n      add\n      swap2\n      pop\n      pop\n        /* \"contracts\\\\PriceGuranteeStaking.sol\":4825:5046  for (uint256 i = 0; i < stakes.length; i++) {... */\n      jump(tag_90)\n    tag_91:\n      pop\n        /* \"contracts\\\\PriceGuranteeStaking.sol\":5078:5079  0 */\n      0x00\n        /* \"contracts\\\\PriceGuranteeStaking.sol\":5062:5075  usdDifference */\n      dup2\n        /* \"contracts\\\\PriceGuranteeStaking.sol\":5062:5079  usdDifference > 0 */\n      gt\n        /* \"contracts\\\\PriceGuranteeStaking.sol\":5058:5317  if (usdDifference > 0) {... */\n      iszero\n      tag_105\n      jumpi\n        /* \"contracts\\\\PriceGuranteeStaking.sol\":5147:5176  uint256 additionalGrlToReturn */\n      0x00\n        /* \"contracts\\\\PriceGuranteeStaking.sol\":5233:5251  currentGrlUsdPrice */\n      dup4\n        /* \"contracts\\\\PriceGuranteeStaking.sol\":1160:1162  18 */\n      0x12\n        /* \"contracts\\\\PriceGuranteeStaking.sol\":5197:5199  10 */\n      0x0a\n        /* \"contracts\\\\PriceGuranteeStaking.sol\":5197:5211  10 ** DECIMALS */\n      tag_106\n      swap2\n      swap1\n      tag_107\n      jump\t// in\n    tag_106:\n        /* \"contracts\\\\PriceGuranteeStaking.sol\":5180:5193  usdDifference */\n      dup4\n        /* \"contracts\\\\PriceGuranteeStaking.sol\":5180:5212  usdDifference * (10 ** DECIMALS) */\n      tag_108\n      swap2\n      swap1\n      tag_109\n      jump\t// in\n    tag_108:\n        /* \"contracts\\\\PriceGuranteeStaking.sol\":5179:5251  (usdDifference * (10 ** DECIMALS)) /... */\n      tag_110\n      swap2\n      swap1\n      tag_111\n      jump\t// in\n    tag_110:\n        /* \"contracts\\\\PriceGuranteeStaking.sol\":5147:5251  uint256 additionalGrlToReturn = (usdDifference * (10 ** DECIMALS)) /... */\n      swap1\n      pop\n        /* \"contracts\\\\PriceGuranteeStaking.sol\":5284:5305  additionalGrlToReturn */\n      dup1\n        /* \"contracts\\\\PriceGuranteeStaking.sol\":5266:5305  amountToReturn += additionalGrlToReturn */\n      dup4\n      tag_112\n      swap2\n      swap1\n      tag_101\n      jump\t// in\n    tag_112:\n      swap3\n      pop\n        /* \"contracts\\\\PriceGuranteeStaking.sol\":5081:5317  {... */\n      pop\n        /* \"contracts\\\\PriceGuranteeStaking.sol\":5058:5317  if (usdDifference > 0) {... */\n    tag_105:\n        /* \"contracts\\\\PriceGuranteeStaking.sol\":5505:5515  msg.sender */\n      caller\n        /* \"contracts\\\\PriceGuranteeStaking.sol\":5496:5532  Unstaked(msg.sender, amountToReturn) */\n      0xffffffffffffffffffffffffffffffffffffffff\n      and\n      0x0f5bb82176feb1b5e747e28471aa92156a04d9f3ab9f45f28e2d704232b93f75\n        /* \"contracts\\\\PriceGuranteeStaking.sol\":5517:5531  amountToReturn */\n      dup4\n        /* \"contracts\\\\PriceGuranteeStaking.sol\":5496:5532  Unstaked(msg.sender, amountToReturn) */\n      mload(0x40)\n      tag_113\n      swap2\n      swap1\n      tag_30\n      jump\t// in\n    tag_113:\n      mload(0x40)\n      dup1\n      swap2\n      sub\n      swap1\n      log2\n        /* \"contracts\\\\PriceGuranteeStaking.sol\":4356:5540  {... */\n      pop\n      pop\n      pop\n      pop\n      pop\n        /* \"contracts\\\\PriceGuranteeStaking.sol\":4306:5540  function unstake(uint256 durationInDays) external {... */\n      pop\n      jump\t// out\n        /* \"contracts\\\\PriceGuranteeStaking.sol\":1395:1460  mapping(address => mapping(uint256 => Stake[])) public userStakes */\n    tag_38:\n      mstore(0x20, 0x05)\n      dup3\n      0x00\n      mstore\n      mstore(0x20, keccak256(0x00, 0x40))\n      dup2\n      0x00\n      mstore\n      keccak256(0x00, 0x40)\n      dup2\n      dup2\n      sload\n      dup2\n      lt\n      tag_114\n      jumpi\n      0x00\n      dup1\n      revert\n    tag_114:\n      swap1\n      0x00\n      mstore\n      keccak256(0x00, 0x20)\n      swap1\n      0x04\n      mul\n      add\n      0x00\n      swap3\n      pop\n      swap3\n      pop\n      pop\n      pop\n      dup1\n      0x00\n      add\n      sload\n      swap1\n      dup1\n      0x01\n      add\n      sload\n      swap1\n      dup1\n      0x02\n      add\n      sload\n      swap1\n      dup1\n      0x03\n      add\n      sload\n      swap1\n      pop\n      dup5\n      jump\t// out\n        /* \"contracts\\\\PriceGuranteeStaking.sol\":6793:6952  function getUserStakes(address user, uint256 durationInDays ) external view returns (Stake[] memory) {... */\n    tag_44:\n        /* \"contracts\\\\PriceGuranteeStaking.sol\":6878:6892  Stake[] memory */\n      0x60\n        /* \"contracts\\\\PriceGuranteeStaking.sol\":6912:6922  userStakes */\n      0x05\n        /* \"contracts\\\\PriceGuranteeStaking.sol\":6912:6928  userStakes[user] */\n      0x00\n        /* \"contracts\\\\PriceGuranteeStaking.sol\":6923:6927  user */\n      dup5\n        /* \"contracts\\\\PriceGuranteeStaking.sol\":6912:6928  userStakes[user] */\n      0xffffffffffffffffffffffffffffffffffffffff\n      and\n      0xffffffffffffffffffffffffffffffffffffffff\n      and\n      dup2\n      mstore\n      0x20\n      add\n      swap1\n      dup2\n      mstore\n      0x20\n      add\n      0x00\n      keccak256\n        /* \"contracts\\\\PriceGuranteeStaking.sol\":6912:6944  userStakes[user][durationInDays] */\n      0x00\n        /* \"contracts\\\\PriceGuranteeStaking.sol\":6929:6943  durationInDays */\n      dup4\n        /* \"contracts\\\\PriceGuranteeStaking.sol\":6912:6944  userStakes[user][durationInDays] */\n      dup2\n      mstore\n      0x20\n      add\n      swap1\n      dup2\n      mstore\n      0x20\n      add\n      0x00\n      keccak256\n        /* \"contracts\\\\PriceGuranteeStaking.sol\":6905:6944  return userStakes[user][durationInDays] */\n      dup1\n      sload\n      dup1\n      0x20\n      mul\n      0x20\n      add\n      mload(0x40)\n      swap1\n      dup2\n      add\n      0x40\n      mstore\n      dup1\n      swap3\n      swap2\n      swap1\n      dup2\n      dup2\n      mstore\n      0x20\n      add\n      0x00\n      swap1\n    tag_117:\n      dup3\n      dup3\n      lt\n      iszero\n      tag_118\n      jumpi\n      dup4\n      dup3\n      swap1\n      0x00\n      mstore\n      keccak256(0x00, 0x20)\n      swap1\n      0x04\n      mul\n      add\n      mload(0x40)\n      dup1\n      0x80\n      add\n      0x40\n      mstore\n      swap1\n      dup2\n      0x00\n      dup3\n      add\n      sload\n      dup2\n      mstore\n      0x20\n      add\n      0x01\n      dup3\n      add\n      sload\n      dup2\n      mstore\n      0x20\n      add\n      0x02\n      dup3\n      add\n      sload\n      dup2\n      mstore\n      0x20\n      add\n      0x03\n      dup3\n      add\n      sload\n      dup2\n      mstore\n      pop\n      pop\n      dup2\n      mstore\n      0x20\n      add\n      swap1\n      0x01\n      add\n      swap1\n      jump(tag_117)\n    tag_118:\n      pop\n      pop\n      pop\n      pop\n      swap1\n      pop\n        /* \"contracts\\\\PriceGuranteeStaking.sol\":6793:6952  function getUserStakes(address user, uint256 durationInDays ) external view returns (Stake[] memory) {... */\n      swap3\n      swap2\n      pop\n      pop\n      jump\t// out\n        /* \"contracts\\\\PriceGuranteeStaking.sol\":1005:1031  address public wethAddress */\n    tag_48:\n      0x02\n      0x00\n      swap1\n      sload\n      swap1\n      0x0100\n      exp\n      swap1\n      div\n      0xffffffffffffffffffffffffffffffffffffffff\n      and\n      dup2\n      jump\t// out\n        /* \"contracts\\\\PriceGuranteeStaking.sol\":2244:2662  function getPriceOfGrlInEth() public view returns (uint256) {... */\n    tag_51:\n        /* \"contracts\\\\PriceGuranteeStaking.sol\":2295:2302  uint256 */\n      0x00\n        /* \"contracts\\\\PriceGuranteeStaking.sol\":2315:2336  address[] memory path */\n      dup1\n        /* \"contracts\\\\PriceGuranteeStaking.sol\":2353:2354  2 */\n      0x02\n        /* \"contracts\\\\PriceGuranteeStaking.sol\":2339:2355  new address[](2) */\n      0xffffffffffffffff\n      dup2\n      gt\n      iszero\n      tag_121\n      jumpi\n      tag_122\n      tag_123\n      jump\t// in\n    tag_122:\n    tag_121:\n      mload(0x40)\n      swap1\n      dup1\n      dup3\n      mstore\n      dup1\n      0x20\n      mul\n      0x20\n      add\n      dup3\n      add\n      0x40\n      mstore\n      dup1\n      iszero\n      tag_124\n      jumpi\n      dup2\n      0x20\n      add\n      0x20\n      dup3\n      mul\n      dup1\n      calldatasize\n      dup4\n      calldatacopy\n      dup1\n      dup3\n      add\n      swap2\n      pop\n      pop\n      swap1\n      pop\n    tag_124:\n      pop\n        /* \"contracts\\\\PriceGuranteeStaking.sol\":2315:2355  address[] memory path = new address[](2) */\n      swap1\n      pop\n        /* \"contracts\\\\PriceGuranteeStaking.sol\":2376:2391  grlTokenAddress */\n      0x01\n      0x00\n      swap1\n      sload\n      swap1\n      0x0100\n      exp\n      swap1\n      div\n      0xffffffffffffffffffffffffffffffffffffffff\n      and\n        /* \"contracts\\\\PriceGuranteeStaking.sol\":2366:2370  path */\n      dup2\n        /* \"contracts\\\\PriceGuranteeStaking.sol\":2371:2372  0 */\n      0x00\n        /* \"contracts\\\\PriceGuranteeStaking.sol\":2366:2373  path[0] */\n      dup2\n      mload\n      dup2\n      lt\n      tag_125\n      jumpi\n      tag_126\n      tag_87\n      jump\t// in\n    tag_126:\n    tag_125:\n      0x20\n      mul\n      0x20\n      add\n      add\n        /* \"contracts\\\\PriceGuranteeStaking.sol\":2366:2391  path[0] = grlTokenAddress */\n      swap1\n      0xffffffffffffffffffffffffffffffffffffffff\n      and\n      swap1\n      dup2\n      0xffffffffffffffffffffffffffffffffffffffff\n      and\n      dup2\n      mstore\n      pop\n      pop\n        /* \"contracts\\\\PriceGuranteeStaking.sol\":2412:2423  wethAddress */\n      0x02\n      0x00\n      swap1\n      sload\n      swap1\n      0x0100\n      exp\n      swap1\n      div\n      0xffffffffffffffffffffffffffffffffffffffff\n      and\n        /* \"contracts\\\\PriceGuranteeStaking.sol\":2402:2406  path */\n      dup2\n        /* \"contracts\\\\PriceGuranteeStaking.sol\":2407:2408  1 */\n      0x01\n        /* \"contracts\\\\PriceGuranteeStaking.sol\":2402:2409  path[1] */\n      dup2\n      mload\n      dup2\n      lt\n      tag_127\n      jumpi\n      tag_128\n      tag_87\n      jump\t// in\n    tag_128:\n    tag_127:\n      0x20\n      mul\n      0x20\n      add\n      add\n        /* \"contracts\\\\PriceGuranteeStaking.sol\":2402:2423  path[1] = wethAddress */\n      swap1\n      0xffffffffffffffffffffffffffffffffffffffff\n      and\n      swap1\n      dup2\n      0xffffffffffffffffffffffffffffffffffffffff\n      and\n      dup2\n      mstore\n      pop\n      pop\n        /* \"contracts\\\\PriceGuranteeStaking.sol\":2436:2459  IUniswapV2Router router */\n      0x00\n        /* \"contracts\\\\PriceGuranteeStaking.sol\":2479:2499  uniswapRouterAddress */\n      0x03\n      0x00\n      swap1\n      sload\n      swap1\n      0x0100\n      exp\n      swap1\n      div\n      0xffffffffffffffffffffffffffffffffffffffff\n      and\n        /* \"contracts\\\\PriceGuranteeStaking.sol\":2436:2500  IUniswapV2Router router = IUniswapV2Router(uniswapRouterAddress) */\n      swap1\n      pop\n        /* \"contracts\\\\PriceGuranteeStaking.sol\":2511:2532  uint[] memory amounts */\n      0x00\n        /* \"contracts\\\\PriceGuranteeStaking.sol\":2535:2541  router */\n      dup2\n        /* \"contracts\\\\PriceGuranteeStaking.sol\":2535:2555  router.getAmountsOut */\n      0xffffffffffffffffffffffffffffffffffffffff\n      and\n      0xd06ca61f\n        /* \"contracts\\\\PriceGuranteeStaking.sol\":2556:2559  1e9 */\n      0x3b9aca00\n        /* \"contracts\\\\PriceGuranteeStaking.sol\":2561:2565  path */\n      dup6\n        /* \"contracts\\\\PriceGuranteeStaking.sol\":2535:2566  router.getAmountsOut(1e9, path) */\n      mload(0x40)\n      dup4\n      0xffffffff\n      and\n      0xe0\n      shl\n      dup2\n      mstore\n      0x04\n      add\n      tag_129\n      swap3\n      swap2\n      swap1\n      tag_130\n      jump\t// in\n    tag_129:\n      0x00\n      mload(0x40)\n      dup1\n      dup4\n      sub\n      dup2\n      dup7\n      gas\n      staticcall\n      iszero\n      dup1\n      iszero\n      tag_132\n      jumpi\n      returndatasize\n      0x00\n      dup1\n      returndatacopy\n      revert(0x00, returndatasize)\n    tag_132:\n      pop\n      pop\n      pop\n      pop\n      mload(0x40)\n      returndatasize\n      0x00\n      dup3\n      returndatacopy\n      returndatasize\n      not(0x1f)\n      0x1f\n      dup3\n      add\n      and\n      dup3\n      add\n      dup1\n      0x40\n      mstore\n      pop\n      dup2\n      add\n      swap1\n      tag_133\n      swap2\n      swap1\n      tag_134\n      jump\t// in\n    tag_133:\n        /* \"contracts\\\\PriceGuranteeStaking.sol\":2511:2566  uint[] memory amounts = router.getAmountsOut(1e9, path) */\n      swap1\n      pop\n        /* \"contracts\\\\PriceGuranteeStaking.sol\":2611:2618  amounts */\n      dup1\n        /* \"contracts\\\\PriceGuranteeStaking.sol\":2619:2620  1 */\n      0x01\n        /* \"contracts\\\\PriceGuranteeStaking.sol\":2611:2621  amounts[1] */\n      dup2\n      mload\n      dup2\n      lt\n      tag_135\n      jumpi\n      tag_136\n      tag_87\n      jump\t// in\n    tag_136:\n    tag_135:\n      0x20\n      mul\n      0x20\n      add\n      add\n      mload\n        /* \"contracts\\\\PriceGuranteeStaking.sol\":2604:2621  return amounts[1] */\n      swap4\n      pop\n      pop\n      pop\n      pop\n        /* \"contracts\\\\PriceGuranteeStaking.sol\":2244:2662  function getPriceOfGrlInEth() public view returns (uint256) {... */\n      swap1\n      jump\t// out\n        /* \"contracts\\\\PriceGuranteeStaking.sol\":2922:4298  function stake(uint256 amount, uint256 durationInDays) external {... */\n    tag_56:\n        /* \"contracts\\\\PriceGuranteeStaking.sol\":3014:3015  0 */\n      0x00\n        /* \"contracts\\\\PriceGuranteeStaking.sol\":3005:3011  amount */\n      dup3\n        /* \"contracts\\\\PriceGuranteeStaking.sol\":3005:3015  amount > 0 */\n      gt\n        /* \"contracts\\\\PriceGuranteeStaking.sol\":2997:3034  require(amount > 0, \"Invalid amount\") */\n      tag_138\n      jumpi\n      mload(0x40)\n      0x08c379a000000000000000000000000000000000000000000000000000000000\n      dup2\n      mstore\n      0x04\n      add\n      tag_139\n      swap1\n      tag_140\n      jump\t// in\n    tag_139:\n      mload(0x40)\n      dup1\n      swap2\n      sub\n      swap1\n      revert\n    tag_138:\n        /* \"contracts\\\\PriceGuranteeStaking.sol\":3076:3077  0 */\n      0x00\n        /* \"contracts\\\\PriceGuranteeStaking.sol\":3070:3072  30 */\n      0x1e\n        /* \"contracts\\\\PriceGuranteeStaking.sol\":3053:3067  durationInDays */\n      dup3\n        /* \"contracts\\\\PriceGuranteeStaking.sol\":3053:3072  durationInDays % 30 */\n      tag_141\n      swap2\n      swap1\n      tag_142\n      jump\t// in\n    tag_141:\n        /* \"contracts\\\\PriceGuranteeStaking.sol\":3053:3077  durationInDays % 30 == 0 */\n      eq\n        /* \"contracts\\\\PriceGuranteeStaking.sol\":3045:3098  require(durationInDays % 30 == 0, \"Invalid duration\") */\n      tag_143\n      jumpi\n      mload(0x40)\n      0x08c379a000000000000000000000000000000000000000000000000000000000\n      dup2\n      mstore\n      0x04\n      add\n      tag_144\n      swap1\n      tag_78\n      jump\t// in\n    tag_144:\n      mload(0x40)\n      dup1\n      swap2\n      sub\n      swap1\n      revert\n    tag_143:\n        /* \"contracts\\\\PriceGuranteeStaking.sol\":3111:3130  uint256 grlUsdPrice */\n      0x00\n        /* \"contracts\\\\PriceGuranteeStaking.sol\":3133:3159  calculatePriceOfGrlInUsd() */\n      tag_145\n        /* \"contracts\\\\PriceGuranteeStaking.sol\":3133:3157  calculatePriceOfGrlInUsd */\n      tag_61\n        /* \"contracts\\\\PriceGuranteeStaking.sol\":3133:3159  calculatePriceOfGrlInUsd() */\n      jump\t// in\n    tag_145:\n        /* \"contracts\\\\PriceGuranteeStaking.sol\":3111:3159  uint256 grlUsdPrice = calculatePriceOfGrlInUsd() */\n      swap1\n      pop\n        /* \"contracts\\\\PriceGuranteeStaking.sol\":3170:3188  uint256 stakingFee */\n      0x00\n        /* \"contracts\\\\PriceGuranteeStaking.sol\":3191:3234  calculateStakingFee(durationInDays, amount) */\n      tag_146\n        /* \"contracts\\\\PriceGuranteeStaking.sol\":3211:3225  durationInDays */\n      dup4\n        /* \"contracts\\\\PriceGuranteeStaking.sol\":3227:3233  amount */\n      dup6\n        /* \"contracts\\\\PriceGuranteeStaking.sol\":3191:3210  calculateStakingFee */\n      tag_147\n        /* \"contracts\\\\PriceGuranteeStaking.sol\":3191:3234  calculateStakingFee(durationInDays, amount) */\n      jump\t// in\n    tag_146:\n        /* \"contracts\\\\PriceGuranteeStaking.sol\":3170:3234  uint256 stakingFee = calculateStakingFee(durationInDays, amount) */\n      swap1\n      pop\n        /* \"contracts\\\\PriceGuranteeStaking.sol\":3245:3264  uint256 amountInUsd */\n      0x00\n        /* \"contracts\\\\PriceGuranteeStaking.sol\":1160:1162  18 */\n      0x12\n        /* \"contracts\\\\PriceGuranteeStaking.sol\":3308:3310  10 */\n      0x0a\n        /* \"contracts\\\\PriceGuranteeStaking.sol\":3308:3322  10 ** DECIMALS */\n      tag_148\n      swap2\n      swap1\n      tag_107\n      jump\t// in\n    tag_148:\n        /* \"contracts\\\\PriceGuranteeStaking.sol\":3292:3303  grlUsdPrice */\n      dup4\n        /* \"contracts\\\\PriceGuranteeStaking.sol\":3278:3288  stakingFee */\n      dup4\n        /* \"contracts\\\\PriceGuranteeStaking.sol\":3269:3275  amount */\n      dup8\n        /* \"contracts\\\\PriceGuranteeStaking.sol\":3269:3288  amount - stakingFee */\n      tag_149\n      swap2\n      swap1\n      tag_84\n      jump\t// in\n    tag_149:\n        /* \"contracts\\\\PriceGuranteeStaking.sol\":3268:3303  (amount - stakingFee) * grlUsdPrice */\n      tag_150\n      swap2\n      swap1\n      tag_109\n      jump\t// in\n    tag_150:\n        /* \"contracts\\\\PriceGuranteeStaking.sol\":3267:3323  ((amount - stakingFee) * grlUsdPrice) / (10 ** DECIMALS) */\n      tag_151\n      swap2\n      swap1\n      tag_111\n      jump\t// in\n    tag_151:\n        /* \"contracts\\\\PriceGuranteeStaking.sol\":3245:3323  uint256 amountInUsd = ((amount - stakingFee) * grlUsdPrice) / (10 ** DECIMALS) */\n      swap1\n      pop\n        /* \"contracts\\\\PriceGuranteeStaking.sol\":3449:3464  grlTokenAddress */\n      0x01\n      0x00\n      swap1\n      sload\n      swap1\n      0x0100\n      exp\n      swap1\n      div\n      0xffffffffffffffffffffffffffffffffffffffff\n      and\n        /* \"contracts\\\\PriceGuranteeStaking.sol\":3442:3478  IERC20(grlTokenAddress).transferFrom */\n      0xffffffffffffffffffffffffffffffffffffffff\n      and\n      0x23b872dd\n        /* \"contracts\\\\PriceGuranteeStaking.sol\":3479:3489  msg.sender */\n      caller\n        /* \"contracts\\\\PriceGuranteeStaking.sol\":3499:3503  this */\n      address\n        /* \"contracts\\\\PriceGuranteeStaking.sol\":3506:3512  amount */\n      dup9\n        /* \"contracts\\\\PriceGuranteeStaking.sol\":3442:3513  IERC20(grlTokenAddress).transferFrom(msg.sender, address(this), amount) */\n      mload(0x40)\n      dup5\n      0xffffffff\n      and\n      0xe0\n      shl\n      dup2\n      mstore\n      0x04\n      add\n      tag_152\n      swap4\n      swap3\n      swap2\n      swap1\n      tag_153\n      jump\t// in\n    tag_152:\n      0x20\n      mload(0x40)\n      dup1\n      dup4\n      sub\n      dup2\n      0x00\n      dup8\n      gas\n      call\n      iszero\n      dup1\n      iszero\n      tag_155\n      jumpi\n      returndatasize\n      0x00\n      dup1\n      returndatacopy\n      revert(0x00, returndatasize)\n    tag_155:\n      pop\n      pop\n      pop\n      pop\n      mload(0x40)\n      returndatasize\n      not(0x1f)\n      0x1f\n      dup3\n      add\n      and\n      dup3\n      add\n      dup1\n      0x40\n      mstore\n      pop\n      dup2\n      add\n      swap1\n      tag_156\n      swap2\n      swap1\n      tag_157\n      jump\t// in\n    tag_156:\n      pop\n        /* \"contracts\\\\PriceGuranteeStaking.sol\":3579:3601  uint256 stakingEndTime */\n      0x00\n        /* \"contracts\\\\PriceGuranteeStaking.sol\":3640:3646  1 days */\n      0x015180\n        /* \"contracts\\\\PriceGuranteeStaking.sol\":3623:3637  durationInDays */\n      dup6\n        /* \"contracts\\\\PriceGuranteeStaking.sol\":3623:3646  durationInDays * 1 days */\n      tag_158\n      swap2\n      swap1\n      tag_109\n      jump\t// in\n    tag_158:\n        /* \"contracts\\\\PriceGuranteeStaking.sol\":3604:3619  block.timestamp */\n      timestamp\n        /* \"contracts\\\\PriceGuranteeStaking.sol\":3604:3647  block.timestamp + (durationInDays * 1 days) */\n      tag_159\n      swap2\n      swap1\n      tag_101\n      jump\t// in\n    tag_159:\n        /* \"contracts\\\\PriceGuranteeStaking.sol\":3579:3647  uint256 stakingEndTime = block.timestamp + (durationInDays * 1 days) */\n      swap1\n      pop\n        /* \"contracts\\\\PriceGuranteeStaking.sol\":3693:3703  userStakes */\n      0x05\n        /* \"contracts\\\\PriceGuranteeStaking.sol\":3693:3715  userStakes[msg.sender] */\n      0x00\n        /* \"contracts\\\\PriceGuranteeStaking.sol\":3704:3714  msg.sender */\n      caller\n        /* \"contracts\\\\PriceGuranteeStaking.sol\":3693:3715  userStakes[msg.sender] */\n      0xffffffffffffffffffffffffffffffffffffffff\n      and\n      0xffffffffffffffffffffffffffffffffffffffff\n      and\n      dup2\n      mstore\n      0x20\n      add\n      swap1\n      dup2\n      mstore\n      0x20\n      add\n      0x00\n      keccak256\n        /* \"contracts\\\\PriceGuranteeStaking.sol\":3693:3731  userStakes[msg.sender][durationInDays] */\n      0x00\n        /* \"contracts\\\\PriceGuranteeStaking.sol\":3716:3730  durationInDays */\n      dup7\n        /* \"contracts\\\\PriceGuranteeStaking.sol\":3693:3731  userStakes[msg.sender][durationInDays] */\n      dup2\n      mstore\n      0x20\n      add\n      swap1\n      dup2\n      mstore\n      0x20\n      add\n      0x00\n      keccak256\n        /* \"contracts\\\\PriceGuranteeStaking.sol\":3751:3934  Stake({... */\n      mload(0x40)\n      dup1\n      0x80\n      add\n      0x40\n      mstore\n      dup1\n        /* \"contracts\\\\PriceGuranteeStaking.sol\":3784:3790  amount */\n      dup9\n        /* \"contracts\\\\PriceGuranteeStaking.sol\":3751:3934  Stake({... */\n      dup2\n      mstore\n      0x20\n      add\n        /* \"contracts\\\\PriceGuranteeStaking.sol\":3819:3833  stakingEndTime */\n      dup4\n        /* \"contracts\\\\PriceGuranteeStaking.sol\":3751:3934  Stake({... */\n      dup2\n      mstore\n      0x20\n      add\n        /* \"contracts\\\\PriceGuranteeStaking.sol\":3864:3875  grlUsdPrice */\n      dup7\n        /* \"contracts\\\\PriceGuranteeStaking.sol\":3751:3934  Stake({... */\n      dup2\n      mstore\n      0x20\n      add\n        /* \"contracts\\\\PriceGuranteeStaking.sol\":3907:3918  amountInUsd */\n      dup5\n        /* \"contracts\\\\PriceGuranteeStaking.sol\":3751:3934  Stake({... */\n      dup2\n      mstore\n      pop\n        /* \"contracts\\\\PriceGuranteeStaking.sol\":3693:3945  userStakes[msg.sender][durationInDays].push(... */\n      swap1\n      dup1\n      0x01\n      dup2\n      sload\n      add\n      dup1\n      dup3\n      sstore\n      dup1\n      swap2\n      pop\n      pop\n      0x01\n      swap1\n      sub\n      swap1\n      0x00\n      mstore\n      keccak256(0x00, 0x20)\n      swap1\n      0x04\n      mul\n      add\n      0x00\n      swap1\n      swap2\n      swap1\n      swap2\n      swap1\n      swap2\n      pop\n      0x00\n      dup3\n      add\n      mload\n      dup2\n      0x00\n      add\n      sstore\n      0x20\n      dup3\n      add\n      mload\n      dup2\n      0x01\n      add\n      sstore\n      0x40\n      dup3\n      add\n      mload\n      dup2\n      0x02\n      add\n      sstore\n      0x60\n      dup3\n      add\n      mload\n      dup2\n      0x03\n      add\n      sstore\n      pop\n      pop\n        /* \"contracts\\\\PriceGuranteeStaking.sol\":4007:4022  grlTokenAddress */\n      0x01\n      0x00\n      swap1\n      sload\n      swap1\n      0x0100\n      exp\n      swap1\n      div\n      0xffffffffffffffffffffffffffffffffffffffff\n      and\n        /* \"contracts\\\\PriceGuranteeStaking.sol\":4000:4032  IERC20(grlTokenAddress).transfer */\n      0xffffffffffffffffffffffffffffffffffffffff\n      and\n      0xa9059cbb\n        /* \"contracts\\\\PriceGuranteeStaking.sol\":4033:4038  admin */\n      0x00\n      dup1\n      sload\n      swap1\n      0x0100\n      exp\n      swap1\n      div\n      0xffffffffffffffffffffffffffffffffffffffff\n      and\n        /* \"contracts\\\\PriceGuranteeStaking.sol\":4040:4050  stakingFee */\n      dup6\n        /* \"contracts\\\\PriceGuranteeStaking.sol\":4000:4051  IERC20(grlTokenAddress).transfer(admin, stakingFee) */\n      mload(0x40)\n      dup4\n      0xffffffff\n      and\n      0xe0\n      shl\n      dup2\n      mstore\n      0x04\n      add\n      tag_161\n      swap3\n      swap2\n      swap1\n      tag_162\n      jump\t// in\n    tag_161:\n      0x20\n      mload(0x40)\n      dup1\n      dup4\n      sub\n      dup2\n      0x00\n      dup8\n      gas\n      call\n      iszero\n      dup1\n      iszero\n      tag_164\n      jumpi\n      returndatasize\n      0x00\n      dup1\n      returndatacopy\n      revert(0x00, returndatasize)\n    tag_164:\n      pop\n      pop\n      pop\n      pop\n      mload(0x40)\n      returndatasize\n      not(0x1f)\n      0x1f\n      dup3\n      add\n      and\n      dup3\n      add\n      dup1\n      0x40\n      mstore\n      pop\n      dup2\n      add\n      swap1\n      tag_165\n      swap2\n      swap1\n      tag_157\n      jump\t// in\n    tag_165:\n      pop\n        /* \"contracts\\\\PriceGuranteeStaking.sol\":4113:4123  msg.sender */\n      caller\n        /* \"contracts\\\\PriceGuranteeStaking.sol\":4092:4290  Staked(... */\n      0xffffffffffffffffffffffffffffffffffffffff\n      and\n      0xc16be9a586414a157dd46b4d023aa9997a025dd1cbbaa67ac0c1b8273a5eaf55\n        /* \"contracts\\\\PriceGuranteeStaking.sol\":4138:4144  amount */\n      dup8\n        /* \"contracts\\\\PriceGuranteeStaking.sol\":4159:4173  durationInDays */\n      dup8\n        /* \"contracts\\\\PriceGuranteeStaking.sol\":4188:4202  stakingEndTime */\n      dup5\n        /* \"contracts\\\\PriceGuranteeStaking.sol\":4217:4228  grlUsdPrice */\n      dup9\n        /* \"contracts\\\\PriceGuranteeStaking.sol\":4243:4253  stakingFee */\n      dup9\n        /* \"contracts\\\\PriceGuranteeStaking.sol\":4268:4279  amountInUsd */\n      dup9\n        /* \"contracts\\\\PriceGuranteeStaking.sol\":4092:4290  Staked(... */\n      mload(0x40)\n      tag_166\n      swap7\n      swap6\n      swap5\n      swap4\n      swap3\n      swap2\n      swap1\n      tag_167\n      jump\t// in\n    tag_166:\n      mload(0x40)\n      dup1\n      swap2\n      sub\n      swap1\n      log2\n        /* \"contracts\\\\PriceGuranteeStaking.sol\":2986:4298  {... */\n      pop\n      pop\n      pop\n      pop\n        /* \"contracts\\\\PriceGuranteeStaking.sol\":2922:4298  function stake(uint256 amount, uint256 durationInDays) external {... */\n      pop\n      pop\n      jump\t// out\n        /* \"contracts\\\\PriceGuranteeStaking.sol\":1880:2236  function getEthToUsdValue() public view returns (uint256) {... */\n    tag_58:\n        /* \"contracts\\\\PriceGuranteeStaking.sol\":1929:1936  uint256 */\n      0x00\n        /* \"contracts\\\\PriceGuranteeStaking.sol\":1949:1985  AggregatorInterface ethUsdAggregator */\n      dup1\n        /* \"contracts\\\\PriceGuranteeStaking.sol\":2022:2045  ethUsdAggregatorAddress */\n      0x04\n      0x00\n      swap1\n      sload\n      swap1\n      0x0100\n      exp\n      swap1\n      div\n      0xffffffffffffffffffffffffffffffffffffffff\n      and\n        /* \"contracts\\\\PriceGuranteeStaking.sol\":1949:2056  AggregatorInterface ethUsdAggregator = AggregatorInterface(... */\n      swap1\n      pop\n        /* \"contracts\\\\PriceGuranteeStaking.sol\":2069:2087  int256 ethUsdPrice */\n      0x00\n        /* \"contracts\\\\PriceGuranteeStaking.sol\":2094:2110  ethUsdAggregator */\n      dup2\n        /* \"contracts\\\\PriceGuranteeStaking.sol\":2094:2126  ethUsdAggregator.latestRoundData */\n      0xffffffffffffffffffffffffffffffffffffffff\n      and\n      0xfeaf968c\n        /* \"contracts\\\\PriceGuranteeStaking.sol\":2094:2128  ethUsdAggregator.latestRoundData() */\n      mload(0x40)\n      dup2\n      0xffffffff\n      and\n      0xe0\n      shl\n      dup2\n      mstore\n      0x04\n      add\n      0xa0\n      mload(0x40)\n      dup1\n      dup4\n      sub\n      dup2\n      dup7\n      gas\n      staticcall\n      iszero\n      dup1\n      iszero\n      tag_170\n      jumpi\n      returndatasize\n      0x00\n      dup1\n      returndatacopy\n      revert(0x00, returndatasize)\n    tag_170:\n      pop\n      pop\n      pop\n      pop\n      mload(0x40)\n      returndatasize\n      not(0x1f)\n      0x1f\n      dup3\n      add\n      and\n      dup3\n      add\n      dup1\n      0x40\n      mstore\n      pop\n      dup2\n      add\n      swap1\n      tag_171\n      swap2\n      swap1\n      tag_172\n      jump\t// in\n    tag_171:\n        /* \"contracts\\\\PriceGuranteeStaking.sol\":2067:2128  (,int256 ethUsdPrice,,,) = ethUsdAggregator.latestRoundData() */\n      pop\n      pop\n      pop\n      swap2\n      pop\n      pop\n        /* \"contracts\\\\PriceGuranteeStaking.sol\":2161:2162  0 */\n      0x00\n        /* \"contracts\\\\PriceGuranteeStaking.sol\":2147:2158  ethUsdPrice */\n      dup2\n        /* \"contracts\\\\PriceGuranteeStaking.sol\":2147:2162  ethUsdPrice > 0 */\n      sgt\n        /* \"contracts\\\\PriceGuranteeStaking.sol\":2139:2188  require(ethUsdPrice > 0, \"Invalid ETH/USD price\") */\n      tag_173\n      jumpi\n      mload(0x40)\n      0x08c379a000000000000000000000000000000000000000000000000000000000\n      dup2\n      mstore\n      0x04\n      add\n      tag_174\n      swap1\n      tag_175\n      jump\t// in\n    tag_174:\n      mload(0x40)\n      dup1\n      swap2\n      sub\n      swap1\n      revert\n    tag_173:\n        /* \"contracts\\\\PriceGuranteeStaking.sol\":2216:2227  ethUsdPrice */\n      dup1\n        /* \"contracts\\\\PriceGuranteeStaking.sol\":2201:2228  return uint256(ethUsdPrice) */\n      swap3\n      pop\n      pop\n      pop\n        /* \"contracts\\\\PriceGuranteeStaking.sol\":1880:2236  function getEthToUsdValue() public view returns (uint256) {... */\n      swap1\n      jump\t// out\n        /* \"contracts\\\\PriceGuranteeStaking.sol\":2670:2914  function calculatePriceOfGrlInUsd() public view returns (uint256) {... */\n    tag_61:\n        /* \"contracts\\\\PriceGuranteeStaking.sol\":2727:2734  uint256 */\n      0x00\n        /* \"contracts\\\\PriceGuranteeStaking.sol\":2747:2766  uint256 ethUsdPrice */\n      dup1\n        /* \"contracts\\\\PriceGuranteeStaking.sol\":2769:2787  getEthToUsdValue() */\n      tag_177\n        /* \"contracts\\\\PriceGuranteeStaking.sol\":2769:2785  getEthToUsdValue */\n      tag_58\n        /* \"contracts\\\\PriceGuranteeStaking.sol\":2769:2787  getEthToUsdValue() */\n      jump\t// in\n    tag_177:\n        /* \"contracts\\\\PriceGuranteeStaking.sol\":2747:2787  uint256 ethUsdPrice = getEthToUsdValue() */\n      swap1\n      pop\n        /* \"contracts\\\\PriceGuranteeStaking.sol\":2798:2817  uint256 grlEthPrice */\n      0x00\n        /* \"contracts\\\\PriceGuranteeStaking.sol\":2820:2840  getPriceOfGrlInEth() */\n      tag_178\n        /* \"contracts\\\\PriceGuranteeStaking.sol\":2820:2838  getPriceOfGrlInEth */\n      tag_51\n        /* \"contracts\\\\PriceGuranteeStaking.sol\":2820:2840  getPriceOfGrlInEth() */\n      jump\t// in\n    tag_178:\n        /* \"contracts\\\\PriceGuranteeStaking.sol\":2798:2840  uint256 grlEthPrice = getPriceOfGrlInEth() */\n      swap1\n      pop\n        /* \"contracts\\\\PriceGuranteeStaking.sol\":1160:1162  18 */\n      0x12\n        /* \"contracts\\\\PriceGuranteeStaking.sol\":2891:2893  10 */\n      0x0a\n        /* \"contracts\\\\PriceGuranteeStaking.sol\":2891:2905  10 ** DECIMALS */\n      tag_179\n      swap2\n      swap1\n      tag_107\n      jump\t// in\n    tag_179:\n        /* \"contracts\\\\PriceGuranteeStaking.sol\":2875:2886  ethUsdPrice */\n      dup3\n        /* \"contracts\\\\PriceGuranteeStaking.sol\":2861:2872  grlEthPrice */\n      dup3\n        /* \"contracts\\\\PriceGuranteeStaking.sol\":2861:2886  grlEthPrice * ethUsdPrice */\n      tag_180\n      swap2\n      swap1\n      tag_109\n      jump\t// in\n    tag_180:\n        /* \"contracts\\\\PriceGuranteeStaking.sol\":2860:2906  (grlEthPrice * ethUsdPrice) / (10 ** DECIMALS) */\n      tag_181\n      swap2\n      swap1\n      tag_111\n      jump\t// in\n    tag_181:\n        /* \"contracts\\\\PriceGuranteeStaking.sol\":2853:2906  return (grlEthPrice * ethUsdPrice) / (10 ** DECIMALS) */\n      swap3\n      pop\n      pop\n      pop\n        /* \"contracts\\\\PriceGuranteeStaking.sol\":2670:2914  function calculatePriceOfGrlInUsd() public view returns (uint256) {... */\n      swap1\n      jump\t// out\n        /* \"contracts\\\\PriceGuranteeStaking.sol\":968:998  address public grlTokenAddress */\n    tag_64:\n      0x01\n      0x00\n      swap1\n      sload\n      swap1\n      0x0100\n      exp\n      swap1\n      div\n      0xffffffffffffffffffffffffffffffffffffffff\n      and\n      dup2\n      jump\t// out\n        /* \"contracts\\\\PriceGuranteeStaking.sol\":6960:7506  function getUserStakingDurations(address user) external view returns (uint256[] memory) {... */\n    tag_69:\n        /* \"contracts\\\\PriceGuranteeStaking.sol\":7030:7046  uint256[] memory */\n      0x60\n        /* \"contracts\\\\PriceGuranteeStaking.sol\":7059:7085  uint256[] memory durations */\n      0x00\n        /* \"contracts\\\\PriceGuranteeStaking.sol\":7102:7104  12 */\n      0x0c\n        /* \"contracts\\\\PriceGuranteeStaking.sol\":7088:7105  new uint256[](12) */\n      0xffffffffffffffff\n      dup2\n      gt\n      iszero\n      tag_183\n      jumpi\n      tag_184\n      tag_123\n      jump\t// in\n    tag_184:\n    tag_183:\n      mload(0x40)\n      swap1\n      dup1\n      dup3\n      mstore\n      dup1\n      0x20\n      mul\n      0x20\n      add\n      dup3\n      add\n      0x40\n      mstore\n      dup1\n      iszero\n      tag_185\n      jumpi\n      dup2\n      0x20\n      add\n      0x20\n      dup3\n      mul\n      dup1\n      calldatasize\n      dup4\n      calldatacopy\n      dup1\n      dup3\n      add\n      swap2\n      pop\n      pop\n      swap1\n      pop\n    tag_185:\n      pop\n        /* \"contracts\\\\PriceGuranteeStaking.sol\":7059:7105  uint256[] memory durations = new uint256[](12) */\n      swap1\n      pop\n        /* \"contracts\\\\PriceGuranteeStaking.sol\":7168:7181  uint256 index */\n      0x00\n        /* \"contracts\\\\PriceGuranteeStaking.sol\":7201:7210  uint256 i */\n      dup1\n        /* \"contracts\\\\PriceGuranteeStaking.sol\":7213:7215  30 */\n      0x1e\n        /* \"contracts\\\\PriceGuranteeStaking.sol\":7201:7215  uint256 i = 30 */\n      swap1\n      pop\n        /* \"contracts\\\\PriceGuranteeStaking.sol\":7196:7379  for (uint256 i = 30; i <= 360; i += 30) {... */\n    tag_186:\n        /* \"contracts\\\\PriceGuranteeStaking.sol\":7222:7225  360 */\n      0x0168\n        /* \"contracts\\\\PriceGuranteeStaking.sol\":7217:7218  i */\n      dup2\n        /* \"contracts\\\\PriceGuranteeStaking.sol\":7217:7225  i <= 360 */\n      gt\n        /* \"contracts\\\\PriceGuranteeStaking.sol\":7196:7379  for (uint256 i = 30; i <= 360; i += 30) {... */\n      tag_187\n      jumpi\n        /* \"contracts\\\\PriceGuranteeStaking.sol\":7284:7285  0 */\n      0x00\n        /* \"contracts\\\\PriceGuranteeStaking.sol\":7255:7265  userStakes */\n      0x05\n        /* \"contracts\\\\PriceGuranteeStaking.sol\":7255:7271  userStakes[user] */\n      0x00\n        /* \"contracts\\\\PriceGuranteeStaking.sol\":7266:7270  user */\n      dup8\n        /* \"contracts\\\\PriceGuranteeStaking.sol\":7255:7271  userStakes[user] */\n      0xffffffffffffffffffffffffffffffffffffffff\n      and\n      0xffffffffffffffffffffffffffffffffffffffff\n      and\n      dup2\n      mstore\n      0x20\n      add\n      swap1\n      dup2\n      mstore\n      0x20\n      add\n      0x00\n      keccak256\n        /* \"contracts\\\\PriceGuranteeStaking.sol\":7255:7274  userStakes[user][i] */\n      0x00\n        /* \"contracts\\\\PriceGuranteeStaking.sol\":7272:7273  i */\n      dup4\n        /* \"contracts\\\\PriceGuranteeStaking.sol\":7255:7274  userStakes[user][i] */\n      dup2\n      mstore\n      0x20\n      add\n      swap1\n      dup2\n      mstore\n      0x20\n      add\n      0x00\n      keccak256\n        /* \"contracts\\\\PriceGuranteeStaking.sol\":7255:7281  userStakes[user][i].length */\n      dup1\n      sload\n      swap1\n      pop\n        /* \"contracts\\\\PriceGuranteeStaking.sol\":7255:7285  userStakes[user][i].length > 0 */\n      gt\n        /* \"contracts\\\\PriceGuranteeStaking.sol\":7251:7368  if (userStakes[user][i].length > 0) {... */\n      iszero\n      tag_189\n      jumpi\n        /* \"contracts\\\\PriceGuranteeStaking.sol\":7325:7326  i */\n      dup1\n        /* \"contracts\\\\PriceGuranteeStaking.sol\":7306:7315  durations */\n      dup4\n        /* \"contracts\\\\PriceGuranteeStaking.sol\":7316:7321  index */\n      dup4\n        /* \"contracts\\\\PriceGuranteeStaking.sol\":7306:7322  durations[index] */\n      dup2\n      mload\n      dup2\n      lt\n      tag_190\n      jumpi\n      tag_191\n      tag_87\n      jump\t// in\n    tag_191:\n    tag_190:\n      0x20\n      mul\n      0x20\n      add\n      add\n        /* \"contracts\\\\PriceGuranteeStaking.sol\":7306:7326  durations[index] = i */\n      dup2\n      dup2\n      mstore\n      pop\n      pop\n        /* \"contracts\\\\PriceGuranteeStaking.sol\":7345:7352  index++ */\n      dup2\n      dup1\n      tag_192\n      swap1\n      tag_193\n      jump\t// in\n    tag_192:\n      swap3\n      pop\n      pop\n        /* \"contracts\\\\PriceGuranteeStaking.sol\":7251:7368  if (userStakes[user][i].length > 0) {... */\n    tag_189:\n        /* \"contracts\\\\PriceGuranteeStaking.sol\":7232:7234  30 */\n      0x1e\n        /* \"contracts\\\\PriceGuranteeStaking.sol\":7227:7234  i += 30 */\n      dup2\n      tag_194\n      swap2\n      swap1\n      tag_101\n      jump\t// in\n    tag_194:\n      swap1\n      pop\n        /* \"contracts\\\\PriceGuranteeStaking.sol\":7196:7379  for (uint256 i = 30; i <= 360; i += 30) {... */\n      jump(tag_186)\n    tag_187:\n      pop\n        /* \"contracts\\\\PriceGuranteeStaking.sol\":7468:7473  index */\n      dup1\n        /* \"contracts\\\\PriceGuranteeStaking.sol\":7457:7466  durations */\n      dup3\n        /* \"contracts\\\\PriceGuranteeStaking.sol\":7450:7474  mstore(durations, index) */\n      mstore\n        /* \"contracts\\\\PriceGuranteeStaking.sol\":7493:7502  durations */\n      dup2\n        /* \"contracts\\\\PriceGuranteeStaking.sol\":7486:7502  return durations */\n      swap3\n      pop\n      pop\n      pop\n        /* \"contracts\\\\PriceGuranteeStaking.sol\":6960:7506  function getUserStakingDurations(address user) external view returns (uint256[] memory) {... */\n      swap2\n      swap1\n      pop\n      jump\t// out\n        /* \"contracts\\\\PriceGuranteeStaking.sol\":941:961  address public admin */\n    tag_73:\n      0x00\n      dup1\n      sload\n      swap1\n      0x0100\n      exp\n      swap1\n      div\n      0xffffffffffffffffffffffffffffffffffffffff\n      and\n      dup2\n      jump\t// out\n        /* \"contracts\\\\PriceGuranteeStaking.sol\":5548:5842  function calculateStakingFee(... */\n    tag_147:\n        /* \"contracts\\\\PriceGuranteeStaking.sol\":5665:5672  uint256 */\n      0x00\n        /* \"contracts\\\\PriceGuranteeStaking.sol\":5685:5706  uint256 feePercentage */\n      dup1\n        /* \"contracts\\\\PriceGuranteeStaking.sol\":5709:5748  getStakingFeePercentage(durationInDays) */\n      tag_196\n        /* \"contracts\\\\PriceGuranteeStaking.sol\":5733:5747  durationInDays */\n      dup5\n        /* \"contracts\\\\PriceGuranteeStaking.sol\":5709:5732  getStakingFeePercentage */\n      tag_197\n        /* \"contracts\\\\PriceGuranteeStaking.sol\":5709:5748  getStakingFeePercentage(durationInDays) */\n      jump\t// in\n    tag_196:\n        /* \"contracts\\\\PriceGuranteeStaking.sol\":5685:5748  uint256 feePercentage = getStakingFeePercentage(durationInDays) */\n      swap1\n      pop\n        /* \"contracts\\\\PriceGuranteeStaking.sol\":5793:5798  10000 */\n      0x2710\n        /* \"contracts\\\\PriceGuranteeStaking.sol\":5776:5789  feePercentage */\n      dup2\n        /* \"contracts\\\\PriceGuranteeStaking.sol\":5767:5773  amount */\n      dup5\n        /* \"contracts\\\\PriceGuranteeStaking.sol\":5767:5789  amount * feePercentage */\n      tag_198\n      swap2\n      swap1\n      tag_109\n      jump\t// in\n    tag_198:\n        /* \"contracts\\\\PriceGuranteeStaking.sol\":5766:5798  (amount * feePercentage) / 10000 */\n      tag_199\n      swap2\n      swap1\n      tag_111\n      jump\t// in\n    tag_199:\n        /* \"contracts\\\\PriceGuranteeStaking.sol\":5759:5798  return (amount * feePercentage) / 10000 */\n      swap2\n      pop\n      pop\n        /* \"contracts\\\\PriceGuranteeStaking.sol\":5548:5842  function calculateStakingFee(... */\n      swap3\n      swap2\n      pop\n      pop\n      jump\t// out\n        /* \"contracts\\\\PriceGuranteeStaking.sol\":5850:6785  function getStakingFeePercentage(uint256 durationInDays) internal pure returns (uint256) {... */\n    tag_197:\n        /* \"contracts\\\\PriceGuranteeStaking.sol\":5930:5937  uint256 */\n      0x00\n        /* \"contracts\\\\PriceGuranteeStaking.sol\":5981:5982  0 */\n      dup1\n        /* \"contracts\\\\PriceGuranteeStaking.sol\":5975:5977  30 */\n      0x1e\n        /* \"contracts\\\\PriceGuranteeStaking.sol\":5958:5972  durationInDays */\n      dup4\n        /* \"contracts\\\\PriceGuranteeStaking.sol\":5958:5977  durationInDays % 30 */\n      tag_201\n      swap2\n      swap1\n      tag_142\n      jump\t// in\n    tag_201:\n        /* \"contracts\\\\PriceGuranteeStaking.sol\":5958:5982  durationInDays % 30 == 0 */\n      eq\n        /* \"contracts\\\\PriceGuranteeStaking.sol\":5950:6003  require(durationInDays % 30 == 0, \"Invalid duration\") */\n      tag_202\n      jumpi\n      mload(0x40)\n      0x08c379a000000000000000000000000000000000000000000000000000000000\n      dup2\n      mstore\n      0x04\n      add\n      tag_203\n      swap1\n      tag_78\n      jump\t// in\n    tag_203:\n      mload(0x40)\n      dup1\n      swap2\n      sub\n      swap1\n      revert\n    tag_202:\n        /* \"contracts\\\\PriceGuranteeStaking.sol\":6038:6040  30 */\n      0x1e\n        /* \"contracts\\\\PriceGuranteeStaking.sol\":6020:6034  durationInDays */\n      dup3\n        /* \"contracts\\\\PriceGuranteeStaking.sol\":6020:6040  durationInDays == 30 */\n      sub\n        /* \"contracts\\\\PriceGuranteeStaking.sol\":6016:6053  if (durationInDays == 30) return 3750 */\n      tag_204\n      jumpi\n        /* \"contracts\\\\PriceGuranteeStaking.sol\":6049:6053  3750 */\n      0x0ea6\n        /* \"contracts\\\\PriceGuranteeStaking.sol\":6042:6053  return 3750 */\n      swap1\n      pop\n      jump(tag_200)\n        /* \"contracts\\\\PriceGuranteeStaking.sol\":6016:6053  if (durationInDays == 30) return 3750 */\n    tag_204:\n        /* \"contracts\\\\PriceGuranteeStaking.sol\":6097:6099  60 */\n      0x3c\n        /* \"contracts\\\\PriceGuranteeStaking.sol\":6079:6093  durationInDays */\n      dup3\n        /* \"contracts\\\\PriceGuranteeStaking.sol\":6079:6099  durationInDays == 60 */\n      sub\n        /* \"contracts\\\\PriceGuranteeStaking.sol\":6075:6112  if (durationInDays == 60) return 5625 */\n      tag_205\n      jumpi\n        /* \"contracts\\\\PriceGuranteeStaking.sol\":6108:6112  5625 */\n      0x15f9\n        /* \"contracts\\\\PriceGuranteeStaking.sol\":6101:6112  return 5625 */\n      swap1\n      pop\n      jump(tag_200)\n        /* \"contracts\\\\PriceGuranteeStaking.sol\":6075:6112  if (durationInDays == 60) return 5625 */\n    tag_205:\n        /* \"contracts\\\\PriceGuranteeStaking.sol\":6156:6158  90 */\n      0x5a\n        /* \"contracts\\\\PriceGuranteeStaking.sol\":6138:6152  durationInDays */\n      dup3\n        /* \"contracts\\\\PriceGuranteeStaking.sol\":6138:6158  durationInDays == 90 */\n      sub\n        /* \"contracts\\\\PriceGuranteeStaking.sol\":6134:6171  if (durationInDays == 90) return 7734 */\n      tag_206\n      jumpi\n        /* \"contracts\\\\PriceGuranteeStaking.sol\":6167:6171  7734 */\n      0x1e36\n        /* \"contracts\\\\PriceGuranteeStaking.sol\":6160:6171  return 7734 */\n      swap1\n      pop\n      jump(tag_200)\n        /* \"contracts\\\\PriceGuranteeStaking.sol\":6134:6171  if (durationInDays == 90) return 7734 */\n    tag_206:\n        /* \"contracts\\\\PriceGuranteeStaking.sol\":6215:6218  120 */\n      0x78\n        /* \"contracts\\\\PriceGuranteeStaking.sol\":6197:6211  durationInDays */\n      dup3\n        /* \"contracts\\\\PriceGuranteeStaking.sol\":6197:6218  durationInDays == 120 */\n      sub\n        /* \"contracts\\\\PriceGuranteeStaking.sol\":6193:6231  if (durationInDays == 120) return 9909 */\n      tag_207\n      jumpi\n        /* \"contracts\\\\PriceGuranteeStaking.sol\":6227:6231  9909 */\n      0x26b5\n        /* \"contracts\\\\PriceGuranteeStaking.sol\":6220:6231  return 9909 */\n      swap1\n      pop\n      jump(tag_200)\n        /* \"contracts\\\\PriceGuranteeStaking.sol\":6193:6231  if (durationInDays == 120) return 9909 */\n    tag_207:\n        /* \"contracts\\\\PriceGuranteeStaking.sol\":6275:6278  150 */\n      0x96\n        /* \"contracts\\\\PriceGuranteeStaking.sol\":6257:6271  durationInDays */\n      dup3\n        /* \"contracts\\\\PriceGuranteeStaking.sol\":6257:6278  durationInDays == 150 */\n      sub\n        /* \"contracts\\\\PriceGuranteeStaking.sol\":6253:6292  if (durationInDays == 150) return 12000 */\n      tag_208\n      jumpi\n        /* \"contracts\\\\PriceGuranteeStaking.sol\":6287:6292  12000 */\n      0x2ee0\n        /* \"contracts\\\\PriceGuranteeStaking.sol\":6280:6292  return 12000 */\n      swap1\n      pop\n      jump(tag_200)\n        /* \"contracts\\\\PriceGuranteeStaking.sol\":6253:6292  if (durationInDays == 150) return 12000 */\n    tag_208:\n        /* \"contracts\\\\PriceGuranteeStaking.sol\":6337:6340  180 */\n      0xb4\n        /* \"contracts\\\\PriceGuranteeStaking.sol\":6319:6333  durationInDays */\n      dup3\n        /* \"contracts\\\\PriceGuranteeStaking.sol\":6319:6340  durationInDays == 180 */\n      sub\n        /* \"contracts\\\\PriceGuranteeStaking.sol\":6315:6354  if (durationInDays == 180) return 13898 */\n      tag_209\n      jumpi\n        /* \"contracts\\\\PriceGuranteeStaking.sol\":6349:6354  13898 */\n      0x364a\n        /* \"contracts\\\\PriceGuranteeStaking.sol\":6342:6354  return 13898 */\n      swap1\n      pop\n      jump(tag_200)\n        /* \"contracts\\\\PriceGuranteeStaking.sol\":6315:6354  if (durationInDays == 180) return 13898 */\n    tag_209:\n        /* \"contracts\\\\PriceGuranteeStaking.sol\":6399:6402  210 */\n      0xd2\n        /* \"contracts\\\\PriceGuranteeStaking.sol\":6381:6395  durationInDays */\n      dup3\n        /* \"contracts\\\\PriceGuranteeStaking.sol\":6381:6402  durationInDays == 210 */\n      sub\n        /* \"contracts\\\\PriceGuranteeStaking.sol\":6377:6416  if (durationInDays == 210) return 15547 */\n      tag_210\n      jumpi\n        /* \"contracts\\\\PriceGuranteeStaking.sol\":6411:6416  15547 */\n      0x3cbb\n        /* \"contracts\\\\PriceGuranteeStaking.sol\":6404:6416  return 15547 */\n      swap1\n      pop\n      jump(tag_200)\n        /* \"contracts\\\\PriceGuranteeStaking.sol\":6377:6416  if (durationInDays == 210) return 15547 */\n    tag_210:\n        /* \"contracts\\\\PriceGuranteeStaking.sol\":6461:6464  240 */\n      0xf0\n        /* \"contracts\\\\PriceGuranteeStaking.sol\":6443:6457  durationInDays */\n      dup3\n        /* \"contracts\\\\PriceGuranteeStaking.sol\":6443:6464  durationInDays == 240 */\n      sub\n        /* \"contracts\\\\PriceGuranteeStaking.sol\":6439:6478  if (durationInDays == 240) return 16931 */\n      tag_211\n      jumpi\n        /* \"contracts\\\\PriceGuranteeStaking.sol\":6473:6478  16931 */\n      0x4223\n        /* \"contracts\\\\PriceGuranteeStaking.sol\":6466:6478  return 16931 */\n      swap1\n      pop\n      jump(tag_200)\n        /* \"contracts\\\\PriceGuranteeStaking.sol\":6439:6478  if (durationInDays == 240) return 16931 */\n    tag_211:\n        /* \"contracts\\\\PriceGuranteeStaking.sol\":6523:6526  270 */\n      0x010e\n        /* \"contracts\\\\PriceGuranteeStaking.sol\":6505:6519  durationInDays */\n      dup3\n        /* \"contracts\\\\PriceGuranteeStaking.sol\":6505:6526  durationInDays == 270 */\n      sub\n        /* \"contracts\\\\PriceGuranteeStaking.sol\":6501:6540  if (durationInDays == 270) return 18061 */\n      tag_212\n      jumpi\n        /* \"contracts\\\\PriceGuranteeStaking.sol\":6535:6540  18061 */\n      0x468d\n        /* \"contracts\\\\PriceGuranteeStaking.sol\":6528:6540  return 18061 */\n      swap1\n      pop\n      jump(tag_200)\n        /* \"contracts\\\\PriceGuranteeStaking.sol\":6501:6540  if (durationInDays == 270) return 18061 */\n    tag_212:\n        /* \"contracts\\\\PriceGuranteeStaking.sol\":6585:6588  300 */\n      0x012c\n        /* \"contracts\\\\PriceGuranteeStaking.sol\":6567:6581  durationInDays */\n      dup3\n        /* \"contracts\\\\PriceGuranteeStaking.sol\":6567:6588  durationInDays == 300 */\n      sub\n        /* \"contracts\\\\PriceGuranteeStaking.sol\":6563:6602  if (durationInDays == 300) return 18965 */\n      tag_213\n      jumpi\n        /* \"contracts\\\\PriceGuranteeStaking.sol\":6597:6602  18965 */\n      0x4a15\n        /* \"contracts\\\\PriceGuranteeStaking.sol\":6590:6602  return 18965 */\n      swap1\n      pop\n      jump(tag_200)\n        /* \"contracts\\\\PriceGuranteeStaking.sol\":6563:6602  if (durationInDays == 300) return 18965 */\n    tag_213:\n        /* \"contracts\\\\PriceGuranteeStaking.sol\":6647:6650  330 */\n      0x014a\n        /* \"contracts\\\\PriceGuranteeStaking.sol\":6629:6643  durationInDays */\n      dup3\n        /* \"contracts\\\\PriceGuranteeStaking.sol\":6629:6650  durationInDays == 330 */\n      sub\n        /* \"contracts\\\\PriceGuranteeStaking.sol\":6625:6664  if (durationInDays == 330) return 19677 */\n      tag_214\n      jumpi\n        /* \"contracts\\\\PriceGuranteeStaking.sol\":6659:6664  19677 */\n      0x4cdd\n        /* \"contracts\\\\PriceGuranteeStaking.sol\":6652:6664  return 19677 */\n      swap1\n      pop\n      jump(tag_200)\n        /* \"contracts\\\\PriceGuranteeStaking.sol\":6625:6664  if (durationInDays == 330) return 19677 */\n    tag_214:\n        /* \"contracts\\\\PriceGuranteeStaking.sol\":6709:6712  360 */\n      0x0168\n        /* \"contracts\\\\PriceGuranteeStaking.sol\":6691:6705  durationInDays */\n      dup3\n        /* \"contracts\\\\PriceGuranteeStaking.sol\":6691:6712  durationInDays == 360 */\n      sub\n        /* \"contracts\\\\PriceGuranteeStaking.sol\":6687:6726  if (durationInDays == 360) return 20231 */\n      tag_215\n      jumpi\n        /* \"contracts\\\\PriceGuranteeStaking.sol\":6721:6726  20231 */\n      0x4f07\n        /* \"contracts\\\\PriceGuranteeStaking.sol\":6714:6726  return 20231 */\n      swap1\n      pop\n      jump(tag_200)\n        /* \"contracts\\\\PriceGuranteeStaking.sol\":6687:6726  if (durationInDays == 360) return 20231 */\n    tag_215:\n        /* \"contracts\\\\PriceGuranteeStaking.sol\":6751:6777  revert(\"Invalid duration\") */\n      mload(0x40)\n      0x08c379a000000000000000000000000000000000000000000000000000000000\n      dup2\n      mstore\n      0x04\n      add\n      tag_216\n      swap1\n      tag_78\n      jump\t// in\n    tag_216:\n      mload(0x40)\n      dup1\n      swap2\n      sub\n      swap1\n      revert\n        /* \"contracts\\\\PriceGuranteeStaking.sol\":5850:6785  function getStakingFeePercentage(uint256 durationInDays) internal pure returns (uint256) {... */\n    tag_200:\n      swap2\n      swap1\n      pop\n      jump\t// out\n        /* \"#utility.yul\":7:133   */\n    tag_217:\n        /* \"#utility.yul\":44:51   */\n      0x00\n        /* \"#utility.yul\":84:126   */\n      0xffffffffffffffffffffffffffffffffffffffff\n        /* \"#utility.yul\":77:82   */\n      dup3\n        /* \"#utility.yul\":73:127   */\n      and\n        /* \"#utility.yul\":62:127   */\n      swap1\n      pop\n        /* \"#utility.yul\":7:133   */\n      swap2\n      swap1\n      pop\n      jump\t// out\n        /* \"#utility.yul\":139:235   */\n    tag_218:\n        /* \"#utility.yul\":176:183   */\n      0x00\n        /* \"#utility.yul\":205:229   */\n      tag_289\n        /* \"#utility.yul\":223:228   */\n      dup3\n        /* \"#utility.yul\":205:229   */\n      tag_217\n      jump\t// in\n    tag_289:\n        /* \"#utility.yul\":194:229   */\n      swap1\n      pop\n        /* \"#utility.yul\":139:235   */\n      swap2\n      swap1\n      pop\n      jump\t// out\n        /* \"#utility.yul\":241:359   */\n    tag_219:\n        /* \"#utility.yul\":328:352   */\n      tag_291\n        /* \"#utility.yul\":346:351   */\n      dup2\n        /* \"#utility.yul\":328:352   */\n      tag_218\n      jump\t// in\n    tag_291:\n        /* \"#utility.yul\":323:326   */\n      dup3\n        /* \"#utility.yul\":316:353   */\n      mstore\n        /* \"#utility.yul\":241:359   */\n      pop\n      pop\n      jump\t// out\n        /* \"#utility.yul\":365:587   */\n    tag_23:\n        /* \"#utility.yul\":458:462   */\n      0x00\n        /* \"#utility.yul\":496:498   */\n      0x20\n        /* \"#utility.yul\":485:494   */\n      dup3\n        /* \"#utility.yul\":481:499   */\n      add\n        /* \"#utility.yul\":473:499   */\n      swap1\n      pop\n        /* \"#utility.yul\":509:580   */\n      tag_293\n        /* \"#utility.yul\":577:578   */\n      0x00\n        /* \"#utility.yul\":566:575   */\n      dup4\n        /* \"#utility.yul\":562:579   */\n      add\n        /* \"#utility.yul\":553:559   */\n      dup5\n        /* \"#utility.yul\":509:580   */\n      tag_219\n      jump\t// in\n    tag_293:\n        /* \"#utility.yul\":365:587   */\n      swap3\n      swap2\n      pop\n      pop\n      jump\t// out\n        /* \"#utility.yul\":593:670   */\n    tag_220:\n        /* \"#utility.yul\":630:637   */\n      0x00\n        /* \"#utility.yul\":659:664   */\n      dup2\n        /* \"#utility.yul\":648:664   */\n      swap1\n      pop\n        /* \"#utility.yul\":593:670   */\n      swap2\n      swap1\n      pop\n      jump\t// out\n        /* \"#utility.yul\":676:794   */\n    tag_221:\n        /* \"#utility.yul\":763:787   */\n      tag_296\n        /* \"#utility.yul\":781:786   */\n      dup2\n        /* \"#utility.yul\":763:787   */\n      tag_220\n      jump\t// in\n    tag_296:\n        /* \"#utility.yul\":758:761   */\n      dup3\n        /* \"#utility.yul\":751:788   */\n      mstore\n        /* \"#utility.yul\":676:794   */\n      pop\n      pop\n      jump\t// out\n        /* \"#utility.yul\":800:1022   */\n    tag_30:\n        /* \"#utility.yul\":893:897   */\n      0x00\n        /* \"#utility.yul\":931:933   */\n      0x20\n        /* \"#utility.yul\":920:929   */\n      dup3\n        /* \"#utility.yul\":916:934   */\n      add\n        /* \"#utility.yul\":908:934   */\n      swap1\n      pop\n        /* \"#utility.yul\":944:1015   */\n      tag_298\n        /* \"#utility.yul\":1012:1013   */\n      0x00\n        /* \"#utility.yul\":1001:1010   */\n      dup4\n        /* \"#utility.yul\":997:1014   */\n      add\n        /* \"#utility.yul\":988:994   */\n      dup5\n        /* \"#utility.yul\":944:1015   */\n      tag_221\n      jump\t// in\n    tag_298:\n        /* \"#utility.yul\":800:1022   */\n      swap3\n      swap2\n      pop\n      pop\n      jump\t// out\n        /* \"#utility.yul\":1028:1103   */\n    tag_222:\n        /* \"#utility.yul\":1061:1067   */\n      0x00\n        /* \"#utility.yul\":1094:1096   */\n      0x40\n        /* \"#utility.yul\":1088:1097   */\n      mload\n        /* \"#utility.yul\":1078:1097   */\n      swap1\n      pop\n        /* \"#utility.yul\":1028:1103   */\n      swap1\n      jump\t// out\n        /* \"#utility.yul\":1109:1226   */\n    tag_223:\n        /* \"#utility.yul\":1218:1219   */\n      0x00\n        /* \"#utility.yul\":1215:1216   */\n      dup1\n        /* \"#utility.yul\":1208:1220   */\n      revert\n        /* \"#utility.yul\":1232:1349   */\n    tag_224:\n        /* \"#utility.yul\":1341:1342   */\n      0x00\n        /* \"#utility.yul\":1338:1339   */\n      dup1\n        /* \"#utility.yul\":1331:1343   */\n      revert\n        /* \"#utility.yul\":1355:1477   */\n    tag_225:\n        /* \"#utility.yul\":1428:1452   */\n      tag_303\n        /* \"#utility.yul\":1446:1451   */\n      dup2\n        /* \"#utility.yul\":1428:1452   */\n      tag_220\n      jump\t// in\n    tag_303:\n        /* \"#utility.yul\":1421:1426   */\n      dup2\n        /* \"#utility.yul\":1418:1453   */\n      eq\n        /* \"#utility.yul\":1408:1471   */\n      tag_304\n      jumpi\n        /* \"#utility.yul\":1467:1468   */\n      0x00\n        /* \"#utility.yul\":1464:1465   */\n      dup1\n        /* \"#utility.yul\":1457:1469   */\n      revert\n        /* \"#utility.yul\":1408:1471   */\n    tag_304:\n        /* \"#utility.yul\":1355:1477   */\n      pop\n      jump\t// out\n        /* \"#utility.yul\":1483:1622   */\n    tag_226:\n        /* \"#utility.yul\":1529:1534   */\n      0x00\n        /* \"#utility.yul\":1567:1573   */\n      dup2\n        /* \"#utility.yul\":1554:1574   */\n      calldataload\n        /* \"#utility.yul\":1545:1574   */\n      swap1\n      pop\n        /* \"#utility.yul\":1583:1616   */\n      tag_306\n        /* \"#utility.yul\":1610:1615   */\n      dup2\n        /* \"#utility.yul\":1583:1616   */\n      tag_225\n      jump\t// in\n    tag_306:\n        /* \"#utility.yul\":1483:1622   */\n      swap3\n      swap2\n      pop\n      pop\n      jump\t// out\n        /* \"#utility.yul\":1628:1957   */\n    tag_33:\n        /* \"#utility.yul\":1687:1693   */\n      0x00\n        /* \"#utility.yul\":1736:1738   */\n      0x20\n        /* \"#utility.yul\":1724:1733   */\n      dup3\n        /* \"#utility.yul\":1715:1722   */\n      dup5\n        /* \"#utility.yul\":1711:1734   */\n      sub\n        /* \"#utility.yul\":1707:1739   */\n      slt\n        /* \"#utility.yul\":1704:1823   */\n      iszero\n      tag_308\n      jumpi\n        /* \"#utility.yul\":1742:1821   */\n      tag_309\n      tag_223\n      jump\t// in\n    tag_309:\n        /* \"#utility.yul\":1704:1823   */\n    tag_308:\n        /* \"#utility.yul\":1862:1863   */\n      0x00\n        /* \"#utility.yul\":1887:1940   */\n      tag_310\n        /* \"#utility.yul\":1932:1939   */\n      dup5\n        /* \"#utility.yul\":1923:1929   */\n      dup3\n        /* \"#utility.yul\":1912:1921   */\n      dup6\n        /* \"#utility.yul\":1908:1930   */\n      add\n        /* \"#utility.yul\":1887:1940   */\n      tag_226\n      jump\t// in\n    tag_310:\n        /* \"#utility.yul\":1877:1940   */\n      swap2\n      pop\n        /* \"#utility.yul\":1833:1950   */\n      pop\n        /* \"#utility.yul\":1628:1957   */\n      swap3\n      swap2\n      pop\n      pop\n      jump\t// out\n        /* \"#utility.yul\":1963:2085   */\n    tag_227:\n        /* \"#utility.yul\":2036:2060   */\n      tag_312\n        /* \"#utility.yul\":2054:2059   */\n      dup2\n        /* \"#utility.yul\":2036:2060   */\n      tag_218\n      jump\t// in\n    tag_312:\n        /* \"#utility.yul\":2029:2034   */\n      dup2\n        /* \"#utility.yul\":2026:2061   */\n      eq\n        /* \"#utility.yul\":2016:2079   */\n      tag_313\n      jumpi\n        /* \"#utility.yul\":2075:2076   */\n      0x00\n        /* \"#utility.yul\":2072:2073   */\n      dup1\n        /* \"#utility.yul\":2065:2077   */\n      revert\n        /* \"#utility.yul\":2016:2079   */\n    tag_313:\n        /* \"#utility.yul\":1963:2085   */\n      pop\n      jump\t// out\n        /* \"#utility.yul\":2091:2230   */\n    tag_228:\n        /* \"#utility.yul\":2137:2142   */\n      0x00\n        /* \"#utility.yul\":2175:2181   */\n      dup2\n        /* \"#utility.yul\":2162:2182   */\n      calldataload\n        /* \"#utility.yul\":2153:2182   */\n      swap1\n      pop\n        /* \"#utility.yul\":2191:2224   */\n      tag_315\n        /* \"#utility.yul\":2218:2223   */\n      dup2\n        /* \"#utility.yul\":2191:2224   */\n      tag_227\n      jump\t// in\n    tag_315:\n        /* \"#utility.yul\":2091:2230   */\n      swap3\n      swap2\n      pop\n      pop\n      jump\t// out\n        /* \"#utility.yul\":2236:2855   */\n    tag_37:\n        /* \"#utility.yul\":2313:2319   */\n      0x00\n        /* \"#utility.yul\":2321:2327   */\n      dup1\n        /* \"#utility.yul\":2329:2335   */\n      0x00\n        /* \"#utility.yul\":2378:2380   */\n      0x60\n        /* \"#utility.yul\":2366:2375   */\n      dup5\n        /* \"#utility.yul\":2357:2364   */\n      dup7\n        /* \"#utility.yul\":2353:2376   */\n      sub\n        /* \"#utility.yul\":2349:2381   */\n      slt\n        /* \"#utility.yul\":2346:2465   */\n      iszero\n      tag_317\n      jumpi\n        /* \"#utility.yul\":2384:2463   */\n      tag_318\n      tag_223\n      jump\t// in\n    tag_318:\n        /* \"#utility.yul\":2346:2465   */\n    tag_317:\n        /* \"#utility.yul\":2504:2505   */\n      0x00\n        /* \"#utility.yul\":2529:2582   */\n      tag_319\n        /* \"#utility.yul\":2574:2581   */\n      dup7\n        /* \"#utility.yul\":2565:2571   */\n      dup3\n        /* \"#utility.yul\":2554:2563   */\n      dup8\n        /* \"#utility.yul\":2550:2572   */\n      add\n        /* \"#utility.yul\":2529:2582   */\n      tag_228\n      jump\t// in\n    tag_319:\n        /* \"#utility.yul\":2519:2582   */\n      swap4\n      pop\n        /* \"#utility.yul\":2475:2592   */\n      pop\n        /* \"#utility.yul\":2631:2633   */\n      0x20\n        /* \"#utility.yul\":2657:2710   */\n      tag_320\n        /* \"#utility.yul\":2702:2709   */\n      dup7\n        /* \"#utility.yul\":2693:2699   */\n      dup3\n        /* \"#utility.yul\":2682:2691   */\n      dup8\n        /* \"#utility.yul\":2678:2700   */\n      add\n        /* \"#utility.yul\":2657:2710   */\n      tag_226\n      jump\t// in\n    tag_320:\n        /* \"#utility.yul\":2647:2710   */\n      swap3\n      pop\n        /* \"#utility.yul\":2602:2720   */\n      pop\n        /* \"#utility.yul\":2759:2761   */\n      0x40\n        /* \"#utility.yul\":2785:2838   */\n      tag_321\n        /* \"#utility.yul\":2830:2837   */\n      dup7\n        /* \"#utility.yul\":2821:2827   */\n      dup3\n        /* \"#utility.yul\":2810:2819   */\n      dup8\n        /* \"#utility.yul\":2806:2828   */\n      add\n        /* \"#utility.yul\":2785:2838   */\n      tag_226\n      jump\t// in\n    tag_321:\n        /* \"#utility.yul\":2775:2838   */\n      swap2\n      pop\n        /* \"#utility.yul\":2730:2848   */\n      pop\n        /* \"#utility.yul\":2236:2855   */\n      swap3\n      pop\n      swap3\n      pop\n      swap3\n      jump\t// out\n        /* \"#utility.yul\":2861:3414   */\n    tag_40:\n        /* \"#utility.yul\":3038:3042   */\n      0x00\n        /* \"#utility.yul\":3076:3079   */\n      0x80\n        /* \"#utility.yul\":3065:3074   */\n      dup3\n        /* \"#utility.yul\":3061:3080   */\n      add\n        /* \"#utility.yul\":3053:3080   */\n      swap1\n      pop\n        /* \"#utility.yul\":3090:3161   */\n      tag_323\n        /* \"#utility.yul\":3158:3159   */\n      0x00\n        /* \"#utility.yul\":3147:3156   */\n      dup4\n        /* \"#utility.yul\":3143:3160   */\n      add\n        /* \"#utility.yul\":3134:3140   */\n      dup8\n        /* \"#utility.yul\":3090:3161   */\n      tag_221\n      jump\t// in\n    tag_323:\n        /* \"#utility.yul\":3171:3243   */\n      tag_324\n        /* \"#utility.yul\":3239:3241   */\n      0x20\n        /* \"#utility.yul\":3228:3237   */\n      dup4\n        /* \"#utility.yul\":3224:3242   */\n      add\n        /* \"#utility.yul\":3215:3221   */\n      dup7\n        /* \"#utility.yul\":3171:3243   */\n      tag_221\n      jump\t// in\n    tag_324:\n        /* \"#utility.yul\":3253:3325   */\n      tag_325\n        /* \"#utility.yul\":3321:3323   */\n      0x40\n        /* \"#utility.yul\":3310:3319   */\n      dup4\n        /* \"#utility.yul\":3306:3324   */\n      add\n        /* \"#utility.yul\":3297:3303   */\n      dup6\n        /* \"#utility.yul\":3253:3325   */\n      tag_221\n      jump\t// in\n    tag_325:\n        /* \"#utility.yul\":3335:3407   */\n      tag_326\n        /* \"#utility.yul\":3403:3405   */\n      0x60\n        /* \"#utility.yul\":3392:3401   */\n      dup4\n        /* \"#utility.yul\":3388:3406   */\n      add\n        /* \"#utility.yul\":3379:3385   */\n      dup5\n        /* \"#utility.yul\":3335:3407   */\n      tag_221\n      jump\t// in\n    tag_326:\n        /* \"#utility.yul\":2861:3414   */\n      swap6\n      swap5\n      pop\n      pop\n      pop\n      pop\n      pop\n      jump\t// out\n        /* \"#utility.yul\":3420:3894   */\n    tag_43:\n        /* \"#utility.yul\":3488:3494   */\n      0x00\n        /* \"#utility.yul\":3496:3502   */\n      dup1\n        /* \"#utility.yul\":3545:3547   */\n      0x40\n        /* \"#utility.yul\":3533:3542   */\n      dup4\n        /* \"#utility.yul\":3524:3531   */\n      dup6\n        /* \"#utility.yul\":3520:3543   */\n      sub\n        /* \"#utility.yul\":3516:3548   */\n      slt\n        /* \"#utility.yul\":3513:3632   */\n      iszero\n      tag_328\n      jumpi\n        /* \"#utility.yul\":3551:3630   */\n      tag_329\n      tag_223\n      jump\t// in\n    tag_329:\n        /* \"#utility.yul\":3513:3632   */\n    tag_328:\n        /* \"#utility.yul\":3671:3672   */\n      0x00\n        /* \"#utility.yul\":3696:3749   */\n      tag_330\n        /* \"#utility.yul\":3741:3748   */\n      dup6\n        /* \"#utility.yul\":3732:3738   */\n      dup3\n        /* \"#utility.yul\":3721:3730   */\n      dup7\n        /* \"#utility.yul\":3717:3739   */\n      add\n        /* \"#utility.yul\":3696:3749   */\n      tag_228\n      jump\t// in\n    tag_330:\n        /* \"#utility.yul\":3686:3749   */\n      swap3\n      pop\n        /* \"#utility.yul\":3642:3759   */\n      pop\n        /* \"#utility.yul\":3798:3800   */\n      0x20\n        /* \"#utility.yul\":3824:3877   */\n      tag_331\n        /* \"#utility.yul\":3869:3876   */\n      dup6\n        /* \"#utility.yul\":3860:3866   */\n      dup3\n        /* \"#utility.yul\":3849:3858   */\n      dup7\n        /* \"#utility.yul\":3845:3867   */\n      add\n        /* \"#utility.yul\":3824:3877   */\n      tag_226\n      jump\t// in\n    tag_331:\n        /* \"#utility.yul\":3814:3877   */\n      swap2\n      pop\n        /* \"#utility.yul\":3769:3887   */\n      pop\n        /* \"#utility.yul\":3420:3894   */\n      swap3\n      pop\n      swap3\n      swap1\n      pop\n      jump\t// out\n        /* \"#utility.yul\":3900:4035   */\n    tag_229:\n        /* \"#utility.yul\":3988:3994   */\n      0x00\n        /* \"#utility.yul\":4022:4027   */\n      dup2\n        /* \"#utility.yul\":4016:4028   */\n      mload\n        /* \"#utility.yul\":4006:4028   */\n      swap1\n      pop\n        /* \"#utility.yul\":3900:4035   */\n      swap2\n      swap1\n      pop\n      jump\t// out\n        /* \"#utility.yul\":4041:4246   */\n    tag_230:\n        /* \"#utility.yul\":4161:4172   */\n      0x00\n        /* \"#utility.yul\":4195:4201   */\n      dup3\n        /* \"#utility.yul\":4190:4193   */\n      dup3\n        /* \"#utility.yul\":4183:4202   */\n      mstore\n        /* \"#utility.yul\":4235:4239   */\n      0x20\n        /* \"#utility.yul\":4230:4233   */\n      dup3\n        /* \"#utility.yul\":4226:4240   */\n      add\n        /* \"#utility.yul\":4211:4240   */\n      swap1\n      pop\n        /* \"#utility.yul\":4041:4246   */\n      swap3\n      swap2\n      pop\n      pop\n      jump\t// out\n        /* \"#utility.yul\":4252:4405   */\n    tag_231:\n        /* \"#utility.yul\":4340:4344   */\n      0x00\n        /* \"#utility.yul\":4363:4366   */\n      dup2\n        /* \"#utility.yul\":4355:4366   */\n      swap1\n      pop\n        /* \"#utility.yul\":4393:4397   */\n      0x20\n        /* \"#utility.yul\":4388:4391   */\n      dup3\n        /* \"#utility.yul\":4384:4398   */\n      add\n        /* \"#utility.yul\":4376:4398   */\n      swap1\n      pop\n        /* \"#utility.yul\":4252:4405   */\n      swap2\n      swap1\n      pop\n      jump\t// out\n        /* \"#utility.yul\":4411:4519   */\n    tag_232:\n        /* \"#utility.yul\":4488:4512   */\n      tag_336\n        /* \"#utility.yul\":4506:4511   */\n      dup2\n        /* \"#utility.yul\":4488:4512   */\n      tag_220\n      jump\t// in\n    tag_336:\n        /* \"#utility.yul\":4483:4486   */\n      dup3\n        /* \"#utility.yul\":4476:4513   */\n      mstore\n        /* \"#utility.yul\":4411:4519   */\n      pop\n      pop\n      jump\t// out\n        /* \"#utility.yul\":4593:5449   */\n    tag_233:\n        /* \"#utility.yul\":4722:4726   */\n      0x80\n        /* \"#utility.yul\":4717:4720   */\n      dup3\n        /* \"#utility.yul\":4713:4727   */\n      add\n        /* \"#utility.yul\":4811:4815   */\n      0x00\n        /* \"#utility.yul\":4804:4809   */\n      dup3\n        /* \"#utility.yul\":4800:4816   */\n      add\n        /* \"#utility.yul\":4794:4817   */\n      mload\n        /* \"#utility.yul\":4830:4893   */\n      tag_338\n        /* \"#utility.yul\":4887:4891   */\n      0x00\n        /* \"#utility.yul\":4882:4885   */\n      dup6\n        /* \"#utility.yul\":4878:4892   */\n      add\n        /* \"#utility.yul\":4864:4876   */\n      dup3\n        /* \"#utility.yul\":4830:4893   */\n      tag_232\n      jump\t// in\n    tag_338:\n        /* \"#utility.yul\":4737:4903   */\n      pop\n        /* \"#utility.yul\":4989:4993   */\n      0x20\n        /* \"#utility.yul\":4982:4987   */\n      dup3\n        /* \"#utility.yul\":4978:4994   */\n      add\n        /* \"#utility.yul\":4972:4995   */\n      mload\n        /* \"#utility.yul\":5008:5071   */\n      tag_339\n        /* \"#utility.yul\":5065:5069   */\n      0x20\n        /* \"#utility.yul\":5060:5063   */\n      dup6\n        /* \"#utility.yul\":5056:5070   */\n      add\n        /* \"#utility.yul\":5042:5054   */\n      dup3\n        /* \"#utility.yul\":5008:5071   */\n      tag_232\n      jump\t// in\n    tag_339:\n        /* \"#utility.yul\":4913:5081   */\n      pop\n        /* \"#utility.yul\":5169:5173   */\n      0x40\n        /* \"#utility.yul\":5162:5167   */\n      dup3\n        /* \"#utility.yul\":5158:5174   */\n      add\n        /* \"#utility.yul\":5152:5175   */\n      mload\n        /* \"#utility.yul\":5188:5251   */\n      tag_340\n        /* \"#utility.yul\":5245:5249   */\n      0x40\n        /* \"#utility.yul\":5240:5243   */\n      dup6\n        /* \"#utility.yul\":5236:5250   */\n      add\n        /* \"#utility.yul\":5222:5234   */\n      dup3\n        /* \"#utility.yul\":5188:5251   */\n      tag_232\n      jump\t// in\n    tag_340:\n        /* \"#utility.yul\":5091:5261   */\n      pop\n        /* \"#utility.yul\":5350:5354   */\n      0x60\n        /* \"#utility.yul\":5343:5348   */\n      dup3\n        /* \"#utility.yul\":5339:5355   */\n      add\n        /* \"#utility.yul\":5333:5356   */\n      mload\n        /* \"#utility.yul\":5369:5432   */\n      tag_341\n        /* \"#utility.yul\":5426:5430   */\n      0x60\n        /* \"#utility.yul\":5421:5424   */\n      dup6\n        /* \"#utility.yul\":5417:5431   */\n      add\n        /* \"#utility.yul\":5403:5415   */\n      dup3\n        /* \"#utility.yul\":5369:5432   */\n      tag_232\n      jump\t// in\n    tag_341:\n        /* \"#utility.yul\":5271:5442   */\n      pop\n        /* \"#utility.yul\":4691:5449   */\n      pop\n        /* \"#utility.yul\":4593:5449   */\n      pop\n      pop\n      jump\t// out\n        /* \"#utility.yul\":5455:5718   */\n    tag_234:\n        /* \"#utility.yul\":5566:5576   */\n      0x00\n        /* \"#utility.yul\":5587:5675   */\n      tag_343\n        /* \"#utility.yul\":5671:5674   */\n      dup4\n        /* \"#utility.yul\":5663:5669   */\n      dup4\n        /* \"#utility.yul\":5587:5675   */\n      tag_233\n      jump\t// in\n    tag_343:\n        /* \"#utility.yul\":5707:5711   */\n      0x80\n        /* \"#utility.yul\":5702:5705   */\n      dup4\n        /* \"#utility.yul\":5698:5712   */\n      add\n        /* \"#utility.yul\":5684:5712   */\n      swap1\n      pop\n        /* \"#utility.yul\":5455:5718   */\n      swap3\n      swap2\n      pop\n      pop\n      jump\t// out\n        /* \"#utility.yul\":5724:5858   */\n    tag_235:\n        /* \"#utility.yul\":5815:5819   */\n      0x00\n        /* \"#utility.yul\":5847:5851   */\n      0x20\n        /* \"#utility.yul\":5842:5845   */\n      dup3\n        /* \"#utility.yul\":5838:5852   */\n      add\n        /* \"#utility.yul\":5830:5852   */\n      swap1\n      pop\n        /* \"#utility.yul\":5724:5858   */\n      swap2\n      swap1\n      pop\n      jump\t// out\n        /* \"#utility.yul\":5936:6836   */\n    tag_236:\n        /* \"#utility.yul\":6097:6100   */\n      0x00\n        /* \"#utility.yul\":6126:6201   */\n      tag_346\n        /* \"#utility.yul\":6195:6200   */\n      dup3\n        /* \"#utility.yul\":6126:6201   */\n      tag_229\n      jump\t// in\n    tag_346:\n        /* \"#utility.yul\":6217:6324   */\n      tag_347\n        /* \"#utility.yul\":6317:6323   */\n      dup2\n        /* \"#utility.yul\":6312:6315   */\n      dup6\n        /* \"#utility.yul\":6217:6324   */\n      tag_230\n      jump\t// in\n    tag_347:\n        /* \"#utility.yul\":6210:6324   */\n      swap4\n      pop\n        /* \"#utility.yul\":6348:6425   */\n      tag_348\n        /* \"#utility.yul\":6419:6424   */\n      dup4\n        /* \"#utility.yul\":6348:6425   */\n      tag_231\n      jump\t// in\n    tag_348:\n        /* \"#utility.yul\":6448:6455   */\n      dup1\n        /* \"#utility.yul\":6479:6480   */\n      0x00\n        /* \"#utility.yul\":6464:6811   */\n    tag_349:\n        /* \"#utility.yul\":6489:6495   */\n      dup4\n        /* \"#utility.yul\":6486:6487   */\n      dup2\n        /* \"#utility.yul\":6483:6496   */\n      lt\n        /* \"#utility.yul\":6464:6811   */\n      iszero\n      tag_351\n      jumpi\n        /* \"#utility.yul\":6565:6571   */\n      dup2\n        /* \"#utility.yul\":6559:6572   */\n      mload\n        /* \"#utility.yul\":6592:6697   */\n      tag_352\n        /* \"#utility.yul\":6693:6696   */\n      dup9\n        /* \"#utility.yul\":6678:6691   */\n      dup3\n        /* \"#utility.yul\":6592:6697   */\n      tag_234\n      jump\t// in\n    tag_352:\n        /* \"#utility.yul\":6585:6697   */\n      swap8\n      pop\n        /* \"#utility.yul\":6720:6801   */\n      tag_353\n        /* \"#utility.yul\":6794:6800   */\n      dup4\n        /* \"#utility.yul\":6720:6801   */\n      tag_235\n      jump\t// in\n    tag_353:\n        /* \"#utility.yul\":6710:6801   */\n      swap3\n      pop\n        /* \"#utility.yul\":6524:6811   */\n      pop\n        /* \"#utility.yul\":6511:6512   */\n      0x01\n        /* \"#utility.yul\":6508:6509   */\n      dup2\n        /* \"#utility.yul\":6504:6513   */\n      add\n        /* \"#utility.yul\":6499:6513   */\n      swap1\n      pop\n        /* \"#utility.yul\":6464:6811   */\n      jump(tag_349)\n    tag_351:\n        /* \"#utility.yul\":6468:6482   */\n      pop\n        /* \"#utility.yul\":6827:6830   */\n      dup6\n        /* \"#utility.yul\":6820:6830   */\n      swap4\n      pop\n        /* \"#utility.yul\":6102:6836   */\n      pop\n      pop\n      pop\n        /* \"#utility.yul\":5936:6836   */\n      swap3\n      swap2\n      pop\n      pop\n      jump\t// out\n        /* \"#utility.yul\":6842:7299   */\n    tag_46:\n        /* \"#utility.yul\":7027:7031   */\n      0x00\n        /* \"#utility.yul\":7065:7067   */\n      0x20\n        /* \"#utility.yul\":7054:7063   */\n      dup3\n        /* \"#utility.yul\":7050:7068   */\n      add\n        /* \"#utility.yul\":7042:7068   */\n      swap1\n      pop\n        /* \"#utility.yul\":7114:7123   */\n      dup2\n        /* \"#utility.yul\":7108:7112   */\n      dup2\n        /* \"#utility.yul\":7104:7124   */\n      sub\n        /* \"#utility.yul\":7100:7101   */\n      0x00\n        /* \"#utility.yul\":7089:7098   */\n      dup4\n        /* \"#utility.yul\":7085:7102   */\n      add\n        /* \"#utility.yul\":7078:7125   */\n      mstore\n        /* \"#utility.yul\":7142:7292   */\n      tag_355\n        /* \"#utility.yul\":7287:7291   */\n      dup2\n        /* \"#utility.yul\":7278:7284   */\n      dup5\n        /* \"#utility.yul\":7142:7292   */\n      tag_236\n      jump\t// in\n    tag_355:\n        /* \"#utility.yul\":7134:7292   */\n      swap1\n      pop\n        /* \"#utility.yul\":6842:7299   */\n      swap3\n      swap2\n      pop\n      pop\n      jump\t// out\n        /* \"#utility.yul\":7305:7779   */\n    tag_55:\n        /* \"#utility.yul\":7373:7379   */\n      0x00\n        /* \"#utility.yul\":7381:7387   */\n      dup1\n        /* \"#utility.yul\":7430:7432   */\n      0x40\n        /* \"#utility.yul\":7418:7427   */\n      dup4\n        /* \"#utility.yul\":7409:7416   */\n      dup6\n        /* \"#utility.yul\":7405:7428   */\n      sub\n        /* \"#utility.yul\":7401:7433   */\n      slt\n        /* \"#utility.yul\":7398:7517   */\n      iszero\n      tag_357\n      jumpi\n        /* \"#utility.yul\":7436:7515   */\n      tag_358\n      tag_223\n      jump\t// in\n    tag_358:\n        /* \"#utility.yul\":7398:7517   */\n    tag_357:\n        /* \"#utility.yul\":7556:7557   */\n      0x00\n        /* \"#utility.yul\":7581:7634   */\n      tag_359\n        /* \"#utility.yul\":7626:7633   */\n      dup6\n        /* \"#utility.yul\":7617:7623   */\n      dup3\n        /* \"#utility.yul\":7606:7615   */\n      dup7\n        /* \"#utility.yul\":7602:7624   */\n      add\n        /* \"#utility.yul\":7581:7634   */\n      tag_226\n      jump\t// in\n    tag_359:\n        /* \"#utility.yul\":7571:7634   */\n      swap3\n      pop\n        /* \"#utility.yul\":7527:7644   */\n      pop\n        /* \"#utility.yul\":7683:7685   */\n      0x20\n        /* \"#utility.yul\":7709:7762   */\n      tag_360\n        /* \"#utility.yul\":7754:7761   */\n      dup6\n        /* \"#utility.yul\":7745:7751   */\n      dup3\n        /* \"#utility.yul\":7734:7743   */\n      dup7\n        /* \"#utility.yul\":7730:7752   */\n      add\n        /* \"#utility.yul\":7709:7762   */\n      tag_226\n      jump\t// in\n    tag_360:\n        /* \"#utility.yul\":7699:7762   */\n      swap2\n      pop\n        /* \"#utility.yul\":7654:7772   */\n      pop\n        /* \"#utility.yul\":7305:7779   */\n      swap3\n      pop\n      swap3\n      swap1\n      pop\n      jump\t// out\n        /* \"#utility.yul\":7785:8114   */\n    tag_68:\n        /* \"#utility.yul\":7844:7850   */\n      0x00\n        /* \"#utility.yul\":7893:7895   */\n      0x20\n        /* \"#utility.yul\":7881:7890   */\n      dup3\n        /* \"#utility.yul\":7872:7879   */\n      dup5\n        /* \"#utility.yul\":7868:7891   */\n      sub\n        /* \"#utility.yul\":7864:7896   */\n      slt\n        /* \"#utility.yul\":7861:7980   */\n      iszero\n      tag_362\n      jumpi\n        /* \"#utility.yul\":7899:7978   */\n      tag_363\n      tag_223\n      jump\t// in\n    tag_363:\n        /* \"#utility.yul\":7861:7980   */\n    tag_362:\n        /* \"#utility.yul\":8019:8020   */\n      0x00\n        /* \"#utility.yul\":8044:8097   */\n      tag_364\n        /* \"#utility.yul\":8089:8096   */\n      dup5\n        /* \"#utility.yul\":8080:8086   */\n      dup3\n        /* \"#utility.yul\":8069:8078   */\n      dup6\n        /* \"#utility.yul\":8065:8087   */\n      add\n        /* \"#utility.yul\":8044:8097   */\n      tag_228\n      jump\t// in\n    tag_364:\n        /* \"#utility.yul\":8034:8097   */\n      swap2\n      pop\n        /* \"#utility.yul\":7990:8107   */\n      pop\n        /* \"#utility.yul\":7785:8114   */\n      swap3\n      swap2\n      pop\n      pop\n      jump\t// out\n        /* \"#utility.yul\":8120:8234   */\n    tag_237:\n        /* \"#utility.yul\":8187:8193   */\n      0x00\n        /* \"#utility.yul\":8221:8226   */\n      dup2\n        /* \"#utility.yul\":8215:8227   */\n      mload\n        /* \"#utility.yul\":8205:8227   */\n      swap1\n      pop\n        /* \"#utility.yul\":8120:8234   */\n      swap2\n      swap1\n      pop\n      jump\t// out\n        /* \"#utility.yul\":8240:8424   */\n    tag_238:\n        /* \"#utility.yul\":8339:8350   */\n      0x00\n        /* \"#utility.yul\":8373:8379   */\n      dup3\n        /* \"#utility.yul\":8368:8371   */\n      dup3\n        /* \"#utility.yul\":8361:8380   */\n      mstore\n        /* \"#utility.yul\":8413:8417   */\n      0x20\n        /* \"#utility.yul\":8408:8411   */\n      dup3\n        /* \"#utility.yul\":8404:8418   */\n      add\n        /* \"#utility.yul\":8389:8418   */\n      swap1\n      pop\n        /* \"#utility.yul\":8240:8424   */\n      swap3\n      swap2\n      pop\n      pop\n      jump\t// out\n        /* \"#utility.yul\":8430:8562   */\n    tag_239:\n        /* \"#utility.yul\":8497:8501   */\n      0x00\n        /* \"#utility.yul\":8520:8523   */\n      dup2\n        /* \"#utility.yul\":8512:8523   */\n      swap1\n      pop\n        /* \"#utility.yul\":8550:8554   */\n      0x20\n        /* \"#utility.yul\":8545:8548   */\n      dup3\n        /* \"#utility.yul\":8541:8555   */\n      add\n        /* \"#utility.yul\":8533:8555   */\n      swap1\n      pop\n        /* \"#utility.yul\":8430:8562   */\n      swap2\n      swap1\n      pop\n      jump\t// out\n        /* \"#utility.yul\":8568:8747   */\n    tag_240:\n        /* \"#utility.yul\":8637:8647   */\n      0x00\n        /* \"#utility.yul\":8658:8704   */\n      tag_369\n        /* \"#utility.yul\":8700:8703   */\n      dup4\n        /* \"#utility.yul\":8692:8698   */\n      dup4\n        /* \"#utility.yul\":8658:8704   */\n      tag_232\n      jump\t// in\n    tag_369:\n        /* \"#utility.yul\":8736:8740   */\n      0x20\n        /* \"#utility.yul\":8731:8734   */\n      dup4\n        /* \"#utility.yul\":8727:8741   */\n      add\n        /* \"#utility.yul\":8713:8741   */\n      swap1\n      pop\n        /* \"#utility.yul\":8568:8747   */\n      swap3\n      swap2\n      pop\n      pop\n      jump\t// out\n        /* \"#utility.yul\":8753:8866   */\n    tag_241:\n        /* \"#utility.yul\":8823:8827   */\n      0x00\n        /* \"#utility.yul\":8855:8859   */\n      0x20\n        /* \"#utility.yul\":8850:8853   */\n      dup3\n        /* \"#utility.yul\":8846:8860   */\n      add\n        /* \"#utility.yul\":8838:8860   */\n      swap1\n      pop\n        /* \"#utility.yul\":8753:8866   */\n      swap2\n      swap1\n      pop\n      jump\t// out\n        /* \"#utility.yul\":8902:9634   */\n    tag_242:\n        /* \"#utility.yul\":9021:9024   */\n      0x00\n        /* \"#utility.yul\":9050:9104   */\n      tag_372\n        /* \"#utility.yul\":9098:9103   */\n      dup3\n        /* \"#utility.yul\":9050:9104   */\n      tag_237\n      jump\t// in\n    tag_372:\n        /* \"#utility.yul\":9120:9206   */\n      tag_373\n        /* \"#utility.yul\":9199:9205   */\n      dup2\n        /* \"#utility.yul\":9194:9197   */\n      dup6\n        /* \"#utility.yul\":9120:9206   */\n      tag_238\n      jump\t// in\n    tag_373:\n        /* \"#utility.yul\":9113:9206   */\n      swap4\n      pop\n        /* \"#utility.yul\":9230:9286   */\n      tag_374\n        /* \"#utility.yul\":9280:9285   */\n      dup4\n        /* \"#utility.yul\":9230:9286   */\n      tag_239\n      jump\t// in\n    tag_374:\n        /* \"#utility.yul\":9309:9316   */\n      dup1\n        /* \"#utility.yul\":9340:9341   */\n      0x00\n        /* \"#utility.yul\":9325:9609   */\n    tag_375:\n        /* \"#utility.yul\":9350:9356   */\n      dup4\n        /* \"#utility.yul\":9347:9348   */\n      dup2\n        /* \"#utility.yul\":9344:9357   */\n      lt\n        /* \"#utility.yul\":9325:9609   */\n      iszero\n      tag_377\n      jumpi\n        /* \"#utility.yul\":9426:9432   */\n      dup2\n        /* \"#utility.yul\":9420:9433   */\n      mload\n        /* \"#utility.yul\":9453:9516   */\n      tag_378\n        /* \"#utility.yul\":9512:9515   */\n      dup9\n        /* \"#utility.yul\":9497:9510   */\n      dup3\n        /* \"#utility.yul\":9453:9516   */\n      tag_240\n      jump\t// in\n    tag_378:\n        /* \"#utility.yul\":9446:9516   */\n      swap8\n      pop\n        /* \"#utility.yul\":9539:9599   */\n      tag_379\n        /* \"#utility.yul\":9592:9598   */\n      dup4\n        /* \"#utility.yul\":9539:9599   */\n      tag_241\n      jump\t// in\n    tag_379:\n        /* \"#utility.yul\":9529:9599   */\n      swap3\n      pop\n        /* \"#utility.yul\":9385:9609   */\n      pop\n        /* \"#utility.yul\":9372:9373   */\n      0x01\n        /* \"#utility.yul\":9369:9370   */\n      dup2\n        /* \"#utility.yul\":9365:9374   */\n      add\n        /* \"#utility.yul\":9360:9374   */\n      swap1\n      pop\n        /* \"#utility.yul\":9325:9609   */\n      jump(tag_375)\n    tag_377:\n        /* \"#utility.yul\":9329:9343   */\n      pop\n        /* \"#utility.yul\":9625:9628   */\n      dup6\n        /* \"#utility.yul\":9618:9628   */\n      swap4\n      pop\n        /* \"#utility.yul\":9026:9634   */\n      pop\n      pop\n      pop\n        /* \"#utility.yul\":8902:9634   */\n      swap3\n      swap2\n      pop\n      pop\n      jump\t// out\n        /* \"#utility.yul\":9640:10013   */\n    tag_71:\n        /* \"#utility.yul\":9783:9787   */\n      0x00\n        /* \"#utility.yul\":9821:9823   */\n      0x20\n        /* \"#utility.yul\":9810:9819   */\n      dup3\n        /* \"#utility.yul\":9806:9824   */\n      add\n        /* \"#utility.yul\":9798:9824   */\n      swap1\n      pop\n        /* \"#utility.yul\":9870:9879   */\n      dup2\n        /* \"#utility.yul\":9864:9868   */\n      dup2\n        /* \"#utility.yul\":9860:9880   */\n      sub\n        /* \"#utility.yul\":9856:9857   */\n      0x00\n        /* \"#utility.yul\":9845:9854   */\n      dup4\n        /* \"#utility.yul\":9841:9858   */\n      add\n        /* \"#utility.yul\":9834:9881   */\n      mstore\n        /* \"#utility.yul\":9898:10006   */\n      tag_381\n        /* \"#utility.yul\":10001:10005   */\n      dup2\n        /* \"#utility.yul\":9992:9998   */\n      dup5\n        /* \"#utility.yul\":9898:10006   */\n      tag_242\n      jump\t// in\n    tag_381:\n        /* \"#utility.yul\":9890:10006   */\n      swap1\n      pop\n        /* \"#utility.yul\":9640:10013   */\n      swap3\n      swap2\n      pop\n      pop\n      jump\t// out\n        /* \"#utility.yul\":10019:10188   */\n    tag_243:\n        /* \"#utility.yul\":10103:10114   */\n      0x00\n        /* \"#utility.yul\":10137:10143   */\n      dup3\n        /* \"#utility.yul\":10132:10135   */\n      dup3\n        /* \"#utility.yul\":10125:10144   */\n      mstore\n        /* \"#utility.yul\":10177:10181   */\n      0x20\n        /* \"#utility.yul\":10172:10175   */\n      dup3\n        /* \"#utility.yul\":10168:10182   */\n      add\n        /* \"#utility.yul\":10153:10182   */\n      swap1\n      pop\n        /* \"#utility.yul\":10019:10188   */\n      swap3\n      swap2\n      pop\n      pop\n      jump\t// out\n        /* \"#utility.yul\":10194:10360   */\n    tag_244:\n        /* \"#utility.yul\":10334:10352   */\n      0x496e76616c6964206475726174696f6e00000000000000000000000000000000\n        /* \"#utility.yul\":10330:10331   */\n      0x00\n        /* \"#utility.yul\":10322:10328   */\n      dup3\n        /* \"#utility.yul\":10318:10332   */\n      add\n        /* \"#utility.yul\":10311:10353   */\n      mstore\n        /* \"#utility.yul\":10194:10360   */\n      pop\n      jump\t// out\n        /* \"#utility.yul\":10366:10732   */\n    tag_245:\n        /* \"#utility.yul\":10508:10511   */\n      0x00\n        /* \"#utility.yul\":10529:10596   */\n      tag_385\n        /* \"#utility.yul\":10593:10595   */\n      0x10\n        /* \"#utility.yul\":10588:10591   */\n      dup4\n        /* \"#utility.yul\":10529:10596   */\n      tag_243\n      jump\t// in\n    tag_385:\n        /* \"#utility.yul\":10522:10596   */\n      swap2\n      pop\n        /* \"#utility.yul\":10605:10698   */\n      tag_386\n        /* \"#utility.yul\":10694:10697   */\n      dup3\n        /* \"#utility.yul\":10605:10698   */\n      tag_244\n      jump\t// in\n    tag_386:\n        /* \"#utility.yul\":10723:10725   */\n      0x20\n        /* \"#utility.yul\":10718:10721   */\n      dup3\n        /* \"#utility.yul\":10714:10726   */\n      add\n        /* \"#utility.yul\":10707:10726   */\n      swap1\n      pop\n        /* \"#utility.yul\":10366:10732   */\n      swap2\n      swap1\n      pop\n      jump\t// out\n        /* \"#utility.yul\":10738:11157   */\n    tag_78:\n        /* \"#utility.yul\":10904:10908   */\n      0x00\n        /* \"#utility.yul\":10942:10944   */\n      0x20\n        /* \"#utility.yul\":10931:10940   */\n      dup3\n        /* \"#utility.yul\":10927:10945   */\n      add\n        /* \"#utility.yul\":10919:10945   */\n      swap1\n      pop\n        /* \"#utility.yul\":10991:11000   */\n      dup2\n        /* \"#utility.yul\":10985:10989   */\n      dup2\n        /* \"#utility.yul\":10981:11001   */\n      sub\n        /* \"#utility.yul\":10977:10978   */\n      0x00\n        /* \"#utility.yul\":10966:10975   */\n      dup4\n        /* \"#utility.yul\":10962:10979   */\n      add\n        /* \"#utility.yul\":10955:11002   */\n      mstore\n        /* \"#utility.yul\":11019:11150   */\n      tag_388\n        /* \"#utility.yul\":11145:11149   */\n      dup2\n        /* \"#utility.yul\":11019:11150   */\n      tag_245\n      jump\t// in\n    tag_388:\n        /* \"#utility.yul\":11011:11150   */\n      swap1\n      pop\n        /* \"#utility.yul\":10738:11157   */\n      swap2\n      swap1\n      pop\n      jump\t// out\n        /* \"#utility.yul\":11163:11388   */\n    tag_246:\n        /* \"#utility.yul\":11303:11337   */\n      0x4e6f207374616b657320666f756e6420666f722074686520676976656e206475\n        /* \"#utility.yul\":11299:11300   */\n      0x00\n        /* \"#utility.yul\":11291:11297   */\n      dup3\n        /* \"#utility.yul\":11287:11301   */\n      add\n        /* \"#utility.yul\":11280:11338   */\n      mstore\n        /* \"#utility.yul\":11372:11380   */\n      0x726174696f6e0000000000000000000000000000000000000000000000000000\n        /* \"#utility.yul\":11367:11369   */\n      0x20\n        /* \"#utility.yul\":11359:11365   */\n      dup3\n        /* \"#utility.yul\":11355:11370   */\n      add\n        /* \"#utility.yul\":11348:11381   */\n      mstore\n        /* \"#utility.yul\":11163:11388   */\n      pop\n      jump\t// out\n        /* \"#utility.yul\":11394:11760   */\n    tag_247:\n        /* \"#utility.yul\":11536:11539   */\n      0x00\n        /* \"#utility.yul\":11557:11624   */\n      tag_391\n        /* \"#utility.yul\":11621:11623   */\n      0x26\n        /* \"#utility.yul\":11616:11619   */\n      dup4\n        /* \"#utility.yul\":11557:11624   */\n      tag_243\n      jump\t// in\n    tag_391:\n        /* \"#utility.yul\":11550:11624   */\n      swap2\n      pop\n        /* \"#utility.yul\":11633:11726   */\n      tag_392\n        /* \"#utility.yul\":11722:11725   */\n      dup3\n        /* \"#utility.yul\":11633:11726   */\n      tag_246\n      jump\t// in\n    tag_392:\n        /* \"#utility.yul\":11751:11753   */\n      0x40\n        /* \"#utility.yul\":11746:11749   */\n      dup3\n        /* \"#utility.yul\":11742:11754   */\n      add\n        /* \"#utility.yul\":11735:11754   */\n      swap1\n      pop\n        /* \"#utility.yul\":11394:11760   */\n      swap2\n      swap1\n      pop\n      jump\t// out\n        /* \"#utility.yul\":11766:12185   */\n    tag_81:\n        /* \"#utility.yul\":11932:11936   */\n      0x00\n        /* \"#utility.yul\":11970:11972   */\n      0x20\n        /* \"#utility.yul\":11959:11968   */\n      dup3\n        /* \"#utility.yul\":11955:11973   */\n      add\n        /* \"#utility.yul\":11947:11973   */\n      swap1\n      pop\n        /* \"#utility.yul\":12019:12028   */\n      dup2\n        /* \"#utility.yul\":12013:12017   */\n      dup2\n        /* \"#utility.yul\":12009:12029   */\n      sub\n        /* \"#utility.yul\":12005:12006   */\n      0x00\n        /* \"#utility.yul\":11994:12003   */\n      dup4\n        /* \"#utility.yul\":11990:12007   */\n      add\n        /* \"#utility.yul\":11983:12030   */\n      mstore\n        /* \"#utility.yul\":12047:12178   */\n      tag_394\n        /* \"#utility.yul\":12173:12177   */\n      dup2\n        /* \"#utility.yul\":12047:12178   */\n      tag_247\n      jump\t// in\n    tag_394:\n        /* \"#utility.yul\":12039:12178   */\n      swap1\n      pop\n        /* \"#utility.yul\":11766:12185   */\n      swap2\n      swap1\n      pop\n      jump\t// out\n        /* \"#utility.yul\":12191:12371   */\n    tag_248:\n        /* \"#utility.yul\":12239:12316   */\n      0x4e487b7100000000000000000000000000000000000000000000000000000000\n        /* \"#utility.yul\":12236:12237   */\n      0x00\n        /* \"#utility.yul\":12229:12317   */\n      mstore\n        /* \"#utility.yul\":12336:12340   */\n      0x11\n        /* \"#utility.yul\":12333:12334   */\n      0x04\n        /* \"#utility.yul\":12326:12341   */\n      mstore\n        /* \"#utility.yul\":12360:12364   */\n      0x24\n        /* \"#utility.yul\":12357:12358   */\n      0x00\n        /* \"#utility.yul\":12350:12365   */\n      revert\n        /* \"#utility.yul\":12377:12571   */\n    tag_84:\n        /* \"#utility.yul\":12417:12421   */\n      0x00\n        /* \"#utility.yul\":12437:12457   */\n      tag_397\n        /* \"#utility.yul\":12455:12456   */\n      dup3\n        /* \"#utility.yul\":12437:12457   */\n      tag_220\n      jump\t// in\n    tag_397:\n        /* \"#utility.yul\":12432:12457   */\n      swap2\n      pop\n        /* \"#utility.yul\":12471:12491   */\n      tag_398\n        /* \"#utility.yul\":12489:12490   */\n      dup4\n        /* \"#utility.yul\":12471:12491   */\n      tag_220\n      jump\t// in\n    tag_398:\n        /* \"#utility.yul\":12466:12491   */\n      swap3\n      pop\n        /* \"#utility.yul\":12515:12516   */\n      dup3\n        /* \"#utility.yul\":12512:12513   */\n      dup3\n        /* \"#utility.yul\":12508:12517   */\n      sub\n        /* \"#utility.yul\":12500:12517   */\n      swap1\n      pop\n        /* \"#utility.yul\":12539:12540   */\n      dup2\n        /* \"#utility.yul\":12533:12537   */\n      dup2\n        /* \"#utility.yul\":12530:12541   */\n      gt\n        /* \"#utility.yul\":12527:12564   */\n      iszero\n      tag_399\n      jumpi\n        /* \"#utility.yul\":12544:12562   */\n      tag_400\n      tag_248\n      jump\t// in\n    tag_400:\n        /* \"#utility.yul\":12527:12564   */\n    tag_399:\n        /* \"#utility.yul\":12377:12571   */\n      swap3\n      swap2\n      pop\n      pop\n      jump\t// out\n        /* \"#utility.yul\":12577:12757   */\n    tag_87:\n        /* \"#utility.yul\":12625:12702   */\n      0x4e487b7100000000000000000000000000000000000000000000000000000000\n        /* \"#utility.yul\":12622:12623   */\n      0x00\n        /* \"#utility.yul\":12615:12703   */\n      mstore\n        /* \"#utility.yul\":12722:12726   */\n      0x32\n        /* \"#utility.yul\":12719:12720   */\n      0x04\n        /* \"#utility.yul\":12712:12727   */\n      mstore\n        /* \"#utility.yul\":12746:12750   */\n      0x24\n        /* \"#utility.yul\":12743:12744   */\n      0x00\n        /* \"#utility.yul\":12736:12751   */\n      revert\n        /* \"#utility.yul\":12763:12954   */\n    tag_101:\n        /* \"#utility.yul\":12803:12806   */\n      0x00\n        /* \"#utility.yul\":12822:12842   */\n      tag_403\n        /* \"#utility.yul\":12840:12841   */\n      dup3\n        /* \"#utility.yul\":12822:12842   */\n      tag_220\n      jump\t// in\n    tag_403:\n        /* \"#utility.yul\":12817:12842   */\n      swap2\n      pop\n        /* \"#utility.yul\":12856:12876   */\n      tag_404\n        /* \"#utility.yul\":12874:12875   */\n      dup4\n        /* \"#utility.yul\":12856:12876   */\n      tag_220\n      jump\t// in\n    tag_404:\n        /* \"#utility.yul\":12851:12876   */\n      swap3\n      pop\n        /* \"#utility.yul\":12899:12900   */\n      dup3\n        /* \"#utility.yul\":12896:12897   */\n      dup3\n        /* \"#utility.yul\":12892:12901   */\n      add\n        /* \"#utility.yul\":12885:12901   */\n      swap1\n      pop\n        /* \"#utility.yul\":12920:12923   */\n      dup1\n        /* \"#utility.yul\":12917:12918   */\n      dup3\n        /* \"#utility.yul\":12914:12924   */\n      gt\n        /* \"#utility.yul\":12911:12947   */\n      iszero\n      tag_405\n      jumpi\n        /* \"#utility.yul\":12927:12945   */\n      tag_406\n      tag_248\n      jump\t// in\n    tag_406:\n        /* \"#utility.yul\":12911:12947   */\n    tag_405:\n        /* \"#utility.yul\":12763:12954   */\n      swap3\n      swap2\n      pop\n      pop\n      jump\t// out\n        /* \"#utility.yul\":12960:13062   */\n    tag_249:\n        /* \"#utility.yul\":13002:13010   */\n      0x00\n        /* \"#utility.yul\":13049:13054   */\n      dup2\n        /* \"#utility.yul\":13046:13047   */\n      0x01\n        /* \"#utility.yul\":13042:13055   */\n      shr\n        /* \"#utility.yul\":13021:13055   */\n      swap1\n      pop\n        /* \"#utility.yul\":12960:13062   */\n      swap2\n      swap1\n      pop\n      jump\t// out\n        /* \"#utility.yul\":13068:13916   */\n    tag_250:\n        /* \"#utility.yul\":13129:13134   */\n      0x00\n        /* \"#utility.yul\":13136:13140   */\n      dup1\n        /* \"#utility.yul\":13160:13166   */\n      dup3\n        /* \"#utility.yul\":13151:13166   */\n      swap2\n      pop\n        /* \"#utility.yul\":13184:13189   */\n      dup4\n        /* \"#utility.yul\":13175:13189   */\n      swap1\n      pop\n        /* \"#utility.yul\":13198:13910   */\n    tag_409:\n        /* \"#utility.yul\":13219:13220   */\n      0x01\n        /* \"#utility.yul\":13209:13217   */\n      dup6\n        /* \"#utility.yul\":13206:13221   */\n      gt\n        /* \"#utility.yul\":13198:13910   */\n      iszero\n      tag_411\n      jumpi\n        /* \"#utility.yul\":13314:13318   */\n      dup1\n        /* \"#utility.yul\":13309:13312   */\n      dup7\n        /* \"#utility.yul\":13305:13319   */\n      div\n        /* \"#utility.yul\":13299:13303   */\n      dup2\n        /* \"#utility.yul\":13296:13320   */\n      gt\n        /* \"#utility.yul\":13293:13343   */\n      iszero\n      tag_412\n      jumpi\n        /* \"#utility.yul\":13323:13341   */\n      tag_413\n      tag_248\n      jump\t// in\n    tag_413:\n        /* \"#utility.yul\":13293:13343   */\n    tag_412:\n        /* \"#utility.yul\":13373:13374   */\n      0x01\n        /* \"#utility.yul\":13363:13371   */\n      dup6\n        /* \"#utility.yul\":13359:13375   */\n      and\n        /* \"#utility.yul\":13356:13807   */\n      iszero\n      tag_414\n      jumpi\n        /* \"#utility.yul\":13788:13792   */\n      dup1\n        /* \"#utility.yul\":13781:13786   */\n      dup3\n        /* \"#utility.yul\":13777:13793   */\n      mul\n        /* \"#utility.yul\":13768:13793   */\n      swap2\n      pop\n        /* \"#utility.yul\":13356:13807   */\n    tag_414:\n        /* \"#utility.yul\":13838:13842   */\n      dup1\n        /* \"#utility.yul\":13832:13836   */\n      dup2\n        /* \"#utility.yul\":13828:13843   */\n      mul\n        /* \"#utility.yul\":13820:13843   */\n      swap1\n      pop\n        /* \"#utility.yul\":13868:13900   */\n      tag_415\n        /* \"#utility.yul\":13891:13899   */\n      dup6\n        /* \"#utility.yul\":13868:13900   */\n      tag_249\n      jump\t// in\n    tag_415:\n        /* \"#utility.yul\":13856:13900   */\n      swap5\n      pop\n        /* \"#utility.yul\":13198:13910   */\n      jump(tag_409)\n    tag_411:\n        /* \"#utility.yul\":13068:13916   */\n      swap5\n      pop\n      swap5\n      swap3\n      pop\n      pop\n      pop\n      jump\t// out\n        /* \"#utility.yul\":13922:14995   */\n    tag_251:\n        /* \"#utility.yul\":13976:13981   */\n      0x00\n        /* \"#utility.yul\":14167:14175   */\n      dup3\n        /* \"#utility.yul\":14157:14197   */\n      tag_417\n      jumpi\n        /* \"#utility.yul\":14188:14189   */\n      0x01\n        /* \"#utility.yul\":14179:14189   */\n      swap1\n      pop\n        /* \"#utility.yul\":14190:14195   */\n      jump(tag_416)\n        /* \"#utility.yul\":14157:14197   */\n    tag_417:\n        /* \"#utility.yul\":14216:14220   */\n      dup2\n        /* \"#utility.yul\":14206:14242   */\n      tag_418\n      jumpi\n        /* \"#utility.yul\":14233:14234   */\n      0x00\n        /* \"#utility.yul\":14224:14234   */\n      swap1\n      pop\n        /* \"#utility.yul\":14235:14240   */\n      jump(tag_416)\n        /* \"#utility.yul\":14206:14242   */\n    tag_418:\n        /* \"#utility.yul\":14302:14306   */\n      dup2\n        /* \"#utility.yul\":14350:14351   */\n      0x01\n        /* \"#utility.yul\":14345:14372   */\n      dup2\n      eq\n      tag_420\n      jumpi\n        /* \"#utility.yul\":14386:14387   */\n      0x02\n        /* \"#utility.yul\":14381:14572   */\n      dup2\n      eq\n      tag_421\n      jumpi\n        /* \"#utility.yul\":14295:14572   */\n      jump(tag_419)\n        /* \"#utility.yul\":14345:14372   */\n    tag_420:\n        /* \"#utility.yul\":14363:14364   */\n      0x01\n        /* \"#utility.yul\":14354:14364   */\n      swap2\n      pop\n        /* \"#utility.yul\":14365:14370   */\n      pop\n      jump(tag_416)\n        /* \"#utility.yul\":14381:14572   */\n    tag_421:\n        /* \"#utility.yul\":14426:14429   */\n      0xff\n        /* \"#utility.yul\":14416:14424   */\n      dup5\n        /* \"#utility.yul\":14413:14430   */\n      gt\n        /* \"#utility.yul\":14410:14453   */\n      iszero\n      tag_422\n      jumpi\n        /* \"#utility.yul\":14433:14451   */\n      tag_423\n      tag_248\n      jump\t// in\n    tag_423:\n        /* \"#utility.yul\":14410:14453   */\n    tag_422:\n        /* \"#utility.yul\":14482:14490   */\n      dup4\n        /* \"#utility.yul\":14479:14480   */\n      0x02\n        /* \"#utility.yul\":14475:14491   */\n      exp\n        /* \"#utility.yul\":14466:14491   */\n      swap2\n      pop\n        /* \"#utility.yul\":14517:14520   */\n      dup5\n        /* \"#utility.yul\":14510:14515   */\n      dup3\n        /* \"#utility.yul\":14507:14521   */\n      gt\n        /* \"#utility.yul\":14504:14544   */\n      iszero\n      tag_424\n      jumpi\n        /* \"#utility.yul\":14524:14542   */\n      tag_425\n      tag_248\n      jump\t// in\n    tag_425:\n        /* \"#utility.yul\":14504:14544   */\n    tag_424:\n        /* \"#utility.yul\":14557:14562   */\n      pop\n      jump(tag_416)\n        /* \"#utility.yul\":14295:14572   */\n    tag_419:\n      pop\n        /* \"#utility.yul\":14681:14683   */\n      0x20\n        /* \"#utility.yul\":14671:14679   */\n      dup4\n        /* \"#utility.yul\":14668:14684   */\n      lt\n        /* \"#utility.yul\":14662:14665   */\n      0x0133\n        /* \"#utility.yul\":14656:14660   */\n      dup4\n        /* \"#utility.yul\":14653:14666   */\n      lt\n        /* \"#utility.yul\":14649:14685   */\n      and\n        /* \"#utility.yul\":14631:14633   */\n      0x4e\n        /* \"#utility.yul\":14621:14629   */\n      dup5\n        /* \"#utility.yul\":14618:14634   */\n      lt\n        /* \"#utility.yul\":14613:14615   */\n      0x0b\n        /* \"#utility.yul\":14607:14611   */\n      dup5\n        /* \"#utility.yul\":14604:14616   */\n      lt\n        /* \"#utility.yul\":14600:14635   */\n      and\n        /* \"#utility.yul\":14584:14695   */\n      or\n        /* \"#utility.yul\":14581:14827   */\n      iszero\n      tag_426\n      jumpi\n        /* \"#utility.yul\":14737:14745   */\n      dup3\n        /* \"#utility.yul\":14731:14735   */\n      dup3\n        /* \"#utility.yul\":14727:14746   */\n      exp\n        /* \"#utility.yul\":14718:14746   */\n      swap1\n      pop\n        /* \"#utility.yul\":14772:14775   */\n      dup4\n        /* \"#utility.yul\":14765:14770   */\n      dup2\n        /* \"#utility.yul\":14762:14776   */\n      gt\n        /* \"#utility.yul\":14759:14799   */\n      iszero\n      tag_427\n      jumpi\n        /* \"#utility.yul\":14779:14797   */\n      tag_428\n      tag_248\n      jump\t// in\n    tag_428:\n        /* \"#utility.yul\":14759:14799   */\n    tag_427:\n        /* \"#utility.yul\":14812:14817   */\n      jump(tag_416)\n        /* \"#utility.yul\":14581:14827   */\n    tag_426:\n        /* \"#utility.yul\":14852:14894   */\n      tag_429\n        /* \"#utility.yul\":14890:14893   */\n      dup5\n        /* \"#utility.yul\":14880:14888   */\n      dup5\n        /* \"#utility.yul\":14874:14878   */\n      dup5\n        /* \"#utility.yul\":14871:14872   */\n      0x01\n        /* \"#utility.yul\":14852:14894   */\n      tag_250\n      jump\t// in\n    tag_429:\n        /* \"#utility.yul\":14837:14894   */\n      swap3\n      pop\n      swap1\n      pop\n        /* \"#utility.yul\":14926:14930   */\n      dup2\n        /* \"#utility.yul\":14921:14924   */\n      dup5\n        /* \"#utility.yul\":14917:14931   */\n      div\n        /* \"#utility.yul\":14910:14915   */\n      dup2\n        /* \"#utility.yul\":14907:14932   */\n      gt\n        /* \"#utility.yul\":14904:14955   */\n      iszero\n      tag_430\n      jumpi\n        /* \"#utility.yul\":14935:14953   */\n      tag_431\n      tag_248\n      jump\t// in\n    tag_431:\n        /* \"#utility.yul\":14904:14955   */\n    tag_430:\n        /* \"#utility.yul\":14984:14988   */\n      dup2\n        /* \"#utility.yul\":14977:14982   */\n      dup2\n        /* \"#utility.yul\":14973:14989   */\n      mul\n        /* \"#utility.yul\":14964:14989   */\n      swap1\n      pop\n        /* \"#utility.yul\":13922:14995   */\n    tag_416:\n      swap4\n      swap3\n      pop\n      pop\n      pop\n      jump\t// out\n        /* \"#utility.yul\":15001:15286   */\n    tag_107:\n        /* \"#utility.yul\":15061:15066   */\n      0x00\n        /* \"#utility.yul\":15085:15108   */\n      tag_433\n        /* \"#utility.yul\":15103:15107   */\n      dup3\n        /* \"#utility.yul\":15085:15108   */\n      tag_220\n      jump\t// in\n    tag_433:\n        /* \"#utility.yul\":15077:15108   */\n      swap2\n      pop\n        /* \"#utility.yul\":15129:15156   */\n      tag_434\n        /* \"#utility.yul\":15147:15155   */\n      dup4\n        /* \"#utility.yul\":15129:15156   */\n      tag_220\n      jump\t// in\n    tag_434:\n        /* \"#utility.yul\":15117:15156   */\n      swap3\n      pop\n        /* \"#utility.yul\":15175:15279   */\n      tag_435\n        /* \"#utility.yul\":15212:15278   */\n      0xffffffffffffffffffffffffffffffffffffffffffffffffffffffffffffffff\n        /* \"#utility.yul\":15202:15210   */\n      dup5\n        /* \"#utility.yul\":15196:15200   */\n      dup5\n        /* \"#utility.yul\":15175:15279   */\n      tag_251\n      jump\t// in\n    tag_435:\n        /* \"#utility.yul\":15166:15279   */\n      swap1\n      pop\n        /* \"#utility.yul\":15001:15286   */\n      swap3\n      swap2\n      pop\n      pop\n      jump\t// out\n        /* \"#utility.yul\":15292:15702   */\n    tag_109:\n        /* \"#utility.yul\":15332:15339   */\n      0x00\n        /* \"#utility.yul\":15355:15375   */\n      tag_437\n        /* \"#utility.yul\":15373:15374   */\n      dup3\n        /* \"#utility.yul\":15355:15375   */\n      tag_220\n      jump\t// in\n    tag_437:\n        /* \"#utility.yul\":15350:15375   */\n      swap2\n      pop\n        /* \"#utility.yul\":15389:15409   */\n      tag_438\n        /* \"#utility.yul\":15407:15408   */\n      dup4\n        /* \"#utility.yul\":15389:15409   */\n      tag_220\n      jump\t// in\n    tag_438:\n        /* \"#utility.yul\":15384:15409   */\n      swap3\n      pop\n        /* \"#utility.yul\":15444:15445   */\n      dup3\n        /* \"#utility.yul\":15441:15442   */\n      dup3\n        /* \"#utility.yul\":15437:15446   */\n      mul\n        /* \"#utility.yul\":15466:15496   */\n      tag_439\n        /* \"#utility.yul\":15484:15495   */\n      dup2\n        /* \"#utility.yul\":15466:15496   */\n      tag_220\n      jump\t// in\n    tag_439:\n        /* \"#utility.yul\":15455:15496   */\n      swap2\n      pop\n        /* \"#utility.yul\":15645:15646   */\n      dup3\n        /* \"#utility.yul\":15636:15643   */\n      dup3\n        /* \"#utility.yul\":15632:15647   */\n      div\n        /* \"#utility.yul\":15629:15630   */\n      dup5\n        /* \"#utility.yul\":15626:15648   */\n      eq\n        /* \"#utility.yul\":15606:15607   */\n      dup4\n        /* \"#utility.yul\":15599:15608   */\n      iszero\n        /* \"#utility.yul\":15579:15662   */\n      or\n        /* \"#utility.yul\":15556:15695   */\n      tag_440\n      jumpi\n        /* \"#utility.yul\":15675:15693   */\n      tag_441\n      tag_248\n      jump\t// in\n    tag_441:\n        /* \"#utility.yul\":15556:15695   */\n    tag_440:\n        /* \"#utility.yul\":15340:15702   */\n      pop\n        /* \"#utility.yul\":15292:15702   */\n      swap3\n      swap2\n      pop\n      pop\n      jump\t// out\n        /* \"#utility.yul\":15708:15888   */\n    tag_252:\n        /* \"#utility.yul\":15756:15833   */\n      0x4e487b7100000000000000000000000000000000000000000000000000000000\n        /* \"#utility.yul\":15753:15754   */\n      0x00\n        /* \"#utility.yul\":15746:15834   */\n      mstore\n        /* \"#utility.yul\":15853:15857   */\n      0x12\n        /* \"#utility.yul\":15850:15851   */\n      0x04\n        /* \"#utility.yul\":15843:15858   */\n      mstore\n        /* \"#utility.yul\":15877:15881   */\n      0x24\n        /* \"#utility.yul\":15874:15875   */\n      0x00\n        /* \"#utility.yul\":15867:15882   */\n      revert\n        /* \"#utility.yul\":15894:16079   */\n    tag_111:\n        /* \"#utility.yul\":15934:15935   */\n      0x00\n        /* \"#utility.yul\":15951:15971   */\n      tag_444\n        /* \"#utility.yul\":15969:15970   */\n      dup3\n        /* \"#utility.yul\":15951:15971   */\n      tag_220\n      jump\t// in\n    tag_444:\n        /* \"#utility.yul\":15946:15971   */\n      swap2\n      pop\n        /* \"#utility.yul\":15985:16005   */\n      tag_445\n        /* \"#utility.yul\":16003:16004   */\n      dup4\n        /* \"#utility.yul\":15985:16005   */\n      tag_220\n      jump\t// in\n    tag_445:\n        /* \"#utility.yul\":15980:16005   */\n      swap3\n      pop\n        /* \"#utility.yul\":16024:16025   */\n      dup3\n        /* \"#utility.yul\":16014:16049   */\n      tag_446\n      jumpi\n        /* \"#utility.yul\":16029:16047   */\n      tag_447\n      tag_252\n      jump\t// in\n    tag_447:\n        /* \"#utility.yul\":16014:16049   */\n    tag_446:\n        /* \"#utility.yul\":16071:16072   */\n      dup3\n        /* \"#utility.yul\":16068:16069   */\n      dup3\n        /* \"#utility.yul\":16064:16073   */\n      div\n        /* \"#utility.yul\":16059:16073   */\n      swap1\n      pop\n        /* \"#utility.yul\":15894:16079   */\n      swap3\n      swap2\n      pop\n      pop\n      jump\t// out\n        /* \"#utility.yul\":16085:16265   */\n    tag_123:\n        /* \"#utility.yul\":16133:16210   */\n      0x4e487b7100000000000000000000000000000000000000000000000000000000\n        /* \"#utility.yul\":16130:16131   */\n      0x00\n        /* \"#utility.yul\":16123:16211   */\n      mstore\n        /* \"#utility.yul\":16230:16234   */\n      0x41\n        /* \"#utility.yul\":16227:16228   */\n      0x04\n        /* \"#utility.yul\":16220:16235   */\n      mstore\n        /* \"#utility.yul\":16254:16258   */\n      0x24\n        /* \"#utility.yul\":16251:16252   */\n      0x00\n        /* \"#utility.yul\":16244:16259   */\n      revert\n        /* \"#utility.yul\":16271:16365   */\n    tag_253:\n        /* \"#utility.yul\":16325:16332   */\n      0x00\n        /* \"#utility.yul\":16354:16359   */\n      dup2\n        /* \"#utility.yul\":16343:16359   */\n      swap1\n      pop\n        /* \"#utility.yul\":16271:16365   */\n      swap2\n      swap1\n      pop\n      jump\t// out\n        /* \"#utility.yul\":16371:16431   */\n    tag_254:\n        /* \"#utility.yul\":16399:16402   */\n      0x00\n        /* \"#utility.yul\":16420:16425   */\n      dup2\n        /* \"#utility.yul\":16413:16425   */\n      swap1\n      pop\n        /* \"#utility.yul\":16371:16431   */\n      swap2\n      swap1\n      pop\n      jump\t// out\n        /* \"#utility.yul\":16437:16613   */\n    tag_255:\n        /* \"#utility.yul\":16504:16513   */\n      0x00\n        /* \"#utility.yul\":16537:16607   */\n      tag_452\n        /* \"#utility.yul\":16555:16606   */\n      tag_453\n        /* \"#utility.yul\":16564:16605   */\n      tag_454\n        /* \"#utility.yul\":16599:16604   */\n      dup5\n        /* \"#utility.yul\":16564:16605   */\n      tag_253\n      jump\t// in\n    tag_454:\n        /* \"#utility.yul\":16555:16606   */\n      tag_254\n      jump\t// in\n    tag_453:\n        /* \"#utility.yul\":16537:16607   */\n      tag_220\n      jump\t// in\n    tag_452:\n        /* \"#utility.yul\":16524:16607   */\n      swap1\n      pop\n        /* \"#utility.yul\":16437:16613   */\n      swap2\n      swap1\n      pop\n      jump\t// out\n        /* \"#utility.yul\":16619:16784   */\n    tag_256:\n        /* \"#utility.yul\":16723:16777   */\n      tag_456\n        /* \"#utility.yul\":16771:16776   */\n      dup2\n        /* \"#utility.yul\":16723:16777   */\n      tag_255\n      jump\t// in\n    tag_456:\n        /* \"#utility.yul\":16718:16721   */\n      dup3\n        /* \"#utility.yul\":16711:16778   */\n      mstore\n        /* \"#utility.yul\":16619:16784   */\n      pop\n      pop\n      jump\t// out\n        /* \"#utility.yul\":16790:16904   */\n    tag_257:\n        /* \"#utility.yul\":16857:16863   */\n      0x00\n        /* \"#utility.yul\":16891:16896   */\n      dup2\n        /* \"#utility.yul\":16885:16897   */\n      mload\n        /* \"#utility.yul\":16875:16897   */\n      swap1\n      pop\n        /* \"#utility.yul\":16790:16904   */\n      swap2\n      swap1\n      pop\n      jump\t// out\n        /* \"#utility.yul\":16910:17094   */\n    tag_258:\n        /* \"#utility.yul\":17009:17020   */\n      0x00\n        /* \"#utility.yul\":17043:17049   */\n      dup3\n        /* \"#utility.yul\":17038:17041   */\n      dup3\n        /* \"#utility.yul\":17031:17050   */\n      mstore\n        /* \"#utility.yul\":17083:17087   */\n      0x20\n        /* \"#utility.yul\":17078:17081   */\n      dup3\n        /* \"#utility.yul\":17074:17088   */\n      add\n        /* \"#utility.yul\":17059:17088   */\n      swap1\n      pop\n        /* \"#utility.yul\":16910:17094   */\n      swap3\n      swap2\n      pop\n      pop\n      jump\t// out\n        /* \"#utility.yul\":17100:17232   */\n    tag_259:\n        /* \"#utility.yul\":17167:17171   */\n      0x00\n        /* \"#utility.yul\":17190:17193   */\n      dup2\n        /* \"#utility.yul\":17182:17193   */\n      swap1\n      pop\n        /* \"#utility.yul\":17220:17224   */\n      0x20\n        /* \"#utility.yul\":17215:17218   */\n      dup3\n        /* \"#utility.yul\":17211:17225   */\n      add\n        /* \"#utility.yul\":17203:17225   */\n      swap1\n      pop\n        /* \"#utility.yul\":17100:17232   */\n      swap2\n      swap1\n      pop\n      jump\t// out\n        /* \"#utility.yul\":17238:17346   */\n    tag_260:\n        /* \"#utility.yul\":17315:17339   */\n      tag_461\n        /* \"#utility.yul\":17333:17338   */\n      dup2\n        /* \"#utility.yul\":17315:17339   */\n      tag_218\n      jump\t// in\n    tag_461:\n        /* \"#utility.yul\":17310:17313   */\n      dup3\n        /* \"#utility.yul\":17303:17340   */\n      mstore\n        /* \"#utility.yul\":17238:17346   */\n      pop\n      pop\n      jump\t// out\n        /* \"#utility.yul\":17352:17531   */\n    tag_261:\n        /* \"#utility.yul\":17421:17431   */\n      0x00\n        /* \"#utility.yul\":17442:17488   */\n      tag_463\n        /* \"#utility.yul\":17484:17487   */\n      dup4\n        /* \"#utility.yul\":17476:17482   */\n      dup4\n        /* \"#utility.yul\":17442:17488   */\n      tag_260\n      jump\t// in\n    tag_463:\n        /* \"#utility.yul\":17520:17524   */\n      0x20\n        /* \"#utility.yul\":17515:17518   */\n      dup4\n        /* \"#utility.yul\":17511:17525   */\n      add\n        /* \"#utility.yul\":17497:17525   */\n      swap1\n      pop\n        /* \"#utility.yul\":17352:17531   */\n      swap3\n      swap2\n      pop\n      pop\n      jump\t// out\n        /* \"#utility.yul\":17537:17650   */\n    tag_262:\n        /* \"#utility.yul\":17607:17611   */\n      0x00\n        /* \"#utility.yul\":17639:17643   */\n      0x20\n        /* \"#utility.yul\":17634:17637   */\n      dup3\n        /* \"#utility.yul\":17630:17644   */\n      add\n        /* \"#utility.yul\":17622:17644   */\n      swap1\n      pop\n        /* \"#utility.yul\":17537:17650   */\n      swap2\n      swap1\n      pop\n      jump\t// out\n        /* \"#utility.yul\":17686:18418   */\n    tag_263:\n        /* \"#utility.yul\":17805:17808   */\n      0x00\n        /* \"#utility.yul\":17834:17888   */\n      tag_466\n        /* \"#utility.yul\":17882:17887   */\n      dup3\n        /* \"#utility.yul\":17834:17888   */\n      tag_257\n      jump\t// in\n    tag_466:\n        /* \"#utility.yul\":17904:17990   */\n      tag_467\n        /* \"#utility.yul\":17983:17989   */\n      dup2\n        /* \"#utility.yul\":17978:17981   */\n      dup6\n        /* \"#utility.yul\":17904:17990   */\n      tag_258\n      jump\t// in\n    tag_467:\n        /* \"#utility.yul\":17897:17990   */\n      swap4\n      pop\n        /* \"#utility.yul\":18014:18070   */\n      tag_468\n        /* \"#utility.yul\":18064:18069   */\n      dup4\n        /* \"#utility.yul\":18014:18070   */\n      tag_259\n      jump\t// in\n    tag_468:\n        /* \"#utility.yul\":18093:18100   */\n      dup1\n        /* \"#utility.yul\":18124:18125   */\n      0x00\n        /* \"#utility.yul\":18109:18393   */\n    tag_469:\n        /* \"#utility.yul\":18134:18140   */\n      dup4\n        /* \"#utility.yul\":18131:18132   */\n      dup2\n        /* \"#utility.yul\":18128:18141   */\n      lt\n        /* \"#utility.yul\":18109:18393   */\n      iszero\n      tag_471\n      jumpi\n        /* \"#utility.yul\":18210:18216   */\n      dup2\n        /* \"#utility.yul\":18204:18217   */\n      mload\n        /* \"#utility.yul\":18237:18300   */\n      tag_472\n        /* \"#utility.yul\":18296:18299   */\n      dup9\n        /* \"#utility.yul\":18281:18294   */\n      dup3\n        /* \"#utility.yul\":18237:18300   */\n      tag_261\n      jump\t// in\n    tag_472:\n        /* \"#utility.yul\":18230:18300   */\n      swap8\n      pop\n        /* \"#utility.yul\":18323:18383   */\n      tag_473\n        /* \"#utility.yul\":18376:18382   */\n      dup4\n        /* \"#utility.yul\":18323:18383   */\n      tag_262\n      jump\t// in\n    tag_473:\n        /* \"#utility.yul\":18313:18383   */\n      swap3\n      pop\n        /* \"#utility.yul\":18169:18393   */\n      pop\n        /* \"#utility.yul\":18156:18157   */\n      0x01\n        /* \"#utility.yul\":18153:18154   */\n      dup2\n        /* \"#utility.yul\":18149:18158   */\n      add\n        /* \"#utility.yul\":18144:18158   */\n      swap1\n      pop\n        /* \"#utility.yul\":18109:18393   */\n      jump(tag_469)\n    tag_471:\n        /* \"#utility.yul\":18113:18127   */\n      pop\n        /* \"#utility.yul\":18409:18412   */\n      dup6\n        /* \"#utility.yul\":18402:18412   */\n      swap4\n      pop\n        /* \"#utility.yul\":17810:18418   */\n      pop\n      pop\n      pop\n        /* \"#utility.yul\":17686:18418   */\n      swap3\n      swap2\n      pop\n      pop\n      jump\t// out\n        /* \"#utility.yul\":18424:18941   */\n    tag_130:\n        /* \"#utility.yul\":18612:18616   */\n      0x00\n        /* \"#utility.yul\":18650:18652   */\n      0x40\n        /* \"#utility.yul\":18639:18648   */\n      dup3\n        /* \"#utility.yul\":18635:18653   */\n      add\n        /* \"#utility.yul\":18627:18653   */\n      swap1\n      pop\n        /* \"#utility.yul\":18663:18751   */\n      tag_475\n        /* \"#utility.yul\":18748:18749   */\n      0x00\n        /* \"#utility.yul\":18737:18746   */\n      dup4\n        /* \"#utility.yul\":18733:18750   */\n      add\n        /* \"#utility.yul\":18724:18730   */\n      dup6\n        /* \"#utility.yul\":18663:18751   */\n      tag_256\n      jump\t// in\n    tag_475:\n        /* \"#utility.yul\":18798:18807   */\n      dup2\n        /* \"#utility.yul\":18792:18796   */\n      dup2\n        /* \"#utility.yul\":18788:18808   */\n      sub\n        /* \"#utility.yul\":18783:18785   */\n      0x20\n        /* \"#utility.yul\":18772:18781   */\n      dup4\n        /* \"#utility.yul\":18768:18786   */\n      add\n        /* \"#utility.yul\":18761:18809   */\n      mstore\n        /* \"#utility.yul\":18826:18934   */\n      tag_476\n        /* \"#utility.yul\":18929:18933   */\n      dup2\n        /* \"#utility.yul\":18920:18926   */\n      dup5\n        /* \"#utility.yul\":18826:18934   */\n      tag_263\n      jump\t// in\n    tag_476:\n        /* \"#utility.yul\":18818:18934   */\n      swap1\n      pop\n        /* \"#utility.yul\":18424:18941   */\n      swap4\n      swap3\n      pop\n      pop\n      pop\n      jump\t// out\n        /* \"#utility.yul\":18947:19064   */\n    tag_264:\n        /* \"#utility.yul\":19056:19057   */\n      0x00\n        /* \"#utility.yul\":19053:19054   */\n      dup1\n        /* \"#utility.yul\":19046:19058   */\n      revert\n        /* \"#utility.yul\":19070:19172   */\n    tag_265:\n        /* \"#utility.yul\":19111:19117   */\n      0x00\n        /* \"#utility.yul\":19162:19164   */\n      0x1f\n        /* \"#utility.yul\":19158:19165   */\n      not\n        /* \"#utility.yul\":19153:19155   */\n      0x1f\n        /* \"#utility.yul\":19146:19151   */\n      dup4\n        /* \"#utility.yul\":19142:19156   */\n      add\n        /* \"#utility.yul\":19138:19166   */\n      and\n        /* \"#utility.yul\":19128:19166   */\n      swap1\n      pop\n        /* \"#utility.yul\":19070:19172   */\n      swap2\n      swap1\n      pop\n      jump\t// out\n        /* \"#utility.yul\":19178:19459   */\n    tag_266:\n        /* \"#utility.yul\":19261:19288   */\n      tag_480\n        /* \"#utility.yul\":19283:19287   */\n      dup3\n        /* \"#utility.yul\":19261:19288   */\n      tag_265\n      jump\t// in\n    tag_480:\n        /* \"#utility.yul\":19253:19259   */\n      dup2\n        /* \"#utility.yul\":19249:19289   */\n      add\n        /* \"#utility.yul\":19391:19397   */\n      dup2\n        /* \"#utility.yul\":19379:19389   */\n      dup2\n        /* \"#utility.yul\":19376:19398   */\n      lt\n        /* \"#utility.yul\":19355:19373   */\n      0xffffffffffffffff\n        /* \"#utility.yul\":19343:19353   */\n      dup3\n        /* \"#utility.yul\":19340:19374   */\n      gt\n        /* \"#utility.yul\":19337:19399   */\n      or\n        /* \"#utility.yul\":19334:19422   */\n      iszero\n      tag_481\n      jumpi\n        /* \"#utility.yul\":19402:19420   */\n      tag_482\n      tag_123\n      jump\t// in\n    tag_482:\n        /* \"#utility.yul\":19334:19422   */\n    tag_481:\n        /* \"#utility.yul\":19442:19452   */\n      dup1\n        /* \"#utility.yul\":19438:19440   */\n      0x40\n        /* \"#utility.yul\":19431:19453   */\n      mstore\n        /* \"#utility.yul\":19221:19459   */\n      pop\n        /* \"#utility.yul\":19178:19459   */\n      pop\n      pop\n      jump\t// out\n        /* \"#utility.yul\":19465:19594   */\n    tag_267:\n        /* \"#utility.yul\":19499:19505   */\n      0x00\n        /* \"#utility.yul\":19526:19546   */\n      tag_484\n      tag_222\n      jump\t// in\n    tag_484:\n        /* \"#utility.yul\":19516:19546   */\n      swap1\n      pop\n        /* \"#utility.yul\":19555:19588   */\n      tag_485\n        /* \"#utility.yul\":19583:19587   */\n      dup3\n        /* \"#utility.yul\":19575:19581   */\n      dup3\n        /* \"#utility.yul\":19555:19588   */\n      tag_266\n      jump\t// in\n    tag_485:\n        /* \"#utility.yul\":19465:19594   */\n      swap2\n      swap1\n      pop\n      jump\t// out\n        /* \"#utility.yul\":19600:19911   */\n    tag_268:\n        /* \"#utility.yul\":19677:19681   */\n      0x00\n        /* \"#utility.yul\":19767:19785   */\n      0xffffffffffffffff\n        /* \"#utility.yul\":19759:19765   */\n      dup3\n        /* \"#utility.yul\":19756:19786   */\n      gt\n        /* \"#utility.yul\":19753:19809   */\n      iszero\n      tag_487\n      jumpi\n        /* \"#utility.yul\":19789:19807   */\n      tag_488\n      tag_123\n      jump\t// in\n    tag_488:\n        /* \"#utility.yul\":19753:19809   */\n    tag_487:\n        /* \"#utility.yul\":19839:19843   */\n      0x20\n        /* \"#utility.yul\":19831:19837   */\n      dup3\n        /* \"#utility.yul\":19827:19844   */\n      mul\n        /* \"#utility.yul\":19819:19844   */\n      swap1\n      pop\n        /* \"#utility.yul\":19899:19903   */\n      0x20\n        /* \"#utility.yul\":19893:19897   */\n      dup2\n        /* \"#utility.yul\":19889:19904   */\n      add\n        /* \"#utility.yul\":19881:19904   */\n      swap1\n      pop\n        /* \"#utility.yul\":19600:19911   */\n      swap2\n      swap1\n      pop\n      jump\t// out\n        /* \"#utility.yul\":19917:20034   */\n    tag_269:\n        /* \"#utility.yul\":20026:20027   */\n      0x00\n        /* \"#utility.yul\":20023:20024   */\n      dup1\n        /* \"#utility.yul\":20016:20028   */\n      revert\n        /* \"#utility.yul\":20040:20183   */\n    tag_270:\n        /* \"#utility.yul\":20097:20102   */\n      0x00\n        /* \"#utility.yul\":20128:20134   */\n      dup2\n        /* \"#utility.yul\":20122:20135   */\n      mload\n        /* \"#utility.yul\":20113:20135   */\n      swap1\n      pop\n        /* \"#utility.yul\":20144:20177   */\n      tag_491\n        /* \"#utility.yul\":20171:20176   */\n      dup2\n        /* \"#utility.yul\":20144:20177   */\n      tag_225\n      jump\t// in\n    tag_491:\n        /* \"#utility.yul\":20040:20183   */\n      swap3\n      swap2\n      pop\n      pop\n      jump\t// out\n        /* \"#utility.yul\":20206:20938   */\n    tag_271:\n        /* \"#utility.yul\":20313:20318   */\n      0x00\n        /* \"#utility.yul\":20338:20419   */\n      tag_493\n        /* \"#utility.yul\":20354:20418   */\n      tag_494\n        /* \"#utility.yul\":20411:20417   */\n      dup5\n        /* \"#utility.yul\":20354:20418   */\n      tag_268\n      jump\t// in\n    tag_494:\n        /* \"#utility.yul\":20338:20419   */\n      tag_267\n      jump\t// in\n    tag_493:\n        /* \"#utility.yul\":20329:20419   */\n      swap1\n      pop\n        /* \"#utility.yul\":20439:20444   */\n      dup1\n        /* \"#utility.yul\":20468:20474   */\n      dup4\n        /* \"#utility.yul\":20461:20466   */\n      dup3\n        /* \"#utility.yul\":20454:20475   */\n      mstore\n        /* \"#utility.yul\":20502:20506   */\n      0x20\n        /* \"#utility.yul\":20495:20500   */\n      dup3\n        /* \"#utility.yul\":20491:20507   */\n      add\n        /* \"#utility.yul\":20484:20507   */\n      swap1\n      pop\n        /* \"#utility.yul\":20555:20559   */\n      0x20\n        /* \"#utility.yul\":20547:20553   */\n      dup5\n        /* \"#utility.yul\":20543:20560   */\n      mul\n        /* \"#utility.yul\":20535:20541   */\n      dup4\n        /* \"#utility.yul\":20531:20561   */\n      add\n        /* \"#utility.yul\":20584:20587   */\n      dup6\n        /* \"#utility.yul\":20576:20582   */\n      dup2\n        /* \"#utility.yul\":20573:20588   */\n      gt\n        /* \"#utility.yul\":20570:20692   */\n      iszero\n      tag_495\n      jumpi\n        /* \"#utility.yul\":20603:20682   */\n      tag_496\n      tag_269\n      jump\t// in\n    tag_496:\n        /* \"#utility.yul\":20570:20692   */\n    tag_495:\n        /* \"#utility.yul\":20718:20724   */\n      dup4\n        /* \"#utility.yul\":20701:20932   */\n    tag_497:\n        /* \"#utility.yul\":20735:20741   */\n      dup2\n        /* \"#utility.yul\":20730:20733   */\n      dup2\n        /* \"#utility.yul\":20727:20742   */\n      lt\n        /* \"#utility.yul\":20701:20932   */\n      iszero\n      tag_499\n      jumpi\n        /* \"#utility.yul\":20810:20813   */\n      dup1\n        /* \"#utility.yul\":20839:20887   */\n      tag_500\n        /* \"#utility.yul\":20883:20886   */\n      dup9\n        /* \"#utility.yul\":20871:20881   */\n      dup3\n        /* \"#utility.yul\":20839:20887   */\n      tag_270\n      jump\t// in\n    tag_500:\n        /* \"#utility.yul\":20834:20837   */\n      dup5\n        /* \"#utility.yul\":20827:20888   */\n      mstore\n        /* \"#utility.yul\":20917:20921   */\n      0x20\n        /* \"#utility.yul\":20912:20915   */\n      dup5\n        /* \"#utility.yul\":20908:20922   */\n      add\n        /* \"#utility.yul\":20901:20922   */\n      swap4\n      pop\n        /* \"#utility.yul\":20777:20932   */\n      pop\n        /* \"#utility.yul\":20761:20765   */\n      0x20\n        /* \"#utility.yul\":20756:20759   */\n      dup2\n        /* \"#utility.yul\":20752:20766   */\n      add\n        /* \"#utility.yul\":20745:20766   */\n      swap1\n      pop\n        /* \"#utility.yul\":20701:20932   */\n      jump(tag_497)\n    tag_499:\n        /* \"#utility.yul\":20705:20726   */\n      pop\n        /* \"#utility.yul\":20319:20938   */\n      pop\n      pop\n        /* \"#utility.yul\":20206:20938   */\n      swap4\n      swap3\n      pop\n      pop\n      pop\n      jump\t// out\n        /* \"#utility.yul\":20961:21346   */\n    tag_272:\n        /* \"#utility.yul\":21043:21048   */\n      0x00\n        /* \"#utility.yul\":21092:21095   */\n      dup3\n        /* \"#utility.yul\":21085:21089   */\n      0x1f\n        /* \"#utility.yul\":21077:21083   */\n      dup4\n        /* \"#utility.yul\":21073:21090   */\n      add\n        /* \"#utility.yul\":21069:21096   */\n      slt\n        /* \"#utility.yul\":21059:21181   */\n      tag_502\n      jumpi\n        /* \"#utility.yul\":21100:21179   */\n      tag_503\n      tag_264\n      jump\t// in\n    tag_503:\n        /* \"#utility.yul\":21059:21181   */\n    tag_502:\n        /* \"#utility.yul\":21210:21216   */\n      dup2\n        /* \"#utility.yul\":21204:21217   */\n      mload\n        /* \"#utility.yul\":21235:21340   */\n      tag_504\n        /* \"#utility.yul\":21336:21339   */\n      dup5\n        /* \"#utility.yul\":21328:21334   */\n      dup3\n        /* \"#utility.yul\":21321:21325   */\n      0x20\n        /* \"#utility.yul\":21313:21319   */\n      dup7\n        /* \"#utility.yul\":21309:21326   */\n      add\n        /* \"#utility.yul\":21235:21340   */\n      tag_271\n      jump\t// in\n    tag_504:\n        /* \"#utility.yul\":21226:21340   */\n      swap2\n      pop\n        /* \"#utility.yul\":21049:21346   */\n      pop\n        /* \"#utility.yul\":20961:21346   */\n      swap3\n      swap2\n      pop\n      pop\n      jump\t// out\n        /* \"#utility.yul\":21352:21906   */\n    tag_134:\n        /* \"#utility.yul\":21447:21453   */\n      0x00\n        /* \"#utility.yul\":21496:21498   */\n      0x20\n        /* \"#utility.yul\":21484:21493   */\n      dup3\n        /* \"#utility.yul\":21475:21482   */\n      dup5\n        /* \"#utility.yul\":21471:21494   */\n      sub\n        /* \"#utility.yul\":21467:21499   */\n      slt\n        /* \"#utility.yul\":21464:21583   */\n      iszero\n      tag_506\n      jumpi\n        /* \"#utility.yul\":21502:21581   */\n      tag_507\n      tag_223\n      jump\t// in\n    tag_507:\n        /* \"#utility.yul\":21464:21583   */\n    tag_506:\n        /* \"#utility.yul\":21643:21644   */\n      0x00\n        /* \"#utility.yul\":21632:21641   */\n      dup3\n        /* \"#utility.yul\":21628:21645   */\n      add\n        /* \"#utility.yul\":21622:21646   */\n      mload\n        /* \"#utility.yul\":21673:21691   */\n      0xffffffffffffffff\n        /* \"#utility.yul\":21665:21671   */\n      dup2\n        /* \"#utility.yul\":21662:21692   */\n      gt\n        /* \"#utility.yul\":21659:21776   */\n      iszero\n      tag_508\n      jumpi\n        /* \"#utility.yul\":21695:21774   */\n      tag_509\n      tag_224\n      jump\t// in\n    tag_509:\n        /* \"#utility.yul\":21659:21776   */\n    tag_508:\n        /* \"#utility.yul\":21800:21889   */\n      tag_510\n        /* \"#utility.yul\":21881:21888   */\n      dup5\n        /* \"#utility.yul\":21872:21878   */\n      dup3\n        /* \"#utility.yul\":21861:21870   */\n      dup6\n        /* \"#utility.yul\":21857:21879   */\n      add\n        /* \"#utility.yul\":21800:21889   */\n      tag_272\n      jump\t// in\n    tag_510:\n        /* \"#utility.yul\":21790:21889   */\n      swap2\n      pop\n        /* \"#utility.yul\":21593:21899   */\n      pop\n        /* \"#utility.yul\":21352:21906   */\n      swap3\n      swap2\n      pop\n      pop\n      jump\t// out\n        /* \"#utility.yul\":21912:22076   */\n    tag_273:\n        /* \"#utility.yul\":22052:22068   */\n      0x496e76616c696420616d6f756e74000000000000000000000000000000000000\n        /* \"#utility.yul\":22048:22049   */\n      0x00\n        /* \"#utility.yul\":22040:22046   */\n      dup3\n        /* \"#utility.yul\":22036:22050   */\n      add\n        /* \"#utility.yul\":22029:22069   */\n      mstore\n        /* \"#utility.yul\":21912:22076   */\n      pop\n      jump\t// out\n        /* \"#utility.yul\":22082:22448   */\n    tag_274:\n        /* \"#utility.yul\":22224:22227   */\n      0x00\n        /* \"#utility.yul\":22245:22312   */\n      tag_513\n        /* \"#utility.yul\":22309:22311   */\n      0x0e\n        /* \"#utility.yul\":22304:22307   */\n      dup4\n        /* \"#utility.yul\":22245:22312   */\n      tag_243\n      jump\t// in\n    tag_513:\n        /* \"#utility.yul\":22238:22312   */\n      swap2\n      pop\n        /* \"#utility.yul\":22321:22414   */\n      tag_514\n        /* \"#utility.yul\":22410:22413   */\n      dup3\n        /* \"#utility.yul\":22321:22414   */\n      tag_273\n      jump\t// in\n    tag_514:\n        /* \"#utility.yul\":22439:22441   */\n      0x20\n        /* \"#utility.yul\":22434:22437   */\n      dup3\n        /* \"#utility.yul\":22430:22442   */\n      add\n        /* \"#utility.yul\":22423:22442   */\n      swap1\n      pop\n        /* \"#utility.yul\":22082:22448   */\n      swap2\n      swap1\n      pop\n      jump\t// out\n        /* \"#utility.yul\":22454:22873   */\n    tag_140:\n        /* \"#utility.yul\":22620:22624   */\n      0x00\n        /* \"#utility.yul\":22658:22660   */\n      0x20\n        /* \"#utility.yul\":22647:22656   */\n      dup3\n        /* \"#utility.yul\":22643:22661   */\n      add\n        /* \"#utility.yul\":22635:22661   */\n      swap1\n      pop\n        /* \"#utility.yul\":22707:22716   */\n      dup2\n        /* \"#utility.yul\":22701:22705   */\n      dup2\n        /* \"#utility.yul\":22697:22717   */\n      sub\n        /* \"#utility.yul\":22693:22694   */\n      0x00\n        /* \"#utility.yul\":22682:22691   */\n      dup4\n        /* \"#utility.yul\":22678:22695   */\n      add\n        /* \"#utility.yul\":22671:22718   */\n      mstore\n        /* \"#utility.yul\":22735:22866   */\n      tag_516\n        /* \"#utility.yul\":22861:22865   */\n      dup2\n        /* \"#utility.yul\":22735:22866   */\n      tag_274\n      jump\t// in\n    tag_516:\n        /* \"#utility.yul\":22727:22866   */\n      swap1\n      pop\n        /* \"#utility.yul\":22454:22873   */\n      swap2\n      swap1\n      pop\n      jump\t// out\n        /* \"#utility.yul\":22879:23055   */\n    tag_142:\n        /* \"#utility.yul\":22911:22912   */\n      0x00\n        /* \"#utility.yul\":22928:22948   */\n      tag_518\n        /* \"#utility.yul\":22946:22947   */\n      dup3\n        /* \"#utility.yul\":22928:22948   */\n      tag_220\n      jump\t// in\n    tag_518:\n        /* \"#utility.yul\":22923:22948   */\n      swap2\n      pop\n        /* \"#utility.yul\":22962:22982   */\n      tag_519\n        /* \"#utility.yul\":22980:22981   */\n      dup4\n        /* \"#utility.yul\":22962:22982   */\n      tag_220\n      jump\t// in\n    tag_519:\n        /* \"#utility.yul\":22957:22982   */\n      swap3\n      pop\n        /* \"#utility.yul\":23001:23002   */\n      dup3\n        /* \"#utility.yul\":22991:23026   */\n      tag_520\n      jumpi\n        /* \"#utility.yul\":23006:23024   */\n      tag_521\n      tag_252\n      jump\t// in\n    tag_521:\n        /* \"#utility.yul\":22991:23026   */\n    tag_520:\n        /* \"#utility.yul\":23047:23048   */\n      dup3\n        /* \"#utility.yul\":23044:23045   */\n      dup3\n        /* \"#utility.yul\":23040:23049   */\n      mod\n        /* \"#utility.yul\":23035:23049   */\n      swap1\n      pop\n        /* \"#utility.yul\":22879:23055   */\n      swap3\n      swap2\n      pop\n      pop\n      jump\t// out\n        /* \"#utility.yul\":23061:23503   */\n    tag_153:\n        /* \"#utility.yul\":23210:23214   */\n      0x00\n        /* \"#utility.yul\":23248:23250   */\n      0x60\n        /* \"#utility.yul\":23237:23246   */\n      dup3\n        /* \"#utility.yul\":23233:23251   */\n      add\n        /* \"#utility.yul\":23225:23251   */\n      swap1\n      pop\n        /* \"#utility.yul\":23261:23332   */\n      tag_523\n        /* \"#utility.yul\":23329:23330   */\n      0x00\n        /* \"#utility.yul\":23318:23327   */\n      dup4\n        /* \"#utility.yul\":23314:23331   */\n      add\n        /* \"#utility.yul\":23305:23311   */\n      dup7\n        /* \"#utility.yul\":23261:23332   */\n      tag_219\n      jump\t// in\n    tag_523:\n        /* \"#utility.yul\":23342:23414   */\n      tag_524\n        /* \"#utility.yul\":23410:23412   */\n      0x20\n        /* \"#utility.yul\":23399:23408   */\n      dup4\n        /* \"#utility.yul\":23395:23413   */\n      add\n        /* \"#utility.yul\":23386:23392   */\n      dup6\n        /* \"#utility.yul\":23342:23414   */\n      tag_219\n      jump\t// in\n    tag_524:\n        /* \"#utility.yul\":23424:23496   */\n      tag_525\n        /* \"#utility.yul\":23492:23494   */\n      0x40\n        /* \"#utility.yul\":23481:23490   */\n      dup4\n        /* \"#utility.yul\":23477:23495   */\n      add\n        /* \"#utility.yul\":23468:23474   */\n      dup5\n        /* \"#utility.yul\":23424:23496   */\n      tag_221\n      jump\t// in\n    tag_525:\n        /* \"#utility.yul\":23061:23503   */\n      swap5\n      swap4\n      pop\n      pop\n      pop\n      pop\n      jump\t// out\n        /* \"#utility.yul\":23509:23599   */\n    tag_275:\n        /* \"#utility.yul\":23543:23550   */\n      0x00\n        /* \"#utility.yul\":23586:23591   */\n      dup2\n        /* \"#utility.yul\":23579:23592   */\n      iszero\n        /* \"#utility.yul\":23572:23593   */\n      iszero\n        /* \"#utility.yul\":23561:23593   */\n      swap1\n      pop\n        /* \"#utility.yul\":23509:23599   */\n      swap2\n      swap1\n      pop\n      jump\t// out\n        /* \"#utility.yul\":23605:23721   */\n    tag_276:\n        /* \"#utility.yul\":23675:23696   */\n      tag_528\n        /* \"#utility.yul\":23690:23695   */\n      dup2\n        /* \"#utility.yul\":23675:23696   */\n      tag_275\n      jump\t// in\n    tag_528:\n        /* \"#utility.yul\":23668:23673   */\n      dup2\n        /* \"#utility.yul\":23665:23697   */\n      eq\n        /* \"#utility.yul\":23655:23715   */\n      tag_529\n      jumpi\n        /* \"#utility.yul\":23711:23712   */\n      0x00\n        /* \"#utility.yul\":23708:23709   */\n      dup1\n        /* \"#utility.yul\":23701:23713   */\n      revert\n        /* \"#utility.yul\":23655:23715   */\n    tag_529:\n        /* \"#utility.yul\":23605:23721   */\n      pop\n      jump\t// out\n        /* \"#utility.yul\":23727:23864   */\n    tag_277:\n        /* \"#utility.yul\":23781:23786   */\n      0x00\n        /* \"#utility.yul\":23812:23818   */\n      dup2\n        /* \"#utility.yul\":23806:23819   */\n      mload\n        /* \"#utility.yul\":23797:23819   */\n      swap1\n      pop\n        /* \"#utility.yul\":23828:23858   */\n      tag_531\n        /* \"#utility.yul\":23852:23857   */\n      dup2\n        /* \"#utility.yul\":23828:23858   */\n      tag_276\n      jump\t// in\n    tag_531:\n        /* \"#utility.yul\":23727:23864   */\n      swap3\n      swap2\n      pop\n      pop\n      jump\t// out\n        /* \"#utility.yul\":23870:24215   */\n    tag_157:\n        /* \"#utility.yul\":23937:23943   */\n      0x00\n        /* \"#utility.yul\":23986:23988   */\n      0x20\n        /* \"#utility.yul\":23974:23983   */\n      dup3\n        /* \"#utility.yul\":23965:23972   */\n      dup5\n        /* \"#utility.yul\":23961:23984   */\n      sub\n        /* \"#utility.yul\":23957:23989   */\n      slt\n        /* \"#utility.yul\":23954:24073   */\n      iszero\n      tag_533\n      jumpi\n        /* \"#utility.yul\":23992:24071   */\n      tag_534\n      tag_223\n      jump\t// in\n    tag_534:\n        /* \"#utility.yul\":23954:24073   */\n    tag_533:\n        /* \"#utility.yul\":24112:24113   */\n      0x00\n        /* \"#utility.yul\":24137:24198   */\n      tag_535\n        /* \"#utility.yul\":24190:24197   */\n      dup5\n        /* \"#utility.yul\":24181:24187   */\n      dup3\n        /* \"#utility.yul\":24170:24179   */\n      dup6\n        /* \"#utility.yul\":24166:24188   */\n      add\n        /* \"#utility.yul\":24137:24198   */\n      tag_277\n      jump\t// in\n    tag_535:\n        /* \"#utility.yul\":24127:24198   */\n      swap2\n      pop\n        /* \"#utility.yul\":24083:24208   */\n      pop\n        /* \"#utility.yul\":23870:24215   */\n      swap3\n      swap2\n      pop\n      pop\n      jump\t// out\n        /* \"#utility.yul\":24221:24553   */\n    tag_162:\n        /* \"#utility.yul\":24342:24346   */\n      0x00\n        /* \"#utility.yul\":24380:24382   */\n      0x40\n        /* \"#utility.yul\":24369:24378   */\n      dup3\n        /* \"#utility.yul\":24365:24383   */\n      add\n        /* \"#utility.yul\":24357:24383   */\n      swap1\n      pop\n        /* \"#utility.yul\":24393:24464   */\n      tag_537\n        /* \"#utility.yul\":24461:24462   */\n      0x00\n        /* \"#utility.yul\":24450:24459   */\n      dup4\n        /* \"#utility.yul\":24446:24463   */\n      add\n        /* \"#utility.yul\":24437:24443   */\n      dup6\n        /* \"#utility.yul\":24393:24464   */\n      tag_219\n      jump\t// in\n    tag_537:\n        /* \"#utility.yul\":24474:24546   */\n      tag_538\n        /* \"#utility.yul\":24542:24544   */\n      0x20\n        /* \"#utility.yul\":24531:24540   */\n      dup4\n        /* \"#utility.yul\":24527:24545   */\n      add\n        /* \"#utility.yul\":24518:24524   */\n      dup5\n        /* \"#utility.yul\":24474:24546   */\n      tag_221\n      jump\t// in\n    tag_538:\n        /* \"#utility.yul\":24221:24553   */\n      swap4\n      swap3\n      pop\n      pop\n      pop\n      jump\t// out\n        /* \"#utility.yul\":24559:25334   */\n    tag_167:\n        /* \"#utility.yul\":24792:24796   */\n      0x00\n        /* \"#utility.yul\":24830:24833   */\n      0xc0\n        /* \"#utility.yul\":24819:24828   */\n      dup3\n        /* \"#utility.yul\":24815:24834   */\n      add\n        /* \"#utility.yul\":24807:24834   */\n      swap1\n      pop\n        /* \"#utility.yul\":24844:24915   */\n      tag_540\n        /* \"#utility.yul\":24912:24913   */\n      0x00\n        /* \"#utility.yul\":24901:24910   */\n      dup4\n        /* \"#utility.yul\":24897:24914   */\n      add\n        /* \"#utility.yul\":24888:24894   */\n      dup10\n        /* \"#utility.yul\":24844:24915   */\n      tag_221\n      jump\t// in\n    tag_540:\n        /* \"#utility.yul\":24925:24997   */\n      tag_541\n        /* \"#utility.yul\":24993:24995   */\n      0x20\n        /* \"#utility.yul\":24982:24991   */\n      dup4\n        /* \"#utility.yul\":24978:24996   */\n      add\n        /* \"#utility.yul\":24969:24975   */\n      dup9\n        /* \"#utility.yul\":24925:24997   */\n      tag_221\n      jump\t// in\n    tag_541:\n        /* \"#utility.yul\":25007:25079   */\n      tag_542\n        /* \"#utility.yul\":25075:25077   */\n      0x40\n        /* \"#utility.yul\":25064:25073   */\n      dup4\n        /* \"#utility.yul\":25060:25078   */\n      add\n        /* \"#utility.yul\":25051:25057   */\n      dup8\n        /* \"#utility.yul\":25007:25079   */\n      tag_221\n      jump\t// in\n    tag_542:\n        /* \"#utility.yul\":25089:25161   */\n      tag_543\n        /* \"#utility.yul\":25157:25159   */\n      0x60\n        /* \"#utility.yul\":25146:25155   */\n      dup4\n        /* \"#utility.yul\":25142:25160   */\n      add\n        /* \"#utility.yul\":25133:25139   */\n      dup7\n        /* \"#utility.yul\":25089:25161   */\n      tag_221\n      jump\t// in\n    tag_543:\n        /* \"#utility.yul\":25171:25244   */\n      tag_544\n        /* \"#utility.yul\":25239:25242   */\n      0x80\n        /* \"#utility.yul\":25228:25237   */\n      dup4\n        /* \"#utility.yul\":25224:25243   */\n      add\n        /* \"#utility.yul\":25215:25221   */\n      dup6\n        /* \"#utility.yul\":25171:25244   */\n      tag_221\n      jump\t// in\n    tag_544:\n        /* \"#utility.yul\":25254:25327   */\n      tag_545\n        /* \"#utility.yul\":25322:25325   */\n      0xa0\n        /* \"#utility.yul\":25311:25320   */\n      dup4\n        /* \"#utility.yul\":25307:25326   */\n      add\n        /* \"#utility.yul\":25298:25304   */\n      dup5\n        /* \"#utility.yul\":25254:25327   */\n      tag_221\n      jump\t// in\n    tag_545:\n        /* \"#utility.yul\":24559:25334   */\n      swap8\n      swap7\n      pop\n      pop\n      pop\n      pop\n      pop\n      pop\n      pop\n      jump\t// out\n        /* \"#utility.yul\":25340:25445   */\n    tag_278:\n        /* \"#utility.yul\":25376:25383   */\n      0x00\n        /* \"#utility.yul\":25416:25438   */\n      0xffffffffffffffffffff\n        /* \"#utility.yul\":25409:25414   */\n      dup3\n        /* \"#utility.yul\":25405:25439   */\n      and\n        /* \"#utility.yul\":25394:25439   */\n      swap1\n      pop\n        /* \"#utility.yul\":25340:25445   */\n      swap2\n      swap1\n      pop\n      jump\t// out\n        /* \"#utility.yul\":25451:25571   */\n    tag_279:\n        /* \"#utility.yul\":25523:25546   */\n      tag_548\n        /* \"#utility.yul\":25540:25545   */\n      dup2\n        /* \"#utility.yul\":25523:25546   */\n      tag_278\n      jump\t// in\n    tag_548:\n        /* \"#utility.yul\":25516:25521   */\n      dup2\n        /* \"#utility.yul\":25513:25547   */\n      eq\n        /* \"#utility.yul\":25503:25565   */\n      tag_549\n      jumpi\n        /* \"#utility.yul\":25561:25562   */\n      0x00\n        /* \"#utility.yul\":25558:25559   */\n      dup1\n        /* \"#utility.yul\":25551:25563   */\n      revert\n        /* \"#utility.yul\":25503:25565   */\n    tag_549:\n        /* \"#utility.yul\":25451:25571   */\n      pop\n      jump\t// out\n        /* \"#utility.yul\":25577:25718   */\n    tag_280:\n        /* \"#utility.yul\":25633:25638   */\n      0x00\n        /* \"#utility.yul\":25664:25670   */\n      dup2\n        /* \"#utility.yul\":25658:25671   */\n      mload\n        /* \"#utility.yul\":25649:25671   */\n      swap1\n      pop\n        /* \"#utility.yul\":25680:25712   */\n      tag_551\n        /* \"#utility.yul\":25706:25711   */\n      dup2\n        /* \"#utility.yul\":25680:25712   */\n      tag_279\n      jump\t// in\n    tag_551:\n        /* \"#utility.yul\":25577:25718   */\n      swap3\n      swap2\n      pop\n      pop\n      jump\t// out\n        /* \"#utility.yul\":25724:25800   */\n    tag_281:\n        /* \"#utility.yul\":25760:25767   */\n      0x00\n        /* \"#utility.yul\":25789:25794   */\n      dup2\n        /* \"#utility.yul\":25778:25794   */\n      swap1\n      pop\n        /* \"#utility.yul\":25724:25800   */\n      swap2\n      swap1\n      pop\n      jump\t// out\n        /* \"#utility.yul\":25806:25926   */\n    tag_282:\n        /* \"#utility.yul\":25878:25901   */\n      tag_554\n        /* \"#utility.yul\":25895:25900   */\n      dup2\n        /* \"#utility.yul\":25878:25901   */\n      tag_281\n      jump\t// in\n    tag_554:\n        /* \"#utility.yul\":25871:25876   */\n      dup2\n        /* \"#utility.yul\":25868:25902   */\n      eq\n        /* \"#utility.yul\":25858:25920   */\n      tag_555\n      jumpi\n        /* \"#utility.yul\":25916:25917   */\n      0x00\n        /* \"#utility.yul\":25913:25914   */\n      dup1\n        /* \"#utility.yul\":25906:25918   */\n      revert\n        /* \"#utility.yul\":25858:25920   */\n    tag_555:\n        /* \"#utility.yul\":25806:25926   */\n      pop\n      jump\t// out\n        /* \"#utility.yul\":25932:26073   */\n    tag_283:\n        /* \"#utility.yul\":25988:25993   */\n      0x00\n        /* \"#utility.yul\":26019:26025   */\n      dup2\n        /* \"#utility.yul\":26013:26026   */\n      mload\n        /* \"#utility.yul\":26004:26026   */\n      swap1\n      pop\n        /* \"#utility.yul\":26035:26067   */\n      tag_557\n        /* \"#utility.yul\":26061:26066   */\n      dup2\n        /* \"#utility.yul\":26035:26067   */\n      tag_282\n      jump\t// in\n    tag_557:\n        /* \"#utility.yul\":25932:26073   */\n      swap3\n      swap2\n      pop\n      pop\n      jump\t// out\n        /* \"#utility.yul\":26079:27050   */\n    tag_172:\n        /* \"#utility.yul\":26182:26188   */\n      0x00\n        /* \"#utility.yul\":26190:26196   */\n      dup1\n        /* \"#utility.yul\":26198:26204   */\n      0x00\n        /* \"#utility.yul\":26206:26212   */\n      dup1\n        /* \"#utility.yul\":26214:26220   */\n      0x00\n        /* \"#utility.yul\":26263:26266   */\n      0xa0\n        /* \"#utility.yul\":26251:26260   */\n      dup7\n        /* \"#utility.yul\":26242:26249   */\n      dup9\n        /* \"#utility.yul\":26238:26261   */\n      sub\n        /* \"#utility.yul\":26234:26267   */\n      slt\n        /* \"#utility.yul\":26231:26351   */\n      iszero\n      tag_559\n      jumpi\n        /* \"#utility.yul\":26270:26349   */\n      tag_560\n      tag_223\n      jump\t// in\n    tag_560:\n        /* \"#utility.yul\":26231:26351   */\n    tag_559:\n        /* \"#utility.yul\":26390:26391   */\n      0x00\n        /* \"#utility.yul\":26415:26478   */\n      tag_561\n        /* \"#utility.yul\":26470:26477   */\n      dup9\n        /* \"#utility.yul\":26461:26467   */\n      dup3\n        /* \"#utility.yul\":26450:26459   */\n      dup10\n        /* \"#utility.yul\":26446:26468   */\n      add\n        /* \"#utility.yul\":26415:26478   */\n      tag_280\n      jump\t// in\n    tag_561:\n        /* \"#utility.yul\":26405:26478   */\n      swap6\n      pop\n        /* \"#utility.yul\":26361:26488   */\n      pop\n        /* \"#utility.yul\":26527:26529   */\n      0x20\n        /* \"#utility.yul\":26553:26616   */\n      tag_562\n        /* \"#utility.yul\":26608:26615   */\n      dup9\n        /* \"#utility.yul\":26599:26605   */\n      dup3\n        /* \"#utility.yul\":26588:26597   */\n      dup10\n        /* \"#utility.yul\":26584:26606   */\n      add\n        /* \"#utility.yul\":26553:26616   */\n      tag_283\n      jump\t// in\n    tag_562:\n        /* \"#utility.yul\":26543:26616   */\n      swap5\n      pop\n        /* \"#utility.yul\":26498:26626   */\n      pop\n        /* \"#utility.yul\":26665:26667   */\n      0x40\n        /* \"#utility.yul\":26691:26755   */\n      tag_563\n        /* \"#utility.yul\":26747:26754   */\n      dup9\n        /* \"#utility.yul\":26738:26744   */\n      dup3\n        /* \"#utility.yul\":26727:26736   */\n      dup10\n        /* \"#utility.yul\":26723:26745   */\n      add\n        /* \"#utility.yul\":26691:26755   */\n      tag_270\n      jump\t// in\n    tag_563:\n        /* \"#utility.yul\":26681:26755   */\n      swap4\n      pop\n        /* \"#utility.yul\":26636:26765   */\n      pop\n        /* \"#utility.yul\":26804:26806   */\n      0x60\n        /* \"#utility.yul\":26830:26894   */\n      tag_564\n        /* \"#utility.yul\":26886:26893   */\n      dup9\n        /* \"#utility.yul\":26877:26883   */\n      dup3\n        /* \"#utility.yul\":26866:26875   */\n      dup10\n        /* \"#utility.yul\":26862:26884   */\n      add\n        /* \"#utility.yul\":26830:26894   */\n      tag_270\n      jump\t// in\n    tag_564:\n        /* \"#utility.yul\":26820:26894   */\n      swap3\n      pop\n        /* \"#utility.yul\":26775:26904   */\n      pop\n        /* \"#utility.yul\":26943:26946   */\n      0x80\n        /* \"#utility.yul\":26970:27033   */\n      tag_565\n        /* \"#utility.yul\":27025:27032   */\n      dup9\n        /* \"#utility.yul\":27016:27022   */\n      dup3\n        /* \"#utility.yul\":27005:27014   */\n      dup10\n        /* \"#utility.yul\":27001:27023   */\n      add\n        /* \"#utility.yul\":26970:27033   */\n      tag_280\n      jump\t// in\n    tag_565:\n        /* \"#utility.yul\":26960:27033   */\n      swap2\n      pop\n        /* \"#utility.yul\":26914:27043   */\n      pop\n        /* \"#utility.yul\":26079:27050   */\n      swap3\n      swap6\n      pop\n      swap3\n      swap6\n      swap1\n      swap4\n      pop\n      jump\t// out\n        /* \"#utility.yul\":27056:27227   */\n    tag_284:\n        /* \"#utility.yul\":27196:27219   */\n      0x496e76616c6964204554482f5553442070726963650000000000000000000000\n        /* \"#utility.yul\":27192:27193   */\n      0x00\n        /* \"#utility.yul\":27184:27190   */\n      dup3\n        /* \"#utility.yul\":27180:27194   */\n      add\n        /* \"#utility.yul\":27173:27220   */\n      mstore\n        /* \"#utility.yul\":27056:27227   */\n      pop\n      jump\t// out\n        /* \"#utility.yul\":27233:27599   */\n    tag_285:\n        /* \"#utility.yul\":27375:27378   */\n      0x00\n        /* \"#utility.yul\":27396:27463   */\n      tag_568\n        /* \"#utility.yul\":27460:27462   */\n      0x15\n        /* \"#utility.yul\":27455:27458   */\n      dup4\n        /* \"#utility.yul\":27396:27463   */\n      tag_243\n      jump\t// in\n    tag_568:\n        /* \"#utility.yul\":27389:27463   */\n      swap2\n      pop\n        /* \"#utility.yul\":27472:27565   */\n      tag_569\n        /* \"#utility.yul\":27561:27564   */\n      dup3\n        /* \"#utility.yul\":27472:27565   */\n      tag_284\n      jump\t// in\n    tag_569:\n        /* \"#utility.yul\":27590:27592   */\n      0x20\n        /* \"#utility.yul\":27585:27588   */\n      dup3\n        /* \"#utility.yul\":27581:27593   */\n      add\n        /* \"#utility.yul\":27574:27593   */\n      swap1\n      pop\n        /* \"#utility.yul\":27233:27599   */\n      swap2\n      swap1\n      pop\n      jump\t// out\n        /* \"#utility.yul\":27605:28024   */\n    tag_175:\n        /* \"#utility.yul\":27771:27775   */\n      0x00\n        /* \"#utility.yul\":27809:27811   */\n      0x20\n        /* \"#utility.yul\":27798:27807   */\n      dup3\n        /* \"#utility.yul\":27794:27812   */\n      add\n        /* \"#utility.yul\":27786:27812   */\n      swap1\n      pop\n        /* \"#utility.yul\":27858:27867   */\n      dup2\n        /* \"#utility.yul\":27852:27856   */\n      dup2\n        /* \"#utility.yul\":27848:27868   */\n      sub\n        /* \"#utility.yul\":27844:27845   */\n      0x00\n        /* \"#utility.yul\":27833:27842   */\n      dup4\n        /* \"#utility.yul\":27829:27846   */\n      add\n        /* \"#utility.yul\":27822:27869   */\n      mstore\n        /* \"#utility.yul\":27886:28017   */\n      tag_571\n        /* \"#utility.yul\":28012:28016   */\n      dup2\n        /* \"#utility.yul\":27886:28017   */\n      tag_285\n      jump\t// in\n    tag_571:\n        /* \"#utility.yul\":27878:28017   */\n      swap1\n      pop\n        /* \"#utility.yul\":27605:28024   */\n      swap2\n      swap1\n      pop\n      jump\t// out\n        /* \"#utility.yul\":28030:28263   */\n    tag_193:\n        /* \"#utility.yul\":28069:28072   */\n      0x00\n        /* \"#utility.yul\":28092:28116   */\n      tag_573\n        /* \"#utility.yul\":28110:28115   */\n      dup3\n        /* \"#utility.yul\":28092:28116   */\n      tag_220\n      jump\t// in\n    tag_573:\n        /* \"#utility.yul\":28083:28116   */\n      swap2\n      pop\n        /* \"#utility.yul\":28138:28204   */\n      0xffffffffffffffffffffffffffffffffffffffffffffffffffffffffffffffff\n        /* \"#utility.yul\":28131:28136   */\n      dup3\n        /* \"#utility.yul\":28128:28205   */\n      sub\n        /* \"#utility.yul\":28125:28228   */\n      tag_574\n      jumpi\n        /* \"#utility.yul\":28208:28226   */\n      tag_575\n      tag_248\n      jump\t// in\n    tag_575:\n        /* \"#utility.yul\":28125:28228   */\n    tag_574:\n        /* \"#utility.yul\":28255:28256   */\n      0x01\n        /* \"#utility.yul\":28248:28253   */\n      dup3\n        /* \"#utility.yul\":28244:28257   */\n      add\n        /* \"#utility.yul\":28237:28257   */\n      swap1\n      pop\n        /* \"#utility.yul\":28030:28263   */\n      swap2\n      swap1\n      pop\n      jump\t// out\n\n    auxdata: 0xa26469706673582212203c5bea02beeb362468e8d2e02c6b15736d232564dfa9200e47062300dfe4945f64736f6c63430008180033\n}\n",
				"bytecode": {
					"linkReferences": {},
					"object": "608060405234801562000010575f80fd5b50604051620020fd380380620020fd8339818101604052810190620000369190620001e4565b335f806101000a81548173ffffffffffffffffffffffffffffffffffffffff021916908373ffffffffffffffffffffffffffffffffffffffff1602179055508360015f6101000a81548173ffffffffffffffffffffffffffffffffffffffff021916908373ffffffffffffffffffffffffffffffffffffffff1602179055508260025f6101000a81548173ffffffffffffffffffffffffffffffffffffffff021916908373ffffffffffffffffffffffffffffffffffffffff1602179055508160035f6101000a81548173ffffffffffffffffffffffffffffffffffffffff021916908373ffffffffffffffffffffffffffffffffffffffff1602179055508060045f6101000a81548173ffffffffffffffffffffffffffffffffffffffff021916908373ffffffffffffffffffffffffffffffffffffffff1602179055505050505062000253565b5f80fd5b5f73ffffffffffffffffffffffffffffffffffffffff82169050919050565b5f620001ae8262000183565b9050919050565b620001c081620001a2565b8114620001cb575f80fd5b50565b5f81519050620001de81620001b5565b92915050565b5f805f8060808587031215620001ff57620001fe6200017f565b5b5f6200020e87828801620001ce565b94505060206200022187828801620001ce565b93505060406200023487828801620001ce565b92505060606200024787828801620001ce565b91505092959194509250565b611e9c80620002615f395ff3fe608060405234801561000f575f80fd5b50600436106100e7575f3560e01c806350f3845b1161008a578063b92d21c411610064578063b92d21c41461023a578063b9aa6ec414610258578063e60f5ae414610276578063f851a440146102a6576100e7565b806350f3845b146101e25780637b0472f014610200578063851f71471461021c576100e7565b80632e17de78116100c65780632e17de781461014557806334144b0f14610161578063419bc8ad146101945780634f0e0ef3146101c4576100e7565b8062c3a272146100eb57806320ca3c7f146101095780632e0f262514610127575b5f80fd5b6100f36102c4565b6040516101009190611066565b60405180910390f35b6101116102e9565b60405161011e9190611066565b60405180910390f35b61012f61030e565b60405161013c9190611097565b60405180910390f35b61015f600480360381019061015a91906110eb565b610313565b005b61017b60048036038101906101769190611140565b61056b565b60405161018b9493929190611190565b60405180910390f35b6101ae60048036038101906101a991906111d3565b6105bc565b6040516101bb919061131b565b60405180910390f35b6101cc61068c565b6040516101d99190611066565b60405180910390f35b6101ea6106b1565b6040516101f79190611097565b60405180910390f35b61021a6004803603810190610215919061133b565b6108ab565b005b610224610c18565b6040516102319190611097565b60405180910390f35b610242610cfc565b60405161024f9190611097565b60405180910390f35b610260610d3e565b60405161026d9190611066565b60405180910390f35b610290600480360381019061028b9190611379565b610d63565b60405161029d919061144c565b60405180910390f35b6102ae610e6a565b6040516102bb9190611066565b60405180910390f35b60045f9054906101000a900473ffffffffffffffffffffffffffffffffffffffff1681565b60035f9054906101000a900473ffffffffffffffffffffffffffffffffffffffff1681565b601281565b5f8111610355576040517f08c379a000000000000000000000000000000000000000000000000000000000815260040161034c906114c6565b60405180910390fd5b5f60055f3373ffffffffffffffffffffffffffffffffffffffff1673ffffffffffffffffffffffffffffffffffffffff1681526020019081526020015f205f8381526020019081526020015f2090505f8180549050116103ea576040517f08c379a00000000000000000000000000000000000000000000000000000000081526004016103e190611554565b60405180910390fd5b5f6103f3610cfc565b90505f8260018480549050610408919061159f565b81548110610419576104186115d2565b5b905f5260205f2090600402016002015490505f808383610439919061159f565b90505f5b85805490508110156104d55785818154811061045c5761045b6115d2565b5b905f5260205f2090600402016001015442106104c857858181548110610485576104846115d2565b5b905f5260205f2090600402015f01548361049f91906115ff565b92505f8682815481106104b5576104b46115d2565b5b905f5260205f2090600402015f01819055505b808060010191505061043d565b505f811115610515575f836012600a6104ee9190611761565b836104f991906117ab565b6105039190611819565b9050808361051191906115ff565b9250505b3373ffffffffffffffffffffffffffffffffffffffff167f0f5bb82176feb1b5e747e28471aa92156a04d9f3ab9f45f28e2d704232b93f758360405161055b9190611097565b60405180910390a2505050505050565b6005602052825f5260405f20602052815f5260405f20818154811061058e575f80fd5b905f5260205f2090600402015f925092505050805f0154908060010154908060020154908060030154905084565b606060055f8473ffffffffffffffffffffffffffffffffffffffff1673ffffffffffffffffffffffffffffffffffffffff1681526020019081526020015f205f8381526020019081526020015f20805480602002602001604051908101604052809291908181526020015f905b82821015610680578382905f5260205f2090600402016040518060800160405290815f8201548152602001600182015481526020016002820154815260200160038201548152505081526020019060010190610629565b50505050905092915050565b60025f9054906101000a900473ffffffffffffffffffffffffffffffffffffffff1681565b5f80600267ffffffffffffffff8111156106ce576106cd611849565b5b6040519080825280602002602001820160405280156106fc5781602001602082028036833780820191505090505b50905060015f9054906101000a900473ffffffffffffffffffffffffffffffffffffffff16815f81518110610734576107336115d2565b5b602002602001019073ffffffffffffffffffffffffffffffffffffffff16908173ffffffffffffffffffffffffffffffffffffffff168152505060025f9054906101000a900473ffffffffffffffffffffffffffffffffffffffff16816001815181106107a4576107a36115d2565b5b602002602001019073ffffffffffffffffffffffffffffffffffffffff16908173ffffffffffffffffffffffffffffffffffffffff16815250505f60035f9054906101000a900473ffffffffffffffffffffffffffffffffffffffff1690505f8173ffffffffffffffffffffffffffffffffffffffff1663d06ca61f633b9aca00856040518363ffffffff1660e01b815260040161084392919061196f565b5f60405180830381865afa15801561085d573d5f803e3d5ffd5b505050506040513d5f823e3d601f19601f820116820180604052508101906108859190611ad4565b90508060018151811061089b5761089a6115d2565b5b6020026020010151935050505090565b5f82116108ed576040517f08c379a00000000000000000000000000000000000000000000000000000000081526004016108e490611b65565b60405180910390fd5b5f601e826108fb9190611b83565b1461093b576040517f08c379a0000000000000000000000000000000000000000000000000000000008152600401610932906114c6565b60405180910390fd5b5f610944610cfc565b90505f6109518385610e8d565b90505f6012600a6109629190611761565b83838761096f919061159f565b61097991906117ab565b6109839190611819565b905060015f9054906101000a900473ffffffffffffffffffffffffffffffffffffffff1673ffffffffffffffffffffffffffffffffffffffff166323b872dd3330886040518463ffffffff1660e01b81526004016109e393929190611bb3565b6020604051808303815f875af11580156109ff573d5f803e3d5ffd5b505050506040513d601f19601f82011682018060405250810190610a239190611c1d565b505f6201518085610a3491906117ab565b42610a3f91906115ff565b905060055f3373ffffffffffffffffffffffffffffffffffffffff1673ffffffffffffffffffffffffffffffffffffffff1681526020019081526020015f205f8681526020019081526020015f20604051806080016040528088815260200183815260200186815260200184815250908060018154018082558091505060019003905f5260205f2090600402015f909190919091505f820151815f0155602082015181600101556040820151816002015560608201518160030155505060015f9054906101000a900473ffffffffffffffffffffffffffffffffffffffff1673ffffffffffffffffffffffffffffffffffffffff1663a9059cbb5f8054906101000a900473ffffffffffffffffffffffffffffffffffffffff16856040518363ffffffff1660e01b8152600401610b77929190611c48565b6020604051808303815f875af1158015610b93573d5f803e3d5ffd5b505050506040513d601f19601f82011682018060405250810190610bb79190611c1d565b503373ffffffffffffffffffffffffffffffffffffffff167fc16be9a586414a157dd46b4d023aa9997a025dd1cbbaa67ac0c1b8273a5eaf55878784888888604051610c0896959493929190611c6f565b60405180910390a2505050505050565b5f8060045f9054906101000a900473ffffffffffffffffffffffffffffffffffffffff1690505f8173ffffffffffffffffffffffffffffffffffffffff1663feaf968c6040518163ffffffff1660e01b815260040160a060405180830381865afa158015610c88573d5f803e3d5ffd5b505050506040513d601f19601f82011682018060405250810190610cac9190611d40565b5050509150505f8113610cf4576040517f08c379a0000000000000000000000000000000000000000000000000000000008152600401610ceb90611e01565b60405180910390fd5b809250505090565b5f80610d06610c18565b90505f610d116106b1565b90506012600a610d219190611761565b8282610d2d91906117ab565b610d379190611819565b9250505090565b60015f9054906101000a900473ffffffffffffffffffffffffffffffffffffffff1681565b60605f600c67ffffffffffffffff811115610d8157610d80611849565b5b604051908082528060200260200182016040528015610daf5781602001602082028036833780820191505090505b5090505f80601e90505b6101688111610e5c575f60055f8773ffffffffffffffffffffffffffffffffffffffff1673ffffffffffffffffffffffffffffffffffffffff1681526020019081526020015f205f8381526020019081526020015f20805490501115610e485780838381518110610e2d57610e2c6115d2565b5b6020026020010181815250508180610e4490611e1f565b9250505b601e81610e5591906115ff565b9050610db9565b508082528192505050919050565b5f8054906101000a900473ffffffffffffffffffffffffffffffffffffffff1681565b5f80610e9884610ebc565b90506127108184610ea991906117ab565b610eb39190611819565b91505092915050565b5f80601e83610ecb9190611b83565b14610f0b576040517f08c379a0000000000000000000000000000000000000000000000000000000008152600401610f02906114c6565b60405180910390fd5b601e8203610f1d57610ea69050611022565b603c8203610f2f576115f99050611022565b605a8203610f4157611e369050611022565b60788203610f53576126b59050611022565b60968203610f6557612ee09050611022565b60b48203610f775761364a9050611022565b60d28203610f8957613cbb9050611022565b60f08203610f9b576142239050611022565b61010e8203610fae5761468d9050611022565b61012c8203610fc157614a159050611022565b61014a8203610fd457614cdd9050611022565b6101688203610fe757614f079050611022565b6040517f08c379a0000000000000000000000000000000000000000000000000000000008152600401611019906114c6565b60405180910390fd5b919050565b5f73ffffffffffffffffffffffffffffffffffffffff82169050919050565b5f61105082611027565b9050919050565b61106081611046565b82525050565b5f6020820190506110795f830184611057565b92915050565b5f819050919050565b6110918161107f565b82525050565b5f6020820190506110aa5f830184611088565b92915050565b5f604051905090565b5f80fd5b5f80fd5b6110ca8161107f565b81146110d4575f80fd5b50565b5f813590506110e5816110c1565b92915050565b5f60208284031215611100576110ff6110b9565b5b5f61110d848285016110d7565b91505092915050565b61111f81611046565b8114611129575f80fd5b50565b5f8135905061113a81611116565b92915050565b5f805f60608486031215611157576111566110b9565b5b5f6111648682870161112c565b9350506020611175868287016110d7565b9250506040611186868287016110d7565b9150509250925092565b5f6080820190506111a35f830187611088565b6111b06020830186611088565b6111bd6040830185611088565b6111ca6060830184611088565b95945050505050565b5f80604083850312156111e9576111e86110b9565b5b5f6111f68582860161112c565b9250506020611207858286016110d7565b9150509250929050565b5f81519050919050565b5f82825260208201905092915050565b5f819050602082019050919050565b6112438161107f565b82525050565b608082015f82015161125d5f85018261123a565b506020820151611270602085018261123a565b506040820151611283604085018261123a565b506060820151611296606085018261123a565b50505050565b5f6112a78383611249565b60808301905092915050565b5f602082019050919050565b5f6112c982611211565b6112d3818561121b565b93506112de8361122b565b805f5b8381101561130e5781516112f5888261129c565b9750611300836112b3565b9250506001810190506112e1565b5085935050505092915050565b5f6020820190508181035f83015261133381846112bf565b905092915050565b5f8060408385031215611351576113506110b9565b5b5f61135e858286016110d7565b925050602061136f858286016110d7565b9150509250929050565b5f6020828403121561138e5761138d6110b9565b5b5f61139b8482850161112c565b91505092915050565b5f81519050919050565b5f82825260208201905092915050565b5f819050602082019050919050565b5f6113d8838361123a565b60208301905092915050565b5f602082019050919050565b5f6113fa826113a4565b61140481856113ae565b935061140f836113be565b805f5b8381101561143f57815161142688826113cd565b9750611431836113e4565b925050600181019050611412565b5085935050505092915050565b5f6020820190508181035f83015261146481846113f0565b905092915050565b5f82825260208201905092915050565b7f496e76616c6964206475726174696f6e000000000000000000000000000000005f82015250565b5f6114b060108361146c565b91506114bb8261147c565b602082019050919050565b5f6020820190508181035f8301526114dd816114a4565b9050919050565b7f4e6f207374616b657320666f756e6420666f722074686520676976656e2064755f8201527f726174696f6e0000000000000000000000000000000000000000000000000000602082015250565b5f61153e60268361146c565b9150611549826114e4565b604082019050919050565b5f6020820190508181035f83015261156b81611532565b9050919050565b7f4e487b71000000000000000000000000000000000000000000000000000000005f52601160045260245ffd5b5f6115a98261107f565b91506115b48361107f565b92508282039050818111156115cc576115cb611572565b5b92915050565b7f4e487b71000000000000000000000000000000000000000000000000000000005f52603260045260245ffd5b5f6116098261107f565b91506116148361107f565b925082820190508082111561162c5761162b611572565b5b92915050565b5f8160011c9050919050565b5f808291508390505b60018511156116875780860481111561166357611662611572565b5b60018516156116725780820291505b808102905061168085611632565b9450611647565b94509492505050565b5f8261169f576001905061175a565b816116ac575f905061175a565b81600181146116c257600281146116cc576116fb565b600191505061175a565b60ff8411156116de576116dd611572565b5b8360020a9150848211156116f5576116f4611572565b5b5061175a565b5060208310610133831016604e8410600b84101617156117305782820a90508381111561172b5761172a611572565b5b61175a565b61173d848484600161163e565b9250905081840481111561175457611753611572565b5b81810290505b9392505050565b5f61176b8261107f565b91506117768361107f565b92506117a37fffffffffffffffffffffffffffffffffffffffffffffffffffffffffffffffff8484611690565b905092915050565b5f6117b58261107f565b91506117c08361107f565b92508282026117ce8161107f565b915082820484148315176117e5576117e4611572565b5b5092915050565b7f4e487b71000000000000000000000000000000000000000000000000000000005f52601260045260245ffd5b5f6118238261107f565b915061182e8361107f565b92508261183e5761183d6117ec565b5b828204905092915050565b7f4e487b71000000000000000000000000000000000000000000000000000000005f52604160045260245ffd5b5f819050919050565b5f819050919050565b5f6118a261189d61189884611876565b61187f565b61107f565b9050919050565b6118b281611888565b82525050565b5f81519050919050565b5f82825260208201905092915050565b5f819050602082019050919050565b6118ea81611046565b82525050565b5f6118fb83836118e1565b60208301905092915050565b5f602082019050919050565b5f61191d826118b8565b61192781856118c2565b9350611932836118d2565b805f5b8381101561196257815161194988826118f0565b975061195483611907565b925050600181019050611935565b5085935050505092915050565b5f6040820190506119825f8301856118a9565b81810360208301526119948184611913565b90509392505050565b5f80fd5b5f601f19601f8301169050919050565b6119ba826119a1565b810181811067ffffffffffffffff821117156119d9576119d8611849565b5b80604052505050565b5f6119eb6110b0565b90506119f782826119b1565b919050565b5f67ffffffffffffffff821115611a1657611a15611849565b5b602082029050602081019050919050565b5f80fd5b5f81519050611a39816110c1565b92915050565b5f611a51611a4c846119fc565b6119e2565b90508083825260208201905060208402830185811115611a7457611a73611a27565b5b835b81811015611a9d5780611a898882611a2b565b845260208401935050602081019050611a76565b5050509392505050565b5f82601f830112611abb57611aba61199d565b5b8151611acb848260208601611a3f565b91505092915050565b5f60208284031215611ae957611ae86110b9565b5b5f82015167ffffffffffffffff811115611b0657611b056110bd565b5b611b1284828501611aa7565b91505092915050565b7f496e76616c696420616d6f756e740000000000000000000000000000000000005f82015250565b5f611b4f600e8361146c565b9150611b5a82611b1b565b602082019050919050565b5f6020820190508181035f830152611b7c81611b43565b9050919050565b5f611b8d8261107f565b9150611b988361107f565b925082611ba857611ba76117ec565b5b828206905092915050565b5f606082019050611bc65f830186611057565b611bd36020830185611057565b611be06040830184611088565b949350505050565b5f8115159050919050565b611bfc81611be8565b8114611c06575f80fd5b50565b5f81519050611c1781611bf3565b92915050565b5f60208284031215611c3257611c316110b9565b5b5f611c3f84828501611c09565b91505092915050565b5f604082019050611c5b5f830185611057565b611c686020830184611088565b9392505050565b5f60c082019050611c825f830189611088565b611c8f6020830188611088565b611c9c6040830187611088565b611ca96060830186611088565b611cb66080830185611088565b611cc360a0830184611088565b979650505050505050565b5f69ffffffffffffffffffff82169050919050565b611cec81611cce565b8114611cf6575f80fd5b50565b5f81519050611d0781611ce3565b92915050565b5f819050919050565b611d1f81611d0d565b8114611d29575f80fd5b50565b5f81519050611d3a81611d16565b92915050565b5f805f805f60a08688031215611d5957611d586110b9565b5b5f611d6688828901611cf9565b9550506020611d7788828901611d2c565b9450506040611d8888828901611a2b565b9350506060611d9988828901611a2b565b9250506080611daa88828901611cf9565b9150509295509295909350565b7f496e76616c6964204554482f55534420707269636500000000000000000000005f82015250565b5f611deb60158361146c565b9150611df682611db7565b602082019050919050565b5f6020820190508181035f830152611e1881611ddf565b9050919050565b5f611e298261107f565b91507fffffffffffffffffffffffffffffffffffffffffffffffffffffffffffffffff8203611e5b57611e5a611572565b5b60018201905091905056fea26469706673582212203c5bea02beeb362468e8d2e02c6b15736d232564dfa9200e47062300dfe4945f64736f6c63430008180033",
					"opcodes": "PUSH1 0x80 PUSH1 0x40 MSTORE CALLVALUE DUP1 ISZERO PUSH3 0x10 JUMPI PUSH0 DUP1 REVERT JUMPDEST POP PUSH1 0x40 MLOAD PUSH3 0x20FD CODESIZE SUB DUP1 PUSH3 0x20FD DUP4 CODECOPY DUP2 DUP2 ADD PUSH1 0x40 MSTORE DUP2 ADD SWAP1 PUSH3 0x36 SWAP2 SWAP1 PUSH3 0x1E4 JUMP JUMPDEST CALLER PUSH0 DUP1 PUSH2 0x100 EXP DUP2 SLOAD DUP2 PUSH20 0xFFFFFFFFFFFFFFFFFFFFFFFFFFFFFFFFFFFFFFFF MUL NOT AND SWAP1 DUP4 PUSH20 0xFFFFFFFFFFFFFFFFFFFFFFFFFFFFFFFFFFFFFFFF AND MUL OR SWAP1 SSTORE POP DUP4 PUSH1 0x1 PUSH0 PUSH2 0x100 EXP DUP2 SLOAD DUP2 PUSH20 0xFFFFFFFFFFFFFFFFFFFFFFFFFFFFFFFFFFFFFFFF MUL NOT AND SWAP1 DUP4 PUSH20 0xFFFFFFFFFFFFFFFFFFFFFFFFFFFFFFFFFFFFFFFF AND MUL OR SWAP1 SSTORE POP DUP3 PUSH1 0x2 PUSH0 PUSH2 0x100 EXP DUP2 SLOAD DUP2 PUSH20 0xFFFFFFFFFFFFFFFFFFFFFFFFFFFFFFFFFFFFFFFF MUL NOT AND SWAP1 DUP4 PUSH20 0xFFFFFFFFFFFFFFFFFFFFFFFFFFFFFFFFFFFFFFFF AND MUL OR SWAP1 SSTORE POP DUP2 PUSH1 0x3 PUSH0 PUSH2 0x100 EXP DUP2 SLOAD DUP2 PUSH20 0xFFFFFFFFFFFFFFFFFFFFFFFFFFFFFFFFFFFFFFFF MUL NOT AND SWAP1 DUP4 PUSH20 0xFFFFFFFFFFFFFFFFFFFFFFFFFFFFFFFFFFFFFFFF AND MUL OR SWAP1 SSTORE POP DUP1 PUSH1 0x4 PUSH0 PUSH2 0x100 EXP DUP2 SLOAD DUP2 PUSH20 0xFFFFFFFFFFFFFFFFFFFFFFFFFFFFFFFFFFFFFFFF MUL NOT AND SWAP1 DUP4 PUSH20 0xFFFFFFFFFFFFFFFFFFFFFFFFFFFFFFFFFFFFFFFF AND MUL OR SWAP1 SSTORE POP POP POP POP POP PUSH3 0x253 JUMP JUMPDEST PUSH0 DUP1 REVERT JUMPDEST PUSH0 PUSH20 0xFFFFFFFFFFFFFFFFFFFFFFFFFFFFFFFFFFFFFFFF DUP3 AND SWAP1 POP SWAP2 SWAP1 POP JUMP JUMPDEST PUSH0 PUSH3 0x1AE DUP3 PUSH3 0x183 JUMP JUMPDEST SWAP1 POP SWAP2 SWAP1 POP JUMP JUMPDEST PUSH3 0x1C0 DUP2 PUSH3 0x1A2 JUMP JUMPDEST DUP2 EQ PUSH3 0x1CB JUMPI PUSH0 DUP1 REVERT JUMPDEST POP JUMP JUMPDEST PUSH0 DUP2 MLOAD SWAP1 POP PUSH3 0x1DE DUP2 PUSH3 0x1B5 JUMP JUMPDEST SWAP3 SWAP2 POP POP JUMP JUMPDEST PUSH0 DUP1 PUSH0 DUP1 PUSH1 0x80 DUP6 DUP8 SUB SLT ISZERO PUSH3 0x1FF JUMPI PUSH3 0x1FE PUSH3 0x17F JUMP JUMPDEST JUMPDEST PUSH0 PUSH3 0x20E DUP8 DUP3 DUP9 ADD PUSH3 0x1CE JUMP JUMPDEST SWAP5 POP POP PUSH1 0x20 PUSH3 0x221 DUP8 DUP3 DUP9 ADD PUSH3 0x1CE JUMP JUMPDEST SWAP4 POP POP PUSH1 0x40 PUSH3 0x234 DUP8 DUP3 DUP9 ADD PUSH3 0x1CE JUMP JUMPDEST SWAP3 POP POP PUSH1 0x60 PUSH3 0x247 DUP8 DUP3 DUP9 ADD PUSH3 0x1CE JUMP JUMPDEST SWAP2 POP POP SWAP3 SWAP6 SWAP2 SWAP5 POP SWAP3 POP JUMP JUMPDEST PUSH2 0x1E9C DUP1 PUSH3 0x261 PUSH0 CODECOPY PUSH0 RETURN INVALID PUSH1 0x80 PUSH1 0x40 MSTORE CALLVALUE DUP1 ISZERO PUSH2 0xF JUMPI PUSH0 DUP1 REVERT JUMPDEST POP PUSH1 0x4 CALLDATASIZE LT PUSH2 0xE7 JUMPI PUSH0 CALLDATALOAD PUSH1 0xE0 SHR DUP1 PUSH4 0x50F3845B GT PUSH2 0x8A JUMPI DUP1 PUSH4 0xB92D21C4 GT PUSH2 0x64 JUMPI DUP1 PUSH4 0xB92D21C4 EQ PUSH2 0x23A JUMPI DUP1 PUSH4 0xB9AA6EC4 EQ PUSH2 0x258 JUMPI DUP1 PUSH4 0xE60F5AE4 EQ PUSH2 0x276 JUMPI DUP1 PUSH4 0xF851A440 EQ PUSH2 0x2A6 JUMPI PUSH2 0xE7 JUMP JUMPDEST DUP1 PUSH4 0x50F3845B EQ PUSH2 0x1E2 JUMPI DUP1 PUSH4 0x7B0472F0 EQ PUSH2 0x200 JUMPI DUP1 PUSH4 0x851F7147 EQ PUSH2 0x21C JUMPI PUSH2 0xE7 JUMP JUMPDEST DUP1 PUSH4 0x2E17DE78 GT PUSH2 0xC6 JUMPI DUP1 PUSH4 0x2E17DE78 EQ PUSH2 0x145 JUMPI DUP1 PUSH4 0x34144B0F EQ PUSH2 0x161 JUMPI DUP1 PUSH4 0x419BC8AD EQ PUSH2 0x194 JUMPI DUP1 PUSH4 0x4F0E0EF3 EQ PUSH2 0x1C4 JUMPI PUSH2 0xE7 JUMP JUMPDEST DUP1 PUSH3 0xC3A272 EQ PUSH2 0xEB JUMPI DUP1 PUSH4 0x20CA3C7F EQ PUSH2 0x109 JUMPI DUP1 PUSH4 0x2E0F2625 EQ PUSH2 0x127 JUMPI JUMPDEST PUSH0 DUP1 REVERT JUMPDEST PUSH2 0xF3 PUSH2 0x2C4 JUMP JUMPDEST PUSH1 0x40 MLOAD PUSH2 0x100 SWAP2 SWAP1 PUSH2 0x1066 JUMP JUMPDEST PUSH1 0x40 MLOAD DUP1 SWAP2 SUB SWAP1 RETURN JUMPDEST PUSH2 0x111 PUSH2 0x2E9 JUMP JUMPDEST PUSH1 0x40 MLOAD PUSH2 0x11E SWAP2 SWAP1 PUSH2 0x1066 JUMP JUMPDEST PUSH1 0x40 MLOAD DUP1 SWAP2 SUB SWAP1 RETURN JUMPDEST PUSH2 0x12F PUSH2 0x30E JUMP JUMPDEST PUSH1 0x40 MLOAD PUSH2 0x13C SWAP2 SWAP1 PUSH2 0x1097 JUMP JUMPDEST PUSH1 0x40 MLOAD DUP1 SWAP2 SUB SWAP1 RETURN JUMPDEST PUSH2 0x15F PUSH1 0x4 DUP1 CALLDATASIZE SUB DUP2 ADD SWAP1 PUSH2 0x15A SWAP2 SWAP1 PUSH2 0x10EB JUMP JUMPDEST PUSH2 0x313 JUMP JUMPDEST STOP JUMPDEST PUSH2 0x17B PUSH1 0x4 DUP1 CALLDATASIZE SUB DUP2 ADD SWAP1 PUSH2 0x176 SWAP2 SWAP1 PUSH2 0x1140 JUMP JUMPDEST PUSH2 0x56B JUMP JUMPDEST PUSH1 0x40 MLOAD PUSH2 0x18B SWAP5 SWAP4 SWAP3 SWAP2 SWAP1 PUSH2 0x1190 JUMP JUMPDEST PUSH1 0x40 MLOAD DUP1 SWAP2 SUB SWAP1 RETURN JUMPDEST PUSH2 0x1AE PUSH1 0x4 DUP1 CALLDATASIZE SUB DUP2 ADD SWAP1 PUSH2 0x1A9 SWAP2 SWAP1 PUSH2 0x11D3 JUMP JUMPDEST PUSH2 0x5BC JUMP JUMPDEST PUSH1 0x40 MLOAD PUSH2 0x1BB SWAP2 SWAP1 PUSH2 0x131B JUMP JUMPDEST PUSH1 0x40 MLOAD DUP1 SWAP2 SUB SWAP1 RETURN JUMPDEST PUSH2 0x1CC PUSH2 0x68C JUMP JUMPDEST PUSH1 0x40 MLOAD PUSH2 0x1D9 SWAP2 SWAP1 PUSH2 0x1066 JUMP JUMPDEST PUSH1 0x40 MLOAD DUP1 SWAP2 SUB SWAP1 RETURN JUMPDEST PUSH2 0x1EA PUSH2 0x6B1 JUMP JUMPDEST PUSH1 0x40 MLOAD PUSH2 0x1F7 SWAP2 SWAP1 PUSH2 0x1097 JUMP JUMPDEST PUSH1 0x40 MLOAD DUP1 SWAP2 SUB SWAP1 RETURN JUMPDEST PUSH2 0x21A PUSH1 0x4 DUP1 CALLDATASIZE SUB DUP2 ADD SWAP1 PUSH2 0x215 SWAP2 SWAP1 PUSH2 0x133B JUMP JUMPDEST PUSH2 0x8AB JUMP JUMPDEST STOP JUMPDEST PUSH2 0x224 PUSH2 0xC18 JUMP JUMPDEST PUSH1 0x40 MLOAD PUSH2 0x231 SWAP2 SWAP1 PUSH2 0x1097 JUMP JUMPDEST PUSH1 0x40 MLOAD DUP1 SWAP2 SUB SWAP1 RETURN JUMPDEST PUSH2 0x242 PUSH2 0xCFC JUMP JUMPDEST PUSH1 0x40 MLOAD PUSH2 0x24F SWAP2 SWAP1 PUSH2 0x1097 JUMP JUMPDEST PUSH1 0x40 MLOAD DUP1 SWAP2 SUB SWAP1 RETURN JUMPDEST PUSH2 0x260 PUSH2 0xD3E JUMP JUMPDEST PUSH1 0x40 MLOAD PUSH2 0x26D SWAP2 SWAP1 PUSH2 0x1066 JUMP JUMPDEST PUSH1 0x40 MLOAD DUP1 SWAP2 SUB SWAP1 RETURN JUMPDEST PUSH2 0x290 PUSH1 0x4 DUP1 CALLDATASIZE SUB DUP2 ADD SWAP1 PUSH2 0x28B SWAP2 SWAP1 PUSH2 0x1379 JUMP JUMPDEST PUSH2 0xD63 JUMP JUMPDEST PUSH1 0x40 MLOAD PUSH2 0x29D SWAP2 SWAP1 PUSH2 0x144C JUMP JUMPDEST PUSH1 0x40 MLOAD DUP1 SWAP2 SUB SWAP1 RETURN JUMPDEST PUSH2 0x2AE PUSH2 0xE6A JUMP JUMPDEST PUSH1 0x40 MLOAD PUSH2 0x2BB SWAP2 SWAP1 PUSH2 0x1066 JUMP JUMPDEST PUSH1 0x40 MLOAD DUP1 SWAP2 SUB SWAP1 RETURN JUMPDEST PUSH1 0x4 PUSH0 SWAP1 SLOAD SWAP1 PUSH2 0x100 EXP SWAP1 DIV PUSH20 0xFFFFFFFFFFFFFFFFFFFFFFFFFFFFFFFFFFFFFFFF AND DUP2 JUMP JUMPDEST PUSH1 0x3 PUSH0 SWAP1 SLOAD SWAP1 PUSH2 0x100 EXP SWAP1 DIV PUSH20 0xFFFFFFFFFFFFFFFFFFFFFFFFFFFFFFFFFFFFFFFF AND DUP2 JUMP JUMPDEST PUSH1 0x12 DUP2 JUMP JUMPDEST PUSH0 DUP2 GT PUSH2 0x355 JUMPI PUSH1 0x40 MLOAD PUSH32 0x8C379A000000000000000000000000000000000000000000000000000000000 DUP2 MSTORE PUSH1 0x4 ADD PUSH2 0x34C SWAP1 PUSH2 0x14C6 JUMP JUMPDEST PUSH1 0x40 MLOAD DUP1 SWAP2 SUB SWAP1 REVERT JUMPDEST PUSH0 PUSH1 0x5 PUSH0 CALLER PUSH20 0xFFFFFFFFFFFFFFFFFFFFFFFFFFFFFFFFFFFFFFFF AND PUSH20 0xFFFFFFFFFFFFFFFFFFFFFFFFFFFFFFFFFFFFFFFF AND DUP2 MSTORE PUSH1 0x20 ADD SWAP1 DUP2 MSTORE PUSH1 0x20 ADD PUSH0 KECCAK256 PUSH0 DUP4 DUP2 MSTORE PUSH1 0x20 ADD SWAP1 DUP2 MSTORE PUSH1 0x20 ADD PUSH0 KECCAK256 SWAP1 POP PUSH0 DUP2 DUP1 SLOAD SWAP1 POP GT PUSH2 0x3EA JUMPI PUSH1 0x40 MLOAD PUSH32 0x8C379A000000000000000000000000000000000000000000000000000000000 DUP2 MSTORE PUSH1 0x4 ADD PUSH2 0x3E1 SWAP1 PUSH2 0x1554 JUMP JUMPDEST PUSH1 0x40 MLOAD DUP1 SWAP2 SUB SWAP1 REVERT JUMPDEST PUSH0 PUSH2 0x3F3 PUSH2 0xCFC JUMP JUMPDEST SWAP1 POP PUSH0 DUP3 PUSH1 0x1 DUP5 DUP1 SLOAD SWAP1 POP PUSH2 0x408 SWAP2 SWAP1 PUSH2 0x159F JUMP JUMPDEST DUP2 SLOAD DUP2 LT PUSH2 0x419 JUMPI PUSH2 0x418 PUSH2 0x15D2 JUMP JUMPDEST JUMPDEST SWAP1 PUSH0 MSTORE PUSH1 0x20 PUSH0 KECCAK256 SWAP1 PUSH1 0x4 MUL ADD PUSH1 0x2 ADD SLOAD SWAP1 POP PUSH0 DUP1 DUP4 DUP4 PUSH2 0x439 SWAP2 SWAP1 PUSH2 0x159F JUMP JUMPDEST SWAP1 POP PUSH0 JUMPDEST DUP6 DUP1 SLOAD SWAP1 POP DUP2 LT ISZERO PUSH2 0x4D5 JUMPI DUP6 DUP2 DUP2 SLOAD DUP2 LT PUSH2 0x45C JUMPI PUSH2 0x45B PUSH2 0x15D2 JUMP JUMPDEST JUMPDEST SWAP1 PUSH0 MSTORE PUSH1 0x20 PUSH0 KECCAK256 SWAP1 PUSH1 0x4 MUL ADD PUSH1 0x1 ADD SLOAD TIMESTAMP LT PUSH2 0x4C8 JUMPI DUP6 DUP2 DUP2 SLOAD DUP2 LT PUSH2 0x485 JUMPI PUSH2 0x484 PUSH2 0x15D2 JUMP JUMPDEST JUMPDEST SWAP1 PUSH0 MSTORE PUSH1 0x20 PUSH0 KECCAK256 SWAP1 PUSH1 0x4 MUL ADD PUSH0 ADD SLOAD DUP4 PUSH2 0x49F SWAP2 SWAP1 PUSH2 0x15FF JUMP JUMPDEST SWAP3 POP PUSH0 DUP7 DUP3 DUP2 SLOAD DUP2 LT PUSH2 0x4B5 JUMPI PUSH2 0x4B4 PUSH2 0x15D2 JUMP JUMPDEST JUMPDEST SWAP1 PUSH0 MSTORE PUSH1 0x20 PUSH0 KECCAK256 SWAP1 PUSH1 0x4 MUL ADD PUSH0 ADD DUP2 SWAP1 SSTORE POP JUMPDEST DUP1 DUP1 PUSH1 0x1 ADD SWAP2 POP POP PUSH2 0x43D JUMP JUMPDEST POP PUSH0 DUP2 GT ISZERO PUSH2 0x515 JUMPI PUSH0 DUP4 PUSH1 0x12 PUSH1 0xA PUSH2 0x4EE SWAP2 SWAP1 PUSH2 0x1761 JUMP JUMPDEST DUP4 PUSH2 0x4F9 SWAP2 SWAP1 PUSH2 0x17AB JUMP JUMPDEST PUSH2 0x503 SWAP2 SWAP1 PUSH2 0x1819 JUMP JUMPDEST SWAP1 POP DUP1 DUP4 PUSH2 0x511 SWAP2 SWAP1 PUSH2 0x15FF JUMP JUMPDEST SWAP3 POP POP JUMPDEST CALLER PUSH20 0xFFFFFFFFFFFFFFFFFFFFFFFFFFFFFFFFFFFFFFFF AND PUSH32 0xF5BB82176FEB1B5E747E28471AA92156A04D9F3AB9F45F28E2D704232B93F75 DUP4 PUSH1 0x40 MLOAD PUSH2 0x55B SWAP2 SWAP1 PUSH2 0x1097 JUMP JUMPDEST PUSH1 0x40 MLOAD DUP1 SWAP2 SUB SWAP1 LOG2 POP POP POP POP POP POP JUMP JUMPDEST PUSH1 0x5 PUSH1 0x20 MSTORE DUP3 PUSH0 MSTORE PUSH1 0x40 PUSH0 KECCAK256 PUSH1 0x20 MSTORE DUP2 PUSH0 MSTORE PUSH1 0x40 PUSH0 KECCAK256 DUP2 DUP2 SLOAD DUP2 LT PUSH2 0x58E JUMPI PUSH0 DUP1 REVERT JUMPDEST SWAP1 PUSH0 MSTORE PUSH1 0x20 PUSH0 KECCAK256 SWAP1 PUSH1 0x4 MUL ADD PUSH0 SWAP3 POP SWAP3 POP POP POP DUP1 PUSH0 ADD SLOAD SWAP1 DUP1 PUSH1 0x1 ADD SLOAD SWAP1 DUP1 PUSH1 0x2 ADD SLOAD SWAP1 DUP1 PUSH1 0x3 ADD SLOAD SWAP1 POP DUP5 JUMP JUMPDEST PUSH1 0x60 PUSH1 0x5 PUSH0 DUP5 PUSH20 0xFFFFFFFFFFFFFFFFFFFFFFFFFFFFFFFFFFFFFFFF AND PUSH20 0xFFFFFFFFFFFFFFFFFFFFFFFFFFFFFFFFFFFFFFFF AND DUP2 MSTORE PUSH1 0x20 ADD SWAP1 DUP2 MSTORE PUSH1 0x20 ADD PUSH0 KECCAK256 PUSH0 DUP4 DUP2 MSTORE PUSH1 0x20 ADD SWAP1 DUP2 MSTORE PUSH1 0x20 ADD PUSH0 KECCAK256 DUP1 SLOAD DUP1 PUSH1 0x20 MUL PUSH1 0x20 ADD PUSH1 0x40 MLOAD SWAP1 DUP2 ADD PUSH1 0x40 MSTORE DUP1 SWAP3 SWAP2 SWAP1 DUP2 DUP2 MSTORE PUSH1 0x20 ADD PUSH0 SWAP1 JUMPDEST DUP3 DUP3 LT ISZERO PUSH2 0x680 JUMPI DUP4 DUP3 SWAP1 PUSH0 MSTORE PUSH1 0x20 PUSH0 KECCAK256 SWAP1 PUSH1 0x4 MUL ADD PUSH1 0x40 MLOAD DUP1 PUSH1 0x80 ADD PUSH1 0x40 MSTORE SWAP1 DUP2 PUSH0 DUP3 ADD SLOAD DUP2 MSTORE PUSH1 0x20 ADD PUSH1 0x1 DUP3 ADD SLOAD DUP2 MSTORE PUSH1 0x20 ADD PUSH1 0x2 DUP3 ADD SLOAD DUP2 MSTORE PUSH1 0x20 ADD PUSH1 0x3 DUP3 ADD SLOAD DUP2 MSTORE POP POP DUP2 MSTORE PUSH1 0x20 ADD SWAP1 PUSH1 0x1 ADD SWAP1 PUSH2 0x629 JUMP JUMPDEST POP POP POP POP SWAP1 POP SWAP3 SWAP2 POP POP JUMP JUMPDEST PUSH1 0x2 PUSH0 SWAP1 SLOAD SWAP1 PUSH2 0x100 EXP SWAP1 DIV PUSH20 0xFFFFFFFFFFFFFFFFFFFFFFFFFFFFFFFFFFFFFFFF AND DUP2 JUMP JUMPDEST PUSH0 DUP1 PUSH1 0x2 PUSH8 0xFFFFFFFFFFFFFFFF DUP2 GT ISZERO PUSH2 0x6CE JUMPI PUSH2 0x6CD PUSH2 0x1849 JUMP JUMPDEST JUMPDEST PUSH1 0x40 MLOAD SWAP1 DUP1 DUP3 MSTORE DUP1 PUSH1 0x20 MUL PUSH1 0x20 ADD DUP3 ADD PUSH1 0x40 MSTORE DUP1 ISZERO PUSH2 0x6FC JUMPI DUP2 PUSH1 0x20 ADD PUSH1 0x20 DUP3 MUL DUP1 CALLDATASIZE DUP4 CALLDATACOPY DUP1 DUP3 ADD SWAP2 POP POP SWAP1 POP JUMPDEST POP SWAP1 POP PUSH1 0x1 PUSH0 SWAP1 SLOAD SWAP1 PUSH2 0x100 EXP SWAP1 DIV PUSH20 0xFFFFFFFFFFFFFFFFFFFFFFFFFFFFFFFFFFFFFFFF AND DUP2 PUSH0 DUP2 MLOAD DUP2 LT PUSH2 0x734 JUMPI PUSH2 0x733 PUSH2 0x15D2 JUMP JUMPDEST JUMPDEST PUSH1 0x20 MUL PUSH1 0x20 ADD ADD SWAP1 PUSH20 0xFFFFFFFFFFFFFFFFFFFFFFFFFFFFFFFFFFFFFFFF AND SWAP1 DUP2 PUSH20 0xFFFFFFFFFFFFFFFFFFFFFFFFFFFFFFFFFFFFFFFF AND DUP2 MSTORE POP POP PUSH1 0x2 PUSH0 SWAP1 SLOAD SWAP1 PUSH2 0x100 EXP SWAP1 DIV PUSH20 0xFFFFFFFFFFFFFFFFFFFFFFFFFFFFFFFFFFFFFFFF AND DUP2 PUSH1 0x1 DUP2 MLOAD DUP2 LT PUSH2 0x7A4 JUMPI PUSH2 0x7A3 PUSH2 0x15D2 JUMP JUMPDEST JUMPDEST PUSH1 0x20 MUL PUSH1 0x20 ADD ADD SWAP1 PUSH20 0xFFFFFFFFFFFFFFFFFFFFFFFFFFFFFFFFFFFFFFFF AND SWAP1 DUP2 PUSH20 0xFFFFFFFFFFFFFFFFFFFFFFFFFFFFFFFFFFFFFFFF AND DUP2 MSTORE POP POP PUSH0 PUSH1 0x3 PUSH0 SWAP1 SLOAD SWAP1 PUSH2 0x100 EXP SWAP1 DIV PUSH20 0xFFFFFFFFFFFFFFFFFFFFFFFFFFFFFFFFFFFFFFFF AND SWAP1 POP PUSH0 DUP2 PUSH20 0xFFFFFFFFFFFFFFFFFFFFFFFFFFFFFFFFFFFFFFFF AND PUSH4 0xD06CA61F PUSH4 0x3B9ACA00 DUP6 PUSH1 0x40 MLOAD DUP4 PUSH4 0xFFFFFFFF AND PUSH1 0xE0 SHL DUP2 MSTORE PUSH1 0x4 ADD PUSH2 0x843 SWAP3 SWAP2 SWAP1 PUSH2 0x196F JUMP JUMPDEST PUSH0 PUSH1 0x40 MLOAD DUP1 DUP4 SUB DUP2 DUP7 GAS STATICCALL ISZERO DUP1 ISZERO PUSH2 0x85D JUMPI RETURNDATASIZE PUSH0 DUP1 RETURNDATACOPY RETURNDATASIZE PUSH0 REVERT JUMPDEST POP POP POP POP PUSH1 0x40 MLOAD RETURNDATASIZE PUSH0 DUP3 RETURNDATACOPY RETURNDATASIZE PUSH1 0x1F NOT PUSH1 0x1F DUP3 ADD AND DUP3 ADD DUP1 PUSH1 0x40 MSTORE POP DUP2 ADD SWAP1 PUSH2 0x885 SWAP2 SWAP1 PUSH2 0x1AD4 JUMP JUMPDEST SWAP1 POP DUP1 PUSH1 0x1 DUP2 MLOAD DUP2 LT PUSH2 0x89B JUMPI PUSH2 0x89A PUSH2 0x15D2 JUMP JUMPDEST JUMPDEST PUSH1 0x20 MUL PUSH1 0x20 ADD ADD MLOAD SWAP4 POP POP POP POP SWAP1 JUMP JUMPDEST PUSH0 DUP3 GT PUSH2 0x8ED JUMPI PUSH1 0x40 MLOAD PUSH32 0x8C379A000000000000000000000000000000000000000000000000000000000 DUP2 MSTORE PUSH1 0x4 ADD PUSH2 0x8E4 SWAP1 PUSH2 0x1B65 JUMP JUMPDEST PUSH1 0x40 MLOAD DUP1 SWAP2 SUB SWAP1 REVERT JUMPDEST PUSH0 PUSH1 0x1E DUP3 PUSH2 0x8FB SWAP2 SWAP1 PUSH2 0x1B83 JUMP JUMPDEST EQ PUSH2 0x93B JUMPI PUSH1 0x40 MLOAD PUSH32 0x8C379A000000000000000000000000000000000000000000000000000000000 DUP2 MSTORE PUSH1 0x4 ADD PUSH2 0x932 SWAP1 PUSH2 0x14C6 JUMP JUMPDEST PUSH1 0x40 MLOAD DUP1 SWAP2 SUB SWAP1 REVERT JUMPDEST PUSH0 PUSH2 0x944 PUSH2 0xCFC JUMP JUMPDEST SWAP1 POP PUSH0 PUSH2 0x951 DUP4 DUP6 PUSH2 0xE8D JUMP JUMPDEST SWAP1 POP PUSH0 PUSH1 0x12 PUSH1 0xA PUSH2 0x962 SWAP2 SWAP1 PUSH2 0x1761 JUMP JUMPDEST DUP4 DUP4 DUP8 PUSH2 0x96F SWAP2 SWAP1 PUSH2 0x159F JUMP JUMPDEST PUSH2 0x979 SWAP2 SWAP1 PUSH2 0x17AB JUMP JUMPDEST PUSH2 0x983 SWAP2 SWAP1 PUSH2 0x1819 JUMP JUMPDEST SWAP1 POP PUSH1 0x1 PUSH0 SWAP1 SLOAD SWAP1 PUSH2 0x100 EXP SWAP1 DIV PUSH20 0xFFFFFFFFFFFFFFFFFFFFFFFFFFFFFFFFFFFFFFFF AND PUSH20 0xFFFFFFFFFFFFFFFFFFFFFFFFFFFFFFFFFFFFFFFF AND PUSH4 0x23B872DD CALLER ADDRESS DUP9 PUSH1 0x40 MLOAD DUP5 PUSH4 0xFFFFFFFF AND PUSH1 0xE0 SHL DUP2 MSTORE PUSH1 0x4 ADD PUSH2 0x9E3 SWAP4 SWAP3 SWAP2 SWAP1 PUSH2 0x1BB3 JUMP JUMPDEST PUSH1 0x20 PUSH1 0x40 MLOAD DUP1 DUP4 SUB DUP2 PUSH0 DUP8 GAS CALL ISZERO DUP1 ISZERO PUSH2 0x9FF JUMPI RETURNDATASIZE PUSH0 DUP1 RETURNDATACOPY RETURNDATASIZE PUSH0 REVERT JUMPDEST POP POP POP POP PUSH1 0x40 MLOAD RETURNDATASIZE PUSH1 0x1F NOT PUSH1 0x1F DUP3 ADD AND DUP3 ADD DUP1 PUSH1 0x40 MSTORE POP DUP2 ADD SWAP1 PUSH2 0xA23 SWAP2 SWAP1 PUSH2 0x1C1D JUMP JUMPDEST POP PUSH0 PUSH3 0x15180 DUP6 PUSH2 0xA34 SWAP2 SWAP1 PUSH2 0x17AB JUMP JUMPDEST TIMESTAMP PUSH2 0xA3F SWAP2 SWAP1 PUSH2 0x15FF JUMP JUMPDEST SWAP1 POP PUSH1 0x5 PUSH0 CALLER PUSH20 0xFFFFFFFFFFFFFFFFFFFFFFFFFFFFFFFFFFFFFFFF AND PUSH20 0xFFFFFFFFFFFFFFFFFFFFFFFFFFFFFFFFFFFFFFFF AND DUP2 MSTORE PUSH1 0x20 ADD SWAP1 DUP2 MSTORE PUSH1 0x20 ADD PUSH0 KECCAK256 PUSH0 DUP7 DUP2 MSTORE PUSH1 0x20 ADD SWAP1 DUP2 MSTORE PUSH1 0x20 ADD PUSH0 KECCAK256 PUSH1 0x40 MLOAD DUP1 PUSH1 0x80 ADD PUSH1 0x40 MSTORE DUP1 DUP9 DUP2 MSTORE PUSH1 0x20 ADD DUP4 DUP2 MSTORE PUSH1 0x20 ADD DUP7 DUP2 MSTORE PUSH1 0x20 ADD DUP5 DUP2 MSTORE POP SWAP1 DUP1 PUSH1 0x1 DUP2 SLOAD ADD DUP1 DUP3 SSTORE DUP1 SWAP2 POP POP PUSH1 0x1 SWAP1 SUB SWAP1 PUSH0 MSTORE PUSH1 0x20 PUSH0 KECCAK256 SWAP1 PUSH1 0x4 MUL ADD PUSH0 SWAP1 SWAP2 SWAP1 SWAP2 SWAP1 SWAP2 POP PUSH0 DUP3 ADD MLOAD DUP2 PUSH0 ADD SSTORE PUSH1 0x20 DUP3 ADD MLOAD DUP2 PUSH1 0x1 ADD SSTORE PUSH1 0x40 DUP3 ADD MLOAD DUP2 PUSH1 0x2 ADD SSTORE PUSH1 0x60 DUP3 ADD MLOAD DUP2 PUSH1 0x3 ADD SSTORE POP POP PUSH1 0x1 PUSH0 SWAP1 SLOAD SWAP1 PUSH2 0x100 EXP SWAP1 DIV PUSH20 0xFFFFFFFFFFFFFFFFFFFFFFFFFFFFFFFFFFFFFFFF AND PUSH20 0xFFFFFFFFFFFFFFFFFFFFFFFFFFFFFFFFFFFFFFFF AND PUSH4 0xA9059CBB PUSH0 DUP1 SLOAD SWAP1 PUSH2 0x100 EXP SWAP1 DIV PUSH20 0xFFFFFFFFFFFFFFFFFFFFFFFFFFFFFFFFFFFFFFFF AND DUP6 PUSH1 0x40 MLOAD DUP4 PUSH4 0xFFFFFFFF AND PUSH1 0xE0 SHL DUP2 MSTORE PUSH1 0x4 ADD PUSH2 0xB77 SWAP3 SWAP2 SWAP1 PUSH2 0x1C48 JUMP JUMPDEST PUSH1 0x20 PUSH1 0x40 MLOAD DUP1 DUP4 SUB DUP2 PUSH0 DUP8 GAS CALL ISZERO DUP1 ISZERO PUSH2 0xB93 JUMPI RETURNDATASIZE PUSH0 DUP1 RETURNDATACOPY RETURNDATASIZE PUSH0 REVERT JUMPDEST POP POP POP POP PUSH1 0x40 MLOAD RETURNDATASIZE PUSH1 0x1F NOT PUSH1 0x1F DUP3 ADD AND DUP3 ADD DUP1 PUSH1 0x40 MSTORE POP DUP2 ADD SWAP1 PUSH2 0xBB7 SWAP2 SWAP1 PUSH2 0x1C1D JUMP JUMPDEST POP CALLER PUSH20 0xFFFFFFFFFFFFFFFFFFFFFFFFFFFFFFFFFFFFFFFF AND PUSH32 0xC16BE9A586414A157DD46B4D023AA9997A025DD1CBBAA67AC0C1B8273A5EAF55 DUP8 DUP8 DUP5 DUP9 DUP9 DUP9 PUSH1 0x40 MLOAD PUSH2 0xC08 SWAP7 SWAP6 SWAP5 SWAP4 SWAP3 SWAP2 SWAP1 PUSH2 0x1C6F JUMP JUMPDEST PUSH1 0x40 MLOAD DUP1 SWAP2 SUB SWAP1 LOG2 POP POP POP POP POP POP JUMP JUMPDEST PUSH0 DUP1 PUSH1 0x4 PUSH0 SWAP1 SLOAD SWAP1 PUSH2 0x100 EXP SWAP1 DIV PUSH20 0xFFFFFFFFFFFFFFFFFFFFFFFFFFFFFFFFFFFFFFFF AND SWAP1 POP PUSH0 DUP2 PUSH20 0xFFFFFFFFFFFFFFFFFFFFFFFFFFFFFFFFFFFFFFFF AND PUSH4 0xFEAF968C PUSH1 0x40 MLOAD DUP2 PUSH4 0xFFFFFFFF AND PUSH1 0xE0 SHL DUP2 MSTORE PUSH1 0x4 ADD PUSH1 0xA0 PUSH1 0x40 MLOAD DUP1 DUP4 SUB DUP2 DUP7 GAS STATICCALL ISZERO DUP1 ISZERO PUSH2 0xC88 JUMPI RETURNDATASIZE PUSH0 DUP1 RETURNDATACOPY RETURNDATASIZE PUSH0 REVERT JUMPDEST POP POP POP POP PUSH1 0x40 MLOAD RETURNDATASIZE PUSH1 0x1F NOT PUSH1 0x1F DUP3 ADD AND DUP3 ADD DUP1 PUSH1 0x40 MSTORE POP DUP2 ADD SWAP1 PUSH2 0xCAC SWAP2 SWAP1 PUSH2 0x1D40 JUMP JUMPDEST POP POP POP SWAP2 POP POP PUSH0 DUP2 SGT PUSH2 0xCF4 JUMPI PUSH1 0x40 MLOAD PUSH32 0x8C379A000000000000000000000000000000000000000000000000000000000 DUP2 MSTORE PUSH1 0x4 ADD PUSH2 0xCEB SWAP1 PUSH2 0x1E01 JUMP JUMPDEST PUSH1 0x40 MLOAD DUP1 SWAP2 SUB SWAP1 REVERT JUMPDEST DUP1 SWAP3 POP POP POP SWAP1 JUMP JUMPDEST PUSH0 DUP1 PUSH2 0xD06 PUSH2 0xC18 JUMP JUMPDEST SWAP1 POP PUSH0 PUSH2 0xD11 PUSH2 0x6B1 JUMP JUMPDEST SWAP1 POP PUSH1 0x12 PUSH1 0xA PUSH2 0xD21 SWAP2 SWAP1 PUSH2 0x1761 JUMP JUMPDEST DUP3 DUP3 PUSH2 0xD2D SWAP2 SWAP1 PUSH2 0x17AB JUMP JUMPDEST PUSH2 0xD37 SWAP2 SWAP1 PUSH2 0x1819 JUMP JUMPDEST SWAP3 POP POP POP SWAP1 JUMP JUMPDEST PUSH1 0x1 PUSH0 SWAP1 SLOAD SWAP1 PUSH2 0x100 EXP SWAP1 DIV PUSH20 0xFFFFFFFFFFFFFFFFFFFFFFFFFFFFFFFFFFFFFFFF AND DUP2 JUMP JUMPDEST PUSH1 0x60 PUSH0 PUSH1 0xC PUSH8 0xFFFFFFFFFFFFFFFF DUP2 GT ISZERO PUSH2 0xD81 JUMPI PUSH2 0xD80 PUSH2 0x1849 JUMP JUMPDEST JUMPDEST PUSH1 0x40 MLOAD SWAP1 DUP1 DUP3 MSTORE DUP1 PUSH1 0x20 MUL PUSH1 0x20 ADD DUP3 ADD PUSH1 0x40 MSTORE DUP1 ISZERO PUSH2 0xDAF JUMPI DUP2 PUSH1 0x20 ADD PUSH1 0x20 DUP3 MUL DUP1 CALLDATASIZE DUP4 CALLDATACOPY DUP1 DUP3 ADD SWAP2 POP POP SWAP1 POP JUMPDEST POP SWAP1 POP PUSH0 DUP1 PUSH1 0x1E SWAP1 POP JUMPDEST PUSH2 0x168 DUP2 GT PUSH2 0xE5C JUMPI PUSH0 PUSH1 0x5 PUSH0 DUP8 PUSH20 0xFFFFFFFFFFFFFFFFFFFFFFFFFFFFFFFFFFFFFFFF AND PUSH20 0xFFFFFFFFFFFFFFFFFFFFFFFFFFFFFFFFFFFFFFFF AND DUP2 MSTORE PUSH1 0x20 ADD SWAP1 DUP2 MSTORE PUSH1 0x20 ADD PUSH0 KECCAK256 PUSH0 DUP4 DUP2 MSTORE PUSH1 0x20 ADD SWAP1 DUP2 MSTORE PUSH1 0x20 ADD PUSH0 KECCAK256 DUP1 SLOAD SWAP1 POP GT ISZERO PUSH2 0xE48 JUMPI DUP1 DUP4 DUP4 DUP2 MLOAD DUP2 LT PUSH2 0xE2D JUMPI PUSH2 0xE2C PUSH2 0x15D2 JUMP JUMPDEST JUMPDEST PUSH1 0x20 MUL PUSH1 0x20 ADD ADD DUP2 DUP2 MSTORE POP POP DUP2 DUP1 PUSH2 0xE44 SWAP1 PUSH2 0x1E1F JUMP JUMPDEST SWAP3 POP POP JUMPDEST PUSH1 0x1E DUP2 PUSH2 0xE55 SWAP2 SWAP1 PUSH2 0x15FF JUMP JUMPDEST SWAP1 POP PUSH2 0xDB9 JUMP JUMPDEST POP DUP1 DUP3 MSTORE DUP2 SWAP3 POP POP POP SWAP2 SWAP1 POP JUMP JUMPDEST PUSH0 DUP1 SLOAD SWAP1 PUSH2 0x100 EXP SWAP1 DIV PUSH20 0xFFFFFFFFFFFFFFFFFFFFFFFFFFFFFFFFFFFFFFFF AND DUP2 JUMP JUMPDEST PUSH0 DUP1 PUSH2 0xE98 DUP5 PUSH2 0xEBC JUMP JUMPDEST SWAP1 POP PUSH2 0x2710 DUP2 DUP5 PUSH2 0xEA9 SWAP2 SWAP1 PUSH2 0x17AB JUMP JUMPDEST PUSH2 0xEB3 SWAP2 SWAP1 PUSH2 0x1819 JUMP JUMPDEST SWAP2 POP POP SWAP3 SWAP2 POP POP JUMP JUMPDEST PUSH0 DUP1 PUSH1 0x1E DUP4 PUSH2 0xECB SWAP2 SWAP1 PUSH2 0x1B83 JUMP JUMPDEST EQ PUSH2 0xF0B JUMPI PUSH1 0x40 MLOAD PUSH32 0x8C379A000000000000000000000000000000000000000000000000000000000 DUP2 MSTORE PUSH1 0x4 ADD PUSH2 0xF02 SWAP1 PUSH2 0x14C6 JUMP JUMPDEST PUSH1 0x40 MLOAD DUP1 SWAP2 SUB SWAP1 REVERT JUMPDEST PUSH1 0x1E DUP3 SUB PUSH2 0xF1D JUMPI PUSH2 0xEA6 SWAP1 POP PUSH2 0x1022 JUMP JUMPDEST PUSH1 0x3C DUP3 SUB PUSH2 0xF2F JUMPI PUSH2 0x15F9 SWAP1 POP PUSH2 0x1022 JUMP JUMPDEST PUSH1 0x5A DUP3 SUB PUSH2 0xF41 JUMPI PUSH2 0x1E36 SWAP1 POP PUSH2 0x1022 JUMP JUMPDEST PUSH1 0x78 DUP3 SUB PUSH2 0xF53 JUMPI PUSH2 0x26B5 SWAP1 POP PUSH2 0x1022 JUMP JUMPDEST PUSH1 0x96 DUP3 SUB PUSH2 0xF65 JUMPI PUSH2 0x2EE0 SWAP1 POP PUSH2 0x1022 JUMP JUMPDEST PUSH1 0xB4 DUP3 SUB PUSH2 0xF77 JUMPI PUSH2 0x364A SWAP1 POP PUSH2 0x1022 JUMP JUMPDEST PUSH1 0xD2 DUP3 SUB PUSH2 0xF89 JUMPI PUSH2 0x3CBB SWAP1 POP PUSH2 0x1022 JUMP JUMPDEST PUSH1 0xF0 DUP3 SUB PUSH2 0xF9B JUMPI PUSH2 0x4223 SWAP1 POP PUSH2 0x1022 JUMP JUMPDEST PUSH2 0x10E DUP3 SUB PUSH2 0xFAE JUMPI PUSH2 0x468D SWAP1 POP PUSH2 0x1022 JUMP JUMPDEST PUSH2 0x12C DUP3 SUB PUSH2 0xFC1 JUMPI PUSH2 0x4A15 SWAP1 POP PUSH2 0x1022 JUMP JUMPDEST PUSH2 0x14A DUP3 SUB PUSH2 0xFD4 JUMPI PUSH2 0x4CDD SWAP1 POP PUSH2 0x1022 JUMP JUMPDEST PUSH2 0x168 DUP3 SUB PUSH2 0xFE7 JUMPI PUSH2 0x4F07 SWAP1 POP PUSH2 0x1022 JUMP JUMPDEST PUSH1 0x40 MLOAD PUSH32 0x8C379A000000000000000000000000000000000000000000000000000000000 DUP2 MSTORE PUSH1 0x4 ADD PUSH2 0x1019 SWAP1 PUSH2 0x14C6 JUMP JUMPDEST PUSH1 0x40 MLOAD DUP1 SWAP2 SUB SWAP1 REVERT JUMPDEST SWAP2 SWAP1 POP JUMP JUMPDEST PUSH0 PUSH20 0xFFFFFFFFFFFFFFFFFFFFFFFFFFFFFFFFFFFFFFFF DUP3 AND SWAP1 POP SWAP2 SWAP1 POP JUMP JUMPDEST PUSH0 PUSH2 0x1050 DUP3 PUSH2 0x1027 JUMP JUMPDEST SWAP1 POP SWAP2 SWAP1 POP JUMP JUMPDEST PUSH2 0x1060 DUP2 PUSH2 0x1046 JUMP JUMPDEST DUP3 MSTORE POP POP JUMP JUMPDEST PUSH0 PUSH1 0x20 DUP3 ADD SWAP1 POP PUSH2 0x1079 PUSH0 DUP4 ADD DUP5 PUSH2 0x1057 JUMP JUMPDEST SWAP3 SWAP2 POP POP JUMP JUMPDEST PUSH0 DUP2 SWAP1 POP SWAP2 SWAP1 POP JUMP JUMPDEST PUSH2 0x1091 DUP2 PUSH2 0x107F JUMP JUMPDEST DUP3 MSTORE POP POP JUMP JUMPDEST PUSH0 PUSH1 0x20 DUP3 ADD SWAP1 POP PUSH2 0x10AA PUSH0 DUP4 ADD DUP5 PUSH2 0x1088 JUMP JUMPDEST SWAP3 SWAP2 POP POP JUMP JUMPDEST PUSH0 PUSH1 0x40 MLOAD SWAP1 POP SWAP1 JUMP JUMPDEST PUSH0 DUP1 REVERT JUMPDEST PUSH0 DUP1 REVERT JUMPDEST PUSH2 0x10CA DUP2 PUSH2 0x107F JUMP JUMPDEST DUP2 EQ PUSH2 0x10D4 JUMPI PUSH0 DUP1 REVERT JUMPDEST POP JUMP JUMPDEST PUSH0 DUP2 CALLDATALOAD SWAP1 POP PUSH2 0x10E5 DUP2 PUSH2 0x10C1 JUMP JUMPDEST SWAP3 SWAP2 POP POP JUMP JUMPDEST PUSH0 PUSH1 0x20 DUP3 DUP5 SUB SLT ISZERO PUSH2 0x1100 JUMPI PUSH2 0x10FF PUSH2 0x10B9 JUMP JUMPDEST JUMPDEST PUSH0 PUSH2 0x110D DUP5 DUP3 DUP6 ADD PUSH2 0x10D7 JUMP JUMPDEST SWAP2 POP POP SWAP3 SWAP2 POP POP JUMP JUMPDEST PUSH2 0x111F DUP2 PUSH2 0x1046 JUMP JUMPDEST DUP2 EQ PUSH2 0x1129 JUMPI PUSH0 DUP1 REVERT JUMPDEST POP JUMP JUMPDEST PUSH0 DUP2 CALLDATALOAD SWAP1 POP PUSH2 0x113A DUP2 PUSH2 0x1116 JUMP JUMPDEST SWAP3 SWAP2 POP POP JUMP JUMPDEST PUSH0 DUP1 PUSH0 PUSH1 0x60 DUP5 DUP7 SUB SLT ISZERO PUSH2 0x1157 JUMPI PUSH2 0x1156 PUSH2 0x10B9 JUMP JUMPDEST JUMPDEST PUSH0 PUSH2 0x1164 DUP7 DUP3 DUP8 ADD PUSH2 0x112C JUMP JUMPDEST SWAP4 POP POP PUSH1 0x20 PUSH2 0x1175 DUP7 DUP3 DUP8 ADD PUSH2 0x10D7 JUMP JUMPDEST SWAP3 POP POP PUSH1 0x40 PUSH2 0x1186 DUP7 DUP3 DUP8 ADD PUSH2 0x10D7 JUMP JUMPDEST SWAP2 POP POP SWAP3 POP SWAP3 POP SWAP3 JUMP JUMPDEST PUSH0 PUSH1 0x80 DUP3 ADD SWAP1 POP PUSH2 0x11A3 PUSH0 DUP4 ADD DUP8 PUSH2 0x1088 JUMP JUMPDEST PUSH2 0x11B0 PUSH1 0x20 DUP4 ADD DUP7 PUSH2 0x1088 JUMP JUMPDEST PUSH2 0x11BD PUSH1 0x40 DUP4 ADD DUP6 PUSH2 0x1088 JUMP JUMPDEST PUSH2 0x11CA PUSH1 0x60 DUP4 ADD DUP5 PUSH2 0x1088 JUMP JUMPDEST SWAP6 SWAP5 POP POP POP POP POP JUMP JUMPDEST PUSH0 DUP1 PUSH1 0x40 DUP4 DUP6 SUB SLT ISZERO PUSH2 0x11E9 JUMPI PUSH2 0x11E8 PUSH2 0x10B9 JUMP JUMPDEST JUMPDEST PUSH0 PUSH2 0x11F6 DUP6 DUP3 DUP7 ADD PUSH2 0x112C JUMP JUMPDEST SWAP3 POP POP PUSH1 0x20 PUSH2 0x1207 DUP6 DUP3 DUP7 ADD PUSH2 0x10D7 JUMP JUMPDEST SWAP2 POP POP SWAP3 POP SWAP3 SWAP1 POP JUMP JUMPDEST PUSH0 DUP2 MLOAD SWAP1 POP SWAP2 SWAP1 POP JUMP JUMPDEST PUSH0 DUP3 DUP3 MSTORE PUSH1 0x20 DUP3 ADD SWAP1 POP SWAP3 SWAP2 POP POP JUMP JUMPDEST PUSH0 DUP2 SWAP1 POP PUSH1 0x20 DUP3 ADD SWAP1 POP SWAP2 SWAP1 POP JUMP JUMPDEST PUSH2 0x1243 DUP2 PUSH2 0x107F JUMP JUMPDEST DUP3 MSTORE POP POP JUMP JUMPDEST PUSH1 0x80 DUP3 ADD PUSH0 DUP3 ADD MLOAD PUSH2 0x125D PUSH0 DUP6 ADD DUP3 PUSH2 0x123A JUMP JUMPDEST POP PUSH1 0x20 DUP3 ADD MLOAD PUSH2 0x1270 PUSH1 0x20 DUP6 ADD DUP3 PUSH2 0x123A JUMP JUMPDEST POP PUSH1 0x40 DUP3 ADD MLOAD PUSH2 0x1283 PUSH1 0x40 DUP6 ADD DUP3 PUSH2 0x123A JUMP JUMPDEST POP PUSH1 0x60 DUP3 ADD MLOAD PUSH2 0x1296 PUSH1 0x60 DUP6 ADD DUP3 PUSH2 0x123A JUMP JUMPDEST POP POP POP POP JUMP JUMPDEST PUSH0 PUSH2 0x12A7 DUP4 DUP4 PUSH2 0x1249 JUMP JUMPDEST PUSH1 0x80 DUP4 ADD SWAP1 POP SWAP3 SWAP2 POP POP JUMP JUMPDEST PUSH0 PUSH1 0x20 DUP3 ADD SWAP1 POP SWAP2 SWAP1 POP JUMP JUMPDEST PUSH0 PUSH2 0x12C9 DUP3 PUSH2 0x1211 JUMP JUMPDEST PUSH2 0x12D3 DUP2 DUP6 PUSH2 0x121B JUMP JUMPDEST SWAP4 POP PUSH2 0x12DE DUP4 PUSH2 0x122B JUMP JUMPDEST DUP1 PUSH0 JUMPDEST DUP4 DUP2 LT ISZERO PUSH2 0x130E JUMPI DUP2 MLOAD PUSH2 0x12F5 DUP9 DUP3 PUSH2 0x129C JUMP JUMPDEST SWAP8 POP PUSH2 0x1300 DUP4 PUSH2 0x12B3 JUMP JUMPDEST SWAP3 POP POP PUSH1 0x1 DUP2 ADD SWAP1 POP PUSH2 0x12E1 JUMP JUMPDEST POP DUP6 SWAP4 POP POP POP POP SWAP3 SWAP2 POP POP JUMP JUMPDEST PUSH0 PUSH1 0x20 DUP3 ADD SWAP1 POP DUP2 DUP2 SUB PUSH0 DUP4 ADD MSTORE PUSH2 0x1333 DUP2 DUP5 PUSH2 0x12BF JUMP JUMPDEST SWAP1 POP SWAP3 SWAP2 POP POP JUMP JUMPDEST PUSH0 DUP1 PUSH1 0x40 DUP4 DUP6 SUB SLT ISZERO PUSH2 0x1351 JUMPI PUSH2 0x1350 PUSH2 0x10B9 JUMP JUMPDEST JUMPDEST PUSH0 PUSH2 0x135E DUP6 DUP3 DUP7 ADD PUSH2 0x10D7 JUMP JUMPDEST SWAP3 POP POP PUSH1 0x20 PUSH2 0x136F DUP6 DUP3 DUP7 ADD PUSH2 0x10D7 JUMP JUMPDEST SWAP2 POP POP SWAP3 POP SWAP3 SWAP1 POP JUMP JUMPDEST PUSH0 PUSH1 0x20 DUP3 DUP5 SUB SLT ISZERO PUSH2 0x138E JUMPI PUSH2 0x138D PUSH2 0x10B9 JUMP JUMPDEST JUMPDEST PUSH0 PUSH2 0x139B DUP5 DUP3 DUP6 ADD PUSH2 0x112C JUMP JUMPDEST SWAP2 POP POP SWAP3 SWAP2 POP POP JUMP JUMPDEST PUSH0 DUP2 MLOAD SWAP1 POP SWAP2 SWAP1 POP JUMP JUMPDEST PUSH0 DUP3 DUP3 MSTORE PUSH1 0x20 DUP3 ADD SWAP1 POP SWAP3 SWAP2 POP POP JUMP JUMPDEST PUSH0 DUP2 SWAP1 POP PUSH1 0x20 DUP3 ADD SWAP1 POP SWAP2 SWAP1 POP JUMP JUMPDEST PUSH0 PUSH2 0x13D8 DUP4 DUP4 PUSH2 0x123A JUMP JUMPDEST PUSH1 0x20 DUP4 ADD SWAP1 POP SWAP3 SWAP2 POP POP JUMP JUMPDEST PUSH0 PUSH1 0x20 DUP3 ADD SWAP1 POP SWAP2 SWAP1 POP JUMP JUMPDEST PUSH0 PUSH2 0x13FA DUP3 PUSH2 0x13A4 JUMP JUMPDEST PUSH2 0x1404 DUP2 DUP6 PUSH2 0x13AE JUMP JUMPDEST SWAP4 POP PUSH2 0x140F DUP4 PUSH2 0x13BE JUMP JUMPDEST DUP1 PUSH0 JUMPDEST DUP4 DUP2 LT ISZERO PUSH2 0x143F JUMPI DUP2 MLOAD PUSH2 0x1426 DUP9 DUP3 PUSH2 0x13CD JUMP JUMPDEST SWAP8 POP PUSH2 0x1431 DUP4 PUSH2 0x13E4 JUMP JUMPDEST SWAP3 POP POP PUSH1 0x1 DUP2 ADD SWAP1 POP PUSH2 0x1412 JUMP JUMPDEST POP DUP6 SWAP4 POP POP POP POP SWAP3 SWAP2 POP POP JUMP JUMPDEST PUSH0 PUSH1 0x20 DUP3 ADD SWAP1 POP DUP2 DUP2 SUB PUSH0 DUP4 ADD MSTORE PUSH2 0x1464 DUP2 DUP5 PUSH2 0x13F0 JUMP JUMPDEST SWAP1 POP SWAP3 SWAP2 POP POP JUMP JUMPDEST PUSH0 DUP3 DUP3 MSTORE PUSH1 0x20 DUP3 ADD SWAP1 POP SWAP3 SWAP2 POP POP JUMP JUMPDEST PUSH32 0x496E76616C6964206475726174696F6E00000000000000000000000000000000 PUSH0 DUP3 ADD MSTORE POP JUMP JUMPDEST PUSH0 PUSH2 0x14B0 PUSH1 0x10 DUP4 PUSH2 0x146C JUMP JUMPDEST SWAP2 POP PUSH2 0x14BB DUP3 PUSH2 0x147C JUMP JUMPDEST PUSH1 0x20 DUP3 ADD SWAP1 POP SWAP2 SWAP1 POP JUMP JUMPDEST PUSH0 PUSH1 0x20 DUP3 ADD SWAP1 POP DUP2 DUP2 SUB PUSH0 DUP4 ADD MSTORE PUSH2 0x14DD DUP2 PUSH2 0x14A4 JUMP JUMPDEST SWAP1 POP SWAP2 SWAP1 POP JUMP JUMPDEST PUSH32 0x4E6F207374616B657320666F756E6420666F722074686520676976656E206475 PUSH0 DUP3 ADD MSTORE PUSH32 0x726174696F6E0000000000000000000000000000000000000000000000000000 PUSH1 0x20 DUP3 ADD MSTORE POP JUMP JUMPDEST PUSH0 PUSH2 0x153E PUSH1 0x26 DUP4 PUSH2 0x146C JUMP JUMPDEST SWAP2 POP PUSH2 0x1549 DUP3 PUSH2 0x14E4 JUMP JUMPDEST PUSH1 0x40 DUP3 ADD SWAP1 POP SWAP2 SWAP1 POP JUMP JUMPDEST PUSH0 PUSH1 0x20 DUP3 ADD SWAP1 POP DUP2 DUP2 SUB PUSH0 DUP4 ADD MSTORE PUSH2 0x156B DUP2 PUSH2 0x1532 JUMP JUMPDEST SWAP1 POP SWAP2 SWAP1 POP JUMP JUMPDEST PUSH32 0x4E487B7100000000000000000000000000000000000000000000000000000000 PUSH0 MSTORE PUSH1 0x11 PUSH1 0x4 MSTORE PUSH1 0x24 PUSH0 REVERT JUMPDEST PUSH0 PUSH2 0x15A9 DUP3 PUSH2 0x107F JUMP JUMPDEST SWAP2 POP PUSH2 0x15B4 DUP4 PUSH2 0x107F JUMP JUMPDEST SWAP3 POP DUP3 DUP3 SUB SWAP1 POP DUP2 DUP2 GT ISZERO PUSH2 0x15CC JUMPI PUSH2 0x15CB PUSH2 0x1572 JUMP JUMPDEST JUMPDEST SWAP3 SWAP2 POP POP JUMP JUMPDEST PUSH32 0x4E487B7100000000000000000000000000000000000000000000000000000000 PUSH0 MSTORE PUSH1 0x32 PUSH1 0x4 MSTORE PUSH1 0x24 PUSH0 REVERT JUMPDEST PUSH0 PUSH2 0x1609 DUP3 PUSH2 0x107F JUMP JUMPDEST SWAP2 POP PUSH2 0x1614 DUP4 PUSH2 0x107F JUMP JUMPDEST SWAP3 POP DUP3 DUP3 ADD SWAP1 POP DUP1 DUP3 GT ISZERO PUSH2 0x162C JUMPI PUSH2 0x162B PUSH2 0x1572 JUMP JUMPDEST JUMPDEST SWAP3 SWAP2 POP POP JUMP JUMPDEST PUSH0 DUP2 PUSH1 0x1 SHR SWAP1 POP SWAP2 SWAP1 POP JUMP JUMPDEST PUSH0 DUP1 DUP3 SWAP2 POP DUP4 SWAP1 POP JUMPDEST PUSH1 0x1 DUP6 GT ISZERO PUSH2 0x1687 JUMPI DUP1 DUP7 DIV DUP2 GT ISZERO PUSH2 0x1663 JUMPI PUSH2 0x1662 PUSH2 0x1572 JUMP JUMPDEST JUMPDEST PUSH1 0x1 DUP6 AND ISZERO PUSH2 0x1672 JUMPI DUP1 DUP3 MUL SWAP2 POP JUMPDEST DUP1 DUP2 MUL SWAP1 POP PUSH2 0x1680 DUP6 PUSH2 0x1632 JUMP JUMPDEST SWAP5 POP PUSH2 0x1647 JUMP JUMPDEST SWAP5 POP SWAP5 SWAP3 POP POP POP JUMP JUMPDEST PUSH0 DUP3 PUSH2 0x169F JUMPI PUSH1 0x1 SWAP1 POP PUSH2 0x175A JUMP JUMPDEST DUP2 PUSH2 0x16AC JUMPI PUSH0 SWAP1 POP PUSH2 0x175A JUMP JUMPDEST DUP2 PUSH1 0x1 DUP2 EQ PUSH2 0x16C2 JUMPI PUSH1 0x2 DUP2 EQ PUSH2 0x16CC JUMPI PUSH2 0x16FB JUMP JUMPDEST PUSH1 0x1 SWAP2 POP POP PUSH2 0x175A JUMP JUMPDEST PUSH1 0xFF DUP5 GT ISZERO PUSH2 0x16DE JUMPI PUSH2 0x16DD PUSH2 0x1572 JUMP JUMPDEST JUMPDEST DUP4 PUSH1 0x2 EXP SWAP2 POP DUP5 DUP3 GT ISZERO PUSH2 0x16F5 JUMPI PUSH2 0x16F4 PUSH2 0x1572 JUMP JUMPDEST JUMPDEST POP PUSH2 0x175A JUMP JUMPDEST POP PUSH1 0x20 DUP4 LT PUSH2 0x133 DUP4 LT AND PUSH1 0x4E DUP5 LT PUSH1 0xB DUP5 LT AND OR ISZERO PUSH2 0x1730 JUMPI DUP3 DUP3 EXP SWAP1 POP DUP4 DUP2 GT ISZERO PUSH2 0x172B JUMPI PUSH2 0x172A PUSH2 0x1572 JUMP JUMPDEST JUMPDEST PUSH2 0x175A JUMP JUMPDEST PUSH2 0x173D DUP5 DUP5 DUP5 PUSH1 0x1 PUSH2 0x163E JUMP JUMPDEST SWAP3 POP SWAP1 POP DUP2 DUP5 DIV DUP2 GT ISZERO PUSH2 0x1754 JUMPI PUSH2 0x1753 PUSH2 0x1572 JUMP JUMPDEST JUMPDEST DUP2 DUP2 MUL SWAP1 POP JUMPDEST SWAP4 SWAP3 POP POP POP JUMP JUMPDEST PUSH0 PUSH2 0x176B DUP3 PUSH2 0x107F JUMP JUMPDEST SWAP2 POP PUSH2 0x1776 DUP4 PUSH2 0x107F JUMP JUMPDEST SWAP3 POP PUSH2 0x17A3 PUSH32 0xFFFFFFFFFFFFFFFFFFFFFFFFFFFFFFFFFFFFFFFFFFFFFFFFFFFFFFFFFFFFFFFF DUP5 DUP5 PUSH2 0x1690 JUMP JUMPDEST SWAP1 POP SWAP3 SWAP2 POP POP JUMP JUMPDEST PUSH0 PUSH2 0x17B5 DUP3 PUSH2 0x107F JUMP JUMPDEST SWAP2 POP PUSH2 0x17C0 DUP4 PUSH2 0x107F JUMP JUMPDEST SWAP3 POP DUP3 DUP3 MUL PUSH2 0x17CE DUP2 PUSH2 0x107F JUMP JUMPDEST SWAP2 POP DUP3 DUP3 DIV DUP5 EQ DUP4 ISZERO OR PUSH2 0x17E5 JUMPI PUSH2 0x17E4 PUSH2 0x1572 JUMP JUMPDEST JUMPDEST POP SWAP3 SWAP2 POP POP JUMP JUMPDEST PUSH32 0x4E487B7100000000000000000000000000000000000000000000000000000000 PUSH0 MSTORE PUSH1 0x12 PUSH1 0x4 MSTORE PUSH1 0x24 PUSH0 REVERT JUMPDEST PUSH0 PUSH2 0x1823 DUP3 PUSH2 0x107F JUMP JUMPDEST SWAP2 POP PUSH2 0x182E DUP4 PUSH2 0x107F JUMP JUMPDEST SWAP3 POP DUP3 PUSH2 0x183E JUMPI PUSH2 0x183D PUSH2 0x17EC JUMP JUMPDEST JUMPDEST DUP3 DUP3 DIV SWAP1 POP SWAP3 SWAP2 POP POP JUMP JUMPDEST PUSH32 0x4E487B7100000000000000000000000000000000000000000000000000000000 PUSH0 MSTORE PUSH1 0x41 PUSH1 0x4 MSTORE PUSH1 0x24 PUSH0 REVERT JUMPDEST PUSH0 DUP2 SWAP1 POP SWAP2 SWAP1 POP JUMP JUMPDEST PUSH0 DUP2 SWAP1 POP SWAP2 SWAP1 POP JUMP JUMPDEST PUSH0 PUSH2 0x18A2 PUSH2 0x189D PUSH2 0x1898 DUP5 PUSH2 0x1876 JUMP JUMPDEST PUSH2 0x187F JUMP JUMPDEST PUSH2 0x107F JUMP JUMPDEST SWAP1 POP SWAP2 SWAP1 POP JUMP JUMPDEST PUSH2 0x18B2 DUP2 PUSH2 0x1888 JUMP JUMPDEST DUP3 MSTORE POP POP JUMP JUMPDEST PUSH0 DUP2 MLOAD SWAP1 POP SWAP2 SWAP1 POP JUMP JUMPDEST PUSH0 DUP3 DUP3 MSTORE PUSH1 0x20 DUP3 ADD SWAP1 POP SWAP3 SWAP2 POP POP JUMP JUMPDEST PUSH0 DUP2 SWAP1 POP PUSH1 0x20 DUP3 ADD SWAP1 POP SWAP2 SWAP1 POP JUMP JUMPDEST PUSH2 0x18EA DUP2 PUSH2 0x1046 JUMP JUMPDEST DUP3 MSTORE POP POP JUMP JUMPDEST PUSH0 PUSH2 0x18FB DUP4 DUP4 PUSH2 0x18E1 JUMP JUMPDEST PUSH1 0x20 DUP4 ADD SWAP1 POP SWAP3 SWAP2 POP POP JUMP JUMPDEST PUSH0 PUSH1 0x20 DUP3 ADD SWAP1 POP SWAP2 SWAP1 POP JUMP JUMPDEST PUSH0 PUSH2 0x191D DUP3 PUSH2 0x18B8 JUMP JUMPDEST PUSH2 0x1927 DUP2 DUP6 PUSH2 0x18C2 JUMP JUMPDEST SWAP4 POP PUSH2 0x1932 DUP4 PUSH2 0x18D2 JUMP JUMPDEST DUP1 PUSH0 JUMPDEST DUP4 DUP2 LT ISZERO PUSH2 0x1962 JUMPI DUP2 MLOAD PUSH2 0x1949 DUP9 DUP3 PUSH2 0x18F0 JUMP JUMPDEST SWAP8 POP PUSH2 0x1954 DUP4 PUSH2 0x1907 JUMP JUMPDEST SWAP3 POP POP PUSH1 0x1 DUP2 ADD SWAP1 POP PUSH2 0x1935 JUMP JUMPDEST POP DUP6 SWAP4 POP POP POP POP SWAP3 SWAP2 POP POP JUMP JUMPDEST PUSH0 PUSH1 0x40 DUP3 ADD SWAP1 POP PUSH2 0x1982 PUSH0 DUP4 ADD DUP6 PUSH2 0x18A9 JUMP JUMPDEST DUP2 DUP2 SUB PUSH1 0x20 DUP4 ADD MSTORE PUSH2 0x1994 DUP2 DUP5 PUSH2 0x1913 JUMP JUMPDEST SWAP1 POP SWAP4 SWAP3 POP POP POP JUMP JUMPDEST PUSH0 DUP1 REVERT JUMPDEST PUSH0 PUSH1 0x1F NOT PUSH1 0x1F DUP4 ADD AND SWAP1 POP SWAP2 SWAP1 POP JUMP JUMPDEST PUSH2 0x19BA DUP3 PUSH2 0x19A1 JUMP JUMPDEST DUP2 ADD DUP2 DUP2 LT PUSH8 0xFFFFFFFFFFFFFFFF DUP3 GT OR ISZERO PUSH2 0x19D9 JUMPI PUSH2 0x19D8 PUSH2 0x1849 JUMP JUMPDEST JUMPDEST DUP1 PUSH1 0x40 MSTORE POP POP POP JUMP JUMPDEST PUSH0 PUSH2 0x19EB PUSH2 0x10B0 JUMP JUMPDEST SWAP1 POP PUSH2 0x19F7 DUP3 DUP3 PUSH2 0x19B1 JUMP JUMPDEST SWAP2 SWAP1 POP JUMP JUMPDEST PUSH0 PUSH8 0xFFFFFFFFFFFFFFFF DUP3 GT ISZERO PUSH2 0x1A16 JUMPI PUSH2 0x1A15 PUSH2 0x1849 JUMP JUMPDEST JUMPDEST PUSH1 0x20 DUP3 MUL SWAP1 POP PUSH1 0x20 DUP2 ADD SWAP1 POP SWAP2 SWAP1 POP JUMP JUMPDEST PUSH0 DUP1 REVERT JUMPDEST PUSH0 DUP2 MLOAD SWAP1 POP PUSH2 0x1A39 DUP2 PUSH2 0x10C1 JUMP JUMPDEST SWAP3 SWAP2 POP POP JUMP JUMPDEST PUSH0 PUSH2 0x1A51 PUSH2 0x1A4C DUP5 PUSH2 0x19FC JUMP JUMPDEST PUSH2 0x19E2 JUMP JUMPDEST SWAP1 POP DUP1 DUP4 DUP3 MSTORE PUSH1 0x20 DUP3 ADD SWAP1 POP PUSH1 0x20 DUP5 MUL DUP4 ADD DUP6 DUP2 GT ISZERO PUSH2 0x1A74 JUMPI PUSH2 0x1A73 PUSH2 0x1A27 JUMP JUMPDEST JUMPDEST DUP4 JUMPDEST DUP2 DUP2 LT ISZERO PUSH2 0x1A9D JUMPI DUP1 PUSH2 0x1A89 DUP9 DUP3 PUSH2 0x1A2B JUMP JUMPDEST DUP5 MSTORE PUSH1 0x20 DUP5 ADD SWAP4 POP POP PUSH1 0x20 DUP2 ADD SWAP1 POP PUSH2 0x1A76 JUMP JUMPDEST POP POP POP SWAP4 SWAP3 POP POP POP JUMP JUMPDEST PUSH0 DUP3 PUSH1 0x1F DUP4 ADD SLT PUSH2 0x1ABB JUMPI PUSH2 0x1ABA PUSH2 0x199D JUMP JUMPDEST JUMPDEST DUP2 MLOAD PUSH2 0x1ACB DUP5 DUP3 PUSH1 0x20 DUP7 ADD PUSH2 0x1A3F JUMP JUMPDEST SWAP2 POP POP SWAP3 SWAP2 POP POP JUMP JUMPDEST PUSH0 PUSH1 0x20 DUP3 DUP5 SUB SLT ISZERO PUSH2 0x1AE9 JUMPI PUSH2 0x1AE8 PUSH2 0x10B9 JUMP JUMPDEST JUMPDEST PUSH0 DUP3 ADD MLOAD PUSH8 0xFFFFFFFFFFFFFFFF DUP2 GT ISZERO PUSH2 0x1B06 JUMPI PUSH2 0x1B05 PUSH2 0x10BD JUMP JUMPDEST JUMPDEST PUSH2 0x1B12 DUP5 DUP3 DUP6 ADD PUSH2 0x1AA7 JUMP JUMPDEST SWAP2 POP POP SWAP3 SWAP2 POP POP JUMP JUMPDEST PUSH32 0x496E76616C696420616D6F756E74000000000000000000000000000000000000 PUSH0 DUP3 ADD MSTORE POP JUMP JUMPDEST PUSH0 PUSH2 0x1B4F PUSH1 0xE DUP4 PUSH2 0x146C JUMP JUMPDEST SWAP2 POP PUSH2 0x1B5A DUP3 PUSH2 0x1B1B JUMP JUMPDEST PUSH1 0x20 DUP3 ADD SWAP1 POP SWAP2 SWAP1 POP JUMP JUMPDEST PUSH0 PUSH1 0x20 DUP3 ADD SWAP1 POP DUP2 DUP2 SUB PUSH0 DUP4 ADD MSTORE PUSH2 0x1B7C DUP2 PUSH2 0x1B43 JUMP JUMPDEST SWAP1 POP SWAP2 SWAP1 POP JUMP JUMPDEST PUSH0 PUSH2 0x1B8D DUP3 PUSH2 0x107F JUMP JUMPDEST SWAP2 POP PUSH2 0x1B98 DUP4 PUSH2 0x107F JUMP JUMPDEST SWAP3 POP DUP3 PUSH2 0x1BA8 JUMPI PUSH2 0x1BA7 PUSH2 0x17EC JUMP JUMPDEST JUMPDEST DUP3 DUP3 MOD SWAP1 POP SWAP3 SWAP2 POP POP JUMP JUMPDEST PUSH0 PUSH1 0x60 DUP3 ADD SWAP1 POP PUSH2 0x1BC6 PUSH0 DUP4 ADD DUP7 PUSH2 0x1057 JUMP JUMPDEST PUSH2 0x1BD3 PUSH1 0x20 DUP4 ADD DUP6 PUSH2 0x1057 JUMP JUMPDEST PUSH2 0x1BE0 PUSH1 0x40 DUP4 ADD DUP5 PUSH2 0x1088 JUMP JUMPDEST SWAP5 SWAP4 POP POP POP POP JUMP JUMPDEST PUSH0 DUP2 ISZERO ISZERO SWAP1 POP SWAP2 SWAP1 POP JUMP JUMPDEST PUSH2 0x1BFC DUP2 PUSH2 0x1BE8 JUMP JUMPDEST DUP2 EQ PUSH2 0x1C06 JUMPI PUSH0 DUP1 REVERT JUMPDEST POP JUMP JUMPDEST PUSH0 DUP2 MLOAD SWAP1 POP PUSH2 0x1C17 DUP2 PUSH2 0x1BF3 JUMP JUMPDEST SWAP3 SWAP2 POP POP JUMP JUMPDEST PUSH0 PUSH1 0x20 DUP3 DUP5 SUB SLT ISZERO PUSH2 0x1C32 JUMPI PUSH2 0x1C31 PUSH2 0x10B9 JUMP JUMPDEST JUMPDEST PUSH0 PUSH2 0x1C3F DUP5 DUP3 DUP6 ADD PUSH2 0x1C09 JUMP JUMPDEST SWAP2 POP POP SWAP3 SWAP2 POP POP JUMP JUMPDEST PUSH0 PUSH1 0x40 DUP3 ADD SWAP1 POP PUSH2 0x1C5B PUSH0 DUP4 ADD DUP6 PUSH2 0x1057 JUMP JUMPDEST PUSH2 0x1C68 PUSH1 0x20 DUP4 ADD DUP5 PUSH2 0x1088 JUMP JUMPDEST SWAP4 SWAP3 POP POP POP JUMP JUMPDEST PUSH0 PUSH1 0xC0 DUP3 ADD SWAP1 POP PUSH2 0x1C82 PUSH0 DUP4 ADD DUP10 PUSH2 0x1088 JUMP JUMPDEST PUSH2 0x1C8F PUSH1 0x20 DUP4 ADD DUP9 PUSH2 0x1088 JUMP JUMPDEST PUSH2 0x1C9C PUSH1 0x40 DUP4 ADD DUP8 PUSH2 0x1088 JUMP JUMPDEST PUSH2 0x1CA9 PUSH1 0x60 DUP4 ADD DUP7 PUSH2 0x1088 JUMP JUMPDEST PUSH2 0x1CB6 PUSH1 0x80 DUP4 ADD DUP6 PUSH2 0x1088 JUMP JUMPDEST PUSH2 0x1CC3 PUSH1 0xA0 DUP4 ADD DUP5 PUSH2 0x1088 JUMP JUMPDEST SWAP8 SWAP7 POP POP POP POP POP POP POP JUMP JUMPDEST PUSH0 PUSH10 0xFFFFFFFFFFFFFFFFFFFF DUP3 AND SWAP1 POP SWAP2 SWAP1 POP JUMP JUMPDEST PUSH2 0x1CEC DUP2 PUSH2 0x1CCE JUMP JUMPDEST DUP2 EQ PUSH2 0x1CF6 JUMPI PUSH0 DUP1 REVERT JUMPDEST POP JUMP JUMPDEST PUSH0 DUP2 MLOAD SWAP1 POP PUSH2 0x1D07 DUP2 PUSH2 0x1CE3 JUMP JUMPDEST SWAP3 SWAP2 POP POP JUMP JUMPDEST PUSH0 DUP2 SWAP1 POP SWAP2 SWAP1 POP JUMP JUMPDEST PUSH2 0x1D1F DUP2 PUSH2 0x1D0D JUMP JUMPDEST DUP2 EQ PUSH2 0x1D29 JUMPI PUSH0 DUP1 REVERT JUMPDEST POP JUMP JUMPDEST PUSH0 DUP2 MLOAD SWAP1 POP PUSH2 0x1D3A DUP2 PUSH2 0x1D16 JUMP JUMPDEST SWAP3 SWAP2 POP POP JUMP JUMPDEST PUSH0 DUP1 PUSH0 DUP1 PUSH0 PUSH1 0xA0 DUP7 DUP9 SUB SLT ISZERO PUSH2 0x1D59 JUMPI PUSH2 0x1D58 PUSH2 0x10B9 JUMP JUMPDEST JUMPDEST PUSH0 PUSH2 0x1D66 DUP9 DUP3 DUP10 ADD PUSH2 0x1CF9 JUMP JUMPDEST SWAP6 POP POP PUSH1 0x20 PUSH2 0x1D77 DUP9 DUP3 DUP10 ADD PUSH2 0x1D2C JUMP JUMPDEST SWAP5 POP POP PUSH1 0x40 PUSH2 0x1D88 DUP9 DUP3 DUP10 ADD PUSH2 0x1A2B JUMP JUMPDEST SWAP4 POP POP PUSH1 0x60 PUSH2 0x1D99 DUP9 DUP3 DUP10 ADD PUSH2 0x1A2B JUMP JUMPDEST SWAP3 POP POP PUSH1 0x80 PUSH2 0x1DAA DUP9 DUP3 DUP10 ADD PUSH2 0x1CF9 JUMP JUMPDEST SWAP2 POP POP SWAP3 SWAP6 POP SWAP3 SWAP6 SWAP1 SWAP4 POP JUMP JUMPDEST PUSH32 0x496E76616C6964204554482F5553442070726963650000000000000000000000 PUSH0 DUP3 ADD MSTORE POP JUMP JUMPDEST PUSH0 PUSH2 0x1DEB PUSH1 0x15 DUP4 PUSH2 0x146C JUMP JUMPDEST SWAP2 POP PUSH2 0x1DF6 DUP3 PUSH2 0x1DB7 JUMP JUMPDEST PUSH1 0x20 DUP3 ADD SWAP1 POP SWAP2 SWAP1 POP JUMP JUMPDEST PUSH0 PUSH1 0x20 DUP3 ADD SWAP1 POP DUP2 DUP2 SUB PUSH0 DUP4 ADD MSTORE PUSH2 0x1E18 DUP2 PUSH2 0x1DDF JUMP JUMPDEST SWAP1 POP SWAP2 SWAP1 POP JUMP JUMPDEST PUSH0 PUSH2 0x1E29 DUP3 PUSH2 0x107F JUMP JUMPDEST SWAP2 POP PUSH32 0xFFFFFFFFFFFFFFFFFFFFFFFFFFFFFFFFFFFFFFFFFFFFFFFFFFFFFFFFFFFFFFFF DUP3 SUB PUSH2 0x1E5B JUMPI PUSH2 0x1E5A PUSH2 0x1572 JUMP JUMPDEST JUMPDEST PUSH1 0x1 DUP3 ADD SWAP1 POP SWAP2 SWAP1 POP JUMP INVALID LOG2 PUSH5 0x6970667358 0x22 SLT KECCAK256 EXTCODECOPY JUMPDEST 0xEA MUL 0xBE 0xEB CALLDATASIZE 0x24 PUSH9 0xE8D2E02C6B15736D23 0x25 PUSH5 0xDFA9200E47 MOD 0x23 STOP 0xDF 0xE4 SWAP5 PUSH0 PUSH5 0x736F6C6343 STOP ADDMOD XOR STOP CALLER "
				},
				"gasEstimates": {
					"creation": {
						"codeDepositCost": "1567200",
						"executionCost": "infinite",
						"totalCost": "infinite"
					},
					"external": {
						"DECIMALS()": "393",
						"admin()": "2593",
						"calculatePriceOfGrlInUsd()": "infinite",
						"ethUsdAggregatorAddress()": "2532",
						"getEthToUsdValue()": "infinite",
						"getPriceOfGrlInEth()": "infinite",
						"getUserStakes(address,uint256)": "infinite",
						"getUserStakingDurations(address)": "infinite",
						"grlTokenAddress()": "2552",
						"stake(uint256,uint256)": "infinite",
						"uniswapRouterAddress()": "2554",
						"unstake(uint256)": "infinite",
						"userStakes(address,uint256,uint256)": "infinite",
						"wethAddress()": "2597"
					},
					"internal": {
						"calculateStakingFee(uint256,uint256)": "infinite",
						"getStakingFeePercentage(uint256)": "infinite"
					}
				},
				"methodIdentifiers": {
					"DECIMALS()": "2e0f2625",
					"admin()": "f851a440",
					"calculatePriceOfGrlInUsd()": "b92d21c4",
					"ethUsdAggregatorAddress()": "00c3a272",
					"getEthToUsdValue()": "851f7147",
					"getPriceOfGrlInEth()": "50f3845b",
					"getUserStakes(address,uint256)": "419bc8ad",
					"getUserStakingDurations(address)": "e60f5ae4",
					"grlTokenAddress()": "b9aa6ec4",
					"stake(uint256,uint256)": "7b0472f0",
					"uniswapRouterAddress()": "20ca3c7f",
					"unstake(uint256)": "2e17de78",
					"userStakes(address,uint256,uint256)": "34144b0f",
					"wethAddress()": "4f0e0ef3"
				}
			},
			"storageLayout": {
				"storage": [
					{
						"astId": 66,
						"contract": "contracts\\PriceGuranteeStaking.sol:StakingContract",
						"label": "admin",
						"offset": 0,
						"slot": "0",
						"type": "t_address"
					},
					{
						"astId": 68,
						"contract": "contracts\\PriceGuranteeStaking.sol:StakingContract",
						"label": "grlTokenAddress",
						"offset": 0,
						"slot": "1",
						"type": "t_address"
					},
					{
						"astId": 70,
						"contract": "contracts\\PriceGuranteeStaking.sol:StakingContract",
						"label": "wethAddress",
						"offset": 0,
						"slot": "2",
						"type": "t_address"
					},
					{
						"astId": 72,
						"contract": "contracts\\PriceGuranteeStaking.sol:StakingContract",
						"label": "uniswapRouterAddress",
						"offset": 0,
						"slot": "3",
						"type": "t_address"
					},
					{
						"astId": 74,
						"contract": "contracts\\PriceGuranteeStaking.sol:StakingContract",
						"label": "ethUsdAggregatorAddress",
						"offset": 0,
						"slot": "4",
						"type": "t_address"
					},
					{
						"astId": 94,
						"contract": "contracts\\PriceGuranteeStaking.sol:StakingContract",
						"label": "userStakes",
						"offset": 0,
						"slot": "5",
						"type": "t_mapping(t_address,t_mapping(t_uint256,t_array(t_struct(Stake)86_storage)dyn_storage))"
					}
				],
				"types": {
					"t_address": {
						"encoding": "inplace",
						"label": "address",
						"numberOfBytes": "20"
					},
					"t_array(t_struct(Stake)86_storage)dyn_storage": {
						"base": "t_struct(Stake)86_storage",
						"encoding": "dynamic_array",
						"label": "struct StakingContract.Stake[]",
						"numberOfBytes": "32"
					},
					"t_mapping(t_address,t_mapping(t_uint256,t_array(t_struct(Stake)86_storage)dyn_storage))": {
						"encoding": "mapping",
						"key": "t_address",
						"label": "mapping(address => mapping(uint256 => struct StakingContract.Stake[]))",
						"numberOfBytes": "32",
						"value": "t_mapping(t_uint256,t_array(t_struct(Stake)86_storage)dyn_storage)"
					},
					"t_mapping(t_uint256,t_array(t_struct(Stake)86_storage)dyn_storage)": {
						"encoding": "mapping",
						"key": "t_uint256",
						"label": "mapping(uint256 => struct StakingContract.Stake[])",
						"numberOfBytes": "32",
						"value": "t_array(t_struct(Stake)86_storage)dyn_storage"
					},
					"t_struct(Stake)86_storage": {
						"encoding": "inplace",
						"label": "struct StakingContract.Stake",
						"members": [
							{
								"astId": 79,
								"contract": "contracts\\PriceGuranteeStaking.sol:StakingContract",
								"label": "amount",
								"offset": 0,
								"slot": "0",
								"type": "t_uint256"
							},
							{
								"astId": 81,
								"contract": "contracts\\PriceGuranteeStaking.sol:StakingContract",
								"label": "duration",
								"offset": 0,
								"slot": "1",
								"type": "t_uint256"
							},
							{
								"astId": 83,
								"contract": "contracts\\PriceGuranteeStaking.sol:StakingContract",
								"label": "priceInUsd",
								"offset": 0,
								"slot": "2",
								"type": "t_uint256"
							},
							{
								"astId": 85,
								"contract": "contracts\\PriceGuranteeStaking.sol:StakingContract",
								"label": "amountInUsd",
								"offset": 0,
								"slot": "3",
								"type": "t_uint256"
							}
						],
						"numberOfBytes": "128"
					},
					"t_uint256": {
						"encoding": "inplace",
						"label": "uint256",
						"numberOfBytes": "32"
					}
				}
			},
			"userdoc": {
				"kind": "user",
				"methods": {},
				"version": 1
			}
		}
	}
}