{
	"contracts\\PriceGuranteeStaking.sol": {
		"StakingContract": {
			"abi": [
				{
					"inputs": [
						{
							"internalType": "address",
							"name": "_grlTokenAddress",
							"type": "address"
						},
						{
							"internalType": "address",
							"name": "_wethAddress",
							"type": "address"
						},
						{
							"internalType": "address",
							"name": "_uniswapRouterAddress",
							"type": "address"
						},
						{
							"internalType": "address",
							"name": "_ethUsdAggregatorAddress",
							"type": "address"
						}
					],
					"stateMutability": "nonpayable",
					"type": "constructor"
				},
				{
					"anonymous": false,
					"inputs": [
						{
							"indexed": true,
							"internalType": "address",
							"name": "user",
							"type": "address"
						},
						{
							"indexed": false,
							"internalType": "uint256",
							"name": "amount",
							"type": "uint256"
						},
						{
							"indexed": false,
							"internalType": "uint256",
							"name": "duration",
							"type": "uint256"
						},
						{
							"indexed": false,
							"internalType": "uint256",
							"name": "endTime",
							"type": "uint256"
						},
						{
							"indexed": false,
							"internalType": "uint256",
							"name": "priceInUsd",
							"type": "uint256"
						},
						{
							"indexed": false,
							"internalType": "uint256",
							"name": "fee",
							"type": "uint256"
						},
						{
							"indexed": false,
							"internalType": "uint256",
							"name": "amountInUsd",
							"type": "uint256"
						}
					],
					"name": "Staked",
					"type": "event"
				},
				{
					"anonymous": false,
					"inputs": [
						{
							"indexed": true,
							"internalType": "address",
							"name": "user",
							"type": "address"
						},
						{
							"indexed": false,
							"internalType": "uint256",
							"name": "amount",
							"type": "uint256"
						}
					],
					"name": "Unstaked",
					"type": "event"
				},
				{
					"inputs": [],
					"name": "DECIMALS",
					"outputs": [
						{
							"internalType": "uint256",
							"name": "",
							"type": "uint256"
						}
					],
					"stateMutability": "view",
					"type": "function"
				},
				{
					"inputs": [],
					"name": "admin",
					"outputs": [
						{
							"internalType": "address",
							"name": "",
							"type": "address"
						}
					],
					"stateMutability": "view",
					"type": "function"
				},
				{
					"inputs": [],
					"name": "calculatePriceOfGrlInUsd",
					"outputs": [
						{
							"internalType": "uint256",
							"name": "",
							"type": "uint256"
						}
					],
					"stateMutability": "view",
					"type": "function"
				},
				{
					"inputs": [],
					"name": "ethUsdAggregatorAddress",
					"outputs": [
						{
							"internalType": "address",
							"name": "",
							"type": "address"
						}
					],
					"stateMutability": "view",
					"type": "function"
				},
				{
					"inputs": [],
					"name": "getEthToUsdValue",
					"outputs": [
						{
							"internalType": "uint256",
							"name": "",
							"type": "uint256"
						}
					],
					"stateMutability": "view",
					"type": "function"
				},
				{
					"inputs": [],
					"name": "getPriceOfGrlInEth",
					"outputs": [
						{
							"internalType": "uint256",
							"name": "",
							"type": "uint256"
						}
					],
					"stateMutability": "view",
					"type": "function"
				},
				{
					"inputs": [
						{
							"internalType": "address",
							"name": "user",
							"type": "address"
						}
					],
					"name": "getUserStakeCount",
					"outputs": [
						{
							"internalType": "uint256",
							"name": "",
							"type": "uint256"
						}
					],
					"stateMutability": "view",
					"type": "function"
				},
				{
					"inputs": [
						{
							"internalType": "address",
							"name": "user",
							"type": "address"
						},
						{
							"internalType": "uint256",
							"name": "index",
							"type": "uint256"
						}
					],
					"name": "getUserStakeDetails",
					"outputs": [
						{
							"internalType": "uint256",
							"name": "durationInDays",
							"type": "uint256"
						},
						{
							"internalType": "uint256",
							"name": "amount",
							"type": "uint256"
						},
						{
							"internalType": "uint256",
							"name": "timestamp",
							"type": "uint256"
						},
						{
							"internalType": "uint256",
							"name": "priceInUsd",
							"type": "uint256"
						},
						{
							"internalType": "uint256",
							"name": "amountInUsd",
							"type": "uint256"
						}
					],
					"stateMutability": "view",
					"type": "function"
				},
				{
					"inputs": [],
					"name": "grlTokenAddress",
					"outputs": [
						{
							"internalType": "address",
							"name": "",
							"type": "address"
						}
					],
					"stateMutability": "view",
					"type": "function"
				},
				{
					"inputs": [
						{
							"internalType": "uint256",
							"name": "durationInDays",
							"type": "uint256"
						},
						{
							"internalType": "uint256",
							"name": "feePercentage",
							"type": "uint256"
						}
					],
					"name": "setStakingFeePercentage",
					"outputs": [],
					"stateMutability": "nonpayable",
					"type": "function"
				},
				{
					"inputs": [
						{
							"internalType": "uint256",
							"name": "amount",
							"type": "uint256"
						},
						{
							"internalType": "uint256",
							"name": "durationInDays",
							"type": "uint256"
						}
					],
					"name": "stakeGrl",
					"outputs": [],
					"stateMutability": "nonpayable",
					"type": "function"
				},
				{
					"inputs": [
						{
							"internalType": "uint256",
							"name": "",
							"type": "uint256"
						}
					],
					"name": "stakingFeePercentage",
					"outputs": [
						{
							"internalType": "uint256",
							"name": "",
							"type": "uint256"
						}
					],
					"stateMutability": "view",
					"type": "function"
				},
				{
					"inputs": [],
					"name": "uniswapRouterAddress",
					"outputs": [
						{
							"internalType": "address",
							"name": "",
							"type": "address"
						}
					],
					"stateMutability": "view",
					"type": "function"
				},
				{
					"inputs": [
						{
							"internalType": "uint256",
							"name": "index",
							"type": "uint256"
						}
					],
					"name": "unstake",
					"outputs": [],
					"stateMutability": "nonpayable",
					"type": "function"
				},
				{
					"inputs": [
						{
							"internalType": "address",
							"name": "",
							"type": "address"
						},
						{
							"internalType": "uint256",
							"name": "",
							"type": "uint256"
						}
					],
					"name": "userStakes",
					"outputs": [
						{
							"internalType": "uint256",
							"name": "durationInDays",
							"type": "uint256"
						},
						{
							"internalType": "uint256",
							"name": "amount",
							"type": "uint256"
						},
						{
							"internalType": "uint256",
							"name": "timestamp",
							"type": "uint256"
						},
						{
							"internalType": "uint256",
							"name": "priceInUsd",
							"type": "uint256"
						},
						{
							"internalType": "uint256",
							"name": "amountInUsd",
							"type": "uint256"
						}
					],
					"stateMutability": "view",
					"type": "function"
				},
				{
					"inputs": [],
					"name": "wethAddress",
					"outputs": [
						{
							"internalType": "address",
							"name": "",
							"type": "address"
						}
					],
					"stateMutability": "view",
					"type": "function"
				}
			],
			"devdoc": {
				"kind": "dev",
				"methods": {},
				"version": 1
			},
			"evm": {
				"assembly": "    /* \"contracts\\\\PriceGuranteeStaking.sol\":764:7377  contract StakingContract {... */\n  mstore(0x40, 0x80)\n    /* \"contracts\\\\PriceGuranteeStaking.sol\":1461:2126  constructor(... */\n  callvalue\n  dup1\n  iszero\n  tag_1\n  jumpi\n  0x00\n  dup1\n  revert\ntag_1:\n  pop\n  mload(0x40)\n  sub(codesize, bytecodeSize)\n  dup1\n  bytecodeSize\n  dup4\n  codecopy\n  dup2\n  dup2\n  add\n  0x40\n  mstore\n  dup2\n  add\n  swap1\n  tag_2\n  swap2\n  swap1\n  tag_3\n  jump\t// in\ntag_2:\n    /* \"contracts\\\\PriceGuranteeStaking.sol\":1648:1658  msg.sender */\n  caller\n    /* \"contracts\\\\PriceGuranteeStaking.sol\":1640:1645  admin */\n  0x00\n  dup1\n    /* \"contracts\\\\PriceGuranteeStaking.sol\":1640:1658  admin = msg.sender */\n  0x0100\n  exp\n  dup2\n  sload\n  dup2\n  0xffffffffffffffffffffffffffffffffffffffff\n  mul\n  not\n  and\n  swap1\n  dup4\n  0xffffffffffffffffffffffffffffffffffffffff\n  and\n  mul\n  or\n  swap1\n  sstore\n  pop\n    /* \"contracts\\\\PriceGuranteeStaking.sol\":1687:1703  _grlTokenAddress */\n  dup4\n    /* \"contracts\\\\PriceGuranteeStaking.sol\":1669:1684  grlTokenAddress */\n  0x01\n  0x00\n    /* \"contracts\\\\PriceGuranteeStaking.sol\":1669:1703  grlTokenAddress = _grlTokenAddress */\n  0x0100\n  exp\n  dup2\n  sload\n  dup2\n  0xffffffffffffffffffffffffffffffffffffffff\n  mul\n  not\n  and\n  swap1\n  dup4\n  0xffffffffffffffffffffffffffffffffffffffff\n  and\n  mul\n  or\n  swap1\n  sstore\n  pop\n    /* \"contracts\\\\PriceGuranteeStaking.sol\":1728:1740  _wethAddress */\n  dup3\n    /* \"contracts\\\\PriceGuranteeStaking.sol\":1714:1725  wethAddress */\n  0x02\n  0x00\n    /* \"contracts\\\\PriceGuranteeStaking.sol\":1714:1740  wethAddress = _wethAddress */\n  0x0100\n  exp\n  dup2\n  sload\n  dup2\n  0xffffffffffffffffffffffffffffffffffffffff\n  mul\n  not\n  and\n  swap1\n  dup4\n  0xffffffffffffffffffffffffffffffffffffffff\n  and\n  mul\n  or\n  swap1\n  sstore\n  pop\n    /* \"contracts\\\\PriceGuranteeStaking.sol\":1774:1795  _uniswapRouterAddress */\n  dup2\n    /* \"contracts\\\\PriceGuranteeStaking.sol\":1751:1771  uniswapRouterAddress */\n  0x03\n  0x00\n    /* \"contracts\\\\PriceGuranteeStaking.sol\":1751:1795  uniswapRouterAddress = _uniswapRouterAddress */\n  0x0100\n  exp\n  dup2\n  sload\n  dup2\n  0xffffffffffffffffffffffffffffffffffffffff\n  mul\n  not\n  and\n  swap1\n  dup4\n  0xffffffffffffffffffffffffffffffffffffffff\n  and\n  mul\n  or\n  swap1\n  sstore\n  pop\n    /* \"contracts\\\\PriceGuranteeStaking.sol\":1832:1856  _ethUsdAggregatorAddress */\n  dup1\n    /* \"contracts\\\\PriceGuranteeStaking.sol\":1806:1829  ethUsdAggregatorAddress */\n  0x04\n  0x00\n    /* \"contracts\\\\PriceGuranteeStaking.sol\":1806:1856  ethUsdAggregatorAddress = _ethUsdAggregatorAddress */\n  0x0100\n  exp\n  dup2\n  sload\n  dup2\n  0xffffffffffffffffffffffffffffffffffffffff\n  mul\n  not\n  and\n  swap1\n  dup4\n  0xffffffffffffffffffffffffffffffffffffffff\n  and\n  mul\n  or\n  swap1\n  sstore\n  pop\n    /* \"contracts\\\\PriceGuranteeStaking.sol\":1951:1955  3750 */\n  0x0ea6\n    /* \"contracts\\\\PriceGuranteeStaking.sol\":1924:1944  stakingFeePercentage */\n  0x05\n    /* \"contracts\\\\PriceGuranteeStaking.sol\":1924:1948  stakingFeePercentage[30] */\n  0x00\n    /* \"contracts\\\\PriceGuranteeStaking.sol\":1945:1947  30 */\n  0x1e\n    /* \"contracts\\\\PriceGuranteeStaking.sol\":1924:1948  stakingFeePercentage[30] */\n  dup2\n  mstore\n  0x20\n  add\n  swap1\n  dup2\n  mstore\n  0x20\n  add\n  0x00\n  keccak256\n    /* \"contracts\\\\PriceGuranteeStaking.sol\":1924:1955  stakingFeePercentage[30] = 3750 */\n  dup2\n  swap1\n  sstore\n  pop\n    /* \"contracts\\\\PriceGuranteeStaking.sol\":2004:2008  5625 */\n  0x15f9\n    /* \"contracts\\\\PriceGuranteeStaking.sol\":1977:1997  stakingFeePercentage */\n  0x05\n    /* \"contracts\\\\PriceGuranteeStaking.sol\":1977:2001  stakingFeePercentage[60] */\n  0x00\n    /* \"contracts\\\\PriceGuranteeStaking.sol\":1998:2000  60 */\n  0x3c\n    /* \"contracts\\\\PriceGuranteeStaking.sol\":1977:2001  stakingFeePercentage[60] */\n  dup2\n  mstore\n  0x20\n  add\n  swap1\n  dup2\n  mstore\n  0x20\n  add\n  0x00\n  keccak256\n    /* \"contracts\\\\PriceGuranteeStaking.sol\":1977:2008  stakingFeePercentage[60] = 5625 */\n  dup2\n  swap1\n  sstore\n  pop\n    /* \"contracts\\\\PriceGuranteeStaking.sol\":2057:2061  7734 */\n  0x1e36\n    /* \"contracts\\\\PriceGuranteeStaking.sol\":2030:2050  stakingFeePercentage */\n  0x05\n    /* \"contracts\\\\PriceGuranteeStaking.sol\":2030:2054  stakingFeePercentage[90] */\n  0x00\n    /* \"contracts\\\\PriceGuranteeStaking.sol\":2051:2053  90 */\n  0x5a\n    /* \"contracts\\\\PriceGuranteeStaking.sol\":2030:2054  stakingFeePercentage[90] */\n  dup2\n  mstore\n  0x20\n  add\n  swap1\n  dup2\n  mstore\n  0x20\n  add\n  0x00\n  keccak256\n    /* \"contracts\\\\PriceGuranteeStaking.sol\":2030:2061  stakingFeePercentage[90] = 7734 */\n  dup2\n  swap1\n  sstore\n  pop\n    /* \"contracts\\\\PriceGuranteeStaking.sol\":1461:2126  constructor(... */\n  pop\n  pop\n  pop\n  pop\n    /* \"contracts\\\\PriceGuranteeStaking.sol\":764:7377  contract StakingContract {... */\n  jump(tag_6)\n    /* \"#utility.yul\":88:205   */\ntag_8:\n    /* \"#utility.yul\":197:198   */\n  0x00\n    /* \"#utility.yul\":194:195   */\n  dup1\n    /* \"#utility.yul\":187:199   */\n  revert\n    /* \"#utility.yul\":334:460   */\ntag_10:\n    /* \"#utility.yul\":371:378   */\n  0x00\n    /* \"#utility.yul\":411:453   */\n  0xffffffffffffffffffffffffffffffffffffffff\n    /* \"#utility.yul\":404:409   */\n  dup3\n    /* \"#utility.yul\":400:454   */\n  and\n    /* \"#utility.yul\":389:454   */\n  swap1\n  pop\n    /* \"#utility.yul\":334:460   */\n  swap2\n  swap1\n  pop\n  jump\t// out\n    /* \"#utility.yul\":466:562   */\ntag_11:\n    /* \"#utility.yul\":503:510   */\n  0x00\n    /* \"#utility.yul\":532:556   */\n  tag_20\n    /* \"#utility.yul\":550:555   */\n  dup3\n    /* \"#utility.yul\":532:556   */\n  tag_10\n  jump\t// in\ntag_20:\n    /* \"#utility.yul\":521:556   */\n  swap1\n  pop\n    /* \"#utility.yul\":466:562   */\n  swap2\n  swap1\n  pop\n  jump\t// out\n    /* \"#utility.yul\":568:690   */\ntag_12:\n    /* \"#utility.yul\":641:665   */\n  tag_22\n    /* \"#utility.yul\":659:664   */\n  dup2\n    /* \"#utility.yul\":641:665   */\n  tag_11\n  jump\t// in\ntag_22:\n    /* \"#utility.yul\":634:639   */\n  dup2\n    /* \"#utility.yul\":631:666   */\n  eq\n    /* \"#utility.yul\":621:684   */\n  tag_23\n  jumpi\n    /* \"#utility.yul\":680:681   */\n  0x00\n    /* \"#utility.yul\":677:678   */\n  dup1\n    /* \"#utility.yul\":670:682   */\n  revert\n    /* \"#utility.yul\":621:684   */\ntag_23:\n    /* \"#utility.yul\":568:690   */\n  pop\n  jump\t// out\n    /* \"#utility.yul\":696:839   */\ntag_13:\n    /* \"#utility.yul\":753:758   */\n  0x00\n    /* \"#utility.yul\":784:790   */\n  dup2\n    /* \"#utility.yul\":778:791   */\n  mload\n    /* \"#utility.yul\":769:791   */\n  swap1\n  pop\n    /* \"#utility.yul\":800:833   */\n  tag_25\n    /* \"#utility.yul\":827:832   */\n  dup2\n    /* \"#utility.yul\":800:833   */\n  tag_12\n  jump\t// in\ntag_25:\n    /* \"#utility.yul\":696:839   */\n  swap3\n  swap2\n  pop\n  pop\n  jump\t// out\n    /* \"#utility.yul\":845:1665   */\ntag_3:\n    /* \"#utility.yul\":942:948   */\n  0x00\n    /* \"#utility.yul\":950:956   */\n  dup1\n    /* \"#utility.yul\":958:964   */\n  0x00\n    /* \"#utility.yul\":966:972   */\n  dup1\n    /* \"#utility.yul\":1015:1018   */\n  0x80\n    /* \"#utility.yul\":1003:1012   */\n  dup6\n    /* \"#utility.yul\":994:1001   */\n  dup8\n    /* \"#utility.yul\":990:1013   */\n  sub\n    /* \"#utility.yul\":986:1019   */\n  slt\n    /* \"#utility.yul\":983:1103   */\n  iszero\n  tag_27\n  jumpi\n    /* \"#utility.yul\":1022:1101   */\n  tag_28\n  tag_8\n  jump\t// in\ntag_28:\n    /* \"#utility.yul\":983:1103   */\ntag_27:\n    /* \"#utility.yul\":1142:1143   */\n  0x00\n    /* \"#utility.yul\":1167:1231   */\n  tag_29\n    /* \"#utility.yul\":1223:1230   */\n  dup8\n    /* \"#utility.yul\":1214:1220   */\n  dup3\n    /* \"#utility.yul\":1203:1212   */\n  dup9\n    /* \"#utility.yul\":1199:1221   */\n  add\n    /* \"#utility.yul\":1167:1231   */\n  tag_13\n  jump\t// in\ntag_29:\n    /* \"#utility.yul\":1157:1231   */\n  swap5\n  pop\n    /* \"#utility.yul\":1113:1241   */\n  pop\n    /* \"#utility.yul\":1280:1282   */\n  0x20\n    /* \"#utility.yul\":1306:1370   */\n  tag_30\n    /* \"#utility.yul\":1362:1369   */\n  dup8\n    /* \"#utility.yul\":1353:1359   */\n  dup3\n    /* \"#utility.yul\":1342:1351   */\n  dup9\n    /* \"#utility.yul\":1338:1360   */\n  add\n    /* \"#utility.yul\":1306:1370   */\n  tag_13\n  jump\t// in\ntag_30:\n    /* \"#utility.yul\":1296:1370   */\n  swap4\n  pop\n    /* \"#utility.yul\":1251:1380   */\n  pop\n    /* \"#utility.yul\":1419:1421   */\n  0x40\n    /* \"#utility.yul\":1445:1509   */\n  tag_31\n    /* \"#utility.yul\":1501:1508   */\n  dup8\n    /* \"#utility.yul\":1492:1498   */\n  dup3\n    /* \"#utility.yul\":1481:1490   */\n  dup9\n    /* \"#utility.yul\":1477:1499   */\n  add\n    /* \"#utility.yul\":1445:1509   */\n  tag_13\n  jump\t// in\ntag_31:\n    /* \"#utility.yul\":1435:1509   */\n  swap3\n  pop\n    /* \"#utility.yul\":1390:1519   */\n  pop\n    /* \"#utility.yul\":1558:1560   */\n  0x60\n    /* \"#utility.yul\":1584:1648   */\n  tag_32\n    /* \"#utility.yul\":1640:1647   */\n  dup8\n    /* \"#utility.yul\":1631:1637   */\n  dup3\n    /* \"#utility.yul\":1620:1629   */\n  dup9\n    /* \"#utility.yul\":1616:1638   */\n  add\n    /* \"#utility.yul\":1584:1648   */\n  tag_13\n  jump\t// in\ntag_32:\n    /* \"#utility.yul\":1574:1648   */\n  swap2\n  pop\n    /* \"#utility.yul\":1529:1658   */\n  pop\n    /* \"#utility.yul\":845:1665   */\n  swap3\n  swap6\n  swap2\n  swap5\n  pop\n  swap3\n  pop\n  jump\t// out\n    /* \"contracts\\\\PriceGuranteeStaking.sol\":764:7377  contract StakingContract {... */\ntag_6:\n  dataSize(sub_0)\n  dup1\n  dataOffset(sub_0)\n  0x00\n  codecopy\n  0x00\n  return\nstop\n\nsub_0: assembly {\n        /* \"contracts\\\\PriceGuranteeStaking.sol\":764:7377  contract StakingContract {... */\n      mstore(0x40, 0x80)\n      callvalue\n      dup1\n      iszero\n      tag_1\n      jumpi\n      0x00\n      dup1\n      revert\n    tag_1:\n      pop\n      jumpi(tag_2, lt(calldatasize, 0x04))\n      shr(0xe0, calldataload(0x00))\n      dup1\n      0x50f3845b\n      gt\n      tag_19\n      jumpi\n      dup1\n      0xb92d21c4\n      gt\n      tag_20\n      jumpi\n      dup1\n      0xb92d21c4\n      eq\n      tag_15\n      jumpi\n      dup1\n      0xb9aa6ec4\n      eq\n      tag_16\n      jumpi\n      dup1\n      0xe4ba0d7b\n      eq\n      tag_17\n      jumpi\n      dup1\n      0xf851a440\n      eq\n      tag_18\n      jumpi\n      jump(tag_2)\n    tag_20:\n      dup1\n      0x50f3845b\n      eq\n      tag_11\n      jumpi\n      dup1\n      0x7a997035\n      eq\n      tag_12\n      jumpi\n      dup1\n      0x851f7147\n      eq\n      tag_13\n      jumpi\n      dup1\n      0xb5d5b5fa\n      eq\n      tag_14\n      jumpi\n      jump(tag_2)\n    tag_19:\n      dup1\n      0x2e0f2625\n      gt\n      tag_21\n      jumpi\n      dup1\n      0x2e0f2625\n      eq\n      tag_7\n      jumpi\n      dup1\n      0x2e17de78\n      eq\n      tag_8\n      jumpi\n      dup1\n      0x45aefbdb\n      eq\n      tag_9\n      jumpi\n      dup1\n      0x4f0e0ef3\n      eq\n      tag_10\n      jumpi\n      jump(tag_2)\n    tag_21:\n      dup1\n      0xc3a272\n      eq\n      tag_3\n      jumpi\n      dup1\n      0x1b545a17\n      eq\n      tag_4\n      jumpi\n      dup1\n      0x20ca3c7f\n      eq\n      tag_5\n      jumpi\n      dup1\n      0x26230e2f\n      eq\n      tag_6\n      jumpi\n    tag_2:\n      0x00\n      dup1\n      revert\n        /* \"contracts\\\\PriceGuranteeStaking.sol\":935:973  address public ethUsdAggregatorAddress */\n    tag_3:\n      tag_22\n      tag_23\n      jump\t// in\n    tag_22:\n      mload(0x40)\n      tag_24\n      swap2\n      swap1\n      tag_25\n      jump\t// in\n    tag_24:\n      mload(0x40)\n      dup1\n      swap2\n      sub\n      swap1\n      return\n        /* \"contracts\\\\PriceGuranteeStaking.sol\":6055:6177  function getUserStakeCount(address user) external view returns (uint256) {... */\n    tag_4:\n      tag_26\n      0x04\n      dup1\n      calldatasize\n      sub\n      dup2\n      add\n      swap1\n      tag_27\n      swap2\n      swap1\n      tag_28\n      jump\t// in\n    tag_27:\n      tag_29\n      jump\t// in\n    tag_26:\n      mload(0x40)\n      tag_30\n      swap2\n      swap1\n      tag_31\n      jump\t// in\n    tag_30:\n      mload(0x40)\n      dup1\n      swap2\n      sub\n      swap1\n      return\n        /* \"contracts\\\\PriceGuranteeStaking.sol\":893:928  address public uniswapRouterAddress */\n    tag_5:\n      tag_32\n      tag_33\n      jump\t// in\n    tag_32:\n      mload(0x40)\n      tag_34\n      swap2\n      swap1\n      tag_25\n      jump\t// in\n    tag_34:\n      mload(0x40)\n      dup1\n      swap2\n      sub\n      swap1\n      return\n        /* \"contracts\\\\PriceGuranteeStaking.sol\":1026:1081  mapping(uint256 => uint256) public stakingFeePercentage */\n    tag_6:\n      tag_35\n      0x04\n      dup1\n      calldatasize\n      sub\n      dup2\n      add\n      swap1\n      tag_36\n      swap2\n      swap1\n      tag_37\n      jump\t// in\n    tag_36:\n      tag_38\n      jump\t// in\n    tag_35:\n      mload(0x40)\n      tag_39\n      swap2\n      swap1\n      tag_31\n      jump\t// in\n    tag_39:\n      mload(0x40)\n      dup1\n      swap2\n      sub\n      swap1\n      return\n        /* \"contracts\\\\PriceGuranteeStaking.sol\":980:1017  uint256 public constant DECIMALS = 18 */\n    tag_7:\n      tag_40\n      tag_41\n      jump\t// in\n    tag_40:\n      mload(0x40)\n      tag_42\n      swap2\n      swap1\n      tag_31\n      jump\t// in\n    tag_42:\n      mload(0x40)\n      dup1\n      swap2\n      sub\n      swap1\n      return\n        /* \"contracts\\\\PriceGuranteeStaking.sol\":4833:6045  function unstake(uint256 index) external {... */\n    tag_8:\n      tag_43\n      0x04\n      dup1\n      calldatasize\n      sub\n      dup2\n      add\n      swap1\n      tag_44\n      swap2\n      swap1\n      tag_37\n      jump\t// in\n    tag_44:\n      tag_45\n      jump\t// in\n    tag_43:\n      stop\n        /* \"contracts\\\\PriceGuranteeStaking.sol\":3419:4825  function stakeGrl(uint256 amount, uint256 durationInDays) external {... */\n    tag_9:\n      tag_46\n      0x04\n      dup1\n      calldatasize\n      sub\n      dup2\n      add\n      swap1\n      tag_47\n      swap2\n      swap1\n      tag_48\n      jump\t// in\n    tag_47:\n      tag_49\n      jump\t// in\n    tag_46:\n      stop\n        /* \"contracts\\\\PriceGuranteeStaking.sol\":860:886  address public wethAddress */\n    tag_10:\n      tag_50\n      tag_51\n      jump\t// in\n    tag_50:\n      mload(0x40)\n      tag_52\n      swap2\n      swap1\n      tag_25\n      jump\t// in\n    tag_52:\n      mload(0x40)\n      dup1\n      swap2\n      sub\n      swap1\n      return\n        /* \"contracts\\\\PriceGuranteeStaking.sol\":2756:3159  function getPriceOfGrlInEth() public view returns (uint256) {... */\n    tag_11:\n      tag_53\n      tag_54\n      jump\t// in\n    tag_53:\n      mload(0x40)\n      tag_55\n      swap2\n      swap1\n      tag_31\n      jump\t// in\n    tag_55:\n      mload(0x40)\n      dup1\n      swap2\n      sub\n      swap1\n      return\n        /* \"contracts\\\\PriceGuranteeStaking.sol\":2134:2393  function setStakingFeePercentage(... */\n    tag_12:\n      tag_56\n      0x04\n      dup1\n      calldatasize\n      sub\n      dup2\n      add\n      swap1\n      tag_57\n      swap2\n      swap1\n      tag_48\n      jump\t// in\n    tag_57:\n      tag_58\n      jump\t// in\n    tag_56:\n      stop\n        /* \"contracts\\\\PriceGuranteeStaking.sol\":2401:2748  function getEthToUsdValue() public view returns (uint256) {... */\n    tag_13:\n      tag_59\n      tag_60\n      jump\t// in\n    tag_59:\n      mload(0x40)\n      tag_61\n      swap2\n      swap1\n      tag_31\n      jump\t// in\n    tag_61:\n      mload(0x40)\n      dup1\n      swap2\n      sub\n      swap1\n      return\n        /* \"contracts\\\\PriceGuranteeStaking.sol\":1407:1452  mapping(address => Stake[]) public userStakes */\n    tag_14:\n      tag_62\n      0x04\n      dup1\n      calldatasize\n      sub\n      dup2\n      add\n      swap1\n      tag_63\n      swap2\n      swap1\n      tag_64\n      jump\t// in\n    tag_63:\n      tag_65\n      jump\t// in\n    tag_62:\n      mload(0x40)\n      tag_66\n      swap6\n      swap5\n      swap4\n      swap3\n      swap2\n      swap1\n      tag_67\n      jump\t// in\n    tag_66:\n      mload(0x40)\n      dup1\n      swap2\n      sub\n      swap1\n      return\n        /* \"contracts\\\\PriceGuranteeStaking.sol\":3167:3411  function calculatePriceOfGrlInUsd() public view returns (uint256) {... */\n    tag_15:\n      tag_68\n      tag_69\n      jump\t// in\n    tag_68:\n      mload(0x40)\n      tag_70\n      swap2\n      swap1\n      tag_31\n      jump\t// in\n    tag_70:\n      mload(0x40)\n      dup1\n      swap2\n      sub\n      swap1\n      return\n        /* \"contracts\\\\PriceGuranteeStaking.sol\":823:853  address public grlTokenAddress */\n    tag_16:\n      tag_71\n      tag_72\n      jump\t// in\n    tag_71:\n      mload(0x40)\n      tag_73\n      swap2\n      swap1\n      tag_25\n      jump\t// in\n    tag_73:\n      mload(0x40)\n      dup1\n      swap2\n      sub\n      swap1\n      return\n        /* \"contracts\\\\PriceGuranteeStaking.sol\":6185:6590  function getUserStakeDetails(address user, uint256 index) external view returns (uint256 durationInDays, uint256 amount, uint256 timestamp, uint256 priceInUsd, uint256 amountInUsd) {... */\n    tag_17:\n      tag_74\n      0x04\n      dup1\n      calldatasize\n      sub\n      dup2\n      add\n      swap1\n      tag_75\n      swap2\n      swap1\n      tag_64\n      jump\t// in\n    tag_75:\n      tag_76\n      jump\t// in\n    tag_74:\n      mload(0x40)\n      tag_77\n      swap6\n      swap5\n      swap4\n      swap3\n      swap2\n      swap1\n      tag_67\n      jump\t// in\n    tag_77:\n      mload(0x40)\n      dup1\n      swap2\n      sub\n      swap1\n      return\n        /* \"contracts\\\\PriceGuranteeStaking.sol\":796:816  address public admin */\n    tag_18:\n      tag_78\n      tag_79\n      jump\t// in\n    tag_78:\n      mload(0x40)\n      tag_80\n      swap2\n      swap1\n      tag_25\n      jump\t// in\n    tag_80:\n      mload(0x40)\n      dup1\n      swap2\n      sub\n      swap1\n      return\n        /* \"contracts\\\\PriceGuranteeStaking.sol\":935:973  address public ethUsdAggregatorAddress */\n    tag_23:\n      0x04\n      0x00\n      swap1\n      sload\n      swap1\n      0x0100\n      exp\n      swap1\n      div\n      0xffffffffffffffffffffffffffffffffffffffff\n      and\n      dup2\n      jump\t// out\n        /* \"contracts\\\\PriceGuranteeStaking.sol\":6055:6177  function getUserStakeCount(address user) external view returns (uint256) {... */\n    tag_29:\n        /* \"contracts\\\\PriceGuranteeStaking.sol\":6119:6126  uint256 */\n      0x00\n        /* \"contracts\\\\PriceGuranteeStaking.sol\":6146:6156  userStakes */\n      0x06\n        /* \"contracts\\\\PriceGuranteeStaking.sol\":6146:6162  userStakes[user] */\n      0x00\n        /* \"contracts\\\\PriceGuranteeStaking.sol\":6157:6161  user */\n      dup4\n        /* \"contracts\\\\PriceGuranteeStaking.sol\":6146:6162  userStakes[user] */\n      0xffffffffffffffffffffffffffffffffffffffff\n      and\n      0xffffffffffffffffffffffffffffffffffffffff\n      and\n      dup2\n      mstore\n      0x20\n      add\n      swap1\n      dup2\n      mstore\n      0x20\n      add\n      0x00\n      keccak256\n        /* \"contracts\\\\PriceGuranteeStaking.sol\":6146:6169  userStakes[user].length */\n      dup1\n      sload\n      swap1\n      pop\n        /* \"contracts\\\\PriceGuranteeStaking.sol\":6139:6169  return userStakes[user].length */\n      swap1\n      pop\n        /* \"contracts\\\\PriceGuranteeStaking.sol\":6055:6177  function getUserStakeCount(address user) external view returns (uint256) {... */\n      swap2\n      swap1\n      pop\n      jump\t// out\n        /* \"contracts\\\\PriceGuranteeStaking.sol\":893:928  address public uniswapRouterAddress */\n    tag_33:\n      0x03\n      0x00\n      swap1\n      sload\n      swap1\n      0x0100\n      exp\n      swap1\n      div\n      0xffffffffffffffffffffffffffffffffffffffff\n      and\n      dup2\n      jump\t// out\n        /* \"contracts\\\\PriceGuranteeStaking.sol\":1026:1081  mapping(uint256 => uint256) public stakingFeePercentage */\n    tag_38:\n      mstore(0x20, 0x05)\n      dup1\n      0x00\n      mstore\n      keccak256(0x00, 0x40)\n      0x00\n      swap2\n      pop\n      swap1\n      pop\n      sload\n      dup2\n      jump\t// out\n        /* \"contracts\\\\PriceGuranteeStaking.sol\":980:1017  uint256 public constant DECIMALS = 18 */\n    tag_41:\n        /* \"contracts\\\\PriceGuranteeStaking.sol\":1015:1017  18 */\n      0x12\n        /* \"contracts\\\\PriceGuranteeStaking.sol\":980:1017  uint256 public constant DECIMALS = 18 */\n      dup2\n      jump\t// out\n        /* \"contracts\\\\PriceGuranteeStaking.sol\":4833:6045  function unstake(uint256 index) external {... */\n    tag_45:\n        /* \"contracts\\\\PriceGuranteeStaking.sol\":4881:4903  Stake[] storage stakes */\n      0x00\n        /* \"contracts\\\\PriceGuranteeStaking.sol\":4906:4916  userStakes */\n      0x06\n        /* \"contracts\\\\PriceGuranteeStaking.sol\":4906:4928  userStakes[msg.sender] */\n      0x00\n        /* \"contracts\\\\PriceGuranteeStaking.sol\":4917:4927  msg.sender */\n      caller\n        /* \"contracts\\\\PriceGuranteeStaking.sol\":4906:4928  userStakes[msg.sender] */\n      0xffffffffffffffffffffffffffffffffffffffff\n      and\n      0xffffffffffffffffffffffffffffffffffffffff\n      and\n      dup2\n      mstore\n      0x20\n      add\n      swap1\n      dup2\n      mstore\n      0x20\n      add\n      0x00\n      keccak256\n        /* \"contracts\\\\PriceGuranteeStaking.sol\":4881:4928  Stake[] storage stakes = userStakes[msg.sender] */\n      swap1\n      pop\n        /* \"contracts\\\\PriceGuranteeStaking.sol\":4951:4957  stakes */\n      dup1\n        /* \"contracts\\\\PriceGuranteeStaking.sol\":4951:4964  stakes.length */\n      dup1\n      sload\n      swap1\n      pop\n        /* \"contracts\\\\PriceGuranteeStaking.sol\":4943:4948  index */\n      dup3\n        /* \"contracts\\\\PriceGuranteeStaking.sol\":4943:4964  index < stakes.length */\n      lt\n        /* \"contracts\\\\PriceGuranteeStaking.sol\":4935:4982  require(index < stakes.length, \"Invalid index\") */\n      tag_83\n      jumpi\n      mload(0x40)\n      0x08c379a000000000000000000000000000000000000000000000000000000000\n      dup2\n      mstore\n      0x04\n      add\n      tag_84\n      swap1\n      tag_85\n      jump\t// in\n    tag_84:\n      mload(0x40)\n      dup1\n      swap2\n      sub\n      swap1\n      revert\n    tag_83:\n        /* \"contracts\\\\PriceGuranteeStaking.sol\":4991:5014  Stake storage userStake */\n      0x00\n        /* \"contracts\\\\PriceGuranteeStaking.sol\":5017:5023  stakes */\n      dup2\n        /* \"contracts\\\\PriceGuranteeStaking.sol\":5024:5029  index */\n      dup4\n        /* \"contracts\\\\PriceGuranteeStaking.sol\":5017:5030  stakes[index] */\n      dup2\n      sload\n      dup2\n      lt\n      tag_86\n      jumpi\n      tag_87\n      tag_88\n      jump\t// in\n    tag_87:\n    tag_86:\n      swap1\n      0x00\n      mstore\n      keccak256(0x00, 0x20)\n      swap1\n      0x05\n      mul\n      add\n        /* \"contracts\\\\PriceGuranteeStaking.sol\":4991:5030  Stake storage userStake = stakes[index] */\n      swap1\n      pop\n        /* \"contracts\\\\PriceGuranteeStaking.sol\":5061:5070  userStake */\n      dup1\n        /* \"contracts\\\\PriceGuranteeStaking.sol\":5061:5080  userStake.timestamp */\n      0x02\n      add\n      sload\n        /* \"contracts\\\\PriceGuranteeStaking.sol\":5043:5058  block.timestamp */\n      timestamp\n        /* \"contracts\\\\PriceGuranteeStaking.sol\":5043:5080  block.timestamp < userStake.timestamp */\n      lt\n        /* \"contracts\\\\PriceGuranteeStaking.sol\":5039:6042  if (block.timestamp < userStake.timestamp) {... */\n      iszero\n      tag_90\n      jumpi\n        /* \"contracts\\\\PriceGuranteeStaking.sol\":5321:5331  msg.sender */\n      caller\n        /* \"contracts\\\\PriceGuranteeStaking.sol\":5312:5350  Unstaked(msg.sender, userStake.amount) */\n      0xffffffffffffffffffffffffffffffffffffffff\n      and\n      0x0f5bb82176feb1b5e747e28471aa92156a04d9f3ab9f45f28e2d704232b93f75\n        /* \"contracts\\\\PriceGuranteeStaking.sol\":5333:5342  userStake */\n      dup3\n        /* \"contracts\\\\PriceGuranteeStaking.sol\":5333:5349  userStake.amount */\n      0x01\n      add\n      sload\n        /* \"contracts\\\\PriceGuranteeStaking.sol\":5312:5350  Unstaked(msg.sender, userStake.amount) */\n      mload(0x40)\n      tag_91\n      swap2\n      swap1\n      tag_31\n      jump\t// in\n    tag_91:\n      mload(0x40)\n      dup1\n      swap2\n      sub\n      swap1\n      log2\n        /* \"contracts\\\\PriceGuranteeStaking.sol\":5039:6042  if (block.timestamp < userStake.timestamp) {... */\n      jump(tag_92)\n    tag_90:\n        /* \"contracts\\\\PriceGuranteeStaking.sol\":5375:5402  uint256 totalAmountToReturn */\n      0x00\n        /* \"contracts\\\\PriceGuranteeStaking.sol\":5405:5414  userStake */\n      dup2\n        /* \"contracts\\\\PriceGuranteeStaking.sol\":5405:5421  userStake.amount */\n      0x01\n      add\n      sload\n        /* \"contracts\\\\PriceGuranteeStaking.sol\":5375:5421  uint256 totalAmountToReturn = userStake.amount */\n      swap1\n      pop\n        /* \"contracts\\\\PriceGuranteeStaking.sol\":5432:5451  uint256 grlUsdPrice */\n      0x00\n        /* \"contracts\\\\PriceGuranteeStaking.sol\":5454:5480  calculatePriceOfGrlInUsd() */\n      tag_93\n        /* \"contracts\\\\PriceGuranteeStaking.sol\":5454:5478  calculatePriceOfGrlInUsd */\n      tag_69\n        /* \"contracts\\\\PriceGuranteeStaking.sol\":5454:5480  calculatePriceOfGrlInUsd() */\n      jump\t// in\n    tag_93:\n        /* \"contracts\\\\PriceGuranteeStaking.sol\":5432:5480  uint256 grlUsdPrice = calculatePriceOfGrlInUsd() */\n      swap1\n      pop\n        /* \"contracts\\\\PriceGuranteeStaking.sol\":5491:5512  uint256 usdDifference */\n      0x00\n        /* \"contracts\\\\PriceGuranteeStaking.sol\":5538:5549  grlUsdPrice */\n      dup2\n        /* \"contracts\\\\PriceGuranteeStaking.sol\":5515:5524  userStake */\n      dup5\n        /* \"contracts\\\\PriceGuranteeStaking.sol\":5515:5535  userStake.priceInUsd */\n      0x03\n      add\n      sload\n        /* \"contracts\\\\PriceGuranteeStaking.sol\":5515:5549  userStake.priceInUsd - grlUsdPrice */\n      tag_94\n      swap2\n      swap1\n      tag_95\n      jump\t// in\n    tag_94:\n        /* \"contracts\\\\PriceGuranteeStaking.sol\":5491:5549  uint256 usdDifference = userStake.priceInUsd - grlUsdPrice */\n      swap1\n      pop\n        /* \"contracts\\\\PriceGuranteeStaking.sol\":5582:5583  0 */\n      0x00\n        /* \"contracts\\\\PriceGuranteeStaking.sol\":5566:5579  usdDifference */\n      dup2\n        /* \"contracts\\\\PriceGuranteeStaking.sol\":5566:5583  usdDifference > 0 */\n      gt\n        /* \"contracts\\\\PriceGuranteeStaking.sol\":5562:5809  if (usdDifference > 0) {... */\n      iszero\n      tag_96\n      jumpi\n        /* \"contracts\\\\PriceGuranteeStaking.sol\":5651:5680  uint256 additionalGrlToReturn */\n      0x00\n        /* \"contracts\\\\PriceGuranteeStaking.sol\":5718:5727  userStake */\n      dup5\n        /* \"contracts\\\\PriceGuranteeStaking.sol\":5718:5738  userStake.priceInUsd */\n      0x03\n      add\n      sload\n        /* \"contracts\\\\PriceGuranteeStaking.sol\":1015:1017  18 */\n      0x12\n        /* \"contracts\\\\PriceGuranteeStaking.sol\":5701:5703  10 */\n      0x0a\n        /* \"contracts\\\\PriceGuranteeStaking.sol\":5701:5713  10**DECIMALS */\n      tag_97\n      swap2\n      swap1\n      tag_98\n      jump\t// in\n    tag_97:\n        /* \"contracts\\\\PriceGuranteeStaking.sol\":5684:5697  usdDifference */\n      dup4\n        /* \"contracts\\\\PriceGuranteeStaking.sol\":5684:5714  usdDifference * (10**DECIMALS) */\n      tag_99\n      swap2\n      swap1\n      tag_100\n      jump\t// in\n    tag_99:\n        /* \"contracts\\\\PriceGuranteeStaking.sol\":5683:5738  (usdDifference * (10**DECIMALS)) / userStake.priceInUsd */\n      tag_101\n      swap2\n      swap1\n      tag_102\n      jump\t// in\n    tag_101:\n        /* \"contracts\\\\PriceGuranteeStaking.sol\":5651:5738  uint256 additionalGrlToReturn = (usdDifference * (10**DECIMALS)) / userStake.priceInUsd */\n      swap1\n      pop\n        /* \"contracts\\\\PriceGuranteeStaking.sol\":5776:5797  additionalGrlToReturn */\n      dup1\n        /* \"contracts\\\\PriceGuranteeStaking.sol\":5753:5797  totalAmountToReturn += additionalGrlToReturn */\n      dup5\n      tag_103\n      swap2\n      swap1\n      tag_104\n      jump\t// in\n    tag_103:\n      swap4\n      pop\n        /* \"contracts\\\\PriceGuranteeStaking.sol\":5585:5809  {... */\n      pop\n        /* \"contracts\\\\PriceGuranteeStaking.sol\":5562:5809  if (usdDifference > 0) {... */\n    tag_96:\n        /* \"contracts\\\\PriceGuranteeStaking.sol\":6002:6012  msg.sender */\n      caller\n        /* \"contracts\\\\PriceGuranteeStaking.sol\":5993:6034  Unstaked(msg.sender, totalAmountToReturn) */\n      0xffffffffffffffffffffffffffffffffffffffff\n      and\n      0x0f5bb82176feb1b5e747e28471aa92156a04d9f3ab9f45f28e2d704232b93f75\n        /* \"contracts\\\\PriceGuranteeStaking.sol\":6014:6033  totalAmountToReturn */\n      dup5\n        /* \"contracts\\\\PriceGuranteeStaking.sol\":5993:6034  Unstaked(msg.sender, totalAmountToReturn) */\n      mload(0x40)\n      tag_105\n      swap2\n      swap1\n      tag_31\n      jump\t// in\n    tag_105:\n      mload(0x40)\n      dup1\n      swap2\n      sub\n      swap1\n      log2\n        /* \"contracts\\\\PriceGuranteeStaking.sol\":5364:6042  {... */\n      pop\n      pop\n      pop\n        /* \"contracts\\\\PriceGuranteeStaking.sol\":5039:6042  if (block.timestamp < userStake.timestamp) {... */\n    tag_92:\n        /* \"contracts\\\\PriceGuranteeStaking.sol\":4874:6045  {... */\n      pop\n      pop\n        /* \"contracts\\\\PriceGuranteeStaking.sol\":4833:6045  function unstake(uint256 index) external {... */\n      pop\n      jump\t// out\n        /* \"contracts\\\\PriceGuranteeStaking.sol\":3419:4825  function stakeGrl(uint256 amount, uint256 durationInDays) external {... */\n    tag_49:\n        /* \"contracts\\\\PriceGuranteeStaking.sol\":3514:3515  0 */\n      0x00\n        /* \"contracts\\\\PriceGuranteeStaking.sol\":3505:3511  amount */\n      dup3\n        /* \"contracts\\\\PriceGuranteeStaking.sol\":3505:3515  amount > 0 */\n      gt\n        /* \"contracts\\\\PriceGuranteeStaking.sol\":3497:3534  require(amount > 0, \"Invalid amount\") */\n      tag_107\n      jumpi\n      mload(0x40)\n      0x08c379a000000000000000000000000000000000000000000000000000000000\n      dup2\n      mstore\n      0x04\n      add\n      tag_108\n      swap1\n      tag_109\n      jump\t// in\n    tag_108:\n      mload(0x40)\n      dup1\n      swap2\n      sub\n      swap1\n      revert\n    tag_107:\n        /* \"contracts\\\\PriceGuranteeStaking.sol\":3570:3571  0 */\n      0x00\n        /* \"contracts\\\\PriceGuranteeStaking.sol\":3553:3567  durationInDays */\n      dup2\n        /* \"contracts\\\\PriceGuranteeStaking.sol\":3553:3571  durationInDays > 0 */\n      gt\n        /* \"contracts\\\\PriceGuranteeStaking.sol\":3545:3592  require(durationInDays > 0, \"Invalid duration\") */\n      tag_110\n      jumpi\n      mload(0x40)\n      0x08c379a000000000000000000000000000000000000000000000000000000000\n      dup2\n      mstore\n      0x04\n      add\n      tag_111\n      swap1\n      tag_112\n      jump\t// in\n    tag_111:\n      mload(0x40)\n      dup1\n      swap2\n      sub\n      swap1\n      revert\n    tag_110:\n        /* \"contracts\\\\PriceGuranteeStaking.sol\":3605:3624  uint256 grlUsdPrice */\n      0x00\n        /* \"contracts\\\\PriceGuranteeStaking.sol\":3627:3653  calculatePriceOfGrlInUsd() */\n      tag_113\n        /* \"contracts\\\\PriceGuranteeStaking.sol\":3627:3651  calculatePriceOfGrlInUsd */\n      tag_69\n        /* \"contracts\\\\PriceGuranteeStaking.sol\":3627:3653  calculatePriceOfGrlInUsd() */\n      jump\t// in\n    tag_113:\n        /* \"contracts\\\\PriceGuranteeStaking.sol\":3605:3653  uint256 grlUsdPrice = calculatePriceOfGrlInUsd() */\n      swap1\n      pop\n        /* \"contracts\\\\PriceGuranteeStaking.sol\":3664:3682  uint256 stakingFee */\n      0x00\n        /* \"contracts\\\\PriceGuranteeStaking.sol\":3685:3728  calculateStakingFee(durationInDays, amount) */\n      tag_114\n        /* \"contracts\\\\PriceGuranteeStaking.sol\":3705:3719  durationInDays */\n      dup4\n        /* \"contracts\\\\PriceGuranteeStaking.sol\":3721:3727  amount */\n      dup6\n        /* \"contracts\\\\PriceGuranteeStaking.sol\":3685:3704  calculateStakingFee */\n      tag_115\n        /* \"contracts\\\\PriceGuranteeStaking.sol\":3685:3728  calculateStakingFee(durationInDays, amount) */\n      jump\t// in\n    tag_114:\n        /* \"contracts\\\\PriceGuranteeStaking.sol\":3664:3728  uint256 stakingFee = calculateStakingFee(durationInDays, amount) */\n      swap1\n      pop\n        /* \"contracts\\\\PriceGuranteeStaking.sol\":3739:3760  uint256 amountToStake */\n      0x00\n        /* \"contracts\\\\PriceGuranteeStaking.sol\":3772:3782  stakingFee */\n      dup2\n        /* \"contracts\\\\PriceGuranteeStaking.sol\":3763:3769  amount */\n      dup6\n        /* \"contracts\\\\PriceGuranteeStaking.sol\":3763:3782  amount - stakingFee */\n      tag_116\n      swap2\n      swap1\n      tag_95\n      jump\t// in\n    tag_116:\n        /* \"contracts\\\\PriceGuranteeStaking.sol\":3739:3782  uint256 amountToStake = amount - stakingFee */\n      swap1\n      pop\n        /* \"contracts\\\\PriceGuranteeStaking.sol\":3793:3812  uint256 amountInUsd */\n      0x00\n        /* \"contracts\\\\PriceGuranteeStaking.sol\":1015:1017  18 */\n      0x12\n        /* \"contracts\\\\PriceGuranteeStaking.sol\":3848:3850  10 */\n      0x0a\n        /* \"contracts\\\\PriceGuranteeStaking.sol\":3848:3862  10 ** DECIMALS */\n      tag_117\n      swap2\n      swap1\n      tag_98\n      jump\t// in\n    tag_117:\n        /* \"contracts\\\\PriceGuranteeStaking.sol\":3832:3843  grlUsdPrice */\n      dup5\n        /* \"contracts\\\\PriceGuranteeStaking.sol\":3816:3829  amountToStake */\n      dup4\n        /* \"contracts\\\\PriceGuranteeStaking.sol\":3816:3843  amountToStake * grlUsdPrice */\n      tag_118\n      swap2\n      swap1\n      tag_100\n      jump\t// in\n    tag_118:\n        /* \"contracts\\\\PriceGuranteeStaking.sol\":3815:3863  (amountToStake * grlUsdPrice) / (10 ** DECIMALS) */\n      tag_119\n      swap2\n      swap1\n      tag_102\n      jump\t// in\n    tag_119:\n        /* \"contracts\\\\PriceGuranteeStaking.sol\":3793:3863  uint256 amountInUsd = (amountToStake * grlUsdPrice) / (10 ** DECIMALS) */\n      swap1\n      pop\n        /* \"contracts\\\\PriceGuranteeStaking.sol\":3883:3898  grlTokenAddress */\n      0x01\n      0x00\n      swap1\n      sload\n      swap1\n      0x0100\n      exp\n      swap1\n      div\n      0xffffffffffffffffffffffffffffffffffffffff\n      and\n        /* \"contracts\\\\PriceGuranteeStaking.sol\":3876:3912  IERC20(grlTokenAddress).transferFrom */\n      0xffffffffffffffffffffffffffffffffffffffff\n      and\n      0x23b872dd\n        /* \"contracts\\\\PriceGuranteeStaking.sol\":3913:3923  msg.sender */\n      caller\n        /* \"contracts\\\\PriceGuranteeStaking.sol\":3933:3937  this */\n      address\n        /* \"contracts\\\\PriceGuranteeStaking.sol\":3940:3946  amount */\n      dup10\n        /* \"contracts\\\\PriceGuranteeStaking.sol\":3876:3947  IERC20(grlTokenAddress).transferFrom(msg.sender, address(this), amount) */\n      mload(0x40)\n      dup5\n      0xffffffff\n      and\n      0xe0\n      shl\n      dup2\n      mstore\n      0x04\n      add\n      tag_120\n      swap4\n      swap3\n      swap2\n      swap1\n      tag_121\n      jump\t// in\n    tag_120:\n      0x20\n      mload(0x40)\n      dup1\n      dup4\n      sub\n      dup2\n      0x00\n      dup8\n      gas\n      call\n      iszero\n      dup1\n      iszero\n      tag_123\n      jumpi\n      returndatasize\n      0x00\n      dup1\n      returndatacopy\n      revert(0x00, returndatasize)\n    tag_123:\n      pop\n      pop\n      pop\n      pop\n      mload(0x40)\n      returndatasize\n      not(0x1f)\n      0x1f\n      dup3\n      add\n      and\n      dup3\n      add\n      dup1\n      0x40\n      mstore\n      pop\n      dup2\n      add\n      swap1\n      tag_124\n      swap2\n      swap1\n      tag_125\n      jump\t// in\n    tag_124:\n      pop\n        /* \"contracts\\\\PriceGuranteeStaking.sol\":4013:4035  uint256 stakingEndTime */\n      0x00\n        /* \"contracts\\\\PriceGuranteeStaking.sol\":4074:4080  1 days */\n      0x015180\n        /* \"contracts\\\\PriceGuranteeStaking.sol\":4057:4071  durationInDays */\n      dup7\n        /* \"contracts\\\\PriceGuranteeStaking.sol\":4057:4080  durationInDays * 1 days */\n      tag_126\n      swap2\n      swap1\n      tag_100\n      jump\t// in\n    tag_126:\n        /* \"contracts\\\\PriceGuranteeStaking.sol\":4038:4053  block.timestamp */\n      timestamp\n        /* \"contracts\\\\PriceGuranteeStaking.sol\":4038:4081  block.timestamp + (durationInDays * 1 days) */\n      tag_127\n      swap2\n      swap1\n      tag_104\n      jump\t// in\n    tag_127:\n        /* \"contracts\\\\PriceGuranteeStaking.sol\":4013:4081  uint256 stakingEndTime = block.timestamp + (durationInDays * 1 days) */\n      swap1\n      pop\n        /* \"contracts\\\\PriceGuranteeStaking.sol\":4127:4137  userStakes */\n      0x06\n        /* \"contracts\\\\PriceGuranteeStaking.sol\":4127:4149  userStakes[msg.sender] */\n      0x00\n        /* \"contracts\\\\PriceGuranteeStaking.sol\":4138:4148  msg.sender */\n      caller\n        /* \"contracts\\\\PriceGuranteeStaking.sol\":4127:4149  userStakes[msg.sender] */\n      0xffffffffffffffffffffffffffffffffffffffff\n      and\n      0xffffffffffffffffffffffffffffffffffffffff\n      and\n      dup2\n      mstore\n      0x20\n      add\n      swap1\n      dup2\n      mstore\n      0x20\n      add\n      0x00\n      keccak256\n        /* \"contracts\\\\PriceGuranteeStaking.sol\":4169:4409  Stake({... */\n      mload(0x40)\n      dup1\n      0xa0\n      add\n      0x40\n      mstore\n      dup1\n        /* \"contracts\\\\PriceGuranteeStaking.sol\":4210:4224  durationInDays */\n      dup9\n        /* \"contracts\\\\PriceGuranteeStaking.sol\":4169:4409  Stake({... */\n      dup2\n      mstore\n      0x20\n      add\n        /* \"contracts\\\\PriceGuranteeStaking.sol\":4251:4264  amountToStake */\n      dup6\n        /* \"contracts\\\\PriceGuranteeStaking.sol\":4169:4409  Stake({... */\n      dup2\n      mstore\n      0x20\n      add\n        /* \"contracts\\\\PriceGuranteeStaking.sol\":4294:4308  stakingEndTime */\n      dup4\n        /* \"contracts\\\\PriceGuranteeStaking.sol\":4169:4409  Stake({... */\n      dup2\n      mstore\n      0x20\n      add\n        /* \"contracts\\\\PriceGuranteeStaking.sol\":4339:4350  grlUsdPrice */\n      dup8\n        /* \"contracts\\\\PriceGuranteeStaking.sol\":4169:4409  Stake({... */\n      dup2\n      mstore\n      0x20\n      add\n        /* \"contracts\\\\PriceGuranteeStaking.sol\":4382:4393  amountInUsd */\n      dup5\n        /* \"contracts\\\\PriceGuranteeStaking.sol\":4169:4409  Stake({... */\n      dup2\n      mstore\n      pop\n        /* \"contracts\\\\PriceGuranteeStaking.sol\":4127:4420  userStakes[msg.sender].push(... */\n      swap1\n      dup1\n      0x01\n      dup2\n      sload\n      add\n      dup1\n      dup3\n      sstore\n      dup1\n      swap2\n      pop\n      pop\n      0x01\n      swap1\n      sub\n      swap1\n      0x00\n      mstore\n      keccak256(0x00, 0x20)\n      swap1\n      0x05\n      mul\n      add\n      0x00\n      swap1\n      swap2\n      swap1\n      swap2\n      swap1\n      swap2\n      pop\n      0x00\n      dup3\n      add\n      mload\n      dup2\n      0x00\n      add\n      sstore\n      0x20\n      dup3\n      add\n      mload\n      dup2\n      0x01\n      add\n      sstore\n      0x40\n      dup3\n      add\n      mload\n      dup2\n      0x02\n      add\n      sstore\n      0x60\n      dup3\n      add\n      mload\n      dup2\n      0x03\n      add\n      sstore\n      0x80\n      dup3\n      add\n      mload\n      dup2\n      0x04\n      add\n      sstore\n      pop\n      pop\n        /* \"contracts\\\\PriceGuranteeStaking.sol\":4534:4549  grlTokenAddress */\n      0x01\n      0x00\n      swap1\n      sload\n      swap1\n      0x0100\n      exp\n      swap1\n      div\n      0xffffffffffffffffffffffffffffffffffffffff\n      and\n        /* \"contracts\\\\PriceGuranteeStaking.sol\":4527:4559  IERC20(grlTokenAddress).transfer */\n      0xffffffffffffffffffffffffffffffffffffffff\n      and\n      0xa9059cbb\n        /* \"contracts\\\\PriceGuranteeStaking.sol\":4560:4565  admin */\n      0x00\n      dup1\n      sload\n      swap1\n      0x0100\n      exp\n      swap1\n      div\n      0xffffffffffffffffffffffffffffffffffffffff\n      and\n        /* \"contracts\\\\PriceGuranteeStaking.sol\":4567:4577  stakingFee */\n      dup7\n        /* \"contracts\\\\PriceGuranteeStaking.sol\":4527:4578  IERC20(grlTokenAddress).transfer(admin, stakingFee) */\n      mload(0x40)\n      dup4\n      0xffffffff\n      and\n      0xe0\n      shl\n      dup2\n      mstore\n      0x04\n      add\n      tag_129\n      swap3\n      swap2\n      swap1\n      tag_130\n      jump\t// in\n    tag_129:\n      0x20\n      mload(0x40)\n      dup1\n      dup4\n      sub\n      dup2\n      0x00\n      dup8\n      gas\n      call\n      iszero\n      dup1\n      iszero\n      tag_132\n      jumpi\n      returndatasize\n      0x00\n      dup1\n      returndatacopy\n      revert(0x00, returndatasize)\n    tag_132:\n      pop\n      pop\n      pop\n      pop\n      mload(0x40)\n      returndatasize\n      not(0x1f)\n      0x1f\n      dup3\n      add\n      and\n      dup3\n      add\n      dup1\n      0x40\n      mstore\n      pop\n      dup2\n      add\n      swap1\n      tag_133\n      swap2\n      swap1\n      tag_125\n      jump\t// in\n    tag_133:\n      pop\n        /* \"contracts\\\\PriceGuranteeStaking.sol\":4640:4650  msg.sender */\n      caller\n        /* \"contracts\\\\PriceGuranteeStaking.sol\":4619:4817  Staked(... */\n      0xffffffffffffffffffffffffffffffffffffffff\n      and\n      0xc16be9a586414a157dd46b4d023aa9997a025dd1cbbaa67ac0c1b8273a5eaf55\n        /* \"contracts\\\\PriceGuranteeStaking.sol\":4665:4671  amount */\n      dup9\n        /* \"contracts\\\\PriceGuranteeStaking.sol\":4686:4700  durationInDays */\n      dup9\n        /* \"contracts\\\\PriceGuranteeStaking.sol\":4715:4729  stakingEndTime */\n      dup5\n        /* \"contracts\\\\PriceGuranteeStaking.sol\":4744:4755  grlUsdPrice */\n      dup10\n        /* \"contracts\\\\PriceGuranteeStaking.sol\":4770:4780  stakingFee */\n      dup10\n        /* \"contracts\\\\PriceGuranteeStaking.sol\":4795:4806  amountInUsd */\n      dup9\n        /* \"contracts\\\\PriceGuranteeStaking.sol\":4619:4817  Staked(... */\n      mload(0x40)\n      tag_134\n      swap7\n      swap6\n      swap5\n      swap4\n      swap3\n      swap2\n      swap1\n      tag_135\n      jump\t// in\n    tag_134:\n      mload(0x40)\n      dup1\n      swap2\n      sub\n      swap1\n      log2\n        /* \"contracts\\\\PriceGuranteeStaking.sol\":3486:4825  {... */\n      pop\n      pop\n      pop\n      pop\n      pop\n        /* \"contracts\\\\PriceGuranteeStaking.sol\":3419:4825  function stakeGrl(uint256 amount, uint256 durationInDays) external {... */\n      pop\n      pop\n      jump\t// out\n        /* \"contracts\\\\PriceGuranteeStaking.sol\":860:886  address public wethAddress */\n    tag_51:\n      0x02\n      0x00\n      swap1\n      sload\n      swap1\n      0x0100\n      exp\n      swap1\n      div\n      0xffffffffffffffffffffffffffffffffffffffff\n      and\n      dup2\n      jump\t// out\n        /* \"contracts\\\\PriceGuranteeStaking.sol\":2756:3159  function getPriceOfGrlInEth() public view returns (uint256) {... */\n    tag_54:\n        /* \"contracts\\\\PriceGuranteeStaking.sol\":2807:2814  uint256 */\n      0x00\n        /* \"contracts\\\\PriceGuranteeStaking.sol\":2827:2848  address[] memory path */\n      dup1\n        /* \"contracts\\\\PriceGuranteeStaking.sol\":2865:2866  2 */\n      0x02\n        /* \"contracts\\\\PriceGuranteeStaking.sol\":2851:2867  new address[](2) */\n      0xffffffffffffffff\n      dup2\n      gt\n      iszero\n      tag_137\n      jumpi\n      tag_138\n      tag_139\n      jump\t// in\n    tag_138:\n    tag_137:\n      mload(0x40)\n      swap1\n      dup1\n      dup3\n      mstore\n      dup1\n      0x20\n      mul\n      0x20\n      add\n      dup3\n      add\n      0x40\n      mstore\n      dup1\n      iszero\n      tag_140\n      jumpi\n      dup2\n      0x20\n      add\n      0x20\n      dup3\n      mul\n      dup1\n      calldatasize\n      dup4\n      calldatacopy\n      dup1\n      dup3\n      add\n      swap2\n      pop\n      pop\n      swap1\n      pop\n    tag_140:\n      pop\n        /* \"contracts\\\\PriceGuranteeStaking.sol\":2827:2867  address[] memory path = new address[](2) */\n      swap1\n      pop\n        /* \"contracts\\\\PriceGuranteeStaking.sol\":2888:2903  grlTokenAddress */\n      0x01\n      0x00\n      swap1\n      sload\n      swap1\n      0x0100\n      exp\n      swap1\n      div\n      0xffffffffffffffffffffffffffffffffffffffff\n      and\n        /* \"contracts\\\\PriceGuranteeStaking.sol\":2878:2882  path */\n      dup2\n        /* \"contracts\\\\PriceGuranteeStaking.sol\":2883:2884  0 */\n      0x00\n        /* \"contracts\\\\PriceGuranteeStaking.sol\":2878:2885  path[0] */\n      dup2\n      mload\n      dup2\n      lt\n      tag_141\n      jumpi\n      tag_142\n      tag_88\n      jump\t// in\n    tag_142:\n    tag_141:\n      0x20\n      mul\n      0x20\n      add\n      add\n        /* \"contracts\\\\PriceGuranteeStaking.sol\":2878:2903  path[0] = grlTokenAddress */\n      swap1\n      0xffffffffffffffffffffffffffffffffffffffff\n      and\n      swap1\n      dup2\n      0xffffffffffffffffffffffffffffffffffffffff\n      and\n      dup2\n      mstore\n      pop\n      pop\n        /* \"contracts\\\\PriceGuranteeStaking.sol\":2924:2935  wethAddress */\n      0x02\n      0x00\n      swap1\n      sload\n      swap1\n      0x0100\n      exp\n      swap1\n      div\n      0xffffffffffffffffffffffffffffffffffffffff\n      and\n        /* \"contracts\\\\PriceGuranteeStaking.sol\":2914:2918  path */\n      dup2\n        /* \"contracts\\\\PriceGuranteeStaking.sol\":2919:2920  1 */\n      0x01\n        /* \"contracts\\\\PriceGuranteeStaking.sol\":2914:2921  path[1] */\n      dup2\n      mload\n      dup2\n      lt\n      tag_143\n      jumpi\n      tag_144\n      tag_88\n      jump\t// in\n    tag_144:\n    tag_143:\n      0x20\n      mul\n      0x20\n      add\n      add\n        /* \"contracts\\\\PriceGuranteeStaking.sol\":2914:2935  path[1] = wethAddress */\n      swap1\n      0xffffffffffffffffffffffffffffffffffffffff\n      and\n      swap1\n      dup2\n      0xffffffffffffffffffffffffffffffffffffffff\n      and\n      dup2\n      mstore\n      pop\n      pop\n        /* \"contracts\\\\PriceGuranteeStaking.sol\":2948:2971  IUniswapV2Router router */\n      0x00\n        /* \"contracts\\\\PriceGuranteeStaking.sol\":2991:3011  uniswapRouterAddress */\n      0x03\n      0x00\n      swap1\n      sload\n      swap1\n      0x0100\n      exp\n      swap1\n      div\n      0xffffffffffffffffffffffffffffffffffffffff\n      and\n        /* \"contracts\\\\PriceGuranteeStaking.sol\":2948:3012  IUniswapV2Router router = IUniswapV2Router(uniswapRouterAddress) */\n      swap1\n      pop\n        /* \"contracts\\\\PriceGuranteeStaking.sol\":3023:3044  uint[] memory amounts */\n      0x00\n        /* \"contracts\\\\PriceGuranteeStaking.sol\":3047:3053  router */\n      dup2\n        /* \"contracts\\\\PriceGuranteeStaking.sol\":3047:3067  router.getAmountsOut */\n      0xffffffffffffffffffffffffffffffffffffffff\n      and\n      0xd06ca61f\n        /* \"contracts\\\\PriceGuranteeStaking.sol\":3068:3071  1e9 */\n      0x3b9aca00\n        /* \"contracts\\\\PriceGuranteeStaking.sol\":3073:3077  path */\n      dup6\n        /* \"contracts\\\\PriceGuranteeStaking.sol\":3047:3078  router.getAmountsOut(1e9, path) */\n      mload(0x40)\n      dup4\n      0xffffffff\n      and\n      0xe0\n      shl\n      dup2\n      mstore\n      0x04\n      add\n      tag_145\n      swap3\n      swap2\n      swap1\n      tag_146\n      jump\t// in\n    tag_145:\n      0x00\n      mload(0x40)\n      dup1\n      dup4\n      sub\n      dup2\n      dup7\n      gas\n      staticcall\n      iszero\n      dup1\n      iszero\n      tag_148\n      jumpi\n      returndatasize\n      0x00\n      dup1\n      returndatacopy\n      revert(0x00, returndatasize)\n    tag_148:\n      pop\n      pop\n      pop\n      pop\n      mload(0x40)\n      returndatasize\n      0x00\n      dup3\n      returndatacopy\n      returndatasize\n      not(0x1f)\n      0x1f\n      dup3\n      add\n      and\n      dup3\n      add\n      dup1\n      0x40\n      mstore\n      pop\n      dup2\n      add\n      swap1\n      tag_149\n      swap2\n      swap1\n      tag_150\n      jump\t// in\n    tag_149:\n        /* \"contracts\\\\PriceGuranteeStaking.sol\":3023:3078  uint[] memory amounts = router.getAmountsOut(1e9, path) */\n      swap1\n      pop\n        /* \"contracts\\\\PriceGuranteeStaking.sol\":3123:3130  amounts */\n      dup1\n        /* \"contracts\\\\PriceGuranteeStaking.sol\":3131:3132  1 */\n      0x01\n        /* \"contracts\\\\PriceGuranteeStaking.sol\":3123:3133  amounts[1] */\n      dup2\n      mload\n      dup2\n      lt\n      tag_151\n      jumpi\n      tag_152\n      tag_88\n      jump\t// in\n    tag_152:\n    tag_151:\n      0x20\n      mul\n      0x20\n      add\n      add\n      mload\n        /* \"contracts\\\\PriceGuranteeStaking.sol\":3116:3133  return amounts[1] */\n      swap4\n      pop\n      pop\n      pop\n      pop\n        /* \"contracts\\\\PriceGuranteeStaking.sol\":2756:3159  function getPriceOfGrlInEth() public view returns (uint256) {... */\n      swap1\n      jump\t// out\n        /* \"contracts\\\\PriceGuranteeStaking.sol\":2134:2393  function setStakingFeePercentage(... */\n    tag_58:\n        /* \"contracts\\\\PriceGuranteeStaking.sol\":7034:7039  admin */\n      0x00\n      dup1\n      sload\n      swap1\n      0x0100\n      exp\n      swap1\n      div\n      0xffffffffffffffffffffffffffffffffffffffff\n      and\n        /* \"contracts\\\\PriceGuranteeStaking.sol\":7020:7039  msg.sender == admin */\n      0xffffffffffffffffffffffffffffffffffffffff\n      and\n        /* \"contracts\\\\PriceGuranteeStaking.sol\":7020:7030  msg.sender */\n      caller\n        /* \"contracts\\\\PriceGuranteeStaking.sol\":7020:7039  msg.sender == admin */\n      0xffffffffffffffffffffffffffffffffffffffff\n      and\n      eq\n        /* \"contracts\\\\PriceGuranteeStaking.sol\":7012:7077  require(msg.sender == admin, \"Only admin can call this function\") */\n      tag_154\n      jumpi\n      mload(0x40)\n      0x08c379a000000000000000000000000000000000000000000000000000000000\n      dup2\n      mstore\n      0x04\n      add\n      tag_155\n      swap1\n      tag_156\n      jump\t// in\n    tag_155:\n      mload(0x40)\n      dup1\n      swap2\n      sub\n      swap1\n      revert\n    tag_154:\n        /* \"contracts\\\\PriceGuranteeStaking.sol\":2300:2301  0 */\n      0x00\n        /* \"contracts\\\\PriceGuranteeStaking.sol\":2294:2296  30 */\n      0x1e\n        /* \"contracts\\\\PriceGuranteeStaking.sol\":2277:2291  durationInDays */\n      dup4\n        /* \"contracts\\\\PriceGuranteeStaking.sol\":2277:2296  durationInDays % 30 */\n      tag_158\n      swap2\n      swap1\n      tag_159\n      jump\t// in\n    tag_158:\n        /* \"contracts\\\\PriceGuranteeStaking.sol\":2277:2301  durationInDays % 30 == 0 */\n      eq\n        /* \"contracts\\\\PriceGuranteeStaking.sol\":2269:2322  require(durationInDays % 30 == 0, \"Invalid duration\") */\n      tag_160\n      jumpi\n      mload(0x40)\n      0x08c379a000000000000000000000000000000000000000000000000000000000\n      dup2\n      mstore\n      0x04\n      add\n      tag_161\n      swap1\n      tag_112\n      jump\t// in\n    tag_161:\n      mload(0x40)\n      dup1\n      swap2\n      sub\n      swap1\n      revert\n    tag_160:\n        /* \"contracts\\\\PriceGuranteeStaking.sol\":2372:2385  feePercentage */\n      dup1\n        /* \"contracts\\\\PriceGuranteeStaking.sol\":2333:2353  stakingFeePercentage */\n      0x05\n        /* \"contracts\\\\PriceGuranteeStaking.sol\":2333:2369  stakingFeePercentage[durationInDays] */\n      0x00\n        /* \"contracts\\\\PriceGuranteeStaking.sol\":2354:2368  durationInDays */\n      dup5\n        /* \"contracts\\\\PriceGuranteeStaking.sol\":2333:2369  stakingFeePercentage[durationInDays] */\n      dup2\n      mstore\n      0x20\n      add\n      swap1\n      dup2\n      mstore\n      0x20\n      add\n      0x00\n      keccak256\n        /* \"contracts\\\\PriceGuranteeStaking.sol\":2333:2385  stakingFeePercentage[durationInDays] = feePercentage */\n      dup2\n      swap1\n      sstore\n      pop\n        /* \"contracts\\\\PriceGuranteeStaking.sol\":2134:2393  function setStakingFeePercentage(... */\n      pop\n      pop\n      jump\t// out\n        /* \"contracts\\\\PriceGuranteeStaking.sol\":2401:2748  function getEthToUsdValue() public view returns (uint256) {... */\n    tag_60:\n        /* \"contracts\\\\PriceGuranteeStaking.sol\":2450:2457  uint256 */\n      0x00\n        /* \"contracts\\\\PriceGuranteeStaking.sol\":2470:2506  AggregatorInterface ethUsdAggregator */\n      dup1\n        /* \"contracts\\\\PriceGuranteeStaking.sol\":2543:2566  ethUsdAggregatorAddress */\n      0x04\n      0x00\n      swap1\n      sload\n      swap1\n      0x0100\n      exp\n      swap1\n      div\n      0xffffffffffffffffffffffffffffffffffffffff\n      and\n        /* \"contracts\\\\PriceGuranteeStaking.sol\":2470:2577  AggregatorInterface ethUsdAggregator = AggregatorInterface(... */\n      swap1\n      pop\n        /* \"contracts\\\\PriceGuranteeStaking.sol\":2588:2606  int256 ethUsdPrice */\n      0x00\n        /* \"contracts\\\\PriceGuranteeStaking.sol\":2609:2625  ethUsdAggregator */\n      dup2\n        /* \"contracts\\\\PriceGuranteeStaking.sol\":2609:2638  ethUsdAggregator.latestAnswer */\n      0xffffffffffffffffffffffffffffffffffffffff\n      and\n      0x50d25bcd\n        /* \"contracts\\\\PriceGuranteeStaking.sol\":2609:2640  ethUsdAggregator.latestAnswer() */\n      mload(0x40)\n      dup2\n      0xffffffff\n      and\n      0xe0\n      shl\n      dup2\n      mstore\n      0x04\n      add\n      0x20\n      mload(0x40)\n      dup1\n      dup4\n      sub\n      dup2\n      dup7\n      gas\n      staticcall\n      iszero\n      dup1\n      iszero\n      tag_164\n      jumpi\n      returndatasize\n      0x00\n      dup1\n      returndatacopy\n      revert(0x00, returndatasize)\n    tag_164:\n      pop\n      pop\n      pop\n      pop\n      mload(0x40)\n      returndatasize\n      not(0x1f)\n      0x1f\n      dup3\n      add\n      and\n      dup3\n      add\n      dup1\n      0x40\n      mstore\n      pop\n      dup2\n      add\n      swap1\n      tag_165\n      swap2\n      swap1\n      tag_166\n      jump\t// in\n    tag_165:\n        /* \"contracts\\\\PriceGuranteeStaking.sol\":2588:2640  int256 ethUsdPrice = ethUsdAggregator.latestAnswer() */\n      swap1\n      pop\n        /* \"contracts\\\\PriceGuranteeStaking.sol\":2673:2674  0 */\n      0x00\n        /* \"contracts\\\\PriceGuranteeStaking.sol\":2659:2670  ethUsdPrice */\n      dup2\n        /* \"contracts\\\\PriceGuranteeStaking.sol\":2659:2674  ethUsdPrice > 0 */\n      sgt\n        /* \"contracts\\\\PriceGuranteeStaking.sol\":2651:2700  require(ethUsdPrice > 0, \"Invalid ETH/USD price\") */\n      tag_167\n      jumpi\n      mload(0x40)\n      0x08c379a000000000000000000000000000000000000000000000000000000000\n      dup2\n      mstore\n      0x04\n      add\n      tag_168\n      swap1\n      tag_169\n      jump\t// in\n    tag_168:\n      mload(0x40)\n      dup1\n      swap2\n      sub\n      swap1\n      revert\n    tag_167:\n        /* \"contracts\\\\PriceGuranteeStaking.sol\":2728:2739  ethUsdPrice */\n      dup1\n        /* \"contracts\\\\PriceGuranteeStaking.sol\":2713:2740  return uint256(ethUsdPrice) */\n      swap3\n      pop\n      pop\n      pop\n        /* \"contracts\\\\PriceGuranteeStaking.sol\":2401:2748  function getEthToUsdValue() public view returns (uint256) {... */\n      swap1\n      jump\t// out\n        /* \"contracts\\\\PriceGuranteeStaking.sol\":1407:1452  mapping(address => Stake[]) public userStakes */\n    tag_65:\n      mstore(0x20, 0x06)\n      dup2\n      0x00\n      mstore\n      keccak256(0x00, 0x40)\n      dup2\n      dup2\n      sload\n      dup2\n      lt\n      tag_170\n      jumpi\n      0x00\n      dup1\n      revert\n    tag_170:\n      swap1\n      0x00\n      mstore\n      keccak256(0x00, 0x20)\n      swap1\n      0x05\n      mul\n      add\n      0x00\n      swap2\n      pop\n      swap2\n      pop\n      pop\n      dup1\n      0x00\n      add\n      sload\n      swap1\n      dup1\n      0x01\n      add\n      sload\n      swap1\n      dup1\n      0x02\n      add\n      sload\n      swap1\n      dup1\n      0x03\n      add\n      sload\n      swap1\n      dup1\n      0x04\n      add\n      sload\n      swap1\n      pop\n      dup6\n      jump\t// out\n        /* \"contracts\\\\PriceGuranteeStaking.sol\":3167:3411  function calculatePriceOfGrlInUsd() public view returns (uint256) {... */\n    tag_69:\n        /* \"contracts\\\\PriceGuranteeStaking.sol\":3224:3231  uint256 */\n      0x00\n        /* \"contracts\\\\PriceGuranteeStaking.sol\":3244:3263  uint256 ethUsdPrice */\n      dup1\n        /* \"contracts\\\\PriceGuranteeStaking.sol\":3266:3284  getEthToUsdValue() */\n      tag_173\n        /* \"contracts\\\\PriceGuranteeStaking.sol\":3266:3282  getEthToUsdValue */\n      tag_60\n        /* \"contracts\\\\PriceGuranteeStaking.sol\":3266:3284  getEthToUsdValue() */\n      jump\t// in\n    tag_173:\n        /* \"contracts\\\\PriceGuranteeStaking.sol\":3244:3284  uint256 ethUsdPrice = getEthToUsdValue() */\n      swap1\n      pop\n        /* \"contracts\\\\PriceGuranteeStaking.sol\":3295:3314  uint256 grlEthPrice */\n      0x00\n        /* \"contracts\\\\PriceGuranteeStaking.sol\":3317:3337  getPriceOfGrlInEth() */\n      tag_174\n        /* \"contracts\\\\PriceGuranteeStaking.sol\":3317:3335  getPriceOfGrlInEth */\n      tag_54\n        /* \"contracts\\\\PriceGuranteeStaking.sol\":3317:3337  getPriceOfGrlInEth() */\n      jump\t// in\n    tag_174:\n        /* \"contracts\\\\PriceGuranteeStaking.sol\":3295:3337  uint256 grlEthPrice = getPriceOfGrlInEth() */\n      swap1\n      pop\n        /* \"contracts\\\\PriceGuranteeStaking.sol\":1015:1017  18 */\n      0x12\n        /* \"contracts\\\\PriceGuranteeStaking.sol\":3388:3390  10 */\n      0x0a\n        /* \"contracts\\\\PriceGuranteeStaking.sol\":3388:3402  10 ** DECIMALS */\n      tag_175\n      swap2\n      swap1\n      tag_98\n      jump\t// in\n    tag_175:\n        /* \"contracts\\\\PriceGuranteeStaking.sol\":3372:3383  ethUsdPrice */\n      dup3\n        /* \"contracts\\\\PriceGuranteeStaking.sol\":3358:3369  grlEthPrice */\n      dup3\n        /* \"contracts\\\\PriceGuranteeStaking.sol\":3358:3383  grlEthPrice * ethUsdPrice */\n      tag_176\n      swap2\n      swap1\n      tag_100\n      jump\t// in\n    tag_176:\n        /* \"contracts\\\\PriceGuranteeStaking.sol\":3357:3403  (grlEthPrice * ethUsdPrice) / (10 ** DECIMALS) */\n      tag_177\n      swap2\n      swap1\n      tag_102\n      jump\t// in\n    tag_177:\n        /* \"contracts\\\\PriceGuranteeStaking.sol\":3350:3403  return (grlEthPrice * ethUsdPrice) / (10 ** DECIMALS) */\n      swap3\n      pop\n      pop\n      pop\n        /* \"contracts\\\\PriceGuranteeStaking.sol\":3167:3411  function calculatePriceOfGrlInUsd() public view returns (uint256) {... */\n      swap1\n      jump\t// out\n        /* \"contracts\\\\PriceGuranteeStaking.sol\":823:853  address public grlTokenAddress */\n    tag_72:\n      0x01\n      0x00\n      swap1\n      sload\n      swap1\n      0x0100\n      exp\n      swap1\n      div\n      0xffffffffffffffffffffffffffffffffffffffff\n      and\n      dup2\n      jump\t// out\n        /* \"contracts\\\\PriceGuranteeStaking.sol\":6185:6590  function getUserStakeDetails(address user, uint256 index) external view returns (uint256 durationInDays, uint256 amount, uint256 timestamp, uint256 priceInUsd, uint256 amountInUsd) {... */\n    tag_76:\n        /* \"contracts\\\\PriceGuranteeStaking.sol\":6266:6288  uint256 durationInDays */\n      0x00\n        /* \"contracts\\\\PriceGuranteeStaking.sol\":6290:6304  uint256 amount */\n      dup1\n        /* \"contracts\\\\PriceGuranteeStaking.sol\":6306:6323  uint256 timestamp */\n      0x00\n        /* \"contracts\\\\PriceGuranteeStaking.sol\":6325:6343  uint256 priceInUsd */\n      dup1\n        /* \"contracts\\\\PriceGuranteeStaking.sol\":6345:6364  uint256 amountInUsd */\n      0x00\n        /* \"contracts\\\\PriceGuranteeStaking.sol\":6389:6399  userStakes */\n      0x06\n        /* \"contracts\\\\PriceGuranteeStaking.sol\":6389:6405  userStakes[user] */\n      0x00\n        /* \"contracts\\\\PriceGuranteeStaking.sol\":6400:6404  user */\n      dup9\n        /* \"contracts\\\\PriceGuranteeStaking.sol\":6389:6405  userStakes[user] */\n      0xffffffffffffffffffffffffffffffffffffffff\n      and\n      0xffffffffffffffffffffffffffffffffffffffff\n      and\n      dup2\n      mstore\n      0x20\n      add\n      swap1\n      dup2\n      mstore\n      0x20\n      add\n      0x00\n      keccak256\n        /* \"contracts\\\\PriceGuranteeStaking.sol\":6389:6412  userStakes[user].length */\n      dup1\n      sload\n      swap1\n      pop\n        /* \"contracts\\\\PriceGuranteeStaking.sol\":6381:6386  index */\n      dup7\n        /* \"contracts\\\\PriceGuranteeStaking.sol\":6381:6412  index < userStakes[user].length */\n      lt\n        /* \"contracts\\\\PriceGuranteeStaking.sol\":6373:6430  require(index < userStakes[user].length, \"Invalid index\") */\n      tag_179\n      jumpi\n      mload(0x40)\n      0x08c379a000000000000000000000000000000000000000000000000000000000\n      dup2\n      mstore\n      0x04\n      add\n      tag_180\n      swap1\n      tag_85\n      jump\t// in\n    tag_180:\n      mload(0x40)\n      dup1\n      swap2\n      sub\n      swap1\n      revert\n    tag_179:\n        /* \"contracts\\\\PriceGuranteeStaking.sol\":6437:6456  Stake storage stake */\n      0x00\n        /* \"contracts\\\\PriceGuranteeStaking.sol\":6459:6469  userStakes */\n      0x06\n        /* \"contracts\\\\PriceGuranteeStaking.sol\":6459:6475  userStakes[user] */\n      0x00\n        /* \"contracts\\\\PriceGuranteeStaking.sol\":6470:6474  user */\n      dup10\n        /* \"contracts\\\\PriceGuranteeStaking.sol\":6459:6475  userStakes[user] */\n      0xffffffffffffffffffffffffffffffffffffffff\n      and\n      0xffffffffffffffffffffffffffffffffffffffff\n      and\n      dup2\n      mstore\n      0x20\n      add\n      swap1\n      dup2\n      mstore\n      0x20\n      add\n      0x00\n      keccak256\n        /* \"contracts\\\\PriceGuranteeStaking.sol\":6476:6481  index */\n      dup8\n        /* \"contracts\\\\PriceGuranteeStaking.sol\":6459:6482  userStakes[user][index] */\n      dup2\n      sload\n      dup2\n      lt\n      tag_181\n      jumpi\n      tag_182\n      tag_88\n      jump\t// in\n    tag_182:\n    tag_181:\n      swap1\n      0x00\n      mstore\n      keccak256(0x00, 0x20)\n      swap1\n      0x05\n      mul\n      add\n        /* \"contracts\\\\PriceGuranteeStaking.sol\":6437:6482  Stake storage stake = userStakes[user][index] */\n      swap1\n      pop\n        /* \"contracts\\\\PriceGuranteeStaking.sol\":6497:6502  stake */\n      dup1\n        /* \"contracts\\\\PriceGuranteeStaking.sol\":6497:6517  stake.durationInDays */\n      0x00\n      add\n      sload\n        /* \"contracts\\\\PriceGuranteeStaking.sol\":6519:6524  stake */\n      dup2\n        /* \"contracts\\\\PriceGuranteeStaking.sol\":6519:6531  stake.amount */\n      0x01\n      add\n      sload\n        /* \"contracts\\\\PriceGuranteeStaking.sol\":6533:6538  stake */\n      dup3\n        /* \"contracts\\\\PriceGuranteeStaking.sol\":6533:6548  stake.timestamp */\n      0x02\n      add\n      sload\n        /* \"contracts\\\\PriceGuranteeStaking.sol\":6550:6555  stake */\n      dup4\n        /* \"contracts\\\\PriceGuranteeStaking.sol\":6550:6566  stake.priceInUsd */\n      0x03\n      add\n      sload\n        /* \"contracts\\\\PriceGuranteeStaking.sol\":6568:6573  stake */\n      dup5\n        /* \"contracts\\\\PriceGuranteeStaking.sol\":6568:6585  stake.amountInUsd */\n      0x04\n      add\n      sload\n        /* \"contracts\\\\PriceGuranteeStaking.sol\":6489:6586  return (stake.durationInDays, stake.amount, stake.timestamp, stake.priceInUsd, stake.amountInUsd) */\n      swap6\n      pop\n      swap6\n      pop\n      swap6\n      pop\n      swap6\n      pop\n      swap6\n      pop\n      pop\n        /* \"contracts\\\\PriceGuranteeStaking.sol\":6185:6590  function getUserStakeDetails(address user, uint256 index) external view returns (uint256 durationInDays, uint256 amount, uint256 timestamp, uint256 priceInUsd, uint256 amountInUsd) {... */\n      swap3\n      swap6\n      pop\n      swap3\n      swap6\n      swap1\n      swap4\n      pop\n      jump\t// out\n        /* \"contracts\\\\PriceGuranteeStaking.sol\":796:816  address public admin */\n    tag_79:\n      0x00\n      dup1\n      sload\n      swap1\n      0x0100\n      exp\n      swap1\n      div\n      0xffffffffffffffffffffffffffffffffffffffff\n      and\n      dup2\n      jump\t// out\n        /* \"contracts\\\\PriceGuranteeStaking.sol\":6600:6972  function calculateStakingFee(... */\n    tag_115:\n        /* \"contracts\\\\PriceGuranteeStaking.sol\":6717:6724  uint256 */\n      0x00\n        /* \"contracts\\\\PriceGuranteeStaking.sol\":6737:6758  uint256 feePercentage */\n      dup1\n        /* \"contracts\\\\PriceGuranteeStaking.sol\":6761:6781  stakingFeePercentage */\n      0x05\n        /* \"contracts\\\\PriceGuranteeStaking.sol\":6761:6797  stakingFeePercentage[durationInDays] */\n      0x00\n        /* \"contracts\\\\PriceGuranteeStaking.sol\":6782:6796  durationInDays */\n      dup6\n        /* \"contracts\\\\PriceGuranteeStaking.sol\":6761:6797  stakingFeePercentage[durationInDays] */\n      dup2\n      mstore\n      0x20\n      add\n      swap1\n      dup2\n      mstore\n      0x20\n      add\n      0x00\n      keccak256\n      sload\n        /* \"contracts\\\\PriceGuranteeStaking.sol\":6737:6797  uint256 feePercentage = stakingFeePercentage[durationInDays] */\n      swap1\n      pop\n        /* \"contracts\\\\PriceGuranteeStaking.sol\":6832:6833  0 */\n      0x00\n        /* \"contracts\\\\PriceGuranteeStaking.sol\":6816:6829  feePercentage */\n      dup2\n        /* \"contracts\\\\PriceGuranteeStaking.sol\":6816:6833  feePercentage > 0 */\n      gt\n        /* \"contracts\\\\PriceGuranteeStaking.sol\":6808:6878  require(feePercentage > 0, \"Fee percentage not set for this duration\") */\n      tag_185\n      jumpi\n      mload(0x40)\n      0x08c379a000000000000000000000000000000000000000000000000000000000\n      dup2\n      mstore\n      0x04\n      add\n      tag_186\n      swap1\n      tag_187\n      jump\t// in\n    tag_186:\n      mload(0x40)\n      dup1\n      swap2\n      sub\n      swap1\n      revert\n    tag_185:\n        /* \"contracts\\\\PriceGuranteeStaking.sol\":6923:6928  10000 */\n      0x2710\n        /* \"contracts\\\\PriceGuranteeStaking.sol\":6906:6919  feePercentage */\n      dup2\n        /* \"contracts\\\\PriceGuranteeStaking.sol\":6897:6903  amount */\n      dup5\n        /* \"contracts\\\\PriceGuranteeStaking.sol\":6897:6919  amount * feePercentage */\n      tag_188\n      swap2\n      swap1\n      tag_100\n      jump\t// in\n    tag_188:\n        /* \"contracts\\\\PriceGuranteeStaking.sol\":6896:6928  (amount * feePercentage) / 10000 */\n      tag_189\n      swap2\n      swap1\n      tag_102\n      jump\t// in\n    tag_189:\n        /* \"contracts\\\\PriceGuranteeStaking.sol\":6889:6928  return (amount * feePercentage) / 10000 */\n      swap2\n      pop\n      pop\n        /* \"contracts\\\\PriceGuranteeStaking.sol\":6600:6972  function calculateStakingFee(... */\n      swap3\n      swap2\n      pop\n      pop\n      jump\t// out\n        /* \"#utility.yul\":7:133   */\n    tag_190:\n        /* \"#utility.yul\":44:51   */\n      0x00\n        /* \"#utility.yul\":84:126   */\n      0xffffffffffffffffffffffffffffffffffffffff\n        /* \"#utility.yul\":77:82   */\n      dup3\n        /* \"#utility.yul\":73:127   */\n      and\n        /* \"#utility.yul\":62:127   */\n      swap1\n      pop\n        /* \"#utility.yul\":7:133   */\n      swap2\n      swap1\n      pop\n      jump\t// out\n        /* \"#utility.yul\":139:235   */\n    tag_191:\n        /* \"#utility.yul\":176:183   */\n      0x00\n        /* \"#utility.yul\":205:229   */\n      tag_249\n        /* \"#utility.yul\":223:228   */\n      dup3\n        /* \"#utility.yul\":205:229   */\n      tag_190\n      jump\t// in\n    tag_249:\n        /* \"#utility.yul\":194:229   */\n      swap1\n      pop\n        /* \"#utility.yul\":139:235   */\n      swap2\n      swap1\n      pop\n      jump\t// out\n        /* \"#utility.yul\":241:359   */\n    tag_192:\n        /* \"#utility.yul\":328:352   */\n      tag_251\n        /* \"#utility.yul\":346:351   */\n      dup2\n        /* \"#utility.yul\":328:352   */\n      tag_191\n      jump\t// in\n    tag_251:\n        /* \"#utility.yul\":323:326   */\n      dup3\n        /* \"#utility.yul\":316:353   */\n      mstore\n        /* \"#utility.yul\":241:359   */\n      pop\n      pop\n      jump\t// out\n        /* \"#utility.yul\":365:587   */\n    tag_25:\n        /* \"#utility.yul\":458:462   */\n      0x00\n        /* \"#utility.yul\":496:498   */\n      0x20\n        /* \"#utility.yul\":485:494   */\n      dup3\n        /* \"#utility.yul\":481:499   */\n      add\n        /* \"#utility.yul\":473:499   */\n      swap1\n      pop\n        /* \"#utility.yul\":509:580   */\n      tag_253\n        /* \"#utility.yul\":577:578   */\n      0x00\n        /* \"#utility.yul\":566:575   */\n      dup4\n        /* \"#utility.yul\":562:579   */\n      add\n        /* \"#utility.yul\":553:559   */\n      dup5\n        /* \"#utility.yul\":509:580   */\n      tag_192\n      jump\t// in\n    tag_253:\n        /* \"#utility.yul\":365:587   */\n      swap3\n      swap2\n      pop\n      pop\n      jump\t// out\n        /* \"#utility.yul\":593:668   */\n    tag_193:\n        /* \"#utility.yul\":626:632   */\n      0x00\n        /* \"#utility.yul\":659:661   */\n      0x40\n        /* \"#utility.yul\":653:662   */\n      mload\n        /* \"#utility.yul\":643:662   */\n      swap1\n      pop\n        /* \"#utility.yul\":593:668   */\n      swap1\n      jump\t// out\n        /* \"#utility.yul\":674:791   */\n    tag_194:\n        /* \"#utility.yul\":783:784   */\n      0x00\n        /* \"#utility.yul\":780:781   */\n      dup1\n        /* \"#utility.yul\":773:785   */\n      revert\n        /* \"#utility.yul\":797:914   */\n    tag_195:\n        /* \"#utility.yul\":906:907   */\n      0x00\n        /* \"#utility.yul\":903:904   */\n      dup1\n        /* \"#utility.yul\":896:908   */\n      revert\n        /* \"#utility.yul\":920:1042   */\n    tag_196:\n        /* \"#utility.yul\":993:1017   */\n      tag_258\n        /* \"#utility.yul\":1011:1016   */\n      dup2\n        /* \"#utility.yul\":993:1017   */\n      tag_191\n      jump\t// in\n    tag_258:\n        /* \"#utility.yul\":986:991   */\n      dup2\n        /* \"#utility.yul\":983:1018   */\n      eq\n        /* \"#utility.yul\":973:1036   */\n      tag_259\n      jumpi\n        /* \"#utility.yul\":1032:1033   */\n      0x00\n        /* \"#utility.yul\":1029:1030   */\n      dup1\n        /* \"#utility.yul\":1022:1034   */\n      revert\n        /* \"#utility.yul\":973:1036   */\n    tag_259:\n        /* \"#utility.yul\":920:1042   */\n      pop\n      jump\t// out\n        /* \"#utility.yul\":1048:1187   */\n    tag_197:\n        /* \"#utility.yul\":1094:1099   */\n      0x00\n        /* \"#utility.yul\":1132:1138   */\n      dup2\n        /* \"#utility.yul\":1119:1139   */\n      calldataload\n        /* \"#utility.yul\":1110:1139   */\n      swap1\n      pop\n        /* \"#utility.yul\":1148:1181   */\n      tag_261\n        /* \"#utility.yul\":1175:1180   */\n      dup2\n        /* \"#utility.yul\":1148:1181   */\n      tag_196\n      jump\t// in\n    tag_261:\n        /* \"#utility.yul\":1048:1187   */\n      swap3\n      swap2\n      pop\n      pop\n      jump\t// out\n        /* \"#utility.yul\":1193:1522   */\n    tag_28:\n        /* \"#utility.yul\":1252:1258   */\n      0x00\n        /* \"#utility.yul\":1301:1303   */\n      0x20\n        /* \"#utility.yul\":1289:1298   */\n      dup3\n        /* \"#utility.yul\":1280:1287   */\n      dup5\n        /* \"#utility.yul\":1276:1299   */\n      sub\n        /* \"#utility.yul\":1272:1304   */\n      slt\n        /* \"#utility.yul\":1269:1388   */\n      iszero\n      tag_263\n      jumpi\n        /* \"#utility.yul\":1307:1386   */\n      tag_264\n      tag_194\n      jump\t// in\n    tag_264:\n        /* \"#utility.yul\":1269:1388   */\n    tag_263:\n        /* \"#utility.yul\":1427:1428   */\n      0x00\n        /* \"#utility.yul\":1452:1505   */\n      tag_265\n        /* \"#utility.yul\":1497:1504   */\n      dup5\n        /* \"#utility.yul\":1488:1494   */\n      dup3\n        /* \"#utility.yul\":1477:1486   */\n      dup6\n        /* \"#utility.yul\":1473:1495   */\n      add\n        /* \"#utility.yul\":1452:1505   */\n      tag_197\n      jump\t// in\n    tag_265:\n        /* \"#utility.yul\":1442:1505   */\n      swap2\n      pop\n        /* \"#utility.yul\":1398:1515   */\n      pop\n        /* \"#utility.yul\":1193:1522   */\n      swap3\n      swap2\n      pop\n      pop\n      jump\t// out\n        /* \"#utility.yul\":1528:1605   */\n    tag_198:\n        /* \"#utility.yul\":1565:1572   */\n      0x00\n        /* \"#utility.yul\":1594:1599   */\n      dup2\n        /* \"#utility.yul\":1583:1599   */\n      swap1\n      pop\n        /* \"#utility.yul\":1528:1605   */\n      swap2\n      swap1\n      pop\n      jump\t// out\n        /* \"#utility.yul\":1611:1729   */\n    tag_199:\n        /* \"#utility.yul\":1698:1722   */\n      tag_268\n        /* \"#utility.yul\":1716:1721   */\n      dup2\n        /* \"#utility.yul\":1698:1722   */\n      tag_198\n      jump\t// in\n    tag_268:\n        /* \"#utility.yul\":1693:1696   */\n      dup3\n        /* \"#utility.yul\":1686:1723   */\n      mstore\n        /* \"#utility.yul\":1611:1729   */\n      pop\n      pop\n      jump\t// out\n        /* \"#utility.yul\":1735:1957   */\n    tag_31:\n        /* \"#utility.yul\":1828:1832   */\n      0x00\n        /* \"#utility.yul\":1866:1868   */\n      0x20\n        /* \"#utility.yul\":1855:1864   */\n      dup3\n        /* \"#utility.yul\":1851:1869   */\n      add\n        /* \"#utility.yul\":1843:1869   */\n      swap1\n      pop\n        /* \"#utility.yul\":1879:1950   */\n      tag_270\n        /* \"#utility.yul\":1947:1948   */\n      0x00\n        /* \"#utility.yul\":1936:1945   */\n      dup4\n        /* \"#utility.yul\":1932:1949   */\n      add\n        /* \"#utility.yul\":1923:1929   */\n      dup5\n        /* \"#utility.yul\":1879:1950   */\n      tag_199\n      jump\t// in\n    tag_270:\n        /* \"#utility.yul\":1735:1957   */\n      swap3\n      swap2\n      pop\n      pop\n      jump\t// out\n        /* \"#utility.yul\":1963:2085   */\n    tag_200:\n        /* \"#utility.yul\":2036:2060   */\n      tag_272\n        /* \"#utility.yul\":2054:2059   */\n      dup2\n        /* \"#utility.yul\":2036:2060   */\n      tag_198\n      jump\t// in\n    tag_272:\n        /* \"#utility.yul\":2029:2034   */\n      dup2\n        /* \"#utility.yul\":2026:2061   */\n      eq\n        /* \"#utility.yul\":2016:2079   */\n      tag_273\n      jumpi\n        /* \"#utility.yul\":2075:2076   */\n      0x00\n        /* \"#utility.yul\":2072:2073   */\n      dup1\n        /* \"#utility.yul\":2065:2077   */\n      revert\n        /* \"#utility.yul\":2016:2079   */\n    tag_273:\n        /* \"#utility.yul\":1963:2085   */\n      pop\n      jump\t// out\n        /* \"#utility.yul\":2091:2230   */\n    tag_201:\n        /* \"#utility.yul\":2137:2142   */\n      0x00\n        /* \"#utility.yul\":2175:2181   */\n      dup2\n        /* \"#utility.yul\":2162:2182   */\n      calldataload\n        /* \"#utility.yul\":2153:2182   */\n      swap1\n      pop\n        /* \"#utility.yul\":2191:2224   */\n      tag_275\n        /* \"#utility.yul\":2218:2223   */\n      dup2\n        /* \"#utility.yul\":2191:2224   */\n      tag_200\n      jump\t// in\n    tag_275:\n        /* \"#utility.yul\":2091:2230   */\n      swap3\n      swap2\n      pop\n      pop\n      jump\t// out\n        /* \"#utility.yul\":2236:2565   */\n    tag_37:\n        /* \"#utility.yul\":2295:2301   */\n      0x00\n        /* \"#utility.yul\":2344:2346   */\n      0x20\n        /* \"#utility.yul\":2332:2341   */\n      dup3\n        /* \"#utility.yul\":2323:2330   */\n      dup5\n        /* \"#utility.yul\":2319:2342   */\n      sub\n        /* \"#utility.yul\":2315:2347   */\n      slt\n        /* \"#utility.yul\":2312:2431   */\n      iszero\n      tag_277\n      jumpi\n        /* \"#utility.yul\":2350:2429   */\n      tag_278\n      tag_194\n      jump\t// in\n    tag_278:\n        /* \"#utility.yul\":2312:2431   */\n    tag_277:\n        /* \"#utility.yul\":2470:2471   */\n      0x00\n        /* \"#utility.yul\":2495:2548   */\n      tag_279\n        /* \"#utility.yul\":2540:2547   */\n      dup5\n        /* \"#utility.yul\":2531:2537   */\n      dup3\n        /* \"#utility.yul\":2520:2529   */\n      dup6\n        /* \"#utility.yul\":2516:2538   */\n      add\n        /* \"#utility.yul\":2495:2548   */\n      tag_201\n      jump\t// in\n    tag_279:\n        /* \"#utility.yul\":2485:2548   */\n      swap2\n      pop\n        /* \"#utility.yul\":2441:2558   */\n      pop\n        /* \"#utility.yul\":2236:2565   */\n      swap3\n      swap2\n      pop\n      pop\n      jump\t// out\n        /* \"#utility.yul\":2571:3045   */\n    tag_48:\n        /* \"#utility.yul\":2639:2645   */\n      0x00\n        /* \"#utility.yul\":2647:2653   */\n      dup1\n        /* \"#utility.yul\":2696:2698   */\n      0x40\n        /* \"#utility.yul\":2684:2693   */\n      dup4\n        /* \"#utility.yul\":2675:2682   */\n      dup6\n        /* \"#utility.yul\":2671:2694   */\n      sub\n        /* \"#utility.yul\":2667:2699   */\n      slt\n        /* \"#utility.yul\":2664:2783   */\n      iszero\n      tag_281\n      jumpi\n        /* \"#utility.yul\":2702:2781   */\n      tag_282\n      tag_194\n      jump\t// in\n    tag_282:\n        /* \"#utility.yul\":2664:2783   */\n    tag_281:\n        /* \"#utility.yul\":2822:2823   */\n      0x00\n        /* \"#utility.yul\":2847:2900   */\n      tag_283\n        /* \"#utility.yul\":2892:2899   */\n      dup6\n        /* \"#utility.yul\":2883:2889   */\n      dup3\n        /* \"#utility.yul\":2872:2881   */\n      dup7\n        /* \"#utility.yul\":2868:2890   */\n      add\n        /* \"#utility.yul\":2847:2900   */\n      tag_201\n      jump\t// in\n    tag_283:\n        /* \"#utility.yul\":2837:2900   */\n      swap3\n      pop\n        /* \"#utility.yul\":2793:2910   */\n      pop\n        /* \"#utility.yul\":2949:2951   */\n      0x20\n        /* \"#utility.yul\":2975:3028   */\n      tag_284\n        /* \"#utility.yul\":3020:3027   */\n      dup6\n        /* \"#utility.yul\":3011:3017   */\n      dup3\n        /* \"#utility.yul\":3000:3009   */\n      dup7\n        /* \"#utility.yul\":2996:3018   */\n      add\n        /* \"#utility.yul\":2975:3028   */\n      tag_201\n      jump\t// in\n    tag_284:\n        /* \"#utility.yul\":2965:3028   */\n      swap2\n      pop\n        /* \"#utility.yul\":2920:3038   */\n      pop\n        /* \"#utility.yul\":2571:3045   */\n      swap3\n      pop\n      swap3\n      swap1\n      pop\n      jump\t// out\n        /* \"#utility.yul\":3051:3525   */\n    tag_64:\n        /* \"#utility.yul\":3119:3125   */\n      0x00\n        /* \"#utility.yul\":3127:3133   */\n      dup1\n        /* \"#utility.yul\":3176:3178   */\n      0x40\n        /* \"#utility.yul\":3164:3173   */\n      dup4\n        /* \"#utility.yul\":3155:3162   */\n      dup6\n        /* \"#utility.yul\":3151:3174   */\n      sub\n        /* \"#utility.yul\":3147:3179   */\n      slt\n        /* \"#utility.yul\":3144:3263   */\n      iszero\n      tag_286\n      jumpi\n        /* \"#utility.yul\":3182:3261   */\n      tag_287\n      tag_194\n      jump\t// in\n    tag_287:\n        /* \"#utility.yul\":3144:3263   */\n    tag_286:\n        /* \"#utility.yul\":3302:3303   */\n      0x00\n        /* \"#utility.yul\":3327:3380   */\n      tag_288\n        /* \"#utility.yul\":3372:3379   */\n      dup6\n        /* \"#utility.yul\":3363:3369   */\n      dup3\n        /* \"#utility.yul\":3352:3361   */\n      dup7\n        /* \"#utility.yul\":3348:3370   */\n      add\n        /* \"#utility.yul\":3327:3380   */\n      tag_197\n      jump\t// in\n    tag_288:\n        /* \"#utility.yul\":3317:3380   */\n      swap3\n      pop\n        /* \"#utility.yul\":3273:3390   */\n      pop\n        /* \"#utility.yul\":3429:3431   */\n      0x20\n        /* \"#utility.yul\":3455:3508   */\n      tag_289\n        /* \"#utility.yul\":3500:3507   */\n      dup6\n        /* \"#utility.yul\":3491:3497   */\n      dup3\n        /* \"#utility.yul\":3480:3489   */\n      dup7\n        /* \"#utility.yul\":3476:3498   */\n      add\n        /* \"#utility.yul\":3455:3508   */\n      tag_201\n      jump\t// in\n    tag_289:\n        /* \"#utility.yul\":3445:3508   */\n      swap2\n      pop\n        /* \"#utility.yul\":3400:3518   */\n      pop\n        /* \"#utility.yul\":3051:3525   */\n      swap3\n      pop\n      swap3\n      swap1\n      pop\n      jump\t// out\n        /* \"#utility.yul\":3531:4195   */\n    tag_67:\n        /* \"#utility.yul\":3736:3740   */\n      0x00\n        /* \"#utility.yul\":3774:3777   */\n      0xa0\n        /* \"#utility.yul\":3763:3772   */\n      dup3\n        /* \"#utility.yul\":3759:3778   */\n      add\n        /* \"#utility.yul\":3751:3778   */\n      swap1\n      pop\n        /* \"#utility.yul\":3788:3859   */\n      tag_291\n        /* \"#utility.yul\":3856:3857   */\n      0x00\n        /* \"#utility.yul\":3845:3854   */\n      dup4\n        /* \"#utility.yul\":3841:3858   */\n      add\n        /* \"#utility.yul\":3832:3838   */\n      dup9\n        /* \"#utility.yul\":3788:3859   */\n      tag_199\n      jump\t// in\n    tag_291:\n        /* \"#utility.yul\":3869:3941   */\n      tag_292\n        /* \"#utility.yul\":3937:3939   */\n      0x20\n        /* \"#utility.yul\":3926:3935   */\n      dup4\n        /* \"#utility.yul\":3922:3940   */\n      add\n        /* \"#utility.yul\":3913:3919   */\n      dup8\n        /* \"#utility.yul\":3869:3941   */\n      tag_199\n      jump\t// in\n    tag_292:\n        /* \"#utility.yul\":3951:4023   */\n      tag_293\n        /* \"#utility.yul\":4019:4021   */\n      0x40\n        /* \"#utility.yul\":4008:4017   */\n      dup4\n        /* \"#utility.yul\":4004:4022   */\n      add\n        /* \"#utility.yul\":3995:4001   */\n      dup7\n        /* \"#utility.yul\":3951:4023   */\n      tag_199\n      jump\t// in\n    tag_293:\n        /* \"#utility.yul\":4033:4105   */\n      tag_294\n        /* \"#utility.yul\":4101:4103   */\n      0x60\n        /* \"#utility.yul\":4090:4099   */\n      dup4\n        /* \"#utility.yul\":4086:4104   */\n      add\n        /* \"#utility.yul\":4077:4083   */\n      dup6\n        /* \"#utility.yul\":4033:4105   */\n      tag_199\n      jump\t// in\n    tag_294:\n        /* \"#utility.yul\":4115:4188   */\n      tag_295\n        /* \"#utility.yul\":4183:4186   */\n      0x80\n        /* \"#utility.yul\":4172:4181   */\n      dup4\n        /* \"#utility.yul\":4168:4187   */\n      add\n        /* \"#utility.yul\":4159:4165   */\n      dup5\n        /* \"#utility.yul\":4115:4188   */\n      tag_199\n      jump\t// in\n    tag_295:\n        /* \"#utility.yul\":3531:4195   */\n      swap7\n      swap6\n      pop\n      pop\n      pop\n      pop\n      pop\n      pop\n      jump\t// out\n        /* \"#utility.yul\":4201:4370   */\n    tag_202:\n        /* \"#utility.yul\":4285:4296   */\n      0x00\n        /* \"#utility.yul\":4319:4325   */\n      dup3\n        /* \"#utility.yul\":4314:4317   */\n      dup3\n        /* \"#utility.yul\":4307:4326   */\n      mstore\n        /* \"#utility.yul\":4359:4363   */\n      0x20\n        /* \"#utility.yul\":4354:4357   */\n      dup3\n        /* \"#utility.yul\":4350:4364   */\n      add\n        /* \"#utility.yul\":4335:4364   */\n      swap1\n      pop\n        /* \"#utility.yul\":4201:4370   */\n      swap3\n      swap2\n      pop\n      pop\n      jump\t// out\n        /* \"#utility.yul\":4376:4539   */\n    tag_203:\n        /* \"#utility.yul\":4516:4531   */\n      0x496e76616c696420696e64657800000000000000000000000000000000000000\n        /* \"#utility.yul\":4512:4513   */\n      0x00\n        /* \"#utility.yul\":4504:4510   */\n      dup3\n        /* \"#utility.yul\":4500:4514   */\n      add\n        /* \"#utility.yul\":4493:4532   */\n      mstore\n        /* \"#utility.yul\":4376:4539   */\n      pop\n      jump\t// out\n        /* \"#utility.yul\":4545:4911   */\n    tag_204:\n        /* \"#utility.yul\":4687:4690   */\n      0x00\n        /* \"#utility.yul\":4708:4775   */\n      tag_299\n        /* \"#utility.yul\":4772:4774   */\n      0x0d\n        /* \"#utility.yul\":4767:4770   */\n      dup4\n        /* \"#utility.yul\":4708:4775   */\n      tag_202\n      jump\t// in\n    tag_299:\n        /* \"#utility.yul\":4701:4775   */\n      swap2\n      pop\n        /* \"#utility.yul\":4784:4877   */\n      tag_300\n        /* \"#utility.yul\":4873:4876   */\n      dup3\n        /* \"#utility.yul\":4784:4877   */\n      tag_203\n      jump\t// in\n    tag_300:\n        /* \"#utility.yul\":4902:4904   */\n      0x20\n        /* \"#utility.yul\":4897:4900   */\n      dup3\n        /* \"#utility.yul\":4893:4905   */\n      add\n        /* \"#utility.yul\":4886:4905   */\n      swap1\n      pop\n        /* \"#utility.yul\":4545:4911   */\n      swap2\n      swap1\n      pop\n      jump\t// out\n        /* \"#utility.yul\":4917:5336   */\n    tag_85:\n        /* \"#utility.yul\":5083:5087   */\n      0x00\n        /* \"#utility.yul\":5121:5123   */\n      0x20\n        /* \"#utility.yul\":5110:5119   */\n      dup3\n        /* \"#utility.yul\":5106:5124   */\n      add\n        /* \"#utility.yul\":5098:5124   */\n      swap1\n      pop\n        /* \"#utility.yul\":5170:5179   */\n      dup2\n        /* \"#utility.yul\":5164:5168   */\n      dup2\n        /* \"#utility.yul\":5160:5180   */\n      sub\n        /* \"#utility.yul\":5156:5157   */\n      0x00\n        /* \"#utility.yul\":5145:5154   */\n      dup4\n        /* \"#utility.yul\":5141:5158   */\n      add\n        /* \"#utility.yul\":5134:5181   */\n      mstore\n        /* \"#utility.yul\":5198:5329   */\n      tag_302\n        /* \"#utility.yul\":5324:5328   */\n      dup2\n        /* \"#utility.yul\":5198:5329   */\n      tag_204\n      jump\t// in\n    tag_302:\n        /* \"#utility.yul\":5190:5329   */\n      swap1\n      pop\n        /* \"#utility.yul\":4917:5336   */\n      swap2\n      swap1\n      pop\n      jump\t// out\n        /* \"#utility.yul\":5342:5522   */\n    tag_88:\n        /* \"#utility.yul\":5390:5467   */\n      0x4e487b7100000000000000000000000000000000000000000000000000000000\n        /* \"#utility.yul\":5387:5388   */\n      0x00\n        /* \"#utility.yul\":5380:5468   */\n      mstore\n        /* \"#utility.yul\":5487:5491   */\n      0x32\n        /* \"#utility.yul\":5484:5485   */\n      0x04\n        /* \"#utility.yul\":5477:5492   */\n      mstore\n        /* \"#utility.yul\":5511:5515   */\n      0x24\n        /* \"#utility.yul\":5508:5509   */\n      0x00\n        /* \"#utility.yul\":5501:5516   */\n      revert\n        /* \"#utility.yul\":5528:5708   */\n    tag_205:\n        /* \"#utility.yul\":5576:5653   */\n      0x4e487b7100000000000000000000000000000000000000000000000000000000\n        /* \"#utility.yul\":5573:5574   */\n      0x00\n        /* \"#utility.yul\":5566:5654   */\n      mstore\n        /* \"#utility.yul\":5673:5677   */\n      0x11\n        /* \"#utility.yul\":5670:5671   */\n      0x04\n        /* \"#utility.yul\":5663:5678   */\n      mstore\n        /* \"#utility.yul\":5697:5701   */\n      0x24\n        /* \"#utility.yul\":5694:5695   */\n      0x00\n        /* \"#utility.yul\":5687:5702   */\n      revert\n        /* \"#utility.yul\":5714:5908   */\n    tag_95:\n        /* \"#utility.yul\":5754:5758   */\n      0x00\n        /* \"#utility.yul\":5774:5794   */\n      tag_306\n        /* \"#utility.yul\":5792:5793   */\n      dup3\n        /* \"#utility.yul\":5774:5794   */\n      tag_198\n      jump\t// in\n    tag_306:\n        /* \"#utility.yul\":5769:5794   */\n      swap2\n      pop\n        /* \"#utility.yul\":5808:5828   */\n      tag_307\n        /* \"#utility.yul\":5826:5827   */\n      dup4\n        /* \"#utility.yul\":5808:5828   */\n      tag_198\n      jump\t// in\n    tag_307:\n        /* \"#utility.yul\":5803:5828   */\n      swap3\n      pop\n        /* \"#utility.yul\":5852:5853   */\n      dup3\n        /* \"#utility.yul\":5849:5850   */\n      dup3\n        /* \"#utility.yul\":5845:5854   */\n      sub\n        /* \"#utility.yul\":5837:5854   */\n      swap1\n      pop\n        /* \"#utility.yul\":5876:5877   */\n      dup2\n        /* \"#utility.yul\":5870:5874   */\n      dup2\n        /* \"#utility.yul\":5867:5878   */\n      gt\n        /* \"#utility.yul\":5864:5901   */\n      iszero\n      tag_308\n      jumpi\n        /* \"#utility.yul\":5881:5899   */\n      tag_309\n      tag_205\n      jump\t// in\n    tag_309:\n        /* \"#utility.yul\":5864:5901   */\n    tag_308:\n        /* \"#utility.yul\":5714:5908   */\n      swap3\n      swap2\n      pop\n      pop\n      jump\t// out\n        /* \"#utility.yul\":5914:6016   */\n    tag_206:\n        /* \"#utility.yul\":5956:5964   */\n      0x00\n        /* \"#utility.yul\":6003:6008   */\n      dup2\n        /* \"#utility.yul\":6000:6001   */\n      0x01\n        /* \"#utility.yul\":5996:6009   */\n      shr\n        /* \"#utility.yul\":5975:6009   */\n      swap1\n      pop\n        /* \"#utility.yul\":5914:6016   */\n      swap2\n      swap1\n      pop\n      jump\t// out\n        /* \"#utility.yul\":6022:6870   */\n    tag_207:\n        /* \"#utility.yul\":6083:6088   */\n      0x00\n        /* \"#utility.yul\":6090:6094   */\n      dup1\n        /* \"#utility.yul\":6114:6120   */\n      dup3\n        /* \"#utility.yul\":6105:6120   */\n      swap2\n      pop\n        /* \"#utility.yul\":6138:6143   */\n      dup4\n        /* \"#utility.yul\":6129:6143   */\n      swap1\n      pop\n        /* \"#utility.yul\":6152:6864   */\n    tag_312:\n        /* \"#utility.yul\":6173:6174   */\n      0x01\n        /* \"#utility.yul\":6163:6171   */\n      dup6\n        /* \"#utility.yul\":6160:6175   */\n      gt\n        /* \"#utility.yul\":6152:6864   */\n      iszero\n      tag_314\n      jumpi\n        /* \"#utility.yul\":6268:6272   */\n      dup1\n        /* \"#utility.yul\":6263:6266   */\n      dup7\n        /* \"#utility.yul\":6259:6273   */\n      div\n        /* \"#utility.yul\":6253:6257   */\n      dup2\n        /* \"#utility.yul\":6250:6274   */\n      gt\n        /* \"#utility.yul\":6247:6297   */\n      iszero\n      tag_315\n      jumpi\n        /* \"#utility.yul\":6277:6295   */\n      tag_316\n      tag_205\n      jump\t// in\n    tag_316:\n        /* \"#utility.yul\":6247:6297   */\n    tag_315:\n        /* \"#utility.yul\":6327:6328   */\n      0x01\n        /* \"#utility.yul\":6317:6325   */\n      dup6\n        /* \"#utility.yul\":6313:6329   */\n      and\n        /* \"#utility.yul\":6310:6761   */\n      iszero\n      tag_317\n      jumpi\n        /* \"#utility.yul\":6742:6746   */\n      dup1\n        /* \"#utility.yul\":6735:6740   */\n      dup3\n        /* \"#utility.yul\":6731:6747   */\n      mul\n        /* \"#utility.yul\":6722:6747   */\n      swap2\n      pop\n        /* \"#utility.yul\":6310:6761   */\n    tag_317:\n        /* \"#utility.yul\":6792:6796   */\n      dup1\n        /* \"#utility.yul\":6786:6790   */\n      dup2\n        /* \"#utility.yul\":6782:6797   */\n      mul\n        /* \"#utility.yul\":6774:6797   */\n      swap1\n      pop\n        /* \"#utility.yul\":6822:6854   */\n      tag_318\n        /* \"#utility.yul\":6845:6853   */\n      dup6\n        /* \"#utility.yul\":6822:6854   */\n      tag_206\n      jump\t// in\n    tag_318:\n        /* \"#utility.yul\":6810:6854   */\n      swap5\n      pop\n        /* \"#utility.yul\":6152:6864   */\n      jump(tag_312)\n    tag_314:\n        /* \"#utility.yul\":6022:6870   */\n      swap5\n      pop\n      swap5\n      swap3\n      pop\n      pop\n      pop\n      jump\t// out\n        /* \"#utility.yul\":6876:7949   */\n    tag_208:\n        /* \"#utility.yul\":6930:6935   */\n      0x00\n        /* \"#utility.yul\":7121:7129   */\n      dup3\n        /* \"#utility.yul\":7111:7151   */\n      tag_320\n      jumpi\n        /* \"#utility.yul\":7142:7143   */\n      0x01\n        /* \"#utility.yul\":7133:7143   */\n      swap1\n      pop\n        /* \"#utility.yul\":7144:7149   */\n      jump(tag_319)\n        /* \"#utility.yul\":7111:7151   */\n    tag_320:\n        /* \"#utility.yul\":7170:7174   */\n      dup2\n        /* \"#utility.yul\":7160:7196   */\n      tag_321\n      jumpi\n        /* \"#utility.yul\":7187:7188   */\n      0x00\n        /* \"#utility.yul\":7178:7188   */\n      swap1\n      pop\n        /* \"#utility.yul\":7189:7194   */\n      jump(tag_319)\n        /* \"#utility.yul\":7160:7196   */\n    tag_321:\n        /* \"#utility.yul\":7256:7260   */\n      dup2\n        /* \"#utility.yul\":7304:7305   */\n      0x01\n        /* \"#utility.yul\":7299:7326   */\n      dup2\n      eq\n      tag_323\n      jumpi\n        /* \"#utility.yul\":7340:7341   */\n      0x02\n        /* \"#utility.yul\":7335:7526   */\n      dup2\n      eq\n      tag_324\n      jumpi\n        /* \"#utility.yul\":7249:7526   */\n      jump(tag_322)\n        /* \"#utility.yul\":7299:7326   */\n    tag_323:\n        /* \"#utility.yul\":7317:7318   */\n      0x01\n        /* \"#utility.yul\":7308:7318   */\n      swap2\n      pop\n        /* \"#utility.yul\":7319:7324   */\n      pop\n      jump(tag_319)\n        /* \"#utility.yul\":7335:7526   */\n    tag_324:\n        /* \"#utility.yul\":7380:7383   */\n      0xff\n        /* \"#utility.yul\":7370:7378   */\n      dup5\n        /* \"#utility.yul\":7367:7384   */\n      gt\n        /* \"#utility.yul\":7364:7407   */\n      iszero\n      tag_325\n      jumpi\n        /* \"#utility.yul\":7387:7405   */\n      tag_326\n      tag_205\n      jump\t// in\n    tag_326:\n        /* \"#utility.yul\":7364:7407   */\n    tag_325:\n        /* \"#utility.yul\":7436:7444   */\n      dup4\n        /* \"#utility.yul\":7433:7434   */\n      0x02\n        /* \"#utility.yul\":7429:7445   */\n      exp\n        /* \"#utility.yul\":7420:7445   */\n      swap2\n      pop\n        /* \"#utility.yul\":7471:7474   */\n      dup5\n        /* \"#utility.yul\":7464:7469   */\n      dup3\n        /* \"#utility.yul\":7461:7475   */\n      gt\n        /* \"#utility.yul\":7458:7498   */\n      iszero\n      tag_327\n      jumpi\n        /* \"#utility.yul\":7478:7496   */\n      tag_328\n      tag_205\n      jump\t// in\n    tag_328:\n        /* \"#utility.yul\":7458:7498   */\n    tag_327:\n        /* \"#utility.yul\":7511:7516   */\n      pop\n      jump(tag_319)\n        /* \"#utility.yul\":7249:7526   */\n    tag_322:\n      pop\n        /* \"#utility.yul\":7635:7637   */\n      0x20\n        /* \"#utility.yul\":7625:7633   */\n      dup4\n        /* \"#utility.yul\":7622:7638   */\n      lt\n        /* \"#utility.yul\":7616:7619   */\n      0x0133\n        /* \"#utility.yul\":7610:7614   */\n      dup4\n        /* \"#utility.yul\":7607:7620   */\n      lt\n        /* \"#utility.yul\":7603:7639   */\n      and\n        /* \"#utility.yul\":7585:7587   */\n      0x4e\n        /* \"#utility.yul\":7575:7583   */\n      dup5\n        /* \"#utility.yul\":7572:7588   */\n      lt\n        /* \"#utility.yul\":7567:7569   */\n      0x0b\n        /* \"#utility.yul\":7561:7565   */\n      dup5\n        /* \"#utility.yul\":7558:7570   */\n      lt\n        /* \"#utility.yul\":7554:7589   */\n      and\n        /* \"#utility.yul\":7538:7649   */\n      or\n        /* \"#utility.yul\":7535:7781   */\n      iszero\n      tag_329\n      jumpi\n        /* \"#utility.yul\":7691:7699   */\n      dup3\n        /* \"#utility.yul\":7685:7689   */\n      dup3\n        /* \"#utility.yul\":7681:7700   */\n      exp\n        /* \"#utility.yul\":7672:7700   */\n      swap1\n      pop\n        /* \"#utility.yul\":7726:7729   */\n      dup4\n        /* \"#utility.yul\":7719:7724   */\n      dup2\n        /* \"#utility.yul\":7716:7730   */\n      gt\n        /* \"#utility.yul\":7713:7753   */\n      iszero\n      tag_330\n      jumpi\n        /* \"#utility.yul\":7733:7751   */\n      tag_331\n      tag_205\n      jump\t// in\n    tag_331:\n        /* \"#utility.yul\":7713:7753   */\n    tag_330:\n        /* \"#utility.yul\":7766:7771   */\n      jump(tag_319)\n        /* \"#utility.yul\":7535:7781   */\n    tag_329:\n        /* \"#utility.yul\":7806:7848   */\n      tag_332\n        /* \"#utility.yul\":7844:7847   */\n      dup5\n        /* \"#utility.yul\":7834:7842   */\n      dup5\n        /* \"#utility.yul\":7828:7832   */\n      dup5\n        /* \"#utility.yul\":7825:7826   */\n      0x01\n        /* \"#utility.yul\":7806:7848   */\n      tag_207\n      jump\t// in\n    tag_332:\n        /* \"#utility.yul\":7791:7848   */\n      swap3\n      pop\n      swap1\n      pop\n        /* \"#utility.yul\":7880:7884   */\n      dup2\n        /* \"#utility.yul\":7875:7878   */\n      dup5\n        /* \"#utility.yul\":7871:7885   */\n      div\n        /* \"#utility.yul\":7864:7869   */\n      dup2\n        /* \"#utility.yul\":7861:7886   */\n      gt\n        /* \"#utility.yul\":7858:7909   */\n      iszero\n      tag_333\n      jumpi\n        /* \"#utility.yul\":7889:7907   */\n      tag_334\n      tag_205\n      jump\t// in\n    tag_334:\n        /* \"#utility.yul\":7858:7909   */\n    tag_333:\n        /* \"#utility.yul\":7938:7942   */\n      dup2\n        /* \"#utility.yul\":7931:7936   */\n      dup2\n        /* \"#utility.yul\":7927:7943   */\n      mul\n        /* \"#utility.yul\":7918:7943   */\n      swap1\n      pop\n        /* \"#utility.yul\":6876:7949   */\n    tag_319:\n      swap4\n      swap3\n      pop\n      pop\n      pop\n      jump\t// out\n        /* \"#utility.yul\":7955:8240   */\n    tag_98:\n        /* \"#utility.yul\":8015:8020   */\n      0x00\n        /* \"#utility.yul\":8039:8062   */\n      tag_336\n        /* \"#utility.yul\":8057:8061   */\n      dup3\n        /* \"#utility.yul\":8039:8062   */\n      tag_198\n      jump\t// in\n    tag_336:\n        /* \"#utility.yul\":8031:8062   */\n      swap2\n      pop\n        /* \"#utility.yul\":8083:8110   */\n      tag_337\n        /* \"#utility.yul\":8101:8109   */\n      dup4\n        /* \"#utility.yul\":8083:8110   */\n      tag_198\n      jump\t// in\n    tag_337:\n        /* \"#utility.yul\":8071:8110   */\n      swap3\n      pop\n        /* \"#utility.yul\":8129:8233   */\n      tag_338\n        /* \"#utility.yul\":8166:8232   */\n      0xffffffffffffffffffffffffffffffffffffffffffffffffffffffffffffffff\n        /* \"#utility.yul\":8156:8164   */\n      dup5\n        /* \"#utility.yul\":8150:8154   */\n      dup5\n        /* \"#utility.yul\":8129:8233   */\n      tag_208\n      jump\t// in\n    tag_338:\n        /* \"#utility.yul\":8120:8233   */\n      swap1\n      pop\n        /* \"#utility.yul\":7955:8240   */\n      swap3\n      swap2\n      pop\n      pop\n      jump\t// out\n        /* \"#utility.yul\":8246:8656   */\n    tag_100:\n        /* \"#utility.yul\":8286:8293   */\n      0x00\n        /* \"#utility.yul\":8309:8329   */\n      tag_340\n        /* \"#utility.yul\":8327:8328   */\n      dup3\n        /* \"#utility.yul\":8309:8329   */\n      tag_198\n      jump\t// in\n    tag_340:\n        /* \"#utility.yul\":8304:8329   */\n      swap2\n      pop\n        /* \"#utility.yul\":8343:8363   */\n      tag_341\n        /* \"#utility.yul\":8361:8362   */\n      dup4\n        /* \"#utility.yul\":8343:8363   */\n      tag_198\n      jump\t// in\n    tag_341:\n        /* \"#utility.yul\":8338:8363   */\n      swap3\n      pop\n        /* \"#utility.yul\":8398:8399   */\n      dup3\n        /* \"#utility.yul\":8395:8396   */\n      dup3\n        /* \"#utility.yul\":8391:8400   */\n      mul\n        /* \"#utility.yul\":8420:8450   */\n      tag_342\n        /* \"#utility.yul\":8438:8449   */\n      dup2\n        /* \"#utility.yul\":8420:8450   */\n      tag_198\n      jump\t// in\n    tag_342:\n        /* \"#utility.yul\":8409:8450   */\n      swap2\n      pop\n        /* \"#utility.yul\":8599:8600   */\n      dup3\n        /* \"#utility.yul\":8590:8597   */\n      dup3\n        /* \"#utility.yul\":8586:8601   */\n      div\n        /* \"#utility.yul\":8583:8584   */\n      dup5\n        /* \"#utility.yul\":8580:8602   */\n      eq\n        /* \"#utility.yul\":8560:8561   */\n      dup4\n        /* \"#utility.yul\":8553:8562   */\n      iszero\n        /* \"#utility.yul\":8533:8616   */\n      or\n        /* \"#utility.yul\":8510:8649   */\n      tag_343\n      jumpi\n        /* \"#utility.yul\":8629:8647   */\n      tag_344\n      tag_205\n      jump\t// in\n    tag_344:\n        /* \"#utility.yul\":8510:8649   */\n    tag_343:\n        /* \"#utility.yul\":8294:8656   */\n      pop\n        /* \"#utility.yul\":8246:8656   */\n      swap3\n      swap2\n      pop\n      pop\n      jump\t// out\n        /* \"#utility.yul\":8662:8842   */\n    tag_209:\n        /* \"#utility.yul\":8710:8787   */\n      0x4e487b7100000000000000000000000000000000000000000000000000000000\n        /* \"#utility.yul\":8707:8708   */\n      0x00\n        /* \"#utility.yul\":8700:8788   */\n      mstore\n        /* \"#utility.yul\":8807:8811   */\n      0x12\n        /* \"#utility.yul\":8804:8805   */\n      0x04\n        /* \"#utility.yul\":8797:8812   */\n      mstore\n        /* \"#utility.yul\":8831:8835   */\n      0x24\n        /* \"#utility.yul\":8828:8829   */\n      0x00\n        /* \"#utility.yul\":8821:8836   */\n      revert\n        /* \"#utility.yul\":8848:9033   */\n    tag_102:\n        /* \"#utility.yul\":8888:8889   */\n      0x00\n        /* \"#utility.yul\":8905:8925   */\n      tag_347\n        /* \"#utility.yul\":8923:8924   */\n      dup3\n        /* \"#utility.yul\":8905:8925   */\n      tag_198\n      jump\t// in\n    tag_347:\n        /* \"#utility.yul\":8900:8925   */\n      swap2\n      pop\n        /* \"#utility.yul\":8939:8959   */\n      tag_348\n        /* \"#utility.yul\":8957:8958   */\n      dup4\n        /* \"#utility.yul\":8939:8959   */\n      tag_198\n      jump\t// in\n    tag_348:\n        /* \"#utility.yul\":8934:8959   */\n      swap3\n      pop\n        /* \"#utility.yul\":8978:8979   */\n      dup3\n        /* \"#utility.yul\":8968:9003   */\n      tag_349\n      jumpi\n        /* \"#utility.yul\":8983:9001   */\n      tag_350\n      tag_209\n      jump\t// in\n    tag_350:\n        /* \"#utility.yul\":8968:9003   */\n    tag_349:\n        /* \"#utility.yul\":9025:9026   */\n      dup3\n        /* \"#utility.yul\":9022:9023   */\n      dup3\n        /* \"#utility.yul\":9018:9027   */\n      div\n        /* \"#utility.yul\":9013:9027   */\n      swap1\n      pop\n        /* \"#utility.yul\":8848:9033   */\n      swap3\n      swap2\n      pop\n      pop\n      jump\t// out\n        /* \"#utility.yul\":9039:9230   */\n    tag_104:\n        /* \"#utility.yul\":9079:9082   */\n      0x00\n        /* \"#utility.yul\":9098:9118   */\n      tag_352\n        /* \"#utility.yul\":9116:9117   */\n      dup3\n        /* \"#utility.yul\":9098:9118   */\n      tag_198\n      jump\t// in\n    tag_352:\n        /* \"#utility.yul\":9093:9118   */\n      swap2\n      pop\n        /* \"#utility.yul\":9132:9152   */\n      tag_353\n        /* \"#utility.yul\":9150:9151   */\n      dup4\n        /* \"#utility.yul\":9132:9152   */\n      tag_198\n      jump\t// in\n    tag_353:\n        /* \"#utility.yul\":9127:9152   */\n      swap3\n      pop\n        /* \"#utility.yul\":9175:9176   */\n      dup3\n        /* \"#utility.yul\":9172:9173   */\n      dup3\n        /* \"#utility.yul\":9168:9177   */\n      add\n        /* \"#utility.yul\":9161:9177   */\n      swap1\n      pop\n        /* \"#utility.yul\":9196:9199   */\n      dup1\n        /* \"#utility.yul\":9193:9194   */\n      dup3\n        /* \"#utility.yul\":9190:9200   */\n      gt\n        /* \"#utility.yul\":9187:9223   */\n      iszero\n      tag_354\n      jumpi\n        /* \"#utility.yul\":9203:9221   */\n      tag_355\n      tag_205\n      jump\t// in\n    tag_355:\n        /* \"#utility.yul\":9187:9223   */\n    tag_354:\n        /* \"#utility.yul\":9039:9230   */\n      swap3\n      swap2\n      pop\n      pop\n      jump\t// out\n        /* \"#utility.yul\":9236:9400   */\n    tag_210:\n        /* \"#utility.yul\":9376:9392   */\n      0x496e76616c696420616d6f756e74000000000000000000000000000000000000\n        /* \"#utility.yul\":9372:9373   */\n      0x00\n        /* \"#utility.yul\":9364:9370   */\n      dup3\n        /* \"#utility.yul\":9360:9374   */\n      add\n        /* \"#utility.yul\":9353:9393   */\n      mstore\n        /* \"#utility.yul\":9236:9400   */\n      pop\n      jump\t// out\n        /* \"#utility.yul\":9406:9772   */\n    tag_211:\n        /* \"#utility.yul\":9548:9551   */\n      0x00\n        /* \"#utility.yul\":9569:9636   */\n      tag_358\n        /* \"#utility.yul\":9633:9635   */\n      0x0e\n        /* \"#utility.yul\":9628:9631   */\n      dup4\n        /* \"#utility.yul\":9569:9636   */\n      tag_202\n      jump\t// in\n    tag_358:\n        /* \"#utility.yul\":9562:9636   */\n      swap2\n      pop\n        /* \"#utility.yul\":9645:9738   */\n      tag_359\n        /* \"#utility.yul\":9734:9737   */\n      dup3\n        /* \"#utility.yul\":9645:9738   */\n      tag_210\n      jump\t// in\n    tag_359:\n        /* \"#utility.yul\":9763:9765   */\n      0x20\n        /* \"#utility.yul\":9758:9761   */\n      dup3\n        /* \"#utility.yul\":9754:9766   */\n      add\n        /* \"#utility.yul\":9747:9766   */\n      swap1\n      pop\n        /* \"#utility.yul\":9406:9772   */\n      swap2\n      swap1\n      pop\n      jump\t// out\n        /* \"#utility.yul\":9778:10197   */\n    tag_109:\n        /* \"#utility.yul\":9944:9948   */\n      0x00\n        /* \"#utility.yul\":9982:9984   */\n      0x20\n        /* \"#utility.yul\":9971:9980   */\n      dup3\n        /* \"#utility.yul\":9967:9985   */\n      add\n        /* \"#utility.yul\":9959:9985   */\n      swap1\n      pop\n        /* \"#utility.yul\":10031:10040   */\n      dup2\n        /* \"#utility.yul\":10025:10029   */\n      dup2\n        /* \"#utility.yul\":10021:10041   */\n      sub\n        /* \"#utility.yul\":10017:10018   */\n      0x00\n        /* \"#utility.yul\":10006:10015   */\n      dup4\n        /* \"#utility.yul\":10002:10019   */\n      add\n        /* \"#utility.yul\":9995:10042   */\n      mstore\n        /* \"#utility.yul\":10059:10190   */\n      tag_361\n        /* \"#utility.yul\":10185:10189   */\n      dup2\n        /* \"#utility.yul\":10059:10190   */\n      tag_211\n      jump\t// in\n    tag_361:\n        /* \"#utility.yul\":10051:10190   */\n      swap1\n      pop\n        /* \"#utility.yul\":9778:10197   */\n      swap2\n      swap1\n      pop\n      jump\t// out\n        /* \"#utility.yul\":10203:10369   */\n    tag_212:\n        /* \"#utility.yul\":10343:10361   */\n      0x496e76616c6964206475726174696f6e00000000000000000000000000000000\n        /* \"#utility.yul\":10339:10340   */\n      0x00\n        /* \"#utility.yul\":10331:10337   */\n      dup3\n        /* \"#utility.yul\":10327:10341   */\n      add\n        /* \"#utility.yul\":10320:10362   */\n      mstore\n        /* \"#utility.yul\":10203:10369   */\n      pop\n      jump\t// out\n        /* \"#utility.yul\":10375:10741   */\n    tag_213:\n        /* \"#utility.yul\":10517:10520   */\n      0x00\n        /* \"#utility.yul\":10538:10605   */\n      tag_364\n        /* \"#utility.yul\":10602:10604   */\n      0x10\n        /* \"#utility.yul\":10597:10600   */\n      dup4\n        /* \"#utility.yul\":10538:10605   */\n      tag_202\n      jump\t// in\n    tag_364:\n        /* \"#utility.yul\":10531:10605   */\n      swap2\n      pop\n        /* \"#utility.yul\":10614:10707   */\n      tag_365\n        /* \"#utility.yul\":10703:10706   */\n      dup3\n        /* \"#utility.yul\":10614:10707   */\n      tag_212\n      jump\t// in\n    tag_365:\n        /* \"#utility.yul\":10732:10734   */\n      0x20\n        /* \"#utility.yul\":10727:10730   */\n      dup3\n        /* \"#utility.yul\":10723:10735   */\n      add\n        /* \"#utility.yul\":10716:10735   */\n      swap1\n      pop\n        /* \"#utility.yul\":10375:10741   */\n      swap2\n      swap1\n      pop\n      jump\t// out\n        /* \"#utility.yul\":10747:11166   */\n    tag_112:\n        /* \"#utility.yul\":10913:10917   */\n      0x00\n        /* \"#utility.yul\":10951:10953   */\n      0x20\n        /* \"#utility.yul\":10940:10949   */\n      dup3\n        /* \"#utility.yul\":10936:10954   */\n      add\n        /* \"#utility.yul\":10928:10954   */\n      swap1\n      pop\n        /* \"#utility.yul\":11000:11009   */\n      dup2\n        /* \"#utility.yul\":10994:10998   */\n      dup2\n        /* \"#utility.yul\":10990:11010   */\n      sub\n        /* \"#utility.yul\":10986:10987   */\n      0x00\n        /* \"#utility.yul\":10975:10984   */\n      dup4\n        /* \"#utility.yul\":10971:10988   */\n      add\n        /* \"#utility.yul\":10964:11011   */\n      mstore\n        /* \"#utility.yul\":11028:11159   */\n      tag_367\n        /* \"#utility.yul\":11154:11158   */\n      dup2\n        /* \"#utility.yul\":11028:11159   */\n      tag_213\n      jump\t// in\n    tag_367:\n        /* \"#utility.yul\":11020:11159   */\n      swap1\n      pop\n        /* \"#utility.yul\":10747:11166   */\n      swap2\n      swap1\n      pop\n      jump\t// out\n        /* \"#utility.yul\":11172:11614   */\n    tag_121:\n        /* \"#utility.yul\":11321:11325   */\n      0x00\n        /* \"#utility.yul\":11359:11361   */\n      0x60\n        /* \"#utility.yul\":11348:11357   */\n      dup3\n        /* \"#utility.yul\":11344:11362   */\n      add\n        /* \"#utility.yul\":11336:11362   */\n      swap1\n      pop\n        /* \"#utility.yul\":11372:11443   */\n      tag_369\n        /* \"#utility.yul\":11440:11441   */\n      0x00\n        /* \"#utility.yul\":11429:11438   */\n      dup4\n        /* \"#utility.yul\":11425:11442   */\n      add\n        /* \"#utility.yul\":11416:11422   */\n      dup7\n        /* \"#utility.yul\":11372:11443   */\n      tag_192\n      jump\t// in\n    tag_369:\n        /* \"#utility.yul\":11453:11525   */\n      tag_370\n        /* \"#utility.yul\":11521:11523   */\n      0x20\n        /* \"#utility.yul\":11510:11519   */\n      dup4\n        /* \"#utility.yul\":11506:11524   */\n      add\n        /* \"#utility.yul\":11497:11503   */\n      dup6\n        /* \"#utility.yul\":11453:11525   */\n      tag_192\n      jump\t// in\n    tag_370:\n        /* \"#utility.yul\":11535:11607   */\n      tag_371\n        /* \"#utility.yul\":11603:11605   */\n      0x40\n        /* \"#utility.yul\":11592:11601   */\n      dup4\n        /* \"#utility.yul\":11588:11606   */\n      add\n        /* \"#utility.yul\":11579:11585   */\n      dup5\n        /* \"#utility.yul\":11535:11607   */\n      tag_199\n      jump\t// in\n    tag_371:\n        /* \"#utility.yul\":11172:11614   */\n      swap5\n      swap4\n      pop\n      pop\n      pop\n      pop\n      jump\t// out\n        /* \"#utility.yul\":11620:11710   */\n    tag_214:\n        /* \"#utility.yul\":11654:11661   */\n      0x00\n        /* \"#utility.yul\":11697:11702   */\n      dup2\n        /* \"#utility.yul\":11690:11703   */\n      iszero\n        /* \"#utility.yul\":11683:11704   */\n      iszero\n        /* \"#utility.yul\":11672:11704   */\n      swap1\n      pop\n        /* \"#utility.yul\":11620:11710   */\n      swap2\n      swap1\n      pop\n      jump\t// out\n        /* \"#utility.yul\":11716:11832   */\n    tag_215:\n        /* \"#utility.yul\":11786:11807   */\n      tag_374\n        /* \"#utility.yul\":11801:11806   */\n      dup2\n        /* \"#utility.yul\":11786:11807   */\n      tag_214\n      jump\t// in\n    tag_374:\n        /* \"#utility.yul\":11779:11784   */\n      dup2\n        /* \"#utility.yul\":11776:11808   */\n      eq\n        /* \"#utility.yul\":11766:11826   */\n      tag_375\n      jumpi\n        /* \"#utility.yul\":11822:11823   */\n      0x00\n        /* \"#utility.yul\":11819:11820   */\n      dup1\n        /* \"#utility.yul\":11812:11824   */\n      revert\n        /* \"#utility.yul\":11766:11826   */\n    tag_375:\n        /* \"#utility.yul\":11716:11832   */\n      pop\n      jump\t// out\n        /* \"#utility.yul\":11838:11975   */\n    tag_216:\n        /* \"#utility.yul\":11892:11897   */\n      0x00\n        /* \"#utility.yul\":11923:11929   */\n      dup2\n        /* \"#utility.yul\":11917:11930   */\n      mload\n        /* \"#utility.yul\":11908:11930   */\n      swap1\n      pop\n        /* \"#utility.yul\":11939:11969   */\n      tag_377\n        /* \"#utility.yul\":11963:11968   */\n      dup2\n        /* \"#utility.yul\":11939:11969   */\n      tag_215\n      jump\t// in\n    tag_377:\n        /* \"#utility.yul\":11838:11975   */\n      swap3\n      swap2\n      pop\n      pop\n      jump\t// out\n        /* \"#utility.yul\":11981:12326   */\n    tag_125:\n        /* \"#utility.yul\":12048:12054   */\n      0x00\n        /* \"#utility.yul\":12097:12099   */\n      0x20\n        /* \"#utility.yul\":12085:12094   */\n      dup3\n        /* \"#utility.yul\":12076:12083   */\n      dup5\n        /* \"#utility.yul\":12072:12095   */\n      sub\n        /* \"#utility.yul\":12068:12100   */\n      slt\n        /* \"#utility.yul\":12065:12184   */\n      iszero\n      tag_379\n      jumpi\n        /* \"#utility.yul\":12103:12182   */\n      tag_380\n      tag_194\n      jump\t// in\n    tag_380:\n        /* \"#utility.yul\":12065:12184   */\n    tag_379:\n        /* \"#utility.yul\":12223:12224   */\n      0x00\n        /* \"#utility.yul\":12248:12309   */\n      tag_381\n        /* \"#utility.yul\":12301:12308   */\n      dup5\n        /* \"#utility.yul\":12292:12298   */\n      dup3\n        /* \"#utility.yul\":12281:12290   */\n      dup6\n        /* \"#utility.yul\":12277:12299   */\n      add\n        /* \"#utility.yul\":12248:12309   */\n      tag_216\n      jump\t// in\n    tag_381:\n        /* \"#utility.yul\":12238:12309   */\n      swap2\n      pop\n        /* \"#utility.yul\":12194:12319   */\n      pop\n        /* \"#utility.yul\":11981:12326   */\n      swap3\n      swap2\n      pop\n      pop\n      jump\t// out\n        /* \"#utility.yul\":12332:12664   */\n    tag_130:\n        /* \"#utility.yul\":12453:12457   */\n      0x00\n        /* \"#utility.yul\":12491:12493   */\n      0x40\n        /* \"#utility.yul\":12480:12489   */\n      dup3\n        /* \"#utility.yul\":12476:12494   */\n      add\n        /* \"#utility.yul\":12468:12494   */\n      swap1\n      pop\n        /* \"#utility.yul\":12504:12575   */\n      tag_383\n        /* \"#utility.yul\":12572:12573   */\n      0x00\n        /* \"#utility.yul\":12561:12570   */\n      dup4\n        /* \"#utility.yul\":12557:12574   */\n      add\n        /* \"#utility.yul\":12548:12554   */\n      dup6\n        /* \"#utility.yul\":12504:12575   */\n      tag_192\n      jump\t// in\n    tag_383:\n        /* \"#utility.yul\":12585:12657   */\n      tag_384\n        /* \"#utility.yul\":12653:12655   */\n      0x20\n        /* \"#utility.yul\":12642:12651   */\n      dup4\n        /* \"#utility.yul\":12638:12656   */\n      add\n        /* \"#utility.yul\":12629:12635   */\n      dup5\n        /* \"#utility.yul\":12585:12657   */\n      tag_199\n      jump\t// in\n    tag_384:\n        /* \"#utility.yul\":12332:12664   */\n      swap4\n      swap3\n      pop\n      pop\n      pop\n      jump\t// out\n        /* \"#utility.yul\":12670:13445   */\n    tag_135:\n        /* \"#utility.yul\":12903:12907   */\n      0x00\n        /* \"#utility.yul\":12941:12944   */\n      0xc0\n        /* \"#utility.yul\":12930:12939   */\n      dup3\n        /* \"#utility.yul\":12926:12945   */\n      add\n        /* \"#utility.yul\":12918:12945   */\n      swap1\n      pop\n        /* \"#utility.yul\":12955:13026   */\n      tag_386\n        /* \"#utility.yul\":13023:13024   */\n      0x00\n        /* \"#utility.yul\":13012:13021   */\n      dup4\n        /* \"#utility.yul\":13008:13025   */\n      add\n        /* \"#utility.yul\":12999:13005   */\n      dup10\n        /* \"#utility.yul\":12955:13026   */\n      tag_199\n      jump\t// in\n    tag_386:\n        /* \"#utility.yul\":13036:13108   */\n      tag_387\n        /* \"#utility.yul\":13104:13106   */\n      0x20\n        /* \"#utility.yul\":13093:13102   */\n      dup4\n        /* \"#utility.yul\":13089:13107   */\n      add\n        /* \"#utility.yul\":13080:13086   */\n      dup9\n        /* \"#utility.yul\":13036:13108   */\n      tag_199\n      jump\t// in\n    tag_387:\n        /* \"#utility.yul\":13118:13190   */\n      tag_388\n        /* \"#utility.yul\":13186:13188   */\n      0x40\n        /* \"#utility.yul\":13175:13184   */\n      dup4\n        /* \"#utility.yul\":13171:13189   */\n      add\n        /* \"#utility.yul\":13162:13168   */\n      dup8\n        /* \"#utility.yul\":13118:13190   */\n      tag_199\n      jump\t// in\n    tag_388:\n        /* \"#utility.yul\":13200:13272   */\n      tag_389\n        /* \"#utility.yul\":13268:13270   */\n      0x60\n        /* \"#utility.yul\":13257:13266   */\n      dup4\n        /* \"#utility.yul\":13253:13271   */\n      add\n        /* \"#utility.yul\":13244:13250   */\n      dup7\n        /* \"#utility.yul\":13200:13272   */\n      tag_199\n      jump\t// in\n    tag_389:\n        /* \"#utility.yul\":13282:13355   */\n      tag_390\n        /* \"#utility.yul\":13350:13353   */\n      0x80\n        /* \"#utility.yul\":13339:13348   */\n      dup4\n        /* \"#utility.yul\":13335:13354   */\n      add\n        /* \"#utility.yul\":13326:13332   */\n      dup6\n        /* \"#utility.yul\":13282:13355   */\n      tag_199\n      jump\t// in\n    tag_390:\n        /* \"#utility.yul\":13365:13438   */\n      tag_391\n        /* \"#utility.yul\":13433:13436   */\n      0xa0\n        /* \"#utility.yul\":13422:13431   */\n      dup4\n        /* \"#utility.yul\":13418:13437   */\n      add\n        /* \"#utility.yul\":13409:13415   */\n      dup5\n        /* \"#utility.yul\":13365:13438   */\n      tag_199\n      jump\t// in\n    tag_391:\n        /* \"#utility.yul\":12670:13445   */\n      swap8\n      swap7\n      pop\n      pop\n      pop\n      pop\n      pop\n      pop\n      pop\n      jump\t// out\n        /* \"#utility.yul\":13451:13631   */\n    tag_139:\n        /* \"#utility.yul\":13499:13576   */\n      0x4e487b7100000000000000000000000000000000000000000000000000000000\n        /* \"#utility.yul\":13496:13497   */\n      0x00\n        /* \"#utility.yul\":13489:13577   */\n      mstore\n        /* \"#utility.yul\":13596:13600   */\n      0x41\n        /* \"#utility.yul\":13593:13594   */\n      0x04\n        /* \"#utility.yul\":13586:13601   */\n      mstore\n        /* \"#utility.yul\":13620:13624   */\n      0x24\n        /* \"#utility.yul\":13617:13618   */\n      0x00\n        /* \"#utility.yul\":13610:13625   */\n      revert\n        /* \"#utility.yul\":13637:13731   */\n    tag_217:\n        /* \"#utility.yul\":13691:13698   */\n      0x00\n        /* \"#utility.yul\":13720:13725   */\n      dup2\n        /* \"#utility.yul\":13709:13725   */\n      swap1\n      pop\n        /* \"#utility.yul\":13637:13731   */\n      swap2\n      swap1\n      pop\n      jump\t// out\n        /* \"#utility.yul\":13737:13797   */\n    tag_218:\n        /* \"#utility.yul\":13765:13768   */\n      0x00\n        /* \"#utility.yul\":13786:13791   */\n      dup2\n        /* \"#utility.yul\":13779:13791   */\n      swap1\n      pop\n        /* \"#utility.yul\":13737:13797   */\n      swap2\n      swap1\n      pop\n      jump\t// out\n        /* \"#utility.yul\":13803:13979   */\n    tag_219:\n        /* \"#utility.yul\":13870:13879   */\n      0x00\n        /* \"#utility.yul\":13903:13973   */\n      tag_396\n        /* \"#utility.yul\":13921:13972   */\n      tag_397\n        /* \"#utility.yul\":13930:13971   */\n      tag_398\n        /* \"#utility.yul\":13965:13970   */\n      dup5\n        /* \"#utility.yul\":13930:13971   */\n      tag_217\n      jump\t// in\n    tag_398:\n        /* \"#utility.yul\":13921:13972   */\n      tag_218\n      jump\t// in\n    tag_397:\n        /* \"#utility.yul\":13903:13973   */\n      tag_198\n      jump\t// in\n    tag_396:\n        /* \"#utility.yul\":13890:13973   */\n      swap1\n      pop\n        /* \"#utility.yul\":13803:13979   */\n      swap2\n      swap1\n      pop\n      jump\t// out\n        /* \"#utility.yul\":13985:14150   */\n    tag_220:\n        /* \"#utility.yul\":14089:14143   */\n      tag_400\n        /* \"#utility.yul\":14137:14142   */\n      dup2\n        /* \"#utility.yul\":14089:14143   */\n      tag_219\n      jump\t// in\n    tag_400:\n        /* \"#utility.yul\":14084:14087   */\n      dup3\n        /* \"#utility.yul\":14077:14144   */\n      mstore\n        /* \"#utility.yul\":13985:14150   */\n      pop\n      pop\n      jump\t// out\n        /* \"#utility.yul\":14156:14270   */\n    tag_221:\n        /* \"#utility.yul\":14223:14229   */\n      0x00\n        /* \"#utility.yul\":14257:14262   */\n      dup2\n        /* \"#utility.yul\":14251:14263   */\n      mload\n        /* \"#utility.yul\":14241:14263   */\n      swap1\n      pop\n        /* \"#utility.yul\":14156:14270   */\n      swap2\n      swap1\n      pop\n      jump\t// out\n        /* \"#utility.yul\":14276:14460   */\n    tag_222:\n        /* \"#utility.yul\":14375:14386   */\n      0x00\n        /* \"#utility.yul\":14409:14415   */\n      dup3\n        /* \"#utility.yul\":14404:14407   */\n      dup3\n        /* \"#utility.yul\":14397:14416   */\n      mstore\n        /* \"#utility.yul\":14449:14453   */\n      0x20\n        /* \"#utility.yul\":14444:14447   */\n      dup3\n        /* \"#utility.yul\":14440:14454   */\n      add\n        /* \"#utility.yul\":14425:14454   */\n      swap1\n      pop\n        /* \"#utility.yul\":14276:14460   */\n      swap3\n      swap2\n      pop\n      pop\n      jump\t// out\n        /* \"#utility.yul\":14466:14598   */\n    tag_223:\n        /* \"#utility.yul\":14533:14537   */\n      0x00\n        /* \"#utility.yul\":14556:14559   */\n      dup2\n        /* \"#utility.yul\":14548:14559   */\n      swap1\n      pop\n        /* \"#utility.yul\":14586:14590   */\n      0x20\n        /* \"#utility.yul\":14581:14584   */\n      dup3\n        /* \"#utility.yul\":14577:14591   */\n      add\n        /* \"#utility.yul\":14569:14591   */\n      swap1\n      pop\n        /* \"#utility.yul\":14466:14598   */\n      swap2\n      swap1\n      pop\n      jump\t// out\n        /* \"#utility.yul\":14604:14712   */\n    tag_224:\n        /* \"#utility.yul\":14681:14705   */\n      tag_405\n        /* \"#utility.yul\":14699:14704   */\n      dup2\n        /* \"#utility.yul\":14681:14705   */\n      tag_191\n      jump\t// in\n    tag_405:\n        /* \"#utility.yul\":14676:14679   */\n      dup3\n        /* \"#utility.yul\":14669:14706   */\n      mstore\n        /* \"#utility.yul\":14604:14712   */\n      pop\n      pop\n      jump\t// out\n        /* \"#utility.yul\":14718:14897   */\n    tag_225:\n        /* \"#utility.yul\":14787:14797   */\n      0x00\n        /* \"#utility.yul\":14808:14854   */\n      tag_407\n        /* \"#utility.yul\":14850:14853   */\n      dup4\n        /* \"#utility.yul\":14842:14848   */\n      dup4\n        /* \"#utility.yul\":14808:14854   */\n      tag_224\n      jump\t// in\n    tag_407:\n        /* \"#utility.yul\":14886:14890   */\n      0x20\n        /* \"#utility.yul\":14881:14884   */\n      dup4\n        /* \"#utility.yul\":14877:14891   */\n      add\n        /* \"#utility.yul\":14863:14891   */\n      swap1\n      pop\n        /* \"#utility.yul\":14718:14897   */\n      swap3\n      swap2\n      pop\n      pop\n      jump\t// out\n        /* \"#utility.yul\":14903:15016   */\n    tag_226:\n        /* \"#utility.yul\":14973:14977   */\n      0x00\n        /* \"#utility.yul\":15005:15009   */\n      0x20\n        /* \"#utility.yul\":15000:15003   */\n      dup3\n        /* \"#utility.yul\":14996:15010   */\n      add\n        /* \"#utility.yul\":14988:15010   */\n      swap1\n      pop\n        /* \"#utility.yul\":14903:15016   */\n      swap2\n      swap1\n      pop\n      jump\t// out\n        /* \"#utility.yul\":15052:15784   */\n    tag_227:\n        /* \"#utility.yul\":15171:15174   */\n      0x00\n        /* \"#utility.yul\":15200:15254   */\n      tag_410\n        /* \"#utility.yul\":15248:15253   */\n      dup3\n        /* \"#utility.yul\":15200:15254   */\n      tag_221\n      jump\t// in\n    tag_410:\n        /* \"#utility.yul\":15270:15356   */\n      tag_411\n        /* \"#utility.yul\":15349:15355   */\n      dup2\n        /* \"#utility.yul\":15344:15347   */\n      dup6\n        /* \"#utility.yul\":15270:15356   */\n      tag_222\n      jump\t// in\n    tag_411:\n        /* \"#utility.yul\":15263:15356   */\n      swap4\n      pop\n        /* \"#utility.yul\":15380:15436   */\n      tag_412\n        /* \"#utility.yul\":15430:15435   */\n      dup4\n        /* \"#utility.yul\":15380:15436   */\n      tag_223\n      jump\t// in\n    tag_412:\n        /* \"#utility.yul\":15459:15466   */\n      dup1\n        /* \"#utility.yul\":15490:15491   */\n      0x00\n        /* \"#utility.yul\":15475:15759   */\n    tag_413:\n        /* \"#utility.yul\":15500:15506   */\n      dup4\n        /* \"#utility.yul\":15497:15498   */\n      dup2\n        /* \"#utility.yul\":15494:15507   */\n      lt\n        /* \"#utility.yul\":15475:15759   */\n      iszero\n      tag_415\n      jumpi\n        /* \"#utility.yul\":15576:15582   */\n      dup2\n        /* \"#utility.yul\":15570:15583   */\n      mload\n        /* \"#utility.yul\":15603:15666   */\n      tag_416\n        /* \"#utility.yul\":15662:15665   */\n      dup9\n        /* \"#utility.yul\":15647:15660   */\n      dup3\n        /* \"#utility.yul\":15603:15666   */\n      tag_225\n      jump\t// in\n    tag_416:\n        /* \"#utility.yul\":15596:15666   */\n      swap8\n      pop\n        /* \"#utility.yul\":15689:15749   */\n      tag_417\n        /* \"#utility.yul\":15742:15748   */\n      dup4\n        /* \"#utility.yul\":15689:15749   */\n      tag_226\n      jump\t// in\n    tag_417:\n        /* \"#utility.yul\":15679:15749   */\n      swap3\n      pop\n        /* \"#utility.yul\":15535:15759   */\n      pop\n        /* \"#utility.yul\":15522:15523   */\n      0x01\n        /* \"#utility.yul\":15519:15520   */\n      dup2\n        /* \"#utility.yul\":15515:15524   */\n      add\n        /* \"#utility.yul\":15510:15524   */\n      swap1\n      pop\n        /* \"#utility.yul\":15475:15759   */\n      jump(tag_413)\n    tag_415:\n        /* \"#utility.yul\":15479:15493   */\n      pop\n        /* \"#utility.yul\":15775:15778   */\n      dup6\n        /* \"#utility.yul\":15768:15778   */\n      swap4\n      pop\n        /* \"#utility.yul\":15176:15784   */\n      pop\n      pop\n      pop\n        /* \"#utility.yul\":15052:15784   */\n      swap3\n      swap2\n      pop\n      pop\n      jump\t// out\n        /* \"#utility.yul\":15790:16307   */\n    tag_146:\n        /* \"#utility.yul\":15978:15982   */\n      0x00\n        /* \"#utility.yul\":16016:16018   */\n      0x40\n        /* \"#utility.yul\":16005:16014   */\n      dup3\n        /* \"#utility.yul\":16001:16019   */\n      add\n        /* \"#utility.yul\":15993:16019   */\n      swap1\n      pop\n        /* \"#utility.yul\":16029:16117   */\n      tag_419\n        /* \"#utility.yul\":16114:16115   */\n      0x00\n        /* \"#utility.yul\":16103:16112   */\n      dup4\n        /* \"#utility.yul\":16099:16116   */\n      add\n        /* \"#utility.yul\":16090:16096   */\n      dup6\n        /* \"#utility.yul\":16029:16117   */\n      tag_220\n      jump\t// in\n    tag_419:\n        /* \"#utility.yul\":16164:16173   */\n      dup2\n        /* \"#utility.yul\":16158:16162   */\n      dup2\n        /* \"#utility.yul\":16154:16174   */\n      sub\n        /* \"#utility.yul\":16149:16151   */\n      0x20\n        /* \"#utility.yul\":16138:16147   */\n      dup4\n        /* \"#utility.yul\":16134:16152   */\n      add\n        /* \"#utility.yul\":16127:16175   */\n      mstore\n        /* \"#utility.yul\":16192:16300   */\n      tag_420\n        /* \"#utility.yul\":16295:16299   */\n      dup2\n        /* \"#utility.yul\":16286:16292   */\n      dup5\n        /* \"#utility.yul\":16192:16300   */\n      tag_227\n      jump\t// in\n    tag_420:\n        /* \"#utility.yul\":16184:16300   */\n      swap1\n      pop\n        /* \"#utility.yul\":15790:16307   */\n      swap4\n      swap3\n      pop\n      pop\n      pop\n      jump\t// out\n        /* \"#utility.yul\":16313:16430   */\n    tag_228:\n        /* \"#utility.yul\":16422:16423   */\n      0x00\n        /* \"#utility.yul\":16419:16420   */\n      dup1\n        /* \"#utility.yul\":16412:16424   */\n      revert\n        /* \"#utility.yul\":16436:16538   */\n    tag_229:\n        /* \"#utility.yul\":16477:16483   */\n      0x00\n        /* \"#utility.yul\":16528:16530   */\n      0x1f\n        /* \"#utility.yul\":16524:16531   */\n      not\n        /* \"#utility.yul\":16519:16521   */\n      0x1f\n        /* \"#utility.yul\":16512:16517   */\n      dup4\n        /* \"#utility.yul\":16508:16522   */\n      add\n        /* \"#utility.yul\":16504:16532   */\n      and\n        /* \"#utility.yul\":16494:16532   */\n      swap1\n      pop\n        /* \"#utility.yul\":16436:16538   */\n      swap2\n      swap1\n      pop\n      jump\t// out\n        /* \"#utility.yul\":16544:16825   */\n    tag_230:\n        /* \"#utility.yul\":16627:16654   */\n      tag_424\n        /* \"#utility.yul\":16649:16653   */\n      dup3\n        /* \"#utility.yul\":16627:16654   */\n      tag_229\n      jump\t// in\n    tag_424:\n        /* \"#utility.yul\":16619:16625   */\n      dup2\n        /* \"#utility.yul\":16615:16655   */\n      add\n        /* \"#utility.yul\":16757:16763   */\n      dup2\n        /* \"#utility.yul\":16745:16755   */\n      dup2\n        /* \"#utility.yul\":16742:16764   */\n      lt\n        /* \"#utility.yul\":16721:16739   */\n      0xffffffffffffffff\n        /* \"#utility.yul\":16709:16719   */\n      dup3\n        /* \"#utility.yul\":16706:16740   */\n      gt\n        /* \"#utility.yul\":16703:16765   */\n      or\n        /* \"#utility.yul\":16700:16788   */\n      iszero\n      tag_425\n      jumpi\n        /* \"#utility.yul\":16768:16786   */\n      tag_426\n      tag_139\n      jump\t// in\n    tag_426:\n        /* \"#utility.yul\":16700:16788   */\n    tag_425:\n        /* \"#utility.yul\":16808:16818   */\n      dup1\n        /* \"#utility.yul\":16804:16806   */\n      0x40\n        /* \"#utility.yul\":16797:16819   */\n      mstore\n        /* \"#utility.yul\":16587:16825   */\n      pop\n        /* \"#utility.yul\":16544:16825   */\n      pop\n      pop\n      jump\t// out\n        /* \"#utility.yul\":16831:16960   */\n    tag_231:\n        /* \"#utility.yul\":16865:16871   */\n      0x00\n        /* \"#utility.yul\":16892:16912   */\n      tag_428\n      tag_193\n      jump\t// in\n    tag_428:\n        /* \"#utility.yul\":16882:16912   */\n      swap1\n      pop\n        /* \"#utility.yul\":16921:16954   */\n      tag_429\n        /* \"#utility.yul\":16949:16953   */\n      dup3\n        /* \"#utility.yul\":16941:16947   */\n      dup3\n        /* \"#utility.yul\":16921:16954   */\n      tag_230\n      jump\t// in\n    tag_429:\n        /* \"#utility.yul\":16831:16960   */\n      swap2\n      swap1\n      pop\n      jump\t// out\n        /* \"#utility.yul\":16966:17277   */\n    tag_232:\n        /* \"#utility.yul\":17043:17047   */\n      0x00\n        /* \"#utility.yul\":17133:17151   */\n      0xffffffffffffffff\n        /* \"#utility.yul\":17125:17131   */\n      dup3\n        /* \"#utility.yul\":17122:17152   */\n      gt\n        /* \"#utility.yul\":17119:17175   */\n      iszero\n      tag_431\n      jumpi\n        /* \"#utility.yul\":17155:17173   */\n      tag_432\n      tag_139\n      jump\t// in\n    tag_432:\n        /* \"#utility.yul\":17119:17175   */\n    tag_431:\n        /* \"#utility.yul\":17205:17209   */\n      0x20\n        /* \"#utility.yul\":17197:17203   */\n      dup3\n        /* \"#utility.yul\":17193:17210   */\n      mul\n        /* \"#utility.yul\":17185:17210   */\n      swap1\n      pop\n        /* \"#utility.yul\":17265:17269   */\n      0x20\n        /* \"#utility.yul\":17259:17263   */\n      dup2\n        /* \"#utility.yul\":17255:17270   */\n      add\n        /* \"#utility.yul\":17247:17270   */\n      swap1\n      pop\n        /* \"#utility.yul\":16966:17277   */\n      swap2\n      swap1\n      pop\n      jump\t// out\n        /* \"#utility.yul\":17283:17400   */\n    tag_233:\n        /* \"#utility.yul\":17392:17393   */\n      0x00\n        /* \"#utility.yul\":17389:17390   */\n      dup1\n        /* \"#utility.yul\":17382:17394   */\n      revert\n        /* \"#utility.yul\":17406:17549   */\n    tag_234:\n        /* \"#utility.yul\":17463:17468   */\n      0x00\n        /* \"#utility.yul\":17494:17500   */\n      dup2\n        /* \"#utility.yul\":17488:17501   */\n      mload\n        /* \"#utility.yul\":17479:17501   */\n      swap1\n      pop\n        /* \"#utility.yul\":17510:17543   */\n      tag_435\n        /* \"#utility.yul\":17537:17542   */\n      dup2\n        /* \"#utility.yul\":17510:17543   */\n      tag_200\n      jump\t// in\n    tag_435:\n        /* \"#utility.yul\":17406:17549   */\n      swap3\n      swap2\n      pop\n      pop\n      jump\t// out\n        /* \"#utility.yul\":17572:18304   */\n    tag_235:\n        /* \"#utility.yul\":17679:17684   */\n      0x00\n        /* \"#utility.yul\":17704:17785   */\n      tag_437\n        /* \"#utility.yul\":17720:17784   */\n      tag_438\n        /* \"#utility.yul\":17777:17783   */\n      dup5\n        /* \"#utility.yul\":17720:17784   */\n      tag_232\n      jump\t// in\n    tag_438:\n        /* \"#utility.yul\":17704:17785   */\n      tag_231\n      jump\t// in\n    tag_437:\n        /* \"#utility.yul\":17695:17785   */\n      swap1\n      pop\n        /* \"#utility.yul\":17805:17810   */\n      dup1\n        /* \"#utility.yul\":17834:17840   */\n      dup4\n        /* \"#utility.yul\":17827:17832   */\n      dup3\n        /* \"#utility.yul\":17820:17841   */\n      mstore\n        /* \"#utility.yul\":17868:17872   */\n      0x20\n        /* \"#utility.yul\":17861:17866   */\n      dup3\n        /* \"#utility.yul\":17857:17873   */\n      add\n        /* \"#utility.yul\":17850:17873   */\n      swap1\n      pop\n        /* \"#utility.yul\":17921:17925   */\n      0x20\n        /* \"#utility.yul\":17913:17919   */\n      dup5\n        /* \"#utility.yul\":17909:17926   */\n      mul\n        /* \"#utility.yul\":17901:17907   */\n      dup4\n        /* \"#utility.yul\":17897:17927   */\n      add\n        /* \"#utility.yul\":17950:17953   */\n      dup6\n        /* \"#utility.yul\":17942:17948   */\n      dup2\n        /* \"#utility.yul\":17939:17954   */\n      gt\n        /* \"#utility.yul\":17936:18058   */\n      iszero\n      tag_439\n      jumpi\n        /* \"#utility.yul\":17969:18048   */\n      tag_440\n      tag_233\n      jump\t// in\n    tag_440:\n        /* \"#utility.yul\":17936:18058   */\n    tag_439:\n        /* \"#utility.yul\":18084:18090   */\n      dup4\n        /* \"#utility.yul\":18067:18298   */\n    tag_441:\n        /* \"#utility.yul\":18101:18107   */\n      dup2\n        /* \"#utility.yul\":18096:18099   */\n      dup2\n        /* \"#utility.yul\":18093:18108   */\n      lt\n        /* \"#utility.yul\":18067:18298   */\n      iszero\n      tag_443\n      jumpi\n        /* \"#utility.yul\":18176:18179   */\n      dup1\n        /* \"#utility.yul\":18205:18253   */\n      tag_444\n        /* \"#utility.yul\":18249:18252   */\n      dup9\n        /* \"#utility.yul\":18237:18247   */\n      dup3\n        /* \"#utility.yul\":18205:18253   */\n      tag_234\n      jump\t// in\n    tag_444:\n        /* \"#utility.yul\":18200:18203   */\n      dup5\n        /* \"#utility.yul\":18193:18254   */\n      mstore\n        /* \"#utility.yul\":18283:18287   */\n      0x20\n        /* \"#utility.yul\":18278:18281   */\n      dup5\n        /* \"#utility.yul\":18274:18288   */\n      add\n        /* \"#utility.yul\":18267:18288   */\n      swap4\n      pop\n        /* \"#utility.yul\":18143:18298   */\n      pop\n        /* \"#utility.yul\":18127:18131   */\n      0x20\n        /* \"#utility.yul\":18122:18125   */\n      dup2\n        /* \"#utility.yul\":18118:18132   */\n      add\n        /* \"#utility.yul\":18111:18132   */\n      swap1\n      pop\n        /* \"#utility.yul\":18067:18298   */\n      jump(tag_441)\n    tag_443:\n        /* \"#utility.yul\":18071:18092   */\n      pop\n        /* \"#utility.yul\":17685:18304   */\n      pop\n      pop\n        /* \"#utility.yul\":17572:18304   */\n      swap4\n      swap3\n      pop\n      pop\n      pop\n      jump\t// out\n        /* \"#utility.yul\":18327:18712   */\n    tag_236:\n        /* \"#utility.yul\":18409:18414   */\n      0x00\n        /* \"#utility.yul\":18458:18461   */\n      dup3\n        /* \"#utility.yul\":18451:18455   */\n      0x1f\n        /* \"#utility.yul\":18443:18449   */\n      dup4\n        /* \"#utility.yul\":18439:18456   */\n      add\n        /* \"#utility.yul\":18435:18462   */\n      slt\n        /* \"#utility.yul\":18425:18547   */\n      tag_446\n      jumpi\n        /* \"#utility.yul\":18466:18545   */\n      tag_447\n      tag_228\n      jump\t// in\n    tag_447:\n        /* \"#utility.yul\":18425:18547   */\n    tag_446:\n        /* \"#utility.yul\":18576:18582   */\n      dup2\n        /* \"#utility.yul\":18570:18583   */\n      mload\n        /* \"#utility.yul\":18601:18706   */\n      tag_448\n        /* \"#utility.yul\":18702:18705   */\n      dup5\n        /* \"#utility.yul\":18694:18700   */\n      dup3\n        /* \"#utility.yul\":18687:18691   */\n      0x20\n        /* \"#utility.yul\":18679:18685   */\n      dup7\n        /* \"#utility.yul\":18675:18692   */\n      add\n        /* \"#utility.yul\":18601:18706   */\n      tag_235\n      jump\t// in\n    tag_448:\n        /* \"#utility.yul\":18592:18706   */\n      swap2\n      pop\n        /* \"#utility.yul\":18415:18712   */\n      pop\n        /* \"#utility.yul\":18327:18712   */\n      swap3\n      swap2\n      pop\n      pop\n      jump\t// out\n        /* \"#utility.yul\":18718:19272   */\n    tag_150:\n        /* \"#utility.yul\":18813:18819   */\n      0x00\n        /* \"#utility.yul\":18862:18864   */\n      0x20\n        /* \"#utility.yul\":18850:18859   */\n      dup3\n        /* \"#utility.yul\":18841:18848   */\n      dup5\n        /* \"#utility.yul\":18837:18860   */\n      sub\n        /* \"#utility.yul\":18833:18865   */\n      slt\n        /* \"#utility.yul\":18830:18949   */\n      iszero\n      tag_450\n      jumpi\n        /* \"#utility.yul\":18868:18947   */\n      tag_451\n      tag_194\n      jump\t// in\n    tag_451:\n        /* \"#utility.yul\":18830:18949   */\n    tag_450:\n        /* \"#utility.yul\":19009:19010   */\n      0x00\n        /* \"#utility.yul\":18998:19007   */\n      dup3\n        /* \"#utility.yul\":18994:19011   */\n      add\n        /* \"#utility.yul\":18988:19012   */\n      mload\n        /* \"#utility.yul\":19039:19057   */\n      0xffffffffffffffff\n        /* \"#utility.yul\":19031:19037   */\n      dup2\n        /* \"#utility.yul\":19028:19058   */\n      gt\n        /* \"#utility.yul\":19025:19142   */\n      iszero\n      tag_452\n      jumpi\n        /* \"#utility.yul\":19061:19140   */\n      tag_453\n      tag_195\n      jump\t// in\n    tag_453:\n        /* \"#utility.yul\":19025:19142   */\n    tag_452:\n        /* \"#utility.yul\":19166:19255   */\n      tag_454\n        /* \"#utility.yul\":19247:19254   */\n      dup5\n        /* \"#utility.yul\":19238:19244   */\n      dup3\n        /* \"#utility.yul\":19227:19236   */\n      dup6\n        /* \"#utility.yul\":19223:19245   */\n      add\n        /* \"#utility.yul\":19166:19255   */\n      tag_236\n      jump\t// in\n    tag_454:\n        /* \"#utility.yul\":19156:19255   */\n      swap2\n      pop\n        /* \"#utility.yul\":18959:19265   */\n      pop\n        /* \"#utility.yul\":18718:19272   */\n      swap3\n      swap2\n      pop\n      pop\n      jump\t// out\n        /* \"#utility.yul\":19278:19498   */\n    tag_237:\n        /* \"#utility.yul\":19418:19452   */\n      0x4f6e6c792061646d696e2063616e2063616c6c20746869732066756e6374696f\n        /* \"#utility.yul\":19414:19415   */\n      0x00\n        /* \"#utility.yul\":19406:19412   */\n      dup3\n        /* \"#utility.yul\":19402:19416   */\n      add\n        /* \"#utility.yul\":19395:19453   */\n      mstore\n        /* \"#utility.yul\":19487:19490   */\n      0x6e00000000000000000000000000000000000000000000000000000000000000\n        /* \"#utility.yul\":19482:19484   */\n      0x20\n        /* \"#utility.yul\":19474:19480   */\n      dup3\n        /* \"#utility.yul\":19470:19485   */\n      add\n        /* \"#utility.yul\":19463:19491   */\n      mstore\n        /* \"#utility.yul\":19278:19498   */\n      pop\n      jump\t// out\n        /* \"#utility.yul\":19504:19870   */\n    tag_238:\n        /* \"#utility.yul\":19646:19649   */\n      0x00\n        /* \"#utility.yul\":19667:19734   */\n      tag_457\n        /* \"#utility.yul\":19731:19733   */\n      0x21\n        /* \"#utility.yul\":19726:19729   */\n      dup4\n        /* \"#utility.yul\":19667:19734   */\n      tag_202\n      jump\t// in\n    tag_457:\n        /* \"#utility.yul\":19660:19734   */\n      swap2\n      pop\n        /* \"#utility.yul\":19743:19836   */\n      tag_458\n        /* \"#utility.yul\":19832:19835   */\n      dup3\n        /* \"#utility.yul\":19743:19836   */\n      tag_237\n      jump\t// in\n    tag_458:\n        /* \"#utility.yul\":19861:19863   */\n      0x40\n        /* \"#utility.yul\":19856:19859   */\n      dup3\n        /* \"#utility.yul\":19852:19864   */\n      add\n        /* \"#utility.yul\":19845:19864   */\n      swap1\n      pop\n        /* \"#utility.yul\":19504:19870   */\n      swap2\n      swap1\n      pop\n      jump\t// out\n        /* \"#utility.yul\":19876:20295   */\n    tag_156:\n        /* \"#utility.yul\":20042:20046   */\n      0x00\n        /* \"#utility.yul\":20080:20082   */\n      0x20\n        /* \"#utility.yul\":20069:20078   */\n      dup3\n        /* \"#utility.yul\":20065:20083   */\n      add\n        /* \"#utility.yul\":20057:20083   */\n      swap1\n      pop\n        /* \"#utility.yul\":20129:20138   */\n      dup2\n        /* \"#utility.yul\":20123:20127   */\n      dup2\n        /* \"#utility.yul\":20119:20139   */\n      sub\n        /* \"#utility.yul\":20115:20116   */\n      0x00\n        /* \"#utility.yul\":20104:20113   */\n      dup4\n        /* \"#utility.yul\":20100:20117   */\n      add\n        /* \"#utility.yul\":20093:20140   */\n      mstore\n        /* \"#utility.yul\":20157:20288   */\n      tag_460\n        /* \"#utility.yul\":20283:20287   */\n      dup2\n        /* \"#utility.yul\":20157:20288   */\n      tag_238\n      jump\t// in\n    tag_460:\n        /* \"#utility.yul\":20149:20288   */\n      swap1\n      pop\n        /* \"#utility.yul\":19876:20295   */\n      swap2\n      swap1\n      pop\n      jump\t// out\n        /* \"#utility.yul\":20301:20477   */\n    tag_159:\n        /* \"#utility.yul\":20333:20334   */\n      0x00\n        /* \"#utility.yul\":20350:20370   */\n      tag_462\n        /* \"#utility.yul\":20368:20369   */\n      dup3\n        /* \"#utility.yul\":20350:20370   */\n      tag_198\n      jump\t// in\n    tag_462:\n        /* \"#utility.yul\":20345:20370   */\n      swap2\n      pop\n        /* \"#utility.yul\":20384:20404   */\n      tag_463\n        /* \"#utility.yul\":20402:20403   */\n      dup4\n        /* \"#utility.yul\":20384:20404   */\n      tag_198\n      jump\t// in\n    tag_463:\n        /* \"#utility.yul\":20379:20404   */\n      swap3\n      pop\n        /* \"#utility.yul\":20423:20424   */\n      dup3\n        /* \"#utility.yul\":20413:20448   */\n      tag_464\n      jumpi\n        /* \"#utility.yul\":20428:20446   */\n      tag_465\n      tag_209\n      jump\t// in\n    tag_465:\n        /* \"#utility.yul\":20413:20448   */\n    tag_464:\n        /* \"#utility.yul\":20469:20470   */\n      dup3\n        /* \"#utility.yul\":20466:20467   */\n      dup3\n        /* \"#utility.yul\":20462:20471   */\n      mod\n        /* \"#utility.yul\":20457:20471   */\n      swap1\n      pop\n        /* \"#utility.yul\":20301:20477   */\n      swap3\n      swap2\n      pop\n      pop\n      jump\t// out\n        /* \"#utility.yul\":20483:20559   */\n    tag_239:\n        /* \"#utility.yul\":20519:20526   */\n      0x00\n        /* \"#utility.yul\":20548:20553   */\n      dup2\n        /* \"#utility.yul\":20537:20553   */\n      swap1\n      pop\n        /* \"#utility.yul\":20483:20559   */\n      swap2\n      swap1\n      pop\n      jump\t// out\n        /* \"#utility.yul\":20565:20685   */\n    tag_240:\n        /* \"#utility.yul\":20637:20660   */\n      tag_468\n        /* \"#utility.yul\":20654:20659   */\n      dup2\n        /* \"#utility.yul\":20637:20660   */\n      tag_239\n      jump\t// in\n    tag_468:\n        /* \"#utility.yul\":20630:20635   */\n      dup2\n        /* \"#utility.yul\":20627:20661   */\n      eq\n        /* \"#utility.yul\":20617:20679   */\n      tag_469\n      jumpi\n        /* \"#utility.yul\":20675:20676   */\n      0x00\n        /* \"#utility.yul\":20672:20673   */\n      dup1\n        /* \"#utility.yul\":20665:20677   */\n      revert\n        /* \"#utility.yul\":20617:20679   */\n    tag_469:\n        /* \"#utility.yul\":20565:20685   */\n      pop\n      jump\t// out\n        /* \"#utility.yul\":20691:20832   */\n    tag_241:\n        /* \"#utility.yul\":20747:20752   */\n      0x00\n        /* \"#utility.yul\":20778:20784   */\n      dup2\n        /* \"#utility.yul\":20772:20785   */\n      mload\n        /* \"#utility.yul\":20763:20785   */\n      swap1\n      pop\n        /* \"#utility.yul\":20794:20826   */\n      tag_471\n        /* \"#utility.yul\":20820:20825   */\n      dup2\n        /* \"#utility.yul\":20794:20826   */\n      tag_240\n      jump\t// in\n    tag_471:\n        /* \"#utility.yul\":20691:20832   */\n      swap3\n      swap2\n      pop\n      pop\n      jump\t// out\n        /* \"#utility.yul\":20838:21187   */\n    tag_166:\n        /* \"#utility.yul\":20907:20913   */\n      0x00\n        /* \"#utility.yul\":20956:20958   */\n      0x20\n        /* \"#utility.yul\":20944:20953   */\n      dup3\n        /* \"#utility.yul\":20935:20942   */\n      dup5\n        /* \"#utility.yul\":20931:20954   */\n      sub\n        /* \"#utility.yul\":20927:20959   */\n      slt\n        /* \"#utility.yul\":20924:21043   */\n      iszero\n      tag_473\n      jumpi\n        /* \"#utility.yul\":20962:21041   */\n      tag_474\n      tag_194\n      jump\t// in\n    tag_474:\n        /* \"#utility.yul\":20924:21043   */\n    tag_473:\n        /* \"#utility.yul\":21082:21083   */\n      0x00\n        /* \"#utility.yul\":21107:21170   */\n      tag_475\n        /* \"#utility.yul\":21162:21169   */\n      dup5\n        /* \"#utility.yul\":21153:21159   */\n      dup3\n        /* \"#utility.yul\":21142:21151   */\n      dup6\n        /* \"#utility.yul\":21138:21160   */\n      add\n        /* \"#utility.yul\":21107:21170   */\n      tag_241\n      jump\t// in\n    tag_475:\n        /* \"#utility.yul\":21097:21170   */\n      swap2\n      pop\n        /* \"#utility.yul\":21053:21180   */\n      pop\n        /* \"#utility.yul\":20838:21187   */\n      swap3\n      swap2\n      pop\n      pop\n      jump\t// out\n        /* \"#utility.yul\":21193:21364   */\n    tag_242:\n        /* \"#utility.yul\":21333:21356   */\n      0x496e76616c6964204554482f5553442070726963650000000000000000000000\n        /* \"#utility.yul\":21329:21330   */\n      0x00\n        /* \"#utility.yul\":21321:21327   */\n      dup3\n        /* \"#utility.yul\":21317:21331   */\n      add\n        /* \"#utility.yul\":21310:21357   */\n      mstore\n        /* \"#utility.yul\":21193:21364   */\n      pop\n      jump\t// out\n        /* \"#utility.yul\":21370:21736   */\n    tag_243:\n        /* \"#utility.yul\":21512:21515   */\n      0x00\n        /* \"#utility.yul\":21533:21600   */\n      tag_478\n        /* \"#utility.yul\":21597:21599   */\n      0x15\n        /* \"#utility.yul\":21592:21595   */\n      dup4\n        /* \"#utility.yul\":21533:21600   */\n      tag_202\n      jump\t// in\n    tag_478:\n        /* \"#utility.yul\":21526:21600   */\n      swap2\n      pop\n        /* \"#utility.yul\":21609:21702   */\n      tag_479\n        /* \"#utility.yul\":21698:21701   */\n      dup3\n        /* \"#utility.yul\":21609:21702   */\n      tag_242\n      jump\t// in\n    tag_479:\n        /* \"#utility.yul\":21727:21729   */\n      0x20\n        /* \"#utility.yul\":21722:21725   */\n      dup3\n        /* \"#utility.yul\":21718:21730   */\n      add\n        /* \"#utility.yul\":21711:21730   */\n      swap1\n      pop\n        /* \"#utility.yul\":21370:21736   */\n      swap2\n      swap1\n      pop\n      jump\t// out\n        /* \"#utility.yul\":21742:22161   */\n    tag_169:\n        /* \"#utility.yul\":21908:21912   */\n      0x00\n        /* \"#utility.yul\":21946:21948   */\n      0x20\n        /* \"#utility.yul\":21935:21944   */\n      dup3\n        /* \"#utility.yul\":21931:21949   */\n      add\n        /* \"#utility.yul\":21923:21949   */\n      swap1\n      pop\n        /* \"#utility.yul\":21995:22004   */\n      dup2\n        /* \"#utility.yul\":21989:21993   */\n      dup2\n        /* \"#utility.yul\":21985:22005   */\n      sub\n        /* \"#utility.yul\":21981:21982   */\n      0x00\n        /* \"#utility.yul\":21970:21979   */\n      dup4\n        /* \"#utility.yul\":21966:21983   */\n      add\n        /* \"#utility.yul\":21959:22006   */\n      mstore\n        /* \"#utility.yul\":22023:22154   */\n      tag_481\n        /* \"#utility.yul\":22149:22153   */\n      dup2\n        /* \"#utility.yul\":22023:22154   */\n      tag_243\n      jump\t// in\n    tag_481:\n        /* \"#utility.yul\":22015:22154   */\n      swap1\n      pop\n        /* \"#utility.yul\":21742:22161   */\n      swap2\n      swap1\n      pop\n      jump\t// out\n        /* \"#utility.yul\":22167:22394   */\n    tag_244:\n        /* \"#utility.yul\":22307:22341   */\n      0x4665652070657263656e74616765206e6f742073657420666f72207468697320\n        /* \"#utility.yul\":22303:22304   */\n      0x00\n        /* \"#utility.yul\":22295:22301   */\n      dup3\n        /* \"#utility.yul\":22291:22305   */\n      add\n        /* \"#utility.yul\":22284:22342   */\n      mstore\n        /* \"#utility.yul\":22376:22386   */\n      0x6475726174696f6e000000000000000000000000000000000000000000000000\n        /* \"#utility.yul\":22371:22373   */\n      0x20\n        /* \"#utility.yul\":22363:22369   */\n      dup3\n        /* \"#utility.yul\":22359:22374   */\n      add\n        /* \"#utility.yul\":22352:22387   */\n      mstore\n        /* \"#utility.yul\":22167:22394   */\n      pop\n      jump\t// out\n        /* \"#utility.yul\":22400:22766   */\n    tag_245:\n        /* \"#utility.yul\":22542:22545   */\n      0x00\n        /* \"#utility.yul\":22563:22630   */\n      tag_484\n        /* \"#utility.yul\":22627:22629   */\n      0x28\n        /* \"#utility.yul\":22622:22625   */\n      dup4\n        /* \"#utility.yul\":22563:22630   */\n      tag_202\n      jump\t// in\n    tag_484:\n        /* \"#utility.yul\":22556:22630   */\n      swap2\n      pop\n        /* \"#utility.yul\":22639:22732   */\n      tag_485\n        /* \"#utility.yul\":22728:22731   */\n      dup3\n        /* \"#utility.yul\":22639:22732   */\n      tag_244\n      jump\t// in\n    tag_485:\n        /* \"#utility.yul\":22757:22759   */\n      0x40\n        /* \"#utility.yul\":22752:22755   */\n      dup3\n        /* \"#utility.yul\":22748:22760   */\n      add\n        /* \"#utility.yul\":22741:22760   */\n      swap1\n      pop\n        /* \"#utility.yul\":22400:22766   */\n      swap2\n      swap1\n      pop\n      jump\t// out\n        /* \"#utility.yul\":22772:23191   */\n    tag_187:\n        /* \"#utility.yul\":22938:22942   */\n      0x00\n        /* \"#utility.yul\":22976:22978   */\n      0x20\n        /* \"#utility.yul\":22965:22974   */\n      dup3\n        /* \"#utility.yul\":22961:22979   */\n      add\n        /* \"#utility.yul\":22953:22979   */\n      swap1\n      pop\n        /* \"#utility.yul\":23025:23034   */\n      dup2\n        /* \"#utility.yul\":23019:23023   */\n      dup2\n        /* \"#utility.yul\":23015:23035   */\n      sub\n        /* \"#utility.yul\":23011:23012   */\n      0x00\n        /* \"#utility.yul\":23000:23009   */\n      dup4\n        /* \"#utility.yul\":22996:23013   */\n      add\n        /* \"#utility.yul\":22989:23036   */\n      mstore\n        /* \"#utility.yul\":23053:23184   */\n      tag_487\n        /* \"#utility.yul\":23179:23183   */\n      dup2\n        /* \"#utility.yul\":23053:23184   */\n      tag_245\n      jump\t// in\n    tag_487:\n        /* \"#utility.yul\":23045:23184   */\n      swap1\n      pop\n        /* \"#utility.yul\":22772:23191   */\n      swap2\n      swap1\n      pop\n      jump\t// out\n\n    auxdata: 0xa2646970667358221220738269dc7e2afecd7b4e35b0d9d38565856f55c5e2a491d83c4aba9294ed1b2464736f6c63430008140033\n}\n",
				"bytecode": {
					"linkReferences": {},
					"object": "608060405234801562000010575f80fd5b5060405162001e7138038062001e7183398181016040528101906200003691906200022f565b335f806101000a81548173ffffffffffffffffffffffffffffffffffffffff021916908373ffffffffffffffffffffffffffffffffffffffff1602179055508360015f6101000a81548173ffffffffffffffffffffffffffffffffffffffff021916908373ffffffffffffffffffffffffffffffffffffffff1602179055508260025f6101000a81548173ffffffffffffffffffffffffffffffffffffffff021916908373ffffffffffffffffffffffffffffffffffffffff1602179055508160035f6101000a81548173ffffffffffffffffffffffffffffffffffffffff021916908373ffffffffffffffffffffffffffffffffffffffff1602179055508060045f6101000a81548173ffffffffffffffffffffffffffffffffffffffff021916908373ffffffffffffffffffffffffffffffffffffffff160217905550610ea660055f601e81526020019081526020015f20819055506115f960055f603c81526020019081526020015f2081905550611e3660055f605a81526020019081526020015f2081905550505050506200029e565b5f80fd5b5f73ffffffffffffffffffffffffffffffffffffffff82169050919050565b5f620001f982620001ce565b9050919050565b6200020b81620001ed565b811462000216575f80fd5b50565b5f81519050620002298162000200565b92915050565b5f805f80608085870312156200024a5762000249620001ca565b5b5f620002598782880162000219565b94505060206200026c8782880162000219565b93505060406200027f8782880162000219565b9250506060620002928782880162000219565b91505092959194509250565b611bc580620002ac5f395ff3fe608060405234801561000f575f80fd5b50600436106100fd575f3560e01c806350f3845b11610095578063b92d21c411610064578063b92d21c41461029d578063b9aa6ec4146102bb578063e4ba0d7b146102d9578063f851a4401461030d576100fd565b806350f3845b146102115780637a9970351461022f578063851f71471461024b578063b5d5b5fa14610269576100fd565b80632e0f2625116100d15780632e0f26251461019d5780632e17de78146101bb57806345aefbdb146101d75780634f0e0ef3146101f3576100fd565b8062c3a272146101015780631b545a171461011f57806320ca3c7f1461014f57806326230e2f1461016d575b5f80fd5b61010961032b565b6040516101169190610f9f565b60405180910390f35b61013960048036038101906101349190610ff3565b610350565b6040516101469190611036565b60405180910390f35b610157610399565b6040516101649190610f9f565b60405180910390f35b61018760048036038101906101829190611079565b6103be565b6040516101949190611036565b60405180910390f35b6101a56103d3565b6040516101b29190611036565b60405180910390f35b6101d560048036038101906101d09190611079565b6103d8565b005b6101f160048036038101906101ec91906110a4565b6105a3565b005b6101fb61090a565b6040516102089190610f9f565b60405180910390f35b61021961092f565b6040516102269190611036565b60405180910390f35b610249600480360381019061024491906110a4565b610b29565b005b610253610c1e565b6040516102609190611036565b60405180910390f35b610283600480360381019061027e91906110e2565b610cfe565b604051610294959493929190611120565b60405180910390f35b6102a5610d4a565b6040516102b29190611036565b60405180910390f35b6102c3610d8c565b6040516102d09190610f9f565b60405180910390f35b6102f360048036038101906102ee91906110e2565b610db1565b604051610304959493929190611120565b60405180910390f35b610315610ec3565b6040516103229190610f9f565b60405180910390f35b60045f9054906101000a900473ffffffffffffffffffffffffffffffffffffffff1681565b5f60065f8373ffffffffffffffffffffffffffffffffffffffff1673ffffffffffffffffffffffffffffffffffffffff1681526020019081526020015f20805490509050919050565b60035f9054906101000a900473ffffffffffffffffffffffffffffffffffffffff1681565b6005602052805f5260405f205f915090505481565b601281565b5f60065f3373ffffffffffffffffffffffffffffffffffffffff1673ffffffffffffffffffffffffffffffffffffffff1681526020019081526020015f2090508080549050821061045e576040517f08c379a0000000000000000000000000000000000000000000000000000000008152600401610455906111cb565b60405180910390fd5b5f818381548110610472576104716111e9565b5b905f5260205f209060050201905080600201544210156104e3573373ffffffffffffffffffffffffffffffffffffffff167f0f5bb82176feb1b5e747e28471aa92156a04d9f3ab9f45f28e2d704232b93f7582600101546040516104d69190611036565b60405180910390a261059e565b5f816001015490505f6104f4610d4a565b90505f8184600301546105079190611243565b90505f81111561054c575f84600301546012600a61052591906113a5565b8361053091906113ef565b61053a919061145d565b90508084610548919061148d565b9350505b3373ffffffffffffffffffffffffffffffffffffffff167f0f5bb82176feb1b5e747e28471aa92156a04d9f3ab9f45f28e2d704232b93f75846040516105929190611036565b60405180910390a25050505b505050565b5f82116105e5576040517f08c379a00000000000000000000000000000000000000000000000000000000081526004016105dc9061150a565b60405180910390fd5b5f8111610627576040517f08c379a000000000000000000000000000000000000000000000000000000000815260040161061e90611572565b60405180910390fd5b5f610630610d4a565b90505f61063d8385610ee6565b90505f818561064c9190611243565b90505f6012600a61065d91906113a5565b848361066991906113ef565b610673919061145d565b905060015f9054906101000a900473ffffffffffffffffffffffffffffffffffffffff1673ffffffffffffffffffffffffffffffffffffffff166323b872dd3330896040518463ffffffff1660e01b81526004016106d393929190611590565b6020604051808303815f875af11580156106ef573d5f803e3d5ffd5b505050506040513d601f19601f8201168201806040525081019061071391906115fa565b505f620151808661072491906113ef565b4261072f919061148d565b905060065f3373ffffffffffffffffffffffffffffffffffffffff1673ffffffffffffffffffffffffffffffffffffffff1681526020019081526020015f206040518060a0016040528088815260200185815260200183815260200187815260200184815250908060018154018082558091505060019003905f5260205f2090600502015f909190919091505f820151815f015560208201518160010155604082015181600201556060820151816003015560808201518160040155505060015f9054906101000a900473ffffffffffffffffffffffffffffffffffffffff1673ffffffffffffffffffffffffffffffffffffffff1663a9059cbb5f8054906101000a900473ffffffffffffffffffffffffffffffffffffffff16866040518363ffffffff1660e01b8152600401610868929190611625565b6020604051808303815f875af1158015610884573d5f803e3d5ffd5b505050506040513d601f19601f820116820180604052508101906108a891906115fa565b503373ffffffffffffffffffffffffffffffffffffffff167fc16be9a586414a157dd46b4d023aa9997a025dd1cbbaa67ac0c1b8273a5eaf558888848989886040516108f99695949392919061164c565b60405180910390a250505050505050565b60025f9054906101000a900473ffffffffffffffffffffffffffffffffffffffff1681565b5f80600267ffffffffffffffff81111561094c5761094b6116ab565b5b60405190808252806020026020018201604052801561097a5781602001602082028036833780820191505090505b50905060015f9054906101000a900473ffffffffffffffffffffffffffffffffffffffff16815f815181106109b2576109b16111e9565b5b602002602001019073ffffffffffffffffffffffffffffffffffffffff16908173ffffffffffffffffffffffffffffffffffffffff168152505060025f9054906101000a900473ffffffffffffffffffffffffffffffffffffffff1681600181518110610a2257610a216111e9565b5b602002602001019073ffffffffffffffffffffffffffffffffffffffff16908173ffffffffffffffffffffffffffffffffffffffff16815250505f60035f9054906101000a900473ffffffffffffffffffffffffffffffffffffffff1690505f8173ffffffffffffffffffffffffffffffffffffffff1663d06ca61f633b9aca00856040518363ffffffff1660e01b8152600401610ac19291906117d1565b5f60405180830381865afa158015610adb573d5f803e3d5ffd5b505050506040513d5f823e3d601f19601f82011682018060405250810190610b039190611936565b905080600181518110610b1957610b186111e9565b5b6020026020010151935050505090565b5f8054906101000a900473ffffffffffffffffffffffffffffffffffffffff1673ffffffffffffffffffffffffffffffffffffffff163373ffffffffffffffffffffffffffffffffffffffff1614610bb6576040517f08c379a0000000000000000000000000000000000000000000000000000000008152600401610bad906119ed565b60405180910390fd5b5f601e83610bc49190611a0b565b14610c04576040517f08c379a0000000000000000000000000000000000000000000000000000000008152600401610bfb90611572565b60405180910390fd5b8060055f8481526020019081526020015f20819055505050565b5f8060045f9054906101000a900473ffffffffffffffffffffffffffffffffffffffff1690505f8173ffffffffffffffffffffffffffffffffffffffff166350d25bcd6040518163ffffffff1660e01b8152600401602060405180830381865afa158015610c8e573d5f803e3d5ffd5b505050506040513d601f19601f82011682018060405250810190610cb29190611a6e565b90505f8113610cf6576040517f08c379a0000000000000000000000000000000000000000000000000000000008152600401610ced90611ae3565b60405180910390fd5b809250505090565b6006602052815f5260405f208181548110610d17575f80fd5b905f5260205f2090600502015f9150915050805f0154908060010154908060020154908060030154908060040154905085565b5f80610d54610c1e565b90505f610d5f61092f565b90506012600a610d6f91906113a5565b8282610d7b91906113ef565b610d85919061145d565b9250505090565b60015f9054906101000a900473ffffffffffffffffffffffffffffffffffffffff1681565b5f805f805f60065f8873ffffffffffffffffffffffffffffffffffffffff1673ffffffffffffffffffffffffffffffffffffffff1681526020019081526020015f20805490508610610e38576040517f08c379a0000000000000000000000000000000000000000000000000000000008152600401610e2f906111cb565b60405180910390fd5b5f60065f8973ffffffffffffffffffffffffffffffffffffffff1673ffffffffffffffffffffffffffffffffffffffff1681526020019081526020015f208781548110610e8857610e876111e9565b5b905f5260205f2090600502019050805f0154816001015482600201548360030154846004015495509550955095509550509295509295909350565b5f8054906101000a900473ffffffffffffffffffffffffffffffffffffffff1681565b5f8060055f8581526020019081526020015f205490505f8111610f3e576040517f08c379a0000000000000000000000000000000000000000000000000000000008152600401610f3590611b71565b60405180910390fd5b6127108184610f4d91906113ef565b610f57919061145d565b91505092915050565b5f73ffffffffffffffffffffffffffffffffffffffff82169050919050565b5f610f8982610f60565b9050919050565b610f9981610f7f565b82525050565b5f602082019050610fb25f830184610f90565b92915050565b5f604051905090565b5f80fd5b5f80fd5b610fd281610f7f565b8114610fdc575f80fd5b50565b5f81359050610fed81610fc9565b92915050565b5f6020828403121561100857611007610fc1565b5b5f61101584828501610fdf565b91505092915050565b5f819050919050565b6110308161101e565b82525050565b5f6020820190506110495f830184611027565b92915050565b6110588161101e565b8114611062575f80fd5b50565b5f813590506110738161104f565b92915050565b5f6020828403121561108e5761108d610fc1565b5b5f61109b84828501611065565b91505092915050565b5f80604083850312156110ba576110b9610fc1565b5b5f6110c785828601611065565b92505060206110d885828601611065565b9150509250929050565b5f80604083850312156110f8576110f7610fc1565b5b5f61110585828601610fdf565b925050602061111685828601611065565b9150509250929050565b5f60a0820190506111335f830188611027565b6111406020830187611027565b61114d6040830186611027565b61115a6060830185611027565b6111676080830184611027565b9695505050505050565b5f82825260208201905092915050565b7f496e76616c696420696e646578000000000000000000000000000000000000005f82015250565b5f6111b5600d83611171565b91506111c082611181565b602082019050919050565b5f6020820190508181035f8301526111e2816111a9565b9050919050565b7f4e487b71000000000000000000000000000000000000000000000000000000005f52603260045260245ffd5b7f4e487b71000000000000000000000000000000000000000000000000000000005f52601160045260245ffd5b5f61124d8261101e565b91506112588361101e565b92508282039050818111156112705761126f611216565b5b92915050565b5f8160011c9050919050565b5f808291508390505b60018511156112cb578086048111156112a7576112a6611216565b5b60018516156112b65780820291505b80810290506112c485611276565b945061128b565b94509492505050565b5f826112e3576001905061139e565b816112f0575f905061139e565b816001811461130657600281146113105761133f565b600191505061139e565b60ff84111561132257611321611216565b5b8360020a91508482111561133957611338611216565b5b5061139e565b5060208310610133831016604e8410600b84101617156113745782820a90508381111561136f5761136e611216565b5b61139e565b6113818484846001611282565b9250905081840481111561139857611397611216565b5b81810290505b9392505050565b5f6113af8261101e565b91506113ba8361101e565b92506113e77fffffffffffffffffffffffffffffffffffffffffffffffffffffffffffffffff84846112d4565b905092915050565b5f6113f98261101e565b91506114048361101e565b92508282026114128161101e565b9150828204841483151761142957611428611216565b5b5092915050565b7f4e487b71000000000000000000000000000000000000000000000000000000005f52601260045260245ffd5b5f6114678261101e565b91506114728361101e565b92508261148257611481611430565b5b828204905092915050565b5f6114978261101e565b91506114a28361101e565b92508282019050808211156114ba576114b9611216565b5b92915050565b7f496e76616c696420616d6f756e740000000000000000000000000000000000005f82015250565b5f6114f4600e83611171565b91506114ff826114c0565b602082019050919050565b5f6020820190508181035f830152611521816114e8565b9050919050565b7f496e76616c6964206475726174696f6e000000000000000000000000000000005f82015250565b5f61155c601083611171565b915061156782611528565b602082019050919050565b5f6020820190508181035f83015261158981611550565b9050919050565b5f6060820190506115a35f830186610f90565b6115b06020830185610f90565b6115bd6040830184611027565b949350505050565b5f8115159050919050565b6115d9816115c5565b81146115e3575f80fd5b50565b5f815190506115f4816115d0565b92915050565b5f6020828403121561160f5761160e610fc1565b5b5f61161c848285016115e6565b91505092915050565b5f6040820190506116385f830185610f90565b6116456020830184611027565b9392505050565b5f60c08201905061165f5f830189611027565b61166c6020830188611027565b6116796040830187611027565b6116866060830186611027565b6116936080830185611027565b6116a060a0830184611027565b979650505050505050565b7f4e487b71000000000000000000000000000000000000000000000000000000005f52604160045260245ffd5b5f819050919050565b5f819050919050565b5f6117046116ff6116fa846116d8565b6116e1565b61101e565b9050919050565b611714816116ea565b82525050565b5f81519050919050565b5f82825260208201905092915050565b5f819050602082019050919050565b61174c81610f7f565b82525050565b5f61175d8383611743565b60208301905092915050565b5f602082019050919050565b5f61177f8261171a565b6117898185611724565b935061179483611734565b805f5b838110156117c45781516117ab8882611752565b97506117b683611769565b925050600181019050611797565b5085935050505092915050565b5f6040820190506117e45f83018561170b565b81810360208301526117f68184611775565b90509392505050565b5f80fd5b5f601f19601f8301169050919050565b61181c82611803565b810181811067ffffffffffffffff8211171561183b5761183a6116ab565b5b80604052505050565b5f61184d610fb8565b90506118598282611813565b919050565b5f67ffffffffffffffff821115611878576118776116ab565b5b602082029050602081019050919050565b5f80fd5b5f8151905061189b8161104f565b92915050565b5f6118b36118ae8461185e565b611844565b905080838252602082019050602084028301858111156118d6576118d5611889565b5b835b818110156118ff57806118eb888261188d565b8452602084019350506020810190506118d8565b5050509392505050565b5f82601f83011261191d5761191c6117ff565b5b815161192d8482602086016118a1565b91505092915050565b5f6020828403121561194b5761194a610fc1565b5b5f82015167ffffffffffffffff81111561196857611967610fc5565b5b61197484828501611909565b91505092915050565b7f4f6e6c792061646d696e2063616e2063616c6c20746869732066756e6374696f5f8201527f6e00000000000000000000000000000000000000000000000000000000000000602082015250565b5f6119d7602183611171565b91506119e28261197d565b604082019050919050565b5f6020820190508181035f830152611a04816119cb565b9050919050565b5f611a158261101e565b9150611a208361101e565b925082611a3057611a2f611430565b5b828206905092915050565b5f819050919050565b611a4d81611a3b565b8114611a57575f80fd5b50565b5f81519050611a6881611a44565b92915050565b5f60208284031215611a8357611a82610fc1565b5b5f611a9084828501611a5a565b91505092915050565b7f496e76616c6964204554482f55534420707269636500000000000000000000005f82015250565b5f611acd601583611171565b9150611ad882611a99565b602082019050919050565b5f6020820190508181035f830152611afa81611ac1565b9050919050565b7f4665652070657263656e74616765206e6f742073657420666f722074686973205f8201527f6475726174696f6e000000000000000000000000000000000000000000000000602082015250565b5f611b5b602883611171565b9150611b6682611b01565b604082019050919050565b5f6020820190508181035f830152611b8881611b4f565b905091905056fea2646970667358221220738269dc7e2afecd7b4e35b0d9d38565856f55c5e2a491d83c4aba9294ed1b2464736f6c63430008140033",
					"opcodes": "PUSH1 0x80 PUSH1 0x40 MSTORE CALLVALUE DUP1 ISZERO PUSH3 0x10 JUMPI PUSH0 DUP1 REVERT JUMPDEST POP PUSH1 0x40 MLOAD PUSH3 0x1E71 CODESIZE SUB DUP1 PUSH3 0x1E71 DUP4 CODECOPY DUP2 DUP2 ADD PUSH1 0x40 MSTORE DUP2 ADD SWAP1 PUSH3 0x36 SWAP2 SWAP1 PUSH3 0x22F JUMP JUMPDEST CALLER PUSH0 DUP1 PUSH2 0x100 EXP DUP2 SLOAD DUP2 PUSH20 0xFFFFFFFFFFFFFFFFFFFFFFFFFFFFFFFFFFFFFFFF MUL NOT AND SWAP1 DUP4 PUSH20 0xFFFFFFFFFFFFFFFFFFFFFFFFFFFFFFFFFFFFFFFF AND MUL OR SWAP1 SSTORE POP DUP4 PUSH1 0x1 PUSH0 PUSH2 0x100 EXP DUP2 SLOAD DUP2 PUSH20 0xFFFFFFFFFFFFFFFFFFFFFFFFFFFFFFFFFFFFFFFF MUL NOT AND SWAP1 DUP4 PUSH20 0xFFFFFFFFFFFFFFFFFFFFFFFFFFFFFFFFFFFFFFFF AND MUL OR SWAP1 SSTORE POP DUP3 PUSH1 0x2 PUSH0 PUSH2 0x100 EXP DUP2 SLOAD DUP2 PUSH20 0xFFFFFFFFFFFFFFFFFFFFFFFFFFFFFFFFFFFFFFFF MUL NOT AND SWAP1 DUP4 PUSH20 0xFFFFFFFFFFFFFFFFFFFFFFFFFFFFFFFFFFFFFFFF AND MUL OR SWAP1 SSTORE POP DUP2 PUSH1 0x3 PUSH0 PUSH2 0x100 EXP DUP2 SLOAD DUP2 PUSH20 0xFFFFFFFFFFFFFFFFFFFFFFFFFFFFFFFFFFFFFFFF MUL NOT AND SWAP1 DUP4 PUSH20 0xFFFFFFFFFFFFFFFFFFFFFFFFFFFFFFFFFFFFFFFF AND MUL OR SWAP1 SSTORE POP DUP1 PUSH1 0x4 PUSH0 PUSH2 0x100 EXP DUP2 SLOAD DUP2 PUSH20 0xFFFFFFFFFFFFFFFFFFFFFFFFFFFFFFFFFFFFFFFF MUL NOT AND SWAP1 DUP4 PUSH20 0xFFFFFFFFFFFFFFFFFFFFFFFFFFFFFFFFFFFFFFFF AND MUL OR SWAP1 SSTORE POP PUSH2 0xEA6 PUSH1 0x5 PUSH0 PUSH1 0x1E DUP2 MSTORE PUSH1 0x20 ADD SWAP1 DUP2 MSTORE PUSH1 0x20 ADD PUSH0 KECCAK256 DUP2 SWAP1 SSTORE POP PUSH2 0x15F9 PUSH1 0x5 PUSH0 PUSH1 0x3C DUP2 MSTORE PUSH1 0x20 ADD SWAP1 DUP2 MSTORE PUSH1 0x20 ADD PUSH0 KECCAK256 DUP2 SWAP1 SSTORE POP PUSH2 0x1E36 PUSH1 0x5 PUSH0 PUSH1 0x5A DUP2 MSTORE PUSH1 0x20 ADD SWAP1 DUP2 MSTORE PUSH1 0x20 ADD PUSH0 KECCAK256 DUP2 SWAP1 SSTORE POP POP POP POP POP PUSH3 0x29E JUMP JUMPDEST PUSH0 DUP1 REVERT JUMPDEST PUSH0 PUSH20 0xFFFFFFFFFFFFFFFFFFFFFFFFFFFFFFFFFFFFFFFF DUP3 AND SWAP1 POP SWAP2 SWAP1 POP JUMP JUMPDEST PUSH0 PUSH3 0x1F9 DUP3 PUSH3 0x1CE JUMP JUMPDEST SWAP1 POP SWAP2 SWAP1 POP JUMP JUMPDEST PUSH3 0x20B DUP2 PUSH3 0x1ED JUMP JUMPDEST DUP2 EQ PUSH3 0x216 JUMPI PUSH0 DUP1 REVERT JUMPDEST POP JUMP JUMPDEST PUSH0 DUP2 MLOAD SWAP1 POP PUSH3 0x229 DUP2 PUSH3 0x200 JUMP JUMPDEST SWAP3 SWAP2 POP POP JUMP JUMPDEST PUSH0 DUP1 PUSH0 DUP1 PUSH1 0x80 DUP6 DUP8 SUB SLT ISZERO PUSH3 0x24A JUMPI PUSH3 0x249 PUSH3 0x1CA JUMP JUMPDEST JUMPDEST PUSH0 PUSH3 0x259 DUP8 DUP3 DUP9 ADD PUSH3 0x219 JUMP JUMPDEST SWAP5 POP POP PUSH1 0x20 PUSH3 0x26C DUP8 DUP3 DUP9 ADD PUSH3 0x219 JUMP JUMPDEST SWAP4 POP POP PUSH1 0x40 PUSH3 0x27F DUP8 DUP3 DUP9 ADD PUSH3 0x219 JUMP JUMPDEST SWAP3 POP POP PUSH1 0x60 PUSH3 0x292 DUP8 DUP3 DUP9 ADD PUSH3 0x219 JUMP JUMPDEST SWAP2 POP POP SWAP3 SWAP6 SWAP2 SWAP5 POP SWAP3 POP JUMP JUMPDEST PUSH2 0x1BC5 DUP1 PUSH3 0x2AC PUSH0 CODECOPY PUSH0 RETURN INVALID PUSH1 0x80 PUSH1 0x40 MSTORE CALLVALUE DUP1 ISZERO PUSH2 0xF JUMPI PUSH0 DUP1 REVERT JUMPDEST POP PUSH1 0x4 CALLDATASIZE LT PUSH2 0xFD JUMPI PUSH0 CALLDATALOAD PUSH1 0xE0 SHR DUP1 PUSH4 0x50F3845B GT PUSH2 0x95 JUMPI DUP1 PUSH4 0xB92D21C4 GT PUSH2 0x64 JUMPI DUP1 PUSH4 0xB92D21C4 EQ PUSH2 0x29D JUMPI DUP1 PUSH4 0xB9AA6EC4 EQ PUSH2 0x2BB JUMPI DUP1 PUSH4 0xE4BA0D7B EQ PUSH2 0x2D9 JUMPI DUP1 PUSH4 0xF851A440 EQ PUSH2 0x30D JUMPI PUSH2 0xFD JUMP JUMPDEST DUP1 PUSH4 0x50F3845B EQ PUSH2 0x211 JUMPI DUP1 PUSH4 0x7A997035 EQ PUSH2 0x22F JUMPI DUP1 PUSH4 0x851F7147 EQ PUSH2 0x24B JUMPI DUP1 PUSH4 0xB5D5B5FA EQ PUSH2 0x269 JUMPI PUSH2 0xFD JUMP JUMPDEST DUP1 PUSH4 0x2E0F2625 GT PUSH2 0xD1 JUMPI DUP1 PUSH4 0x2E0F2625 EQ PUSH2 0x19D JUMPI DUP1 PUSH4 0x2E17DE78 EQ PUSH2 0x1BB JUMPI DUP1 PUSH4 0x45AEFBDB EQ PUSH2 0x1D7 JUMPI DUP1 PUSH4 0x4F0E0EF3 EQ PUSH2 0x1F3 JUMPI PUSH2 0xFD JUMP JUMPDEST DUP1 PUSH3 0xC3A272 EQ PUSH2 0x101 JUMPI DUP1 PUSH4 0x1B545A17 EQ PUSH2 0x11F JUMPI DUP1 PUSH4 0x20CA3C7F EQ PUSH2 0x14F JUMPI DUP1 PUSH4 0x26230E2F EQ PUSH2 0x16D JUMPI JUMPDEST PUSH0 DUP1 REVERT JUMPDEST PUSH2 0x109 PUSH2 0x32B JUMP JUMPDEST PUSH1 0x40 MLOAD PUSH2 0x116 SWAP2 SWAP1 PUSH2 0xF9F JUMP JUMPDEST PUSH1 0x40 MLOAD DUP1 SWAP2 SUB SWAP1 RETURN JUMPDEST PUSH2 0x139 PUSH1 0x4 DUP1 CALLDATASIZE SUB DUP2 ADD SWAP1 PUSH2 0x134 SWAP2 SWAP1 PUSH2 0xFF3 JUMP JUMPDEST PUSH2 0x350 JUMP JUMPDEST PUSH1 0x40 MLOAD PUSH2 0x146 SWAP2 SWAP1 PUSH2 0x1036 JUMP JUMPDEST PUSH1 0x40 MLOAD DUP1 SWAP2 SUB SWAP1 RETURN JUMPDEST PUSH2 0x157 PUSH2 0x399 JUMP JUMPDEST PUSH1 0x40 MLOAD PUSH2 0x164 SWAP2 SWAP1 PUSH2 0xF9F JUMP JUMPDEST PUSH1 0x40 MLOAD DUP1 SWAP2 SUB SWAP1 RETURN JUMPDEST PUSH2 0x187 PUSH1 0x4 DUP1 CALLDATASIZE SUB DUP2 ADD SWAP1 PUSH2 0x182 SWAP2 SWAP1 PUSH2 0x1079 JUMP JUMPDEST PUSH2 0x3BE JUMP JUMPDEST PUSH1 0x40 MLOAD PUSH2 0x194 SWAP2 SWAP1 PUSH2 0x1036 JUMP JUMPDEST PUSH1 0x40 MLOAD DUP1 SWAP2 SUB SWAP1 RETURN JUMPDEST PUSH2 0x1A5 PUSH2 0x3D3 JUMP JUMPDEST PUSH1 0x40 MLOAD PUSH2 0x1B2 SWAP2 SWAP1 PUSH2 0x1036 JUMP JUMPDEST PUSH1 0x40 MLOAD DUP1 SWAP2 SUB SWAP1 RETURN JUMPDEST PUSH2 0x1D5 PUSH1 0x4 DUP1 CALLDATASIZE SUB DUP2 ADD SWAP1 PUSH2 0x1D0 SWAP2 SWAP1 PUSH2 0x1079 JUMP JUMPDEST PUSH2 0x3D8 JUMP JUMPDEST STOP JUMPDEST PUSH2 0x1F1 PUSH1 0x4 DUP1 CALLDATASIZE SUB DUP2 ADD SWAP1 PUSH2 0x1EC SWAP2 SWAP1 PUSH2 0x10A4 JUMP JUMPDEST PUSH2 0x5A3 JUMP JUMPDEST STOP JUMPDEST PUSH2 0x1FB PUSH2 0x90A JUMP JUMPDEST PUSH1 0x40 MLOAD PUSH2 0x208 SWAP2 SWAP1 PUSH2 0xF9F JUMP JUMPDEST PUSH1 0x40 MLOAD DUP1 SWAP2 SUB SWAP1 RETURN JUMPDEST PUSH2 0x219 PUSH2 0x92F JUMP JUMPDEST PUSH1 0x40 MLOAD PUSH2 0x226 SWAP2 SWAP1 PUSH2 0x1036 JUMP JUMPDEST PUSH1 0x40 MLOAD DUP1 SWAP2 SUB SWAP1 RETURN JUMPDEST PUSH2 0x249 PUSH1 0x4 DUP1 CALLDATASIZE SUB DUP2 ADD SWAP1 PUSH2 0x244 SWAP2 SWAP1 PUSH2 0x10A4 JUMP JUMPDEST PUSH2 0xB29 JUMP JUMPDEST STOP JUMPDEST PUSH2 0x253 PUSH2 0xC1E JUMP JUMPDEST PUSH1 0x40 MLOAD PUSH2 0x260 SWAP2 SWAP1 PUSH2 0x1036 JUMP JUMPDEST PUSH1 0x40 MLOAD DUP1 SWAP2 SUB SWAP1 RETURN JUMPDEST PUSH2 0x283 PUSH1 0x4 DUP1 CALLDATASIZE SUB DUP2 ADD SWAP1 PUSH2 0x27E SWAP2 SWAP1 PUSH2 0x10E2 JUMP JUMPDEST PUSH2 0xCFE JUMP JUMPDEST PUSH1 0x40 MLOAD PUSH2 0x294 SWAP6 SWAP5 SWAP4 SWAP3 SWAP2 SWAP1 PUSH2 0x1120 JUMP JUMPDEST PUSH1 0x40 MLOAD DUP1 SWAP2 SUB SWAP1 RETURN JUMPDEST PUSH2 0x2A5 PUSH2 0xD4A JUMP JUMPDEST PUSH1 0x40 MLOAD PUSH2 0x2B2 SWAP2 SWAP1 PUSH2 0x1036 JUMP JUMPDEST PUSH1 0x40 MLOAD DUP1 SWAP2 SUB SWAP1 RETURN JUMPDEST PUSH2 0x2C3 PUSH2 0xD8C JUMP JUMPDEST PUSH1 0x40 MLOAD PUSH2 0x2D0 SWAP2 SWAP1 PUSH2 0xF9F JUMP JUMPDEST PUSH1 0x40 MLOAD DUP1 SWAP2 SUB SWAP1 RETURN JUMPDEST PUSH2 0x2F3 PUSH1 0x4 DUP1 CALLDATASIZE SUB DUP2 ADD SWAP1 PUSH2 0x2EE SWAP2 SWAP1 PUSH2 0x10E2 JUMP JUMPDEST PUSH2 0xDB1 JUMP JUMPDEST PUSH1 0x40 MLOAD PUSH2 0x304 SWAP6 SWAP5 SWAP4 SWAP3 SWAP2 SWAP1 PUSH2 0x1120 JUMP JUMPDEST PUSH1 0x40 MLOAD DUP1 SWAP2 SUB SWAP1 RETURN JUMPDEST PUSH2 0x315 PUSH2 0xEC3 JUMP JUMPDEST PUSH1 0x40 MLOAD PUSH2 0x322 SWAP2 SWAP1 PUSH2 0xF9F JUMP JUMPDEST PUSH1 0x40 MLOAD DUP1 SWAP2 SUB SWAP1 RETURN JUMPDEST PUSH1 0x4 PUSH0 SWAP1 SLOAD SWAP1 PUSH2 0x100 EXP SWAP1 DIV PUSH20 0xFFFFFFFFFFFFFFFFFFFFFFFFFFFFFFFFFFFFFFFF AND DUP2 JUMP JUMPDEST PUSH0 PUSH1 0x6 PUSH0 DUP4 PUSH20 0xFFFFFFFFFFFFFFFFFFFFFFFFFFFFFFFFFFFFFFFF AND PUSH20 0xFFFFFFFFFFFFFFFFFFFFFFFFFFFFFFFFFFFFFFFF AND DUP2 MSTORE PUSH1 0x20 ADD SWAP1 DUP2 MSTORE PUSH1 0x20 ADD PUSH0 KECCAK256 DUP1 SLOAD SWAP1 POP SWAP1 POP SWAP2 SWAP1 POP JUMP JUMPDEST PUSH1 0x3 PUSH0 SWAP1 SLOAD SWAP1 PUSH2 0x100 EXP SWAP1 DIV PUSH20 0xFFFFFFFFFFFFFFFFFFFFFFFFFFFFFFFFFFFFFFFF AND DUP2 JUMP JUMPDEST PUSH1 0x5 PUSH1 0x20 MSTORE DUP1 PUSH0 MSTORE PUSH1 0x40 PUSH0 KECCAK256 PUSH0 SWAP2 POP SWAP1 POP SLOAD DUP2 JUMP JUMPDEST PUSH1 0x12 DUP2 JUMP JUMPDEST PUSH0 PUSH1 0x6 PUSH0 CALLER PUSH20 0xFFFFFFFFFFFFFFFFFFFFFFFFFFFFFFFFFFFFFFFF AND PUSH20 0xFFFFFFFFFFFFFFFFFFFFFFFFFFFFFFFFFFFFFFFF AND DUP2 MSTORE PUSH1 0x20 ADD SWAP1 DUP2 MSTORE PUSH1 0x20 ADD PUSH0 KECCAK256 SWAP1 POP DUP1 DUP1 SLOAD SWAP1 POP DUP3 LT PUSH2 0x45E JUMPI PUSH1 0x40 MLOAD PUSH32 0x8C379A000000000000000000000000000000000000000000000000000000000 DUP2 MSTORE PUSH1 0x4 ADD PUSH2 0x455 SWAP1 PUSH2 0x11CB JUMP JUMPDEST PUSH1 0x40 MLOAD DUP1 SWAP2 SUB SWAP1 REVERT JUMPDEST PUSH0 DUP2 DUP4 DUP2 SLOAD DUP2 LT PUSH2 0x472 JUMPI PUSH2 0x471 PUSH2 0x11E9 JUMP JUMPDEST JUMPDEST SWAP1 PUSH0 MSTORE PUSH1 0x20 PUSH0 KECCAK256 SWAP1 PUSH1 0x5 MUL ADD SWAP1 POP DUP1 PUSH1 0x2 ADD SLOAD TIMESTAMP LT ISZERO PUSH2 0x4E3 JUMPI CALLER PUSH20 0xFFFFFFFFFFFFFFFFFFFFFFFFFFFFFFFFFFFFFFFF AND PUSH32 0xF5BB82176FEB1B5E747E28471AA92156A04D9F3AB9F45F28E2D704232B93F75 DUP3 PUSH1 0x1 ADD SLOAD PUSH1 0x40 MLOAD PUSH2 0x4D6 SWAP2 SWAP1 PUSH2 0x1036 JUMP JUMPDEST PUSH1 0x40 MLOAD DUP1 SWAP2 SUB SWAP1 LOG2 PUSH2 0x59E JUMP JUMPDEST PUSH0 DUP2 PUSH1 0x1 ADD SLOAD SWAP1 POP PUSH0 PUSH2 0x4F4 PUSH2 0xD4A JUMP JUMPDEST SWAP1 POP PUSH0 DUP2 DUP5 PUSH1 0x3 ADD SLOAD PUSH2 0x507 SWAP2 SWAP1 PUSH2 0x1243 JUMP JUMPDEST SWAP1 POP PUSH0 DUP2 GT ISZERO PUSH2 0x54C JUMPI PUSH0 DUP5 PUSH1 0x3 ADD SLOAD PUSH1 0x12 PUSH1 0xA PUSH2 0x525 SWAP2 SWAP1 PUSH2 0x13A5 JUMP JUMPDEST DUP4 PUSH2 0x530 SWAP2 SWAP1 PUSH2 0x13EF JUMP JUMPDEST PUSH2 0x53A SWAP2 SWAP1 PUSH2 0x145D JUMP JUMPDEST SWAP1 POP DUP1 DUP5 PUSH2 0x548 SWAP2 SWAP1 PUSH2 0x148D JUMP JUMPDEST SWAP4 POP POP JUMPDEST CALLER PUSH20 0xFFFFFFFFFFFFFFFFFFFFFFFFFFFFFFFFFFFFFFFF AND PUSH32 0xF5BB82176FEB1B5E747E28471AA92156A04D9F3AB9F45F28E2D704232B93F75 DUP5 PUSH1 0x40 MLOAD PUSH2 0x592 SWAP2 SWAP1 PUSH2 0x1036 JUMP JUMPDEST PUSH1 0x40 MLOAD DUP1 SWAP2 SUB SWAP1 LOG2 POP POP POP JUMPDEST POP POP POP JUMP JUMPDEST PUSH0 DUP3 GT PUSH2 0x5E5 JUMPI PUSH1 0x40 MLOAD PUSH32 0x8C379A000000000000000000000000000000000000000000000000000000000 DUP2 MSTORE PUSH1 0x4 ADD PUSH2 0x5DC SWAP1 PUSH2 0x150A JUMP JUMPDEST PUSH1 0x40 MLOAD DUP1 SWAP2 SUB SWAP1 REVERT JUMPDEST PUSH0 DUP2 GT PUSH2 0x627 JUMPI PUSH1 0x40 MLOAD PUSH32 0x8C379A000000000000000000000000000000000000000000000000000000000 DUP2 MSTORE PUSH1 0x4 ADD PUSH2 0x61E SWAP1 PUSH2 0x1572 JUMP JUMPDEST PUSH1 0x40 MLOAD DUP1 SWAP2 SUB SWAP1 REVERT JUMPDEST PUSH0 PUSH2 0x630 PUSH2 0xD4A JUMP JUMPDEST SWAP1 POP PUSH0 PUSH2 0x63D DUP4 DUP6 PUSH2 0xEE6 JUMP JUMPDEST SWAP1 POP PUSH0 DUP2 DUP6 PUSH2 0x64C SWAP2 SWAP1 PUSH2 0x1243 JUMP JUMPDEST SWAP1 POP PUSH0 PUSH1 0x12 PUSH1 0xA PUSH2 0x65D SWAP2 SWAP1 PUSH2 0x13A5 JUMP JUMPDEST DUP5 DUP4 PUSH2 0x669 SWAP2 SWAP1 PUSH2 0x13EF JUMP JUMPDEST PUSH2 0x673 SWAP2 SWAP1 PUSH2 0x145D JUMP JUMPDEST SWAP1 POP PUSH1 0x1 PUSH0 SWAP1 SLOAD SWAP1 PUSH2 0x100 EXP SWAP1 DIV PUSH20 0xFFFFFFFFFFFFFFFFFFFFFFFFFFFFFFFFFFFFFFFF AND PUSH20 0xFFFFFFFFFFFFFFFFFFFFFFFFFFFFFFFFFFFFFFFF AND PUSH4 0x23B872DD CALLER ADDRESS DUP10 PUSH1 0x40 MLOAD DUP5 PUSH4 0xFFFFFFFF AND PUSH1 0xE0 SHL DUP2 MSTORE PUSH1 0x4 ADD PUSH2 0x6D3 SWAP4 SWAP3 SWAP2 SWAP1 PUSH2 0x1590 JUMP JUMPDEST PUSH1 0x20 PUSH1 0x40 MLOAD DUP1 DUP4 SUB DUP2 PUSH0 DUP8 GAS CALL ISZERO DUP1 ISZERO PUSH2 0x6EF JUMPI RETURNDATASIZE PUSH0 DUP1 RETURNDATACOPY RETURNDATASIZE PUSH0 REVERT JUMPDEST POP POP POP POP PUSH1 0x40 MLOAD RETURNDATASIZE PUSH1 0x1F NOT PUSH1 0x1F DUP3 ADD AND DUP3 ADD DUP1 PUSH1 0x40 MSTORE POP DUP2 ADD SWAP1 PUSH2 0x713 SWAP2 SWAP1 PUSH2 0x15FA JUMP JUMPDEST POP PUSH0 PUSH3 0x15180 DUP7 PUSH2 0x724 SWAP2 SWAP1 PUSH2 0x13EF JUMP JUMPDEST TIMESTAMP PUSH2 0x72F SWAP2 SWAP1 PUSH2 0x148D JUMP JUMPDEST SWAP1 POP PUSH1 0x6 PUSH0 CALLER PUSH20 0xFFFFFFFFFFFFFFFFFFFFFFFFFFFFFFFFFFFFFFFF AND PUSH20 0xFFFFFFFFFFFFFFFFFFFFFFFFFFFFFFFFFFFFFFFF AND DUP2 MSTORE PUSH1 0x20 ADD SWAP1 DUP2 MSTORE PUSH1 0x20 ADD PUSH0 KECCAK256 PUSH1 0x40 MLOAD DUP1 PUSH1 0xA0 ADD PUSH1 0x40 MSTORE DUP1 DUP9 DUP2 MSTORE PUSH1 0x20 ADD DUP6 DUP2 MSTORE PUSH1 0x20 ADD DUP4 DUP2 MSTORE PUSH1 0x20 ADD DUP8 DUP2 MSTORE PUSH1 0x20 ADD DUP5 DUP2 MSTORE POP SWAP1 DUP1 PUSH1 0x1 DUP2 SLOAD ADD DUP1 DUP3 SSTORE DUP1 SWAP2 POP POP PUSH1 0x1 SWAP1 SUB SWAP1 PUSH0 MSTORE PUSH1 0x20 PUSH0 KECCAK256 SWAP1 PUSH1 0x5 MUL ADD PUSH0 SWAP1 SWAP2 SWAP1 SWAP2 SWAP1 SWAP2 POP PUSH0 DUP3 ADD MLOAD DUP2 PUSH0 ADD SSTORE PUSH1 0x20 DUP3 ADD MLOAD DUP2 PUSH1 0x1 ADD SSTORE PUSH1 0x40 DUP3 ADD MLOAD DUP2 PUSH1 0x2 ADD SSTORE PUSH1 0x60 DUP3 ADD MLOAD DUP2 PUSH1 0x3 ADD SSTORE PUSH1 0x80 DUP3 ADD MLOAD DUP2 PUSH1 0x4 ADD SSTORE POP POP PUSH1 0x1 PUSH0 SWAP1 SLOAD SWAP1 PUSH2 0x100 EXP SWAP1 DIV PUSH20 0xFFFFFFFFFFFFFFFFFFFFFFFFFFFFFFFFFFFFFFFF AND PUSH20 0xFFFFFFFFFFFFFFFFFFFFFFFFFFFFFFFFFFFFFFFF AND PUSH4 0xA9059CBB PUSH0 DUP1 SLOAD SWAP1 PUSH2 0x100 EXP SWAP1 DIV PUSH20 0xFFFFFFFFFFFFFFFFFFFFFFFFFFFFFFFFFFFFFFFF AND DUP7 PUSH1 0x40 MLOAD DUP4 PUSH4 0xFFFFFFFF AND PUSH1 0xE0 SHL DUP2 MSTORE PUSH1 0x4 ADD PUSH2 0x868 SWAP3 SWAP2 SWAP1 PUSH2 0x1625 JUMP JUMPDEST PUSH1 0x20 PUSH1 0x40 MLOAD DUP1 DUP4 SUB DUP2 PUSH0 DUP8 GAS CALL ISZERO DUP1 ISZERO PUSH2 0x884 JUMPI RETURNDATASIZE PUSH0 DUP1 RETURNDATACOPY RETURNDATASIZE PUSH0 REVERT JUMPDEST POP POP POP POP PUSH1 0x40 MLOAD RETURNDATASIZE PUSH1 0x1F NOT PUSH1 0x1F DUP3 ADD AND DUP3 ADD DUP1 PUSH1 0x40 MSTORE POP DUP2 ADD SWAP1 PUSH2 0x8A8 SWAP2 SWAP1 PUSH2 0x15FA JUMP JUMPDEST POP CALLER PUSH20 0xFFFFFFFFFFFFFFFFFFFFFFFFFFFFFFFFFFFFFFFF AND PUSH32 0xC16BE9A586414A157DD46B4D023AA9997A025DD1CBBAA67AC0C1B8273A5EAF55 DUP9 DUP9 DUP5 DUP10 DUP10 DUP9 PUSH1 0x40 MLOAD PUSH2 0x8F9 SWAP7 SWAP6 SWAP5 SWAP4 SWAP3 SWAP2 SWAP1 PUSH2 0x164C JUMP JUMPDEST PUSH1 0x40 MLOAD DUP1 SWAP2 SUB SWAP1 LOG2 POP POP POP POP POP POP POP JUMP JUMPDEST PUSH1 0x2 PUSH0 SWAP1 SLOAD SWAP1 PUSH2 0x100 EXP SWAP1 DIV PUSH20 0xFFFFFFFFFFFFFFFFFFFFFFFFFFFFFFFFFFFFFFFF AND DUP2 JUMP JUMPDEST PUSH0 DUP1 PUSH1 0x2 PUSH8 0xFFFFFFFFFFFFFFFF DUP2 GT ISZERO PUSH2 0x94C JUMPI PUSH2 0x94B PUSH2 0x16AB JUMP JUMPDEST JUMPDEST PUSH1 0x40 MLOAD SWAP1 DUP1 DUP3 MSTORE DUP1 PUSH1 0x20 MUL PUSH1 0x20 ADD DUP3 ADD PUSH1 0x40 MSTORE DUP1 ISZERO PUSH2 0x97A JUMPI DUP2 PUSH1 0x20 ADD PUSH1 0x20 DUP3 MUL DUP1 CALLDATASIZE DUP4 CALLDATACOPY DUP1 DUP3 ADD SWAP2 POP POP SWAP1 POP JUMPDEST POP SWAP1 POP PUSH1 0x1 PUSH0 SWAP1 SLOAD SWAP1 PUSH2 0x100 EXP SWAP1 DIV PUSH20 0xFFFFFFFFFFFFFFFFFFFFFFFFFFFFFFFFFFFFFFFF AND DUP2 PUSH0 DUP2 MLOAD DUP2 LT PUSH2 0x9B2 JUMPI PUSH2 0x9B1 PUSH2 0x11E9 JUMP JUMPDEST JUMPDEST PUSH1 0x20 MUL PUSH1 0x20 ADD ADD SWAP1 PUSH20 0xFFFFFFFFFFFFFFFFFFFFFFFFFFFFFFFFFFFFFFFF AND SWAP1 DUP2 PUSH20 0xFFFFFFFFFFFFFFFFFFFFFFFFFFFFFFFFFFFFFFFF AND DUP2 MSTORE POP POP PUSH1 0x2 PUSH0 SWAP1 SLOAD SWAP1 PUSH2 0x100 EXP SWAP1 DIV PUSH20 0xFFFFFFFFFFFFFFFFFFFFFFFFFFFFFFFFFFFFFFFF AND DUP2 PUSH1 0x1 DUP2 MLOAD DUP2 LT PUSH2 0xA22 JUMPI PUSH2 0xA21 PUSH2 0x11E9 JUMP JUMPDEST JUMPDEST PUSH1 0x20 MUL PUSH1 0x20 ADD ADD SWAP1 PUSH20 0xFFFFFFFFFFFFFFFFFFFFFFFFFFFFFFFFFFFFFFFF AND SWAP1 DUP2 PUSH20 0xFFFFFFFFFFFFFFFFFFFFFFFFFFFFFFFFFFFFFFFF AND DUP2 MSTORE POP POP PUSH0 PUSH1 0x3 PUSH0 SWAP1 SLOAD SWAP1 PUSH2 0x100 EXP SWAP1 DIV PUSH20 0xFFFFFFFFFFFFFFFFFFFFFFFFFFFFFFFFFFFFFFFF AND SWAP1 POP PUSH0 DUP2 PUSH20 0xFFFFFFFFFFFFFFFFFFFFFFFFFFFFFFFFFFFFFFFF AND PUSH4 0xD06CA61F PUSH4 0x3B9ACA00 DUP6 PUSH1 0x40 MLOAD DUP4 PUSH4 0xFFFFFFFF AND PUSH1 0xE0 SHL DUP2 MSTORE PUSH1 0x4 ADD PUSH2 0xAC1 SWAP3 SWAP2 SWAP1 PUSH2 0x17D1 JUMP JUMPDEST PUSH0 PUSH1 0x40 MLOAD DUP1 DUP4 SUB DUP2 DUP7 GAS STATICCALL ISZERO DUP1 ISZERO PUSH2 0xADB JUMPI RETURNDATASIZE PUSH0 DUP1 RETURNDATACOPY RETURNDATASIZE PUSH0 REVERT JUMPDEST POP POP POP POP PUSH1 0x40 MLOAD RETURNDATASIZE PUSH0 DUP3 RETURNDATACOPY RETURNDATASIZE PUSH1 0x1F NOT PUSH1 0x1F DUP3 ADD AND DUP3 ADD DUP1 PUSH1 0x40 MSTORE POP DUP2 ADD SWAP1 PUSH2 0xB03 SWAP2 SWAP1 PUSH2 0x1936 JUMP JUMPDEST SWAP1 POP DUP1 PUSH1 0x1 DUP2 MLOAD DUP2 LT PUSH2 0xB19 JUMPI PUSH2 0xB18 PUSH2 0x11E9 JUMP JUMPDEST JUMPDEST PUSH1 0x20 MUL PUSH1 0x20 ADD ADD MLOAD SWAP4 POP POP POP POP SWAP1 JUMP JUMPDEST PUSH0 DUP1 SLOAD SWAP1 PUSH2 0x100 EXP SWAP1 DIV PUSH20 0xFFFFFFFFFFFFFFFFFFFFFFFFFFFFFFFFFFFFFFFF AND PUSH20 0xFFFFFFFFFFFFFFFFFFFFFFFFFFFFFFFFFFFFFFFF AND CALLER PUSH20 0xFFFFFFFFFFFFFFFFFFFFFFFFFFFFFFFFFFFFFFFF AND EQ PUSH2 0xBB6 JUMPI PUSH1 0x40 MLOAD PUSH32 0x8C379A000000000000000000000000000000000000000000000000000000000 DUP2 MSTORE PUSH1 0x4 ADD PUSH2 0xBAD SWAP1 PUSH2 0x19ED JUMP JUMPDEST PUSH1 0x40 MLOAD DUP1 SWAP2 SUB SWAP1 REVERT JUMPDEST PUSH0 PUSH1 0x1E DUP4 PUSH2 0xBC4 SWAP2 SWAP1 PUSH2 0x1A0B JUMP JUMPDEST EQ PUSH2 0xC04 JUMPI PUSH1 0x40 MLOAD PUSH32 0x8C379A000000000000000000000000000000000000000000000000000000000 DUP2 MSTORE PUSH1 0x4 ADD PUSH2 0xBFB SWAP1 PUSH2 0x1572 JUMP JUMPDEST PUSH1 0x40 MLOAD DUP1 SWAP2 SUB SWAP1 REVERT JUMPDEST DUP1 PUSH1 0x5 PUSH0 DUP5 DUP2 MSTORE PUSH1 0x20 ADD SWAP1 DUP2 MSTORE PUSH1 0x20 ADD PUSH0 KECCAK256 DUP2 SWAP1 SSTORE POP POP POP JUMP JUMPDEST PUSH0 DUP1 PUSH1 0x4 PUSH0 SWAP1 SLOAD SWAP1 PUSH2 0x100 EXP SWAP1 DIV PUSH20 0xFFFFFFFFFFFFFFFFFFFFFFFFFFFFFFFFFFFFFFFF AND SWAP1 POP PUSH0 DUP2 PUSH20 0xFFFFFFFFFFFFFFFFFFFFFFFFFFFFFFFFFFFFFFFF AND PUSH4 0x50D25BCD PUSH1 0x40 MLOAD DUP2 PUSH4 0xFFFFFFFF AND PUSH1 0xE0 SHL DUP2 MSTORE PUSH1 0x4 ADD PUSH1 0x20 PUSH1 0x40 MLOAD DUP1 DUP4 SUB DUP2 DUP7 GAS STATICCALL ISZERO DUP1 ISZERO PUSH2 0xC8E JUMPI RETURNDATASIZE PUSH0 DUP1 RETURNDATACOPY RETURNDATASIZE PUSH0 REVERT JUMPDEST POP POP POP POP PUSH1 0x40 MLOAD RETURNDATASIZE PUSH1 0x1F NOT PUSH1 0x1F DUP3 ADD AND DUP3 ADD DUP1 PUSH1 0x40 MSTORE POP DUP2 ADD SWAP1 PUSH2 0xCB2 SWAP2 SWAP1 PUSH2 0x1A6E JUMP JUMPDEST SWAP1 POP PUSH0 DUP2 SGT PUSH2 0xCF6 JUMPI PUSH1 0x40 MLOAD PUSH32 0x8C379A000000000000000000000000000000000000000000000000000000000 DUP2 MSTORE PUSH1 0x4 ADD PUSH2 0xCED SWAP1 PUSH2 0x1AE3 JUMP JUMPDEST PUSH1 0x40 MLOAD DUP1 SWAP2 SUB SWAP1 REVERT JUMPDEST DUP1 SWAP3 POP POP POP SWAP1 JUMP JUMPDEST PUSH1 0x6 PUSH1 0x20 MSTORE DUP2 PUSH0 MSTORE PUSH1 0x40 PUSH0 KECCAK256 DUP2 DUP2 SLOAD DUP2 LT PUSH2 0xD17 JUMPI PUSH0 DUP1 REVERT JUMPDEST SWAP1 PUSH0 MSTORE PUSH1 0x20 PUSH0 KECCAK256 SWAP1 PUSH1 0x5 MUL ADD PUSH0 SWAP2 POP SWAP2 POP POP DUP1 PUSH0 ADD SLOAD SWAP1 DUP1 PUSH1 0x1 ADD SLOAD SWAP1 DUP1 PUSH1 0x2 ADD SLOAD SWAP1 DUP1 PUSH1 0x3 ADD SLOAD SWAP1 DUP1 PUSH1 0x4 ADD SLOAD SWAP1 POP DUP6 JUMP JUMPDEST PUSH0 DUP1 PUSH2 0xD54 PUSH2 0xC1E JUMP JUMPDEST SWAP1 POP PUSH0 PUSH2 0xD5F PUSH2 0x92F JUMP JUMPDEST SWAP1 POP PUSH1 0x12 PUSH1 0xA PUSH2 0xD6F SWAP2 SWAP1 PUSH2 0x13A5 JUMP JUMPDEST DUP3 DUP3 PUSH2 0xD7B SWAP2 SWAP1 PUSH2 0x13EF JUMP JUMPDEST PUSH2 0xD85 SWAP2 SWAP1 PUSH2 0x145D JUMP JUMPDEST SWAP3 POP POP POP SWAP1 JUMP JUMPDEST PUSH1 0x1 PUSH0 SWAP1 SLOAD SWAP1 PUSH2 0x100 EXP SWAP1 DIV PUSH20 0xFFFFFFFFFFFFFFFFFFFFFFFFFFFFFFFFFFFFFFFF AND DUP2 JUMP JUMPDEST PUSH0 DUP1 PUSH0 DUP1 PUSH0 PUSH1 0x6 PUSH0 DUP9 PUSH20 0xFFFFFFFFFFFFFFFFFFFFFFFFFFFFFFFFFFFFFFFF AND PUSH20 0xFFFFFFFFFFFFFFFFFFFFFFFFFFFFFFFFFFFFFFFF AND DUP2 MSTORE PUSH1 0x20 ADD SWAP1 DUP2 MSTORE PUSH1 0x20 ADD PUSH0 KECCAK256 DUP1 SLOAD SWAP1 POP DUP7 LT PUSH2 0xE38 JUMPI PUSH1 0x40 MLOAD PUSH32 0x8C379A000000000000000000000000000000000000000000000000000000000 DUP2 MSTORE PUSH1 0x4 ADD PUSH2 0xE2F SWAP1 PUSH2 0x11CB JUMP JUMPDEST PUSH1 0x40 MLOAD DUP1 SWAP2 SUB SWAP1 REVERT JUMPDEST PUSH0 PUSH1 0x6 PUSH0 DUP10 PUSH20 0xFFFFFFFFFFFFFFFFFFFFFFFFFFFFFFFFFFFFFFFF AND PUSH20 0xFFFFFFFFFFFFFFFFFFFFFFFFFFFFFFFFFFFFFFFF AND DUP2 MSTORE PUSH1 0x20 ADD SWAP1 DUP2 MSTORE PUSH1 0x20 ADD PUSH0 KECCAK256 DUP8 DUP2 SLOAD DUP2 LT PUSH2 0xE88 JUMPI PUSH2 0xE87 PUSH2 0x11E9 JUMP JUMPDEST JUMPDEST SWAP1 PUSH0 MSTORE PUSH1 0x20 PUSH0 KECCAK256 SWAP1 PUSH1 0x5 MUL ADD SWAP1 POP DUP1 PUSH0 ADD SLOAD DUP2 PUSH1 0x1 ADD SLOAD DUP3 PUSH1 0x2 ADD SLOAD DUP4 PUSH1 0x3 ADD SLOAD DUP5 PUSH1 0x4 ADD SLOAD SWAP6 POP SWAP6 POP SWAP6 POP SWAP6 POP SWAP6 POP POP SWAP3 SWAP6 POP SWAP3 SWAP6 SWAP1 SWAP4 POP JUMP JUMPDEST PUSH0 DUP1 SLOAD SWAP1 PUSH2 0x100 EXP SWAP1 DIV PUSH20 0xFFFFFFFFFFFFFFFFFFFFFFFFFFFFFFFFFFFFFFFF AND DUP2 JUMP JUMPDEST PUSH0 DUP1 PUSH1 0x5 PUSH0 DUP6 DUP2 MSTORE PUSH1 0x20 ADD SWAP1 DUP2 MSTORE PUSH1 0x20 ADD PUSH0 KECCAK256 SLOAD SWAP1 POP PUSH0 DUP2 GT PUSH2 0xF3E JUMPI PUSH1 0x40 MLOAD PUSH32 0x8C379A000000000000000000000000000000000000000000000000000000000 DUP2 MSTORE PUSH1 0x4 ADD PUSH2 0xF35 SWAP1 PUSH2 0x1B71 JUMP JUMPDEST PUSH1 0x40 MLOAD DUP1 SWAP2 SUB SWAP1 REVERT JUMPDEST PUSH2 0x2710 DUP2 DUP5 PUSH2 0xF4D SWAP2 SWAP1 PUSH2 0x13EF JUMP JUMPDEST PUSH2 0xF57 SWAP2 SWAP1 PUSH2 0x145D JUMP JUMPDEST SWAP2 POP POP SWAP3 SWAP2 POP POP JUMP JUMPDEST PUSH0 PUSH20 0xFFFFFFFFFFFFFFFFFFFFFFFFFFFFFFFFFFFFFFFF DUP3 AND SWAP1 POP SWAP2 SWAP1 POP JUMP JUMPDEST PUSH0 PUSH2 0xF89 DUP3 PUSH2 0xF60 JUMP JUMPDEST SWAP1 POP SWAP2 SWAP1 POP JUMP JUMPDEST PUSH2 0xF99 DUP2 PUSH2 0xF7F JUMP JUMPDEST DUP3 MSTORE POP POP JUMP JUMPDEST PUSH0 PUSH1 0x20 DUP3 ADD SWAP1 POP PUSH2 0xFB2 PUSH0 DUP4 ADD DUP5 PUSH2 0xF90 JUMP JUMPDEST SWAP3 SWAP2 POP POP JUMP JUMPDEST PUSH0 PUSH1 0x40 MLOAD SWAP1 POP SWAP1 JUMP JUMPDEST PUSH0 DUP1 REVERT JUMPDEST PUSH0 DUP1 REVERT JUMPDEST PUSH2 0xFD2 DUP2 PUSH2 0xF7F JUMP JUMPDEST DUP2 EQ PUSH2 0xFDC JUMPI PUSH0 DUP1 REVERT JUMPDEST POP JUMP JUMPDEST PUSH0 DUP2 CALLDATALOAD SWAP1 POP PUSH2 0xFED DUP2 PUSH2 0xFC9 JUMP JUMPDEST SWAP3 SWAP2 POP POP JUMP JUMPDEST PUSH0 PUSH1 0x20 DUP3 DUP5 SUB SLT ISZERO PUSH2 0x1008 JUMPI PUSH2 0x1007 PUSH2 0xFC1 JUMP JUMPDEST JUMPDEST PUSH0 PUSH2 0x1015 DUP5 DUP3 DUP6 ADD PUSH2 0xFDF JUMP JUMPDEST SWAP2 POP POP SWAP3 SWAP2 POP POP JUMP JUMPDEST PUSH0 DUP2 SWAP1 POP SWAP2 SWAP1 POP JUMP JUMPDEST PUSH2 0x1030 DUP2 PUSH2 0x101E JUMP JUMPDEST DUP3 MSTORE POP POP JUMP JUMPDEST PUSH0 PUSH1 0x20 DUP3 ADD SWAP1 POP PUSH2 0x1049 PUSH0 DUP4 ADD DUP5 PUSH2 0x1027 JUMP JUMPDEST SWAP3 SWAP2 POP POP JUMP JUMPDEST PUSH2 0x1058 DUP2 PUSH2 0x101E JUMP JUMPDEST DUP2 EQ PUSH2 0x1062 JUMPI PUSH0 DUP1 REVERT JUMPDEST POP JUMP JUMPDEST PUSH0 DUP2 CALLDATALOAD SWAP1 POP PUSH2 0x1073 DUP2 PUSH2 0x104F JUMP JUMPDEST SWAP3 SWAP2 POP POP JUMP JUMPDEST PUSH0 PUSH1 0x20 DUP3 DUP5 SUB SLT ISZERO PUSH2 0x108E JUMPI PUSH2 0x108D PUSH2 0xFC1 JUMP JUMPDEST JUMPDEST PUSH0 PUSH2 0x109B DUP5 DUP3 DUP6 ADD PUSH2 0x1065 JUMP JUMPDEST SWAP2 POP POP SWAP3 SWAP2 POP POP JUMP JUMPDEST PUSH0 DUP1 PUSH1 0x40 DUP4 DUP6 SUB SLT ISZERO PUSH2 0x10BA JUMPI PUSH2 0x10B9 PUSH2 0xFC1 JUMP JUMPDEST JUMPDEST PUSH0 PUSH2 0x10C7 DUP6 DUP3 DUP7 ADD PUSH2 0x1065 JUMP JUMPDEST SWAP3 POP POP PUSH1 0x20 PUSH2 0x10D8 DUP6 DUP3 DUP7 ADD PUSH2 0x1065 JUMP JUMPDEST SWAP2 POP POP SWAP3 POP SWAP3 SWAP1 POP JUMP JUMPDEST PUSH0 DUP1 PUSH1 0x40 DUP4 DUP6 SUB SLT ISZERO PUSH2 0x10F8 JUMPI PUSH2 0x10F7 PUSH2 0xFC1 JUMP JUMPDEST JUMPDEST PUSH0 PUSH2 0x1105 DUP6 DUP3 DUP7 ADD PUSH2 0xFDF JUMP JUMPDEST SWAP3 POP POP PUSH1 0x20 PUSH2 0x1116 DUP6 DUP3 DUP7 ADD PUSH2 0x1065 JUMP JUMPDEST SWAP2 POP POP SWAP3 POP SWAP3 SWAP1 POP JUMP JUMPDEST PUSH0 PUSH1 0xA0 DUP3 ADD SWAP1 POP PUSH2 0x1133 PUSH0 DUP4 ADD DUP9 PUSH2 0x1027 JUMP JUMPDEST PUSH2 0x1140 PUSH1 0x20 DUP4 ADD DUP8 PUSH2 0x1027 JUMP JUMPDEST PUSH2 0x114D PUSH1 0x40 DUP4 ADD DUP7 PUSH2 0x1027 JUMP JUMPDEST PUSH2 0x115A PUSH1 0x60 DUP4 ADD DUP6 PUSH2 0x1027 JUMP JUMPDEST PUSH2 0x1167 PUSH1 0x80 DUP4 ADD DUP5 PUSH2 0x1027 JUMP JUMPDEST SWAP7 SWAP6 POP POP POP POP POP POP JUMP JUMPDEST PUSH0 DUP3 DUP3 MSTORE PUSH1 0x20 DUP3 ADD SWAP1 POP SWAP3 SWAP2 POP POP JUMP JUMPDEST PUSH32 0x496E76616C696420696E64657800000000000000000000000000000000000000 PUSH0 DUP3 ADD MSTORE POP JUMP JUMPDEST PUSH0 PUSH2 0x11B5 PUSH1 0xD DUP4 PUSH2 0x1171 JUMP JUMPDEST SWAP2 POP PUSH2 0x11C0 DUP3 PUSH2 0x1181 JUMP JUMPDEST PUSH1 0x20 DUP3 ADD SWAP1 POP SWAP2 SWAP1 POP JUMP JUMPDEST PUSH0 PUSH1 0x20 DUP3 ADD SWAP1 POP DUP2 DUP2 SUB PUSH0 DUP4 ADD MSTORE PUSH2 0x11E2 DUP2 PUSH2 0x11A9 JUMP JUMPDEST SWAP1 POP SWAP2 SWAP1 POP JUMP JUMPDEST PUSH32 0x4E487B7100000000000000000000000000000000000000000000000000000000 PUSH0 MSTORE PUSH1 0x32 PUSH1 0x4 MSTORE PUSH1 0x24 PUSH0 REVERT JUMPDEST PUSH32 0x4E487B7100000000000000000000000000000000000000000000000000000000 PUSH0 MSTORE PUSH1 0x11 PUSH1 0x4 MSTORE PUSH1 0x24 PUSH0 REVERT JUMPDEST PUSH0 PUSH2 0x124D DUP3 PUSH2 0x101E JUMP JUMPDEST SWAP2 POP PUSH2 0x1258 DUP4 PUSH2 0x101E JUMP JUMPDEST SWAP3 POP DUP3 DUP3 SUB SWAP1 POP DUP2 DUP2 GT ISZERO PUSH2 0x1270 JUMPI PUSH2 0x126F PUSH2 0x1216 JUMP JUMPDEST JUMPDEST SWAP3 SWAP2 POP POP JUMP JUMPDEST PUSH0 DUP2 PUSH1 0x1 SHR SWAP1 POP SWAP2 SWAP1 POP JUMP JUMPDEST PUSH0 DUP1 DUP3 SWAP2 POP DUP4 SWAP1 POP JUMPDEST PUSH1 0x1 DUP6 GT ISZERO PUSH2 0x12CB JUMPI DUP1 DUP7 DIV DUP2 GT ISZERO PUSH2 0x12A7 JUMPI PUSH2 0x12A6 PUSH2 0x1216 JUMP JUMPDEST JUMPDEST PUSH1 0x1 DUP6 AND ISZERO PUSH2 0x12B6 JUMPI DUP1 DUP3 MUL SWAP2 POP JUMPDEST DUP1 DUP2 MUL SWAP1 POP PUSH2 0x12C4 DUP6 PUSH2 0x1276 JUMP JUMPDEST SWAP5 POP PUSH2 0x128B JUMP JUMPDEST SWAP5 POP SWAP5 SWAP3 POP POP POP JUMP JUMPDEST PUSH0 DUP3 PUSH2 0x12E3 JUMPI PUSH1 0x1 SWAP1 POP PUSH2 0x139E JUMP JUMPDEST DUP2 PUSH2 0x12F0 JUMPI PUSH0 SWAP1 POP PUSH2 0x139E JUMP JUMPDEST DUP2 PUSH1 0x1 DUP2 EQ PUSH2 0x1306 JUMPI PUSH1 0x2 DUP2 EQ PUSH2 0x1310 JUMPI PUSH2 0x133F JUMP JUMPDEST PUSH1 0x1 SWAP2 POP POP PUSH2 0x139E JUMP JUMPDEST PUSH1 0xFF DUP5 GT ISZERO PUSH2 0x1322 JUMPI PUSH2 0x1321 PUSH2 0x1216 JUMP JUMPDEST JUMPDEST DUP4 PUSH1 0x2 EXP SWAP2 POP DUP5 DUP3 GT ISZERO PUSH2 0x1339 JUMPI PUSH2 0x1338 PUSH2 0x1216 JUMP JUMPDEST JUMPDEST POP PUSH2 0x139E JUMP JUMPDEST POP PUSH1 0x20 DUP4 LT PUSH2 0x133 DUP4 LT AND PUSH1 0x4E DUP5 LT PUSH1 0xB DUP5 LT AND OR ISZERO PUSH2 0x1374 JUMPI DUP3 DUP3 EXP SWAP1 POP DUP4 DUP2 GT ISZERO PUSH2 0x136F JUMPI PUSH2 0x136E PUSH2 0x1216 JUMP JUMPDEST JUMPDEST PUSH2 0x139E JUMP JUMPDEST PUSH2 0x1381 DUP5 DUP5 DUP5 PUSH1 0x1 PUSH2 0x1282 JUMP JUMPDEST SWAP3 POP SWAP1 POP DUP2 DUP5 DIV DUP2 GT ISZERO PUSH2 0x1398 JUMPI PUSH2 0x1397 PUSH2 0x1216 JUMP JUMPDEST JUMPDEST DUP2 DUP2 MUL SWAP1 POP JUMPDEST SWAP4 SWAP3 POP POP POP JUMP JUMPDEST PUSH0 PUSH2 0x13AF DUP3 PUSH2 0x101E JUMP JUMPDEST SWAP2 POP PUSH2 0x13BA DUP4 PUSH2 0x101E JUMP JUMPDEST SWAP3 POP PUSH2 0x13E7 PUSH32 0xFFFFFFFFFFFFFFFFFFFFFFFFFFFFFFFFFFFFFFFFFFFFFFFFFFFFFFFFFFFFFFFF DUP5 DUP5 PUSH2 0x12D4 JUMP JUMPDEST SWAP1 POP SWAP3 SWAP2 POP POP JUMP JUMPDEST PUSH0 PUSH2 0x13F9 DUP3 PUSH2 0x101E JUMP JUMPDEST SWAP2 POP PUSH2 0x1404 DUP4 PUSH2 0x101E JUMP JUMPDEST SWAP3 POP DUP3 DUP3 MUL PUSH2 0x1412 DUP2 PUSH2 0x101E JUMP JUMPDEST SWAP2 POP DUP3 DUP3 DIV DUP5 EQ DUP4 ISZERO OR PUSH2 0x1429 JUMPI PUSH2 0x1428 PUSH2 0x1216 JUMP JUMPDEST JUMPDEST POP SWAP3 SWAP2 POP POP JUMP JUMPDEST PUSH32 0x4E487B7100000000000000000000000000000000000000000000000000000000 PUSH0 MSTORE PUSH1 0x12 PUSH1 0x4 MSTORE PUSH1 0x24 PUSH0 REVERT JUMPDEST PUSH0 PUSH2 0x1467 DUP3 PUSH2 0x101E JUMP JUMPDEST SWAP2 POP PUSH2 0x1472 DUP4 PUSH2 0x101E JUMP JUMPDEST SWAP3 POP DUP3 PUSH2 0x1482 JUMPI PUSH2 0x1481 PUSH2 0x1430 JUMP JUMPDEST JUMPDEST DUP3 DUP3 DIV SWAP1 POP SWAP3 SWAP2 POP POP JUMP JUMPDEST PUSH0 PUSH2 0x1497 DUP3 PUSH2 0x101E JUMP JUMPDEST SWAP2 POP PUSH2 0x14A2 DUP4 PUSH2 0x101E JUMP JUMPDEST SWAP3 POP DUP3 DUP3 ADD SWAP1 POP DUP1 DUP3 GT ISZERO PUSH2 0x14BA JUMPI PUSH2 0x14B9 PUSH2 0x1216 JUMP JUMPDEST JUMPDEST SWAP3 SWAP2 POP POP JUMP JUMPDEST PUSH32 0x496E76616C696420616D6F756E74000000000000000000000000000000000000 PUSH0 DUP3 ADD MSTORE POP JUMP JUMPDEST PUSH0 PUSH2 0x14F4 PUSH1 0xE DUP4 PUSH2 0x1171 JUMP JUMPDEST SWAP2 POP PUSH2 0x14FF DUP3 PUSH2 0x14C0 JUMP JUMPDEST PUSH1 0x20 DUP3 ADD SWAP1 POP SWAP2 SWAP1 POP JUMP JUMPDEST PUSH0 PUSH1 0x20 DUP3 ADD SWAP1 POP DUP2 DUP2 SUB PUSH0 DUP4 ADD MSTORE PUSH2 0x1521 DUP2 PUSH2 0x14E8 JUMP JUMPDEST SWAP1 POP SWAP2 SWAP1 POP JUMP JUMPDEST PUSH32 0x496E76616C6964206475726174696F6E00000000000000000000000000000000 PUSH0 DUP3 ADD MSTORE POP JUMP JUMPDEST PUSH0 PUSH2 0x155C PUSH1 0x10 DUP4 PUSH2 0x1171 JUMP JUMPDEST SWAP2 POP PUSH2 0x1567 DUP3 PUSH2 0x1528 JUMP JUMPDEST PUSH1 0x20 DUP3 ADD SWAP1 POP SWAP2 SWAP1 POP JUMP JUMPDEST PUSH0 PUSH1 0x20 DUP3 ADD SWAP1 POP DUP2 DUP2 SUB PUSH0 DUP4 ADD MSTORE PUSH2 0x1589 DUP2 PUSH2 0x1550 JUMP JUMPDEST SWAP1 POP SWAP2 SWAP1 POP JUMP JUMPDEST PUSH0 PUSH1 0x60 DUP3 ADD SWAP1 POP PUSH2 0x15A3 PUSH0 DUP4 ADD DUP7 PUSH2 0xF90 JUMP JUMPDEST PUSH2 0x15B0 PUSH1 0x20 DUP4 ADD DUP6 PUSH2 0xF90 JUMP JUMPDEST PUSH2 0x15BD PUSH1 0x40 DUP4 ADD DUP5 PUSH2 0x1027 JUMP JUMPDEST SWAP5 SWAP4 POP POP POP POP JUMP JUMPDEST PUSH0 DUP2 ISZERO ISZERO SWAP1 POP SWAP2 SWAP1 POP JUMP JUMPDEST PUSH2 0x15D9 DUP2 PUSH2 0x15C5 JUMP JUMPDEST DUP2 EQ PUSH2 0x15E3 JUMPI PUSH0 DUP1 REVERT JUMPDEST POP JUMP JUMPDEST PUSH0 DUP2 MLOAD SWAP1 POP PUSH2 0x15F4 DUP2 PUSH2 0x15D0 JUMP JUMPDEST SWAP3 SWAP2 POP POP JUMP JUMPDEST PUSH0 PUSH1 0x20 DUP3 DUP5 SUB SLT ISZERO PUSH2 0x160F JUMPI PUSH2 0x160E PUSH2 0xFC1 JUMP JUMPDEST JUMPDEST PUSH0 PUSH2 0x161C DUP5 DUP3 DUP6 ADD PUSH2 0x15E6 JUMP JUMPDEST SWAP2 POP POP SWAP3 SWAP2 POP POP JUMP JUMPDEST PUSH0 PUSH1 0x40 DUP3 ADD SWAP1 POP PUSH2 0x1638 PUSH0 DUP4 ADD DUP6 PUSH2 0xF90 JUMP JUMPDEST PUSH2 0x1645 PUSH1 0x20 DUP4 ADD DUP5 PUSH2 0x1027 JUMP JUMPDEST SWAP4 SWAP3 POP POP POP JUMP JUMPDEST PUSH0 PUSH1 0xC0 DUP3 ADD SWAP1 POP PUSH2 0x165F PUSH0 DUP4 ADD DUP10 PUSH2 0x1027 JUMP JUMPDEST PUSH2 0x166C PUSH1 0x20 DUP4 ADD DUP9 PUSH2 0x1027 JUMP JUMPDEST PUSH2 0x1679 PUSH1 0x40 DUP4 ADD DUP8 PUSH2 0x1027 JUMP JUMPDEST PUSH2 0x1686 PUSH1 0x60 DUP4 ADD DUP7 PUSH2 0x1027 JUMP JUMPDEST PUSH2 0x1693 PUSH1 0x80 DUP4 ADD DUP6 PUSH2 0x1027 JUMP JUMPDEST PUSH2 0x16A0 PUSH1 0xA0 DUP4 ADD DUP5 PUSH2 0x1027 JUMP JUMPDEST SWAP8 SWAP7 POP POP POP POP POP POP POP JUMP JUMPDEST PUSH32 0x4E487B7100000000000000000000000000000000000000000000000000000000 PUSH0 MSTORE PUSH1 0x41 PUSH1 0x4 MSTORE PUSH1 0x24 PUSH0 REVERT JUMPDEST PUSH0 DUP2 SWAP1 POP SWAP2 SWAP1 POP JUMP JUMPDEST PUSH0 DUP2 SWAP1 POP SWAP2 SWAP1 POP JUMP JUMPDEST PUSH0 PUSH2 0x1704 PUSH2 0x16FF PUSH2 0x16FA DUP5 PUSH2 0x16D8 JUMP JUMPDEST PUSH2 0x16E1 JUMP JUMPDEST PUSH2 0x101E JUMP JUMPDEST SWAP1 POP SWAP2 SWAP1 POP JUMP JUMPDEST PUSH2 0x1714 DUP2 PUSH2 0x16EA JUMP JUMPDEST DUP3 MSTORE POP POP JUMP JUMPDEST PUSH0 DUP2 MLOAD SWAP1 POP SWAP2 SWAP1 POP JUMP JUMPDEST PUSH0 DUP3 DUP3 MSTORE PUSH1 0x20 DUP3 ADD SWAP1 POP SWAP3 SWAP2 POP POP JUMP JUMPDEST PUSH0 DUP2 SWAP1 POP PUSH1 0x20 DUP3 ADD SWAP1 POP SWAP2 SWAP1 POP JUMP JUMPDEST PUSH2 0x174C DUP2 PUSH2 0xF7F JUMP JUMPDEST DUP3 MSTORE POP POP JUMP JUMPDEST PUSH0 PUSH2 0x175D DUP4 DUP4 PUSH2 0x1743 JUMP JUMPDEST PUSH1 0x20 DUP4 ADD SWAP1 POP SWAP3 SWAP2 POP POP JUMP JUMPDEST PUSH0 PUSH1 0x20 DUP3 ADD SWAP1 POP SWAP2 SWAP1 POP JUMP JUMPDEST PUSH0 PUSH2 0x177F DUP3 PUSH2 0x171A JUMP JUMPDEST PUSH2 0x1789 DUP2 DUP6 PUSH2 0x1724 JUMP JUMPDEST SWAP4 POP PUSH2 0x1794 DUP4 PUSH2 0x1734 JUMP JUMPDEST DUP1 PUSH0 JUMPDEST DUP4 DUP2 LT ISZERO PUSH2 0x17C4 JUMPI DUP2 MLOAD PUSH2 0x17AB DUP9 DUP3 PUSH2 0x1752 JUMP JUMPDEST SWAP8 POP PUSH2 0x17B6 DUP4 PUSH2 0x1769 JUMP JUMPDEST SWAP3 POP POP PUSH1 0x1 DUP2 ADD SWAP1 POP PUSH2 0x1797 JUMP JUMPDEST POP DUP6 SWAP4 POP POP POP POP SWAP3 SWAP2 POP POP JUMP JUMPDEST PUSH0 PUSH1 0x40 DUP3 ADD SWAP1 POP PUSH2 0x17E4 PUSH0 DUP4 ADD DUP6 PUSH2 0x170B JUMP JUMPDEST DUP2 DUP2 SUB PUSH1 0x20 DUP4 ADD MSTORE PUSH2 0x17F6 DUP2 DUP5 PUSH2 0x1775 JUMP JUMPDEST SWAP1 POP SWAP4 SWAP3 POP POP POP JUMP JUMPDEST PUSH0 DUP1 REVERT JUMPDEST PUSH0 PUSH1 0x1F NOT PUSH1 0x1F DUP4 ADD AND SWAP1 POP SWAP2 SWAP1 POP JUMP JUMPDEST PUSH2 0x181C DUP3 PUSH2 0x1803 JUMP JUMPDEST DUP2 ADD DUP2 DUP2 LT PUSH8 0xFFFFFFFFFFFFFFFF DUP3 GT OR ISZERO PUSH2 0x183B JUMPI PUSH2 0x183A PUSH2 0x16AB JUMP JUMPDEST JUMPDEST DUP1 PUSH1 0x40 MSTORE POP POP POP JUMP JUMPDEST PUSH0 PUSH2 0x184D PUSH2 0xFB8 JUMP JUMPDEST SWAP1 POP PUSH2 0x1859 DUP3 DUP3 PUSH2 0x1813 JUMP JUMPDEST SWAP2 SWAP1 POP JUMP JUMPDEST PUSH0 PUSH8 0xFFFFFFFFFFFFFFFF DUP3 GT ISZERO PUSH2 0x1878 JUMPI PUSH2 0x1877 PUSH2 0x16AB JUMP JUMPDEST JUMPDEST PUSH1 0x20 DUP3 MUL SWAP1 POP PUSH1 0x20 DUP2 ADD SWAP1 POP SWAP2 SWAP1 POP JUMP JUMPDEST PUSH0 DUP1 REVERT JUMPDEST PUSH0 DUP2 MLOAD SWAP1 POP PUSH2 0x189B DUP2 PUSH2 0x104F JUMP JUMPDEST SWAP3 SWAP2 POP POP JUMP JUMPDEST PUSH0 PUSH2 0x18B3 PUSH2 0x18AE DUP5 PUSH2 0x185E JUMP JUMPDEST PUSH2 0x1844 JUMP JUMPDEST SWAP1 POP DUP1 DUP4 DUP3 MSTORE PUSH1 0x20 DUP3 ADD SWAP1 POP PUSH1 0x20 DUP5 MUL DUP4 ADD DUP6 DUP2 GT ISZERO PUSH2 0x18D6 JUMPI PUSH2 0x18D5 PUSH2 0x1889 JUMP JUMPDEST JUMPDEST DUP4 JUMPDEST DUP2 DUP2 LT ISZERO PUSH2 0x18FF JUMPI DUP1 PUSH2 0x18EB DUP9 DUP3 PUSH2 0x188D JUMP JUMPDEST DUP5 MSTORE PUSH1 0x20 DUP5 ADD SWAP4 POP POP PUSH1 0x20 DUP2 ADD SWAP1 POP PUSH2 0x18D8 JUMP JUMPDEST POP POP POP SWAP4 SWAP3 POP POP POP JUMP JUMPDEST PUSH0 DUP3 PUSH1 0x1F DUP4 ADD SLT PUSH2 0x191D JUMPI PUSH2 0x191C PUSH2 0x17FF JUMP JUMPDEST JUMPDEST DUP2 MLOAD PUSH2 0x192D DUP5 DUP3 PUSH1 0x20 DUP7 ADD PUSH2 0x18A1 JUMP JUMPDEST SWAP2 POP POP SWAP3 SWAP2 POP POP JUMP JUMPDEST PUSH0 PUSH1 0x20 DUP3 DUP5 SUB SLT ISZERO PUSH2 0x194B JUMPI PUSH2 0x194A PUSH2 0xFC1 JUMP JUMPDEST JUMPDEST PUSH0 DUP3 ADD MLOAD PUSH8 0xFFFFFFFFFFFFFFFF DUP2 GT ISZERO PUSH2 0x1968 JUMPI PUSH2 0x1967 PUSH2 0xFC5 JUMP JUMPDEST JUMPDEST PUSH2 0x1974 DUP5 DUP3 DUP6 ADD PUSH2 0x1909 JUMP JUMPDEST SWAP2 POP POP SWAP3 SWAP2 POP POP JUMP JUMPDEST PUSH32 0x4F6E6C792061646D696E2063616E2063616C6C20746869732066756E6374696F PUSH0 DUP3 ADD MSTORE PUSH32 0x6E00000000000000000000000000000000000000000000000000000000000000 PUSH1 0x20 DUP3 ADD MSTORE POP JUMP JUMPDEST PUSH0 PUSH2 0x19D7 PUSH1 0x21 DUP4 PUSH2 0x1171 JUMP JUMPDEST SWAP2 POP PUSH2 0x19E2 DUP3 PUSH2 0x197D JUMP JUMPDEST PUSH1 0x40 DUP3 ADD SWAP1 POP SWAP2 SWAP1 POP JUMP JUMPDEST PUSH0 PUSH1 0x20 DUP3 ADD SWAP1 POP DUP2 DUP2 SUB PUSH0 DUP4 ADD MSTORE PUSH2 0x1A04 DUP2 PUSH2 0x19CB JUMP JUMPDEST SWAP1 POP SWAP2 SWAP1 POP JUMP JUMPDEST PUSH0 PUSH2 0x1A15 DUP3 PUSH2 0x101E JUMP JUMPDEST SWAP2 POP PUSH2 0x1A20 DUP4 PUSH2 0x101E JUMP JUMPDEST SWAP3 POP DUP3 PUSH2 0x1A30 JUMPI PUSH2 0x1A2F PUSH2 0x1430 JUMP JUMPDEST JUMPDEST DUP3 DUP3 MOD SWAP1 POP SWAP3 SWAP2 POP POP JUMP JUMPDEST PUSH0 DUP2 SWAP1 POP SWAP2 SWAP1 POP JUMP JUMPDEST PUSH2 0x1A4D DUP2 PUSH2 0x1A3B JUMP JUMPDEST DUP2 EQ PUSH2 0x1A57 JUMPI PUSH0 DUP1 REVERT JUMPDEST POP JUMP JUMPDEST PUSH0 DUP2 MLOAD SWAP1 POP PUSH2 0x1A68 DUP2 PUSH2 0x1A44 JUMP JUMPDEST SWAP3 SWAP2 POP POP JUMP JUMPDEST PUSH0 PUSH1 0x20 DUP3 DUP5 SUB SLT ISZERO PUSH2 0x1A83 JUMPI PUSH2 0x1A82 PUSH2 0xFC1 JUMP JUMPDEST JUMPDEST PUSH0 PUSH2 0x1A90 DUP5 DUP3 DUP6 ADD PUSH2 0x1A5A JUMP JUMPDEST SWAP2 POP POP SWAP3 SWAP2 POP POP JUMP JUMPDEST PUSH32 0x496E76616C6964204554482F5553442070726963650000000000000000000000 PUSH0 DUP3 ADD MSTORE POP JUMP JUMPDEST PUSH0 PUSH2 0x1ACD PUSH1 0x15 DUP4 PUSH2 0x1171 JUMP JUMPDEST SWAP2 POP PUSH2 0x1AD8 DUP3 PUSH2 0x1A99 JUMP JUMPDEST PUSH1 0x20 DUP3 ADD SWAP1 POP SWAP2 SWAP1 POP JUMP JUMPDEST PUSH0 PUSH1 0x20 DUP3 ADD SWAP1 POP DUP2 DUP2 SUB PUSH0 DUP4 ADD MSTORE PUSH2 0x1AFA DUP2 PUSH2 0x1AC1 JUMP JUMPDEST SWAP1 POP SWAP2 SWAP1 POP JUMP JUMPDEST PUSH32 0x4665652070657263656E74616765206E6F742073657420666F72207468697320 PUSH0 DUP3 ADD MSTORE PUSH32 0x6475726174696F6E000000000000000000000000000000000000000000000000 PUSH1 0x20 DUP3 ADD MSTORE POP JUMP JUMPDEST PUSH0 PUSH2 0x1B5B PUSH1 0x28 DUP4 PUSH2 0x1171 JUMP JUMPDEST SWAP2 POP PUSH2 0x1B66 DUP3 PUSH2 0x1B01 JUMP JUMPDEST PUSH1 0x40 DUP3 ADD SWAP1 POP SWAP2 SWAP1 POP JUMP JUMPDEST PUSH0 PUSH1 0x20 DUP3 ADD SWAP1 POP DUP2 DUP2 SUB PUSH0 DUP4 ADD MSTORE PUSH2 0x1B88 DUP2 PUSH2 0x1B4F JUMP JUMPDEST SWAP1 POP SWAP2 SWAP1 POP JUMP INVALID LOG2 PUSH5 0x6970667358 0x22 SLT KECCAK256 PUSH20 0x8269DC7E2AFECD7B4E35B0D9D38565856F55C5E2 LOG4 SWAP2 0xD8 EXTCODECOPY 0x4A 0xBA SWAP3 SWAP5 0xED SHL 0x24 PUSH5 0x736F6C6343 STOP ADDMOD EQ STOP CALLER "
				},
				"gasEstimates": {
					"creation": {
						"codeDepositCost": "1421800",
						"executionCost": "infinite",
						"totalCost": "infinite"
					},
					"external": {
						"DECIMALS()": "348",
						"admin()": "2593",
						"calculatePriceOfGrlInUsd()": "infinite",
						"ethUsdAggregatorAddress()": "2532",
						"getEthToUsdValue()": "infinite",
						"getPriceOfGrlInEth()": "infinite",
						"getUserStakeCount(address)": "2883",
						"getUserStakeDetails(address,uint256)": "infinite",
						"grlTokenAddress()": "2552",
						"setStakingFeePercentage(uint256,uint256)": "infinite",
						"stakeGrl(uint256,uint256)": "infinite",
						"stakingFeePercentage(uint256)": "infinite",
						"uniswapRouterAddress()": "2576",
						"unstake(uint256)": "infinite",
						"userStakes(address,uint256)": "infinite",
						"wethAddress()": "2597"
					},
					"internal": {
						"calculateStakingFee(uint256,uint256)": "infinite"
					}
				},
				"methodIdentifiers": {
					"DECIMALS()": "2e0f2625",
					"admin()": "f851a440",
					"calculatePriceOfGrlInUsd()": "b92d21c4",
					"ethUsdAggregatorAddress()": "00c3a272",
					"getEthToUsdValue()": "851f7147",
					"getPriceOfGrlInEth()": "50f3845b",
					"getUserStakeCount(address)": "1b545a17",
					"getUserStakeDetails(address,uint256)": "e4ba0d7b",
					"grlTokenAddress()": "b9aa6ec4",
					"setStakingFeePercentage(uint256,uint256)": "7a997035",
					"stakeGrl(uint256,uint256)": "45aefbdb",
					"stakingFeePercentage(uint256)": "26230e2f",
					"uniswapRouterAddress()": "20ca3c7f",
					"unstake(uint256)": "2e17de78",
					"userStakes(address,uint256)": "b5d5b5fa",
					"wethAddress()": "4f0e0ef3"
				}
			},
			"storageLayout": {
				"storage": [
					{
						"astId": 58,
						"contract": "contracts\\PriceGuranteeStaking.sol:StakingContract",
						"label": "admin",
						"offset": 0,
						"slot": "0",
						"type": "t_address"
					},
					{
						"astId": 60,
						"contract": "contracts\\PriceGuranteeStaking.sol:StakingContract",
						"label": "grlTokenAddress",
						"offset": 0,
						"slot": "1",
						"type": "t_address"
					},
					{
						"astId": 62,
						"contract": "contracts\\PriceGuranteeStaking.sol:StakingContract",
						"label": "wethAddress",
						"offset": 0,
						"slot": "2",
						"type": "t_address"
					},
					{
						"astId": 64,
						"contract": "contracts\\PriceGuranteeStaking.sol:StakingContract",
						"label": "uniswapRouterAddress",
						"offset": 0,
						"slot": "3",
						"type": "t_address"
					},
					{
						"astId": 66,
						"contract": "contracts\\PriceGuranteeStaking.sol:StakingContract",
						"label": "ethUsdAggregatorAddress",
						"offset": 0,
						"slot": "4",
						"type": "t_address"
					},
					{
						"astId": 73,
						"contract": "contracts\\PriceGuranteeStaking.sol:StakingContract",
						"label": "stakingFeePercentage",
						"offset": 0,
						"slot": "5",
						"type": "t_mapping(t_uint256,t_uint256)"
					},
					{
						"astId": 90,
						"contract": "contracts\\PriceGuranteeStaking.sol:StakingContract",
						"label": "userStakes",
						"offset": 0,
						"slot": "6",
						"type": "t_mapping(t_address,t_array(t_struct(Stake)84_storage)dyn_storage)"
					}
				],
				"types": {
					"t_address": {
						"encoding": "inplace",
						"label": "address",
						"numberOfBytes": "20"
					},
					"t_array(t_struct(Stake)84_storage)dyn_storage": {
						"base": "t_struct(Stake)84_storage",
						"encoding": "dynamic_array",
						"label": "struct StakingContract.Stake[]",
						"numberOfBytes": "32"
					},
					"t_mapping(t_address,t_array(t_struct(Stake)84_storage)dyn_storage)": {
						"encoding": "mapping",
						"key": "t_address",
						"label": "mapping(address => struct StakingContract.Stake[])",
						"numberOfBytes": "32",
						"value": "t_array(t_struct(Stake)84_storage)dyn_storage"
					},
					"t_mapping(t_uint256,t_uint256)": {
						"encoding": "mapping",
						"key": "t_uint256",
						"label": "mapping(uint256 => uint256)",
						"numberOfBytes": "32",
						"value": "t_uint256"
					},
					"t_struct(Stake)84_storage": {
						"encoding": "inplace",
						"label": "struct StakingContract.Stake",
						"members": [
							{
								"astId": 75,
								"contract": "contracts\\PriceGuranteeStaking.sol:StakingContract",
								"label": "durationInDays",
								"offset": 0,
								"slot": "0",
								"type": "t_uint256"
							},
							{
								"astId": 77,
								"contract": "contracts\\PriceGuranteeStaking.sol:StakingContract",
								"label": "amount",
								"offset": 0,
								"slot": "1",
								"type": "t_uint256"
							},
							{
								"astId": 79,
								"contract": "contracts\\PriceGuranteeStaking.sol:StakingContract",
								"label": "timestamp",
								"offset": 0,
								"slot": "2",
								"type": "t_uint256"
							},
							{
								"astId": 81,
								"contract": "contracts\\PriceGuranteeStaking.sol:StakingContract",
								"label": "priceInUsd",
								"offset": 0,
								"slot": "3",
								"type": "t_uint256"
							},
							{
								"astId": 83,
								"contract": "contracts\\PriceGuranteeStaking.sol:StakingContract",
								"label": "amountInUsd",
								"offset": 0,
								"slot": "4",
								"type": "t_uint256"
							}
						],
						"numberOfBytes": "160"
					},
					"t_uint256": {
						"encoding": "inplace",
						"label": "uint256",
						"numberOfBytes": "32"
					}
				}
			},
			"userdoc": {
				"kind": "user",
				"methods": {},
				"version": 1
			}
		}
	}
}