{
	"contracts\\PriceGuranteeStaking.sol": {
		"StakingContract": {
			"abi": [
				{
					"inputs": [
						{
							"internalType": "address",
							"name": "_grlTokenAddress",
							"type": "address"
						},
						{
							"internalType": "address",
							"name": "_wethAddress",
							"type": "address"
						},
						{
							"internalType": "address",
							"name": "_uniswapRouterAddress",
							"type": "address"
						},
						{
							"internalType": "address",
							"name": "_ethUsdAggregatorAddress",
							"type": "address"
						}
					],
					"stateMutability": "nonpayable",
					"type": "constructor"
				},
				{
					"anonymous": false,
					"inputs": [
						{
							"indexed": true,
							"internalType": "address",
							"name": "user",
							"type": "address"
						},
						{
							"indexed": false,
							"internalType": "uint256",
							"name": "amount",
							"type": "uint256"
						},
						{
							"indexed": false,
							"internalType": "uint256",
							"name": "duration",
							"type": "uint256"
						},
						{
							"indexed": false,
							"internalType": "uint256",
							"name": "endTime",
							"type": "uint256"
						},
						{
							"indexed": false,
							"internalType": "uint256",
							"name": "priceInUsd",
							"type": "uint256"
						},
						{
							"indexed": false,
							"internalType": "uint256",
							"name": "fee",
							"type": "uint256"
						},
						{
							"indexed": false,
							"internalType": "uint256",
							"name": "amountInUsd",
							"type": "uint256"
						}
					],
					"name": "Staked",
					"type": "event"
				},
				{
					"anonymous": false,
					"inputs": [
						{
							"indexed": true,
							"internalType": "address",
							"name": "user",
							"type": "address"
						},
						{
							"indexed": false,
							"internalType": "uint256",
							"name": "amount",
							"type": "uint256"
						}
					],
					"name": "Unstaked",
					"type": "event"
				},
				{
					"inputs": [],
					"name": "DECIMALS",
					"outputs": [
						{
							"internalType": "uint256",
							"name": "",
							"type": "uint256"
						}
					],
					"stateMutability": "view",
					"type": "function"
				},
				{
					"inputs": [],
					"name": "admin",
					"outputs": [
						{
							"internalType": "address",
							"name": "",
							"type": "address"
						}
					],
					"stateMutability": "view",
					"type": "function"
				},
				{
					"inputs": [],
					"name": "calculatePriceOfGrlInUsd",
					"outputs": [
						{
							"internalType": "uint256",
							"name": "",
							"type": "uint256"
						}
					],
					"stateMutability": "view",
					"type": "function"
				},
				{
					"inputs": [],
					"name": "ethUsdAggregatorAddress",
					"outputs": [
						{
							"internalType": "address",
							"name": "",
							"type": "address"
						}
					],
					"stateMutability": "view",
					"type": "function"
				},
				{
					"inputs": [],
					"name": "getEthToUsdValue",
					"outputs": [
						{
							"internalType": "uint256",
							"name": "",
							"type": "uint256"
						}
					],
					"stateMutability": "view",
					"type": "function"
				},
				{
					"inputs": [],
					"name": "getPriceOfGrlInEth",
					"outputs": [
						{
							"internalType": "uint256",
							"name": "",
							"type": "uint256"
						}
					],
					"stateMutability": "view",
					"type": "function"
				},
				{
					"inputs": [],
					"name": "grlTokenAddress",
					"outputs": [
						{
							"internalType": "address",
							"name": "",
							"type": "address"
						}
					],
					"stateMutability": "view",
					"type": "function"
				},
				{
					"inputs": [
						{
							"internalType": "uint256",
							"name": "amount",
							"type": "uint256"
						},
						{
							"internalType": "uint256",
							"name": "durationInDays",
							"type": "uint256"
						}
					],
					"name": "stake",
					"outputs": [],
					"stateMutability": "nonpayable",
					"type": "function"
				},
				{
					"inputs": [],
					"name": "uniswapRouterAddress",
					"outputs": [
						{
							"internalType": "address",
							"name": "",
							"type": "address"
						}
					],
					"stateMutability": "view",
					"type": "function"
				},
				{
					"inputs": [
						{
							"internalType": "uint256",
							"name": "index",
							"type": "uint256"
						}
					],
					"name": "unstake",
					"outputs": [],
					"stateMutability": "nonpayable",
					"type": "function"
				},
				{
					"inputs": [
						{
							"internalType": "address",
							"name": "",
							"type": "address"
						},
						{
							"internalType": "uint256",
							"name": "",
							"type": "uint256"
						}
					],
					"name": "userStakes",
					"outputs": [
						{
							"internalType": "uint256",
							"name": "durationInDays",
							"type": "uint256"
						},
						{
							"internalType": "uint256",
							"name": "amount",
							"type": "uint256"
						},
						{
							"internalType": "uint256",
							"name": "timestamp",
							"type": "uint256"
						},
						{
							"internalType": "uint256",
							"name": "priceInUsd",
							"type": "uint256"
						},
						{
							"internalType": "uint256",
							"name": "amountInUsd",
							"type": "uint256"
						}
					],
					"stateMutability": "view",
					"type": "function"
				},
				{
					"inputs": [],
					"name": "wethAddress",
					"outputs": [
						{
							"internalType": "address",
							"name": "",
							"type": "address"
						}
					],
					"stateMutability": "view",
					"type": "function"
				}
			],
			"devdoc": {
				"kind": "dev",
				"methods": {},
				"version": 1
			},
			"evm": {
				"assembly": "    /* \"contracts\\\\PriceGuranteeStaking.sol\":332:6290  contract StakingContract {... */\n  mstore(0x40, 0x80)\n    /* \"contracts\\\\PriceGuranteeStaking.sol\":902:1305  constructor(... */\n  callvalue\n  dup1\n  iszero\n  tag_1\n  jumpi\n  0x00\n  dup1\n  revert\ntag_1:\n  pop\n  mload(0x40)\n  sub(codesize, bytecodeSize)\n  dup1\n  bytecodeSize\n  dup4\n  codecopy\n  dup2\n  dup2\n  add\n  0x40\n  mstore\n  dup2\n  add\n  swap1\n  tag_2\n  swap2\n  swap1\n  tag_3\n  jump\t// in\ntag_2:\n    /* \"contracts\\\\PriceGuranteeStaking.sol\":1089:1099  msg.sender */\n  caller\n    /* \"contracts\\\\PriceGuranteeStaking.sol\":1081:1086  admin */\n  0x00\n  dup1\n    /* \"contracts\\\\PriceGuranteeStaking.sol\":1081:1099  admin = msg.sender */\n  0x0100\n  exp\n  dup2\n  sload\n  dup2\n  0xffffffffffffffffffffffffffffffffffffffff\n  mul\n  not\n  and\n  swap1\n  dup4\n  0xffffffffffffffffffffffffffffffffffffffff\n  and\n  mul\n  or\n  swap1\n  sstore\n  pop\n    /* \"contracts\\\\PriceGuranteeStaking.sol\":1128:1144  _grlTokenAddress */\n  dup4\n    /* \"contracts\\\\PriceGuranteeStaking.sol\":1110:1125  grlTokenAddress */\n  0x01\n  0x00\n    /* \"contracts\\\\PriceGuranteeStaking.sol\":1110:1144  grlTokenAddress = _grlTokenAddress */\n  0x0100\n  exp\n  dup2\n  sload\n  dup2\n  0xffffffffffffffffffffffffffffffffffffffff\n  mul\n  not\n  and\n  swap1\n  dup4\n  0xffffffffffffffffffffffffffffffffffffffff\n  and\n  mul\n  or\n  swap1\n  sstore\n  pop\n    /* \"contracts\\\\PriceGuranteeStaking.sol\":1169:1181  _wethAddress */\n  dup3\n    /* \"contracts\\\\PriceGuranteeStaking.sol\":1155:1166  wethAddress */\n  0x02\n  0x00\n    /* \"contracts\\\\PriceGuranteeStaking.sol\":1155:1181  wethAddress = _wethAddress */\n  0x0100\n  exp\n  dup2\n  sload\n  dup2\n  0xffffffffffffffffffffffffffffffffffffffff\n  mul\n  not\n  and\n  swap1\n  dup4\n  0xffffffffffffffffffffffffffffffffffffffff\n  and\n  mul\n  or\n  swap1\n  sstore\n  pop\n    /* \"contracts\\\\PriceGuranteeStaking.sol\":1215:1236  _uniswapRouterAddress */\n  dup2\n    /* \"contracts\\\\PriceGuranteeStaking.sol\":1192:1212  uniswapRouterAddress */\n  0x03\n  0x00\n    /* \"contracts\\\\PriceGuranteeStaking.sol\":1192:1236  uniswapRouterAddress = _uniswapRouterAddress */\n  0x0100\n  exp\n  dup2\n  sload\n  dup2\n  0xffffffffffffffffffffffffffffffffffffffff\n  mul\n  not\n  and\n  swap1\n  dup4\n  0xffffffffffffffffffffffffffffffffffffffff\n  and\n  mul\n  or\n  swap1\n  sstore\n  pop\n    /* \"contracts\\\\PriceGuranteeStaking.sol\":1273:1297  _ethUsdAggregatorAddress */\n  dup1\n    /* \"contracts\\\\PriceGuranteeStaking.sol\":1247:1270  ethUsdAggregatorAddress */\n  0x04\n  0x00\n    /* \"contracts\\\\PriceGuranteeStaking.sol\":1247:1297  ethUsdAggregatorAddress = _ethUsdAggregatorAddress */\n  0x0100\n  exp\n  dup2\n  sload\n  dup2\n  0xffffffffffffffffffffffffffffffffffffffff\n  mul\n  not\n  and\n  swap1\n  dup4\n  0xffffffffffffffffffffffffffffffffffffffff\n  and\n  mul\n  or\n  swap1\n  sstore\n  pop\n    /* \"contracts\\\\PriceGuranteeStaking.sol\":902:1305  constructor(... */\n  pop\n  pop\n  pop\n  pop\n    /* \"contracts\\\\PriceGuranteeStaking.sol\":332:6290  contract StakingContract {... */\n  jump(tag_6)\n    /* \"#utility.yul\":88:205   */\ntag_8:\n    /* \"#utility.yul\":197:198   */\n  0x00\n    /* \"#utility.yul\":194:195   */\n  dup1\n    /* \"#utility.yul\":187:199   */\n  revert\n    /* \"#utility.yul\":334:460   */\ntag_10:\n    /* \"#utility.yul\":371:378   */\n  0x00\n    /* \"#utility.yul\":411:453   */\n  0xffffffffffffffffffffffffffffffffffffffff\n    /* \"#utility.yul\":404:409   */\n  dup3\n    /* \"#utility.yul\":400:454   */\n  and\n    /* \"#utility.yul\":389:454   */\n  swap1\n  pop\n    /* \"#utility.yul\":334:460   */\n  swap2\n  swap1\n  pop\n  jump\t// out\n    /* \"#utility.yul\":466:562   */\ntag_11:\n    /* \"#utility.yul\":503:510   */\n  0x00\n    /* \"#utility.yul\":532:556   */\n  tag_20\n    /* \"#utility.yul\":550:555   */\n  dup3\n    /* \"#utility.yul\":532:556   */\n  tag_10\n  jump\t// in\ntag_20:\n    /* \"#utility.yul\":521:556   */\n  swap1\n  pop\n    /* \"#utility.yul\":466:562   */\n  swap2\n  swap1\n  pop\n  jump\t// out\n    /* \"#utility.yul\":568:690   */\ntag_12:\n    /* \"#utility.yul\":641:665   */\n  tag_22\n    /* \"#utility.yul\":659:664   */\n  dup2\n    /* \"#utility.yul\":641:665   */\n  tag_11\n  jump\t// in\ntag_22:\n    /* \"#utility.yul\":634:639   */\n  dup2\n    /* \"#utility.yul\":631:666   */\n  eq\n    /* \"#utility.yul\":621:684   */\n  tag_23\n  jumpi\n    /* \"#utility.yul\":680:681   */\n  0x00\n    /* \"#utility.yul\":677:678   */\n  dup1\n    /* \"#utility.yul\":670:682   */\n  revert\n    /* \"#utility.yul\":621:684   */\ntag_23:\n    /* \"#utility.yul\":568:690   */\n  pop\n  jump\t// out\n    /* \"#utility.yul\":696:839   */\ntag_13:\n    /* \"#utility.yul\":753:758   */\n  0x00\n    /* \"#utility.yul\":784:790   */\n  dup2\n    /* \"#utility.yul\":778:791   */\n  mload\n    /* \"#utility.yul\":769:791   */\n  swap1\n  pop\n    /* \"#utility.yul\":800:833   */\n  tag_25\n    /* \"#utility.yul\":827:832   */\n  dup2\n    /* \"#utility.yul\":800:833   */\n  tag_12\n  jump\t// in\ntag_25:\n    /* \"#utility.yul\":696:839   */\n  swap3\n  swap2\n  pop\n  pop\n  jump\t// out\n    /* \"#utility.yul\":845:1665   */\ntag_3:\n    /* \"#utility.yul\":942:948   */\n  0x00\n    /* \"#utility.yul\":950:956   */\n  dup1\n    /* \"#utility.yul\":958:964   */\n  0x00\n    /* \"#utility.yul\":966:972   */\n  dup1\n    /* \"#utility.yul\":1015:1018   */\n  0x80\n    /* \"#utility.yul\":1003:1012   */\n  dup6\n    /* \"#utility.yul\":994:1001   */\n  dup8\n    /* \"#utility.yul\":990:1013   */\n  sub\n    /* \"#utility.yul\":986:1019   */\n  slt\n    /* \"#utility.yul\":983:1103   */\n  iszero\n  tag_27\n  jumpi\n    /* \"#utility.yul\":1022:1101   */\n  tag_28\n  tag_8\n  jump\t// in\ntag_28:\n    /* \"#utility.yul\":983:1103   */\ntag_27:\n    /* \"#utility.yul\":1142:1143   */\n  0x00\n    /* \"#utility.yul\":1167:1231   */\n  tag_29\n    /* \"#utility.yul\":1223:1230   */\n  dup8\n    /* \"#utility.yul\":1214:1220   */\n  dup3\n    /* \"#utility.yul\":1203:1212   */\n  dup9\n    /* \"#utility.yul\":1199:1221   */\n  add\n    /* \"#utility.yul\":1167:1231   */\n  tag_13\n  jump\t// in\ntag_29:\n    /* \"#utility.yul\":1157:1231   */\n  swap5\n  pop\n    /* \"#utility.yul\":1113:1241   */\n  pop\n    /* \"#utility.yul\":1280:1282   */\n  0x20\n    /* \"#utility.yul\":1306:1370   */\n  tag_30\n    /* \"#utility.yul\":1362:1369   */\n  dup8\n    /* \"#utility.yul\":1353:1359   */\n  dup3\n    /* \"#utility.yul\":1342:1351   */\n  dup9\n    /* \"#utility.yul\":1338:1360   */\n  add\n    /* \"#utility.yul\":1306:1370   */\n  tag_13\n  jump\t// in\ntag_30:\n    /* \"#utility.yul\":1296:1370   */\n  swap4\n  pop\n    /* \"#utility.yul\":1251:1380   */\n  pop\n    /* \"#utility.yul\":1419:1421   */\n  0x40\n    /* \"#utility.yul\":1445:1509   */\n  tag_31\n    /* \"#utility.yul\":1501:1508   */\n  dup8\n    /* \"#utility.yul\":1492:1498   */\n  dup3\n    /* \"#utility.yul\":1481:1490   */\n  dup9\n    /* \"#utility.yul\":1477:1499   */\n  add\n    /* \"#utility.yul\":1445:1509   */\n  tag_13\n  jump\t// in\ntag_31:\n    /* \"#utility.yul\":1435:1509   */\n  swap3\n  pop\n    /* \"#utility.yul\":1390:1519   */\n  pop\n    /* \"#utility.yul\":1558:1560   */\n  0x60\n    /* \"#utility.yul\":1584:1648   */\n  tag_32\n    /* \"#utility.yul\":1640:1647   */\n  dup8\n    /* \"#utility.yul\":1631:1637   */\n  dup3\n    /* \"#utility.yul\":1620:1629   */\n  dup9\n    /* \"#utility.yul\":1616:1638   */\n  add\n    /* \"#utility.yul\":1584:1648   */\n  tag_13\n  jump\t// in\ntag_32:\n    /* \"#utility.yul\":1574:1648   */\n  swap2\n  pop\n    /* \"#utility.yul\":1529:1658   */\n  pop\n    /* \"#utility.yul\":845:1665   */\n  swap3\n  swap6\n  swap2\n  swap5\n  pop\n  swap3\n  pop\n  jump\t// out\n    /* \"contracts\\\\PriceGuranteeStaking.sol\":332:6290  contract StakingContract {... */\ntag_6:\n  dataSize(sub_0)\n  dup1\n  dataOffset(sub_0)\n  0x00\n  codecopy\n  0x00\n  return\nstop\n\nsub_0: assembly {\n        /* \"contracts\\\\PriceGuranteeStaking.sol\":332:6290  contract StakingContract {... */\n      mstore(0x40, 0x80)\n      callvalue\n      dup1\n      iszero\n      tag_1\n      jumpi\n      0x00\n      dup1\n      revert\n    tag_1:\n      pop\n      jumpi(tag_2, lt(calldatasize, 0x04))\n      shr(0xe0, calldataload(0x00))\n      dup1\n      0x7b0472f0\n      gt\n      tag_15\n      jumpi\n      dup1\n      0x7b0472f0\n      eq\n      tag_9\n      jumpi\n      dup1\n      0x851f7147\n      eq\n      tag_10\n      jumpi\n      dup1\n      0xb5d5b5fa\n      eq\n      tag_11\n      jumpi\n      dup1\n      0xb92d21c4\n      eq\n      tag_12\n      jumpi\n      dup1\n      0xb9aa6ec4\n      eq\n      tag_13\n      jumpi\n      dup1\n      0xf851a440\n      eq\n      tag_14\n      jumpi\n      jump(tag_2)\n    tag_15:\n      dup1\n      0xc3a272\n      eq\n      tag_3\n      jumpi\n      dup1\n      0x20ca3c7f\n      eq\n      tag_4\n      jumpi\n      dup1\n      0x2e0f2625\n      eq\n      tag_5\n      jumpi\n      dup1\n      0x2e17de78\n      eq\n      tag_6\n      jumpi\n      dup1\n      0x4f0e0ef3\n      eq\n      tag_7\n      jumpi\n      dup1\n      0x50f3845b\n      eq\n      tag_8\n      jumpi\n    tag_2:\n      0x00\n      dup1\n      revert\n        /* \"contracts\\\\PriceGuranteeStaking.sol\":503:541  address public ethUsdAggregatorAddress */\n    tag_3:\n      tag_16\n      tag_17\n      jump\t// in\n    tag_16:\n      mload(0x40)\n      tag_18\n      swap2\n      swap1\n      tag_19\n      jump\t// in\n    tag_18:\n      mload(0x40)\n      dup1\n      swap2\n      sub\n      swap1\n      return\n        /* \"contracts\\\\PriceGuranteeStaking.sol\":461:496  address public uniswapRouterAddress */\n    tag_4:\n      tag_20\n      tag_21\n      jump\t// in\n    tag_20:\n      mload(0x40)\n      tag_22\n      swap2\n      swap1\n      tag_19\n      jump\t// in\n    tag_22:\n      mload(0x40)\n      dup1\n      swap2\n      sub\n      swap1\n      return\n        /* \"contracts\\\\PriceGuranteeStaking.sol\":548:585  uint256 public constant DECIMALS = 18 */\n    tag_5:\n      tag_23\n      tag_24\n      jump\t// in\n    tag_23:\n      mload(0x40)\n      tag_25\n      swap2\n      swap1\n      tag_26\n      jump\t// in\n    tag_25:\n      mload(0x40)\n      dup1\n      swap2\n      sub\n      swap1\n      return\n        /* \"contracts\\\\PriceGuranteeStaking.sol\":3756:4749  function unstake(uint256 index) external {... */\n    tag_6:\n      tag_27\n      0x04\n      dup1\n      calldatasize\n      sub\n      dup2\n      add\n      swap1\n      tag_28\n      swap2\n      swap1\n      tag_29\n      jump\t// in\n    tag_28:\n      tag_30\n      jump\t// in\n    tag_27:\n      stop\n        /* \"contracts\\\\PriceGuranteeStaking.sol\":428:454  address public wethAddress */\n    tag_7:\n      tag_31\n      tag_32\n      jump\t// in\n    tag_31:\n      mload(0x40)\n      tag_33\n      swap2\n      swap1\n      tag_19\n      jump\t// in\n    tag_33:\n      mload(0x40)\n      dup1\n      swap2\n      sub\n      swap1\n      return\n        /* \"contracts\\\\PriceGuranteeStaking.sol\":1668:2071  function getPriceOfGrlInEth() public view returns (uint256) {... */\n    tag_8:\n      tag_34\n      tag_35\n      jump\t// in\n    tag_34:\n      mload(0x40)\n      tag_36\n      swap2\n      swap1\n      tag_26\n      jump\t// in\n    tag_36:\n      mload(0x40)\n      dup1\n      swap2\n      sub\n      swap1\n      return\n        /* \"contracts\\\\PriceGuranteeStaking.sol\":2331:3748  function stake(uint256 amount, uint256 durationInDays) external {... */\n    tag_9:\n      tag_37\n      0x04\n      dup1\n      calldatasize\n      sub\n      dup2\n      add\n      swap1\n      tag_38\n      swap2\n      swap1\n      tag_39\n      jump\t// in\n    tag_38:\n      tag_40\n      jump\t// in\n    tag_37:\n      stop\n        /* \"contracts\\\\PriceGuranteeStaking.sol\":1313:1660  function getEthToUsdValue() public view returns (uint256) {... */\n    tag_10:\n      tag_41\n      tag_42\n      jump\t// in\n    tag_41:\n      mload(0x40)\n      tag_43\n      swap2\n      swap1\n      tag_26\n      jump\t// in\n    tag_43:\n      mload(0x40)\n      dup1\n      swap2\n      sub\n      swap1\n      return\n        /* \"contracts\\\\PriceGuranteeStaking.sol\":848:893  mapping(address => Stake[]) public userStakes */\n    tag_11:\n      tag_44\n      0x04\n      dup1\n      calldatasize\n      sub\n      dup2\n      add\n      swap1\n      tag_45\n      swap2\n      swap1\n      tag_46\n      jump\t// in\n    tag_45:\n      tag_47\n      jump\t// in\n    tag_44:\n      mload(0x40)\n      tag_48\n      swap6\n      swap5\n      swap4\n      swap3\n      swap2\n      swap1\n      tag_49\n      jump\t// in\n    tag_48:\n      mload(0x40)\n      dup1\n      swap2\n      sub\n      swap1\n      return\n        /* \"contracts\\\\PriceGuranteeStaking.sol\":2079:2323  function calculatePriceOfGrlInUsd() public view returns (uint256) {... */\n    tag_12:\n      tag_50\n      tag_51\n      jump\t// in\n    tag_50:\n      mload(0x40)\n      tag_52\n      swap2\n      swap1\n      tag_26\n      jump\t// in\n    tag_52:\n      mload(0x40)\n      dup1\n      swap2\n      sub\n      swap1\n      return\n        /* \"contracts\\\\PriceGuranteeStaking.sol\":391:421  address public grlTokenAddress */\n    tag_13:\n      tag_53\n      tag_54\n      jump\t// in\n    tag_53:\n      mload(0x40)\n      tag_55\n      swap2\n      swap1\n      tag_19\n      jump\t// in\n    tag_55:\n      mload(0x40)\n      dup1\n      swap2\n      sub\n      swap1\n      return\n        /* \"contracts\\\\PriceGuranteeStaking.sol\":364:384  address public admin */\n    tag_14:\n      tag_56\n      tag_57\n      jump\t// in\n    tag_56:\n      mload(0x40)\n      tag_58\n      swap2\n      swap1\n      tag_19\n      jump\t// in\n    tag_58:\n      mload(0x40)\n      dup1\n      swap2\n      sub\n      swap1\n      return\n        /* \"contracts\\\\PriceGuranteeStaking.sol\":503:541  address public ethUsdAggregatorAddress */\n    tag_17:\n      0x04\n      0x00\n      swap1\n      sload\n      swap1\n      0x0100\n      exp\n      swap1\n      div\n      0xffffffffffffffffffffffffffffffffffffffff\n      and\n      dup2\n      jump\t// out\n        /* \"contracts\\\\PriceGuranteeStaking.sol\":461:496  address public uniswapRouterAddress */\n    tag_21:\n      0x03\n      0x00\n      swap1\n      sload\n      swap1\n      0x0100\n      exp\n      swap1\n      div\n      0xffffffffffffffffffffffffffffffffffffffff\n      and\n      dup2\n      jump\t// out\n        /* \"contracts\\\\PriceGuranteeStaking.sol\":548:585  uint256 public constant DECIMALS = 18 */\n    tag_24:\n        /* \"contracts\\\\PriceGuranteeStaking.sol\":583:585  18 */\n      0x12\n        /* \"contracts\\\\PriceGuranteeStaking.sol\":548:585  uint256 public constant DECIMALS = 18 */\n      dup2\n      jump\t// out\n        /* \"contracts\\\\PriceGuranteeStaking.sol\":3756:4749  function unstake(uint256 index) external {... */\n    tag_30:\n        /* \"contracts\\\\PriceGuranteeStaking.sol\":3808:3830  Stake[] storage stakes */\n      0x00\n        /* \"contracts\\\\PriceGuranteeStaking.sol\":3833:3843  userStakes */\n      0x05\n        /* \"contracts\\\\PriceGuranteeStaking.sol\":3833:3855  userStakes[msg.sender] */\n      0x00\n        /* \"contracts\\\\PriceGuranteeStaking.sol\":3844:3854  msg.sender */\n      caller\n        /* \"contracts\\\\PriceGuranteeStaking.sol\":3833:3855  userStakes[msg.sender] */\n      0xffffffffffffffffffffffffffffffffffffffff\n      and\n      0xffffffffffffffffffffffffffffffffffffffff\n      and\n      dup2\n      mstore\n      0x20\n      add\n      swap1\n      dup2\n      mstore\n      0x20\n      add\n      0x00\n      keccak256\n        /* \"contracts\\\\PriceGuranteeStaking.sol\":3808:3855  Stake[] storage stakes = userStakes[msg.sender] */\n      swap1\n      pop\n        /* \"contracts\\\\PriceGuranteeStaking.sol\":3882:3888  stakes */\n      dup1\n        /* \"contracts\\\\PriceGuranteeStaking.sol\":3882:3895  stakes.length */\n      dup1\n      sload\n      swap1\n      pop\n        /* \"contracts\\\\PriceGuranteeStaking.sol\":3874:3879  index */\n      dup3\n        /* \"contracts\\\\PriceGuranteeStaking.sol\":3874:3895  index < stakes.length */\n      lt\n        /* \"contracts\\\\PriceGuranteeStaking.sol\":3866:3913  require(index < stakes.length, \"Invalid index\") */\n      tag_60\n      jumpi\n      mload(0x40)\n      0x08c379a000000000000000000000000000000000000000000000000000000000\n      dup2\n      mstore\n      0x04\n      add\n      tag_61\n      swap1\n      tag_62\n      jump\t// in\n    tag_61:\n      mload(0x40)\n      dup1\n      swap2\n      sub\n      swap1\n      revert\n    tag_60:\n        /* \"contracts\\\\PriceGuranteeStaking.sol\":3926:3951  Stake storage stakeOfUser */\n      0x00\n        /* \"contracts\\\\PriceGuranteeStaking.sol\":3954:3960  stakes */\n      dup2\n        /* \"contracts\\\\PriceGuranteeStaking.sol\":3961:3966  index */\n      dup4\n        /* \"contracts\\\\PriceGuranteeStaking.sol\":3954:3967  stakes[index] */\n      dup2\n      sload\n      dup2\n      lt\n      tag_63\n      jumpi\n      tag_64\n      tag_65\n      jump\t// in\n    tag_64:\n    tag_63:\n      swap1\n      0x00\n      mstore\n      keccak256(0x00, 0x20)\n      swap1\n      0x05\n      mul\n      add\n        /* \"contracts\\\\PriceGuranteeStaking.sol\":3926:3967  Stake storage stakeOfUser = stakes[index] */\n      swap1\n      pop\n        /* \"contracts\\\\PriceGuranteeStaking.sol\":3980:4007  uint256 totalAmountToReturn */\n      0x00\n        /* \"contracts\\\\PriceGuranteeStaking.sol\":4010:4021  stakeOfUser */\n      dup2\n        /* \"contracts\\\\PriceGuranteeStaking.sol\":4010:4028  stakeOfUser.amount */\n      0x01\n      add\n      sload\n        /* \"contracts\\\\PriceGuranteeStaking.sol\":3980:4028  uint256 totalAmountToReturn = stakeOfUser.amount */\n      swap1\n      pop\n        /* \"contracts\\\\PriceGuranteeStaking.sol\":4039:4058  uint256 grlUsdPrice */\n      0x00\n        /* \"contracts\\\\PriceGuranteeStaking.sol\":4061:4087  calculatePriceOfGrlInUsd() */\n      tag_67\n        /* \"contracts\\\\PriceGuranteeStaking.sol\":4061:4085  calculatePriceOfGrlInUsd */\n      tag_51\n        /* \"contracts\\\\PriceGuranteeStaking.sol\":4061:4087  calculatePriceOfGrlInUsd() */\n      jump\t// in\n    tag_67:\n        /* \"contracts\\\\PriceGuranteeStaking.sol\":4039:4087  uint256 grlUsdPrice = calculatePriceOfGrlInUsd() */\n      swap1\n      pop\n        /* \"contracts\\\\PriceGuranteeStaking.sol\":4098:4119  uint256 usdDifference */\n      0x00\n        /* \"contracts\\\\PriceGuranteeStaking.sol\":4147:4158  grlUsdPrice */\n      dup2\n        /* \"contracts\\\\PriceGuranteeStaking.sol\":4122:4133  stakeOfUser */\n      dup5\n        /* \"contracts\\\\PriceGuranteeStaking.sol\":4122:4144  stakeOfUser.priceInUsd */\n      0x03\n      add\n      sload\n        /* \"contracts\\\\PriceGuranteeStaking.sol\":4122:4158  stakeOfUser.priceInUsd - grlUsdPrice */\n      tag_68\n      swap2\n      swap1\n      tag_69\n      jump\t// in\n    tag_68:\n        /* \"contracts\\\\PriceGuranteeStaking.sol\":4098:4158  uint256 usdDifference = stakeOfUser.priceInUsd - grlUsdPrice */\n      swap1\n      pop\n        /* \"contracts\\\\PriceGuranteeStaking.sol\":4191:4192  0 */\n      0x00\n        /* \"contracts\\\\PriceGuranteeStaking.sol\":4175:4188  usdDifference */\n      dup2\n        /* \"contracts\\\\PriceGuranteeStaking.sol\":4175:4192  usdDifference > 0 */\n      gt\n        /* \"contracts\\\\PriceGuranteeStaking.sol\":4171:4439  if (usdDifference > 0) {... */\n      iszero\n      tag_70\n      jumpi\n        /* \"contracts\\\\PriceGuranteeStaking.sol\":4260:4289  uint256 additionalGrlToReturn */\n      0x00\n        /* \"contracts\\\\PriceGuranteeStaking.sol\":4346:4357  stakeOfUser */\n      dup5\n        /* \"contracts\\\\PriceGuranteeStaking.sol\":4346:4368  stakeOfUser.priceInUsd */\n      0x03\n      add\n      sload\n        /* \"contracts\\\\PriceGuranteeStaking.sol\":583:585  18 */\n      0x12\n        /* \"contracts\\\\PriceGuranteeStaking.sol\":4310:4312  10 */\n      0x0a\n        /* \"contracts\\\\PriceGuranteeStaking.sol\":4310:4324  10 ** DECIMALS */\n      tag_71\n      swap2\n      swap1\n      tag_72\n      jump\t// in\n    tag_71:\n        /* \"contracts\\\\PriceGuranteeStaking.sol\":4293:4306  usdDifference */\n      dup4\n        /* \"contracts\\\\PriceGuranteeStaking.sol\":4293:4325  usdDifference * (10 ** DECIMALS) */\n      tag_73\n      swap2\n      swap1\n      tag_74\n      jump\t// in\n    tag_73:\n        /* \"contracts\\\\PriceGuranteeStaking.sol\":4292:4368  (usdDifference * (10 ** DECIMALS)) /... */\n      tag_75\n      swap2\n      swap1\n      tag_76\n      jump\t// in\n    tag_75:\n        /* \"contracts\\\\PriceGuranteeStaking.sol\":4260:4368  uint256 additionalGrlToReturn = (usdDifference * (10 ** DECIMALS)) /... */\n      swap1\n      pop\n        /* \"contracts\\\\PriceGuranteeStaking.sol\":4406:4427  additionalGrlToReturn */\n      dup1\n        /* \"contracts\\\\PriceGuranteeStaking.sol\":4383:4427  totalAmountToReturn += additionalGrlToReturn */\n      dup5\n      tag_77\n      swap2\n      swap1\n      tag_78\n      jump\t// in\n    tag_77:\n      swap4\n      pop\n        /* \"contracts\\\\PriceGuranteeStaking.sol\":4194:4439  {... */\n      pop\n        /* \"contracts\\\\PriceGuranteeStaking.sol\":4171:4439  if (usdDifference > 0) {... */\n    tag_70:\n        /* \"contracts\\\\PriceGuranteeStaking.sol\":4502:4508  stakes */\n      dup5\n        /* \"contracts\\\\PriceGuranteeStaking.sol\":4509:4514  index */\n      dup7\n        /* \"contracts\\\\PriceGuranteeStaking.sol\":4502:4515  stakes[index] */\n      dup2\n      sload\n      dup2\n      lt\n      tag_79\n      jumpi\n      tag_80\n      tag_65\n      jump\t// in\n    tag_80:\n    tag_79:\n      swap1\n      0x00\n      mstore\n      keccak256(0x00, 0x20)\n      swap1\n      0x05\n      mul\n      add\n      0x00\n        /* \"contracts\\\\PriceGuranteeStaking.sol\":4495:4515  delete stakes[index] */\n      dup1\n      dup3\n      add\n      0x00\n      swap1\n      sstore\n      0x01\n      dup3\n      add\n      0x00\n      swap1\n      sstore\n      0x02\n      dup3\n      add\n      0x00\n      swap1\n      sstore\n      0x03\n      dup3\n      add\n      0x00\n      swap1\n      sstore\n      0x04\n      dup3\n      add\n      0x00\n      swap1\n      sstore\n      pop\n      pop\n        /* \"contracts\\\\PriceGuranteeStaking.sol\":4709:4719  msg.sender */\n      caller\n        /* \"contracts\\\\PriceGuranteeStaking.sol\":4700:4741  Unstaked(msg.sender, totalAmountToReturn) */\n      0xffffffffffffffffffffffffffffffffffffffff\n      and\n      0x0f5bb82176feb1b5e747e28471aa92156a04d9f3ab9f45f28e2d704232b93f75\n        /* \"contracts\\\\PriceGuranteeStaking.sol\":4721:4740  totalAmountToReturn */\n      dup5\n        /* \"contracts\\\\PriceGuranteeStaking.sol\":4700:4741  Unstaked(msg.sender, totalAmountToReturn) */\n      mload(0x40)\n      tag_82\n      swap2\n      swap1\n      tag_26\n      jump\t// in\n    tag_82:\n      mload(0x40)\n      dup1\n      swap2\n      sub\n      swap1\n      log2\n        /* \"contracts\\\\PriceGuranteeStaking.sol\":3797:4749  {... */\n      pop\n      pop\n      pop\n      pop\n      pop\n        /* \"contracts\\\\PriceGuranteeStaking.sol\":3756:4749  function unstake(uint256 index) external {... */\n      pop\n      jump\t// out\n        /* \"contracts\\\\PriceGuranteeStaking.sol\":428:454  address public wethAddress */\n    tag_32:\n      0x02\n      0x00\n      swap1\n      sload\n      swap1\n      0x0100\n      exp\n      swap1\n      div\n      0xffffffffffffffffffffffffffffffffffffffff\n      and\n      dup2\n      jump\t// out\n        /* \"contracts\\\\PriceGuranteeStaking.sol\":1668:2071  function getPriceOfGrlInEth() public view returns (uint256) {... */\n    tag_35:\n        /* \"contracts\\\\PriceGuranteeStaking.sol\":1719:1726  uint256 */\n      0x00\n        /* \"contracts\\\\PriceGuranteeStaking.sol\":1739:1760  address[] memory path */\n      dup1\n        /* \"contracts\\\\PriceGuranteeStaking.sol\":1777:1778  2 */\n      0x02\n        /* \"contracts\\\\PriceGuranteeStaking.sol\":1763:1779  new address[](2) */\n      0xffffffffffffffff\n      dup2\n      gt\n      iszero\n      tag_84\n      jumpi\n      tag_85\n      tag_86\n      jump\t// in\n    tag_85:\n    tag_84:\n      mload(0x40)\n      swap1\n      dup1\n      dup3\n      mstore\n      dup1\n      0x20\n      mul\n      0x20\n      add\n      dup3\n      add\n      0x40\n      mstore\n      dup1\n      iszero\n      tag_87\n      jumpi\n      dup2\n      0x20\n      add\n      0x20\n      dup3\n      mul\n      dup1\n      calldatasize\n      dup4\n      calldatacopy\n      dup1\n      dup3\n      add\n      swap2\n      pop\n      pop\n      swap1\n      pop\n    tag_87:\n      pop\n        /* \"contracts\\\\PriceGuranteeStaking.sol\":1739:1779  address[] memory path = new address[](2) */\n      swap1\n      pop\n        /* \"contracts\\\\PriceGuranteeStaking.sol\":1800:1815  grlTokenAddress */\n      0x01\n      0x00\n      swap1\n      sload\n      swap1\n      0x0100\n      exp\n      swap1\n      div\n      0xffffffffffffffffffffffffffffffffffffffff\n      and\n        /* \"contracts\\\\PriceGuranteeStaking.sol\":1790:1794  path */\n      dup2\n        /* \"contracts\\\\PriceGuranteeStaking.sol\":1795:1796  0 */\n      0x00\n        /* \"contracts\\\\PriceGuranteeStaking.sol\":1790:1797  path[0] */\n      dup2\n      mload\n      dup2\n      lt\n      tag_88\n      jumpi\n      tag_89\n      tag_65\n      jump\t// in\n    tag_89:\n    tag_88:\n      0x20\n      mul\n      0x20\n      add\n      add\n        /* \"contracts\\\\PriceGuranteeStaking.sol\":1790:1815  path[0] = grlTokenAddress */\n      swap1\n      0xffffffffffffffffffffffffffffffffffffffff\n      and\n      swap1\n      dup2\n      0xffffffffffffffffffffffffffffffffffffffff\n      and\n      dup2\n      mstore\n      pop\n      pop\n        /* \"contracts\\\\PriceGuranteeStaking.sol\":1836:1847  wethAddress */\n      0x02\n      0x00\n      swap1\n      sload\n      swap1\n      0x0100\n      exp\n      swap1\n      div\n      0xffffffffffffffffffffffffffffffffffffffff\n      and\n        /* \"contracts\\\\PriceGuranteeStaking.sol\":1826:1830  path */\n      dup2\n        /* \"contracts\\\\PriceGuranteeStaking.sol\":1831:1832  1 */\n      0x01\n        /* \"contracts\\\\PriceGuranteeStaking.sol\":1826:1833  path[1] */\n      dup2\n      mload\n      dup2\n      lt\n      tag_90\n      jumpi\n      tag_91\n      tag_65\n      jump\t// in\n    tag_91:\n    tag_90:\n      0x20\n      mul\n      0x20\n      add\n      add\n        /* \"contracts\\\\PriceGuranteeStaking.sol\":1826:1847  path[1] = wethAddress */\n      swap1\n      0xffffffffffffffffffffffffffffffffffffffff\n      and\n      swap1\n      dup2\n      0xffffffffffffffffffffffffffffffffffffffff\n      and\n      dup2\n      mstore\n      pop\n      pop\n        /* \"contracts\\\\PriceGuranteeStaking.sol\":1860:1883  IUniswapV2Router router */\n      0x00\n        /* \"contracts\\\\PriceGuranteeStaking.sol\":1903:1923  uniswapRouterAddress */\n      0x03\n      0x00\n      swap1\n      sload\n      swap1\n      0x0100\n      exp\n      swap1\n      div\n      0xffffffffffffffffffffffffffffffffffffffff\n      and\n        /* \"contracts\\\\PriceGuranteeStaking.sol\":1860:1924  IUniswapV2Router router = IUniswapV2Router(uniswapRouterAddress) */\n      swap1\n      pop\n        /* \"contracts\\\\PriceGuranteeStaking.sol\":1935:1956  uint[] memory amounts */\n      0x00\n        /* \"contracts\\\\PriceGuranteeStaking.sol\":1959:1965  router */\n      dup2\n        /* \"contracts\\\\PriceGuranteeStaking.sol\":1959:1979  router.getAmountsOut */\n      0xffffffffffffffffffffffffffffffffffffffff\n      and\n      0xd06ca61f\n        /* \"contracts\\\\PriceGuranteeStaking.sol\":1980:1983  1e9 */\n      0x3b9aca00\n        /* \"contracts\\\\PriceGuranteeStaking.sol\":1985:1989  path */\n      dup6\n        /* \"contracts\\\\PriceGuranteeStaking.sol\":1959:1990  router.getAmountsOut(1e9, path) */\n      mload(0x40)\n      dup4\n      0xffffffff\n      and\n      0xe0\n      shl\n      dup2\n      mstore\n      0x04\n      add\n      tag_92\n      swap3\n      swap2\n      swap1\n      tag_93\n      jump\t// in\n    tag_92:\n      0x00\n      mload(0x40)\n      dup1\n      dup4\n      sub\n      dup2\n      dup7\n      gas\n      staticcall\n      iszero\n      dup1\n      iszero\n      tag_95\n      jumpi\n      returndatasize\n      0x00\n      dup1\n      returndatacopy\n      revert(0x00, returndatasize)\n    tag_95:\n      pop\n      pop\n      pop\n      pop\n      mload(0x40)\n      returndatasize\n      0x00\n      dup3\n      returndatacopy\n      returndatasize\n      not(0x1f)\n      0x1f\n      dup3\n      add\n      and\n      dup3\n      add\n      dup1\n      0x40\n      mstore\n      pop\n      dup2\n      add\n      swap1\n      tag_96\n      swap2\n      swap1\n      tag_97\n      jump\t// in\n    tag_96:\n        /* \"contracts\\\\PriceGuranteeStaking.sol\":1935:1990  uint[] memory amounts = router.getAmountsOut(1e9, path) */\n      swap1\n      pop\n        /* \"contracts\\\\PriceGuranteeStaking.sol\":2035:2042  amounts */\n      dup1\n        /* \"contracts\\\\PriceGuranteeStaking.sol\":2043:2044  1 */\n      0x01\n        /* \"contracts\\\\PriceGuranteeStaking.sol\":2035:2045  amounts[1] */\n      dup2\n      mload\n      dup2\n      lt\n      tag_98\n      jumpi\n      tag_99\n      tag_65\n      jump\t// in\n    tag_99:\n    tag_98:\n      0x20\n      mul\n      0x20\n      add\n      add\n      mload\n        /* \"contracts\\\\PriceGuranteeStaking.sol\":2028:2045  return amounts[1] */\n      swap4\n      pop\n      pop\n      pop\n      pop\n        /* \"contracts\\\\PriceGuranteeStaking.sol\":1668:2071  function getPriceOfGrlInEth() public view returns (uint256) {... */\n      swap1\n      jump\t// out\n        /* \"contracts\\\\PriceGuranteeStaking.sol\":2331:3748  function stake(uint256 amount, uint256 durationInDays) external {... */\n    tag_40:\n        /* \"contracts\\\\PriceGuranteeStaking.sol\":2423:2424  0 */\n      0x00\n        /* \"contracts\\\\PriceGuranteeStaking.sol\":2414:2420  amount */\n      dup3\n        /* \"contracts\\\\PriceGuranteeStaking.sol\":2414:2424  amount > 0 */\n      gt\n        /* \"contracts\\\\PriceGuranteeStaking.sol\":2406:2443  require(amount > 0, \"Invalid amount\") */\n      tag_101\n      jumpi\n      mload(0x40)\n      0x08c379a000000000000000000000000000000000000000000000000000000000\n      dup2\n      mstore\n      0x04\n      add\n      tag_102\n      swap1\n      tag_103\n      jump\t// in\n    tag_102:\n      mload(0x40)\n      dup1\n      swap2\n      sub\n      swap1\n      revert\n    tag_101:\n        /* \"contracts\\\\PriceGuranteeStaking.sol\":2479:2480  0 */\n      0x00\n        /* \"contracts\\\\PriceGuranteeStaking.sol\":2462:2476  durationInDays */\n      dup2\n        /* \"contracts\\\\PriceGuranteeStaking.sol\":2462:2480  durationInDays > 0 */\n      gt\n        /* \"contracts\\\\PriceGuranteeStaking.sol\":2454:2501  require(durationInDays > 0, \"Invalid duration\") */\n      tag_104\n      jumpi\n      mload(0x40)\n      0x08c379a000000000000000000000000000000000000000000000000000000000\n      dup2\n      mstore\n      0x04\n      add\n      tag_105\n      swap1\n      tag_106\n      jump\t// in\n    tag_105:\n      mload(0x40)\n      dup1\n      swap2\n      sub\n      swap1\n      revert\n    tag_104:\n        /* \"contracts\\\\PriceGuranteeStaking.sol\":2514:2533  uint256 grlUsdPrice */\n      0x00\n        /* \"contracts\\\\PriceGuranteeStaking.sol\":2536:2562  calculatePriceOfGrlInUsd() */\n      tag_107\n        /* \"contracts\\\\PriceGuranteeStaking.sol\":2536:2560  calculatePriceOfGrlInUsd */\n      tag_51\n        /* \"contracts\\\\PriceGuranteeStaking.sol\":2536:2562  calculatePriceOfGrlInUsd() */\n      jump\t// in\n    tag_107:\n        /* \"contracts\\\\PriceGuranteeStaking.sol\":2514:2562  uint256 grlUsdPrice = calculatePriceOfGrlInUsd() */\n      swap1\n      pop\n        /* \"contracts\\\\PriceGuranteeStaking.sol\":2573:2591  uint256 stakingFee */\n      0x00\n        /* \"contracts\\\\PriceGuranteeStaking.sol\":2594:2637  calculateStakingFee(durationInDays, amount) */\n      tag_108\n        /* \"contracts\\\\PriceGuranteeStaking.sol\":2614:2628  durationInDays */\n      dup4\n        /* \"contracts\\\\PriceGuranteeStaking.sol\":2630:2636  amount */\n      dup6\n        /* \"contracts\\\\PriceGuranteeStaking.sol\":2594:2613  calculateStakingFee */\n      tag_109\n        /* \"contracts\\\\PriceGuranteeStaking.sol\":2594:2637  calculateStakingFee(durationInDays, amount) */\n      jump\t// in\n    tag_108:\n        /* \"contracts\\\\PriceGuranteeStaking.sol\":2573:2637  uint256 stakingFee = calculateStakingFee(durationInDays, amount) */\n      swap1\n      pop\n        /* \"contracts\\\\PriceGuranteeStaking.sol\":2648:2667  uint256 amountInUsd */\n      0x00\n        /* \"contracts\\\\PriceGuranteeStaking.sol\":583:585  18 */\n      0x12\n        /* \"contracts\\\\PriceGuranteeStaking.sol\":2696:2698  10 */\n      0x0a\n        /* \"contracts\\\\PriceGuranteeStaking.sol\":2696:2710  10 ** DECIMALS */\n      tag_110\n      swap2\n      swap1\n      tag_72\n      jump\t// in\n    tag_110:\n        /* \"contracts\\\\PriceGuranteeStaking.sol\":2680:2691  grlUsdPrice */\n      dup4\n        /* \"contracts\\\\PriceGuranteeStaking.sol\":2671:2677  amount */\n      dup7\n        /* \"contracts\\\\PriceGuranteeStaking.sol\":2671:2691  amount * grlUsdPrice */\n      tag_111\n      swap2\n      swap1\n      tag_74\n      jump\t// in\n    tag_111:\n        /* \"contracts\\\\PriceGuranteeStaking.sol\":2670:2711  (amount * grlUsdPrice) / (10 ** DECIMALS) */\n      tag_112\n      swap2\n      swap1\n      tag_76\n      jump\t// in\n    tag_112:\n        /* \"contracts\\\\PriceGuranteeStaking.sol\":2648:2711  uint256 amountInUsd = (amount * grlUsdPrice) / (10 ** DECIMALS) */\n      swap1\n      pop\n        /* \"contracts\\\\PriceGuranteeStaking.sol\":2955:2977  uint256 stakingEndTime */\n      0x00\n        /* \"contracts\\\\PriceGuranteeStaking.sol\":3016:3022  1 days */\n      0x015180\n        /* \"contracts\\\\PriceGuranteeStaking.sol\":2999:3013  durationInDays */\n      dup6\n        /* \"contracts\\\\PriceGuranteeStaking.sol\":2999:3022  durationInDays * 1 days */\n      tag_113\n      swap2\n      swap1\n      tag_74\n      jump\t// in\n    tag_113:\n        /* \"contracts\\\\PriceGuranteeStaking.sol\":2980:2995  block.timestamp */\n      timestamp\n        /* \"contracts\\\\PriceGuranteeStaking.sol\":2980:3023  block.timestamp + (durationInDays * 1 days) */\n      tag_114\n      swap2\n      swap1\n      tag_78\n      jump\t// in\n    tag_114:\n        /* \"contracts\\\\PriceGuranteeStaking.sol\":2955:3023  uint256 stakingEndTime = block.timestamp + (durationInDays * 1 days) */\n      swap1\n      pop\n        /* \"contracts\\\\PriceGuranteeStaking.sol\":3069:3079  userStakes */\n      0x05\n        /* \"contracts\\\\PriceGuranteeStaking.sol\":3069:3091  userStakes[msg.sender] */\n      0x00\n        /* \"contracts\\\\PriceGuranteeStaking.sol\":3080:3090  msg.sender */\n      caller\n        /* \"contracts\\\\PriceGuranteeStaking.sol\":3069:3091  userStakes[msg.sender] */\n      0xffffffffffffffffffffffffffffffffffffffff\n      and\n      0xffffffffffffffffffffffffffffffffffffffff\n      and\n      dup2\n      mstore\n      0x20\n      add\n      swap1\n      dup2\n      mstore\n      0x20\n      add\n      0x00\n      keccak256\n        /* \"contracts\\\\PriceGuranteeStaking.sol\":3111:3344  Stake({... */\n      mload(0x40)\n      dup1\n      0xa0\n      add\n      0x40\n      mstore\n      dup1\n        /* \"contracts\\\\PriceGuranteeStaking.sol\":3152:3166  durationInDays */\n      dup8\n        /* \"contracts\\\\PriceGuranteeStaking.sol\":3111:3344  Stake({... */\n      dup2\n      mstore\n      0x20\n      add\n        /* \"contracts\\\\PriceGuranteeStaking.sol\":3193:3199  amount */\n      dup9\n        /* \"contracts\\\\PriceGuranteeStaking.sol\":3111:3344  Stake({... */\n      dup2\n      mstore\n      0x20\n      add\n        /* \"contracts\\\\PriceGuranteeStaking.sol\":3229:3243  stakingEndTime */\n      dup4\n        /* \"contracts\\\\PriceGuranteeStaking.sol\":3111:3344  Stake({... */\n      dup2\n      mstore\n      0x20\n      add\n        /* \"contracts\\\\PriceGuranteeStaking.sol\":3274:3285  grlUsdPrice */\n      dup7\n        /* \"contracts\\\\PriceGuranteeStaking.sol\":3111:3344  Stake({... */\n      dup2\n      mstore\n      0x20\n      add\n        /* \"contracts\\\\PriceGuranteeStaking.sol\":3317:3328  amountInUsd */\n      dup5\n        /* \"contracts\\\\PriceGuranteeStaking.sol\":3111:3344  Stake({... */\n      dup2\n      mstore\n      pop\n        /* \"contracts\\\\PriceGuranteeStaking.sol\":3069:3355  userStakes[msg.sender].push(... */\n      swap1\n      dup1\n      0x01\n      dup2\n      sload\n      add\n      dup1\n      dup3\n      sstore\n      dup1\n      swap2\n      pop\n      pop\n      0x01\n      swap1\n      sub\n      swap1\n      0x00\n      mstore\n      keccak256(0x00, 0x20)\n      swap1\n      0x05\n      mul\n      add\n      0x00\n      swap1\n      swap2\n      swap1\n      swap2\n      swap1\n      swap2\n      pop\n      0x00\n      dup3\n      add\n      mload\n      dup2\n      0x00\n      add\n      sstore\n      0x20\n      dup3\n      add\n      mload\n      dup2\n      0x01\n      add\n      sstore\n      0x40\n      dup3\n      add\n      mload\n      dup2\n      0x02\n      add\n      sstore\n      0x60\n      dup3\n      add\n      mload\n      dup2\n      0x03\n      add\n      sstore\n      0x80\n      dup3\n      add\n      mload\n      dup2\n      0x04\n      add\n      sstore\n      pop\n      pop\n        /* \"contracts\\\\PriceGuranteeStaking.sol\":3563:3573  msg.sender */\n      caller\n        /* \"contracts\\\\PriceGuranteeStaking.sol\":3542:3740  Staked(... */\n      0xffffffffffffffffffffffffffffffffffffffff\n      and\n      0xc16be9a586414a157dd46b4d023aa9997a025dd1cbbaa67ac0c1b8273a5eaf55\n        /* \"contracts\\\\PriceGuranteeStaking.sol\":3588:3594  amount */\n      dup8\n        /* \"contracts\\\\PriceGuranteeStaking.sol\":3609:3623  durationInDays */\n      dup8\n        /* \"contracts\\\\PriceGuranteeStaking.sol\":3638:3652  stakingEndTime */\n      dup5\n        /* \"contracts\\\\PriceGuranteeStaking.sol\":3667:3678  grlUsdPrice */\n      dup9\n        /* \"contracts\\\\PriceGuranteeStaking.sol\":3693:3703  stakingFee */\n      dup9\n        /* \"contracts\\\\PriceGuranteeStaking.sol\":3718:3729  amountInUsd */\n      dup9\n        /* \"contracts\\\\PriceGuranteeStaking.sol\":3542:3740  Staked(... */\n      mload(0x40)\n      tag_116\n      swap7\n      swap6\n      swap5\n      swap4\n      swap3\n      swap2\n      swap1\n      tag_117\n      jump\t// in\n    tag_116:\n      mload(0x40)\n      dup1\n      swap2\n      sub\n      swap1\n      log2\n        /* \"contracts\\\\PriceGuranteeStaking.sol\":2395:3748  {... */\n      pop\n      pop\n      pop\n      pop\n        /* \"contracts\\\\PriceGuranteeStaking.sol\":2331:3748  function stake(uint256 amount, uint256 durationInDays) external {... */\n      pop\n      pop\n      jump\t// out\n        /* \"contracts\\\\PriceGuranteeStaking.sol\":1313:1660  function getEthToUsdValue() public view returns (uint256) {... */\n    tag_42:\n        /* \"contracts\\\\PriceGuranteeStaking.sol\":1362:1369  uint256 */\n      0x00\n        /* \"contracts\\\\PriceGuranteeStaking.sol\":1382:1418  AggregatorInterface ethUsdAggregator */\n      dup1\n        /* \"contracts\\\\PriceGuranteeStaking.sol\":1455:1478  ethUsdAggregatorAddress */\n      0x04\n      0x00\n      swap1\n      sload\n      swap1\n      0x0100\n      exp\n      swap1\n      div\n      0xffffffffffffffffffffffffffffffffffffffff\n      and\n        /* \"contracts\\\\PriceGuranteeStaking.sol\":1382:1489  AggregatorInterface ethUsdAggregator = AggregatorInterface(... */\n      swap1\n      pop\n        /* \"contracts\\\\PriceGuranteeStaking.sol\":1500:1518  int256 ethUsdPrice */\n      0x00\n        /* \"contracts\\\\PriceGuranteeStaking.sol\":1521:1537  ethUsdAggregator */\n      dup2\n        /* \"contracts\\\\PriceGuranteeStaking.sol\":1521:1550  ethUsdAggregator.latestAnswer */\n      0xffffffffffffffffffffffffffffffffffffffff\n      and\n      0x50d25bcd\n        /* \"contracts\\\\PriceGuranteeStaking.sol\":1521:1552  ethUsdAggregator.latestAnswer() */\n      mload(0x40)\n      dup2\n      0xffffffff\n      and\n      0xe0\n      shl\n      dup2\n      mstore\n      0x04\n      add\n      0x20\n      mload(0x40)\n      dup1\n      dup4\n      sub\n      dup2\n      dup7\n      gas\n      staticcall\n      iszero\n      dup1\n      iszero\n      tag_120\n      jumpi\n      returndatasize\n      0x00\n      dup1\n      returndatacopy\n      revert(0x00, returndatasize)\n    tag_120:\n      pop\n      pop\n      pop\n      pop\n      mload(0x40)\n      returndatasize\n      not(0x1f)\n      0x1f\n      dup3\n      add\n      and\n      dup3\n      add\n      dup1\n      0x40\n      mstore\n      pop\n      dup2\n      add\n      swap1\n      tag_121\n      swap2\n      swap1\n      tag_122\n      jump\t// in\n    tag_121:\n        /* \"contracts\\\\PriceGuranteeStaking.sol\":1500:1552  int256 ethUsdPrice = ethUsdAggregator.latestAnswer() */\n      swap1\n      pop\n        /* \"contracts\\\\PriceGuranteeStaking.sol\":1585:1586  0 */\n      0x00\n        /* \"contracts\\\\PriceGuranteeStaking.sol\":1571:1582  ethUsdPrice */\n      dup2\n        /* \"contracts\\\\PriceGuranteeStaking.sol\":1571:1586  ethUsdPrice > 0 */\n      sgt\n        /* \"contracts\\\\PriceGuranteeStaking.sol\":1563:1612  require(ethUsdPrice > 0, \"Invalid ETH/USD price\") */\n      tag_123\n      jumpi\n      mload(0x40)\n      0x08c379a000000000000000000000000000000000000000000000000000000000\n      dup2\n      mstore\n      0x04\n      add\n      tag_124\n      swap1\n      tag_125\n      jump\t// in\n    tag_124:\n      mload(0x40)\n      dup1\n      swap2\n      sub\n      swap1\n      revert\n    tag_123:\n        /* \"contracts\\\\PriceGuranteeStaking.sol\":1640:1651  ethUsdPrice */\n      dup1\n        /* \"contracts\\\\PriceGuranteeStaking.sol\":1625:1652  return uint256(ethUsdPrice) */\n      swap3\n      pop\n      pop\n      pop\n        /* \"contracts\\\\PriceGuranteeStaking.sol\":1313:1660  function getEthToUsdValue() public view returns (uint256) {... */\n      swap1\n      jump\t// out\n        /* \"contracts\\\\PriceGuranteeStaking.sol\":848:893  mapping(address => Stake[]) public userStakes */\n    tag_47:\n      mstore(0x20, 0x05)\n      dup2\n      0x00\n      mstore\n      keccak256(0x00, 0x40)\n      dup2\n      dup2\n      sload\n      dup2\n      lt\n      tag_126\n      jumpi\n      0x00\n      dup1\n      revert\n    tag_126:\n      swap1\n      0x00\n      mstore\n      keccak256(0x00, 0x20)\n      swap1\n      0x05\n      mul\n      add\n      0x00\n      swap2\n      pop\n      swap2\n      pop\n      pop\n      dup1\n      0x00\n      add\n      sload\n      swap1\n      dup1\n      0x01\n      add\n      sload\n      swap1\n      dup1\n      0x02\n      add\n      sload\n      swap1\n      dup1\n      0x03\n      add\n      sload\n      swap1\n      dup1\n      0x04\n      add\n      sload\n      swap1\n      pop\n      dup6\n      jump\t// out\n        /* \"contracts\\\\PriceGuranteeStaking.sol\":2079:2323  function calculatePriceOfGrlInUsd() public view returns (uint256) {... */\n    tag_51:\n        /* \"contracts\\\\PriceGuranteeStaking.sol\":2136:2143  uint256 */\n      0x00\n        /* \"contracts\\\\PriceGuranteeStaking.sol\":2156:2175  uint256 ethUsdPrice */\n      dup1\n        /* \"contracts\\\\PriceGuranteeStaking.sol\":2178:2196  getEthToUsdValue() */\n      tag_129\n        /* \"contracts\\\\PriceGuranteeStaking.sol\":2178:2194  getEthToUsdValue */\n      tag_42\n        /* \"contracts\\\\PriceGuranteeStaking.sol\":2178:2196  getEthToUsdValue() */\n      jump\t// in\n    tag_129:\n        /* \"contracts\\\\PriceGuranteeStaking.sol\":2156:2196  uint256 ethUsdPrice = getEthToUsdValue() */\n      swap1\n      pop\n        /* \"contracts\\\\PriceGuranteeStaking.sol\":2207:2226  uint256 grlEthPrice */\n      0x00\n        /* \"contracts\\\\PriceGuranteeStaking.sol\":2229:2249  getPriceOfGrlInEth() */\n      tag_130\n        /* \"contracts\\\\PriceGuranteeStaking.sol\":2229:2247  getPriceOfGrlInEth */\n      tag_35\n        /* \"contracts\\\\PriceGuranteeStaking.sol\":2229:2249  getPriceOfGrlInEth() */\n      jump\t// in\n    tag_130:\n        /* \"contracts\\\\PriceGuranteeStaking.sol\":2207:2249  uint256 grlEthPrice = getPriceOfGrlInEth() */\n      swap1\n      pop\n        /* \"contracts\\\\PriceGuranteeStaking.sol\":583:585  18 */\n      0x12\n        /* \"contracts\\\\PriceGuranteeStaking.sol\":2300:2302  10 */\n      0x0a\n        /* \"contracts\\\\PriceGuranteeStaking.sol\":2300:2314  10 ** DECIMALS */\n      tag_131\n      swap2\n      swap1\n      tag_72\n      jump\t// in\n    tag_131:\n        /* \"contracts\\\\PriceGuranteeStaking.sol\":2284:2295  ethUsdPrice */\n      dup3\n        /* \"contracts\\\\PriceGuranteeStaking.sol\":2270:2281  grlEthPrice */\n      dup3\n        /* \"contracts\\\\PriceGuranteeStaking.sol\":2270:2295  grlEthPrice * ethUsdPrice */\n      tag_132\n      swap2\n      swap1\n      tag_74\n      jump\t// in\n    tag_132:\n        /* \"contracts\\\\PriceGuranteeStaking.sol\":2269:2315  (grlEthPrice * ethUsdPrice) / (10 ** DECIMALS) */\n      tag_133\n      swap2\n      swap1\n      tag_76\n      jump\t// in\n    tag_133:\n        /* \"contracts\\\\PriceGuranteeStaking.sol\":2262:2315  return (grlEthPrice * ethUsdPrice) / (10 ** DECIMALS) */\n      swap3\n      pop\n      pop\n      pop\n        /* \"contracts\\\\PriceGuranteeStaking.sol\":2079:2323  function calculatePriceOfGrlInUsd() public view returns (uint256) {... */\n      swap1\n      jump\t// out\n        /* \"contracts\\\\PriceGuranteeStaking.sol\":391:421  address public grlTokenAddress */\n    tag_54:\n      0x01\n      0x00\n      swap1\n      sload\n      swap1\n      0x0100\n      exp\n      swap1\n      div\n      0xffffffffffffffffffffffffffffffffffffffff\n      and\n      dup2\n      jump\t// out\n        /* \"contracts\\\\PriceGuranteeStaking.sol\":364:384  address public admin */\n    tag_57:\n      0x00\n      dup1\n      sload\n      swap1\n      0x0100\n      exp\n      swap1\n      div\n      0xffffffffffffffffffffffffffffffffffffffff\n      and\n      dup2\n      jump\t// out\n        /* \"contracts\\\\PriceGuranteeStaking.sol\":4757:5051  function calculateStakingFee(... */\n    tag_109:\n        /* \"contracts\\\\PriceGuranteeStaking.sol\":4874:4881  uint256 */\n      0x00\n        /* \"contracts\\\\PriceGuranteeStaking.sol\":4894:4915  uint256 feePercentage */\n      dup1\n        /* \"contracts\\\\PriceGuranteeStaking.sol\":4918:4957  getStakingFeePercentage(durationInDays) */\n      tag_135\n        /* \"contracts\\\\PriceGuranteeStaking.sol\":4942:4956  durationInDays */\n      dup5\n        /* \"contracts\\\\PriceGuranteeStaking.sol\":4918:4941  getStakingFeePercentage */\n      tag_136\n        /* \"contracts\\\\PriceGuranteeStaking.sol\":4918:4957  getStakingFeePercentage(durationInDays) */\n      jump\t// in\n    tag_135:\n        /* \"contracts\\\\PriceGuranteeStaking.sol\":4894:4957  uint256 feePercentage = getStakingFeePercentage(durationInDays) */\n      swap1\n      pop\n        /* \"contracts\\\\PriceGuranteeStaking.sol\":5002:5007  10000 */\n      0x2710\n        /* \"contracts\\\\PriceGuranteeStaking.sol\":4985:4998  feePercentage */\n      dup2\n        /* \"contracts\\\\PriceGuranteeStaking.sol\":4976:4982  amount */\n      dup5\n        /* \"contracts\\\\PriceGuranteeStaking.sol\":4976:4998  amount * feePercentage */\n      tag_137\n      swap2\n      swap1\n      tag_74\n      jump\t// in\n    tag_137:\n        /* \"contracts\\\\PriceGuranteeStaking.sol\":4975:5007  (amount * feePercentage) / 10000 */\n      tag_138\n      swap2\n      swap1\n      tag_76\n      jump\t// in\n    tag_138:\n        /* \"contracts\\\\PriceGuranteeStaking.sol\":4968:5007  return (amount * feePercentage) / 10000 */\n      swap2\n      pop\n      pop\n        /* \"contracts\\\\PriceGuranteeStaking.sol\":4757:5051  function calculateStakingFee(... */\n      swap3\n      swap2\n      pop\n      pop\n      jump\t// out\n        /* \"contracts\\\\PriceGuranteeStaking.sol\":5059:6010  function getStakingFeePercentage(... */\n    tag_136:\n        /* \"contracts\\\\PriceGuranteeStaking.sol\":5155:5162  uint256 */\n      0x00\n        /* \"contracts\\\\PriceGuranteeStaking.sol\":5206:5207  0 */\n      dup1\n        /* \"contracts\\\\PriceGuranteeStaking.sol\":5200:5202  30 */\n      0x1e\n        /* \"contracts\\\\PriceGuranteeStaking.sol\":5183:5197  durationInDays */\n      dup4\n        /* \"contracts\\\\PriceGuranteeStaking.sol\":5183:5202  durationInDays % 30 */\n      tag_140\n      swap2\n      swap1\n      tag_141\n      jump\t// in\n    tag_140:\n        /* \"contracts\\\\PriceGuranteeStaking.sol\":5183:5207  durationInDays % 30 == 0 */\n      eq\n        /* \"contracts\\\\PriceGuranteeStaking.sol\":5175:5228  require(durationInDays % 30 == 0, \"Invalid duration\") */\n      tag_142\n      jumpi\n      mload(0x40)\n      0x08c379a000000000000000000000000000000000000000000000000000000000\n      dup2\n      mstore\n      0x04\n      add\n      tag_143\n      swap1\n      tag_106\n      jump\t// in\n    tag_143:\n      mload(0x40)\n      dup1\n      swap2\n      sub\n      swap1\n      revert\n    tag_142:\n        /* \"contracts\\\\PriceGuranteeStaking.sol\":5263:5265  30 */\n      0x1e\n        /* \"contracts\\\\PriceGuranteeStaking.sol\":5245:5259  durationInDays */\n      dup3\n        /* \"contracts\\\\PriceGuranteeStaking.sol\":5245:5265  durationInDays == 30 */\n      sub\n        /* \"contracts\\\\PriceGuranteeStaking.sol\":5241:5278  if (durationInDays == 30) return 3750 */\n      tag_144\n      jumpi\n        /* \"contracts\\\\PriceGuranteeStaking.sol\":5274:5278  3750 */\n      0x0ea6\n        /* \"contracts\\\\PriceGuranteeStaking.sol\":5267:5278  return 3750 */\n      swap1\n      pop\n      jump(tag_139)\n        /* \"contracts\\\\PriceGuranteeStaking.sol\":5241:5278  if (durationInDays == 30) return 3750 */\n    tag_144:\n        /* \"contracts\\\\PriceGuranteeStaking.sol\":5322:5324  60 */\n      0x3c\n        /* \"contracts\\\\PriceGuranteeStaking.sol\":5304:5318  durationInDays */\n      dup3\n        /* \"contracts\\\\PriceGuranteeStaking.sol\":5304:5324  durationInDays == 60 */\n      sub\n        /* \"contracts\\\\PriceGuranteeStaking.sol\":5300:5337  if (durationInDays == 60) return 5625 */\n      tag_145\n      jumpi\n        /* \"contracts\\\\PriceGuranteeStaking.sol\":5333:5337  5625 */\n      0x15f9\n        /* \"contracts\\\\PriceGuranteeStaking.sol\":5326:5337  return 5625 */\n      swap1\n      pop\n      jump(tag_139)\n        /* \"contracts\\\\PriceGuranteeStaking.sol\":5300:5337  if (durationInDays == 60) return 5625 */\n    tag_145:\n        /* \"contracts\\\\PriceGuranteeStaking.sol\":5381:5383  90 */\n      0x5a\n        /* \"contracts\\\\PriceGuranteeStaking.sol\":5363:5377  durationInDays */\n      dup3\n        /* \"contracts\\\\PriceGuranteeStaking.sol\":5363:5383  durationInDays == 90 */\n      sub\n        /* \"contracts\\\\PriceGuranteeStaking.sol\":5359:5396  if (durationInDays == 90) return 7734 */\n      tag_146\n      jumpi\n        /* \"contracts\\\\PriceGuranteeStaking.sol\":5392:5396  7734 */\n      0x1e36\n        /* \"contracts\\\\PriceGuranteeStaking.sol\":5385:5396  return 7734 */\n      swap1\n      pop\n      jump(tag_139)\n        /* \"contracts\\\\PriceGuranteeStaking.sol\":5359:5396  if (durationInDays == 90) return 7734 */\n    tag_146:\n        /* \"contracts\\\\PriceGuranteeStaking.sol\":5440:5443  120 */\n      0x78\n        /* \"contracts\\\\PriceGuranteeStaking.sol\":5422:5436  durationInDays */\n      dup3\n        /* \"contracts\\\\PriceGuranteeStaking.sol\":5422:5443  durationInDays == 120 */\n      sub\n        /* \"contracts\\\\PriceGuranteeStaking.sol\":5418:5456  if (durationInDays == 120) return 9909 */\n      tag_147\n      jumpi\n        /* \"contracts\\\\PriceGuranteeStaking.sol\":5452:5456  9909 */\n      0x26b5\n        /* \"contracts\\\\PriceGuranteeStaking.sol\":5445:5456  return 9909 */\n      swap1\n      pop\n      jump(tag_139)\n        /* \"contracts\\\\PriceGuranteeStaking.sol\":5418:5456  if (durationInDays == 120) return 9909 */\n    tag_147:\n        /* \"contracts\\\\PriceGuranteeStaking.sol\":5500:5503  150 */\n      0x96\n        /* \"contracts\\\\PriceGuranteeStaking.sol\":5482:5496  durationInDays */\n      dup3\n        /* \"contracts\\\\PriceGuranteeStaking.sol\":5482:5503  durationInDays == 150 */\n      sub\n        /* \"contracts\\\\PriceGuranteeStaking.sol\":5478:5517  if (durationInDays == 150) return 12000 */\n      tag_148\n      jumpi\n        /* \"contracts\\\\PriceGuranteeStaking.sol\":5512:5517  12000 */\n      0x2ee0\n        /* \"contracts\\\\PriceGuranteeStaking.sol\":5505:5517  return 12000 */\n      swap1\n      pop\n      jump(tag_139)\n        /* \"contracts\\\\PriceGuranteeStaking.sol\":5478:5517  if (durationInDays == 150) return 12000 */\n    tag_148:\n        /* \"contracts\\\\PriceGuranteeStaking.sol\":5562:5565  180 */\n      0xb4\n        /* \"contracts\\\\PriceGuranteeStaking.sol\":5544:5558  durationInDays */\n      dup3\n        /* \"contracts\\\\PriceGuranteeStaking.sol\":5544:5565  durationInDays == 180 */\n      sub\n        /* \"contracts\\\\PriceGuranteeStaking.sol\":5540:5579  if (durationInDays == 180) return 13898 */\n      tag_149\n      jumpi\n        /* \"contracts\\\\PriceGuranteeStaking.sol\":5574:5579  13898 */\n      0x364a\n        /* \"contracts\\\\PriceGuranteeStaking.sol\":5567:5579  return 13898 */\n      swap1\n      pop\n      jump(tag_139)\n        /* \"contracts\\\\PriceGuranteeStaking.sol\":5540:5579  if (durationInDays == 180) return 13898 */\n    tag_149:\n        /* \"contracts\\\\PriceGuranteeStaking.sol\":5624:5627  210 */\n      0xd2\n        /* \"contracts\\\\PriceGuranteeStaking.sol\":5606:5620  durationInDays */\n      dup3\n        /* \"contracts\\\\PriceGuranteeStaking.sol\":5606:5627  durationInDays == 210 */\n      sub\n        /* \"contracts\\\\PriceGuranteeStaking.sol\":5602:5641  if (durationInDays == 210) return 15547 */\n      tag_150\n      jumpi\n        /* \"contracts\\\\PriceGuranteeStaking.sol\":5636:5641  15547 */\n      0x3cbb\n        /* \"contracts\\\\PriceGuranteeStaking.sol\":5629:5641  return 15547 */\n      swap1\n      pop\n      jump(tag_139)\n        /* \"contracts\\\\PriceGuranteeStaking.sol\":5602:5641  if (durationInDays == 210) return 15547 */\n    tag_150:\n        /* \"contracts\\\\PriceGuranteeStaking.sol\":5686:5689  240 */\n      0xf0\n        /* \"contracts\\\\PriceGuranteeStaking.sol\":5668:5682  durationInDays */\n      dup3\n        /* \"contracts\\\\PriceGuranteeStaking.sol\":5668:5689  durationInDays == 240 */\n      sub\n        /* \"contracts\\\\PriceGuranteeStaking.sol\":5664:5703  if (durationInDays == 240) return 16931 */\n      tag_151\n      jumpi\n        /* \"contracts\\\\PriceGuranteeStaking.sol\":5698:5703  16931 */\n      0x4223\n        /* \"contracts\\\\PriceGuranteeStaking.sol\":5691:5703  return 16931 */\n      swap1\n      pop\n      jump(tag_139)\n        /* \"contracts\\\\PriceGuranteeStaking.sol\":5664:5703  if (durationInDays == 240) return 16931 */\n    tag_151:\n        /* \"contracts\\\\PriceGuranteeStaking.sol\":5748:5751  270 */\n      0x010e\n        /* \"contracts\\\\PriceGuranteeStaking.sol\":5730:5744  durationInDays */\n      dup3\n        /* \"contracts\\\\PriceGuranteeStaking.sol\":5730:5751  durationInDays == 270 */\n      sub\n        /* \"contracts\\\\PriceGuranteeStaking.sol\":5726:5765  if (durationInDays == 270) return 18061 */\n      tag_152\n      jumpi\n        /* \"contracts\\\\PriceGuranteeStaking.sol\":5760:5765  18061 */\n      0x468d\n        /* \"contracts\\\\PriceGuranteeStaking.sol\":5753:5765  return 18061 */\n      swap1\n      pop\n      jump(tag_139)\n        /* \"contracts\\\\PriceGuranteeStaking.sol\":5726:5765  if (durationInDays == 270) return 18061 */\n    tag_152:\n        /* \"contracts\\\\PriceGuranteeStaking.sol\":5810:5813  300 */\n      0x012c\n        /* \"contracts\\\\PriceGuranteeStaking.sol\":5792:5806  durationInDays */\n      dup3\n        /* \"contracts\\\\PriceGuranteeStaking.sol\":5792:5813  durationInDays == 300 */\n      sub\n        /* \"contracts\\\\PriceGuranteeStaking.sol\":5788:5827  if (durationInDays == 300) return 18965 */\n      tag_153\n      jumpi\n        /* \"contracts\\\\PriceGuranteeStaking.sol\":5822:5827  18965 */\n      0x4a15\n        /* \"contracts\\\\PriceGuranteeStaking.sol\":5815:5827  return 18965 */\n      swap1\n      pop\n      jump(tag_139)\n        /* \"contracts\\\\PriceGuranteeStaking.sol\":5788:5827  if (durationInDays == 300) return 18965 */\n    tag_153:\n        /* \"contracts\\\\PriceGuranteeStaking.sol\":5872:5875  330 */\n      0x014a\n        /* \"contracts\\\\PriceGuranteeStaking.sol\":5854:5868  durationInDays */\n      dup3\n        /* \"contracts\\\\PriceGuranteeStaking.sol\":5854:5875  durationInDays == 330 */\n      sub\n        /* \"contracts\\\\PriceGuranteeStaking.sol\":5850:5889  if (durationInDays == 330) return 19677 */\n      tag_154\n      jumpi\n        /* \"contracts\\\\PriceGuranteeStaking.sol\":5884:5889  19677 */\n      0x4cdd\n        /* \"contracts\\\\PriceGuranteeStaking.sol\":5877:5889  return 19677 */\n      swap1\n      pop\n      jump(tag_139)\n        /* \"contracts\\\\PriceGuranteeStaking.sol\":5850:5889  if (durationInDays == 330) return 19677 */\n    tag_154:\n        /* \"contracts\\\\PriceGuranteeStaking.sol\":5934:5937  360 */\n      0x0168\n        /* \"contracts\\\\PriceGuranteeStaking.sol\":5916:5930  durationInDays */\n      dup3\n        /* \"contracts\\\\PriceGuranteeStaking.sol\":5916:5937  durationInDays == 360 */\n      sub\n        /* \"contracts\\\\PriceGuranteeStaking.sol\":5912:5951  if (durationInDays == 360) return 20231 */\n      tag_155\n      jumpi\n        /* \"contracts\\\\PriceGuranteeStaking.sol\":5946:5951  20231 */\n      0x4f07\n        /* \"contracts\\\\PriceGuranteeStaking.sol\":5939:5951  return 20231 */\n      swap1\n      pop\n      jump(tag_139)\n        /* \"contracts\\\\PriceGuranteeStaking.sol\":5912:5951  if (durationInDays == 360) return 20231 */\n    tag_155:\n        /* \"contracts\\\\PriceGuranteeStaking.sol\":5976:6002  revert(\"Invalid duration\") */\n      mload(0x40)\n      0x08c379a000000000000000000000000000000000000000000000000000000000\n      dup2\n      mstore\n      0x04\n      add\n      tag_156\n      swap1\n      tag_106\n      jump\t// in\n    tag_156:\n      mload(0x40)\n      dup1\n      swap2\n      sub\n      swap1\n      revert\n        /* \"contracts\\\\PriceGuranteeStaking.sol\":5059:6010  function getStakingFeePercentage(... */\n    tag_139:\n      swap2\n      swap1\n      pop\n      jump\t// out\n        /* \"#utility.yul\":7:133   */\n    tag_157:\n        /* \"#utility.yul\":44:51   */\n      0x00\n        /* \"#utility.yul\":84:126   */\n      0xffffffffffffffffffffffffffffffffffffffff\n        /* \"#utility.yul\":77:82   */\n      dup3\n        /* \"#utility.yul\":73:127   */\n      and\n        /* \"#utility.yul\":62:127   */\n      swap1\n      pop\n        /* \"#utility.yul\":7:133   */\n      swap2\n      swap1\n      pop\n      jump\t// out\n        /* \"#utility.yul\":139:235   */\n    tag_158:\n        /* \"#utility.yul\":176:183   */\n      0x00\n        /* \"#utility.yul\":205:229   */\n      tag_209\n        /* \"#utility.yul\":223:228   */\n      dup3\n        /* \"#utility.yul\":205:229   */\n      tag_157\n      jump\t// in\n    tag_209:\n        /* \"#utility.yul\":194:229   */\n      swap1\n      pop\n        /* \"#utility.yul\":139:235   */\n      swap2\n      swap1\n      pop\n      jump\t// out\n        /* \"#utility.yul\":241:359   */\n    tag_159:\n        /* \"#utility.yul\":328:352   */\n      tag_211\n        /* \"#utility.yul\":346:351   */\n      dup2\n        /* \"#utility.yul\":328:352   */\n      tag_158\n      jump\t// in\n    tag_211:\n        /* \"#utility.yul\":323:326   */\n      dup3\n        /* \"#utility.yul\":316:353   */\n      mstore\n        /* \"#utility.yul\":241:359   */\n      pop\n      pop\n      jump\t// out\n        /* \"#utility.yul\":365:587   */\n    tag_19:\n        /* \"#utility.yul\":458:462   */\n      0x00\n        /* \"#utility.yul\":496:498   */\n      0x20\n        /* \"#utility.yul\":485:494   */\n      dup3\n        /* \"#utility.yul\":481:499   */\n      add\n        /* \"#utility.yul\":473:499   */\n      swap1\n      pop\n        /* \"#utility.yul\":509:580   */\n      tag_213\n        /* \"#utility.yul\":577:578   */\n      0x00\n        /* \"#utility.yul\":566:575   */\n      dup4\n        /* \"#utility.yul\":562:579   */\n      add\n        /* \"#utility.yul\":553:559   */\n      dup5\n        /* \"#utility.yul\":509:580   */\n      tag_159\n      jump\t// in\n    tag_213:\n        /* \"#utility.yul\":365:587   */\n      swap3\n      swap2\n      pop\n      pop\n      jump\t// out\n        /* \"#utility.yul\":593:670   */\n    tag_160:\n        /* \"#utility.yul\":630:637   */\n      0x00\n        /* \"#utility.yul\":659:664   */\n      dup2\n        /* \"#utility.yul\":648:664   */\n      swap1\n      pop\n        /* \"#utility.yul\":593:670   */\n      swap2\n      swap1\n      pop\n      jump\t// out\n        /* \"#utility.yul\":676:794   */\n    tag_161:\n        /* \"#utility.yul\":763:787   */\n      tag_216\n        /* \"#utility.yul\":781:786   */\n      dup2\n        /* \"#utility.yul\":763:787   */\n      tag_160\n      jump\t// in\n    tag_216:\n        /* \"#utility.yul\":758:761   */\n      dup3\n        /* \"#utility.yul\":751:788   */\n      mstore\n        /* \"#utility.yul\":676:794   */\n      pop\n      pop\n      jump\t// out\n        /* \"#utility.yul\":800:1022   */\n    tag_26:\n        /* \"#utility.yul\":893:897   */\n      0x00\n        /* \"#utility.yul\":931:933   */\n      0x20\n        /* \"#utility.yul\":920:929   */\n      dup3\n        /* \"#utility.yul\":916:934   */\n      add\n        /* \"#utility.yul\":908:934   */\n      swap1\n      pop\n        /* \"#utility.yul\":944:1015   */\n      tag_218\n        /* \"#utility.yul\":1012:1013   */\n      0x00\n        /* \"#utility.yul\":1001:1010   */\n      dup4\n        /* \"#utility.yul\":997:1014   */\n      add\n        /* \"#utility.yul\":988:994   */\n      dup5\n        /* \"#utility.yul\":944:1015   */\n      tag_161\n      jump\t// in\n    tag_218:\n        /* \"#utility.yul\":800:1022   */\n      swap3\n      swap2\n      pop\n      pop\n      jump\t// out\n        /* \"#utility.yul\":1028:1103   */\n    tag_162:\n        /* \"#utility.yul\":1061:1067   */\n      0x00\n        /* \"#utility.yul\":1094:1096   */\n      0x40\n        /* \"#utility.yul\":1088:1097   */\n      mload\n        /* \"#utility.yul\":1078:1097   */\n      swap1\n      pop\n        /* \"#utility.yul\":1028:1103   */\n      swap1\n      jump\t// out\n        /* \"#utility.yul\":1109:1226   */\n    tag_163:\n        /* \"#utility.yul\":1218:1219   */\n      0x00\n        /* \"#utility.yul\":1215:1216   */\n      dup1\n        /* \"#utility.yul\":1208:1220   */\n      revert\n        /* \"#utility.yul\":1232:1349   */\n    tag_164:\n        /* \"#utility.yul\":1341:1342   */\n      0x00\n        /* \"#utility.yul\":1338:1339   */\n      dup1\n        /* \"#utility.yul\":1331:1343   */\n      revert\n        /* \"#utility.yul\":1355:1477   */\n    tag_165:\n        /* \"#utility.yul\":1428:1452   */\n      tag_223\n        /* \"#utility.yul\":1446:1451   */\n      dup2\n        /* \"#utility.yul\":1428:1452   */\n      tag_160\n      jump\t// in\n    tag_223:\n        /* \"#utility.yul\":1421:1426   */\n      dup2\n        /* \"#utility.yul\":1418:1453   */\n      eq\n        /* \"#utility.yul\":1408:1471   */\n      tag_224\n      jumpi\n        /* \"#utility.yul\":1467:1468   */\n      0x00\n        /* \"#utility.yul\":1464:1465   */\n      dup1\n        /* \"#utility.yul\":1457:1469   */\n      revert\n        /* \"#utility.yul\":1408:1471   */\n    tag_224:\n        /* \"#utility.yul\":1355:1477   */\n      pop\n      jump\t// out\n        /* \"#utility.yul\":1483:1622   */\n    tag_166:\n        /* \"#utility.yul\":1529:1534   */\n      0x00\n        /* \"#utility.yul\":1567:1573   */\n      dup2\n        /* \"#utility.yul\":1554:1574   */\n      calldataload\n        /* \"#utility.yul\":1545:1574   */\n      swap1\n      pop\n        /* \"#utility.yul\":1583:1616   */\n      tag_226\n        /* \"#utility.yul\":1610:1615   */\n      dup2\n        /* \"#utility.yul\":1583:1616   */\n      tag_165\n      jump\t// in\n    tag_226:\n        /* \"#utility.yul\":1483:1622   */\n      swap3\n      swap2\n      pop\n      pop\n      jump\t// out\n        /* \"#utility.yul\":1628:1957   */\n    tag_29:\n        /* \"#utility.yul\":1687:1693   */\n      0x00\n        /* \"#utility.yul\":1736:1738   */\n      0x20\n        /* \"#utility.yul\":1724:1733   */\n      dup3\n        /* \"#utility.yul\":1715:1722   */\n      dup5\n        /* \"#utility.yul\":1711:1734   */\n      sub\n        /* \"#utility.yul\":1707:1739   */\n      slt\n        /* \"#utility.yul\":1704:1823   */\n      iszero\n      tag_228\n      jumpi\n        /* \"#utility.yul\":1742:1821   */\n      tag_229\n      tag_163\n      jump\t// in\n    tag_229:\n        /* \"#utility.yul\":1704:1823   */\n    tag_228:\n        /* \"#utility.yul\":1862:1863   */\n      0x00\n        /* \"#utility.yul\":1887:1940   */\n      tag_230\n        /* \"#utility.yul\":1932:1939   */\n      dup5\n        /* \"#utility.yul\":1923:1929   */\n      dup3\n        /* \"#utility.yul\":1912:1921   */\n      dup6\n        /* \"#utility.yul\":1908:1930   */\n      add\n        /* \"#utility.yul\":1887:1940   */\n      tag_166\n      jump\t// in\n    tag_230:\n        /* \"#utility.yul\":1877:1940   */\n      swap2\n      pop\n        /* \"#utility.yul\":1833:1950   */\n      pop\n        /* \"#utility.yul\":1628:1957   */\n      swap3\n      swap2\n      pop\n      pop\n      jump\t// out\n        /* \"#utility.yul\":1963:2437   */\n    tag_39:\n        /* \"#utility.yul\":2031:2037   */\n      0x00\n        /* \"#utility.yul\":2039:2045   */\n      dup1\n        /* \"#utility.yul\":2088:2090   */\n      0x40\n        /* \"#utility.yul\":2076:2085   */\n      dup4\n        /* \"#utility.yul\":2067:2074   */\n      dup6\n        /* \"#utility.yul\":2063:2086   */\n      sub\n        /* \"#utility.yul\":2059:2091   */\n      slt\n        /* \"#utility.yul\":2056:2175   */\n      iszero\n      tag_232\n      jumpi\n        /* \"#utility.yul\":2094:2173   */\n      tag_233\n      tag_163\n      jump\t// in\n    tag_233:\n        /* \"#utility.yul\":2056:2175   */\n    tag_232:\n        /* \"#utility.yul\":2214:2215   */\n      0x00\n        /* \"#utility.yul\":2239:2292   */\n      tag_234\n        /* \"#utility.yul\":2284:2291   */\n      dup6\n        /* \"#utility.yul\":2275:2281   */\n      dup3\n        /* \"#utility.yul\":2264:2273   */\n      dup7\n        /* \"#utility.yul\":2260:2282   */\n      add\n        /* \"#utility.yul\":2239:2292   */\n      tag_166\n      jump\t// in\n    tag_234:\n        /* \"#utility.yul\":2229:2292   */\n      swap3\n      pop\n        /* \"#utility.yul\":2185:2302   */\n      pop\n        /* \"#utility.yul\":2341:2343   */\n      0x20\n        /* \"#utility.yul\":2367:2420   */\n      tag_235\n        /* \"#utility.yul\":2412:2419   */\n      dup6\n        /* \"#utility.yul\":2403:2409   */\n      dup3\n        /* \"#utility.yul\":2392:2401   */\n      dup7\n        /* \"#utility.yul\":2388:2410   */\n      add\n        /* \"#utility.yul\":2367:2420   */\n      tag_166\n      jump\t// in\n    tag_235:\n        /* \"#utility.yul\":2357:2420   */\n      swap2\n      pop\n        /* \"#utility.yul\":2312:2430   */\n      pop\n        /* \"#utility.yul\":1963:2437   */\n      swap3\n      pop\n      swap3\n      swap1\n      pop\n      jump\t// out\n        /* \"#utility.yul\":2443:2565   */\n    tag_167:\n        /* \"#utility.yul\":2516:2540   */\n      tag_237\n        /* \"#utility.yul\":2534:2539   */\n      dup2\n        /* \"#utility.yul\":2516:2540   */\n      tag_158\n      jump\t// in\n    tag_237:\n        /* \"#utility.yul\":2509:2514   */\n      dup2\n        /* \"#utility.yul\":2506:2541   */\n      eq\n        /* \"#utility.yul\":2496:2559   */\n      tag_238\n      jumpi\n        /* \"#utility.yul\":2555:2556   */\n      0x00\n        /* \"#utility.yul\":2552:2553   */\n      dup1\n        /* \"#utility.yul\":2545:2557   */\n      revert\n        /* \"#utility.yul\":2496:2559   */\n    tag_238:\n        /* \"#utility.yul\":2443:2565   */\n      pop\n      jump\t// out\n        /* \"#utility.yul\":2571:2710   */\n    tag_168:\n        /* \"#utility.yul\":2617:2622   */\n      0x00\n        /* \"#utility.yul\":2655:2661   */\n      dup2\n        /* \"#utility.yul\":2642:2662   */\n      calldataload\n        /* \"#utility.yul\":2633:2662   */\n      swap1\n      pop\n        /* \"#utility.yul\":2671:2704   */\n      tag_240\n        /* \"#utility.yul\":2698:2703   */\n      dup2\n        /* \"#utility.yul\":2671:2704   */\n      tag_167\n      jump\t// in\n    tag_240:\n        /* \"#utility.yul\":2571:2710   */\n      swap3\n      swap2\n      pop\n      pop\n      jump\t// out\n        /* \"#utility.yul\":2716:3190   */\n    tag_46:\n        /* \"#utility.yul\":2784:2790   */\n      0x00\n        /* \"#utility.yul\":2792:2798   */\n      dup1\n        /* \"#utility.yul\":2841:2843   */\n      0x40\n        /* \"#utility.yul\":2829:2838   */\n      dup4\n        /* \"#utility.yul\":2820:2827   */\n      dup6\n        /* \"#utility.yul\":2816:2839   */\n      sub\n        /* \"#utility.yul\":2812:2844   */\n      slt\n        /* \"#utility.yul\":2809:2928   */\n      iszero\n      tag_242\n      jumpi\n        /* \"#utility.yul\":2847:2926   */\n      tag_243\n      tag_163\n      jump\t// in\n    tag_243:\n        /* \"#utility.yul\":2809:2928   */\n    tag_242:\n        /* \"#utility.yul\":2967:2968   */\n      0x00\n        /* \"#utility.yul\":2992:3045   */\n      tag_244\n        /* \"#utility.yul\":3037:3044   */\n      dup6\n        /* \"#utility.yul\":3028:3034   */\n      dup3\n        /* \"#utility.yul\":3017:3026   */\n      dup7\n        /* \"#utility.yul\":3013:3035   */\n      add\n        /* \"#utility.yul\":2992:3045   */\n      tag_168\n      jump\t// in\n    tag_244:\n        /* \"#utility.yul\":2982:3045   */\n      swap3\n      pop\n        /* \"#utility.yul\":2938:3055   */\n      pop\n        /* \"#utility.yul\":3094:3096   */\n      0x20\n        /* \"#utility.yul\":3120:3173   */\n      tag_245\n        /* \"#utility.yul\":3165:3172   */\n      dup6\n        /* \"#utility.yul\":3156:3162   */\n      dup3\n        /* \"#utility.yul\":3145:3154   */\n      dup7\n        /* \"#utility.yul\":3141:3163   */\n      add\n        /* \"#utility.yul\":3120:3173   */\n      tag_166\n      jump\t// in\n    tag_245:\n        /* \"#utility.yul\":3110:3173   */\n      swap2\n      pop\n        /* \"#utility.yul\":3065:3183   */\n      pop\n        /* \"#utility.yul\":2716:3190   */\n      swap3\n      pop\n      swap3\n      swap1\n      pop\n      jump\t// out\n        /* \"#utility.yul\":3196:3860   */\n    tag_49:\n        /* \"#utility.yul\":3401:3405   */\n      0x00\n        /* \"#utility.yul\":3439:3442   */\n      0xa0\n        /* \"#utility.yul\":3428:3437   */\n      dup3\n        /* \"#utility.yul\":3424:3443   */\n      add\n        /* \"#utility.yul\":3416:3443   */\n      swap1\n      pop\n        /* \"#utility.yul\":3453:3524   */\n      tag_247\n        /* \"#utility.yul\":3521:3522   */\n      0x00\n        /* \"#utility.yul\":3510:3519   */\n      dup4\n        /* \"#utility.yul\":3506:3523   */\n      add\n        /* \"#utility.yul\":3497:3503   */\n      dup9\n        /* \"#utility.yul\":3453:3524   */\n      tag_161\n      jump\t// in\n    tag_247:\n        /* \"#utility.yul\":3534:3606   */\n      tag_248\n        /* \"#utility.yul\":3602:3604   */\n      0x20\n        /* \"#utility.yul\":3591:3600   */\n      dup4\n        /* \"#utility.yul\":3587:3605   */\n      add\n        /* \"#utility.yul\":3578:3584   */\n      dup8\n        /* \"#utility.yul\":3534:3606   */\n      tag_161\n      jump\t// in\n    tag_248:\n        /* \"#utility.yul\":3616:3688   */\n      tag_249\n        /* \"#utility.yul\":3684:3686   */\n      0x40\n        /* \"#utility.yul\":3673:3682   */\n      dup4\n        /* \"#utility.yul\":3669:3687   */\n      add\n        /* \"#utility.yul\":3660:3666   */\n      dup7\n        /* \"#utility.yul\":3616:3688   */\n      tag_161\n      jump\t// in\n    tag_249:\n        /* \"#utility.yul\":3698:3770   */\n      tag_250\n        /* \"#utility.yul\":3766:3768   */\n      0x60\n        /* \"#utility.yul\":3755:3764   */\n      dup4\n        /* \"#utility.yul\":3751:3769   */\n      add\n        /* \"#utility.yul\":3742:3748   */\n      dup6\n        /* \"#utility.yul\":3698:3770   */\n      tag_161\n      jump\t// in\n    tag_250:\n        /* \"#utility.yul\":3780:3853   */\n      tag_251\n        /* \"#utility.yul\":3848:3851   */\n      0x80\n        /* \"#utility.yul\":3837:3846   */\n      dup4\n        /* \"#utility.yul\":3833:3852   */\n      add\n        /* \"#utility.yul\":3824:3830   */\n      dup5\n        /* \"#utility.yul\":3780:3853   */\n      tag_161\n      jump\t// in\n    tag_251:\n        /* \"#utility.yul\":3196:3860   */\n      swap7\n      swap6\n      pop\n      pop\n      pop\n      pop\n      pop\n      pop\n      jump\t// out\n        /* \"#utility.yul\":3866:4035   */\n    tag_169:\n        /* \"#utility.yul\":3950:3961   */\n      0x00\n        /* \"#utility.yul\":3984:3990   */\n      dup3\n        /* \"#utility.yul\":3979:3982   */\n      dup3\n        /* \"#utility.yul\":3972:3991   */\n      mstore\n        /* \"#utility.yul\":4024:4028   */\n      0x20\n        /* \"#utility.yul\":4019:4022   */\n      dup3\n        /* \"#utility.yul\":4015:4029   */\n      add\n        /* \"#utility.yul\":4000:4029   */\n      swap1\n      pop\n        /* \"#utility.yul\":3866:4035   */\n      swap3\n      swap2\n      pop\n      pop\n      jump\t// out\n        /* \"#utility.yul\":4041:4204   */\n    tag_170:\n        /* \"#utility.yul\":4181:4196   */\n      0x496e76616c696420696e64657800000000000000000000000000000000000000\n        /* \"#utility.yul\":4177:4178   */\n      0x00\n        /* \"#utility.yul\":4169:4175   */\n      dup3\n        /* \"#utility.yul\":4165:4179   */\n      add\n        /* \"#utility.yul\":4158:4197   */\n      mstore\n        /* \"#utility.yul\":4041:4204   */\n      pop\n      jump\t// out\n        /* \"#utility.yul\":4210:4576   */\n    tag_171:\n        /* \"#utility.yul\":4352:4355   */\n      0x00\n        /* \"#utility.yul\":4373:4440   */\n      tag_255\n        /* \"#utility.yul\":4437:4439   */\n      0x0d\n        /* \"#utility.yul\":4432:4435   */\n      dup4\n        /* \"#utility.yul\":4373:4440   */\n      tag_169\n      jump\t// in\n    tag_255:\n        /* \"#utility.yul\":4366:4440   */\n      swap2\n      pop\n        /* \"#utility.yul\":4449:4542   */\n      tag_256\n        /* \"#utility.yul\":4538:4541   */\n      dup3\n        /* \"#utility.yul\":4449:4542   */\n      tag_170\n      jump\t// in\n    tag_256:\n        /* \"#utility.yul\":4567:4569   */\n      0x20\n        /* \"#utility.yul\":4562:4565   */\n      dup3\n        /* \"#utility.yul\":4558:4570   */\n      add\n        /* \"#utility.yul\":4551:4570   */\n      swap1\n      pop\n        /* \"#utility.yul\":4210:4576   */\n      swap2\n      swap1\n      pop\n      jump\t// out\n        /* \"#utility.yul\":4582:5001   */\n    tag_62:\n        /* \"#utility.yul\":4748:4752   */\n      0x00\n        /* \"#utility.yul\":4786:4788   */\n      0x20\n        /* \"#utility.yul\":4775:4784   */\n      dup3\n        /* \"#utility.yul\":4771:4789   */\n      add\n        /* \"#utility.yul\":4763:4789   */\n      swap1\n      pop\n        /* \"#utility.yul\":4835:4844   */\n      dup2\n        /* \"#utility.yul\":4829:4833   */\n      dup2\n        /* \"#utility.yul\":4825:4845   */\n      sub\n        /* \"#utility.yul\":4821:4822   */\n      0x00\n        /* \"#utility.yul\":4810:4819   */\n      dup4\n        /* \"#utility.yul\":4806:4823   */\n      add\n        /* \"#utility.yul\":4799:4846   */\n      mstore\n        /* \"#utility.yul\":4863:4994   */\n      tag_258\n        /* \"#utility.yul\":4989:4993   */\n      dup2\n        /* \"#utility.yul\":4863:4994   */\n      tag_171\n      jump\t// in\n    tag_258:\n        /* \"#utility.yul\":4855:4994   */\n      swap1\n      pop\n        /* \"#utility.yul\":4582:5001   */\n      swap2\n      swap1\n      pop\n      jump\t// out\n        /* \"#utility.yul\":5007:5187   */\n    tag_65:\n        /* \"#utility.yul\":5055:5132   */\n      0x4e487b7100000000000000000000000000000000000000000000000000000000\n        /* \"#utility.yul\":5052:5053   */\n      0x00\n        /* \"#utility.yul\":5045:5133   */\n      mstore\n        /* \"#utility.yul\":5152:5156   */\n      0x32\n        /* \"#utility.yul\":5149:5150   */\n      0x04\n        /* \"#utility.yul\":5142:5157   */\n      mstore\n        /* \"#utility.yul\":5176:5180   */\n      0x24\n        /* \"#utility.yul\":5173:5174   */\n      0x00\n        /* \"#utility.yul\":5166:5181   */\n      revert\n        /* \"#utility.yul\":5193:5373   */\n    tag_172:\n        /* \"#utility.yul\":5241:5318   */\n      0x4e487b7100000000000000000000000000000000000000000000000000000000\n        /* \"#utility.yul\":5238:5239   */\n      0x00\n        /* \"#utility.yul\":5231:5319   */\n      mstore\n        /* \"#utility.yul\":5338:5342   */\n      0x11\n        /* \"#utility.yul\":5335:5336   */\n      0x04\n        /* \"#utility.yul\":5328:5343   */\n      mstore\n        /* \"#utility.yul\":5362:5366   */\n      0x24\n        /* \"#utility.yul\":5359:5360   */\n      0x00\n        /* \"#utility.yul\":5352:5367   */\n      revert\n        /* \"#utility.yul\":5379:5573   */\n    tag_69:\n        /* \"#utility.yul\":5419:5423   */\n      0x00\n        /* \"#utility.yul\":5439:5459   */\n      tag_262\n        /* \"#utility.yul\":5457:5458   */\n      dup3\n        /* \"#utility.yul\":5439:5459   */\n      tag_160\n      jump\t// in\n    tag_262:\n        /* \"#utility.yul\":5434:5459   */\n      swap2\n      pop\n        /* \"#utility.yul\":5473:5493   */\n      tag_263\n        /* \"#utility.yul\":5491:5492   */\n      dup4\n        /* \"#utility.yul\":5473:5493   */\n      tag_160\n      jump\t// in\n    tag_263:\n        /* \"#utility.yul\":5468:5493   */\n      swap3\n      pop\n        /* \"#utility.yul\":5517:5518   */\n      dup3\n        /* \"#utility.yul\":5514:5515   */\n      dup3\n        /* \"#utility.yul\":5510:5519   */\n      sub\n        /* \"#utility.yul\":5502:5519   */\n      swap1\n      pop\n        /* \"#utility.yul\":5541:5542   */\n      dup2\n        /* \"#utility.yul\":5535:5539   */\n      dup2\n        /* \"#utility.yul\":5532:5543   */\n      gt\n        /* \"#utility.yul\":5529:5566   */\n      iszero\n      tag_264\n      jumpi\n        /* \"#utility.yul\":5546:5564   */\n      tag_265\n      tag_172\n      jump\t// in\n    tag_265:\n        /* \"#utility.yul\":5529:5566   */\n    tag_264:\n        /* \"#utility.yul\":5379:5573   */\n      swap3\n      swap2\n      pop\n      pop\n      jump\t// out\n        /* \"#utility.yul\":5579:5681   */\n    tag_173:\n        /* \"#utility.yul\":5621:5629   */\n      0x00\n        /* \"#utility.yul\":5668:5673   */\n      dup2\n        /* \"#utility.yul\":5665:5666   */\n      0x01\n        /* \"#utility.yul\":5661:5674   */\n      shr\n        /* \"#utility.yul\":5640:5674   */\n      swap1\n      pop\n        /* \"#utility.yul\":5579:5681   */\n      swap2\n      swap1\n      pop\n      jump\t// out\n        /* \"#utility.yul\":5687:6535   */\n    tag_174:\n        /* \"#utility.yul\":5748:5753   */\n      0x00\n        /* \"#utility.yul\":5755:5759   */\n      dup1\n        /* \"#utility.yul\":5779:5785   */\n      dup3\n        /* \"#utility.yul\":5770:5785   */\n      swap2\n      pop\n        /* \"#utility.yul\":5803:5808   */\n      dup4\n        /* \"#utility.yul\":5794:5808   */\n      swap1\n      pop\n        /* \"#utility.yul\":5817:6529   */\n    tag_268:\n        /* \"#utility.yul\":5838:5839   */\n      0x01\n        /* \"#utility.yul\":5828:5836   */\n      dup6\n        /* \"#utility.yul\":5825:5840   */\n      gt\n        /* \"#utility.yul\":5817:6529   */\n      iszero\n      tag_270\n      jumpi\n        /* \"#utility.yul\":5933:5937   */\n      dup1\n        /* \"#utility.yul\":5928:5931   */\n      dup7\n        /* \"#utility.yul\":5924:5938   */\n      div\n        /* \"#utility.yul\":5918:5922   */\n      dup2\n        /* \"#utility.yul\":5915:5939   */\n      gt\n        /* \"#utility.yul\":5912:5962   */\n      iszero\n      tag_271\n      jumpi\n        /* \"#utility.yul\":5942:5960   */\n      tag_272\n      tag_172\n      jump\t// in\n    tag_272:\n        /* \"#utility.yul\":5912:5962   */\n    tag_271:\n        /* \"#utility.yul\":5992:5993   */\n      0x01\n        /* \"#utility.yul\":5982:5990   */\n      dup6\n        /* \"#utility.yul\":5978:5994   */\n      and\n        /* \"#utility.yul\":5975:6426   */\n      iszero\n      tag_273\n      jumpi\n        /* \"#utility.yul\":6407:6411   */\n      dup1\n        /* \"#utility.yul\":6400:6405   */\n      dup3\n        /* \"#utility.yul\":6396:6412   */\n      mul\n        /* \"#utility.yul\":6387:6412   */\n      swap2\n      pop\n        /* \"#utility.yul\":5975:6426   */\n    tag_273:\n        /* \"#utility.yul\":6457:6461   */\n      dup1\n        /* \"#utility.yul\":6451:6455   */\n      dup2\n        /* \"#utility.yul\":6447:6462   */\n      mul\n        /* \"#utility.yul\":6439:6462   */\n      swap1\n      pop\n        /* \"#utility.yul\":6487:6519   */\n      tag_274\n        /* \"#utility.yul\":6510:6518   */\n      dup6\n        /* \"#utility.yul\":6487:6519   */\n      tag_173\n      jump\t// in\n    tag_274:\n        /* \"#utility.yul\":6475:6519   */\n      swap5\n      pop\n        /* \"#utility.yul\":5817:6529   */\n      jump(tag_268)\n    tag_270:\n        /* \"#utility.yul\":5687:6535   */\n      swap5\n      pop\n      swap5\n      swap3\n      pop\n      pop\n      pop\n      jump\t// out\n        /* \"#utility.yul\":6541:7614   */\n    tag_175:\n        /* \"#utility.yul\":6595:6600   */\n      0x00\n        /* \"#utility.yul\":6786:6794   */\n      dup3\n        /* \"#utility.yul\":6776:6816   */\n      tag_276\n      jumpi\n        /* \"#utility.yul\":6807:6808   */\n      0x01\n        /* \"#utility.yul\":6798:6808   */\n      swap1\n      pop\n        /* \"#utility.yul\":6809:6814   */\n      jump(tag_275)\n        /* \"#utility.yul\":6776:6816   */\n    tag_276:\n        /* \"#utility.yul\":6835:6839   */\n      dup2\n        /* \"#utility.yul\":6825:6861   */\n      tag_277\n      jumpi\n        /* \"#utility.yul\":6852:6853   */\n      0x00\n        /* \"#utility.yul\":6843:6853   */\n      swap1\n      pop\n        /* \"#utility.yul\":6854:6859   */\n      jump(tag_275)\n        /* \"#utility.yul\":6825:6861   */\n    tag_277:\n        /* \"#utility.yul\":6921:6925   */\n      dup2\n        /* \"#utility.yul\":6969:6970   */\n      0x01\n        /* \"#utility.yul\":6964:6991   */\n      dup2\n      eq\n      tag_279\n      jumpi\n        /* \"#utility.yul\":7005:7006   */\n      0x02\n        /* \"#utility.yul\":7000:7191   */\n      dup2\n      eq\n      tag_280\n      jumpi\n        /* \"#utility.yul\":6914:7191   */\n      jump(tag_278)\n        /* \"#utility.yul\":6964:6991   */\n    tag_279:\n        /* \"#utility.yul\":6982:6983   */\n      0x01\n        /* \"#utility.yul\":6973:6983   */\n      swap2\n      pop\n        /* \"#utility.yul\":6984:6989   */\n      pop\n      jump(tag_275)\n        /* \"#utility.yul\":7000:7191   */\n    tag_280:\n        /* \"#utility.yul\":7045:7048   */\n      0xff\n        /* \"#utility.yul\":7035:7043   */\n      dup5\n        /* \"#utility.yul\":7032:7049   */\n      gt\n        /* \"#utility.yul\":7029:7072   */\n      iszero\n      tag_281\n      jumpi\n        /* \"#utility.yul\":7052:7070   */\n      tag_282\n      tag_172\n      jump\t// in\n    tag_282:\n        /* \"#utility.yul\":7029:7072   */\n    tag_281:\n        /* \"#utility.yul\":7101:7109   */\n      dup4\n        /* \"#utility.yul\":7098:7099   */\n      0x02\n        /* \"#utility.yul\":7094:7110   */\n      exp\n        /* \"#utility.yul\":7085:7110   */\n      swap2\n      pop\n        /* \"#utility.yul\":7136:7139   */\n      dup5\n        /* \"#utility.yul\":7129:7134   */\n      dup3\n        /* \"#utility.yul\":7126:7140   */\n      gt\n        /* \"#utility.yul\":7123:7163   */\n      iszero\n      tag_283\n      jumpi\n        /* \"#utility.yul\":7143:7161   */\n      tag_284\n      tag_172\n      jump\t// in\n    tag_284:\n        /* \"#utility.yul\":7123:7163   */\n    tag_283:\n        /* \"#utility.yul\":7176:7181   */\n      pop\n      jump(tag_275)\n        /* \"#utility.yul\":6914:7191   */\n    tag_278:\n      pop\n        /* \"#utility.yul\":7300:7302   */\n      0x20\n        /* \"#utility.yul\":7290:7298   */\n      dup4\n        /* \"#utility.yul\":7287:7303   */\n      lt\n        /* \"#utility.yul\":7281:7284   */\n      0x0133\n        /* \"#utility.yul\":7275:7279   */\n      dup4\n        /* \"#utility.yul\":7272:7285   */\n      lt\n        /* \"#utility.yul\":7268:7304   */\n      and\n        /* \"#utility.yul\":7250:7252   */\n      0x4e\n        /* \"#utility.yul\":7240:7248   */\n      dup5\n        /* \"#utility.yul\":7237:7253   */\n      lt\n        /* \"#utility.yul\":7232:7234   */\n      0x0b\n        /* \"#utility.yul\":7226:7230   */\n      dup5\n        /* \"#utility.yul\":7223:7235   */\n      lt\n        /* \"#utility.yul\":7219:7254   */\n      and\n        /* \"#utility.yul\":7203:7314   */\n      or\n        /* \"#utility.yul\":7200:7446   */\n      iszero\n      tag_285\n      jumpi\n        /* \"#utility.yul\":7356:7364   */\n      dup3\n        /* \"#utility.yul\":7350:7354   */\n      dup3\n        /* \"#utility.yul\":7346:7365   */\n      exp\n        /* \"#utility.yul\":7337:7365   */\n      swap1\n      pop\n        /* \"#utility.yul\":7391:7394   */\n      dup4\n        /* \"#utility.yul\":7384:7389   */\n      dup2\n        /* \"#utility.yul\":7381:7395   */\n      gt\n        /* \"#utility.yul\":7378:7418   */\n      iszero\n      tag_286\n      jumpi\n        /* \"#utility.yul\":7398:7416   */\n      tag_287\n      tag_172\n      jump\t// in\n    tag_287:\n        /* \"#utility.yul\":7378:7418   */\n    tag_286:\n        /* \"#utility.yul\":7431:7436   */\n      jump(tag_275)\n        /* \"#utility.yul\":7200:7446   */\n    tag_285:\n        /* \"#utility.yul\":7471:7513   */\n      tag_288\n        /* \"#utility.yul\":7509:7512   */\n      dup5\n        /* \"#utility.yul\":7499:7507   */\n      dup5\n        /* \"#utility.yul\":7493:7497   */\n      dup5\n        /* \"#utility.yul\":7490:7491   */\n      0x01\n        /* \"#utility.yul\":7471:7513   */\n      tag_174\n      jump\t// in\n    tag_288:\n        /* \"#utility.yul\":7456:7513   */\n      swap3\n      pop\n      swap1\n      pop\n        /* \"#utility.yul\":7545:7549   */\n      dup2\n        /* \"#utility.yul\":7540:7543   */\n      dup5\n        /* \"#utility.yul\":7536:7550   */\n      div\n        /* \"#utility.yul\":7529:7534   */\n      dup2\n        /* \"#utility.yul\":7526:7551   */\n      gt\n        /* \"#utility.yul\":7523:7574   */\n      iszero\n      tag_289\n      jumpi\n        /* \"#utility.yul\":7554:7572   */\n      tag_290\n      tag_172\n      jump\t// in\n    tag_290:\n        /* \"#utility.yul\":7523:7574   */\n    tag_289:\n        /* \"#utility.yul\":7603:7607   */\n      dup2\n        /* \"#utility.yul\":7596:7601   */\n      dup2\n        /* \"#utility.yul\":7592:7608   */\n      mul\n        /* \"#utility.yul\":7583:7608   */\n      swap1\n      pop\n        /* \"#utility.yul\":6541:7614   */\n    tag_275:\n      swap4\n      swap3\n      pop\n      pop\n      pop\n      jump\t// out\n        /* \"#utility.yul\":7620:7905   */\n    tag_72:\n        /* \"#utility.yul\":7680:7685   */\n      0x00\n        /* \"#utility.yul\":7704:7727   */\n      tag_292\n        /* \"#utility.yul\":7722:7726   */\n      dup3\n        /* \"#utility.yul\":7704:7727   */\n      tag_160\n      jump\t// in\n    tag_292:\n        /* \"#utility.yul\":7696:7727   */\n      swap2\n      pop\n        /* \"#utility.yul\":7748:7775   */\n      tag_293\n        /* \"#utility.yul\":7766:7774   */\n      dup4\n        /* \"#utility.yul\":7748:7775   */\n      tag_160\n      jump\t// in\n    tag_293:\n        /* \"#utility.yul\":7736:7775   */\n      swap3\n      pop\n        /* \"#utility.yul\":7794:7898   */\n      tag_294\n        /* \"#utility.yul\":7831:7897   */\n      0xffffffffffffffffffffffffffffffffffffffffffffffffffffffffffffffff\n        /* \"#utility.yul\":7821:7829   */\n      dup5\n        /* \"#utility.yul\":7815:7819   */\n      dup5\n        /* \"#utility.yul\":7794:7898   */\n      tag_175\n      jump\t// in\n    tag_294:\n        /* \"#utility.yul\":7785:7898   */\n      swap1\n      pop\n        /* \"#utility.yul\":7620:7905   */\n      swap3\n      swap2\n      pop\n      pop\n      jump\t// out\n        /* \"#utility.yul\":7911:8321   */\n    tag_74:\n        /* \"#utility.yul\":7951:7958   */\n      0x00\n        /* \"#utility.yul\":7974:7994   */\n      tag_296\n        /* \"#utility.yul\":7992:7993   */\n      dup3\n        /* \"#utility.yul\":7974:7994   */\n      tag_160\n      jump\t// in\n    tag_296:\n        /* \"#utility.yul\":7969:7994   */\n      swap2\n      pop\n        /* \"#utility.yul\":8008:8028   */\n      tag_297\n        /* \"#utility.yul\":8026:8027   */\n      dup4\n        /* \"#utility.yul\":8008:8028   */\n      tag_160\n      jump\t// in\n    tag_297:\n        /* \"#utility.yul\":8003:8028   */\n      swap3\n      pop\n        /* \"#utility.yul\":8063:8064   */\n      dup3\n        /* \"#utility.yul\":8060:8061   */\n      dup3\n        /* \"#utility.yul\":8056:8065   */\n      mul\n        /* \"#utility.yul\":8085:8115   */\n      tag_298\n        /* \"#utility.yul\":8103:8114   */\n      dup2\n        /* \"#utility.yul\":8085:8115   */\n      tag_160\n      jump\t// in\n    tag_298:\n        /* \"#utility.yul\":8074:8115   */\n      swap2\n      pop\n        /* \"#utility.yul\":8264:8265   */\n      dup3\n        /* \"#utility.yul\":8255:8262   */\n      dup3\n        /* \"#utility.yul\":8251:8266   */\n      div\n        /* \"#utility.yul\":8248:8249   */\n      dup5\n        /* \"#utility.yul\":8245:8267   */\n      eq\n        /* \"#utility.yul\":8225:8226   */\n      dup4\n        /* \"#utility.yul\":8218:8227   */\n      iszero\n        /* \"#utility.yul\":8198:8281   */\n      or\n        /* \"#utility.yul\":8175:8314   */\n      tag_299\n      jumpi\n        /* \"#utility.yul\":8294:8312   */\n      tag_300\n      tag_172\n      jump\t// in\n    tag_300:\n        /* \"#utility.yul\":8175:8314   */\n    tag_299:\n        /* \"#utility.yul\":7959:8321   */\n      pop\n        /* \"#utility.yul\":7911:8321   */\n      swap3\n      swap2\n      pop\n      pop\n      jump\t// out\n        /* \"#utility.yul\":8327:8507   */\n    tag_176:\n        /* \"#utility.yul\":8375:8452   */\n      0x4e487b7100000000000000000000000000000000000000000000000000000000\n        /* \"#utility.yul\":8372:8373   */\n      0x00\n        /* \"#utility.yul\":8365:8453   */\n      mstore\n        /* \"#utility.yul\":8472:8476   */\n      0x12\n        /* \"#utility.yul\":8469:8470   */\n      0x04\n        /* \"#utility.yul\":8462:8477   */\n      mstore\n        /* \"#utility.yul\":8496:8500   */\n      0x24\n        /* \"#utility.yul\":8493:8494   */\n      0x00\n        /* \"#utility.yul\":8486:8501   */\n      revert\n        /* \"#utility.yul\":8513:8698   */\n    tag_76:\n        /* \"#utility.yul\":8553:8554   */\n      0x00\n        /* \"#utility.yul\":8570:8590   */\n      tag_303\n        /* \"#utility.yul\":8588:8589   */\n      dup3\n        /* \"#utility.yul\":8570:8590   */\n      tag_160\n      jump\t// in\n    tag_303:\n        /* \"#utility.yul\":8565:8590   */\n      swap2\n      pop\n        /* \"#utility.yul\":8604:8624   */\n      tag_304\n        /* \"#utility.yul\":8622:8623   */\n      dup4\n        /* \"#utility.yul\":8604:8624   */\n      tag_160\n      jump\t// in\n    tag_304:\n        /* \"#utility.yul\":8599:8624   */\n      swap3\n      pop\n        /* \"#utility.yul\":8643:8644   */\n      dup3\n        /* \"#utility.yul\":8633:8668   */\n      tag_305\n      jumpi\n        /* \"#utility.yul\":8648:8666   */\n      tag_306\n      tag_176\n      jump\t// in\n    tag_306:\n        /* \"#utility.yul\":8633:8668   */\n    tag_305:\n        /* \"#utility.yul\":8690:8691   */\n      dup3\n        /* \"#utility.yul\":8687:8688   */\n      dup3\n        /* \"#utility.yul\":8683:8692   */\n      div\n        /* \"#utility.yul\":8678:8692   */\n      swap1\n      pop\n        /* \"#utility.yul\":8513:8698   */\n      swap3\n      swap2\n      pop\n      pop\n      jump\t// out\n        /* \"#utility.yul\":8704:8895   */\n    tag_78:\n        /* \"#utility.yul\":8744:8747   */\n      0x00\n        /* \"#utility.yul\":8763:8783   */\n      tag_308\n        /* \"#utility.yul\":8781:8782   */\n      dup3\n        /* \"#utility.yul\":8763:8783   */\n      tag_160\n      jump\t// in\n    tag_308:\n        /* \"#utility.yul\":8758:8783   */\n      swap2\n      pop\n        /* \"#utility.yul\":8797:8817   */\n      tag_309\n        /* \"#utility.yul\":8815:8816   */\n      dup4\n        /* \"#utility.yul\":8797:8817   */\n      tag_160\n      jump\t// in\n    tag_309:\n        /* \"#utility.yul\":8792:8817   */\n      swap3\n      pop\n        /* \"#utility.yul\":8840:8841   */\n      dup3\n        /* \"#utility.yul\":8837:8838   */\n      dup3\n        /* \"#utility.yul\":8833:8842   */\n      add\n        /* \"#utility.yul\":8826:8842   */\n      swap1\n      pop\n        /* \"#utility.yul\":8861:8864   */\n      dup1\n        /* \"#utility.yul\":8858:8859   */\n      dup3\n        /* \"#utility.yul\":8855:8865   */\n      gt\n        /* \"#utility.yul\":8852:8888   */\n      iszero\n      tag_310\n      jumpi\n        /* \"#utility.yul\":8868:8886   */\n      tag_311\n      tag_172\n      jump\t// in\n    tag_311:\n        /* \"#utility.yul\":8852:8888   */\n    tag_310:\n        /* \"#utility.yul\":8704:8895   */\n      swap3\n      swap2\n      pop\n      pop\n      jump\t// out\n        /* \"#utility.yul\":8901:9081   */\n    tag_86:\n        /* \"#utility.yul\":8949:9026   */\n      0x4e487b7100000000000000000000000000000000000000000000000000000000\n        /* \"#utility.yul\":8946:8947   */\n      0x00\n        /* \"#utility.yul\":8939:9027   */\n      mstore\n        /* \"#utility.yul\":9046:9050   */\n      0x41\n        /* \"#utility.yul\":9043:9044   */\n      0x04\n        /* \"#utility.yul\":9036:9051   */\n      mstore\n        /* \"#utility.yul\":9070:9074   */\n      0x24\n        /* \"#utility.yul\":9067:9068   */\n      0x00\n        /* \"#utility.yul\":9060:9075   */\n      revert\n        /* \"#utility.yul\":9087:9181   */\n    tag_177:\n        /* \"#utility.yul\":9141:9148   */\n      0x00\n        /* \"#utility.yul\":9170:9175   */\n      dup2\n        /* \"#utility.yul\":9159:9175   */\n      swap1\n      pop\n        /* \"#utility.yul\":9087:9181   */\n      swap2\n      swap1\n      pop\n      jump\t// out\n        /* \"#utility.yul\":9187:9247   */\n    tag_178:\n        /* \"#utility.yul\":9215:9218   */\n      0x00\n        /* \"#utility.yul\":9236:9241   */\n      dup2\n        /* \"#utility.yul\":9229:9241   */\n      swap1\n      pop\n        /* \"#utility.yul\":9187:9247   */\n      swap2\n      swap1\n      pop\n      jump\t// out\n        /* \"#utility.yul\":9253:9429   */\n    tag_179:\n        /* \"#utility.yul\":9320:9329   */\n      0x00\n        /* \"#utility.yul\":9353:9423   */\n      tag_316\n        /* \"#utility.yul\":9371:9422   */\n      tag_317\n        /* \"#utility.yul\":9380:9421   */\n      tag_318\n        /* \"#utility.yul\":9415:9420   */\n      dup5\n        /* \"#utility.yul\":9380:9421   */\n      tag_177\n      jump\t// in\n    tag_318:\n        /* \"#utility.yul\":9371:9422   */\n      tag_178\n      jump\t// in\n    tag_317:\n        /* \"#utility.yul\":9353:9423   */\n      tag_160\n      jump\t// in\n    tag_316:\n        /* \"#utility.yul\":9340:9423   */\n      swap1\n      pop\n        /* \"#utility.yul\":9253:9429   */\n      swap2\n      swap1\n      pop\n      jump\t// out\n        /* \"#utility.yul\":9435:9600   */\n    tag_180:\n        /* \"#utility.yul\":9539:9593   */\n      tag_320\n        /* \"#utility.yul\":9587:9592   */\n      dup2\n        /* \"#utility.yul\":9539:9593   */\n      tag_179\n      jump\t// in\n    tag_320:\n        /* \"#utility.yul\":9534:9537   */\n      dup3\n        /* \"#utility.yul\":9527:9594   */\n      mstore\n        /* \"#utility.yul\":9435:9600   */\n      pop\n      pop\n      jump\t// out\n        /* \"#utility.yul\":9606:9720   */\n    tag_181:\n        /* \"#utility.yul\":9673:9679   */\n      0x00\n        /* \"#utility.yul\":9707:9712   */\n      dup2\n        /* \"#utility.yul\":9701:9713   */\n      mload\n        /* \"#utility.yul\":9691:9713   */\n      swap1\n      pop\n        /* \"#utility.yul\":9606:9720   */\n      swap2\n      swap1\n      pop\n      jump\t// out\n        /* \"#utility.yul\":9726:9910   */\n    tag_182:\n        /* \"#utility.yul\":9825:9836   */\n      0x00\n        /* \"#utility.yul\":9859:9865   */\n      dup3\n        /* \"#utility.yul\":9854:9857   */\n      dup3\n        /* \"#utility.yul\":9847:9866   */\n      mstore\n        /* \"#utility.yul\":9899:9903   */\n      0x20\n        /* \"#utility.yul\":9894:9897   */\n      dup3\n        /* \"#utility.yul\":9890:9904   */\n      add\n        /* \"#utility.yul\":9875:9904   */\n      swap1\n      pop\n        /* \"#utility.yul\":9726:9910   */\n      swap3\n      swap2\n      pop\n      pop\n      jump\t// out\n        /* \"#utility.yul\":9916:10048   */\n    tag_183:\n        /* \"#utility.yul\":9983:9987   */\n      0x00\n        /* \"#utility.yul\":10006:10009   */\n      dup2\n        /* \"#utility.yul\":9998:10009   */\n      swap1\n      pop\n        /* \"#utility.yul\":10036:10040   */\n      0x20\n        /* \"#utility.yul\":10031:10034   */\n      dup3\n        /* \"#utility.yul\":10027:10041   */\n      add\n        /* \"#utility.yul\":10019:10041   */\n      swap1\n      pop\n        /* \"#utility.yul\":9916:10048   */\n      swap2\n      swap1\n      pop\n      jump\t// out\n        /* \"#utility.yul\":10054:10162   */\n    tag_184:\n        /* \"#utility.yul\":10131:10155   */\n      tag_325\n        /* \"#utility.yul\":10149:10154   */\n      dup2\n        /* \"#utility.yul\":10131:10155   */\n      tag_158\n      jump\t// in\n    tag_325:\n        /* \"#utility.yul\":10126:10129   */\n      dup3\n        /* \"#utility.yul\":10119:10156   */\n      mstore\n        /* \"#utility.yul\":10054:10162   */\n      pop\n      pop\n      jump\t// out\n        /* \"#utility.yul\":10168:10347   */\n    tag_185:\n        /* \"#utility.yul\":10237:10247   */\n      0x00\n        /* \"#utility.yul\":10258:10304   */\n      tag_327\n        /* \"#utility.yul\":10300:10303   */\n      dup4\n        /* \"#utility.yul\":10292:10298   */\n      dup4\n        /* \"#utility.yul\":10258:10304   */\n      tag_184\n      jump\t// in\n    tag_327:\n        /* \"#utility.yul\":10336:10340   */\n      0x20\n        /* \"#utility.yul\":10331:10334   */\n      dup4\n        /* \"#utility.yul\":10327:10341   */\n      add\n        /* \"#utility.yul\":10313:10341   */\n      swap1\n      pop\n        /* \"#utility.yul\":10168:10347   */\n      swap3\n      swap2\n      pop\n      pop\n      jump\t// out\n        /* \"#utility.yul\":10353:10466   */\n    tag_186:\n        /* \"#utility.yul\":10423:10427   */\n      0x00\n        /* \"#utility.yul\":10455:10459   */\n      0x20\n        /* \"#utility.yul\":10450:10453   */\n      dup3\n        /* \"#utility.yul\":10446:10460   */\n      add\n        /* \"#utility.yul\":10438:10460   */\n      swap1\n      pop\n        /* \"#utility.yul\":10353:10466   */\n      swap2\n      swap1\n      pop\n      jump\t// out\n        /* \"#utility.yul\":10502:11234   */\n    tag_187:\n        /* \"#utility.yul\":10621:10624   */\n      0x00\n        /* \"#utility.yul\":10650:10704   */\n      tag_330\n        /* \"#utility.yul\":10698:10703   */\n      dup3\n        /* \"#utility.yul\":10650:10704   */\n      tag_181\n      jump\t// in\n    tag_330:\n        /* \"#utility.yul\":10720:10806   */\n      tag_331\n        /* \"#utility.yul\":10799:10805   */\n      dup2\n        /* \"#utility.yul\":10794:10797   */\n      dup6\n        /* \"#utility.yul\":10720:10806   */\n      tag_182\n      jump\t// in\n    tag_331:\n        /* \"#utility.yul\":10713:10806   */\n      swap4\n      pop\n        /* \"#utility.yul\":10830:10886   */\n      tag_332\n        /* \"#utility.yul\":10880:10885   */\n      dup4\n        /* \"#utility.yul\":10830:10886   */\n      tag_183\n      jump\t// in\n    tag_332:\n        /* \"#utility.yul\":10909:10916   */\n      dup1\n        /* \"#utility.yul\":10940:10941   */\n      0x00\n        /* \"#utility.yul\":10925:11209   */\n    tag_333:\n        /* \"#utility.yul\":10950:10956   */\n      dup4\n        /* \"#utility.yul\":10947:10948   */\n      dup2\n        /* \"#utility.yul\":10944:10957   */\n      lt\n        /* \"#utility.yul\":10925:11209   */\n      iszero\n      tag_335\n      jumpi\n        /* \"#utility.yul\":11026:11032   */\n      dup2\n        /* \"#utility.yul\":11020:11033   */\n      mload\n        /* \"#utility.yul\":11053:11116   */\n      tag_336\n        /* \"#utility.yul\":11112:11115   */\n      dup9\n        /* \"#utility.yul\":11097:11110   */\n      dup3\n        /* \"#utility.yul\":11053:11116   */\n      tag_185\n      jump\t// in\n    tag_336:\n        /* \"#utility.yul\":11046:11116   */\n      swap8\n      pop\n        /* \"#utility.yul\":11139:11199   */\n      tag_337\n        /* \"#utility.yul\":11192:11198   */\n      dup4\n        /* \"#utility.yul\":11139:11199   */\n      tag_186\n      jump\t// in\n    tag_337:\n        /* \"#utility.yul\":11129:11199   */\n      swap3\n      pop\n        /* \"#utility.yul\":10985:11209   */\n      pop\n        /* \"#utility.yul\":10972:10973   */\n      0x01\n        /* \"#utility.yul\":10969:10970   */\n      dup2\n        /* \"#utility.yul\":10965:10974   */\n      add\n        /* \"#utility.yul\":10960:10974   */\n      swap1\n      pop\n        /* \"#utility.yul\":10925:11209   */\n      jump(tag_333)\n    tag_335:\n        /* \"#utility.yul\":10929:10943   */\n      pop\n        /* \"#utility.yul\":11225:11228   */\n      dup6\n        /* \"#utility.yul\":11218:11228   */\n      swap4\n      pop\n        /* \"#utility.yul\":10626:11234   */\n      pop\n      pop\n      pop\n        /* \"#utility.yul\":10502:11234   */\n      swap3\n      swap2\n      pop\n      pop\n      jump\t// out\n        /* \"#utility.yul\":11240:11757   */\n    tag_93:\n        /* \"#utility.yul\":11428:11432   */\n      0x00\n        /* \"#utility.yul\":11466:11468   */\n      0x40\n        /* \"#utility.yul\":11455:11464   */\n      dup3\n        /* \"#utility.yul\":11451:11469   */\n      add\n        /* \"#utility.yul\":11443:11469   */\n      swap1\n      pop\n        /* \"#utility.yul\":11479:11567   */\n      tag_339\n        /* \"#utility.yul\":11564:11565   */\n      0x00\n        /* \"#utility.yul\":11553:11562   */\n      dup4\n        /* \"#utility.yul\":11549:11566   */\n      add\n        /* \"#utility.yul\":11540:11546   */\n      dup6\n        /* \"#utility.yul\":11479:11567   */\n      tag_180\n      jump\t// in\n    tag_339:\n        /* \"#utility.yul\":11614:11623   */\n      dup2\n        /* \"#utility.yul\":11608:11612   */\n      dup2\n        /* \"#utility.yul\":11604:11624   */\n      sub\n        /* \"#utility.yul\":11599:11601   */\n      0x20\n        /* \"#utility.yul\":11588:11597   */\n      dup4\n        /* \"#utility.yul\":11584:11602   */\n      add\n        /* \"#utility.yul\":11577:11625   */\n      mstore\n        /* \"#utility.yul\":11642:11750   */\n      tag_340\n        /* \"#utility.yul\":11745:11749   */\n      dup2\n        /* \"#utility.yul\":11736:11742   */\n      dup5\n        /* \"#utility.yul\":11642:11750   */\n      tag_187\n      jump\t// in\n    tag_340:\n        /* \"#utility.yul\":11634:11750   */\n      swap1\n      pop\n        /* \"#utility.yul\":11240:11757   */\n      swap4\n      swap3\n      pop\n      pop\n      pop\n      jump\t// out\n        /* \"#utility.yul\":11763:11880   */\n    tag_188:\n        /* \"#utility.yul\":11872:11873   */\n      0x00\n        /* \"#utility.yul\":11869:11870   */\n      dup1\n        /* \"#utility.yul\":11862:11874   */\n      revert\n        /* \"#utility.yul\":11886:11988   */\n    tag_189:\n        /* \"#utility.yul\":11927:11933   */\n      0x00\n        /* \"#utility.yul\":11978:11980   */\n      0x1f\n        /* \"#utility.yul\":11974:11981   */\n      not\n        /* \"#utility.yul\":11969:11971   */\n      0x1f\n        /* \"#utility.yul\":11962:11967   */\n      dup4\n        /* \"#utility.yul\":11958:11972   */\n      add\n        /* \"#utility.yul\":11954:11982   */\n      and\n        /* \"#utility.yul\":11944:11982   */\n      swap1\n      pop\n        /* \"#utility.yul\":11886:11988   */\n      swap2\n      swap1\n      pop\n      jump\t// out\n        /* \"#utility.yul\":11994:12275   */\n    tag_190:\n        /* \"#utility.yul\":12077:12104   */\n      tag_344\n        /* \"#utility.yul\":12099:12103   */\n      dup3\n        /* \"#utility.yul\":12077:12104   */\n      tag_189\n      jump\t// in\n    tag_344:\n        /* \"#utility.yul\":12069:12075   */\n      dup2\n        /* \"#utility.yul\":12065:12105   */\n      add\n        /* \"#utility.yul\":12207:12213   */\n      dup2\n        /* \"#utility.yul\":12195:12205   */\n      dup2\n        /* \"#utility.yul\":12192:12214   */\n      lt\n        /* \"#utility.yul\":12171:12189   */\n      0xffffffffffffffff\n        /* \"#utility.yul\":12159:12169   */\n      dup3\n        /* \"#utility.yul\":12156:12190   */\n      gt\n        /* \"#utility.yul\":12153:12215   */\n      or\n        /* \"#utility.yul\":12150:12238   */\n      iszero\n      tag_345\n      jumpi\n        /* \"#utility.yul\":12218:12236   */\n      tag_346\n      tag_86\n      jump\t// in\n    tag_346:\n        /* \"#utility.yul\":12150:12238   */\n    tag_345:\n        /* \"#utility.yul\":12258:12268   */\n      dup1\n        /* \"#utility.yul\":12254:12256   */\n      0x40\n        /* \"#utility.yul\":12247:12269   */\n      mstore\n        /* \"#utility.yul\":12037:12275   */\n      pop\n        /* \"#utility.yul\":11994:12275   */\n      pop\n      pop\n      jump\t// out\n        /* \"#utility.yul\":12281:12410   */\n    tag_191:\n        /* \"#utility.yul\":12315:12321   */\n      0x00\n        /* \"#utility.yul\":12342:12362   */\n      tag_348\n      tag_162\n      jump\t// in\n    tag_348:\n        /* \"#utility.yul\":12332:12362   */\n      swap1\n      pop\n        /* \"#utility.yul\":12371:12404   */\n      tag_349\n        /* \"#utility.yul\":12399:12403   */\n      dup3\n        /* \"#utility.yul\":12391:12397   */\n      dup3\n        /* \"#utility.yul\":12371:12404   */\n      tag_190\n      jump\t// in\n    tag_349:\n        /* \"#utility.yul\":12281:12410   */\n      swap2\n      swap1\n      pop\n      jump\t// out\n        /* \"#utility.yul\":12416:12727   */\n    tag_192:\n        /* \"#utility.yul\":12493:12497   */\n      0x00\n        /* \"#utility.yul\":12583:12601   */\n      0xffffffffffffffff\n        /* \"#utility.yul\":12575:12581   */\n      dup3\n        /* \"#utility.yul\":12572:12602   */\n      gt\n        /* \"#utility.yul\":12569:12625   */\n      iszero\n      tag_351\n      jumpi\n        /* \"#utility.yul\":12605:12623   */\n      tag_352\n      tag_86\n      jump\t// in\n    tag_352:\n        /* \"#utility.yul\":12569:12625   */\n    tag_351:\n        /* \"#utility.yul\":12655:12659   */\n      0x20\n        /* \"#utility.yul\":12647:12653   */\n      dup3\n        /* \"#utility.yul\":12643:12660   */\n      mul\n        /* \"#utility.yul\":12635:12660   */\n      swap1\n      pop\n        /* \"#utility.yul\":12715:12719   */\n      0x20\n        /* \"#utility.yul\":12709:12713   */\n      dup2\n        /* \"#utility.yul\":12705:12720   */\n      add\n        /* \"#utility.yul\":12697:12720   */\n      swap1\n      pop\n        /* \"#utility.yul\":12416:12727   */\n      swap2\n      swap1\n      pop\n      jump\t// out\n        /* \"#utility.yul\":12733:12850   */\n    tag_193:\n        /* \"#utility.yul\":12842:12843   */\n      0x00\n        /* \"#utility.yul\":12839:12840   */\n      dup1\n        /* \"#utility.yul\":12832:12844   */\n      revert\n        /* \"#utility.yul\":12856:12999   */\n    tag_194:\n        /* \"#utility.yul\":12913:12918   */\n      0x00\n        /* \"#utility.yul\":12944:12950   */\n      dup2\n        /* \"#utility.yul\":12938:12951   */\n      mload\n        /* \"#utility.yul\":12929:12951   */\n      swap1\n      pop\n        /* \"#utility.yul\":12960:12993   */\n      tag_355\n        /* \"#utility.yul\":12987:12992   */\n      dup2\n        /* \"#utility.yul\":12960:12993   */\n      tag_165\n      jump\t// in\n    tag_355:\n        /* \"#utility.yul\":12856:12999   */\n      swap3\n      swap2\n      pop\n      pop\n      jump\t// out\n        /* \"#utility.yul\":13022:13754   */\n    tag_195:\n        /* \"#utility.yul\":13129:13134   */\n      0x00\n        /* \"#utility.yul\":13154:13235   */\n      tag_357\n        /* \"#utility.yul\":13170:13234   */\n      tag_358\n        /* \"#utility.yul\":13227:13233   */\n      dup5\n        /* \"#utility.yul\":13170:13234   */\n      tag_192\n      jump\t// in\n    tag_358:\n        /* \"#utility.yul\":13154:13235   */\n      tag_191\n      jump\t// in\n    tag_357:\n        /* \"#utility.yul\":13145:13235   */\n      swap1\n      pop\n        /* \"#utility.yul\":13255:13260   */\n      dup1\n        /* \"#utility.yul\":13284:13290   */\n      dup4\n        /* \"#utility.yul\":13277:13282   */\n      dup3\n        /* \"#utility.yul\":13270:13291   */\n      mstore\n        /* \"#utility.yul\":13318:13322   */\n      0x20\n        /* \"#utility.yul\":13311:13316   */\n      dup3\n        /* \"#utility.yul\":13307:13323   */\n      add\n        /* \"#utility.yul\":13300:13323   */\n      swap1\n      pop\n        /* \"#utility.yul\":13371:13375   */\n      0x20\n        /* \"#utility.yul\":13363:13369   */\n      dup5\n        /* \"#utility.yul\":13359:13376   */\n      mul\n        /* \"#utility.yul\":13351:13357   */\n      dup4\n        /* \"#utility.yul\":13347:13377   */\n      add\n        /* \"#utility.yul\":13400:13403   */\n      dup6\n        /* \"#utility.yul\":13392:13398   */\n      dup2\n        /* \"#utility.yul\":13389:13404   */\n      gt\n        /* \"#utility.yul\":13386:13508   */\n      iszero\n      tag_359\n      jumpi\n        /* \"#utility.yul\":13419:13498   */\n      tag_360\n      tag_193\n      jump\t// in\n    tag_360:\n        /* \"#utility.yul\":13386:13508   */\n    tag_359:\n        /* \"#utility.yul\":13534:13540   */\n      dup4\n        /* \"#utility.yul\":13517:13748   */\n    tag_361:\n        /* \"#utility.yul\":13551:13557   */\n      dup2\n        /* \"#utility.yul\":13546:13549   */\n      dup2\n        /* \"#utility.yul\":13543:13558   */\n      lt\n        /* \"#utility.yul\":13517:13748   */\n      iszero\n      tag_363\n      jumpi\n        /* \"#utility.yul\":13626:13629   */\n      dup1\n        /* \"#utility.yul\":13655:13703   */\n      tag_364\n        /* \"#utility.yul\":13699:13702   */\n      dup9\n        /* \"#utility.yul\":13687:13697   */\n      dup3\n        /* \"#utility.yul\":13655:13703   */\n      tag_194\n      jump\t// in\n    tag_364:\n        /* \"#utility.yul\":13650:13653   */\n      dup5\n        /* \"#utility.yul\":13643:13704   */\n      mstore\n        /* \"#utility.yul\":13733:13737   */\n      0x20\n        /* \"#utility.yul\":13728:13731   */\n      dup5\n        /* \"#utility.yul\":13724:13738   */\n      add\n        /* \"#utility.yul\":13717:13738   */\n      swap4\n      pop\n        /* \"#utility.yul\":13593:13748   */\n      pop\n        /* \"#utility.yul\":13577:13581   */\n      0x20\n        /* \"#utility.yul\":13572:13575   */\n      dup2\n        /* \"#utility.yul\":13568:13582   */\n      add\n        /* \"#utility.yul\":13561:13582   */\n      swap1\n      pop\n        /* \"#utility.yul\":13517:13748   */\n      jump(tag_361)\n    tag_363:\n        /* \"#utility.yul\":13521:13542   */\n      pop\n        /* \"#utility.yul\":13135:13754   */\n      pop\n      pop\n        /* \"#utility.yul\":13022:13754   */\n      swap4\n      swap3\n      pop\n      pop\n      pop\n      jump\t// out\n        /* \"#utility.yul\":13777:14162   */\n    tag_196:\n        /* \"#utility.yul\":13859:13864   */\n      0x00\n        /* \"#utility.yul\":13908:13911   */\n      dup3\n        /* \"#utility.yul\":13901:13905   */\n      0x1f\n        /* \"#utility.yul\":13893:13899   */\n      dup4\n        /* \"#utility.yul\":13889:13906   */\n      add\n        /* \"#utility.yul\":13885:13912   */\n      slt\n        /* \"#utility.yul\":13875:13997   */\n      tag_366\n      jumpi\n        /* \"#utility.yul\":13916:13995   */\n      tag_367\n      tag_188\n      jump\t// in\n    tag_367:\n        /* \"#utility.yul\":13875:13997   */\n    tag_366:\n        /* \"#utility.yul\":14026:14032   */\n      dup2\n        /* \"#utility.yul\":14020:14033   */\n      mload\n        /* \"#utility.yul\":14051:14156   */\n      tag_368\n        /* \"#utility.yul\":14152:14155   */\n      dup5\n        /* \"#utility.yul\":14144:14150   */\n      dup3\n        /* \"#utility.yul\":14137:14141   */\n      0x20\n        /* \"#utility.yul\":14129:14135   */\n      dup7\n        /* \"#utility.yul\":14125:14142   */\n      add\n        /* \"#utility.yul\":14051:14156   */\n      tag_195\n      jump\t// in\n    tag_368:\n        /* \"#utility.yul\":14042:14156   */\n      swap2\n      pop\n        /* \"#utility.yul\":13865:14162   */\n      pop\n        /* \"#utility.yul\":13777:14162   */\n      swap3\n      swap2\n      pop\n      pop\n      jump\t// out\n        /* \"#utility.yul\":14168:14722   */\n    tag_97:\n        /* \"#utility.yul\":14263:14269   */\n      0x00\n        /* \"#utility.yul\":14312:14314   */\n      0x20\n        /* \"#utility.yul\":14300:14309   */\n      dup3\n        /* \"#utility.yul\":14291:14298   */\n      dup5\n        /* \"#utility.yul\":14287:14310   */\n      sub\n        /* \"#utility.yul\":14283:14315   */\n      slt\n        /* \"#utility.yul\":14280:14399   */\n      iszero\n      tag_370\n      jumpi\n        /* \"#utility.yul\":14318:14397   */\n      tag_371\n      tag_163\n      jump\t// in\n    tag_371:\n        /* \"#utility.yul\":14280:14399   */\n    tag_370:\n        /* \"#utility.yul\":14459:14460   */\n      0x00\n        /* \"#utility.yul\":14448:14457   */\n      dup3\n        /* \"#utility.yul\":14444:14461   */\n      add\n        /* \"#utility.yul\":14438:14462   */\n      mload\n        /* \"#utility.yul\":14489:14507   */\n      0xffffffffffffffff\n        /* \"#utility.yul\":14481:14487   */\n      dup2\n        /* \"#utility.yul\":14478:14508   */\n      gt\n        /* \"#utility.yul\":14475:14592   */\n      iszero\n      tag_372\n      jumpi\n        /* \"#utility.yul\":14511:14590   */\n      tag_373\n      tag_164\n      jump\t// in\n    tag_373:\n        /* \"#utility.yul\":14475:14592   */\n    tag_372:\n        /* \"#utility.yul\":14616:14705   */\n      tag_374\n        /* \"#utility.yul\":14697:14704   */\n      dup5\n        /* \"#utility.yul\":14688:14694   */\n      dup3\n        /* \"#utility.yul\":14677:14686   */\n      dup6\n        /* \"#utility.yul\":14673:14695   */\n      add\n        /* \"#utility.yul\":14616:14705   */\n      tag_196\n      jump\t// in\n    tag_374:\n        /* \"#utility.yul\":14606:14705   */\n      swap2\n      pop\n        /* \"#utility.yul\":14409:14715   */\n      pop\n        /* \"#utility.yul\":14168:14722   */\n      swap3\n      swap2\n      pop\n      pop\n      jump\t// out\n        /* \"#utility.yul\":14728:14892   */\n    tag_197:\n        /* \"#utility.yul\":14868:14884   */\n      0x496e76616c696420616d6f756e74000000000000000000000000000000000000\n        /* \"#utility.yul\":14864:14865   */\n      0x00\n        /* \"#utility.yul\":14856:14862   */\n      dup3\n        /* \"#utility.yul\":14852:14866   */\n      add\n        /* \"#utility.yul\":14845:14885   */\n      mstore\n        /* \"#utility.yul\":14728:14892   */\n      pop\n      jump\t// out\n        /* \"#utility.yul\":14898:15264   */\n    tag_198:\n        /* \"#utility.yul\":15040:15043   */\n      0x00\n        /* \"#utility.yul\":15061:15128   */\n      tag_377\n        /* \"#utility.yul\":15125:15127   */\n      0x0e\n        /* \"#utility.yul\":15120:15123   */\n      dup4\n        /* \"#utility.yul\":15061:15128   */\n      tag_169\n      jump\t// in\n    tag_377:\n        /* \"#utility.yul\":15054:15128   */\n      swap2\n      pop\n        /* \"#utility.yul\":15137:15230   */\n      tag_378\n        /* \"#utility.yul\":15226:15229   */\n      dup3\n        /* \"#utility.yul\":15137:15230   */\n      tag_197\n      jump\t// in\n    tag_378:\n        /* \"#utility.yul\":15255:15257   */\n      0x20\n        /* \"#utility.yul\":15250:15253   */\n      dup3\n        /* \"#utility.yul\":15246:15258   */\n      add\n        /* \"#utility.yul\":15239:15258   */\n      swap1\n      pop\n        /* \"#utility.yul\":14898:15264   */\n      swap2\n      swap1\n      pop\n      jump\t// out\n        /* \"#utility.yul\":15270:15689   */\n    tag_103:\n        /* \"#utility.yul\":15436:15440   */\n      0x00\n        /* \"#utility.yul\":15474:15476   */\n      0x20\n        /* \"#utility.yul\":15463:15472   */\n      dup3\n        /* \"#utility.yul\":15459:15477   */\n      add\n        /* \"#utility.yul\":15451:15477   */\n      swap1\n      pop\n        /* \"#utility.yul\":15523:15532   */\n      dup2\n        /* \"#utility.yul\":15517:15521   */\n      dup2\n        /* \"#utility.yul\":15513:15533   */\n      sub\n        /* \"#utility.yul\":15509:15510   */\n      0x00\n        /* \"#utility.yul\":15498:15507   */\n      dup4\n        /* \"#utility.yul\":15494:15511   */\n      add\n        /* \"#utility.yul\":15487:15534   */\n      mstore\n        /* \"#utility.yul\":15551:15682   */\n      tag_380\n        /* \"#utility.yul\":15677:15681   */\n      dup2\n        /* \"#utility.yul\":15551:15682   */\n      tag_198\n      jump\t// in\n    tag_380:\n        /* \"#utility.yul\":15543:15682   */\n      swap1\n      pop\n        /* \"#utility.yul\":15270:15689   */\n      swap2\n      swap1\n      pop\n      jump\t// out\n        /* \"#utility.yul\":15695:15861   */\n    tag_199:\n        /* \"#utility.yul\":15835:15853   */\n      0x496e76616c6964206475726174696f6e00000000000000000000000000000000\n        /* \"#utility.yul\":15831:15832   */\n      0x00\n        /* \"#utility.yul\":15823:15829   */\n      dup3\n        /* \"#utility.yul\":15819:15833   */\n      add\n        /* \"#utility.yul\":15812:15854   */\n      mstore\n        /* \"#utility.yul\":15695:15861   */\n      pop\n      jump\t// out\n        /* \"#utility.yul\":15867:16233   */\n    tag_200:\n        /* \"#utility.yul\":16009:16012   */\n      0x00\n        /* \"#utility.yul\":16030:16097   */\n      tag_383\n        /* \"#utility.yul\":16094:16096   */\n      0x10\n        /* \"#utility.yul\":16089:16092   */\n      dup4\n        /* \"#utility.yul\":16030:16097   */\n      tag_169\n      jump\t// in\n    tag_383:\n        /* \"#utility.yul\":16023:16097   */\n      swap2\n      pop\n        /* \"#utility.yul\":16106:16199   */\n      tag_384\n        /* \"#utility.yul\":16195:16198   */\n      dup3\n        /* \"#utility.yul\":16106:16199   */\n      tag_199\n      jump\t// in\n    tag_384:\n        /* \"#utility.yul\":16224:16226   */\n      0x20\n        /* \"#utility.yul\":16219:16222   */\n      dup3\n        /* \"#utility.yul\":16215:16227   */\n      add\n        /* \"#utility.yul\":16208:16227   */\n      swap1\n      pop\n        /* \"#utility.yul\":15867:16233   */\n      swap2\n      swap1\n      pop\n      jump\t// out\n        /* \"#utility.yul\":16239:16658   */\n    tag_106:\n        /* \"#utility.yul\":16405:16409   */\n      0x00\n        /* \"#utility.yul\":16443:16445   */\n      0x20\n        /* \"#utility.yul\":16432:16441   */\n      dup3\n        /* \"#utility.yul\":16428:16446   */\n      add\n        /* \"#utility.yul\":16420:16446   */\n      swap1\n      pop\n        /* \"#utility.yul\":16492:16501   */\n      dup2\n        /* \"#utility.yul\":16486:16490   */\n      dup2\n        /* \"#utility.yul\":16482:16502   */\n      sub\n        /* \"#utility.yul\":16478:16479   */\n      0x00\n        /* \"#utility.yul\":16467:16476   */\n      dup4\n        /* \"#utility.yul\":16463:16480   */\n      add\n        /* \"#utility.yul\":16456:16503   */\n      mstore\n        /* \"#utility.yul\":16520:16651   */\n      tag_386\n        /* \"#utility.yul\":16646:16650   */\n      dup2\n        /* \"#utility.yul\":16520:16651   */\n      tag_200\n      jump\t// in\n    tag_386:\n        /* \"#utility.yul\":16512:16651   */\n      swap1\n      pop\n        /* \"#utility.yul\":16239:16658   */\n      swap2\n      swap1\n      pop\n      jump\t// out\n        /* \"#utility.yul\":16664:17439   */\n    tag_117:\n        /* \"#utility.yul\":16897:16901   */\n      0x00\n        /* \"#utility.yul\":16935:16938   */\n      0xc0\n        /* \"#utility.yul\":16924:16933   */\n      dup3\n        /* \"#utility.yul\":16920:16939   */\n      add\n        /* \"#utility.yul\":16912:16939   */\n      swap1\n      pop\n        /* \"#utility.yul\":16949:17020   */\n      tag_388\n        /* \"#utility.yul\":17017:17018   */\n      0x00\n        /* \"#utility.yul\":17006:17015   */\n      dup4\n        /* \"#utility.yul\":17002:17019   */\n      add\n        /* \"#utility.yul\":16993:16999   */\n      dup10\n        /* \"#utility.yul\":16949:17020   */\n      tag_161\n      jump\t// in\n    tag_388:\n        /* \"#utility.yul\":17030:17102   */\n      tag_389\n        /* \"#utility.yul\":17098:17100   */\n      0x20\n        /* \"#utility.yul\":17087:17096   */\n      dup4\n        /* \"#utility.yul\":17083:17101   */\n      add\n        /* \"#utility.yul\":17074:17080   */\n      dup9\n        /* \"#utility.yul\":17030:17102   */\n      tag_161\n      jump\t// in\n    tag_389:\n        /* \"#utility.yul\":17112:17184   */\n      tag_390\n        /* \"#utility.yul\":17180:17182   */\n      0x40\n        /* \"#utility.yul\":17169:17178   */\n      dup4\n        /* \"#utility.yul\":17165:17183   */\n      add\n        /* \"#utility.yul\":17156:17162   */\n      dup8\n        /* \"#utility.yul\":17112:17184   */\n      tag_161\n      jump\t// in\n    tag_390:\n        /* \"#utility.yul\":17194:17266   */\n      tag_391\n        /* \"#utility.yul\":17262:17264   */\n      0x60\n        /* \"#utility.yul\":17251:17260   */\n      dup4\n        /* \"#utility.yul\":17247:17265   */\n      add\n        /* \"#utility.yul\":17238:17244   */\n      dup7\n        /* \"#utility.yul\":17194:17266   */\n      tag_161\n      jump\t// in\n    tag_391:\n        /* \"#utility.yul\":17276:17349   */\n      tag_392\n        /* \"#utility.yul\":17344:17347   */\n      0x80\n        /* \"#utility.yul\":17333:17342   */\n      dup4\n        /* \"#utility.yul\":17329:17348   */\n      add\n        /* \"#utility.yul\":17320:17326   */\n      dup6\n        /* \"#utility.yul\":17276:17349   */\n      tag_161\n      jump\t// in\n    tag_392:\n        /* \"#utility.yul\":17359:17432   */\n      tag_393\n        /* \"#utility.yul\":17427:17430   */\n      0xa0\n        /* \"#utility.yul\":17416:17425   */\n      dup4\n        /* \"#utility.yul\":17412:17431   */\n      add\n        /* \"#utility.yul\":17403:17409   */\n      dup5\n        /* \"#utility.yul\":17359:17432   */\n      tag_161\n      jump\t// in\n    tag_393:\n        /* \"#utility.yul\":16664:17439   */\n      swap8\n      swap7\n      pop\n      pop\n      pop\n      pop\n      pop\n      pop\n      pop\n      jump\t// out\n        /* \"#utility.yul\":17445:17521   */\n    tag_201:\n        /* \"#utility.yul\":17481:17488   */\n      0x00\n        /* \"#utility.yul\":17510:17515   */\n      dup2\n        /* \"#utility.yul\":17499:17515   */\n      swap1\n      pop\n        /* \"#utility.yul\":17445:17521   */\n      swap2\n      swap1\n      pop\n      jump\t// out\n        /* \"#utility.yul\":17527:17647   */\n    tag_202:\n        /* \"#utility.yul\":17599:17622   */\n      tag_396\n        /* \"#utility.yul\":17616:17621   */\n      dup2\n        /* \"#utility.yul\":17599:17622   */\n      tag_201\n      jump\t// in\n    tag_396:\n        /* \"#utility.yul\":17592:17597   */\n      dup2\n        /* \"#utility.yul\":17589:17623   */\n      eq\n        /* \"#utility.yul\":17579:17641   */\n      tag_397\n      jumpi\n        /* \"#utility.yul\":17637:17638   */\n      0x00\n        /* \"#utility.yul\":17634:17635   */\n      dup1\n        /* \"#utility.yul\":17627:17639   */\n      revert\n        /* \"#utility.yul\":17579:17641   */\n    tag_397:\n        /* \"#utility.yul\":17527:17647   */\n      pop\n      jump\t// out\n        /* \"#utility.yul\":17653:17794   */\n    tag_203:\n        /* \"#utility.yul\":17709:17714   */\n      0x00\n        /* \"#utility.yul\":17740:17746   */\n      dup2\n        /* \"#utility.yul\":17734:17747   */\n      mload\n        /* \"#utility.yul\":17725:17747   */\n      swap1\n      pop\n        /* \"#utility.yul\":17756:17788   */\n      tag_399\n        /* \"#utility.yul\":17782:17787   */\n      dup2\n        /* \"#utility.yul\":17756:17788   */\n      tag_202\n      jump\t// in\n    tag_399:\n        /* \"#utility.yul\":17653:17794   */\n      swap3\n      swap2\n      pop\n      pop\n      jump\t// out\n        /* \"#utility.yul\":17800:18149   */\n    tag_122:\n        /* \"#utility.yul\":17869:17875   */\n      0x00\n        /* \"#utility.yul\":17918:17920   */\n      0x20\n        /* \"#utility.yul\":17906:17915   */\n      dup3\n        /* \"#utility.yul\":17897:17904   */\n      dup5\n        /* \"#utility.yul\":17893:17916   */\n      sub\n        /* \"#utility.yul\":17889:17921   */\n      slt\n        /* \"#utility.yul\":17886:18005   */\n      iszero\n      tag_401\n      jumpi\n        /* \"#utility.yul\":17924:18003   */\n      tag_402\n      tag_163\n      jump\t// in\n    tag_402:\n        /* \"#utility.yul\":17886:18005   */\n    tag_401:\n        /* \"#utility.yul\":18044:18045   */\n      0x00\n        /* \"#utility.yul\":18069:18132   */\n      tag_403\n        /* \"#utility.yul\":18124:18131   */\n      dup5\n        /* \"#utility.yul\":18115:18121   */\n      dup3\n        /* \"#utility.yul\":18104:18113   */\n      dup6\n        /* \"#utility.yul\":18100:18122   */\n      add\n        /* \"#utility.yul\":18069:18132   */\n      tag_203\n      jump\t// in\n    tag_403:\n        /* \"#utility.yul\":18059:18132   */\n      swap2\n      pop\n        /* \"#utility.yul\":18015:18142   */\n      pop\n        /* \"#utility.yul\":17800:18149   */\n      swap3\n      swap2\n      pop\n      pop\n      jump\t// out\n        /* \"#utility.yul\":18155:18326   */\n    tag_204:\n        /* \"#utility.yul\":18295:18318   */\n      0x496e76616c6964204554482f5553442070726963650000000000000000000000\n        /* \"#utility.yul\":18291:18292   */\n      0x00\n        /* \"#utility.yul\":18283:18289   */\n      dup3\n        /* \"#utility.yul\":18279:18293   */\n      add\n        /* \"#utility.yul\":18272:18319   */\n      mstore\n        /* \"#utility.yul\":18155:18326   */\n      pop\n      jump\t// out\n        /* \"#utility.yul\":18332:18698   */\n    tag_205:\n        /* \"#utility.yul\":18474:18477   */\n      0x00\n        /* \"#utility.yul\":18495:18562   */\n      tag_406\n        /* \"#utility.yul\":18559:18561   */\n      0x15\n        /* \"#utility.yul\":18554:18557   */\n      dup4\n        /* \"#utility.yul\":18495:18562   */\n      tag_169\n      jump\t// in\n    tag_406:\n        /* \"#utility.yul\":18488:18562   */\n      swap2\n      pop\n        /* \"#utility.yul\":18571:18664   */\n      tag_407\n        /* \"#utility.yul\":18660:18663   */\n      dup3\n        /* \"#utility.yul\":18571:18664   */\n      tag_204\n      jump\t// in\n    tag_407:\n        /* \"#utility.yul\":18689:18691   */\n      0x20\n        /* \"#utility.yul\":18684:18687   */\n      dup3\n        /* \"#utility.yul\":18680:18692   */\n      add\n        /* \"#utility.yul\":18673:18692   */\n      swap1\n      pop\n        /* \"#utility.yul\":18332:18698   */\n      swap2\n      swap1\n      pop\n      jump\t// out\n        /* \"#utility.yul\":18704:19123   */\n    tag_125:\n        /* \"#utility.yul\":18870:18874   */\n      0x00\n        /* \"#utility.yul\":18908:18910   */\n      0x20\n        /* \"#utility.yul\":18897:18906   */\n      dup3\n        /* \"#utility.yul\":18893:18911   */\n      add\n        /* \"#utility.yul\":18885:18911   */\n      swap1\n      pop\n        /* \"#utility.yul\":18957:18966   */\n      dup2\n        /* \"#utility.yul\":18951:18955   */\n      dup2\n        /* \"#utility.yul\":18947:18967   */\n      sub\n        /* \"#utility.yul\":18943:18944   */\n      0x00\n        /* \"#utility.yul\":18932:18941   */\n      dup4\n        /* \"#utility.yul\":18928:18945   */\n      add\n        /* \"#utility.yul\":18921:18968   */\n      mstore\n        /* \"#utility.yul\":18985:19116   */\n      tag_409\n        /* \"#utility.yul\":19111:19115   */\n      dup2\n        /* \"#utility.yul\":18985:19116   */\n      tag_205\n      jump\t// in\n    tag_409:\n        /* \"#utility.yul\":18977:19116   */\n      swap1\n      pop\n        /* \"#utility.yul\":18704:19123   */\n      swap2\n      swap1\n      pop\n      jump\t// out\n        /* \"#utility.yul\":19129:19305   */\n    tag_141:\n        /* \"#utility.yul\":19161:19162   */\n      0x00\n        /* \"#utility.yul\":19178:19198   */\n      tag_411\n        /* \"#utility.yul\":19196:19197   */\n      dup3\n        /* \"#utility.yul\":19178:19198   */\n      tag_160\n      jump\t// in\n    tag_411:\n        /* \"#utility.yul\":19173:19198   */\n      swap2\n      pop\n        /* \"#utility.yul\":19212:19232   */\n      tag_412\n        /* \"#utility.yul\":19230:19231   */\n      dup4\n        /* \"#utility.yul\":19212:19232   */\n      tag_160\n      jump\t// in\n    tag_412:\n        /* \"#utility.yul\":19207:19232   */\n      swap3\n      pop\n        /* \"#utility.yul\":19251:19252   */\n      dup3\n        /* \"#utility.yul\":19241:19276   */\n      tag_413\n      jumpi\n        /* \"#utility.yul\":19256:19274   */\n      tag_414\n      tag_176\n      jump\t// in\n    tag_414:\n        /* \"#utility.yul\":19241:19276   */\n    tag_413:\n        /* \"#utility.yul\":19297:19298   */\n      dup3\n        /* \"#utility.yul\":19294:19295   */\n      dup3\n        /* \"#utility.yul\":19290:19299   */\n      mod\n        /* \"#utility.yul\":19285:19299   */\n      swap1\n      pop\n        /* \"#utility.yul\":19129:19305   */\n      swap3\n      swap2\n      pop\n      pop\n      jump\t// out\n\n    auxdata: 0xa264697066735822122065a9100378791dbd0866f4547cadb7bdb6cd7e6dfe4f36ad0795a1450b641ac864736f6c63430008180033\n}\n",
				"bytecode": {
					"linkReferences": {},
					"object": "608060405234801562000010575f80fd5b5060405162001857380380620018578339818101604052810190620000369190620001e4565b335f806101000a81548173ffffffffffffffffffffffffffffffffffffffff021916908373ffffffffffffffffffffffffffffffffffffffff1602179055508360015f6101000a81548173ffffffffffffffffffffffffffffffffffffffff021916908373ffffffffffffffffffffffffffffffffffffffff1602179055508260025f6101000a81548173ffffffffffffffffffffffffffffffffffffffff021916908373ffffffffffffffffffffffffffffffffffffffff1602179055508160035f6101000a81548173ffffffffffffffffffffffffffffffffffffffff021916908373ffffffffffffffffffffffffffffffffffffffff1602179055508060045f6101000a81548173ffffffffffffffffffffffffffffffffffffffff021916908373ffffffffffffffffffffffffffffffffffffffff1602179055505050505062000253565b5f80fd5b5f73ffffffffffffffffffffffffffffffffffffffff82169050919050565b5f620001ae8262000183565b9050919050565b620001c081620001a2565b8114620001cb575f80fd5b50565b5f81519050620001de81620001b5565b92915050565b5f805f8060808587031215620001ff57620001fe6200017f565b5b5f6200020e87828801620001ce565b94505060206200022187828801620001ce565b93505060406200023487828801620001ce565b92505060606200024787828801620001ce565b91505092959194509250565b6115f680620002615f395ff3fe608060405234801561000f575f80fd5b50600436106100b1575f3560e01c80637b0472f01161006f5780637b0472f014610167578063851f714714610183578063b5d5b5fa146101a1578063b92d21c4146101d5578063b9aa6ec4146101f3578063f851a44014610211576100b1565b8062c3a272146100b557806320ca3c7f146100d35780632e0f2625146100f15780632e17de781461010f5780634f0e0ef31461012b57806350f3845b14610149575b5f80fd5b6100bd61022f565b6040516100ca9190610bd3565b60405180910390f35b6100db610254565b6040516100e89190610bd3565b60405180910390f35b6100f9610279565b6040516101069190610c04565b60405180910390f35b61012960048036038101906101249190610c58565b61027e565b005b610133610429565b6040516101409190610bd3565b60405180910390f35b61015161044e565b60405161015e9190610c04565b60405180910390f35b610181600480360381019061017c9190610c83565b610648565b005b61018b610844565b6040516101989190610c04565b60405180910390f35b6101bb60048036038101906101b69190610ceb565b610924565b6040516101cc959493929190610d29565b60405180910390f35b6101dd610970565b6040516101ea9190610c04565b60405180910390f35b6101fb6109b2565b6040516102089190610bd3565b60405180910390f35b6102196109d7565b6040516102269190610bd3565b60405180910390f35b60045f9054906101000a900473ffffffffffffffffffffffffffffffffffffffff1681565b60035f9054906101000a900473ffffffffffffffffffffffffffffffffffffffff1681565b601281565b5f60055f3373ffffffffffffffffffffffffffffffffffffffff1673ffffffffffffffffffffffffffffffffffffffff1681526020019081526020015f20905080805490508210610304576040517f08c379a00000000000000000000000000000000000000000000000000000000081526004016102fb90610dd4565b60405180910390fd5b5f81838154811061031857610317610df2565b5b905f5260205f20906005020190505f816001015490505f610337610970565b90505f81846003015461034a9190610e4c565b90505f81111561038f575f84600301546012600a6103689190610fae565b836103739190610ff8565b61037d9190611066565b9050808461038b9190611096565b9350505b8486815481106103a2576103a1610df2565b5b905f5260205f2090600502015f8082015f9055600182015f9055600282015f9055600382015f9055600482015f905550503373ffffffffffffffffffffffffffffffffffffffff167f0f5bb82176feb1b5e747e28471aa92156a04d9f3ab9f45f28e2d704232b93f75846040516104199190610c04565b60405180910390a2505050505050565b60025f9054906101000a900473ffffffffffffffffffffffffffffffffffffffff1681565b5f80600267ffffffffffffffff81111561046b5761046a6110c9565b5b6040519080825280602002602001820160405280156104995781602001602082028036833780820191505090505b50905060015f9054906101000a900473ffffffffffffffffffffffffffffffffffffffff16815f815181106104d1576104d0610df2565b5b602002602001019073ffffffffffffffffffffffffffffffffffffffff16908173ffffffffffffffffffffffffffffffffffffffff168152505060025f9054906101000a900473ffffffffffffffffffffffffffffffffffffffff168160018151811061054157610540610df2565b5b602002602001019073ffffffffffffffffffffffffffffffffffffffff16908173ffffffffffffffffffffffffffffffffffffffff16815250505f60035f9054906101000a900473ffffffffffffffffffffffffffffffffffffffff1690505f8173ffffffffffffffffffffffffffffffffffffffff1663d06ca61f633b9aca00856040518363ffffffff1660e01b81526004016105e09291906111ef565b5f60405180830381865afa1580156105fa573d5f803e3d5ffd5b505050506040513d5f823e3d601f19601f820116820180604052508101906106229190611354565b90508060018151811061063857610637610df2565b5b6020026020010151935050505090565b5f821161068a576040517f08c379a0000000000000000000000000000000000000000000000000000000008152600401610681906113e5565b60405180910390fd5b5f81116106cc576040517f08c379a00000000000000000000000000000000000000000000000000000000081526004016106c39061144d565b60405180910390fd5b5f6106d5610970565b90505f6106e283856109fa565b90505f6012600a6106f39190610fae565b83866106ff9190610ff8565b6107099190611066565b90505f620151808561071b9190610ff8565b426107269190611096565b905060055f3373ffffffffffffffffffffffffffffffffffffffff1673ffffffffffffffffffffffffffffffffffffffff1681526020019081526020015f206040518060a0016040528087815260200188815260200183815260200186815260200184815250908060018154018082558091505060019003905f5260205f2090600502015f909190919091505f820151815f01556020820151816001015560408201518160020155606082015181600301556080820151816004015550503373ffffffffffffffffffffffffffffffffffffffff167fc16be9a586414a157dd46b4d023aa9997a025dd1cbbaa67ac0c1b8273a5eaf558787848888886040516108349695949392919061146b565b60405180910390a2505050505050565b5f8060045f9054906101000a900473ffffffffffffffffffffffffffffffffffffffff1690505f8173ffffffffffffffffffffffffffffffffffffffff166350d25bcd6040518163ffffffff1660e01b8152600401602060405180830381865afa1580156108b4573d5f803e3d5ffd5b505050506040513d601f19601f820116820180604052508101906108d891906114fd565b90505f811361091c576040517f08c379a000000000000000000000000000000000000000000000000000000000815260040161091390611572565b60405180910390fd5b809250505090565b6005602052815f5260405f20818154811061093d575f80fd5b905f5260205f2090600502015f9150915050805f0154908060010154908060020154908060030154908060040154905085565b5f8061097a610844565b90505f61098561044e565b90506012600a6109959190610fae565b82826109a19190610ff8565b6109ab9190611066565b9250505090565b60015f9054906101000a900473ffffffffffffffffffffffffffffffffffffffff1681565b5f8054906101000a900473ffffffffffffffffffffffffffffffffffffffff1681565b5f80610a0584610a29565b90506127108184610a169190610ff8565b610a209190611066565b91505092915050565b5f80601e83610a389190611590565b14610a78576040517f08c379a0000000000000000000000000000000000000000000000000000000008152600401610a6f9061144d565b60405180910390fd5b601e8203610a8a57610ea69050610b8f565b603c8203610a9c576115f99050610b8f565b605a8203610aae57611e369050610b8f565b60788203610ac0576126b59050610b8f565b60968203610ad257612ee09050610b8f565b60b48203610ae45761364a9050610b8f565b60d28203610af657613cbb9050610b8f565b60f08203610b08576142239050610b8f565b61010e8203610b1b5761468d9050610b8f565b61012c8203610b2e57614a159050610b8f565b61014a8203610b4157614cdd9050610b8f565b6101688203610b5457614f079050610b8f565b6040517f08c379a0000000000000000000000000000000000000000000000000000000008152600401610b869061144d565b60405180910390fd5b919050565b5f73ffffffffffffffffffffffffffffffffffffffff82169050919050565b5f610bbd82610b94565b9050919050565b610bcd81610bb3565b82525050565b5f602082019050610be65f830184610bc4565b92915050565b5f819050919050565b610bfe81610bec565b82525050565b5f602082019050610c175f830184610bf5565b92915050565b5f604051905090565b5f80fd5b5f80fd5b610c3781610bec565b8114610c41575f80fd5b50565b5f81359050610c5281610c2e565b92915050565b5f60208284031215610c6d57610c6c610c26565b5b5f610c7a84828501610c44565b91505092915050565b5f8060408385031215610c9957610c98610c26565b5b5f610ca685828601610c44565b9250506020610cb785828601610c44565b9150509250929050565b610cca81610bb3565b8114610cd4575f80fd5b50565b5f81359050610ce581610cc1565b92915050565b5f8060408385031215610d0157610d00610c26565b5b5f610d0e85828601610cd7565b9250506020610d1f85828601610c44565b9150509250929050565b5f60a082019050610d3c5f830188610bf5565b610d496020830187610bf5565b610d566040830186610bf5565b610d636060830185610bf5565b610d706080830184610bf5565b9695505050505050565b5f82825260208201905092915050565b7f496e76616c696420696e646578000000000000000000000000000000000000005f82015250565b5f610dbe600d83610d7a565b9150610dc982610d8a565b602082019050919050565b5f6020820190508181035f830152610deb81610db2565b9050919050565b7f4e487b71000000000000000000000000000000000000000000000000000000005f52603260045260245ffd5b7f4e487b71000000000000000000000000000000000000000000000000000000005f52601160045260245ffd5b5f610e5682610bec565b9150610e6183610bec565b9250828203905081811115610e7957610e78610e1f565b5b92915050565b5f8160011c9050919050565b5f808291508390505b6001851115610ed457808604811115610eb057610eaf610e1f565b5b6001851615610ebf5780820291505b8081029050610ecd85610e7f565b9450610e94565b94509492505050565b5f82610eec5760019050610fa7565b81610ef9575f9050610fa7565b8160018114610f0f5760028114610f1957610f48565b6001915050610fa7565b60ff841115610f2b57610f2a610e1f565b5b8360020a915084821115610f4257610f41610e1f565b5b50610fa7565b5060208310610133831016604e8410600b8410161715610f7d5782820a905083811115610f7857610f77610e1f565b5b610fa7565b610f8a8484846001610e8b565b92509050818404811115610fa157610fa0610e1f565b5b81810290505b9392505050565b5f610fb882610bec565b9150610fc383610bec565b9250610ff07fffffffffffffffffffffffffffffffffffffffffffffffffffffffffffffffff8484610edd565b905092915050565b5f61100282610bec565b915061100d83610bec565b925082820261101b81610bec565b9150828204841483151761103257611031610e1f565b5b5092915050565b7f4e487b71000000000000000000000000000000000000000000000000000000005f52601260045260245ffd5b5f61107082610bec565b915061107b83610bec565b92508261108b5761108a611039565b5b828204905092915050565b5f6110a082610bec565b91506110ab83610bec565b92508282019050808211156110c3576110c2610e1f565b5b92915050565b7f4e487b71000000000000000000000000000000000000000000000000000000005f52604160045260245ffd5b5f819050919050565b5f819050919050565b5f61112261111d611118846110f6565b6110ff565b610bec565b9050919050565b61113281611108565b82525050565b5f81519050919050565b5f82825260208201905092915050565b5f819050602082019050919050565b61116a81610bb3565b82525050565b5f61117b8383611161565b60208301905092915050565b5f602082019050919050565b5f61119d82611138565b6111a78185611142565b93506111b283611152565b805f5b838110156111e25781516111c98882611170565b97506111d483611187565b9250506001810190506111b5565b5085935050505092915050565b5f6040820190506112025f830185611129565b81810360208301526112148184611193565b90509392505050565b5f80fd5b5f601f19601f8301169050919050565b61123a82611221565b810181811067ffffffffffffffff82111715611259576112586110c9565b5b80604052505050565b5f61126b610c1d565b90506112778282611231565b919050565b5f67ffffffffffffffff821115611296576112956110c9565b5b602082029050602081019050919050565b5f80fd5b5f815190506112b981610c2e565b92915050565b5f6112d16112cc8461127c565b611262565b905080838252602082019050602084028301858111156112f4576112f36112a7565b5b835b8181101561131d578061130988826112ab565b8452602084019350506020810190506112f6565b5050509392505050565b5f82601f83011261133b5761133a61121d565b5b815161134b8482602086016112bf565b91505092915050565b5f6020828403121561136957611368610c26565b5b5f82015167ffffffffffffffff81111561138657611385610c2a565b5b61139284828501611327565b91505092915050565b7f496e76616c696420616d6f756e740000000000000000000000000000000000005f82015250565b5f6113cf600e83610d7a565b91506113da8261139b565b602082019050919050565b5f6020820190508181035f8301526113fc816113c3565b9050919050565b7f496e76616c6964206475726174696f6e000000000000000000000000000000005f82015250565b5f611437601083610d7a565b915061144282611403565b602082019050919050565b5f6020820190508181035f8301526114648161142b565b9050919050565b5f60c08201905061147e5f830189610bf5565b61148b6020830188610bf5565b6114986040830187610bf5565b6114a56060830186610bf5565b6114b26080830185610bf5565b6114bf60a0830184610bf5565b979650505050505050565b5f819050919050565b6114dc816114ca565b81146114e6575f80fd5b50565b5f815190506114f7816114d3565b92915050565b5f6020828403121561151257611511610c26565b5b5f61151f848285016114e9565b91505092915050565b7f496e76616c6964204554482f55534420707269636500000000000000000000005f82015250565b5f61155c601583610d7a565b915061156782611528565b602082019050919050565b5f6020820190508181035f83015261158981611550565b9050919050565b5f61159a82610bec565b91506115a583610bec565b9250826115b5576115b4611039565b5b82820690509291505056fea264697066735822122065a9100378791dbd0866f4547cadb7bdb6cd7e6dfe4f36ad0795a1450b641ac864736f6c63430008180033",
					"opcodes": "PUSH1 0x80 PUSH1 0x40 MSTORE CALLVALUE DUP1 ISZERO PUSH3 0x10 JUMPI PUSH0 DUP1 REVERT JUMPDEST POP PUSH1 0x40 MLOAD PUSH3 0x1857 CODESIZE SUB DUP1 PUSH3 0x1857 DUP4 CODECOPY DUP2 DUP2 ADD PUSH1 0x40 MSTORE DUP2 ADD SWAP1 PUSH3 0x36 SWAP2 SWAP1 PUSH3 0x1E4 JUMP JUMPDEST CALLER PUSH0 DUP1 PUSH2 0x100 EXP DUP2 SLOAD DUP2 PUSH20 0xFFFFFFFFFFFFFFFFFFFFFFFFFFFFFFFFFFFFFFFF MUL NOT AND SWAP1 DUP4 PUSH20 0xFFFFFFFFFFFFFFFFFFFFFFFFFFFFFFFFFFFFFFFF AND MUL OR SWAP1 SSTORE POP DUP4 PUSH1 0x1 PUSH0 PUSH2 0x100 EXP DUP2 SLOAD DUP2 PUSH20 0xFFFFFFFFFFFFFFFFFFFFFFFFFFFFFFFFFFFFFFFF MUL NOT AND SWAP1 DUP4 PUSH20 0xFFFFFFFFFFFFFFFFFFFFFFFFFFFFFFFFFFFFFFFF AND MUL OR SWAP1 SSTORE POP DUP3 PUSH1 0x2 PUSH0 PUSH2 0x100 EXP DUP2 SLOAD DUP2 PUSH20 0xFFFFFFFFFFFFFFFFFFFFFFFFFFFFFFFFFFFFFFFF MUL NOT AND SWAP1 DUP4 PUSH20 0xFFFFFFFFFFFFFFFFFFFFFFFFFFFFFFFFFFFFFFFF AND MUL OR SWAP1 SSTORE POP DUP2 PUSH1 0x3 PUSH0 PUSH2 0x100 EXP DUP2 SLOAD DUP2 PUSH20 0xFFFFFFFFFFFFFFFFFFFFFFFFFFFFFFFFFFFFFFFF MUL NOT AND SWAP1 DUP4 PUSH20 0xFFFFFFFFFFFFFFFFFFFFFFFFFFFFFFFFFFFFFFFF AND MUL OR SWAP1 SSTORE POP DUP1 PUSH1 0x4 PUSH0 PUSH2 0x100 EXP DUP2 SLOAD DUP2 PUSH20 0xFFFFFFFFFFFFFFFFFFFFFFFFFFFFFFFFFFFFFFFF MUL NOT AND SWAP1 DUP4 PUSH20 0xFFFFFFFFFFFFFFFFFFFFFFFFFFFFFFFFFFFFFFFF AND MUL OR SWAP1 SSTORE POP POP POP POP POP PUSH3 0x253 JUMP JUMPDEST PUSH0 DUP1 REVERT JUMPDEST PUSH0 PUSH20 0xFFFFFFFFFFFFFFFFFFFFFFFFFFFFFFFFFFFFFFFF DUP3 AND SWAP1 POP SWAP2 SWAP1 POP JUMP JUMPDEST PUSH0 PUSH3 0x1AE DUP3 PUSH3 0x183 JUMP JUMPDEST SWAP1 POP SWAP2 SWAP1 POP JUMP JUMPDEST PUSH3 0x1C0 DUP2 PUSH3 0x1A2 JUMP JUMPDEST DUP2 EQ PUSH3 0x1CB JUMPI PUSH0 DUP1 REVERT JUMPDEST POP JUMP JUMPDEST PUSH0 DUP2 MLOAD SWAP1 POP PUSH3 0x1DE DUP2 PUSH3 0x1B5 JUMP JUMPDEST SWAP3 SWAP2 POP POP JUMP JUMPDEST PUSH0 DUP1 PUSH0 DUP1 PUSH1 0x80 DUP6 DUP8 SUB SLT ISZERO PUSH3 0x1FF JUMPI PUSH3 0x1FE PUSH3 0x17F JUMP JUMPDEST JUMPDEST PUSH0 PUSH3 0x20E DUP8 DUP3 DUP9 ADD PUSH3 0x1CE JUMP JUMPDEST SWAP5 POP POP PUSH1 0x20 PUSH3 0x221 DUP8 DUP3 DUP9 ADD PUSH3 0x1CE JUMP JUMPDEST SWAP4 POP POP PUSH1 0x40 PUSH3 0x234 DUP8 DUP3 DUP9 ADD PUSH3 0x1CE JUMP JUMPDEST SWAP3 POP POP PUSH1 0x60 PUSH3 0x247 DUP8 DUP3 DUP9 ADD PUSH3 0x1CE JUMP JUMPDEST SWAP2 POP POP SWAP3 SWAP6 SWAP2 SWAP5 POP SWAP3 POP JUMP JUMPDEST PUSH2 0x15F6 DUP1 PUSH3 0x261 PUSH0 CODECOPY PUSH0 RETURN INVALID PUSH1 0x80 PUSH1 0x40 MSTORE CALLVALUE DUP1 ISZERO PUSH2 0xF JUMPI PUSH0 DUP1 REVERT JUMPDEST POP PUSH1 0x4 CALLDATASIZE LT PUSH2 0xB1 JUMPI PUSH0 CALLDATALOAD PUSH1 0xE0 SHR DUP1 PUSH4 0x7B0472F0 GT PUSH2 0x6F JUMPI DUP1 PUSH4 0x7B0472F0 EQ PUSH2 0x167 JUMPI DUP1 PUSH4 0x851F7147 EQ PUSH2 0x183 JUMPI DUP1 PUSH4 0xB5D5B5FA EQ PUSH2 0x1A1 JUMPI DUP1 PUSH4 0xB92D21C4 EQ PUSH2 0x1D5 JUMPI DUP1 PUSH4 0xB9AA6EC4 EQ PUSH2 0x1F3 JUMPI DUP1 PUSH4 0xF851A440 EQ PUSH2 0x211 JUMPI PUSH2 0xB1 JUMP JUMPDEST DUP1 PUSH3 0xC3A272 EQ PUSH2 0xB5 JUMPI DUP1 PUSH4 0x20CA3C7F EQ PUSH2 0xD3 JUMPI DUP1 PUSH4 0x2E0F2625 EQ PUSH2 0xF1 JUMPI DUP1 PUSH4 0x2E17DE78 EQ PUSH2 0x10F JUMPI DUP1 PUSH4 0x4F0E0EF3 EQ PUSH2 0x12B JUMPI DUP1 PUSH4 0x50F3845B EQ PUSH2 0x149 JUMPI JUMPDEST PUSH0 DUP1 REVERT JUMPDEST PUSH2 0xBD PUSH2 0x22F JUMP JUMPDEST PUSH1 0x40 MLOAD PUSH2 0xCA SWAP2 SWAP1 PUSH2 0xBD3 JUMP JUMPDEST PUSH1 0x40 MLOAD DUP1 SWAP2 SUB SWAP1 RETURN JUMPDEST PUSH2 0xDB PUSH2 0x254 JUMP JUMPDEST PUSH1 0x40 MLOAD PUSH2 0xE8 SWAP2 SWAP1 PUSH2 0xBD3 JUMP JUMPDEST PUSH1 0x40 MLOAD DUP1 SWAP2 SUB SWAP1 RETURN JUMPDEST PUSH2 0xF9 PUSH2 0x279 JUMP JUMPDEST PUSH1 0x40 MLOAD PUSH2 0x106 SWAP2 SWAP1 PUSH2 0xC04 JUMP JUMPDEST PUSH1 0x40 MLOAD DUP1 SWAP2 SUB SWAP1 RETURN JUMPDEST PUSH2 0x129 PUSH1 0x4 DUP1 CALLDATASIZE SUB DUP2 ADD SWAP1 PUSH2 0x124 SWAP2 SWAP1 PUSH2 0xC58 JUMP JUMPDEST PUSH2 0x27E JUMP JUMPDEST STOP JUMPDEST PUSH2 0x133 PUSH2 0x429 JUMP JUMPDEST PUSH1 0x40 MLOAD PUSH2 0x140 SWAP2 SWAP1 PUSH2 0xBD3 JUMP JUMPDEST PUSH1 0x40 MLOAD DUP1 SWAP2 SUB SWAP1 RETURN JUMPDEST PUSH2 0x151 PUSH2 0x44E JUMP JUMPDEST PUSH1 0x40 MLOAD PUSH2 0x15E SWAP2 SWAP1 PUSH2 0xC04 JUMP JUMPDEST PUSH1 0x40 MLOAD DUP1 SWAP2 SUB SWAP1 RETURN JUMPDEST PUSH2 0x181 PUSH1 0x4 DUP1 CALLDATASIZE SUB DUP2 ADD SWAP1 PUSH2 0x17C SWAP2 SWAP1 PUSH2 0xC83 JUMP JUMPDEST PUSH2 0x648 JUMP JUMPDEST STOP JUMPDEST PUSH2 0x18B PUSH2 0x844 JUMP JUMPDEST PUSH1 0x40 MLOAD PUSH2 0x198 SWAP2 SWAP1 PUSH2 0xC04 JUMP JUMPDEST PUSH1 0x40 MLOAD DUP1 SWAP2 SUB SWAP1 RETURN JUMPDEST PUSH2 0x1BB PUSH1 0x4 DUP1 CALLDATASIZE SUB DUP2 ADD SWAP1 PUSH2 0x1B6 SWAP2 SWAP1 PUSH2 0xCEB JUMP JUMPDEST PUSH2 0x924 JUMP JUMPDEST PUSH1 0x40 MLOAD PUSH2 0x1CC SWAP6 SWAP5 SWAP4 SWAP3 SWAP2 SWAP1 PUSH2 0xD29 JUMP JUMPDEST PUSH1 0x40 MLOAD DUP1 SWAP2 SUB SWAP1 RETURN JUMPDEST PUSH2 0x1DD PUSH2 0x970 JUMP JUMPDEST PUSH1 0x40 MLOAD PUSH2 0x1EA SWAP2 SWAP1 PUSH2 0xC04 JUMP JUMPDEST PUSH1 0x40 MLOAD DUP1 SWAP2 SUB SWAP1 RETURN JUMPDEST PUSH2 0x1FB PUSH2 0x9B2 JUMP JUMPDEST PUSH1 0x40 MLOAD PUSH2 0x208 SWAP2 SWAP1 PUSH2 0xBD3 JUMP JUMPDEST PUSH1 0x40 MLOAD DUP1 SWAP2 SUB SWAP1 RETURN JUMPDEST PUSH2 0x219 PUSH2 0x9D7 JUMP JUMPDEST PUSH1 0x40 MLOAD PUSH2 0x226 SWAP2 SWAP1 PUSH2 0xBD3 JUMP JUMPDEST PUSH1 0x40 MLOAD DUP1 SWAP2 SUB SWAP1 RETURN JUMPDEST PUSH1 0x4 PUSH0 SWAP1 SLOAD SWAP1 PUSH2 0x100 EXP SWAP1 DIV PUSH20 0xFFFFFFFFFFFFFFFFFFFFFFFFFFFFFFFFFFFFFFFF AND DUP2 JUMP JUMPDEST PUSH1 0x3 PUSH0 SWAP1 SLOAD SWAP1 PUSH2 0x100 EXP SWAP1 DIV PUSH20 0xFFFFFFFFFFFFFFFFFFFFFFFFFFFFFFFFFFFFFFFF AND DUP2 JUMP JUMPDEST PUSH1 0x12 DUP2 JUMP JUMPDEST PUSH0 PUSH1 0x5 PUSH0 CALLER PUSH20 0xFFFFFFFFFFFFFFFFFFFFFFFFFFFFFFFFFFFFFFFF AND PUSH20 0xFFFFFFFFFFFFFFFFFFFFFFFFFFFFFFFFFFFFFFFF AND DUP2 MSTORE PUSH1 0x20 ADD SWAP1 DUP2 MSTORE PUSH1 0x20 ADD PUSH0 KECCAK256 SWAP1 POP DUP1 DUP1 SLOAD SWAP1 POP DUP3 LT PUSH2 0x304 JUMPI PUSH1 0x40 MLOAD PUSH32 0x8C379A000000000000000000000000000000000000000000000000000000000 DUP2 MSTORE PUSH1 0x4 ADD PUSH2 0x2FB SWAP1 PUSH2 0xDD4 JUMP JUMPDEST PUSH1 0x40 MLOAD DUP1 SWAP2 SUB SWAP1 REVERT JUMPDEST PUSH0 DUP2 DUP4 DUP2 SLOAD DUP2 LT PUSH2 0x318 JUMPI PUSH2 0x317 PUSH2 0xDF2 JUMP JUMPDEST JUMPDEST SWAP1 PUSH0 MSTORE PUSH1 0x20 PUSH0 KECCAK256 SWAP1 PUSH1 0x5 MUL ADD SWAP1 POP PUSH0 DUP2 PUSH1 0x1 ADD SLOAD SWAP1 POP PUSH0 PUSH2 0x337 PUSH2 0x970 JUMP JUMPDEST SWAP1 POP PUSH0 DUP2 DUP5 PUSH1 0x3 ADD SLOAD PUSH2 0x34A SWAP2 SWAP1 PUSH2 0xE4C JUMP JUMPDEST SWAP1 POP PUSH0 DUP2 GT ISZERO PUSH2 0x38F JUMPI PUSH0 DUP5 PUSH1 0x3 ADD SLOAD PUSH1 0x12 PUSH1 0xA PUSH2 0x368 SWAP2 SWAP1 PUSH2 0xFAE JUMP JUMPDEST DUP4 PUSH2 0x373 SWAP2 SWAP1 PUSH2 0xFF8 JUMP JUMPDEST PUSH2 0x37D SWAP2 SWAP1 PUSH2 0x1066 JUMP JUMPDEST SWAP1 POP DUP1 DUP5 PUSH2 0x38B SWAP2 SWAP1 PUSH2 0x1096 JUMP JUMPDEST SWAP4 POP POP JUMPDEST DUP5 DUP7 DUP2 SLOAD DUP2 LT PUSH2 0x3A2 JUMPI PUSH2 0x3A1 PUSH2 0xDF2 JUMP JUMPDEST JUMPDEST SWAP1 PUSH0 MSTORE PUSH1 0x20 PUSH0 KECCAK256 SWAP1 PUSH1 0x5 MUL ADD PUSH0 DUP1 DUP3 ADD PUSH0 SWAP1 SSTORE PUSH1 0x1 DUP3 ADD PUSH0 SWAP1 SSTORE PUSH1 0x2 DUP3 ADD PUSH0 SWAP1 SSTORE PUSH1 0x3 DUP3 ADD PUSH0 SWAP1 SSTORE PUSH1 0x4 DUP3 ADD PUSH0 SWAP1 SSTORE POP POP CALLER PUSH20 0xFFFFFFFFFFFFFFFFFFFFFFFFFFFFFFFFFFFFFFFF AND PUSH32 0xF5BB82176FEB1B5E747E28471AA92156A04D9F3AB9F45F28E2D704232B93F75 DUP5 PUSH1 0x40 MLOAD PUSH2 0x419 SWAP2 SWAP1 PUSH2 0xC04 JUMP JUMPDEST PUSH1 0x40 MLOAD DUP1 SWAP2 SUB SWAP1 LOG2 POP POP POP POP POP POP JUMP JUMPDEST PUSH1 0x2 PUSH0 SWAP1 SLOAD SWAP1 PUSH2 0x100 EXP SWAP1 DIV PUSH20 0xFFFFFFFFFFFFFFFFFFFFFFFFFFFFFFFFFFFFFFFF AND DUP2 JUMP JUMPDEST PUSH0 DUP1 PUSH1 0x2 PUSH8 0xFFFFFFFFFFFFFFFF DUP2 GT ISZERO PUSH2 0x46B JUMPI PUSH2 0x46A PUSH2 0x10C9 JUMP JUMPDEST JUMPDEST PUSH1 0x40 MLOAD SWAP1 DUP1 DUP3 MSTORE DUP1 PUSH1 0x20 MUL PUSH1 0x20 ADD DUP3 ADD PUSH1 0x40 MSTORE DUP1 ISZERO PUSH2 0x499 JUMPI DUP2 PUSH1 0x20 ADD PUSH1 0x20 DUP3 MUL DUP1 CALLDATASIZE DUP4 CALLDATACOPY DUP1 DUP3 ADD SWAP2 POP POP SWAP1 POP JUMPDEST POP SWAP1 POP PUSH1 0x1 PUSH0 SWAP1 SLOAD SWAP1 PUSH2 0x100 EXP SWAP1 DIV PUSH20 0xFFFFFFFFFFFFFFFFFFFFFFFFFFFFFFFFFFFFFFFF AND DUP2 PUSH0 DUP2 MLOAD DUP2 LT PUSH2 0x4D1 JUMPI PUSH2 0x4D0 PUSH2 0xDF2 JUMP JUMPDEST JUMPDEST PUSH1 0x20 MUL PUSH1 0x20 ADD ADD SWAP1 PUSH20 0xFFFFFFFFFFFFFFFFFFFFFFFFFFFFFFFFFFFFFFFF AND SWAP1 DUP2 PUSH20 0xFFFFFFFFFFFFFFFFFFFFFFFFFFFFFFFFFFFFFFFF AND DUP2 MSTORE POP POP PUSH1 0x2 PUSH0 SWAP1 SLOAD SWAP1 PUSH2 0x100 EXP SWAP1 DIV PUSH20 0xFFFFFFFFFFFFFFFFFFFFFFFFFFFFFFFFFFFFFFFF AND DUP2 PUSH1 0x1 DUP2 MLOAD DUP2 LT PUSH2 0x541 JUMPI PUSH2 0x540 PUSH2 0xDF2 JUMP JUMPDEST JUMPDEST PUSH1 0x20 MUL PUSH1 0x20 ADD ADD SWAP1 PUSH20 0xFFFFFFFFFFFFFFFFFFFFFFFFFFFFFFFFFFFFFFFF AND SWAP1 DUP2 PUSH20 0xFFFFFFFFFFFFFFFFFFFFFFFFFFFFFFFFFFFFFFFF AND DUP2 MSTORE POP POP PUSH0 PUSH1 0x3 PUSH0 SWAP1 SLOAD SWAP1 PUSH2 0x100 EXP SWAP1 DIV PUSH20 0xFFFFFFFFFFFFFFFFFFFFFFFFFFFFFFFFFFFFFFFF AND SWAP1 POP PUSH0 DUP2 PUSH20 0xFFFFFFFFFFFFFFFFFFFFFFFFFFFFFFFFFFFFFFFF AND PUSH4 0xD06CA61F PUSH4 0x3B9ACA00 DUP6 PUSH1 0x40 MLOAD DUP4 PUSH4 0xFFFFFFFF AND PUSH1 0xE0 SHL DUP2 MSTORE PUSH1 0x4 ADD PUSH2 0x5E0 SWAP3 SWAP2 SWAP1 PUSH2 0x11EF JUMP JUMPDEST PUSH0 PUSH1 0x40 MLOAD DUP1 DUP4 SUB DUP2 DUP7 GAS STATICCALL ISZERO DUP1 ISZERO PUSH2 0x5FA JUMPI RETURNDATASIZE PUSH0 DUP1 RETURNDATACOPY RETURNDATASIZE PUSH0 REVERT JUMPDEST POP POP POP POP PUSH1 0x40 MLOAD RETURNDATASIZE PUSH0 DUP3 RETURNDATACOPY RETURNDATASIZE PUSH1 0x1F NOT PUSH1 0x1F DUP3 ADD AND DUP3 ADD DUP1 PUSH1 0x40 MSTORE POP DUP2 ADD SWAP1 PUSH2 0x622 SWAP2 SWAP1 PUSH2 0x1354 JUMP JUMPDEST SWAP1 POP DUP1 PUSH1 0x1 DUP2 MLOAD DUP2 LT PUSH2 0x638 JUMPI PUSH2 0x637 PUSH2 0xDF2 JUMP JUMPDEST JUMPDEST PUSH1 0x20 MUL PUSH1 0x20 ADD ADD MLOAD SWAP4 POP POP POP POP SWAP1 JUMP JUMPDEST PUSH0 DUP3 GT PUSH2 0x68A JUMPI PUSH1 0x40 MLOAD PUSH32 0x8C379A000000000000000000000000000000000000000000000000000000000 DUP2 MSTORE PUSH1 0x4 ADD PUSH2 0x681 SWAP1 PUSH2 0x13E5 JUMP JUMPDEST PUSH1 0x40 MLOAD DUP1 SWAP2 SUB SWAP1 REVERT JUMPDEST PUSH0 DUP2 GT PUSH2 0x6CC JUMPI PUSH1 0x40 MLOAD PUSH32 0x8C379A000000000000000000000000000000000000000000000000000000000 DUP2 MSTORE PUSH1 0x4 ADD PUSH2 0x6C3 SWAP1 PUSH2 0x144D JUMP JUMPDEST PUSH1 0x40 MLOAD DUP1 SWAP2 SUB SWAP1 REVERT JUMPDEST PUSH0 PUSH2 0x6D5 PUSH2 0x970 JUMP JUMPDEST SWAP1 POP PUSH0 PUSH2 0x6E2 DUP4 DUP6 PUSH2 0x9FA JUMP JUMPDEST SWAP1 POP PUSH0 PUSH1 0x12 PUSH1 0xA PUSH2 0x6F3 SWAP2 SWAP1 PUSH2 0xFAE JUMP JUMPDEST DUP4 DUP7 PUSH2 0x6FF SWAP2 SWAP1 PUSH2 0xFF8 JUMP JUMPDEST PUSH2 0x709 SWAP2 SWAP1 PUSH2 0x1066 JUMP JUMPDEST SWAP1 POP PUSH0 PUSH3 0x15180 DUP6 PUSH2 0x71B SWAP2 SWAP1 PUSH2 0xFF8 JUMP JUMPDEST TIMESTAMP PUSH2 0x726 SWAP2 SWAP1 PUSH2 0x1096 JUMP JUMPDEST SWAP1 POP PUSH1 0x5 PUSH0 CALLER PUSH20 0xFFFFFFFFFFFFFFFFFFFFFFFFFFFFFFFFFFFFFFFF AND PUSH20 0xFFFFFFFFFFFFFFFFFFFFFFFFFFFFFFFFFFFFFFFF AND DUP2 MSTORE PUSH1 0x20 ADD SWAP1 DUP2 MSTORE PUSH1 0x20 ADD PUSH0 KECCAK256 PUSH1 0x40 MLOAD DUP1 PUSH1 0xA0 ADD PUSH1 0x40 MSTORE DUP1 DUP8 DUP2 MSTORE PUSH1 0x20 ADD DUP9 DUP2 MSTORE PUSH1 0x20 ADD DUP4 DUP2 MSTORE PUSH1 0x20 ADD DUP7 DUP2 MSTORE PUSH1 0x20 ADD DUP5 DUP2 MSTORE POP SWAP1 DUP1 PUSH1 0x1 DUP2 SLOAD ADD DUP1 DUP3 SSTORE DUP1 SWAP2 POP POP PUSH1 0x1 SWAP1 SUB SWAP1 PUSH0 MSTORE PUSH1 0x20 PUSH0 KECCAK256 SWAP1 PUSH1 0x5 MUL ADD PUSH0 SWAP1 SWAP2 SWAP1 SWAP2 SWAP1 SWAP2 POP PUSH0 DUP3 ADD MLOAD DUP2 PUSH0 ADD SSTORE PUSH1 0x20 DUP3 ADD MLOAD DUP2 PUSH1 0x1 ADD SSTORE PUSH1 0x40 DUP3 ADD MLOAD DUP2 PUSH1 0x2 ADD SSTORE PUSH1 0x60 DUP3 ADD MLOAD DUP2 PUSH1 0x3 ADD SSTORE PUSH1 0x80 DUP3 ADD MLOAD DUP2 PUSH1 0x4 ADD SSTORE POP POP CALLER PUSH20 0xFFFFFFFFFFFFFFFFFFFFFFFFFFFFFFFFFFFFFFFF AND PUSH32 0xC16BE9A586414A157DD46B4D023AA9997A025DD1CBBAA67AC0C1B8273A5EAF55 DUP8 DUP8 DUP5 DUP9 DUP9 DUP9 PUSH1 0x40 MLOAD PUSH2 0x834 SWAP7 SWAP6 SWAP5 SWAP4 SWAP3 SWAP2 SWAP1 PUSH2 0x146B JUMP JUMPDEST PUSH1 0x40 MLOAD DUP1 SWAP2 SUB SWAP1 LOG2 POP POP POP POP POP POP JUMP JUMPDEST PUSH0 DUP1 PUSH1 0x4 PUSH0 SWAP1 SLOAD SWAP1 PUSH2 0x100 EXP SWAP1 DIV PUSH20 0xFFFFFFFFFFFFFFFFFFFFFFFFFFFFFFFFFFFFFFFF AND SWAP1 POP PUSH0 DUP2 PUSH20 0xFFFFFFFFFFFFFFFFFFFFFFFFFFFFFFFFFFFFFFFF AND PUSH4 0x50D25BCD PUSH1 0x40 MLOAD DUP2 PUSH4 0xFFFFFFFF AND PUSH1 0xE0 SHL DUP2 MSTORE PUSH1 0x4 ADD PUSH1 0x20 PUSH1 0x40 MLOAD DUP1 DUP4 SUB DUP2 DUP7 GAS STATICCALL ISZERO DUP1 ISZERO PUSH2 0x8B4 JUMPI RETURNDATASIZE PUSH0 DUP1 RETURNDATACOPY RETURNDATASIZE PUSH0 REVERT JUMPDEST POP POP POP POP PUSH1 0x40 MLOAD RETURNDATASIZE PUSH1 0x1F NOT PUSH1 0x1F DUP3 ADD AND DUP3 ADD DUP1 PUSH1 0x40 MSTORE POP DUP2 ADD SWAP1 PUSH2 0x8D8 SWAP2 SWAP1 PUSH2 0x14FD JUMP JUMPDEST SWAP1 POP PUSH0 DUP2 SGT PUSH2 0x91C JUMPI PUSH1 0x40 MLOAD PUSH32 0x8C379A000000000000000000000000000000000000000000000000000000000 DUP2 MSTORE PUSH1 0x4 ADD PUSH2 0x913 SWAP1 PUSH2 0x1572 JUMP JUMPDEST PUSH1 0x40 MLOAD DUP1 SWAP2 SUB SWAP1 REVERT JUMPDEST DUP1 SWAP3 POP POP POP SWAP1 JUMP JUMPDEST PUSH1 0x5 PUSH1 0x20 MSTORE DUP2 PUSH0 MSTORE PUSH1 0x40 PUSH0 KECCAK256 DUP2 DUP2 SLOAD DUP2 LT PUSH2 0x93D JUMPI PUSH0 DUP1 REVERT JUMPDEST SWAP1 PUSH0 MSTORE PUSH1 0x20 PUSH0 KECCAK256 SWAP1 PUSH1 0x5 MUL ADD PUSH0 SWAP2 POP SWAP2 POP POP DUP1 PUSH0 ADD SLOAD SWAP1 DUP1 PUSH1 0x1 ADD SLOAD SWAP1 DUP1 PUSH1 0x2 ADD SLOAD SWAP1 DUP1 PUSH1 0x3 ADD SLOAD SWAP1 DUP1 PUSH1 0x4 ADD SLOAD SWAP1 POP DUP6 JUMP JUMPDEST PUSH0 DUP1 PUSH2 0x97A PUSH2 0x844 JUMP JUMPDEST SWAP1 POP PUSH0 PUSH2 0x985 PUSH2 0x44E JUMP JUMPDEST SWAP1 POP PUSH1 0x12 PUSH1 0xA PUSH2 0x995 SWAP2 SWAP1 PUSH2 0xFAE JUMP JUMPDEST DUP3 DUP3 PUSH2 0x9A1 SWAP2 SWAP1 PUSH2 0xFF8 JUMP JUMPDEST PUSH2 0x9AB SWAP2 SWAP1 PUSH2 0x1066 JUMP JUMPDEST SWAP3 POP POP POP SWAP1 JUMP JUMPDEST PUSH1 0x1 PUSH0 SWAP1 SLOAD SWAP1 PUSH2 0x100 EXP SWAP1 DIV PUSH20 0xFFFFFFFFFFFFFFFFFFFFFFFFFFFFFFFFFFFFFFFF AND DUP2 JUMP JUMPDEST PUSH0 DUP1 SLOAD SWAP1 PUSH2 0x100 EXP SWAP1 DIV PUSH20 0xFFFFFFFFFFFFFFFFFFFFFFFFFFFFFFFFFFFFFFFF AND DUP2 JUMP JUMPDEST PUSH0 DUP1 PUSH2 0xA05 DUP5 PUSH2 0xA29 JUMP JUMPDEST SWAP1 POP PUSH2 0x2710 DUP2 DUP5 PUSH2 0xA16 SWAP2 SWAP1 PUSH2 0xFF8 JUMP JUMPDEST PUSH2 0xA20 SWAP2 SWAP1 PUSH2 0x1066 JUMP JUMPDEST SWAP2 POP POP SWAP3 SWAP2 POP POP JUMP JUMPDEST PUSH0 DUP1 PUSH1 0x1E DUP4 PUSH2 0xA38 SWAP2 SWAP1 PUSH2 0x1590 JUMP JUMPDEST EQ PUSH2 0xA78 JUMPI PUSH1 0x40 MLOAD PUSH32 0x8C379A000000000000000000000000000000000000000000000000000000000 DUP2 MSTORE PUSH1 0x4 ADD PUSH2 0xA6F SWAP1 PUSH2 0x144D JUMP JUMPDEST PUSH1 0x40 MLOAD DUP1 SWAP2 SUB SWAP1 REVERT JUMPDEST PUSH1 0x1E DUP3 SUB PUSH2 0xA8A JUMPI PUSH2 0xEA6 SWAP1 POP PUSH2 0xB8F JUMP JUMPDEST PUSH1 0x3C DUP3 SUB PUSH2 0xA9C JUMPI PUSH2 0x15F9 SWAP1 POP PUSH2 0xB8F JUMP JUMPDEST PUSH1 0x5A DUP3 SUB PUSH2 0xAAE JUMPI PUSH2 0x1E36 SWAP1 POP PUSH2 0xB8F JUMP JUMPDEST PUSH1 0x78 DUP3 SUB PUSH2 0xAC0 JUMPI PUSH2 0x26B5 SWAP1 POP PUSH2 0xB8F JUMP JUMPDEST PUSH1 0x96 DUP3 SUB PUSH2 0xAD2 JUMPI PUSH2 0x2EE0 SWAP1 POP PUSH2 0xB8F JUMP JUMPDEST PUSH1 0xB4 DUP3 SUB PUSH2 0xAE4 JUMPI PUSH2 0x364A SWAP1 POP PUSH2 0xB8F JUMP JUMPDEST PUSH1 0xD2 DUP3 SUB PUSH2 0xAF6 JUMPI PUSH2 0x3CBB SWAP1 POP PUSH2 0xB8F JUMP JUMPDEST PUSH1 0xF0 DUP3 SUB PUSH2 0xB08 JUMPI PUSH2 0x4223 SWAP1 POP PUSH2 0xB8F JUMP JUMPDEST PUSH2 0x10E DUP3 SUB PUSH2 0xB1B JUMPI PUSH2 0x468D SWAP1 POP PUSH2 0xB8F JUMP JUMPDEST PUSH2 0x12C DUP3 SUB PUSH2 0xB2E JUMPI PUSH2 0x4A15 SWAP1 POP PUSH2 0xB8F JUMP JUMPDEST PUSH2 0x14A DUP3 SUB PUSH2 0xB41 JUMPI PUSH2 0x4CDD SWAP1 POP PUSH2 0xB8F JUMP JUMPDEST PUSH2 0x168 DUP3 SUB PUSH2 0xB54 JUMPI PUSH2 0x4F07 SWAP1 POP PUSH2 0xB8F JUMP JUMPDEST PUSH1 0x40 MLOAD PUSH32 0x8C379A000000000000000000000000000000000000000000000000000000000 DUP2 MSTORE PUSH1 0x4 ADD PUSH2 0xB86 SWAP1 PUSH2 0x144D JUMP JUMPDEST PUSH1 0x40 MLOAD DUP1 SWAP2 SUB SWAP1 REVERT JUMPDEST SWAP2 SWAP1 POP JUMP JUMPDEST PUSH0 PUSH20 0xFFFFFFFFFFFFFFFFFFFFFFFFFFFFFFFFFFFFFFFF DUP3 AND SWAP1 POP SWAP2 SWAP1 POP JUMP JUMPDEST PUSH0 PUSH2 0xBBD DUP3 PUSH2 0xB94 JUMP JUMPDEST SWAP1 POP SWAP2 SWAP1 POP JUMP JUMPDEST PUSH2 0xBCD DUP2 PUSH2 0xBB3 JUMP JUMPDEST DUP3 MSTORE POP POP JUMP JUMPDEST PUSH0 PUSH1 0x20 DUP3 ADD SWAP1 POP PUSH2 0xBE6 PUSH0 DUP4 ADD DUP5 PUSH2 0xBC4 JUMP JUMPDEST SWAP3 SWAP2 POP POP JUMP JUMPDEST PUSH0 DUP2 SWAP1 POP SWAP2 SWAP1 POP JUMP JUMPDEST PUSH2 0xBFE DUP2 PUSH2 0xBEC JUMP JUMPDEST DUP3 MSTORE POP POP JUMP JUMPDEST PUSH0 PUSH1 0x20 DUP3 ADD SWAP1 POP PUSH2 0xC17 PUSH0 DUP4 ADD DUP5 PUSH2 0xBF5 JUMP JUMPDEST SWAP3 SWAP2 POP POP JUMP JUMPDEST PUSH0 PUSH1 0x40 MLOAD SWAP1 POP SWAP1 JUMP JUMPDEST PUSH0 DUP1 REVERT JUMPDEST PUSH0 DUP1 REVERT JUMPDEST PUSH2 0xC37 DUP2 PUSH2 0xBEC JUMP JUMPDEST DUP2 EQ PUSH2 0xC41 JUMPI PUSH0 DUP1 REVERT JUMPDEST POP JUMP JUMPDEST PUSH0 DUP2 CALLDATALOAD SWAP1 POP PUSH2 0xC52 DUP2 PUSH2 0xC2E JUMP JUMPDEST SWAP3 SWAP2 POP POP JUMP JUMPDEST PUSH0 PUSH1 0x20 DUP3 DUP5 SUB SLT ISZERO PUSH2 0xC6D JUMPI PUSH2 0xC6C PUSH2 0xC26 JUMP JUMPDEST JUMPDEST PUSH0 PUSH2 0xC7A DUP5 DUP3 DUP6 ADD PUSH2 0xC44 JUMP JUMPDEST SWAP2 POP POP SWAP3 SWAP2 POP POP JUMP JUMPDEST PUSH0 DUP1 PUSH1 0x40 DUP4 DUP6 SUB SLT ISZERO PUSH2 0xC99 JUMPI PUSH2 0xC98 PUSH2 0xC26 JUMP JUMPDEST JUMPDEST PUSH0 PUSH2 0xCA6 DUP6 DUP3 DUP7 ADD PUSH2 0xC44 JUMP JUMPDEST SWAP3 POP POP PUSH1 0x20 PUSH2 0xCB7 DUP6 DUP3 DUP7 ADD PUSH2 0xC44 JUMP JUMPDEST SWAP2 POP POP SWAP3 POP SWAP3 SWAP1 POP JUMP JUMPDEST PUSH2 0xCCA DUP2 PUSH2 0xBB3 JUMP JUMPDEST DUP2 EQ PUSH2 0xCD4 JUMPI PUSH0 DUP1 REVERT JUMPDEST POP JUMP JUMPDEST PUSH0 DUP2 CALLDATALOAD SWAP1 POP PUSH2 0xCE5 DUP2 PUSH2 0xCC1 JUMP JUMPDEST SWAP3 SWAP2 POP POP JUMP JUMPDEST PUSH0 DUP1 PUSH1 0x40 DUP4 DUP6 SUB SLT ISZERO PUSH2 0xD01 JUMPI PUSH2 0xD00 PUSH2 0xC26 JUMP JUMPDEST JUMPDEST PUSH0 PUSH2 0xD0E DUP6 DUP3 DUP7 ADD PUSH2 0xCD7 JUMP JUMPDEST SWAP3 POP POP PUSH1 0x20 PUSH2 0xD1F DUP6 DUP3 DUP7 ADD PUSH2 0xC44 JUMP JUMPDEST SWAP2 POP POP SWAP3 POP SWAP3 SWAP1 POP JUMP JUMPDEST PUSH0 PUSH1 0xA0 DUP3 ADD SWAP1 POP PUSH2 0xD3C PUSH0 DUP4 ADD DUP9 PUSH2 0xBF5 JUMP JUMPDEST PUSH2 0xD49 PUSH1 0x20 DUP4 ADD DUP8 PUSH2 0xBF5 JUMP JUMPDEST PUSH2 0xD56 PUSH1 0x40 DUP4 ADD DUP7 PUSH2 0xBF5 JUMP JUMPDEST PUSH2 0xD63 PUSH1 0x60 DUP4 ADD DUP6 PUSH2 0xBF5 JUMP JUMPDEST PUSH2 0xD70 PUSH1 0x80 DUP4 ADD DUP5 PUSH2 0xBF5 JUMP JUMPDEST SWAP7 SWAP6 POP POP POP POP POP POP JUMP JUMPDEST PUSH0 DUP3 DUP3 MSTORE PUSH1 0x20 DUP3 ADD SWAP1 POP SWAP3 SWAP2 POP POP JUMP JUMPDEST PUSH32 0x496E76616C696420696E64657800000000000000000000000000000000000000 PUSH0 DUP3 ADD MSTORE POP JUMP JUMPDEST PUSH0 PUSH2 0xDBE PUSH1 0xD DUP4 PUSH2 0xD7A JUMP JUMPDEST SWAP2 POP PUSH2 0xDC9 DUP3 PUSH2 0xD8A JUMP JUMPDEST PUSH1 0x20 DUP3 ADD SWAP1 POP SWAP2 SWAP1 POP JUMP JUMPDEST PUSH0 PUSH1 0x20 DUP3 ADD SWAP1 POP DUP2 DUP2 SUB PUSH0 DUP4 ADD MSTORE PUSH2 0xDEB DUP2 PUSH2 0xDB2 JUMP JUMPDEST SWAP1 POP SWAP2 SWAP1 POP JUMP JUMPDEST PUSH32 0x4E487B7100000000000000000000000000000000000000000000000000000000 PUSH0 MSTORE PUSH1 0x32 PUSH1 0x4 MSTORE PUSH1 0x24 PUSH0 REVERT JUMPDEST PUSH32 0x4E487B7100000000000000000000000000000000000000000000000000000000 PUSH0 MSTORE PUSH1 0x11 PUSH1 0x4 MSTORE PUSH1 0x24 PUSH0 REVERT JUMPDEST PUSH0 PUSH2 0xE56 DUP3 PUSH2 0xBEC JUMP JUMPDEST SWAP2 POP PUSH2 0xE61 DUP4 PUSH2 0xBEC JUMP JUMPDEST SWAP3 POP DUP3 DUP3 SUB SWAP1 POP DUP2 DUP2 GT ISZERO PUSH2 0xE79 JUMPI PUSH2 0xE78 PUSH2 0xE1F JUMP JUMPDEST JUMPDEST SWAP3 SWAP2 POP POP JUMP JUMPDEST PUSH0 DUP2 PUSH1 0x1 SHR SWAP1 POP SWAP2 SWAP1 POP JUMP JUMPDEST PUSH0 DUP1 DUP3 SWAP2 POP DUP4 SWAP1 POP JUMPDEST PUSH1 0x1 DUP6 GT ISZERO PUSH2 0xED4 JUMPI DUP1 DUP7 DIV DUP2 GT ISZERO PUSH2 0xEB0 JUMPI PUSH2 0xEAF PUSH2 0xE1F JUMP JUMPDEST JUMPDEST PUSH1 0x1 DUP6 AND ISZERO PUSH2 0xEBF JUMPI DUP1 DUP3 MUL SWAP2 POP JUMPDEST DUP1 DUP2 MUL SWAP1 POP PUSH2 0xECD DUP6 PUSH2 0xE7F JUMP JUMPDEST SWAP5 POP PUSH2 0xE94 JUMP JUMPDEST SWAP5 POP SWAP5 SWAP3 POP POP POP JUMP JUMPDEST PUSH0 DUP3 PUSH2 0xEEC JUMPI PUSH1 0x1 SWAP1 POP PUSH2 0xFA7 JUMP JUMPDEST DUP2 PUSH2 0xEF9 JUMPI PUSH0 SWAP1 POP PUSH2 0xFA7 JUMP JUMPDEST DUP2 PUSH1 0x1 DUP2 EQ PUSH2 0xF0F JUMPI PUSH1 0x2 DUP2 EQ PUSH2 0xF19 JUMPI PUSH2 0xF48 JUMP JUMPDEST PUSH1 0x1 SWAP2 POP POP PUSH2 0xFA7 JUMP JUMPDEST PUSH1 0xFF DUP5 GT ISZERO PUSH2 0xF2B JUMPI PUSH2 0xF2A PUSH2 0xE1F JUMP JUMPDEST JUMPDEST DUP4 PUSH1 0x2 EXP SWAP2 POP DUP5 DUP3 GT ISZERO PUSH2 0xF42 JUMPI PUSH2 0xF41 PUSH2 0xE1F JUMP JUMPDEST JUMPDEST POP PUSH2 0xFA7 JUMP JUMPDEST POP PUSH1 0x20 DUP4 LT PUSH2 0x133 DUP4 LT AND PUSH1 0x4E DUP5 LT PUSH1 0xB DUP5 LT AND OR ISZERO PUSH2 0xF7D JUMPI DUP3 DUP3 EXP SWAP1 POP DUP4 DUP2 GT ISZERO PUSH2 0xF78 JUMPI PUSH2 0xF77 PUSH2 0xE1F JUMP JUMPDEST JUMPDEST PUSH2 0xFA7 JUMP JUMPDEST PUSH2 0xF8A DUP5 DUP5 DUP5 PUSH1 0x1 PUSH2 0xE8B JUMP JUMPDEST SWAP3 POP SWAP1 POP DUP2 DUP5 DIV DUP2 GT ISZERO PUSH2 0xFA1 JUMPI PUSH2 0xFA0 PUSH2 0xE1F JUMP JUMPDEST JUMPDEST DUP2 DUP2 MUL SWAP1 POP JUMPDEST SWAP4 SWAP3 POP POP POP JUMP JUMPDEST PUSH0 PUSH2 0xFB8 DUP3 PUSH2 0xBEC JUMP JUMPDEST SWAP2 POP PUSH2 0xFC3 DUP4 PUSH2 0xBEC JUMP JUMPDEST SWAP3 POP PUSH2 0xFF0 PUSH32 0xFFFFFFFFFFFFFFFFFFFFFFFFFFFFFFFFFFFFFFFFFFFFFFFFFFFFFFFFFFFFFFFF DUP5 DUP5 PUSH2 0xEDD JUMP JUMPDEST SWAP1 POP SWAP3 SWAP2 POP POP JUMP JUMPDEST PUSH0 PUSH2 0x1002 DUP3 PUSH2 0xBEC JUMP JUMPDEST SWAP2 POP PUSH2 0x100D DUP4 PUSH2 0xBEC JUMP JUMPDEST SWAP3 POP DUP3 DUP3 MUL PUSH2 0x101B DUP2 PUSH2 0xBEC JUMP JUMPDEST SWAP2 POP DUP3 DUP3 DIV DUP5 EQ DUP4 ISZERO OR PUSH2 0x1032 JUMPI PUSH2 0x1031 PUSH2 0xE1F JUMP JUMPDEST JUMPDEST POP SWAP3 SWAP2 POP POP JUMP JUMPDEST PUSH32 0x4E487B7100000000000000000000000000000000000000000000000000000000 PUSH0 MSTORE PUSH1 0x12 PUSH1 0x4 MSTORE PUSH1 0x24 PUSH0 REVERT JUMPDEST PUSH0 PUSH2 0x1070 DUP3 PUSH2 0xBEC JUMP JUMPDEST SWAP2 POP PUSH2 0x107B DUP4 PUSH2 0xBEC JUMP JUMPDEST SWAP3 POP DUP3 PUSH2 0x108B JUMPI PUSH2 0x108A PUSH2 0x1039 JUMP JUMPDEST JUMPDEST DUP3 DUP3 DIV SWAP1 POP SWAP3 SWAP2 POP POP JUMP JUMPDEST PUSH0 PUSH2 0x10A0 DUP3 PUSH2 0xBEC JUMP JUMPDEST SWAP2 POP PUSH2 0x10AB DUP4 PUSH2 0xBEC JUMP JUMPDEST SWAP3 POP DUP3 DUP3 ADD SWAP1 POP DUP1 DUP3 GT ISZERO PUSH2 0x10C3 JUMPI PUSH2 0x10C2 PUSH2 0xE1F JUMP JUMPDEST JUMPDEST SWAP3 SWAP2 POP POP JUMP JUMPDEST PUSH32 0x4E487B7100000000000000000000000000000000000000000000000000000000 PUSH0 MSTORE PUSH1 0x41 PUSH1 0x4 MSTORE PUSH1 0x24 PUSH0 REVERT JUMPDEST PUSH0 DUP2 SWAP1 POP SWAP2 SWAP1 POP JUMP JUMPDEST PUSH0 DUP2 SWAP1 POP SWAP2 SWAP1 POP JUMP JUMPDEST PUSH0 PUSH2 0x1122 PUSH2 0x111D PUSH2 0x1118 DUP5 PUSH2 0x10F6 JUMP JUMPDEST PUSH2 0x10FF JUMP JUMPDEST PUSH2 0xBEC JUMP JUMPDEST SWAP1 POP SWAP2 SWAP1 POP JUMP JUMPDEST PUSH2 0x1132 DUP2 PUSH2 0x1108 JUMP JUMPDEST DUP3 MSTORE POP POP JUMP JUMPDEST PUSH0 DUP2 MLOAD SWAP1 POP SWAP2 SWAP1 POP JUMP JUMPDEST PUSH0 DUP3 DUP3 MSTORE PUSH1 0x20 DUP3 ADD SWAP1 POP SWAP3 SWAP2 POP POP JUMP JUMPDEST PUSH0 DUP2 SWAP1 POP PUSH1 0x20 DUP3 ADD SWAP1 POP SWAP2 SWAP1 POP JUMP JUMPDEST PUSH2 0x116A DUP2 PUSH2 0xBB3 JUMP JUMPDEST DUP3 MSTORE POP POP JUMP JUMPDEST PUSH0 PUSH2 0x117B DUP4 DUP4 PUSH2 0x1161 JUMP JUMPDEST PUSH1 0x20 DUP4 ADD SWAP1 POP SWAP3 SWAP2 POP POP JUMP JUMPDEST PUSH0 PUSH1 0x20 DUP3 ADD SWAP1 POP SWAP2 SWAP1 POP JUMP JUMPDEST PUSH0 PUSH2 0x119D DUP3 PUSH2 0x1138 JUMP JUMPDEST PUSH2 0x11A7 DUP2 DUP6 PUSH2 0x1142 JUMP JUMPDEST SWAP4 POP PUSH2 0x11B2 DUP4 PUSH2 0x1152 JUMP JUMPDEST DUP1 PUSH0 JUMPDEST DUP4 DUP2 LT ISZERO PUSH2 0x11E2 JUMPI DUP2 MLOAD PUSH2 0x11C9 DUP9 DUP3 PUSH2 0x1170 JUMP JUMPDEST SWAP8 POP PUSH2 0x11D4 DUP4 PUSH2 0x1187 JUMP JUMPDEST SWAP3 POP POP PUSH1 0x1 DUP2 ADD SWAP1 POP PUSH2 0x11B5 JUMP JUMPDEST POP DUP6 SWAP4 POP POP POP POP SWAP3 SWAP2 POP POP JUMP JUMPDEST PUSH0 PUSH1 0x40 DUP3 ADD SWAP1 POP PUSH2 0x1202 PUSH0 DUP4 ADD DUP6 PUSH2 0x1129 JUMP JUMPDEST DUP2 DUP2 SUB PUSH1 0x20 DUP4 ADD MSTORE PUSH2 0x1214 DUP2 DUP5 PUSH2 0x1193 JUMP JUMPDEST SWAP1 POP SWAP4 SWAP3 POP POP POP JUMP JUMPDEST PUSH0 DUP1 REVERT JUMPDEST PUSH0 PUSH1 0x1F NOT PUSH1 0x1F DUP4 ADD AND SWAP1 POP SWAP2 SWAP1 POP JUMP JUMPDEST PUSH2 0x123A DUP3 PUSH2 0x1221 JUMP JUMPDEST DUP2 ADD DUP2 DUP2 LT PUSH8 0xFFFFFFFFFFFFFFFF DUP3 GT OR ISZERO PUSH2 0x1259 JUMPI PUSH2 0x1258 PUSH2 0x10C9 JUMP JUMPDEST JUMPDEST DUP1 PUSH1 0x40 MSTORE POP POP POP JUMP JUMPDEST PUSH0 PUSH2 0x126B PUSH2 0xC1D JUMP JUMPDEST SWAP1 POP PUSH2 0x1277 DUP3 DUP3 PUSH2 0x1231 JUMP JUMPDEST SWAP2 SWAP1 POP JUMP JUMPDEST PUSH0 PUSH8 0xFFFFFFFFFFFFFFFF DUP3 GT ISZERO PUSH2 0x1296 JUMPI PUSH2 0x1295 PUSH2 0x10C9 JUMP JUMPDEST JUMPDEST PUSH1 0x20 DUP3 MUL SWAP1 POP PUSH1 0x20 DUP2 ADD SWAP1 POP SWAP2 SWAP1 POP JUMP JUMPDEST PUSH0 DUP1 REVERT JUMPDEST PUSH0 DUP2 MLOAD SWAP1 POP PUSH2 0x12B9 DUP2 PUSH2 0xC2E JUMP JUMPDEST SWAP3 SWAP2 POP POP JUMP JUMPDEST PUSH0 PUSH2 0x12D1 PUSH2 0x12CC DUP5 PUSH2 0x127C JUMP JUMPDEST PUSH2 0x1262 JUMP JUMPDEST SWAP1 POP DUP1 DUP4 DUP3 MSTORE PUSH1 0x20 DUP3 ADD SWAP1 POP PUSH1 0x20 DUP5 MUL DUP4 ADD DUP6 DUP2 GT ISZERO PUSH2 0x12F4 JUMPI PUSH2 0x12F3 PUSH2 0x12A7 JUMP JUMPDEST JUMPDEST DUP4 JUMPDEST DUP2 DUP2 LT ISZERO PUSH2 0x131D JUMPI DUP1 PUSH2 0x1309 DUP9 DUP3 PUSH2 0x12AB JUMP JUMPDEST DUP5 MSTORE PUSH1 0x20 DUP5 ADD SWAP4 POP POP PUSH1 0x20 DUP2 ADD SWAP1 POP PUSH2 0x12F6 JUMP JUMPDEST POP POP POP SWAP4 SWAP3 POP POP POP JUMP JUMPDEST PUSH0 DUP3 PUSH1 0x1F DUP4 ADD SLT PUSH2 0x133B JUMPI PUSH2 0x133A PUSH2 0x121D JUMP JUMPDEST JUMPDEST DUP2 MLOAD PUSH2 0x134B DUP5 DUP3 PUSH1 0x20 DUP7 ADD PUSH2 0x12BF JUMP JUMPDEST SWAP2 POP POP SWAP3 SWAP2 POP POP JUMP JUMPDEST PUSH0 PUSH1 0x20 DUP3 DUP5 SUB SLT ISZERO PUSH2 0x1369 JUMPI PUSH2 0x1368 PUSH2 0xC26 JUMP JUMPDEST JUMPDEST PUSH0 DUP3 ADD MLOAD PUSH8 0xFFFFFFFFFFFFFFFF DUP2 GT ISZERO PUSH2 0x1386 JUMPI PUSH2 0x1385 PUSH2 0xC2A JUMP JUMPDEST JUMPDEST PUSH2 0x1392 DUP5 DUP3 DUP6 ADD PUSH2 0x1327 JUMP JUMPDEST SWAP2 POP POP SWAP3 SWAP2 POP POP JUMP JUMPDEST PUSH32 0x496E76616C696420616D6F756E74000000000000000000000000000000000000 PUSH0 DUP3 ADD MSTORE POP JUMP JUMPDEST PUSH0 PUSH2 0x13CF PUSH1 0xE DUP4 PUSH2 0xD7A JUMP JUMPDEST SWAP2 POP PUSH2 0x13DA DUP3 PUSH2 0x139B JUMP JUMPDEST PUSH1 0x20 DUP3 ADD SWAP1 POP SWAP2 SWAP1 POP JUMP JUMPDEST PUSH0 PUSH1 0x20 DUP3 ADD SWAP1 POP DUP2 DUP2 SUB PUSH0 DUP4 ADD MSTORE PUSH2 0x13FC DUP2 PUSH2 0x13C3 JUMP JUMPDEST SWAP1 POP SWAP2 SWAP1 POP JUMP JUMPDEST PUSH32 0x496E76616C6964206475726174696F6E00000000000000000000000000000000 PUSH0 DUP3 ADD MSTORE POP JUMP JUMPDEST PUSH0 PUSH2 0x1437 PUSH1 0x10 DUP4 PUSH2 0xD7A JUMP JUMPDEST SWAP2 POP PUSH2 0x1442 DUP3 PUSH2 0x1403 JUMP JUMPDEST PUSH1 0x20 DUP3 ADD SWAP1 POP SWAP2 SWAP1 POP JUMP JUMPDEST PUSH0 PUSH1 0x20 DUP3 ADD SWAP1 POP DUP2 DUP2 SUB PUSH0 DUP4 ADD MSTORE PUSH2 0x1464 DUP2 PUSH2 0x142B JUMP JUMPDEST SWAP1 POP SWAP2 SWAP1 POP JUMP JUMPDEST PUSH0 PUSH1 0xC0 DUP3 ADD SWAP1 POP PUSH2 0x147E PUSH0 DUP4 ADD DUP10 PUSH2 0xBF5 JUMP JUMPDEST PUSH2 0x148B PUSH1 0x20 DUP4 ADD DUP9 PUSH2 0xBF5 JUMP JUMPDEST PUSH2 0x1498 PUSH1 0x40 DUP4 ADD DUP8 PUSH2 0xBF5 JUMP JUMPDEST PUSH2 0x14A5 PUSH1 0x60 DUP4 ADD DUP7 PUSH2 0xBF5 JUMP JUMPDEST PUSH2 0x14B2 PUSH1 0x80 DUP4 ADD DUP6 PUSH2 0xBF5 JUMP JUMPDEST PUSH2 0x14BF PUSH1 0xA0 DUP4 ADD DUP5 PUSH2 0xBF5 JUMP JUMPDEST SWAP8 SWAP7 POP POP POP POP POP POP POP JUMP JUMPDEST PUSH0 DUP2 SWAP1 POP SWAP2 SWAP1 POP JUMP JUMPDEST PUSH2 0x14DC DUP2 PUSH2 0x14CA JUMP JUMPDEST DUP2 EQ PUSH2 0x14E6 JUMPI PUSH0 DUP1 REVERT JUMPDEST POP JUMP JUMPDEST PUSH0 DUP2 MLOAD SWAP1 POP PUSH2 0x14F7 DUP2 PUSH2 0x14D3 JUMP JUMPDEST SWAP3 SWAP2 POP POP JUMP JUMPDEST PUSH0 PUSH1 0x20 DUP3 DUP5 SUB SLT ISZERO PUSH2 0x1512 JUMPI PUSH2 0x1511 PUSH2 0xC26 JUMP JUMPDEST JUMPDEST PUSH0 PUSH2 0x151F DUP5 DUP3 DUP6 ADD PUSH2 0x14E9 JUMP JUMPDEST SWAP2 POP POP SWAP3 SWAP2 POP POP JUMP JUMPDEST PUSH32 0x496E76616C6964204554482F5553442070726963650000000000000000000000 PUSH0 DUP3 ADD MSTORE POP JUMP JUMPDEST PUSH0 PUSH2 0x155C PUSH1 0x15 DUP4 PUSH2 0xD7A JUMP JUMPDEST SWAP2 POP PUSH2 0x1567 DUP3 PUSH2 0x1528 JUMP JUMPDEST PUSH1 0x20 DUP3 ADD SWAP1 POP SWAP2 SWAP1 POP JUMP JUMPDEST PUSH0 PUSH1 0x20 DUP3 ADD SWAP1 POP DUP2 DUP2 SUB PUSH0 DUP4 ADD MSTORE PUSH2 0x1589 DUP2 PUSH2 0x1550 JUMP JUMPDEST SWAP1 POP SWAP2 SWAP1 POP JUMP JUMPDEST PUSH0 PUSH2 0x159A DUP3 PUSH2 0xBEC JUMP JUMPDEST SWAP2 POP PUSH2 0x15A5 DUP4 PUSH2 0xBEC JUMP JUMPDEST SWAP3 POP DUP3 PUSH2 0x15B5 JUMPI PUSH2 0x15B4 PUSH2 0x1039 JUMP JUMPDEST JUMPDEST DUP3 DUP3 MOD SWAP1 POP SWAP3 SWAP2 POP POP JUMP INVALID LOG2 PUSH5 0x6970667358 0x22 SLT KECCAK256 PUSH6 0xA9100378791D 0xBD ADDMOD PUSH7 0xF4547CADB7BDB6 0xCD PUSH31 0x6DFE4F36AD0795A1450B641AC864736F6C6343000818003300000000000000 "
				},
				"gasEstimates": {
					"creation": {
						"codeDepositCost": "1124400",
						"executionCost": "infinite",
						"totalCost": "infinite"
					},
					"external": {
						"DECIMALS()": "370",
						"admin()": "2615",
						"calculatePriceOfGrlInUsd()": "infinite",
						"ethUsdAggregatorAddress()": "2509",
						"getEthToUsdValue()": "infinite",
						"getPriceOfGrlInEth()": "infinite",
						"grlTokenAddress()": "2596",
						"stake(uint256,uint256)": "infinite",
						"uniswapRouterAddress()": "2531",
						"unstake(uint256)": "infinite",
						"userStakes(address,uint256)": "infinite",
						"wethAddress()": "2597"
					},
					"internal": {
						"calculateStakingFee(uint256,uint256)": "infinite",
						"getStakingFeePercentage(uint256)": "infinite"
					}
				},
				"methodIdentifiers": {
					"DECIMALS()": "2e0f2625",
					"admin()": "f851a440",
					"calculatePriceOfGrlInUsd()": "b92d21c4",
					"ethUsdAggregatorAddress()": "00c3a272",
					"getEthToUsdValue()": "851f7147",
					"getPriceOfGrlInEth()": "50f3845b",
					"grlTokenAddress()": "b9aa6ec4",
					"stake(uint256,uint256)": "7b0472f0",
					"uniswapRouterAddress()": "20ca3c7f",
					"unstake(uint256)": "2e17de78",
					"userStakes(address,uint256)": "b5d5b5fa",
					"wethAddress()": "4f0e0ef3"
				}
			},
			"storageLayout": {
				"storage": [
					{
						"astId": 21,
						"contract": "contracts\\PriceGuranteeStaking.sol:StakingContract",
						"label": "admin",
						"offset": 0,
						"slot": "0",
						"type": "t_address"
					},
					{
						"astId": 23,
						"contract": "contracts\\PriceGuranteeStaking.sol:StakingContract",
						"label": "grlTokenAddress",
						"offset": 0,
						"slot": "1",
						"type": "t_address"
					},
					{
						"astId": 25,
						"contract": "contracts\\PriceGuranteeStaking.sol:StakingContract",
						"label": "wethAddress",
						"offset": 0,
						"slot": "2",
						"type": "t_address"
					},
					{
						"astId": 27,
						"contract": "contracts\\PriceGuranteeStaking.sol:StakingContract",
						"label": "uniswapRouterAddress",
						"offset": 0,
						"slot": "3",
						"type": "t_address"
					},
					{
						"astId": 29,
						"contract": "contracts\\PriceGuranteeStaking.sol:StakingContract",
						"label": "ethUsdAggregatorAddress",
						"offset": 0,
						"slot": "4",
						"type": "t_address"
					},
					{
						"astId": 49,
						"contract": "contracts\\PriceGuranteeStaking.sol:StakingContract",
						"label": "userStakes",
						"offset": 0,
						"slot": "5",
						"type": "t_mapping(t_address,t_array(t_struct(Stake)43_storage)dyn_storage)"
					}
				],
				"types": {
					"t_address": {
						"encoding": "inplace",
						"label": "address",
						"numberOfBytes": "20"
					},
					"t_array(t_struct(Stake)43_storage)dyn_storage": {
						"base": "t_struct(Stake)43_storage",
						"encoding": "dynamic_array",
						"label": "struct StakingContract.Stake[]",
						"numberOfBytes": "32"
					},
					"t_mapping(t_address,t_array(t_struct(Stake)43_storage)dyn_storage)": {
						"encoding": "mapping",
						"key": "t_address",
						"label": "mapping(address => struct StakingContract.Stake[])",
						"numberOfBytes": "32",
						"value": "t_array(t_struct(Stake)43_storage)dyn_storage"
					},
					"t_struct(Stake)43_storage": {
						"encoding": "inplace",
						"label": "struct StakingContract.Stake",
						"members": [
							{
								"astId": 34,
								"contract": "contracts\\PriceGuranteeStaking.sol:StakingContract",
								"label": "durationInDays",
								"offset": 0,
								"slot": "0",
								"type": "t_uint256"
							},
							{
								"astId": 36,
								"contract": "contracts\\PriceGuranteeStaking.sol:StakingContract",
								"label": "amount",
								"offset": 0,
								"slot": "1",
								"type": "t_uint256"
							},
							{
								"astId": 38,
								"contract": "contracts\\PriceGuranteeStaking.sol:StakingContract",
								"label": "timestamp",
								"offset": 0,
								"slot": "2",
								"type": "t_uint256"
							},
							{
								"astId": 40,
								"contract": "contracts\\PriceGuranteeStaking.sol:StakingContract",
								"label": "priceInUsd",
								"offset": 0,
								"slot": "3",
								"type": "t_uint256"
							},
							{
								"astId": 42,
								"contract": "contracts\\PriceGuranteeStaking.sol:StakingContract",
								"label": "amountInUsd",
								"offset": 0,
								"slot": "4",
								"type": "t_uint256"
							}
						],
						"numberOfBytes": "160"
					},
					"t_uint256": {
						"encoding": "inplace",
						"label": "uint256",
						"numberOfBytes": "32"
					}
				}
			},
			"userdoc": {
				"kind": "user",
				"methods": {},
				"version": 1
			}
		}
	}
}