{
	"contracts\\Greelance.sol": {
		"Greelance": {
			"abi": [
				{
					"inputs": [],
					"stateMutability": "nonpayable",
					"type": "constructor"
				},
				{
					"anonymous": false,
					"inputs": [
						{
							"indexed": true,
							"internalType": "address",
							"name": "owner",
							"type": "address"
						},
						{
							"indexed": true,
							"internalType": "address",
							"name": "spender",
							"type": "address"
						},
						{
							"indexed": false,
							"internalType": "uint256",
							"name": "value",
							"type": "uint256"
						}
					],
					"name": "Approval",
					"type": "event"
				},
				{
					"anonymous": false,
					"inputs": [
						{
							"indexed": true,
							"internalType": "address",
							"name": "account",
							"type": "address"
						},
						{
							"indexed": false,
							"internalType": "bool",
							"name": "isExcluded",
							"type": "bool"
						}
					],
					"name": "ExcludeFromFees",
					"type": "event"
				},
				{
					"anonymous": false,
					"inputs": [
						{
							"indexed": true,
							"internalType": "address",
							"name": "previousOwner",
							"type": "address"
						},
						{
							"indexed": true,
							"internalType": "address",
							"name": "newOwner",
							"type": "address"
						}
					],
					"name": "OwnershipTransferred",
					"type": "event"
				},
				{
					"anonymous": false,
					"inputs": [
						{
							"indexed": true,
							"internalType": "address",
							"name": "from",
							"type": "address"
						},
						{
							"indexed": true,
							"internalType": "address",
							"name": "to",
							"type": "address"
						},
						{
							"indexed": false,
							"internalType": "uint256",
							"name": "value",
							"type": "uint256"
						}
					],
					"name": "Transfer",
					"type": "event"
				},
				{
					"inputs": [
						{
							"internalType": "address",
							"name": "owner",
							"type": "address"
						},
						{
							"internalType": "address",
							"name": "spender",
							"type": "address"
						}
					],
					"name": "allowance",
					"outputs": [
						{
							"internalType": "uint256",
							"name": "",
							"type": "uint256"
						}
					],
					"stateMutability": "view",
					"type": "function"
				},
				{
					"inputs": [
						{
							"internalType": "address",
							"name": "spender",
							"type": "address"
						},
						{
							"internalType": "uint256",
							"name": "amount",
							"type": "uint256"
						}
					],
					"name": "approve",
					"outputs": [
						{
							"internalType": "bool",
							"name": "",
							"type": "bool"
						}
					],
					"stateMutability": "nonpayable",
					"type": "function"
				},
				{
					"inputs": [
						{
							"internalType": "address",
							"name": "account",
							"type": "address"
						}
					],
					"name": "balanceOf",
					"outputs": [
						{
							"internalType": "uint256",
							"name": "",
							"type": "uint256"
						}
					],
					"stateMutability": "view",
					"type": "function"
				},
				{
					"inputs": [],
					"name": "decimals",
					"outputs": [
						{
							"internalType": "uint8",
							"name": "",
							"type": "uint8"
						}
					],
					"stateMutability": "view",
					"type": "function"
				},
				{
					"inputs": [
						{
							"internalType": "address",
							"name": "spender",
							"type": "address"
						},
						{
							"internalType": "uint256",
							"name": "subtractedValue",
							"type": "uint256"
						}
					],
					"name": "decreaseAllowance",
					"outputs": [
						{
							"internalType": "bool",
							"name": "",
							"type": "bool"
						}
					],
					"stateMutability": "nonpayable",
					"type": "function"
				},
				{
					"inputs": [],
					"name": "disable24HrsRestriction",
					"outputs": [],
					"stateMutability": "nonpayable",
					"type": "function"
				},
				{
					"inputs": [],
					"name": "enable24HrsRestriction",
					"outputs": [],
					"stateMutability": "nonpayable",
					"type": "function"
				},
				{
					"inputs": [],
					"name": "enableTrading",
					"outputs": [],
					"stateMutability": "nonpayable",
					"type": "function"
				},
				{
					"inputs": [
						{
							"internalType": "address",
							"name": "account",
							"type": "address"
						}
					],
					"name": "excludeFromFees",
					"outputs": [],
					"stateMutability": "nonpayable",
					"type": "function"
				},
				{
					"inputs": [
						{
							"internalType": "address",
							"name": "spender",
							"type": "address"
						},
						{
							"internalType": "uint256",
							"name": "addedValue",
							"type": "uint256"
						}
					],
					"name": "increaseAllowance",
					"outputs": [
						{
							"internalType": "bool",
							"name": "",
							"type": "bool"
						}
					],
					"stateMutability": "nonpayable",
					"type": "function"
				},
				{
					"inputs": [
						{
							"internalType": "address",
							"name": "account",
							"type": "address"
						}
					],
					"name": "isExcludedFromFees",
					"outputs": [
						{
							"internalType": "bool",
							"name": "",
							"type": "bool"
						}
					],
					"stateMutability": "view",
					"type": "function"
				},
				{
					"inputs": [
						{
							"internalType": "address",
							"name": "",
							"type": "address"
						}
					],
					"name": "lastTradeTime",
					"outputs": [
						{
							"internalType": "uint256",
							"name": "",
							"type": "uint256"
						}
					],
					"stateMutability": "view",
					"type": "function"
				},
				{
					"inputs": [],
					"name": "maxSellableAmount",
					"outputs": [
						{
							"internalType": "uint256",
							"name": "",
							"type": "uint256"
						}
					],
					"stateMutability": "view",
					"type": "function"
				},
				{
					"inputs": [],
					"name": "maxSellableRestrictionEnabled",
					"outputs": [
						{
							"internalType": "bool",
							"name": "",
							"type": "bool"
						}
					],
					"stateMutability": "view",
					"type": "function"
				},
				{
					"inputs": [],
					"name": "mint",
					"outputs": [],
					"stateMutability": "nonpayable",
					"type": "function"
				},
				{
					"inputs": [],
					"name": "name",
					"outputs": [
						{
							"internalType": "string",
							"name": "",
							"type": "string"
						}
					],
					"stateMutability": "view",
					"type": "function"
				},
				{
					"inputs": [],
					"name": "owner",
					"outputs": [
						{
							"internalType": "address",
							"name": "",
							"type": "address"
						}
					],
					"stateMutability": "view",
					"type": "function"
				},
				{
					"inputs": [],
					"name": "removeMaxSellableRestriction",
					"outputs": [],
					"stateMutability": "nonpayable",
					"type": "function"
				},
				{
					"inputs": [],
					"name": "renounceOwnership",
					"outputs": [],
					"stateMutability": "nonpayable",
					"type": "function"
				},
				{
					"inputs": [
						{
							"internalType": "uint256",
							"name": "_taxAmount",
							"type": "uint256"
						}
					],
					"name": "setBuyTaxPercentage",
					"outputs": [],
					"stateMutability": "nonpayable",
					"type": "function"
				},
				{
					"inputs": [
						{
							"internalType": "uint256",
							"name": "_maxAmount",
							"type": "uint256"
						}
					],
					"name": "setMaxSellableAmount",
					"outputs": [],
					"stateMutability": "nonpayable",
					"type": "function"
				},
				{
					"inputs": [
						{
							"internalType": "uint256",
							"name": "_taxAmount",
							"type": "uint256"
						}
					],
					"name": "setSellTaxPercentage",
					"outputs": [],
					"stateMutability": "nonpayable",
					"type": "function"
				},
				{
					"inputs": [
						{
							"internalType": "address",
							"name": "_uniswapV2Pair",
							"type": "address"
						}
					],
					"name": "setUniswapPair",
					"outputs": [],
					"stateMutability": "nonpayable",
					"type": "function"
				},
				{
					"inputs": [],
					"name": "symbol",
					"outputs": [
						{
							"internalType": "string",
							"name": "",
							"type": "string"
						}
					],
					"stateMutability": "view",
					"type": "function"
				},
				{
					"inputs": [],
					"name": "taxCollector",
					"outputs": [
						{
							"internalType": "address",
							"name": "",
							"type": "address"
						}
					],
					"stateMutability": "view",
					"type": "function"
				},
				{
					"inputs": [],
					"name": "taxFeeOnBuy",
					"outputs": [
						{
							"internalType": "uint256",
							"name": "",
							"type": "uint256"
						}
					],
					"stateMutability": "view",
					"type": "function"
				},
				{
					"inputs": [],
					"name": "taxFeeOnSell",
					"outputs": [
						{
							"internalType": "uint256",
							"name": "",
							"type": "uint256"
						}
					],
					"stateMutability": "view",
					"type": "function"
				},
				{
					"inputs": [],
					"name": "totalSupply",
					"outputs": [
						{
							"internalType": "uint256",
							"name": "",
							"type": "uint256"
						}
					],
					"stateMutability": "view",
					"type": "function"
				},
				{
					"inputs": [],
					"name": "trading24HrsRestrictionEnabled",
					"outputs": [
						{
							"internalType": "bool",
							"name": "",
							"type": "bool"
						}
					],
					"stateMutability": "view",
					"type": "function"
				},
				{
					"inputs": [],
					"name": "tradingEnabled",
					"outputs": [
						{
							"internalType": "bool",
							"name": "",
							"type": "bool"
						}
					],
					"stateMutability": "view",
					"type": "function"
				},
				{
					"inputs": [
						{
							"internalType": "address",
							"name": "",
							"type": "address"
						}
					],
					"name": "tradingIn24Hours",
					"outputs": [
						{
							"internalType": "uint256",
							"name": "",
							"type": "uint256"
						}
					],
					"stateMutability": "view",
					"type": "function"
				},
				{
					"inputs": [
						{
							"internalType": "address",
							"name": "recipient",
							"type": "address"
						},
						{
							"internalType": "uint256",
							"name": "amount",
							"type": "uint256"
						}
					],
					"name": "transfer",
					"outputs": [
						{
							"internalType": "bool",
							"name": "",
							"type": "bool"
						}
					],
					"stateMutability": "nonpayable",
					"type": "function"
				},
				{
					"inputs": [
						{
							"internalType": "address",
							"name": "sender",
							"type": "address"
						},
						{
							"internalType": "address",
							"name": "recipient",
							"type": "address"
						},
						{
							"internalType": "uint256",
							"name": "amount",
							"type": "uint256"
						}
					],
					"name": "transferFrom",
					"outputs": [
						{
							"internalType": "bool",
							"name": "",
							"type": "bool"
						}
					],
					"stateMutability": "nonpayable",
					"type": "function"
				},
				{
					"inputs": [
						{
							"internalType": "address",
							"name": "newOwner",
							"type": "address"
						}
					],
					"name": "transferOwnership",
					"outputs": [],
					"stateMutability": "nonpayable",
					"type": "function"
				},
				{
					"inputs": [],
					"name": "uniswapV2Pair",
					"outputs": [
						{
							"internalType": "address",
							"name": "",
							"type": "address"
						}
					],
					"stateMutability": "view",
					"type": "function"
				},
				{
					"stateMutability": "payable",
					"type": "receive"
				}
			],
			"devdoc": {
				"kind": "dev",
				"methods": {},
				"version": 1
			},
			"evm": {
				"assembly": "    /* \"contracts\\\\Greelance.sol\":8601:13529  contract Greelance is ERC20, Ownable {... */\n  mstore(0x40, 0x80)\n    /* \"contracts\\\\Greelance.sol\":8908:8913  false */\n  0x00\n    /* \"contracts\\\\Greelance.sol\":8881:8913  bool private tokenMinted = false */\n  0x0a\n  exp(0x0100, 0x15)\n  dup2\n  sload\n  dup2\n  0xff\n  mul\n  not\n  and\n  swap1\n  dup4\n  iszero\n  iszero\n  mul\n  or\n  swap1\n  sstore\n  pop\n    /* \"contracts\\\\Greelance.sol\":9003:9008  false */\n  0x00\n    /* \"contracts\\\\Greelance.sol\":8959:9008  bool public maxSellableRestrictionEnabled = false */\n  0x0c\n  exp(0x0100, 0x00)\n  dup2\n  sload\n  dup2\n  0xff\n  mul\n  not\n  and\n  swap1\n  dup4\n  iszero\n  iszero\n  mul\n  or\n  swap1\n  sstore\n  pop\n    /* \"contracts\\\\Greelance.sol\":9060:9065  false */\n  0x00\n    /* \"contracts\\\\Greelance.sol\":9015:9065  bool public trading24HrsRestrictionEnabled = false */\n  0x0c\n  exp(0x0100, 0x01)\n  dup2\n  sload\n  dup2\n  0xff\n  mul\n  not\n  and\n  swap1\n  dup4\n  iszero\n  iszero\n  mul\n  or\n  swap1\n  sstore\n  pop\n    /* \"contracts\\\\Greelance.sol\":9259:9438  constructor() ERC20(\"Greelance\", \"GRL\") {... */\n  callvalue\n  dup1\n  iszero\n  tag_1\n  jumpi\n  0x00\n  dup1\n  revert\ntag_1:\n  pop\n    /* \"contracts\\\\Greelance.sol\":3449:3565  constructor(string memory name_, string memory symbol_) {... */\n  mload(0x40)\n  dup1\n  0x40\n  add\n  0x40\n  mstore\n  dup1\n  0x09\n  dup2\n  mstore\n  0x20\n  add\n  0x477265656c616e63650000000000000000000000000000000000000000000000\n  dup2\n  mstore\n  pop\n  mload(0x40)\n  dup1\n  0x40\n  add\n  0x40\n  mstore\n  dup1\n  0x03\n  dup2\n  mstore\n  0x20\n  add\n  0x47524c0000000000000000000000000000000000000000000000000000000000\n  dup2\n  mstore\n  pop\n    /* \"contracts\\\\Greelance.sol\":3524:3529  name_ */\n  dup2\n    /* \"contracts\\\\Greelance.sol\":3516:3521  _name */\n  0x03\n    /* \"contracts\\\\Greelance.sol\":3516:3529  _name = name_ */\n  swap1\n  dup2\n  tag_6\n  swap2\n  swap1\n  tag_7\n  jump\t// in\ntag_6:\n  pop\n    /* \"contracts\\\\Greelance.sol\":3550:3557  symbol_ */\n  dup1\n    /* \"contracts\\\\Greelance.sol\":3540:3547  _symbol */\n  0x04\n    /* \"contracts\\\\Greelance.sol\":3540:3557  _symbol = symbol_ */\n  swap1\n  dup2\n  tag_8\n  swap2\n  swap1\n  tag_7\n  jump\t// in\ntag_8:\n  pop\n    /* \"contracts\\\\Greelance.sol\":3449:3565  constructor(string memory name_, string memory symbol_) {... */\n  pop\n  pop\n    /* \"contracts\\\\Greelance.sol\":2373:2390  address msgSender */\n  0x00\n    /* \"contracts\\\\Greelance.sol\":2393:2405  _msgSender() */\n  tag_10\n    /* \"contracts\\\\Greelance.sol\":2393:2403  _msgSender */\n  shl(0x20, tag_11)\n    /* \"contracts\\\\Greelance.sol\":2393:2405  _msgSender() */\n  0x20\n  shr\n  jump\t// in\ntag_10:\n    /* \"contracts\\\\Greelance.sol\":2373:2405  address msgSender = _msgSender() */\n  swap1\n  pop\n    /* \"contracts\\\\Greelance.sol\":2425:2434  msgSender */\n  dup1\n    /* \"contracts\\\\Greelance.sol\":2416:2422  _owner */\n  0x05\n  0x00\n    /* \"contracts\\\\Greelance.sol\":2416:2434  _owner = msgSender */\n  0x0100\n  exp\n  dup2\n  sload\n  dup2\n  0xffffffffffffffffffffffffffffffffffffffff\n  mul\n  not\n  and\n  swap1\n  dup4\n  0xffffffffffffffffffffffffffffffffffffffff\n  and\n  mul\n  or\n  swap1\n  sstore\n  pop\n    /* \"contracts\\\\Greelance.sol\":2483:2492  msgSender */\n  dup1\n    /* \"contracts\\\\Greelance.sol\":2450:2493  OwnershipTransferred(address(0), msgSender) */\n  0xffffffffffffffffffffffffffffffffffffffff\n  and\n    /* \"contracts\\\\Greelance.sol\":2479:2480  0 */\n  0x00\n    /* \"contracts\\\\Greelance.sol\":2450:2493  OwnershipTransferred(address(0), msgSender) */\n  0xffffffffffffffffffffffffffffffffffffffff\n  and\n  0x8be0079c531659141344cd1fd0a4f28419497f9722a3daafe3b4186f6b6457e0\n  mload(0x40)\n  mload(0x40)\n  dup1\n  swap2\n  sub\n  swap1\n  log3\n    /* \"contracts\\\\Greelance.sol\":2362:2501  {... */\n  pop\n    /* \"contracts\\\\Greelance.sol\":9325:9332  owner() */\n  tag_13\n    /* \"contracts\\\\Greelance.sol\":9325:9330  owner */\n  shl(0x20, tag_14)\n    /* \"contracts\\\\Greelance.sol\":9325:9332  owner() */\n  0x20\n  shr\n  jump\t// in\ntag_13:\n    /* \"contracts\\\\Greelance.sol\":9310:9322  taxCollector */\n  0x0a\n  0x00\n    /* \"contracts\\\\Greelance.sol\":9310:9332  taxCollector = owner() */\n  0x0100\n  exp\n  dup2\n  sload\n  dup2\n  0xffffffffffffffffffffffffffffffffffffffff\n  mul\n  not\n  and\n  swap1\n  dup4\n  0xffffffffffffffffffffffffffffffffffffffff\n  and\n  mul\n  or\n  swap1\n  sstore\n  pop\n    /* \"contracts\\\\Greelance.sol\":9374:9378  true */\n  0x01\n    /* \"contracts\\\\Greelance.sol\":9343:9362  _isExcludedFromFees */\n  0x07\n    /* \"contracts\\\\Greelance.sol\":9343:9371  _isExcludedFromFees[owner()] */\n  0x00\n    /* \"contracts\\\\Greelance.sol\":9363:9370  owner() */\n  tag_15\n    /* \"contracts\\\\Greelance.sol\":9363:9368  owner */\n  shl(0x20, tag_14)\n    /* \"contracts\\\\Greelance.sol\":9363:9370  owner() */\n  0x20\n  shr\n  jump\t// in\ntag_15:\n    /* \"contracts\\\\Greelance.sol\":9343:9371  _isExcludedFromFees[owner()] */\n  0xffffffffffffffffffffffffffffffffffffffff\n  and\n  0xffffffffffffffffffffffffffffffffffffffff\n  and\n  dup2\n  mstore\n  0x20\n  add\n  swap1\n  dup2\n  mstore\n  0x20\n  add\n  0x00\n  keccak256\n  0x00\n    /* \"contracts\\\\Greelance.sol\":9343:9378  _isExcludedFromFees[owner()] = true */\n  0x0100\n  exp\n  dup2\n  sload\n  dup2\n  0xff\n  mul\n  not\n  and\n  swap1\n  dup4\n  iszero\n  iszero\n  mul\n  or\n  swap1\n  sstore\n  pop\n    /* \"contracts\\\\Greelance.sol\":9426:9430  true */\n  0x01\n    /* \"contracts\\\\Greelance.sol\":9389:9408  _isExcludedFromFees */\n  0x07\n    /* \"contracts\\\\Greelance.sol\":9389:9423  _isExcludedFromFees[address(this)] */\n  0x00\n    /* \"contracts\\\\Greelance.sol\":9417:9421  this */\n  address\n    /* \"contracts\\\\Greelance.sol\":9389:9423  _isExcludedFromFees[address(this)] */\n  0xffffffffffffffffffffffffffffffffffffffff\n  and\n  0xffffffffffffffffffffffffffffffffffffffff\n  and\n  dup2\n  mstore\n  0x20\n  add\n  swap1\n  dup2\n  mstore\n  0x20\n  add\n  0x00\n  keccak256\n  0x00\n    /* \"contracts\\\\Greelance.sol\":9389:9430  _isExcludedFromFees[address(this)] = true */\n  0x0100\n  exp\n  dup2\n  sload\n  dup2\n  0xff\n  mul\n  not\n  and\n  swap1\n  dup4\n  iszero\n  iszero\n  mul\n  or\n  swap1\n  sstore\n  pop\n    /* \"contracts\\\\Greelance.sol\":8601:13529  contract Greelance is ERC20, Ownable {... */\n  jump(tag_16)\n    /* \"contracts\\\\Greelance.sol\":1927:2025  function _msgSender() internal view virtual returns (address) {... */\ntag_11:\n    /* \"contracts\\\\Greelance.sol\":1980:1987  address */\n  0x00\n    /* \"contracts\\\\Greelance.sol\":2007:2017  msg.sender */\n  caller\n    /* \"contracts\\\\Greelance.sol\":2000:2017  return msg.sender */\n  swap1\n  pop\n    /* \"contracts\\\\Greelance.sol\":1927:2025  function _msgSender() internal view virtual returns (address) {... */\n  swap1\n  jump\t// out\n    /* \"contracts\\\\Greelance.sol\":2509:2588  function owner() public view returns (address) {... */\ntag_14:\n    /* \"contracts\\\\Greelance.sol\":2547:2554  address */\n  0x00\n    /* \"contracts\\\\Greelance.sol\":2574:2580  _owner */\n  0x05\n  0x00\n  swap1\n  sload\n  swap1\n  0x0100\n  exp\n  swap1\n  div\n  0xffffffffffffffffffffffffffffffffffffffff\n  and\n    /* \"contracts\\\\Greelance.sol\":2567:2580  return _owner */\n  swap1\n  pop\n    /* \"contracts\\\\Greelance.sol\":2509:2588  function owner() public view returns (address) {... */\n  swap1\n  jump\t// out\n    /* \"#utility.yul\":7:106   */\ntag_19:\n    /* \"#utility.yul\":59:65   */\n  0x00\n    /* \"#utility.yul\":93:98   */\n  dup2\n    /* \"#utility.yul\":87:99   */\n  mload\n    /* \"#utility.yul\":77:99   */\n  swap1\n  pop\n    /* \"#utility.yul\":7:106   */\n  swap2\n  swap1\n  pop\n  jump\t// out\n    /* \"#utility.yul\":112:292   */\ntag_20:\n    /* \"#utility.yul\":160:237   */\n  0x4e487b7100000000000000000000000000000000000000000000000000000000\n    /* \"#utility.yul\":157:158   */\n  0x00\n    /* \"#utility.yul\":150:238   */\n  mstore\n    /* \"#utility.yul\":257:261   */\n  0x41\n    /* \"#utility.yul\":254:255   */\n  0x04\n    /* \"#utility.yul\":247:262   */\n  mstore\n    /* \"#utility.yul\":281:285   */\n  0x24\n    /* \"#utility.yul\":278:279   */\n  0x00\n    /* \"#utility.yul\":271:286   */\n  revert\n    /* \"#utility.yul\":298:478   */\ntag_21:\n    /* \"#utility.yul\":346:423   */\n  0x4e487b7100000000000000000000000000000000000000000000000000000000\n    /* \"#utility.yul\":343:344   */\n  0x00\n    /* \"#utility.yul\":336:424   */\n  mstore\n    /* \"#utility.yul\":443:447   */\n  0x22\n    /* \"#utility.yul\":440:441   */\n  0x04\n    /* \"#utility.yul\":433:448   */\n  mstore\n    /* \"#utility.yul\":467:471   */\n  0x24\n    /* \"#utility.yul\":464:465   */\n  0x00\n    /* \"#utility.yul\":457:472   */\n  revert\n    /* \"#utility.yul\":484:804   */\ntag_22:\n    /* \"#utility.yul\":528:534   */\n  0x00\n    /* \"#utility.yul\":565:566   */\n  0x02\n    /* \"#utility.yul\":559:563   */\n  dup3\n    /* \"#utility.yul\":555:567   */\n  div\n    /* \"#utility.yul\":545:567   */\n  swap1\n  pop\n    /* \"#utility.yul\":612:613   */\n  0x01\n    /* \"#utility.yul\":606:610   */\n  dup3\n    /* \"#utility.yul\":602:614   */\n  and\n    /* \"#utility.yul\":633:651   */\n  dup1\n    /* \"#utility.yul\":623:704   */\n  tag_44\n  jumpi\n    /* \"#utility.yul\":689:693   */\n  0x7f\n    /* \"#utility.yul\":681:687   */\n  dup3\n    /* \"#utility.yul\":677:694   */\n  and\n    /* \"#utility.yul\":667:694   */\n  swap2\n  pop\n    /* \"#utility.yul\":623:704   */\ntag_44:\n    /* \"#utility.yul\":751:753   */\n  0x20\n    /* \"#utility.yul\":743:749   */\n  dup3\n    /* \"#utility.yul\":740:754   */\n  lt\n    /* \"#utility.yul\":720:738   */\n  dup2\n    /* \"#utility.yul\":717:755   */\n  sub\n    /* \"#utility.yul\":714:798   */\n  tag_45\n  jumpi\n    /* \"#utility.yul\":770:788   */\n  tag_46\n  tag_21\n  jump\t// in\ntag_46:\n    /* \"#utility.yul\":714:798   */\ntag_45:\n    /* \"#utility.yul\":535:804   */\n  pop\n    /* \"#utility.yul\":484:804   */\n  swap2\n  swap1\n  pop\n  jump\t// out\n    /* \"#utility.yul\":810:951   */\ntag_23:\n    /* \"#utility.yul\":859:863   */\n  0x00\n    /* \"#utility.yul\":882:885   */\n  dup2\n    /* \"#utility.yul\":874:885   */\n  swap1\n  pop\n    /* \"#utility.yul\":905:908   */\n  dup2\n    /* \"#utility.yul\":902:903   */\n  0x00\n    /* \"#utility.yul\":895:909   */\n  mstore\n    /* \"#utility.yul\":939:943   */\n  0x20\n    /* \"#utility.yul\":936:937   */\n  0x00\n    /* \"#utility.yul\":926:944   */\n  keccak256\n    /* \"#utility.yul\":918:944   */\n  swap1\n  pop\n    /* \"#utility.yul\":810:951   */\n  swap2\n  swap1\n  pop\n  jump\t// out\n    /* \"#utility.yul\":957:1050   */\ntag_24:\n    /* \"#utility.yul\":994:1000   */\n  0x00\n    /* \"#utility.yul\":1041:1043   */\n  0x20\n    /* \"#utility.yul\":1036:1038   */\n  0x1f\n    /* \"#utility.yul\":1029:1034   */\n  dup4\n    /* \"#utility.yul\":1025:1039   */\n  add\n    /* \"#utility.yul\":1021:1044   */\n  div\n    /* \"#utility.yul\":1011:1044   */\n  swap1\n  pop\n    /* \"#utility.yul\":957:1050   */\n  swap2\n  swap1\n  pop\n  jump\t// out\n    /* \"#utility.yul\":1056:1163   */\ntag_25:\n    /* \"#utility.yul\":1100:1108   */\n  0x00\n    /* \"#utility.yul\":1150:1155   */\n  dup3\n    /* \"#utility.yul\":1144:1148   */\n  dup3\n    /* \"#utility.yul\":1140:1156   */\n  shl\n    /* \"#utility.yul\":1119:1156   */\n  swap1\n  pop\n    /* \"#utility.yul\":1056:1163   */\n  swap3\n  swap2\n  pop\n  pop\n  jump\t// out\n    /* \"#utility.yul\":1169:1562   */\ntag_26:\n    /* \"#utility.yul\":1238:1244   */\n  0x00\n    /* \"#utility.yul\":1288:1289   */\n  0x08\n    /* \"#utility.yul\":1276:1286   */\n  dup4\n    /* \"#utility.yul\":1272:1290   */\n  mul\n    /* \"#utility.yul\":1311:1408   */\n  tag_51\n    /* \"#utility.yul\":1341:1407   */\n  0xffffffffffffffffffffffffffffffffffffffffffffffffffffffffffffffff\n    /* \"#utility.yul\":1330:1339   */\n  dup3\n    /* \"#utility.yul\":1311:1408   */\n  tag_25\n  jump\t// in\ntag_51:\n    /* \"#utility.yul\":1429:1468   */\n  tag_52\n    /* \"#utility.yul\":1459:1467   */\n  dup7\n    /* \"#utility.yul\":1448:1457   */\n  dup4\n    /* \"#utility.yul\":1429:1468   */\n  tag_25\n  jump\t// in\ntag_52:\n    /* \"#utility.yul\":1417:1468   */\n  swap6\n  pop\n    /* \"#utility.yul\":1501:1505   */\n  dup1\n    /* \"#utility.yul\":1497:1506   */\n  not\n    /* \"#utility.yul\":1490:1495   */\n  dup5\n    /* \"#utility.yul\":1486:1507   */\n  and\n    /* \"#utility.yul\":1477:1507   */\n  swap4\n  pop\n    /* \"#utility.yul\":1550:1554   */\n  dup1\n    /* \"#utility.yul\":1540:1548   */\n  dup7\n    /* \"#utility.yul\":1536:1555   */\n  and\n    /* \"#utility.yul\":1529:1534   */\n  dup5\n    /* \"#utility.yul\":1526:1556   */\n  or\n    /* \"#utility.yul\":1516:1556   */\n  swap3\n  pop\n    /* \"#utility.yul\":1245:1562   */\n  pop\n  pop\n    /* \"#utility.yul\":1169:1562   */\n  swap4\n  swap3\n  pop\n  pop\n  pop\n  jump\t// out\n    /* \"#utility.yul\":1568:1645   */\ntag_27:\n    /* \"#utility.yul\":1605:1612   */\n  0x00\n    /* \"#utility.yul\":1634:1639   */\n  dup2\n    /* \"#utility.yul\":1623:1639   */\n  swap1\n  pop\n    /* \"#utility.yul\":1568:1645   */\n  swap2\n  swap1\n  pop\n  jump\t// out\n    /* \"#utility.yul\":1651:1711   */\ntag_28:\n    /* \"#utility.yul\":1679:1682   */\n  0x00\n    /* \"#utility.yul\":1700:1705   */\n  dup2\n    /* \"#utility.yul\":1693:1705   */\n  swap1\n  pop\n    /* \"#utility.yul\":1651:1711   */\n  swap2\n  swap1\n  pop\n  jump\t// out\n    /* \"#utility.yul\":1717:1859   */\ntag_29:\n    /* \"#utility.yul\":1767:1776   */\n  0x00\n    /* \"#utility.yul\":1800:1853   */\n  tag_56\n    /* \"#utility.yul\":1818:1852   */\n  tag_57\n    /* \"#utility.yul\":1827:1851   */\n  tag_58\n    /* \"#utility.yul\":1845:1850   */\n  dup5\n    /* \"#utility.yul\":1827:1851   */\n  tag_27\n  jump\t// in\ntag_58:\n    /* \"#utility.yul\":1818:1852   */\n  tag_28\n  jump\t// in\ntag_57:\n    /* \"#utility.yul\":1800:1853   */\n  tag_27\n  jump\t// in\ntag_56:\n    /* \"#utility.yul\":1787:1853   */\n  swap1\n  pop\n    /* \"#utility.yul\":1717:1859   */\n  swap2\n  swap1\n  pop\n  jump\t// out\n    /* \"#utility.yul\":1865:1940   */\ntag_30:\n    /* \"#utility.yul\":1908:1911   */\n  0x00\n    /* \"#utility.yul\":1929:1934   */\n  dup2\n    /* \"#utility.yul\":1922:1934   */\n  swap1\n  pop\n    /* \"#utility.yul\":1865:1940   */\n  swap2\n  swap1\n  pop\n  jump\t// out\n    /* \"#utility.yul\":1946:2215   */\ntag_31:\n    /* \"#utility.yul\":2056:2095   */\n  tag_61\n    /* \"#utility.yul\":2087:2094   */\n  dup4\n    /* \"#utility.yul\":2056:2095   */\n  tag_29\n  jump\t// in\ntag_61:\n    /* \"#utility.yul\":2117:2208   */\n  tag_62\n    /* \"#utility.yul\":2166:2207   */\n  tag_63\n    /* \"#utility.yul\":2190:2206   */\n  dup3\n    /* \"#utility.yul\":2166:2207   */\n  tag_30\n  jump\t// in\ntag_63:\n    /* \"#utility.yul\":2158:2164   */\n  dup5\n    /* \"#utility.yul\":2151:2155   */\n  dup5\n    /* \"#utility.yul\":2145:2156   */\n  sload\n    /* \"#utility.yul\":2117:2208   */\n  tag_26\n  jump\t// in\ntag_62:\n    /* \"#utility.yul\":2111:2115   */\n  dup3\n    /* \"#utility.yul\":2104:2209   */\n  sstore\n    /* \"#utility.yul\":2022:2215   */\n  pop\n    /* \"#utility.yul\":1946:2215   */\n  pop\n  pop\n  pop\n  jump\t// out\n    /* \"#utility.yul\":2221:2294   */\ntag_32:\n    /* \"#utility.yul\":2266:2269   */\n  0x00\n    /* \"#utility.yul\":2221:2294   */\n  swap1\n  jump\t// out\n    /* \"#utility.yul\":2300:2489   */\ntag_33:\n    /* \"#utility.yul\":2377:2409   */\n  tag_66\n  tag_32\n  jump\t// in\ntag_66:\n    /* \"#utility.yul\":2418:2483   */\n  tag_67\n    /* \"#utility.yul\":2476:2482   */\n  dup2\n    /* \"#utility.yul\":2468:2474   */\n  dup5\n    /* \"#utility.yul\":2462:2466   */\n  dup5\n    /* \"#utility.yul\":2418:2483   */\n  tag_31\n  jump\t// in\ntag_67:\n    /* \"#utility.yul\":2353:2489   */\n  pop\n    /* \"#utility.yul\":2300:2489   */\n  pop\n  pop\n  jump\t// out\n    /* \"#utility.yul\":2495:2681   */\ntag_34:\n    /* \"#utility.yul\":2555:2675   */\ntag_69:\n    /* \"#utility.yul\":2572:2575   */\n  dup2\n    /* \"#utility.yul\":2565:2570   */\n  dup2\n    /* \"#utility.yul\":2562:2576   */\n  lt\n    /* \"#utility.yul\":2555:2675   */\n  iszero\n  tag_71\n  jumpi\n    /* \"#utility.yul\":2626:2665   */\n  tag_72\n    /* \"#utility.yul\":2663:2664   */\n  0x00\n    /* \"#utility.yul\":2656:2661   */\n  dup3\n    /* \"#utility.yul\":2626:2665   */\n  tag_33\n  jump\t// in\ntag_72:\n    /* \"#utility.yul\":2599:2600   */\n  0x01\n    /* \"#utility.yul\":2592:2597   */\n  dup2\n    /* \"#utility.yul\":2588:2601   */\n  add\n    /* \"#utility.yul\":2579:2601   */\n  swap1\n  pop\n    /* \"#utility.yul\":2555:2675   */\n  jump(tag_69)\ntag_71:\n    /* \"#utility.yul\":2495:2681   */\n  pop\n  pop\n  jump\t// out\n    /* \"#utility.yul\":2687:3230   */\ntag_35:\n    /* \"#utility.yul\":2788:2790   */\n  0x1f\n    /* \"#utility.yul\":2783:2786   */\n  dup3\n    /* \"#utility.yul\":2780:2791   */\n  gt\n    /* \"#utility.yul\":2777:3223   */\n  iszero\n  tag_74\n  jumpi\n    /* \"#utility.yul\":2822:2860   */\n  tag_75\n    /* \"#utility.yul\":2854:2859   */\n  dup2\n    /* \"#utility.yul\":2822:2860   */\n  tag_23\n  jump\t// in\ntag_75:\n    /* \"#utility.yul\":2906:2935   */\n  tag_76\n    /* \"#utility.yul\":2924:2934   */\n  dup5\n    /* \"#utility.yul\":2906:2935   */\n  tag_24\n  jump\t// in\ntag_76:\n    /* \"#utility.yul\":2896:2904   */\n  dup2\n    /* \"#utility.yul\":2892:2936   */\n  add\n    /* \"#utility.yul\":3089:3091   */\n  0x20\n    /* \"#utility.yul\":3077:3087   */\n  dup6\n    /* \"#utility.yul\":3074:3092   */\n  lt\n    /* \"#utility.yul\":3071:3120   */\n  iszero\n  tag_77\n  jumpi\n    /* \"#utility.yul\":3110:3118   */\n  dup2\n    /* \"#utility.yul\":3095:3118   */\n  swap1\n  pop\n    /* \"#utility.yul\":3071:3120   */\ntag_77:\n    /* \"#utility.yul\":3133:3213   */\n  tag_78\n    /* \"#utility.yul\":3189:3211   */\n  tag_79\n    /* \"#utility.yul\":3207:3210   */\n  dup6\n    /* \"#utility.yul\":3189:3211   */\n  tag_24\n  jump\t// in\ntag_79:\n    /* \"#utility.yul\":3179:3187   */\n  dup4\n    /* \"#utility.yul\":3175:3212   */\n  add\n    /* \"#utility.yul\":3162:3173   */\n  dup3\n    /* \"#utility.yul\":3133:3213   */\n  tag_34\n  jump\t// in\ntag_78:\n    /* \"#utility.yul\":2792:3223   */\n  pop\n  pop\n    /* \"#utility.yul\":2777:3223   */\ntag_74:\n    /* \"#utility.yul\":2687:3230   */\n  pop\n  pop\n  pop\n  jump\t// out\n    /* \"#utility.yul\":3236:3353   */\ntag_36:\n    /* \"#utility.yul\":3290:3298   */\n  0x00\n    /* \"#utility.yul\":3340:3345   */\n  dup3\n    /* \"#utility.yul\":3334:3338   */\n  dup3\n    /* \"#utility.yul\":3330:3346   */\n  shr\n    /* \"#utility.yul\":3309:3346   */\n  swap1\n  pop\n    /* \"#utility.yul\":3236:3353   */\n  swap3\n  swap2\n  pop\n  pop\n  jump\t// out\n    /* \"#utility.yul\":3359:3528   */\ntag_37:\n    /* \"#utility.yul\":3403:3409   */\n  0x00\n    /* \"#utility.yul\":3436:3487   */\n  tag_82\n    /* \"#utility.yul\":3484:3485   */\n  0x00\n    /* \"#utility.yul\":3480:3486   */\n  not\n    /* \"#utility.yul\":3472:3477   */\n  dup5\n    /* \"#utility.yul\":3469:3470   */\n  0x08\n    /* \"#utility.yul\":3465:3478   */\n  mul\n    /* \"#utility.yul\":3436:3487   */\n  tag_36\n  jump\t// in\ntag_82:\n    /* \"#utility.yul\":3432:3488   */\n  not\n    /* \"#utility.yul\":3517:3521   */\n  dup1\n    /* \"#utility.yul\":3511:3515   */\n  dup4\n    /* \"#utility.yul\":3507:3522   */\n  and\n    /* \"#utility.yul\":3497:3522   */\n  swap2\n  pop\n    /* \"#utility.yul\":3410:3528   */\n  pop\n    /* \"#utility.yul\":3359:3528   */\n  swap3\n  swap2\n  pop\n  pop\n  jump\t// out\n    /* \"#utility.yul\":3533:3828   */\ntag_38:\n    /* \"#utility.yul\":3609:3613   */\n  0x00\n    /* \"#utility.yul\":3755:3784   */\n  tag_84\n    /* \"#utility.yul\":3780:3783   */\n  dup4\n    /* \"#utility.yul\":3774:3778   */\n  dup4\n    /* \"#utility.yul\":3755:3784   */\n  tag_37\n  jump\t// in\ntag_84:\n    /* \"#utility.yul\":3747:3784   */\n  swap2\n  pop\n    /* \"#utility.yul\":3817:3820   */\n  dup3\n    /* \"#utility.yul\":3814:3815   */\n  0x02\n    /* \"#utility.yul\":3810:3821   */\n  mul\n    /* \"#utility.yul\":3804:3808   */\n  dup3\n    /* \"#utility.yul\":3801:3822   */\n  or\n    /* \"#utility.yul\":3793:3822   */\n  swap1\n  pop\n    /* \"#utility.yul\":3533:3828   */\n  swap3\n  swap2\n  pop\n  pop\n  jump\t// out\n    /* \"#utility.yul\":3833:5228   */\ntag_7:\n    /* \"#utility.yul\":3950:3987   */\n  tag_86\n    /* \"#utility.yul\":3983:3986   */\n  dup3\n    /* \"#utility.yul\":3950:3987   */\n  tag_19\n  jump\t// in\ntag_86:\n    /* \"#utility.yul\":4052:4070   */\n  0xffffffffffffffff\n    /* \"#utility.yul\":4044:4050   */\n  dup2\n    /* \"#utility.yul\":4041:4071   */\n  gt\n    /* \"#utility.yul\":4038:4094   */\n  iszero\n  tag_87\n  jumpi\n    /* \"#utility.yul\":4074:4092   */\n  tag_88\n  tag_20\n  jump\t// in\ntag_88:\n    /* \"#utility.yul\":4038:4094   */\ntag_87:\n    /* \"#utility.yul\":4118:4156   */\n  tag_89\n    /* \"#utility.yul\":4150:4154   */\n  dup3\n    /* \"#utility.yul\":4144:4155   */\n  sload\n    /* \"#utility.yul\":4118:4156   */\n  tag_22\n  jump\t// in\ntag_89:\n    /* \"#utility.yul\":4203:4270   */\n  tag_90\n    /* \"#utility.yul\":4263:4269   */\n  dup3\n    /* \"#utility.yul\":4255:4261   */\n  dup3\n    /* \"#utility.yul\":4249:4253   */\n  dup6\n    /* \"#utility.yul\":4203:4270   */\n  tag_35\n  jump\t// in\ntag_90:\n    /* \"#utility.yul\":4297:4298   */\n  0x00\n    /* \"#utility.yul\":4321:4325   */\n  0x20\n    /* \"#utility.yul\":4308:4325   */\n  swap1\n  pop\n    /* \"#utility.yul\":4353:4355   */\n  0x1f\n    /* \"#utility.yul\":4345:4351   */\n  dup4\n    /* \"#utility.yul\":4342:4356   */\n  gt\n    /* \"#utility.yul\":4370:4371   */\n  0x01\n    /* \"#utility.yul\":4365:4983   */\n  dup2\n  eq\n  tag_92\n  jumpi\n    /* \"#utility.yul\":5027:5028   */\n  0x00\n    /* \"#utility.yul\":5044:5050   */\n  dup5\n    /* \"#utility.yul\":5041:5118   */\n  iszero\n  tag_93\n  jumpi\n    /* \"#utility.yul\":5093:5102   */\n  dup3\n    /* \"#utility.yul\":5088:5091   */\n  dup8\n    /* \"#utility.yul\":5084:5103   */\n  add\n    /* \"#utility.yul\":5078:5104   */\n  mload\n    /* \"#utility.yul\":5069:5104   */\n  swap1\n  pop\n    /* \"#utility.yul\":5041:5118   */\ntag_93:\n    /* \"#utility.yul\":5144:5211   */\n  tag_94\n    /* \"#utility.yul\":5204:5210   */\n  dup6\n    /* \"#utility.yul\":5197:5202   */\n  dup3\n    /* \"#utility.yul\":5144:5211   */\n  tag_38\n  jump\t// in\ntag_94:\n    /* \"#utility.yul\":5138:5142   */\n  dup7\n    /* \"#utility.yul\":5131:5212   */\n  sstore\n    /* \"#utility.yul\":5000:5222   */\n  pop\n    /* \"#utility.yul\":4335:5222   */\n  jump(tag_91)\n    /* \"#utility.yul\":4365:4983   */\ntag_92:\n    /* \"#utility.yul\":4417:4421   */\n  0x1f\n    /* \"#utility.yul\":4413:4422   */\n  not\n    /* \"#utility.yul\":4405:4411   */\n  dup5\n    /* \"#utility.yul\":4401:4423   */\n  and\n    /* \"#utility.yul\":4451:4488   */\n  tag_95\n    /* \"#utility.yul\":4483:4487   */\n  dup7\n    /* \"#utility.yul\":4451:4488   */\n  tag_23\n  jump\t// in\ntag_95:\n    /* \"#utility.yul\":4510:4511   */\n  0x00\n    /* \"#utility.yul\":4524:4732   */\ntag_96:\n    /* \"#utility.yul\":4538:4545   */\n  dup3\n    /* \"#utility.yul\":4535:4536   */\n  dup2\n    /* \"#utility.yul\":4532:4546   */\n  lt\n    /* \"#utility.yul\":4524:4732   */\n  iszero\n  tag_98\n  jumpi\n    /* \"#utility.yul\":4617:4626   */\n  dup5\n    /* \"#utility.yul\":4612:4615   */\n  dup10\n    /* \"#utility.yul\":4608:4627   */\n  add\n    /* \"#utility.yul\":4602:4628   */\n  mload\n    /* \"#utility.yul\":4594:4600   */\n  dup3\n    /* \"#utility.yul\":4587:4629   */\n  sstore\n    /* \"#utility.yul\":4668:4669   */\n  0x01\n    /* \"#utility.yul\":4660:4666   */\n  dup3\n    /* \"#utility.yul\":4656:4670   */\n  add\n    /* \"#utility.yul\":4646:4670   */\n  swap2\n  pop\n    /* \"#utility.yul\":4715:4717   */\n  0x20\n    /* \"#utility.yul\":4704:4713   */\n  dup6\n    /* \"#utility.yul\":4700:4718   */\n  add\n    /* \"#utility.yul\":4687:4718   */\n  swap5\n  pop\n    /* \"#utility.yul\":4561:4565   */\n  0x20\n    /* \"#utility.yul\":4558:4559   */\n  dup2\n    /* \"#utility.yul\":4554:4566   */\n  add\n    /* \"#utility.yul\":4549:4566   */\n  swap1\n  pop\n    /* \"#utility.yul\":4524:4732   */\n  jump(tag_96)\ntag_98:\n    /* \"#utility.yul\":4760:4766   */\n  dup7\n    /* \"#utility.yul\":4751:4758   */\n  dup4\n    /* \"#utility.yul\":4748:4767   */\n  lt\n    /* \"#utility.yul\":4745:4924   */\n  iszero\n  tag_99\n  jumpi\n    /* \"#utility.yul\":4818:4827   */\n  dup5\n    /* \"#utility.yul\":4813:4816   */\n  dup10\n    /* \"#utility.yul\":4809:4828   */\n  add\n    /* \"#utility.yul\":4803:4829   */\n  mload\n    /* \"#utility.yul\":4861:4909   */\n  tag_100\n    /* \"#utility.yul\":4903:4907   */\n  0x1f\n    /* \"#utility.yul\":4895:4901   */\n  dup10\n    /* \"#utility.yul\":4891:4908   */\n  and\n    /* \"#utility.yul\":4880:4889   */\n  dup3\n    /* \"#utility.yul\":4861:4909   */\n  tag_37\n  jump\t// in\ntag_100:\n    /* \"#utility.yul\":4853:4859   */\n  dup4\n    /* \"#utility.yul\":4846:4910   */\n  sstore\n    /* \"#utility.yul\":4768:4924   */\n  pop\n    /* \"#utility.yul\":4745:4924   */\ntag_99:\n    /* \"#utility.yul\":4970:4971   */\n  0x01\n    /* \"#utility.yul\":4966:4967   */\n  0x02\n    /* \"#utility.yul\":4958:4964   */\n  dup9\n    /* \"#utility.yul\":4954:4968   */\n  mul\n    /* \"#utility.yul\":4950:4972   */\n  add\n    /* \"#utility.yul\":4944:4948   */\n  dup9\n    /* \"#utility.yul\":4937:4973   */\n  sstore\n    /* \"#utility.yul\":4372:4983   */\n  pop\n  pop\n  pop\n    /* \"#utility.yul\":4335:5222   */\ntag_91:\n  pop\n    /* \"#utility.yul\":3925:5228   */\n  pop\n  pop\n  pop\n    /* \"#utility.yul\":3833:5228   */\n  pop\n  pop\n  jump\t// out\n    /* \"contracts\\\\Greelance.sol\":8601:13529  contract Greelance is ERC20, Ownable {... */\ntag_16:\n  dataSize(sub_0)\n  dup1\n  dataOffset(sub_0)\n  0x00\n  codecopy\n  0x00\n  return\nstop\n\nsub_0: assembly {\n        /* \"contracts\\\\Greelance.sol\":8601:13529  contract Greelance is ERC20, Ownable {... */\n      mstore(0x40, 0x80)\n      jumpi(tag_1, lt(calldatasize, 0x04))\n      shr(0xe0, calldataload(0x00))\n      dup1\n      0x6da492dc\n      gt\n      tag_38\n      jumpi\n      dup1\n      0xa457c2d7\n      gt\n      tag_39\n      jumpi\n      dup1\n      0xbea1dcf8\n      gt\n      tag_40\n      jumpi\n      dup1\n      0xbea1dcf8\n      eq\n      tag_33\n      jumpi\n      dup1\n      0xd5aed6bf\n      eq\n      tag_34\n      jumpi\n      dup1\n      0xdd62ed3e\n      eq\n      tag_35\n      jumpi\n      dup1\n      0xe57f14e1\n      eq\n      tag_36\n      jumpi\n      dup1\n      0xf2fde38b\n      eq\n      tag_37\n      jumpi\n      jump(tag_2)\n    tag_40:\n      dup1\n      0xa457c2d7\n      eq\n      tag_29\n      jumpi\n      dup1\n      0xa56d37f9\n      eq\n      tag_30\n      jumpi\n      dup1\n      0xa9059cbb\n      eq\n      tag_31\n      jumpi\n      dup1\n      0xab4ebc1e\n      eq\n      tag_32\n      jumpi\n      jump(tag_2)\n    tag_39:\n      dup1\n      0x8d6366fe\n      gt\n      tag_41\n      jumpi\n      dup1\n      0x8d6366fe\n      eq\n      tag_24\n      jumpi\n      dup1\n      0x8da5cb5b\n      eq\n      tag_25\n      jumpi\n      dup1\n      0x95d89b41\n      eq\n      tag_26\n      jumpi\n      dup1\n      0x9c0b9d74\n      eq\n      tag_27\n      jumpi\n      dup1\n      0x9ec4be41\n      eq\n      tag_28\n      jumpi\n      jump(tag_2)\n    tag_41:\n      dup1\n      0x6da492dc\n      eq\n      tag_20\n      jumpi\n      dup1\n      0x70a08231\n      eq\n      tag_21\n      jumpi\n      dup1\n      0x715018a6\n      eq\n      tag_22\n      jumpi\n      dup1\n      0x8a8c523c\n      eq\n      tag_23\n      jumpi\n      jump(tag_2)\n    tag_38:\n      dup1\n      0x2efa788b\n      gt\n      tag_42\n      jumpi\n      dup1\n      0x4ab3bdcb\n      gt\n      tag_43\n      jumpi\n      dup1\n      0x4ab3bdcb\n      eq\n      tag_15\n      jumpi\n      dup1\n      0x4ada218b\n      eq\n      tag_16\n      jumpi\n      dup1\n      0x4fbee193\n      eq\n      tag_17\n      jumpi\n      dup1\n      0x537eed34\n      eq\n      tag_18\n      jumpi\n      dup1\n      0x630a8a0c\n      eq\n      tag_19\n      jumpi\n      jump(tag_2)\n    tag_43:\n      dup1\n      0x2efa788b\n      eq\n      tag_11\n      jumpi\n      dup1\n      0x313ce567\n      eq\n      tag_12\n      jumpi\n      dup1\n      0x39509351\n      eq\n      tag_13\n      jumpi\n      dup1\n      0x49bd5a5e\n      eq\n      tag_14\n      jumpi\n      jump(tag_2)\n    tag_42:\n      dup1\n      0x1249c58b\n      gt\n      tag_44\n      jumpi\n      dup1\n      0x1249c58b\n      eq\n      tag_7\n      jumpi\n      dup1\n      0x142bc858\n      eq\n      tag_8\n      jumpi\n      dup1\n      0x18160ddd\n      eq\n      tag_9\n      jumpi\n      dup1\n      0x23b872dd\n      eq\n      tag_10\n      jumpi\n      jump(tag_2)\n    tag_44:\n      dup1\n      0x03186eef\n      eq\n      tag_3\n      jumpi\n      dup1\n      0x06fdde03\n      eq\n      tag_4\n      jumpi\n      dup1\n      0x0907ea0b\n      eq\n      tag_5\n      jumpi\n      dup1\n      0x095ea7b3\n      eq\n      tag_6\n      jumpi\n      jump(tag_2)\n    tag_1:\n      jumpi(tag_2, calldatasize)\n      stop\n    tag_2:\n      0x00\n      dup1\n      revert\n        /* \"contracts\\\\Greelance.sol\":9130:9178  mapping(address => uint256) public lastTradeTime */\n    tag_3:\n      callvalue\n      dup1\n      iszero\n      tag_47\n      jumpi\n      0x00\n      dup1\n      revert\n    tag_47:\n      pop\n      tag_48\n      0x04\n      dup1\n      calldatasize\n      sub\n      dup2\n      add\n      swap1\n      tag_49\n      swap2\n      swap1\n      tag_50\n      jump\t// in\n    tag_49:\n      tag_51\n      jump\t// in\n    tag_48:\n      mload(0x40)\n      tag_52\n      swap2\n      swap1\n      tag_53\n      jump\t// in\n    tag_52:\n      mload(0x40)\n      dup1\n      swap2\n      sub\n      swap1\n      return\n        /* \"contracts\\\\Greelance.sol\":3573:3673  function name() public view virtual override returns (string memory) {... */\n    tag_4:\n      callvalue\n      dup1\n      iszero\n      tag_54\n      jumpi\n      0x00\n      dup1\n      revert\n    tag_54:\n      pop\n      tag_55\n      tag_56\n      jump\t// in\n    tag_55:\n      mload(0x40)\n      tag_57\n      swap2\n      swap1\n      tag_58\n      jump\t// in\n    tag_57:\n      mload(0x40)\n      dup1\n      swap2\n      sub\n      swap1\n      return\n        /* \"contracts\\\\Greelance.sol\":10430:10541  function disable24HrsRestriction() external onlyOwner {... */\n    tag_5:\n      callvalue\n      dup1\n      iszero\n      tag_59\n      jumpi\n      0x00\n      dup1\n      revert\n    tag_59:\n      pop\n      tag_60\n      tag_61\n      jump\t// in\n    tag_60:\n      stop\n        /* \"contracts\\\\Greelance.sol\":4552:4746  function approve(... */\n    tag_6:\n      callvalue\n      dup1\n      iszero\n      tag_62\n      jumpi\n      0x00\n      dup1\n      revert\n    tag_62:\n      pop\n      tag_63\n      0x04\n      dup1\n      calldatasize\n      sub\n      dup2\n      add\n      swap1\n      tag_64\n      swap2\n      swap1\n      tag_65\n      jump\t// in\n    tag_64:\n      tag_66\n      jump\t// in\n    tag_63:\n      mload(0x40)\n      tag_67\n      swap2\n      swap1\n      tag_68\n      jump\t// in\n    tag_67:\n      mload(0x40)\n      dup1\n      swap2\n      sub\n      swap1\n      return\n        /* \"contracts\\\\Greelance.sol\":9483:9671  function mint() external onlyOwner {... */\n    tag_7:\n      callvalue\n      dup1\n      iszero\n      tag_69\n      jumpi\n      0x00\n      dup1\n      revert\n    tag_69:\n      pop\n      tag_70\n      tag_71\n      jump\t// in\n    tag_70:\n      stop\n        /* \"contracts\\\\Greelance.sol\":9015:9065  bool public trading24HrsRestrictionEnabled = false */\n    tag_8:\n      callvalue\n      dup1\n      iszero\n      tag_72\n      jumpi\n      0x00\n      dup1\n      revert\n    tag_72:\n      pop\n      tag_73\n      tag_74\n      jump\t// in\n    tag_73:\n      mload(0x40)\n      tag_75\n      swap2\n      swap1\n      tag_68\n      jump\t// in\n    tag_75:\n      mload(0x40)\n      dup1\n      swap2\n      sub\n      swap1\n      return\n        /* \"contracts\\\\Greelance.sol\":3893:4001  function totalSupply() public view virtual override returns (uint256) {... */\n    tag_9:\n      callvalue\n      dup1\n      iszero\n      tag_76\n      jumpi\n      0x00\n      dup1\n      revert\n    tag_76:\n      pop\n      tag_77\n      tag_78\n      jump\t// in\n    tag_77:\n      mload(0x40)\n      tag_79\n      swap2\n      swap1\n      tag_53\n      jump\t// in\n    tag_79:\n      mload(0x40)\n      dup1\n      swap2\n      sub\n      swap1\n      return\n        /* \"contracts\\\\Greelance.sol\":4754:5376  function transferFrom(... */\n    tag_10:\n      callvalue\n      dup1\n      iszero\n      tag_80\n      jumpi\n      0x00\n      dup1\n      revert\n    tag_80:\n      pop\n      tag_81\n      0x04\n      dup1\n      calldatasize\n      sub\n      dup2\n      add\n      swap1\n      tag_82\n      swap2\n      swap1\n      tag_83\n      jump\t// in\n    tag_82:\n      tag_84\n      jump\t// in\n    tag_81:\n      mload(0x40)\n      tag_85\n      swap2\n      swap1\n      tag_68\n      jump\t// in\n    tag_85:\n      mload(0x40)\n      dup1\n      swap2\n      sub\n      swap1\n      return\n        /* \"contracts\\\\Greelance.sol\":10313:10422  function enable24HrsRestriction() external onlyOwner {... */\n    tag_11:\n      callvalue\n      dup1\n      iszero\n      tag_86\n      jumpi\n      0x00\n      dup1\n      revert\n    tag_86:\n      pop\n      tag_87\n      tag_88\n      jump\t// in\n    tag_87:\n      stop\n        /* \"contracts\\\\Greelance.sol\":3793:3885  function decimals() public view virtual override returns (uint8) {... */\n    tag_12:\n      callvalue\n      dup1\n      iszero\n      tag_89\n      jumpi\n      0x00\n      dup1\n      revert\n    tag_89:\n      pop\n      tag_90\n      tag_91\n      jump\t// in\n    tag_90:\n      mload(0x40)\n      tag_92\n      swap2\n      swap1\n      tag_93\n      jump\t// in\n    tag_92:\n      mload(0x40)\n      dup1\n      swap2\n      sub\n      swap1\n      return\n        /* \"contracts\\\\Greelance.sol\":5384:5674  function increaseAllowance(... */\n    tag_13:\n      callvalue\n      dup1\n      iszero\n      tag_94\n      jumpi\n      0x00\n      dup1\n      revert\n    tag_94:\n      pop\n      tag_95\n      0x04\n      dup1\n      calldatasize\n      sub\n      dup2\n      add\n      swap1\n      tag_96\n      swap2\n      swap1\n      tag_65\n      jump\t// in\n    tag_96:\n      tag_97\n      jump\t// in\n    tag_95:\n      mload(0x40)\n      tag_98\n      swap2\n      swap1\n      tag_68\n      jump\t// in\n    tag_98:\n      mload(0x40)\n      dup1\n      swap2\n      sub\n      swap1\n      return\n        /* \"contracts\\\\Greelance.sol\":8645:8673  address public uniswapV2Pair */\n    tag_14:\n      callvalue\n      dup1\n      iszero\n      tag_99\n      jumpi\n      0x00\n      dup1\n      revert\n    tag_99:\n      pop\n      tag_100\n      tag_101\n      jump\t// in\n    tag_100:\n      mload(0x40)\n      tag_102\n      swap2\n      swap1\n      tag_103\n      jump\t// in\n    tag_102:\n      mload(0x40)\n      dup1\n      swap2\n      sub\n      swap1\n      return\n        /* \"contracts\\\\Greelance.sol\":9679:9897  function setMaxSellableAmount(uint256 _maxAmount) external onlyOwner {... */\n    tag_15:\n      callvalue\n      dup1\n      iszero\n      tag_104\n      jumpi\n      0x00\n      dup1\n      revert\n    tag_104:\n      pop\n      tag_105\n      0x04\n      dup1\n      calldatasize\n      sub\n      dup2\n      add\n      swap1\n      tag_106\n      swap2\n      swap1\n      tag_107\n      jump\t// in\n    tag_106:\n      tag_108\n      jump\t// in\n    tag_105:\n      stop\n        /* \"contracts\\\\Greelance.sol\":8848:8874  bool public tradingEnabled */\n    tag_16:\n      callvalue\n      dup1\n      iszero\n      tag_109\n      jumpi\n      0x00\n      dup1\n      revert\n    tag_109:\n      pop\n      tag_110\n      tag_111\n      jump\t// in\n    tag_110:\n      mload(0x40)\n      tag_112\n      swap2\n      swap1\n      tag_68\n      jump\t// in\n    tag_112:\n      mload(0x40)\n      dup1\n      swap2\n      sub\n      swap1\n      return\n        /* \"contracts\\\\Greelance.sol\":10673:10799  function isExcludedFromFees(address account) public view returns (bool) {... */\n    tag_17:\n      callvalue\n      dup1\n      iszero\n      tag_113\n      jumpi\n      0x00\n      dup1\n      revert\n    tag_113:\n      pop\n      tag_114\n      0x04\n      dup1\n      calldatasize\n      sub\n      dup2\n      add\n      swap1\n      tag_115\n      swap2\n      swap1\n      tag_50\n      jump\t// in\n    tag_115:\n      tag_116\n      jump\t// in\n    tag_114:\n      mload(0x40)\n      tag_117\n      swap2\n      swap1\n      tag_68\n      jump\t// in\n    tag_117:\n      mload(0x40)\n      dup1\n      swap2\n      sub\n      swap1\n      return\n        /* \"contracts\\\\Greelance.sol\":8920:8952  uint256 public maxSellableAmount */\n    tag_18:\n      callvalue\n      dup1\n      iszero\n      tag_118\n      jumpi\n      0x00\n      dup1\n      revert\n    tag_118:\n      pop\n      tag_119\n      tag_120\n      jump\t// in\n    tag_119:\n      mload(0x40)\n      tag_121\n      swap2\n      swap1\n      tag_53\n      jump\t// in\n    tag_121:\n      mload(0x40)\n      dup1\n      swap2\n      sub\n      swap1\n      return\n        /* \"contracts\\\\Greelance.sol\":9072:9123  mapping(address => uint256) public tradingIn24Hours */\n    tag_19:\n      callvalue\n      dup1\n      iszero\n      tag_122\n      jumpi\n      0x00\n      dup1\n      revert\n    tag_122:\n      pop\n      tag_123\n      0x04\n      dup1\n      calldatasize\n      sub\n      dup2\n      add\n      swap1\n      tag_124\n      swap2\n      swap1\n      tag_50\n      jump\t// in\n    tag_124:\n      tag_125\n      jump\t// in\n    tag_123:\n      mload(0x40)\n      tag_126\n      swap2\n      swap1\n      tag_53\n      jump\t// in\n    tag_126:\n      mload(0x40)\n      dup1\n      swap2\n      sub\n      swap1\n      return\n        /* \"contracts\\\\Greelance.sol\":9905:10020  function removeMaxSellableRestriction() external onlyOwner {... */\n    tag_20:\n      callvalue\n      dup1\n      iszero\n      tag_127\n      jumpi\n      0x00\n      dup1\n      revert\n    tag_127:\n      pop\n      tag_128\n      tag_129\n      jump\t// in\n    tag_128:\n      stop\n        /* \"contracts\\\\Greelance.sol\":4009:4152  function balanceOf(... */\n    tag_21:\n      callvalue\n      dup1\n      iszero\n      tag_130\n      jumpi\n      0x00\n      dup1\n      revert\n    tag_130:\n      pop\n      tag_131\n      0x04\n      dup1\n      calldatasize\n      sub\n      dup2\n      add\n      swap1\n      tag_132\n      swap2\n      swap1\n      tag_50\n      jump\t// in\n    tag_132:\n      tag_133\n      jump\t// in\n    tag_131:\n      mload(0x40)\n      tag_134\n      swap2\n      swap1\n      tag_53\n      jump\t// in\n    tag_134:\n      mload(0x40)\n      dup1\n      swap2\n      sub\n      swap1\n      return\n        /* \"contracts\\\\Greelance.sol\":2723:2871  function renounceOwnership() public virtual onlyOwner {... */\n    tag_22:\n      callvalue\n      dup1\n      iszero\n      tag_135\n      jumpi\n      0x00\n      dup1\n      revert\n    tag_135:\n      pop\n      tag_136\n      tag_137\n      jump\t// in\n    tag_136:\n      stop\n        /* \"contracts\\\\Greelance.sol\":11169:11316  function enableTrading() external onlyOwner {... */\n    tag_23:\n      callvalue\n      dup1\n      iszero\n      tag_138\n      jumpi\n      0x00\n      dup1\n      revert\n    tag_138:\n      pop\n      tag_139\n      tag_140\n      jump\t// in\n    tag_139:\n      stop\n        /* \"contracts\\\\Greelance.sol\":8959:9008  bool public maxSellableRestrictionEnabled = false */\n    tag_24:\n      callvalue\n      dup1\n      iszero\n      tag_141\n      jumpi\n      0x00\n      dup1\n      revert\n    tag_141:\n      pop\n      tag_142\n      tag_143\n      jump\t// in\n    tag_142:\n      mload(0x40)\n      tag_144\n      swap2\n      swap1\n      tag_68\n      jump\t// in\n    tag_144:\n      mload(0x40)\n      dup1\n      swap2\n      sub\n      swap1\n      return\n        /* \"contracts\\\\Greelance.sol\":2509:2588  function owner() public view returns (address) {... */\n    tag_25:\n      callvalue\n      dup1\n      iszero\n      tag_145\n      jumpi\n      0x00\n      dup1\n      revert\n    tag_145:\n      pop\n      tag_146\n      tag_147\n      jump\t// in\n    tag_146:\n      mload(0x40)\n      tag_148\n      swap2\n      swap1\n      tag_103\n      jump\t// in\n    tag_148:\n      mload(0x40)\n      dup1\n      swap2\n      sub\n      swap1\n      return\n        /* \"contracts\\\\Greelance.sol\":3681:3785  function symbol() public view virtual override returns (string memory) {... */\n    tag_26:\n      callvalue\n      dup1\n      iszero\n      tag_149\n      jumpi\n      0x00\n      dup1\n      revert\n    tag_149:\n      pop\n      tag_150\n      tag_151\n      jump\t// in\n    tag_150:\n      mload(0x40)\n      tag_152\n      swap2\n      swap1\n      tag_58\n      jump\t// in\n    tag_152:\n      mload(0x40)\n      dup1\n      swap2\n      sub\n      swap1\n      return\n        /* \"contracts\\\\Greelance.sol\":8776:8803  uint256 public taxFeeOnSell */\n    tag_27:\n      callvalue\n      dup1\n      iszero\n      tag_153\n      jumpi\n      0x00\n      dup1\n      revert\n    tag_153:\n      pop\n      tag_154\n      tag_155\n      jump\t// in\n    tag_154:\n      mload(0x40)\n      tag_156\n      swap2\n      swap1\n      tag_53\n      jump\t// in\n    tag_156:\n      mload(0x40)\n      dup1\n      swap2\n      sub\n      swap1\n      return\n        /* \"contracts\\\\Greelance.sol\":10987:11161  function setSellTaxPercentage(uint256 _taxAmount) external onlyOwner {... */\n    tag_28:\n      callvalue\n      dup1\n      iszero\n      tag_157\n      jumpi\n      0x00\n      dup1\n      revert\n    tag_157:\n      pop\n      tag_158\n      0x04\n      dup1\n      calldatasize\n      sub\n      dup2\n      add\n      swap1\n      tag_159\n      swap2\n      swap1\n      tag_107\n      jump\t// in\n    tag_159:\n      tag_160\n      jump\t// in\n    tag_158:\n      stop\n        /* \"contracts\\\\Greelance.sol\":5682:6157  function decreaseAllowance(... */\n    tag_29:\n      callvalue\n      dup1\n      iszero\n      tag_161\n      jumpi\n      0x00\n      dup1\n      revert\n    tag_161:\n      pop\n      tag_162\n      0x04\n      dup1\n      calldatasize\n      sub\n      dup2\n      add\n      swap1\n      tag_163\n      swap2\n      swap1\n      tag_65\n      jump\t// in\n    tag_163:\n      tag_164\n      jump\t// in\n    tag_162:\n      mload(0x40)\n      tag_165\n      swap2\n      swap1\n      tag_68\n      jump\t// in\n    tag_165:\n      mload(0x40)\n      dup1\n      swap2\n      sub\n      swap1\n      return\n        /* \"contracts\\\\Greelance.sol\":10807:10979  function setBuyTaxPercentage(uint256 _taxAmount) external onlyOwner {... */\n    tag_30:\n      callvalue\n      dup1\n      iszero\n      tag_166\n      jumpi\n      0x00\n      dup1\n      revert\n    tag_166:\n      pop\n      tag_167\n      0x04\n      dup1\n      calldatasize\n      sub\n      dup2\n      add\n      swap1\n      tag_168\n      swap2\n      swap1\n      tag_107\n      jump\t// in\n    tag_168:\n      tag_169\n      jump\t// in\n    tag_167:\n      stop\n        /* \"contracts\\\\Greelance.sol\":4160:4360  function transfer(... */\n    tag_31:\n      callvalue\n      dup1\n      iszero\n      tag_170\n      jumpi\n      0x00\n      dup1\n      revert\n    tag_170:\n      pop\n      tag_171\n      0x04\n      dup1\n      calldatasize\n      sub\n      dup2\n      add\n      swap1\n      tag_172\n      swap2\n      swap1\n      tag_65\n      jump\t// in\n    tag_172:\n      tag_173\n      jump\t// in\n    tag_171:\n      mload(0x40)\n      tag_174\n      swap2\n      swap1\n      tag_68\n      jump\t// in\n    tag_174:\n      mload(0x40)\n      dup1\n      swap2\n      sub\n      swap1\n      return\n        /* \"contracts\\\\Greelance.sol\":8743:8769  uint256 public taxFeeOnBuy */\n    tag_32:\n      callvalue\n      dup1\n      iszero\n      tag_175\n      jumpi\n      0x00\n      dup1\n      revert\n    tag_175:\n      pop\n      tag_176\n      tag_177\n      jump\t// in\n    tag_176:\n      mload(0x40)\n      tag_178\n      swap2\n      swap1\n      tag_53\n      jump\t// in\n    tag_178:\n      mload(0x40)\n      dup1\n      swap2\n      sub\n      swap1\n      return\n        /* \"contracts\\\\Greelance.sol\":8812:8839  address public taxCollector */\n    tag_33:\n      callvalue\n      dup1\n      iszero\n      tag_179\n      jumpi\n      0x00\n      dup1\n      revert\n    tag_179:\n      pop\n      tag_180\n      tag_181\n      jump\t// in\n    tag_180:\n      mload(0x40)\n      tag_182\n      swap2\n      swap1\n      tag_103\n      jump\t// in\n    tag_182:\n      mload(0x40)\n      dup1\n      swap2\n      sub\n      swap1\n      return\n        /* \"contracts\\\\Greelance.sol\":10549:10665  function setUniswapPair(address _uniswapV2Pair) external onlyOwner {... */\n    tag_34:\n      callvalue\n      dup1\n      iszero\n      tag_183\n      jumpi\n      0x00\n      dup1\n      revert\n    tag_183:\n      pop\n      tag_184\n      0x04\n      dup1\n      calldatasize\n      sub\n      dup2\n      add\n      swap1\n      tag_185\n      swap2\n      swap1\n      tag_50\n      jump\t// in\n    tag_185:\n      tag_186\n      jump\t// in\n    tag_184:\n      stop\n        /* \"contracts\\\\Greelance.sol\":4368:4544  function allowance(... */\n    tag_35:\n      callvalue\n      dup1\n      iszero\n      tag_187\n      jumpi\n      0x00\n      dup1\n      revert\n    tag_187:\n      pop\n      tag_188\n      0x04\n      dup1\n      calldatasize\n      sub\n      dup2\n      add\n      swap1\n      tag_189\n      swap2\n      swap1\n      tag_190\n      jump\t// in\n    tag_189:\n      tag_191\n      jump\t// in\n    tag_188:\n      mload(0x40)\n      tag_192\n      swap2\n      swap1\n      tag_53\n      jump\t// in\n    tag_192:\n      mload(0x40)\n      dup1\n      swap2\n      sub\n      swap1\n      return\n        /* \"contracts\\\\Greelance.sol\":10028:10305  function excludeFromFees(address account) external onlyOwner {... */\n    tag_36:\n      callvalue\n      dup1\n      iszero\n      tag_193\n      jumpi\n      0x00\n      dup1\n      revert\n    tag_193:\n      pop\n      tag_194\n      0x04\n      dup1\n      calldatasize\n      sub\n      dup2\n      add\n      swap1\n      tag_195\n      swap2\n      swap1\n      tag_50\n      jump\t// in\n    tag_195:\n      tag_196\n      jump\t// in\n    tag_194:\n      stop\n        /* \"contracts\\\\Greelance.sol\":2879:3160  function transferOwnership(address newOwner) public virtual onlyOwner {... */\n    tag_37:\n      callvalue\n      dup1\n      iszero\n      tag_197\n      jumpi\n      0x00\n      dup1\n      revert\n    tag_197:\n      pop\n      tag_198\n      0x04\n      dup1\n      calldatasize\n      sub\n      dup2\n      add\n      swap1\n      tag_199\n      swap2\n      swap1\n      tag_50\n      jump\t// in\n    tag_199:\n      tag_200\n      jump\t// in\n    tag_198:\n      stop\n        /* \"contracts\\\\Greelance.sol\":9130:9178  mapping(address => uint256) public lastTradeTime */\n    tag_51:\n      mstore(0x20, 0x0e)\n      dup1\n      0x00\n      mstore\n      keccak256(0x00, 0x40)\n      0x00\n      swap2\n      pop\n      swap1\n      pop\n      sload\n      dup2\n      jump\t// out\n        /* \"contracts\\\\Greelance.sol\":3573:3673  function name() public view virtual override returns (string memory) {... */\n    tag_56:\n        /* \"contracts\\\\Greelance.sol\":3627:3640  string memory */\n      0x60\n        /* \"contracts\\\\Greelance.sol\":3660:3665  _name */\n      0x03\n        /* \"contracts\\\\Greelance.sol\":3653:3665  return _name */\n      dup1\n      sload\n      tag_202\n      swap1\n      tag_203\n      jump\t// in\n    tag_202:\n      dup1\n      0x1f\n      add\n      0x20\n      dup1\n      swap2\n      div\n      mul\n      0x20\n      add\n      mload(0x40)\n      swap1\n      dup2\n      add\n      0x40\n      mstore\n      dup1\n      swap3\n      swap2\n      swap1\n      dup2\n      dup2\n      mstore\n      0x20\n      add\n      dup3\n      dup1\n      sload\n      tag_204\n      swap1\n      tag_203\n      jump\t// in\n    tag_204:\n      dup1\n      iszero\n      tag_205\n      jumpi\n      dup1\n      0x1f\n      lt\n      tag_206\n      jumpi\n      0x0100\n      dup1\n      dup4\n      sload\n      div\n      mul\n      dup4\n      mstore\n      swap2\n      0x20\n      add\n      swap2\n      jump(tag_205)\n    tag_206:\n      dup3\n      add\n      swap2\n      swap1\n      0x00\n      mstore\n      keccak256(0x00, 0x20)\n      swap1\n    tag_207:\n      dup2\n      sload\n      dup2\n      mstore\n      swap1\n      0x01\n      add\n      swap1\n      0x20\n      add\n      dup1\n      dup4\n      gt\n      tag_207\n      jumpi\n      dup3\n      swap1\n      sub\n      0x1f\n      and\n      dup3\n      add\n      swap2\n    tag_205:\n      pop\n      pop\n      pop\n      pop\n      pop\n      swap1\n      pop\n        /* \"contracts\\\\Greelance.sol\":3573:3673  function name() public view virtual override returns (string memory) {... */\n      swap1\n      jump\t// out\n        /* \"contracts\\\\Greelance.sol\":10430:10541  function disable24HrsRestriction() external onlyOwner {... */\n    tag_61:\n        /* \"contracts\\\\Greelance.sol\":2646:2658  _msgSender() */\n      tag_209\n        /* \"contracts\\\\Greelance.sol\":2646:2656  _msgSender */\n      tag_210\n        /* \"contracts\\\\Greelance.sol\":2646:2658  _msgSender() */\n      jump\t// in\n    tag_209:\n        /* \"contracts\\\\Greelance.sol\":2636:2658  _owner == _msgSender() */\n      0xffffffffffffffffffffffffffffffffffffffff\n      and\n        /* \"contracts\\\\Greelance.sol\":2636:2642  _owner */\n      0x05\n      0x00\n      swap1\n      sload\n      swap1\n      0x0100\n      exp\n      swap1\n      div\n      0xffffffffffffffffffffffffffffffffffffffff\n      and\n        /* \"contracts\\\\Greelance.sol\":2636:2658  _owner == _msgSender() */\n      0xffffffffffffffffffffffffffffffffffffffff\n      and\n      eq\n        /* \"contracts\\\\Greelance.sol\":2628:2695  require(_owner == _msgSender(), \"Ownable: caller is not the owner\") */\n      tag_211\n      jumpi\n      mload(0x40)\n      0x08c379a000000000000000000000000000000000000000000000000000000000\n      dup2\n      mstore\n      0x04\n      add\n      tag_212\n      swap1\n      tag_213\n      jump\t// in\n    tag_212:\n      mload(0x40)\n      dup1\n      swap2\n      sub\n      swap1\n      revert\n    tag_211:\n        /* \"contracts\\\\Greelance.sol\":10528:10533  false */\n      0x00\n        /* \"contracts\\\\Greelance.sol\":10495:10525  trading24HrsRestrictionEnabled */\n      0x0c\n      0x01\n        /* \"contracts\\\\Greelance.sol\":10495:10533  trading24HrsRestrictionEnabled = false */\n      0x0100\n      exp\n      dup2\n      sload\n      dup2\n      0xff\n      mul\n      not\n      and\n      swap1\n      dup4\n      iszero\n      iszero\n      mul\n      or\n      swap1\n      sstore\n      pop\n        /* \"contracts\\\\Greelance.sol\":10430:10541  function disable24HrsRestriction() external onlyOwner {... */\n      jump\t// out\n        /* \"contracts\\\\Greelance.sol\":4552:4746  function approve(... */\n    tag_66:\n        /* \"contracts\\\\Greelance.sol\":4660:4664  bool */\n      0x00\n        /* \"contracts\\\\Greelance.sol\":4677:4716  _approve(_msgSender(), spender, amount) */\n      tag_216\n        /* \"contracts\\\\Greelance.sol\":4686:4698  _msgSender() */\n      tag_217\n        /* \"contracts\\\\Greelance.sol\":4686:4696  _msgSender */\n      tag_210\n        /* \"contracts\\\\Greelance.sol\":4686:4698  _msgSender() */\n      jump\t// in\n    tag_217:\n        /* \"contracts\\\\Greelance.sol\":4700:4707  spender */\n      dup5\n        /* \"contracts\\\\Greelance.sol\":4709:4715  amount */\n      dup5\n        /* \"contracts\\\\Greelance.sol\":4677:4685  _approve */\n      tag_218\n        /* \"contracts\\\\Greelance.sol\":4677:4716  _approve(_msgSender(), spender, amount) */\n      jump\t// in\n    tag_216:\n        /* \"contracts\\\\Greelance.sol\":4734:4738  true */\n      0x01\n        /* \"contracts\\\\Greelance.sol\":4727:4738  return true */\n      swap1\n      pop\n        /* \"contracts\\\\Greelance.sol\":4552:4746  function approve(... */\n      swap3\n      swap2\n      pop\n      pop\n      jump\t// out\n        /* \"contracts\\\\Greelance.sol\":9483:9671  function mint() external onlyOwner {... */\n    tag_71:\n        /* \"contracts\\\\Greelance.sol\":2646:2658  _msgSender() */\n      tag_220\n        /* \"contracts\\\\Greelance.sol\":2646:2656  _msgSender */\n      tag_210\n        /* \"contracts\\\\Greelance.sol\":2646:2658  _msgSender() */\n      jump\t// in\n    tag_220:\n        /* \"contracts\\\\Greelance.sol\":2636:2658  _owner == _msgSender() */\n      0xffffffffffffffffffffffffffffffffffffffff\n      and\n        /* \"contracts\\\\Greelance.sol\":2636:2642  _owner */\n      0x05\n      0x00\n      swap1\n      sload\n      swap1\n      0x0100\n      exp\n      swap1\n      div\n      0xffffffffffffffffffffffffffffffffffffffff\n      and\n        /* \"contracts\\\\Greelance.sol\":2636:2658  _owner == _msgSender() */\n      0xffffffffffffffffffffffffffffffffffffffff\n      and\n      eq\n        /* \"contracts\\\\Greelance.sol\":2628:2695  require(_owner == _msgSender(), \"Ownable: caller is not the owner\") */\n      tag_221\n      jumpi\n      mload(0x40)\n      0x08c379a000000000000000000000000000000000000000000000000000000000\n      dup2\n      mstore\n      0x04\n      add\n      tag_222\n      swap1\n      tag_213\n      jump\t// in\n    tag_222:\n      mload(0x40)\n      dup1\n      swap2\n      sub\n      swap1\n      revert\n    tag_221:\n        /* \"contracts\\\\Greelance.sol\":9538:9549  tokenMinted */\n      0x0a\n      0x15\n      swap1\n      sload\n      swap1\n      0x0100\n      exp\n      swap1\n      div\n      0xff\n      and\n        /* \"contracts\\\\Greelance.sol\":9537:9549  !tokenMinted */\n      iszero\n        /* \"contracts\\\\Greelance.sol\":9529:9576  require(!tokenMinted, \"Tokens already minted!\") */\n      tag_224\n      jumpi\n      mload(0x40)\n      0x08c379a000000000000000000000000000000000000000000000000000000000\n      dup2\n      mstore\n      0x04\n      add\n      tag_225\n      swap1\n      tag_226\n      jump\t// in\n    tag_225:\n      mload(0x40)\n      dup1\n      swap2\n      sub\n      swap1\n      revert\n    tag_224:\n        /* \"contracts\\\\Greelance.sol\":9601:9605  true */\n      0x01\n        /* \"contracts\\\\Greelance.sol\":9587:9598  tokenMinted */\n      0x0a\n      0x15\n        /* \"contracts\\\\Greelance.sol\":9587:9605  tokenMinted = true */\n      0x0100\n      exp\n      dup2\n      sload\n      dup2\n      0xff\n      mul\n      not\n      and\n      swap1\n      dup4\n      iszero\n      iszero\n      mul\n      or\n      swap1\n      sstore\n      pop\n        /* \"contracts\\\\Greelance.sol\":9616:9663  _mint(owner(), 2000000000 * (10 ** decimals())) */\n      tag_227\n        /* \"contracts\\\\Greelance.sol\":9622:9629  owner() */\n      tag_228\n        /* \"contracts\\\\Greelance.sol\":9622:9627  owner */\n      tag_147\n        /* \"contracts\\\\Greelance.sol\":9622:9629  owner() */\n      jump\t// in\n    tag_228:\n        /* \"contracts\\\\Greelance.sol\":9651:9661  decimals() */\n      tag_229\n        /* \"contracts\\\\Greelance.sol\":9651:9659  decimals */\n      tag_91\n        /* \"contracts\\\\Greelance.sol\":9651:9661  decimals() */\n      jump\t// in\n    tag_229:\n        /* \"contracts\\\\Greelance.sol\":9645:9647  10 */\n      0x0a\n        /* \"contracts\\\\Greelance.sol\":9645:9661  10 ** decimals() */\n      tag_230\n      swap2\n      swap1\n      tag_231\n      jump\t// in\n    tag_230:\n        /* \"contracts\\\\Greelance.sol\":9631:9641  2000000000 */\n      0x77359400\n        /* \"contracts\\\\Greelance.sol\":9631:9662  2000000000 * (10 ** decimals()) */\n      tag_232\n      swap2\n      swap1\n      tag_233\n      jump\t// in\n    tag_232:\n        /* \"contracts\\\\Greelance.sol\":9616:9621  _mint */\n      tag_234\n        /* \"contracts\\\\Greelance.sol\":9616:9663  _mint(owner(), 2000000000 * (10 ** decimals())) */\n      jump\t// in\n    tag_227:\n        /* \"contracts\\\\Greelance.sol\":9483:9671  function mint() external onlyOwner {... */\n      jump\t// out\n        /* \"contracts\\\\Greelance.sol\":9015:9065  bool public trading24HrsRestrictionEnabled = false */\n    tag_74:\n      0x0c\n      0x01\n      swap1\n      sload\n      swap1\n      0x0100\n      exp\n      swap1\n      div\n      0xff\n      and\n      dup2\n      jump\t// out\n        /* \"contracts\\\\Greelance.sol\":3893:4001  function totalSupply() public view virtual override returns (uint256) {... */\n    tag_78:\n        /* \"contracts\\\\Greelance.sol\":3954:3961  uint256 */\n      0x00\n        /* \"contracts\\\\Greelance.sol\":3981:3993  _totalSupply */\n      sload(0x02)\n        /* \"contracts\\\\Greelance.sol\":3974:3993  return _totalSupply */\n      swap1\n      pop\n        /* \"contracts\\\\Greelance.sol\":3893:4001  function totalSupply() public view virtual override returns (uint256) {... */\n      swap1\n      jump\t// out\n        /* \"contracts\\\\Greelance.sol\":4754:5376  function transferFrom(... */\n    tag_84:\n        /* \"contracts\\\\Greelance.sol\":4894:4898  bool */\n      0x00\n        /* \"contracts\\\\Greelance.sol\":4911:4935  uint256 currentAllowance */\n      dup1\n        /* \"contracts\\\\Greelance.sol\":4938:4949  _allowances */\n      0x01\n        /* \"contracts\\\\Greelance.sol\":4938:4957  _allowances[sender] */\n      0x00\n        /* \"contracts\\\\Greelance.sol\":4950:4956  sender */\n      dup7\n        /* \"contracts\\\\Greelance.sol\":4938:4957  _allowances[sender] */\n      0xffffffffffffffffffffffffffffffffffffffff\n      and\n      0xffffffffffffffffffffffffffffffffffffffff\n      and\n      dup2\n      mstore\n      0x20\n      add\n      swap1\n      dup2\n      mstore\n      0x20\n      add\n      0x00\n      keccak256\n        /* \"contracts\\\\Greelance.sol\":4938:4971  _allowances[sender][_msgSender()] */\n      0x00\n        /* \"contracts\\\\Greelance.sol\":4958:4970  _msgSender() */\n      tag_237\n        /* \"contracts\\\\Greelance.sol\":4958:4968  _msgSender */\n      tag_210\n        /* \"contracts\\\\Greelance.sol\":4958:4970  _msgSender() */\n      jump\t// in\n    tag_237:\n        /* \"contracts\\\\Greelance.sol\":4938:4971  _allowances[sender][_msgSender()] */\n      0xffffffffffffffffffffffffffffffffffffffff\n      and\n      0xffffffffffffffffffffffffffffffffffffffff\n      and\n      dup2\n      mstore\n      0x20\n      add\n      swap1\n      dup2\n      mstore\n      0x20\n      add\n      0x00\n      keccak256\n      sload\n        /* \"contracts\\\\Greelance.sol\":4911:4971  uint256 currentAllowance = _allowances[sender][_msgSender()] */\n      swap1\n      pop\n        /* \"contracts\\\\Greelance.sol\":5006:5023  type(uint256).max */\n      0xffffffffffffffffffffffffffffffffffffffffffffffffffffffffffffffff\n        /* \"contracts\\\\Greelance.sol\":4986:5002  currentAllowance */\n      dup2\n        /* \"contracts\\\\Greelance.sol\":4986:5023  currentAllowance != type(uint256).max */\n      eq\n        /* \"contracts\\\\Greelance.sol\":4982:5296  if (currentAllowance != type(uint256).max) {... */\n      tag_238\n      jumpi\n        /* \"contracts\\\\Greelance.sol\":5086:5092  amount */\n      dup3\n        /* \"contracts\\\\Greelance.sol\":5066:5082  currentAllowance */\n      dup2\n        /* \"contracts\\\\Greelance.sol\":5066:5092  currentAllowance >= amount */\n      lt\n      iszero\n        /* \"contracts\\\\Greelance.sol\":5040:5168  require(... */\n      tag_239\n      jumpi\n      mload(0x40)\n      0x08c379a000000000000000000000000000000000000000000000000000000000\n      dup2\n      mstore\n      0x04\n      add\n      tag_240\n      swap1\n      tag_241\n      jump\t// in\n    tag_240:\n      mload(0x40)\n      dup1\n      swap2\n      sub\n      swap1\n      revert\n    tag_239:\n        /* \"contracts\\\\Greelance.sol\":5212:5269  _approve(sender, _msgSender(), currentAllowance - amount) */\n      tag_242\n        /* \"contracts\\\\Greelance.sol\":5221:5227  sender */\n      dup6\n        /* \"contracts\\\\Greelance.sol\":5229:5241  _msgSender() */\n      tag_243\n        /* \"contracts\\\\Greelance.sol\":5229:5239  _msgSender */\n      tag_210\n        /* \"contracts\\\\Greelance.sol\":5229:5241  _msgSender() */\n      jump\t// in\n    tag_243:\n        /* \"contracts\\\\Greelance.sol\":5262:5268  amount */\n      dup6\n        /* \"contracts\\\\Greelance.sol\":5243:5259  currentAllowance */\n      dup5\n        /* \"contracts\\\\Greelance.sol\":5243:5268  currentAllowance - amount */\n      sub\n        /* \"contracts\\\\Greelance.sol\":5212:5220  _approve */\n      tag_218\n        /* \"contracts\\\\Greelance.sol\":5212:5269  _approve(sender, _msgSender(), currentAllowance - amount) */\n      jump\t// in\n    tag_242:\n        /* \"contracts\\\\Greelance.sol\":4982:5296  if (currentAllowance != type(uint256).max) {... */\n    tag_238:\n        /* \"contracts\\\\Greelance.sol\":5308:5344  _transfer(sender, recipient, amount) */\n      tag_244\n        /* \"contracts\\\\Greelance.sol\":5318:5324  sender */\n      dup6\n        /* \"contracts\\\\Greelance.sol\":5326:5335  recipient */\n      dup6\n        /* \"contracts\\\\Greelance.sol\":5337:5343  amount */\n      dup6\n        /* \"contracts\\\\Greelance.sol\":5308:5317  _transfer */\n      tag_245\n        /* \"contracts\\\\Greelance.sol\":5308:5344  _transfer(sender, recipient, amount) */\n      jump\t// in\n    tag_244:\n        /* \"contracts\\\\Greelance.sol\":5364:5368  true */\n      0x01\n        /* \"contracts\\\\Greelance.sol\":5357:5368  return true */\n      swap2\n      pop\n      pop\n        /* \"contracts\\\\Greelance.sol\":4754:5376  function transferFrom(... */\n      swap4\n      swap3\n      pop\n      pop\n      pop\n      jump\t// out\n        /* \"contracts\\\\Greelance.sol\":10313:10422  function enable24HrsRestriction() external onlyOwner {... */\n    tag_88:\n        /* \"contracts\\\\Greelance.sol\":2646:2658  _msgSender() */\n      tag_247\n        /* \"contracts\\\\Greelance.sol\":2646:2656  _msgSender */\n      tag_210\n        /* \"contracts\\\\Greelance.sol\":2646:2658  _msgSender() */\n      jump\t// in\n    tag_247:\n        /* \"contracts\\\\Greelance.sol\":2636:2658  _owner == _msgSender() */\n      0xffffffffffffffffffffffffffffffffffffffff\n      and\n        /* \"contracts\\\\Greelance.sol\":2636:2642  _owner */\n      0x05\n      0x00\n      swap1\n      sload\n      swap1\n      0x0100\n      exp\n      swap1\n      div\n      0xffffffffffffffffffffffffffffffffffffffff\n      and\n        /* \"contracts\\\\Greelance.sol\":2636:2658  _owner == _msgSender() */\n      0xffffffffffffffffffffffffffffffffffffffff\n      and\n      eq\n        /* \"contracts\\\\Greelance.sol\":2628:2695  require(_owner == _msgSender(), \"Ownable: caller is not the owner\") */\n      tag_248\n      jumpi\n      mload(0x40)\n      0x08c379a000000000000000000000000000000000000000000000000000000000\n      dup2\n      mstore\n      0x04\n      add\n      tag_249\n      swap1\n      tag_213\n      jump\t// in\n    tag_249:\n      mload(0x40)\n      dup1\n      swap2\n      sub\n      swap1\n      revert\n    tag_248:\n        /* \"contracts\\\\Greelance.sol\":10410:10414  true */\n      0x01\n        /* \"contracts\\\\Greelance.sol\":10377:10407  trading24HrsRestrictionEnabled */\n      0x0c\n      0x01\n        /* \"contracts\\\\Greelance.sol\":10377:10414  trading24HrsRestrictionEnabled = true */\n      0x0100\n      exp\n      dup2\n      sload\n      dup2\n      0xff\n      mul\n      not\n      and\n      swap1\n      dup4\n      iszero\n      iszero\n      mul\n      or\n      swap1\n      sstore\n      pop\n        /* \"contracts\\\\Greelance.sol\":10313:10422  function enable24HrsRestriction() external onlyOwner {... */\n      jump\t// out\n        /* \"contracts\\\\Greelance.sol\":3793:3885  function decimals() public view virtual override returns (uint8) {... */\n    tag_91:\n        /* \"contracts\\\\Greelance.sol\":3851:3856  uint8 */\n      0x00\n        /* \"contracts\\\\Greelance.sol\":3876:3877  9 */\n      0x09\n        /* \"contracts\\\\Greelance.sol\":3869:3877  return 9 */\n      swap1\n      pop\n        /* \"contracts\\\\Greelance.sol\":3793:3885  function decimals() public view virtual override returns (uint8) {... */\n      swap1\n      jump\t// out\n        /* \"contracts\\\\Greelance.sol\":5384:5674  function increaseAllowance(... */\n    tag_97:\n        /* \"contracts\\\\Greelance.sol\":5497:5501  bool */\n      0x00\n        /* \"contracts\\\\Greelance.sol\":5514:5644  _approve(... */\n      tag_253\n        /* \"contracts\\\\Greelance.sol\":5537:5549  _msgSender() */\n      tag_254\n        /* \"contracts\\\\Greelance.sol\":5537:5547  _msgSender */\n      tag_210\n        /* \"contracts\\\\Greelance.sol\":5537:5549  _msgSender() */\n      jump\t// in\n    tag_254:\n        /* \"contracts\\\\Greelance.sol\":5564:5571  spender */\n      dup5\n        /* \"contracts\\\\Greelance.sol\":5623:5633  addedValue */\n      dup5\n        /* \"contracts\\\\Greelance.sol\":5586:5597  _allowances */\n      0x01\n        /* \"contracts\\\\Greelance.sol\":5586:5611  _allowances[_msgSender()] */\n      0x00\n        /* \"contracts\\\\Greelance.sol\":5598:5610  _msgSender() */\n      tag_255\n        /* \"contracts\\\\Greelance.sol\":5598:5608  _msgSender */\n      tag_210\n        /* \"contracts\\\\Greelance.sol\":5598:5610  _msgSender() */\n      jump\t// in\n    tag_255:\n        /* \"contracts\\\\Greelance.sol\":5586:5611  _allowances[_msgSender()] */\n      0xffffffffffffffffffffffffffffffffffffffff\n      and\n      0xffffffffffffffffffffffffffffffffffffffff\n      and\n      dup2\n      mstore\n      0x20\n      add\n      swap1\n      dup2\n      mstore\n      0x20\n      add\n      0x00\n      keccak256\n        /* \"contracts\\\\Greelance.sol\":5586:5620  _allowances[_msgSender()][spender] */\n      0x00\n        /* \"contracts\\\\Greelance.sol\":5612:5619  spender */\n      dup9\n        /* \"contracts\\\\Greelance.sol\":5586:5620  _allowances[_msgSender()][spender] */\n      0xffffffffffffffffffffffffffffffffffffffff\n      and\n      0xffffffffffffffffffffffffffffffffffffffff\n      and\n      dup2\n      mstore\n      0x20\n      add\n      swap1\n      dup2\n      mstore\n      0x20\n      add\n      0x00\n      keccak256\n      sload\n        /* \"contracts\\\\Greelance.sol\":5586:5633  _allowances[_msgSender()][spender] + addedValue */\n      tag_256\n      swap2\n      swap1\n      tag_257\n      jump\t// in\n    tag_256:\n        /* \"contracts\\\\Greelance.sol\":5514:5522  _approve */\n      tag_218\n        /* \"contracts\\\\Greelance.sol\":5514:5644  _approve(... */\n      jump\t// in\n    tag_253:\n        /* \"contracts\\\\Greelance.sol\":5662:5666  true */\n      0x01\n        /* \"contracts\\\\Greelance.sol\":5655:5666  return true */\n      swap1\n      pop\n        /* \"contracts\\\\Greelance.sol\":5384:5674  function increaseAllowance(... */\n      swap3\n      swap2\n      pop\n      pop\n      jump\t// out\n        /* \"contracts\\\\Greelance.sol\":8645:8673  address public uniswapV2Pair */\n    tag_101:\n      0x06\n      0x00\n      swap1\n      sload\n      swap1\n      0x0100\n      exp\n      swap1\n      div\n      0xffffffffffffffffffffffffffffffffffffffff\n      and\n      dup2\n      jump\t// out\n        /* \"contracts\\\\Greelance.sol\":9679:9897  function setMaxSellableAmount(uint256 _maxAmount) external onlyOwner {... */\n    tag_108:\n        /* \"contracts\\\\Greelance.sol\":2646:2658  _msgSender() */\n      tag_259\n        /* \"contracts\\\\Greelance.sol\":2646:2656  _msgSender */\n      tag_210\n        /* \"contracts\\\\Greelance.sol\":2646:2658  _msgSender() */\n      jump\t// in\n    tag_259:\n        /* \"contracts\\\\Greelance.sol\":2636:2658  _owner == _msgSender() */\n      0xffffffffffffffffffffffffffffffffffffffff\n      and\n        /* \"contracts\\\\Greelance.sol\":2636:2642  _owner */\n      0x05\n      0x00\n      swap1\n      sload\n      swap1\n      0x0100\n      exp\n      swap1\n      div\n      0xffffffffffffffffffffffffffffffffffffffff\n      and\n        /* \"contracts\\\\Greelance.sol\":2636:2658  _owner == _msgSender() */\n      0xffffffffffffffffffffffffffffffffffffffff\n      and\n      eq\n        /* \"contracts\\\\Greelance.sol\":2628:2695  require(_owner == _msgSender(), \"Ownable: caller is not the owner\") */\n      tag_260\n      jumpi\n      mload(0x40)\n      0x08c379a000000000000000000000000000000000000000000000000000000000\n      dup2\n      mstore\n      0x04\n      add\n      tag_261\n      swap1\n      tag_213\n      jump\t// in\n    tag_261:\n      mload(0x40)\n      dup1\n      swap2\n      sub\n      swap1\n      revert\n    tag_260:\n        /* \"contracts\\\\Greelance.sol\":9780:9781  0 */\n      0x00\n        /* \"contracts\\\\Greelance.sol\":9767:9777  _maxAmount */\n      dup2\n        /* \"contracts\\\\Greelance.sol\":9767:9781  _maxAmount > 0 */\n      gt\n        /* \"contracts\\\\Greelance.sol\":9759:9801  require(_maxAmount > 0, \"Invalid amount!\") */\n      tag_263\n      jumpi\n      mload(0x40)\n      0x08c379a000000000000000000000000000000000000000000000000000000000\n      dup2\n      mstore\n      0x04\n      add\n      tag_264\n      swap1\n      tag_265\n      jump\t// in\n    tag_264:\n      mload(0x40)\n      dup1\n      swap2\n      sub\n      swap1\n      revert\n    tag_263:\n        /* \"contracts\\\\Greelance.sol\":9832:9842  _maxAmount */\n      dup1\n        /* \"contracts\\\\Greelance.sol\":9812:9829  maxSellableAmount */\n      0x0b\n        /* \"contracts\\\\Greelance.sol\":9812:9842  maxSellableAmount = _maxAmount */\n      dup2\n      swap1\n      sstore\n      pop\n        /* \"contracts\\\\Greelance.sol\":9885:9889  true */\n      0x01\n        /* \"contracts\\\\Greelance.sol\":9853:9882  maxSellableRestrictionEnabled */\n      0x0c\n      0x00\n        /* \"contracts\\\\Greelance.sol\":9853:9889  maxSellableRestrictionEnabled = true */\n      0x0100\n      exp\n      dup2\n      sload\n      dup2\n      0xff\n      mul\n      not\n      and\n      swap1\n      dup4\n      iszero\n      iszero\n      mul\n      or\n      swap1\n      sstore\n      pop\n        /* \"contracts\\\\Greelance.sol\":9679:9897  function setMaxSellableAmount(uint256 _maxAmount) external onlyOwner {... */\n      pop\n      jump\t// out\n        /* \"contracts\\\\Greelance.sol\":8848:8874  bool public tradingEnabled */\n    tag_111:\n      0x0a\n      0x14\n      swap1\n      sload\n      swap1\n      0x0100\n      exp\n      swap1\n      div\n      0xff\n      and\n      dup2\n      jump\t// out\n        /* \"contracts\\\\Greelance.sol\":10673:10799  function isExcludedFromFees(address account) public view returns (bool) {... */\n    tag_116:\n        /* \"contracts\\\\Greelance.sol\":10739:10743  bool */\n      0x00\n        /* \"contracts\\\\Greelance.sol\":10763:10782  _isExcludedFromFees */\n      0x07\n        /* \"contracts\\\\Greelance.sol\":10763:10791  _isExcludedFromFees[account] */\n      0x00\n        /* \"contracts\\\\Greelance.sol\":10783:10790  account */\n      dup4\n        /* \"contracts\\\\Greelance.sol\":10763:10791  _isExcludedFromFees[account] */\n      0xffffffffffffffffffffffffffffffffffffffff\n      and\n      0xffffffffffffffffffffffffffffffffffffffff\n      and\n      dup2\n      mstore\n      0x20\n      add\n      swap1\n      dup2\n      mstore\n      0x20\n      add\n      0x00\n      keccak256\n      0x00\n      swap1\n      sload\n      swap1\n      0x0100\n      exp\n      swap1\n      div\n      0xff\n      and\n        /* \"contracts\\\\Greelance.sol\":10756:10791  return _isExcludedFromFees[account] */\n      swap1\n      pop\n        /* \"contracts\\\\Greelance.sol\":10673:10799  function isExcludedFromFees(address account) public view returns (bool) {... */\n      swap2\n      swap1\n      pop\n      jump\t// out\n        /* \"contracts\\\\Greelance.sol\":8920:8952  uint256 public maxSellableAmount */\n    tag_120:\n      sload(0x0b)\n      dup2\n      jump\t// out\n        /* \"contracts\\\\Greelance.sol\":9072:9123  mapping(address => uint256) public tradingIn24Hours */\n    tag_125:\n      mstore(0x20, 0x0d)\n      dup1\n      0x00\n      mstore\n      keccak256(0x00, 0x40)\n      0x00\n      swap2\n      pop\n      swap1\n      pop\n      sload\n      dup2\n      jump\t// out\n        /* \"contracts\\\\Greelance.sol\":9905:10020  function removeMaxSellableRestriction() external onlyOwner {... */\n    tag_129:\n        /* \"contracts\\\\Greelance.sol\":2646:2658  _msgSender() */\n      tag_268\n        /* \"contracts\\\\Greelance.sol\":2646:2656  _msgSender */\n      tag_210\n        /* \"contracts\\\\Greelance.sol\":2646:2658  _msgSender() */\n      jump\t// in\n    tag_268:\n        /* \"contracts\\\\Greelance.sol\":2636:2658  _owner == _msgSender() */\n      0xffffffffffffffffffffffffffffffffffffffff\n      and\n        /* \"contracts\\\\Greelance.sol\":2636:2642  _owner */\n      0x05\n      0x00\n      swap1\n      sload\n      swap1\n      0x0100\n      exp\n      swap1\n      div\n      0xffffffffffffffffffffffffffffffffffffffff\n      and\n        /* \"contracts\\\\Greelance.sol\":2636:2658  _owner == _msgSender() */\n      0xffffffffffffffffffffffffffffffffffffffff\n      and\n      eq\n        /* \"contracts\\\\Greelance.sol\":2628:2695  require(_owner == _msgSender(), \"Ownable: caller is not the owner\") */\n      tag_269\n      jumpi\n      mload(0x40)\n      0x08c379a000000000000000000000000000000000000000000000000000000000\n      dup2\n      mstore\n      0x04\n      add\n      tag_270\n      swap1\n      tag_213\n      jump\t// in\n    tag_270:\n      mload(0x40)\n      dup1\n      swap2\n      sub\n      swap1\n      revert\n    tag_269:\n        /* \"contracts\\\\Greelance.sol\":10007:10012  false */\n      0x00\n        /* \"contracts\\\\Greelance.sol\":9975:10004  maxSellableRestrictionEnabled */\n      0x0c\n      0x00\n        /* \"contracts\\\\Greelance.sol\":9975:10012  maxSellableRestrictionEnabled = false */\n      0x0100\n      exp\n      dup2\n      sload\n      dup2\n      0xff\n      mul\n      not\n      and\n      swap1\n      dup4\n      iszero\n      iszero\n      mul\n      or\n      swap1\n      sstore\n      pop\n        /* \"contracts\\\\Greelance.sol\":9905:10020  function removeMaxSellableRestriction() external onlyOwner {... */\n      jump\t// out\n        /* \"contracts\\\\Greelance.sol\":4009:4152  function balanceOf(... */\n    tag_133:\n        /* \"contracts\\\\Greelance.sol\":4099:4106  uint256 */\n      0x00\n        /* \"contracts\\\\Greelance.sol\":4126:4135  _balances */\n      dup1\n        /* \"contracts\\\\Greelance.sol\":4126:4144  _balances[account] */\n      0x00\n        /* \"contracts\\\\Greelance.sol\":4136:4143  account */\n      dup4\n        /* \"contracts\\\\Greelance.sol\":4126:4144  _balances[account] */\n      0xffffffffffffffffffffffffffffffffffffffff\n      and\n      0xffffffffffffffffffffffffffffffffffffffff\n      and\n      dup2\n      mstore\n      0x20\n      add\n      swap1\n      dup2\n      mstore\n      0x20\n      add\n      0x00\n      keccak256\n      sload\n        /* \"contracts\\\\Greelance.sol\":4119:4144  return _balances[account] */\n      swap1\n      pop\n        /* \"contracts\\\\Greelance.sol\":4009:4152  function balanceOf(... */\n      swap2\n      swap1\n      pop\n      jump\t// out\n        /* \"contracts\\\\Greelance.sol\":2723:2871  function renounceOwnership() public virtual onlyOwner {... */\n    tag_137:\n        /* \"contracts\\\\Greelance.sol\":2646:2658  _msgSender() */\n      tag_274\n        /* \"contracts\\\\Greelance.sol\":2646:2656  _msgSender */\n      tag_210\n        /* \"contracts\\\\Greelance.sol\":2646:2658  _msgSender() */\n      jump\t// in\n    tag_274:\n        /* \"contracts\\\\Greelance.sol\":2636:2658  _owner == _msgSender() */\n      0xffffffffffffffffffffffffffffffffffffffff\n      and\n        /* \"contracts\\\\Greelance.sol\":2636:2642  _owner */\n      0x05\n      0x00\n      swap1\n      sload\n      swap1\n      0x0100\n      exp\n      swap1\n      div\n      0xffffffffffffffffffffffffffffffffffffffff\n      and\n        /* \"contracts\\\\Greelance.sol\":2636:2658  _owner == _msgSender() */\n      0xffffffffffffffffffffffffffffffffffffffff\n      and\n      eq\n        /* \"contracts\\\\Greelance.sol\":2628:2695  require(_owner == _msgSender(), \"Ownable: caller is not the owner\") */\n      tag_275\n      jumpi\n      mload(0x40)\n      0x08c379a000000000000000000000000000000000000000000000000000000000\n      dup2\n      mstore\n      0x04\n      add\n      tag_276\n      swap1\n      tag_213\n      jump\t// in\n    tag_276:\n      mload(0x40)\n      dup1\n      swap2\n      sub\n      swap1\n      revert\n    tag_275:\n        /* \"contracts\\\\Greelance.sol\":2830:2831  0 */\n      0x00\n        /* \"contracts\\\\Greelance.sol\":2793:2833  OwnershipTransferred(_owner, address(0)) */\n      0xffffffffffffffffffffffffffffffffffffffff\n      and\n        /* \"contracts\\\\Greelance.sol\":2814:2820  _owner */\n      0x05\n      0x00\n      swap1\n      sload\n      swap1\n      0x0100\n      exp\n      swap1\n      div\n      0xffffffffffffffffffffffffffffffffffffffff\n      and\n        /* \"contracts\\\\Greelance.sol\":2793:2833  OwnershipTransferred(_owner, address(0)) */\n      0xffffffffffffffffffffffffffffffffffffffff\n      and\n      0x8be0079c531659141344cd1fd0a4f28419497f9722a3daafe3b4186f6b6457e0\n      mload(0x40)\n      mload(0x40)\n      dup1\n      swap2\n      sub\n      swap1\n      log3\n        /* \"contracts\\\\Greelance.sol\":2861:2862  0 */\n      0x00\n        /* \"contracts\\\\Greelance.sol\":2844:2850  _owner */\n      0x05\n      0x00\n        /* \"contracts\\\\Greelance.sol\":2844:2863  _owner = address(0) */\n      0x0100\n      exp\n      dup2\n      sload\n      dup2\n      0xffffffffffffffffffffffffffffffffffffffff\n      mul\n      not\n      and\n      swap1\n      dup4\n      0xffffffffffffffffffffffffffffffffffffffff\n      and\n      mul\n      or\n      swap1\n      sstore\n      pop\n        /* \"contracts\\\\Greelance.sol\":2723:2871  function renounceOwnership() public virtual onlyOwner {... */\n      jump\t// out\n        /* \"contracts\\\\Greelance.sol\":11169:11316  function enableTrading() external onlyOwner {... */\n    tag_140:\n        /* \"contracts\\\\Greelance.sol\":2646:2658  _msgSender() */\n      tag_279\n        /* \"contracts\\\\Greelance.sol\":2646:2656  _msgSender */\n      tag_210\n        /* \"contracts\\\\Greelance.sol\":2646:2658  _msgSender() */\n      jump\t// in\n    tag_279:\n        /* \"contracts\\\\Greelance.sol\":2636:2658  _owner == _msgSender() */\n      0xffffffffffffffffffffffffffffffffffffffff\n      and\n        /* \"contracts\\\\Greelance.sol\":2636:2642  _owner */\n      0x05\n      0x00\n      swap1\n      sload\n      swap1\n      0x0100\n      exp\n      swap1\n      div\n      0xffffffffffffffffffffffffffffffffffffffff\n      and\n        /* \"contracts\\\\Greelance.sol\":2636:2658  _owner == _msgSender() */\n      0xffffffffffffffffffffffffffffffffffffffff\n      and\n      eq\n        /* \"contracts\\\\Greelance.sol\":2628:2695  require(_owner == _msgSender(), \"Ownable: caller is not the owner\") */\n      tag_280\n      jumpi\n      mload(0x40)\n      0x08c379a000000000000000000000000000000000000000000000000000000000\n      dup2\n      mstore\n      0x04\n      add\n      tag_281\n      swap1\n      tag_213\n      jump\t// in\n    tag_281:\n      mload(0x40)\n      dup1\n      swap2\n      sub\n      swap1\n      revert\n    tag_280:\n        /* \"contracts\\\\Greelance.sol\":11233:11247  tradingEnabled */\n      0x0a\n      0x14\n      swap1\n      sload\n      swap1\n      0x0100\n      exp\n      swap1\n      div\n      0xff\n      and\n        /* \"contracts\\\\Greelance.sol\":11232:11247  !tradingEnabled */\n      iszero\n        /* \"contracts\\\\Greelance.sol\":11224:11276  require(!tradingEnabled, \"Trading already enabled.\") */\n      tag_283\n      jumpi\n      mload(0x40)\n      0x08c379a000000000000000000000000000000000000000000000000000000000\n      dup2\n      mstore\n      0x04\n      add\n      tag_284\n      swap1\n      tag_285\n      jump\t// in\n    tag_284:\n      mload(0x40)\n      dup1\n      swap2\n      sub\n      swap1\n      revert\n    tag_283:\n        /* \"contracts\\\\Greelance.sol\":11304:11308  true */\n      0x01\n        /* \"contracts\\\\Greelance.sol\":11287:11301  tradingEnabled */\n      0x0a\n      0x14\n        /* \"contracts\\\\Greelance.sol\":11287:11308  tradingEnabled = true */\n      0x0100\n      exp\n      dup2\n      sload\n      dup2\n      0xff\n      mul\n      not\n      and\n      swap1\n      dup4\n      iszero\n      iszero\n      mul\n      or\n      swap1\n      sstore\n      pop\n        /* \"contracts\\\\Greelance.sol\":11169:11316  function enableTrading() external onlyOwner {... */\n      jump\t// out\n        /* \"contracts\\\\Greelance.sol\":8959:9008  bool public maxSellableRestrictionEnabled = false */\n    tag_143:\n      0x0c\n      0x00\n      swap1\n      sload\n      swap1\n      0x0100\n      exp\n      swap1\n      div\n      0xff\n      and\n      dup2\n      jump\t// out\n        /* \"contracts\\\\Greelance.sol\":2509:2588  function owner() public view returns (address) {... */\n    tag_147:\n        /* \"contracts\\\\Greelance.sol\":2547:2554  address */\n      0x00\n        /* \"contracts\\\\Greelance.sol\":2574:2580  _owner */\n      0x05\n      0x00\n      swap1\n      sload\n      swap1\n      0x0100\n      exp\n      swap1\n      div\n      0xffffffffffffffffffffffffffffffffffffffff\n      and\n        /* \"contracts\\\\Greelance.sol\":2567:2580  return _owner */\n      swap1\n      pop\n        /* \"contracts\\\\Greelance.sol\":2509:2588  function owner() public view returns (address) {... */\n      swap1\n      jump\t// out\n        /* \"contracts\\\\Greelance.sol\":3681:3785  function symbol() public view virtual override returns (string memory) {... */\n    tag_151:\n        /* \"contracts\\\\Greelance.sol\":3737:3750  string memory */\n      0x60\n        /* \"contracts\\\\Greelance.sol\":3770:3777  _symbol */\n      0x04\n        /* \"contracts\\\\Greelance.sol\":3763:3777  return _symbol */\n      dup1\n      sload\n      tag_288\n      swap1\n      tag_203\n      jump\t// in\n    tag_288:\n      dup1\n      0x1f\n      add\n      0x20\n      dup1\n      swap2\n      div\n      mul\n      0x20\n      add\n      mload(0x40)\n      swap1\n      dup2\n      add\n      0x40\n      mstore\n      dup1\n      swap3\n      swap2\n      swap1\n      dup2\n      dup2\n      mstore\n      0x20\n      add\n      dup3\n      dup1\n      sload\n      tag_289\n      swap1\n      tag_203\n      jump\t// in\n    tag_289:\n      dup1\n      iszero\n      tag_290\n      jumpi\n      dup1\n      0x1f\n      lt\n      tag_291\n      jumpi\n      0x0100\n      dup1\n      dup4\n      sload\n      div\n      mul\n      dup4\n      mstore\n      swap2\n      0x20\n      add\n      swap2\n      jump(tag_290)\n    tag_291:\n      dup3\n      add\n      swap2\n      swap1\n      0x00\n      mstore\n      keccak256(0x00, 0x20)\n      swap1\n    tag_292:\n      dup2\n      sload\n      dup2\n      mstore\n      swap1\n      0x01\n      add\n      swap1\n      0x20\n      add\n      dup1\n      dup4\n      gt\n      tag_292\n      jumpi\n      dup3\n      swap1\n      sub\n      0x1f\n      and\n      dup3\n      add\n      swap2\n    tag_290:\n      pop\n      pop\n      pop\n      pop\n      pop\n      swap1\n      pop\n        /* \"contracts\\\\Greelance.sol\":3681:3785  function symbol() public view virtual override returns (string memory) {... */\n      swap1\n      jump\t// out\n        /* \"contracts\\\\Greelance.sol\":8776:8803  uint256 public taxFeeOnSell */\n    tag_155:\n      sload(0x09)\n      dup2\n      jump\t// out\n        /* \"contracts\\\\Greelance.sol\":10987:11161  function setSellTaxPercentage(uint256 _taxAmount) external onlyOwner {... */\n    tag_160:\n        /* \"contracts\\\\Greelance.sol\":2646:2658  _msgSender() */\n      tag_294\n        /* \"contracts\\\\Greelance.sol\":2646:2656  _msgSender */\n      tag_210\n        /* \"contracts\\\\Greelance.sol\":2646:2658  _msgSender() */\n      jump\t// in\n    tag_294:\n        /* \"contracts\\\\Greelance.sol\":2636:2658  _owner == _msgSender() */\n      0xffffffffffffffffffffffffffffffffffffffff\n      and\n        /* \"contracts\\\\Greelance.sol\":2636:2642  _owner */\n      0x05\n      0x00\n      swap1\n      sload\n      swap1\n      0x0100\n      exp\n      swap1\n      div\n      0xffffffffffffffffffffffffffffffffffffffff\n      and\n        /* \"contracts\\\\Greelance.sol\":2636:2658  _owner == _msgSender() */\n      0xffffffffffffffffffffffffffffffffffffffff\n      and\n      eq\n        /* \"contracts\\\\Greelance.sol\":2628:2695  require(_owner == _msgSender(), \"Ownable: caller is not the owner\") */\n      tag_295\n      jumpi\n      mload(0x40)\n      0x08c379a000000000000000000000000000000000000000000000000000000000\n      dup2\n      mstore\n      0x04\n      add\n      tag_296\n      swap1\n      tag_213\n      jump\t// in\n    tag_296:\n      mload(0x40)\n      dup1\n      swap2\n      sub\n      swap1\n      revert\n    tag_295:\n        /* \"contracts\\\\Greelance.sol\":11089:11091  20 */\n      0x14\n        /* \"contracts\\\\Greelance.sol\":11075:11085  _taxAmount */\n      dup2\n        /* \"contracts\\\\Greelance.sol\":11075:11091  _taxAmount <= 20 */\n      gt\n      iszero\n        /* \"contracts\\\\Greelance.sol\":11067:11117  require(_taxAmount <= 20, \"Tax not more than 20!\") */\n      tag_298\n      jumpi\n      mload(0x40)\n      0x08c379a000000000000000000000000000000000000000000000000000000000\n      dup2\n      mstore\n      0x04\n      add\n      tag_299\n      swap1\n      tag_300\n      jump\t// in\n    tag_299:\n      mload(0x40)\n      dup1\n      swap2\n      sub\n      swap1\n      revert\n    tag_298:\n        /* \"contracts\\\\Greelance.sol\":11143:11153  _taxAmount */\n      dup1\n        /* \"contracts\\\\Greelance.sol\":11128:11140  taxFeeOnSell */\n      0x09\n        /* \"contracts\\\\Greelance.sol\":11128:11153  taxFeeOnSell = _taxAmount */\n      dup2\n      swap1\n      sstore\n      pop\n        /* \"contracts\\\\Greelance.sol\":10987:11161  function setSellTaxPercentage(uint256 _taxAmount) external onlyOwner {... */\n      pop\n      jump\t// out\n        /* \"contracts\\\\Greelance.sol\":5682:6157  function decreaseAllowance(... */\n    tag_164:\n        /* \"contracts\\\\Greelance.sol\":5800:5804  bool */\n      0x00\n        /* \"contracts\\\\Greelance.sol\":5817:5841  uint256 currentAllowance */\n      dup1\n        /* \"contracts\\\\Greelance.sol\":5844:5855  _allowances */\n      0x01\n        /* \"contracts\\\\Greelance.sol\":5844:5869  _allowances[_msgSender()] */\n      0x00\n        /* \"contracts\\\\Greelance.sol\":5856:5868  _msgSender() */\n      tag_302\n        /* \"contracts\\\\Greelance.sol\":5856:5866  _msgSender */\n      tag_210\n        /* \"contracts\\\\Greelance.sol\":5856:5868  _msgSender() */\n      jump\t// in\n    tag_302:\n        /* \"contracts\\\\Greelance.sol\":5844:5869  _allowances[_msgSender()] */\n      0xffffffffffffffffffffffffffffffffffffffff\n      and\n      0xffffffffffffffffffffffffffffffffffffffff\n      and\n      dup2\n      mstore\n      0x20\n      add\n      swap1\n      dup2\n      mstore\n      0x20\n      add\n      0x00\n      keccak256\n        /* \"contracts\\\\Greelance.sol\":5844:5878  _allowances[_msgSender()][spender] */\n      0x00\n        /* \"contracts\\\\Greelance.sol\":5870:5877  spender */\n      dup6\n        /* \"contracts\\\\Greelance.sol\":5844:5878  _allowances[_msgSender()][spender] */\n      0xffffffffffffffffffffffffffffffffffffffff\n      and\n      0xffffffffffffffffffffffffffffffffffffffff\n      and\n      dup2\n      mstore\n      0x20\n      add\n      swap1\n      dup2\n      mstore\n      0x20\n      add\n      0x00\n      keccak256\n      sload\n        /* \"contracts\\\\Greelance.sol\":5817:5878  uint256 currentAllowance = _allowances[_msgSender()][spender] */\n      swap1\n      pop\n        /* \"contracts\\\\Greelance.sol\":5931:5946  subtractedValue */\n      dup3\n        /* \"contracts\\\\Greelance.sol\":5911:5927  currentAllowance */\n      dup2\n        /* \"contracts\\\\Greelance.sol\":5911:5946  currentAllowance >= subtractedValue */\n      lt\n      iszero\n        /* \"contracts\\\\Greelance.sol\":5889:6011  require(... */\n      tag_303\n      jumpi\n      mload(0x40)\n      0x08c379a000000000000000000000000000000000000000000000000000000000\n      dup2\n      mstore\n      0x04\n      add\n      tag_304\n      swap1\n      tag_305\n      jump\t// in\n    tag_304:\n      mload(0x40)\n      dup1\n      swap2\n      sub\n      swap1\n      revert\n    tag_303:\n        /* \"contracts\\\\Greelance.sol\":6047:6114  _approve(_msgSender(), spender, currentAllowance - subtractedValue) */\n      tag_306\n        /* \"contracts\\\\Greelance.sol\":6056:6068  _msgSender() */\n      tag_307\n        /* \"contracts\\\\Greelance.sol\":6056:6066  _msgSender */\n      tag_210\n        /* \"contracts\\\\Greelance.sol\":6056:6068  _msgSender() */\n      jump\t// in\n    tag_307:\n        /* \"contracts\\\\Greelance.sol\":6070:6077  spender */\n      dup6\n        /* \"contracts\\\\Greelance.sol\":6098:6113  subtractedValue */\n      dup6\n        /* \"contracts\\\\Greelance.sol\":6079:6095  currentAllowance */\n      dup5\n        /* \"contracts\\\\Greelance.sol\":6079:6113  currentAllowance - subtractedValue */\n      sub\n        /* \"contracts\\\\Greelance.sol\":6047:6055  _approve */\n      tag_218\n        /* \"contracts\\\\Greelance.sol\":6047:6114  _approve(_msgSender(), spender, currentAllowance - subtractedValue) */\n      jump\t// in\n    tag_306:\n        /* \"contracts\\\\Greelance.sol\":6145:6149  true */\n      0x01\n        /* \"contracts\\\\Greelance.sol\":6138:6149  return true */\n      swap2\n      pop\n      pop\n        /* \"contracts\\\\Greelance.sol\":5682:6157  function decreaseAllowance(... */\n      swap3\n      swap2\n      pop\n      pop\n      jump\t// out\n        /* \"contracts\\\\Greelance.sol\":10807:10979  function setBuyTaxPercentage(uint256 _taxAmount) external onlyOwner {... */\n    tag_169:\n        /* \"contracts\\\\Greelance.sol\":2646:2658  _msgSender() */\n      tag_309\n        /* \"contracts\\\\Greelance.sol\":2646:2656  _msgSender */\n      tag_210\n        /* \"contracts\\\\Greelance.sol\":2646:2658  _msgSender() */\n      jump\t// in\n    tag_309:\n        /* \"contracts\\\\Greelance.sol\":2636:2658  _owner == _msgSender() */\n      0xffffffffffffffffffffffffffffffffffffffff\n      and\n        /* \"contracts\\\\Greelance.sol\":2636:2642  _owner */\n      0x05\n      0x00\n      swap1\n      sload\n      swap1\n      0x0100\n      exp\n      swap1\n      div\n      0xffffffffffffffffffffffffffffffffffffffff\n      and\n        /* \"contracts\\\\Greelance.sol\":2636:2658  _owner == _msgSender() */\n      0xffffffffffffffffffffffffffffffffffffffff\n      and\n      eq\n        /* \"contracts\\\\Greelance.sol\":2628:2695  require(_owner == _msgSender(), \"Ownable: caller is not the owner\") */\n      tag_310\n      jumpi\n      mload(0x40)\n      0x08c379a000000000000000000000000000000000000000000000000000000000\n      dup2\n      mstore\n      0x04\n      add\n      tag_311\n      swap1\n      tag_213\n      jump\t// in\n    tag_311:\n      mload(0x40)\n      dup1\n      swap2\n      sub\n      swap1\n      revert\n    tag_310:\n        /* \"contracts\\\\Greelance.sol\":10908:10910  20 */\n      0x14\n        /* \"contracts\\\\Greelance.sol\":10894:10904  _taxAmount */\n      dup2\n        /* \"contracts\\\\Greelance.sol\":10894:10910  _taxAmount <= 20 */\n      gt\n      iszero\n        /* \"contracts\\\\Greelance.sol\":10886:10936  require(_taxAmount <= 20, \"Tax not more than 20!\") */\n      tag_313\n      jumpi\n      mload(0x40)\n      0x08c379a000000000000000000000000000000000000000000000000000000000\n      dup2\n      mstore\n      0x04\n      add\n      tag_314\n      swap1\n      tag_300\n      jump\t// in\n    tag_314:\n      mload(0x40)\n      dup1\n      swap2\n      sub\n      swap1\n      revert\n    tag_313:\n        /* \"contracts\\\\Greelance.sol\":10961:10971  _taxAmount */\n      dup1\n        /* \"contracts\\\\Greelance.sol\":10947:10958  taxFeeOnBuy */\n      0x08\n        /* \"contracts\\\\Greelance.sol\":10947:10971  taxFeeOnBuy = _taxAmount */\n      dup2\n      swap1\n      sstore\n      pop\n        /* \"contracts\\\\Greelance.sol\":10807:10979  function setBuyTaxPercentage(uint256 _taxAmount) external onlyOwner {... */\n      pop\n      jump\t// out\n        /* \"contracts\\\\Greelance.sol\":4160:4360  function transfer(... */\n    tag_173:\n        /* \"contracts\\\\Greelance.sol\":4271:4275  bool */\n      0x00\n        /* \"contracts\\\\Greelance.sol\":4288:4330  _transfer(_msgSender(), recipient, amount) */\n      tag_316\n        /* \"contracts\\\\Greelance.sol\":4298:4310  _msgSender() */\n      tag_317\n        /* \"contracts\\\\Greelance.sol\":4298:4308  _msgSender */\n      tag_210\n        /* \"contracts\\\\Greelance.sol\":4298:4310  _msgSender() */\n      jump\t// in\n    tag_317:\n        /* \"contracts\\\\Greelance.sol\":4312:4321  recipient */\n      dup5\n        /* \"contracts\\\\Greelance.sol\":4323:4329  amount */\n      dup5\n        /* \"contracts\\\\Greelance.sol\":4288:4297  _transfer */\n      tag_245\n        /* \"contracts\\\\Greelance.sol\":4288:4330  _transfer(_msgSender(), recipient, amount) */\n      jump\t// in\n    tag_316:\n        /* \"contracts\\\\Greelance.sol\":4348:4352  true */\n      0x01\n        /* \"contracts\\\\Greelance.sol\":4341:4352  return true */\n      swap1\n      pop\n        /* \"contracts\\\\Greelance.sol\":4160:4360  function transfer(... */\n      swap3\n      swap2\n      pop\n      pop\n      jump\t// out\n        /* \"contracts\\\\Greelance.sol\":8743:8769  uint256 public taxFeeOnBuy */\n    tag_177:\n      sload(0x08)\n      dup2\n      jump\t// out\n        /* \"contracts\\\\Greelance.sol\":8812:8839  address public taxCollector */\n    tag_181:\n      0x0a\n      0x00\n      swap1\n      sload\n      swap1\n      0x0100\n      exp\n      swap1\n      div\n      0xffffffffffffffffffffffffffffffffffffffff\n      and\n      dup2\n      jump\t// out\n        /* \"contracts\\\\Greelance.sol\":10549:10665  function setUniswapPair(address _uniswapV2Pair) external onlyOwner {... */\n    tag_186:\n        /* \"contracts\\\\Greelance.sol\":2646:2658  _msgSender() */\n      tag_319\n        /* \"contracts\\\\Greelance.sol\":2646:2656  _msgSender */\n      tag_210\n        /* \"contracts\\\\Greelance.sol\":2646:2658  _msgSender() */\n      jump\t// in\n    tag_319:\n        /* \"contracts\\\\Greelance.sol\":2636:2658  _owner == _msgSender() */\n      0xffffffffffffffffffffffffffffffffffffffff\n      and\n        /* \"contracts\\\\Greelance.sol\":2636:2642  _owner */\n      0x05\n      0x00\n      swap1\n      sload\n      swap1\n      0x0100\n      exp\n      swap1\n      div\n      0xffffffffffffffffffffffffffffffffffffffff\n      and\n        /* \"contracts\\\\Greelance.sol\":2636:2658  _owner == _msgSender() */\n      0xffffffffffffffffffffffffffffffffffffffff\n      and\n      eq\n        /* \"contracts\\\\Greelance.sol\":2628:2695  require(_owner == _msgSender(), \"Ownable: caller is not the owner\") */\n      tag_320\n      jumpi\n      mload(0x40)\n      0x08c379a000000000000000000000000000000000000000000000000000000000\n      dup2\n      mstore\n      0x04\n      add\n      tag_321\n      swap1\n      tag_213\n      jump\t// in\n    tag_321:\n      mload(0x40)\n      dup1\n      swap2\n      sub\n      swap1\n      revert\n    tag_320:\n        /* \"contracts\\\\Greelance.sol\":10643:10657  _uniswapV2Pair */\n      dup1\n        /* \"contracts\\\\Greelance.sol\":10627:10640  uniswapV2Pair */\n      0x06\n      0x00\n        /* \"contracts\\\\Greelance.sol\":10627:10657  uniswapV2Pair = _uniswapV2Pair */\n      0x0100\n      exp\n      dup2\n      sload\n      dup2\n      0xffffffffffffffffffffffffffffffffffffffff\n      mul\n      not\n      and\n      swap1\n      dup4\n      0xffffffffffffffffffffffffffffffffffffffff\n      and\n      mul\n      or\n      swap1\n      sstore\n      pop\n        /* \"contracts\\\\Greelance.sol\":10549:10665  function setUniswapPair(address _uniswapV2Pair) external onlyOwner {... */\n      pop\n      jump\t// out\n        /* \"contracts\\\\Greelance.sol\":4368:4544  function allowance(... */\n    tag_191:\n        /* \"contracts\\\\Greelance.sol\":4482:4489  uint256 */\n      0x00\n        /* \"contracts\\\\Greelance.sol\":4509:4520  _allowances */\n      0x01\n        /* \"contracts\\\\Greelance.sol\":4509:4527  _allowances[owner] */\n      0x00\n        /* \"contracts\\\\Greelance.sol\":4521:4526  owner */\n      dup5\n        /* \"contracts\\\\Greelance.sol\":4509:4527  _allowances[owner] */\n      0xffffffffffffffffffffffffffffffffffffffff\n      and\n      0xffffffffffffffffffffffffffffffffffffffff\n      and\n      dup2\n      mstore\n      0x20\n      add\n      swap1\n      dup2\n      mstore\n      0x20\n      add\n      0x00\n      keccak256\n        /* \"contracts\\\\Greelance.sol\":4509:4536  _allowances[owner][spender] */\n      0x00\n        /* \"contracts\\\\Greelance.sol\":4528:4535  spender */\n      dup4\n        /* \"contracts\\\\Greelance.sol\":4509:4536  _allowances[owner][spender] */\n      0xffffffffffffffffffffffffffffffffffffffff\n      and\n      0xffffffffffffffffffffffffffffffffffffffff\n      and\n      dup2\n      mstore\n      0x20\n      add\n      swap1\n      dup2\n      mstore\n      0x20\n      add\n      0x00\n      keccak256\n      sload\n        /* \"contracts\\\\Greelance.sol\":4502:4536  return _allowances[owner][spender] */\n      swap1\n      pop\n        /* \"contracts\\\\Greelance.sol\":4368:4544  function allowance(... */\n      swap3\n      swap2\n      pop\n      pop\n      jump\t// out\n        /* \"contracts\\\\Greelance.sol\":10028:10305  function excludeFromFees(address account) external onlyOwner {... */\n    tag_196:\n        /* \"contracts\\\\Greelance.sol\":2646:2658  _msgSender() */\n      tag_325\n        /* \"contracts\\\\Greelance.sol\":2646:2656  _msgSender */\n      tag_210\n        /* \"contracts\\\\Greelance.sol\":2646:2658  _msgSender() */\n      jump\t// in\n    tag_325:\n        /* \"contracts\\\\Greelance.sol\":2636:2658  _owner == _msgSender() */\n      0xffffffffffffffffffffffffffffffffffffffff\n      and\n        /* \"contracts\\\\Greelance.sol\":2636:2642  _owner */\n      0x05\n      0x00\n      swap1\n      sload\n      swap1\n      0x0100\n      exp\n      swap1\n      div\n      0xffffffffffffffffffffffffffffffffffffffff\n      and\n        /* \"contracts\\\\Greelance.sol\":2636:2658  _owner == _msgSender() */\n      0xffffffffffffffffffffffffffffffffffffffff\n      and\n      eq\n        /* \"contracts\\\\Greelance.sol\":2628:2695  require(_owner == _msgSender(), \"Ownable: caller is not the owner\") */\n      tag_326\n      jumpi\n      mload(0x40)\n      0x08c379a000000000000000000000000000000000000000000000000000000000\n      dup2\n      mstore\n      0x04\n      add\n      tag_327\n      swap1\n      tag_213\n      jump\t// in\n    tag_327:\n      mload(0x40)\n      dup1\n      swap2\n      sub\n      swap1\n      revert\n    tag_326:\n        /* \"contracts\\\\Greelance.sol\":10123:10142  _isExcludedFromFees */\n      0x07\n        /* \"contracts\\\\Greelance.sol\":10123:10151  _isExcludedFromFees[account] */\n      0x00\n        /* \"contracts\\\\Greelance.sol\":10143:10150  account */\n      dup3\n        /* \"contracts\\\\Greelance.sol\":10123:10151  _isExcludedFromFees[account] */\n      0xffffffffffffffffffffffffffffffffffffffff\n      and\n      0xffffffffffffffffffffffffffffffffffffffff\n      and\n      dup2\n      mstore\n      0x20\n      add\n      swap1\n      dup2\n      mstore\n      0x20\n      add\n      0x00\n      keccak256\n      0x00\n      swap1\n      sload\n      swap1\n      0x0100\n      exp\n      swap1\n      div\n      0xff\n      and\n        /* \"contracts\\\\Greelance.sol\":10122:10151  !_isExcludedFromFees[account] */\n      iszero\n        /* \"contracts\\\\Greelance.sol\":10100:10203  require(... */\n      tag_329\n      jumpi\n      mload(0x40)\n      0x08c379a000000000000000000000000000000000000000000000000000000000\n      dup2\n      mstore\n      0x04\n      add\n      tag_330\n      swap1\n      tag_331\n      jump\t// in\n    tag_330:\n      mload(0x40)\n      dup1\n      swap2\n      sub\n      swap1\n      revert\n    tag_329:\n        /* \"contracts\\\\Greelance.sol\":10245:10249  true */\n      0x01\n        /* \"contracts\\\\Greelance.sol\":10214:10233  _isExcludedFromFees */\n      0x07\n        /* \"contracts\\\\Greelance.sol\":10214:10242  _isExcludedFromFees[account] */\n      0x00\n        /* \"contracts\\\\Greelance.sol\":10234:10241  account */\n      dup4\n        /* \"contracts\\\\Greelance.sol\":10214:10242  _isExcludedFromFees[account] */\n      0xffffffffffffffffffffffffffffffffffffffff\n      and\n      0xffffffffffffffffffffffffffffffffffffffff\n      and\n      dup2\n      mstore\n      0x20\n      add\n      swap1\n      dup2\n      mstore\n      0x20\n      add\n      0x00\n      keccak256\n      0x00\n        /* \"contracts\\\\Greelance.sol\":10214:10249  _isExcludedFromFees[account] = true */\n      0x0100\n      exp\n      dup2\n      sload\n      dup2\n      0xff\n      mul\n      not\n      and\n      swap1\n      dup4\n      iszero\n      iszero\n      mul\n      or\n      swap1\n      sstore\n      pop\n        /* \"contracts\\\\Greelance.sol\":10283:10290  account */\n      dup1\n        /* \"contracts\\\\Greelance.sol\":10267:10297  ExcludeFromFees(account, true) */\n      0xffffffffffffffffffffffffffffffffffffffff\n      and\n      0x9d8f7706ea1113d1a167b526eca956215946dd36cc7df39eb16180222d8b5df7\n        /* \"contracts\\\\Greelance.sol\":10292:10296  true */\n      0x01\n        /* \"contracts\\\\Greelance.sol\":10267:10297  ExcludeFromFees(account, true) */\n      mload(0x40)\n      tag_332\n      swap2\n      swap1\n      tag_68\n      jump\t// in\n    tag_332:\n      mload(0x40)\n      dup1\n      swap2\n      sub\n      swap1\n      log2\n        /* \"contracts\\\\Greelance.sol\":10028:10305  function excludeFromFees(address account) external onlyOwner {... */\n      pop\n      jump\t// out\n        /* \"contracts\\\\Greelance.sol\":2879:3160  function transferOwnership(address newOwner) public virtual onlyOwner {... */\n    tag_200:\n        /* \"contracts\\\\Greelance.sol\":2646:2658  _msgSender() */\n      tag_334\n        /* \"contracts\\\\Greelance.sol\":2646:2656  _msgSender */\n      tag_210\n        /* \"contracts\\\\Greelance.sol\":2646:2658  _msgSender() */\n      jump\t// in\n    tag_334:\n        /* \"contracts\\\\Greelance.sol\":2636:2658  _owner == _msgSender() */\n      0xffffffffffffffffffffffffffffffffffffffff\n      and\n        /* \"contracts\\\\Greelance.sol\":2636:2642  _owner */\n      0x05\n      0x00\n      swap1\n      sload\n      swap1\n      0x0100\n      exp\n      swap1\n      div\n      0xffffffffffffffffffffffffffffffffffffffff\n      and\n        /* \"contracts\\\\Greelance.sol\":2636:2658  _owner == _msgSender() */\n      0xffffffffffffffffffffffffffffffffffffffff\n      and\n      eq\n        /* \"contracts\\\\Greelance.sol\":2628:2695  require(_owner == _msgSender(), \"Ownable: caller is not the owner\") */\n      tag_335\n      jumpi\n      mload(0x40)\n      0x08c379a000000000000000000000000000000000000000000000000000000000\n      dup2\n      mstore\n      0x04\n      add\n      tag_336\n      swap1\n      tag_213\n      jump\t// in\n    tag_336:\n      mload(0x40)\n      dup1\n      swap2\n      sub\n      swap1\n      revert\n    tag_335:\n        /* \"contracts\\\\Greelance.sol\":3002:3003  0 */\n      0x00\n        /* \"contracts\\\\Greelance.sol\":2982:3004  newOwner != address(0) */\n      0xffffffffffffffffffffffffffffffffffffffff\n      and\n        /* \"contracts\\\\Greelance.sol\":2982:2990  newOwner */\n      dup2\n        /* \"contracts\\\\Greelance.sol\":2982:3004  newOwner != address(0) */\n      0xffffffffffffffffffffffffffffffffffffffff\n      and\n      sub\n        /* \"contracts\\\\Greelance.sol\":2960:3070  require(... */\n      tag_338\n      jumpi\n      mload(0x40)\n      0x08c379a000000000000000000000000000000000000000000000000000000000\n      dup2\n      mstore\n      0x04\n      add\n      tag_339\n      swap1\n      tag_340\n      jump\t// in\n    tag_339:\n      mload(0x40)\n      dup1\n      swap2\n      sub\n      swap1\n      revert\n    tag_338:\n        /* \"contracts\\\\Greelance.sol\":3115:3123  newOwner */\n      dup1\n        /* \"contracts\\\\Greelance.sol\":3086:3124  OwnershipTransferred(_owner, newOwner) */\n      0xffffffffffffffffffffffffffffffffffffffff\n      and\n        /* \"contracts\\\\Greelance.sol\":3107:3113  _owner */\n      0x05\n      0x00\n      swap1\n      sload\n      swap1\n      0x0100\n      exp\n      swap1\n      div\n      0xffffffffffffffffffffffffffffffffffffffff\n      and\n        /* \"contracts\\\\Greelance.sol\":3086:3124  OwnershipTransferred(_owner, newOwner) */\n      0xffffffffffffffffffffffffffffffffffffffff\n      and\n      0x8be0079c531659141344cd1fd0a4f28419497f9722a3daafe3b4186f6b6457e0\n      mload(0x40)\n      mload(0x40)\n      dup1\n      swap2\n      sub\n      swap1\n      log3\n        /* \"contracts\\\\Greelance.sol\":3144:3152  newOwner */\n      dup1\n        /* \"contracts\\\\Greelance.sol\":3135:3141  _owner */\n      0x05\n      0x00\n        /* \"contracts\\\\Greelance.sol\":3135:3152  _owner = newOwner */\n      0x0100\n      exp\n      dup2\n      sload\n      dup2\n      0xffffffffffffffffffffffffffffffffffffffff\n      mul\n      not\n      and\n      swap1\n      dup4\n      0xffffffffffffffffffffffffffffffffffffffff\n      and\n      mul\n      or\n      swap1\n      sstore\n      pop\n        /* \"contracts\\\\Greelance.sol\":2879:3160  function transferOwnership(address newOwner) public virtual onlyOwner {... */\n      pop\n      jump\t// out\n        /* \"contracts\\\\Greelance.sol\":1927:2025  function _msgSender() internal view virtual returns (address) {... */\n    tag_210:\n        /* \"contracts\\\\Greelance.sol\":1980:1987  address */\n      0x00\n        /* \"contracts\\\\Greelance.sol\":2007:2017  msg.sender */\n      caller\n        /* \"contracts\\\\Greelance.sol\":2000:2017  return msg.sender */\n      swap1\n      pop\n        /* \"contracts\\\\Greelance.sol\":1927:2025  function _msgSender() internal view virtual returns (address) {... */\n      swap1\n      jump\t// out\n        /* \"contracts\\\\Greelance.sol\":7949:8329  function _approve(... */\n    tag_218:\n        /* \"contracts\\\\Greelance.sol\":8102:8103  0 */\n      0x00\n        /* \"contracts\\\\Greelance.sol\":8085:8104  owner != address(0) */\n      0xffffffffffffffffffffffffffffffffffffffff\n      and\n        /* \"contracts\\\\Greelance.sol\":8085:8090  owner */\n      dup4\n        /* \"contracts\\\\Greelance.sol\":8085:8104  owner != address(0) */\n      0xffffffffffffffffffffffffffffffffffffffff\n      and\n      sub\n        /* \"contracts\\\\Greelance.sol\":8077:8145  require(owner != address(0), \"ERC20: approve from the zero address\") */\n      tag_343\n      jumpi\n      mload(0x40)\n      0x08c379a000000000000000000000000000000000000000000000000000000000\n      dup2\n      mstore\n      0x04\n      add\n      tag_344\n      swap1\n      tag_345\n      jump\t// in\n    tag_344:\n      mload(0x40)\n      dup1\n      swap2\n      sub\n      swap1\n      revert\n    tag_343:\n        /* \"contracts\\\\Greelance.sol\":8183:8184  0 */\n      0x00\n        /* \"contracts\\\\Greelance.sol\":8164:8185  spender != address(0) */\n      0xffffffffffffffffffffffffffffffffffffffff\n      and\n        /* \"contracts\\\\Greelance.sol\":8164:8171  spender */\n      dup3\n        /* \"contracts\\\\Greelance.sol\":8164:8185  spender != address(0) */\n      0xffffffffffffffffffffffffffffffffffffffff\n      and\n      sub\n        /* \"contracts\\\\Greelance.sol\":8156:8224  require(spender != address(0), \"ERC20: approve to the zero address\") */\n      tag_346\n      jumpi\n      mload(0x40)\n      0x08c379a000000000000000000000000000000000000000000000000000000000\n      dup2\n      mstore\n      0x04\n      add\n      tag_347\n      swap1\n      tag_348\n      jump\t// in\n    tag_347:\n      mload(0x40)\n      dup1\n      swap2\n      sub\n      swap1\n      revert\n    tag_346:\n        /* \"contracts\\\\Greelance.sol\":8267:8273  amount */\n      dup1\n        /* \"contracts\\\\Greelance.sol\":8237:8248  _allowances */\n      0x01\n        /* \"contracts\\\\Greelance.sol\":8237:8255  _allowances[owner] */\n      0x00\n        /* \"contracts\\\\Greelance.sol\":8249:8254  owner */\n      dup6\n        /* \"contracts\\\\Greelance.sol\":8237:8255  _allowances[owner] */\n      0xffffffffffffffffffffffffffffffffffffffff\n      and\n      0xffffffffffffffffffffffffffffffffffffffff\n      and\n      dup2\n      mstore\n      0x20\n      add\n      swap1\n      dup2\n      mstore\n      0x20\n      add\n      0x00\n      keccak256\n        /* \"contracts\\\\Greelance.sol\":8237:8264  _allowances[owner][spender] */\n      0x00\n        /* \"contracts\\\\Greelance.sol\":8256:8263  spender */\n      dup5\n        /* \"contracts\\\\Greelance.sol\":8237:8264  _allowances[owner][spender] */\n      0xffffffffffffffffffffffffffffffffffffffff\n      and\n      0xffffffffffffffffffffffffffffffffffffffff\n      and\n      dup2\n      mstore\n      0x20\n      add\n      swap1\n      dup2\n      mstore\n      0x20\n      add\n      0x00\n      keccak256\n        /* \"contracts\\\\Greelance.sol\":8237:8273  _allowances[owner][spender] = amount */\n      dup2\n      swap1\n      sstore\n      pop\n        /* \"contracts\\\\Greelance.sol\":8305:8312  spender */\n      dup2\n        /* \"contracts\\\\Greelance.sol\":8289:8321  Approval(owner, spender, amount) */\n      0xffffffffffffffffffffffffffffffffffffffff\n      and\n        /* \"contracts\\\\Greelance.sol\":8298:8303  owner */\n      dup4\n        /* \"contracts\\\\Greelance.sol\":8289:8321  Approval(owner, spender, amount) */\n      0xffffffffffffffffffffffffffffffffffffffff\n      and\n      0x8c5be1e5ebec7d5bd14f71427d1e84f3dd0314c0f7b2291e5b200ac8c7c3b925\n        /* \"contracts\\\\Greelance.sol\":8314:8320  amount */\n      dup4\n        /* \"contracts\\\\Greelance.sol\":8289:8321  Approval(owner, spender, amount) */\n      mload(0x40)\n      tag_349\n      swap2\n      swap1\n      tag_53\n      jump\t// in\n    tag_349:\n      mload(0x40)\n      dup1\n      swap2\n      sub\n      swap1\n      log3\n        /* \"contracts\\\\Greelance.sol\":7949:8329  function _approve(... */\n      pop\n      pop\n      pop\n      jump\t// out\n        /* \"contracts\\\\Greelance.sol\":6943:7342  function _mint(address account, uint256 amount) internal virtual {... */\n    tag_234:\n        /* \"contracts\\\\Greelance.sol\":7046:7047  0 */\n      0x00\n        /* \"contracts\\\\Greelance.sol\":7027:7048  account != address(0) */\n      0xffffffffffffffffffffffffffffffffffffffff\n      and\n        /* \"contracts\\\\Greelance.sol\":7027:7034  account */\n      dup3\n        /* \"contracts\\\\Greelance.sol\":7027:7048  account != address(0) */\n      0xffffffffffffffffffffffffffffffffffffffff\n      and\n      sub\n        /* \"contracts\\\\Greelance.sol\":7019:7084  require(account != address(0), \"ERC20: mint to the zero address\") */\n      tag_351\n      jumpi\n      mload(0x40)\n      0x08c379a000000000000000000000000000000000000000000000000000000000\n      dup2\n      mstore\n      0x04\n      add\n      tag_352\n      swap1\n      tag_353\n      jump\t// in\n    tag_352:\n      mload(0x40)\n      dup1\n      swap2\n      sub\n      swap1\n      revert\n    tag_351:\n        /* \"contracts\\\\Greelance.sol\":7097:7146  _beforeTokenTransfer(address(0), account, amount) */\n      tag_354\n        /* \"contracts\\\\Greelance.sol\":7126:7127  0 */\n      0x00\n        /* \"contracts\\\\Greelance.sol\":7130:7137  account */\n      dup4\n        /* \"contracts\\\\Greelance.sol\":7139:7145  amount */\n      dup4\n        /* \"contracts\\\\Greelance.sol\":7097:7117  _beforeTokenTransfer */\n      tag_355\n        /* \"contracts\\\\Greelance.sol\":7097:7146  _beforeTokenTransfer(address(0), account, amount) */\n      jump\t// in\n    tag_354:\n        /* \"contracts\\\\Greelance.sol\":7175:7181  amount */\n      dup1\n        /* \"contracts\\\\Greelance.sol\":7159:7171  _totalSupply */\n      0x02\n      0x00\n        /* \"contracts\\\\Greelance.sol\":7159:7181  _totalSupply += amount */\n      dup3\n      dup3\n      sload\n      tag_356\n      swap2\n      swap1\n      tag_257\n      jump\t// in\n    tag_356:\n      swap3\n      pop\n      pop\n      dup2\n      swap1\n      sstore\n      pop\n        /* \"contracts\\\\Greelance.sol\":7214:7220  amount */\n      dup1\n        /* \"contracts\\\\Greelance.sol\":7192:7201  _balances */\n      0x00\n        /* \"contracts\\\\Greelance.sol\":7192:7210  _balances[account] */\n      dup1\n        /* \"contracts\\\\Greelance.sol\":7202:7209  account */\n      dup5\n        /* \"contracts\\\\Greelance.sol\":7192:7210  _balances[account] */\n      0xffffffffffffffffffffffffffffffffffffffff\n      and\n      0xffffffffffffffffffffffffffffffffffffffff\n      and\n      dup2\n      mstore\n      0x20\n      add\n      swap1\n      dup2\n      mstore\n      0x20\n      add\n      0x00\n      keccak256\n      0x00\n        /* \"contracts\\\\Greelance.sol\":7192:7220  _balances[account] += amount */\n      dup3\n      dup3\n      sload\n      tag_357\n      swap2\n      swap1\n      tag_257\n      jump\t// in\n    tag_357:\n      swap3\n      pop\n      pop\n      dup2\n      swap1\n      sstore\n      pop\n        /* \"contracts\\\\Greelance.sol\":7257:7264  account */\n      dup2\n        /* \"contracts\\\\Greelance.sol\":7236:7273  Transfer(address(0), account, amount) */\n      0xffffffffffffffffffffffffffffffffffffffff\n      and\n        /* \"contracts\\\\Greelance.sol\":7253:7254  0 */\n      0x00\n        /* \"contracts\\\\Greelance.sol\":7236:7273  Transfer(address(0), account, amount) */\n      0xffffffffffffffffffffffffffffffffffffffff\n      and\n      0xddf252ad1be2c89b69c2b068fc378daa952ba7f163c4a11628f55a4df523b3ef\n        /* \"contracts\\\\Greelance.sol\":7266:7272  amount */\n      dup4\n        /* \"contracts\\\\Greelance.sol\":7236:7273  Transfer(address(0), account, amount) */\n      mload(0x40)\n      tag_358\n      swap2\n      swap1\n      tag_53\n      jump\t// in\n    tag_358:\n      mload(0x40)\n      dup1\n      swap2\n      sub\n      swap1\n      log3\n        /* \"contracts\\\\Greelance.sol\":7286:7334  _afterTokenTransfer(address(0), account, amount) */\n      tag_359\n        /* \"contracts\\\\Greelance.sol\":7314:7315  0 */\n      0x00\n        /* \"contracts\\\\Greelance.sol\":7318:7325  account */\n      dup4\n        /* \"contracts\\\\Greelance.sol\":7327:7333  amount */\n      dup4\n        /* \"contracts\\\\Greelance.sol\":7286:7305  _afterTokenTransfer */\n      tag_360\n        /* \"contracts\\\\Greelance.sol\":7286:7334  _afterTokenTransfer(address(0), account, amount) */\n      jump\t// in\n    tag_359:\n        /* \"contracts\\\\Greelance.sol\":6943:7342  function _mint(address account, uint256 amount) internal virtual {... */\n      pop\n      pop\n      jump\t// out\n        /* \"contracts\\\\Greelance.sol\":11324:13526  function _transfer(... */\n    tag_245:\n        /* \"contracts\\\\Greelance.sol\":11472:11473  0 */\n      0x00\n        /* \"contracts\\\\Greelance.sol\":11456:11474  from != address(0) */\n      0xffffffffffffffffffffffffffffffffffffffff\n      and\n        /* \"contracts\\\\Greelance.sol\":11456:11460  from */\n      dup4\n        /* \"contracts\\\\Greelance.sol\":11456:11474  from != address(0) */\n      0xffffffffffffffffffffffffffffffffffffffff\n      and\n      sub\n        /* \"contracts\\\\Greelance.sol\":11448:11516  require(from != address(0), \"ERC20: transfer from the zero address\") */\n      tag_362\n      jumpi\n      mload(0x40)\n      0x08c379a000000000000000000000000000000000000000000000000000000000\n      dup2\n      mstore\n      0x04\n      add\n      tag_363\n      swap1\n      tag_364\n      jump\t// in\n    tag_363:\n      mload(0x40)\n      dup1\n      swap2\n      sub\n      swap1\n      revert\n    tag_362:\n        /* \"contracts\\\\Greelance.sol\":11549:11550  0 */\n      0x00\n        /* \"contracts\\\\Greelance.sol\":11535:11551  to != address(0) */\n      0xffffffffffffffffffffffffffffffffffffffff\n      and\n        /* \"contracts\\\\Greelance.sol\":11535:11537  to */\n      dup3\n        /* \"contracts\\\\Greelance.sol\":11535:11551  to != address(0) */\n      0xffffffffffffffffffffffffffffffffffffffff\n      and\n      sub\n        /* \"contracts\\\\Greelance.sol\":11527:11591  require(to != address(0), \"ERC20: transfer to the zero address\") */\n      tag_365\n      jumpi\n      mload(0x40)\n      0x08c379a000000000000000000000000000000000000000000000000000000000\n      dup2\n      mstore\n      0x04\n      add\n      tag_366\n      swap1\n      tag_367\n      jump\t// in\n    tag_366:\n      mload(0x40)\n      dup1\n      swap2\n      sub\n      swap1\n      revert\n    tag_365:\n        /* \"contracts\\\\Greelance.sol\":11610:11624  tradingEnabled */\n      0x0a\n      0x14\n      swap1\n      sload\n      swap1\n      0x0100\n      exp\n      swap1\n      div\n      0xff\n      and\n        /* \"contracts\\\\Greelance.sol\":11610:11653  tradingEnabled || _isExcludedFromFees[from] */\n      dup1\n      tag_368\n      jumpi\n      pop\n        /* \"contracts\\\\Greelance.sol\":11628:11647  _isExcludedFromFees */\n      0x07\n        /* \"contracts\\\\Greelance.sol\":11628:11653  _isExcludedFromFees[from] */\n      0x00\n        /* \"contracts\\\\Greelance.sol\":11648:11652  from */\n      dup5\n        /* \"contracts\\\\Greelance.sol\":11628:11653  _isExcludedFromFees[from] */\n      0xffffffffffffffffffffffffffffffffffffffff\n      and\n      0xffffffffffffffffffffffffffffffffffffffff\n      and\n      dup2\n      mstore\n      0x20\n      add\n      swap1\n      dup2\n      mstore\n      0x20\n      add\n      0x00\n      keccak256\n      0x00\n      swap1\n      sload\n      swap1\n      0x0100\n      exp\n      swap1\n      div\n      0xff\n      and\n        /* \"contracts\\\\Greelance.sol\":11610:11653  tradingEnabled || _isExcludedFromFees[from] */\n    tag_368:\n        /* \"contracts\\\\Greelance.sol\":11610:11680  tradingEnabled || _isExcludedFromFees[from] || _isExcludedFromFees[to] */\n      dup1\n      tag_369\n      jumpi\n      pop\n        /* \"contracts\\\\Greelance.sol\":11657:11676  _isExcludedFromFees */\n      0x07\n        /* \"contracts\\\\Greelance.sol\":11657:11680  _isExcludedFromFees[to] */\n      0x00\n        /* \"contracts\\\\Greelance.sol\":11677:11679  to */\n      dup4\n        /* \"contracts\\\\Greelance.sol\":11657:11680  _isExcludedFromFees[to] */\n      0xffffffffffffffffffffffffffffffffffffffff\n      and\n      0xffffffffffffffffffffffffffffffffffffffff\n      and\n      dup2\n      mstore\n      0x20\n      add\n      swap1\n      dup2\n      mstore\n      0x20\n      add\n      0x00\n      keccak256\n      0x00\n      swap1\n      sload\n      swap1\n      0x0100\n      exp\n      swap1\n      div\n      0xff\n      and\n        /* \"contracts\\\\Greelance.sol\":11610:11680  tradingEnabled || _isExcludedFromFees[from] || _isExcludedFromFees[to] */\n    tag_369:\n        /* \"contracts\\\\Greelance.sol\":11602:11709  require(tradingEnabled || _isExcludedFromFees[from] || _isExcludedFromFees[to], \"Trading not yet enabled!\") */\n      tag_370\n      jumpi\n      mload(0x40)\n      0x08c379a000000000000000000000000000000000000000000000000000000000\n      dup2\n      mstore\n      0x04\n      add\n      tag_371\n      swap1\n      tag_372\n      jump\t// in\n    tag_371:\n      mload(0x40)\n      dup1\n      swap2\n      sub\n      swap1\n      revert\n    tag_370:\n        /* \"contracts\\\\Greelance.sol\":11736:11737  0 */\n      0x00\n        /* \"contracts\\\\Greelance.sol\":11726:11732  amount */\n      dup2\n        /* \"contracts\\\\Greelance.sol\":11726:11737  amount == 0 */\n      sub\n        /* \"contracts\\\\Greelance.sol\":11722:11867  if (amount == 0) {... */\n      tag_373\n      jumpi\n        /* \"contracts\\\\Greelance.sol\":11754:11782  super._transfer(from, to, 0) */\n      tag_374\n        /* \"contracts\\\\Greelance.sol\":11770:11774  from */\n      dup4\n        /* \"contracts\\\\Greelance.sol\":11776:11778  to */\n      dup4\n        /* \"contracts\\\\Greelance.sol\":11780:11781  0 */\n      0x00\n        /* \"contracts\\\\Greelance.sol\":11754:11769  super._transfer */\n      tag_375\n        /* \"contracts\\\\Greelance.sol\":11754:11782  super._transfer(from, to, 0) */\n      jump\t// in\n    tag_374:\n        /* \"contracts\\\\Greelance.sol\":11819:11834  block.timestamp */\n      timestamp\n        /* \"contracts\\\\Greelance.sol\":11797:11810  lastTradeTime */\n      0x0e\n        /* \"contracts\\\\Greelance.sol\":11797:11816  lastTradeTime[from] */\n      0x00\n        /* \"contracts\\\\Greelance.sol\":11811:11815  from */\n      dup6\n        /* \"contracts\\\\Greelance.sol\":11797:11816  lastTradeTime[from] */\n      0xffffffffffffffffffffffffffffffffffffffff\n      and\n      0xffffffffffffffffffffffffffffffffffffffff\n      and\n      dup2\n      mstore\n      0x20\n      add\n      swap1\n      dup2\n      mstore\n      0x20\n      add\n      0x00\n      keccak256\n        /* \"contracts\\\\Greelance.sol\":11797:11834  lastTradeTime[from] = block.timestamp */\n      dup2\n      swap1\n      sstore\n      pop\n        /* \"contracts\\\\Greelance.sol\":11849:11856  return; */\n      jump(tag_361)\n        /* \"contracts\\\\Greelance.sol\":11722:11867  if (amount == 0) {... */\n    tag_373:\n        /* \"contracts\\\\Greelance.sol\":11879:11899  bool shouldApplyFees */\n      0x00\n        /* \"contracts\\\\Greelance.sol\":11904:11923  _isExcludedFromFees */\n      0x07\n        /* \"contracts\\\\Greelance.sol\":11904:11929  _isExcludedFromFees[from] */\n      0x00\n        /* \"contracts\\\\Greelance.sol\":11924:11928  from */\n      dup6\n        /* \"contracts\\\\Greelance.sol\":11904:11929  _isExcludedFromFees[from] */\n      0xffffffffffffffffffffffffffffffffffffffff\n      and\n      0xffffffffffffffffffffffffffffffffffffffff\n      and\n      dup2\n      mstore\n      0x20\n      add\n      swap1\n      dup2\n      mstore\n      0x20\n      add\n      0x00\n      keccak256\n      0x00\n      swap1\n      sload\n      swap1\n      0x0100\n      exp\n      swap1\n      div\n      0xff\n      and\n        /* \"contracts\\\\Greelance.sol\":11904:11969  _isExcludedFromFees[from] ||... */\n      dup1\n      tag_376\n      jumpi\n      pop\n        /* \"contracts\\\\Greelance.sol\":11946:11965  _isExcludedFromFees */\n      0x07\n        /* \"contracts\\\\Greelance.sol\":11946:11969  _isExcludedFromFees[to] */\n      0x00\n        /* \"contracts\\\\Greelance.sol\":11966:11968  to */\n      dup5\n        /* \"contracts\\\\Greelance.sol\":11946:11969  _isExcludedFromFees[to] */\n      0xffffffffffffffffffffffffffffffffffffffff\n      and\n      0xffffffffffffffffffffffffffffffffffffffff\n      and\n      dup2\n      mstore\n      0x20\n      add\n      swap1\n      dup2\n      mstore\n      0x20\n      add\n      0x00\n      keccak256\n      0x00\n      swap1\n      sload\n      swap1\n      0x0100\n      exp\n      swap1\n      div\n      0xff\n      and\n        /* \"contracts\\\\Greelance.sol\":11904:11969  _isExcludedFromFees[from] ||... */\n    tag_376:\n        /* \"contracts\\\\Greelance.sol\":11902:11970  !(_isExcludedFromFees[from] ||... */\n      iszero\n        /* \"contracts\\\\Greelance.sol\":11879:11970  bool shouldApplyFees = !(_isExcludedFromFees[from] ||... */\n      swap1\n      pop\n        /* \"contracts\\\\Greelance.sol\":11981:11993  uint256 fees */\n      0x00\n        /* \"contracts\\\\Greelance.sol\":11996:12011  shouldApplyFees */\n      dup2\n        /* \"contracts\\\\Greelance.sol\":11996:12130  shouldApplyFees... */\n      tag_377\n      jumpi\n        /* \"contracts\\\\Greelance.sol\":12129:12130  0 */\n      0x00\n        /* \"contracts\\\\Greelance.sol\":11996:12130  shouldApplyFees... */\n      jump(tag_378)\n    tag_377:\n        /* \"contracts\\\\Greelance.sol\":12110:12113  100 */\n      0x64\n        /* \"contracts\\\\Greelance.sol\":12046:12059  uniswapV2Pair */\n      0x06\n      0x00\n      swap1\n      sload\n      swap1\n      0x0100\n      exp\n      swap1\n      div\n      0xffffffffffffffffffffffffffffffffffffffff\n      and\n        /* \"contracts\\\\Greelance.sol\":12038:12059  from == uniswapV2Pair */\n      0xffffffffffffffffffffffffffffffffffffffff\n      and\n        /* \"contracts\\\\Greelance.sol\":12038:12042  from */\n      dup7\n        /* \"contracts\\\\Greelance.sol\":12038:12059  from == uniswapV2Pair */\n      0xffffffffffffffffffffffffffffffffffffffff\n      and\n      eq\n        /* \"contracts\\\\Greelance.sol\":12038:12088  from == uniswapV2Pair ? taxFeeOnBuy : taxFeeOnSell */\n      tag_379\n      jumpi\n        /* \"contracts\\\\Greelance.sol\":12076:12088  taxFeeOnSell */\n      sload(0x09)\n        /* \"contracts\\\\Greelance.sol\":12038:12088  from == uniswapV2Pair ? taxFeeOnBuy : taxFeeOnSell */\n      jump(tag_380)\n    tag_379:\n        /* \"contracts\\\\Greelance.sol\":12062:12073  taxFeeOnBuy */\n      sload(0x08)\n        /* \"contracts\\\\Greelance.sol\":12038:12088  from == uniswapV2Pair ? taxFeeOnBuy : taxFeeOnSell */\n    tag_380:\n        /* \"contracts\\\\Greelance.sol\":12028:12034  amount */\n      dup5\n        /* \"contracts\\\\Greelance.sol\":12028:12089  amount * (from == uniswapV2Pair ? taxFeeOnBuy : taxFeeOnSell) */\n      tag_381\n      swap2\n      swap1\n      tag_233\n      jump\t// in\n    tag_381:\n        /* \"contracts\\\\Greelance.sol\":12027:12113  (amount * (from == uniswapV2Pair ? taxFeeOnBuy : taxFeeOnSell)) /... */\n      tag_382\n      swap2\n      swap1\n      tag_383\n      jump\t// in\n    tag_382:\n        /* \"contracts\\\\Greelance.sol\":11996:12130  shouldApplyFees... */\n    tag_378:\n        /* \"contracts\\\\Greelance.sol\":11981:12130  uint256 fees = shouldApplyFees... */\n      swap1\n      pop\n        /* \"contracts\\\\Greelance.sol\":12147:12162  shouldApplyFees */\n      dup2\n        /* \"contracts\\\\Greelance.sol\":12143:13302  if (shouldApplyFees) {... */\n      iszero\n      tag_384\n      jumpi\n        /* \"contracts\\\\Greelance.sol\":12191:12204  uniswapV2Pair */\n      0x06\n      0x00\n      swap1\n      sload\n      swap1\n      0x0100\n      exp\n      swap1\n      div\n      0xffffffffffffffffffffffffffffffffffffffff\n      and\n        /* \"contracts\\\\Greelance.sol\":12183:12204  from != uniswapV2Pair */\n      0xffffffffffffffffffffffffffffffffffffffff\n      and\n        /* \"contracts\\\\Greelance.sol\":12183:12187  from */\n      dup6\n        /* \"contracts\\\\Greelance.sol\":12183:12204  from != uniswapV2Pair */\n      0xffffffffffffffffffffffffffffffffffffffff\n      and\n      eq\n        /* \"contracts\\\\Greelance.sol\":12179:13291  if (from != uniswapV2Pair) {... */\n      tag_385\n      jumpi\n        /* \"contracts\\\\Greelance.sol\":12231:12260  maxSellableRestrictionEnabled */\n      0x0c\n      0x00\n      swap1\n      sload\n      swap1\n      0x0100\n      exp\n      swap1\n      div\n      0xff\n      and\n        /* \"contracts\\\\Greelance.sol\":12227:12458  if (maxSellableRestrictionEnabled) {... */\n      iszero\n      tag_386\n      jumpi\n        /* \"contracts\\\\Greelance.sol\":12329:12346  maxSellableAmount */\n      sload(0x0b)\n        /* \"contracts\\\\Greelance.sol\":12319:12325  amount */\n      dup4\n        /* \"contracts\\\\Greelance.sol\":12319:12346  amount <= maxSellableAmount */\n      gt\n      iszero\n        /* \"contracts\\\\Greelance.sol\":12285:12438  require(... */\n      tag_387\n      jumpi\n      mload(0x40)\n      0x08c379a000000000000000000000000000000000000000000000000000000000\n      dup2\n      mstore\n      0x04\n      add\n      tag_388\n      swap1\n      tag_389\n      jump\t// in\n    tag_388:\n      mload(0x40)\n      dup1\n      swap2\n      sub\n      swap1\n      revert\n    tag_387:\n        /* \"contracts\\\\Greelance.sol\":12227:12458  if (maxSellableRestrictionEnabled) {... */\n    tag_386:\n        /* \"contracts\\\\Greelance.sol\":12482:12512  trading24HrsRestrictionEnabled */\n      0x0c\n      0x01\n      swap1\n      sload\n      swap1\n      0x0100\n      exp\n      swap1\n      div\n      0xff\n      and\n        /* \"contracts\\\\Greelance.sol\":12478:13276  if (trading24HrsRestrictionEnabled) {... */\n      iszero\n      tag_390\n      jumpi\n        /* \"contracts\\\\Greelance.sol\":12567:12596  maxSellableRestrictionEnabled */\n      0x0c\n      0x00\n      swap1\n      sload\n      swap1\n      0x0100\n      exp\n      swap1\n      div\n      0xff\n      and\n        /* \"contracts\\\\Greelance.sol\":12567:12672  maxSellableRestrictionEnabled &&... */\n      dup1\n      iszero\n      tag_391\n      jumpi\n      pop\n        /* \"contracts\\\\Greelance.sol\":12666:12672  1 days */\n      0x015180\n        /* \"contracts\\\\Greelance.sol\":12643:12656  lastTradeTime */\n      0x0e\n        /* \"contracts\\\\Greelance.sol\":12643:12662  lastTradeTime[from] */\n      0x00\n        /* \"contracts\\\\Greelance.sol\":12657:12661  from */\n      dup8\n        /* \"contracts\\\\Greelance.sol\":12643:12662  lastTradeTime[from] */\n      0xffffffffffffffffffffffffffffffffffffffff\n      and\n      0xffffffffffffffffffffffffffffffffffffffff\n      and\n      dup2\n      mstore\n      0x20\n      add\n      swap1\n      dup2\n      mstore\n      0x20\n      add\n      0x00\n      keccak256\n      sload\n        /* \"contracts\\\\Greelance.sol\":12625:12640  block.timestamp */\n      timestamp\n        /* \"contracts\\\\Greelance.sol\":12625:12662  block.timestamp - lastTradeTime[from] */\n      tag_392\n      swap2\n      swap1\n      tag_393\n      jump\t// in\n    tag_392:\n        /* \"contracts\\\\Greelance.sol\":12625:12672  block.timestamp - lastTradeTime[from] >= 1 days */\n      lt\n      iszero\n        /* \"contracts\\\\Greelance.sol\":12567:12672  maxSellableRestrictionEnabled &&... */\n    tag_391:\n        /* \"contracts\\\\Greelance.sol\":12537:13115  if (... */\n      iszero\n      tag_394\n      jumpi\n        /* \"contracts\\\\Greelance.sol\":12748:12749  0 */\n      0x00\n        /* \"contracts\\\\Greelance.sol\":12723:12739  tradingIn24Hours */\n      0x0d\n        /* \"contracts\\\\Greelance.sol\":12723:12745  tradingIn24Hours[from] */\n      0x00\n        /* \"contracts\\\\Greelance.sol\":12740:12744  from */\n      dup8\n        /* \"contracts\\\\Greelance.sol\":12723:12745  tradingIn24Hours[from] */\n      0xffffffffffffffffffffffffffffffffffffffff\n      and\n      0xffffffffffffffffffffffffffffffffffffffff\n      and\n      dup2\n      mstore\n      0x20\n      add\n      swap1\n      dup2\n      mstore\n      0x20\n      add\n      0x00\n      keccak256\n        /* \"contracts\\\\Greelance.sol\":12723:12749  tradingIn24Hours[from] = 0 */\n      dup2\n      swap1\n      sstore\n      pop\n        /* \"contracts\\\\Greelance.sol\":12537:13115  if (... */\n      jump(tag_395)\n    tag_394:\n        /* \"contracts\\\\Greelance.sol\":12843:12860  maxSellableAmount */\n      sload(0x0b)\n        /* \"contracts\\\\Greelance.sol\":12834:12840  amount */\n      dup4\n        /* \"contracts\\\\Greelance.sol\":12809:12825  tradingIn24Hours */\n      0x0d\n        /* \"contracts\\\\Greelance.sol\":12809:12831  tradingIn24Hours[from] */\n      0x00\n        /* \"contracts\\\\Greelance.sol\":12826:12830  from */\n      dup9\n        /* \"contracts\\\\Greelance.sol\":12809:12831  tradingIn24Hours[from] */\n      0xffffffffffffffffffffffffffffffffffffffff\n      and\n      0xffffffffffffffffffffffffffffffffffffffff\n      and\n      dup2\n      mstore\n      0x20\n      add\n      swap1\n      dup2\n      mstore\n      0x20\n      add\n      0x00\n      keccak256\n      sload\n        /* \"contracts\\\\Greelance.sol\":12809:12840  tradingIn24Hours[from] + amount */\n      tag_396\n      swap2\n      swap1\n      tag_257\n      jump\t// in\n    tag_396:\n        /* \"contracts\\\\Greelance.sol\":12809:12860  tradingIn24Hours[from] + amount > maxSellableAmount */\n      gt\n        /* \"contracts\\\\Greelance.sol\":12779:13115  if (... */\n      iszero\n      tag_397\n      jumpi\n        /* \"contracts\\\\Greelance.sol\":12990:12996  1 days */\n      0x015180\n        /* \"contracts\\\\Greelance.sol\":12967:12980  lastTradeTime */\n      0x0e\n        /* \"contracts\\\\Greelance.sol\":12967:12986  lastTradeTime[from] */\n      0x00\n        /* \"contracts\\\\Greelance.sol\":12981:12985  from */\n      dup8\n        /* \"contracts\\\\Greelance.sol\":12967:12986  lastTradeTime[from] */\n      0xffffffffffffffffffffffffffffffffffffffff\n      and\n      0xffffffffffffffffffffffffffffffffffffffff\n      and\n      dup2\n      mstore\n      0x20\n      add\n      swap1\n      dup2\n      mstore\n      0x20\n      add\n      0x00\n      keccak256\n      sload\n        /* \"contracts\\\\Greelance.sol\":12949:12964  block.timestamp */\n      timestamp\n        /* \"contracts\\\\Greelance.sol\":12949:12986  block.timestamp - lastTradeTime[from] */\n      tag_398\n      swap2\n      swap1\n      tag_393\n      jump\t// in\n    tag_398:\n        /* \"contracts\\\\Greelance.sol\":12949:12996  block.timestamp - lastTradeTime[from] >= 1 days */\n      lt\n      iszero\n        /* \"contracts\\\\Greelance.sol\":12911:13091  require(... */\n      tag_399\n      jumpi\n      mload(0x40)\n      0x08c379a000000000000000000000000000000000000000000000000000000000\n      dup2\n      mstore\n      0x04\n      add\n      tag_400\n      swap1\n      tag_401\n      jump\t// in\n    tag_400:\n      mload(0x40)\n      dup1\n      swap2\n      sub\n      swap1\n      revert\n    tag_399:\n        /* \"contracts\\\\Greelance.sol\":12779:13115  if (... */\n    tag_397:\n        /* \"contracts\\\\Greelance.sol\":12537:13115  if (... */\n    tag_395:\n        /* \"contracts\\\\Greelance.sol\":13143:13172  maxSellableRestrictionEnabled */\n      0x0c\n      0x00\n      swap1\n      sload\n      swap1\n      0x0100\n      exp\n      swap1\n      div\n      0xff\n      and\n        /* \"contracts\\\\Greelance.sol\":13139:13257  if (maxSellableRestrictionEnabled) {... */\n      iszero\n      tag_402\n      jumpi\n        /* \"contracts\\\\Greelance.sol\":13227:13233  amount */\n      dup3\n        /* \"contracts\\\\Greelance.sol\":13201:13217  tradingIn24Hours */\n      0x0d\n        /* \"contracts\\\\Greelance.sol\":13201:13223  tradingIn24Hours[from] */\n      0x00\n        /* \"contracts\\\\Greelance.sol\":13218:13222  from */\n      dup8\n        /* \"contracts\\\\Greelance.sol\":13201:13223  tradingIn24Hours[from] */\n      0xffffffffffffffffffffffffffffffffffffffff\n      and\n      0xffffffffffffffffffffffffffffffffffffffff\n      and\n      dup2\n      mstore\n      0x20\n      add\n      swap1\n      dup2\n      mstore\n      0x20\n      add\n      0x00\n      keccak256\n      0x00\n        /* \"contracts\\\\Greelance.sol\":13201:13233  tradingIn24Hours[from] += amount */\n      dup3\n      dup3\n      sload\n      tag_403\n      swap2\n      swap1\n      tag_257\n      jump\t// in\n    tag_403:\n      swap3\n      pop\n      pop\n      dup2\n      swap1\n      sstore\n      pop\n        /* \"contracts\\\\Greelance.sol\":13139:13257  if (maxSellableRestrictionEnabled) {... */\n    tag_402:\n        /* \"contracts\\\\Greelance.sol\":12478:13276  if (trading24HrsRestrictionEnabled) {... */\n    tag_390:\n        /* \"contracts\\\\Greelance.sol\":12179:13291  if (from != uniswapV2Pair) {... */\n    tag_385:\n        /* \"contracts\\\\Greelance.sol\":12143:13302  if (shouldApplyFees) {... */\n    tag_384:\n        /* \"contracts\\\\Greelance.sol\":13325:13326  0 */\n      0x00\n        /* \"contracts\\\\Greelance.sol\":13318:13322  fees */\n      dup2\n        /* \"contracts\\\\Greelance.sol\":13318:13326  fees > 0 */\n      gt\n        /* \"contracts\\\\Greelance.sol\":13314:13425  if (fees > 0) {... */\n      iszero\n      tag_404\n      jumpi\n        /* \"contracts\\\\Greelance.sol\":13343:13384  super._transfer(from, taxCollector, fees) */\n      tag_405\n        /* \"contracts\\\\Greelance.sol\":13359:13363  from */\n      dup6\n        /* \"contracts\\\\Greelance.sol\":13365:13377  taxCollector */\n      0x0a\n      0x00\n      swap1\n      sload\n      swap1\n      0x0100\n      exp\n      swap1\n      div\n      0xffffffffffffffffffffffffffffffffffffffff\n      and\n        /* \"contracts\\\\Greelance.sol\":13379:13383  fees */\n      dup4\n        /* \"contracts\\\\Greelance.sol\":13343:13358  super._transfer */\n      tag_375\n        /* \"contracts\\\\Greelance.sol\":13343:13384  super._transfer(from, taxCollector, fees) */\n      jump\t// in\n    tag_405:\n        /* \"contracts\\\\Greelance.sol\":13409:13413  fees */\n      dup1\n        /* \"contracts\\\\Greelance.sol\":13399:13413  amount -= fees */\n      dup4\n      tag_406\n      swap2\n      swap1\n      tag_393\n      jump\t// in\n    tag_406:\n      swap3\n      pop\n        /* \"contracts\\\\Greelance.sol\":13314:13425  if (fees > 0) {... */\n    tag_404:\n        /* \"contracts\\\\Greelance.sol\":13437:13470  super._transfer(from, to, amount) */\n      tag_407\n        /* \"contracts\\\\Greelance.sol\":13453:13457  from */\n      dup6\n        /* \"contracts\\\\Greelance.sol\":13459:13461  to */\n      dup6\n        /* \"contracts\\\\Greelance.sol\":13463:13469  amount */\n      dup6\n        /* \"contracts\\\\Greelance.sol\":13437:13452  super._transfer */\n      tag_375\n        /* \"contracts\\\\Greelance.sol\":13437:13470  super._transfer(from, to, amount) */\n      jump\t// in\n    tag_407:\n        /* \"contracts\\\\Greelance.sol\":13503:13518  block.timestamp */\n      timestamp\n        /* \"contracts\\\\Greelance.sol\":13481:13494  lastTradeTime */\n      0x0e\n        /* \"contracts\\\\Greelance.sol\":13481:13500  lastTradeTime[from] */\n      0x00\n        /* \"contracts\\\\Greelance.sol\":13495:13499  from */\n      dup8\n        /* \"contracts\\\\Greelance.sol\":13481:13500  lastTradeTime[from] */\n      0xffffffffffffffffffffffffffffffffffffffff\n      and\n      0xffffffffffffffffffffffffffffffffffffffff\n      and\n      dup2\n      mstore\n      0x20\n      add\n      swap1\n      dup2\n      mstore\n      0x20\n      add\n      0x00\n      keccak256\n        /* \"contracts\\\\Greelance.sol\":13481:13518  lastTradeTime[from] = block.timestamp */\n      dup2\n      swap1\n      sstore\n      pop\n        /* \"contracts\\\\Greelance.sol\":11437:13526  {... */\n      pop\n      pop\n        /* \"contracts\\\\Greelance.sol\":11324:13526  function _transfer(... */\n    tag_361:\n      pop\n      pop\n      pop\n      jump\t// out\n        /* \"contracts\\\\Greelance.sol\":8337:8462  function _beforeTokenTransfer(... */\n    tag_355:\n      pop\n      pop\n      pop\n      jump\t// out\n        /* \"contracts\\\\Greelance.sol\":8470:8594  function _afterTokenTransfer(... */\n    tag_360:\n      pop\n      pop\n      pop\n      jump\t// out\n        /* \"contracts\\\\Greelance.sol\":6165:6935  function _transfer(... */\n    tag_375:\n        /* \"contracts\\\\Greelance.sol\":6323:6324  0 */\n      0x00\n        /* \"contracts\\\\Greelance.sol\":6305:6325  sender != address(0) */\n      0xffffffffffffffffffffffffffffffffffffffff\n      and\n        /* \"contracts\\\\Greelance.sol\":6305:6311  sender */\n      dup4\n        /* \"contracts\\\\Greelance.sol\":6305:6325  sender != address(0) */\n      0xffffffffffffffffffffffffffffffffffffffff\n      and\n      sub\n        /* \"contracts\\\\Greelance.sol\":6297:6367  require(sender != address(0), \"ERC20: transfer from the zero address\") */\n      tag_411\n      jumpi\n      mload(0x40)\n      0x08c379a000000000000000000000000000000000000000000000000000000000\n      dup2\n      mstore\n      0x04\n      add\n      tag_412\n      swap1\n      tag_364\n      jump\t// in\n    tag_412:\n      mload(0x40)\n      dup1\n      swap2\n      sub\n      swap1\n      revert\n    tag_411:\n        /* \"contracts\\\\Greelance.sol\":6407:6408  0 */\n      0x00\n        /* \"contracts\\\\Greelance.sol\":6386:6409  recipient != address(0) */\n      0xffffffffffffffffffffffffffffffffffffffff\n      and\n        /* \"contracts\\\\Greelance.sol\":6386:6395  recipient */\n      dup3\n        /* \"contracts\\\\Greelance.sol\":6386:6409  recipient != address(0) */\n      0xffffffffffffffffffffffffffffffffffffffff\n      and\n      sub\n        /* \"contracts\\\\Greelance.sol\":6378:6449  require(recipient != address(0), \"ERC20: transfer to the zero address\") */\n      tag_413\n      jumpi\n      mload(0x40)\n      0x08c379a000000000000000000000000000000000000000000000000000000000\n      dup2\n      mstore\n      0x04\n      add\n      tag_414\n      swap1\n      tag_367\n      jump\t// in\n    tag_414:\n      mload(0x40)\n      dup1\n      swap2\n      sub\n      swap1\n      revert\n    tag_413:\n        /* \"contracts\\\\Greelance.sol\":6462:6509  _beforeTokenTransfer(sender, recipient, amount) */\n      tag_415\n        /* \"contracts\\\\Greelance.sol\":6483:6489  sender */\n      dup4\n        /* \"contracts\\\\Greelance.sol\":6491:6500  recipient */\n      dup4\n        /* \"contracts\\\\Greelance.sol\":6502:6508  amount */\n      dup4\n        /* \"contracts\\\\Greelance.sol\":6462:6482  _beforeTokenTransfer */\n      tag_355\n        /* \"contracts\\\\Greelance.sol\":6462:6509  _beforeTokenTransfer(sender, recipient, amount) */\n      jump\t// in\n    tag_415:\n        /* \"contracts\\\\Greelance.sol\":6522:6543  uint256 senderBalance */\n      0x00\n        /* \"contracts\\\\Greelance.sol\":6546:6555  _balances */\n      dup1\n        /* \"contracts\\\\Greelance.sol\":6546:6563  _balances[sender] */\n      0x00\n        /* \"contracts\\\\Greelance.sol\":6556:6562  sender */\n      dup6\n        /* \"contracts\\\\Greelance.sol\":6546:6563  _balances[sender] */\n      0xffffffffffffffffffffffffffffffffffffffff\n      and\n      0xffffffffffffffffffffffffffffffffffffffff\n      and\n      dup2\n      mstore\n      0x20\n      add\n      swap1\n      dup2\n      mstore\n      0x20\n      add\n      0x00\n      keccak256\n      sload\n        /* \"contracts\\\\Greelance.sol\":6522:6563  uint256 senderBalance = _balances[sender] */\n      swap1\n      pop\n        /* \"contracts\\\\Greelance.sol\":6613:6619  amount */\n      dup2\n        /* \"contracts\\\\Greelance.sol\":6596:6609  senderBalance */\n      dup2\n        /* \"contracts\\\\Greelance.sol\":6596:6619  senderBalance >= amount */\n      lt\n      iszero\n        /* \"contracts\\\\Greelance.sol\":6574:6685  require(... */\n      tag_416\n      jumpi\n      mload(0x40)\n      0x08c379a000000000000000000000000000000000000000000000000000000000\n      dup2\n      mstore\n      0x04\n      add\n      tag_417\n      swap1\n      tag_418\n      jump\t// in\n    tag_417:\n      mload(0x40)\n      dup1\n      swap2\n      sub\n      swap1\n      revert\n    tag_416:\n        /* \"contracts\\\\Greelance.sol\":6757:6763  amount */\n      dup2\n        /* \"contracts\\\\Greelance.sol\":6741:6754  senderBalance */\n      dup2\n        /* \"contracts\\\\Greelance.sol\":6741:6763  senderBalance - amount */\n      sub\n        /* \"contracts\\\\Greelance.sol\":6721:6730  _balances */\n      0x00\n        /* \"contracts\\\\Greelance.sol\":6721:6738  _balances[sender] */\n      dup1\n        /* \"contracts\\\\Greelance.sol\":6731:6737  sender */\n      dup7\n        /* \"contracts\\\\Greelance.sol\":6721:6738  _balances[sender] */\n      0xffffffffffffffffffffffffffffffffffffffff\n      and\n      0xffffffffffffffffffffffffffffffffffffffff\n      and\n      dup2\n      mstore\n      0x20\n      add\n      swap1\n      dup2\n      mstore\n      0x20\n      add\n      0x00\n      keccak256\n        /* \"contracts\\\\Greelance.sol\":6721:6763  _balances[sender] = senderBalance - amount */\n      dup2\n      swap1\n      sstore\n      pop\n        /* \"contracts\\\\Greelance.sol\":6809:6815  amount */\n      dup2\n        /* \"contracts\\\\Greelance.sol\":6785:6794  _balances */\n      0x00\n        /* \"contracts\\\\Greelance.sol\":6785:6805  _balances[recipient] */\n      dup1\n        /* \"contracts\\\\Greelance.sol\":6795:6804  recipient */\n      dup6\n        /* \"contracts\\\\Greelance.sol\":6785:6805  _balances[recipient] */\n      0xffffffffffffffffffffffffffffffffffffffff\n      and\n      0xffffffffffffffffffffffffffffffffffffffff\n      and\n      dup2\n      mstore\n      0x20\n      add\n      swap1\n      dup2\n      mstore\n      0x20\n      add\n      0x00\n      keccak256\n      0x00\n        /* \"contracts\\\\Greelance.sol\":6785:6815  _balances[recipient] += amount */\n      dup3\n      dup3\n      sload\n      tag_419\n      swap2\n      swap1\n      tag_257\n      jump\t// in\n    tag_419:\n      swap3\n      pop\n      pop\n      dup2\n      swap1\n      sstore\n      pop\n        /* \"contracts\\\\Greelance.sol\":6850:6859  recipient */\n      dup3\n        /* \"contracts\\\\Greelance.sol\":6833:6868  Transfer(sender, recipient, amount) */\n      0xffffffffffffffffffffffffffffffffffffffff\n      and\n        /* \"contracts\\\\Greelance.sol\":6842:6848  sender */\n      dup5\n        /* \"contracts\\\\Greelance.sol\":6833:6868  Transfer(sender, recipient, amount) */\n      0xffffffffffffffffffffffffffffffffffffffff\n      and\n      0xddf252ad1be2c89b69c2b068fc378daa952ba7f163c4a11628f55a4df523b3ef\n        /* \"contracts\\\\Greelance.sol\":6861:6867  amount */\n      dup5\n        /* \"contracts\\\\Greelance.sol\":6833:6868  Transfer(sender, recipient, amount) */\n      mload(0x40)\n      tag_420\n      swap2\n      swap1\n      tag_53\n      jump\t// in\n    tag_420:\n      mload(0x40)\n      dup1\n      swap2\n      sub\n      swap1\n      log3\n        /* \"contracts\\\\Greelance.sol\":6881:6927  _afterTokenTransfer(sender, recipient, amount) */\n      tag_421\n        /* \"contracts\\\\Greelance.sol\":6901:6907  sender */\n      dup5\n        /* \"contracts\\\\Greelance.sol\":6909:6918  recipient */\n      dup5\n        /* \"contracts\\\\Greelance.sol\":6920:6926  amount */\n      dup5\n        /* \"contracts\\\\Greelance.sol\":6881:6900  _afterTokenTransfer */\n      tag_360\n        /* \"contracts\\\\Greelance.sol\":6881:6927  _afterTokenTransfer(sender, recipient, amount) */\n      jump\t// in\n    tag_421:\n        /* \"contracts\\\\Greelance.sol\":6286:6935  {... */\n      pop\n        /* \"contracts\\\\Greelance.sol\":6165:6935  function _transfer(... */\n      pop\n      pop\n      pop\n      jump\t// out\n        /* \"#utility.yul\":88:205   */\n    tag_423:\n        /* \"#utility.yul\":197:198   */\n      0x00\n        /* \"#utility.yul\":194:195   */\n      dup1\n        /* \"#utility.yul\":187:199   */\n      revert\n        /* \"#utility.yul\":334:460   */\n    tag_425:\n        /* \"#utility.yul\":371:378   */\n      0x00\n        /* \"#utility.yul\":411:453   */\n      0xffffffffffffffffffffffffffffffffffffffff\n        /* \"#utility.yul\":404:409   */\n      dup3\n        /* \"#utility.yul\":400:454   */\n      and\n        /* \"#utility.yul\":389:454   */\n      swap1\n      pop\n        /* \"#utility.yul\":334:460   */\n      swap2\n      swap1\n      pop\n      jump\t// out\n        /* \"#utility.yul\":466:562   */\n    tag_426:\n        /* \"#utility.yul\":503:510   */\n      0x00\n        /* \"#utility.yul\":532:556   */\n      tag_491\n        /* \"#utility.yul\":550:555   */\n      dup3\n        /* \"#utility.yul\":532:556   */\n      tag_425\n      jump\t// in\n    tag_491:\n        /* \"#utility.yul\":521:556   */\n      swap1\n      pop\n        /* \"#utility.yul\":466:562   */\n      swap2\n      swap1\n      pop\n      jump\t// out\n        /* \"#utility.yul\":568:690   */\n    tag_427:\n        /* \"#utility.yul\":641:665   */\n      tag_493\n        /* \"#utility.yul\":659:664   */\n      dup2\n        /* \"#utility.yul\":641:665   */\n      tag_426\n      jump\t// in\n    tag_493:\n        /* \"#utility.yul\":634:639   */\n      dup2\n        /* \"#utility.yul\":631:666   */\n      eq\n        /* \"#utility.yul\":621:684   */\n      tag_494\n      jumpi\n        /* \"#utility.yul\":680:681   */\n      0x00\n        /* \"#utility.yul\":677:678   */\n      dup1\n        /* \"#utility.yul\":670:682   */\n      revert\n        /* \"#utility.yul\":621:684   */\n    tag_494:\n        /* \"#utility.yul\":568:690   */\n      pop\n      jump\t// out\n        /* \"#utility.yul\":696:835   */\n    tag_428:\n        /* \"#utility.yul\":742:747   */\n      0x00\n        /* \"#utility.yul\":780:786   */\n      dup2\n        /* \"#utility.yul\":767:787   */\n      calldataload\n        /* \"#utility.yul\":758:787   */\n      swap1\n      pop\n        /* \"#utility.yul\":796:829   */\n      tag_496\n        /* \"#utility.yul\":823:828   */\n      dup2\n        /* \"#utility.yul\":796:829   */\n      tag_427\n      jump\t// in\n    tag_496:\n        /* \"#utility.yul\":696:835   */\n      swap3\n      swap2\n      pop\n      pop\n      jump\t// out\n        /* \"#utility.yul\":841:1170   */\n    tag_50:\n        /* \"#utility.yul\":900:906   */\n      0x00\n        /* \"#utility.yul\":949:951   */\n      0x20\n        /* \"#utility.yul\":937:946   */\n      dup3\n        /* \"#utility.yul\":928:935   */\n      dup5\n        /* \"#utility.yul\":924:947   */\n      sub\n        /* \"#utility.yul\":920:952   */\n      slt\n        /* \"#utility.yul\":917:1036   */\n      iszero\n      tag_498\n      jumpi\n        /* \"#utility.yul\":955:1034   */\n      tag_499\n      tag_423\n      jump\t// in\n    tag_499:\n        /* \"#utility.yul\":917:1036   */\n    tag_498:\n        /* \"#utility.yul\":1075:1076   */\n      0x00\n        /* \"#utility.yul\":1100:1153   */\n      tag_500\n        /* \"#utility.yul\":1145:1152   */\n      dup5\n        /* \"#utility.yul\":1136:1142   */\n      dup3\n        /* \"#utility.yul\":1125:1134   */\n      dup6\n        /* \"#utility.yul\":1121:1143   */\n      add\n        /* \"#utility.yul\":1100:1153   */\n      tag_428\n      jump\t// in\n    tag_500:\n        /* \"#utility.yul\":1090:1153   */\n      swap2\n      pop\n        /* \"#utility.yul\":1046:1163   */\n      pop\n        /* \"#utility.yul\":841:1170   */\n      swap3\n      swap2\n      pop\n      pop\n      jump\t// out\n        /* \"#utility.yul\":1176:1253   */\n    tag_429:\n        /* \"#utility.yul\":1213:1220   */\n      0x00\n        /* \"#utility.yul\":1242:1247   */\n      dup2\n        /* \"#utility.yul\":1231:1247   */\n      swap1\n      pop\n        /* \"#utility.yul\":1176:1253   */\n      swap2\n      swap1\n      pop\n      jump\t// out\n        /* \"#utility.yul\":1259:1377   */\n    tag_430:\n        /* \"#utility.yul\":1346:1370   */\n      tag_503\n        /* \"#utility.yul\":1364:1369   */\n      dup2\n        /* \"#utility.yul\":1346:1370   */\n      tag_429\n      jump\t// in\n    tag_503:\n        /* \"#utility.yul\":1341:1344   */\n      dup3\n        /* \"#utility.yul\":1334:1371   */\n      mstore\n        /* \"#utility.yul\":1259:1377   */\n      pop\n      pop\n      jump\t// out\n        /* \"#utility.yul\":1383:1605   */\n    tag_53:\n        /* \"#utility.yul\":1476:1480   */\n      0x00\n        /* \"#utility.yul\":1514:1516   */\n      0x20\n        /* \"#utility.yul\":1503:1512   */\n      dup3\n        /* \"#utility.yul\":1499:1517   */\n      add\n        /* \"#utility.yul\":1491:1517   */\n      swap1\n      pop\n        /* \"#utility.yul\":1527:1598   */\n      tag_505\n        /* \"#utility.yul\":1595:1596   */\n      0x00\n        /* \"#utility.yul\":1584:1593   */\n      dup4\n        /* \"#utility.yul\":1580:1597   */\n      add\n        /* \"#utility.yul\":1571:1577   */\n      dup5\n        /* \"#utility.yul\":1527:1598   */\n      tag_430\n      jump\t// in\n    tag_505:\n        /* \"#utility.yul\":1383:1605   */\n      swap3\n      swap2\n      pop\n      pop\n      jump\t// out\n        /* \"#utility.yul\":1611:1710   */\n    tag_431:\n        /* \"#utility.yul\":1663:1669   */\n      0x00\n        /* \"#utility.yul\":1697:1702   */\n      dup2\n        /* \"#utility.yul\":1691:1703   */\n      mload\n        /* \"#utility.yul\":1681:1703   */\n      swap1\n      pop\n        /* \"#utility.yul\":1611:1710   */\n      swap2\n      swap1\n      pop\n      jump\t// out\n        /* \"#utility.yul\":1716:1885   */\n    tag_432:\n        /* \"#utility.yul\":1800:1811   */\n      0x00\n        /* \"#utility.yul\":1834:1840   */\n      dup3\n        /* \"#utility.yul\":1829:1832   */\n      dup3\n        /* \"#utility.yul\":1822:1841   */\n      mstore\n        /* \"#utility.yul\":1874:1878   */\n      0x20\n        /* \"#utility.yul\":1869:1872   */\n      dup3\n        /* \"#utility.yul\":1865:1879   */\n      add\n        /* \"#utility.yul\":1850:1879   */\n      swap1\n      pop\n        /* \"#utility.yul\":1716:1885   */\n      swap3\n      swap2\n      pop\n      pop\n      jump\t// out\n        /* \"#utility.yul\":1891:2137   */\n    tag_433:\n        /* \"#utility.yul\":1972:1973   */\n      0x00\n        /* \"#utility.yul\":1982:2095   */\n    tag_509:\n        /* \"#utility.yul\":1996:2002   */\n      dup4\n        /* \"#utility.yul\":1993:1994   */\n      dup2\n        /* \"#utility.yul\":1990:2003   */\n      lt\n        /* \"#utility.yul\":1982:2095   */\n      iszero\n      tag_511\n      jumpi\n        /* \"#utility.yul\":2081:2082   */\n      dup1\n        /* \"#utility.yul\":2076:2079   */\n      dup3\n        /* \"#utility.yul\":2072:2083   */\n      add\n        /* \"#utility.yul\":2066:2084   */\n      mload\n        /* \"#utility.yul\":2062:2063   */\n      dup2\n        /* \"#utility.yul\":2057:2060   */\n      dup5\n        /* \"#utility.yul\":2053:2064   */\n      add\n        /* \"#utility.yul\":2046:2085   */\n      mstore\n        /* \"#utility.yul\":2018:2020   */\n      0x20\n        /* \"#utility.yul\":2015:2016   */\n      dup2\n        /* \"#utility.yul\":2011:2021   */\n      add\n        /* \"#utility.yul\":2006:2021   */\n      swap1\n      pop\n        /* \"#utility.yul\":1982:2095   */\n      jump(tag_509)\n    tag_511:\n        /* \"#utility.yul\":2129:2130   */\n      0x00\n        /* \"#utility.yul\":2120:2126   */\n      dup5\n        /* \"#utility.yul\":2115:2118   */\n      dup5\n        /* \"#utility.yul\":2111:2127   */\n      add\n        /* \"#utility.yul\":2104:2131   */\n      mstore\n        /* \"#utility.yul\":1953:2137   */\n      pop\n        /* \"#utility.yul\":1891:2137   */\n      pop\n      pop\n      pop\n      jump\t// out\n        /* \"#utility.yul\":2143:2245   */\n    tag_434:\n        /* \"#utility.yul\":2184:2190   */\n      0x00\n        /* \"#utility.yul\":2235:2237   */\n      0x1f\n        /* \"#utility.yul\":2231:2238   */\n      not\n        /* \"#utility.yul\":2226:2228   */\n      0x1f\n        /* \"#utility.yul\":2219:2224   */\n      dup4\n        /* \"#utility.yul\":2215:2229   */\n      add\n        /* \"#utility.yul\":2211:2239   */\n      and\n        /* \"#utility.yul\":2201:2239   */\n      swap1\n      pop\n        /* \"#utility.yul\":2143:2245   */\n      swap2\n      swap1\n      pop\n      jump\t// out\n        /* \"#utility.yul\":2251:2628   */\n    tag_435:\n        /* \"#utility.yul\":2339:2342   */\n      0x00\n        /* \"#utility.yul\":2367:2406   */\n      tag_514\n        /* \"#utility.yul\":2400:2405   */\n      dup3\n        /* \"#utility.yul\":2367:2406   */\n      tag_431\n      jump\t// in\n    tag_514:\n        /* \"#utility.yul\":2422:2493   */\n      tag_515\n        /* \"#utility.yul\":2486:2492   */\n      dup2\n        /* \"#utility.yul\":2481:2484   */\n      dup6\n        /* \"#utility.yul\":2422:2493   */\n      tag_432\n      jump\t// in\n    tag_515:\n        /* \"#utility.yul\":2415:2493   */\n      swap4\n      pop\n        /* \"#utility.yul\":2502:2567   */\n      tag_516\n        /* \"#utility.yul\":2560:2566   */\n      dup2\n        /* \"#utility.yul\":2555:2558   */\n      dup6\n        /* \"#utility.yul\":2548:2552   */\n      0x20\n        /* \"#utility.yul\":2541:2546   */\n      dup7\n        /* \"#utility.yul\":2537:2553   */\n      add\n        /* \"#utility.yul\":2502:2567   */\n      tag_433\n      jump\t// in\n    tag_516:\n        /* \"#utility.yul\":2592:2621   */\n      tag_517\n        /* \"#utility.yul\":2614:2620   */\n      dup2\n        /* \"#utility.yul\":2592:2621   */\n      tag_434\n      jump\t// in\n    tag_517:\n        /* \"#utility.yul\":2587:2590   */\n      dup5\n        /* \"#utility.yul\":2583:2622   */\n      add\n        /* \"#utility.yul\":2576:2622   */\n      swap2\n      pop\n        /* \"#utility.yul\":2343:2628   */\n      pop\n        /* \"#utility.yul\":2251:2628   */\n      swap3\n      swap2\n      pop\n      pop\n      jump\t// out\n        /* \"#utility.yul\":2634:2947   */\n    tag_58:\n        /* \"#utility.yul\":2747:2751   */\n      0x00\n        /* \"#utility.yul\":2785:2787   */\n      0x20\n        /* \"#utility.yul\":2774:2783   */\n      dup3\n        /* \"#utility.yul\":2770:2788   */\n      add\n        /* \"#utility.yul\":2762:2788   */\n      swap1\n      pop\n        /* \"#utility.yul\":2834:2843   */\n      dup2\n        /* \"#utility.yul\":2828:2832   */\n      dup2\n        /* \"#utility.yul\":2824:2844   */\n      sub\n        /* \"#utility.yul\":2820:2821   */\n      0x00\n        /* \"#utility.yul\":2809:2818   */\n      dup4\n        /* \"#utility.yul\":2805:2822   */\n      add\n        /* \"#utility.yul\":2798:2845   */\n      mstore\n        /* \"#utility.yul\":2862:2940   */\n      tag_519\n        /* \"#utility.yul\":2935:2939   */\n      dup2\n        /* \"#utility.yul\":2926:2932   */\n      dup5\n        /* \"#utility.yul\":2862:2940   */\n      tag_435\n      jump\t// in\n    tag_519:\n        /* \"#utility.yul\":2854:2940   */\n      swap1\n      pop\n        /* \"#utility.yul\":2634:2947   */\n      swap3\n      swap2\n      pop\n      pop\n      jump\t// out\n        /* \"#utility.yul\":2953:3075   */\n    tag_436:\n        /* \"#utility.yul\":3026:3050   */\n      tag_521\n        /* \"#utility.yul\":3044:3049   */\n      dup2\n        /* \"#utility.yul\":3026:3050   */\n      tag_429\n      jump\t// in\n    tag_521:\n        /* \"#utility.yul\":3019:3024   */\n      dup2\n        /* \"#utility.yul\":3016:3051   */\n      eq\n        /* \"#utility.yul\":3006:3069   */\n      tag_522\n      jumpi\n        /* \"#utility.yul\":3065:3066   */\n      0x00\n        /* \"#utility.yul\":3062:3063   */\n      dup1\n        /* \"#utility.yul\":3055:3067   */\n      revert\n        /* \"#utility.yul\":3006:3069   */\n    tag_522:\n        /* \"#utility.yul\":2953:3075   */\n      pop\n      jump\t// out\n        /* \"#utility.yul\":3081:3220   */\n    tag_437:\n        /* \"#utility.yul\":3127:3132   */\n      0x00\n        /* \"#utility.yul\":3165:3171   */\n      dup2\n        /* \"#utility.yul\":3152:3172   */\n      calldataload\n        /* \"#utility.yul\":3143:3172   */\n      swap1\n      pop\n        /* \"#utility.yul\":3181:3214   */\n      tag_524\n        /* \"#utility.yul\":3208:3213   */\n      dup2\n        /* \"#utility.yul\":3181:3214   */\n      tag_436\n      jump\t// in\n    tag_524:\n        /* \"#utility.yul\":3081:3220   */\n      swap3\n      swap2\n      pop\n      pop\n      jump\t// out\n        /* \"#utility.yul\":3226:3700   */\n    tag_65:\n        /* \"#utility.yul\":3294:3300   */\n      0x00\n        /* \"#utility.yul\":3302:3308   */\n      dup1\n        /* \"#utility.yul\":3351:3353   */\n      0x40\n        /* \"#utility.yul\":3339:3348   */\n      dup4\n        /* \"#utility.yul\":3330:3337   */\n      dup6\n        /* \"#utility.yul\":3326:3349   */\n      sub\n        /* \"#utility.yul\":3322:3354   */\n      slt\n        /* \"#utility.yul\":3319:3438   */\n      iszero\n      tag_526\n      jumpi\n        /* \"#utility.yul\":3357:3436   */\n      tag_527\n      tag_423\n      jump\t// in\n    tag_527:\n        /* \"#utility.yul\":3319:3438   */\n    tag_526:\n        /* \"#utility.yul\":3477:3478   */\n      0x00\n        /* \"#utility.yul\":3502:3555   */\n      tag_528\n        /* \"#utility.yul\":3547:3554   */\n      dup6\n        /* \"#utility.yul\":3538:3544   */\n      dup3\n        /* \"#utility.yul\":3527:3536   */\n      dup7\n        /* \"#utility.yul\":3523:3545   */\n      add\n        /* \"#utility.yul\":3502:3555   */\n      tag_428\n      jump\t// in\n    tag_528:\n        /* \"#utility.yul\":3492:3555   */\n      swap3\n      pop\n        /* \"#utility.yul\":3448:3565   */\n      pop\n        /* \"#utility.yul\":3604:3606   */\n      0x20\n        /* \"#utility.yul\":3630:3683   */\n      tag_529\n        /* \"#utility.yul\":3675:3682   */\n      dup6\n        /* \"#utility.yul\":3666:3672   */\n      dup3\n        /* \"#utility.yul\":3655:3664   */\n      dup7\n        /* \"#utility.yul\":3651:3673   */\n      add\n        /* \"#utility.yul\":3630:3683   */\n      tag_437\n      jump\t// in\n    tag_529:\n        /* \"#utility.yul\":3620:3683   */\n      swap2\n      pop\n        /* \"#utility.yul\":3575:3693   */\n      pop\n        /* \"#utility.yul\":3226:3700   */\n      swap3\n      pop\n      swap3\n      swap1\n      pop\n      jump\t// out\n        /* \"#utility.yul\":3706:3796   */\n    tag_438:\n        /* \"#utility.yul\":3740:3747   */\n      0x00\n        /* \"#utility.yul\":3783:3788   */\n      dup2\n        /* \"#utility.yul\":3776:3789   */\n      iszero\n        /* \"#utility.yul\":3769:3790   */\n      iszero\n        /* \"#utility.yul\":3758:3790   */\n      swap1\n      pop\n        /* \"#utility.yul\":3706:3796   */\n      swap2\n      swap1\n      pop\n      jump\t// out\n        /* \"#utility.yul\":3802:3911   */\n    tag_439:\n        /* \"#utility.yul\":3883:3904   */\n      tag_532\n        /* \"#utility.yul\":3898:3903   */\n      dup2\n        /* \"#utility.yul\":3883:3904   */\n      tag_438\n      jump\t// in\n    tag_532:\n        /* \"#utility.yul\":3878:3881   */\n      dup3\n        /* \"#utility.yul\":3871:3905   */\n      mstore\n        /* \"#utility.yul\":3802:3911   */\n      pop\n      pop\n      jump\t// out\n        /* \"#utility.yul\":3917:4127   */\n    tag_68:\n        /* \"#utility.yul\":4004:4008   */\n      0x00\n        /* \"#utility.yul\":4042:4044   */\n      0x20\n        /* \"#utility.yul\":4031:4040   */\n      dup3\n        /* \"#utility.yul\":4027:4045   */\n      add\n        /* \"#utility.yul\":4019:4045   */\n      swap1\n      pop\n        /* \"#utility.yul\":4055:4120   */\n      tag_534\n        /* \"#utility.yul\":4117:4118   */\n      0x00\n        /* \"#utility.yul\":4106:4115   */\n      dup4\n        /* \"#utility.yul\":4102:4119   */\n      add\n        /* \"#utility.yul\":4093:4099   */\n      dup5\n        /* \"#utility.yul\":4055:4120   */\n      tag_439\n      jump\t// in\n    tag_534:\n        /* \"#utility.yul\":3917:4127   */\n      swap3\n      swap2\n      pop\n      pop\n      jump\t// out\n        /* \"#utility.yul\":4133:4752   */\n    tag_83:\n        /* \"#utility.yul\":4210:4216   */\n      0x00\n        /* \"#utility.yul\":4218:4224   */\n      dup1\n        /* \"#utility.yul\":4226:4232   */\n      0x00\n        /* \"#utility.yul\":4275:4277   */\n      0x60\n        /* \"#utility.yul\":4263:4272   */\n      dup5\n        /* \"#utility.yul\":4254:4261   */\n      dup7\n        /* \"#utility.yul\":4250:4273   */\n      sub\n        /* \"#utility.yul\":4246:4278   */\n      slt\n        /* \"#utility.yul\":4243:4362   */\n      iszero\n      tag_536\n      jumpi\n        /* \"#utility.yul\":4281:4360   */\n      tag_537\n      tag_423\n      jump\t// in\n    tag_537:\n        /* \"#utility.yul\":4243:4362   */\n    tag_536:\n        /* \"#utility.yul\":4401:4402   */\n      0x00\n        /* \"#utility.yul\":4426:4479   */\n      tag_538\n        /* \"#utility.yul\":4471:4478   */\n      dup7\n        /* \"#utility.yul\":4462:4468   */\n      dup3\n        /* \"#utility.yul\":4451:4460   */\n      dup8\n        /* \"#utility.yul\":4447:4469   */\n      add\n        /* \"#utility.yul\":4426:4479   */\n      tag_428\n      jump\t// in\n    tag_538:\n        /* \"#utility.yul\":4416:4479   */\n      swap4\n      pop\n        /* \"#utility.yul\":4372:4489   */\n      pop\n        /* \"#utility.yul\":4528:4530   */\n      0x20\n        /* \"#utility.yul\":4554:4607   */\n      tag_539\n        /* \"#utility.yul\":4599:4606   */\n      dup7\n        /* \"#utility.yul\":4590:4596   */\n      dup3\n        /* \"#utility.yul\":4579:4588   */\n      dup8\n        /* \"#utility.yul\":4575:4597   */\n      add\n        /* \"#utility.yul\":4554:4607   */\n      tag_428\n      jump\t// in\n    tag_539:\n        /* \"#utility.yul\":4544:4607   */\n      swap3\n      pop\n        /* \"#utility.yul\":4499:4617   */\n      pop\n        /* \"#utility.yul\":4656:4658   */\n      0x40\n        /* \"#utility.yul\":4682:4735   */\n      tag_540\n        /* \"#utility.yul\":4727:4734   */\n      dup7\n        /* \"#utility.yul\":4718:4724   */\n      dup3\n        /* \"#utility.yul\":4707:4716   */\n      dup8\n        /* \"#utility.yul\":4703:4725   */\n      add\n        /* \"#utility.yul\":4682:4735   */\n      tag_437\n      jump\t// in\n    tag_540:\n        /* \"#utility.yul\":4672:4735   */\n      swap2\n      pop\n        /* \"#utility.yul\":4627:4745   */\n      pop\n        /* \"#utility.yul\":4133:4752   */\n      swap3\n      pop\n      swap3\n      pop\n      swap3\n      jump\t// out\n        /* \"#utility.yul\":4758:4844   */\n    tag_440:\n        /* \"#utility.yul\":4793:4800   */\n      0x00\n        /* \"#utility.yul\":4833:4837   */\n      0xff\n        /* \"#utility.yul\":4826:4831   */\n      dup3\n        /* \"#utility.yul\":4822:4838   */\n      and\n        /* \"#utility.yul\":4811:4838   */\n      swap1\n      pop\n        /* \"#utility.yul\":4758:4844   */\n      swap2\n      swap1\n      pop\n      jump\t// out\n        /* \"#utility.yul\":4850:4962   */\n    tag_441:\n        /* \"#utility.yul\":4933:4955   */\n      tag_543\n        /* \"#utility.yul\":4949:4954   */\n      dup2\n        /* \"#utility.yul\":4933:4955   */\n      tag_440\n      jump\t// in\n    tag_543:\n        /* \"#utility.yul\":4928:4931   */\n      dup3\n        /* \"#utility.yul\":4921:4956   */\n      mstore\n        /* \"#utility.yul\":4850:4962   */\n      pop\n      pop\n      jump\t// out\n        /* \"#utility.yul\":4968:5182   */\n    tag_93:\n        /* \"#utility.yul\":5057:5061   */\n      0x00\n        /* \"#utility.yul\":5095:5097   */\n      0x20\n        /* \"#utility.yul\":5084:5093   */\n      dup3\n        /* \"#utility.yul\":5080:5098   */\n      add\n        /* \"#utility.yul\":5072:5098   */\n      swap1\n      pop\n        /* \"#utility.yul\":5108:5175   */\n      tag_545\n        /* \"#utility.yul\":5172:5173   */\n      0x00\n        /* \"#utility.yul\":5161:5170   */\n      dup4\n        /* \"#utility.yul\":5157:5174   */\n      add\n        /* \"#utility.yul\":5148:5154   */\n      dup5\n        /* \"#utility.yul\":5108:5175   */\n      tag_441\n      jump\t// in\n    tag_545:\n        /* \"#utility.yul\":4968:5182   */\n      swap3\n      swap2\n      pop\n      pop\n      jump\t// out\n        /* \"#utility.yul\":5188:5306   */\n    tag_442:\n        /* \"#utility.yul\":5275:5299   */\n      tag_547\n        /* \"#utility.yul\":5293:5298   */\n      dup2\n        /* \"#utility.yul\":5275:5299   */\n      tag_426\n      jump\t// in\n    tag_547:\n        /* \"#utility.yul\":5270:5273   */\n      dup3\n        /* \"#utility.yul\":5263:5300   */\n      mstore\n        /* \"#utility.yul\":5188:5306   */\n      pop\n      pop\n      jump\t// out\n        /* \"#utility.yul\":5312:5534   */\n    tag_103:\n        /* \"#utility.yul\":5405:5409   */\n      0x00\n        /* \"#utility.yul\":5443:5445   */\n      0x20\n        /* \"#utility.yul\":5432:5441   */\n      dup3\n        /* \"#utility.yul\":5428:5446   */\n      add\n        /* \"#utility.yul\":5420:5446   */\n      swap1\n      pop\n        /* \"#utility.yul\":5456:5527   */\n      tag_549\n        /* \"#utility.yul\":5524:5525   */\n      0x00\n        /* \"#utility.yul\":5513:5522   */\n      dup4\n        /* \"#utility.yul\":5509:5526   */\n      add\n        /* \"#utility.yul\":5500:5506   */\n      dup5\n        /* \"#utility.yul\":5456:5527   */\n      tag_442\n      jump\t// in\n    tag_549:\n        /* \"#utility.yul\":5312:5534   */\n      swap3\n      swap2\n      pop\n      pop\n      jump\t// out\n        /* \"#utility.yul\":5540:5869   */\n    tag_107:\n        /* \"#utility.yul\":5599:5605   */\n      0x00\n        /* \"#utility.yul\":5648:5650   */\n      0x20\n        /* \"#utility.yul\":5636:5645   */\n      dup3\n        /* \"#utility.yul\":5627:5634   */\n      dup5\n        /* \"#utility.yul\":5623:5646   */\n      sub\n        /* \"#utility.yul\":5619:5651   */\n      slt\n        /* \"#utility.yul\":5616:5735   */\n      iszero\n      tag_551\n      jumpi\n        /* \"#utility.yul\":5654:5733   */\n      tag_552\n      tag_423\n      jump\t// in\n    tag_552:\n        /* \"#utility.yul\":5616:5735   */\n    tag_551:\n        /* \"#utility.yul\":5774:5775   */\n      0x00\n        /* \"#utility.yul\":5799:5852   */\n      tag_553\n        /* \"#utility.yul\":5844:5851   */\n      dup5\n        /* \"#utility.yul\":5835:5841   */\n      dup3\n        /* \"#utility.yul\":5824:5833   */\n      dup6\n        /* \"#utility.yul\":5820:5842   */\n      add\n        /* \"#utility.yul\":5799:5852   */\n      tag_437\n      jump\t// in\n    tag_553:\n        /* \"#utility.yul\":5789:5852   */\n      swap2\n      pop\n        /* \"#utility.yul\":5745:5862   */\n      pop\n        /* \"#utility.yul\":5540:5869   */\n      swap3\n      swap2\n      pop\n      pop\n      jump\t// out\n        /* \"#utility.yul\":5875:6349   */\n    tag_190:\n        /* \"#utility.yul\":5943:5949   */\n      0x00\n        /* \"#utility.yul\":5951:5957   */\n      dup1\n        /* \"#utility.yul\":6000:6002   */\n      0x40\n        /* \"#utility.yul\":5988:5997   */\n      dup4\n        /* \"#utility.yul\":5979:5986   */\n      dup6\n        /* \"#utility.yul\":5975:5998   */\n      sub\n        /* \"#utility.yul\":5971:6003   */\n      slt\n        /* \"#utility.yul\":5968:6087   */\n      iszero\n      tag_555\n      jumpi\n        /* \"#utility.yul\":6006:6085   */\n      tag_556\n      tag_423\n      jump\t// in\n    tag_556:\n        /* \"#utility.yul\":5968:6087   */\n    tag_555:\n        /* \"#utility.yul\":6126:6127   */\n      0x00\n        /* \"#utility.yul\":6151:6204   */\n      tag_557\n        /* \"#utility.yul\":6196:6203   */\n      dup6\n        /* \"#utility.yul\":6187:6193   */\n      dup3\n        /* \"#utility.yul\":6176:6185   */\n      dup7\n        /* \"#utility.yul\":6172:6194   */\n      add\n        /* \"#utility.yul\":6151:6204   */\n      tag_428\n      jump\t// in\n    tag_557:\n        /* \"#utility.yul\":6141:6204   */\n      swap3\n      pop\n        /* \"#utility.yul\":6097:6214   */\n      pop\n        /* \"#utility.yul\":6253:6255   */\n      0x20\n        /* \"#utility.yul\":6279:6332   */\n      tag_558\n        /* \"#utility.yul\":6324:6331   */\n      dup6\n        /* \"#utility.yul\":6315:6321   */\n      dup3\n        /* \"#utility.yul\":6304:6313   */\n      dup7\n        /* \"#utility.yul\":6300:6322   */\n      add\n        /* \"#utility.yul\":6279:6332   */\n      tag_428\n      jump\t// in\n    tag_558:\n        /* \"#utility.yul\":6269:6332   */\n      swap2\n      pop\n        /* \"#utility.yul\":6224:6342   */\n      pop\n        /* \"#utility.yul\":5875:6349   */\n      swap3\n      pop\n      swap3\n      swap1\n      pop\n      jump\t// out\n        /* \"#utility.yul\":6355:6535   */\n    tag_443:\n        /* \"#utility.yul\":6403:6480   */\n      0x4e487b7100000000000000000000000000000000000000000000000000000000\n        /* \"#utility.yul\":6400:6401   */\n      0x00\n        /* \"#utility.yul\":6393:6481   */\n      mstore\n        /* \"#utility.yul\":6500:6504   */\n      0x22\n        /* \"#utility.yul\":6497:6498   */\n      0x04\n        /* \"#utility.yul\":6490:6505   */\n      mstore\n        /* \"#utility.yul\":6524:6528   */\n      0x24\n        /* \"#utility.yul\":6521:6522   */\n      0x00\n        /* \"#utility.yul\":6514:6529   */\n      revert\n        /* \"#utility.yul\":6541:6861   */\n    tag_203:\n        /* \"#utility.yul\":6585:6591   */\n      0x00\n        /* \"#utility.yul\":6622:6623   */\n      0x02\n        /* \"#utility.yul\":6616:6620   */\n      dup3\n        /* \"#utility.yul\":6612:6624   */\n      div\n        /* \"#utility.yul\":6602:6624   */\n      swap1\n      pop\n        /* \"#utility.yul\":6669:6670   */\n      0x01\n        /* \"#utility.yul\":6663:6667   */\n      dup3\n        /* \"#utility.yul\":6659:6671   */\n      and\n        /* \"#utility.yul\":6690:6708   */\n      dup1\n        /* \"#utility.yul\":6680:6761   */\n      tag_561\n      jumpi\n        /* \"#utility.yul\":6746:6750   */\n      0x7f\n        /* \"#utility.yul\":6738:6744   */\n      dup3\n        /* \"#utility.yul\":6734:6751   */\n      and\n        /* \"#utility.yul\":6724:6751   */\n      swap2\n      pop\n        /* \"#utility.yul\":6680:6761   */\n    tag_561:\n        /* \"#utility.yul\":6808:6810   */\n      0x20\n        /* \"#utility.yul\":6800:6806   */\n      dup3\n        /* \"#utility.yul\":6797:6811   */\n      lt\n        /* \"#utility.yul\":6777:6795   */\n      dup2\n        /* \"#utility.yul\":6774:6812   */\n      sub\n        /* \"#utility.yul\":6771:6855   */\n      tag_562\n      jumpi\n        /* \"#utility.yul\":6827:6845   */\n      tag_563\n      tag_443\n      jump\t// in\n    tag_563:\n        /* \"#utility.yul\":6771:6855   */\n    tag_562:\n        /* \"#utility.yul\":6592:6861   */\n      pop\n        /* \"#utility.yul\":6541:6861   */\n      swap2\n      swap1\n      pop\n      jump\t// out\n        /* \"#utility.yul\":6867:7049   */\n    tag_444:\n        /* \"#utility.yul\":7007:7041   */\n      0x4f776e61626c653a2063616c6c6572206973206e6f7420746865206f776e6572\n        /* \"#utility.yul\":7003:7004   */\n      0x00\n        /* \"#utility.yul\":6995:7001   */\n      dup3\n        /* \"#utility.yul\":6991:7005   */\n      add\n        /* \"#utility.yul\":6984:7042   */\n      mstore\n        /* \"#utility.yul\":6867:7049   */\n      pop\n      jump\t// out\n        /* \"#utility.yul\":7055:7421   */\n    tag_445:\n        /* \"#utility.yul\":7197:7200   */\n      0x00\n        /* \"#utility.yul\":7218:7285   */\n      tag_566\n        /* \"#utility.yul\":7282:7284   */\n      0x20\n        /* \"#utility.yul\":7277:7280   */\n      dup4\n        /* \"#utility.yul\":7218:7285   */\n      tag_432\n      jump\t// in\n    tag_566:\n        /* \"#utility.yul\":7211:7285   */\n      swap2\n      pop\n        /* \"#utility.yul\":7294:7387   */\n      tag_567\n        /* \"#utility.yul\":7383:7386   */\n      dup3\n        /* \"#utility.yul\":7294:7387   */\n      tag_444\n      jump\t// in\n    tag_567:\n        /* \"#utility.yul\":7412:7414   */\n      0x20\n        /* \"#utility.yul\":7407:7410   */\n      dup3\n        /* \"#utility.yul\":7403:7415   */\n      add\n        /* \"#utility.yul\":7396:7415   */\n      swap1\n      pop\n        /* \"#utility.yul\":7055:7421   */\n      swap2\n      swap1\n      pop\n      jump\t// out\n        /* \"#utility.yul\":7427:7846   */\n    tag_213:\n        /* \"#utility.yul\":7593:7597   */\n      0x00\n        /* \"#utility.yul\":7631:7633   */\n      0x20\n        /* \"#utility.yul\":7620:7629   */\n      dup3\n        /* \"#utility.yul\":7616:7634   */\n      add\n        /* \"#utility.yul\":7608:7634   */\n      swap1\n      pop\n        /* \"#utility.yul\":7680:7689   */\n      dup2\n        /* \"#utility.yul\":7674:7678   */\n      dup2\n        /* \"#utility.yul\":7670:7690   */\n      sub\n        /* \"#utility.yul\":7666:7667   */\n      0x00\n        /* \"#utility.yul\":7655:7664   */\n      dup4\n        /* \"#utility.yul\":7651:7668   */\n      add\n        /* \"#utility.yul\":7644:7691   */\n      mstore\n        /* \"#utility.yul\":7708:7839   */\n      tag_569\n        /* \"#utility.yul\":7834:7838   */\n      dup2\n        /* \"#utility.yul\":7708:7839   */\n      tag_445\n      jump\t// in\n    tag_569:\n        /* \"#utility.yul\":7700:7839   */\n      swap1\n      pop\n        /* \"#utility.yul\":7427:7846   */\n      swap2\n      swap1\n      pop\n      jump\t// out\n        /* \"#utility.yul\":7852:8024   */\n    tag_446:\n        /* \"#utility.yul\":7992:8016   */\n      0x546f6b656e7320616c7265616479206d696e7465642100000000000000000000\n        /* \"#utility.yul\":7988:7989   */\n      0x00\n        /* \"#utility.yul\":7980:7986   */\n      dup3\n        /* \"#utility.yul\":7976:7990   */\n      add\n        /* \"#utility.yul\":7969:8017   */\n      mstore\n        /* \"#utility.yul\":7852:8024   */\n      pop\n      jump\t// out\n        /* \"#utility.yul\":8030:8396   */\n    tag_447:\n        /* \"#utility.yul\":8172:8175   */\n      0x00\n        /* \"#utility.yul\":8193:8260   */\n      tag_572\n        /* \"#utility.yul\":8257:8259   */\n      0x16\n        /* \"#utility.yul\":8252:8255   */\n      dup4\n        /* \"#utility.yul\":8193:8260   */\n      tag_432\n      jump\t// in\n    tag_572:\n        /* \"#utility.yul\":8186:8260   */\n      swap2\n      pop\n        /* \"#utility.yul\":8269:8362   */\n      tag_573\n        /* \"#utility.yul\":8358:8361   */\n      dup3\n        /* \"#utility.yul\":8269:8362   */\n      tag_446\n      jump\t// in\n    tag_573:\n        /* \"#utility.yul\":8387:8389   */\n      0x20\n        /* \"#utility.yul\":8382:8385   */\n      dup3\n        /* \"#utility.yul\":8378:8390   */\n      add\n        /* \"#utility.yul\":8371:8390   */\n      swap1\n      pop\n        /* \"#utility.yul\":8030:8396   */\n      swap2\n      swap1\n      pop\n      jump\t// out\n        /* \"#utility.yul\":8402:8821   */\n    tag_226:\n        /* \"#utility.yul\":8568:8572   */\n      0x00\n        /* \"#utility.yul\":8606:8608   */\n      0x20\n        /* \"#utility.yul\":8595:8604   */\n      dup3\n        /* \"#utility.yul\":8591:8609   */\n      add\n        /* \"#utility.yul\":8583:8609   */\n      swap1\n      pop\n        /* \"#utility.yul\":8655:8664   */\n      dup2\n        /* \"#utility.yul\":8649:8653   */\n      dup2\n        /* \"#utility.yul\":8645:8665   */\n      sub\n        /* \"#utility.yul\":8641:8642   */\n      0x00\n        /* \"#utility.yul\":8630:8639   */\n      dup4\n        /* \"#utility.yul\":8626:8643   */\n      add\n        /* \"#utility.yul\":8619:8666   */\n      mstore\n        /* \"#utility.yul\":8683:8814   */\n      tag_575\n        /* \"#utility.yul\":8809:8813   */\n      dup2\n        /* \"#utility.yul\":8683:8814   */\n      tag_447\n      jump\t// in\n    tag_575:\n        /* \"#utility.yul\":8675:8814   */\n      swap1\n      pop\n        /* \"#utility.yul\":8402:8821   */\n      swap2\n      swap1\n      pop\n      jump\t// out\n        /* \"#utility.yul\":8827:9007   */\n    tag_448:\n        /* \"#utility.yul\":8875:8952   */\n      0x4e487b7100000000000000000000000000000000000000000000000000000000\n        /* \"#utility.yul\":8872:8873   */\n      0x00\n        /* \"#utility.yul\":8865:8953   */\n      mstore\n        /* \"#utility.yul\":8972:8976   */\n      0x11\n        /* \"#utility.yul\":8969:8970   */\n      0x04\n        /* \"#utility.yul\":8962:8977   */\n      mstore\n        /* \"#utility.yul\":8996:9000   */\n      0x24\n        /* \"#utility.yul\":8993:8994   */\n      0x00\n        /* \"#utility.yul\":8986:9001   */\n      revert\n        /* \"#utility.yul\":9013:9115   */\n    tag_449:\n        /* \"#utility.yul\":9055:9063   */\n      0x00\n        /* \"#utility.yul\":9102:9107   */\n      dup2\n        /* \"#utility.yul\":9099:9100   */\n      0x01\n        /* \"#utility.yul\":9095:9108   */\n      shr\n        /* \"#utility.yul\":9074:9108   */\n      swap1\n      pop\n        /* \"#utility.yul\":9013:9115   */\n      swap2\n      swap1\n      pop\n      jump\t// out\n        /* \"#utility.yul\":9121:9969   */\n    tag_450:\n        /* \"#utility.yul\":9182:9187   */\n      0x00\n        /* \"#utility.yul\":9189:9193   */\n      dup1\n        /* \"#utility.yul\":9213:9219   */\n      dup3\n        /* \"#utility.yul\":9204:9219   */\n      swap2\n      pop\n        /* \"#utility.yul\":9237:9242   */\n      dup4\n        /* \"#utility.yul\":9228:9242   */\n      swap1\n      pop\n        /* \"#utility.yul\":9251:9963   */\n    tag_579:\n        /* \"#utility.yul\":9272:9273   */\n      0x01\n        /* \"#utility.yul\":9262:9270   */\n      dup6\n        /* \"#utility.yul\":9259:9274   */\n      gt\n        /* \"#utility.yul\":9251:9963   */\n      iszero\n      tag_581\n      jumpi\n        /* \"#utility.yul\":9367:9371   */\n      dup1\n        /* \"#utility.yul\":9362:9365   */\n      dup7\n        /* \"#utility.yul\":9358:9372   */\n      div\n        /* \"#utility.yul\":9352:9356   */\n      dup2\n        /* \"#utility.yul\":9349:9373   */\n      gt\n        /* \"#utility.yul\":9346:9396   */\n      iszero\n      tag_582\n      jumpi\n        /* \"#utility.yul\":9376:9394   */\n      tag_583\n      tag_448\n      jump\t// in\n    tag_583:\n        /* \"#utility.yul\":9346:9396   */\n    tag_582:\n        /* \"#utility.yul\":9426:9427   */\n      0x01\n        /* \"#utility.yul\":9416:9424   */\n      dup6\n        /* \"#utility.yul\":9412:9428   */\n      and\n        /* \"#utility.yul\":9409:9860   */\n      iszero\n      tag_584\n      jumpi\n        /* \"#utility.yul\":9841:9845   */\n      dup1\n        /* \"#utility.yul\":9834:9839   */\n      dup3\n        /* \"#utility.yul\":9830:9846   */\n      mul\n        /* \"#utility.yul\":9821:9846   */\n      swap2\n      pop\n        /* \"#utility.yul\":9409:9860   */\n    tag_584:\n        /* \"#utility.yul\":9891:9895   */\n      dup1\n        /* \"#utility.yul\":9885:9889   */\n      dup2\n        /* \"#utility.yul\":9881:9896   */\n      mul\n        /* \"#utility.yul\":9873:9896   */\n      swap1\n      pop\n        /* \"#utility.yul\":9921:9953   */\n      tag_585\n        /* \"#utility.yul\":9944:9952   */\n      dup6\n        /* \"#utility.yul\":9921:9953   */\n      tag_449\n      jump\t// in\n    tag_585:\n        /* \"#utility.yul\":9909:9953   */\n      swap5\n      pop\n        /* \"#utility.yul\":9251:9963   */\n      jump(tag_579)\n    tag_581:\n        /* \"#utility.yul\":9121:9969   */\n      swap5\n      pop\n      swap5\n      swap3\n      pop\n      pop\n      pop\n      jump\t// out\n        /* \"#utility.yul\":9975:11048   */\n    tag_451:\n        /* \"#utility.yul\":10029:10034   */\n      0x00\n        /* \"#utility.yul\":10220:10228   */\n      dup3\n        /* \"#utility.yul\":10210:10250   */\n      tag_587\n      jumpi\n        /* \"#utility.yul\":10241:10242   */\n      0x01\n        /* \"#utility.yul\":10232:10242   */\n      swap1\n      pop\n        /* \"#utility.yul\":10243:10248   */\n      jump(tag_586)\n        /* \"#utility.yul\":10210:10250   */\n    tag_587:\n        /* \"#utility.yul\":10269:10273   */\n      dup2\n        /* \"#utility.yul\":10259:10295   */\n      tag_588\n      jumpi\n        /* \"#utility.yul\":10286:10287   */\n      0x00\n        /* \"#utility.yul\":10277:10287   */\n      swap1\n      pop\n        /* \"#utility.yul\":10288:10293   */\n      jump(tag_586)\n        /* \"#utility.yul\":10259:10295   */\n    tag_588:\n        /* \"#utility.yul\":10355:10359   */\n      dup2\n        /* \"#utility.yul\":10403:10404   */\n      0x01\n        /* \"#utility.yul\":10398:10425   */\n      dup2\n      eq\n      tag_590\n      jumpi\n        /* \"#utility.yul\":10439:10440   */\n      0x02\n        /* \"#utility.yul\":10434:10625   */\n      dup2\n      eq\n      tag_591\n      jumpi\n        /* \"#utility.yul\":10348:10625   */\n      jump(tag_589)\n        /* \"#utility.yul\":10398:10425   */\n    tag_590:\n        /* \"#utility.yul\":10416:10417   */\n      0x01\n        /* \"#utility.yul\":10407:10417   */\n      swap2\n      pop\n        /* \"#utility.yul\":10418:10423   */\n      pop\n      jump(tag_586)\n        /* \"#utility.yul\":10434:10625   */\n    tag_591:\n        /* \"#utility.yul\":10479:10482   */\n      0xff\n        /* \"#utility.yul\":10469:10477   */\n      dup5\n        /* \"#utility.yul\":10466:10483   */\n      gt\n        /* \"#utility.yul\":10463:10506   */\n      iszero\n      tag_592\n      jumpi\n        /* \"#utility.yul\":10486:10504   */\n      tag_593\n      tag_448\n      jump\t// in\n    tag_593:\n        /* \"#utility.yul\":10463:10506   */\n    tag_592:\n        /* \"#utility.yul\":10535:10543   */\n      dup4\n        /* \"#utility.yul\":10532:10533   */\n      0x02\n        /* \"#utility.yul\":10528:10544   */\n      exp\n        /* \"#utility.yul\":10519:10544   */\n      swap2\n      pop\n        /* \"#utility.yul\":10570:10573   */\n      dup5\n        /* \"#utility.yul\":10563:10568   */\n      dup3\n        /* \"#utility.yul\":10560:10574   */\n      gt\n        /* \"#utility.yul\":10557:10597   */\n      iszero\n      tag_594\n      jumpi\n        /* \"#utility.yul\":10577:10595   */\n      tag_595\n      tag_448\n      jump\t// in\n    tag_595:\n        /* \"#utility.yul\":10557:10597   */\n    tag_594:\n        /* \"#utility.yul\":10610:10615   */\n      pop\n      jump(tag_586)\n        /* \"#utility.yul\":10348:10625   */\n    tag_589:\n      pop\n        /* \"#utility.yul\":10734:10736   */\n      0x20\n        /* \"#utility.yul\":10724:10732   */\n      dup4\n        /* \"#utility.yul\":10721:10737   */\n      lt\n        /* \"#utility.yul\":10715:10718   */\n      0x0133\n        /* \"#utility.yul\":10709:10713   */\n      dup4\n        /* \"#utility.yul\":10706:10719   */\n      lt\n        /* \"#utility.yul\":10702:10738   */\n      and\n        /* \"#utility.yul\":10684:10686   */\n      0x4e\n        /* \"#utility.yul\":10674:10682   */\n      dup5\n        /* \"#utility.yul\":10671:10687   */\n      lt\n        /* \"#utility.yul\":10666:10668   */\n      0x0b\n        /* \"#utility.yul\":10660:10664   */\n      dup5\n        /* \"#utility.yul\":10657:10669   */\n      lt\n        /* \"#utility.yul\":10653:10688   */\n      and\n        /* \"#utility.yul\":10637:10748   */\n      or\n        /* \"#utility.yul\":10634:10880   */\n      iszero\n      tag_596\n      jumpi\n        /* \"#utility.yul\":10790:10798   */\n      dup3\n        /* \"#utility.yul\":10784:10788   */\n      dup3\n        /* \"#utility.yul\":10780:10799   */\n      exp\n        /* \"#utility.yul\":10771:10799   */\n      swap1\n      pop\n        /* \"#utility.yul\":10825:10828   */\n      dup4\n        /* \"#utility.yul\":10818:10823   */\n      dup2\n        /* \"#utility.yul\":10815:10829   */\n      gt\n        /* \"#utility.yul\":10812:10852   */\n      iszero\n      tag_597\n      jumpi\n        /* \"#utility.yul\":10832:10850   */\n      tag_598\n      tag_448\n      jump\t// in\n    tag_598:\n        /* \"#utility.yul\":10812:10852   */\n    tag_597:\n        /* \"#utility.yul\":10865:10870   */\n      jump(tag_586)\n        /* \"#utility.yul\":10634:10880   */\n    tag_596:\n        /* \"#utility.yul\":10905:10947   */\n      tag_599\n        /* \"#utility.yul\":10943:10946   */\n      dup5\n        /* \"#utility.yul\":10933:10941   */\n      dup5\n        /* \"#utility.yul\":10927:10931   */\n      dup5\n        /* \"#utility.yul\":10924:10925   */\n      0x01\n        /* \"#utility.yul\":10905:10947   */\n      tag_450\n      jump\t// in\n    tag_599:\n        /* \"#utility.yul\":10890:10947   */\n      swap3\n      pop\n      swap1\n      pop\n        /* \"#utility.yul\":10979:10983   */\n      dup2\n        /* \"#utility.yul\":10974:10977   */\n      dup5\n        /* \"#utility.yul\":10970:10984   */\n      div\n        /* \"#utility.yul\":10963:10968   */\n      dup2\n        /* \"#utility.yul\":10960:10985   */\n      gt\n        /* \"#utility.yul\":10957:11008   */\n      iszero\n      tag_600\n      jumpi\n        /* \"#utility.yul\":10988:11006   */\n      tag_601\n      tag_448\n      jump\t// in\n    tag_601:\n        /* \"#utility.yul\":10957:11008   */\n    tag_600:\n        /* \"#utility.yul\":11037:11041   */\n      dup2\n        /* \"#utility.yul\":11030:11035   */\n      dup2\n        /* \"#utility.yul\":11026:11042   */\n      mul\n        /* \"#utility.yul\":11017:11042   */\n      swap1\n      pop\n        /* \"#utility.yul\":9975:11048   */\n    tag_586:\n      swap4\n      swap3\n      pop\n      pop\n      pop\n      jump\t// out\n        /* \"#utility.yul\":11054:11335   */\n    tag_231:\n        /* \"#utility.yul\":11112:11117   */\n      0x00\n        /* \"#utility.yul\":11136:11159   */\n      tag_603\n        /* \"#utility.yul\":11154:11158   */\n      dup3\n        /* \"#utility.yul\":11136:11159   */\n      tag_429\n      jump\t// in\n    tag_603:\n        /* \"#utility.yul\":11128:11159   */\n      swap2\n      pop\n        /* \"#utility.yul\":11180:11205   */\n      tag_604\n        /* \"#utility.yul\":11196:11204   */\n      dup4\n        /* \"#utility.yul\":11180:11205   */\n      tag_440\n      jump\t// in\n    tag_604:\n        /* \"#utility.yul\":11168:11205   */\n      swap3\n      pop\n        /* \"#utility.yul\":11224:11328   */\n      tag_605\n        /* \"#utility.yul\":11261:11327   */\n      0xffffffffffffffffffffffffffffffffffffffffffffffffffffffffffffffff\n        /* \"#utility.yul\":11251:11259   */\n      dup5\n        /* \"#utility.yul\":11245:11249   */\n      dup5\n        /* \"#utility.yul\":11224:11328   */\n      tag_451\n      jump\t// in\n    tag_605:\n        /* \"#utility.yul\":11215:11328   */\n      swap1\n      pop\n        /* \"#utility.yul\":11054:11335   */\n      swap3\n      swap2\n      pop\n      pop\n      jump\t// out\n        /* \"#utility.yul\":11341:11751   */\n    tag_233:\n        /* \"#utility.yul\":11381:11388   */\n      0x00\n        /* \"#utility.yul\":11404:11424   */\n      tag_607\n        /* \"#utility.yul\":11422:11423   */\n      dup3\n        /* \"#utility.yul\":11404:11424   */\n      tag_429\n      jump\t// in\n    tag_607:\n        /* \"#utility.yul\":11399:11424   */\n      swap2\n      pop\n        /* \"#utility.yul\":11438:11458   */\n      tag_608\n        /* \"#utility.yul\":11456:11457   */\n      dup4\n        /* \"#utility.yul\":11438:11458   */\n      tag_429\n      jump\t// in\n    tag_608:\n        /* \"#utility.yul\":11433:11458   */\n      swap3\n      pop\n        /* \"#utility.yul\":11493:11494   */\n      dup3\n        /* \"#utility.yul\":11490:11491   */\n      dup3\n        /* \"#utility.yul\":11486:11495   */\n      mul\n        /* \"#utility.yul\":11515:11545   */\n      tag_609\n        /* \"#utility.yul\":11533:11544   */\n      dup2\n        /* \"#utility.yul\":11515:11545   */\n      tag_429\n      jump\t// in\n    tag_609:\n        /* \"#utility.yul\":11504:11545   */\n      swap2\n      pop\n        /* \"#utility.yul\":11694:11695   */\n      dup3\n        /* \"#utility.yul\":11685:11692   */\n      dup3\n        /* \"#utility.yul\":11681:11696   */\n      div\n        /* \"#utility.yul\":11678:11679   */\n      dup5\n        /* \"#utility.yul\":11675:11697   */\n      eq\n        /* \"#utility.yul\":11655:11656   */\n      dup4\n        /* \"#utility.yul\":11648:11657   */\n      iszero\n        /* \"#utility.yul\":11628:11711   */\n      or\n        /* \"#utility.yul\":11605:11744   */\n      tag_610\n      jumpi\n        /* \"#utility.yul\":11724:11742   */\n      tag_611\n      tag_448\n      jump\t// in\n    tag_611:\n        /* \"#utility.yul\":11605:11744   */\n    tag_610:\n        /* \"#utility.yul\":11389:11751   */\n      pop\n        /* \"#utility.yul\":11341:11751   */\n      swap3\n      swap2\n      pop\n      pop\n      jump\t// out\n        /* \"#utility.yul\":11757:11984   */\n    tag_452:\n        /* \"#utility.yul\":11897:11931   */\n      0x45524332303a207472616e7366657220616d6f756e7420657863656564732061\n        /* \"#utility.yul\":11893:11894   */\n      0x00\n        /* \"#utility.yul\":11885:11891   */\n      dup3\n        /* \"#utility.yul\":11881:11895   */\n      add\n        /* \"#utility.yul\":11874:11932   */\n      mstore\n        /* \"#utility.yul\":11966:11976   */\n      0x6c6c6f77616e6365000000000000000000000000000000000000000000000000\n        /* \"#utility.yul\":11961:11963   */\n      0x20\n        /* \"#utility.yul\":11953:11959   */\n      dup3\n        /* \"#utility.yul\":11949:11964   */\n      add\n        /* \"#utility.yul\":11942:11977   */\n      mstore\n        /* \"#utility.yul\":11757:11984   */\n      pop\n      jump\t// out\n        /* \"#utility.yul\":11990:12356   */\n    tag_453:\n        /* \"#utility.yul\":12132:12135   */\n      0x00\n        /* \"#utility.yul\":12153:12220   */\n      tag_614\n        /* \"#utility.yul\":12217:12219   */\n      0x28\n        /* \"#utility.yul\":12212:12215   */\n      dup4\n        /* \"#utility.yul\":12153:12220   */\n      tag_432\n      jump\t// in\n    tag_614:\n        /* \"#utility.yul\":12146:12220   */\n      swap2\n      pop\n        /* \"#utility.yul\":12229:12322   */\n      tag_615\n        /* \"#utility.yul\":12318:12321   */\n      dup3\n        /* \"#utility.yul\":12229:12322   */\n      tag_452\n      jump\t// in\n    tag_615:\n        /* \"#utility.yul\":12347:12349   */\n      0x40\n        /* \"#utility.yul\":12342:12345   */\n      dup3\n        /* \"#utility.yul\":12338:12350   */\n      add\n        /* \"#utility.yul\":12331:12350   */\n      swap1\n      pop\n        /* \"#utility.yul\":11990:12356   */\n      swap2\n      swap1\n      pop\n      jump\t// out\n        /* \"#utility.yul\":12362:12781   */\n    tag_241:\n        /* \"#utility.yul\":12528:12532   */\n      0x00\n        /* \"#utility.yul\":12566:12568   */\n      0x20\n        /* \"#utility.yul\":12555:12564   */\n      dup3\n        /* \"#utility.yul\":12551:12569   */\n      add\n        /* \"#utility.yul\":12543:12569   */\n      swap1\n      pop\n        /* \"#utility.yul\":12615:12624   */\n      dup2\n        /* \"#utility.yul\":12609:12613   */\n      dup2\n        /* \"#utility.yul\":12605:12625   */\n      sub\n        /* \"#utility.yul\":12601:12602   */\n      0x00\n        /* \"#utility.yul\":12590:12599   */\n      dup4\n        /* \"#utility.yul\":12586:12603   */\n      add\n        /* \"#utility.yul\":12579:12626   */\n      mstore\n        /* \"#utility.yul\":12643:12774   */\n      tag_617\n        /* \"#utility.yul\":12769:12773   */\n      dup2\n        /* \"#utility.yul\":12643:12774   */\n      tag_453\n      jump\t// in\n    tag_617:\n        /* \"#utility.yul\":12635:12774   */\n      swap1\n      pop\n        /* \"#utility.yul\":12362:12781   */\n      swap2\n      swap1\n      pop\n      jump\t// out\n        /* \"#utility.yul\":12787:12978   */\n    tag_257:\n        /* \"#utility.yul\":12827:12830   */\n      0x00\n        /* \"#utility.yul\":12846:12866   */\n      tag_619\n        /* \"#utility.yul\":12864:12865   */\n      dup3\n        /* \"#utility.yul\":12846:12866   */\n      tag_429\n      jump\t// in\n    tag_619:\n        /* \"#utility.yul\":12841:12866   */\n      swap2\n      pop\n        /* \"#utility.yul\":12880:12900   */\n      tag_620\n        /* \"#utility.yul\":12898:12899   */\n      dup4\n        /* \"#utility.yul\":12880:12900   */\n      tag_429\n      jump\t// in\n    tag_620:\n        /* \"#utility.yul\":12875:12900   */\n      swap3\n      pop\n        /* \"#utility.yul\":12923:12924   */\n      dup3\n        /* \"#utility.yul\":12920:12921   */\n      dup3\n        /* \"#utility.yul\":12916:12925   */\n      add\n        /* \"#utility.yul\":12909:12925   */\n      swap1\n      pop\n        /* \"#utility.yul\":12944:12947   */\n      dup1\n        /* \"#utility.yul\":12941:12942   */\n      dup3\n        /* \"#utility.yul\":12938:12948   */\n      gt\n        /* \"#utility.yul\":12935:12971   */\n      iszero\n      tag_621\n      jumpi\n        /* \"#utility.yul\":12951:12969   */\n      tag_622\n      tag_448\n      jump\t// in\n    tag_622:\n        /* \"#utility.yul\":12935:12971   */\n    tag_621:\n        /* \"#utility.yul\":12787:12978   */\n      swap3\n      swap2\n      pop\n      pop\n      jump\t// out\n        /* \"#utility.yul\":12984:13149   */\n    tag_454:\n        /* \"#utility.yul\":13124:13141   */\n      0x496e76616c696420616d6f756e74210000000000000000000000000000000000\n        /* \"#utility.yul\":13120:13121   */\n      0x00\n        /* \"#utility.yul\":13112:13118   */\n      dup3\n        /* \"#utility.yul\":13108:13122   */\n      add\n        /* \"#utility.yul\":13101:13142   */\n      mstore\n        /* \"#utility.yul\":12984:13149   */\n      pop\n      jump\t// out\n        /* \"#utility.yul\":13155:13521   */\n    tag_455:\n        /* \"#utility.yul\":13297:13300   */\n      0x00\n        /* \"#utility.yul\":13318:13385   */\n      tag_625\n        /* \"#utility.yul\":13382:13384   */\n      0x0f\n        /* \"#utility.yul\":13377:13380   */\n      dup4\n        /* \"#utility.yul\":13318:13385   */\n      tag_432\n      jump\t// in\n    tag_625:\n        /* \"#utility.yul\":13311:13385   */\n      swap2\n      pop\n        /* \"#utility.yul\":13394:13487   */\n      tag_626\n        /* \"#utility.yul\":13483:13486   */\n      dup3\n        /* \"#utility.yul\":13394:13487   */\n      tag_454\n      jump\t// in\n    tag_626:\n        /* \"#utility.yul\":13512:13514   */\n      0x20\n        /* \"#utility.yul\":13507:13510   */\n      dup3\n        /* \"#utility.yul\":13503:13515   */\n      add\n        /* \"#utility.yul\":13496:13515   */\n      swap1\n      pop\n        /* \"#utility.yul\":13155:13521   */\n      swap2\n      swap1\n      pop\n      jump\t// out\n        /* \"#utility.yul\":13527:13946   */\n    tag_265:\n        /* \"#utility.yul\":13693:13697   */\n      0x00\n        /* \"#utility.yul\":13731:13733   */\n      0x20\n        /* \"#utility.yul\":13720:13729   */\n      dup3\n        /* \"#utility.yul\":13716:13734   */\n      add\n        /* \"#utility.yul\":13708:13734   */\n      swap1\n      pop\n        /* \"#utility.yul\":13780:13789   */\n      dup2\n        /* \"#utility.yul\":13774:13778   */\n      dup2\n        /* \"#utility.yul\":13770:13790   */\n      sub\n        /* \"#utility.yul\":13766:13767   */\n      0x00\n        /* \"#utility.yul\":13755:13764   */\n      dup4\n        /* \"#utility.yul\":13751:13768   */\n      add\n        /* \"#utility.yul\":13744:13791   */\n      mstore\n        /* \"#utility.yul\":13808:13939   */\n      tag_628\n        /* \"#utility.yul\":13934:13938   */\n      dup2\n        /* \"#utility.yul\":13808:13939   */\n      tag_455\n      jump\t// in\n    tag_628:\n        /* \"#utility.yul\":13800:13939   */\n      swap1\n      pop\n        /* \"#utility.yul\":13527:13946   */\n      swap2\n      swap1\n      pop\n      jump\t// out\n        /* \"#utility.yul\":13952:14126   */\n    tag_456:\n        /* \"#utility.yul\":14092:14118   */\n      0x54726164696e6720616c726561647920656e61626c65642e0000000000000000\n        /* \"#utility.yul\":14088:14089   */\n      0x00\n        /* \"#utility.yul\":14080:14086   */\n      dup3\n        /* \"#utility.yul\":14076:14090   */\n      add\n        /* \"#utility.yul\":14069:14119   */\n      mstore\n        /* \"#utility.yul\":13952:14126   */\n      pop\n      jump\t// out\n        /* \"#utility.yul\":14132:14498   */\n    tag_457:\n        /* \"#utility.yul\":14274:14277   */\n      0x00\n        /* \"#utility.yul\":14295:14362   */\n      tag_631\n        /* \"#utility.yul\":14359:14361   */\n      0x18\n        /* \"#utility.yul\":14354:14357   */\n      dup4\n        /* \"#utility.yul\":14295:14362   */\n      tag_432\n      jump\t// in\n    tag_631:\n        /* \"#utility.yul\":14288:14362   */\n      swap2\n      pop\n        /* \"#utility.yul\":14371:14464   */\n      tag_632\n        /* \"#utility.yul\":14460:14463   */\n      dup3\n        /* \"#utility.yul\":14371:14464   */\n      tag_456\n      jump\t// in\n    tag_632:\n        /* \"#utility.yul\":14489:14491   */\n      0x20\n        /* \"#utility.yul\":14484:14487   */\n      dup3\n        /* \"#utility.yul\":14480:14492   */\n      add\n        /* \"#utility.yul\":14473:14492   */\n      swap1\n      pop\n        /* \"#utility.yul\":14132:14498   */\n      swap2\n      swap1\n      pop\n      jump\t// out\n        /* \"#utility.yul\":14504:14923   */\n    tag_285:\n        /* \"#utility.yul\":14670:14674   */\n      0x00\n        /* \"#utility.yul\":14708:14710   */\n      0x20\n        /* \"#utility.yul\":14697:14706   */\n      dup3\n        /* \"#utility.yul\":14693:14711   */\n      add\n        /* \"#utility.yul\":14685:14711   */\n      swap1\n      pop\n        /* \"#utility.yul\":14757:14766   */\n      dup2\n        /* \"#utility.yul\":14751:14755   */\n      dup2\n        /* \"#utility.yul\":14747:14767   */\n      sub\n        /* \"#utility.yul\":14743:14744   */\n      0x00\n        /* \"#utility.yul\":14732:14741   */\n      dup4\n        /* \"#utility.yul\":14728:14745   */\n      add\n        /* \"#utility.yul\":14721:14768   */\n      mstore\n        /* \"#utility.yul\":14785:14916   */\n      tag_634\n        /* \"#utility.yul\":14911:14915   */\n      dup2\n        /* \"#utility.yul\":14785:14916   */\n      tag_457\n      jump\t// in\n    tag_634:\n        /* \"#utility.yul\":14777:14916   */\n      swap1\n      pop\n        /* \"#utility.yul\":14504:14923   */\n      swap2\n      swap1\n      pop\n      jump\t// out\n        /* \"#utility.yul\":14929:15100   */\n    tag_458:\n        /* \"#utility.yul\":15069:15092   */\n      0x546178206e6f74206d6f7265207468616e203230210000000000000000000000\n        /* \"#utility.yul\":15065:15066   */\n      0x00\n        /* \"#utility.yul\":15057:15063   */\n      dup3\n        /* \"#utility.yul\":15053:15067   */\n      add\n        /* \"#utility.yul\":15046:15093   */\n      mstore\n        /* \"#utility.yul\":14929:15100   */\n      pop\n      jump\t// out\n        /* \"#utility.yul\":15106:15472   */\n    tag_459:\n        /* \"#utility.yul\":15248:15251   */\n      0x00\n        /* \"#utility.yul\":15269:15336   */\n      tag_637\n        /* \"#utility.yul\":15333:15335   */\n      0x15\n        /* \"#utility.yul\":15328:15331   */\n      dup4\n        /* \"#utility.yul\":15269:15336   */\n      tag_432\n      jump\t// in\n    tag_637:\n        /* \"#utility.yul\":15262:15336   */\n      swap2\n      pop\n        /* \"#utility.yul\":15345:15438   */\n      tag_638\n        /* \"#utility.yul\":15434:15437   */\n      dup3\n        /* \"#utility.yul\":15345:15438   */\n      tag_458\n      jump\t// in\n    tag_638:\n        /* \"#utility.yul\":15463:15465   */\n      0x20\n        /* \"#utility.yul\":15458:15461   */\n      dup3\n        /* \"#utility.yul\":15454:15466   */\n      add\n        /* \"#utility.yul\":15447:15466   */\n      swap1\n      pop\n        /* \"#utility.yul\":15106:15472   */\n      swap2\n      swap1\n      pop\n      jump\t// out\n        /* \"#utility.yul\":15478:15897   */\n    tag_300:\n        /* \"#utility.yul\":15644:15648   */\n      0x00\n        /* \"#utility.yul\":15682:15684   */\n      0x20\n        /* \"#utility.yul\":15671:15680   */\n      dup3\n        /* \"#utility.yul\":15667:15685   */\n      add\n        /* \"#utility.yul\":15659:15685   */\n      swap1\n      pop\n        /* \"#utility.yul\":15731:15740   */\n      dup2\n        /* \"#utility.yul\":15725:15729   */\n      dup2\n        /* \"#utility.yul\":15721:15741   */\n      sub\n        /* \"#utility.yul\":15717:15718   */\n      0x00\n        /* \"#utility.yul\":15706:15715   */\n      dup4\n        /* \"#utility.yul\":15702:15719   */\n      add\n        /* \"#utility.yul\":15695:15742   */\n      mstore\n        /* \"#utility.yul\":15759:15890   */\n      tag_640\n        /* \"#utility.yul\":15885:15889   */\n      dup2\n        /* \"#utility.yul\":15759:15890   */\n      tag_459\n      jump\t// in\n    tag_640:\n        /* \"#utility.yul\":15751:15890   */\n      swap1\n      pop\n        /* \"#utility.yul\":15478:15897   */\n      swap2\n      swap1\n      pop\n      jump\t// out\n        /* \"#utility.yul\":15903:16127   */\n    tag_460:\n        /* \"#utility.yul\":16043:16077   */\n      0x45524332303a2064656372656173656420616c6c6f77616e63652062656c6f77\n        /* \"#utility.yul\":16039:16040   */\n      0x00\n        /* \"#utility.yul\":16031:16037   */\n      dup3\n        /* \"#utility.yul\":16027:16041   */\n      add\n        /* \"#utility.yul\":16020:16078   */\n      mstore\n        /* \"#utility.yul\":16112:16119   */\n      0x207a65726f000000000000000000000000000000000000000000000000000000\n        /* \"#utility.yul\":16107:16109   */\n      0x20\n        /* \"#utility.yul\":16099:16105   */\n      dup3\n        /* \"#utility.yul\":16095:16110   */\n      add\n        /* \"#utility.yul\":16088:16120   */\n      mstore\n        /* \"#utility.yul\":15903:16127   */\n      pop\n      jump\t// out\n        /* \"#utility.yul\":16133:16499   */\n    tag_461:\n        /* \"#utility.yul\":16275:16278   */\n      0x00\n        /* \"#utility.yul\":16296:16363   */\n      tag_643\n        /* \"#utility.yul\":16360:16362   */\n      0x25\n        /* \"#utility.yul\":16355:16358   */\n      dup4\n        /* \"#utility.yul\":16296:16363   */\n      tag_432\n      jump\t// in\n    tag_643:\n        /* \"#utility.yul\":16289:16363   */\n      swap2\n      pop\n        /* \"#utility.yul\":16372:16465   */\n      tag_644\n        /* \"#utility.yul\":16461:16464   */\n      dup3\n        /* \"#utility.yul\":16372:16465   */\n      tag_460\n      jump\t// in\n    tag_644:\n        /* \"#utility.yul\":16490:16492   */\n      0x40\n        /* \"#utility.yul\":16485:16488   */\n      dup3\n        /* \"#utility.yul\":16481:16493   */\n      add\n        /* \"#utility.yul\":16474:16493   */\n      swap1\n      pop\n        /* \"#utility.yul\":16133:16499   */\n      swap2\n      swap1\n      pop\n      jump\t// out\n        /* \"#utility.yul\":16505:16924   */\n    tag_305:\n        /* \"#utility.yul\":16671:16675   */\n      0x00\n        /* \"#utility.yul\":16709:16711   */\n      0x20\n        /* \"#utility.yul\":16698:16707   */\n      dup3\n        /* \"#utility.yul\":16694:16712   */\n      add\n        /* \"#utility.yul\":16686:16712   */\n      swap1\n      pop\n        /* \"#utility.yul\":16758:16767   */\n      dup2\n        /* \"#utility.yul\":16752:16756   */\n      dup2\n        /* \"#utility.yul\":16748:16768   */\n      sub\n        /* \"#utility.yul\":16744:16745   */\n      0x00\n        /* \"#utility.yul\":16733:16742   */\n      dup4\n        /* \"#utility.yul\":16729:16746   */\n      add\n        /* \"#utility.yul\":16722:16769   */\n      mstore\n        /* \"#utility.yul\":16786:16917   */\n      tag_646\n        /* \"#utility.yul\":16912:16916   */\n      dup2\n        /* \"#utility.yul\":16786:16917   */\n      tag_461\n      jump\t// in\n    tag_646:\n        /* \"#utility.yul\":16778:16917   */\n      swap1\n      pop\n        /* \"#utility.yul\":16505:16924   */\n      swap2\n      swap1\n      pop\n      jump\t// out\n        /* \"#utility.yul\":16930:17104   */\n    tag_462:\n        /* \"#utility.yul\":17070:17096   */\n      0x4163636f756e7420616c7265616479206578636c756465640000000000000000\n        /* \"#utility.yul\":17066:17067   */\n      0x00\n        /* \"#utility.yul\":17058:17064   */\n      dup3\n        /* \"#utility.yul\":17054:17068   */\n      add\n        /* \"#utility.yul\":17047:17097   */\n      mstore\n        /* \"#utility.yul\":16930:17104   */\n      pop\n      jump\t// out\n        /* \"#utility.yul\":17110:17476   */\n    tag_463:\n        /* \"#utility.yul\":17252:17255   */\n      0x00\n        /* \"#utility.yul\":17273:17340   */\n      tag_649\n        /* \"#utility.yul\":17337:17339   */\n      0x18\n        /* \"#utility.yul\":17332:17335   */\n      dup4\n        /* \"#utility.yul\":17273:17340   */\n      tag_432\n      jump\t// in\n    tag_649:\n        /* \"#utility.yul\":17266:17340   */\n      swap2\n      pop\n        /* \"#utility.yul\":17349:17442   */\n      tag_650\n        /* \"#utility.yul\":17438:17441   */\n      dup3\n        /* \"#utility.yul\":17349:17442   */\n      tag_462\n      jump\t// in\n    tag_650:\n        /* \"#utility.yul\":17467:17469   */\n      0x20\n        /* \"#utility.yul\":17462:17465   */\n      dup3\n        /* \"#utility.yul\":17458:17470   */\n      add\n        /* \"#utility.yul\":17451:17470   */\n      swap1\n      pop\n        /* \"#utility.yul\":17110:17476   */\n      swap2\n      swap1\n      pop\n      jump\t// out\n        /* \"#utility.yul\":17482:17901   */\n    tag_331:\n        /* \"#utility.yul\":17648:17652   */\n      0x00\n        /* \"#utility.yul\":17686:17688   */\n      0x20\n        /* \"#utility.yul\":17675:17684   */\n      dup3\n        /* \"#utility.yul\":17671:17689   */\n      add\n        /* \"#utility.yul\":17663:17689   */\n      swap1\n      pop\n        /* \"#utility.yul\":17735:17744   */\n      dup2\n        /* \"#utility.yul\":17729:17733   */\n      dup2\n        /* \"#utility.yul\":17725:17745   */\n      sub\n        /* \"#utility.yul\":17721:17722   */\n      0x00\n        /* \"#utility.yul\":17710:17719   */\n      dup4\n        /* \"#utility.yul\":17706:17723   */\n      add\n        /* \"#utility.yul\":17699:17746   */\n      mstore\n        /* \"#utility.yul\":17763:17894   */\n      tag_652\n        /* \"#utility.yul\":17889:17893   */\n      dup2\n        /* \"#utility.yul\":17763:17894   */\n      tag_463\n      jump\t// in\n    tag_652:\n        /* \"#utility.yul\":17755:17894   */\n      swap1\n      pop\n        /* \"#utility.yul\":17482:17901   */\n      swap2\n      swap1\n      pop\n      jump\t// out\n        /* \"#utility.yul\":17907:18132   */\n    tag_464:\n        /* \"#utility.yul\":18047:18081   */\n      0x4f776e61626c653a206e6577206f776e657220697320746865207a65726f2061\n        /* \"#utility.yul\":18043:18044   */\n      0x00\n        /* \"#utility.yul\":18035:18041   */\n      dup3\n        /* \"#utility.yul\":18031:18045   */\n      add\n        /* \"#utility.yul\":18024:18082   */\n      mstore\n        /* \"#utility.yul\":18116:18124   */\n      0x6464726573730000000000000000000000000000000000000000000000000000\n        /* \"#utility.yul\":18111:18113   */\n      0x20\n        /* \"#utility.yul\":18103:18109   */\n      dup3\n        /* \"#utility.yul\":18099:18114   */\n      add\n        /* \"#utility.yul\":18092:18125   */\n      mstore\n        /* \"#utility.yul\":17907:18132   */\n      pop\n      jump\t// out\n        /* \"#utility.yul\":18138:18504   */\n    tag_465:\n        /* \"#utility.yul\":18280:18283   */\n      0x00\n        /* \"#utility.yul\":18301:18368   */\n      tag_655\n        /* \"#utility.yul\":18365:18367   */\n      0x26\n        /* \"#utility.yul\":18360:18363   */\n      dup4\n        /* \"#utility.yul\":18301:18368   */\n      tag_432\n      jump\t// in\n    tag_655:\n        /* \"#utility.yul\":18294:18368   */\n      swap2\n      pop\n        /* \"#utility.yul\":18377:18470   */\n      tag_656\n        /* \"#utility.yul\":18466:18469   */\n      dup3\n        /* \"#utility.yul\":18377:18470   */\n      tag_464\n      jump\t// in\n    tag_656:\n        /* \"#utility.yul\":18495:18497   */\n      0x40\n        /* \"#utility.yul\":18490:18493   */\n      dup3\n        /* \"#utility.yul\":18486:18498   */\n      add\n        /* \"#utility.yul\":18479:18498   */\n      swap1\n      pop\n        /* \"#utility.yul\":18138:18504   */\n      swap2\n      swap1\n      pop\n      jump\t// out\n        /* \"#utility.yul\":18510:18929   */\n    tag_340:\n        /* \"#utility.yul\":18676:18680   */\n      0x00\n        /* \"#utility.yul\":18714:18716   */\n      0x20\n        /* \"#utility.yul\":18703:18712   */\n      dup3\n        /* \"#utility.yul\":18699:18717   */\n      add\n        /* \"#utility.yul\":18691:18717   */\n      swap1\n      pop\n        /* \"#utility.yul\":18763:18772   */\n      dup2\n        /* \"#utility.yul\":18757:18761   */\n      dup2\n        /* \"#utility.yul\":18753:18773   */\n      sub\n        /* \"#utility.yul\":18749:18750   */\n      0x00\n        /* \"#utility.yul\":18738:18747   */\n      dup4\n        /* \"#utility.yul\":18734:18751   */\n      add\n        /* \"#utility.yul\":18727:18774   */\n      mstore\n        /* \"#utility.yul\":18791:18922   */\n      tag_658\n        /* \"#utility.yul\":18917:18921   */\n      dup2\n        /* \"#utility.yul\":18791:18922   */\n      tag_465\n      jump\t// in\n    tag_658:\n        /* \"#utility.yul\":18783:18922   */\n      swap1\n      pop\n        /* \"#utility.yul\":18510:18929   */\n      swap2\n      swap1\n      pop\n      jump\t// out\n        /* \"#utility.yul\":18935:19158   */\n    tag_466:\n        /* \"#utility.yul\":19075:19109   */\n      0x45524332303a20617070726f76652066726f6d20746865207a65726f20616464\n        /* \"#utility.yul\":19071:19072   */\n      0x00\n        /* \"#utility.yul\":19063:19069   */\n      dup3\n        /* \"#utility.yul\":19059:19073   */\n      add\n        /* \"#utility.yul\":19052:19110   */\n      mstore\n        /* \"#utility.yul\":19144:19150   */\n      0x7265737300000000000000000000000000000000000000000000000000000000\n        /* \"#utility.yul\":19139:19141   */\n      0x20\n        /* \"#utility.yul\":19131:19137   */\n      dup3\n        /* \"#utility.yul\":19127:19142   */\n      add\n        /* \"#utility.yul\":19120:19151   */\n      mstore\n        /* \"#utility.yul\":18935:19158   */\n      pop\n      jump\t// out\n        /* \"#utility.yul\":19164:19530   */\n    tag_467:\n        /* \"#utility.yul\":19306:19309   */\n      0x00\n        /* \"#utility.yul\":19327:19394   */\n      tag_661\n        /* \"#utility.yul\":19391:19393   */\n      0x24\n        /* \"#utility.yul\":19386:19389   */\n      dup4\n        /* \"#utility.yul\":19327:19394   */\n      tag_432\n      jump\t// in\n    tag_661:\n        /* \"#utility.yul\":19320:19394   */\n      swap2\n      pop\n        /* \"#utility.yul\":19403:19496   */\n      tag_662\n        /* \"#utility.yul\":19492:19495   */\n      dup3\n        /* \"#utility.yul\":19403:19496   */\n      tag_466\n      jump\t// in\n    tag_662:\n        /* \"#utility.yul\":19521:19523   */\n      0x40\n        /* \"#utility.yul\":19516:19519   */\n      dup3\n        /* \"#utility.yul\":19512:19524   */\n      add\n        /* \"#utility.yul\":19505:19524   */\n      swap1\n      pop\n        /* \"#utility.yul\":19164:19530   */\n      swap2\n      swap1\n      pop\n      jump\t// out\n        /* \"#utility.yul\":19536:19955   */\n    tag_345:\n        /* \"#utility.yul\":19702:19706   */\n      0x00\n        /* \"#utility.yul\":19740:19742   */\n      0x20\n        /* \"#utility.yul\":19729:19738   */\n      dup3\n        /* \"#utility.yul\":19725:19743   */\n      add\n        /* \"#utility.yul\":19717:19743   */\n      swap1\n      pop\n        /* \"#utility.yul\":19789:19798   */\n      dup2\n        /* \"#utility.yul\":19783:19787   */\n      dup2\n        /* \"#utility.yul\":19779:19799   */\n      sub\n        /* \"#utility.yul\":19775:19776   */\n      0x00\n        /* \"#utility.yul\":19764:19773   */\n      dup4\n        /* \"#utility.yul\":19760:19777   */\n      add\n        /* \"#utility.yul\":19753:19800   */\n      mstore\n        /* \"#utility.yul\":19817:19948   */\n      tag_664\n        /* \"#utility.yul\":19943:19947   */\n      dup2\n        /* \"#utility.yul\":19817:19948   */\n      tag_467\n      jump\t// in\n    tag_664:\n        /* \"#utility.yul\":19809:19948   */\n      swap1\n      pop\n        /* \"#utility.yul\":19536:19955   */\n      swap2\n      swap1\n      pop\n      jump\t// out\n        /* \"#utility.yul\":19961:20182   */\n    tag_468:\n        /* \"#utility.yul\":20101:20135   */\n      0x45524332303a20617070726f766520746f20746865207a65726f206164647265\n        /* \"#utility.yul\":20097:20098   */\n      0x00\n        /* \"#utility.yul\":20089:20095   */\n      dup3\n        /* \"#utility.yul\":20085:20099   */\n      add\n        /* \"#utility.yul\":20078:20136   */\n      mstore\n        /* \"#utility.yul\":20170:20174   */\n      0x7373000000000000000000000000000000000000000000000000000000000000\n        /* \"#utility.yul\":20165:20167   */\n      0x20\n        /* \"#utility.yul\":20157:20163   */\n      dup3\n        /* \"#utility.yul\":20153:20168   */\n      add\n        /* \"#utility.yul\":20146:20175   */\n      mstore\n        /* \"#utility.yul\":19961:20182   */\n      pop\n      jump\t// out\n        /* \"#utility.yul\":20188:20554   */\n    tag_469:\n        /* \"#utility.yul\":20330:20333   */\n      0x00\n        /* \"#utility.yul\":20351:20418   */\n      tag_667\n        /* \"#utility.yul\":20415:20417   */\n      0x22\n        /* \"#utility.yul\":20410:20413   */\n      dup4\n        /* \"#utility.yul\":20351:20418   */\n      tag_432\n      jump\t// in\n    tag_667:\n        /* \"#utility.yul\":20344:20418   */\n      swap2\n      pop\n        /* \"#utility.yul\":20427:20520   */\n      tag_668\n        /* \"#utility.yul\":20516:20519   */\n      dup3\n        /* \"#utility.yul\":20427:20520   */\n      tag_468\n      jump\t// in\n    tag_668:\n        /* \"#utility.yul\":20545:20547   */\n      0x40\n        /* \"#utility.yul\":20540:20543   */\n      dup3\n        /* \"#utility.yul\":20536:20548   */\n      add\n        /* \"#utility.yul\":20529:20548   */\n      swap1\n      pop\n        /* \"#utility.yul\":20188:20554   */\n      swap2\n      swap1\n      pop\n      jump\t// out\n        /* \"#utility.yul\":20560:20979   */\n    tag_348:\n        /* \"#utility.yul\":20726:20730   */\n      0x00\n        /* \"#utility.yul\":20764:20766   */\n      0x20\n        /* \"#utility.yul\":20753:20762   */\n      dup3\n        /* \"#utility.yul\":20749:20767   */\n      add\n        /* \"#utility.yul\":20741:20767   */\n      swap1\n      pop\n        /* \"#utility.yul\":20813:20822   */\n      dup2\n        /* \"#utility.yul\":20807:20811   */\n      dup2\n        /* \"#utility.yul\":20803:20823   */\n      sub\n        /* \"#utility.yul\":20799:20800   */\n      0x00\n        /* \"#utility.yul\":20788:20797   */\n      dup4\n        /* \"#utility.yul\":20784:20801   */\n      add\n        /* \"#utility.yul\":20777:20824   */\n      mstore\n        /* \"#utility.yul\":20841:20972   */\n      tag_670\n        /* \"#utility.yul\":20967:20971   */\n      dup2\n        /* \"#utility.yul\":20841:20972   */\n      tag_469\n      jump\t// in\n    tag_670:\n        /* \"#utility.yul\":20833:20972   */\n      swap1\n      pop\n        /* \"#utility.yul\":20560:20979   */\n      swap2\n      swap1\n      pop\n      jump\t// out\n        /* \"#utility.yul\":20985:21166   */\n    tag_470:\n        /* \"#utility.yul\":21125:21158   */\n      0x45524332303a206d696e7420746f20746865207a65726f206164647265737300\n        /* \"#utility.yul\":21121:21122   */\n      0x00\n        /* \"#utility.yul\":21113:21119   */\n      dup3\n        /* \"#utility.yul\":21109:21123   */\n      add\n        /* \"#utility.yul\":21102:21159   */\n      mstore\n        /* \"#utility.yul\":20985:21166   */\n      pop\n      jump\t// out\n        /* \"#utility.yul\":21172:21538   */\n    tag_471:\n        /* \"#utility.yul\":21314:21317   */\n      0x00\n        /* \"#utility.yul\":21335:21402   */\n      tag_673\n        /* \"#utility.yul\":21399:21401   */\n      0x1f\n        /* \"#utility.yul\":21394:21397   */\n      dup4\n        /* \"#utility.yul\":21335:21402   */\n      tag_432\n      jump\t// in\n    tag_673:\n        /* \"#utility.yul\":21328:21402   */\n      swap2\n      pop\n        /* \"#utility.yul\":21411:21504   */\n      tag_674\n        /* \"#utility.yul\":21500:21503   */\n      dup3\n        /* \"#utility.yul\":21411:21504   */\n      tag_470\n      jump\t// in\n    tag_674:\n        /* \"#utility.yul\":21529:21531   */\n      0x20\n        /* \"#utility.yul\":21524:21527   */\n      dup3\n        /* \"#utility.yul\":21520:21532   */\n      add\n        /* \"#utility.yul\":21513:21532   */\n      swap1\n      pop\n        /* \"#utility.yul\":21172:21538   */\n      swap2\n      swap1\n      pop\n      jump\t// out\n        /* \"#utility.yul\":21544:21963   */\n    tag_353:\n        /* \"#utility.yul\":21710:21714   */\n      0x00\n        /* \"#utility.yul\":21748:21750   */\n      0x20\n        /* \"#utility.yul\":21737:21746   */\n      dup3\n        /* \"#utility.yul\":21733:21751   */\n      add\n        /* \"#utility.yul\":21725:21751   */\n      swap1\n      pop\n        /* \"#utility.yul\":21797:21806   */\n      dup2\n        /* \"#utility.yul\":21791:21795   */\n      dup2\n        /* \"#utility.yul\":21787:21807   */\n      sub\n        /* \"#utility.yul\":21783:21784   */\n      0x00\n        /* \"#utility.yul\":21772:21781   */\n      dup4\n        /* \"#utility.yul\":21768:21785   */\n      add\n        /* \"#utility.yul\":21761:21808   */\n      mstore\n        /* \"#utility.yul\":21825:21956   */\n      tag_676\n        /* \"#utility.yul\":21951:21955   */\n      dup2\n        /* \"#utility.yul\":21825:21956   */\n      tag_471\n      jump\t// in\n    tag_676:\n        /* \"#utility.yul\":21817:21956   */\n      swap1\n      pop\n        /* \"#utility.yul\":21544:21963   */\n      swap2\n      swap1\n      pop\n      jump\t// out\n        /* \"#utility.yul\":21969:22193   */\n    tag_472:\n        /* \"#utility.yul\":22109:22143   */\n      0x45524332303a207472616e736665722066726f6d20746865207a65726f206164\n        /* \"#utility.yul\":22105:22106   */\n      0x00\n        /* \"#utility.yul\":22097:22103   */\n      dup3\n        /* \"#utility.yul\":22093:22107   */\n      add\n        /* \"#utility.yul\":22086:22144   */\n      mstore\n        /* \"#utility.yul\":22178:22185   */\n      0x6472657373000000000000000000000000000000000000000000000000000000\n        /* \"#utility.yul\":22173:22175   */\n      0x20\n        /* \"#utility.yul\":22165:22171   */\n      dup3\n        /* \"#utility.yul\":22161:22176   */\n      add\n        /* \"#utility.yul\":22154:22186   */\n      mstore\n        /* \"#utility.yul\":21969:22193   */\n      pop\n      jump\t// out\n        /* \"#utility.yul\":22199:22565   */\n    tag_473:\n        /* \"#utility.yul\":22341:22344   */\n      0x00\n        /* \"#utility.yul\":22362:22429   */\n      tag_679\n        /* \"#utility.yul\":22426:22428   */\n      0x25\n        /* \"#utility.yul\":22421:22424   */\n      dup4\n        /* \"#utility.yul\":22362:22429   */\n      tag_432\n      jump\t// in\n    tag_679:\n        /* \"#utility.yul\":22355:22429   */\n      swap2\n      pop\n        /* \"#utility.yul\":22438:22531   */\n      tag_680\n        /* \"#utility.yul\":22527:22530   */\n      dup3\n        /* \"#utility.yul\":22438:22531   */\n      tag_472\n      jump\t// in\n    tag_680:\n        /* \"#utility.yul\":22556:22558   */\n      0x40\n        /* \"#utility.yul\":22551:22554   */\n      dup3\n        /* \"#utility.yul\":22547:22559   */\n      add\n        /* \"#utility.yul\":22540:22559   */\n      swap1\n      pop\n        /* \"#utility.yul\":22199:22565   */\n      swap2\n      swap1\n      pop\n      jump\t// out\n        /* \"#utility.yul\":22571:22990   */\n    tag_364:\n        /* \"#utility.yul\":22737:22741   */\n      0x00\n        /* \"#utility.yul\":22775:22777   */\n      0x20\n        /* \"#utility.yul\":22764:22773   */\n      dup3\n        /* \"#utility.yul\":22760:22778   */\n      add\n        /* \"#utility.yul\":22752:22778   */\n      swap1\n      pop\n        /* \"#utility.yul\":22824:22833   */\n      dup2\n        /* \"#utility.yul\":22818:22822   */\n      dup2\n        /* \"#utility.yul\":22814:22834   */\n      sub\n        /* \"#utility.yul\":22810:22811   */\n      0x00\n        /* \"#utility.yul\":22799:22808   */\n      dup4\n        /* \"#utility.yul\":22795:22812   */\n      add\n        /* \"#utility.yul\":22788:22835   */\n      mstore\n        /* \"#utility.yul\":22852:22983   */\n      tag_682\n        /* \"#utility.yul\":22978:22982   */\n      dup2\n        /* \"#utility.yul\":22852:22983   */\n      tag_473\n      jump\t// in\n    tag_682:\n        /* \"#utility.yul\":22844:22983   */\n      swap1\n      pop\n        /* \"#utility.yul\":22571:22990   */\n      swap2\n      swap1\n      pop\n      jump\t// out\n        /* \"#utility.yul\":22996:23218   */\n    tag_474:\n        /* \"#utility.yul\":23136:23170   */\n      0x45524332303a207472616e7366657220746f20746865207a65726f2061646472\n        /* \"#utility.yul\":23132:23133   */\n      0x00\n        /* \"#utility.yul\":23124:23130   */\n      dup3\n        /* \"#utility.yul\":23120:23134   */\n      add\n        /* \"#utility.yul\":23113:23171   */\n      mstore\n        /* \"#utility.yul\":23205:23210   */\n      0x6573730000000000000000000000000000000000000000000000000000000000\n        /* \"#utility.yul\":23200:23202   */\n      0x20\n        /* \"#utility.yul\":23192:23198   */\n      dup3\n        /* \"#utility.yul\":23188:23203   */\n      add\n        /* \"#utility.yul\":23181:23211   */\n      mstore\n        /* \"#utility.yul\":22996:23218   */\n      pop\n      jump\t// out\n        /* \"#utility.yul\":23224:23590   */\n    tag_475:\n        /* \"#utility.yul\":23366:23369   */\n      0x00\n        /* \"#utility.yul\":23387:23454   */\n      tag_685\n        /* \"#utility.yul\":23451:23453   */\n      0x23\n        /* \"#utility.yul\":23446:23449   */\n      dup4\n        /* \"#utility.yul\":23387:23454   */\n      tag_432\n      jump\t// in\n    tag_685:\n        /* \"#utility.yul\":23380:23454   */\n      swap2\n      pop\n        /* \"#utility.yul\":23463:23556   */\n      tag_686\n        /* \"#utility.yul\":23552:23555   */\n      dup3\n        /* \"#utility.yul\":23463:23556   */\n      tag_474\n      jump\t// in\n    tag_686:\n        /* \"#utility.yul\":23581:23583   */\n      0x40\n        /* \"#utility.yul\":23576:23579   */\n      dup3\n        /* \"#utility.yul\":23572:23584   */\n      add\n        /* \"#utility.yul\":23565:23584   */\n      swap1\n      pop\n        /* \"#utility.yul\":23224:23590   */\n      swap2\n      swap1\n      pop\n      jump\t// out\n        /* \"#utility.yul\":23596:24015   */\n    tag_367:\n        /* \"#utility.yul\":23762:23766   */\n      0x00\n        /* \"#utility.yul\":23800:23802   */\n      0x20\n        /* \"#utility.yul\":23789:23798   */\n      dup3\n        /* \"#utility.yul\":23785:23803   */\n      add\n        /* \"#utility.yul\":23777:23803   */\n      swap1\n      pop\n        /* \"#utility.yul\":23849:23858   */\n      dup2\n        /* \"#utility.yul\":23843:23847   */\n      dup2\n        /* \"#utility.yul\":23839:23859   */\n      sub\n        /* \"#utility.yul\":23835:23836   */\n      0x00\n        /* \"#utility.yul\":23824:23833   */\n      dup4\n        /* \"#utility.yul\":23820:23837   */\n      add\n        /* \"#utility.yul\":23813:23860   */\n      mstore\n        /* \"#utility.yul\":23877:24008   */\n      tag_688\n        /* \"#utility.yul\":24003:24007   */\n      dup2\n        /* \"#utility.yul\":23877:24008   */\n      tag_475\n      jump\t// in\n    tag_688:\n        /* \"#utility.yul\":23869:24008   */\n      swap1\n      pop\n        /* \"#utility.yul\":23596:24015   */\n      swap2\n      swap1\n      pop\n      jump\t// out\n        /* \"#utility.yul\":24021:24195   */\n    tag_476:\n        /* \"#utility.yul\":24161:24187   */\n      0x54726164696e67206e6f742079657420656e61626c6564210000000000000000\n        /* \"#utility.yul\":24157:24158   */\n      0x00\n        /* \"#utility.yul\":24149:24155   */\n      dup3\n        /* \"#utility.yul\":24145:24159   */\n      add\n        /* \"#utility.yul\":24138:24188   */\n      mstore\n        /* \"#utility.yul\":24021:24195   */\n      pop\n      jump\t// out\n        /* \"#utility.yul\":24201:24567   */\n    tag_477:\n        /* \"#utility.yul\":24343:24346   */\n      0x00\n        /* \"#utility.yul\":24364:24431   */\n      tag_691\n        /* \"#utility.yul\":24428:24430   */\n      0x18\n        /* \"#utility.yul\":24423:24426   */\n      dup4\n        /* \"#utility.yul\":24364:24431   */\n      tag_432\n      jump\t// in\n    tag_691:\n        /* \"#utility.yul\":24357:24431   */\n      swap2\n      pop\n        /* \"#utility.yul\":24440:24533   */\n      tag_692\n        /* \"#utility.yul\":24529:24532   */\n      dup3\n        /* \"#utility.yul\":24440:24533   */\n      tag_476\n      jump\t// in\n    tag_692:\n        /* \"#utility.yul\":24558:24560   */\n      0x20\n        /* \"#utility.yul\":24553:24556   */\n      dup3\n        /* \"#utility.yul\":24549:24561   */\n      add\n        /* \"#utility.yul\":24542:24561   */\n      swap1\n      pop\n        /* \"#utility.yul\":24201:24567   */\n      swap2\n      swap1\n      pop\n      jump\t// out\n        /* \"#utility.yul\":24573:24992   */\n    tag_372:\n        /* \"#utility.yul\":24739:24743   */\n      0x00\n        /* \"#utility.yul\":24777:24779   */\n      0x20\n        /* \"#utility.yul\":24766:24775   */\n      dup3\n        /* \"#utility.yul\":24762:24780   */\n      add\n        /* \"#utility.yul\":24754:24780   */\n      swap1\n      pop\n        /* \"#utility.yul\":24826:24835   */\n      dup2\n        /* \"#utility.yul\":24820:24824   */\n      dup2\n        /* \"#utility.yul\":24816:24836   */\n      sub\n        /* \"#utility.yul\":24812:24813   */\n      0x00\n        /* \"#utility.yul\":24801:24810   */\n      dup4\n        /* \"#utility.yul\":24797:24814   */\n      add\n        /* \"#utility.yul\":24790:24837   */\n      mstore\n        /* \"#utility.yul\":24854:24985   */\n      tag_694\n        /* \"#utility.yul\":24980:24984   */\n      dup2\n        /* \"#utility.yul\":24854:24985   */\n      tag_477\n      jump\t// in\n    tag_694:\n        /* \"#utility.yul\":24846:24985   */\n      swap1\n      pop\n        /* \"#utility.yul\":24573:24992   */\n      swap2\n      swap1\n      pop\n      jump\t// out\n        /* \"#utility.yul\":24998:25178   */\n    tag_478:\n        /* \"#utility.yul\":25046:25123   */\n      0x4e487b7100000000000000000000000000000000000000000000000000000000\n        /* \"#utility.yul\":25043:25044   */\n      0x00\n        /* \"#utility.yul\":25036:25124   */\n      mstore\n        /* \"#utility.yul\":25143:25147   */\n      0x12\n        /* \"#utility.yul\":25140:25141   */\n      0x04\n        /* \"#utility.yul\":25133:25148   */\n      mstore\n        /* \"#utility.yul\":25167:25171   */\n      0x24\n        /* \"#utility.yul\":25164:25165   */\n      0x00\n        /* \"#utility.yul\":25157:25172   */\n      revert\n        /* \"#utility.yul\":25184:25369   */\n    tag_383:\n        /* \"#utility.yul\":25224:25225   */\n      0x00\n        /* \"#utility.yul\":25241:25261   */\n      tag_697\n        /* \"#utility.yul\":25259:25260   */\n      dup3\n        /* \"#utility.yul\":25241:25261   */\n      tag_429\n      jump\t// in\n    tag_697:\n        /* \"#utility.yul\":25236:25261   */\n      swap2\n      pop\n        /* \"#utility.yul\":25275:25295   */\n      tag_698\n        /* \"#utility.yul\":25293:25294   */\n      dup4\n        /* \"#utility.yul\":25275:25295   */\n      tag_429\n      jump\t// in\n    tag_698:\n        /* \"#utility.yul\":25270:25295   */\n      swap3\n      pop\n        /* \"#utility.yul\":25314:25315   */\n      dup3\n        /* \"#utility.yul\":25304:25339   */\n      tag_699\n      jumpi\n        /* \"#utility.yul\":25319:25337   */\n      tag_700\n      tag_478\n      jump\t// in\n    tag_700:\n        /* \"#utility.yul\":25304:25339   */\n    tag_699:\n        /* \"#utility.yul\":25361:25362   */\n      dup3\n        /* \"#utility.yul\":25358:25359   */\n      dup3\n        /* \"#utility.yul\":25354:25363   */\n      div\n        /* \"#utility.yul\":25349:25363   */\n      swap1\n      pop\n        /* \"#utility.yul\":25184:25369   */\n      swap3\n      swap2\n      pop\n      pop\n      jump\t// out\n        /* \"#utility.yul\":25375:25602   */\n    tag_479:\n        /* \"#utility.yul\":25515:25549   */\n      0x416d6f756e742069732067726561746572207468616e204d617853656c6c6162\n        /* \"#utility.yul\":25511:25512   */\n      0x00\n        /* \"#utility.yul\":25503:25509   */\n      dup3\n        /* \"#utility.yul\":25499:25513   */\n      add\n        /* \"#utility.yul\":25492:25550   */\n      mstore\n        /* \"#utility.yul\":25584:25594   */\n      0x6c65416d6f756e74000000000000000000000000000000000000000000000000\n        /* \"#utility.yul\":25579:25581   */\n      0x20\n        /* \"#utility.yul\":25571:25577   */\n      dup3\n        /* \"#utility.yul\":25567:25582   */\n      add\n        /* \"#utility.yul\":25560:25595   */\n      mstore\n        /* \"#utility.yul\":25375:25602   */\n      pop\n      jump\t// out\n        /* \"#utility.yul\":25608:25974   */\n    tag_480:\n        /* \"#utility.yul\":25750:25753   */\n      0x00\n        /* \"#utility.yul\":25771:25838   */\n      tag_703\n        /* \"#utility.yul\":25835:25837   */\n      0x28\n        /* \"#utility.yul\":25830:25833   */\n      dup4\n        /* \"#utility.yul\":25771:25838   */\n      tag_432\n      jump\t// in\n    tag_703:\n        /* \"#utility.yul\":25764:25838   */\n      swap2\n      pop\n        /* \"#utility.yul\":25847:25940   */\n      tag_704\n        /* \"#utility.yul\":25936:25939   */\n      dup3\n        /* \"#utility.yul\":25847:25940   */\n      tag_479\n      jump\t// in\n    tag_704:\n        /* \"#utility.yul\":25965:25967   */\n      0x40\n        /* \"#utility.yul\":25960:25963   */\n      dup3\n        /* \"#utility.yul\":25956:25968   */\n      add\n        /* \"#utility.yul\":25949:25968   */\n      swap1\n      pop\n        /* \"#utility.yul\":25608:25974   */\n      swap2\n      swap1\n      pop\n      jump\t// out\n        /* \"#utility.yul\":25980:26399   */\n    tag_389:\n        /* \"#utility.yul\":26146:26150   */\n      0x00\n        /* \"#utility.yul\":26184:26186   */\n      0x20\n        /* \"#utility.yul\":26173:26182   */\n      dup3\n        /* \"#utility.yul\":26169:26187   */\n      add\n        /* \"#utility.yul\":26161:26187   */\n      swap1\n      pop\n        /* \"#utility.yul\":26233:26242   */\n      dup2\n        /* \"#utility.yul\":26227:26231   */\n      dup2\n        /* \"#utility.yul\":26223:26243   */\n      sub\n        /* \"#utility.yul\":26219:26220   */\n      0x00\n        /* \"#utility.yul\":26208:26217   */\n      dup4\n        /* \"#utility.yul\":26204:26221   */\n      add\n        /* \"#utility.yul\":26197:26244   */\n      mstore\n        /* \"#utility.yul\":26261:26392   */\n      tag_706\n        /* \"#utility.yul\":26387:26391   */\n      dup2\n        /* \"#utility.yul\":26261:26392   */\n      tag_480\n      jump\t// in\n    tag_706:\n        /* \"#utility.yul\":26253:26392   */\n      swap1\n      pop\n        /* \"#utility.yul\":25980:26399   */\n      swap2\n      swap1\n      pop\n      jump\t// out\n        /* \"#utility.yul\":26405:26599   */\n    tag_393:\n        /* \"#utility.yul\":26445:26449   */\n      0x00\n        /* \"#utility.yul\":26465:26485   */\n      tag_708\n        /* \"#utility.yul\":26483:26484   */\n      dup3\n        /* \"#utility.yul\":26465:26485   */\n      tag_429\n      jump\t// in\n    tag_708:\n        /* \"#utility.yul\":26460:26485   */\n      swap2\n      pop\n        /* \"#utility.yul\":26499:26519   */\n      tag_709\n        /* \"#utility.yul\":26517:26518   */\n      dup4\n        /* \"#utility.yul\":26499:26519   */\n      tag_429\n      jump\t// in\n    tag_709:\n        /* \"#utility.yul\":26494:26519   */\n      swap3\n      pop\n        /* \"#utility.yul\":26543:26544   */\n      dup3\n        /* \"#utility.yul\":26540:26541   */\n      dup3\n        /* \"#utility.yul\":26536:26545   */\n      sub\n        /* \"#utility.yul\":26528:26545   */\n      swap1\n      pop\n        /* \"#utility.yul\":26567:26568   */\n      dup2\n        /* \"#utility.yul\":26561:26565   */\n      dup2\n        /* \"#utility.yul\":26558:26569   */\n      gt\n        /* \"#utility.yul\":26555:26592   */\n      iszero\n      tag_710\n      jumpi\n        /* \"#utility.yul\":26572:26590   */\n      tag_711\n      tag_448\n      jump\t// in\n    tag_711:\n        /* \"#utility.yul\":26555:26592   */\n    tag_710:\n        /* \"#utility.yul\":26405:26599   */\n      swap3\n      swap2\n      pop\n      pop\n      jump\t// out\n        /* \"#utility.yul\":26605:26827   */\n    tag_481:\n        /* \"#utility.yul\":26745:26779   */\n      0x5472616e736665722072657374726963746564206265666f726520323420686f\n        /* \"#utility.yul\":26741:26742   */\n      0x00\n        /* \"#utility.yul\":26733:26739   */\n      dup3\n        /* \"#utility.yul\":26729:26743   */\n      add\n        /* \"#utility.yul\":26722:26780   */\n      mstore\n        /* \"#utility.yul\":26814:26819   */\n      0x7572730000000000000000000000000000000000000000000000000000000000\n        /* \"#utility.yul\":26809:26811   */\n      0x20\n        /* \"#utility.yul\":26801:26807   */\n      dup3\n        /* \"#utility.yul\":26797:26812   */\n      add\n        /* \"#utility.yul\":26790:26820   */\n      mstore\n        /* \"#utility.yul\":26605:26827   */\n      pop\n      jump\t// out\n        /* \"#utility.yul\":26833:27199   */\n    tag_482:\n        /* \"#utility.yul\":26975:26978   */\n      0x00\n        /* \"#utility.yul\":26996:27063   */\n      tag_714\n        /* \"#utility.yul\":27060:27062   */\n      0x23\n        /* \"#utility.yul\":27055:27058   */\n      dup4\n        /* \"#utility.yul\":26996:27063   */\n      tag_432\n      jump\t// in\n    tag_714:\n        /* \"#utility.yul\":26989:27063   */\n      swap2\n      pop\n        /* \"#utility.yul\":27072:27165   */\n      tag_715\n        /* \"#utility.yul\":27161:27164   */\n      dup3\n        /* \"#utility.yul\":27072:27165   */\n      tag_481\n      jump\t// in\n    tag_715:\n        /* \"#utility.yul\":27190:27192   */\n      0x40\n        /* \"#utility.yul\":27185:27188   */\n      dup3\n        /* \"#utility.yul\":27181:27193   */\n      add\n        /* \"#utility.yul\":27174:27193   */\n      swap1\n      pop\n        /* \"#utility.yul\":26833:27199   */\n      swap2\n      swap1\n      pop\n      jump\t// out\n        /* \"#utility.yul\":27205:27624   */\n    tag_401:\n        /* \"#utility.yul\":27371:27375   */\n      0x00\n        /* \"#utility.yul\":27409:27411   */\n      0x20\n        /* \"#utility.yul\":27398:27407   */\n      dup3\n        /* \"#utility.yul\":27394:27412   */\n      add\n        /* \"#utility.yul\":27386:27412   */\n      swap1\n      pop\n        /* \"#utility.yul\":27458:27467   */\n      dup2\n        /* \"#utility.yul\":27452:27456   */\n      dup2\n        /* \"#utility.yul\":27448:27468   */\n      sub\n        /* \"#utility.yul\":27444:27445   */\n      0x00\n        /* \"#utility.yul\":27433:27442   */\n      dup4\n        /* \"#utility.yul\":27429:27446   */\n      add\n        /* \"#utility.yul\":27422:27469   */\n      mstore\n        /* \"#utility.yul\":27486:27617   */\n      tag_717\n        /* \"#utility.yul\":27612:27616   */\n      dup2\n        /* \"#utility.yul\":27486:27617   */\n      tag_482\n      jump\t// in\n    tag_717:\n        /* \"#utility.yul\":27478:27617   */\n      swap1\n      pop\n        /* \"#utility.yul\":27205:27624   */\n      swap2\n      swap1\n      pop\n      jump\t// out\n        /* \"#utility.yul\":27630:27855   */\n    tag_483:\n        /* \"#utility.yul\":27770:27804   */\n      0x45524332303a207472616e7366657220616d6f756e7420657863656564732062\n        /* \"#utility.yul\":27766:27767   */\n      0x00\n        /* \"#utility.yul\":27758:27764   */\n      dup3\n        /* \"#utility.yul\":27754:27768   */\n      add\n        /* \"#utility.yul\":27747:27805   */\n      mstore\n        /* \"#utility.yul\":27839:27847   */\n      0x616c616e63650000000000000000000000000000000000000000000000000000\n        /* \"#utility.yul\":27834:27836   */\n      0x20\n        /* \"#utility.yul\":27826:27832   */\n      dup3\n        /* \"#utility.yul\":27822:27837   */\n      add\n        /* \"#utility.yul\":27815:27848   */\n      mstore\n        /* \"#utility.yul\":27630:27855   */\n      pop\n      jump\t// out\n        /* \"#utility.yul\":27861:28227   */\n    tag_484:\n        /* \"#utility.yul\":28003:28006   */\n      0x00\n        /* \"#utility.yul\":28024:28091   */\n      tag_720\n        /* \"#utility.yul\":28088:28090   */\n      0x26\n        /* \"#utility.yul\":28083:28086   */\n      dup4\n        /* \"#utility.yul\":28024:28091   */\n      tag_432\n      jump\t// in\n    tag_720:\n        /* \"#utility.yul\":28017:28091   */\n      swap2\n      pop\n        /* \"#utility.yul\":28100:28193   */\n      tag_721\n        /* \"#utility.yul\":28189:28192   */\n      dup3\n        /* \"#utility.yul\":28100:28193   */\n      tag_483\n      jump\t// in\n    tag_721:\n        /* \"#utility.yul\":28218:28220   */\n      0x40\n        /* \"#utility.yul\":28213:28216   */\n      dup3\n        /* \"#utility.yul\":28209:28221   */\n      add\n        /* \"#utility.yul\":28202:28221   */\n      swap1\n      pop\n        /* \"#utility.yul\":27861:28227   */\n      swap2\n      swap1\n      pop\n      jump\t// out\n        /* \"#utility.yul\":28233:28652   */\n    tag_418:\n        /* \"#utility.yul\":28399:28403   */\n      0x00\n        /* \"#utility.yul\":28437:28439   */\n      0x20\n        /* \"#utility.yul\":28426:28435   */\n      dup3\n        /* \"#utility.yul\":28422:28440   */\n      add\n        /* \"#utility.yul\":28414:28440   */\n      swap1\n      pop\n        /* \"#utility.yul\":28486:28495   */\n      dup2\n        /* \"#utility.yul\":28480:28484   */\n      dup2\n        /* \"#utility.yul\":28476:28496   */\n      sub\n        /* \"#utility.yul\":28472:28473   */\n      0x00\n        /* \"#utility.yul\":28461:28470   */\n      dup4\n        /* \"#utility.yul\":28457:28474   */\n      add\n        /* \"#utility.yul\":28450:28497   */\n      mstore\n        /* \"#utility.yul\":28514:28645   */\n      tag_723\n        /* \"#utility.yul\":28640:28644   */\n      dup2\n        /* \"#utility.yul\":28514:28645   */\n      tag_484\n      jump\t// in\n    tag_723:\n        /* \"#utility.yul\":28506:28645   */\n      swap1\n      pop\n        /* \"#utility.yul\":28233:28652   */\n      swap2\n      swap1\n      pop\n      jump\t// out\n\n    auxdata: 0xa26469706673582212203efe5ff28ba2983de215be1e6351ddeddaac71a5ea094cc32a0ce5379c771e0d64736f6c63430008130033\n}\n",
				"bytecode": {
					"linkReferences": {},
					"object": "60806040526000600a60156101000a81548160ff0219169083151502179055506000600c60006101000a81548160ff0219169083151502179055506000600c60016101000a81548160ff0219169083151502179055503480156200006257600080fd5b506040518060400160405280600981526020017f477265656c616e636500000000000000000000000000000000000000000000008152506040518060400160405280600381526020017f47524c00000000000000000000000000000000000000000000000000000000008152508160039081620000e0919062000567565b508060049081620000f2919062000567565b505050600062000107620002bb60201b60201c565b905080600560006101000a81548173ffffffffffffffffffffffffffffffffffffffff021916908373ffffffffffffffffffffffffffffffffffffffff1602179055508073ffffffffffffffffffffffffffffffffffffffff16600073ffffffffffffffffffffffffffffffffffffffff167f8be0079c531659141344cd1fd0a4f28419497f9722a3daafe3b4186f6b6457e060405160405180910390a350620001b6620002c360201b60201c565b600a60006101000a81548173ffffffffffffffffffffffffffffffffffffffff021916908373ffffffffffffffffffffffffffffffffffffffff1602179055506001600760006200020c620002c360201b60201c565b73ffffffffffffffffffffffffffffffffffffffff1673ffffffffffffffffffffffffffffffffffffffff16815260200190815260200160002060006101000a81548160ff0219169083151502179055506001600760003073ffffffffffffffffffffffffffffffffffffffff1673ffffffffffffffffffffffffffffffffffffffff16815260200190815260200160002060006101000a81548160ff0219169083151502179055506200064e565b600033905090565b6000600560009054906101000a900473ffffffffffffffffffffffffffffffffffffffff16905090565b600081519050919050565b7f4e487b7100000000000000000000000000000000000000000000000000000000600052604160045260246000fd5b7f4e487b7100000000000000000000000000000000000000000000000000000000600052602260045260246000fd5b600060028204905060018216806200036f57607f821691505b60208210810362000385576200038462000327565b5b50919050565b60008190508160005260206000209050919050565b60006020601f8301049050919050565b600082821b905092915050565b600060088302620003ef7fffffffffffffffffffffffffffffffffffffffffffffffffffffffffffffffff82620003b0565b620003fb8683620003b0565b95508019841693508086168417925050509392505050565b6000819050919050565b6000819050919050565b600062000448620004426200043c8462000413565b6200041d565b62000413565b9050919050565b6000819050919050565b620004648362000427565b6200047c62000473826200044f565b848454620003bd565b825550505050565b600090565b6200049362000484565b620004a081848462000459565b505050565b5b81811015620004c857620004bc60008262000489565b600181019050620004a6565b5050565b601f8211156200051757620004e1816200038b565b620004ec84620003a0565b81016020851015620004fc578190505b620005146200050b85620003a0565b830182620004a5565b50505b505050565b600082821c905092915050565b60006200053c600019846008026200051c565b1980831691505092915050565b600062000557838362000529565b9150826002028217905092915050565b6200057282620002ed565b67ffffffffffffffff8111156200058e576200058d620002f8565b5b6200059a825462000356565b620005a7828285620004cc565b600060209050601f831160018114620005df5760008415620005ca578287015190505b620005d6858262000549565b86555062000646565b601f198416620005ef866200038b565b60005b828110156200061957848901518255600182019150602085019450602081019050620005f2565b8683101562000639578489015162000635601f89168262000529565b8355505b6001600288020188555050505b505050505050565b613773806200065e6000396000f3fe6080604052600436106102085760003560e01c80636da492dc11610118578063a457c2d7116100a0578063bea1dcf81161006f578063bea1dcf814610742578063d5aed6bf1461076d578063dd62ed3e14610796578063e57f14e1146107d3578063f2fde38b146107fc5761020f565b8063a457c2d714610674578063a56d37f9146106b1578063a9059cbb146106da578063ab4ebc1e146107175761020f565b80638d6366fe116100e75780638d6366fe1461059f5780638da5cb5b146105ca57806395d89b41146105f55780639c0b9d74146106205780639ec4be411461064b5761020f565b80636da492dc1461051d57806370a0823114610534578063715018a6146105715780638a8c523c146105885761020f565b80632efa788b1161019b5780634ab3bdcb1161016a5780634ab3bdcb146104245780634ada218b1461044d5780634fbee19314610478578063537eed34146104b5578063630a8a0c146104e05761020f565b80632efa788b1461037a578063313ce5671461039157806339509351146103bc57806349bd5a5e146103f95761020f565b80631249c58b116101d75780631249c58b146102d0578063142bc858146102e757806318160ddd1461031257806323b872dd1461033d5761020f565b806303186eef1461021457806306fdde03146102515780630907ea0b1461027c578063095ea7b3146102935761020f565b3661020f57005b600080fd5b34801561022057600080fd5b5061023b6004803603810190610236919061283c565b610825565b6040516102489190612882565b60405180910390f35b34801561025d57600080fd5b5061026661083d565b604051610273919061292d565b60405180910390f35b34801561028857600080fd5b506102916108cf565b005b34801561029f57600080fd5b506102ba60048036038101906102b5919061297b565b610983565b6040516102c791906129d6565b60405180910390f35b3480156102dc57600080fd5b506102e56109a1565b005b3480156102f357600080fd5b506102fc610ad8565b60405161030991906129d6565b60405180910390f35b34801561031e57600080fd5b50610327610aeb565b6040516103349190612882565b60405180910390f35b34801561034957600080fd5b50610364600480360381019061035f91906129f1565b610af5565b60405161037191906129d6565b60405180910390f35b34801561038657600080fd5b5061038f610c14565b005b34801561039d57600080fd5b506103a6610cc8565b6040516103b39190612a60565b60405180910390f35b3480156103c857600080fd5b506103e360048036038101906103de919061297b565b610cd1565b6040516103f091906129d6565b60405180910390f35b34801561040557600080fd5b5061040e610d7d565b60405161041b9190612a8a565b60405180910390f35b34801561043057600080fd5b5061044b60048036038101906104469190612aa5565b610da3565b005b34801561045957600080fd5b50610462610ea2565b60405161046f91906129d6565b60405180910390f35b34801561048457600080fd5b5061049f600480360381019061049a919061283c565b610eb5565b6040516104ac91906129d6565b60405180910390f35b3480156104c157600080fd5b506104ca610f0b565b6040516104d79190612882565b60405180910390f35b3480156104ec57600080fd5b506105076004803603810190610502919061283c565b610f11565b6040516105149190612882565b60405180910390f35b34801561052957600080fd5b50610532610f29565b005b34801561054057600080fd5b5061055b6004803603810190610556919061283c565b610fdd565b6040516105689190612882565b60405180910390f35b34801561057d57600080fd5b50610586611025565b005b34801561059457600080fd5b5061059d61117d565b005b3480156105ab57600080fd5b506105b4611281565b6040516105c191906129d6565b60405180910390f35b3480156105d657600080fd5b506105df611294565b6040516105ec9190612a8a565b60405180910390f35b34801561060157600080fd5b5061060a6112be565b604051610617919061292d565b60405180910390f35b34801561062c57600080fd5b50610635611350565b6040516106429190612882565b60405180910390f35b34801561065757600080fd5b50610672600480360381019061066d9190612aa5565b611356565b005b34801561068057600080fd5b5061069b6004803603810190610696919061297b565b61143b565b6040516106a891906129d6565b60405180910390f35b3480156106bd57600080fd5b506106d860048036038101906106d39190612aa5565b611526565b005b3480156106e657600080fd5b5061070160048036038101906106fc919061297b565b61160b565b60405161070e91906129d6565b60405180910390f35b34801561072357600080fd5b5061072c611629565b6040516107399190612882565b60405180910390f35b34801561074e57600080fd5b5061075761162f565b6040516107649190612a8a565b60405180910390f35b34801561077957600080fd5b50610794600480360381019061078f919061283c565b611655565b005b3480156107a257600080fd5b506107bd60048036038101906107b89190612ad2565b611730565b6040516107ca9190612882565b60405180910390f35b3480156107df57600080fd5b506107fa60048036038101906107f5919061283c565b6117b7565b005b34801561080857600080fd5b50610823600480360381019061081e919061283c565b611985565b005b600e6020528060005260406000206000915090505481565b60606003805461084c90612b41565b80601f016020809104026020016040519081016040528092919081815260200182805461087890612b41565b80156108c55780601f1061089a576101008083540402835291602001916108c5565b820191906000526020600020905b8154815290600101906020018083116108a857829003601f168201915b5050505050905090565b6108d7611b4b565b73ffffffffffffffffffffffffffffffffffffffff16600560009054906101000a900473ffffffffffffffffffffffffffffffffffffffff1673ffffffffffffffffffffffffffffffffffffffff1614610966576040517f08c379a000000000000000000000000000000000000000000000000000000000815260040161095d90612bbe565b60405180910390fd5b6000600c60016101000a81548160ff021916908315150217905550565b6000610997610990611b4b565b8484611b53565b6001905092915050565b6109a9611b4b565b73ffffffffffffffffffffffffffffffffffffffff16600560009054906101000a900473ffffffffffffffffffffffffffffffffffffffff1673ffffffffffffffffffffffffffffffffffffffff1614610a38576040517f08c379a0000000000000000000000000000000000000000000000000000000008152600401610a2f90612bbe565b60405180910390fd5b600a60159054906101000a900460ff1615610a88576040517f08c379a0000000000000000000000000000000000000000000000000000000008152600401610a7f90612c2a565b60405180910390fd5b6001600a60156101000a81548160ff021916908315150217905550610ad6610aae611294565b610ab6610cc8565b600a610ac29190612dac565b6377359400610ad19190612df7565b611d1c565b565b600c60019054906101000a900460ff1681565b6000600254905090565b600080600160008673ffffffffffffffffffffffffffffffffffffffff1673ffffffffffffffffffffffffffffffffffffffff1681526020019081526020016000206000610b41611b4b565b73ffffffffffffffffffffffffffffffffffffffff1673ffffffffffffffffffffffffffffffffffffffff1681526020019081526020016000205490507fffffffffffffffffffffffffffffffffffffffffffffffffffffffffffffffff8114610bfd5782811015610be8576040517f08c379a0000000000000000000000000000000000000000000000000000000008152600401610bdf90612eab565b60405180910390fd5b610bfc85610bf4611b4b565b858403611b53565b5b610c08858585611e7b565b60019150509392505050565b610c1c611b4b565b73ffffffffffffffffffffffffffffffffffffffff16600560009054906101000a900473ffffffffffffffffffffffffffffffffffffffff1673ffffffffffffffffffffffffffffffffffffffff1614610cab576040517f08c379a0000000000000000000000000000000000000000000000000000000008152600401610ca290612bbe565b60405180910390fd5b6001600c60016101000a81548160ff021916908315150217905550565b60006009905090565b6000610d73610cde611b4b565b848460016000610cec611b4b565b73ffffffffffffffffffffffffffffffffffffffff1673ffffffffffffffffffffffffffffffffffffffff16815260200190815260200160002060008873ffffffffffffffffffffffffffffffffffffffff1673ffffffffffffffffffffffffffffffffffffffff16815260200190815260200160002054610d6e9190612ecb565b611b53565b6001905092915050565b600660009054906101000a900473ffffffffffffffffffffffffffffffffffffffff1681565b610dab611b4b565b73ffffffffffffffffffffffffffffffffffffffff16600560009054906101000a900473ffffffffffffffffffffffffffffffffffffffff1673ffffffffffffffffffffffffffffffffffffffff1614610e3a576040517f08c379a0000000000000000000000000000000000000000000000000000000008152600401610e3190612bbe565b60405180910390fd5b60008111610e7d576040517f08c379a0000000000000000000000000000000000000000000000000000000008152600401610e7490612f4b565b60405180910390fd5b80600b819055506001600c60006101000a81548160ff02191690831515021790555050565b600a60149054906101000a900460ff1681565b6000600760008373ffffffffffffffffffffffffffffffffffffffff1673ffffffffffffffffffffffffffffffffffffffff16815260200190815260200160002060009054906101000a900460ff169050919050565b600b5481565b600d6020528060005260406000206000915090505481565b610f31611b4b565b73ffffffffffffffffffffffffffffffffffffffff16600560009054906101000a900473ffffffffffffffffffffffffffffffffffffffff1673ffffffffffffffffffffffffffffffffffffffff1614610fc0576040517f08c379a0000000000000000000000000000000000000000000000000000000008152600401610fb790612bbe565b60405180910390fd5b6000600c60006101000a81548160ff021916908315150217905550565b60008060008373ffffffffffffffffffffffffffffffffffffffff1673ffffffffffffffffffffffffffffffffffffffff168152602001908152602001600020549050919050565b61102d611b4b565b73ffffffffffffffffffffffffffffffffffffffff16600560009054906101000a900473ffffffffffffffffffffffffffffffffffffffff1673ffffffffffffffffffffffffffffffffffffffff16146110bc576040517f08c379a00000000000000000000000000000000000000000000000000000000081526004016110b390612bbe565b60405180910390fd5b600073ffffffffffffffffffffffffffffffffffffffff16600560009054906101000a900473ffffffffffffffffffffffffffffffffffffffff1673ffffffffffffffffffffffffffffffffffffffff167f8be0079c531659141344cd1fd0a4f28419497f9722a3daafe3b4186f6b6457e060405160405180910390a36000600560006101000a81548173ffffffffffffffffffffffffffffffffffffffff021916908373ffffffffffffffffffffffffffffffffffffffff160217905550565b611185611b4b565b73ffffffffffffffffffffffffffffffffffffffff16600560009054906101000a900473ffffffffffffffffffffffffffffffffffffffff1673ffffffffffffffffffffffffffffffffffffffff1614611214576040517f08c379a000000000000000000000000000000000000000000000000000000000815260040161120b90612bbe565b60405180910390fd5b600a60149054906101000a900460ff1615611264576040517f08c379a000000000000000000000000000000000000000000000000000000000815260040161125b90612fb7565b60405180910390fd5b6001600a60146101000a81548160ff021916908315150217905550565b600c60009054906101000a900460ff1681565b6000600560009054906101000a900473ffffffffffffffffffffffffffffffffffffffff16905090565b6060600480546112cd90612b41565b80601f01602080910402602001604051908101604052809291908181526020018280546112f990612b41565b80156113465780601f1061131b57610100808354040283529160200191611346565b820191906000526020600020905b81548152906001019060200180831161132957829003601f168201915b5050505050905090565b60095481565b61135e611b4b565b73ffffffffffffffffffffffffffffffffffffffff16600560009054906101000a900473ffffffffffffffffffffffffffffffffffffffff1673ffffffffffffffffffffffffffffffffffffffff16146113ed576040517f08c379a00000000000000000000000000000000000000000000000000000000081526004016113e490612bbe565b60405180910390fd5b6014811115611431576040517f08c379a000000000000000000000000000000000000000000000000000000000815260040161142890613023565b60405180910390fd5b8060098190555050565b6000806001600061144a611b4b565b73ffffffffffffffffffffffffffffffffffffffff1673ffffffffffffffffffffffffffffffffffffffff16815260200190815260200160002060008573ffffffffffffffffffffffffffffffffffffffff1673ffffffffffffffffffffffffffffffffffffffff16815260200190815260200160002054905082811015611507576040517f08c379a00000000000000000000000000000000000000000000000000000000081526004016114fe906130b5565b60405180910390fd5b61151b611512611b4b565b85858403611b53565b600191505092915050565b61152e611b4b565b73ffffffffffffffffffffffffffffffffffffffff16600560009054906101000a900473ffffffffffffffffffffffffffffffffffffffff1673ffffffffffffffffffffffffffffffffffffffff16146115bd576040517f08c379a00000000000000000000000000000000000000000000000000000000081526004016115b490612bbe565b60405180910390fd5b6014811115611601576040517f08c379a00000000000000000000000000000000000000000000000000000000081526004016115f890613023565b60405180910390fd5b8060088190555050565b600061161f611618611b4b565b8484611e7b565b6001905092915050565b60085481565b600a60009054906101000a900473ffffffffffffffffffffffffffffffffffffffff1681565b61165d611b4b565b73ffffffffffffffffffffffffffffffffffffffff16600560009054906101000a900473ffffffffffffffffffffffffffffffffffffffff1673ffffffffffffffffffffffffffffffffffffffff16146116ec576040517f08c379a00000000000000000000000000000000000000000000000000000000081526004016116e390612bbe565b60405180910390fd5b80600660006101000a81548173ffffffffffffffffffffffffffffffffffffffff021916908373ffffffffffffffffffffffffffffffffffffffff16021790555050565b6000600160008473ffffffffffffffffffffffffffffffffffffffff1673ffffffffffffffffffffffffffffffffffffffff16815260200190815260200160002060008373ffffffffffffffffffffffffffffffffffffffff1673ffffffffffffffffffffffffffffffffffffffff16815260200190815260200160002054905092915050565b6117bf611b4b565b73ffffffffffffffffffffffffffffffffffffffff16600560009054906101000a900473ffffffffffffffffffffffffffffffffffffffff1673ffffffffffffffffffffffffffffffffffffffff161461184e576040517f08c379a000000000000000000000000000000000000000000000000000000000815260040161184590612bbe565b60405180910390fd5b600760008273ffffffffffffffffffffffffffffffffffffffff1673ffffffffffffffffffffffffffffffffffffffff16815260200190815260200160002060009054906101000a900460ff16156118db576040517f08c379a00000000000000000000000000000000000000000000000000000000081526004016118d290613121565b60405180910390fd5b6001600760008373ffffffffffffffffffffffffffffffffffffffff1673ffffffffffffffffffffffffffffffffffffffff16815260200190815260200160002060006101000a81548160ff0219169083151502179055508073ffffffffffffffffffffffffffffffffffffffff167f9d8f7706ea1113d1a167b526eca956215946dd36cc7df39eb16180222d8b5df7600160405161197a91906129d6565b60405180910390a250565b61198d611b4b565b73ffffffffffffffffffffffffffffffffffffffff16600560009054906101000a900473ffffffffffffffffffffffffffffffffffffffff1673ffffffffffffffffffffffffffffffffffffffff1614611a1c576040517f08c379a0000000000000000000000000000000000000000000000000000000008152600401611a1390612bbe565b60405180910390fd5b600073ffffffffffffffffffffffffffffffffffffffff168173ffffffffffffffffffffffffffffffffffffffff1603611a8b576040517f08c379a0000000000000000000000000000000000000000000000000000000008152600401611a82906131b3565b60405180910390fd5b8073ffffffffffffffffffffffffffffffffffffffff16600560009054906101000a900473ffffffffffffffffffffffffffffffffffffffff1673ffffffffffffffffffffffffffffffffffffffff167f8be0079c531659141344cd1fd0a4f28419497f9722a3daafe3b4186f6b6457e060405160405180910390a380600560006101000a81548173ffffffffffffffffffffffffffffffffffffffff021916908373ffffffffffffffffffffffffffffffffffffffff16021790555050565b600033905090565b600073ffffffffffffffffffffffffffffffffffffffff168373ffffffffffffffffffffffffffffffffffffffff1603611bc2576040517f08c379a0000000000000000000000000000000000000000000000000000000008152600401611bb990613245565b60405180910390fd5b600073ffffffffffffffffffffffffffffffffffffffff168273ffffffffffffffffffffffffffffffffffffffff1603611c31576040517f08c379a0000000000000000000000000000000000000000000000000000000008152600401611c28906132d7565b60405180910390fd5b80600160008573ffffffffffffffffffffffffffffffffffffffff1673ffffffffffffffffffffffffffffffffffffffff16815260200190815260200160002060008473ffffffffffffffffffffffffffffffffffffffff1673ffffffffffffffffffffffffffffffffffffffff168152602001908152602001600020819055508173ffffffffffffffffffffffffffffffffffffffff168373ffffffffffffffffffffffffffffffffffffffff167f8c5be1e5ebec7d5bd14f71427d1e84f3dd0314c0f7b2291e5b200ac8c7c3b92583604051611d0f9190612882565b60405180910390a3505050565b600073ffffffffffffffffffffffffffffffffffffffff168273ffffffffffffffffffffffffffffffffffffffff1603611d8b576040517f08c379a0000000000000000000000000000000000000000000000000000000008152600401611d8290613343565b60405180910390fd5b611d9760008383612550565b8060026000828254611da99190612ecb565b92505081905550806000808473ffffffffffffffffffffffffffffffffffffffff1673ffffffffffffffffffffffffffffffffffffffff1681526020019081526020016000206000828254611dfe9190612ecb565b925050819055508173ffffffffffffffffffffffffffffffffffffffff16600073ffffffffffffffffffffffffffffffffffffffff167fddf252ad1be2c89b69c2b068fc378daa952ba7f163c4a11628f55a4df523b3ef83604051611e639190612882565b60405180910390a3611e7760008383612555565b5050565b600073ffffffffffffffffffffffffffffffffffffffff168373ffffffffffffffffffffffffffffffffffffffff1603611eea576040517f08c379a0000000000000000000000000000000000000000000000000000000008152600401611ee1906133d5565b60405180910390fd5b600073ffffffffffffffffffffffffffffffffffffffff168273ffffffffffffffffffffffffffffffffffffffff1603611f59576040517f08c379a0000000000000000000000000000000000000000000000000000000008152600401611f5090613467565b60405180910390fd5b600a60149054906101000a900460ff1680611fbd5750600760008473ffffffffffffffffffffffffffffffffffffffff1673ffffffffffffffffffffffffffffffffffffffff16815260200190815260200160002060009054906101000a900460ff165b806120115750600760008373ffffffffffffffffffffffffffffffffffffffff1673ffffffffffffffffffffffffffffffffffffffff16815260200190815260200160002060009054906101000a900460ff165b612050576040517f08c379a0000000000000000000000000000000000000000000000000000000008152600401612047906134d3565b60405180910390fd5b600081036120ad576120648383600061255a565b42600e60008573ffffffffffffffffffffffffffffffffffffffff1673ffffffffffffffffffffffffffffffffffffffff1681526020019081526020016000208190555061254b565b6000600760008573ffffffffffffffffffffffffffffffffffffffff1673ffffffffffffffffffffffffffffffffffffffff16815260200190815260200160002060009054906101000a900460ff16806121505750600760008473ffffffffffffffffffffffffffffffffffffffff1673ffffffffffffffffffffffffffffffffffffffff16815260200190815260200160002060009054906101000a900460ff165b1590506000816121615760006121da565b6064600660009054906101000a900473ffffffffffffffffffffffffffffffffffffffff1673ffffffffffffffffffffffffffffffffffffffff168673ffffffffffffffffffffffffffffffffffffffff16146121c0576009546121c4565b6008545b846121cf9190612df7565b6121d99190613522565b5b905081156124b457600660009054906101000a900473ffffffffffffffffffffffffffffffffffffffff1673ffffffffffffffffffffffffffffffffffffffff168573ffffffffffffffffffffffffffffffffffffffff16146124b357600c60009054906101000a900460ff161561229257600b54831115612291576040517f08c379a0000000000000000000000000000000000000000000000000000000008152600401612288906135c5565b60405180910390fd5b5b600c60019054906101000a900460ff16156124b257600c60009054906101000a900460ff168015612310575062015180600e60008773ffffffffffffffffffffffffffffffffffffffff1673ffffffffffffffffffffffffffffffffffffffff168152602001908152602001600020544261230d91906135e5565b10155b1561235f576000600d60008773ffffffffffffffffffffffffffffffffffffffff1673ffffffffffffffffffffffffffffffffffffffff16815260200190815260200160002081905550612445565b600b5483600d60008873ffffffffffffffffffffffffffffffffffffffff1673ffffffffffffffffffffffffffffffffffffffff168152602001908152602001600020546123ad9190612ecb565b11156124445762015180600e60008773ffffffffffffffffffffffffffffffffffffffff1673ffffffffffffffffffffffffffffffffffffffff168152602001908152602001600020544261240291906135e5565b1015612443576040517f08c379a000000000000000000000000000000000000000000000000000000000815260040161243a9061368b565b60405180910390fd5b5b5b600c60009054906101000a900460ff16156124b15782600d60008773ffffffffffffffffffffffffffffffffffffffff1673ffffffffffffffffffffffffffffffffffffffff16815260200190815260200160002060008282546124a99190612ecb565b925050819055505b5b5b5b60008111156124f9576124ea85600a60009054906101000a900473ffffffffffffffffffffffffffffffffffffffff168361255a565b80836124f691906135e5565b92505b61250485858561255a565b42600e60008773ffffffffffffffffffffffffffffffffffffffff1673ffffffffffffffffffffffffffffffffffffffff1681526020019081526020016000208190555050505b505050565b505050565b505050565b600073ffffffffffffffffffffffffffffffffffffffff168373ffffffffffffffffffffffffffffffffffffffff16036125c9576040517f08c379a00000000000000000000000000000000000000000000000000000000081526004016125c0906133d5565b60405180910390fd5b600073ffffffffffffffffffffffffffffffffffffffff168273ffffffffffffffffffffffffffffffffffffffff1603612638576040517f08c379a000000000000000000000000000000000000000000000000000000000815260040161262f90613467565b60405180910390fd5b612643838383612550565b60008060008573ffffffffffffffffffffffffffffffffffffffff1673ffffffffffffffffffffffffffffffffffffffff168152602001908152602001600020549050818110156126c9576040517f08c379a00000000000000000000000000000000000000000000000000000000081526004016126c09061371d565b60405180910390fd5b8181036000808673ffffffffffffffffffffffffffffffffffffffff1673ffffffffffffffffffffffffffffffffffffffff16815260200190815260200160002081905550816000808573ffffffffffffffffffffffffffffffffffffffff1673ffffffffffffffffffffffffffffffffffffffff168152602001908152602001600020600082825461275c9190612ecb565b925050819055508273ffffffffffffffffffffffffffffffffffffffff168473ffffffffffffffffffffffffffffffffffffffff167fddf252ad1be2c89b69c2b068fc378daa952ba7f163c4a11628f55a4df523b3ef846040516127c09190612882565b60405180910390a36127d3848484612555565b50505050565b600080fd5b600073ffffffffffffffffffffffffffffffffffffffff82169050919050565b6000612809826127de565b9050919050565b612819816127fe565b811461282457600080fd5b50565b60008135905061283681612810565b92915050565b600060208284031215612852576128516127d9565b5b600061286084828501612827565b91505092915050565b6000819050919050565b61287c81612869565b82525050565b60006020820190506128976000830184612873565b92915050565b600081519050919050565b600082825260208201905092915050565b60005b838110156128d75780820151818401526020810190506128bc565b60008484015250505050565b6000601f19601f8301169050919050565b60006128ff8261289d565b61290981856128a8565b93506129198185602086016128b9565b612922816128e3565b840191505092915050565b6000602082019050818103600083015261294781846128f4565b905092915050565b61295881612869565b811461296357600080fd5b50565b6000813590506129758161294f565b92915050565b60008060408385031215612992576129916127d9565b5b60006129a085828601612827565b92505060206129b185828601612966565b9150509250929050565b60008115159050919050565b6129d0816129bb565b82525050565b60006020820190506129eb60008301846129c7565b92915050565b600080600060608486031215612a0a57612a096127d9565b5b6000612a1886828701612827565b9350506020612a2986828701612827565b9250506040612a3a86828701612966565b9150509250925092565b600060ff82169050919050565b612a5a81612a44565b82525050565b6000602082019050612a756000830184612a51565b92915050565b612a84816127fe565b82525050565b6000602082019050612a9f6000830184612a7b565b92915050565b600060208284031215612abb57612aba6127d9565b5b6000612ac984828501612966565b91505092915050565b60008060408385031215612ae957612ae86127d9565b5b6000612af785828601612827565b9250506020612b0885828601612827565b9150509250929050565b7f4e487b7100000000000000000000000000000000000000000000000000000000600052602260045260246000fd5b60006002820490506001821680612b5957607f821691505b602082108103612b6c57612b6b612b12565b5b50919050565b7f4f776e61626c653a2063616c6c6572206973206e6f7420746865206f776e6572600082015250565b6000612ba86020836128a8565b9150612bb382612b72565b602082019050919050565b60006020820190508181036000830152612bd781612b9b565b9050919050565b7f546f6b656e7320616c7265616479206d696e7465642100000000000000000000600082015250565b6000612c146016836128a8565b9150612c1f82612bde565b602082019050919050565b60006020820190508181036000830152612c4381612c07565b9050919050565b7f4e487b7100000000000000000000000000000000000000000000000000000000600052601160045260246000fd5b60008160011c9050919050565b6000808291508390505b6001851115612cd057808604811115612cac57612cab612c4a565b5b6001851615612cbb5780820291505b8081029050612cc985612c79565b9450612c90565b94509492505050565b600082612ce95760019050612da5565b81612cf75760009050612da5565b8160018114612d0d5760028114612d1757612d46565b6001915050612da5565b60ff841115612d2957612d28612c4a565b5b8360020a915084821115612d4057612d3f612c4a565b5b50612da5565b5060208310610133831016604e8410600b8410161715612d7b5782820a905083811115612d7657612d75612c4a565b5b612da5565b612d888484846001612c86565b92509050818404811115612d9f57612d9e612c4a565b5b81810290505b9392505050565b6000612db782612869565b9150612dc283612a44565b9250612def7fffffffffffffffffffffffffffffffffffffffffffffffffffffffffffffffff8484612cd9565b905092915050565b6000612e0282612869565b9150612e0d83612869565b9250828202612e1b81612869565b91508282048414831517612e3257612e31612c4a565b5b5092915050565b7f45524332303a207472616e7366657220616d6f756e742065786365656473206160008201527f6c6c6f77616e6365000000000000000000000000000000000000000000000000602082015250565b6000612e956028836128a8565b9150612ea082612e39565b604082019050919050565b60006020820190508181036000830152612ec481612e88565b9050919050565b6000612ed682612869565b9150612ee183612869565b9250828201905080821115612ef957612ef8612c4a565b5b92915050565b7f496e76616c696420616d6f756e74210000000000000000000000000000000000600082015250565b6000612f35600f836128a8565b9150612f4082612eff565b602082019050919050565b60006020820190508181036000830152612f6481612f28565b9050919050565b7f54726164696e6720616c726561647920656e61626c65642e0000000000000000600082015250565b6000612fa16018836128a8565b9150612fac82612f6b565b602082019050919050565b60006020820190508181036000830152612fd081612f94565b9050919050565b7f546178206e6f74206d6f7265207468616e203230210000000000000000000000600082015250565b600061300d6015836128a8565b915061301882612fd7565b602082019050919050565b6000602082019050818103600083015261303c81613000565b9050919050565b7f45524332303a2064656372656173656420616c6c6f77616e63652062656c6f7760008201527f207a65726f000000000000000000000000000000000000000000000000000000602082015250565b600061309f6025836128a8565b91506130aa82613043565b604082019050919050565b600060208201905081810360008301526130ce81613092565b9050919050565b7f4163636f756e7420616c7265616479206578636c756465640000000000000000600082015250565b600061310b6018836128a8565b9150613116826130d5565b602082019050919050565b6000602082019050818103600083015261313a816130fe565b9050919050565b7f4f776e61626c653a206e6577206f776e657220697320746865207a65726f206160008201527f6464726573730000000000000000000000000000000000000000000000000000602082015250565b600061319d6026836128a8565b91506131a882613141565b604082019050919050565b600060208201905081810360008301526131cc81613190565b9050919050565b7f45524332303a20617070726f76652066726f6d20746865207a65726f2061646460008201527f7265737300000000000000000000000000000000000000000000000000000000602082015250565b600061322f6024836128a8565b915061323a826131d3565b604082019050919050565b6000602082019050818103600083015261325e81613222565b9050919050565b7f45524332303a20617070726f766520746f20746865207a65726f20616464726560008201527f7373000000000000000000000000000000000000000000000000000000000000602082015250565b60006132c16022836128a8565b91506132cc82613265565b604082019050919050565b600060208201905081810360008301526132f0816132b4565b9050919050565b7f45524332303a206d696e7420746f20746865207a65726f206164647265737300600082015250565b600061332d601f836128a8565b9150613338826132f7565b602082019050919050565b6000602082019050818103600083015261335c81613320565b9050919050565b7f45524332303a207472616e736665722066726f6d20746865207a65726f20616460008201527f6472657373000000000000000000000000000000000000000000000000000000602082015250565b60006133bf6025836128a8565b91506133ca82613363565b604082019050919050565b600060208201905081810360008301526133ee816133b2565b9050919050565b7f45524332303a207472616e7366657220746f20746865207a65726f206164647260008201527f6573730000000000000000000000000000000000000000000000000000000000602082015250565b60006134516023836128a8565b915061345c826133f5565b604082019050919050565b6000602082019050818103600083015261348081613444565b9050919050565b7f54726164696e67206e6f742079657420656e61626c6564210000000000000000600082015250565b60006134bd6018836128a8565b91506134c882613487565b602082019050919050565b600060208201905081810360008301526134ec816134b0565b9050919050565b7f4e487b7100000000000000000000000000000000000000000000000000000000600052601260045260246000fd5b600061352d82612869565b915061353883612869565b925082613548576135476134f3565b5b828204905092915050565b7f416d6f756e742069732067726561746572207468616e204d617853656c6c616260008201527f6c65416d6f756e74000000000000000000000000000000000000000000000000602082015250565b60006135af6028836128a8565b91506135ba82613553565b604082019050919050565b600060208201905081810360008301526135de816135a2565b9050919050565b60006135f082612869565b91506135fb83612869565b925082820390508181111561361357613612612c4a565b5b92915050565b7f5472616e736665722072657374726963746564206265666f726520323420686f60008201527f7572730000000000000000000000000000000000000000000000000000000000602082015250565b60006136756023836128a8565b915061368082613619565b604082019050919050565b600060208201905081810360008301526136a481613668565b9050919050565b7f45524332303a207472616e7366657220616d6f756e742065786365656473206260008201527f616c616e63650000000000000000000000000000000000000000000000000000602082015250565b60006137076026836128a8565b9150613712826136ab565b604082019050919050565b60006020820190508181036000830152613736816136fa565b905091905056fea26469706673582212203efe5ff28ba2983de215be1e6351ddeddaac71a5ea094cc32a0ce5379c771e0d64736f6c63430008130033",
					"opcodes": "PUSH1 0x80 PUSH1 0x40 MSTORE PUSH1 0x0 PUSH1 0xA PUSH1 0x15 PUSH2 0x100 EXP DUP2 SLOAD DUP2 PUSH1 0xFF MUL NOT AND SWAP1 DUP4 ISZERO ISZERO MUL OR SWAP1 SSTORE POP PUSH1 0x0 PUSH1 0xC PUSH1 0x0 PUSH2 0x100 EXP DUP2 SLOAD DUP2 PUSH1 0xFF MUL NOT AND SWAP1 DUP4 ISZERO ISZERO MUL OR SWAP1 SSTORE POP PUSH1 0x0 PUSH1 0xC PUSH1 0x1 PUSH2 0x100 EXP DUP2 SLOAD DUP2 PUSH1 0xFF MUL NOT AND SWAP1 DUP4 ISZERO ISZERO MUL OR SWAP1 SSTORE POP CALLVALUE DUP1 ISZERO PUSH3 0x62 JUMPI PUSH1 0x0 DUP1 REVERT JUMPDEST POP PUSH1 0x40 MLOAD DUP1 PUSH1 0x40 ADD PUSH1 0x40 MSTORE DUP1 PUSH1 0x9 DUP2 MSTORE PUSH1 0x20 ADD PUSH32 0x477265656C616E63650000000000000000000000000000000000000000000000 DUP2 MSTORE POP PUSH1 0x40 MLOAD DUP1 PUSH1 0x40 ADD PUSH1 0x40 MSTORE DUP1 PUSH1 0x3 DUP2 MSTORE PUSH1 0x20 ADD PUSH32 0x47524C0000000000000000000000000000000000000000000000000000000000 DUP2 MSTORE POP DUP2 PUSH1 0x3 SWAP1 DUP2 PUSH3 0xE0 SWAP2 SWAP1 PUSH3 0x567 JUMP JUMPDEST POP DUP1 PUSH1 0x4 SWAP1 DUP2 PUSH3 0xF2 SWAP2 SWAP1 PUSH3 0x567 JUMP JUMPDEST POP POP POP PUSH1 0x0 PUSH3 0x107 PUSH3 0x2BB PUSH1 0x20 SHL PUSH1 0x20 SHR JUMP JUMPDEST SWAP1 POP DUP1 PUSH1 0x5 PUSH1 0x0 PUSH2 0x100 EXP DUP2 SLOAD DUP2 PUSH20 0xFFFFFFFFFFFFFFFFFFFFFFFFFFFFFFFFFFFFFFFF MUL NOT AND SWAP1 DUP4 PUSH20 0xFFFFFFFFFFFFFFFFFFFFFFFFFFFFFFFFFFFFFFFF AND MUL OR SWAP1 SSTORE POP DUP1 PUSH20 0xFFFFFFFFFFFFFFFFFFFFFFFFFFFFFFFFFFFFFFFF AND PUSH1 0x0 PUSH20 0xFFFFFFFFFFFFFFFFFFFFFFFFFFFFFFFFFFFFFFFF AND PUSH32 0x8BE0079C531659141344CD1FD0A4F28419497F9722A3DAAFE3B4186F6B6457E0 PUSH1 0x40 MLOAD PUSH1 0x40 MLOAD DUP1 SWAP2 SUB SWAP1 LOG3 POP PUSH3 0x1B6 PUSH3 0x2C3 PUSH1 0x20 SHL PUSH1 0x20 SHR JUMP JUMPDEST PUSH1 0xA PUSH1 0x0 PUSH2 0x100 EXP DUP2 SLOAD DUP2 PUSH20 0xFFFFFFFFFFFFFFFFFFFFFFFFFFFFFFFFFFFFFFFF MUL NOT AND SWAP1 DUP4 PUSH20 0xFFFFFFFFFFFFFFFFFFFFFFFFFFFFFFFFFFFFFFFF AND MUL OR SWAP1 SSTORE POP PUSH1 0x1 PUSH1 0x7 PUSH1 0x0 PUSH3 0x20C PUSH3 0x2C3 PUSH1 0x20 SHL PUSH1 0x20 SHR JUMP JUMPDEST PUSH20 0xFFFFFFFFFFFFFFFFFFFFFFFFFFFFFFFFFFFFFFFF AND PUSH20 0xFFFFFFFFFFFFFFFFFFFFFFFFFFFFFFFFFFFFFFFF AND DUP2 MSTORE PUSH1 0x20 ADD SWAP1 DUP2 MSTORE PUSH1 0x20 ADD PUSH1 0x0 KECCAK256 PUSH1 0x0 PUSH2 0x100 EXP DUP2 SLOAD DUP2 PUSH1 0xFF MUL NOT AND SWAP1 DUP4 ISZERO ISZERO MUL OR SWAP1 SSTORE POP PUSH1 0x1 PUSH1 0x7 PUSH1 0x0 ADDRESS PUSH20 0xFFFFFFFFFFFFFFFFFFFFFFFFFFFFFFFFFFFFFFFF AND PUSH20 0xFFFFFFFFFFFFFFFFFFFFFFFFFFFFFFFFFFFFFFFF AND DUP2 MSTORE PUSH1 0x20 ADD SWAP1 DUP2 MSTORE PUSH1 0x20 ADD PUSH1 0x0 KECCAK256 PUSH1 0x0 PUSH2 0x100 EXP DUP2 SLOAD DUP2 PUSH1 0xFF MUL NOT AND SWAP1 DUP4 ISZERO ISZERO MUL OR SWAP1 SSTORE POP PUSH3 0x64E JUMP JUMPDEST PUSH1 0x0 CALLER SWAP1 POP SWAP1 JUMP JUMPDEST PUSH1 0x0 PUSH1 0x5 PUSH1 0x0 SWAP1 SLOAD SWAP1 PUSH2 0x100 EXP SWAP1 DIV PUSH20 0xFFFFFFFFFFFFFFFFFFFFFFFFFFFFFFFFFFFFFFFF AND SWAP1 POP SWAP1 JUMP JUMPDEST PUSH1 0x0 DUP2 MLOAD SWAP1 POP SWAP2 SWAP1 POP JUMP JUMPDEST PUSH32 0x4E487B7100000000000000000000000000000000000000000000000000000000 PUSH1 0x0 MSTORE PUSH1 0x41 PUSH1 0x4 MSTORE PUSH1 0x24 PUSH1 0x0 REVERT JUMPDEST PUSH32 0x4E487B7100000000000000000000000000000000000000000000000000000000 PUSH1 0x0 MSTORE PUSH1 0x22 PUSH1 0x4 MSTORE PUSH1 0x24 PUSH1 0x0 REVERT JUMPDEST PUSH1 0x0 PUSH1 0x2 DUP3 DIV SWAP1 POP PUSH1 0x1 DUP3 AND DUP1 PUSH3 0x36F JUMPI PUSH1 0x7F DUP3 AND SWAP2 POP JUMPDEST PUSH1 0x20 DUP3 LT DUP2 SUB PUSH3 0x385 JUMPI PUSH3 0x384 PUSH3 0x327 JUMP JUMPDEST JUMPDEST POP SWAP2 SWAP1 POP JUMP JUMPDEST PUSH1 0x0 DUP2 SWAP1 POP DUP2 PUSH1 0x0 MSTORE PUSH1 0x20 PUSH1 0x0 KECCAK256 SWAP1 POP SWAP2 SWAP1 POP JUMP JUMPDEST PUSH1 0x0 PUSH1 0x20 PUSH1 0x1F DUP4 ADD DIV SWAP1 POP SWAP2 SWAP1 POP JUMP JUMPDEST PUSH1 0x0 DUP3 DUP3 SHL SWAP1 POP SWAP3 SWAP2 POP POP JUMP JUMPDEST PUSH1 0x0 PUSH1 0x8 DUP4 MUL PUSH3 0x3EF PUSH32 0xFFFFFFFFFFFFFFFFFFFFFFFFFFFFFFFFFFFFFFFFFFFFFFFFFFFFFFFFFFFFFFFF DUP3 PUSH3 0x3B0 JUMP JUMPDEST PUSH3 0x3FB DUP7 DUP4 PUSH3 0x3B0 JUMP JUMPDEST SWAP6 POP DUP1 NOT DUP5 AND SWAP4 POP DUP1 DUP7 AND DUP5 OR SWAP3 POP POP POP SWAP4 SWAP3 POP POP POP JUMP JUMPDEST PUSH1 0x0 DUP2 SWAP1 POP SWAP2 SWAP1 POP JUMP JUMPDEST PUSH1 0x0 DUP2 SWAP1 POP SWAP2 SWAP1 POP JUMP JUMPDEST PUSH1 0x0 PUSH3 0x448 PUSH3 0x442 PUSH3 0x43C DUP5 PUSH3 0x413 JUMP JUMPDEST PUSH3 0x41D JUMP JUMPDEST PUSH3 0x413 JUMP JUMPDEST SWAP1 POP SWAP2 SWAP1 POP JUMP JUMPDEST PUSH1 0x0 DUP2 SWAP1 POP SWAP2 SWAP1 POP JUMP JUMPDEST PUSH3 0x464 DUP4 PUSH3 0x427 JUMP JUMPDEST PUSH3 0x47C PUSH3 0x473 DUP3 PUSH3 0x44F JUMP JUMPDEST DUP5 DUP5 SLOAD PUSH3 0x3BD JUMP JUMPDEST DUP3 SSTORE POP POP POP POP JUMP JUMPDEST PUSH1 0x0 SWAP1 JUMP JUMPDEST PUSH3 0x493 PUSH3 0x484 JUMP JUMPDEST PUSH3 0x4A0 DUP2 DUP5 DUP5 PUSH3 0x459 JUMP JUMPDEST POP POP POP JUMP JUMPDEST JUMPDEST DUP2 DUP2 LT ISZERO PUSH3 0x4C8 JUMPI PUSH3 0x4BC PUSH1 0x0 DUP3 PUSH3 0x489 JUMP JUMPDEST PUSH1 0x1 DUP2 ADD SWAP1 POP PUSH3 0x4A6 JUMP JUMPDEST POP POP JUMP JUMPDEST PUSH1 0x1F DUP3 GT ISZERO PUSH3 0x517 JUMPI PUSH3 0x4E1 DUP2 PUSH3 0x38B JUMP JUMPDEST PUSH3 0x4EC DUP5 PUSH3 0x3A0 JUMP JUMPDEST DUP2 ADD PUSH1 0x20 DUP6 LT ISZERO PUSH3 0x4FC JUMPI DUP2 SWAP1 POP JUMPDEST PUSH3 0x514 PUSH3 0x50B DUP6 PUSH3 0x3A0 JUMP JUMPDEST DUP4 ADD DUP3 PUSH3 0x4A5 JUMP JUMPDEST POP POP JUMPDEST POP POP POP JUMP JUMPDEST PUSH1 0x0 DUP3 DUP3 SHR SWAP1 POP SWAP3 SWAP2 POP POP JUMP JUMPDEST PUSH1 0x0 PUSH3 0x53C PUSH1 0x0 NOT DUP5 PUSH1 0x8 MUL PUSH3 0x51C JUMP JUMPDEST NOT DUP1 DUP4 AND SWAP2 POP POP SWAP3 SWAP2 POP POP JUMP JUMPDEST PUSH1 0x0 PUSH3 0x557 DUP4 DUP4 PUSH3 0x529 JUMP JUMPDEST SWAP2 POP DUP3 PUSH1 0x2 MUL DUP3 OR SWAP1 POP SWAP3 SWAP2 POP POP JUMP JUMPDEST PUSH3 0x572 DUP3 PUSH3 0x2ED JUMP JUMPDEST PUSH8 0xFFFFFFFFFFFFFFFF DUP2 GT ISZERO PUSH3 0x58E JUMPI PUSH3 0x58D PUSH3 0x2F8 JUMP JUMPDEST JUMPDEST PUSH3 0x59A DUP3 SLOAD PUSH3 0x356 JUMP JUMPDEST PUSH3 0x5A7 DUP3 DUP3 DUP6 PUSH3 0x4CC JUMP JUMPDEST PUSH1 0x0 PUSH1 0x20 SWAP1 POP PUSH1 0x1F DUP4 GT PUSH1 0x1 DUP2 EQ PUSH3 0x5DF JUMPI PUSH1 0x0 DUP5 ISZERO PUSH3 0x5CA JUMPI DUP3 DUP8 ADD MLOAD SWAP1 POP JUMPDEST PUSH3 0x5D6 DUP6 DUP3 PUSH3 0x549 JUMP JUMPDEST DUP7 SSTORE POP PUSH3 0x646 JUMP JUMPDEST PUSH1 0x1F NOT DUP5 AND PUSH3 0x5EF DUP7 PUSH3 0x38B JUMP JUMPDEST PUSH1 0x0 JUMPDEST DUP3 DUP2 LT ISZERO PUSH3 0x619 JUMPI DUP5 DUP10 ADD MLOAD DUP3 SSTORE PUSH1 0x1 DUP3 ADD SWAP2 POP PUSH1 0x20 DUP6 ADD SWAP5 POP PUSH1 0x20 DUP2 ADD SWAP1 POP PUSH3 0x5F2 JUMP JUMPDEST DUP7 DUP4 LT ISZERO PUSH3 0x639 JUMPI DUP5 DUP10 ADD MLOAD PUSH3 0x635 PUSH1 0x1F DUP10 AND DUP3 PUSH3 0x529 JUMP JUMPDEST DUP4 SSTORE POP JUMPDEST PUSH1 0x1 PUSH1 0x2 DUP9 MUL ADD DUP9 SSTORE POP POP POP JUMPDEST POP POP POP POP POP POP JUMP JUMPDEST PUSH2 0x3773 DUP1 PUSH3 0x65E PUSH1 0x0 CODECOPY PUSH1 0x0 RETURN INVALID PUSH1 0x80 PUSH1 0x40 MSTORE PUSH1 0x4 CALLDATASIZE LT PUSH2 0x208 JUMPI PUSH1 0x0 CALLDATALOAD PUSH1 0xE0 SHR DUP1 PUSH4 0x6DA492DC GT PUSH2 0x118 JUMPI DUP1 PUSH4 0xA457C2D7 GT PUSH2 0xA0 JUMPI DUP1 PUSH4 0xBEA1DCF8 GT PUSH2 0x6F JUMPI DUP1 PUSH4 0xBEA1DCF8 EQ PUSH2 0x742 JUMPI DUP1 PUSH4 0xD5AED6BF EQ PUSH2 0x76D JUMPI DUP1 PUSH4 0xDD62ED3E EQ PUSH2 0x796 JUMPI DUP1 PUSH4 0xE57F14E1 EQ PUSH2 0x7D3 JUMPI DUP1 PUSH4 0xF2FDE38B EQ PUSH2 0x7FC JUMPI PUSH2 0x20F JUMP JUMPDEST DUP1 PUSH4 0xA457C2D7 EQ PUSH2 0x674 JUMPI DUP1 PUSH4 0xA56D37F9 EQ PUSH2 0x6B1 JUMPI DUP1 PUSH4 0xA9059CBB EQ PUSH2 0x6DA JUMPI DUP1 PUSH4 0xAB4EBC1E EQ PUSH2 0x717 JUMPI PUSH2 0x20F JUMP JUMPDEST DUP1 PUSH4 0x8D6366FE GT PUSH2 0xE7 JUMPI DUP1 PUSH4 0x8D6366FE EQ PUSH2 0x59F JUMPI DUP1 PUSH4 0x8DA5CB5B EQ PUSH2 0x5CA JUMPI DUP1 PUSH4 0x95D89B41 EQ PUSH2 0x5F5 JUMPI DUP1 PUSH4 0x9C0B9D74 EQ PUSH2 0x620 JUMPI DUP1 PUSH4 0x9EC4BE41 EQ PUSH2 0x64B JUMPI PUSH2 0x20F JUMP JUMPDEST DUP1 PUSH4 0x6DA492DC EQ PUSH2 0x51D JUMPI DUP1 PUSH4 0x70A08231 EQ PUSH2 0x534 JUMPI DUP1 PUSH4 0x715018A6 EQ PUSH2 0x571 JUMPI DUP1 PUSH4 0x8A8C523C EQ PUSH2 0x588 JUMPI PUSH2 0x20F JUMP JUMPDEST DUP1 PUSH4 0x2EFA788B GT PUSH2 0x19B JUMPI DUP1 PUSH4 0x4AB3BDCB GT PUSH2 0x16A JUMPI DUP1 PUSH4 0x4AB3BDCB EQ PUSH2 0x424 JUMPI DUP1 PUSH4 0x4ADA218B EQ PUSH2 0x44D JUMPI DUP1 PUSH4 0x4FBEE193 EQ PUSH2 0x478 JUMPI DUP1 PUSH4 0x537EED34 EQ PUSH2 0x4B5 JUMPI DUP1 PUSH4 0x630A8A0C EQ PUSH2 0x4E0 JUMPI PUSH2 0x20F JUMP JUMPDEST DUP1 PUSH4 0x2EFA788B EQ PUSH2 0x37A JUMPI DUP1 PUSH4 0x313CE567 EQ PUSH2 0x391 JUMPI DUP1 PUSH4 0x39509351 EQ PUSH2 0x3BC JUMPI DUP1 PUSH4 0x49BD5A5E EQ PUSH2 0x3F9 JUMPI PUSH2 0x20F JUMP JUMPDEST DUP1 PUSH4 0x1249C58B GT PUSH2 0x1D7 JUMPI DUP1 PUSH4 0x1249C58B EQ PUSH2 0x2D0 JUMPI DUP1 PUSH4 0x142BC858 EQ PUSH2 0x2E7 JUMPI DUP1 PUSH4 0x18160DDD EQ PUSH2 0x312 JUMPI DUP1 PUSH4 0x23B872DD EQ PUSH2 0x33D JUMPI PUSH2 0x20F JUMP JUMPDEST DUP1 PUSH4 0x3186EEF EQ PUSH2 0x214 JUMPI DUP1 PUSH4 0x6FDDE03 EQ PUSH2 0x251 JUMPI DUP1 PUSH4 0x907EA0B EQ PUSH2 0x27C JUMPI DUP1 PUSH4 0x95EA7B3 EQ PUSH2 0x293 JUMPI PUSH2 0x20F JUMP JUMPDEST CALLDATASIZE PUSH2 0x20F JUMPI STOP JUMPDEST PUSH1 0x0 DUP1 REVERT JUMPDEST CALLVALUE DUP1 ISZERO PUSH2 0x220 JUMPI PUSH1 0x0 DUP1 REVERT JUMPDEST POP PUSH2 0x23B PUSH1 0x4 DUP1 CALLDATASIZE SUB DUP2 ADD SWAP1 PUSH2 0x236 SWAP2 SWAP1 PUSH2 0x283C JUMP JUMPDEST PUSH2 0x825 JUMP JUMPDEST PUSH1 0x40 MLOAD PUSH2 0x248 SWAP2 SWAP1 PUSH2 0x2882 JUMP JUMPDEST PUSH1 0x40 MLOAD DUP1 SWAP2 SUB SWAP1 RETURN JUMPDEST CALLVALUE DUP1 ISZERO PUSH2 0x25D JUMPI PUSH1 0x0 DUP1 REVERT JUMPDEST POP PUSH2 0x266 PUSH2 0x83D JUMP JUMPDEST PUSH1 0x40 MLOAD PUSH2 0x273 SWAP2 SWAP1 PUSH2 0x292D JUMP JUMPDEST PUSH1 0x40 MLOAD DUP1 SWAP2 SUB SWAP1 RETURN JUMPDEST CALLVALUE DUP1 ISZERO PUSH2 0x288 JUMPI PUSH1 0x0 DUP1 REVERT JUMPDEST POP PUSH2 0x291 PUSH2 0x8CF JUMP JUMPDEST STOP JUMPDEST CALLVALUE DUP1 ISZERO PUSH2 0x29F JUMPI PUSH1 0x0 DUP1 REVERT JUMPDEST POP PUSH2 0x2BA PUSH1 0x4 DUP1 CALLDATASIZE SUB DUP2 ADD SWAP1 PUSH2 0x2B5 SWAP2 SWAP1 PUSH2 0x297B JUMP JUMPDEST PUSH2 0x983 JUMP JUMPDEST PUSH1 0x40 MLOAD PUSH2 0x2C7 SWAP2 SWAP1 PUSH2 0x29D6 JUMP JUMPDEST PUSH1 0x40 MLOAD DUP1 SWAP2 SUB SWAP1 RETURN JUMPDEST CALLVALUE DUP1 ISZERO PUSH2 0x2DC JUMPI PUSH1 0x0 DUP1 REVERT JUMPDEST POP PUSH2 0x2E5 PUSH2 0x9A1 JUMP JUMPDEST STOP JUMPDEST CALLVALUE DUP1 ISZERO PUSH2 0x2F3 JUMPI PUSH1 0x0 DUP1 REVERT JUMPDEST POP PUSH2 0x2FC PUSH2 0xAD8 JUMP JUMPDEST PUSH1 0x40 MLOAD PUSH2 0x309 SWAP2 SWAP1 PUSH2 0x29D6 JUMP JUMPDEST PUSH1 0x40 MLOAD DUP1 SWAP2 SUB SWAP1 RETURN JUMPDEST CALLVALUE DUP1 ISZERO PUSH2 0x31E JUMPI PUSH1 0x0 DUP1 REVERT JUMPDEST POP PUSH2 0x327 PUSH2 0xAEB JUMP JUMPDEST PUSH1 0x40 MLOAD PUSH2 0x334 SWAP2 SWAP1 PUSH2 0x2882 JUMP JUMPDEST PUSH1 0x40 MLOAD DUP1 SWAP2 SUB SWAP1 RETURN JUMPDEST CALLVALUE DUP1 ISZERO PUSH2 0x349 JUMPI PUSH1 0x0 DUP1 REVERT JUMPDEST POP PUSH2 0x364 PUSH1 0x4 DUP1 CALLDATASIZE SUB DUP2 ADD SWAP1 PUSH2 0x35F SWAP2 SWAP1 PUSH2 0x29F1 JUMP JUMPDEST PUSH2 0xAF5 JUMP JUMPDEST PUSH1 0x40 MLOAD PUSH2 0x371 SWAP2 SWAP1 PUSH2 0x29D6 JUMP JUMPDEST PUSH1 0x40 MLOAD DUP1 SWAP2 SUB SWAP1 RETURN JUMPDEST CALLVALUE DUP1 ISZERO PUSH2 0x386 JUMPI PUSH1 0x0 DUP1 REVERT JUMPDEST POP PUSH2 0x38F PUSH2 0xC14 JUMP JUMPDEST STOP JUMPDEST CALLVALUE DUP1 ISZERO PUSH2 0x39D JUMPI PUSH1 0x0 DUP1 REVERT JUMPDEST POP PUSH2 0x3A6 PUSH2 0xCC8 JUMP JUMPDEST PUSH1 0x40 MLOAD PUSH2 0x3B3 SWAP2 SWAP1 PUSH2 0x2A60 JUMP JUMPDEST PUSH1 0x40 MLOAD DUP1 SWAP2 SUB SWAP1 RETURN JUMPDEST CALLVALUE DUP1 ISZERO PUSH2 0x3C8 JUMPI PUSH1 0x0 DUP1 REVERT JUMPDEST POP PUSH2 0x3E3 PUSH1 0x4 DUP1 CALLDATASIZE SUB DUP2 ADD SWAP1 PUSH2 0x3DE SWAP2 SWAP1 PUSH2 0x297B JUMP JUMPDEST PUSH2 0xCD1 JUMP JUMPDEST PUSH1 0x40 MLOAD PUSH2 0x3F0 SWAP2 SWAP1 PUSH2 0x29D6 JUMP JUMPDEST PUSH1 0x40 MLOAD DUP1 SWAP2 SUB SWAP1 RETURN JUMPDEST CALLVALUE DUP1 ISZERO PUSH2 0x405 JUMPI PUSH1 0x0 DUP1 REVERT JUMPDEST POP PUSH2 0x40E PUSH2 0xD7D JUMP JUMPDEST PUSH1 0x40 MLOAD PUSH2 0x41B SWAP2 SWAP1 PUSH2 0x2A8A JUMP JUMPDEST PUSH1 0x40 MLOAD DUP1 SWAP2 SUB SWAP1 RETURN JUMPDEST CALLVALUE DUP1 ISZERO PUSH2 0x430 JUMPI PUSH1 0x0 DUP1 REVERT JUMPDEST POP PUSH2 0x44B PUSH1 0x4 DUP1 CALLDATASIZE SUB DUP2 ADD SWAP1 PUSH2 0x446 SWAP2 SWAP1 PUSH2 0x2AA5 JUMP JUMPDEST PUSH2 0xDA3 JUMP JUMPDEST STOP JUMPDEST CALLVALUE DUP1 ISZERO PUSH2 0x459 JUMPI PUSH1 0x0 DUP1 REVERT JUMPDEST POP PUSH2 0x462 PUSH2 0xEA2 JUMP JUMPDEST PUSH1 0x40 MLOAD PUSH2 0x46F SWAP2 SWAP1 PUSH2 0x29D6 JUMP JUMPDEST PUSH1 0x40 MLOAD DUP1 SWAP2 SUB SWAP1 RETURN JUMPDEST CALLVALUE DUP1 ISZERO PUSH2 0x484 JUMPI PUSH1 0x0 DUP1 REVERT JUMPDEST POP PUSH2 0x49F PUSH1 0x4 DUP1 CALLDATASIZE SUB DUP2 ADD SWAP1 PUSH2 0x49A SWAP2 SWAP1 PUSH2 0x283C JUMP JUMPDEST PUSH2 0xEB5 JUMP JUMPDEST PUSH1 0x40 MLOAD PUSH2 0x4AC SWAP2 SWAP1 PUSH2 0x29D6 JUMP JUMPDEST PUSH1 0x40 MLOAD DUP1 SWAP2 SUB SWAP1 RETURN JUMPDEST CALLVALUE DUP1 ISZERO PUSH2 0x4C1 JUMPI PUSH1 0x0 DUP1 REVERT JUMPDEST POP PUSH2 0x4CA PUSH2 0xF0B JUMP JUMPDEST PUSH1 0x40 MLOAD PUSH2 0x4D7 SWAP2 SWAP1 PUSH2 0x2882 JUMP JUMPDEST PUSH1 0x40 MLOAD DUP1 SWAP2 SUB SWAP1 RETURN JUMPDEST CALLVALUE DUP1 ISZERO PUSH2 0x4EC JUMPI PUSH1 0x0 DUP1 REVERT JUMPDEST POP PUSH2 0x507 PUSH1 0x4 DUP1 CALLDATASIZE SUB DUP2 ADD SWAP1 PUSH2 0x502 SWAP2 SWAP1 PUSH2 0x283C JUMP JUMPDEST PUSH2 0xF11 JUMP JUMPDEST PUSH1 0x40 MLOAD PUSH2 0x514 SWAP2 SWAP1 PUSH2 0x2882 JUMP JUMPDEST PUSH1 0x40 MLOAD DUP1 SWAP2 SUB SWAP1 RETURN JUMPDEST CALLVALUE DUP1 ISZERO PUSH2 0x529 JUMPI PUSH1 0x0 DUP1 REVERT JUMPDEST POP PUSH2 0x532 PUSH2 0xF29 JUMP JUMPDEST STOP JUMPDEST CALLVALUE DUP1 ISZERO PUSH2 0x540 JUMPI PUSH1 0x0 DUP1 REVERT JUMPDEST POP PUSH2 0x55B PUSH1 0x4 DUP1 CALLDATASIZE SUB DUP2 ADD SWAP1 PUSH2 0x556 SWAP2 SWAP1 PUSH2 0x283C JUMP JUMPDEST PUSH2 0xFDD JUMP JUMPDEST PUSH1 0x40 MLOAD PUSH2 0x568 SWAP2 SWAP1 PUSH2 0x2882 JUMP JUMPDEST PUSH1 0x40 MLOAD DUP1 SWAP2 SUB SWAP1 RETURN JUMPDEST CALLVALUE DUP1 ISZERO PUSH2 0x57D JUMPI PUSH1 0x0 DUP1 REVERT JUMPDEST POP PUSH2 0x586 PUSH2 0x1025 JUMP JUMPDEST STOP JUMPDEST CALLVALUE DUP1 ISZERO PUSH2 0x594 JUMPI PUSH1 0x0 DUP1 REVERT JUMPDEST POP PUSH2 0x59D PUSH2 0x117D JUMP JUMPDEST STOP JUMPDEST CALLVALUE DUP1 ISZERO PUSH2 0x5AB JUMPI PUSH1 0x0 DUP1 REVERT JUMPDEST POP PUSH2 0x5B4 PUSH2 0x1281 JUMP JUMPDEST PUSH1 0x40 MLOAD PUSH2 0x5C1 SWAP2 SWAP1 PUSH2 0x29D6 JUMP JUMPDEST PUSH1 0x40 MLOAD DUP1 SWAP2 SUB SWAP1 RETURN JUMPDEST CALLVALUE DUP1 ISZERO PUSH2 0x5D6 JUMPI PUSH1 0x0 DUP1 REVERT JUMPDEST POP PUSH2 0x5DF PUSH2 0x1294 JUMP JUMPDEST PUSH1 0x40 MLOAD PUSH2 0x5EC SWAP2 SWAP1 PUSH2 0x2A8A JUMP JUMPDEST PUSH1 0x40 MLOAD DUP1 SWAP2 SUB SWAP1 RETURN JUMPDEST CALLVALUE DUP1 ISZERO PUSH2 0x601 JUMPI PUSH1 0x0 DUP1 REVERT JUMPDEST POP PUSH2 0x60A PUSH2 0x12BE JUMP JUMPDEST PUSH1 0x40 MLOAD PUSH2 0x617 SWAP2 SWAP1 PUSH2 0x292D JUMP JUMPDEST PUSH1 0x40 MLOAD DUP1 SWAP2 SUB SWAP1 RETURN JUMPDEST CALLVALUE DUP1 ISZERO PUSH2 0x62C JUMPI PUSH1 0x0 DUP1 REVERT JUMPDEST POP PUSH2 0x635 PUSH2 0x1350 JUMP JUMPDEST PUSH1 0x40 MLOAD PUSH2 0x642 SWAP2 SWAP1 PUSH2 0x2882 JUMP JUMPDEST PUSH1 0x40 MLOAD DUP1 SWAP2 SUB SWAP1 RETURN JUMPDEST CALLVALUE DUP1 ISZERO PUSH2 0x657 JUMPI PUSH1 0x0 DUP1 REVERT JUMPDEST POP PUSH2 0x672 PUSH1 0x4 DUP1 CALLDATASIZE SUB DUP2 ADD SWAP1 PUSH2 0x66D SWAP2 SWAP1 PUSH2 0x2AA5 JUMP JUMPDEST PUSH2 0x1356 JUMP JUMPDEST STOP JUMPDEST CALLVALUE DUP1 ISZERO PUSH2 0x680 JUMPI PUSH1 0x0 DUP1 REVERT JUMPDEST POP PUSH2 0x69B PUSH1 0x4 DUP1 CALLDATASIZE SUB DUP2 ADD SWAP1 PUSH2 0x696 SWAP2 SWAP1 PUSH2 0x297B JUMP JUMPDEST PUSH2 0x143B JUMP JUMPDEST PUSH1 0x40 MLOAD PUSH2 0x6A8 SWAP2 SWAP1 PUSH2 0x29D6 JUMP JUMPDEST PUSH1 0x40 MLOAD DUP1 SWAP2 SUB SWAP1 RETURN JUMPDEST CALLVALUE DUP1 ISZERO PUSH2 0x6BD JUMPI PUSH1 0x0 DUP1 REVERT JUMPDEST POP PUSH2 0x6D8 PUSH1 0x4 DUP1 CALLDATASIZE SUB DUP2 ADD SWAP1 PUSH2 0x6D3 SWAP2 SWAP1 PUSH2 0x2AA5 JUMP JUMPDEST PUSH2 0x1526 JUMP JUMPDEST STOP JUMPDEST CALLVALUE DUP1 ISZERO PUSH2 0x6E6 JUMPI PUSH1 0x0 DUP1 REVERT JUMPDEST POP PUSH2 0x701 PUSH1 0x4 DUP1 CALLDATASIZE SUB DUP2 ADD SWAP1 PUSH2 0x6FC SWAP2 SWAP1 PUSH2 0x297B JUMP JUMPDEST PUSH2 0x160B JUMP JUMPDEST PUSH1 0x40 MLOAD PUSH2 0x70E SWAP2 SWAP1 PUSH2 0x29D6 JUMP JUMPDEST PUSH1 0x40 MLOAD DUP1 SWAP2 SUB SWAP1 RETURN JUMPDEST CALLVALUE DUP1 ISZERO PUSH2 0x723 JUMPI PUSH1 0x0 DUP1 REVERT JUMPDEST POP PUSH2 0x72C PUSH2 0x1629 JUMP JUMPDEST PUSH1 0x40 MLOAD PUSH2 0x739 SWAP2 SWAP1 PUSH2 0x2882 JUMP JUMPDEST PUSH1 0x40 MLOAD DUP1 SWAP2 SUB SWAP1 RETURN JUMPDEST CALLVALUE DUP1 ISZERO PUSH2 0x74E JUMPI PUSH1 0x0 DUP1 REVERT JUMPDEST POP PUSH2 0x757 PUSH2 0x162F JUMP JUMPDEST PUSH1 0x40 MLOAD PUSH2 0x764 SWAP2 SWAP1 PUSH2 0x2A8A JUMP JUMPDEST PUSH1 0x40 MLOAD DUP1 SWAP2 SUB SWAP1 RETURN JUMPDEST CALLVALUE DUP1 ISZERO PUSH2 0x779 JUMPI PUSH1 0x0 DUP1 REVERT JUMPDEST POP PUSH2 0x794 PUSH1 0x4 DUP1 CALLDATASIZE SUB DUP2 ADD SWAP1 PUSH2 0x78F SWAP2 SWAP1 PUSH2 0x283C JUMP JUMPDEST PUSH2 0x1655 JUMP JUMPDEST STOP JUMPDEST CALLVALUE DUP1 ISZERO PUSH2 0x7A2 JUMPI PUSH1 0x0 DUP1 REVERT JUMPDEST POP PUSH2 0x7BD PUSH1 0x4 DUP1 CALLDATASIZE SUB DUP2 ADD SWAP1 PUSH2 0x7B8 SWAP2 SWAP1 PUSH2 0x2AD2 JUMP JUMPDEST PUSH2 0x1730 JUMP JUMPDEST PUSH1 0x40 MLOAD PUSH2 0x7CA SWAP2 SWAP1 PUSH2 0x2882 JUMP JUMPDEST PUSH1 0x40 MLOAD DUP1 SWAP2 SUB SWAP1 RETURN JUMPDEST CALLVALUE DUP1 ISZERO PUSH2 0x7DF JUMPI PUSH1 0x0 DUP1 REVERT JUMPDEST POP PUSH2 0x7FA PUSH1 0x4 DUP1 CALLDATASIZE SUB DUP2 ADD SWAP1 PUSH2 0x7F5 SWAP2 SWAP1 PUSH2 0x283C JUMP JUMPDEST PUSH2 0x17B7 JUMP JUMPDEST STOP JUMPDEST CALLVALUE DUP1 ISZERO PUSH2 0x808 JUMPI PUSH1 0x0 DUP1 REVERT JUMPDEST POP PUSH2 0x823 PUSH1 0x4 DUP1 CALLDATASIZE SUB DUP2 ADD SWAP1 PUSH2 0x81E SWAP2 SWAP1 PUSH2 0x283C JUMP JUMPDEST PUSH2 0x1985 JUMP JUMPDEST STOP JUMPDEST PUSH1 0xE PUSH1 0x20 MSTORE DUP1 PUSH1 0x0 MSTORE PUSH1 0x40 PUSH1 0x0 KECCAK256 PUSH1 0x0 SWAP2 POP SWAP1 POP SLOAD DUP2 JUMP JUMPDEST PUSH1 0x60 PUSH1 0x3 DUP1 SLOAD PUSH2 0x84C SWAP1 PUSH2 0x2B41 JUMP JUMPDEST DUP1 PUSH1 0x1F ADD PUSH1 0x20 DUP1 SWAP2 DIV MUL PUSH1 0x20 ADD PUSH1 0x40 MLOAD SWAP1 DUP2 ADD PUSH1 0x40 MSTORE DUP1 SWAP3 SWAP2 SWAP1 DUP2 DUP2 MSTORE PUSH1 0x20 ADD DUP3 DUP1 SLOAD PUSH2 0x878 SWAP1 PUSH2 0x2B41 JUMP JUMPDEST DUP1 ISZERO PUSH2 0x8C5 JUMPI DUP1 PUSH1 0x1F LT PUSH2 0x89A JUMPI PUSH2 0x100 DUP1 DUP4 SLOAD DIV MUL DUP4 MSTORE SWAP2 PUSH1 0x20 ADD SWAP2 PUSH2 0x8C5 JUMP JUMPDEST DUP3 ADD SWAP2 SWAP1 PUSH1 0x0 MSTORE PUSH1 0x20 PUSH1 0x0 KECCAK256 SWAP1 JUMPDEST DUP2 SLOAD DUP2 MSTORE SWAP1 PUSH1 0x1 ADD SWAP1 PUSH1 0x20 ADD DUP1 DUP4 GT PUSH2 0x8A8 JUMPI DUP3 SWAP1 SUB PUSH1 0x1F AND DUP3 ADD SWAP2 JUMPDEST POP POP POP POP POP SWAP1 POP SWAP1 JUMP JUMPDEST PUSH2 0x8D7 PUSH2 0x1B4B JUMP JUMPDEST PUSH20 0xFFFFFFFFFFFFFFFFFFFFFFFFFFFFFFFFFFFFFFFF AND PUSH1 0x5 PUSH1 0x0 SWAP1 SLOAD SWAP1 PUSH2 0x100 EXP SWAP1 DIV PUSH20 0xFFFFFFFFFFFFFFFFFFFFFFFFFFFFFFFFFFFFFFFF AND PUSH20 0xFFFFFFFFFFFFFFFFFFFFFFFFFFFFFFFFFFFFFFFF AND EQ PUSH2 0x966 JUMPI PUSH1 0x40 MLOAD PUSH32 0x8C379A000000000000000000000000000000000000000000000000000000000 DUP2 MSTORE PUSH1 0x4 ADD PUSH2 0x95D SWAP1 PUSH2 0x2BBE JUMP JUMPDEST PUSH1 0x40 MLOAD DUP1 SWAP2 SUB SWAP1 REVERT JUMPDEST PUSH1 0x0 PUSH1 0xC PUSH1 0x1 PUSH2 0x100 EXP DUP2 SLOAD DUP2 PUSH1 0xFF MUL NOT AND SWAP1 DUP4 ISZERO ISZERO MUL OR SWAP1 SSTORE POP JUMP JUMPDEST PUSH1 0x0 PUSH2 0x997 PUSH2 0x990 PUSH2 0x1B4B JUMP JUMPDEST DUP5 DUP5 PUSH2 0x1B53 JUMP JUMPDEST PUSH1 0x1 SWAP1 POP SWAP3 SWAP2 POP POP JUMP JUMPDEST PUSH2 0x9A9 PUSH2 0x1B4B JUMP JUMPDEST PUSH20 0xFFFFFFFFFFFFFFFFFFFFFFFFFFFFFFFFFFFFFFFF AND PUSH1 0x5 PUSH1 0x0 SWAP1 SLOAD SWAP1 PUSH2 0x100 EXP SWAP1 DIV PUSH20 0xFFFFFFFFFFFFFFFFFFFFFFFFFFFFFFFFFFFFFFFF AND PUSH20 0xFFFFFFFFFFFFFFFFFFFFFFFFFFFFFFFFFFFFFFFF AND EQ PUSH2 0xA38 JUMPI PUSH1 0x40 MLOAD PUSH32 0x8C379A000000000000000000000000000000000000000000000000000000000 DUP2 MSTORE PUSH1 0x4 ADD PUSH2 0xA2F SWAP1 PUSH2 0x2BBE JUMP JUMPDEST PUSH1 0x40 MLOAD DUP1 SWAP2 SUB SWAP1 REVERT JUMPDEST PUSH1 0xA PUSH1 0x15 SWAP1 SLOAD SWAP1 PUSH2 0x100 EXP SWAP1 DIV PUSH1 0xFF AND ISZERO PUSH2 0xA88 JUMPI PUSH1 0x40 MLOAD PUSH32 0x8C379A000000000000000000000000000000000000000000000000000000000 DUP2 MSTORE PUSH1 0x4 ADD PUSH2 0xA7F SWAP1 PUSH2 0x2C2A JUMP JUMPDEST PUSH1 0x40 MLOAD DUP1 SWAP2 SUB SWAP1 REVERT JUMPDEST PUSH1 0x1 PUSH1 0xA PUSH1 0x15 PUSH2 0x100 EXP DUP2 SLOAD DUP2 PUSH1 0xFF MUL NOT AND SWAP1 DUP4 ISZERO ISZERO MUL OR SWAP1 SSTORE POP PUSH2 0xAD6 PUSH2 0xAAE PUSH2 0x1294 JUMP JUMPDEST PUSH2 0xAB6 PUSH2 0xCC8 JUMP JUMPDEST PUSH1 0xA PUSH2 0xAC2 SWAP2 SWAP1 PUSH2 0x2DAC JUMP JUMPDEST PUSH4 0x77359400 PUSH2 0xAD1 SWAP2 SWAP1 PUSH2 0x2DF7 JUMP JUMPDEST PUSH2 0x1D1C JUMP JUMPDEST JUMP JUMPDEST PUSH1 0xC PUSH1 0x1 SWAP1 SLOAD SWAP1 PUSH2 0x100 EXP SWAP1 DIV PUSH1 0xFF AND DUP2 JUMP JUMPDEST PUSH1 0x0 PUSH1 0x2 SLOAD SWAP1 POP SWAP1 JUMP JUMPDEST PUSH1 0x0 DUP1 PUSH1 0x1 PUSH1 0x0 DUP7 PUSH20 0xFFFFFFFFFFFFFFFFFFFFFFFFFFFFFFFFFFFFFFFF AND PUSH20 0xFFFFFFFFFFFFFFFFFFFFFFFFFFFFFFFFFFFFFFFF AND DUP2 MSTORE PUSH1 0x20 ADD SWAP1 DUP2 MSTORE PUSH1 0x20 ADD PUSH1 0x0 KECCAK256 PUSH1 0x0 PUSH2 0xB41 PUSH2 0x1B4B JUMP JUMPDEST PUSH20 0xFFFFFFFFFFFFFFFFFFFFFFFFFFFFFFFFFFFFFFFF AND PUSH20 0xFFFFFFFFFFFFFFFFFFFFFFFFFFFFFFFFFFFFFFFF AND DUP2 MSTORE PUSH1 0x20 ADD SWAP1 DUP2 MSTORE PUSH1 0x20 ADD PUSH1 0x0 KECCAK256 SLOAD SWAP1 POP PUSH32 0xFFFFFFFFFFFFFFFFFFFFFFFFFFFFFFFFFFFFFFFFFFFFFFFFFFFFFFFFFFFFFFFF DUP2 EQ PUSH2 0xBFD JUMPI DUP3 DUP2 LT ISZERO PUSH2 0xBE8 JUMPI PUSH1 0x40 MLOAD PUSH32 0x8C379A000000000000000000000000000000000000000000000000000000000 DUP2 MSTORE PUSH1 0x4 ADD PUSH2 0xBDF SWAP1 PUSH2 0x2EAB JUMP JUMPDEST PUSH1 0x40 MLOAD DUP1 SWAP2 SUB SWAP1 REVERT JUMPDEST PUSH2 0xBFC DUP6 PUSH2 0xBF4 PUSH2 0x1B4B JUMP JUMPDEST DUP6 DUP5 SUB PUSH2 0x1B53 JUMP JUMPDEST JUMPDEST PUSH2 0xC08 DUP6 DUP6 DUP6 PUSH2 0x1E7B JUMP JUMPDEST PUSH1 0x1 SWAP2 POP POP SWAP4 SWAP3 POP POP POP JUMP JUMPDEST PUSH2 0xC1C PUSH2 0x1B4B JUMP JUMPDEST PUSH20 0xFFFFFFFFFFFFFFFFFFFFFFFFFFFFFFFFFFFFFFFF AND PUSH1 0x5 PUSH1 0x0 SWAP1 SLOAD SWAP1 PUSH2 0x100 EXP SWAP1 DIV PUSH20 0xFFFFFFFFFFFFFFFFFFFFFFFFFFFFFFFFFFFFFFFF AND PUSH20 0xFFFFFFFFFFFFFFFFFFFFFFFFFFFFFFFFFFFFFFFF AND EQ PUSH2 0xCAB JUMPI PUSH1 0x40 MLOAD PUSH32 0x8C379A000000000000000000000000000000000000000000000000000000000 DUP2 MSTORE PUSH1 0x4 ADD PUSH2 0xCA2 SWAP1 PUSH2 0x2BBE JUMP JUMPDEST PUSH1 0x40 MLOAD DUP1 SWAP2 SUB SWAP1 REVERT JUMPDEST PUSH1 0x1 PUSH1 0xC PUSH1 0x1 PUSH2 0x100 EXP DUP2 SLOAD DUP2 PUSH1 0xFF MUL NOT AND SWAP1 DUP4 ISZERO ISZERO MUL OR SWAP1 SSTORE POP JUMP JUMPDEST PUSH1 0x0 PUSH1 0x9 SWAP1 POP SWAP1 JUMP JUMPDEST PUSH1 0x0 PUSH2 0xD73 PUSH2 0xCDE PUSH2 0x1B4B JUMP JUMPDEST DUP5 DUP5 PUSH1 0x1 PUSH1 0x0 PUSH2 0xCEC PUSH2 0x1B4B JUMP JUMPDEST PUSH20 0xFFFFFFFFFFFFFFFFFFFFFFFFFFFFFFFFFFFFFFFF AND PUSH20 0xFFFFFFFFFFFFFFFFFFFFFFFFFFFFFFFFFFFFFFFF AND DUP2 MSTORE PUSH1 0x20 ADD SWAP1 DUP2 MSTORE PUSH1 0x20 ADD PUSH1 0x0 KECCAK256 PUSH1 0x0 DUP9 PUSH20 0xFFFFFFFFFFFFFFFFFFFFFFFFFFFFFFFFFFFFFFFF AND PUSH20 0xFFFFFFFFFFFFFFFFFFFFFFFFFFFFFFFFFFFFFFFF AND DUP2 MSTORE PUSH1 0x20 ADD SWAP1 DUP2 MSTORE PUSH1 0x20 ADD PUSH1 0x0 KECCAK256 SLOAD PUSH2 0xD6E SWAP2 SWAP1 PUSH2 0x2ECB JUMP JUMPDEST PUSH2 0x1B53 JUMP JUMPDEST PUSH1 0x1 SWAP1 POP SWAP3 SWAP2 POP POP JUMP JUMPDEST PUSH1 0x6 PUSH1 0x0 SWAP1 SLOAD SWAP1 PUSH2 0x100 EXP SWAP1 DIV PUSH20 0xFFFFFFFFFFFFFFFFFFFFFFFFFFFFFFFFFFFFFFFF AND DUP2 JUMP JUMPDEST PUSH2 0xDAB PUSH2 0x1B4B JUMP JUMPDEST PUSH20 0xFFFFFFFFFFFFFFFFFFFFFFFFFFFFFFFFFFFFFFFF AND PUSH1 0x5 PUSH1 0x0 SWAP1 SLOAD SWAP1 PUSH2 0x100 EXP SWAP1 DIV PUSH20 0xFFFFFFFFFFFFFFFFFFFFFFFFFFFFFFFFFFFFFFFF AND PUSH20 0xFFFFFFFFFFFFFFFFFFFFFFFFFFFFFFFFFFFFFFFF AND EQ PUSH2 0xE3A JUMPI PUSH1 0x40 MLOAD PUSH32 0x8C379A000000000000000000000000000000000000000000000000000000000 DUP2 MSTORE PUSH1 0x4 ADD PUSH2 0xE31 SWAP1 PUSH2 0x2BBE JUMP JUMPDEST PUSH1 0x40 MLOAD DUP1 SWAP2 SUB SWAP1 REVERT JUMPDEST PUSH1 0x0 DUP2 GT PUSH2 0xE7D JUMPI PUSH1 0x40 MLOAD PUSH32 0x8C379A000000000000000000000000000000000000000000000000000000000 DUP2 MSTORE PUSH1 0x4 ADD PUSH2 0xE74 SWAP1 PUSH2 0x2F4B JUMP JUMPDEST PUSH1 0x40 MLOAD DUP1 SWAP2 SUB SWAP1 REVERT JUMPDEST DUP1 PUSH1 0xB DUP2 SWAP1 SSTORE POP PUSH1 0x1 PUSH1 0xC PUSH1 0x0 PUSH2 0x100 EXP DUP2 SLOAD DUP2 PUSH1 0xFF MUL NOT AND SWAP1 DUP4 ISZERO ISZERO MUL OR SWAP1 SSTORE POP POP JUMP JUMPDEST PUSH1 0xA PUSH1 0x14 SWAP1 SLOAD SWAP1 PUSH2 0x100 EXP SWAP1 DIV PUSH1 0xFF AND DUP2 JUMP JUMPDEST PUSH1 0x0 PUSH1 0x7 PUSH1 0x0 DUP4 PUSH20 0xFFFFFFFFFFFFFFFFFFFFFFFFFFFFFFFFFFFFFFFF AND PUSH20 0xFFFFFFFFFFFFFFFFFFFFFFFFFFFFFFFFFFFFFFFF AND DUP2 MSTORE PUSH1 0x20 ADD SWAP1 DUP2 MSTORE PUSH1 0x20 ADD PUSH1 0x0 KECCAK256 PUSH1 0x0 SWAP1 SLOAD SWAP1 PUSH2 0x100 EXP SWAP1 DIV PUSH1 0xFF AND SWAP1 POP SWAP2 SWAP1 POP JUMP JUMPDEST PUSH1 0xB SLOAD DUP2 JUMP JUMPDEST PUSH1 0xD PUSH1 0x20 MSTORE DUP1 PUSH1 0x0 MSTORE PUSH1 0x40 PUSH1 0x0 KECCAK256 PUSH1 0x0 SWAP2 POP SWAP1 POP SLOAD DUP2 JUMP JUMPDEST PUSH2 0xF31 PUSH2 0x1B4B JUMP JUMPDEST PUSH20 0xFFFFFFFFFFFFFFFFFFFFFFFFFFFFFFFFFFFFFFFF AND PUSH1 0x5 PUSH1 0x0 SWAP1 SLOAD SWAP1 PUSH2 0x100 EXP SWAP1 DIV PUSH20 0xFFFFFFFFFFFFFFFFFFFFFFFFFFFFFFFFFFFFFFFF AND PUSH20 0xFFFFFFFFFFFFFFFFFFFFFFFFFFFFFFFFFFFFFFFF AND EQ PUSH2 0xFC0 JUMPI PUSH1 0x40 MLOAD PUSH32 0x8C379A000000000000000000000000000000000000000000000000000000000 DUP2 MSTORE PUSH1 0x4 ADD PUSH2 0xFB7 SWAP1 PUSH2 0x2BBE JUMP JUMPDEST PUSH1 0x40 MLOAD DUP1 SWAP2 SUB SWAP1 REVERT JUMPDEST PUSH1 0x0 PUSH1 0xC PUSH1 0x0 PUSH2 0x100 EXP DUP2 SLOAD DUP2 PUSH1 0xFF MUL NOT AND SWAP1 DUP4 ISZERO ISZERO MUL OR SWAP1 SSTORE POP JUMP JUMPDEST PUSH1 0x0 DUP1 PUSH1 0x0 DUP4 PUSH20 0xFFFFFFFFFFFFFFFFFFFFFFFFFFFFFFFFFFFFFFFF AND PUSH20 0xFFFFFFFFFFFFFFFFFFFFFFFFFFFFFFFFFFFFFFFF AND DUP2 MSTORE PUSH1 0x20 ADD SWAP1 DUP2 MSTORE PUSH1 0x20 ADD PUSH1 0x0 KECCAK256 SLOAD SWAP1 POP SWAP2 SWAP1 POP JUMP JUMPDEST PUSH2 0x102D PUSH2 0x1B4B JUMP JUMPDEST PUSH20 0xFFFFFFFFFFFFFFFFFFFFFFFFFFFFFFFFFFFFFFFF AND PUSH1 0x5 PUSH1 0x0 SWAP1 SLOAD SWAP1 PUSH2 0x100 EXP SWAP1 DIV PUSH20 0xFFFFFFFFFFFFFFFFFFFFFFFFFFFFFFFFFFFFFFFF AND PUSH20 0xFFFFFFFFFFFFFFFFFFFFFFFFFFFFFFFFFFFFFFFF AND EQ PUSH2 0x10BC JUMPI PUSH1 0x40 MLOAD PUSH32 0x8C379A000000000000000000000000000000000000000000000000000000000 DUP2 MSTORE PUSH1 0x4 ADD PUSH2 0x10B3 SWAP1 PUSH2 0x2BBE JUMP JUMPDEST PUSH1 0x40 MLOAD DUP1 SWAP2 SUB SWAP1 REVERT JUMPDEST PUSH1 0x0 PUSH20 0xFFFFFFFFFFFFFFFFFFFFFFFFFFFFFFFFFFFFFFFF AND PUSH1 0x5 PUSH1 0x0 SWAP1 SLOAD SWAP1 PUSH2 0x100 EXP SWAP1 DIV PUSH20 0xFFFFFFFFFFFFFFFFFFFFFFFFFFFFFFFFFFFFFFFF AND PUSH20 0xFFFFFFFFFFFFFFFFFFFFFFFFFFFFFFFFFFFFFFFF AND PUSH32 0x8BE0079C531659141344CD1FD0A4F28419497F9722A3DAAFE3B4186F6B6457E0 PUSH1 0x40 MLOAD PUSH1 0x40 MLOAD DUP1 SWAP2 SUB SWAP1 LOG3 PUSH1 0x0 PUSH1 0x5 PUSH1 0x0 PUSH2 0x100 EXP DUP2 SLOAD DUP2 PUSH20 0xFFFFFFFFFFFFFFFFFFFFFFFFFFFFFFFFFFFFFFFF MUL NOT AND SWAP1 DUP4 PUSH20 0xFFFFFFFFFFFFFFFFFFFFFFFFFFFFFFFFFFFFFFFF AND MUL OR SWAP1 SSTORE POP JUMP JUMPDEST PUSH2 0x1185 PUSH2 0x1B4B JUMP JUMPDEST PUSH20 0xFFFFFFFFFFFFFFFFFFFFFFFFFFFFFFFFFFFFFFFF AND PUSH1 0x5 PUSH1 0x0 SWAP1 SLOAD SWAP1 PUSH2 0x100 EXP SWAP1 DIV PUSH20 0xFFFFFFFFFFFFFFFFFFFFFFFFFFFFFFFFFFFFFFFF AND PUSH20 0xFFFFFFFFFFFFFFFFFFFFFFFFFFFFFFFFFFFFFFFF AND EQ PUSH2 0x1214 JUMPI PUSH1 0x40 MLOAD PUSH32 0x8C379A000000000000000000000000000000000000000000000000000000000 DUP2 MSTORE PUSH1 0x4 ADD PUSH2 0x120B SWAP1 PUSH2 0x2BBE JUMP JUMPDEST PUSH1 0x40 MLOAD DUP1 SWAP2 SUB SWAP1 REVERT JUMPDEST PUSH1 0xA PUSH1 0x14 SWAP1 SLOAD SWAP1 PUSH2 0x100 EXP SWAP1 DIV PUSH1 0xFF AND ISZERO PUSH2 0x1264 JUMPI PUSH1 0x40 MLOAD PUSH32 0x8C379A000000000000000000000000000000000000000000000000000000000 DUP2 MSTORE PUSH1 0x4 ADD PUSH2 0x125B SWAP1 PUSH2 0x2FB7 JUMP JUMPDEST PUSH1 0x40 MLOAD DUP1 SWAP2 SUB SWAP1 REVERT JUMPDEST PUSH1 0x1 PUSH1 0xA PUSH1 0x14 PUSH2 0x100 EXP DUP2 SLOAD DUP2 PUSH1 0xFF MUL NOT AND SWAP1 DUP4 ISZERO ISZERO MUL OR SWAP1 SSTORE POP JUMP JUMPDEST PUSH1 0xC PUSH1 0x0 SWAP1 SLOAD SWAP1 PUSH2 0x100 EXP SWAP1 DIV PUSH1 0xFF AND DUP2 JUMP JUMPDEST PUSH1 0x0 PUSH1 0x5 PUSH1 0x0 SWAP1 SLOAD SWAP1 PUSH2 0x100 EXP SWAP1 DIV PUSH20 0xFFFFFFFFFFFFFFFFFFFFFFFFFFFFFFFFFFFFFFFF AND SWAP1 POP SWAP1 JUMP JUMPDEST PUSH1 0x60 PUSH1 0x4 DUP1 SLOAD PUSH2 0x12CD SWAP1 PUSH2 0x2B41 JUMP JUMPDEST DUP1 PUSH1 0x1F ADD PUSH1 0x20 DUP1 SWAP2 DIV MUL PUSH1 0x20 ADD PUSH1 0x40 MLOAD SWAP1 DUP2 ADD PUSH1 0x40 MSTORE DUP1 SWAP3 SWAP2 SWAP1 DUP2 DUP2 MSTORE PUSH1 0x20 ADD DUP3 DUP1 SLOAD PUSH2 0x12F9 SWAP1 PUSH2 0x2B41 JUMP JUMPDEST DUP1 ISZERO PUSH2 0x1346 JUMPI DUP1 PUSH1 0x1F LT PUSH2 0x131B JUMPI PUSH2 0x100 DUP1 DUP4 SLOAD DIV MUL DUP4 MSTORE SWAP2 PUSH1 0x20 ADD SWAP2 PUSH2 0x1346 JUMP JUMPDEST DUP3 ADD SWAP2 SWAP1 PUSH1 0x0 MSTORE PUSH1 0x20 PUSH1 0x0 KECCAK256 SWAP1 JUMPDEST DUP2 SLOAD DUP2 MSTORE SWAP1 PUSH1 0x1 ADD SWAP1 PUSH1 0x20 ADD DUP1 DUP4 GT PUSH2 0x1329 JUMPI DUP3 SWAP1 SUB PUSH1 0x1F AND DUP3 ADD SWAP2 JUMPDEST POP POP POP POP POP SWAP1 POP SWAP1 JUMP JUMPDEST PUSH1 0x9 SLOAD DUP2 JUMP JUMPDEST PUSH2 0x135E PUSH2 0x1B4B JUMP JUMPDEST PUSH20 0xFFFFFFFFFFFFFFFFFFFFFFFFFFFFFFFFFFFFFFFF AND PUSH1 0x5 PUSH1 0x0 SWAP1 SLOAD SWAP1 PUSH2 0x100 EXP SWAP1 DIV PUSH20 0xFFFFFFFFFFFFFFFFFFFFFFFFFFFFFFFFFFFFFFFF AND PUSH20 0xFFFFFFFFFFFFFFFFFFFFFFFFFFFFFFFFFFFFFFFF AND EQ PUSH2 0x13ED JUMPI PUSH1 0x40 MLOAD PUSH32 0x8C379A000000000000000000000000000000000000000000000000000000000 DUP2 MSTORE PUSH1 0x4 ADD PUSH2 0x13E4 SWAP1 PUSH2 0x2BBE JUMP JUMPDEST PUSH1 0x40 MLOAD DUP1 SWAP2 SUB SWAP1 REVERT JUMPDEST PUSH1 0x14 DUP2 GT ISZERO PUSH2 0x1431 JUMPI PUSH1 0x40 MLOAD PUSH32 0x8C379A000000000000000000000000000000000000000000000000000000000 DUP2 MSTORE PUSH1 0x4 ADD PUSH2 0x1428 SWAP1 PUSH2 0x3023 JUMP JUMPDEST PUSH1 0x40 MLOAD DUP1 SWAP2 SUB SWAP1 REVERT JUMPDEST DUP1 PUSH1 0x9 DUP2 SWAP1 SSTORE POP POP JUMP JUMPDEST PUSH1 0x0 DUP1 PUSH1 0x1 PUSH1 0x0 PUSH2 0x144A PUSH2 0x1B4B JUMP JUMPDEST PUSH20 0xFFFFFFFFFFFFFFFFFFFFFFFFFFFFFFFFFFFFFFFF AND PUSH20 0xFFFFFFFFFFFFFFFFFFFFFFFFFFFFFFFFFFFFFFFF AND DUP2 MSTORE PUSH1 0x20 ADD SWAP1 DUP2 MSTORE PUSH1 0x20 ADD PUSH1 0x0 KECCAK256 PUSH1 0x0 DUP6 PUSH20 0xFFFFFFFFFFFFFFFFFFFFFFFFFFFFFFFFFFFFFFFF AND PUSH20 0xFFFFFFFFFFFFFFFFFFFFFFFFFFFFFFFFFFFFFFFF AND DUP2 MSTORE PUSH1 0x20 ADD SWAP1 DUP2 MSTORE PUSH1 0x20 ADD PUSH1 0x0 KECCAK256 SLOAD SWAP1 POP DUP3 DUP2 LT ISZERO PUSH2 0x1507 JUMPI PUSH1 0x40 MLOAD PUSH32 0x8C379A000000000000000000000000000000000000000000000000000000000 DUP2 MSTORE PUSH1 0x4 ADD PUSH2 0x14FE SWAP1 PUSH2 0x30B5 JUMP JUMPDEST PUSH1 0x40 MLOAD DUP1 SWAP2 SUB SWAP1 REVERT JUMPDEST PUSH2 0x151B PUSH2 0x1512 PUSH2 0x1B4B JUMP JUMPDEST DUP6 DUP6 DUP5 SUB PUSH2 0x1B53 JUMP JUMPDEST PUSH1 0x1 SWAP2 POP POP SWAP3 SWAP2 POP POP JUMP JUMPDEST PUSH2 0x152E PUSH2 0x1B4B JUMP JUMPDEST PUSH20 0xFFFFFFFFFFFFFFFFFFFFFFFFFFFFFFFFFFFFFFFF AND PUSH1 0x5 PUSH1 0x0 SWAP1 SLOAD SWAP1 PUSH2 0x100 EXP SWAP1 DIV PUSH20 0xFFFFFFFFFFFFFFFFFFFFFFFFFFFFFFFFFFFFFFFF AND PUSH20 0xFFFFFFFFFFFFFFFFFFFFFFFFFFFFFFFFFFFFFFFF AND EQ PUSH2 0x15BD JUMPI PUSH1 0x40 MLOAD PUSH32 0x8C379A000000000000000000000000000000000000000000000000000000000 DUP2 MSTORE PUSH1 0x4 ADD PUSH2 0x15B4 SWAP1 PUSH2 0x2BBE JUMP JUMPDEST PUSH1 0x40 MLOAD DUP1 SWAP2 SUB SWAP1 REVERT JUMPDEST PUSH1 0x14 DUP2 GT ISZERO PUSH2 0x1601 JUMPI PUSH1 0x40 MLOAD PUSH32 0x8C379A000000000000000000000000000000000000000000000000000000000 DUP2 MSTORE PUSH1 0x4 ADD PUSH2 0x15F8 SWAP1 PUSH2 0x3023 JUMP JUMPDEST PUSH1 0x40 MLOAD DUP1 SWAP2 SUB SWAP1 REVERT JUMPDEST DUP1 PUSH1 0x8 DUP2 SWAP1 SSTORE POP POP JUMP JUMPDEST PUSH1 0x0 PUSH2 0x161F PUSH2 0x1618 PUSH2 0x1B4B JUMP JUMPDEST DUP5 DUP5 PUSH2 0x1E7B JUMP JUMPDEST PUSH1 0x1 SWAP1 POP SWAP3 SWAP2 POP POP JUMP JUMPDEST PUSH1 0x8 SLOAD DUP2 JUMP JUMPDEST PUSH1 0xA PUSH1 0x0 SWAP1 SLOAD SWAP1 PUSH2 0x100 EXP SWAP1 DIV PUSH20 0xFFFFFFFFFFFFFFFFFFFFFFFFFFFFFFFFFFFFFFFF AND DUP2 JUMP JUMPDEST PUSH2 0x165D PUSH2 0x1B4B JUMP JUMPDEST PUSH20 0xFFFFFFFFFFFFFFFFFFFFFFFFFFFFFFFFFFFFFFFF AND PUSH1 0x5 PUSH1 0x0 SWAP1 SLOAD SWAP1 PUSH2 0x100 EXP SWAP1 DIV PUSH20 0xFFFFFFFFFFFFFFFFFFFFFFFFFFFFFFFFFFFFFFFF AND PUSH20 0xFFFFFFFFFFFFFFFFFFFFFFFFFFFFFFFFFFFFFFFF AND EQ PUSH2 0x16EC JUMPI PUSH1 0x40 MLOAD PUSH32 0x8C379A000000000000000000000000000000000000000000000000000000000 DUP2 MSTORE PUSH1 0x4 ADD PUSH2 0x16E3 SWAP1 PUSH2 0x2BBE JUMP JUMPDEST PUSH1 0x40 MLOAD DUP1 SWAP2 SUB SWAP1 REVERT JUMPDEST DUP1 PUSH1 0x6 PUSH1 0x0 PUSH2 0x100 EXP DUP2 SLOAD DUP2 PUSH20 0xFFFFFFFFFFFFFFFFFFFFFFFFFFFFFFFFFFFFFFFF MUL NOT AND SWAP1 DUP4 PUSH20 0xFFFFFFFFFFFFFFFFFFFFFFFFFFFFFFFFFFFFFFFF AND MUL OR SWAP1 SSTORE POP POP JUMP JUMPDEST PUSH1 0x0 PUSH1 0x1 PUSH1 0x0 DUP5 PUSH20 0xFFFFFFFFFFFFFFFFFFFFFFFFFFFFFFFFFFFFFFFF AND PUSH20 0xFFFFFFFFFFFFFFFFFFFFFFFFFFFFFFFFFFFFFFFF AND DUP2 MSTORE PUSH1 0x20 ADD SWAP1 DUP2 MSTORE PUSH1 0x20 ADD PUSH1 0x0 KECCAK256 PUSH1 0x0 DUP4 PUSH20 0xFFFFFFFFFFFFFFFFFFFFFFFFFFFFFFFFFFFFFFFF AND PUSH20 0xFFFFFFFFFFFFFFFFFFFFFFFFFFFFFFFFFFFFFFFF AND DUP2 MSTORE PUSH1 0x20 ADD SWAP1 DUP2 MSTORE PUSH1 0x20 ADD PUSH1 0x0 KECCAK256 SLOAD SWAP1 POP SWAP3 SWAP2 POP POP JUMP JUMPDEST PUSH2 0x17BF PUSH2 0x1B4B JUMP JUMPDEST PUSH20 0xFFFFFFFFFFFFFFFFFFFFFFFFFFFFFFFFFFFFFFFF AND PUSH1 0x5 PUSH1 0x0 SWAP1 SLOAD SWAP1 PUSH2 0x100 EXP SWAP1 DIV PUSH20 0xFFFFFFFFFFFFFFFFFFFFFFFFFFFFFFFFFFFFFFFF AND PUSH20 0xFFFFFFFFFFFFFFFFFFFFFFFFFFFFFFFFFFFFFFFF AND EQ PUSH2 0x184E JUMPI PUSH1 0x40 MLOAD PUSH32 0x8C379A000000000000000000000000000000000000000000000000000000000 DUP2 MSTORE PUSH1 0x4 ADD PUSH2 0x1845 SWAP1 PUSH2 0x2BBE JUMP JUMPDEST PUSH1 0x40 MLOAD DUP1 SWAP2 SUB SWAP1 REVERT JUMPDEST PUSH1 0x7 PUSH1 0x0 DUP3 PUSH20 0xFFFFFFFFFFFFFFFFFFFFFFFFFFFFFFFFFFFFFFFF AND PUSH20 0xFFFFFFFFFFFFFFFFFFFFFFFFFFFFFFFFFFFFFFFF AND DUP2 MSTORE PUSH1 0x20 ADD SWAP1 DUP2 MSTORE PUSH1 0x20 ADD PUSH1 0x0 KECCAK256 PUSH1 0x0 SWAP1 SLOAD SWAP1 PUSH2 0x100 EXP SWAP1 DIV PUSH1 0xFF AND ISZERO PUSH2 0x18DB JUMPI PUSH1 0x40 MLOAD PUSH32 0x8C379A000000000000000000000000000000000000000000000000000000000 DUP2 MSTORE PUSH1 0x4 ADD PUSH2 0x18D2 SWAP1 PUSH2 0x3121 JUMP JUMPDEST PUSH1 0x40 MLOAD DUP1 SWAP2 SUB SWAP1 REVERT JUMPDEST PUSH1 0x1 PUSH1 0x7 PUSH1 0x0 DUP4 PUSH20 0xFFFFFFFFFFFFFFFFFFFFFFFFFFFFFFFFFFFFFFFF AND PUSH20 0xFFFFFFFFFFFFFFFFFFFFFFFFFFFFFFFFFFFFFFFF AND DUP2 MSTORE PUSH1 0x20 ADD SWAP1 DUP2 MSTORE PUSH1 0x20 ADD PUSH1 0x0 KECCAK256 PUSH1 0x0 PUSH2 0x100 EXP DUP2 SLOAD DUP2 PUSH1 0xFF MUL NOT AND SWAP1 DUP4 ISZERO ISZERO MUL OR SWAP1 SSTORE POP DUP1 PUSH20 0xFFFFFFFFFFFFFFFFFFFFFFFFFFFFFFFFFFFFFFFF AND PUSH32 0x9D8F7706EA1113D1A167B526ECA956215946DD36CC7DF39EB16180222D8B5DF7 PUSH1 0x1 PUSH1 0x40 MLOAD PUSH2 0x197A SWAP2 SWAP1 PUSH2 0x29D6 JUMP JUMPDEST PUSH1 0x40 MLOAD DUP1 SWAP2 SUB SWAP1 LOG2 POP JUMP JUMPDEST PUSH2 0x198D PUSH2 0x1B4B JUMP JUMPDEST PUSH20 0xFFFFFFFFFFFFFFFFFFFFFFFFFFFFFFFFFFFFFFFF AND PUSH1 0x5 PUSH1 0x0 SWAP1 SLOAD SWAP1 PUSH2 0x100 EXP SWAP1 DIV PUSH20 0xFFFFFFFFFFFFFFFFFFFFFFFFFFFFFFFFFFFFFFFF AND PUSH20 0xFFFFFFFFFFFFFFFFFFFFFFFFFFFFFFFFFFFFFFFF AND EQ PUSH2 0x1A1C JUMPI PUSH1 0x40 MLOAD PUSH32 0x8C379A000000000000000000000000000000000000000000000000000000000 DUP2 MSTORE PUSH1 0x4 ADD PUSH2 0x1A13 SWAP1 PUSH2 0x2BBE JUMP JUMPDEST PUSH1 0x40 MLOAD DUP1 SWAP2 SUB SWAP1 REVERT JUMPDEST PUSH1 0x0 PUSH20 0xFFFFFFFFFFFFFFFFFFFFFFFFFFFFFFFFFFFFFFFF AND DUP2 PUSH20 0xFFFFFFFFFFFFFFFFFFFFFFFFFFFFFFFFFFFFFFFF AND SUB PUSH2 0x1A8B JUMPI PUSH1 0x40 MLOAD PUSH32 0x8C379A000000000000000000000000000000000000000000000000000000000 DUP2 MSTORE PUSH1 0x4 ADD PUSH2 0x1A82 SWAP1 PUSH2 0x31B3 JUMP JUMPDEST PUSH1 0x40 MLOAD DUP1 SWAP2 SUB SWAP1 REVERT JUMPDEST DUP1 PUSH20 0xFFFFFFFFFFFFFFFFFFFFFFFFFFFFFFFFFFFFFFFF AND PUSH1 0x5 PUSH1 0x0 SWAP1 SLOAD SWAP1 PUSH2 0x100 EXP SWAP1 DIV PUSH20 0xFFFFFFFFFFFFFFFFFFFFFFFFFFFFFFFFFFFFFFFF AND PUSH20 0xFFFFFFFFFFFFFFFFFFFFFFFFFFFFFFFFFFFFFFFF AND PUSH32 0x8BE0079C531659141344CD1FD0A4F28419497F9722A3DAAFE3B4186F6B6457E0 PUSH1 0x40 MLOAD PUSH1 0x40 MLOAD DUP1 SWAP2 SUB SWAP1 LOG3 DUP1 PUSH1 0x5 PUSH1 0x0 PUSH2 0x100 EXP DUP2 SLOAD DUP2 PUSH20 0xFFFFFFFFFFFFFFFFFFFFFFFFFFFFFFFFFFFFFFFF MUL NOT AND SWAP1 DUP4 PUSH20 0xFFFFFFFFFFFFFFFFFFFFFFFFFFFFFFFFFFFFFFFF AND MUL OR SWAP1 SSTORE POP POP JUMP JUMPDEST PUSH1 0x0 CALLER SWAP1 POP SWAP1 JUMP JUMPDEST PUSH1 0x0 PUSH20 0xFFFFFFFFFFFFFFFFFFFFFFFFFFFFFFFFFFFFFFFF AND DUP4 PUSH20 0xFFFFFFFFFFFFFFFFFFFFFFFFFFFFFFFFFFFFFFFF AND SUB PUSH2 0x1BC2 JUMPI PUSH1 0x40 MLOAD PUSH32 0x8C379A000000000000000000000000000000000000000000000000000000000 DUP2 MSTORE PUSH1 0x4 ADD PUSH2 0x1BB9 SWAP1 PUSH2 0x3245 JUMP JUMPDEST PUSH1 0x40 MLOAD DUP1 SWAP2 SUB SWAP1 REVERT JUMPDEST PUSH1 0x0 PUSH20 0xFFFFFFFFFFFFFFFFFFFFFFFFFFFFFFFFFFFFFFFF AND DUP3 PUSH20 0xFFFFFFFFFFFFFFFFFFFFFFFFFFFFFFFFFFFFFFFF AND SUB PUSH2 0x1C31 JUMPI PUSH1 0x40 MLOAD PUSH32 0x8C379A000000000000000000000000000000000000000000000000000000000 DUP2 MSTORE PUSH1 0x4 ADD PUSH2 0x1C28 SWAP1 PUSH2 0x32D7 JUMP JUMPDEST PUSH1 0x40 MLOAD DUP1 SWAP2 SUB SWAP1 REVERT JUMPDEST DUP1 PUSH1 0x1 PUSH1 0x0 DUP6 PUSH20 0xFFFFFFFFFFFFFFFFFFFFFFFFFFFFFFFFFFFFFFFF AND PUSH20 0xFFFFFFFFFFFFFFFFFFFFFFFFFFFFFFFFFFFFFFFF AND DUP2 MSTORE PUSH1 0x20 ADD SWAP1 DUP2 MSTORE PUSH1 0x20 ADD PUSH1 0x0 KECCAK256 PUSH1 0x0 DUP5 PUSH20 0xFFFFFFFFFFFFFFFFFFFFFFFFFFFFFFFFFFFFFFFF AND PUSH20 0xFFFFFFFFFFFFFFFFFFFFFFFFFFFFFFFFFFFFFFFF AND DUP2 MSTORE PUSH1 0x20 ADD SWAP1 DUP2 MSTORE PUSH1 0x20 ADD PUSH1 0x0 KECCAK256 DUP2 SWAP1 SSTORE POP DUP2 PUSH20 0xFFFFFFFFFFFFFFFFFFFFFFFFFFFFFFFFFFFFFFFF AND DUP4 PUSH20 0xFFFFFFFFFFFFFFFFFFFFFFFFFFFFFFFFFFFFFFFF AND PUSH32 0x8C5BE1E5EBEC7D5BD14F71427D1E84F3DD0314C0F7B2291E5B200AC8C7C3B925 DUP4 PUSH1 0x40 MLOAD PUSH2 0x1D0F SWAP2 SWAP1 PUSH2 0x2882 JUMP JUMPDEST PUSH1 0x40 MLOAD DUP1 SWAP2 SUB SWAP1 LOG3 POP POP POP JUMP JUMPDEST PUSH1 0x0 PUSH20 0xFFFFFFFFFFFFFFFFFFFFFFFFFFFFFFFFFFFFFFFF AND DUP3 PUSH20 0xFFFFFFFFFFFFFFFFFFFFFFFFFFFFFFFFFFFFFFFF AND SUB PUSH2 0x1D8B JUMPI PUSH1 0x40 MLOAD PUSH32 0x8C379A000000000000000000000000000000000000000000000000000000000 DUP2 MSTORE PUSH1 0x4 ADD PUSH2 0x1D82 SWAP1 PUSH2 0x3343 JUMP JUMPDEST PUSH1 0x40 MLOAD DUP1 SWAP2 SUB SWAP1 REVERT JUMPDEST PUSH2 0x1D97 PUSH1 0x0 DUP4 DUP4 PUSH2 0x2550 JUMP JUMPDEST DUP1 PUSH1 0x2 PUSH1 0x0 DUP3 DUP3 SLOAD PUSH2 0x1DA9 SWAP2 SWAP1 PUSH2 0x2ECB JUMP JUMPDEST SWAP3 POP POP DUP2 SWAP1 SSTORE POP DUP1 PUSH1 0x0 DUP1 DUP5 PUSH20 0xFFFFFFFFFFFFFFFFFFFFFFFFFFFFFFFFFFFFFFFF AND PUSH20 0xFFFFFFFFFFFFFFFFFFFFFFFFFFFFFFFFFFFFFFFF AND DUP2 MSTORE PUSH1 0x20 ADD SWAP1 DUP2 MSTORE PUSH1 0x20 ADD PUSH1 0x0 KECCAK256 PUSH1 0x0 DUP3 DUP3 SLOAD PUSH2 0x1DFE SWAP2 SWAP1 PUSH2 0x2ECB JUMP JUMPDEST SWAP3 POP POP DUP2 SWAP1 SSTORE POP DUP2 PUSH20 0xFFFFFFFFFFFFFFFFFFFFFFFFFFFFFFFFFFFFFFFF AND PUSH1 0x0 PUSH20 0xFFFFFFFFFFFFFFFFFFFFFFFFFFFFFFFFFFFFFFFF AND PUSH32 0xDDF252AD1BE2C89B69C2B068FC378DAA952BA7F163C4A11628F55A4DF523B3EF DUP4 PUSH1 0x40 MLOAD PUSH2 0x1E63 SWAP2 SWAP1 PUSH2 0x2882 JUMP JUMPDEST PUSH1 0x40 MLOAD DUP1 SWAP2 SUB SWAP1 LOG3 PUSH2 0x1E77 PUSH1 0x0 DUP4 DUP4 PUSH2 0x2555 JUMP JUMPDEST POP POP JUMP JUMPDEST PUSH1 0x0 PUSH20 0xFFFFFFFFFFFFFFFFFFFFFFFFFFFFFFFFFFFFFFFF AND DUP4 PUSH20 0xFFFFFFFFFFFFFFFFFFFFFFFFFFFFFFFFFFFFFFFF AND SUB PUSH2 0x1EEA JUMPI PUSH1 0x40 MLOAD PUSH32 0x8C379A000000000000000000000000000000000000000000000000000000000 DUP2 MSTORE PUSH1 0x4 ADD PUSH2 0x1EE1 SWAP1 PUSH2 0x33D5 JUMP JUMPDEST PUSH1 0x40 MLOAD DUP1 SWAP2 SUB SWAP1 REVERT JUMPDEST PUSH1 0x0 PUSH20 0xFFFFFFFFFFFFFFFFFFFFFFFFFFFFFFFFFFFFFFFF AND DUP3 PUSH20 0xFFFFFFFFFFFFFFFFFFFFFFFFFFFFFFFFFFFFFFFF AND SUB PUSH2 0x1F59 JUMPI PUSH1 0x40 MLOAD PUSH32 0x8C379A000000000000000000000000000000000000000000000000000000000 DUP2 MSTORE PUSH1 0x4 ADD PUSH2 0x1F50 SWAP1 PUSH2 0x3467 JUMP JUMPDEST PUSH1 0x40 MLOAD DUP1 SWAP2 SUB SWAP1 REVERT JUMPDEST PUSH1 0xA PUSH1 0x14 SWAP1 SLOAD SWAP1 PUSH2 0x100 EXP SWAP1 DIV PUSH1 0xFF AND DUP1 PUSH2 0x1FBD JUMPI POP PUSH1 0x7 PUSH1 0x0 DUP5 PUSH20 0xFFFFFFFFFFFFFFFFFFFFFFFFFFFFFFFFFFFFFFFF AND PUSH20 0xFFFFFFFFFFFFFFFFFFFFFFFFFFFFFFFFFFFFFFFF AND DUP2 MSTORE PUSH1 0x20 ADD SWAP1 DUP2 MSTORE PUSH1 0x20 ADD PUSH1 0x0 KECCAK256 PUSH1 0x0 SWAP1 SLOAD SWAP1 PUSH2 0x100 EXP SWAP1 DIV PUSH1 0xFF AND JUMPDEST DUP1 PUSH2 0x2011 JUMPI POP PUSH1 0x7 PUSH1 0x0 DUP4 PUSH20 0xFFFFFFFFFFFFFFFFFFFFFFFFFFFFFFFFFFFFFFFF AND PUSH20 0xFFFFFFFFFFFFFFFFFFFFFFFFFFFFFFFFFFFFFFFF AND DUP2 MSTORE PUSH1 0x20 ADD SWAP1 DUP2 MSTORE PUSH1 0x20 ADD PUSH1 0x0 KECCAK256 PUSH1 0x0 SWAP1 SLOAD SWAP1 PUSH2 0x100 EXP SWAP1 DIV PUSH1 0xFF AND JUMPDEST PUSH2 0x2050 JUMPI PUSH1 0x40 MLOAD PUSH32 0x8C379A000000000000000000000000000000000000000000000000000000000 DUP2 MSTORE PUSH1 0x4 ADD PUSH2 0x2047 SWAP1 PUSH2 0x34D3 JUMP JUMPDEST PUSH1 0x40 MLOAD DUP1 SWAP2 SUB SWAP1 REVERT JUMPDEST PUSH1 0x0 DUP2 SUB PUSH2 0x20AD JUMPI PUSH2 0x2064 DUP4 DUP4 PUSH1 0x0 PUSH2 0x255A JUMP JUMPDEST TIMESTAMP PUSH1 0xE PUSH1 0x0 DUP6 PUSH20 0xFFFFFFFFFFFFFFFFFFFFFFFFFFFFFFFFFFFFFFFF AND PUSH20 0xFFFFFFFFFFFFFFFFFFFFFFFFFFFFFFFFFFFFFFFF AND DUP2 MSTORE PUSH1 0x20 ADD SWAP1 DUP2 MSTORE PUSH1 0x20 ADD PUSH1 0x0 KECCAK256 DUP2 SWAP1 SSTORE POP PUSH2 0x254B JUMP JUMPDEST PUSH1 0x0 PUSH1 0x7 PUSH1 0x0 DUP6 PUSH20 0xFFFFFFFFFFFFFFFFFFFFFFFFFFFFFFFFFFFFFFFF AND PUSH20 0xFFFFFFFFFFFFFFFFFFFFFFFFFFFFFFFFFFFFFFFF AND DUP2 MSTORE PUSH1 0x20 ADD SWAP1 DUP2 MSTORE PUSH1 0x20 ADD PUSH1 0x0 KECCAK256 PUSH1 0x0 SWAP1 SLOAD SWAP1 PUSH2 0x100 EXP SWAP1 DIV PUSH1 0xFF AND DUP1 PUSH2 0x2150 JUMPI POP PUSH1 0x7 PUSH1 0x0 DUP5 PUSH20 0xFFFFFFFFFFFFFFFFFFFFFFFFFFFFFFFFFFFFFFFF AND PUSH20 0xFFFFFFFFFFFFFFFFFFFFFFFFFFFFFFFFFFFFFFFF AND DUP2 MSTORE PUSH1 0x20 ADD SWAP1 DUP2 MSTORE PUSH1 0x20 ADD PUSH1 0x0 KECCAK256 PUSH1 0x0 SWAP1 SLOAD SWAP1 PUSH2 0x100 EXP SWAP1 DIV PUSH1 0xFF AND JUMPDEST ISZERO SWAP1 POP PUSH1 0x0 DUP2 PUSH2 0x2161 JUMPI PUSH1 0x0 PUSH2 0x21DA JUMP JUMPDEST PUSH1 0x64 PUSH1 0x6 PUSH1 0x0 SWAP1 SLOAD SWAP1 PUSH2 0x100 EXP SWAP1 DIV PUSH20 0xFFFFFFFFFFFFFFFFFFFFFFFFFFFFFFFFFFFFFFFF AND PUSH20 0xFFFFFFFFFFFFFFFFFFFFFFFFFFFFFFFFFFFFFFFF AND DUP7 PUSH20 0xFFFFFFFFFFFFFFFFFFFFFFFFFFFFFFFFFFFFFFFF AND EQ PUSH2 0x21C0 JUMPI PUSH1 0x9 SLOAD PUSH2 0x21C4 JUMP JUMPDEST PUSH1 0x8 SLOAD JUMPDEST DUP5 PUSH2 0x21CF SWAP2 SWAP1 PUSH2 0x2DF7 JUMP JUMPDEST PUSH2 0x21D9 SWAP2 SWAP1 PUSH2 0x3522 JUMP JUMPDEST JUMPDEST SWAP1 POP DUP2 ISZERO PUSH2 0x24B4 JUMPI PUSH1 0x6 PUSH1 0x0 SWAP1 SLOAD SWAP1 PUSH2 0x100 EXP SWAP1 DIV PUSH20 0xFFFFFFFFFFFFFFFFFFFFFFFFFFFFFFFFFFFFFFFF AND PUSH20 0xFFFFFFFFFFFFFFFFFFFFFFFFFFFFFFFFFFFFFFFF AND DUP6 PUSH20 0xFFFFFFFFFFFFFFFFFFFFFFFFFFFFFFFFFFFFFFFF AND EQ PUSH2 0x24B3 JUMPI PUSH1 0xC PUSH1 0x0 SWAP1 SLOAD SWAP1 PUSH2 0x100 EXP SWAP1 DIV PUSH1 0xFF AND ISZERO PUSH2 0x2292 JUMPI PUSH1 0xB SLOAD DUP4 GT ISZERO PUSH2 0x2291 JUMPI PUSH1 0x40 MLOAD PUSH32 0x8C379A000000000000000000000000000000000000000000000000000000000 DUP2 MSTORE PUSH1 0x4 ADD PUSH2 0x2288 SWAP1 PUSH2 0x35C5 JUMP JUMPDEST PUSH1 0x40 MLOAD DUP1 SWAP2 SUB SWAP1 REVERT JUMPDEST JUMPDEST PUSH1 0xC PUSH1 0x1 SWAP1 SLOAD SWAP1 PUSH2 0x100 EXP SWAP1 DIV PUSH1 0xFF AND ISZERO PUSH2 0x24B2 JUMPI PUSH1 0xC PUSH1 0x0 SWAP1 SLOAD SWAP1 PUSH2 0x100 EXP SWAP1 DIV PUSH1 0xFF AND DUP1 ISZERO PUSH2 0x2310 JUMPI POP PUSH3 0x15180 PUSH1 0xE PUSH1 0x0 DUP8 PUSH20 0xFFFFFFFFFFFFFFFFFFFFFFFFFFFFFFFFFFFFFFFF AND PUSH20 0xFFFFFFFFFFFFFFFFFFFFFFFFFFFFFFFFFFFFFFFF AND DUP2 MSTORE PUSH1 0x20 ADD SWAP1 DUP2 MSTORE PUSH1 0x20 ADD PUSH1 0x0 KECCAK256 SLOAD TIMESTAMP PUSH2 0x230D SWAP2 SWAP1 PUSH2 0x35E5 JUMP JUMPDEST LT ISZERO JUMPDEST ISZERO PUSH2 0x235F JUMPI PUSH1 0x0 PUSH1 0xD PUSH1 0x0 DUP8 PUSH20 0xFFFFFFFFFFFFFFFFFFFFFFFFFFFFFFFFFFFFFFFF AND PUSH20 0xFFFFFFFFFFFFFFFFFFFFFFFFFFFFFFFFFFFFFFFF AND DUP2 MSTORE PUSH1 0x20 ADD SWAP1 DUP2 MSTORE PUSH1 0x20 ADD PUSH1 0x0 KECCAK256 DUP2 SWAP1 SSTORE POP PUSH2 0x2445 JUMP JUMPDEST PUSH1 0xB SLOAD DUP4 PUSH1 0xD PUSH1 0x0 DUP9 PUSH20 0xFFFFFFFFFFFFFFFFFFFFFFFFFFFFFFFFFFFFFFFF AND PUSH20 0xFFFFFFFFFFFFFFFFFFFFFFFFFFFFFFFFFFFFFFFF AND DUP2 MSTORE PUSH1 0x20 ADD SWAP1 DUP2 MSTORE PUSH1 0x20 ADD PUSH1 0x0 KECCAK256 SLOAD PUSH2 0x23AD SWAP2 SWAP1 PUSH2 0x2ECB JUMP JUMPDEST GT ISZERO PUSH2 0x2444 JUMPI PUSH3 0x15180 PUSH1 0xE PUSH1 0x0 DUP8 PUSH20 0xFFFFFFFFFFFFFFFFFFFFFFFFFFFFFFFFFFFFFFFF AND PUSH20 0xFFFFFFFFFFFFFFFFFFFFFFFFFFFFFFFFFFFFFFFF AND DUP2 MSTORE PUSH1 0x20 ADD SWAP1 DUP2 MSTORE PUSH1 0x20 ADD PUSH1 0x0 KECCAK256 SLOAD TIMESTAMP PUSH2 0x2402 SWAP2 SWAP1 PUSH2 0x35E5 JUMP JUMPDEST LT ISZERO PUSH2 0x2443 JUMPI PUSH1 0x40 MLOAD PUSH32 0x8C379A000000000000000000000000000000000000000000000000000000000 DUP2 MSTORE PUSH1 0x4 ADD PUSH2 0x243A SWAP1 PUSH2 0x368B JUMP JUMPDEST PUSH1 0x40 MLOAD DUP1 SWAP2 SUB SWAP1 REVERT JUMPDEST JUMPDEST JUMPDEST PUSH1 0xC PUSH1 0x0 SWAP1 SLOAD SWAP1 PUSH2 0x100 EXP SWAP1 DIV PUSH1 0xFF AND ISZERO PUSH2 0x24B1 JUMPI DUP3 PUSH1 0xD PUSH1 0x0 DUP8 PUSH20 0xFFFFFFFFFFFFFFFFFFFFFFFFFFFFFFFFFFFFFFFF AND PUSH20 0xFFFFFFFFFFFFFFFFFFFFFFFFFFFFFFFFFFFFFFFF AND DUP2 MSTORE PUSH1 0x20 ADD SWAP1 DUP2 MSTORE PUSH1 0x20 ADD PUSH1 0x0 KECCAK256 PUSH1 0x0 DUP3 DUP3 SLOAD PUSH2 0x24A9 SWAP2 SWAP1 PUSH2 0x2ECB JUMP JUMPDEST SWAP3 POP POP DUP2 SWAP1 SSTORE POP JUMPDEST JUMPDEST JUMPDEST JUMPDEST PUSH1 0x0 DUP2 GT ISZERO PUSH2 0x24F9 JUMPI PUSH2 0x24EA DUP6 PUSH1 0xA PUSH1 0x0 SWAP1 SLOAD SWAP1 PUSH2 0x100 EXP SWAP1 DIV PUSH20 0xFFFFFFFFFFFFFFFFFFFFFFFFFFFFFFFFFFFFFFFF AND DUP4 PUSH2 0x255A JUMP JUMPDEST DUP1 DUP4 PUSH2 0x24F6 SWAP2 SWAP1 PUSH2 0x35E5 JUMP JUMPDEST SWAP3 POP JUMPDEST PUSH2 0x2504 DUP6 DUP6 DUP6 PUSH2 0x255A JUMP JUMPDEST TIMESTAMP PUSH1 0xE PUSH1 0x0 DUP8 PUSH20 0xFFFFFFFFFFFFFFFFFFFFFFFFFFFFFFFFFFFFFFFF AND PUSH20 0xFFFFFFFFFFFFFFFFFFFFFFFFFFFFFFFFFFFFFFFF AND DUP2 MSTORE PUSH1 0x20 ADD SWAP1 DUP2 MSTORE PUSH1 0x20 ADD PUSH1 0x0 KECCAK256 DUP2 SWAP1 SSTORE POP POP POP JUMPDEST POP POP POP JUMP JUMPDEST POP POP POP JUMP JUMPDEST POP POP POP JUMP JUMPDEST PUSH1 0x0 PUSH20 0xFFFFFFFFFFFFFFFFFFFFFFFFFFFFFFFFFFFFFFFF AND DUP4 PUSH20 0xFFFFFFFFFFFFFFFFFFFFFFFFFFFFFFFFFFFFFFFF AND SUB PUSH2 0x25C9 JUMPI PUSH1 0x40 MLOAD PUSH32 0x8C379A000000000000000000000000000000000000000000000000000000000 DUP2 MSTORE PUSH1 0x4 ADD PUSH2 0x25C0 SWAP1 PUSH2 0x33D5 JUMP JUMPDEST PUSH1 0x40 MLOAD DUP1 SWAP2 SUB SWAP1 REVERT JUMPDEST PUSH1 0x0 PUSH20 0xFFFFFFFFFFFFFFFFFFFFFFFFFFFFFFFFFFFFFFFF AND DUP3 PUSH20 0xFFFFFFFFFFFFFFFFFFFFFFFFFFFFFFFFFFFFFFFF AND SUB PUSH2 0x2638 JUMPI PUSH1 0x40 MLOAD PUSH32 0x8C379A000000000000000000000000000000000000000000000000000000000 DUP2 MSTORE PUSH1 0x4 ADD PUSH2 0x262F SWAP1 PUSH2 0x3467 JUMP JUMPDEST PUSH1 0x40 MLOAD DUP1 SWAP2 SUB SWAP1 REVERT JUMPDEST PUSH2 0x2643 DUP4 DUP4 DUP4 PUSH2 0x2550 JUMP JUMPDEST PUSH1 0x0 DUP1 PUSH1 0x0 DUP6 PUSH20 0xFFFFFFFFFFFFFFFFFFFFFFFFFFFFFFFFFFFFFFFF AND PUSH20 0xFFFFFFFFFFFFFFFFFFFFFFFFFFFFFFFFFFFFFFFF AND DUP2 MSTORE PUSH1 0x20 ADD SWAP1 DUP2 MSTORE PUSH1 0x20 ADD PUSH1 0x0 KECCAK256 SLOAD SWAP1 POP DUP2 DUP2 LT ISZERO PUSH2 0x26C9 JUMPI PUSH1 0x40 MLOAD PUSH32 0x8C379A000000000000000000000000000000000000000000000000000000000 DUP2 MSTORE PUSH1 0x4 ADD PUSH2 0x26C0 SWAP1 PUSH2 0x371D JUMP JUMPDEST PUSH1 0x40 MLOAD DUP1 SWAP2 SUB SWAP1 REVERT JUMPDEST DUP2 DUP2 SUB PUSH1 0x0 DUP1 DUP7 PUSH20 0xFFFFFFFFFFFFFFFFFFFFFFFFFFFFFFFFFFFFFFFF AND PUSH20 0xFFFFFFFFFFFFFFFFFFFFFFFFFFFFFFFFFFFFFFFF AND DUP2 MSTORE PUSH1 0x20 ADD SWAP1 DUP2 MSTORE PUSH1 0x20 ADD PUSH1 0x0 KECCAK256 DUP2 SWAP1 SSTORE POP DUP2 PUSH1 0x0 DUP1 DUP6 PUSH20 0xFFFFFFFFFFFFFFFFFFFFFFFFFFFFFFFFFFFFFFFF AND PUSH20 0xFFFFFFFFFFFFFFFFFFFFFFFFFFFFFFFFFFFFFFFF AND DUP2 MSTORE PUSH1 0x20 ADD SWAP1 DUP2 MSTORE PUSH1 0x20 ADD PUSH1 0x0 KECCAK256 PUSH1 0x0 DUP3 DUP3 SLOAD PUSH2 0x275C SWAP2 SWAP1 PUSH2 0x2ECB JUMP JUMPDEST SWAP3 POP POP DUP2 SWAP1 SSTORE POP DUP3 PUSH20 0xFFFFFFFFFFFFFFFFFFFFFFFFFFFFFFFFFFFFFFFF AND DUP5 PUSH20 0xFFFFFFFFFFFFFFFFFFFFFFFFFFFFFFFFFFFFFFFF AND PUSH32 0xDDF252AD1BE2C89B69C2B068FC378DAA952BA7F163C4A11628F55A4DF523B3EF DUP5 PUSH1 0x40 MLOAD PUSH2 0x27C0 SWAP2 SWAP1 PUSH2 0x2882 JUMP JUMPDEST PUSH1 0x40 MLOAD DUP1 SWAP2 SUB SWAP1 LOG3 PUSH2 0x27D3 DUP5 DUP5 DUP5 PUSH2 0x2555 JUMP JUMPDEST POP POP POP POP JUMP JUMPDEST PUSH1 0x0 DUP1 REVERT JUMPDEST PUSH1 0x0 PUSH20 0xFFFFFFFFFFFFFFFFFFFFFFFFFFFFFFFFFFFFFFFF DUP3 AND SWAP1 POP SWAP2 SWAP1 POP JUMP JUMPDEST PUSH1 0x0 PUSH2 0x2809 DUP3 PUSH2 0x27DE JUMP JUMPDEST SWAP1 POP SWAP2 SWAP1 POP JUMP JUMPDEST PUSH2 0x2819 DUP2 PUSH2 0x27FE JUMP JUMPDEST DUP2 EQ PUSH2 0x2824 JUMPI PUSH1 0x0 DUP1 REVERT JUMPDEST POP JUMP JUMPDEST PUSH1 0x0 DUP2 CALLDATALOAD SWAP1 POP PUSH2 0x2836 DUP2 PUSH2 0x2810 JUMP JUMPDEST SWAP3 SWAP2 POP POP JUMP JUMPDEST PUSH1 0x0 PUSH1 0x20 DUP3 DUP5 SUB SLT ISZERO PUSH2 0x2852 JUMPI PUSH2 0x2851 PUSH2 0x27D9 JUMP JUMPDEST JUMPDEST PUSH1 0x0 PUSH2 0x2860 DUP5 DUP3 DUP6 ADD PUSH2 0x2827 JUMP JUMPDEST SWAP2 POP POP SWAP3 SWAP2 POP POP JUMP JUMPDEST PUSH1 0x0 DUP2 SWAP1 POP SWAP2 SWAP1 POP JUMP JUMPDEST PUSH2 0x287C DUP2 PUSH2 0x2869 JUMP JUMPDEST DUP3 MSTORE POP POP JUMP JUMPDEST PUSH1 0x0 PUSH1 0x20 DUP3 ADD SWAP1 POP PUSH2 0x2897 PUSH1 0x0 DUP4 ADD DUP5 PUSH2 0x2873 JUMP JUMPDEST SWAP3 SWAP2 POP POP JUMP JUMPDEST PUSH1 0x0 DUP2 MLOAD SWAP1 POP SWAP2 SWAP1 POP JUMP JUMPDEST PUSH1 0x0 DUP3 DUP3 MSTORE PUSH1 0x20 DUP3 ADD SWAP1 POP SWAP3 SWAP2 POP POP JUMP JUMPDEST PUSH1 0x0 JUMPDEST DUP4 DUP2 LT ISZERO PUSH2 0x28D7 JUMPI DUP1 DUP3 ADD MLOAD DUP2 DUP5 ADD MSTORE PUSH1 0x20 DUP2 ADD SWAP1 POP PUSH2 0x28BC JUMP JUMPDEST PUSH1 0x0 DUP5 DUP5 ADD MSTORE POP POP POP POP JUMP JUMPDEST PUSH1 0x0 PUSH1 0x1F NOT PUSH1 0x1F DUP4 ADD AND SWAP1 POP SWAP2 SWAP1 POP JUMP JUMPDEST PUSH1 0x0 PUSH2 0x28FF DUP3 PUSH2 0x289D JUMP JUMPDEST PUSH2 0x2909 DUP2 DUP6 PUSH2 0x28A8 JUMP JUMPDEST SWAP4 POP PUSH2 0x2919 DUP2 DUP6 PUSH1 0x20 DUP7 ADD PUSH2 0x28B9 JUMP JUMPDEST PUSH2 0x2922 DUP2 PUSH2 0x28E3 JUMP JUMPDEST DUP5 ADD SWAP2 POP POP SWAP3 SWAP2 POP POP JUMP JUMPDEST PUSH1 0x0 PUSH1 0x20 DUP3 ADD SWAP1 POP DUP2 DUP2 SUB PUSH1 0x0 DUP4 ADD MSTORE PUSH2 0x2947 DUP2 DUP5 PUSH2 0x28F4 JUMP JUMPDEST SWAP1 POP SWAP3 SWAP2 POP POP JUMP JUMPDEST PUSH2 0x2958 DUP2 PUSH2 0x2869 JUMP JUMPDEST DUP2 EQ PUSH2 0x2963 JUMPI PUSH1 0x0 DUP1 REVERT JUMPDEST POP JUMP JUMPDEST PUSH1 0x0 DUP2 CALLDATALOAD SWAP1 POP PUSH2 0x2975 DUP2 PUSH2 0x294F JUMP JUMPDEST SWAP3 SWAP2 POP POP JUMP JUMPDEST PUSH1 0x0 DUP1 PUSH1 0x40 DUP4 DUP6 SUB SLT ISZERO PUSH2 0x2992 JUMPI PUSH2 0x2991 PUSH2 0x27D9 JUMP JUMPDEST JUMPDEST PUSH1 0x0 PUSH2 0x29A0 DUP6 DUP3 DUP7 ADD PUSH2 0x2827 JUMP JUMPDEST SWAP3 POP POP PUSH1 0x20 PUSH2 0x29B1 DUP6 DUP3 DUP7 ADD PUSH2 0x2966 JUMP JUMPDEST SWAP2 POP POP SWAP3 POP SWAP3 SWAP1 POP JUMP JUMPDEST PUSH1 0x0 DUP2 ISZERO ISZERO SWAP1 POP SWAP2 SWAP1 POP JUMP JUMPDEST PUSH2 0x29D0 DUP2 PUSH2 0x29BB JUMP JUMPDEST DUP3 MSTORE POP POP JUMP JUMPDEST PUSH1 0x0 PUSH1 0x20 DUP3 ADD SWAP1 POP PUSH2 0x29EB PUSH1 0x0 DUP4 ADD DUP5 PUSH2 0x29C7 JUMP JUMPDEST SWAP3 SWAP2 POP POP JUMP JUMPDEST PUSH1 0x0 DUP1 PUSH1 0x0 PUSH1 0x60 DUP5 DUP7 SUB SLT ISZERO PUSH2 0x2A0A JUMPI PUSH2 0x2A09 PUSH2 0x27D9 JUMP JUMPDEST JUMPDEST PUSH1 0x0 PUSH2 0x2A18 DUP7 DUP3 DUP8 ADD PUSH2 0x2827 JUMP JUMPDEST SWAP4 POP POP PUSH1 0x20 PUSH2 0x2A29 DUP7 DUP3 DUP8 ADD PUSH2 0x2827 JUMP JUMPDEST SWAP3 POP POP PUSH1 0x40 PUSH2 0x2A3A DUP7 DUP3 DUP8 ADD PUSH2 0x2966 JUMP JUMPDEST SWAP2 POP POP SWAP3 POP SWAP3 POP SWAP3 JUMP JUMPDEST PUSH1 0x0 PUSH1 0xFF DUP3 AND SWAP1 POP SWAP2 SWAP1 POP JUMP JUMPDEST PUSH2 0x2A5A DUP2 PUSH2 0x2A44 JUMP JUMPDEST DUP3 MSTORE POP POP JUMP JUMPDEST PUSH1 0x0 PUSH1 0x20 DUP3 ADD SWAP1 POP PUSH2 0x2A75 PUSH1 0x0 DUP4 ADD DUP5 PUSH2 0x2A51 JUMP JUMPDEST SWAP3 SWAP2 POP POP JUMP JUMPDEST PUSH2 0x2A84 DUP2 PUSH2 0x27FE JUMP JUMPDEST DUP3 MSTORE POP POP JUMP JUMPDEST PUSH1 0x0 PUSH1 0x20 DUP3 ADD SWAP1 POP PUSH2 0x2A9F PUSH1 0x0 DUP4 ADD DUP5 PUSH2 0x2A7B JUMP JUMPDEST SWAP3 SWAP2 POP POP JUMP JUMPDEST PUSH1 0x0 PUSH1 0x20 DUP3 DUP5 SUB SLT ISZERO PUSH2 0x2ABB JUMPI PUSH2 0x2ABA PUSH2 0x27D9 JUMP JUMPDEST JUMPDEST PUSH1 0x0 PUSH2 0x2AC9 DUP5 DUP3 DUP6 ADD PUSH2 0x2966 JUMP JUMPDEST SWAP2 POP POP SWAP3 SWAP2 POP POP JUMP JUMPDEST PUSH1 0x0 DUP1 PUSH1 0x40 DUP4 DUP6 SUB SLT ISZERO PUSH2 0x2AE9 JUMPI PUSH2 0x2AE8 PUSH2 0x27D9 JUMP JUMPDEST JUMPDEST PUSH1 0x0 PUSH2 0x2AF7 DUP6 DUP3 DUP7 ADD PUSH2 0x2827 JUMP JUMPDEST SWAP3 POP POP PUSH1 0x20 PUSH2 0x2B08 DUP6 DUP3 DUP7 ADD PUSH2 0x2827 JUMP JUMPDEST SWAP2 POP POP SWAP3 POP SWAP3 SWAP1 POP JUMP JUMPDEST PUSH32 0x4E487B7100000000000000000000000000000000000000000000000000000000 PUSH1 0x0 MSTORE PUSH1 0x22 PUSH1 0x4 MSTORE PUSH1 0x24 PUSH1 0x0 REVERT JUMPDEST PUSH1 0x0 PUSH1 0x2 DUP3 DIV SWAP1 POP PUSH1 0x1 DUP3 AND DUP1 PUSH2 0x2B59 JUMPI PUSH1 0x7F DUP3 AND SWAP2 POP JUMPDEST PUSH1 0x20 DUP3 LT DUP2 SUB PUSH2 0x2B6C JUMPI PUSH2 0x2B6B PUSH2 0x2B12 JUMP JUMPDEST JUMPDEST POP SWAP2 SWAP1 POP JUMP JUMPDEST PUSH32 0x4F776E61626C653A2063616C6C6572206973206E6F7420746865206F776E6572 PUSH1 0x0 DUP3 ADD MSTORE POP JUMP JUMPDEST PUSH1 0x0 PUSH2 0x2BA8 PUSH1 0x20 DUP4 PUSH2 0x28A8 JUMP JUMPDEST SWAP2 POP PUSH2 0x2BB3 DUP3 PUSH2 0x2B72 JUMP JUMPDEST PUSH1 0x20 DUP3 ADD SWAP1 POP SWAP2 SWAP1 POP JUMP JUMPDEST PUSH1 0x0 PUSH1 0x20 DUP3 ADD SWAP1 POP DUP2 DUP2 SUB PUSH1 0x0 DUP4 ADD MSTORE PUSH2 0x2BD7 DUP2 PUSH2 0x2B9B JUMP JUMPDEST SWAP1 POP SWAP2 SWAP1 POP JUMP JUMPDEST PUSH32 0x546F6B656E7320616C7265616479206D696E7465642100000000000000000000 PUSH1 0x0 DUP3 ADD MSTORE POP JUMP JUMPDEST PUSH1 0x0 PUSH2 0x2C14 PUSH1 0x16 DUP4 PUSH2 0x28A8 JUMP JUMPDEST SWAP2 POP PUSH2 0x2C1F DUP3 PUSH2 0x2BDE JUMP JUMPDEST PUSH1 0x20 DUP3 ADD SWAP1 POP SWAP2 SWAP1 POP JUMP JUMPDEST PUSH1 0x0 PUSH1 0x20 DUP3 ADD SWAP1 POP DUP2 DUP2 SUB PUSH1 0x0 DUP4 ADD MSTORE PUSH2 0x2C43 DUP2 PUSH2 0x2C07 JUMP JUMPDEST SWAP1 POP SWAP2 SWAP1 POP JUMP JUMPDEST PUSH32 0x4E487B7100000000000000000000000000000000000000000000000000000000 PUSH1 0x0 MSTORE PUSH1 0x11 PUSH1 0x4 MSTORE PUSH1 0x24 PUSH1 0x0 REVERT JUMPDEST PUSH1 0x0 DUP2 PUSH1 0x1 SHR SWAP1 POP SWAP2 SWAP1 POP JUMP JUMPDEST PUSH1 0x0 DUP1 DUP3 SWAP2 POP DUP4 SWAP1 POP JUMPDEST PUSH1 0x1 DUP6 GT ISZERO PUSH2 0x2CD0 JUMPI DUP1 DUP7 DIV DUP2 GT ISZERO PUSH2 0x2CAC JUMPI PUSH2 0x2CAB PUSH2 0x2C4A JUMP JUMPDEST JUMPDEST PUSH1 0x1 DUP6 AND ISZERO PUSH2 0x2CBB JUMPI DUP1 DUP3 MUL SWAP2 POP JUMPDEST DUP1 DUP2 MUL SWAP1 POP PUSH2 0x2CC9 DUP6 PUSH2 0x2C79 JUMP JUMPDEST SWAP5 POP PUSH2 0x2C90 JUMP JUMPDEST SWAP5 POP SWAP5 SWAP3 POP POP POP JUMP JUMPDEST PUSH1 0x0 DUP3 PUSH2 0x2CE9 JUMPI PUSH1 0x1 SWAP1 POP PUSH2 0x2DA5 JUMP JUMPDEST DUP2 PUSH2 0x2CF7 JUMPI PUSH1 0x0 SWAP1 POP PUSH2 0x2DA5 JUMP JUMPDEST DUP2 PUSH1 0x1 DUP2 EQ PUSH2 0x2D0D JUMPI PUSH1 0x2 DUP2 EQ PUSH2 0x2D17 JUMPI PUSH2 0x2D46 JUMP JUMPDEST PUSH1 0x1 SWAP2 POP POP PUSH2 0x2DA5 JUMP JUMPDEST PUSH1 0xFF DUP5 GT ISZERO PUSH2 0x2D29 JUMPI PUSH2 0x2D28 PUSH2 0x2C4A JUMP JUMPDEST JUMPDEST DUP4 PUSH1 0x2 EXP SWAP2 POP DUP5 DUP3 GT ISZERO PUSH2 0x2D40 JUMPI PUSH2 0x2D3F PUSH2 0x2C4A JUMP JUMPDEST JUMPDEST POP PUSH2 0x2DA5 JUMP JUMPDEST POP PUSH1 0x20 DUP4 LT PUSH2 0x133 DUP4 LT AND PUSH1 0x4E DUP5 LT PUSH1 0xB DUP5 LT AND OR ISZERO PUSH2 0x2D7B JUMPI DUP3 DUP3 EXP SWAP1 POP DUP4 DUP2 GT ISZERO PUSH2 0x2D76 JUMPI PUSH2 0x2D75 PUSH2 0x2C4A JUMP JUMPDEST JUMPDEST PUSH2 0x2DA5 JUMP JUMPDEST PUSH2 0x2D88 DUP5 DUP5 DUP5 PUSH1 0x1 PUSH2 0x2C86 JUMP JUMPDEST SWAP3 POP SWAP1 POP DUP2 DUP5 DIV DUP2 GT ISZERO PUSH2 0x2D9F JUMPI PUSH2 0x2D9E PUSH2 0x2C4A JUMP JUMPDEST JUMPDEST DUP2 DUP2 MUL SWAP1 POP JUMPDEST SWAP4 SWAP3 POP POP POP JUMP JUMPDEST PUSH1 0x0 PUSH2 0x2DB7 DUP3 PUSH2 0x2869 JUMP JUMPDEST SWAP2 POP PUSH2 0x2DC2 DUP4 PUSH2 0x2A44 JUMP JUMPDEST SWAP3 POP PUSH2 0x2DEF PUSH32 0xFFFFFFFFFFFFFFFFFFFFFFFFFFFFFFFFFFFFFFFFFFFFFFFFFFFFFFFFFFFFFFFF DUP5 DUP5 PUSH2 0x2CD9 JUMP JUMPDEST SWAP1 POP SWAP3 SWAP2 POP POP JUMP JUMPDEST PUSH1 0x0 PUSH2 0x2E02 DUP3 PUSH2 0x2869 JUMP JUMPDEST SWAP2 POP PUSH2 0x2E0D DUP4 PUSH2 0x2869 JUMP JUMPDEST SWAP3 POP DUP3 DUP3 MUL PUSH2 0x2E1B DUP2 PUSH2 0x2869 JUMP JUMPDEST SWAP2 POP DUP3 DUP3 DIV DUP5 EQ DUP4 ISZERO OR PUSH2 0x2E32 JUMPI PUSH2 0x2E31 PUSH2 0x2C4A JUMP JUMPDEST JUMPDEST POP SWAP3 SWAP2 POP POP JUMP JUMPDEST PUSH32 0x45524332303A207472616E7366657220616D6F756E7420657863656564732061 PUSH1 0x0 DUP3 ADD MSTORE PUSH32 0x6C6C6F77616E6365000000000000000000000000000000000000000000000000 PUSH1 0x20 DUP3 ADD MSTORE POP JUMP JUMPDEST PUSH1 0x0 PUSH2 0x2E95 PUSH1 0x28 DUP4 PUSH2 0x28A8 JUMP JUMPDEST SWAP2 POP PUSH2 0x2EA0 DUP3 PUSH2 0x2E39 JUMP JUMPDEST PUSH1 0x40 DUP3 ADD SWAP1 POP SWAP2 SWAP1 POP JUMP JUMPDEST PUSH1 0x0 PUSH1 0x20 DUP3 ADD SWAP1 POP DUP2 DUP2 SUB PUSH1 0x0 DUP4 ADD MSTORE PUSH2 0x2EC4 DUP2 PUSH2 0x2E88 JUMP JUMPDEST SWAP1 POP SWAP2 SWAP1 POP JUMP JUMPDEST PUSH1 0x0 PUSH2 0x2ED6 DUP3 PUSH2 0x2869 JUMP JUMPDEST SWAP2 POP PUSH2 0x2EE1 DUP4 PUSH2 0x2869 JUMP JUMPDEST SWAP3 POP DUP3 DUP3 ADD SWAP1 POP DUP1 DUP3 GT ISZERO PUSH2 0x2EF9 JUMPI PUSH2 0x2EF8 PUSH2 0x2C4A JUMP JUMPDEST JUMPDEST SWAP3 SWAP2 POP POP JUMP JUMPDEST PUSH32 0x496E76616C696420616D6F756E74210000000000000000000000000000000000 PUSH1 0x0 DUP3 ADD MSTORE POP JUMP JUMPDEST PUSH1 0x0 PUSH2 0x2F35 PUSH1 0xF DUP4 PUSH2 0x28A8 JUMP JUMPDEST SWAP2 POP PUSH2 0x2F40 DUP3 PUSH2 0x2EFF JUMP JUMPDEST PUSH1 0x20 DUP3 ADD SWAP1 POP SWAP2 SWAP1 POP JUMP JUMPDEST PUSH1 0x0 PUSH1 0x20 DUP3 ADD SWAP1 POP DUP2 DUP2 SUB PUSH1 0x0 DUP4 ADD MSTORE PUSH2 0x2F64 DUP2 PUSH2 0x2F28 JUMP JUMPDEST SWAP1 POP SWAP2 SWAP1 POP JUMP JUMPDEST PUSH32 0x54726164696E6720616C726561647920656E61626C65642E0000000000000000 PUSH1 0x0 DUP3 ADD MSTORE POP JUMP JUMPDEST PUSH1 0x0 PUSH2 0x2FA1 PUSH1 0x18 DUP4 PUSH2 0x28A8 JUMP JUMPDEST SWAP2 POP PUSH2 0x2FAC DUP3 PUSH2 0x2F6B JUMP JUMPDEST PUSH1 0x20 DUP3 ADD SWAP1 POP SWAP2 SWAP1 POP JUMP JUMPDEST PUSH1 0x0 PUSH1 0x20 DUP3 ADD SWAP1 POP DUP2 DUP2 SUB PUSH1 0x0 DUP4 ADD MSTORE PUSH2 0x2FD0 DUP2 PUSH2 0x2F94 JUMP JUMPDEST SWAP1 POP SWAP2 SWAP1 POP JUMP JUMPDEST PUSH32 0x546178206E6F74206D6F7265207468616E203230210000000000000000000000 PUSH1 0x0 DUP3 ADD MSTORE POP JUMP JUMPDEST PUSH1 0x0 PUSH2 0x300D PUSH1 0x15 DUP4 PUSH2 0x28A8 JUMP JUMPDEST SWAP2 POP PUSH2 0x3018 DUP3 PUSH2 0x2FD7 JUMP JUMPDEST PUSH1 0x20 DUP3 ADD SWAP1 POP SWAP2 SWAP1 POP JUMP JUMPDEST PUSH1 0x0 PUSH1 0x20 DUP3 ADD SWAP1 POP DUP2 DUP2 SUB PUSH1 0x0 DUP4 ADD MSTORE PUSH2 0x303C DUP2 PUSH2 0x3000 JUMP JUMPDEST SWAP1 POP SWAP2 SWAP1 POP JUMP JUMPDEST PUSH32 0x45524332303A2064656372656173656420616C6C6F77616E63652062656C6F77 PUSH1 0x0 DUP3 ADD MSTORE PUSH32 0x207A65726F000000000000000000000000000000000000000000000000000000 PUSH1 0x20 DUP3 ADD MSTORE POP JUMP JUMPDEST PUSH1 0x0 PUSH2 0x309F PUSH1 0x25 DUP4 PUSH2 0x28A8 JUMP JUMPDEST SWAP2 POP PUSH2 0x30AA DUP3 PUSH2 0x3043 JUMP JUMPDEST PUSH1 0x40 DUP3 ADD SWAP1 POP SWAP2 SWAP1 POP JUMP JUMPDEST PUSH1 0x0 PUSH1 0x20 DUP3 ADD SWAP1 POP DUP2 DUP2 SUB PUSH1 0x0 DUP4 ADD MSTORE PUSH2 0x30CE DUP2 PUSH2 0x3092 JUMP JUMPDEST SWAP1 POP SWAP2 SWAP1 POP JUMP JUMPDEST PUSH32 0x4163636F756E7420616C7265616479206578636C756465640000000000000000 PUSH1 0x0 DUP3 ADD MSTORE POP JUMP JUMPDEST PUSH1 0x0 PUSH2 0x310B PUSH1 0x18 DUP4 PUSH2 0x28A8 JUMP JUMPDEST SWAP2 POP PUSH2 0x3116 DUP3 PUSH2 0x30D5 JUMP JUMPDEST PUSH1 0x20 DUP3 ADD SWAP1 POP SWAP2 SWAP1 POP JUMP JUMPDEST PUSH1 0x0 PUSH1 0x20 DUP3 ADD SWAP1 POP DUP2 DUP2 SUB PUSH1 0x0 DUP4 ADD MSTORE PUSH2 0x313A DUP2 PUSH2 0x30FE JUMP JUMPDEST SWAP1 POP SWAP2 SWAP1 POP JUMP JUMPDEST PUSH32 0x4F776E61626C653A206E6577206F776E657220697320746865207A65726F2061 PUSH1 0x0 DUP3 ADD MSTORE PUSH32 0x6464726573730000000000000000000000000000000000000000000000000000 PUSH1 0x20 DUP3 ADD MSTORE POP JUMP JUMPDEST PUSH1 0x0 PUSH2 0x319D PUSH1 0x26 DUP4 PUSH2 0x28A8 JUMP JUMPDEST SWAP2 POP PUSH2 0x31A8 DUP3 PUSH2 0x3141 JUMP JUMPDEST PUSH1 0x40 DUP3 ADD SWAP1 POP SWAP2 SWAP1 POP JUMP JUMPDEST PUSH1 0x0 PUSH1 0x20 DUP3 ADD SWAP1 POP DUP2 DUP2 SUB PUSH1 0x0 DUP4 ADD MSTORE PUSH2 0x31CC DUP2 PUSH2 0x3190 JUMP JUMPDEST SWAP1 POP SWAP2 SWAP1 POP JUMP JUMPDEST PUSH32 0x45524332303A20617070726F76652066726F6D20746865207A65726F20616464 PUSH1 0x0 DUP3 ADD MSTORE PUSH32 0x7265737300000000000000000000000000000000000000000000000000000000 PUSH1 0x20 DUP3 ADD MSTORE POP JUMP JUMPDEST PUSH1 0x0 PUSH2 0x322F PUSH1 0x24 DUP4 PUSH2 0x28A8 JUMP JUMPDEST SWAP2 POP PUSH2 0x323A DUP3 PUSH2 0x31D3 JUMP JUMPDEST PUSH1 0x40 DUP3 ADD SWAP1 POP SWAP2 SWAP1 POP JUMP JUMPDEST PUSH1 0x0 PUSH1 0x20 DUP3 ADD SWAP1 POP DUP2 DUP2 SUB PUSH1 0x0 DUP4 ADD MSTORE PUSH2 0x325E DUP2 PUSH2 0x3222 JUMP JUMPDEST SWAP1 POP SWAP2 SWAP1 POP JUMP JUMPDEST PUSH32 0x45524332303A20617070726F766520746F20746865207A65726F206164647265 PUSH1 0x0 DUP3 ADD MSTORE PUSH32 0x7373000000000000000000000000000000000000000000000000000000000000 PUSH1 0x20 DUP3 ADD MSTORE POP JUMP JUMPDEST PUSH1 0x0 PUSH2 0x32C1 PUSH1 0x22 DUP4 PUSH2 0x28A8 JUMP JUMPDEST SWAP2 POP PUSH2 0x32CC DUP3 PUSH2 0x3265 JUMP JUMPDEST PUSH1 0x40 DUP3 ADD SWAP1 POP SWAP2 SWAP1 POP JUMP JUMPDEST PUSH1 0x0 PUSH1 0x20 DUP3 ADD SWAP1 POP DUP2 DUP2 SUB PUSH1 0x0 DUP4 ADD MSTORE PUSH2 0x32F0 DUP2 PUSH2 0x32B4 JUMP JUMPDEST SWAP1 POP SWAP2 SWAP1 POP JUMP JUMPDEST PUSH32 0x45524332303A206D696E7420746F20746865207A65726F206164647265737300 PUSH1 0x0 DUP3 ADD MSTORE POP JUMP JUMPDEST PUSH1 0x0 PUSH2 0x332D PUSH1 0x1F DUP4 PUSH2 0x28A8 JUMP JUMPDEST SWAP2 POP PUSH2 0x3338 DUP3 PUSH2 0x32F7 JUMP JUMPDEST PUSH1 0x20 DUP3 ADD SWAP1 POP SWAP2 SWAP1 POP JUMP JUMPDEST PUSH1 0x0 PUSH1 0x20 DUP3 ADD SWAP1 POP DUP2 DUP2 SUB PUSH1 0x0 DUP4 ADD MSTORE PUSH2 0x335C DUP2 PUSH2 0x3320 JUMP JUMPDEST SWAP1 POP SWAP2 SWAP1 POP JUMP JUMPDEST PUSH32 0x45524332303A207472616E736665722066726F6D20746865207A65726F206164 PUSH1 0x0 DUP3 ADD MSTORE PUSH32 0x6472657373000000000000000000000000000000000000000000000000000000 PUSH1 0x20 DUP3 ADD MSTORE POP JUMP JUMPDEST PUSH1 0x0 PUSH2 0x33BF PUSH1 0x25 DUP4 PUSH2 0x28A8 JUMP JUMPDEST SWAP2 POP PUSH2 0x33CA DUP3 PUSH2 0x3363 JUMP JUMPDEST PUSH1 0x40 DUP3 ADD SWAP1 POP SWAP2 SWAP1 POP JUMP JUMPDEST PUSH1 0x0 PUSH1 0x20 DUP3 ADD SWAP1 POP DUP2 DUP2 SUB PUSH1 0x0 DUP4 ADD MSTORE PUSH2 0x33EE DUP2 PUSH2 0x33B2 JUMP JUMPDEST SWAP1 POP SWAP2 SWAP1 POP JUMP JUMPDEST PUSH32 0x45524332303A207472616E7366657220746F20746865207A65726F2061646472 PUSH1 0x0 DUP3 ADD MSTORE PUSH32 0x6573730000000000000000000000000000000000000000000000000000000000 PUSH1 0x20 DUP3 ADD MSTORE POP JUMP JUMPDEST PUSH1 0x0 PUSH2 0x3451 PUSH1 0x23 DUP4 PUSH2 0x28A8 JUMP JUMPDEST SWAP2 POP PUSH2 0x345C DUP3 PUSH2 0x33F5 JUMP JUMPDEST PUSH1 0x40 DUP3 ADD SWAP1 POP SWAP2 SWAP1 POP JUMP JUMPDEST PUSH1 0x0 PUSH1 0x20 DUP3 ADD SWAP1 POP DUP2 DUP2 SUB PUSH1 0x0 DUP4 ADD MSTORE PUSH2 0x3480 DUP2 PUSH2 0x3444 JUMP JUMPDEST SWAP1 POP SWAP2 SWAP1 POP JUMP JUMPDEST PUSH32 0x54726164696E67206E6F742079657420656E61626C6564210000000000000000 PUSH1 0x0 DUP3 ADD MSTORE POP JUMP JUMPDEST PUSH1 0x0 PUSH2 0x34BD PUSH1 0x18 DUP4 PUSH2 0x28A8 JUMP JUMPDEST SWAP2 POP PUSH2 0x34C8 DUP3 PUSH2 0x3487 JUMP JUMPDEST PUSH1 0x20 DUP3 ADD SWAP1 POP SWAP2 SWAP1 POP JUMP JUMPDEST PUSH1 0x0 PUSH1 0x20 DUP3 ADD SWAP1 POP DUP2 DUP2 SUB PUSH1 0x0 DUP4 ADD MSTORE PUSH2 0x34EC DUP2 PUSH2 0x34B0 JUMP JUMPDEST SWAP1 POP SWAP2 SWAP1 POP JUMP JUMPDEST PUSH32 0x4E487B7100000000000000000000000000000000000000000000000000000000 PUSH1 0x0 MSTORE PUSH1 0x12 PUSH1 0x4 MSTORE PUSH1 0x24 PUSH1 0x0 REVERT JUMPDEST PUSH1 0x0 PUSH2 0x352D DUP3 PUSH2 0x2869 JUMP JUMPDEST SWAP2 POP PUSH2 0x3538 DUP4 PUSH2 0x2869 JUMP JUMPDEST SWAP3 POP DUP3 PUSH2 0x3548 JUMPI PUSH2 0x3547 PUSH2 0x34F3 JUMP JUMPDEST JUMPDEST DUP3 DUP3 DIV SWAP1 POP SWAP3 SWAP2 POP POP JUMP JUMPDEST PUSH32 0x416D6F756E742069732067726561746572207468616E204D617853656C6C6162 PUSH1 0x0 DUP3 ADD MSTORE PUSH32 0x6C65416D6F756E74000000000000000000000000000000000000000000000000 PUSH1 0x20 DUP3 ADD MSTORE POP JUMP JUMPDEST PUSH1 0x0 PUSH2 0x35AF PUSH1 0x28 DUP4 PUSH2 0x28A8 JUMP JUMPDEST SWAP2 POP PUSH2 0x35BA DUP3 PUSH2 0x3553 JUMP JUMPDEST PUSH1 0x40 DUP3 ADD SWAP1 POP SWAP2 SWAP1 POP JUMP JUMPDEST PUSH1 0x0 PUSH1 0x20 DUP3 ADD SWAP1 POP DUP2 DUP2 SUB PUSH1 0x0 DUP4 ADD MSTORE PUSH2 0x35DE DUP2 PUSH2 0x35A2 JUMP JUMPDEST SWAP1 POP SWAP2 SWAP1 POP JUMP JUMPDEST PUSH1 0x0 PUSH2 0x35F0 DUP3 PUSH2 0x2869 JUMP JUMPDEST SWAP2 POP PUSH2 0x35FB DUP4 PUSH2 0x2869 JUMP JUMPDEST SWAP3 POP DUP3 DUP3 SUB SWAP1 POP DUP2 DUP2 GT ISZERO PUSH2 0x3613 JUMPI PUSH2 0x3612 PUSH2 0x2C4A JUMP JUMPDEST JUMPDEST SWAP3 SWAP2 POP POP JUMP JUMPDEST PUSH32 0x5472616E736665722072657374726963746564206265666F726520323420686F PUSH1 0x0 DUP3 ADD MSTORE PUSH32 0x7572730000000000000000000000000000000000000000000000000000000000 PUSH1 0x20 DUP3 ADD MSTORE POP JUMP JUMPDEST PUSH1 0x0 PUSH2 0x3675 PUSH1 0x23 DUP4 PUSH2 0x28A8 JUMP JUMPDEST SWAP2 POP PUSH2 0x3680 DUP3 PUSH2 0x3619 JUMP JUMPDEST PUSH1 0x40 DUP3 ADD SWAP1 POP SWAP2 SWAP1 POP JUMP JUMPDEST PUSH1 0x0 PUSH1 0x20 DUP3 ADD SWAP1 POP DUP2 DUP2 SUB PUSH1 0x0 DUP4 ADD MSTORE PUSH2 0x36A4 DUP2 PUSH2 0x3668 JUMP JUMPDEST SWAP1 POP SWAP2 SWAP1 POP JUMP JUMPDEST PUSH32 0x45524332303A207472616E7366657220616D6F756E7420657863656564732062 PUSH1 0x0 DUP3 ADD MSTORE PUSH32 0x616C616E63650000000000000000000000000000000000000000000000000000 PUSH1 0x20 DUP3 ADD MSTORE POP JUMP JUMPDEST PUSH1 0x0 PUSH2 0x3707 PUSH1 0x26 DUP4 PUSH2 0x28A8 JUMP JUMPDEST SWAP2 POP PUSH2 0x3712 DUP3 PUSH2 0x36AB JUMP JUMPDEST PUSH1 0x40 DUP3 ADD SWAP1 POP SWAP2 SWAP1 POP JUMP JUMPDEST PUSH1 0x0 PUSH1 0x20 DUP3 ADD SWAP1 POP DUP2 DUP2 SUB PUSH1 0x0 DUP4 ADD MSTORE PUSH2 0x3736 DUP2 PUSH2 0x36FA JUMP JUMPDEST SWAP1 POP SWAP2 SWAP1 POP JUMP INVALID LOG2 PUSH5 0x6970667358 0x22 SLT KECCAK256 RETURNDATACOPY INVALID 0x5F CALLCODE DUP12 LOG2 SWAP9 RETURNDATASIZE 0xE2 ISZERO 0xBE 0x1E PUSH4 0x51DDEDDA 0xAC PUSH18 0xA5EA094CC32A0CE5379C771E0D64736F6C63 NUMBER STOP ADDMOD SGT STOP CALLER "
				},
				"gasEstimates": {
					"creation": {
						"codeDepositCost": "2839000",
						"executionCost": "infinite",
						"totalCost": "infinite"
					},
					"external": {
						"allowance(address,address)": "infinite",
						"approve(address,uint256)": "infinite",
						"balanceOf(address)": "2909",
						"decimals()": "411",
						"decreaseAllowance(address,uint256)": "infinite",
						"disable24HrsRestriction()": "26757",
						"enable24HrsRestriction()": "26712",
						"enableTrading()": "28984",
						"excludeFromFees(address)": "30954",
						"increaseAllowance(address,uint256)": "infinite",
						"isExcludedFromFees(address)": "2972",
						"lastTradeTime(address)": "2861",
						"maxSellableAmount()": "2540",
						"maxSellableRestrictionEnabled()": "2516",
						"mint()": "infinite",
						"name()": "infinite",
						"owner()": "2589",
						"removeMaxSellableRestriction()": "26662",
						"renounceOwnership()": "30387",
						"setBuyTaxPercentage(uint256)": "24818",
						"setMaxSellableAmount(uint256)": "49060",
						"setSellTaxPercentage(uint256)": "24884",
						"setUniswapPair(address)": "26993",
						"symbol()": "infinite",
						"taxCollector()": "2558",
						"taxFeeOnBuy()": "2540",
						"taxFeeOnSell()": "2540",
						"totalSupply()": "2527",
						"trading24HrsRestrictionEnabled()": "2589",
						"tradingEnabled()": "2588",
						"tradingIn24Hours(address)": "2947",
						"transfer(address,uint256)": "infinite",
						"transferFrom(address,address,uint256)": "infinite",
						"transferOwnership(address)": "30775",
						"uniswapV2Pair()": "2626"
					},
					"internal": {
						"_transfer(address,address,uint256)": "infinite"
					}
				},
				"methodIdentifiers": {
					"allowance(address,address)": "dd62ed3e",
					"approve(address,uint256)": "095ea7b3",
					"balanceOf(address)": "70a08231",
					"decimals()": "313ce567",
					"decreaseAllowance(address,uint256)": "a457c2d7",
					"disable24HrsRestriction()": "0907ea0b",
					"enable24HrsRestriction()": "2efa788b",
					"enableTrading()": "8a8c523c",
					"excludeFromFees(address)": "e57f14e1",
					"increaseAllowance(address,uint256)": "39509351",
					"isExcludedFromFees(address)": "4fbee193",
					"lastTradeTime(address)": "03186eef",
					"maxSellableAmount()": "537eed34",
					"maxSellableRestrictionEnabled()": "8d6366fe",
					"mint()": "1249c58b",
					"name()": "06fdde03",
					"owner()": "8da5cb5b",
					"removeMaxSellableRestriction()": "6da492dc",
					"renounceOwnership()": "715018a6",
					"setBuyTaxPercentage(uint256)": "a56d37f9",
					"setMaxSellableAmount(uint256)": "4ab3bdcb",
					"setSellTaxPercentage(uint256)": "9ec4be41",
					"setUniswapPair(address)": "d5aed6bf",
					"symbol()": "95d89b41",
					"taxCollector()": "bea1dcf8",
					"taxFeeOnBuy()": "ab4ebc1e",
					"taxFeeOnSell()": "9c0b9d74",
					"totalSupply()": "18160ddd",
					"trading24HrsRestrictionEnabled()": "142bc858",
					"tradingEnabled()": "4ada218b",
					"tradingIn24Hours(address)": "630a8a0c",
					"transfer(address,uint256)": "a9059cbb",
					"transferFrom(address,address,uint256)": "23b872dd",
					"transferOwnership(address)": "f2fde38b",
					"uniswapV2Pair()": "49bd5a5e"
				}
			},
			"storageLayout": {
				"storage": [
					{
						"astId": 217,
						"contract": "contracts\\Greelance.sol:Greelance",
						"label": "_balances",
						"offset": 0,
						"slot": "0",
						"type": "t_mapping(t_address,t_uint256)"
					},
					{
						"astId": 223,
						"contract": "contracts\\Greelance.sol:Greelance",
						"label": "_allowances",
						"offset": 0,
						"slot": "1",
						"type": "t_mapping(t_address,t_mapping(t_address,t_uint256))"
					},
					{
						"astId": 225,
						"contract": "contracts\\Greelance.sol:Greelance",
						"label": "_totalSupply",
						"offset": 0,
						"slot": "2",
						"type": "t_uint256"
					},
					{
						"astId": 227,
						"contract": "contracts\\Greelance.sol:Greelance",
						"label": "_name",
						"offset": 0,
						"slot": "3",
						"type": "t_string_storage"
					},
					{
						"astId": 229,
						"contract": "contracts\\Greelance.sol:Greelance",
						"label": "_symbol",
						"offset": 0,
						"slot": "4",
						"type": "t_string_storage"
					},
					{
						"astId": 111,
						"contract": "contracts\\Greelance.sol:Greelance",
						"label": "_owner",
						"offset": 0,
						"slot": "5",
						"type": "t_address"
					},
					{
						"astId": 744,
						"contract": "contracts\\Greelance.sol:Greelance",
						"label": "uniswapV2Pair",
						"offset": 0,
						"slot": "6",
						"type": "t_address"
					},
					{
						"astId": 748,
						"contract": "contracts\\Greelance.sol:Greelance",
						"label": "_isExcludedFromFees",
						"offset": 0,
						"slot": "7",
						"type": "t_mapping(t_address,t_bool)"
					},
					{
						"astId": 750,
						"contract": "contracts\\Greelance.sol:Greelance",
						"label": "taxFeeOnBuy",
						"offset": 0,
						"slot": "8",
						"type": "t_uint256"
					},
					{
						"astId": 752,
						"contract": "contracts\\Greelance.sol:Greelance",
						"label": "taxFeeOnSell",
						"offset": 0,
						"slot": "9",
						"type": "t_uint256"
					},
					{
						"astId": 754,
						"contract": "contracts\\Greelance.sol:Greelance",
						"label": "taxCollector",
						"offset": 0,
						"slot": "10",
						"type": "t_address"
					},
					{
						"astId": 756,
						"contract": "contracts\\Greelance.sol:Greelance",
						"label": "tradingEnabled",
						"offset": 20,
						"slot": "10",
						"type": "t_bool"
					},
					{
						"astId": 759,
						"contract": "contracts\\Greelance.sol:Greelance",
						"label": "tokenMinted",
						"offset": 21,
						"slot": "10",
						"type": "t_bool"
					},
					{
						"astId": 761,
						"contract": "contracts\\Greelance.sol:Greelance",
						"label": "maxSellableAmount",
						"offset": 0,
						"slot": "11",
						"type": "t_uint256"
					},
					{
						"astId": 764,
						"contract": "contracts\\Greelance.sol:Greelance",
						"label": "maxSellableRestrictionEnabled",
						"offset": 0,
						"slot": "12",
						"type": "t_bool"
					},
					{
						"astId": 767,
						"contract": "contracts\\Greelance.sol:Greelance",
						"label": "trading24HrsRestrictionEnabled",
						"offset": 1,
						"slot": "12",
						"type": "t_bool"
					},
					{
						"astId": 771,
						"contract": "contracts\\Greelance.sol:Greelance",
						"label": "tradingIn24Hours",
						"offset": 0,
						"slot": "13",
						"type": "t_mapping(t_address,t_uint256)"
					},
					{
						"astId": 775,
						"contract": "contracts\\Greelance.sol:Greelance",
						"label": "lastTradeTime",
						"offset": 0,
						"slot": "14",
						"type": "t_mapping(t_address,t_uint256)"
					}
				],
				"types": {
					"t_address": {
						"encoding": "inplace",
						"label": "address",
						"numberOfBytes": "20"
					},
					"t_bool": {
						"encoding": "inplace",
						"label": "bool",
						"numberOfBytes": "1"
					},
					"t_mapping(t_address,t_bool)": {
						"encoding": "mapping",
						"key": "t_address",
						"label": "mapping(address => bool)",
						"numberOfBytes": "32",
						"value": "t_bool"
					},
					"t_mapping(t_address,t_mapping(t_address,t_uint256))": {
						"encoding": "mapping",
						"key": "t_address",
						"label": "mapping(address => mapping(address => uint256))",
						"numberOfBytes": "32",
						"value": "t_mapping(t_address,t_uint256)"
					},
					"t_mapping(t_address,t_uint256)": {
						"encoding": "mapping",
						"key": "t_address",
						"label": "mapping(address => uint256)",
						"numberOfBytes": "32",
						"value": "t_uint256"
					},
					"t_string_storage": {
						"encoding": "bytes",
						"label": "string",
						"numberOfBytes": "32"
					},
					"t_uint256": {
						"encoding": "inplace",
						"label": "uint256",
						"numberOfBytes": "32"
					}
				}
			},
			"userdoc": {
				"kind": "user",
				"methods": {},
				"version": 1
			}
		}
	}
}