{
  "_format": "hh-sol-artifact-1",
  "contractName": "BaseNFT",
  "sourceName": "contracts/BaseNFT.sol",
  "abi": [
    {
      "inputs": [],
      "stateMutability": "nonpayable",
      "type": "constructor"
    },
    {
      "anonymous": false,
      "inputs": [
        {
          "indexed": true,
          "internalType": "address",
          "name": "owner",
          "type": "address"
        },
        {
          "indexed": true,
          "internalType": "address",
          "name": "approved",
          "type": "address"
        },
        {
          "indexed": true,
          "internalType": "uint256",
          "name": "tokenId",
          "type": "uint256"
        }
      ],
      "name": "Approval",
      "type": "event"
    },
    {
      "anonymous": false,
      "inputs": [
        {
          "indexed": true,
          "internalType": "address",
          "name": "owner",
          "type": "address"
        },
        {
          "indexed": true,
          "internalType": "address",
          "name": "operator",
          "type": "address"
        },
        {
          "indexed": false,
          "internalType": "bool",
          "name": "approved",
          "type": "bool"
        }
      ],
      "name": "ApprovalForAll",
      "type": "event"
    },
    {
      "anonymous": false,
      "inputs": [
        {
          "indexed": true,
          "internalType": "address",
          "name": "previousOwner",
          "type": "address"
        },
        {
          "indexed": true,
          "internalType": "address",
          "name": "newOwner",
          "type": "address"
        }
      ],
      "name": "OwnershipTransferred",
      "type": "event"
    },
    {
      "anonymous": false,
      "inputs": [
        {
          "indexed": true,
          "internalType": "address",
          "name": "from",
          "type": "address"
        },
        {
          "indexed": true,
          "internalType": "address",
          "name": "to",
          "type": "address"
        },
        {
          "indexed": true,
          "internalType": "uint256",
          "name": "tokenId",
          "type": "uint256"
        }
      ],
      "name": "Transfer",
      "type": "event"
    },
    {
      "inputs": [
        {
          "internalType": "address",
          "name": "owner",
          "type": "address"
        }
      ],
      "name": "balanceOf",
      "outputs": [
        {
          "internalType": "uint256",
          "name": "",
          "type": "uint256"
        }
      ],
      "stateMutability": "view",
      "type": "function"
    },
    {
      "inputs": [
        {
          "internalType": "address",
          "name": "_user",
          "type": "address"
        },
        {
          "internalType": "uint256",
          "name": "_tokenId",
          "type": "uint256"
        },
        {
          "internalType": "string",
          "name": "_uri",
          "type": "string"
        }
      ],
      "name": "mint",
      "outputs": [],
      "stateMutability": "nonpayable",
      "type": "function"
    },
    {
      "inputs": [],
      "name": "name",
      "outputs": [
        {
          "internalType": "string",
          "name": "",
          "type": "string"
        }
      ],
      "stateMutability": "view",
      "type": "function"
    },
    {
      "inputs": [],
      "name": "owner",
      "outputs": [
        {
          "internalType": "address",
          "name": "",
          "type": "address"
        }
      ],
      "stateMutability": "view",
      "type": "function"
    },
    {
      "inputs": [
        {
          "internalType": "uint256",
          "name": "tokenId",
          "type": "uint256"
        }
      ],
      "name": "ownerOf",
      "outputs": [
        {
          "internalType": "address",
          "name": "",
          "type": "address"
        }
      ],
      "stateMutability": "view",
      "type": "function"
    },
    {
      "inputs": [
        {
          "internalType": "bytes4",
          "name": "interfaceId",
          "type": "bytes4"
        }
      ],
      "name": "supportsInterface",
      "outputs": [
        {
          "internalType": "bool",
          "name": "",
          "type": "bool"
        }
      ],
      "stateMutability": "view",
      "type": "function"
    },
    {
      "inputs": [],
      "name": "symbol",
      "outputs": [
        {
          "internalType": "string",
          "name": "",
          "type": "string"
        }
      ],
      "stateMutability": "view",
      "type": "function"
    },
    {
      "inputs": [
        {
          "internalType": "uint256",
          "name": "tokenId",
          "type": "uint256"
        }
      ],
      "name": "tokenURI",
      "outputs": [
        {
          "internalType": "string",
          "name": "",
          "type": "string"
        }
      ],
      "stateMutability": "view",
      "type": "function"
    },
    {
      "inputs": [],
      "name": "totalSupply",
      "outputs": [
        {
          "internalType": "uint256",
          "name": "",
          "type": "uint256"
        }
      ],
      "stateMutability": "view",
      "type": "function"
    },
    {
      "inputs": [
        {
          "internalType": "address",
          "name": "newOwner",
          "type": "address"
        }
      ],
      "name": "transferOwnership",
      "outputs": [],
      "stateMutability": "nonpayable",
      "type": "function"
    }
  ],
  "bytecode": "0x60806040523480156200001157600080fd5b506040518060400160405280600881526020016710985cd94813919560c21b815250604051806040016040528060038152602001620424e560ec1b81525081600090816200006091906200018d565b5060016200006f82826200018d565b5050506200008c620000866200009260201b60201c565b62000096565b62000259565b3390565b600b80546001600160a01b038381166001600160a01b0319831681179093556040519116919082907f8be0079c531659141344cd1fd0a4f28419497f9722a3daafe3b4186f6b6457e090600090a35050565b634e487b7160e01b600052604160045260246000fd5b600181811c908216806200011357607f821691505b6020821081036200013457634e487b7160e01b600052602260045260246000fd5b50919050565b601f8211156200018857600081815260208120601f850160051c81016020861015620001635750805b601f850160051c820191505b8181101562000184578281556001016200016f565b5050505b505050565b81516001600160401b03811115620001a957620001a9620000e8565b620001c181620001ba8454620000fe565b846200013a565b602080601f831160018114620001f95760008415620001e05750858301515b600019600386901b1c1916600185901b17855562000184565b600085815260208120601f198616915b828110156200022a5788860151825594840194600190910190840162000209565b5085821015620002495787850151600019600388901b60f8161c191681555b5050505050600190811b01905550565b6113f980620002696000396000f3fe608060405234801561001057600080fd5b50600436106100be5760003560e01c80638da5cb5b11610076578063c87b56dd1161005b578063c87b56dd14610169578063d3fc98641461017c578063f2fde38b1461019157600080fd5b80638da5cb5b1461015057806395d89b411461016157600080fd5b806318160ddd116100a757806318160ddd146101005780636352211e1461011257806370a082311461013d57600080fd5b806301ffc9a7146100c357806306fdde03146100eb575b600080fd5b6100d66100d1366004610ff0565b6101a4565b60405190151581526020015b60405180910390f35b6100f36101b5565b6040516100e2919061105d565b6008545b6040519081526020016100e2565b610125610120366004611070565b610247565b6040516001600160a01b0390911681526020016100e2565b61010461014b3660046110a5565b6102d7565b600b546001600160a01b0316610125565b6100f3610371565b6100f3610177366004611070565b610380565b61018f61018a3660046110c0565b61038b565b005b61018f61019f3660046110a5565b610435565b60006101af82610517565b92915050565b6060600080546101c490611147565b80601f01602080910402602001604051908101604052809291908181526020018280546101f090611147565b801561023d5780601f106102125761010080835404028352916020019161023d565b820191906000526020600020905b81548152906001019060200180831161022057829003601f168201915b5050505050905090565b6000818152600260205260408120546001600160a01b0316806101af5760405162461bcd60e51b815260206004820152602960248201527f4552433732313a206f776e657220717565727920666f72206e6f6e657869737460448201527f656e7420746f6b656e000000000000000000000000000000000000000000000060648201526084015b60405180910390fd5b60006001600160a01b0382166103555760405162461bcd60e51b815260206004820152602a60248201527f4552433732313a2062616c616e636520717565727920666f7220746865207a6560448201527f726f20616464726573730000000000000000000000000000000000000000000060648201526084016102ce565b506001600160a01b031660009081526003602052604090205490565b6060600180546101c490611147565b60606101af8261053c565b600b546001600160a01b031633146103e55760405162461bcd60e51b815260206004820181905260248201527f4f776e61626c653a2063616c6c6572206973206e6f7420746865206f776e657260448201526064016102ce565b6103ef84846106ce565b61042f8383838080601f0160208091040260200160405190810160405280939291908181526020018383808284376000920191909152506106ec92505050565b50505050565b600b546001600160a01b0316331461048f5760405162461bcd60e51b815260206004820181905260248201527f4f776e61626c653a2063616c6c6572206973206e6f7420746865206f776e657260448201526064016102ce565b6001600160a01b03811661050b5760405162461bcd60e51b815260206004820152602660248201527f4f776e61626c653a206e6577206f776e657220697320746865207a65726f206160448201527f646472657373000000000000000000000000000000000000000000000000000060648201526084016102ce565b61051481610793565b50565b60006001600160e01b031982166318160ddd60e01b14806101af57506101af826107f2565b6000818152600260205260409020546060906001600160a01b03166105c95760405162461bcd60e51b815260206004820152603160248201527f45524337323155524953746f726167653a2055524920717565727920666f722060448201527f6e6f6e6578697374656e7420746f6b656e00000000000000000000000000000060648201526084016102ce565b6000828152600a6020526040812080546105e290611147565b80601f016020809104026020016040519081016040528092919081815260200182805461060e90611147565b801561065b5780601f106106305761010080835404028352916020019161065b565b820191906000526020600020905b81548152906001019060200180831161063e57829003601f168201915b50505050509050600061067960408051602081019091526000815290565b9050805160000361068b575092915050565b8151156106bd5780826040516020016106a5929190611181565b60405160208183030381529060405292505050919050565b6106c684610842565b949350505050565b6106e8828260405180602001604052806000815250610938565b5050565b6000828152600260205260409020546001600160a01b03166107765760405162461bcd60e51b815260206004820152602e60248201527f45524337323155524953746f726167653a2055524920736574206f66206e6f6e60448201527f6578697374656e7420746f6b656e00000000000000000000000000000000000060648201526084016102ce565b6000828152600a6020526040902061078e8282611214565b505050565b600b80546001600160a01b0383811673ffffffffffffffffffffffffffffffffffffffff19831681179093556040519116919082907f8be0079c531659141344cd1fd0a4f28419497f9722a3daafe3b4186f6b6457e090600090a35050565b60006001600160e01b031982166313f2a32f60e01b148061082357506001600160e01b03198216635b5e139f60e01b145b806101af57506301ffc9a760e01b6001600160e01b03198316146101af565b6000818152600260205260409020546060906001600160a01b03166108cf5760405162461bcd60e51b815260206004820152602f60248201527f4552433732314d657461646174613a2055524920717565727920666f72206e6f60448201527f6e6578697374656e7420746f6b656e000000000000000000000000000000000060648201526084016102ce565b60006108e660408051602081019091526000815290565b905060008151116109065760405180602001604052806000815250610931565b80610910846109c1565b604051602001610921929190611181565b6040516020818303038152906040525b9392505050565b6109428383610ada565b61094f6000848484610c35565b61078e5760405162461bcd60e51b815260206004820152603260248201527f4552433732313a207472616e7366657220746f206e6f6e20455243373231526560448201527f63656976657220696d706c656d656e746572000000000000000000000000000060648201526084016102ce565b6060816000036109e85750506040805180820190915260018152600360fc1b602082015290565b8160005b8115610a1257806109fc816112ea565b9150610a0b9050600a83611319565b91506109ec565b60008167ffffffffffffffff811115610a2d57610a2d6111b0565b6040519080825280601f01601f191660200182016040528015610a57576020820181803683370190505b5090505b84156106c657610a6c60018361132d565b9150610a79600a86611340565b610a84906030611354565b60f81b818381518110610a9957610a99611367565b60200101907effffffffffffffffffffffffffffffffffffffffffffffffffffffffffffff1916908160001a905350610ad3600a86611319565b9450610a5b565b6001600160a01b038216610b305760405162461bcd60e51b815260206004820181905260248201527f4552433732313a206d696e7420746f20746865207a65726f206164647265737360448201526064016102ce565b6000818152600260205260409020546001600160a01b031615610b955760405162461bcd60e51b815260206004820152601c60248201527f4552433732313a20746f6b656e20616c7265616479206d696e7465640000000060448201526064016102ce565b610ba160008383610d8c565b6001600160a01b0382166000908152600360205260408120805460019290610bca908490611354565b9091555050600081815260026020526040808220805473ffffffffffffffffffffffffffffffffffffffff19166001600160a01b03861690811790915590518392907fddf252ad1be2c89b69c2b068fc378daa952ba7f163c4a11628f55a4df523b3ef908290a45050565b60006001600160a01b0384163b15610d8157604051630a85bd0160e11b81526001600160a01b0385169063150b7a0290610c7990339089908890889060040161137d565b6020604051808303816000875af1925050508015610cb4575060408051601f3d908101601f19168201909252610cb1918101906113b9565b60015b610d67573d808015610ce2576040519150601f19603f3d011682016040523d82523d6000602084013e610ce7565b606091505b508051600003610d5f5760405162461bcd60e51b815260206004820152603260248201527f4552433732313a207472616e7366657220746f206e6f6e20455243373231526560448201527f63656976657220696d706c656d656e746572000000000000000000000000000060648201526084016102ce565b805181602001fd5b6001600160e01b031916630a85bd0160e11b1490506106c6565b506001949350505050565b61078e8383836001600160a01b038316610ded57610de881600880546000838152600960205260408120829055600182018355919091527ff3f7a9fe364faab93b216da50a3214154f22a0a2b415b23a84c8169e8b636ee30155565b610e10565b816001600160a01b0316836001600160a01b031614610e1057610e108382610e4a565b6001600160a01b038216610e275761078e81610ee7565b826001600160a01b0316826001600160a01b03161461078e5761078e8282610f96565b60006001610e57846102d7565b610e61919061132d565b600083815260076020526040902054909150808214610eb4576001600160a01b03841660009081526006602090815260408083208584528252808320548484528184208190558352600790915290208190555b5060009182526007602090815260408084208490556001600160a01b039094168352600681528383209183525290812055565b600854600090610ef99060019061132d565b60008381526009602052604081205460088054939450909284908110610f2157610f21611367565b906000526020600020015490508060088381548110610f4257610f42611367565b6000918252602080832090910192909255828152600990915260408082208490558582528120556008805480610f7a57610f7a6113d6565b6001900381819060005260206000200160009055905550505050565b6000610fa1836102d7565b6001600160a01b039093166000908152600660209081526040808320868452825280832085905593825260079052919091209190915550565b6001600160e01b03198116811461051457600080fd5b60006020828403121561100257600080fd5b813561093181610fda565b60005b83811015611028578181015183820152602001611010565b50506000910152565b6000815180845261104981602086016020860161100d565b601f01601f19169290920160200192915050565b6020815260006109316020830184611031565b60006020828403121561108257600080fd5b5035919050565b80356001600160a01b03811681146110a057600080fd5b919050565b6000602082840312156110b757600080fd5b61093182611089565b600080600080606085870312156110d657600080fd5b6110df85611089565b935060208501359250604085013567ffffffffffffffff8082111561110357600080fd5b818701915087601f83011261111757600080fd5b81358181111561112657600080fd5b88602082850101111561113857600080fd5b95989497505060200194505050565b600181811c9082168061115b57607f821691505b60208210810361117b57634e487b7160e01b600052602260045260246000fd5b50919050565b6000835161119381846020880161100d565b8351908301906111a781836020880161100d565b01949350505050565b634e487b7160e01b600052604160045260246000fd5b601f82111561078e57600081815260208120601f850160051c810160208610156111ed5750805b601f850160051c820191505b8181101561120c578281556001016111f9565b505050505050565b815167ffffffffffffffff81111561122e5761122e6111b0565b6112428161123c8454611147565b846111c6565b602080601f831160018114611277576000841561125f5750858301515b600019600386901b1c1916600185901b17855561120c565b600085815260208120601f198616915b828110156112a657888601518255948401946001909101908401611287565b50858210156112c45787850151600019600388901b60f8161c191681555b5050505050600190811b01905550565b634e487b7160e01b600052601160045260246000fd5b6000600182016112fc576112fc6112d4565b5060010190565b634e487b7160e01b600052601260045260246000fd5b60008261132857611328611303565b500490565b818103818111156101af576101af6112d4565b60008261134f5761134f611303565b500690565b808201808211156101af576101af6112d4565b634e487b7160e01b600052603260045260246000fd5b60006001600160a01b038087168352808616602084015250836040830152608060608301526113af6080830184611031565b9695505050505050565b6000602082840312156113cb57600080fd5b815161093181610fda565b634e487b7160e01b600052603160045260246000fdfea164736f6c6343000814000a",
  "linkReferences": {},
  "deployedLinkReferences": {}
}