{
  "_format": "hh-sol-artifact-1",
  "contractName": "ERC721",
  "sourceName": "contracts/BaseNFT.sol",
  "abi": [
    {
      "inputs": [
        {
          "internalType": "string",
          "name": "name_",
          "type": "string"
        },
        {
          "internalType": "string",
          "name": "symbol_",
          "type": "string"
        }
      ],
      "stateMutability": "nonpayable",
      "type": "constructor"
    },
    {
      "anonymous": false,
      "inputs": [
        {
          "indexed": true,
          "internalType": "address",
          "name": "owner",
          "type": "address"
        },
        {
          "indexed": true,
          "internalType": "address",
          "name": "approved",
          "type": "address"
        },
        {
          "indexed": true,
          "internalType": "uint256",
          "name": "tokenId",
          "type": "uint256"
        }
      ],
      "name": "Approval",
      "type": "event"
    },
    {
      "anonymous": false,
      "inputs": [
        {
          "indexed": true,
          "internalType": "address",
          "name": "owner",
          "type": "address"
        },
        {
          "indexed": true,
          "internalType": "address",
          "name": "operator",
          "type": "address"
        },
        {
          "indexed": false,
          "internalType": "bool",
          "name": "approved",
          "type": "bool"
        }
      ],
      "name": "ApprovalForAll",
      "type": "event"
    },
    {
      "anonymous": false,
      "inputs": [
        {
          "indexed": true,
          "internalType": "address",
          "name": "from",
          "type": "address"
        },
        {
          "indexed": true,
          "internalType": "address",
          "name": "to",
          "type": "address"
        },
        {
          "indexed": true,
          "internalType": "uint256",
          "name": "tokenId",
          "type": "uint256"
        }
      ],
      "name": "Transfer",
      "type": "event"
    },
    {
      "inputs": [
        {
          "internalType": "address",
          "name": "owner",
          "type": "address"
        }
      ],
      "name": "balanceOf",
      "outputs": [
        {
          "internalType": "uint256",
          "name": "",
          "type": "uint256"
        }
      ],
      "stateMutability": "view",
      "type": "function"
    },
    {
      "inputs": [],
      "name": "name",
      "outputs": [
        {
          "internalType": "string",
          "name": "",
          "type": "string"
        }
      ],
      "stateMutability": "view",
      "type": "function"
    },
    {
      "inputs": [
        {
          "internalType": "uint256",
          "name": "tokenId",
          "type": "uint256"
        }
      ],
      "name": "ownerOf",
      "outputs": [
        {
          "internalType": "address",
          "name": "",
          "type": "address"
        }
      ],
      "stateMutability": "view",
      "type": "function"
    },
    {
      "inputs": [
        {
          "internalType": "bytes4",
          "name": "interfaceId",
          "type": "bytes4"
        }
      ],
      "name": "supportsInterface",
      "outputs": [
        {
          "internalType": "bool",
          "name": "",
          "type": "bool"
        }
      ],
      "stateMutability": "view",
      "type": "function"
    },
    {
      "inputs": [],
      "name": "symbol",
      "outputs": [
        {
          "internalType": "string",
          "name": "",
          "type": "string"
        }
      ],
      "stateMutability": "view",
      "type": "function"
    },
    {
      "inputs": [
        {
          "internalType": "uint256",
          "name": "tokenId",
          "type": "uint256"
        }
      ],
      "name": "tokenURI",
      "outputs": [
        {
          "internalType": "string",
          "name": "",
          "type": "string"
        }
      ],
      "stateMutability": "view",
      "type": "function"
    }
  ],
  "bytecode": "0x60806040523480156200001157600080fd5b5060405162000a3b38038062000a3b83398101604081905262000034916200011f565b600062000042838262000218565b50600162000051828262000218565b505050620002e4565b634e487b7160e01b600052604160045260246000fd5b600082601f8301126200008257600080fd5b81516001600160401b03808211156200009f576200009f6200005a565b604051601f8301601f19908116603f01168101908282118183101715620000ca57620000ca6200005a565b81604052838152602092508683858801011115620000e757600080fd5b600091505b838210156200010b5785820183015181830184015290820190620000ec565b600093810190920192909252949350505050565b600080604083850312156200013357600080fd5b82516001600160401b03808211156200014b57600080fd5b620001598683870162000070565b935060208501519150808211156200017057600080fd5b506200017f8582860162000070565b9150509250929050565b600181811c908216806200019e57607f821691505b602082108103620001bf57634e487b7160e01b600052602260045260246000fd5b50919050565b601f8211156200021357600081815260208120601f850160051c81016020861015620001ee5750805b601f850160051c820191505b818110156200020f57828155600101620001fa565b5050505b505050565b81516001600160401b038111156200023457620002346200005a565b6200024c8162000245845462000189565b84620001c5565b602080601f8311600181146200028457600084156200026b5750858301515b600019600386901b1c1916600185901b1785556200020f565b600085815260208120601f198616915b82811015620002b55788860151825594840194600190910190840162000294565b5085821015620002d45787850151600019600388901b60f8161c191681555b5050505050600190811b01905550565b61074780620002f46000396000f3fe608060405234801561001057600080fd5b50600436106100725760003560e01c806370a082311161005057806370a08231146100df57806395d89b4114610100578063c87b56dd1461010857600080fd5b806301ffc9a71461007757806306fdde031461009f5780636352211e146100b4575b600080fd5b61008a61008536600461054f565b61011b565b60405190151581526020015b60405180910390f35b6100a761016d565b604051610096919061059d565b6100c76100c23660046105d0565b6101ff565b6040516001600160a01b039091168152602001610096565b6100f26100ed3660046105e9565b61028f565b604051908152602001610096565b6100a7610329565b6100a76101163660046105d0565b610338565b60006001600160e01b031982166313f2a32f60e01b148061014c57506001600160e01b03198216635b5e139f60e01b145b8061016757506301ffc9a760e01b6001600160e01b03198316145b92915050565b60606000805461017c90610612565b80601f01602080910402602001604051908101604052809291908181526020018280546101a890610612565b80156101f55780601f106101ca576101008083540402835291602001916101f5565b820191906000526020600020905b8154815290600101906020018083116101d857829003601f168201915b5050505050905090565b6000818152600260205260408120546001600160a01b0316806101675760405162461bcd60e51b815260206004820152602960248201527f4552433732313a206f776e657220717565727920666f72206e6f6e657869737460448201527f656e7420746f6b656e000000000000000000000000000000000000000000000060648201526084015b60405180910390fd5b60006001600160a01b03821661030d5760405162461bcd60e51b815260206004820152602a60248201527f4552433732313a2062616c616e636520717565727920666f7220746865207a6560448201527f726f2061646472657373000000000000000000000000000000000000000000006064820152608401610286565b506001600160a01b031660009081526003602052604090205490565b60606001805461017c90610612565b6000818152600260205260409020546060906001600160a01b03166103c55760405162461bcd60e51b815260206004820152602f60248201527f4552433732314d657461646174613a2055524920717565727920666f72206e6f60448201527f6e6578697374656e7420746f6b656e00000000000000000000000000000000006064820152608401610286565b60006103dc60408051602081019091526000815290565b905060008151116103fc5760405180602001604052806000815250610427565b806104068461042e565b60405160200161041792919061064c565b6040516020818303038152906040525b9392505050565b6060816000036104555750506040805180820190915260018152600360fc1b602082015290565b8160005b811561047f578061046981610691565b91506104789050600a836106c0565b9150610459565b60008167ffffffffffffffff81111561049a5761049a6106d4565b6040519080825280601f01601f1916602001820160405280156104c4576020820181803683370190505b5090505b8415610547576104d96001836106ea565b91506104e6600a866106fd565b6104f1906030610711565b60f81b81838151811061050657610506610724565b60200101907effffffffffffffffffffffffffffffffffffffffffffffffffffffffffffff1916908160001a905350610540600a866106c0565b94506104c8565b949350505050565b60006020828403121561056157600080fd5b81356001600160e01b03198116811461042757600080fd5b60005b8381101561059457818101518382015260200161057c565b50506000910152565b60208152600082518060208401526105bc816040850160208701610579565b601f01601f19169190910160400192915050565b6000602082840312156105e257600080fd5b5035919050565b6000602082840312156105fb57600080fd5b81356001600160a01b038116811461042757600080fd5b600181811c9082168061062657607f821691505b60208210810361064657634e487b7160e01b600052602260045260246000fd5b50919050565b6000835161065e818460208801610579565b835190830190610672818360208801610579565b01949350505050565b634e487b7160e01b600052601160045260246000fd5b6000600182016106a3576106a361067b565b5060010190565b634e487b7160e01b600052601260045260246000fd5b6000826106cf576106cf6106aa565b500490565b634e487b7160e01b600052604160045260246000fd5b818103818111156101675761016761067b565b60008261070c5761070c6106aa565b500690565b808201808211156101675761016761067b565b634e487b7160e01b600052603260045260246000fdfea164736f6c6343000814000a",
  "linkReferences": {},
  "deployedLinkReferences": {}
}