{"contracts/TeamVesting.sol":{"TeamVesting":{"abi":[{"inputs":[{"internalType":"address","name":"_grlAddress","type":"address"}],"stateMutability":"nonpayable","type":"constructor"},{"anonymous":false,"inputs":[{"indexed":false,"internalType":"uint256","name":"releaseable","type":"uint256"},{"indexed":false,"internalType":"uint256","name":"claimed","type":"uint256"}],"name":"TokenReleased","type":"event"},{"anonymous":false,"inputs":[{"indexed":true,"internalType":"address","name":"claimer","type":"address"},{"indexed":false,"internalType":"uint256","name":"releasableTokens","type":"uint256"},{"indexed":false,"internalType":"uint256","name":"purchaseIndex","type":"uint256"}],"name":"TokensClaimed","type":"event"},{"anonymous":false,"inputs":[{"indexed":true,"internalType":"address","name":"from","type":"address"},{"indexed":true,"internalType":"address","name":"to","type":"address"},{"indexed":false,"internalType":"uint256","name":"value","type":"uint256"}],"name":"Transfer","type":"event"},{"inputs":[],"name":"admin","outputs":[{"internalType":"address","name":"","type":"address"}],"stateMutability":"view","type":"function"},{"inputs":[],"name":"claimReleasableTokens","outputs":[],"stateMutability":"nonpayable","type":"function"},{"inputs":[{"internalType":"address","name":"_beneficiary","type":"address"},{"internalType":"uint256","name":"_cliff","type":"uint256"},{"internalType":"uint256","name":"_duration","type":"uint256"},{"internalType":"uint256","name":"_slicePeriod","type":"uint256"},{"internalType":"uint256","name":"_amount","type":"uint256"}],"name":"createVestingSchedule","outputs":[],"stateMutability":"nonpayable","type":"function"},{"inputs":[{"internalType":"address","name":"beneficiary","type":"address"}],"name":"getReleaseableAmount","outputs":[{"internalType":"uint256","name":"totalReleasable","type":"uint256"},{"internalType":"uint256","name":"totalRemaining","type":"uint256"}],"stateMutability":"view","type":"function"},{"inputs":[{"internalType":"address","name":"_beneficiary","type":"address"}],"name":"getVestingUserCount","outputs":[{"internalType":"uint256","name":"","type":"uint256"}],"stateMutability":"view","type":"function"},{"inputs":[],"name":"grl","outputs":[{"internalType":"contract IERC20","name":"","type":"address"}],"stateMutability":"view","type":"function"},{"inputs":[{"internalType":"address","name":"","type":"address"},{"internalType":"uint256","name":"","type":"uint256"}],"name":"vestedUserDetail","outputs":[{"internalType":"address","name":"beneficiary","type":"address"},{"internalType":"uint256","name":"cliff","type":"uint256"},{"internalType":"uint256","name":"start","type":"uint256"},{"internalType":"uint256","name":"duration","type":"uint256"},{"internalType":"uint256","name":"slicePeriod","type":"uint256"},{"internalType":"uint256","name":"amountTotal","type":"uint256"},{"internalType":"uint256","name":"released","type":"uint256"}],"stateMutability":"view","type":"function"},{"inputs":[],"name":"withdrawEth","outputs":[],"stateMutability":"nonpayable","type":"function"},{"inputs":[],"name":"withdrawGrl","outputs":[],"stateMutability":"nonpayable","type":"function"}],"evm":{"bytecode":{"linkReferences":{},"object":"60a060405234801561001057600080fd5b50604051610d97380380610d9783398101604081905261002f9161005e565b600080546001600160a01b0390921661010002610100600160a81b03199092169190911790553360805261008e565b60006020828403121561007057600080fd5b81516001600160a01b038116811461008757600080fd5b9392505050565b608051610ccb6100cc6000396000818161020a01528181610237015281816103980152818161042b0152818161068101526106f20152610ccb6000f3fe608060405234801561001057600080fd5b50600436106100a35760003560e01c80635edfc4d311610076578063cf8a8cd01161005b578063cf8a8cd0146101d5578063d517562d146101dd578063f851a4401461020557600080fd5b80635edfc4d314610131578063a0ef91df146101cd57600080fd5b80630b9b199d146100a85780630e281f66146100b25780631bf0b08b146100e75780634bb127c3146100fa575b600080fd5b6100b061022c565b005b6000546100ca9061010090046001600160a01b031681565b6040516001600160a01b0390911681526020015b60405180910390f35b6100b06100f5366004610b61565b610420565b610123610108366004610ba3565b6001600160a01b031660009081526003602052604090205490565b6040519081526020016100de565b61018e61013f366004610bc5565b6002602081815260009384526040808520909152918352912080546001820154928201546003830154600484015460058501546006909501546001600160a01b03909416959492939192909187565b604080516001600160a01b0390981688526020880196909652948601939093526060850191909152608084015260a083015260c082015260e0016100de565b6100b0610676565b6100b0610771565b6101f06101eb366004610ba3565b610972565b604080519283526020830191909152016100de565b6100ca7f000000000000000000000000000000000000000000000000000000000000000081565b336001600160a01b037f000000000000000000000000000000000000000000000000000000000000000016146102a95760405162461bcd60e51b815260206004820152601660248201527f596f75277265206e6f7420617574686f72697a6564210000000000000000000060448201526064015b60405180910390fd5b600080546040516370a0823160e01b81523060048201526101009091046001600160a01b0316906370a0823190602401602060405180830381865afa1580156102f6573d6000803e3d6000fd5b505050506040513d601f19601f8201168201806040525081019061031a9190610bef565b905060006001548261032c9190610c1e565b90506000811161037e5760405162461bcd60e51b815260206004820152601360248201527f6e6f2067726c20696e20636f6e7472616374210000000000000000000000000060448201526064016102a0565b60005460405163a9059cbb60e01b81526001600160a01b037f000000000000000000000000000000000000000000000000000000000000000081166004830152602482018490526101009092049091169063a9059cbb906044016020604051808303816000875af11580156103f7573d6000803e3d6000fd5b505050506040513d601f19601f8201168201806040525081019061041b9190610c37565b505050565b336001600160a01b037f000000000000000000000000000000000000000000000000000000000000000016146104985760405162461bcd60e51b815260206004820152601660248201527f596f75277265206e6f7420617574686f72697a6564210000000000000000000060448201526064016102a0565b8383101561050e5760405162461bcd60e51b815260206004820152602760248201527f546f6b656e56657374696e673a206475726174696f6e206d757374206265203e60448201527f3d20636c6966660000000000000000000000000000000000000000000000000060648201526084016102a0565b600061051d8562015180610c59565b6105279042610c70565b6001600160a01b038716600090815260036020526040812080549293509091908261055183610c83565b9190505590506040518060e00160405280886001600160a01b03168152602001838152602001428152602001866201518061058c9190610c59565b815260200161059e8662015180610c59565b81526020016105b185633b9aca00610c59565b8152600060209182018190526001600160a01b038a8116825260028084526040808420878552855292839020855181547fffffffffffffffffffffffff00000000000000000000000000000000000000001693169290921782559284015160018201559083015191810191909155606082015160038201556080820151600482015560a0820151600582015560c09091015160069091015561065783633b9aca00610c59565b600160008282546106689190610c70565b909155505050505050505050565b336001600160a01b037f000000000000000000000000000000000000000000000000000000000000000016146106ee5760405162461bcd60e51b815260206004820152601660248201527f596f75277265206e6f7420617574686f72697a6564210000000000000000000060448201526064016102a0565b60007f00000000000000000000000000000000000000000000000000000000000000006001600160a01b03164760405160006040518083038185875af1925050503d806000811461075b576040519150601f19603f3d011682016040523d82523d6000602084013e610760565b606091505b505090508061076e57600080fd5b50565b336000908152600360205260408120548190806107d05760405162461bcd60e51b815260206004820152601360248201527f4e6f20746f6b656e73207075726368617365640000000000000000000000000060448201526064016102a0565b60005b818110156108a2573360009081526002602081815260408084208585528252808420815160e08101835281546001600160a01b0316815260018201549381019390935292830154908201526003820154606082015260048201546080820152600582015460a0820152600682015460c0820152909190819061085490610a4f565b90925090506108638288610c70565b965061086f8187610c70565b9550818360060160008282546108859190610c70565b92505081905550505050808061089a90610c83565b9150506107d3565b50600083116108f35760405162461bcd60e51b815260206004820152601360248201527f4e4f20746f6b656e7320746f20636c61696d210000000000000000000000000060448201526064016102a0565b60005460405163a9059cbb60e01b8152336004820152602481018590526101009091046001600160a01b03169063a9059cbb906044016020604051808303816000875af1158015610948573d6000803e3d6000fd5b505050506040513d601f19601f8201168201806040525081019061096c9190610c37565b50505050565b6001600160a01b0381166000908152600360205260408120548190815b81811015610a48576001600160a01b0380861660009081526002602081815260408084208685528252808420815160e0810183528154909616865260018101549286019290925291810154918401919091526003810154606084015260048101546080840152600581015460a0840152600681015460c0840152918190610a1590610a4f565b9092509050610a248288610c70565b9650610a308187610c70565b95505050508080610a4090610c83565b91505061098f565b5050915091565b600080600042905060008460200151821015610a865760008560c001518660a00151610a7b9190610c1e565b935093505050915091565b84606001518560400151610a9a9190610c70565b8210610ac0578460c001518560a00151610ab49190610c1e565b95600095509350505050565b6000856020015183610ad29190610c1e565b60808701519091506000610ae68284610c9c565b90506000610af48383610c59565b90508860600151818a60a00151610b0b9190610c59565b610b159190610c9c565b94505050505060c0850151610b2a9082610c1e565b9350808560a00151610b3c9190610c1e565b92505050915091565b80356001600160a01b0381168114610b5c57600080fd5b919050565b600080600080600060a08688031215610b7957600080fd5b610b8286610b45565b97602087013597506040870135966060810135965060800135945092505050565b600060208284031215610bb557600080fd5b610bbe82610b45565b9392505050565b60008060408385031215610bd857600080fd5b610be183610b45565b946020939093013593505050565b600060208284031215610c0157600080fd5b5051919050565b634e487b7160e01b600052601160045260246000fd5b81810381811115610c3157610c31610c08565b92915050565b600060208284031215610c4957600080fd5b81518015158114610bbe57600080fd5b8082028115828204841417610c3157610c31610c08565b80820180821115610c3157610c31610c08565b600060018201610c9557610c95610c08565b5060010190565b600082610cb957634e487b7160e01b600052601260045260246000fd5b50049056fea164736f6c6343000814000a","opcodes":"PUSH1 0xA0 PUSH1 0x40 MSTORE CALLVALUE DUP1 ISZERO PUSH2 0x10 JUMPI PUSH1 0x0 DUP1 REVERT JUMPDEST POP PUSH1 0x40 MLOAD PUSH2 0xD97 CODESIZE SUB DUP1 PUSH2 0xD97 DUP4 CODECOPY DUP2 ADD PUSH1 0x40 DUP2 SWAP1 MSTORE PUSH2 0x2F SWAP2 PUSH2 0x5E JUMP JUMPDEST PUSH1 0x0 DUP1 SLOAD PUSH1 0x1 PUSH1 0x1 PUSH1 0xA0 SHL SUB SWAP1 SWAP3 AND PUSH2 0x100 MUL PUSH2 0x100 PUSH1 0x1 PUSH1 0xA8 SHL SUB NOT SWAP1 SWAP3 AND SWAP2 SWAP1 SWAP2 OR SWAP1 SSTORE CALLER PUSH1 0x80 MSTORE PUSH2 0x8E JUMP JUMPDEST PUSH1 0x0 PUSH1 0x20 DUP3 DUP5 SUB SLT ISZERO PUSH2 0x70 JUMPI PUSH1 0x0 DUP1 REVERT JUMPDEST DUP2 MLOAD PUSH1 0x1 PUSH1 0x1 PUSH1 0xA0 SHL SUB DUP2 AND DUP2 EQ PUSH2 0x87 JUMPI PUSH1 0x0 DUP1 REVERT JUMPDEST SWAP4 SWAP3 POP POP POP JUMP JUMPDEST PUSH1 0x80 MLOAD PUSH2 0xCCB PUSH2 0xCC PUSH1 0x0 CODECOPY PUSH1 0x0 DUP2 DUP2 PUSH2 0x20A ADD MSTORE DUP2 DUP2 PUSH2 0x237 ADD MSTORE DUP2 DUP2 PUSH2 0x398 ADD MSTORE DUP2 DUP2 PUSH2 0x42B ADD MSTORE DUP2 DUP2 PUSH2 0x681 ADD MSTORE PUSH2 0x6F2 ADD MSTORE PUSH2 0xCCB PUSH1 0x0 RETURN INVALID PUSH1 0x80 PUSH1 0x40 MSTORE CALLVALUE DUP1 ISZERO PUSH2 0x10 JUMPI PUSH1 0x0 DUP1 REVERT JUMPDEST POP PUSH1 0x4 CALLDATASIZE LT PUSH2 0xA3 JUMPI PUSH1 0x0 CALLDATALOAD PUSH1 0xE0 SHR DUP1 PUSH4 0x5EDFC4D3 GT PUSH2 0x76 JUMPI DUP1 PUSH4 0xCF8A8CD0 GT PUSH2 0x5B JUMPI DUP1 PUSH4 0xCF8A8CD0 EQ PUSH2 0x1D5 JUMPI DUP1 PUSH4 0xD517562D EQ PUSH2 0x1DD JUMPI DUP1 PUSH4 0xF851A440 EQ PUSH2 0x205 JUMPI PUSH1 0x0 DUP1 REVERT JUMPDEST DUP1 PUSH4 0x5EDFC4D3 EQ PUSH2 0x131 JUMPI DUP1 PUSH4 0xA0EF91DF EQ PUSH2 0x1CD JUMPI PUSH1 0x0 DUP1 REVERT JUMPDEST DUP1 PUSH4 0xB9B199D EQ PUSH2 0xA8 JUMPI DUP1 PUSH4 0xE281F66 EQ PUSH2 0xB2 JUMPI DUP1 PUSH4 0x1BF0B08B EQ PUSH2 0xE7 JUMPI DUP1 PUSH4 0x4BB127C3 EQ PUSH2 0xFA JUMPI JUMPDEST PUSH1 0x0 DUP1 REVERT JUMPDEST PUSH2 0xB0 PUSH2 0x22C JUMP JUMPDEST STOP JUMPDEST PUSH1 0x0 SLOAD PUSH2 0xCA SWAP1 PUSH2 0x100 SWAP1 DIV PUSH1 0x1 PUSH1 0x1 PUSH1 0xA0 SHL SUB AND DUP2 JUMP JUMPDEST PUSH1 0x40 MLOAD PUSH1 0x1 PUSH1 0x1 PUSH1 0xA0 SHL SUB SWAP1 SWAP2 AND DUP2 MSTORE PUSH1 0x20 ADD JUMPDEST PUSH1 0x40 MLOAD DUP1 SWAP2 SUB SWAP1 RETURN JUMPDEST PUSH2 0xB0 PUSH2 0xF5 CALLDATASIZE PUSH1 0x4 PUSH2 0xB61 JUMP JUMPDEST PUSH2 0x420 JUMP JUMPDEST PUSH2 0x123 PUSH2 0x108 CALLDATASIZE PUSH1 0x4 PUSH2 0xBA3 JUMP JUMPDEST PUSH1 0x1 PUSH1 0x1 PUSH1 0xA0 SHL SUB AND PUSH1 0x0 SWAP1 DUP2 MSTORE PUSH1 0x3 PUSH1 0x20 MSTORE PUSH1 0x40 SWAP1 KECCAK256 SLOAD SWAP1 JUMP JUMPDEST PUSH1 0x40 MLOAD SWAP1 DUP2 MSTORE PUSH1 0x20 ADD PUSH2 0xDE JUMP JUMPDEST PUSH2 0x18E PUSH2 0x13F CALLDATASIZE PUSH1 0x4 PUSH2 0xBC5 JUMP JUMPDEST PUSH1 0x2 PUSH1 0x20 DUP2 DUP2 MSTORE PUSH1 0x0 SWAP4 DUP5 MSTORE PUSH1 0x40 DUP1 DUP6 KECCAK256 SWAP1 SWAP2 MSTORE SWAP2 DUP4 MSTORE SWAP2 KECCAK256 DUP1 SLOAD PUSH1 0x1 DUP3 ADD SLOAD SWAP3 DUP3 ADD SLOAD PUSH1 0x3 DUP4 ADD SLOAD PUSH1 0x4 DUP5 ADD SLOAD PUSH1 0x5 DUP6 ADD SLOAD PUSH1 0x6 SWAP1 SWAP6 ADD SLOAD PUSH1 0x1 PUSH1 0x1 PUSH1 0xA0 SHL SUB SWAP1 SWAP5 AND SWAP6 SWAP5 SWAP3 SWAP4 SWAP2 SWAP3 SWAP1 SWAP2 DUP8 JUMP JUMPDEST PUSH1 0x40 DUP1 MLOAD PUSH1 0x1 PUSH1 0x1 PUSH1 0xA0 SHL SUB SWAP1 SWAP9 AND DUP9 MSTORE PUSH1 0x20 DUP9 ADD SWAP7 SWAP1 SWAP7 MSTORE SWAP5 DUP7 ADD SWAP4 SWAP1 SWAP4 MSTORE PUSH1 0x60 DUP6 ADD SWAP2 SWAP1 SWAP2 MSTORE PUSH1 0x80 DUP5 ADD MSTORE PUSH1 0xA0 DUP4 ADD MSTORE PUSH1 0xC0 DUP3 ADD MSTORE PUSH1 0xE0 ADD PUSH2 0xDE JUMP JUMPDEST PUSH2 0xB0 PUSH2 0x676 JUMP JUMPDEST PUSH2 0xB0 PUSH2 0x771 JUMP JUMPDEST PUSH2 0x1F0 PUSH2 0x1EB CALLDATASIZE PUSH1 0x4 PUSH2 0xBA3 JUMP JUMPDEST PUSH2 0x972 JUMP JUMPDEST PUSH1 0x40 DUP1 MLOAD SWAP3 DUP4 MSTORE PUSH1 0x20 DUP4 ADD SWAP2 SWAP1 SWAP2 MSTORE ADD PUSH2 0xDE JUMP JUMPDEST PUSH2 0xCA PUSH32 0x0 DUP2 JUMP JUMPDEST CALLER PUSH1 0x1 PUSH1 0x1 PUSH1 0xA0 SHL SUB PUSH32 0x0 AND EQ PUSH2 0x2A9 JUMPI PUSH1 0x40 MLOAD PUSH3 0x461BCD PUSH1 0xE5 SHL DUP2 MSTORE PUSH1 0x20 PUSH1 0x4 DUP3 ADD MSTORE PUSH1 0x16 PUSH1 0x24 DUP3 ADD MSTORE PUSH32 0x596F75277265206E6F7420617574686F72697A65642100000000000000000000 PUSH1 0x44 DUP3 ADD MSTORE PUSH1 0x64 ADD JUMPDEST PUSH1 0x40 MLOAD DUP1 SWAP2 SUB SWAP1 REVERT JUMPDEST PUSH1 0x0 DUP1 SLOAD PUSH1 0x40 MLOAD PUSH4 0x70A08231 PUSH1 0xE0 SHL DUP2 MSTORE ADDRESS PUSH1 0x4 DUP3 ADD MSTORE PUSH2 0x100 SWAP1 SWAP2 DIV PUSH1 0x1 PUSH1 0x1 PUSH1 0xA0 SHL SUB AND SWAP1 PUSH4 0x70A08231 SWAP1 PUSH1 0x24 ADD PUSH1 0x20 PUSH1 0x40 MLOAD DUP1 DUP4 SUB DUP2 DUP7 GAS STATICCALL ISZERO DUP1 ISZERO PUSH2 0x2F6 JUMPI RETURNDATASIZE PUSH1 0x0 DUP1 RETURNDATACOPY RETURNDATASIZE PUSH1 0x0 REVERT JUMPDEST POP POP POP POP PUSH1 0x40 MLOAD RETURNDATASIZE PUSH1 0x1F NOT PUSH1 0x1F DUP3 ADD AND DUP3 ADD DUP1 PUSH1 0x40 MSTORE POP DUP2 ADD SWAP1 PUSH2 0x31A SWAP2 SWAP1 PUSH2 0xBEF JUMP JUMPDEST SWAP1 POP PUSH1 0x0 PUSH1 0x1 SLOAD DUP3 PUSH2 0x32C SWAP2 SWAP1 PUSH2 0xC1E JUMP JUMPDEST SWAP1 POP PUSH1 0x0 DUP2 GT PUSH2 0x37E JUMPI PUSH1 0x40 MLOAD PUSH3 0x461BCD PUSH1 0xE5 SHL DUP2 MSTORE PUSH1 0x20 PUSH1 0x4 DUP3 ADD MSTORE PUSH1 0x13 PUSH1 0x24 DUP3 ADD MSTORE PUSH32 0x6E6F2067726C20696E20636F6E74726163742100000000000000000000000000 PUSH1 0x44 DUP3 ADD MSTORE PUSH1 0x64 ADD PUSH2 0x2A0 JUMP JUMPDEST PUSH1 0x0 SLOAD PUSH1 0x40 MLOAD PUSH4 0xA9059CBB PUSH1 0xE0 SHL DUP2 MSTORE PUSH1 0x1 PUSH1 0x1 PUSH1 0xA0 SHL SUB PUSH32 0x0 DUP2 AND PUSH1 0x4 DUP4 ADD MSTORE PUSH1 0x24 DUP3 ADD DUP5 SWAP1 MSTORE PUSH2 0x100 SWAP1 SWAP3 DIV SWAP1 SWAP2 AND SWAP1 PUSH4 0xA9059CBB SWAP1 PUSH1 0x44 ADD PUSH1 0x20 PUSH1 0x40 MLOAD DUP1 DUP4 SUB DUP2 PUSH1 0x0 DUP8 GAS CALL ISZERO DUP1 ISZERO PUSH2 0x3F7 JUMPI RETURNDATASIZE PUSH1 0x0 DUP1 RETURNDATACOPY RETURNDATASIZE PUSH1 0x0 REVERT JUMPDEST POP POP POP POP PUSH1 0x40 MLOAD RETURNDATASIZE PUSH1 0x1F NOT PUSH1 0x1F DUP3 ADD AND DUP3 ADD DUP1 PUSH1 0x40 MSTORE POP DUP2 ADD SWAP1 PUSH2 0x41B SWAP2 SWAP1 PUSH2 0xC37 JUMP JUMPDEST POP POP POP JUMP JUMPDEST CALLER PUSH1 0x1 PUSH1 0x1 PUSH1 0xA0 SHL SUB PUSH32 0x0 AND EQ PUSH2 0x498 JUMPI PUSH1 0x40 MLOAD PUSH3 0x461BCD PUSH1 0xE5 SHL DUP2 MSTORE PUSH1 0x20 PUSH1 0x4 DUP3 ADD MSTORE PUSH1 0x16 PUSH1 0x24 DUP3 ADD MSTORE PUSH32 0x596F75277265206E6F7420617574686F72697A65642100000000000000000000 PUSH1 0x44 DUP3 ADD MSTORE PUSH1 0x64 ADD PUSH2 0x2A0 JUMP JUMPDEST DUP4 DUP4 LT ISZERO PUSH2 0x50E JUMPI PUSH1 0x40 MLOAD PUSH3 0x461BCD PUSH1 0xE5 SHL DUP2 MSTORE PUSH1 0x20 PUSH1 0x4 DUP3 ADD MSTORE PUSH1 0x27 PUSH1 0x24 DUP3 ADD MSTORE PUSH32 0x546F6B656E56657374696E673A206475726174696F6E206D757374206265203E PUSH1 0x44 DUP3 ADD MSTORE PUSH32 0x3D20636C69666600000000000000000000000000000000000000000000000000 PUSH1 0x64 DUP3 ADD MSTORE PUSH1 0x84 ADD PUSH2 0x2A0 JUMP JUMPDEST PUSH1 0x0 PUSH2 0x51D DUP6 PUSH3 0x15180 PUSH2 0xC59 JUMP JUMPDEST PUSH2 0x527 SWAP1 TIMESTAMP PUSH2 0xC70 JUMP JUMPDEST PUSH1 0x1 PUSH1 0x1 PUSH1 0xA0 SHL SUB DUP8 AND PUSH1 0x0 SWAP1 DUP2 MSTORE PUSH1 0x3 PUSH1 0x20 MSTORE PUSH1 0x40 DUP2 KECCAK256 DUP1 SLOAD SWAP3 SWAP4 POP SWAP1 SWAP2 SWAP1 DUP3 PUSH2 0x551 DUP4 PUSH2 0xC83 JUMP JUMPDEST SWAP2 SWAP1 POP SSTORE SWAP1 POP PUSH1 0x40 MLOAD DUP1 PUSH1 0xE0 ADD PUSH1 0x40 MSTORE DUP1 DUP9 PUSH1 0x1 PUSH1 0x1 PUSH1 0xA0 SHL SUB AND DUP2 MSTORE PUSH1 0x20 ADD DUP4 DUP2 MSTORE PUSH1 0x20 ADD TIMESTAMP DUP2 MSTORE PUSH1 0x20 ADD DUP7 PUSH3 0x15180 PUSH2 0x58C SWAP2 SWAP1 PUSH2 0xC59 JUMP JUMPDEST DUP2 MSTORE PUSH1 0x20 ADD PUSH2 0x59E DUP7 PUSH3 0x15180 PUSH2 0xC59 JUMP JUMPDEST DUP2 MSTORE PUSH1 0x20 ADD PUSH2 0x5B1 DUP6 PUSH4 0x3B9ACA00 PUSH2 0xC59 JUMP JUMPDEST DUP2 MSTORE PUSH1 0x0 PUSH1 0x20 SWAP2 DUP3 ADD DUP2 SWAP1 MSTORE PUSH1 0x1 PUSH1 0x1 PUSH1 0xA0 SHL SUB DUP11 DUP2 AND DUP3 MSTORE PUSH1 0x2 DUP1 DUP5 MSTORE PUSH1 0x40 DUP1 DUP5 KECCAK256 DUP8 DUP6 MSTORE DUP6 MSTORE SWAP3 DUP4 SWAP1 KECCAK256 DUP6 MLOAD DUP2 SLOAD PUSH32 0xFFFFFFFFFFFFFFFFFFFFFFFF0000000000000000000000000000000000000000 AND SWAP4 AND SWAP3 SWAP1 SWAP3 OR DUP3 SSTORE SWAP3 DUP5 ADD MLOAD PUSH1 0x1 DUP3 ADD SSTORE SWAP1 DUP4 ADD MLOAD SWAP2 DUP2 ADD SWAP2 SWAP1 SWAP2 SSTORE PUSH1 0x60 DUP3 ADD MLOAD PUSH1 0x3 DUP3 ADD SSTORE PUSH1 0x80 DUP3 ADD MLOAD PUSH1 0x4 DUP3 ADD SSTORE PUSH1 0xA0 DUP3 ADD MLOAD PUSH1 0x5 DUP3 ADD SSTORE PUSH1 0xC0 SWAP1 SWAP2 ADD MLOAD PUSH1 0x6 SWAP1 SWAP2 ADD SSTORE PUSH2 0x657 DUP4 PUSH4 0x3B9ACA00 PUSH2 0xC59 JUMP JUMPDEST PUSH1 0x1 PUSH1 0x0 DUP3 DUP3 SLOAD PUSH2 0x668 SWAP2 SWAP1 PUSH2 0xC70 JUMP JUMPDEST SWAP1 SWAP2 SSTORE POP POP POP POP POP POP POP POP POP JUMP JUMPDEST CALLER PUSH1 0x1 PUSH1 0x1 PUSH1 0xA0 SHL SUB PUSH32 0x0 AND EQ PUSH2 0x6EE JUMPI PUSH1 0x40 MLOAD PUSH3 0x461BCD PUSH1 0xE5 SHL DUP2 MSTORE PUSH1 0x20 PUSH1 0x4 DUP3 ADD MSTORE PUSH1 0x16 PUSH1 0x24 DUP3 ADD MSTORE PUSH32 0x596F75277265206E6F7420617574686F72697A65642100000000000000000000 PUSH1 0x44 DUP3 ADD MSTORE PUSH1 0x64 ADD PUSH2 0x2A0 JUMP JUMPDEST PUSH1 0x0 PUSH32 0x0 PUSH1 0x1 PUSH1 0x1 PUSH1 0xA0 SHL SUB AND SELFBALANCE PUSH1 0x40 MLOAD PUSH1 0x0 PUSH1 0x40 MLOAD DUP1 DUP4 SUB DUP2 DUP6 DUP8 GAS CALL SWAP3 POP POP POP RETURNDATASIZE DUP1 PUSH1 0x0 DUP2 EQ PUSH2 0x75B JUMPI PUSH1 0x40 MLOAD SWAP2 POP PUSH1 0x1F NOT PUSH1 0x3F RETURNDATASIZE ADD AND DUP3 ADD PUSH1 0x40 MSTORE RETURNDATASIZE DUP3 MSTORE RETURNDATASIZE PUSH1 0x0 PUSH1 0x20 DUP5 ADD RETURNDATACOPY PUSH2 0x760 JUMP JUMPDEST PUSH1 0x60 SWAP2 POP JUMPDEST POP POP SWAP1 POP DUP1 PUSH2 0x76E JUMPI PUSH1 0x0 DUP1 REVERT JUMPDEST POP JUMP JUMPDEST CALLER PUSH1 0x0 SWAP1 DUP2 MSTORE PUSH1 0x3 PUSH1 0x20 MSTORE PUSH1 0x40 DUP2 KECCAK256 SLOAD DUP2 SWAP1 DUP1 PUSH2 0x7D0 JUMPI PUSH1 0x40 MLOAD PUSH3 0x461BCD PUSH1 0xE5 SHL DUP2 MSTORE PUSH1 0x20 PUSH1 0x4 DUP3 ADD MSTORE PUSH1 0x13 PUSH1 0x24 DUP3 ADD MSTORE PUSH32 0x4E6F20746F6B656E732070757263686173656400000000000000000000000000 PUSH1 0x44 DUP3 ADD MSTORE PUSH1 0x64 ADD PUSH2 0x2A0 JUMP JUMPDEST PUSH1 0x0 JUMPDEST DUP2 DUP2 LT ISZERO PUSH2 0x8A2 JUMPI CALLER PUSH1 0x0 SWAP1 DUP2 MSTORE PUSH1 0x2 PUSH1 0x20 DUP2 DUP2 MSTORE PUSH1 0x40 DUP1 DUP5 KECCAK256 DUP6 DUP6 MSTORE DUP3 MSTORE DUP1 DUP5 KECCAK256 DUP2 MLOAD PUSH1 0xE0 DUP2 ADD DUP4 MSTORE DUP2 SLOAD PUSH1 0x1 PUSH1 0x1 PUSH1 0xA0 SHL SUB AND DUP2 MSTORE PUSH1 0x1 DUP3 ADD SLOAD SWAP4 DUP2 ADD SWAP4 SWAP1 SWAP4 MSTORE SWAP3 DUP4 ADD SLOAD SWAP1 DUP3 ADD MSTORE PUSH1 0x3 DUP3 ADD SLOAD PUSH1 0x60 DUP3 ADD MSTORE PUSH1 0x4 DUP3 ADD SLOAD PUSH1 0x80 DUP3 ADD MSTORE PUSH1 0x5 DUP3 ADD SLOAD PUSH1 0xA0 DUP3 ADD MSTORE PUSH1 0x6 DUP3 ADD SLOAD PUSH1 0xC0 DUP3 ADD MSTORE SWAP1 SWAP2 SWAP1 DUP2 SWAP1 PUSH2 0x854 SWAP1 PUSH2 0xA4F JUMP JUMPDEST SWAP1 SWAP3 POP SWAP1 POP PUSH2 0x863 DUP3 DUP9 PUSH2 0xC70 JUMP JUMPDEST SWAP7 POP PUSH2 0x86F DUP2 DUP8 PUSH2 0xC70 JUMP JUMPDEST SWAP6 POP DUP2 DUP4 PUSH1 0x6 ADD PUSH1 0x0 DUP3 DUP3 SLOAD PUSH2 0x885 SWAP2 SWAP1 PUSH2 0xC70 JUMP JUMPDEST SWAP3 POP POP DUP2 SWAP1 SSTORE POP POP POP POP DUP1 DUP1 PUSH2 0x89A SWAP1 PUSH2 0xC83 JUMP JUMPDEST SWAP2 POP POP PUSH2 0x7D3 JUMP JUMPDEST POP PUSH1 0x0 DUP4 GT PUSH2 0x8F3 JUMPI PUSH1 0x40 MLOAD PUSH3 0x461BCD PUSH1 0xE5 SHL DUP2 MSTORE PUSH1 0x20 PUSH1 0x4 DUP3 ADD MSTORE PUSH1 0x13 PUSH1 0x24 DUP3 ADD MSTORE PUSH32 0x4E4F20746F6B656E7320746F20636C61696D2100000000000000000000000000 PUSH1 0x44 DUP3 ADD MSTORE PUSH1 0x64 ADD PUSH2 0x2A0 JUMP JUMPDEST PUSH1 0x0 SLOAD PUSH1 0x40 MLOAD PUSH4 0xA9059CBB PUSH1 0xE0 SHL DUP2 MSTORE CALLER PUSH1 0x4 DUP3 ADD MSTORE PUSH1 0x24 DUP2 ADD DUP6 SWAP1 MSTORE PUSH2 0x100 SWAP1 SWAP2 DIV PUSH1 0x1 PUSH1 0x1 PUSH1 0xA0 SHL SUB AND SWAP1 PUSH4 0xA9059CBB SWAP1 PUSH1 0x44 ADD PUSH1 0x20 PUSH1 0x40 MLOAD DUP1 DUP4 SUB DUP2 PUSH1 0x0 DUP8 GAS CALL ISZERO DUP1 ISZERO PUSH2 0x948 JUMPI RETURNDATASIZE PUSH1 0x0 DUP1 RETURNDATACOPY RETURNDATASIZE PUSH1 0x0 REVERT JUMPDEST POP POP POP POP PUSH1 0x40 MLOAD RETURNDATASIZE PUSH1 0x1F NOT PUSH1 0x1F DUP3 ADD AND DUP3 ADD DUP1 PUSH1 0x40 MSTORE POP DUP2 ADD SWAP1 PUSH2 0x96C SWAP2 SWAP1 PUSH2 0xC37 JUMP JUMPDEST POP POP POP POP JUMP JUMPDEST PUSH1 0x1 PUSH1 0x1 PUSH1 0xA0 SHL SUB DUP2 AND PUSH1 0x0 SWAP1 DUP2 MSTORE PUSH1 0x3 PUSH1 0x20 MSTORE PUSH1 0x40 DUP2 KECCAK256 SLOAD DUP2 SWAP1 DUP2 JUMPDEST DUP2 DUP2 LT ISZERO PUSH2 0xA48 JUMPI PUSH1 0x1 PUSH1 0x1 PUSH1 0xA0 SHL SUB DUP1 DUP7 AND PUSH1 0x0 SWAP1 DUP2 MSTORE PUSH1 0x2 PUSH1 0x20 DUP2 DUP2 MSTORE PUSH1 0x40 DUP1 DUP5 KECCAK256 DUP7 DUP6 MSTORE DUP3 MSTORE DUP1 DUP5 KECCAK256 DUP2 MLOAD PUSH1 0xE0 DUP2 ADD DUP4 MSTORE DUP2 SLOAD SWAP1 SWAP7 AND DUP7 MSTORE PUSH1 0x1 DUP2 ADD SLOAD SWAP3 DUP7 ADD SWAP3 SWAP1 SWAP3 MSTORE SWAP2 DUP2 ADD SLOAD SWAP2 DUP5 ADD SWAP2 SWAP1 SWAP2 MSTORE PUSH1 0x3 DUP2 ADD SLOAD PUSH1 0x60 DUP5 ADD MSTORE PUSH1 0x4 DUP2 ADD SLOAD PUSH1 0x80 DUP5 ADD MSTORE PUSH1 0x5 DUP2 ADD SLOAD PUSH1 0xA0 DUP5 ADD MSTORE PUSH1 0x6 DUP2 ADD SLOAD PUSH1 0xC0 DUP5 ADD MSTORE SWAP2 DUP2 SWAP1 PUSH2 0xA15 SWAP1 PUSH2 0xA4F JUMP JUMPDEST SWAP1 SWAP3 POP SWAP1 POP PUSH2 0xA24 DUP3 DUP9 PUSH2 0xC70 JUMP JUMPDEST SWAP7 POP PUSH2 0xA30 DUP2 DUP8 PUSH2 0xC70 JUMP JUMPDEST SWAP6 POP POP POP POP DUP1 DUP1 PUSH2 0xA40 SWAP1 PUSH2 0xC83 JUMP JUMPDEST SWAP2 POP POP PUSH2 0x98F JUMP JUMPDEST POP POP SWAP2 POP SWAP2 JUMP JUMPDEST PUSH1 0x0 DUP1 PUSH1 0x0 TIMESTAMP SWAP1 POP PUSH1 0x0 DUP5 PUSH1 0x20 ADD MLOAD DUP3 LT ISZERO PUSH2 0xA86 JUMPI PUSH1 0x0 DUP6 PUSH1 0xC0 ADD MLOAD DUP7 PUSH1 0xA0 ADD MLOAD PUSH2 0xA7B SWAP2 SWAP1 PUSH2 0xC1E JUMP JUMPDEST SWAP4 POP SWAP4 POP POP POP SWAP2 POP SWAP2 JUMP JUMPDEST DUP5 PUSH1 0x60 ADD MLOAD DUP6 PUSH1 0x40 ADD MLOAD PUSH2 0xA9A SWAP2 SWAP1 PUSH2 0xC70 JUMP JUMPDEST DUP3 LT PUSH2 0xAC0 JUMPI DUP5 PUSH1 0xC0 ADD MLOAD DUP6 PUSH1 0xA0 ADD MLOAD PUSH2 0xAB4 SWAP2 SWAP1 PUSH2 0xC1E JUMP JUMPDEST SWAP6 PUSH1 0x0 SWAP6 POP SWAP4 POP POP POP POP JUMP JUMPDEST PUSH1 0x0 DUP6 PUSH1 0x20 ADD MLOAD DUP4 PUSH2 0xAD2 SWAP2 SWAP1 PUSH2 0xC1E JUMP JUMPDEST PUSH1 0x80 DUP8 ADD MLOAD SWAP1 SWAP2 POP PUSH1 0x0 PUSH2 0xAE6 DUP3 DUP5 PUSH2 0xC9C JUMP JUMPDEST SWAP1 POP PUSH1 0x0 PUSH2 0xAF4 DUP4 DUP4 PUSH2 0xC59 JUMP JUMPDEST SWAP1 POP DUP9 PUSH1 0x60 ADD MLOAD DUP2 DUP11 PUSH1 0xA0 ADD MLOAD PUSH2 0xB0B SWAP2 SWAP1 PUSH2 0xC59 JUMP JUMPDEST PUSH2 0xB15 SWAP2 SWAP1 PUSH2 0xC9C JUMP JUMPDEST SWAP5 POP POP POP POP POP PUSH1 0xC0 DUP6 ADD MLOAD PUSH2 0xB2A SWAP1 DUP3 PUSH2 0xC1E JUMP JUMPDEST SWAP4 POP DUP1 DUP6 PUSH1 0xA0 ADD MLOAD PUSH2 0xB3C SWAP2 SWAP1 PUSH2 0xC1E JUMP JUMPDEST SWAP3 POP POP POP SWAP2 POP SWAP2 JUMP JUMPDEST DUP1 CALLDATALOAD PUSH1 0x1 PUSH1 0x1 PUSH1 0xA0 SHL SUB DUP2 AND DUP2 EQ PUSH2 0xB5C JUMPI PUSH1 0x0 DUP1 REVERT JUMPDEST SWAP2 SWAP1 POP JUMP JUMPDEST PUSH1 0x0 DUP1 PUSH1 0x0 DUP1 PUSH1 0x0 PUSH1 0xA0 DUP7 DUP9 SUB SLT ISZERO PUSH2 0xB79 JUMPI PUSH1 0x0 DUP1 REVERT JUMPDEST PUSH2 0xB82 DUP7 PUSH2 0xB45 JUMP JUMPDEST SWAP8 PUSH1 0x20 DUP8 ADD CALLDATALOAD SWAP8 POP PUSH1 0x40 DUP8 ADD CALLDATALOAD SWAP7 PUSH1 0x60 DUP2 ADD CALLDATALOAD SWAP7 POP PUSH1 0x80 ADD CALLDATALOAD SWAP5 POP SWAP3 POP POP POP JUMP JUMPDEST PUSH1 0x0 PUSH1 0x20 DUP3 DUP5 SUB SLT ISZERO PUSH2 0xBB5 JUMPI PUSH1 0x0 DUP1 REVERT JUMPDEST PUSH2 0xBBE DUP3 PUSH2 0xB45 JUMP JUMPDEST SWAP4 SWAP3 POP POP POP JUMP JUMPDEST PUSH1 0x0 DUP1 PUSH1 0x40 DUP4 DUP6 SUB SLT ISZERO PUSH2 0xBD8 JUMPI PUSH1 0x0 DUP1 REVERT JUMPDEST PUSH2 0xBE1 DUP4 PUSH2 0xB45 JUMP JUMPDEST SWAP5 PUSH1 0x20 SWAP4 SWAP1 SWAP4 ADD CALLDATALOAD SWAP4 POP POP POP JUMP JUMPDEST PUSH1 0x0 PUSH1 0x20 DUP3 DUP5 SUB SLT ISZERO PUSH2 0xC01 JUMPI PUSH1 0x0 DUP1 REVERT JUMPDEST POP MLOAD SWAP2 SWAP1 POP JUMP JUMPDEST PUSH4 0x4E487B71 PUSH1 0xE0 SHL PUSH1 0x0 MSTORE PUSH1 0x11 PUSH1 0x4 MSTORE PUSH1 0x24 PUSH1 0x0 REVERT JUMPDEST DUP2 DUP2 SUB DUP2 DUP2 GT ISZERO PUSH2 0xC31 JUMPI PUSH2 0xC31 PUSH2 0xC08 JUMP JUMPDEST SWAP3 SWAP2 POP POP JUMP JUMPDEST PUSH1 0x0 PUSH1 0x20 DUP3 DUP5 SUB SLT ISZERO PUSH2 0xC49 JUMPI PUSH1 0x0 DUP1 REVERT JUMPDEST DUP2 MLOAD DUP1 ISZERO ISZERO DUP2 EQ PUSH2 0xBBE JUMPI PUSH1 0x0 DUP1 REVERT JUMPDEST DUP1 DUP3 MUL DUP2 ISZERO DUP3 DUP3 DIV DUP5 EQ OR PUSH2 0xC31 JUMPI PUSH2 0xC31 PUSH2 0xC08 JUMP JUMPDEST DUP1 DUP3 ADD DUP1 DUP3 GT ISZERO PUSH2 0xC31 JUMPI PUSH2 0xC31 PUSH2 0xC08 JUMP JUMPDEST PUSH1 0x0 PUSH1 0x1 DUP3 ADD PUSH2 0xC95 JUMPI PUSH2 0xC95 PUSH2 0xC08 JUMP JUMPDEST POP PUSH1 0x1 ADD SWAP1 JUMP JUMPDEST PUSH1 0x0 DUP3 PUSH2 0xCB9 JUMPI PUSH4 0x4E487B71 PUSH1 0xE0 SHL PUSH1 0x0 MSTORE PUSH1 0x12 PUSH1 0x4 MSTORE PUSH1 0x24 PUSH1 0x0 REVERT JUMPDEST POP DIV SWAP1 JUMP INVALID LOG1 PUSH5 0x736F6C6343 STOP ADDMOD EQ STOP EXP "},"methodIdentifiers":{"admin()":"f851a440","claimReleasableTokens()":"cf8a8cd0","createVestingSchedule(address,uint256,uint256,uint256,uint256)":"1bf0b08b","getReleaseableAmount(address)":"d517562d","getVestingUserCount(address)":"4bb127c3","grl()":"0e281f66","vestedUserDetail(address,uint256)":"5edfc4d3","withdrawEth()":"a0ef91df","withdrawGrl()":"0b9b199d"}},"storageLayout":{"storage":[{"astId":5177,"contract":"contracts/TeamVesting.sol:TeamVesting","label":"locked","offset":0,"slot":"0","type":"t_bool"},{"astId":5201,"contract":"contracts/TeamVesting.sol:TeamVesting","label":"grl","offset":1,"slot":"0","type":"t_contract(IERC20)5175"},{"astId":5205,"contract":"contracts/TeamVesting.sol:TeamVesting","label":"vestedTokens","offset":0,"slot":"1","type":"t_uint256"},{"astId":5227,"contract":"contracts/TeamVesting.sol:TeamVesting","label":"vestedUserDetail","offset":0,"slot":"2","type":"t_mapping(t_address,t_mapping(t_uint256,t_struct(VestingSchedule)5220_storage))"},{"astId":5231,"contract":"contracts/TeamVesting.sol:TeamVesting","label":"holdersVestingCount","offset":0,"slot":"3","type":"t_mapping(t_address,t_uint256)"}],"types":{"t_address":{"encoding":"inplace","label":"address","numberOfBytes":"20"},"t_bool":{"encoding":"inplace","label":"bool","numberOfBytes":"1"},"t_contract(IERC20)5175":{"encoding":"inplace","label":"contract IERC20","numberOfBytes":"20"},"t_mapping(t_address,t_mapping(t_uint256,t_struct(VestingSchedule)5220_storage))":{"encoding":"mapping","key":"t_address","label":"mapping(address => mapping(uint256 => struct TeamVesting.VestingSchedule))","numberOfBytes":"32","value":"t_mapping(t_uint256,t_struct(VestingSchedule)5220_storage)"},"t_mapping(t_address,t_uint256)":{"encoding":"mapping","key":"t_address","label":"mapping(address => uint256)","numberOfBytes":"32","value":"t_uint256"},"t_mapping(t_uint256,t_struct(VestingSchedule)5220_storage)":{"encoding":"mapping","key":"t_uint256","label":"mapping(uint256 => struct TeamVesting.VestingSchedule)","numberOfBytes":"32","value":"t_struct(VestingSchedule)5220_storage"},"t_struct(VestingSchedule)5220_storage":{"encoding":"inplace","label":"struct TeamVesting.VestingSchedule","members":[{"astId":5207,"contract":"contracts/TeamVesting.sol:TeamVesting","label":"beneficiary","offset":0,"slot":"0","type":"t_address"},{"astId":5209,"contract":"contracts/TeamVesting.sol:TeamVesting","label":"cliff","offset":0,"slot":"1","type":"t_uint256"},{"astId":5211,"contract":"contracts/TeamVesting.sol:TeamVesting","label":"start","offset":0,"slot":"2","type":"t_uint256"},{"astId":5213,"contract":"contracts/TeamVesting.sol:TeamVesting","label":"duration","offset":0,"slot":"3","type":"t_uint256"},{"astId":5215,"contract":"contracts/TeamVesting.sol:TeamVesting","label":"slicePeriod","offset":0,"slot":"4","type":"t_uint256"},{"astId":5217,"contract":"contracts/TeamVesting.sol:TeamVesting","label":"amountTotal","offset":0,"slot":"5","type":"t_uint256"},{"astId":5219,"contract":"contracts/TeamVesting.sol:TeamVesting","label":"released","offset":0,"slot":"6","type":"t_uint256"}],"numberOfBytes":"224"},"t_uint256":{"encoding":"inplace","label":"uint256","numberOfBytes":"32"}}}}}}