{"contracts/PriceGuranteeStaking.sol":{"PriceGuaranteeStaking":{"abi":[{"inputs":[{"internalType":"address","name":"_grlTokenAddress","type":"address"},{"internalType":"address","name":"_wethAddress","type":"address"},{"internalType":"address","name":"_uniswapRouterAddress","type":"address"},{"internalType":"address","name":"_ethUsdAggregatorAddress","type":"address"}],"stateMutability":"nonpayable","type":"constructor"},{"anonymous":false,"inputs":[{"indexed":true,"internalType":"address","name":"user","type":"address"},{"indexed":false,"internalType":"uint256","name":"amount","type":"uint256"},{"indexed":false,"internalType":"uint256","name":"duration","type":"uint256"},{"indexed":false,"internalType":"uint256","name":"endTime","type":"uint256"},{"indexed":false,"internalType":"uint256","name":"priceInUsd","type":"uint256"},{"indexed":false,"internalType":"uint256","name":"fee","type":"uint256"},{"indexed":false,"internalType":"uint256","name":"amountInUsd","type":"uint256"}],"name":"Staked","type":"event"},{"anonymous":false,"inputs":[{"indexed":true,"internalType":"address","name":"user","type":"address"},{"indexed":false,"internalType":"uint256","name":"amount","type":"uint256"}],"name":"Unstaked","type":"event"},{"inputs":[],"name":"DECIMALS","outputs":[{"internalType":"uint256","name":"","type":"uint256"}],"stateMutability":"view","type":"function"},{"inputs":[],"name":"admin","outputs":[{"internalType":"address","name":"","type":"address"}],"stateMutability":"view","type":"function"},{"inputs":[],"name":"calculatePriceOfGrlInUsd","outputs":[{"internalType":"uint256","name":"","type":"uint256"}],"stateMutability":"view","type":"function"},{"inputs":[],"name":"ethUsdAggregatorAddress","outputs":[{"internalType":"address","name":"","type":"address"}],"stateMutability":"view","type":"function"},{"inputs":[],"name":"getEthToUsdValue","outputs":[{"internalType":"uint256","name":"","type":"uint256"}],"stateMutability":"view","type":"function"},{"inputs":[],"name":"getPriceOfGrlInEth","outputs":[{"internalType":"uint256","name":"","type":"uint256"}],"stateMutability":"view","type":"function"},{"inputs":[{"internalType":"address","name":"user","type":"address"}],"name":"getUserStakeCount","outputs":[{"internalType":"uint256","name":"","type":"uint256"}],"stateMutability":"view","type":"function"},{"inputs":[{"internalType":"address","name":"user","type":"address"},{"internalType":"uint256","name":"index","type":"uint256"}],"name":"getUserStakeDetails","outputs":[{"internalType":"uint256","name":"durationInDays","type":"uint256"},{"internalType":"uint256","name":"amount","type":"uint256"},{"internalType":"uint256","name":"timestamp","type":"uint256"},{"internalType":"uint256","name":"priceInUsd","type":"uint256"},{"internalType":"uint256","name":"amountInUsd","type":"uint256"}],"stateMutability":"view","type":"function"},{"inputs":[],"name":"grlTokenAddress","outputs":[{"internalType":"address","name":"","type":"address"}],"stateMutability":"view","type":"function"},{"inputs":[{"internalType":"address","name":"","type":"address"},{"internalType":"uint256","name":"","type":"uint256"}],"name":"hasUnstaked","outputs":[{"internalType":"bool","name":"","type":"bool"}],"stateMutability":"view","type":"function"},{"inputs":[{"internalType":"uint256","name":"durationInDays","type":"uint256"},{"internalType":"uint256","name":"feePercentage","type":"uint256"}],"name":"setStakingFeePercentage","outputs":[],"stateMutability":"nonpayable","type":"function"},{"inputs":[{"internalType":"uint256","name":"amount","type":"uint256"},{"internalType":"uint256","name":"durationInDays","type":"uint256"}],"name":"stakeGrl","outputs":[],"stateMutability":"nonpayable","type":"function"},{"inputs":[{"internalType":"uint256","name":"","type":"uint256"}],"name":"stakingFeePercentage","outputs":[{"internalType":"uint256","name":"","type":"uint256"}],"stateMutability":"view","type":"function"},{"inputs":[],"name":"totalStakedGrl","outputs":[{"internalType":"uint256","name":"","type":"uint256"}],"stateMutability":"view","type":"function"},{"inputs":[],"name":"uniswapRouterAddress","outputs":[{"internalType":"address","name":"","type":"address"}],"stateMutability":"view","type":"function"},{"inputs":[{"internalType":"uint256","name":"index","type":"uint256"}],"name":"unstake","outputs":[],"stateMutability":"nonpayable","type":"function"},{"inputs":[{"internalType":"address","name":"","type":"address"},{"internalType":"uint256","name":"","type":"uint256"}],"name":"userStakes","outputs":[{"internalType":"uint256","name":"durationInDays","type":"uint256"},{"internalType":"uint256","name":"amount","type":"uint256"},{"internalType":"uint256","name":"timestamp","type":"uint256"},{"internalType":"uint256","name":"priceInUsd","type":"uint256"},{"internalType":"uint256","name":"amountInUsd","type":"uint256"}],"stateMutability":"view","type":"function"},{"inputs":[],"name":"wethAddress","outputs":[{"internalType":"address","name":"","type":"address"}],"stateMutability":"view","type":"function"},{"inputs":[],"name":"withdrawGrl","outputs":[],"stateMutability":"nonpayable","type":"function"}],"evm":{"bytecode":{"linkReferences":{},"object":"60806040523480156200001157600080fd5b506040516200166d3803806200166d833981016040819052620000349162000280565b60008054336001600160a01b03199182161782556001805482166001600160a01b03978816179055600280548216958716959095179094556003805485169386169390931790925560048054909316931692909217905560066020526205b8d87fb6ba906ff52451a7a924e2eaeb8aea3ebee7350a8703e5e417edb25358c7dcc155620895447f6ca6dcafc04b6e03616746c3528366f990e332021e35d59275be746d65cae0a755620bcd407f1727c0104c2870c3003671480695f7dab262614528b49265008e76fd3d48c5fe55620f1efa7f5451fe6494362676ddb91456d9957c85d968e6f82956407c931a14c023049e6a556201d4c07fc3a4f9c0cd86a77a5f703bc4c9de9055aca230e85714684c3c974483c02b22385562021ee87ffb78eb295a86b096b5f095822bd250a277112be4103ea4a7608d96eca726b2c15562025f537f11df4af1942cf2726df02c5b6882286fb2ac5339dae2c9d828aba6f527ff01dc556202955f7f88125b972f0a5956be604ede17ef20b4ea21225cb3a158bc1d14e1ae06dbbb54556202c1837fa005de1f4b235134f6a66019013c8498d7fe5d9c4a258bb57fe1485c0d4f3e3a556202e4d47fe35badbf25c63a5d1ab35b3ca6cb3f58b64f38e5dcf8f0175fb3933f138973f555620300a37f0e9cd98380dfef11ea41949b838e219023711089f2dc48dccc8af934d9269468556101689052620316487ff00a5d7dc5764c56ccd4375c9467b4afc0f9d6b53d77dfb27894bf31e07d5d8c55620002dd565b80516001600160a01b03811681146200027b57600080fd5b919050565b600080600080608085870312156200029757600080fd5b620002a28562000263565b9350620002b26020860162000263565b9250620002c26040860162000263565b9150620002d26060860162000263565b905092959194509250565b61138080620002ed6000396000f3fe608060405234801561001057600080fd5b50600436106101505760003560e01c806350f3845b116100cd578063b5d5b5fa11610081578063b9aa6ec411610066578063b9aa6ec4146102e7578063e4ba0d7b146102fa578063f851a4401461030d57600080fd5b8063b5d5b5fa146102a4578063b92d21c4146102df57600080fd5b8063851f7147116100b2578063851f714714610255578063ad9dbd271461025d578063aecb52571461029b57600080fd5b806350f3845b1461023a5780637a9970351461024257600080fd5b806326230e2f116101245780632e17de78116101095780632e17de781461020157806345aefbdb146102145780634f0e0ef31461022757600080fd5b806326230e2f146101d95780632e0f2625146101f957600080fd5b8062c3a272146101555780630b9b199d146101855780631b545a171461018f57806320ca3c7f146101c6575b600080fd5b600454610168906001600160a01b031681565b6040516001600160a01b0390911681526020015b60405180910390f35b61018d610320565b005b6101b861019d366004610f85565b6001600160a01b031660009081526007602052604090205490565b60405190815260200161017c565b600354610168906001600160a01b031681565b6101b86101e7366004610fa7565b60066020526000908152604090205481565b6101b8601281565b61018d61020f366004610fa7565b6104d8565b61018d610222366004610fc0565b6107e9565b600254610168906001600160a01b031681565b6101b8610abe565b61018d610250366004610fc0565b610be6565b6101b8610ca7565b61028b61026b366004610fe2565b600860209081526000928352604080842090915290825290205460ff1681565b604051901515815260200161017c565b6101b860055481565b6102b76102b2366004610fe2565b610d76565b604080519586526020860194909452928401919091526060830152608082015260a00161017c565b6101b8610dc4565b600154610168906001600160a01b031681565b6102b7610308366004610fe2565b610e04565b600054610168906001600160a01b031681565b6000546001600160a01b031633146103895760405162461bcd60e51b815260206004820152602160248201527f4f6e6c792061646d696e2063616e2063616c6c20746869732066756e6374696f6044820152603760f91b60648201526084015b60405180910390fd5b6001546040516370a0823160e01b81523060048201526000916001600160a01b0316906370a0823190602401602060405180830381865afa1580156103d2573d6000803e3d6000fd5b505050506040513d601f19601f820116820180604052508101906103f6919061100c565b9050600060055482610408919061103b565b90506000811161045a5760405162461bcd60e51b815260206004820152601060248201527f496e73756666696369656e742047524c000000000000000000000000000000006044820152606401610380565b60015460005460405163a9059cbb60e01b81526001600160a01b0391821660048201526024810184905291169063a9059cbb906044016020604051808303816000875af11580156104af573d6000803e3d6000fd5b505050506040513d601f19601f820116820180604052508101906104d3919061104e565b505050565b33600090815260086020908152604080832084845290915290205460ff16156105435760405162461bcd60e51b815260206004820152601660248201527f5374616b6520616c726561647920756e7374616b6564000000000000000000006044820152606401610380565b336000908152600760205260409020805482106105925760405162461bcd60e51b815260206004820152600d60248201526c092dcecc2d8d2c840d2dcc8caf609b1b6044820152606401610380565b60008183815481106105a6576105a6611070565b90600052602060002090600502019050806002015442116106f057600181015460006105d0610dc4565b905060008184600301546105e4919061103b565b9050801561061c57600384015460009061060283633b9aca00611086565b61060c91906110b3565b905061061881856110c7565b9350505b60015460405163a9059cbb60e01b8152336004820152602481018590526001600160a01b039091169063a9059cbb906044016020604051808303816000875af115801561066d573d6000803e3d6000fd5b505050506040513d601f19601f82011682018060405250810190610691919061104e565b503360008181526008602090815260408083208a8452825291829020805460ff1916600117905590518581527f0f5bb82176feb1b5e747e28471aa92156a04d9f3ab9f45f28e2d704232b93f75910160405180910390a25050506107c9565b600180549082015460405163a9059cbb60e01b815233600482015260248101919091526001600160a01b039091169063a9059cbb906044016020604051808303816000875af1158015610747573d6000803e3d6000fd5b505050506040513d601f19601f8201168201806040525081019061076b919061104e565b50336000818152600860209081526040808320878452825291829020805460ff1916600190811790915584015491519182527f0f5bb82176feb1b5e747e28471aa92156a04d9f3ab9f45f28e2d704232b93f75910160405180910390a25b8060010154600560008282546107df919061103b565b9091555050505050565b600082116108395760405162461bcd60e51b815260206004820152600e60248201527f496e76616c696420616d6f756e740000000000000000000000000000000000006044820152606401610380565b610844601e826110da565b156108845760405162461bcd60e51b815260206004820152601060248201526f24b73b30b634b210323ab930ba34b7b760811b6044820152606401610380565b600061088e610dc4565b9050600061089c8385610ec7565b905060006108aa828661103b565b90506000633b9aca006108bd8584611086565b6108c791906110b3565b6001546040516323b872dd60e01b8152336004820152306024820152604481018590529192506001600160a01b0316906323b872dd906064016020604051808303816000875af115801561091f573d6000803e3d6000fd5b505050506040513d601f19601f82011682018060405250810190610943919061104e565b50600061095186600a611086565b61095b90426110c7565b336000818152600760209081526040808320815160a0810183528c81528084018a8152818401888152606083018e8152608084018c8152855460018082018855968a52978920945160059098029094019687559151868501555160028601555160038501555160049384015554925490516323b872dd60e01b8152918201939093526001600160a01b0392831660248201526044810188905292935016906323b872dd906064016020604051808303816000875af1158015610a21573d6000803e3d6000fd5b505050506040513d601f19601f82011682018060405250810190610a45919061104e565b508260056000828254610a5891906110c7565b90915550506040805188815260208101889052908101829052606081018490526080810185905260a0810184905233907fc16be9a586414a157dd46b4d023aa9997a025dd1cbbaa67ac0c1b8273a5eaf559060c00160405180910390a250505050505050565b60408051600280825260608201835260009283929190602083019080368337505060015482519293506001600160a01b031691839150600090610b0357610b03611070565b6001600160a01b039283166020918202929092010152600254825191169082906001908110610b3457610b34611070565b6001600160a01b03928316602091820292909201015260035460405163d06ca61f60e01b8152911690600090829063d06ca61f90610b7c90633b9aca00908790600401611104565b600060405180830381865afa158015610b99573d6000803e3d6000fd5b505050506040513d6000823e601f3d908101601f19168201604052610bc1919081019061115b565b905080600181518110610bd657610bd6611070565b6020026020010151935050505090565b6000546001600160a01b03163314610c4a5760405162461bcd60e51b815260206004820152602160248201527f4f6e6c792061646d696e2063616e2063616c6c20746869732066756e6374696f6044820152603760f91b6064820152608401610380565b610c55601e836110da565b15610c955760405162461bcd60e51b815260206004820152601060248201526f24b73b30b634b210323ab930ba34b7b760811b6044820152606401610380565b60009182526006602052604090912055565b6004805460408051633fabe5a360e21b815290516000936001600160a01b03909316928492849263feaf968c928281019260a09291908290030181865afa158015610cf6573d6000803e3d6000fd5b505050506040513d601f19601f82011682018060405250810190610d1a9190611233565b50505091505060008113610d705760405162461bcd60e51b815260206004820152601560248201527f496e76616c6964204554482f55534420707269636500000000000000000000006044820152606401610380565b92915050565b60076020528160005260406000208181548110610d9257600080fd5b600091825260209091206005909102018054600182015460028301546003840154600490940154929550909350919085565b600080610dcf610ca7565b90506000610ddb610abe565b9050610de96012600a611367565b610df38383611086565b610dfd91906110b3565b9250505090565b6001600160a01b03821660009081526007602052604081205481908190819081908610610e635760405162461bcd60e51b815260206004820152600d60248201526c092dcecc2d8d2c840d2dcc8caf609b1b6044820152606401610380565b6001600160a01b0387166000908152600760205260408120805488908110610e8d57610e8d611070565b600091825260209091206005909102018054600182015460028301546003840154600490940154929c919b50995091975095509350505050565b60008281526006602052604081205480610f495760405162461bcd60e51b815260206004820152602860248201527f4665652070657263656e74616765206e6f742073657420666f7220746869732060448201527f6475726174696f6e0000000000000000000000000000000000000000000000006064820152608401610380565b62989680610f578285611086565b610f6191906110b3565b949350505050565b80356001600160a01b0381168114610f8057600080fd5b919050565b600060208284031215610f9757600080fd5b610fa082610f69565b9392505050565b600060208284031215610fb957600080fd5b5035919050565b60008060408385031215610fd357600080fd5b50508035926020909101359150565b60008060408385031215610ff557600080fd5b610ffe83610f69565b946020939093013593505050565b60006020828403121561101e57600080fd5b5051919050565b634e487b7160e01b600052601160045260246000fd5b81810381811115610d7057610d70611025565b60006020828403121561106057600080fd5b81518015158114610fa057600080fd5b634e487b7160e01b600052603260045260246000fd5b8082028115828204841417610d7057610d70611025565b634e487b7160e01b600052601260045260246000fd5b6000826110c2576110c261109d565b500490565b80820180821115610d7057610d70611025565b6000826110e9576110e961109d565b500690565b634e487b7160e01b600052604160045260246000fd5b6000604082018483526020604081850152818551808452606086019150828701935060005b8181101561114e5784516001600160a01b031683529383019391830191600101611129565b5090979650505050505050565b6000602080838503121561116e57600080fd5b825167ffffffffffffffff8082111561118657600080fd5b818501915085601f83011261119a57600080fd5b8151818111156111ac576111ac6110ee565b8060051b604051601f19603f830116810181811085821117156111d1576111d16110ee565b6040529182528482019250838101850191888311156111ef57600080fd5b938501935b8285101561120d578451845293850193928501926111f4565b98975050505050505050565b805169ffffffffffffffffffff81168114610f8057600080fd5b600080600080600060a0868803121561124b57600080fd5b61125486611219565b945060208601519350604086015192506060860151915061127760808701611219565b90509295509295909350565b600181815b808511156112be5781600019048211156112a4576112a4611025565b808516156112b157918102915b93841c9390800290611288565b509250929050565b6000826112d557506001610d70565b816112e257506000610d70565b81600181146112f857600281146113025761131e565b6001915050610d70565b60ff84111561131357611313611025565b50506001821b610d70565b5060208310610133831016604e8410600b8410161715611341575081810a610d70565b61134b8383611283565b806000190482111561135f5761135f611025565b029392505050565b6000610fa083836112c656fea164736f6c6343000814000a","opcodes":"PUSH1 0x80 PUSH1 0x40 MSTORE CALLVALUE DUP1 ISZERO PUSH3 0x11 JUMPI PUSH1 0x0 DUP1 REVERT JUMPDEST POP PUSH1 0x40 MLOAD PUSH3 0x166D CODESIZE SUB DUP1 PUSH3 0x166D DUP4 CODECOPY DUP2 ADD PUSH1 0x40 DUP2 SWAP1 MSTORE PUSH3 0x34 SWAP2 PUSH3 0x280 JUMP JUMPDEST PUSH1 0x0 DUP1 SLOAD CALLER PUSH1 0x1 PUSH1 0x1 PUSH1 0xA0 SHL SUB NOT SWAP2 DUP3 AND OR DUP3 SSTORE PUSH1 0x1 DUP1 SLOAD DUP3 AND PUSH1 0x1 PUSH1 0x1 PUSH1 0xA0 SHL SUB SWAP8 DUP9 AND OR SWAP1 SSTORE PUSH1 0x2 DUP1 SLOAD DUP3 AND SWAP6 DUP8 AND SWAP6 SWAP1 SWAP6 OR SWAP1 SWAP5 SSTORE PUSH1 0x3 DUP1 SLOAD DUP6 AND SWAP4 DUP7 AND SWAP4 SWAP1 SWAP4 OR SWAP1 SWAP3 SSTORE PUSH1 0x4 DUP1 SLOAD SWAP1 SWAP4 AND SWAP4 AND SWAP3 SWAP1 SWAP3 OR SWAP1 SSTORE PUSH1 0x6 PUSH1 0x20 MSTORE PUSH3 0x5B8D8 PUSH32 0xB6BA906FF52451A7A924E2EAEB8AEA3EBEE7350A8703E5E417EDB25358C7DCC1 SSTORE PUSH3 0x89544 PUSH32 0x6CA6DCAFC04B6E03616746C3528366F990E332021E35D59275BE746D65CAE0A7 SSTORE PUSH3 0xBCD40 PUSH32 0x1727C0104C2870C3003671480695F7DAB262614528B49265008E76FD3D48C5FE SSTORE PUSH3 0xF1EFA PUSH32 0x5451FE6494362676DDB91456D9957C85D968E6F82956407C931A14C023049E6A SSTORE PUSH3 0x1D4C0 PUSH32 0xC3A4F9C0CD86A77A5F703BC4C9DE9055ACA230E85714684C3C974483C02B2238 SSTORE PUSH3 0x21EE8 PUSH32 0xFB78EB295A86B096B5F095822BD250A277112BE4103EA4A7608D96ECA726B2C1 SSTORE PUSH3 0x25F53 PUSH32 0x11DF4AF1942CF2726DF02C5B6882286FB2AC5339DAE2C9D828ABA6F527FF01DC SSTORE PUSH3 0x2955F PUSH32 0x88125B972F0A5956BE604EDE17EF20B4EA21225CB3A158BC1D14E1AE06DBBB54 SSTORE PUSH3 0x2C183 PUSH32 0xA005DE1F4B235134F6A66019013C8498D7FE5D9C4A258BB57FE1485C0D4F3E3A SSTORE PUSH3 0x2E4D4 PUSH32 0xE35BADBF25C63A5D1AB35B3CA6CB3F58B64F38E5DCF8F0175FB3933F138973F5 SSTORE PUSH3 0x300A3 PUSH32 0xE9CD98380DFEF11EA41949B838E219023711089F2DC48DCCC8AF934D9269468 SSTORE PUSH2 0x168 SWAP1 MSTORE PUSH3 0x31648 PUSH32 0xF00A5D7DC5764C56CCD4375C9467B4AFC0F9D6B53D77DFB27894BF31E07D5D8C SSTORE PUSH3 0x2DD JUMP JUMPDEST DUP1 MLOAD PUSH1 0x1 PUSH1 0x1 PUSH1 0xA0 SHL SUB DUP2 AND DUP2 EQ PUSH3 0x27B JUMPI PUSH1 0x0 DUP1 REVERT JUMPDEST SWAP2 SWAP1 POP JUMP JUMPDEST PUSH1 0x0 DUP1 PUSH1 0x0 DUP1 PUSH1 0x80 DUP6 DUP8 SUB SLT ISZERO PUSH3 0x297 JUMPI PUSH1 0x0 DUP1 REVERT JUMPDEST PUSH3 0x2A2 DUP6 PUSH3 0x263 JUMP JUMPDEST SWAP4 POP PUSH3 0x2B2 PUSH1 0x20 DUP7 ADD PUSH3 0x263 JUMP JUMPDEST SWAP3 POP PUSH3 0x2C2 PUSH1 0x40 DUP7 ADD PUSH3 0x263 JUMP JUMPDEST SWAP2 POP PUSH3 0x2D2 PUSH1 0x60 DUP7 ADD PUSH3 0x263 JUMP JUMPDEST SWAP1 POP SWAP3 SWAP6 SWAP2 SWAP5 POP SWAP3 POP JUMP JUMPDEST PUSH2 0x1380 DUP1 PUSH3 0x2ED PUSH1 0x0 CODECOPY PUSH1 0x0 RETURN INVALID PUSH1 0x80 PUSH1 0x40 MSTORE CALLVALUE DUP1 ISZERO PUSH2 0x10 JUMPI PUSH1 0x0 DUP1 REVERT JUMPDEST POP PUSH1 0x4 CALLDATASIZE LT PUSH2 0x150 JUMPI PUSH1 0x0 CALLDATALOAD PUSH1 0xE0 SHR DUP1 PUSH4 0x50F3845B GT PUSH2 0xCD JUMPI DUP1 PUSH4 0xB5D5B5FA GT PUSH2 0x81 JUMPI DUP1 PUSH4 0xB9AA6EC4 GT PUSH2 0x66 JUMPI DUP1 PUSH4 0xB9AA6EC4 EQ PUSH2 0x2E7 JUMPI DUP1 PUSH4 0xE4BA0D7B EQ PUSH2 0x2FA JUMPI DUP1 PUSH4 0xF851A440 EQ PUSH2 0x30D JUMPI PUSH1 0x0 DUP1 REVERT JUMPDEST DUP1 PUSH4 0xB5D5B5FA EQ PUSH2 0x2A4 JUMPI DUP1 PUSH4 0xB92D21C4 EQ PUSH2 0x2DF JUMPI PUSH1 0x0 DUP1 REVERT JUMPDEST DUP1 PUSH4 0x851F7147 GT PUSH2 0xB2 JUMPI DUP1 PUSH4 0x851F7147 EQ PUSH2 0x255 JUMPI DUP1 PUSH4 0xAD9DBD27 EQ PUSH2 0x25D JUMPI DUP1 PUSH4 0xAECB5257 EQ PUSH2 0x29B JUMPI PUSH1 0x0 DUP1 REVERT JUMPDEST DUP1 PUSH4 0x50F3845B EQ PUSH2 0x23A JUMPI DUP1 PUSH4 0x7A997035 EQ PUSH2 0x242 JUMPI PUSH1 0x0 DUP1 REVERT JUMPDEST DUP1 PUSH4 0x26230E2F GT PUSH2 0x124 JUMPI DUP1 PUSH4 0x2E17DE78 GT PUSH2 0x109 JUMPI DUP1 PUSH4 0x2E17DE78 EQ PUSH2 0x201 JUMPI DUP1 PUSH4 0x45AEFBDB EQ PUSH2 0x214 JUMPI DUP1 PUSH4 0x4F0E0EF3 EQ PUSH2 0x227 JUMPI PUSH1 0x0 DUP1 REVERT JUMPDEST DUP1 PUSH4 0x26230E2F EQ PUSH2 0x1D9 JUMPI DUP1 PUSH4 0x2E0F2625 EQ PUSH2 0x1F9 JUMPI PUSH1 0x0 DUP1 REVERT JUMPDEST DUP1 PUSH3 0xC3A272 EQ PUSH2 0x155 JUMPI DUP1 PUSH4 0xB9B199D EQ PUSH2 0x185 JUMPI DUP1 PUSH4 0x1B545A17 EQ PUSH2 0x18F JUMPI DUP1 PUSH4 0x20CA3C7F EQ PUSH2 0x1C6 JUMPI JUMPDEST PUSH1 0x0 DUP1 REVERT JUMPDEST PUSH1 0x4 SLOAD PUSH2 0x168 SWAP1 PUSH1 0x1 PUSH1 0x1 PUSH1 0xA0 SHL SUB AND DUP2 JUMP JUMPDEST PUSH1 0x40 MLOAD PUSH1 0x1 PUSH1 0x1 PUSH1 0xA0 SHL SUB SWAP1 SWAP2 AND DUP2 MSTORE PUSH1 0x20 ADD JUMPDEST PUSH1 0x40 MLOAD DUP1 SWAP2 SUB SWAP1 RETURN JUMPDEST PUSH2 0x18D PUSH2 0x320 JUMP JUMPDEST STOP JUMPDEST PUSH2 0x1B8 PUSH2 0x19D CALLDATASIZE PUSH1 0x4 PUSH2 0xF85 JUMP JUMPDEST PUSH1 0x1 PUSH1 0x1 PUSH1 0xA0 SHL SUB AND PUSH1 0x0 SWAP1 DUP2 MSTORE PUSH1 0x7 PUSH1 0x20 MSTORE PUSH1 0x40 SWAP1 KECCAK256 SLOAD SWAP1 JUMP JUMPDEST PUSH1 0x40 MLOAD SWAP1 DUP2 MSTORE PUSH1 0x20 ADD PUSH2 0x17C JUMP JUMPDEST PUSH1 0x3 SLOAD PUSH2 0x168 SWAP1 PUSH1 0x1 PUSH1 0x1 PUSH1 0xA0 SHL SUB AND DUP2 JUMP JUMPDEST PUSH2 0x1B8 PUSH2 0x1E7 CALLDATASIZE PUSH1 0x4 PUSH2 0xFA7 JUMP JUMPDEST PUSH1 0x6 PUSH1 0x20 MSTORE PUSH1 0x0 SWAP1 DUP2 MSTORE PUSH1 0x40 SWAP1 KECCAK256 SLOAD DUP2 JUMP JUMPDEST PUSH2 0x1B8 PUSH1 0x12 DUP2 JUMP JUMPDEST PUSH2 0x18D PUSH2 0x20F CALLDATASIZE PUSH1 0x4 PUSH2 0xFA7 JUMP JUMPDEST PUSH2 0x4D8 JUMP JUMPDEST PUSH2 0x18D PUSH2 0x222 CALLDATASIZE PUSH1 0x4 PUSH2 0xFC0 JUMP JUMPDEST PUSH2 0x7E9 JUMP JUMPDEST PUSH1 0x2 SLOAD PUSH2 0x168 SWAP1 PUSH1 0x1 PUSH1 0x1 PUSH1 0xA0 SHL SUB AND DUP2 JUMP JUMPDEST PUSH2 0x1B8 PUSH2 0xABE JUMP JUMPDEST PUSH2 0x18D PUSH2 0x250 CALLDATASIZE PUSH1 0x4 PUSH2 0xFC0 JUMP JUMPDEST PUSH2 0xBE6 JUMP JUMPDEST PUSH2 0x1B8 PUSH2 0xCA7 JUMP JUMPDEST PUSH2 0x28B PUSH2 0x26B CALLDATASIZE PUSH1 0x4 PUSH2 0xFE2 JUMP JUMPDEST PUSH1 0x8 PUSH1 0x20 SWAP1 DUP2 MSTORE PUSH1 0x0 SWAP3 DUP4 MSTORE PUSH1 0x40 DUP1 DUP5 KECCAK256 SWAP1 SWAP2 MSTORE SWAP1 DUP3 MSTORE SWAP1 KECCAK256 SLOAD PUSH1 0xFF AND DUP2 JUMP JUMPDEST PUSH1 0x40 MLOAD SWAP1 ISZERO ISZERO DUP2 MSTORE PUSH1 0x20 ADD PUSH2 0x17C JUMP JUMPDEST PUSH2 0x1B8 PUSH1 0x5 SLOAD DUP2 JUMP JUMPDEST PUSH2 0x2B7 PUSH2 0x2B2 CALLDATASIZE PUSH1 0x4 PUSH2 0xFE2 JUMP JUMPDEST PUSH2 0xD76 JUMP JUMPDEST PUSH1 0x40 DUP1 MLOAD SWAP6 DUP7 MSTORE PUSH1 0x20 DUP7 ADD SWAP5 SWAP1 SWAP5 MSTORE SWAP3 DUP5 ADD SWAP2 SWAP1 SWAP2 MSTORE PUSH1 0x60 DUP4 ADD MSTORE PUSH1 0x80 DUP3 ADD MSTORE PUSH1 0xA0 ADD PUSH2 0x17C JUMP JUMPDEST PUSH2 0x1B8 PUSH2 0xDC4 JUMP JUMPDEST PUSH1 0x1 SLOAD PUSH2 0x168 SWAP1 PUSH1 0x1 PUSH1 0x1 PUSH1 0xA0 SHL SUB AND DUP2 JUMP JUMPDEST PUSH2 0x2B7 PUSH2 0x308 CALLDATASIZE PUSH1 0x4 PUSH2 0xFE2 JUMP JUMPDEST PUSH2 0xE04 JUMP JUMPDEST PUSH1 0x0 SLOAD PUSH2 0x168 SWAP1 PUSH1 0x1 PUSH1 0x1 PUSH1 0xA0 SHL SUB AND DUP2 JUMP JUMPDEST PUSH1 0x0 SLOAD PUSH1 0x1 PUSH1 0x1 PUSH1 0xA0 SHL SUB AND CALLER EQ PUSH2 0x389 JUMPI PUSH1 0x40 MLOAD PUSH3 0x461BCD PUSH1 0xE5 SHL DUP2 MSTORE PUSH1 0x20 PUSH1 0x4 DUP3 ADD MSTORE PUSH1 0x21 PUSH1 0x24 DUP3 ADD MSTORE PUSH32 0x4F6E6C792061646D696E2063616E2063616C6C20746869732066756E6374696F PUSH1 0x44 DUP3 ADD MSTORE PUSH1 0x37 PUSH1 0xF9 SHL PUSH1 0x64 DUP3 ADD MSTORE PUSH1 0x84 ADD JUMPDEST PUSH1 0x40 MLOAD DUP1 SWAP2 SUB SWAP1 REVERT JUMPDEST PUSH1 0x1 SLOAD PUSH1 0x40 MLOAD PUSH4 0x70A08231 PUSH1 0xE0 SHL DUP2 MSTORE ADDRESS PUSH1 0x4 DUP3 ADD MSTORE PUSH1 0x0 SWAP2 PUSH1 0x1 PUSH1 0x1 PUSH1 0xA0 SHL SUB AND SWAP1 PUSH4 0x70A08231 SWAP1 PUSH1 0x24 ADD PUSH1 0x20 PUSH1 0x40 MLOAD DUP1 DUP4 SUB DUP2 DUP7 GAS STATICCALL ISZERO DUP1 ISZERO PUSH2 0x3D2 JUMPI RETURNDATASIZE PUSH1 0x0 DUP1 RETURNDATACOPY RETURNDATASIZE PUSH1 0x0 REVERT JUMPDEST POP POP POP POP PUSH1 0x40 MLOAD RETURNDATASIZE PUSH1 0x1F NOT PUSH1 0x1F DUP3 ADD AND DUP3 ADD DUP1 PUSH1 0x40 MSTORE POP DUP2 ADD SWAP1 PUSH2 0x3F6 SWAP2 SWAP1 PUSH2 0x100C JUMP JUMPDEST SWAP1 POP PUSH1 0x0 PUSH1 0x5 SLOAD DUP3 PUSH2 0x408 SWAP2 SWAP1 PUSH2 0x103B JUMP JUMPDEST SWAP1 POP PUSH1 0x0 DUP2 GT PUSH2 0x45A JUMPI PUSH1 0x40 MLOAD PUSH3 0x461BCD PUSH1 0xE5 SHL DUP2 MSTORE PUSH1 0x20 PUSH1 0x4 DUP3 ADD MSTORE PUSH1 0x10 PUSH1 0x24 DUP3 ADD MSTORE PUSH32 0x496E73756666696369656E742047524C00000000000000000000000000000000 PUSH1 0x44 DUP3 ADD MSTORE PUSH1 0x64 ADD PUSH2 0x380 JUMP JUMPDEST PUSH1 0x1 SLOAD PUSH1 0x0 SLOAD PUSH1 0x40 MLOAD PUSH4 0xA9059CBB PUSH1 0xE0 SHL DUP2 MSTORE PUSH1 0x1 PUSH1 0x1 PUSH1 0xA0 SHL SUB SWAP2 DUP3 AND PUSH1 0x4 DUP3 ADD MSTORE PUSH1 0x24 DUP2 ADD DUP5 SWAP1 MSTORE SWAP2 AND SWAP1 PUSH4 0xA9059CBB SWAP1 PUSH1 0x44 ADD PUSH1 0x20 PUSH1 0x40 MLOAD DUP1 DUP4 SUB DUP2 PUSH1 0x0 DUP8 GAS CALL ISZERO DUP1 ISZERO PUSH2 0x4AF JUMPI RETURNDATASIZE PUSH1 0x0 DUP1 RETURNDATACOPY RETURNDATASIZE PUSH1 0x0 REVERT JUMPDEST POP POP POP POP PUSH1 0x40 MLOAD RETURNDATASIZE PUSH1 0x1F NOT PUSH1 0x1F DUP3 ADD AND DUP3 ADD DUP1 PUSH1 0x40 MSTORE POP DUP2 ADD SWAP1 PUSH2 0x4D3 SWAP2 SWAP1 PUSH2 0x104E JUMP JUMPDEST POP POP POP JUMP JUMPDEST CALLER PUSH1 0x0 SWAP1 DUP2 MSTORE PUSH1 0x8 PUSH1 0x20 SWAP1 DUP2 MSTORE PUSH1 0x40 DUP1 DUP4 KECCAK256 DUP5 DUP5 MSTORE SWAP1 SWAP2 MSTORE SWAP1 KECCAK256 SLOAD PUSH1 0xFF AND ISZERO PUSH2 0x543 JUMPI PUSH1 0x40 MLOAD PUSH3 0x461BCD PUSH1 0xE5 SHL DUP2 MSTORE PUSH1 0x20 PUSH1 0x4 DUP3 ADD MSTORE PUSH1 0x16 PUSH1 0x24 DUP3 ADD MSTORE PUSH32 0x5374616B6520616C726561647920756E7374616B656400000000000000000000 PUSH1 0x44 DUP3 ADD MSTORE PUSH1 0x64 ADD PUSH2 0x380 JUMP JUMPDEST CALLER PUSH1 0x0 SWAP1 DUP2 MSTORE PUSH1 0x7 PUSH1 0x20 MSTORE PUSH1 0x40 SWAP1 KECCAK256 DUP1 SLOAD DUP3 LT PUSH2 0x592 JUMPI PUSH1 0x40 MLOAD PUSH3 0x461BCD PUSH1 0xE5 SHL DUP2 MSTORE PUSH1 0x20 PUSH1 0x4 DUP3 ADD MSTORE PUSH1 0xD PUSH1 0x24 DUP3 ADD MSTORE PUSH13 0x92DCECC2D8D2C840D2DCC8CAF PUSH1 0x9B SHL PUSH1 0x44 DUP3 ADD MSTORE PUSH1 0x64 ADD PUSH2 0x380 JUMP JUMPDEST PUSH1 0x0 DUP2 DUP4 DUP2 SLOAD DUP2 LT PUSH2 0x5A6 JUMPI PUSH2 0x5A6 PUSH2 0x1070 JUMP JUMPDEST SWAP1 PUSH1 0x0 MSTORE PUSH1 0x20 PUSH1 0x0 KECCAK256 SWAP1 PUSH1 0x5 MUL ADD SWAP1 POP DUP1 PUSH1 0x2 ADD SLOAD TIMESTAMP GT PUSH2 0x6F0 JUMPI PUSH1 0x1 DUP2 ADD SLOAD PUSH1 0x0 PUSH2 0x5D0 PUSH2 0xDC4 JUMP JUMPDEST SWAP1 POP PUSH1 0x0 DUP2 DUP5 PUSH1 0x3 ADD SLOAD PUSH2 0x5E4 SWAP2 SWAP1 PUSH2 0x103B JUMP JUMPDEST SWAP1 POP DUP1 ISZERO PUSH2 0x61C JUMPI PUSH1 0x3 DUP5 ADD SLOAD PUSH1 0x0 SWAP1 PUSH2 0x602 DUP4 PUSH4 0x3B9ACA00 PUSH2 0x1086 JUMP JUMPDEST PUSH2 0x60C SWAP2 SWAP1 PUSH2 0x10B3 JUMP JUMPDEST SWAP1 POP PUSH2 0x618 DUP2 DUP6 PUSH2 0x10C7 JUMP JUMPDEST SWAP4 POP POP JUMPDEST PUSH1 0x1 SLOAD PUSH1 0x40 MLOAD PUSH4 0xA9059CBB PUSH1 0xE0 SHL DUP2 MSTORE CALLER PUSH1 0x4 DUP3 ADD MSTORE PUSH1 0x24 DUP2 ADD DUP6 SWAP1 MSTORE PUSH1 0x1 PUSH1 0x1 PUSH1 0xA0 SHL SUB SWAP1 SWAP2 AND SWAP1 PUSH4 0xA9059CBB SWAP1 PUSH1 0x44 ADD PUSH1 0x20 PUSH1 0x40 MLOAD DUP1 DUP4 SUB DUP2 PUSH1 0x0 DUP8 GAS CALL ISZERO DUP1 ISZERO PUSH2 0x66D JUMPI RETURNDATASIZE PUSH1 0x0 DUP1 RETURNDATACOPY RETURNDATASIZE PUSH1 0x0 REVERT JUMPDEST POP POP POP POP PUSH1 0x40 MLOAD RETURNDATASIZE PUSH1 0x1F NOT PUSH1 0x1F DUP3 ADD AND DUP3 ADD DUP1 PUSH1 0x40 MSTORE POP DUP2 ADD SWAP1 PUSH2 0x691 SWAP2 SWAP1 PUSH2 0x104E JUMP JUMPDEST POP CALLER PUSH1 0x0 DUP2 DUP2 MSTORE PUSH1 0x8 PUSH1 0x20 SWAP1 DUP2 MSTORE PUSH1 0x40 DUP1 DUP4 KECCAK256 DUP11 DUP5 MSTORE DUP3 MSTORE SWAP2 DUP3 SWAP1 KECCAK256 DUP1 SLOAD PUSH1 0xFF NOT AND PUSH1 0x1 OR SWAP1 SSTORE SWAP1 MLOAD DUP6 DUP2 MSTORE PUSH32 0xF5BB82176FEB1B5E747E28471AA92156A04D9F3AB9F45F28E2D704232B93F75 SWAP2 ADD PUSH1 0x40 MLOAD DUP1 SWAP2 SUB SWAP1 LOG2 POP POP POP PUSH2 0x7C9 JUMP JUMPDEST PUSH1 0x1 DUP1 SLOAD SWAP1 DUP3 ADD SLOAD PUSH1 0x40 MLOAD PUSH4 0xA9059CBB PUSH1 0xE0 SHL DUP2 MSTORE CALLER PUSH1 0x4 DUP3 ADD MSTORE PUSH1 0x24 DUP2 ADD SWAP2 SWAP1 SWAP2 MSTORE PUSH1 0x1 PUSH1 0x1 PUSH1 0xA0 SHL SUB SWAP1 SWAP2 AND SWAP1 PUSH4 0xA9059CBB SWAP1 PUSH1 0x44 ADD PUSH1 0x20 PUSH1 0x40 MLOAD DUP1 DUP4 SUB DUP2 PUSH1 0x0 DUP8 GAS CALL ISZERO DUP1 ISZERO PUSH2 0x747 JUMPI RETURNDATASIZE PUSH1 0x0 DUP1 RETURNDATACOPY RETURNDATASIZE PUSH1 0x0 REVERT JUMPDEST POP POP POP POP PUSH1 0x40 MLOAD RETURNDATASIZE PUSH1 0x1F NOT PUSH1 0x1F DUP3 ADD AND DUP3 ADD DUP1 PUSH1 0x40 MSTORE POP DUP2 ADD SWAP1 PUSH2 0x76B SWAP2 SWAP1 PUSH2 0x104E JUMP JUMPDEST POP CALLER PUSH1 0x0 DUP2 DUP2 MSTORE PUSH1 0x8 PUSH1 0x20 SWAP1 DUP2 MSTORE PUSH1 0x40 DUP1 DUP4 KECCAK256 DUP8 DUP5 MSTORE DUP3 MSTORE SWAP2 DUP3 SWAP1 KECCAK256 DUP1 SLOAD PUSH1 0xFF NOT AND PUSH1 0x1 SWAP1 DUP2 OR SWAP1 SWAP2 SSTORE DUP5 ADD SLOAD SWAP2 MLOAD SWAP2 DUP3 MSTORE PUSH32 0xF5BB82176FEB1B5E747E28471AA92156A04D9F3AB9F45F28E2D704232B93F75 SWAP2 ADD PUSH1 0x40 MLOAD DUP1 SWAP2 SUB SWAP1 LOG2 JUMPDEST DUP1 PUSH1 0x1 ADD SLOAD PUSH1 0x5 PUSH1 0x0 DUP3 DUP3 SLOAD PUSH2 0x7DF SWAP2 SWAP1 PUSH2 0x103B JUMP JUMPDEST SWAP1 SWAP2 SSTORE POP POP POP POP POP JUMP JUMPDEST PUSH1 0x0 DUP3 GT PUSH2 0x839 JUMPI PUSH1 0x40 MLOAD PUSH3 0x461BCD PUSH1 0xE5 SHL DUP2 MSTORE PUSH1 0x20 PUSH1 0x4 DUP3 ADD MSTORE PUSH1 0xE PUSH1 0x24 DUP3 ADD MSTORE PUSH32 0x496E76616C696420616D6F756E74000000000000000000000000000000000000 PUSH1 0x44 DUP3 ADD MSTORE PUSH1 0x64 ADD PUSH2 0x380 JUMP JUMPDEST PUSH2 0x844 PUSH1 0x1E DUP3 PUSH2 0x10DA JUMP JUMPDEST ISZERO PUSH2 0x884 JUMPI PUSH1 0x40 MLOAD PUSH3 0x461BCD PUSH1 0xE5 SHL DUP2 MSTORE PUSH1 0x20 PUSH1 0x4 DUP3 ADD MSTORE PUSH1 0x10 PUSH1 0x24 DUP3 ADD MSTORE PUSH16 0x24B73B30B634B210323AB930BA34B7B7 PUSH1 0x81 SHL PUSH1 0x44 DUP3 ADD MSTORE PUSH1 0x64 ADD PUSH2 0x380 JUMP JUMPDEST PUSH1 0x0 PUSH2 0x88E PUSH2 0xDC4 JUMP JUMPDEST SWAP1 POP PUSH1 0x0 PUSH2 0x89C DUP4 DUP6 PUSH2 0xEC7 JUMP JUMPDEST SWAP1 POP PUSH1 0x0 PUSH2 0x8AA DUP3 DUP7 PUSH2 0x103B JUMP JUMPDEST SWAP1 POP PUSH1 0x0 PUSH4 0x3B9ACA00 PUSH2 0x8BD DUP6 DUP5 PUSH2 0x1086 JUMP JUMPDEST PUSH2 0x8C7 SWAP2 SWAP1 PUSH2 0x10B3 JUMP JUMPDEST PUSH1 0x1 SLOAD PUSH1 0x40 MLOAD PUSH4 0x23B872DD PUSH1 0xE0 SHL DUP2 MSTORE CALLER PUSH1 0x4 DUP3 ADD MSTORE ADDRESS PUSH1 0x24 DUP3 ADD MSTORE PUSH1 0x44 DUP2 ADD DUP6 SWAP1 MSTORE SWAP2 SWAP3 POP PUSH1 0x1 PUSH1 0x1 PUSH1 0xA0 SHL SUB AND SWAP1 PUSH4 0x23B872DD SWAP1 PUSH1 0x64 ADD PUSH1 0x20 PUSH1 0x40 MLOAD DUP1 DUP4 SUB DUP2 PUSH1 0x0 DUP8 GAS CALL ISZERO DUP1 ISZERO PUSH2 0x91F JUMPI RETURNDATASIZE PUSH1 0x0 DUP1 RETURNDATACOPY RETURNDATASIZE PUSH1 0x0 REVERT JUMPDEST POP POP POP POP PUSH1 0x40 MLOAD RETURNDATASIZE PUSH1 0x1F NOT PUSH1 0x1F DUP3 ADD AND DUP3 ADD DUP1 PUSH1 0x40 MSTORE POP DUP2 ADD SWAP1 PUSH2 0x943 SWAP2 SWAP1 PUSH2 0x104E JUMP JUMPDEST POP PUSH1 0x0 PUSH2 0x951 DUP7 PUSH1 0xA PUSH2 0x1086 JUMP JUMPDEST PUSH2 0x95B SWAP1 TIMESTAMP PUSH2 0x10C7 JUMP JUMPDEST CALLER PUSH1 0x0 DUP2 DUP2 MSTORE PUSH1 0x7 PUSH1 0x20 SWAP1 DUP2 MSTORE PUSH1 0x40 DUP1 DUP4 KECCAK256 DUP2 MLOAD PUSH1 0xA0 DUP2 ADD DUP4 MSTORE DUP13 DUP2 MSTORE DUP1 DUP5 ADD DUP11 DUP2 MSTORE DUP2 DUP5 ADD DUP9 DUP2 MSTORE PUSH1 0x60 DUP4 ADD DUP15 DUP2 MSTORE PUSH1 0x80 DUP5 ADD DUP13 DUP2 MSTORE DUP6 SLOAD PUSH1 0x1 DUP1 DUP3 ADD DUP9 SSTORE SWAP7 DUP11 MSTORE SWAP8 DUP10 KECCAK256 SWAP5 MLOAD PUSH1 0x5 SWAP1 SWAP9 MUL SWAP1 SWAP5 ADD SWAP7 DUP8 SSTORE SWAP2 MLOAD DUP7 DUP6 ADD SSTORE MLOAD PUSH1 0x2 DUP7 ADD SSTORE MLOAD PUSH1 0x3 DUP6 ADD SSTORE MLOAD PUSH1 0x4 SWAP4 DUP5 ADD SSTORE SLOAD SWAP3 SLOAD SWAP1 MLOAD PUSH4 0x23B872DD PUSH1 0xE0 SHL DUP2 MSTORE SWAP2 DUP3 ADD SWAP4 SWAP1 SWAP4 MSTORE PUSH1 0x1 PUSH1 0x1 PUSH1 0xA0 SHL SUB SWAP3 DUP4 AND PUSH1 0x24 DUP3 ADD MSTORE PUSH1 0x44 DUP2 ADD DUP9 SWAP1 MSTORE SWAP3 SWAP4 POP AND SWAP1 PUSH4 0x23B872DD SWAP1 PUSH1 0x64 ADD PUSH1 0x20 PUSH1 0x40 MLOAD DUP1 DUP4 SUB DUP2 PUSH1 0x0 DUP8 GAS CALL ISZERO DUP1 ISZERO PUSH2 0xA21 JUMPI RETURNDATASIZE PUSH1 0x0 DUP1 RETURNDATACOPY RETURNDATASIZE PUSH1 0x0 REVERT JUMPDEST POP POP POP POP PUSH1 0x40 MLOAD RETURNDATASIZE PUSH1 0x1F NOT PUSH1 0x1F DUP3 ADD AND DUP3 ADD DUP1 PUSH1 0x40 MSTORE POP DUP2 ADD SWAP1 PUSH2 0xA45 SWAP2 SWAP1 PUSH2 0x104E JUMP JUMPDEST POP DUP3 PUSH1 0x5 PUSH1 0x0 DUP3 DUP3 SLOAD PUSH2 0xA58 SWAP2 SWAP1 PUSH2 0x10C7 JUMP JUMPDEST SWAP1 SWAP2 SSTORE POP POP PUSH1 0x40 DUP1 MLOAD DUP9 DUP2 MSTORE PUSH1 0x20 DUP2 ADD DUP9 SWAP1 MSTORE SWAP1 DUP2 ADD DUP3 SWAP1 MSTORE PUSH1 0x60 DUP2 ADD DUP5 SWAP1 MSTORE PUSH1 0x80 DUP2 ADD DUP6 SWAP1 MSTORE PUSH1 0xA0 DUP2 ADD DUP5 SWAP1 MSTORE CALLER SWAP1 PUSH32 0xC16BE9A586414A157DD46B4D023AA9997A025DD1CBBAA67AC0C1B8273A5EAF55 SWAP1 PUSH1 0xC0 ADD PUSH1 0x40 MLOAD DUP1 SWAP2 SUB SWAP1 LOG2 POP POP POP POP POP POP POP JUMP JUMPDEST PUSH1 0x40 DUP1 MLOAD PUSH1 0x2 DUP1 DUP3 MSTORE PUSH1 0x60 DUP3 ADD DUP4 MSTORE PUSH1 0x0 SWAP3 DUP4 SWAP3 SWAP2 SWAP1 PUSH1 0x20 DUP4 ADD SWAP1 DUP1 CALLDATASIZE DUP4 CALLDATACOPY POP POP PUSH1 0x1 SLOAD DUP3 MLOAD SWAP3 SWAP4 POP PUSH1 0x1 PUSH1 0x1 PUSH1 0xA0 SHL SUB AND SWAP2 DUP4 SWAP2 POP PUSH1 0x0 SWAP1 PUSH2 0xB03 JUMPI PUSH2 0xB03 PUSH2 0x1070 JUMP JUMPDEST PUSH1 0x1 PUSH1 0x1 PUSH1 0xA0 SHL SUB SWAP3 DUP4 AND PUSH1 0x20 SWAP2 DUP3 MUL SWAP3 SWAP1 SWAP3 ADD ADD MSTORE PUSH1 0x2 SLOAD DUP3 MLOAD SWAP2 AND SWAP1 DUP3 SWAP1 PUSH1 0x1 SWAP1 DUP2 LT PUSH2 0xB34 JUMPI PUSH2 0xB34 PUSH2 0x1070 JUMP JUMPDEST PUSH1 0x1 PUSH1 0x1 PUSH1 0xA0 SHL SUB SWAP3 DUP4 AND PUSH1 0x20 SWAP2 DUP3 MUL SWAP3 SWAP1 SWAP3 ADD ADD MSTORE PUSH1 0x3 SLOAD PUSH1 0x40 MLOAD PUSH4 0xD06CA61F PUSH1 0xE0 SHL DUP2 MSTORE SWAP2 AND SWAP1 PUSH1 0x0 SWAP1 DUP3 SWAP1 PUSH4 0xD06CA61F SWAP1 PUSH2 0xB7C SWAP1 PUSH4 0x3B9ACA00 SWAP1 DUP8 SWAP1 PUSH1 0x4 ADD PUSH2 0x1104 JUMP JUMPDEST PUSH1 0x0 PUSH1 0x40 MLOAD DUP1 DUP4 SUB DUP2 DUP7 GAS STATICCALL ISZERO DUP1 ISZERO PUSH2 0xB99 JUMPI RETURNDATASIZE PUSH1 0x0 DUP1 RETURNDATACOPY RETURNDATASIZE PUSH1 0x0 REVERT JUMPDEST POP POP POP POP PUSH1 0x40 MLOAD RETURNDATASIZE PUSH1 0x0 DUP3 RETURNDATACOPY PUSH1 0x1F RETURNDATASIZE SWAP1 DUP2 ADD PUSH1 0x1F NOT AND DUP3 ADD PUSH1 0x40 MSTORE PUSH2 0xBC1 SWAP2 SWAP1 DUP2 ADD SWAP1 PUSH2 0x115B JUMP JUMPDEST SWAP1 POP DUP1 PUSH1 0x1 DUP2 MLOAD DUP2 LT PUSH2 0xBD6 JUMPI PUSH2 0xBD6 PUSH2 0x1070 JUMP JUMPDEST PUSH1 0x20 MUL PUSH1 0x20 ADD ADD MLOAD SWAP4 POP POP POP POP SWAP1 JUMP JUMPDEST PUSH1 0x0 SLOAD PUSH1 0x1 PUSH1 0x1 PUSH1 0xA0 SHL SUB AND CALLER EQ PUSH2 0xC4A JUMPI PUSH1 0x40 MLOAD PUSH3 0x461BCD PUSH1 0xE5 SHL DUP2 MSTORE PUSH1 0x20 PUSH1 0x4 DUP3 ADD MSTORE PUSH1 0x21 PUSH1 0x24 DUP3 ADD MSTORE PUSH32 0x4F6E6C792061646D696E2063616E2063616C6C20746869732066756E6374696F PUSH1 0x44 DUP3 ADD MSTORE PUSH1 0x37 PUSH1 0xF9 SHL PUSH1 0x64 DUP3 ADD MSTORE PUSH1 0x84 ADD PUSH2 0x380 JUMP JUMPDEST PUSH2 0xC55 PUSH1 0x1E DUP4 PUSH2 0x10DA JUMP JUMPDEST ISZERO PUSH2 0xC95 JUMPI PUSH1 0x40 MLOAD PUSH3 0x461BCD PUSH1 0xE5 SHL DUP2 MSTORE PUSH1 0x20 PUSH1 0x4 DUP3 ADD MSTORE PUSH1 0x10 PUSH1 0x24 DUP3 ADD MSTORE PUSH16 0x24B73B30B634B210323AB930BA34B7B7 PUSH1 0x81 SHL PUSH1 0x44 DUP3 ADD MSTORE PUSH1 0x64 ADD PUSH2 0x380 JUMP JUMPDEST PUSH1 0x0 SWAP2 DUP3 MSTORE PUSH1 0x6 PUSH1 0x20 MSTORE PUSH1 0x40 SWAP1 SWAP2 KECCAK256 SSTORE JUMP JUMPDEST PUSH1 0x4 DUP1 SLOAD PUSH1 0x40 DUP1 MLOAD PUSH4 0x3FABE5A3 PUSH1 0xE2 SHL DUP2 MSTORE SWAP1 MLOAD PUSH1 0x0 SWAP4 PUSH1 0x1 PUSH1 0x1 PUSH1 0xA0 SHL SUB SWAP1 SWAP4 AND SWAP3 DUP5 SWAP3 DUP5 SWAP3 PUSH4 0xFEAF968C SWAP3 DUP3 DUP2 ADD SWAP3 PUSH1 0xA0 SWAP3 SWAP2 SWAP1 DUP3 SWAP1 SUB ADD DUP2 DUP7 GAS STATICCALL ISZERO DUP1 ISZERO PUSH2 0xCF6 JUMPI RETURNDATASIZE PUSH1 0x0 DUP1 RETURNDATACOPY RETURNDATASIZE PUSH1 0x0 REVERT JUMPDEST POP POP POP POP PUSH1 0x40 MLOAD RETURNDATASIZE PUSH1 0x1F NOT PUSH1 0x1F DUP3 ADD AND DUP3 ADD DUP1 PUSH1 0x40 MSTORE POP DUP2 ADD SWAP1 PUSH2 0xD1A SWAP2 SWAP1 PUSH2 0x1233 JUMP JUMPDEST POP POP POP SWAP2 POP POP PUSH1 0x0 DUP2 SGT PUSH2 0xD70 JUMPI PUSH1 0x40 MLOAD PUSH3 0x461BCD PUSH1 0xE5 SHL DUP2 MSTORE PUSH1 0x20 PUSH1 0x4 DUP3 ADD MSTORE PUSH1 0x15 PUSH1 0x24 DUP3 ADD MSTORE PUSH32 0x496E76616C6964204554482F5553442070726963650000000000000000000000 PUSH1 0x44 DUP3 ADD MSTORE PUSH1 0x64 ADD PUSH2 0x380 JUMP JUMPDEST SWAP3 SWAP2 POP POP JUMP JUMPDEST PUSH1 0x7 PUSH1 0x20 MSTORE DUP2 PUSH1 0x0 MSTORE PUSH1 0x40 PUSH1 0x0 KECCAK256 DUP2 DUP2 SLOAD DUP2 LT PUSH2 0xD92 JUMPI PUSH1 0x0 DUP1 REVERT JUMPDEST PUSH1 0x0 SWAP2 DUP3 MSTORE PUSH1 0x20 SWAP1 SWAP2 KECCAK256 PUSH1 0x5 SWAP1 SWAP2 MUL ADD DUP1 SLOAD PUSH1 0x1 DUP3 ADD SLOAD PUSH1 0x2 DUP4 ADD SLOAD PUSH1 0x3 DUP5 ADD SLOAD PUSH1 0x4 SWAP1 SWAP5 ADD SLOAD SWAP3 SWAP6 POP SWAP1 SWAP4 POP SWAP2 SWAP1 DUP6 JUMP JUMPDEST PUSH1 0x0 DUP1 PUSH2 0xDCF PUSH2 0xCA7 JUMP JUMPDEST SWAP1 POP PUSH1 0x0 PUSH2 0xDDB PUSH2 0xABE JUMP JUMPDEST SWAP1 POP PUSH2 0xDE9 PUSH1 0x12 PUSH1 0xA PUSH2 0x1367 JUMP JUMPDEST PUSH2 0xDF3 DUP4 DUP4 PUSH2 0x1086 JUMP JUMPDEST PUSH2 0xDFD SWAP2 SWAP1 PUSH2 0x10B3 JUMP JUMPDEST SWAP3 POP POP POP SWAP1 JUMP JUMPDEST PUSH1 0x1 PUSH1 0x1 PUSH1 0xA0 SHL SUB DUP3 AND PUSH1 0x0 SWAP1 DUP2 MSTORE PUSH1 0x7 PUSH1 0x20 MSTORE PUSH1 0x40 DUP2 KECCAK256 SLOAD DUP2 SWAP1 DUP2 SWAP1 DUP2 SWAP1 DUP2 SWAP1 DUP7 LT PUSH2 0xE63 JUMPI PUSH1 0x40 MLOAD PUSH3 0x461BCD PUSH1 0xE5 SHL DUP2 MSTORE PUSH1 0x20 PUSH1 0x4 DUP3 ADD MSTORE PUSH1 0xD PUSH1 0x24 DUP3 ADD MSTORE PUSH13 0x92DCECC2D8D2C840D2DCC8CAF PUSH1 0x9B SHL PUSH1 0x44 DUP3 ADD MSTORE PUSH1 0x64 ADD PUSH2 0x380 JUMP JUMPDEST PUSH1 0x1 PUSH1 0x1 PUSH1 0xA0 SHL SUB DUP8 AND PUSH1 0x0 SWAP1 DUP2 MSTORE PUSH1 0x7 PUSH1 0x20 MSTORE PUSH1 0x40 DUP2 KECCAK256 DUP1 SLOAD DUP9 SWAP1 DUP2 LT PUSH2 0xE8D JUMPI PUSH2 0xE8D PUSH2 0x1070 JUMP JUMPDEST PUSH1 0x0 SWAP2 DUP3 MSTORE PUSH1 0x20 SWAP1 SWAP2 KECCAK256 PUSH1 0x5 SWAP1 SWAP2 MUL ADD DUP1 SLOAD PUSH1 0x1 DUP3 ADD SLOAD PUSH1 0x2 DUP4 ADD SLOAD PUSH1 0x3 DUP5 ADD SLOAD PUSH1 0x4 SWAP1 SWAP5 ADD SLOAD SWAP3 SWAP13 SWAP2 SWAP12 POP SWAP10 POP SWAP2 SWAP8 POP SWAP6 POP SWAP4 POP POP POP POP JUMP JUMPDEST PUSH1 0x0 DUP3 DUP2 MSTORE PUSH1 0x6 PUSH1 0x20 MSTORE PUSH1 0x40 DUP2 KECCAK256 SLOAD DUP1 PUSH2 0xF49 JUMPI PUSH1 0x40 MLOAD PUSH3 0x461BCD PUSH1 0xE5 SHL DUP2 MSTORE PUSH1 0x20 PUSH1 0x4 DUP3 ADD MSTORE PUSH1 0x28 PUSH1 0x24 DUP3 ADD MSTORE PUSH32 0x4665652070657263656E74616765206E6F742073657420666F72207468697320 PUSH1 0x44 DUP3 ADD MSTORE PUSH32 0x6475726174696F6E000000000000000000000000000000000000000000000000 PUSH1 0x64 DUP3 ADD MSTORE PUSH1 0x84 ADD PUSH2 0x380 JUMP JUMPDEST PUSH3 0x989680 PUSH2 0xF57 DUP3 DUP6 PUSH2 0x1086 JUMP JUMPDEST PUSH2 0xF61 SWAP2 SWAP1 PUSH2 0x10B3 JUMP JUMPDEST SWAP5 SWAP4 POP POP POP POP JUMP JUMPDEST DUP1 CALLDATALOAD PUSH1 0x1 PUSH1 0x1 PUSH1 0xA0 SHL SUB DUP2 AND DUP2 EQ PUSH2 0xF80 JUMPI PUSH1 0x0 DUP1 REVERT JUMPDEST SWAP2 SWAP1 POP JUMP JUMPDEST PUSH1 0x0 PUSH1 0x20 DUP3 DUP5 SUB SLT ISZERO PUSH2 0xF97 JUMPI PUSH1 0x0 DUP1 REVERT JUMPDEST PUSH2 0xFA0 DUP3 PUSH2 0xF69 JUMP JUMPDEST SWAP4 SWAP3 POP POP POP JUMP JUMPDEST PUSH1 0x0 PUSH1 0x20 DUP3 DUP5 SUB SLT ISZERO PUSH2 0xFB9 JUMPI PUSH1 0x0 DUP1 REVERT JUMPDEST POP CALLDATALOAD SWAP2 SWAP1 POP JUMP JUMPDEST PUSH1 0x0 DUP1 PUSH1 0x40 DUP4 DUP6 SUB SLT ISZERO PUSH2 0xFD3 JUMPI PUSH1 0x0 DUP1 REVERT JUMPDEST POP POP DUP1 CALLDATALOAD SWAP3 PUSH1 0x20 SWAP1 SWAP2 ADD CALLDATALOAD SWAP2 POP JUMP JUMPDEST PUSH1 0x0 DUP1 PUSH1 0x40 DUP4 DUP6 SUB SLT ISZERO PUSH2 0xFF5 JUMPI PUSH1 0x0 DUP1 REVERT JUMPDEST PUSH2 0xFFE DUP4 PUSH2 0xF69 JUMP JUMPDEST SWAP5 PUSH1 0x20 SWAP4 SWAP1 SWAP4 ADD CALLDATALOAD SWAP4 POP POP POP JUMP JUMPDEST PUSH1 0x0 PUSH1 0x20 DUP3 DUP5 SUB SLT ISZERO PUSH2 0x101E JUMPI PUSH1 0x0 DUP1 REVERT JUMPDEST POP MLOAD SWAP2 SWAP1 POP JUMP JUMPDEST PUSH4 0x4E487B71 PUSH1 0xE0 SHL PUSH1 0x0 MSTORE PUSH1 0x11 PUSH1 0x4 MSTORE PUSH1 0x24 PUSH1 0x0 REVERT JUMPDEST DUP2 DUP2 SUB DUP2 DUP2 GT ISZERO PUSH2 0xD70 JUMPI PUSH2 0xD70 PUSH2 0x1025 JUMP JUMPDEST PUSH1 0x0 PUSH1 0x20 DUP3 DUP5 SUB SLT ISZERO PUSH2 0x1060 JUMPI PUSH1 0x0 DUP1 REVERT JUMPDEST DUP2 MLOAD DUP1 ISZERO ISZERO DUP2 EQ PUSH2 0xFA0 JUMPI PUSH1 0x0 DUP1 REVERT JUMPDEST PUSH4 0x4E487B71 PUSH1 0xE0 SHL PUSH1 0x0 MSTORE PUSH1 0x32 PUSH1 0x4 MSTORE PUSH1 0x24 PUSH1 0x0 REVERT JUMPDEST DUP1 DUP3 MUL DUP2 ISZERO DUP3 DUP3 DIV DUP5 EQ OR PUSH2 0xD70 JUMPI PUSH2 0xD70 PUSH2 0x1025 JUMP JUMPDEST PUSH4 0x4E487B71 PUSH1 0xE0 SHL PUSH1 0x0 MSTORE PUSH1 0x12 PUSH1 0x4 MSTORE PUSH1 0x24 PUSH1 0x0 REVERT JUMPDEST PUSH1 0x0 DUP3 PUSH2 0x10C2 JUMPI PUSH2 0x10C2 PUSH2 0x109D JUMP JUMPDEST POP DIV SWAP1 JUMP JUMPDEST DUP1 DUP3 ADD DUP1 DUP3 GT ISZERO PUSH2 0xD70 JUMPI PUSH2 0xD70 PUSH2 0x1025 JUMP JUMPDEST PUSH1 0x0 DUP3 PUSH2 0x10E9 JUMPI PUSH2 0x10E9 PUSH2 0x109D JUMP JUMPDEST POP MOD SWAP1 JUMP JUMPDEST PUSH4 0x4E487B71 PUSH1 0xE0 SHL PUSH1 0x0 MSTORE PUSH1 0x41 PUSH1 0x4 MSTORE PUSH1 0x24 PUSH1 0x0 REVERT JUMPDEST PUSH1 0x0 PUSH1 0x40 DUP3 ADD DUP5 DUP4 MSTORE PUSH1 0x20 PUSH1 0x40 DUP2 DUP6 ADD MSTORE DUP2 DUP6 MLOAD DUP1 DUP5 MSTORE PUSH1 0x60 DUP7 ADD SWAP2 POP DUP3 DUP8 ADD SWAP4 POP PUSH1 0x0 JUMPDEST DUP2 DUP2 LT ISZERO PUSH2 0x114E JUMPI DUP5 MLOAD PUSH1 0x1 PUSH1 0x1 PUSH1 0xA0 SHL SUB AND DUP4 MSTORE SWAP4 DUP4 ADD SWAP4 SWAP2 DUP4 ADD SWAP2 PUSH1 0x1 ADD PUSH2 0x1129 JUMP JUMPDEST POP SWAP1 SWAP8 SWAP7 POP POP POP POP POP POP POP JUMP JUMPDEST PUSH1 0x0 PUSH1 0x20 DUP1 DUP4 DUP6 SUB SLT ISZERO PUSH2 0x116E JUMPI PUSH1 0x0 DUP1 REVERT JUMPDEST DUP3 MLOAD PUSH8 0xFFFFFFFFFFFFFFFF DUP1 DUP3 GT ISZERO PUSH2 0x1186 JUMPI PUSH1 0x0 DUP1 REVERT JUMPDEST DUP2 DUP6 ADD SWAP2 POP DUP6 PUSH1 0x1F DUP4 ADD SLT PUSH2 0x119A JUMPI PUSH1 0x0 DUP1 REVERT JUMPDEST DUP2 MLOAD DUP2 DUP2 GT ISZERO PUSH2 0x11AC JUMPI PUSH2 0x11AC PUSH2 0x10EE JUMP JUMPDEST DUP1 PUSH1 0x5 SHL PUSH1 0x40 MLOAD PUSH1 0x1F NOT PUSH1 0x3F DUP4 ADD AND DUP2 ADD DUP2 DUP2 LT DUP6 DUP3 GT OR ISZERO PUSH2 0x11D1 JUMPI PUSH2 0x11D1 PUSH2 0x10EE JUMP JUMPDEST PUSH1 0x40 MSTORE SWAP2 DUP3 MSTORE DUP5 DUP3 ADD SWAP3 POP DUP4 DUP2 ADD DUP6 ADD SWAP2 DUP9 DUP4 GT ISZERO PUSH2 0x11EF JUMPI PUSH1 0x0 DUP1 REVERT JUMPDEST SWAP4 DUP6 ADD SWAP4 JUMPDEST DUP3 DUP6 LT ISZERO PUSH2 0x120D JUMPI DUP5 MLOAD DUP5 MSTORE SWAP4 DUP6 ADD SWAP4 SWAP3 DUP6 ADD SWAP3 PUSH2 0x11F4 JUMP JUMPDEST SWAP9 SWAP8 POP POP POP POP POP POP POP POP JUMP JUMPDEST DUP1 MLOAD PUSH10 0xFFFFFFFFFFFFFFFFFFFF DUP2 AND DUP2 EQ PUSH2 0xF80 JUMPI PUSH1 0x0 DUP1 REVERT JUMPDEST PUSH1 0x0 DUP1 PUSH1 0x0 DUP1 PUSH1 0x0 PUSH1 0xA0 DUP7 DUP9 SUB SLT ISZERO PUSH2 0x124B JUMPI PUSH1 0x0 DUP1 REVERT JUMPDEST PUSH2 0x1254 DUP7 PUSH2 0x1219 JUMP JUMPDEST SWAP5 POP PUSH1 0x20 DUP7 ADD MLOAD SWAP4 POP PUSH1 0x40 DUP7 ADD MLOAD SWAP3 POP PUSH1 0x60 DUP7 ADD MLOAD SWAP2 POP PUSH2 0x1277 PUSH1 0x80 DUP8 ADD PUSH2 0x1219 JUMP JUMPDEST SWAP1 POP SWAP3 SWAP6 POP SWAP3 SWAP6 SWAP1 SWAP4 POP JUMP JUMPDEST PUSH1 0x1 DUP2 DUP2 JUMPDEST DUP1 DUP6 GT ISZERO PUSH2 0x12BE JUMPI DUP2 PUSH1 0x0 NOT DIV DUP3 GT ISZERO PUSH2 0x12A4 JUMPI PUSH2 0x12A4 PUSH2 0x1025 JUMP JUMPDEST DUP1 DUP6 AND ISZERO PUSH2 0x12B1 JUMPI SWAP2 DUP2 MUL SWAP2 JUMPDEST SWAP4 DUP5 SHR SWAP4 SWAP1 DUP1 MUL SWAP1 PUSH2 0x1288 JUMP JUMPDEST POP SWAP3 POP SWAP3 SWAP1 POP JUMP JUMPDEST PUSH1 0x0 DUP3 PUSH2 0x12D5 JUMPI POP PUSH1 0x1 PUSH2 0xD70 JUMP JUMPDEST DUP2 PUSH2 0x12E2 JUMPI POP PUSH1 0x0 PUSH2 0xD70 JUMP JUMPDEST DUP2 PUSH1 0x1 DUP2 EQ PUSH2 0x12F8 JUMPI PUSH1 0x2 DUP2 EQ PUSH2 0x1302 JUMPI PUSH2 0x131E JUMP JUMPDEST PUSH1 0x1 SWAP2 POP POP PUSH2 0xD70 JUMP JUMPDEST PUSH1 0xFF DUP5 GT ISZERO PUSH2 0x1313 JUMPI PUSH2 0x1313 PUSH2 0x1025 JUMP JUMPDEST POP POP PUSH1 0x1 DUP3 SHL PUSH2 0xD70 JUMP JUMPDEST POP PUSH1 0x20 DUP4 LT PUSH2 0x133 DUP4 LT AND PUSH1 0x4E DUP5 LT PUSH1 0xB DUP5 LT AND OR ISZERO PUSH2 0x1341 JUMPI POP DUP2 DUP2 EXP PUSH2 0xD70 JUMP JUMPDEST PUSH2 0x134B DUP4 DUP4 PUSH2 0x1283 JUMP JUMPDEST DUP1 PUSH1 0x0 NOT DIV DUP3 GT ISZERO PUSH2 0x135F JUMPI PUSH2 0x135F PUSH2 0x1025 JUMP JUMPDEST MUL SWAP4 SWAP3 POP POP POP JUMP JUMPDEST PUSH1 0x0 PUSH2 0xFA0 DUP4 DUP4 PUSH2 0x12C6 JUMP INVALID LOG1 PUSH5 0x736F6C6343 STOP ADDMOD EQ STOP EXP "},"methodIdentifiers":{"DECIMALS()":"2e0f2625","admin()":"f851a440","calculatePriceOfGrlInUsd()":"b92d21c4","ethUsdAggregatorAddress()":"00c3a272","getEthToUsdValue()":"851f7147","getPriceOfGrlInEth()":"50f3845b","getUserStakeCount(address)":"1b545a17","getUserStakeDetails(address,uint256)":"e4ba0d7b","grlTokenAddress()":"b9aa6ec4","hasUnstaked(address,uint256)":"ad9dbd27","setStakingFeePercentage(uint256,uint256)":"7a997035","stakeGrl(uint256,uint256)":"45aefbdb","stakingFeePercentage(uint256)":"26230e2f","totalStakedGrl()":"aecb5257","uniswapRouterAddress()":"20ca3c7f","unstake(uint256)":"2e17de78","userStakes(address,uint256)":"b5d5b5fa","wethAddress()":"4f0e0ef3","withdrawGrl()":"0b9b199d"}},"storageLayout":{"storage":[{"astId":3048,"contract":"contracts/PriceGuranteeStaking.sol:PriceGuaranteeStaking","label":"admin","offset":0,"slot":"0","type":"t_address"},{"astId":3050,"contract":"contracts/PriceGuranteeStaking.sol:PriceGuaranteeStaking","label":"grlTokenAddress","offset":0,"slot":"1","type":"t_address"},{"astId":3052,"contract":"contracts/PriceGuranteeStaking.sol:PriceGuaranteeStaking","label":"wethAddress","offset":0,"slot":"2","type":"t_address"},{"astId":3054,"contract":"contracts/PriceGuranteeStaking.sol:PriceGuaranteeStaking","label":"uniswapRouterAddress","offset":0,"slot":"3","type":"t_address"},{"astId":3056,"contract":"contracts/PriceGuranteeStaking.sol:PriceGuaranteeStaking","label":"ethUsdAggregatorAddress","offset":0,"slot":"4","type":"t_address"},{"astId":3061,"contract":"contracts/PriceGuranteeStaking.sol:PriceGuaranteeStaking","label":"totalStakedGrl","offset":0,"slot":"5","type":"t_uint256"},{"astId":3065,"contract":"contracts/PriceGuranteeStaking.sol:PriceGuaranteeStaking","label":"stakingFeePercentage","offset":0,"slot":"6","type":"t_mapping(t_uint256,t_uint256)"},{"astId":3082,"contract":"contracts/PriceGuranteeStaking.sol:PriceGuaranteeStaking","label":"userStakes","offset":0,"slot":"7","type":"t_mapping(t_address,t_array(t_struct(Stake)3076_storage)dyn_storage)"},{"astId":3088,"contract":"contracts/PriceGuranteeStaking.sol:PriceGuaranteeStaking","label":"hasUnstaked","offset":0,"slot":"8","type":"t_mapping(t_address,t_mapping(t_uint256,t_bool))"}],"types":{"t_address":{"encoding":"inplace","label":"address","numberOfBytes":"20"},"t_array(t_struct(Stake)3076_storage)dyn_storage":{"base":"t_struct(Stake)3076_storage","encoding":"dynamic_array","label":"struct PriceGuaranteeStaking.Stake[]","numberOfBytes":"32"},"t_bool":{"encoding":"inplace","label":"bool","numberOfBytes":"1"},"t_mapping(t_address,t_array(t_struct(Stake)3076_storage)dyn_storage)":{"encoding":"mapping","key":"t_address","label":"mapping(address => struct PriceGuaranteeStaking.Stake[])","numberOfBytes":"32","value":"t_array(t_struct(Stake)3076_storage)dyn_storage"},"t_mapping(t_address,t_mapping(t_uint256,t_bool))":{"encoding":"mapping","key":"t_address","label":"mapping(address => mapping(uint256 => bool))","numberOfBytes":"32","value":"t_mapping(t_uint256,t_bool)"},"t_mapping(t_uint256,t_bool)":{"encoding":"mapping","key":"t_uint256","label":"mapping(uint256 => bool)","numberOfBytes":"32","value":"t_bool"},"t_mapping(t_uint256,t_uint256)":{"encoding":"mapping","key":"t_uint256","label":"mapping(uint256 => uint256)","numberOfBytes":"32","value":"t_uint256"},"t_struct(Stake)3076_storage":{"encoding":"inplace","label":"struct PriceGuaranteeStaking.Stake","members":[{"astId":3067,"contract":"contracts/PriceGuranteeStaking.sol:PriceGuaranteeStaking","label":"durationInDays","offset":0,"slot":"0","type":"t_uint256"},{"astId":3069,"contract":"contracts/PriceGuranteeStaking.sol:PriceGuaranteeStaking","label":"amount","offset":0,"slot":"1","type":"t_uint256"},{"astId":3071,"contract":"contracts/PriceGuranteeStaking.sol:PriceGuaranteeStaking","label":"timestamp","offset":0,"slot":"2","type":"t_uint256"},{"astId":3073,"contract":"contracts/PriceGuranteeStaking.sol:PriceGuaranteeStaking","label":"priceInUsd","offset":0,"slot":"3","type":"t_uint256"},{"astId":3075,"contract":"contracts/PriceGuranteeStaking.sol:PriceGuaranteeStaking","label":"amountInUsd","offset":0,"slot":"4","type":"t_uint256"}],"numberOfBytes":"160"},"t_uint256":{"encoding":"inplace","label":"uint256","numberOfBytes":"32"}}}}}}