{"contracts/SeedRoundIco.sol":{"ICO":{"abi":[{"inputs":[],"stateMutability":"nonpayable","type":"constructor"},{"anonymous":false,"inputs":[{"indexed":true,"internalType":"address","name":"from","type":"address"},{"indexed":true,"internalType":"address","name":"to","type":"address"},{"indexed":false,"internalType":"uint256","name":"ethValue","type":"uint256"},{"indexed":false,"internalType":"uint256","name":"tokensPurchased","type":"uint256"}],"name":"PurchasedWithEth","type":"event"},{"anonymous":false,"inputs":[{"indexed":true,"internalType":"address","name":"from","type":"address"},{"indexed":true,"internalType":"address","name":"to","type":"address"},{"indexed":false,"internalType":"uint256","name":"tokenValue","type":"uint256"},{"indexed":false,"internalType":"uint256","name":"tokensPurchased","type":"uint256"}],"name":"PurchasedWithToken","type":"event"},{"anonymous":false,"inputs":[{"indexed":false,"internalType":"uint256","name":"releaseable","type":"uint256"},{"indexed":false,"internalType":"uint256","name":"claimed","type":"uint256"}],"name":"TokenReleased","type":"event"},{"anonymous":false,"inputs":[{"indexed":true,"internalType":"address","name":"claimer","type":"address"},{"indexed":false,"internalType":"uint256","name":"releasableTokens","type":"uint256"},{"indexed":false,"internalType":"uint256","name":"purchaseIndex","type":"uint256"}],"name":"TokensClaimed","type":"event"},{"inputs":[],"name":"admin","outputs":[{"internalType":"address","name":"","type":"address"}],"stateMutability":"view","type":"function"},{"inputs":[],"name":"buyWithEth","outputs":[],"stateMutability":"payable","type":"function"},{"inputs":[{"internalType":"address","name":"tokenAddress","type":"address"},{"internalType":"uint256","name":"_amount","type":"uint256"}],"name":"buyWithToken","outputs":[],"stateMutability":"nonpayable","type":"function"},{"inputs":[],"name":"claimReleasableTokens","outputs":[],"stateMutability":"nonpayable","type":"function"},{"inputs":[],"name":"cliffPeriod","outputs":[{"internalType":"uint256","name":"","type":"uint256"}],"stateMutability":"view","type":"function"},{"inputs":[{"internalType":"uint256","name":"daiAmount","type":"uint256"}],"name":"convertDaiToEth","outputs":[{"internalType":"uint256","name":"","type":"uint256"}],"stateMutability":"view","type":"function"},{"inputs":[{"internalType":"uint256","name":"ethAmount","type":"uint256"}],"name":"convertEthToUsd","outputs":[{"internalType":"uint256","name":"","type":"uint256"}],"stateMutability":"view","type":"function"},{"inputs":[],"name":"dai","outputs":[{"internalType":"contract IERC20","name":"","type":"address"}],"stateMutability":"view","type":"function"},{"inputs":[],"name":"daiPriceInEth","outputs":[{"internalType":"uint256","name":"","type":"uint256"}],"stateMutability":"view","type":"function"},{"inputs":[{"internalType":"uint256","name":"","type":"uint256"}],"name":"daiPricePerPhase","outputs":[{"internalType":"uint256","name":"","type":"uint256"}],"stateMutability":"view","type":"function"},{"inputs":[],"name":"ethPriceInUSD","outputs":[{"internalType":"uint256","name":"","type":"uint256"}],"stateMutability":"view","type":"function"},{"inputs":[],"name":"getGrlPrice","outputs":[{"internalType":"uint256","name":"grlDaiPrice","type":"uint256"},{"internalType":"uint256","name":"grlEthPrice","type":"uint256"},{"internalType":"uint256","name":"grlUsdtPrice","type":"uint256"}],"stateMutability":"view","type":"function"},{"inputs":[{"internalType":"address","name":"beneficiary","type":"address"}],"name":"getReleaseableAmount","outputs":[{"internalType":"uint256","name":"totalReleasable","type":"uint256"},{"internalType":"uint256","name":"totalRemaining","type":"uint256"}],"stateMutability":"view","type":"function"},{"inputs":[{"internalType":"address","name":"_beneficiary","type":"address"}],"name":"getVestingUserCount","outputs":[{"internalType":"uint256","name":"","type":"uint256"}],"stateMutability":"view","type":"function"},{"inputs":[],"name":"grl","outputs":[{"internalType":"contract IERC20","name":"","type":"address"}],"stateMutability":"view","type":"function"},{"inputs":[{"internalType":"uint256","name":"_amountOfDAI","type":"uint256"}],"name":"grlOfDai","outputs":[{"internalType":"uint256","name":"","type":"uint256"}],"stateMutability":"view","type":"function"},{"inputs":[{"internalType":"uint256","name":"_amountOfEth","type":"uint256"}],"name":"grlOfEth","outputs":[{"internalType":"uint256","name":"","type":"uint256"}],"stateMutability":"view","type":"function"},{"inputs":[],"name":"immediatePercentageReleased","outputs":[{"internalType":"uint256","name":"","type":"uint256"}],"stateMutability":"view","type":"function"},{"inputs":[],"name":"isGCOStarted","outputs":[{"internalType":"bool","name":"","type":"bool"}],"stateMutability":"view","type":"function"},{"inputs":[],"name":"phaseDuration","outputs":[{"internalType":"uint256","name":"","type":"uint256"}],"stateMutability":"view","type":"function"},{"inputs":[{"internalType":"uint256","name":"_newCliffeDuration","type":"uint256"}],"name":"setCliffeDuration","outputs":[],"stateMutability":"nonpayable","type":"function"},{"inputs":[{"internalType":"uint256","name":"_newPercentage","type":"uint256"}],"name":"setPercentageReleased","outputs":[],"stateMutability":"nonpayable","type":"function"},{"inputs":[{"internalType":"uint256","name":"_durationPerPhase","type":"uint256"}],"name":"setPhaseDuration","outputs":[],"stateMutability":"nonpayable","type":"function"},{"inputs":[{"internalType":"uint256","name":"_index","type":"uint256"},{"internalType":"uint256","name":"_price","type":"uint256"}],"name":"setPrice","outputs":[],"stateMutability":"nonpayable","type":"function"},{"inputs":[{"internalType":"uint256","name":"_index","type":"uint256"},{"internalType":"uint256","name":"_price","type":"uint256"}],"name":"setUsdtPrice","outputs":[],"stateMutability":"nonpayable","type":"function"},{"inputs":[{"internalType":"uint256","name":"_newDuration","type":"uint256"}],"name":"setVestingDuration","outputs":[],"stateMutability":"nonpayable","type":"function"},{"inputs":[],"name":"slicePeriod","outputs":[{"internalType":"uint256","name":"","type":"uint256"}],"stateMutability":"view","type":"function"},{"inputs":[],"name":"startGCO","outputs":[],"stateMutability":"nonpayable","type":"function"},{"inputs":[],"name":"tokensPerPhase","outputs":[{"internalType":"uint256","name":"","type":"uint256"}],"stateMutability":"view","type":"function"},{"inputs":[],"name":"tokensSold","outputs":[{"internalType":"uint256","name":"","type":"uint256"}],"stateMutability":"view","type":"function"},{"inputs":[],"name":"totalTokens","outputs":[{"internalType":"uint256","name":"","type":"uint256"}],"stateMutability":"view","type":"function"},{"inputs":[],"name":"usdc","outputs":[{"internalType":"contract IERC20","name":"","type":"address"}],"stateMutability":"view","type":"function"},{"inputs":[],"name":"usdt","outputs":[{"internalType":"contract IERC20","name":"","type":"address"}],"stateMutability":"view","type":"function"},{"inputs":[{"internalType":"uint256","name":"","type":"uint256"}],"name":"usdtPricePerPhase","outputs":[{"internalType":"uint256","name":"","type":"uint256"}],"stateMutability":"view","type":"function"},{"inputs":[],"name":"vestDuration","outputs":[{"internalType":"uint256","name":"","type":"uint256"}],"stateMutability":"view","type":"function"},{"inputs":[{"internalType":"address","name":"","type":"address"},{"internalType":"uint256","name":"","type":"uint256"}],"name":"vestedUserDetail","outputs":[{"internalType":"address","name":"beneficiary","type":"address"},{"internalType":"uint256","name":"cliff","type":"uint256"},{"internalType":"uint256","name":"start","type":"uint256"},{"internalType":"uint256","name":"duration","type":"uint256"},{"internalType":"uint256","name":"slicePeriodSeconds","type":"uint256"},{"internalType":"uint256","name":"amountTotal","type":"uint256"},{"internalType":"uint256","name":"released","type":"uint256"}],"stateMutability":"view","type":"function"},{"inputs":[],"name":"withdrawEth","outputs":[],"stateMutability":"nonpayable","type":"function"},{"inputs":[],"name":"withdrawGrl","outputs":[],"stateMutability":"nonpayable","type":"function"}],"evm":{"bytecode":{"linkReferences":{},"object":"6101006040526000805474a067237f8016d5e3770cf08b20e343ab9ee813d500610100600160a81b0319909116179055600180546001600160a01b0319908116736b175474e89094c44da98b954eedeac495271d0f1790915560028054821673dac17f958d2ee523a2206206994597c13d831ec717905560038054821673a0b86991c6218b36c1d19d4a2e9eb0ce3606eb48179055600480548216735f4ec3df9cbd43714fe2740f5e3616155c5b84191790556005805490911673773616e4d11a78f511299002da57a0a94577f1f417905567011c37937e08000060805266470de4df82000060e05262f0c29a600a556228206f600b819055600c556019600d553480156200010d57600080fd5b5060408051600480825260a0820190925290602082016080803683375050815162000140926008925060200190620002ef565b50662c91dd9e020000600860008154811062000160576200016062000356565b9060005260206000200181905550663106da2dcf000060086001815481106200018d576200018d62000356565b90600052602060002001819055506635edf00b1c42006008600281548110620001ba57620001ba62000356565b9060005260206000200181905550663b5288122e90006008600381548110620001e757620001e762000356565b60009182526020909120015560408051600480825260a08201909252908160200160208202803683375050815162000227926009925060200190620002ef565b506130fc600960008154811062000242576200024262000356565b90600052602060002001819055506135de60096001815481106200026a576200026a62000356565b9060005260206000200181905550613b42600960028154811062000292576200029262000356565b90600052602060002001819055506141326009600381548110620002ba57620002ba62000356565b6000918252602090912001553360a05262054600600f557348fd2f7cac483a923f3f164997b2b6435af5020560c0526200036c565b8280548282559060005260206000209081019282156200032d579160200282015b828111156200032d57825182559160200191906001019062000310565b506200033b9291506200033f565b5090565b5b808211156200033b576000815560010162000340565b634e487b7160e01b600052603260045260246000fd5b60805160a05160c05160e05161238562000408600039600081816106fe01526119da01526000818161117801526114fe0152600081816107d1015281816107fe01528181610958015281816109eb01528181610dec01528181611444015281816115aa0152818161168f015281816117e801528181611cb20152611e1101526000818161053901528181610bbc0152610f9801526123856000f3fe6080604052600436106102855760003560e01c806394761e2a11610153578063bf8eb3d4116100cb578063d083e2411161007f578063f4b9fa7511610064578063f4b9fa751461077f578063f7d975771461079f578063f851a440146107bf57600080fd5b8063d083e24114610735578063d517562d1461074a57600080fd5b8063ca489ca5116100b0578063ca489ca5146106cc578063ced5e2e7146106ec578063cf8a8cd01461072057600080fd5b8063bf8eb3d41461067c578063c086381e146106ac57600080fd5b8063ac5553ce11610122578063b71b14e811610107578063b71b14e814610631578063bc1862ca14610646578063bcb1798b1461066657600080fd5b8063ac5553ce146105fb578063aee1e3a21461061157600080fd5b806394761e2a14610590578063a0ef91df146105a6578063a2209a14146105bb578063a7fa93e1146105db57600080fd5b8063518ab2a8116102015780636e33a831116101b55780637e1c0c091161019a5780637e1c0c091461052757806381c639e91461055b578063891a8b851461057b57600080fd5b80636e33a831146104e7578063780f9ec11461050757600080fd5b80635edfc4d3116101e65780635edfc4d3146103f15780636af9caac1461049d5780636df8b8e4146104c757600080fd5b8063518ab2a8146103c55780635afd6eb8146103db57600080fd5b80632a04d7c1116102585780632f6619461161023d5780632f661946146103595780633e413bee1461036f5780634bb127c31461038f57600080fd5b80632a04d7c11461030b5780632f48ab7d1461033957600080fd5b80630b9b199d1461028a5780630e281f66146102a15780630ffbdcaa146102e357806311b5444f14610303575b600080fd5b34801561029657600080fd5b5061029f6107f3565b005b3480156102ad57600080fd5b506000546102c69061010090046001600160a01b031681565b6040516001600160a01b0390911681526020015b60405180910390f35b3480156102ef57600080fd5b5061029f6102fe366004612156565b6109e0565b61029f610ab4565b34801561031757600080fd5b5061032b610326366004612156565b610dc0565b6040519081526020016102da565b34801561034557600080fd5b506002546102c6906001600160a01b031681565b34801561036557600080fd5b5061032b600b5481565b34801561037b57600080fd5b506003546102c6906001600160a01b031681565b34801561039b57600080fd5b5061032b6103aa36600461218b565b6001600160a01b031660009081526011602052604090205490565b3480156103d157600080fd5b5061032b60065481565b3480156103e757600080fd5b5061032b600c5481565b3480156103fd57600080fd5b5061045e61040c3660046121ad565b601060209081526000928352604080842090915290825290208054600182015460028301546003840154600485015460058601546006909601546001600160a01b039095169593949293919290919087565b604080516001600160a01b0390981688526020880196909652948601939093526060850191909152608084015260a083015260c082015260e0016102da565b3480156104a957600080fd5b506007546104b79060ff1681565b60405190151581526020016102da565b3480156104d357600080fd5b5061029f6104e2366004612156565b610de1565b3480156104f357600080fd5b5061029f6105023660046121ad565b610ea7565b34801561051357600080fd5b5061032b610522366004612156565b611360565b34801561053357600080fd5b5061032b7f000000000000000000000000000000000000000000000000000000000000000081565b34801561056757600080fd5b5061032b610576366004612156565b611393565b34801561058757600080fd5b5061032b6113b5565b34801561059c57600080fd5b5061032b600a5481565b3480156105b257600080fd5b5061029f611439565b3480156105c757600080fd5b5061032b6105d6366004612156565b61157d565b3480156105e757600080fd5b5061029f6105f63660046121d7565b61159f565b34801561060757600080fd5b5061032b600f5481565b34801561061d57600080fd5b5061029f61062c366004612156565b611684565b34801561063d57600080fd5b5061032b611758565b34801561065257600080fd5b5061029f610661366004612156565b6117dd565b34801561067257600080fd5b5061032b600d5481565b34801561068857600080fd5b506106916118b1565b604080519384526020840192909252908201526060016102da565b3480156106b857600080fd5b5061032b6106c7366004612156565b611a88565b3480156106d857600080fd5b5061032b6106e7366004612156565b611a93565b3480156106f857600080fd5b5061032b7f000000000000000000000000000000000000000000000000000000000000000081565b34801561072c57600080fd5b5061029f611aa3565b34801561074157600080fd5b5061029f611ca7565b34801561075657600080fd5b5061076a61076536600461218b565b611d2b565b604080519283526020830191909152016102da565b34801561078b57600080fd5b506001546102c6906001600160a01b031681565b3480156107ab57600080fd5b5061029f6107ba3660046121d7565b611e06565b3480156107cb57600080fd5b506102c67f000000000000000000000000000000000000000000000000000000000000000081565b336001600160a01b037f000000000000000000000000000000000000000000000000000000000000000016146108695760405162461bcd60e51b8152602060048201526016602482015275596f75277265206e6f7420617574686f72697a65642160501b60448201526064015b60405180910390fd5b600080546040516370a0823160e01b81523060048201526101009091046001600160a01b0316906370a0823190602401602060405180830381865afa1580156108b6573d6000803e3d6000fd5b505050506040513d601f19601f820116820180604052508101906108da91906121f9565b90506000600654826108ec9190612228565b90506000811161093e5760405162461bcd60e51b815260206004820152601360248201527f6e6f2067726c20696e20636f6e747261637421000000000000000000000000006044820152606401610860565b60005460405163a9059cbb60e01b81526001600160a01b037f000000000000000000000000000000000000000000000000000000000000000081166004830152602482018490526101009092049091169063a9059cbb906044016020604051808303816000875af11580156109b7573d6000803e3d6000fd5b505050506040513d601f19601f820116820180604052508101906109db9190612241565b505050565b336001600160a01b037f00000000000000000000000000000000000000000000000000000000000000001614610a515760405162461bcd60e51b8152602060048201526016602482015275596f75277265206e6f7420617574686f72697a65642160501b6044820152606401610860565b60008111610aa15760405162461bcd60e51b815260206004820152601560248201527f4475726174696f6e2077696c6c206265203e20302100000000000000000000006044820152606401610860565b610aae8162015180612263565b600a5550565b60005460ff1615610af85760405162461bcd60e51b815260206004820152600e60248201526d4e6f2072652d656e7472616e637960901b6044820152606401610860565b6000805460ff1916600190811790915560075460ff16151514610b5d5760405162461bcd60e51b815260206004820152601460248201527f47434f206e6f74207374617274656420796574210000000000000000000000006044820152606401610860565b60003411610bad5760405162461bcd60e51b815260206004820152601260248201527f496e61766c69642065746820616d6f756e7400000000000000000000000000006044820152606401610860565b6000610bb834611360565b90507f000000000000000000000000000000000000000000000000000000000000000081600654610be9919061227a565b1115610c375760405162461bcd60e51b815260206004820152601660248201527f4e6f7420656e6f75676820746f6b656e73206c656674000000000000000000006044820152606401610860565b600f54610c45906004612263565b600e54610c52919061227a565b421115610ca15760405162461bcd60e51b815260206004820152601660248201527f4e6f206d6f726520636f696e206f66666572696e6721000000000000000000006044820152606401610860565b60006064600d5483610cb39190612263565b610cbd919061228d565b90506000610ccb8284612228565b90508260066000828254610cdf919061227a565b92505081905550610cfa3342600b54600a54600c5486611edb565b60005460405163a9059cbb60e01b8152336004820152602481018490526101009091046001600160a01b03169063a9059cbb906044016020604051808303816000875af1158015610d4f573d6000803e3d6000fd5b505050506040513d601f19601f82011682018060405250810190610d739190612241565b506040805134815260208101859052339130917ff950c03c97e9c8b25be288c9d83849749225d3edd1d9330dcbb6305704734dc5910160405180910390a350506000805460ff1916905550565b60088181548110610dd057600080fd5b600091825260209091200154905081565b336001600160a01b037f00000000000000000000000000000000000000000000000000000000000000001614610e525760405162461bcd60e51b8152602060048201526016602482015275596f75277265206e6f7420617574686f72697a65642160501b6044820152606401610860565b60008111610ea25760405162461bcd60e51b815260206004820152601760248201527f50657263656e617467652077696c6c206265203e2030210000000000000000006044820152606401610860565b600d55565b60005460ff1615610eeb5760405162461bcd60e51b815260206004820152600e60248201526d4e6f2072652d656e7472616e637960901b6044820152606401610860565b6000805460ff1916600190811790915560075460ff16151514610f505760405162461bcd60e51b815260206004820152601460248201527f47434f206e6f74207374617274656420796574210000000000000000000000006044820152606401610860565b60008111610f5d57600080fd5b60015482906000906001600160a01b03808416911614610f8857610f808361203e565b905080610f95565b610f9183611393565b9050805b507f000000000000000000000000000000000000000000000000000000000000000081600654610fc5919061227a565b11156110135760405162461bcd60e51b815260206004820152601660248201527f4e6f7420656e6f75676820746f6b656e73206c656674000000000000000000006044820152606401610860565b600f54611021906004612263565b600e5461102e919061227a565b42111561107d5760405162461bcd60e51b815260206004820152601660248201527f4e6f206d6f726520636f696e206f66666572696e6721000000000000000000006044820152606401610860565b6040516370a0823160e01b815233600482015283906001600160a01b038416906370a0823190602401602060405180830381865afa1580156110c3573d6000803e3d6000fd5b505050506040513d601f19601f820116820180604052508101906110e791906121f9565b101561115b5760405162461bcd60e51b815260206004820152602760248201527f596f75206d757374206861766520656e6f75676820546f6b656e7320746f206260448201527f75792047524c21000000000000000000000000000000000000000000000000006064820152608401610860565b6040516323b872dd60e01b81523360048201526001600160a01b037f000000000000000000000000000000000000000000000000000000000000000081166024830152604482018590528316906323b872dd906064016020604051808303816000875af11580156111d0573d6000803e3d6000fd5b505050506040513d601f19601f820116820180604052508101906111f49190612241565b6112405760405162461bcd60e51b815260206004820152601c60248201527f596f75206d757374204465706f73697420736f6d6520746f6b656e73000000006044820152606401610860565b60006064600d54836112529190612263565b61125c919061228d565b9050600061126a8284612228565b90506112803342600b54600a54600c5486611edb565b8260066000828254611292919061227a565b909155505060005460405163a9059cbb60e01b8152336004820152602481018490526101009091046001600160a01b03169063a9059cbb906044016020604051808303816000875af11580156112ec573d6000803e3d6000fd5b505050506040513d601f19601f820116820180604052508101906113109190612241565b506040805186815260208101859052339130917f2885f4d6cdac705f1bdd232f2fc19fd3b563949dbb1335c42ca8a77eb653c92c910160405180910390a350506000805460ff1916905550505050565b60008061136b6118b1565b509150600090508161138185633b9aca00612263565b61138b919061228d565b949350505050565b60008061139e6118b1565b5050905060008184633b9aca006113819190612263565b60048054604080516350d25bcd60e01b8152905160009384936001600160a01b0316926350d25bcd92818301926020928290030181865afa1580156113fe573d6000803e3d6000fd5b505050506040513d601f19601f8201168201806040525081019061142291906121f9565b9050611433816402540be4006122af565b91505090565b336001600160a01b037f000000000000000000000000000000000000000000000000000000000000000016146114aa5760405162461bcd60e51b8152602060048201526016602482015275596f75277265206e6f7420617574686f72697a65642160501b6044820152606401610860565b600047116114fa5760405162461bcd60e51b815260206004820152601360248201527f4e6f2065746820746f20776974686472617721000000000000000000000000006044820152606401610860565b60007f00000000000000000000000000000000000000000000000000000000000000006001600160a01b03164760405160006040518083038185875af1925050503d8060008114611567576040519150601f19603f3d011682016040523d82523d6000602084013e61156c565b606091505b505090508061157a57600080fd5b50565b600080611588611758565b90506000670de0b6b3a76400006113818584612263565b336001600160a01b037f000000000000000000000000000000000000000000000000000000000000000016146116105760405162461bcd60e51b8152602060048201526016602482015275596f75277265206e6f7420617574686f72697a65642160501b6044820152606401610860565b600081116116605760405162461bcd60e51b815260206004820152601260248201527f50726963652077696c6c206265203e20302100000000000000000000000000006044820152606401610860565b8060098381548110611674576116746122df565b6000918252602090912001555050565b336001600160a01b037f000000000000000000000000000000000000000000000000000000000000000016146116f55760405162461bcd60e51b8152602060048201526016602482015275596f75277265206e6f7420617574686f72697a65642160501b6044820152606401610860565b600081116117455760405162461bcd60e51b815260206004820152601560248201527f496e76616c696420636c69666620706572696f642100000000000000000000006044820152606401610860565b6117528162015180612263565b600b5550565b600080600560009054906101000a90046001600160a01b03166001600160a01b031663feaf968c6040518163ffffffff1660e01b815260040160a060405180830381865afa1580156117ae573d6000803e3d6000fd5b505050506040513d601f19601f820116820180604052508101906117d2919061230f565b509195945050505050565b336001600160a01b037f0000000000000000000000000000000000000000000000000000000000000000161461184e5760405162461bcd60e51b8152602060048201526016602482015275596f75277265206e6f7420617574686f72697a65642160501b6044820152606401610860565b6000811161189e5760405162461bcd60e51b815260206004820152601b60248201527f5068617365204475726174696f6e2077696c6c206265203e20302100000000006044820152606401610860565b6118ab8162015180612263565b600f5550565b6007546000908190819060ff1661190a5760405162461bcd60e51b815260206004820152601760248201527f47434f20686173206e6f742073746172746564207965740000000000000000006044820152606401610860565b600f54600e54429160009161191f9084612228565b611929919061228d565b60085490915081106119475760085461194490600190612228565b90505b60006008828154811061195c5761195c6122df565b9060005260206000200154905060006009838154811061197e5761197e6122df565b906000526020600020015490508196506119978261157d565b95509350836119a783600161227a565b600f546119b49190612263565b600e546119c1919061227a565b841080611a0457506119d483600161227a565b6119fe907f0000000000000000000000000000000000000000000000000000000000000000612263565b60065411155b15611a125750505050909192565b600854611a2084600161227a565b1015611a7f57611a3160018461227a565b925060088381548110611a4657611a466122df565b90600052602060002001549650611a5c8761157d565b955060098381548110611a7157611a716122df565b906000526020600020015494505b50505050909192565b6000806115886113b5565b60098181548110610dd057600080fd5b33600090815260116020526040812054819080611b025760405162461bcd60e51b815260206004820152601360248201527f4e6f20746f6b656e7320707572636861736564000000000000000000000000006044820152606401610860565b60005b81811015611bd7573360009081526010602090815260408083208484528252808320815160e08101835281546001600160a01b031681526001820154938101939093526002810154918301919091526003810154606083015260048101546080830152600581015460a0830152600681015460c083015291908190611b8990612060565b9092509050611b98828861227a565b9650611ba4818761227a565b955081836006016000828254611bba919061227a565b925050819055505050508080611bcf9061235f565b915050611b05565b5060008311611c285760405162461bcd60e51b815260206004820152601360248201527f4e4f20746f6b656e7320746f20636c61696d21000000000000000000000000006044820152606401610860565b60005460405163a9059cbb60e01b8152336004820152602481018590526101009091046001600160a01b03169063a9059cbb906044016020604051808303816000875af1158015611c7d573d6000803e3d6000fd5b505050506040513d601f19601f82011682018060405250810190611ca19190612241565b50505050565b336001600160a01b037f00000000000000000000000000000000000000000000000000000000000000001614611d185760405162461bcd60e51b8152602060048201526016602482015275596f75277265206e6f7420617574686f72697a65642160501b6044820152606401610860565b6007805460ff1916600117905542600e55565b6001600160a01b0381166000908152601160205260408120548190815b81811015611dff576001600160a01b0380861660009081526010602090815260408083208584528252808320815160e081018352815490951685526001810154928501929092526002820154908401526003810154606084015260048101546080840152600581015460a0840152600681015460c0840152918190611dcc90612060565b9092509050611ddb828861227a565b9650611de7818761227a565b95505050508080611df79061235f565b915050611d48565b5050915091565b336001600160a01b037f00000000000000000000000000000000000000000000000000000000000000001614611e775760405162461bcd60e51b8152602060048201526016602482015275596f75277265206e6f7420617574686f72697a65642160501b6044820152606401610860565b60008111611ec75760405162461bcd60e51b815260206004820152601260248201527f50726963652077696c6c206265203e20302100000000000000000000000000006044820152606401610860565b8060088381548110611674576116746122df565b83831015611f515760405162461bcd60e51b815260206004820152602760248201527f546f6b656e56657374696e673a206475726174696f6e206d757374206265203e60448201527f3d20636c696666000000000000000000000000000000000000000000000000006064820152608401610860565b6000611f5d858761227a565b6001600160a01b0388166000908152601160205260408120805492935090919082611f878361235f565b909155506040805160e0810182526001600160a01b039a8b1680825260208083019687528284019b8c5260608301998a526080830198895260a08301978852600060c084018181529281526010825284812095815294905291909220915182547fffffffffffffffffffffffff0000000000000000000000000000000000000000169a1699909917815591516001830155509451600286015591516003850155516004840155516005830155509051600690910155565b6000806120496118b1565b9250505060008184633b9aca006113819190612263565b6000806000429050600084602001518210156120975760008560c001518660a0015161208c9190612228565b935093505050915091565b846060015185604001516120ab919061227a565b82106120d1578460c001518560a001516120c59190612228565b95600095509350505050565b60008560200151836120e39190612228565b608087015190915060006120f7828461228d565b905060006121058383612263565b90508860600151818a60a0015161211c9190612263565b612126919061228d565b94505050505060c085015161213b9082612228565b9350808560a0015161214d9190612228565b92505050915091565b60006020828403121561216857600080fd5b5035919050565b80356001600160a01b038116811461218657600080fd5b919050565b60006020828403121561219d57600080fd5b6121a68261216f565b9392505050565b600080604083850312156121c057600080fd5b6121c98361216f565b946020939093013593505050565b600080604083850312156121ea57600080fd5b50508035926020909101359150565b60006020828403121561220b57600080fd5b5051919050565b634e487b7160e01b600052601160045260246000fd5b8181038181111561223b5761223b612212565b92915050565b60006020828403121561225357600080fd5b815180151581146121a657600080fd5b808202811582820484141761223b5761223b612212565b8082018082111561223b5761223b612212565b6000826122aa57634e487b7160e01b600052601260045260246000fd5b500490565b80820260008212600160ff1b841416156122cb576122cb612212565b818105831482151761223b5761223b612212565b634e487b7160e01b600052603260045260246000fd5b805169ffffffffffffffffffff8116811461218657600080fd5b600080600080600060a0868803121561232757600080fd5b612330866122f5565b9450602086015193506040860151925060608601519150612353608087016122f5565b90509295509295909350565b60006001820161237157612371612212565b506001019056fea164736f6c6343000814000a","opcodes":"PUSH2 0x100 PUSH1 0x40 MSTORE PUSH1 0x0 DUP1 SLOAD PUSH21 0xA067237F8016D5E3770CF08B20E343AB9EE813D500 PUSH2 0x100 PUSH1 0x1 PUSH1 0xA8 SHL SUB NOT SWAP1 SWAP2 AND OR SWAP1 SSTORE PUSH1 0x1 DUP1 SLOAD PUSH1 0x1 PUSH1 0x1 PUSH1 0xA0 SHL SUB NOT SWAP1 DUP2 AND PUSH20 0x6B175474E89094C44DA98B954EEDEAC495271D0F OR SWAP1 SWAP2 SSTORE PUSH1 0x2 DUP1 SLOAD DUP3 AND PUSH20 0xDAC17F958D2EE523A2206206994597C13D831EC7 OR SWAP1 SSTORE PUSH1 0x3 DUP1 SLOAD DUP3 AND PUSH20 0xA0B86991C6218B36C1D19D4A2E9EB0CE3606EB48 OR SWAP1 SSTORE PUSH1 0x4 DUP1 SLOAD DUP3 AND PUSH20 0x5F4EC3DF9CBD43714FE2740F5E3616155C5B8419 OR SWAP1 SSTORE PUSH1 0x5 DUP1 SLOAD SWAP1 SWAP2 AND PUSH20 0x773616E4D11A78F511299002DA57A0A94577F1F4 OR SWAP1 SSTORE PUSH8 0x11C37937E080000 PUSH1 0x80 MSTORE PUSH7 0x470DE4DF820000 PUSH1 0xE0 MSTORE PUSH3 0xF0C29A PUSH1 0xA SSTORE PUSH3 0x28206F PUSH1 0xB DUP2 SWAP1 SSTORE PUSH1 0xC SSTORE PUSH1 0x19 PUSH1 0xD SSTORE CALLVALUE DUP1 ISZERO PUSH3 0x10D JUMPI PUSH1 0x0 DUP1 REVERT JUMPDEST POP PUSH1 0x40 DUP1 MLOAD PUSH1 0x4 DUP1 DUP3 MSTORE PUSH1 0xA0 DUP3 ADD SWAP1 SWAP3 MSTORE SWAP1 PUSH1 0x20 DUP3 ADD PUSH1 0x80 DUP1 CALLDATASIZE DUP4 CALLDATACOPY POP POP DUP2 MLOAD PUSH3 0x140 SWAP3 PUSH1 0x8 SWAP3 POP PUSH1 0x20 ADD SWAP1 PUSH3 0x2EF JUMP JUMPDEST POP PUSH7 0x2C91DD9E020000 PUSH1 0x8 PUSH1 0x0 DUP2 SLOAD DUP2 LT PUSH3 0x160 JUMPI PUSH3 0x160 PUSH3 0x356 JUMP JUMPDEST SWAP1 PUSH1 0x0 MSTORE PUSH1 0x20 PUSH1 0x0 KECCAK256 ADD DUP2 SWAP1 SSTORE POP PUSH7 0x3106DA2DCF0000 PUSH1 0x8 PUSH1 0x1 DUP2 SLOAD DUP2 LT PUSH3 0x18D JUMPI PUSH3 0x18D PUSH3 0x356 JUMP JUMPDEST SWAP1 PUSH1 0x0 MSTORE PUSH1 0x20 PUSH1 0x0 KECCAK256 ADD DUP2 SWAP1 SSTORE POP PUSH7 0x35EDF00B1C4200 PUSH1 0x8 PUSH1 0x2 DUP2 SLOAD DUP2 LT PUSH3 0x1BA JUMPI PUSH3 0x1BA PUSH3 0x356 JUMP JUMPDEST SWAP1 PUSH1 0x0 MSTORE PUSH1 0x20 PUSH1 0x0 KECCAK256 ADD DUP2 SWAP1 SSTORE POP PUSH7 0x3B5288122E9000 PUSH1 0x8 PUSH1 0x3 DUP2 SLOAD DUP2 LT PUSH3 0x1E7 JUMPI PUSH3 0x1E7 PUSH3 0x356 JUMP JUMPDEST PUSH1 0x0 SWAP2 DUP3 MSTORE PUSH1 0x20 SWAP1 SWAP2 KECCAK256 ADD SSTORE PUSH1 0x40 DUP1 MLOAD PUSH1 0x4 DUP1 DUP3 MSTORE PUSH1 0xA0 DUP3 ADD SWAP1 SWAP3 MSTORE SWAP1 DUP2 PUSH1 0x20 ADD PUSH1 0x20 DUP3 MUL DUP1 CALLDATASIZE DUP4 CALLDATACOPY POP POP DUP2 MLOAD PUSH3 0x227 SWAP3 PUSH1 0x9 SWAP3 POP PUSH1 0x20 ADD SWAP1 PUSH3 0x2EF JUMP JUMPDEST POP PUSH2 0x30FC PUSH1 0x9 PUSH1 0x0 DUP2 SLOAD DUP2 LT PUSH3 0x242 JUMPI PUSH3 0x242 PUSH3 0x356 JUMP JUMPDEST SWAP1 PUSH1 0x0 MSTORE PUSH1 0x20 PUSH1 0x0 KECCAK256 ADD DUP2 SWAP1 SSTORE POP PUSH2 0x35DE PUSH1 0x9 PUSH1 0x1 DUP2 SLOAD DUP2 LT PUSH3 0x26A JUMPI PUSH3 0x26A PUSH3 0x356 JUMP JUMPDEST SWAP1 PUSH1 0x0 MSTORE PUSH1 0x20 PUSH1 0x0 KECCAK256 ADD DUP2 SWAP1 SSTORE POP PUSH2 0x3B42 PUSH1 0x9 PUSH1 0x2 DUP2 SLOAD DUP2 LT PUSH3 0x292 JUMPI PUSH3 0x292 PUSH3 0x356 JUMP JUMPDEST SWAP1 PUSH1 0x0 MSTORE PUSH1 0x20 PUSH1 0x0 KECCAK256 ADD DUP2 SWAP1 SSTORE POP PUSH2 0x4132 PUSH1 0x9 PUSH1 0x3 DUP2 SLOAD DUP2 LT PUSH3 0x2BA JUMPI PUSH3 0x2BA PUSH3 0x356 JUMP JUMPDEST PUSH1 0x0 SWAP2 DUP3 MSTORE PUSH1 0x20 SWAP1 SWAP2 KECCAK256 ADD SSTORE CALLER PUSH1 0xA0 MSTORE PUSH3 0x54600 PUSH1 0xF SSTORE PUSH20 0x48FD2F7CAC483A923F3F164997B2B6435AF50205 PUSH1 0xC0 MSTORE PUSH3 0x36C JUMP JUMPDEST DUP3 DUP1 SLOAD DUP3 DUP3 SSTORE SWAP1 PUSH1 0x0 MSTORE PUSH1 0x20 PUSH1 0x0 KECCAK256 SWAP1 DUP2 ADD SWAP3 DUP3 ISZERO PUSH3 0x32D JUMPI SWAP2 PUSH1 0x20 MUL DUP3 ADD JUMPDEST DUP3 DUP2 GT ISZERO PUSH3 0x32D JUMPI DUP3 MLOAD DUP3 SSTORE SWAP2 PUSH1 0x20 ADD SWAP2 SWAP1 PUSH1 0x1 ADD SWAP1 PUSH3 0x310 JUMP JUMPDEST POP PUSH3 0x33B SWAP3 SWAP2 POP PUSH3 0x33F JUMP JUMPDEST POP SWAP1 JUMP JUMPDEST JUMPDEST DUP1 DUP3 GT ISZERO PUSH3 0x33B JUMPI PUSH1 0x0 DUP2 SSTORE PUSH1 0x1 ADD PUSH3 0x340 JUMP JUMPDEST PUSH4 0x4E487B71 PUSH1 0xE0 SHL PUSH1 0x0 MSTORE PUSH1 0x32 PUSH1 0x4 MSTORE PUSH1 0x24 PUSH1 0x0 REVERT JUMPDEST PUSH1 0x80 MLOAD PUSH1 0xA0 MLOAD PUSH1 0xC0 MLOAD PUSH1 0xE0 MLOAD PUSH2 0x2385 PUSH3 0x408 PUSH1 0x0 CODECOPY PUSH1 0x0 DUP2 DUP2 PUSH2 0x6FE ADD MSTORE PUSH2 0x19DA ADD MSTORE PUSH1 0x0 DUP2 DUP2 PUSH2 0x1178 ADD MSTORE PUSH2 0x14FE ADD MSTORE PUSH1 0x0 DUP2 DUP2 PUSH2 0x7D1 ADD MSTORE DUP2 DUP2 PUSH2 0x7FE ADD MSTORE DUP2 DUP2 PUSH2 0x958 ADD MSTORE DUP2 DUP2 PUSH2 0x9EB ADD MSTORE DUP2 DUP2 PUSH2 0xDEC ADD MSTORE DUP2 DUP2 PUSH2 0x1444 ADD MSTORE DUP2 DUP2 PUSH2 0x15AA ADD MSTORE DUP2 DUP2 PUSH2 0x168F ADD MSTORE DUP2 DUP2 PUSH2 0x17E8 ADD MSTORE DUP2 DUP2 PUSH2 0x1CB2 ADD MSTORE PUSH2 0x1E11 ADD MSTORE PUSH1 0x0 DUP2 DUP2 PUSH2 0x539 ADD MSTORE DUP2 DUP2 PUSH2 0xBBC ADD MSTORE PUSH2 0xF98 ADD MSTORE PUSH2 0x2385 PUSH1 0x0 RETURN INVALID PUSH1 0x80 PUSH1 0x40 MSTORE PUSH1 0x4 CALLDATASIZE LT PUSH2 0x285 JUMPI PUSH1 0x0 CALLDATALOAD PUSH1 0xE0 SHR DUP1 PUSH4 0x94761E2A GT PUSH2 0x153 JUMPI DUP1 PUSH4 0xBF8EB3D4 GT PUSH2 0xCB JUMPI DUP1 PUSH4 0xD083E241 GT PUSH2 0x7F JUMPI DUP1 PUSH4 0xF4B9FA75 GT PUSH2 0x64 JUMPI DUP1 PUSH4 0xF4B9FA75 EQ PUSH2 0x77F JUMPI DUP1 PUSH4 0xF7D97577 EQ PUSH2 0x79F JUMPI DUP1 PUSH4 0xF851A440 EQ PUSH2 0x7BF JUMPI PUSH1 0x0 DUP1 REVERT JUMPDEST DUP1 PUSH4 0xD083E241 EQ PUSH2 0x735 JUMPI DUP1 PUSH4 0xD517562D EQ PUSH2 0x74A JUMPI PUSH1 0x0 DUP1 REVERT JUMPDEST DUP1 PUSH4 0xCA489CA5 GT PUSH2 0xB0 JUMPI DUP1 PUSH4 0xCA489CA5 EQ PUSH2 0x6CC JUMPI DUP1 PUSH4 0xCED5E2E7 EQ PUSH2 0x6EC JUMPI DUP1 PUSH4 0xCF8A8CD0 EQ PUSH2 0x720 JUMPI PUSH1 0x0 DUP1 REVERT JUMPDEST DUP1 PUSH4 0xBF8EB3D4 EQ PUSH2 0x67C JUMPI DUP1 PUSH4 0xC086381E EQ PUSH2 0x6AC JUMPI PUSH1 0x0 DUP1 REVERT JUMPDEST DUP1 PUSH4 0xAC5553CE GT PUSH2 0x122 JUMPI DUP1 PUSH4 0xB71B14E8 GT PUSH2 0x107 JUMPI DUP1 PUSH4 0xB71B14E8 EQ PUSH2 0x631 JUMPI DUP1 PUSH4 0xBC1862CA EQ PUSH2 0x646 JUMPI DUP1 PUSH4 0xBCB1798B EQ PUSH2 0x666 JUMPI PUSH1 0x0 DUP1 REVERT JUMPDEST DUP1 PUSH4 0xAC5553CE EQ PUSH2 0x5FB JUMPI DUP1 PUSH4 0xAEE1E3A2 EQ PUSH2 0x611 JUMPI PUSH1 0x0 DUP1 REVERT JUMPDEST DUP1 PUSH4 0x94761E2A EQ PUSH2 0x590 JUMPI DUP1 PUSH4 0xA0EF91DF EQ PUSH2 0x5A6 JUMPI DUP1 PUSH4 0xA2209A14 EQ PUSH2 0x5BB JUMPI DUP1 PUSH4 0xA7FA93E1 EQ PUSH2 0x5DB JUMPI PUSH1 0x0 DUP1 REVERT JUMPDEST DUP1 PUSH4 0x518AB2A8 GT PUSH2 0x201 JUMPI DUP1 PUSH4 0x6E33A831 GT PUSH2 0x1B5 JUMPI DUP1 PUSH4 0x7E1C0C09 GT PUSH2 0x19A JUMPI DUP1 PUSH4 0x7E1C0C09 EQ PUSH2 0x527 JUMPI DUP1 PUSH4 0x81C639E9 EQ PUSH2 0x55B JUMPI DUP1 PUSH4 0x891A8B85 EQ PUSH2 0x57B JUMPI PUSH1 0x0 DUP1 REVERT JUMPDEST DUP1 PUSH4 0x6E33A831 EQ PUSH2 0x4E7 JUMPI DUP1 PUSH4 0x780F9EC1 EQ PUSH2 0x507 JUMPI PUSH1 0x0 DUP1 REVERT JUMPDEST DUP1 PUSH4 0x5EDFC4D3 GT PUSH2 0x1E6 JUMPI DUP1 PUSH4 0x5EDFC4D3 EQ PUSH2 0x3F1 JUMPI DUP1 PUSH4 0x6AF9CAAC EQ PUSH2 0x49D JUMPI DUP1 PUSH4 0x6DF8B8E4 EQ PUSH2 0x4C7 JUMPI PUSH1 0x0 DUP1 REVERT JUMPDEST DUP1 PUSH4 0x518AB2A8 EQ PUSH2 0x3C5 JUMPI DUP1 PUSH4 0x5AFD6EB8 EQ PUSH2 0x3DB JUMPI PUSH1 0x0 DUP1 REVERT JUMPDEST DUP1 PUSH4 0x2A04D7C1 GT PUSH2 0x258 JUMPI DUP1 PUSH4 0x2F661946 GT PUSH2 0x23D JUMPI DUP1 PUSH4 0x2F661946 EQ PUSH2 0x359 JUMPI DUP1 PUSH4 0x3E413BEE EQ PUSH2 0x36F JUMPI DUP1 PUSH4 0x4BB127C3 EQ PUSH2 0x38F JUMPI PUSH1 0x0 DUP1 REVERT JUMPDEST DUP1 PUSH4 0x2A04D7C1 EQ PUSH2 0x30B JUMPI DUP1 PUSH4 0x2F48AB7D EQ PUSH2 0x339 JUMPI PUSH1 0x0 DUP1 REVERT JUMPDEST DUP1 PUSH4 0xB9B199D EQ PUSH2 0x28A JUMPI DUP1 PUSH4 0xE281F66 EQ PUSH2 0x2A1 JUMPI DUP1 PUSH4 0xFFBDCAA EQ PUSH2 0x2E3 JUMPI DUP1 PUSH4 0x11B5444F EQ PUSH2 0x303 JUMPI JUMPDEST PUSH1 0x0 DUP1 REVERT JUMPDEST CALLVALUE DUP1 ISZERO PUSH2 0x296 JUMPI PUSH1 0x0 DUP1 REVERT JUMPDEST POP PUSH2 0x29F PUSH2 0x7F3 JUMP JUMPDEST STOP JUMPDEST CALLVALUE DUP1 ISZERO PUSH2 0x2AD JUMPI PUSH1 0x0 DUP1 REVERT JUMPDEST POP PUSH1 0x0 SLOAD PUSH2 0x2C6 SWAP1 PUSH2 0x100 SWAP1 DIV PUSH1 0x1 PUSH1 0x1 PUSH1 0xA0 SHL SUB AND DUP2 JUMP JUMPDEST PUSH1 0x40 MLOAD PUSH1 0x1 PUSH1 0x1 PUSH1 0xA0 SHL SUB SWAP1 SWAP2 AND DUP2 MSTORE PUSH1 0x20 ADD JUMPDEST PUSH1 0x40 MLOAD DUP1 SWAP2 SUB SWAP1 RETURN JUMPDEST CALLVALUE DUP1 ISZERO PUSH2 0x2EF JUMPI PUSH1 0x0 DUP1 REVERT JUMPDEST POP PUSH2 0x29F PUSH2 0x2FE CALLDATASIZE PUSH1 0x4 PUSH2 0x2156 JUMP JUMPDEST PUSH2 0x9E0 JUMP JUMPDEST PUSH2 0x29F PUSH2 0xAB4 JUMP JUMPDEST CALLVALUE DUP1 ISZERO PUSH2 0x317 JUMPI PUSH1 0x0 DUP1 REVERT JUMPDEST POP PUSH2 0x32B PUSH2 0x326 CALLDATASIZE PUSH1 0x4 PUSH2 0x2156 JUMP JUMPDEST PUSH2 0xDC0 JUMP JUMPDEST PUSH1 0x40 MLOAD SWAP1 DUP2 MSTORE PUSH1 0x20 ADD PUSH2 0x2DA JUMP JUMPDEST CALLVALUE DUP1 ISZERO PUSH2 0x345 JUMPI PUSH1 0x0 DUP1 REVERT JUMPDEST POP PUSH1 0x2 SLOAD PUSH2 0x2C6 SWAP1 PUSH1 0x1 PUSH1 0x1 PUSH1 0xA0 SHL SUB AND DUP2 JUMP JUMPDEST CALLVALUE DUP1 ISZERO PUSH2 0x365 JUMPI PUSH1 0x0 DUP1 REVERT JUMPDEST POP PUSH2 0x32B PUSH1 0xB SLOAD DUP2 JUMP JUMPDEST CALLVALUE DUP1 ISZERO PUSH2 0x37B JUMPI PUSH1 0x0 DUP1 REVERT JUMPDEST POP PUSH1 0x3 SLOAD PUSH2 0x2C6 SWAP1 PUSH1 0x1 PUSH1 0x1 PUSH1 0xA0 SHL SUB AND DUP2 JUMP JUMPDEST CALLVALUE DUP1 ISZERO PUSH2 0x39B JUMPI PUSH1 0x0 DUP1 REVERT JUMPDEST POP PUSH2 0x32B PUSH2 0x3AA CALLDATASIZE PUSH1 0x4 PUSH2 0x218B JUMP JUMPDEST PUSH1 0x1 PUSH1 0x1 PUSH1 0xA0 SHL SUB AND PUSH1 0x0 SWAP1 DUP2 MSTORE PUSH1 0x11 PUSH1 0x20 MSTORE PUSH1 0x40 SWAP1 KECCAK256 SLOAD SWAP1 JUMP JUMPDEST CALLVALUE DUP1 ISZERO PUSH2 0x3D1 JUMPI PUSH1 0x0 DUP1 REVERT JUMPDEST POP PUSH2 0x32B PUSH1 0x6 SLOAD DUP2 JUMP JUMPDEST CALLVALUE DUP1 ISZERO PUSH2 0x3E7 JUMPI PUSH1 0x0 DUP1 REVERT JUMPDEST POP PUSH2 0x32B PUSH1 0xC SLOAD DUP2 JUMP JUMPDEST CALLVALUE DUP1 ISZERO PUSH2 0x3FD JUMPI PUSH1 0x0 DUP1 REVERT JUMPDEST POP PUSH2 0x45E PUSH2 0x40C CALLDATASIZE PUSH1 0x4 PUSH2 0x21AD JUMP JUMPDEST PUSH1 0x10 PUSH1 0x20 SWAP1 DUP2 MSTORE PUSH1 0x0 SWAP3 DUP4 MSTORE PUSH1 0x40 DUP1 DUP5 KECCAK256 SWAP1 SWAP2 MSTORE SWAP1 DUP3 MSTORE SWAP1 KECCAK256 DUP1 SLOAD PUSH1 0x1 DUP3 ADD SLOAD PUSH1 0x2 DUP4 ADD SLOAD PUSH1 0x3 DUP5 ADD SLOAD PUSH1 0x4 DUP6 ADD SLOAD PUSH1 0x5 DUP7 ADD SLOAD PUSH1 0x6 SWAP1 SWAP7 ADD SLOAD PUSH1 0x1 PUSH1 0x1 PUSH1 0xA0 SHL SUB SWAP1 SWAP6 AND SWAP6 SWAP4 SWAP5 SWAP3 SWAP4 SWAP2 SWAP3 SWAP1 SWAP2 SWAP1 DUP8 JUMP JUMPDEST PUSH1 0x40 DUP1 MLOAD PUSH1 0x1 PUSH1 0x1 PUSH1 0xA0 SHL SUB SWAP1 SWAP9 AND DUP9 MSTORE PUSH1 0x20 DUP9 ADD SWAP7 SWAP1 SWAP7 MSTORE SWAP5 DUP7 ADD SWAP4 SWAP1 SWAP4 MSTORE PUSH1 0x60 DUP6 ADD SWAP2 SWAP1 SWAP2 MSTORE PUSH1 0x80 DUP5 ADD MSTORE PUSH1 0xA0 DUP4 ADD MSTORE PUSH1 0xC0 DUP3 ADD MSTORE PUSH1 0xE0 ADD PUSH2 0x2DA JUMP JUMPDEST CALLVALUE DUP1 ISZERO PUSH2 0x4A9 JUMPI PUSH1 0x0 DUP1 REVERT JUMPDEST POP PUSH1 0x7 SLOAD PUSH2 0x4B7 SWAP1 PUSH1 0xFF AND DUP2 JUMP JUMPDEST PUSH1 0x40 MLOAD SWAP1 ISZERO ISZERO DUP2 MSTORE PUSH1 0x20 ADD PUSH2 0x2DA JUMP JUMPDEST CALLVALUE DUP1 ISZERO PUSH2 0x4D3 JUMPI PUSH1 0x0 DUP1 REVERT JUMPDEST POP PUSH2 0x29F PUSH2 0x4E2 CALLDATASIZE PUSH1 0x4 PUSH2 0x2156 JUMP JUMPDEST PUSH2 0xDE1 JUMP JUMPDEST CALLVALUE DUP1 ISZERO PUSH2 0x4F3 JUMPI PUSH1 0x0 DUP1 REVERT JUMPDEST POP PUSH2 0x29F PUSH2 0x502 CALLDATASIZE PUSH1 0x4 PUSH2 0x21AD JUMP JUMPDEST PUSH2 0xEA7 JUMP JUMPDEST CALLVALUE DUP1 ISZERO PUSH2 0x513 JUMPI PUSH1 0x0 DUP1 REVERT JUMPDEST POP PUSH2 0x32B PUSH2 0x522 CALLDATASIZE PUSH1 0x4 PUSH2 0x2156 JUMP JUMPDEST PUSH2 0x1360 JUMP JUMPDEST CALLVALUE DUP1 ISZERO PUSH2 0x533 JUMPI PUSH1 0x0 DUP1 REVERT JUMPDEST POP PUSH2 0x32B PUSH32 0x0 DUP2 JUMP JUMPDEST CALLVALUE DUP1 ISZERO PUSH2 0x567 JUMPI PUSH1 0x0 DUP1 REVERT JUMPDEST POP PUSH2 0x32B PUSH2 0x576 CALLDATASIZE PUSH1 0x4 PUSH2 0x2156 JUMP JUMPDEST PUSH2 0x1393 JUMP JUMPDEST CALLVALUE DUP1 ISZERO PUSH2 0x587 JUMPI PUSH1 0x0 DUP1 REVERT JUMPDEST POP PUSH2 0x32B PUSH2 0x13B5 JUMP JUMPDEST CALLVALUE DUP1 ISZERO PUSH2 0x59C JUMPI PUSH1 0x0 DUP1 REVERT JUMPDEST POP PUSH2 0x32B PUSH1 0xA SLOAD DUP2 JUMP JUMPDEST CALLVALUE DUP1 ISZERO PUSH2 0x5B2 JUMPI PUSH1 0x0 DUP1 REVERT JUMPDEST POP PUSH2 0x29F PUSH2 0x1439 JUMP JUMPDEST CALLVALUE DUP1 ISZERO PUSH2 0x5C7 JUMPI PUSH1 0x0 DUP1 REVERT JUMPDEST POP PUSH2 0x32B PUSH2 0x5D6 CALLDATASIZE PUSH1 0x4 PUSH2 0x2156 JUMP JUMPDEST PUSH2 0x157D JUMP JUMPDEST CALLVALUE DUP1 ISZERO PUSH2 0x5E7 JUMPI PUSH1 0x0 DUP1 REVERT JUMPDEST POP PUSH2 0x29F PUSH2 0x5F6 CALLDATASIZE PUSH1 0x4 PUSH2 0x21D7 JUMP JUMPDEST PUSH2 0x159F JUMP JUMPDEST CALLVALUE DUP1 ISZERO PUSH2 0x607 JUMPI PUSH1 0x0 DUP1 REVERT JUMPDEST POP PUSH2 0x32B PUSH1 0xF SLOAD DUP2 JUMP JUMPDEST CALLVALUE DUP1 ISZERO PUSH2 0x61D JUMPI PUSH1 0x0 DUP1 REVERT JUMPDEST POP PUSH2 0x29F PUSH2 0x62C CALLDATASIZE PUSH1 0x4 PUSH2 0x2156 JUMP JUMPDEST PUSH2 0x1684 JUMP JUMPDEST CALLVALUE DUP1 ISZERO PUSH2 0x63D JUMPI PUSH1 0x0 DUP1 REVERT JUMPDEST POP PUSH2 0x32B PUSH2 0x1758 JUMP JUMPDEST CALLVALUE DUP1 ISZERO PUSH2 0x652 JUMPI PUSH1 0x0 DUP1 REVERT JUMPDEST POP PUSH2 0x29F PUSH2 0x661 CALLDATASIZE PUSH1 0x4 PUSH2 0x2156 JUMP JUMPDEST PUSH2 0x17DD JUMP JUMPDEST CALLVALUE DUP1 ISZERO PUSH2 0x672 JUMPI PUSH1 0x0 DUP1 REVERT JUMPDEST POP PUSH2 0x32B PUSH1 0xD SLOAD DUP2 JUMP JUMPDEST CALLVALUE DUP1 ISZERO PUSH2 0x688 JUMPI PUSH1 0x0 DUP1 REVERT JUMPDEST POP PUSH2 0x691 PUSH2 0x18B1 JUMP JUMPDEST PUSH1 0x40 DUP1 MLOAD SWAP4 DUP5 MSTORE PUSH1 0x20 DUP5 ADD SWAP3 SWAP1 SWAP3 MSTORE SWAP1 DUP3 ADD MSTORE PUSH1 0x60 ADD PUSH2 0x2DA JUMP JUMPDEST CALLVALUE DUP1 ISZERO PUSH2 0x6B8 JUMPI PUSH1 0x0 DUP1 REVERT JUMPDEST POP PUSH2 0x32B PUSH2 0x6C7 CALLDATASIZE PUSH1 0x4 PUSH2 0x2156 JUMP JUMPDEST PUSH2 0x1A88 JUMP JUMPDEST CALLVALUE DUP1 ISZERO PUSH2 0x6D8 JUMPI PUSH1 0x0 DUP1 REVERT JUMPDEST POP PUSH2 0x32B PUSH2 0x6E7 CALLDATASIZE PUSH1 0x4 PUSH2 0x2156 JUMP JUMPDEST PUSH2 0x1A93 JUMP JUMPDEST CALLVALUE DUP1 ISZERO PUSH2 0x6F8 JUMPI PUSH1 0x0 DUP1 REVERT JUMPDEST POP PUSH2 0x32B PUSH32 0x0 DUP2 JUMP JUMPDEST CALLVALUE DUP1 ISZERO PUSH2 0x72C JUMPI PUSH1 0x0 DUP1 REVERT JUMPDEST POP PUSH2 0x29F PUSH2 0x1AA3 JUMP JUMPDEST CALLVALUE DUP1 ISZERO PUSH2 0x741 JUMPI PUSH1 0x0 DUP1 REVERT JUMPDEST POP PUSH2 0x29F PUSH2 0x1CA7 JUMP JUMPDEST CALLVALUE DUP1 ISZERO PUSH2 0x756 JUMPI PUSH1 0x0 DUP1 REVERT JUMPDEST POP PUSH2 0x76A PUSH2 0x765 CALLDATASIZE PUSH1 0x4 PUSH2 0x218B JUMP JUMPDEST PUSH2 0x1D2B JUMP JUMPDEST PUSH1 0x40 DUP1 MLOAD SWAP3 DUP4 MSTORE PUSH1 0x20 DUP4 ADD SWAP2 SWAP1 SWAP2 MSTORE ADD PUSH2 0x2DA JUMP JUMPDEST CALLVALUE DUP1 ISZERO PUSH2 0x78B JUMPI PUSH1 0x0 DUP1 REVERT JUMPDEST POP PUSH1 0x1 SLOAD PUSH2 0x2C6 SWAP1 PUSH1 0x1 PUSH1 0x1 PUSH1 0xA0 SHL SUB AND DUP2 JUMP JUMPDEST CALLVALUE DUP1 ISZERO PUSH2 0x7AB JUMPI PUSH1 0x0 DUP1 REVERT JUMPDEST POP PUSH2 0x29F PUSH2 0x7BA CALLDATASIZE PUSH1 0x4 PUSH2 0x21D7 JUMP JUMPDEST PUSH2 0x1E06 JUMP JUMPDEST CALLVALUE DUP1 ISZERO PUSH2 0x7CB JUMPI PUSH1 0x0 DUP1 REVERT JUMPDEST POP PUSH2 0x2C6 PUSH32 0x0 DUP2 JUMP JUMPDEST CALLER PUSH1 0x1 PUSH1 0x1 PUSH1 0xA0 SHL SUB PUSH32 0x0 AND EQ PUSH2 0x869 JUMPI PUSH1 0x40 MLOAD PUSH3 0x461BCD PUSH1 0xE5 SHL DUP2 MSTORE PUSH1 0x20 PUSH1 0x4 DUP3 ADD MSTORE PUSH1 0x16 PUSH1 0x24 DUP3 ADD MSTORE PUSH22 0x596F75277265206E6F7420617574686F72697A656421 PUSH1 0x50 SHL PUSH1 0x44 DUP3 ADD MSTORE PUSH1 0x64 ADD JUMPDEST PUSH1 0x40 MLOAD DUP1 SWAP2 SUB SWAP1 REVERT JUMPDEST PUSH1 0x0 DUP1 SLOAD PUSH1 0x40 MLOAD PUSH4 0x70A08231 PUSH1 0xE0 SHL DUP2 MSTORE ADDRESS PUSH1 0x4 DUP3 ADD MSTORE PUSH2 0x100 SWAP1 SWAP2 DIV PUSH1 0x1 PUSH1 0x1 PUSH1 0xA0 SHL SUB AND SWAP1 PUSH4 0x70A08231 SWAP1 PUSH1 0x24 ADD PUSH1 0x20 PUSH1 0x40 MLOAD DUP1 DUP4 SUB DUP2 DUP7 GAS STATICCALL ISZERO DUP1 ISZERO PUSH2 0x8B6 JUMPI RETURNDATASIZE PUSH1 0x0 DUP1 RETURNDATACOPY RETURNDATASIZE PUSH1 0x0 REVERT JUMPDEST POP POP POP POP PUSH1 0x40 MLOAD RETURNDATASIZE PUSH1 0x1F NOT PUSH1 0x1F DUP3 ADD AND DUP3 ADD DUP1 PUSH1 0x40 MSTORE POP DUP2 ADD SWAP1 PUSH2 0x8DA SWAP2 SWAP1 PUSH2 0x21F9 JUMP JUMPDEST SWAP1 POP PUSH1 0x0 PUSH1 0x6 SLOAD DUP3 PUSH2 0x8EC SWAP2 SWAP1 PUSH2 0x2228 JUMP JUMPDEST SWAP1 POP PUSH1 0x0 DUP2 GT PUSH2 0x93E JUMPI PUSH1 0x40 MLOAD PUSH3 0x461BCD PUSH1 0xE5 SHL DUP2 MSTORE PUSH1 0x20 PUSH1 0x4 DUP3 ADD MSTORE PUSH1 0x13 PUSH1 0x24 DUP3 ADD MSTORE PUSH32 0x6E6F2067726C20696E20636F6E74726163742100000000000000000000000000 PUSH1 0x44 DUP3 ADD MSTORE PUSH1 0x64 ADD PUSH2 0x860 JUMP JUMPDEST PUSH1 0x0 SLOAD PUSH1 0x40 MLOAD PUSH4 0xA9059CBB PUSH1 0xE0 SHL DUP2 MSTORE PUSH1 0x1 PUSH1 0x1 PUSH1 0xA0 SHL SUB PUSH32 0x0 DUP2 AND PUSH1 0x4 DUP4 ADD MSTORE PUSH1 0x24 DUP3 ADD DUP5 SWAP1 MSTORE PUSH2 0x100 SWAP1 SWAP3 DIV SWAP1 SWAP2 AND SWAP1 PUSH4 0xA9059CBB SWAP1 PUSH1 0x44 ADD PUSH1 0x20 PUSH1 0x40 MLOAD DUP1 DUP4 SUB DUP2 PUSH1 0x0 DUP8 GAS CALL ISZERO DUP1 ISZERO PUSH2 0x9B7 JUMPI RETURNDATASIZE PUSH1 0x0 DUP1 RETURNDATACOPY RETURNDATASIZE PUSH1 0x0 REVERT JUMPDEST POP POP POP POP PUSH1 0x40 MLOAD RETURNDATASIZE PUSH1 0x1F NOT PUSH1 0x1F DUP3 ADD AND DUP3 ADD DUP1 PUSH1 0x40 MSTORE POP DUP2 ADD SWAP1 PUSH2 0x9DB SWAP2 SWAP1 PUSH2 0x2241 JUMP JUMPDEST POP POP POP JUMP JUMPDEST CALLER PUSH1 0x1 PUSH1 0x1 PUSH1 0xA0 SHL SUB PUSH32 0x0 AND EQ PUSH2 0xA51 JUMPI PUSH1 0x40 MLOAD PUSH3 0x461BCD PUSH1 0xE5 SHL DUP2 MSTORE PUSH1 0x20 PUSH1 0x4 DUP3 ADD MSTORE PUSH1 0x16 PUSH1 0x24 DUP3 ADD MSTORE PUSH22 0x596F75277265206E6F7420617574686F72697A656421 PUSH1 0x50 SHL PUSH1 0x44 DUP3 ADD MSTORE PUSH1 0x64 ADD PUSH2 0x860 JUMP JUMPDEST PUSH1 0x0 DUP2 GT PUSH2 0xAA1 JUMPI PUSH1 0x40 MLOAD PUSH3 0x461BCD PUSH1 0xE5 SHL DUP2 MSTORE PUSH1 0x20 PUSH1 0x4 DUP3 ADD MSTORE PUSH1 0x15 PUSH1 0x24 DUP3 ADD MSTORE PUSH32 0x4475726174696F6E2077696C6C206265203E2030210000000000000000000000 PUSH1 0x44 DUP3 ADD MSTORE PUSH1 0x64 ADD PUSH2 0x860 JUMP JUMPDEST PUSH2 0xAAE DUP2 PUSH3 0x15180 PUSH2 0x2263 JUMP JUMPDEST PUSH1 0xA SSTORE POP JUMP JUMPDEST PUSH1 0x0 SLOAD PUSH1 0xFF AND ISZERO PUSH2 0xAF8 JUMPI PUSH1 0x40 MLOAD PUSH3 0x461BCD PUSH1 0xE5 SHL DUP2 MSTORE PUSH1 0x20 PUSH1 0x4 DUP3 ADD MSTORE PUSH1 0xE PUSH1 0x24 DUP3 ADD MSTORE PUSH14 0x4E6F2072652D656E7472616E6379 PUSH1 0x90 SHL PUSH1 0x44 DUP3 ADD MSTORE PUSH1 0x64 ADD PUSH2 0x860 JUMP JUMPDEST PUSH1 0x0 DUP1 SLOAD PUSH1 0xFF NOT AND PUSH1 0x1 SWAP1 DUP2 OR SWAP1 SWAP2 SSTORE PUSH1 0x7 SLOAD PUSH1 0xFF AND ISZERO ISZERO EQ PUSH2 0xB5D JUMPI PUSH1 0x40 MLOAD PUSH3 0x461BCD PUSH1 0xE5 SHL DUP2 MSTORE PUSH1 0x20 PUSH1 0x4 DUP3 ADD MSTORE PUSH1 0x14 PUSH1 0x24 DUP3 ADD MSTORE PUSH32 0x47434F206E6F7420737461727465642079657421000000000000000000000000 PUSH1 0x44 DUP3 ADD MSTORE PUSH1 0x64 ADD PUSH2 0x860 JUMP JUMPDEST PUSH1 0x0 CALLVALUE GT PUSH2 0xBAD JUMPI PUSH1 0x40 MLOAD PUSH3 0x461BCD PUSH1 0xE5 SHL DUP2 MSTORE PUSH1 0x20 PUSH1 0x4 DUP3 ADD MSTORE PUSH1 0x12 PUSH1 0x24 DUP3 ADD MSTORE PUSH32 0x496E61766C69642065746820616D6F756E740000000000000000000000000000 PUSH1 0x44 DUP3 ADD MSTORE PUSH1 0x64 ADD PUSH2 0x860 JUMP JUMPDEST PUSH1 0x0 PUSH2 0xBB8 CALLVALUE PUSH2 0x1360 JUMP JUMPDEST SWAP1 POP PUSH32 0x0 DUP2 PUSH1 0x6 SLOAD PUSH2 0xBE9 SWAP2 SWAP1 PUSH2 0x227A JUMP JUMPDEST GT ISZERO PUSH2 0xC37 JUMPI PUSH1 0x40 MLOAD PUSH3 0x461BCD PUSH1 0xE5 SHL DUP2 MSTORE PUSH1 0x20 PUSH1 0x4 DUP3 ADD MSTORE PUSH1 0x16 PUSH1 0x24 DUP3 ADD MSTORE PUSH32 0x4E6F7420656E6F75676820746F6B656E73206C65667400000000000000000000 PUSH1 0x44 DUP3 ADD MSTORE PUSH1 0x64 ADD PUSH2 0x860 JUMP JUMPDEST PUSH1 0xF SLOAD PUSH2 0xC45 SWAP1 PUSH1 0x4 PUSH2 0x2263 JUMP JUMPDEST PUSH1 0xE SLOAD PUSH2 0xC52 SWAP2 SWAP1 PUSH2 0x227A JUMP JUMPDEST TIMESTAMP GT ISZERO PUSH2 0xCA1 JUMPI PUSH1 0x40 MLOAD PUSH3 0x461BCD PUSH1 0xE5 SHL DUP2 MSTORE PUSH1 0x20 PUSH1 0x4 DUP3 ADD MSTORE PUSH1 0x16 PUSH1 0x24 DUP3 ADD MSTORE PUSH32 0x4E6F206D6F726520636F696E206F66666572696E672100000000000000000000 PUSH1 0x44 DUP3 ADD MSTORE PUSH1 0x64 ADD PUSH2 0x860 JUMP JUMPDEST PUSH1 0x0 PUSH1 0x64 PUSH1 0xD SLOAD DUP4 PUSH2 0xCB3 SWAP2 SWAP1 PUSH2 0x2263 JUMP JUMPDEST PUSH2 0xCBD SWAP2 SWAP1 PUSH2 0x228D JUMP JUMPDEST SWAP1 POP PUSH1 0x0 PUSH2 0xCCB DUP3 DUP5 PUSH2 0x2228 JUMP JUMPDEST SWAP1 POP DUP3 PUSH1 0x6 PUSH1 0x0 DUP3 DUP3 SLOAD PUSH2 0xCDF SWAP2 SWAP1 PUSH2 0x227A JUMP JUMPDEST SWAP3 POP POP DUP2 SWAP1 SSTORE POP PUSH2 0xCFA CALLER TIMESTAMP PUSH1 0xB SLOAD PUSH1 0xA SLOAD PUSH1 0xC SLOAD DUP7 PUSH2 0x1EDB JUMP JUMPDEST PUSH1 0x0 SLOAD PUSH1 0x40 MLOAD PUSH4 0xA9059CBB PUSH1 0xE0 SHL DUP2 MSTORE CALLER PUSH1 0x4 DUP3 ADD MSTORE PUSH1 0x24 DUP2 ADD DUP5 SWAP1 MSTORE PUSH2 0x100 SWAP1 SWAP2 DIV PUSH1 0x1 PUSH1 0x1 PUSH1 0xA0 SHL SUB AND SWAP1 PUSH4 0xA9059CBB SWAP1 PUSH1 0x44 ADD PUSH1 0x20 PUSH1 0x40 MLOAD DUP1 DUP4 SUB DUP2 PUSH1 0x0 DUP8 GAS CALL ISZERO DUP1 ISZERO PUSH2 0xD4F JUMPI RETURNDATASIZE PUSH1 0x0 DUP1 RETURNDATACOPY RETURNDATASIZE PUSH1 0x0 REVERT JUMPDEST POP POP POP POP PUSH1 0x40 MLOAD RETURNDATASIZE PUSH1 0x1F NOT PUSH1 0x1F DUP3 ADD AND DUP3 ADD DUP1 PUSH1 0x40 MSTORE POP DUP2 ADD SWAP1 PUSH2 0xD73 SWAP2 SWAP1 PUSH2 0x2241 JUMP JUMPDEST POP PUSH1 0x40 DUP1 MLOAD CALLVALUE DUP2 MSTORE PUSH1 0x20 DUP2 ADD DUP6 SWAP1 MSTORE CALLER SWAP2 ADDRESS SWAP2 PUSH32 0xF950C03C97E9C8B25BE288C9D83849749225D3EDD1D9330DCBB6305704734DC5 SWAP2 ADD PUSH1 0x40 MLOAD DUP1 SWAP2 SUB SWAP1 LOG3 POP POP PUSH1 0x0 DUP1 SLOAD PUSH1 0xFF NOT AND SWAP1 SSTORE POP JUMP JUMPDEST PUSH1 0x8 DUP2 DUP2 SLOAD DUP2 LT PUSH2 0xDD0 JUMPI PUSH1 0x0 DUP1 REVERT JUMPDEST PUSH1 0x0 SWAP2 DUP3 MSTORE PUSH1 0x20 SWAP1 SWAP2 KECCAK256 ADD SLOAD SWAP1 POP DUP2 JUMP JUMPDEST CALLER PUSH1 0x1 PUSH1 0x1 PUSH1 0xA0 SHL SUB PUSH32 0x0 AND EQ PUSH2 0xE52 JUMPI PUSH1 0x40 MLOAD PUSH3 0x461BCD PUSH1 0xE5 SHL DUP2 MSTORE PUSH1 0x20 PUSH1 0x4 DUP3 ADD MSTORE PUSH1 0x16 PUSH1 0x24 DUP3 ADD MSTORE PUSH22 0x596F75277265206E6F7420617574686F72697A656421 PUSH1 0x50 SHL PUSH1 0x44 DUP3 ADD MSTORE PUSH1 0x64 ADD PUSH2 0x860 JUMP JUMPDEST PUSH1 0x0 DUP2 GT PUSH2 0xEA2 JUMPI PUSH1 0x40 MLOAD PUSH3 0x461BCD PUSH1 0xE5 SHL DUP2 MSTORE PUSH1 0x20 PUSH1 0x4 DUP3 ADD MSTORE PUSH1 0x17 PUSH1 0x24 DUP3 ADD MSTORE PUSH32 0x50657263656E617467652077696C6C206265203E203021000000000000000000 PUSH1 0x44 DUP3 ADD MSTORE PUSH1 0x64 ADD PUSH2 0x860 JUMP JUMPDEST PUSH1 0xD SSTORE JUMP JUMPDEST PUSH1 0x0 SLOAD PUSH1 0xFF AND ISZERO PUSH2 0xEEB JUMPI PUSH1 0x40 MLOAD PUSH3 0x461BCD PUSH1 0xE5 SHL DUP2 MSTORE PUSH1 0x20 PUSH1 0x4 DUP3 ADD MSTORE PUSH1 0xE PUSH1 0x24 DUP3 ADD MSTORE PUSH14 0x4E6F2072652D656E7472616E6379 PUSH1 0x90 SHL PUSH1 0x44 DUP3 ADD MSTORE PUSH1 0x64 ADD PUSH2 0x860 JUMP JUMPDEST PUSH1 0x0 DUP1 SLOAD PUSH1 0xFF NOT AND PUSH1 0x1 SWAP1 DUP2 OR SWAP1 SWAP2 SSTORE PUSH1 0x7 SLOAD PUSH1 0xFF AND ISZERO ISZERO EQ PUSH2 0xF50 JUMPI PUSH1 0x40 MLOAD PUSH3 0x461BCD PUSH1 0xE5 SHL DUP2 MSTORE PUSH1 0x20 PUSH1 0x4 DUP3 ADD MSTORE PUSH1 0x14 PUSH1 0x24 DUP3 ADD MSTORE PUSH32 0x47434F206E6F7420737461727465642079657421000000000000000000000000 PUSH1 0x44 DUP3 ADD MSTORE PUSH1 0x64 ADD PUSH2 0x860 JUMP JUMPDEST PUSH1 0x0 DUP2 GT PUSH2 0xF5D JUMPI PUSH1 0x0 DUP1 REVERT JUMPDEST PUSH1 0x1 SLOAD DUP3 SWAP1 PUSH1 0x0 SWAP1 PUSH1 0x1 PUSH1 0x1 PUSH1 0xA0 SHL SUB DUP1 DUP5 AND SWAP2 AND EQ PUSH2 0xF88 JUMPI PUSH2 0xF80 DUP4 PUSH2 0x203E JUMP JUMPDEST SWAP1 POP DUP1 PUSH2 0xF95 JUMP JUMPDEST PUSH2 0xF91 DUP4 PUSH2 0x1393 JUMP JUMPDEST SWAP1 POP DUP1 JUMPDEST POP PUSH32 0x0 DUP2 PUSH1 0x6 SLOAD PUSH2 0xFC5 SWAP2 SWAP1 PUSH2 0x227A JUMP JUMPDEST GT ISZERO PUSH2 0x1013 JUMPI PUSH1 0x40 MLOAD PUSH3 0x461BCD PUSH1 0xE5 SHL DUP2 MSTORE PUSH1 0x20 PUSH1 0x4 DUP3 ADD MSTORE PUSH1 0x16 PUSH1 0x24 DUP3 ADD MSTORE PUSH32 0x4E6F7420656E6F75676820746F6B656E73206C65667400000000000000000000 PUSH1 0x44 DUP3 ADD MSTORE PUSH1 0x64 ADD PUSH2 0x860 JUMP JUMPDEST PUSH1 0xF SLOAD PUSH2 0x1021 SWAP1 PUSH1 0x4 PUSH2 0x2263 JUMP JUMPDEST PUSH1 0xE SLOAD PUSH2 0x102E SWAP2 SWAP1 PUSH2 0x227A JUMP JUMPDEST TIMESTAMP GT ISZERO PUSH2 0x107D JUMPI PUSH1 0x40 MLOAD PUSH3 0x461BCD PUSH1 0xE5 SHL DUP2 MSTORE PUSH1 0x20 PUSH1 0x4 DUP3 ADD MSTORE PUSH1 0x16 PUSH1 0x24 DUP3 ADD MSTORE PUSH32 0x4E6F206D6F726520636F696E206F66666572696E672100000000000000000000 PUSH1 0x44 DUP3 ADD MSTORE PUSH1 0x64 ADD PUSH2 0x860 JUMP JUMPDEST PUSH1 0x40 MLOAD PUSH4 0x70A08231 PUSH1 0xE0 SHL DUP2 MSTORE CALLER PUSH1 0x4 DUP3 ADD MSTORE DUP4 SWAP1 PUSH1 0x1 PUSH1 0x1 PUSH1 0xA0 SHL SUB DUP5 AND SWAP1 PUSH4 0x70A08231 SWAP1 PUSH1 0x24 ADD PUSH1 0x20 PUSH1 0x40 MLOAD DUP1 DUP4 SUB DUP2 DUP7 GAS STATICCALL ISZERO DUP1 ISZERO PUSH2 0x10C3 JUMPI RETURNDATASIZE PUSH1 0x0 DUP1 RETURNDATACOPY RETURNDATASIZE PUSH1 0x0 REVERT JUMPDEST POP POP POP POP PUSH1 0x40 MLOAD RETURNDATASIZE PUSH1 0x1F NOT PUSH1 0x1F DUP3 ADD AND DUP3 ADD DUP1 PUSH1 0x40 MSTORE POP DUP2 ADD SWAP1 PUSH2 0x10E7 SWAP2 SWAP1 PUSH2 0x21F9 JUMP JUMPDEST LT ISZERO PUSH2 0x115B JUMPI PUSH1 0x40 MLOAD PUSH3 0x461BCD PUSH1 0xE5 SHL DUP2 MSTORE PUSH1 0x20 PUSH1 0x4 DUP3 ADD MSTORE PUSH1 0x27 PUSH1 0x24 DUP3 ADD MSTORE PUSH32 0x596F75206D757374206861766520656E6F75676820546F6B656E7320746F2062 PUSH1 0x44 DUP3 ADD MSTORE PUSH32 0x75792047524C2100000000000000000000000000000000000000000000000000 PUSH1 0x64 DUP3 ADD MSTORE PUSH1 0x84 ADD PUSH2 0x860 JUMP JUMPDEST PUSH1 0x40 MLOAD PUSH4 0x23B872DD PUSH1 0xE0 SHL DUP2 MSTORE CALLER PUSH1 0x4 DUP3 ADD MSTORE PUSH1 0x1 PUSH1 0x1 PUSH1 0xA0 SHL SUB PUSH32 0x0 DUP2 AND PUSH1 0x24 DUP4 ADD MSTORE PUSH1 0x44 DUP3 ADD DUP6 SWAP1 MSTORE DUP4 AND SWAP1 PUSH4 0x23B872DD SWAP1 PUSH1 0x64 ADD PUSH1 0x20 PUSH1 0x40 MLOAD DUP1 DUP4 SUB DUP2 PUSH1 0x0 DUP8 GAS CALL ISZERO DUP1 ISZERO PUSH2 0x11D0 JUMPI RETURNDATASIZE PUSH1 0x0 DUP1 RETURNDATACOPY RETURNDATASIZE PUSH1 0x0 REVERT JUMPDEST POP POP POP POP PUSH1 0x40 MLOAD RETURNDATASIZE PUSH1 0x1F NOT PUSH1 0x1F DUP3 ADD AND DUP3 ADD DUP1 PUSH1 0x40 MSTORE POP DUP2 ADD SWAP1 PUSH2 0x11F4 SWAP2 SWAP1 PUSH2 0x2241 JUMP JUMPDEST PUSH2 0x1240 JUMPI PUSH1 0x40 MLOAD PUSH3 0x461BCD PUSH1 0xE5 SHL DUP2 MSTORE PUSH1 0x20 PUSH1 0x4 DUP3 ADD MSTORE PUSH1 0x1C PUSH1 0x24 DUP3 ADD MSTORE PUSH32 0x596F75206D757374204465706F73697420736F6D6520746F6B656E7300000000 PUSH1 0x44 DUP3 ADD MSTORE PUSH1 0x64 ADD PUSH2 0x860 JUMP JUMPDEST PUSH1 0x0 PUSH1 0x64 PUSH1 0xD SLOAD DUP4 PUSH2 0x1252 SWAP2 SWAP1 PUSH2 0x2263 JUMP JUMPDEST PUSH2 0x125C SWAP2 SWAP1 PUSH2 0x228D JUMP JUMPDEST SWAP1 POP PUSH1 0x0 PUSH2 0x126A DUP3 DUP5 PUSH2 0x2228 JUMP JUMPDEST SWAP1 POP PUSH2 0x1280 CALLER TIMESTAMP PUSH1 0xB SLOAD PUSH1 0xA SLOAD PUSH1 0xC SLOAD DUP7 PUSH2 0x1EDB JUMP JUMPDEST DUP3 PUSH1 0x6 PUSH1 0x0 DUP3 DUP3 SLOAD PUSH2 0x1292 SWAP2 SWAP1 PUSH2 0x227A JUMP JUMPDEST SWAP1 SWAP2 SSTORE POP POP PUSH1 0x0 SLOAD PUSH1 0x40 MLOAD PUSH4 0xA9059CBB PUSH1 0xE0 SHL DUP2 MSTORE CALLER PUSH1 0x4 DUP3 ADD MSTORE PUSH1 0x24 DUP2 ADD DUP5 SWAP1 MSTORE PUSH2 0x100 SWAP1 SWAP2 DIV PUSH1 0x1 PUSH1 0x1 PUSH1 0xA0 SHL SUB AND SWAP1 PUSH4 0xA9059CBB SWAP1 PUSH1 0x44 ADD PUSH1 0x20 PUSH1 0x40 MLOAD DUP1 DUP4 SUB DUP2 PUSH1 0x0 DUP8 GAS CALL ISZERO DUP1 ISZERO PUSH2 0x12EC JUMPI RETURNDATASIZE PUSH1 0x0 DUP1 RETURNDATACOPY RETURNDATASIZE PUSH1 0x0 REVERT JUMPDEST POP POP POP POP PUSH1 0x40 MLOAD RETURNDATASIZE PUSH1 0x1F NOT PUSH1 0x1F DUP3 ADD AND DUP3 ADD DUP1 PUSH1 0x40 MSTORE POP DUP2 ADD SWAP1 PUSH2 0x1310 SWAP2 SWAP1 PUSH2 0x2241 JUMP JUMPDEST POP PUSH1 0x40 DUP1 MLOAD DUP7 DUP2 MSTORE PUSH1 0x20 DUP2 ADD DUP6 SWAP1 MSTORE CALLER SWAP2 ADDRESS SWAP2 PUSH32 0x2885F4D6CDAC705F1BDD232F2FC19FD3B563949DBB1335C42CA8A77EB653C92C SWAP2 ADD PUSH1 0x40 MLOAD DUP1 SWAP2 SUB SWAP1 LOG3 POP POP PUSH1 0x0 DUP1 SLOAD PUSH1 0xFF NOT AND SWAP1 SSTORE POP POP POP POP JUMP JUMPDEST PUSH1 0x0 DUP1 PUSH2 0x136B PUSH2 0x18B1 JUMP JUMPDEST POP SWAP2 POP PUSH1 0x0 SWAP1 POP DUP2 PUSH2 0x1381 DUP6 PUSH4 0x3B9ACA00 PUSH2 0x2263 JUMP JUMPDEST PUSH2 0x138B SWAP2 SWAP1 PUSH2 0x228D JUMP JUMPDEST SWAP5 SWAP4 POP POP POP POP JUMP JUMPDEST PUSH1 0x0 DUP1 PUSH2 0x139E PUSH2 0x18B1 JUMP JUMPDEST POP POP SWAP1 POP PUSH1 0x0 DUP2 DUP5 PUSH4 0x3B9ACA00 PUSH2 0x1381 SWAP2 SWAP1 PUSH2 0x2263 JUMP JUMPDEST PUSH1 0x4 DUP1 SLOAD PUSH1 0x40 DUP1 MLOAD PUSH4 0x50D25BCD PUSH1 0xE0 SHL DUP2 MSTORE SWAP1 MLOAD PUSH1 0x0 SWAP4 DUP5 SWAP4 PUSH1 0x1 PUSH1 0x1 PUSH1 0xA0 SHL SUB AND SWAP3 PUSH4 0x50D25BCD SWAP3 DUP2 DUP4 ADD SWAP3 PUSH1 0x20 SWAP3 DUP3 SWAP1 SUB ADD DUP2 DUP7 GAS STATICCALL ISZERO DUP1 ISZERO PUSH2 0x13FE JUMPI RETURNDATASIZE PUSH1 0x0 DUP1 RETURNDATACOPY RETURNDATASIZE PUSH1 0x0 REVERT JUMPDEST POP POP POP POP PUSH1 0x40 MLOAD RETURNDATASIZE PUSH1 0x1F NOT PUSH1 0x1F DUP3 ADD AND DUP3 ADD DUP1 PUSH1 0x40 MSTORE POP DUP2 ADD SWAP1 PUSH2 0x1422 SWAP2 SWAP1 PUSH2 0x21F9 JUMP JUMPDEST SWAP1 POP PUSH2 0x1433 DUP2 PUSH5 0x2540BE400 PUSH2 0x22AF JUMP JUMPDEST SWAP2 POP POP SWAP1 JUMP JUMPDEST CALLER PUSH1 0x1 PUSH1 0x1 PUSH1 0xA0 SHL SUB PUSH32 0x0 AND EQ PUSH2 0x14AA JUMPI PUSH1 0x40 MLOAD PUSH3 0x461BCD PUSH1 0xE5 SHL DUP2 MSTORE PUSH1 0x20 PUSH1 0x4 DUP3 ADD MSTORE PUSH1 0x16 PUSH1 0x24 DUP3 ADD MSTORE PUSH22 0x596F75277265206E6F7420617574686F72697A656421 PUSH1 0x50 SHL PUSH1 0x44 DUP3 ADD MSTORE PUSH1 0x64 ADD PUSH2 0x860 JUMP JUMPDEST PUSH1 0x0 SELFBALANCE GT PUSH2 0x14FA JUMPI PUSH1 0x40 MLOAD PUSH3 0x461BCD PUSH1 0xE5 SHL DUP2 MSTORE PUSH1 0x20 PUSH1 0x4 DUP3 ADD MSTORE PUSH1 0x13 PUSH1 0x24 DUP3 ADD MSTORE PUSH32 0x4E6F2065746820746F2077697468647261772100000000000000000000000000 PUSH1 0x44 DUP3 ADD MSTORE PUSH1 0x64 ADD PUSH2 0x860 JUMP JUMPDEST PUSH1 0x0 PUSH32 0x0 PUSH1 0x1 PUSH1 0x1 PUSH1 0xA0 SHL SUB AND SELFBALANCE PUSH1 0x40 MLOAD PUSH1 0x0 PUSH1 0x40 MLOAD DUP1 DUP4 SUB DUP2 DUP6 DUP8 GAS CALL SWAP3 POP POP POP RETURNDATASIZE DUP1 PUSH1 0x0 DUP2 EQ PUSH2 0x1567 JUMPI PUSH1 0x40 MLOAD SWAP2 POP PUSH1 0x1F NOT PUSH1 0x3F RETURNDATASIZE ADD AND DUP3 ADD PUSH1 0x40 MSTORE RETURNDATASIZE DUP3 MSTORE RETURNDATASIZE PUSH1 0x0 PUSH1 0x20 DUP5 ADD RETURNDATACOPY PUSH2 0x156C JUMP JUMPDEST PUSH1 0x60 SWAP2 POP JUMPDEST POP POP SWAP1 POP DUP1 PUSH2 0x157A JUMPI PUSH1 0x0 DUP1 REVERT JUMPDEST POP JUMP JUMPDEST PUSH1 0x0 DUP1 PUSH2 0x1588 PUSH2 0x1758 JUMP JUMPDEST SWAP1 POP PUSH1 0x0 PUSH8 0xDE0B6B3A7640000 PUSH2 0x1381 DUP6 DUP5 PUSH2 0x2263 JUMP JUMPDEST CALLER PUSH1 0x1 PUSH1 0x1 PUSH1 0xA0 SHL SUB PUSH32 0x0 AND EQ PUSH2 0x1610 JUMPI PUSH1 0x40 MLOAD PUSH3 0x461BCD PUSH1 0xE5 SHL DUP2 MSTORE PUSH1 0x20 PUSH1 0x4 DUP3 ADD MSTORE PUSH1 0x16 PUSH1 0x24 DUP3 ADD MSTORE PUSH22 0x596F75277265206E6F7420617574686F72697A656421 PUSH1 0x50 SHL PUSH1 0x44 DUP3 ADD MSTORE PUSH1 0x64 ADD PUSH2 0x860 JUMP JUMPDEST PUSH1 0x0 DUP2 GT PUSH2 0x1660 JUMPI PUSH1 0x40 MLOAD PUSH3 0x461BCD PUSH1 0xE5 SHL DUP2 MSTORE PUSH1 0x20 PUSH1 0x4 DUP3 ADD MSTORE PUSH1 0x12 PUSH1 0x24 DUP3 ADD MSTORE PUSH32 0x50726963652077696C6C206265203E2030210000000000000000000000000000 PUSH1 0x44 DUP3 ADD MSTORE PUSH1 0x64 ADD PUSH2 0x860 JUMP JUMPDEST DUP1 PUSH1 0x9 DUP4 DUP2 SLOAD DUP2 LT PUSH2 0x1674 JUMPI PUSH2 0x1674 PUSH2 0x22DF JUMP JUMPDEST PUSH1 0x0 SWAP2 DUP3 MSTORE PUSH1 0x20 SWAP1 SWAP2 KECCAK256 ADD SSTORE POP POP JUMP JUMPDEST CALLER PUSH1 0x1 PUSH1 0x1 PUSH1 0xA0 SHL SUB PUSH32 0x0 AND EQ PUSH2 0x16F5 JUMPI PUSH1 0x40 MLOAD PUSH3 0x461BCD PUSH1 0xE5 SHL DUP2 MSTORE PUSH1 0x20 PUSH1 0x4 DUP3 ADD MSTORE PUSH1 0x16 PUSH1 0x24 DUP3 ADD MSTORE PUSH22 0x596F75277265206E6F7420617574686F72697A656421 PUSH1 0x50 SHL PUSH1 0x44 DUP3 ADD MSTORE PUSH1 0x64 ADD PUSH2 0x860 JUMP JUMPDEST PUSH1 0x0 DUP2 GT PUSH2 0x1745 JUMPI PUSH1 0x40 MLOAD PUSH3 0x461BCD PUSH1 0xE5 SHL DUP2 MSTORE PUSH1 0x20 PUSH1 0x4 DUP3 ADD MSTORE PUSH1 0x15 PUSH1 0x24 DUP3 ADD MSTORE PUSH32 0x496E76616C696420636C69666620706572696F64210000000000000000000000 PUSH1 0x44 DUP3 ADD MSTORE PUSH1 0x64 ADD PUSH2 0x860 JUMP JUMPDEST PUSH2 0x1752 DUP2 PUSH3 0x15180 PUSH2 0x2263 JUMP JUMPDEST PUSH1 0xB SSTORE POP JUMP JUMPDEST PUSH1 0x0 DUP1 PUSH1 0x5 PUSH1 0x0 SWAP1 SLOAD SWAP1 PUSH2 0x100 EXP SWAP1 DIV PUSH1 0x1 PUSH1 0x1 PUSH1 0xA0 SHL SUB AND PUSH1 0x1 PUSH1 0x1 PUSH1 0xA0 SHL SUB AND PUSH4 0xFEAF968C PUSH1 0x40 MLOAD DUP2 PUSH4 0xFFFFFFFF AND PUSH1 0xE0 SHL DUP2 MSTORE PUSH1 0x4 ADD PUSH1 0xA0 PUSH1 0x40 MLOAD DUP1 DUP4 SUB DUP2 DUP7 GAS STATICCALL ISZERO DUP1 ISZERO PUSH2 0x17AE JUMPI RETURNDATASIZE PUSH1 0x0 DUP1 RETURNDATACOPY RETURNDATASIZE PUSH1 0x0 REVERT JUMPDEST POP POP POP POP PUSH1 0x40 MLOAD RETURNDATASIZE PUSH1 0x1F NOT PUSH1 0x1F DUP3 ADD AND DUP3 ADD DUP1 PUSH1 0x40 MSTORE POP DUP2 ADD SWAP1 PUSH2 0x17D2 SWAP2 SWAP1 PUSH2 0x230F JUMP JUMPDEST POP SWAP2 SWAP6 SWAP5 POP POP POP POP POP JUMP JUMPDEST CALLER PUSH1 0x1 PUSH1 0x1 PUSH1 0xA0 SHL SUB PUSH32 0x0 AND EQ PUSH2 0x184E JUMPI PUSH1 0x40 MLOAD PUSH3 0x461BCD PUSH1 0xE5 SHL DUP2 MSTORE PUSH1 0x20 PUSH1 0x4 DUP3 ADD MSTORE PUSH1 0x16 PUSH1 0x24 DUP3 ADD MSTORE PUSH22 0x596F75277265206E6F7420617574686F72697A656421 PUSH1 0x50 SHL PUSH1 0x44 DUP3 ADD MSTORE PUSH1 0x64 ADD PUSH2 0x860 JUMP JUMPDEST PUSH1 0x0 DUP2 GT PUSH2 0x189E JUMPI PUSH1 0x40 MLOAD PUSH3 0x461BCD PUSH1 0xE5 SHL DUP2 MSTORE PUSH1 0x20 PUSH1 0x4 DUP3 ADD MSTORE PUSH1 0x1B PUSH1 0x24 DUP3 ADD MSTORE PUSH32 0x5068617365204475726174696F6E2077696C6C206265203E2030210000000000 PUSH1 0x44 DUP3 ADD MSTORE PUSH1 0x64 ADD PUSH2 0x860 JUMP JUMPDEST PUSH2 0x18AB DUP2 PUSH3 0x15180 PUSH2 0x2263 JUMP JUMPDEST PUSH1 0xF SSTORE POP JUMP JUMPDEST PUSH1 0x7 SLOAD PUSH1 0x0 SWAP1 DUP2 SWAP1 DUP2 SWAP1 PUSH1 0xFF AND PUSH2 0x190A JUMPI PUSH1 0x40 MLOAD PUSH3 0x461BCD PUSH1 0xE5 SHL DUP2 MSTORE PUSH1 0x20 PUSH1 0x4 DUP3 ADD MSTORE PUSH1 0x17 PUSH1 0x24 DUP3 ADD MSTORE PUSH32 0x47434F20686173206E6F74207374617274656420796574000000000000000000 PUSH1 0x44 DUP3 ADD MSTORE PUSH1 0x64 ADD PUSH2 0x860 JUMP JUMPDEST PUSH1 0xF SLOAD PUSH1 0xE SLOAD TIMESTAMP SWAP2 PUSH1 0x0 SWAP2 PUSH2 0x191F SWAP1 DUP5 PUSH2 0x2228 JUMP JUMPDEST PUSH2 0x1929 SWAP2 SWAP1 PUSH2 0x228D JUMP JUMPDEST PUSH1 0x8 SLOAD SWAP1 SWAP2 POP DUP2 LT PUSH2 0x1947 JUMPI PUSH1 0x8 SLOAD PUSH2 0x1944 SWAP1 PUSH1 0x1 SWAP1 PUSH2 0x2228 JUMP JUMPDEST SWAP1 POP JUMPDEST PUSH1 0x0 PUSH1 0x8 DUP3 DUP2 SLOAD DUP2 LT PUSH2 0x195C JUMPI PUSH2 0x195C PUSH2 0x22DF JUMP JUMPDEST SWAP1 PUSH1 0x0 MSTORE PUSH1 0x20 PUSH1 0x0 KECCAK256 ADD SLOAD SWAP1 POP PUSH1 0x0 PUSH1 0x9 DUP4 DUP2 SLOAD DUP2 LT PUSH2 0x197E JUMPI PUSH2 0x197E PUSH2 0x22DF JUMP JUMPDEST SWAP1 PUSH1 0x0 MSTORE PUSH1 0x20 PUSH1 0x0 KECCAK256 ADD SLOAD SWAP1 POP DUP2 SWAP7 POP PUSH2 0x1997 DUP3 PUSH2 0x157D JUMP JUMPDEST SWAP6 POP SWAP4 POP DUP4 PUSH2 0x19A7 DUP4 PUSH1 0x1 PUSH2 0x227A JUMP JUMPDEST PUSH1 0xF SLOAD PUSH2 0x19B4 SWAP2 SWAP1 PUSH2 0x2263 JUMP JUMPDEST PUSH1 0xE SLOAD PUSH2 0x19C1 SWAP2 SWAP1 PUSH2 0x227A JUMP JUMPDEST DUP5 LT DUP1 PUSH2 0x1A04 JUMPI POP PUSH2 0x19D4 DUP4 PUSH1 0x1 PUSH2 0x227A JUMP JUMPDEST PUSH2 0x19FE SWAP1 PUSH32 0x0 PUSH2 0x2263 JUMP JUMPDEST PUSH1 0x6 SLOAD GT ISZERO JUMPDEST ISZERO PUSH2 0x1A12 JUMPI POP POP POP POP SWAP1 SWAP2 SWAP3 JUMP JUMPDEST PUSH1 0x8 SLOAD PUSH2 0x1A20 DUP5 PUSH1 0x1 PUSH2 0x227A JUMP JUMPDEST LT ISZERO PUSH2 0x1A7F JUMPI PUSH2 0x1A31 PUSH1 0x1 DUP5 PUSH2 0x227A JUMP JUMPDEST SWAP3 POP PUSH1 0x8 DUP4 DUP2 SLOAD DUP2 LT PUSH2 0x1A46 JUMPI PUSH2 0x1A46 PUSH2 0x22DF JUMP JUMPDEST SWAP1 PUSH1 0x0 MSTORE PUSH1 0x20 PUSH1 0x0 KECCAK256 ADD SLOAD SWAP7 POP PUSH2 0x1A5C DUP8 PUSH2 0x157D JUMP JUMPDEST SWAP6 POP PUSH1 0x9 DUP4 DUP2 SLOAD DUP2 LT PUSH2 0x1A71 JUMPI PUSH2 0x1A71 PUSH2 0x22DF JUMP JUMPDEST SWAP1 PUSH1 0x0 MSTORE PUSH1 0x20 PUSH1 0x0 KECCAK256 ADD SLOAD SWAP5 POP JUMPDEST POP POP POP POP SWAP1 SWAP2 SWAP3 JUMP JUMPDEST PUSH1 0x0 DUP1 PUSH2 0x1588 PUSH2 0x13B5 JUMP JUMPDEST PUSH1 0x9 DUP2 DUP2 SLOAD DUP2 LT PUSH2 0xDD0 JUMPI PUSH1 0x0 DUP1 REVERT JUMPDEST CALLER PUSH1 0x0 SWAP1 DUP2 MSTORE PUSH1 0x11 PUSH1 0x20 MSTORE PUSH1 0x40 DUP2 KECCAK256 SLOAD DUP2 SWAP1 DUP1 PUSH2 0x1B02 JUMPI PUSH1 0x40 MLOAD PUSH3 0x461BCD PUSH1 0xE5 SHL DUP2 MSTORE PUSH1 0x20 PUSH1 0x4 DUP3 ADD MSTORE PUSH1 0x13 PUSH1 0x24 DUP3 ADD MSTORE PUSH32 0x4E6F20746F6B656E732070757263686173656400000000000000000000000000 PUSH1 0x44 DUP3 ADD MSTORE PUSH1 0x64 ADD PUSH2 0x860 JUMP JUMPDEST PUSH1 0x0 JUMPDEST DUP2 DUP2 LT ISZERO PUSH2 0x1BD7 JUMPI CALLER PUSH1 0x0 SWAP1 DUP2 MSTORE PUSH1 0x10 PUSH1 0x20 SWAP1 DUP2 MSTORE PUSH1 0x40 DUP1 DUP4 KECCAK256 DUP5 DUP5 MSTORE DUP3 MSTORE DUP1 DUP4 KECCAK256 DUP2 MLOAD PUSH1 0xE0 DUP2 ADD DUP4 MSTORE DUP2 SLOAD PUSH1 0x1 PUSH1 0x1 PUSH1 0xA0 SHL SUB AND DUP2 MSTORE PUSH1 0x1 DUP3 ADD SLOAD SWAP4 DUP2 ADD SWAP4 SWAP1 SWAP4 MSTORE PUSH1 0x2 DUP2 ADD SLOAD SWAP2 DUP4 ADD SWAP2 SWAP1 SWAP2 MSTORE PUSH1 0x3 DUP2 ADD SLOAD PUSH1 0x60 DUP4 ADD MSTORE PUSH1 0x4 DUP2 ADD SLOAD PUSH1 0x80 DUP4 ADD MSTORE PUSH1 0x5 DUP2 ADD SLOAD PUSH1 0xA0 DUP4 ADD MSTORE PUSH1 0x6 DUP2 ADD SLOAD PUSH1 0xC0 DUP4 ADD MSTORE SWAP2 SWAP1 DUP2 SWAP1 PUSH2 0x1B89 SWAP1 PUSH2 0x2060 JUMP JUMPDEST SWAP1 SWAP3 POP SWAP1 POP PUSH2 0x1B98 DUP3 DUP9 PUSH2 0x227A JUMP JUMPDEST SWAP7 POP PUSH2 0x1BA4 DUP2 DUP8 PUSH2 0x227A JUMP JUMPDEST SWAP6 POP DUP2 DUP4 PUSH1 0x6 ADD PUSH1 0x0 DUP3 DUP3 SLOAD PUSH2 0x1BBA SWAP2 SWAP1 PUSH2 0x227A JUMP JUMPDEST SWAP3 POP POP DUP2 SWAP1 SSTORE POP POP POP POP DUP1 DUP1 PUSH2 0x1BCF SWAP1 PUSH2 0x235F JUMP JUMPDEST SWAP2 POP POP PUSH2 0x1B05 JUMP JUMPDEST POP PUSH1 0x0 DUP4 GT PUSH2 0x1C28 JUMPI PUSH1 0x40 MLOAD PUSH3 0x461BCD PUSH1 0xE5 SHL DUP2 MSTORE PUSH1 0x20 PUSH1 0x4 DUP3 ADD MSTORE PUSH1 0x13 PUSH1 0x24 DUP3 ADD MSTORE PUSH32 0x4E4F20746F6B656E7320746F20636C61696D2100000000000000000000000000 PUSH1 0x44 DUP3 ADD MSTORE PUSH1 0x64 ADD PUSH2 0x860 JUMP JUMPDEST PUSH1 0x0 SLOAD PUSH1 0x40 MLOAD PUSH4 0xA9059CBB PUSH1 0xE0 SHL DUP2 MSTORE CALLER PUSH1 0x4 DUP3 ADD MSTORE PUSH1 0x24 DUP2 ADD DUP6 SWAP1 MSTORE PUSH2 0x100 SWAP1 SWAP2 DIV PUSH1 0x1 PUSH1 0x1 PUSH1 0xA0 SHL SUB AND SWAP1 PUSH4 0xA9059CBB SWAP1 PUSH1 0x44 ADD PUSH1 0x20 PUSH1 0x40 MLOAD DUP1 DUP4 SUB DUP2 PUSH1 0x0 DUP8 GAS CALL ISZERO DUP1 ISZERO PUSH2 0x1C7D JUMPI RETURNDATASIZE PUSH1 0x0 DUP1 RETURNDATACOPY RETURNDATASIZE PUSH1 0x0 REVERT JUMPDEST POP POP POP POP PUSH1 0x40 MLOAD RETURNDATASIZE PUSH1 0x1F NOT PUSH1 0x1F DUP3 ADD AND DUP3 ADD DUP1 PUSH1 0x40 MSTORE POP DUP2 ADD SWAP1 PUSH2 0x1CA1 SWAP2 SWAP1 PUSH2 0x2241 JUMP JUMPDEST POP POP POP POP JUMP JUMPDEST CALLER PUSH1 0x1 PUSH1 0x1 PUSH1 0xA0 SHL SUB PUSH32 0x0 AND EQ PUSH2 0x1D18 JUMPI PUSH1 0x40 MLOAD PUSH3 0x461BCD PUSH1 0xE5 SHL DUP2 MSTORE PUSH1 0x20 PUSH1 0x4 DUP3 ADD MSTORE PUSH1 0x16 PUSH1 0x24 DUP3 ADD MSTORE PUSH22 0x596F75277265206E6F7420617574686F72697A656421 PUSH1 0x50 SHL PUSH1 0x44 DUP3 ADD MSTORE PUSH1 0x64 ADD PUSH2 0x860 JUMP JUMPDEST PUSH1 0x7 DUP1 SLOAD PUSH1 0xFF NOT AND PUSH1 0x1 OR SWAP1 SSTORE TIMESTAMP PUSH1 0xE SSTORE JUMP JUMPDEST PUSH1 0x1 PUSH1 0x1 PUSH1 0xA0 SHL SUB DUP2 AND PUSH1 0x0 SWAP1 DUP2 MSTORE PUSH1 0x11 PUSH1 0x20 MSTORE PUSH1 0x40 DUP2 KECCAK256 SLOAD DUP2 SWAP1 DUP2 JUMPDEST DUP2 DUP2 LT ISZERO PUSH2 0x1DFF JUMPI PUSH1 0x1 PUSH1 0x1 PUSH1 0xA0 SHL SUB DUP1 DUP7 AND PUSH1 0x0 SWAP1 DUP2 MSTORE PUSH1 0x10 PUSH1 0x20 SWAP1 DUP2 MSTORE PUSH1 0x40 DUP1 DUP4 KECCAK256 DUP6 DUP5 MSTORE DUP3 MSTORE DUP1 DUP4 KECCAK256 DUP2 MLOAD PUSH1 0xE0 DUP2 ADD DUP4 MSTORE DUP2 SLOAD SWAP1 SWAP6 AND DUP6 MSTORE PUSH1 0x1 DUP2 ADD SLOAD SWAP3 DUP6 ADD SWAP3 SWAP1 SWAP3 MSTORE PUSH1 0x2 DUP3 ADD SLOAD SWAP1 DUP5 ADD MSTORE PUSH1 0x3 DUP2 ADD SLOAD PUSH1 0x60 DUP5 ADD MSTORE PUSH1 0x4 DUP2 ADD SLOAD PUSH1 0x80 DUP5 ADD MSTORE PUSH1 0x5 DUP2 ADD SLOAD PUSH1 0xA0 DUP5 ADD MSTORE PUSH1 0x6 DUP2 ADD SLOAD PUSH1 0xC0 DUP5 ADD MSTORE SWAP2 DUP2 SWAP1 PUSH2 0x1DCC SWAP1 PUSH2 0x2060 JUMP JUMPDEST SWAP1 SWAP3 POP SWAP1 POP PUSH2 0x1DDB DUP3 DUP9 PUSH2 0x227A JUMP JUMPDEST SWAP7 POP PUSH2 0x1DE7 DUP2 DUP8 PUSH2 0x227A JUMP JUMPDEST SWAP6 POP POP POP POP DUP1 DUP1 PUSH2 0x1DF7 SWAP1 PUSH2 0x235F JUMP JUMPDEST SWAP2 POP POP PUSH2 0x1D48 JUMP JUMPDEST POP POP SWAP2 POP SWAP2 JUMP JUMPDEST CALLER PUSH1 0x1 PUSH1 0x1 PUSH1 0xA0 SHL SUB PUSH32 0x0 AND EQ PUSH2 0x1E77 JUMPI PUSH1 0x40 MLOAD PUSH3 0x461BCD PUSH1 0xE5 SHL DUP2 MSTORE PUSH1 0x20 PUSH1 0x4 DUP3 ADD MSTORE PUSH1 0x16 PUSH1 0x24 DUP3 ADD MSTORE PUSH22 0x596F75277265206E6F7420617574686F72697A656421 PUSH1 0x50 SHL PUSH1 0x44 DUP3 ADD MSTORE PUSH1 0x64 ADD PUSH2 0x860 JUMP JUMPDEST PUSH1 0x0 DUP2 GT PUSH2 0x1EC7 JUMPI PUSH1 0x40 MLOAD PUSH3 0x461BCD PUSH1 0xE5 SHL DUP2 MSTORE PUSH1 0x20 PUSH1 0x4 DUP3 ADD MSTORE PUSH1 0x12 PUSH1 0x24 DUP3 ADD MSTORE PUSH32 0x50726963652077696C6C206265203E2030210000000000000000000000000000 PUSH1 0x44 DUP3 ADD MSTORE PUSH1 0x64 ADD PUSH2 0x860 JUMP JUMPDEST DUP1 PUSH1 0x8 DUP4 DUP2 SLOAD DUP2 LT PUSH2 0x1674 JUMPI PUSH2 0x1674 PUSH2 0x22DF JUMP JUMPDEST DUP4 DUP4 LT ISZERO PUSH2 0x1F51 JUMPI PUSH1 0x40 MLOAD PUSH3 0x461BCD PUSH1 0xE5 SHL DUP2 MSTORE PUSH1 0x20 PUSH1 0x4 DUP3 ADD MSTORE PUSH1 0x27 PUSH1 0x24 DUP3 ADD MSTORE PUSH32 0x546F6B656E56657374696E673A206475726174696F6E206D757374206265203E PUSH1 0x44 DUP3 ADD MSTORE PUSH32 0x3D20636C69666600000000000000000000000000000000000000000000000000 PUSH1 0x64 DUP3 ADD MSTORE PUSH1 0x84 ADD PUSH2 0x860 JUMP JUMPDEST PUSH1 0x0 PUSH2 0x1F5D DUP6 DUP8 PUSH2 0x227A JUMP JUMPDEST PUSH1 0x1 PUSH1 0x1 PUSH1 0xA0 SHL SUB DUP9 AND PUSH1 0x0 SWAP1 DUP2 MSTORE PUSH1 0x11 PUSH1 0x20 MSTORE PUSH1 0x40 DUP2 KECCAK256 DUP1 SLOAD SWAP3 SWAP4 POP SWAP1 SWAP2 SWAP1 DUP3 PUSH2 0x1F87 DUP4 PUSH2 0x235F JUMP JUMPDEST SWAP1 SWAP2 SSTORE POP PUSH1 0x40 DUP1 MLOAD PUSH1 0xE0 DUP2 ADD DUP3 MSTORE PUSH1 0x1 PUSH1 0x1 PUSH1 0xA0 SHL SUB SWAP11 DUP12 AND DUP1 DUP3 MSTORE PUSH1 0x20 DUP1 DUP4 ADD SWAP7 DUP8 MSTORE DUP3 DUP5 ADD SWAP12 DUP13 MSTORE PUSH1 0x60 DUP4 ADD SWAP10 DUP11 MSTORE PUSH1 0x80 DUP4 ADD SWAP9 DUP10 MSTORE PUSH1 0xA0 DUP4 ADD SWAP8 DUP9 MSTORE PUSH1 0x0 PUSH1 0xC0 DUP5 ADD DUP2 DUP2 MSTORE SWAP3 DUP2 MSTORE PUSH1 0x10 DUP3 MSTORE DUP5 DUP2 KECCAK256 SWAP6 DUP2 MSTORE SWAP5 SWAP1 MSTORE SWAP2 SWAP1 SWAP3 KECCAK256 SWAP2 MLOAD DUP3 SLOAD PUSH32 0xFFFFFFFFFFFFFFFFFFFFFFFF0000000000000000000000000000000000000000 AND SWAP11 AND SWAP10 SWAP1 SWAP10 OR DUP2 SSTORE SWAP2 MLOAD PUSH1 0x1 DUP4 ADD SSTORE POP SWAP5 MLOAD PUSH1 0x2 DUP7 ADD SSTORE SWAP2 MLOAD PUSH1 0x3 DUP6 ADD SSTORE MLOAD PUSH1 0x4 DUP5 ADD SSTORE MLOAD PUSH1 0x5 DUP4 ADD SSTORE POP SWAP1 MLOAD PUSH1 0x6 SWAP1 SWAP2 ADD SSTORE JUMP JUMPDEST PUSH1 0x0 DUP1 PUSH2 0x2049 PUSH2 0x18B1 JUMP JUMPDEST SWAP3 POP POP POP PUSH1 0x0 DUP2 DUP5 PUSH4 0x3B9ACA00 PUSH2 0x1381 SWAP2 SWAP1 PUSH2 0x2263 JUMP JUMPDEST PUSH1 0x0 DUP1 PUSH1 0x0 TIMESTAMP SWAP1 POP PUSH1 0x0 DUP5 PUSH1 0x20 ADD MLOAD DUP3 LT ISZERO PUSH2 0x2097 JUMPI PUSH1 0x0 DUP6 PUSH1 0xC0 ADD MLOAD DUP7 PUSH1 0xA0 ADD MLOAD PUSH2 0x208C SWAP2 SWAP1 PUSH2 0x2228 JUMP JUMPDEST SWAP4 POP SWAP4 POP POP POP SWAP2 POP SWAP2 JUMP JUMPDEST DUP5 PUSH1 0x60 ADD MLOAD DUP6 PUSH1 0x40 ADD MLOAD PUSH2 0x20AB SWAP2 SWAP1 PUSH2 0x227A JUMP JUMPDEST DUP3 LT PUSH2 0x20D1 JUMPI DUP5 PUSH1 0xC0 ADD MLOAD DUP6 PUSH1 0xA0 ADD MLOAD PUSH2 0x20C5 SWAP2 SWAP1 PUSH2 0x2228 JUMP JUMPDEST SWAP6 PUSH1 0x0 SWAP6 POP SWAP4 POP POP POP POP JUMP JUMPDEST PUSH1 0x0 DUP6 PUSH1 0x20 ADD MLOAD DUP4 PUSH2 0x20E3 SWAP2 SWAP1 PUSH2 0x2228 JUMP JUMPDEST PUSH1 0x80 DUP8 ADD MLOAD SWAP1 SWAP2 POP PUSH1 0x0 PUSH2 0x20F7 DUP3 DUP5 PUSH2 0x228D JUMP JUMPDEST SWAP1 POP PUSH1 0x0 PUSH2 0x2105 DUP4 DUP4 PUSH2 0x2263 JUMP JUMPDEST SWAP1 POP DUP9 PUSH1 0x60 ADD MLOAD DUP2 DUP11 PUSH1 0xA0 ADD MLOAD PUSH2 0x211C SWAP2 SWAP1 PUSH2 0x2263 JUMP JUMPDEST PUSH2 0x2126 SWAP2 SWAP1 PUSH2 0x228D JUMP JUMPDEST SWAP5 POP POP POP POP POP PUSH1 0xC0 DUP6 ADD MLOAD PUSH2 0x213B SWAP1 DUP3 PUSH2 0x2228 JUMP JUMPDEST SWAP4 POP DUP1 DUP6 PUSH1 0xA0 ADD MLOAD PUSH2 0x214D SWAP2 SWAP1 PUSH2 0x2228 JUMP JUMPDEST SWAP3 POP POP POP SWAP2 POP SWAP2 JUMP JUMPDEST PUSH1 0x0 PUSH1 0x20 DUP3 DUP5 SUB SLT ISZERO PUSH2 0x2168 JUMPI PUSH1 0x0 DUP1 REVERT JUMPDEST POP CALLDATALOAD SWAP2 SWAP1 POP JUMP JUMPDEST DUP1 CALLDATALOAD PUSH1 0x1 PUSH1 0x1 PUSH1 0xA0 SHL SUB DUP2 AND DUP2 EQ PUSH2 0x2186 JUMPI PUSH1 0x0 DUP1 REVERT JUMPDEST SWAP2 SWAP1 POP JUMP JUMPDEST PUSH1 0x0 PUSH1 0x20 DUP3 DUP5 SUB SLT ISZERO PUSH2 0x219D JUMPI PUSH1 0x0 DUP1 REVERT JUMPDEST PUSH2 0x21A6 DUP3 PUSH2 0x216F JUMP JUMPDEST SWAP4 SWAP3 POP POP POP JUMP JUMPDEST PUSH1 0x0 DUP1 PUSH1 0x40 DUP4 DUP6 SUB SLT ISZERO PUSH2 0x21C0 JUMPI PUSH1 0x0 DUP1 REVERT JUMPDEST PUSH2 0x21C9 DUP4 PUSH2 0x216F JUMP JUMPDEST SWAP5 PUSH1 0x20 SWAP4 SWAP1 SWAP4 ADD CALLDATALOAD SWAP4 POP POP POP JUMP JUMPDEST PUSH1 0x0 DUP1 PUSH1 0x40 DUP4 DUP6 SUB SLT ISZERO PUSH2 0x21EA JUMPI PUSH1 0x0 DUP1 REVERT JUMPDEST POP POP DUP1 CALLDATALOAD SWAP3 PUSH1 0x20 SWAP1 SWAP2 ADD CALLDATALOAD SWAP2 POP JUMP JUMPDEST PUSH1 0x0 PUSH1 0x20 DUP3 DUP5 SUB SLT ISZERO PUSH2 0x220B JUMPI PUSH1 0x0 DUP1 REVERT JUMPDEST POP MLOAD SWAP2 SWAP1 POP JUMP JUMPDEST PUSH4 0x4E487B71 PUSH1 0xE0 SHL PUSH1 0x0 MSTORE PUSH1 0x11 PUSH1 0x4 MSTORE PUSH1 0x24 PUSH1 0x0 REVERT JUMPDEST DUP2 DUP2 SUB DUP2 DUP2 GT ISZERO PUSH2 0x223B JUMPI PUSH2 0x223B PUSH2 0x2212 JUMP JUMPDEST SWAP3 SWAP2 POP POP JUMP JUMPDEST PUSH1 0x0 PUSH1 0x20 DUP3 DUP5 SUB SLT ISZERO PUSH2 0x2253 JUMPI PUSH1 0x0 DUP1 REVERT JUMPDEST DUP2 MLOAD DUP1 ISZERO ISZERO DUP2 EQ PUSH2 0x21A6 JUMPI PUSH1 0x0 DUP1 REVERT JUMPDEST DUP1 DUP3 MUL DUP2 ISZERO DUP3 DUP3 DIV DUP5 EQ OR PUSH2 0x223B JUMPI PUSH2 0x223B PUSH2 0x2212 JUMP JUMPDEST DUP1 DUP3 ADD DUP1 DUP3 GT ISZERO PUSH2 0x223B JUMPI PUSH2 0x223B PUSH2 0x2212 JUMP JUMPDEST PUSH1 0x0 DUP3 PUSH2 0x22AA JUMPI PUSH4 0x4E487B71 PUSH1 0xE0 SHL PUSH1 0x0 MSTORE PUSH1 0x12 PUSH1 0x4 MSTORE PUSH1 0x24 PUSH1 0x0 REVERT JUMPDEST POP DIV SWAP1 JUMP JUMPDEST DUP1 DUP3 MUL PUSH1 0x0 DUP3 SLT PUSH1 0x1 PUSH1 0xFF SHL DUP5 EQ AND ISZERO PUSH2 0x22CB JUMPI PUSH2 0x22CB PUSH2 0x2212 JUMP JUMPDEST DUP2 DUP2 SDIV DUP4 EQ DUP3 ISZERO OR PUSH2 0x223B JUMPI PUSH2 0x223B PUSH2 0x2212 JUMP JUMPDEST PUSH4 0x4E487B71 PUSH1 0xE0 SHL PUSH1 0x0 MSTORE PUSH1 0x32 PUSH1 0x4 MSTORE PUSH1 0x24 PUSH1 0x0 REVERT JUMPDEST DUP1 MLOAD PUSH10 0xFFFFFFFFFFFFFFFFFFFF DUP2 AND DUP2 EQ PUSH2 0x2186 JUMPI PUSH1 0x0 DUP1 REVERT JUMPDEST PUSH1 0x0 DUP1 PUSH1 0x0 DUP1 PUSH1 0x0 PUSH1 0xA0 DUP7 DUP9 SUB SLT ISZERO PUSH2 0x2327 JUMPI PUSH1 0x0 DUP1 REVERT JUMPDEST PUSH2 0x2330 DUP7 PUSH2 0x22F5 JUMP JUMPDEST SWAP5 POP PUSH1 0x20 DUP7 ADD MLOAD SWAP4 POP PUSH1 0x40 DUP7 ADD MLOAD SWAP3 POP PUSH1 0x60 DUP7 ADD MLOAD SWAP2 POP PUSH2 0x2353 PUSH1 0x80 DUP8 ADD PUSH2 0x22F5 JUMP JUMPDEST SWAP1 POP SWAP3 SWAP6 POP SWAP3 SWAP6 SWAP1 SWAP4 POP JUMP JUMPDEST PUSH1 0x0 PUSH1 0x1 DUP3 ADD PUSH2 0x2371 JUMPI PUSH2 0x2371 PUSH2 0x2212 JUMP JUMPDEST POP PUSH1 0x1 ADD SWAP1 JUMP INVALID LOG1 PUSH5 0x736F6C6343 STOP ADDMOD EQ STOP EXP "},"methodIdentifiers":{"admin()":"f851a440","buyWithEth()":"11b5444f","buyWithToken(address,uint256)":"6e33a831","claimReleasableTokens()":"cf8a8cd0","cliffPeriod()":"2f661946","convertDaiToEth(uint256)":"a2209a14","convertEthToUsd(uint256)":"c086381e","dai()":"f4b9fa75","daiPriceInEth()":"b71b14e8","daiPricePerPhase(uint256)":"2a04d7c1","ethPriceInUSD()":"891a8b85","getGrlPrice()":"bf8eb3d4","getReleaseableAmount(address)":"d517562d","getVestingUserCount(address)":"4bb127c3","grl()":"0e281f66","grlOfDai(uint256)":"81c639e9","grlOfEth(uint256)":"780f9ec1","immediatePercentageReleased()":"bcb1798b","isGCOStarted()":"6af9caac","phaseDuration()":"ac5553ce","setCliffeDuration(uint256)":"aee1e3a2","setPercentageReleased(uint256)":"6df8b8e4","setPhaseDuration(uint256)":"bc1862ca","setPrice(uint256,uint256)":"f7d97577","setUsdtPrice(uint256,uint256)":"a7fa93e1","setVestingDuration(uint256)":"0ffbdcaa","slicePeriod()":"5afd6eb8","startGCO()":"d083e241","tokensPerPhase()":"ced5e2e7","tokensSold()":"518ab2a8","totalTokens()":"7e1c0c09","usdc()":"3e413bee","usdt()":"2f48ab7d","usdtPricePerPhase(uint256)":"ca489ca5","vestDuration()":"94761e2a","vestedUserDetail(address,uint256)":"5edfc4d3","withdrawEth()":"a0ef91df","withdrawGrl()":"0b9b199d"}},"storageLayout":{"storage":[{"astId":3793,"contract":"contracts/SeedRoundIco.sol:ICO","label":"locked","offset":0,"slot":"0","type":"t_bool"},{"astId":3839,"contract":"contracts/SeedRoundIco.sol:ICO","label":"grl","offset":1,"slot":"0","type":"t_contract(IERC20)3791"},{"astId":3845,"contract":"contracts/SeedRoundIco.sol:ICO","label":"dai","offset":0,"slot":"1","type":"t_contract(IERC20)3791"},{"astId":3851,"contract":"contracts/SeedRoundIco.sol:ICO","label":"usdt","offset":0,"slot":"2","type":"t_contract(IERC20)3791"},{"astId":3857,"contract":"contracts/SeedRoundIco.sol:ICO","label":"usdc","offset":0,"slot":"3","type":"t_contract(IERC20)3791"},{"astId":3863,"contract":"contracts/SeedRoundIco.sol:ICO","label":"ethToUsdPriceFeed","offset":0,"slot":"4","type":"t_contract(AggregatorV3Interface)3831"},{"astId":3869,"contract":"contracts/SeedRoundIco.sol:ICO","label":"daiToEthPriceFeed","offset":0,"slot":"5","type":"t_contract(AggregatorV3Interface)3831"},{"astId":3884,"contract":"contracts/SeedRoundIco.sol:ICO","label":"tokensSold","offset":0,"slot":"6","type":"t_uint256"},{"astId":3886,"contract":"contracts/SeedRoundIco.sol:ICO","label":"isGCOStarted","offset":0,"slot":"7","type":"t_bool"},{"astId":3902,"contract":"contracts/SeedRoundIco.sol:ICO","label":"daiPricePerPhase","offset":0,"slot":"8","type":"t_array(t_uint256)dyn_storage"},{"astId":3905,"contract":"contracts/SeedRoundIco.sol:ICO","label":"usdtPricePerPhase","offset":0,"slot":"9","type":"t_array(t_uint256)dyn_storage"},{"astId":3908,"contract":"contracts/SeedRoundIco.sol:ICO","label":"vestDuration","offset":0,"slot":"10","type":"t_uint256"},{"astId":3911,"contract":"contracts/SeedRoundIco.sol:ICO","label":"cliffPeriod","offset":0,"slot":"11","type":"t_uint256"},{"astId":3914,"contract":"contracts/SeedRoundIco.sol:ICO","label":"slicePeriod","offset":0,"slot":"12","type":"t_uint256"},{"astId":3917,"contract":"contracts/SeedRoundIco.sol:ICO","label":"immediatePercentageReleased","offset":0,"slot":"13","type":"t_uint256"},{"astId":3919,"contract":"contracts/SeedRoundIco.sol:ICO","label":"startTime","offset":0,"slot":"14","type":"t_uint256"},{"astId":3921,"contract":"contracts/SeedRoundIco.sol:ICO","label":"phaseDuration","offset":0,"slot":"15","type":"t_uint256"},{"astId":3943,"contract":"contracts/SeedRoundIco.sol:ICO","label":"vestedUserDetail","offset":0,"slot":"16","type":"t_mapping(t_address,t_mapping(t_uint256,t_struct(VestingSchedule)3936_storage))"},{"astId":3947,"contract":"contracts/SeedRoundIco.sol:ICO","label":"holdersVestingCount","offset":0,"slot":"17","type":"t_mapping(t_address,t_uint256)"}],"types":{"t_address":{"encoding":"inplace","label":"address","numberOfBytes":"20"},"t_array(t_uint256)dyn_storage":{"base":"t_uint256","encoding":"dynamic_array","label":"uint256[]","numberOfBytes":"32"},"t_bool":{"encoding":"inplace","label":"bool","numberOfBytes":"1"},"t_contract(AggregatorV3Interface)3831":{"encoding":"inplace","label":"contract AggregatorV3Interface","numberOfBytes":"20"},"t_contract(IERC20)3791":{"encoding":"inplace","label":"contract IERC20","numberOfBytes":"20"},"t_mapping(t_address,t_mapping(t_uint256,t_struct(VestingSchedule)3936_storage))":{"encoding":"mapping","key":"t_address","label":"mapping(address => mapping(uint256 => struct ICO.VestingSchedule))","numberOfBytes":"32","value":"t_mapping(t_uint256,t_struct(VestingSchedule)3936_storage)"},"t_mapping(t_address,t_uint256)":{"encoding":"mapping","key":"t_address","label":"mapping(address => uint256)","numberOfBytes":"32","value":"t_uint256"},"t_mapping(t_uint256,t_struct(VestingSchedule)3936_storage)":{"encoding":"mapping","key":"t_uint256","label":"mapping(uint256 => struct ICO.VestingSchedule)","numberOfBytes":"32","value":"t_struct(VestingSchedule)3936_storage"},"t_struct(VestingSchedule)3936_storage":{"encoding":"inplace","label":"struct ICO.VestingSchedule","members":[{"astId":3923,"contract":"contracts/SeedRoundIco.sol:ICO","label":"beneficiary","offset":0,"slot":"0","type":"t_address"},{"astId":3925,"contract":"contracts/SeedRoundIco.sol:ICO","label":"cliff","offset":0,"slot":"1","type":"t_uint256"},{"astId":3927,"contract":"contracts/SeedRoundIco.sol:ICO","label":"start","offset":0,"slot":"2","type":"t_uint256"},{"astId":3929,"contract":"contracts/SeedRoundIco.sol:ICO","label":"duration","offset":0,"slot":"3","type":"t_uint256"},{"astId":3931,"contract":"contracts/SeedRoundIco.sol:ICO","label":"slicePeriodSeconds","offset":0,"slot":"4","type":"t_uint256"},{"astId":3933,"contract":"contracts/SeedRoundIco.sol:ICO","label":"amountTotal","offset":0,"slot":"5","type":"t_uint256"},{"astId":3935,"contract":"contracts/SeedRoundIco.sol:ICO","label":"released","offset":0,"slot":"6","type":"t_uint256"}],"numberOfBytes":"224"},"t_uint256":{"encoding":"inplace","label":"uint256","numberOfBytes":"32"}}}}}}