{
	"contracts\\BaseNFT.sol": {
		"BaseNFT": {
			"abi": [
				{
					"inputs": [],
					"stateMutability": "nonpayable",
					"type": "constructor"
				},
				{
					"anonymous": false,
					"inputs": [
						{
							"indexed": true,
							"internalType": "address",
							"name": "owner",
							"type": "address"
						},
						{
							"indexed": true,
							"internalType": "address",
							"name": "approved",
							"type": "address"
						},
						{
							"indexed": true,
							"internalType": "uint256",
							"name": "tokenId",
							"type": "uint256"
						}
					],
					"name": "Approval",
					"type": "event"
				},
				{
					"anonymous": false,
					"inputs": [
						{
							"indexed": true,
							"internalType": "address",
							"name": "owner",
							"type": "address"
						},
						{
							"indexed": true,
							"internalType": "address",
							"name": "operator",
							"type": "address"
						},
						{
							"indexed": false,
							"internalType": "bool",
							"name": "approved",
							"type": "bool"
						}
					],
					"name": "ApprovalForAll",
					"type": "event"
				},
				{
					"anonymous": false,
					"inputs": [
						{
							"indexed": true,
							"internalType": "address",
							"name": "previousOwner",
							"type": "address"
						},
						{
							"indexed": true,
							"internalType": "address",
							"name": "newOwner",
							"type": "address"
						}
					],
					"name": "OwnershipTransferred",
					"type": "event"
				},
				{
					"anonymous": false,
					"inputs": [
						{
							"indexed": true,
							"internalType": "address",
							"name": "from",
							"type": "address"
						},
						{
							"indexed": true,
							"internalType": "address",
							"name": "to",
							"type": "address"
						},
						{
							"indexed": true,
							"internalType": "uint256",
							"name": "tokenId",
							"type": "uint256"
						}
					],
					"name": "Transfer",
					"type": "event"
				},
				{
					"inputs": [
						{
							"internalType": "address",
							"name": "owner",
							"type": "address"
						}
					],
					"name": "balanceOf",
					"outputs": [
						{
							"internalType": "uint256",
							"name": "",
							"type": "uint256"
						}
					],
					"stateMutability": "view",
					"type": "function"
				},
				{
					"inputs": [
						{
							"internalType": "address",
							"name": "_user",
							"type": "address"
						},
						{
							"internalType": "uint256",
							"name": "_tokenId",
							"type": "uint256"
						},
						{
							"internalType": "string",
							"name": "_uri",
							"type": "string"
						}
					],
					"name": "mint",
					"outputs": [],
					"stateMutability": "nonpayable",
					"type": "function"
				},
				{
					"inputs": [],
					"name": "name",
					"outputs": [
						{
							"internalType": "string",
							"name": "",
							"type": "string"
						}
					],
					"stateMutability": "view",
					"type": "function"
				},
				{
					"inputs": [],
					"name": "owner",
					"outputs": [
						{
							"internalType": "address",
							"name": "",
							"type": "address"
						}
					],
					"stateMutability": "view",
					"type": "function"
				},
				{
					"inputs": [
						{
							"internalType": "uint256",
							"name": "tokenId",
							"type": "uint256"
						}
					],
					"name": "ownerOf",
					"outputs": [
						{
							"internalType": "address",
							"name": "",
							"type": "address"
						}
					],
					"stateMutability": "view",
					"type": "function"
				},
				{
					"inputs": [
						{
							"internalType": "bytes4",
							"name": "interfaceId",
							"type": "bytes4"
						}
					],
					"name": "supportsInterface",
					"outputs": [
						{
							"internalType": "bool",
							"name": "",
							"type": "bool"
						}
					],
					"stateMutability": "view",
					"type": "function"
				},
				{
					"inputs": [],
					"name": "symbol",
					"outputs": [
						{
							"internalType": "string",
							"name": "",
							"type": "string"
						}
					],
					"stateMutability": "view",
					"type": "function"
				},
				{
					"inputs": [
						{
							"internalType": "uint256",
							"name": "tokenId",
							"type": "uint256"
						}
					],
					"name": "tokenURI",
					"outputs": [
						{
							"internalType": "string",
							"name": "",
							"type": "string"
						}
					],
					"stateMutability": "view",
					"type": "function"
				},
				{
					"inputs": [],
					"name": "totalSupply",
					"outputs": [
						{
							"internalType": "uint256",
							"name": "",
							"type": "uint256"
						}
					],
					"stateMutability": "view",
					"type": "function"
				},
				{
					"inputs": [
						{
							"internalType": "address",
							"name": "newOwner",
							"type": "address"
						}
					],
					"name": "transferOwnership",
					"outputs": [],
					"stateMutability": "nonpayable",
					"type": "function"
				}
			],
			"devdoc": {
				"kind": "dev",
				"methods": {},
				"version": 1
			},
			"evm": {
				"assembly": "    /* \"contracts\\\\BaseNFT.sol\":18364:19500  contract BaseNFT is ERC721Enumerable, ERC721URIStorage, Ownable {... */\n  mstore(0x40, 0x80)\n    /* \"contracts\\\\BaseNFT.sol\":18435:18477  constructor() ERC721(\"Base NFT\", \"BNP\") {} */\n  callvalue\n  dup1\n  iszero\n  tag_1\n  jumpi\n  0x00\n  dup1\n  revert\ntag_1:\n  pop\n    /* \"contracts\\\\BaseNFT.sol\":8532:8648  constructor(string memory name_, string memory symbol_) {... */\n  mload(0x40)\n  dup1\n  0x40\n  add\n  0x40\n  mstore\n  dup1\n  0x08\n  dup2\n  mstore\n  0x20\n  add\n  0x42617365204e4654000000000000000000000000000000000000000000000000\n  dup2\n  mstore\n  pop\n  mload(0x40)\n  dup1\n  0x40\n  add\n  0x40\n  mstore\n  dup1\n  0x03\n  dup2\n  mstore\n  0x20\n  add\n  0x424e500000000000000000000000000000000000000000000000000000000000\n  dup2\n  mstore\n  pop\n    /* \"contracts\\\\BaseNFT.sol\":8607:8612  name_ */\n  dup2\n    /* \"contracts\\\\BaseNFT.sol\":8599:8604  _name */\n  0x00\n    /* \"contracts\\\\BaseNFT.sol\":8599:8612  _name = name_ */\n  swap1\n  dup2\n  tag_6\n  swap2\n  swap1\n  tag_7\n  jump\t// in\ntag_6:\n  pop\n    /* \"contracts\\\\BaseNFT.sol\":8633:8640  symbol_ */\n  dup1\n    /* \"contracts\\\\BaseNFT.sol\":8623:8630  _symbol */\n  0x01\n    /* \"contracts\\\\BaseNFT.sol\":8623:8640  _symbol = symbol_ */\n  swap1\n  dup2\n  tag_8\n  swap2\n  swap1\n  tag_7\n  jump\t// in\ntag_8:\n  pop\n    /* \"contracts\\\\BaseNFT.sol\":8532:8648  constructor(string memory name_, string memory symbol_) {... */\n  pop\n  pop\n    /* \"contracts\\\\BaseNFT.sol\":5904:5936  _transferOwnership(_msgSender()) */\n  tag_10\n    /* \"contracts\\\\BaseNFT.sol\":5923:5935  _msgSender() */\n  tag_11\n    /* \"contracts\\\\BaseNFT.sol\":5923:5933  _msgSender */\n  shl(0x20, tag_12)\n    /* \"contracts\\\\BaseNFT.sol\":5923:5935  _msgSender() */\n  0x20\n  shr\n  jump\t// in\ntag_11:\n    /* \"contracts\\\\BaseNFT.sol\":5904:5922  _transferOwnership */\n  shl(0x20, tag_13)\n    /* \"contracts\\\\BaseNFT.sol\":5904:5936  _transferOwnership(_msgSender()) */\n  0x20\n  shr\n  jump\t// in\ntag_10:\n    /* \"contracts\\\\BaseNFT.sol\":18364:19500  contract BaseNFT is ERC721Enumerable, ERC721URIStorage, Ownable {... */\n  jump(tag_15)\n    /* \"contracts\\\\BaseNFT.sol\":5473:5571  function _msgSender() internal view virtual returns (address) {... */\ntag_12:\n    /* \"contracts\\\\BaseNFT.sol\":5526:5533  address */\n  0x00\n    /* \"contracts\\\\BaseNFT.sol\":5553:5563  msg.sender */\n  caller\n    /* \"contracts\\\\BaseNFT.sol\":5546:5563  return msg.sender */\n  swap1\n  pop\n    /* \"contracts\\\\BaseNFT.sol\":5473:5571  function _msgSender() internal view virtual returns (address) {... */\n  swap1\n  jump\t// out\n    /* \"contracts\\\\BaseNFT.sol\":6421:6612  function _transferOwnership(address newOwner) internal virtual {... */\ntag_13:\n    /* \"contracts\\\\BaseNFT.sol\":6495:6511  address oldOwner */\n  0x00\n    /* \"contracts\\\\BaseNFT.sol\":6514:6520  _owner */\n  0x0b\n  0x00\n  swap1\n  sload\n  swap1\n  0x0100\n  exp\n  swap1\n  div\n  0xffffffffffffffffffffffffffffffffffffffff\n  and\n    /* \"contracts\\\\BaseNFT.sol\":6495:6520  address oldOwner = _owner */\n  swap1\n  pop\n    /* \"contracts\\\\BaseNFT.sol\":6540:6548  newOwner */\n  dup2\n    /* \"contracts\\\\BaseNFT.sol\":6531:6537  _owner */\n  0x0b\n  0x00\n    /* \"contracts\\\\BaseNFT.sol\":6531:6548  _owner = newOwner */\n  0x0100\n  exp\n  dup2\n  sload\n  dup2\n  0xffffffffffffffffffffffffffffffffffffffff\n  mul\n  not\n  and\n  swap1\n  dup4\n  0xffffffffffffffffffffffffffffffffffffffff\n  and\n  mul\n  or\n  swap1\n  sstore\n  pop\n    /* \"contracts\\\\BaseNFT.sol\":6595:6603  newOwner */\n  dup2\n    /* \"contracts\\\\BaseNFT.sol\":6564:6604  OwnershipTransferred(oldOwner, newOwner) */\n  0xffffffffffffffffffffffffffffffffffffffff\n  and\n    /* \"contracts\\\\BaseNFT.sol\":6585:6593  oldOwner */\n  dup2\n    /* \"contracts\\\\BaseNFT.sol\":6564:6604  OwnershipTransferred(oldOwner, newOwner) */\n  0xffffffffffffffffffffffffffffffffffffffff\n  and\n  0x8be0079c531659141344cd1fd0a4f28419497f9722a3daafe3b4186f6b6457e0\n  mload(0x40)\n  mload(0x40)\n  dup1\n  swap2\n  sub\n  swap1\n  log3\n    /* \"contracts\\\\BaseNFT.sol\":6484:6612  {... */\n  pop\n    /* \"contracts\\\\BaseNFT.sol\":6421:6612  function _transferOwnership(address newOwner) internal virtual {... */\n  pop\n  jump\t// out\n    /* \"#utility.yul\":7:106   */\ntag_18:\n    /* \"#utility.yul\":59:65   */\n  0x00\n    /* \"#utility.yul\":93:98   */\n  dup2\n    /* \"#utility.yul\":87:99   */\n  mload\n    /* \"#utility.yul\":77:99   */\n  swap1\n  pop\n    /* \"#utility.yul\":7:106   */\n  swap2\n  swap1\n  pop\n  jump\t// out\n    /* \"#utility.yul\":112:292   */\ntag_19:\n    /* \"#utility.yul\":160:237   */\n  0x4e487b7100000000000000000000000000000000000000000000000000000000\n    /* \"#utility.yul\":157:158   */\n  0x00\n    /* \"#utility.yul\":150:238   */\n  mstore\n    /* \"#utility.yul\":257:261   */\n  0x41\n    /* \"#utility.yul\":254:255   */\n  0x04\n    /* \"#utility.yul\":247:262   */\n  mstore\n    /* \"#utility.yul\":281:285   */\n  0x24\n    /* \"#utility.yul\":278:279   */\n  0x00\n    /* \"#utility.yul\":271:286   */\n  revert\n    /* \"#utility.yul\":298:478   */\ntag_20:\n    /* \"#utility.yul\":346:423   */\n  0x4e487b7100000000000000000000000000000000000000000000000000000000\n    /* \"#utility.yul\":343:344   */\n  0x00\n    /* \"#utility.yul\":336:424   */\n  mstore\n    /* \"#utility.yul\":443:447   */\n  0x22\n    /* \"#utility.yul\":440:441   */\n  0x04\n    /* \"#utility.yul\":433:448   */\n  mstore\n    /* \"#utility.yul\":467:471   */\n  0x24\n    /* \"#utility.yul\":464:465   */\n  0x00\n    /* \"#utility.yul\":457:472   */\n  revert\n    /* \"#utility.yul\":484:804   */\ntag_21:\n    /* \"#utility.yul\":528:534   */\n  0x00\n    /* \"#utility.yul\":565:566   */\n  0x02\n    /* \"#utility.yul\":559:563   */\n  dup3\n    /* \"#utility.yul\":555:567   */\n  div\n    /* \"#utility.yul\":545:567   */\n  swap1\n  pop\n    /* \"#utility.yul\":612:613   */\n  0x01\n    /* \"#utility.yul\":606:610   */\n  dup3\n    /* \"#utility.yul\":602:614   */\n  and\n    /* \"#utility.yul\":633:651   */\n  dup1\n    /* \"#utility.yul\":623:704   */\n  tag_43\n  jumpi\n    /* \"#utility.yul\":689:693   */\n  0x7f\n    /* \"#utility.yul\":681:687   */\n  dup3\n    /* \"#utility.yul\":677:694   */\n  and\n    /* \"#utility.yul\":667:694   */\n  swap2\n  pop\n    /* \"#utility.yul\":623:704   */\ntag_43:\n    /* \"#utility.yul\":751:753   */\n  0x20\n    /* \"#utility.yul\":743:749   */\n  dup3\n    /* \"#utility.yul\":740:754   */\n  lt\n    /* \"#utility.yul\":720:738   */\n  dup2\n    /* \"#utility.yul\":717:755   */\n  sub\n    /* \"#utility.yul\":714:798   */\n  tag_44\n  jumpi\n    /* \"#utility.yul\":770:788   */\n  tag_45\n  tag_20\n  jump\t// in\ntag_45:\n    /* \"#utility.yul\":714:798   */\ntag_44:\n    /* \"#utility.yul\":535:804   */\n  pop\n    /* \"#utility.yul\":484:804   */\n  swap2\n  swap1\n  pop\n  jump\t// out\n    /* \"#utility.yul\":810:951   */\ntag_22:\n    /* \"#utility.yul\":859:863   */\n  0x00\n    /* \"#utility.yul\":882:885   */\n  dup2\n    /* \"#utility.yul\":874:885   */\n  swap1\n  pop\n    /* \"#utility.yul\":905:908   */\n  dup2\n    /* \"#utility.yul\":902:903   */\n  0x00\n    /* \"#utility.yul\":895:909   */\n  mstore\n    /* \"#utility.yul\":939:943   */\n  0x20\n    /* \"#utility.yul\":936:937   */\n  0x00\n    /* \"#utility.yul\":926:944   */\n  keccak256\n    /* \"#utility.yul\":918:944   */\n  swap1\n  pop\n    /* \"#utility.yul\":810:951   */\n  swap2\n  swap1\n  pop\n  jump\t// out\n    /* \"#utility.yul\":957:1050   */\ntag_23:\n    /* \"#utility.yul\":994:1000   */\n  0x00\n    /* \"#utility.yul\":1041:1043   */\n  0x20\n    /* \"#utility.yul\":1036:1038   */\n  0x1f\n    /* \"#utility.yul\":1029:1034   */\n  dup4\n    /* \"#utility.yul\":1025:1039   */\n  add\n    /* \"#utility.yul\":1021:1044   */\n  div\n    /* \"#utility.yul\":1011:1044   */\n  swap1\n  pop\n    /* \"#utility.yul\":957:1050   */\n  swap2\n  swap1\n  pop\n  jump\t// out\n    /* \"#utility.yul\":1056:1163   */\ntag_24:\n    /* \"#utility.yul\":1100:1108   */\n  0x00\n    /* \"#utility.yul\":1150:1155   */\n  dup3\n    /* \"#utility.yul\":1144:1148   */\n  dup3\n    /* \"#utility.yul\":1140:1156   */\n  shl\n    /* \"#utility.yul\":1119:1156   */\n  swap1\n  pop\n    /* \"#utility.yul\":1056:1163   */\n  swap3\n  swap2\n  pop\n  pop\n  jump\t// out\n    /* \"#utility.yul\":1169:1562   */\ntag_25:\n    /* \"#utility.yul\":1238:1244   */\n  0x00\n    /* \"#utility.yul\":1288:1289   */\n  0x08\n    /* \"#utility.yul\":1276:1286   */\n  dup4\n    /* \"#utility.yul\":1272:1290   */\n  mul\n    /* \"#utility.yul\":1311:1408   */\n  tag_50\n    /* \"#utility.yul\":1341:1407   */\n  0xffffffffffffffffffffffffffffffffffffffffffffffffffffffffffffffff\n    /* \"#utility.yul\":1330:1339   */\n  dup3\n    /* \"#utility.yul\":1311:1408   */\n  tag_24\n  jump\t// in\ntag_50:\n    /* \"#utility.yul\":1429:1468   */\n  tag_51\n    /* \"#utility.yul\":1459:1467   */\n  dup7\n    /* \"#utility.yul\":1448:1457   */\n  dup4\n    /* \"#utility.yul\":1429:1468   */\n  tag_24\n  jump\t// in\ntag_51:\n    /* \"#utility.yul\":1417:1468   */\n  swap6\n  pop\n    /* \"#utility.yul\":1501:1505   */\n  dup1\n    /* \"#utility.yul\":1497:1506   */\n  not\n    /* \"#utility.yul\":1490:1495   */\n  dup5\n    /* \"#utility.yul\":1486:1507   */\n  and\n    /* \"#utility.yul\":1477:1507   */\n  swap4\n  pop\n    /* \"#utility.yul\":1550:1554   */\n  dup1\n    /* \"#utility.yul\":1540:1548   */\n  dup7\n    /* \"#utility.yul\":1536:1555   */\n  and\n    /* \"#utility.yul\":1529:1534   */\n  dup5\n    /* \"#utility.yul\":1526:1556   */\n  or\n    /* \"#utility.yul\":1516:1556   */\n  swap3\n  pop\n    /* \"#utility.yul\":1245:1562   */\n  pop\n  pop\n    /* \"#utility.yul\":1169:1562   */\n  swap4\n  swap3\n  pop\n  pop\n  pop\n  jump\t// out\n    /* \"#utility.yul\":1568:1645   */\ntag_26:\n    /* \"#utility.yul\":1605:1612   */\n  0x00\n    /* \"#utility.yul\":1634:1639   */\n  dup2\n    /* \"#utility.yul\":1623:1639   */\n  swap1\n  pop\n    /* \"#utility.yul\":1568:1645   */\n  swap2\n  swap1\n  pop\n  jump\t// out\n    /* \"#utility.yul\":1651:1711   */\ntag_27:\n    /* \"#utility.yul\":1679:1682   */\n  0x00\n    /* \"#utility.yul\":1700:1705   */\n  dup2\n    /* \"#utility.yul\":1693:1705   */\n  swap1\n  pop\n    /* \"#utility.yul\":1651:1711   */\n  swap2\n  swap1\n  pop\n  jump\t// out\n    /* \"#utility.yul\":1717:1859   */\ntag_28:\n    /* \"#utility.yul\":1767:1776   */\n  0x00\n    /* \"#utility.yul\":1800:1853   */\n  tag_55\n    /* \"#utility.yul\":1818:1852   */\n  tag_56\n    /* \"#utility.yul\":1827:1851   */\n  tag_57\n    /* \"#utility.yul\":1845:1850   */\n  dup5\n    /* \"#utility.yul\":1827:1851   */\n  tag_26\n  jump\t// in\ntag_57:\n    /* \"#utility.yul\":1818:1852   */\n  tag_27\n  jump\t// in\ntag_56:\n    /* \"#utility.yul\":1800:1853   */\n  tag_26\n  jump\t// in\ntag_55:\n    /* \"#utility.yul\":1787:1853   */\n  swap1\n  pop\n    /* \"#utility.yul\":1717:1859   */\n  swap2\n  swap1\n  pop\n  jump\t// out\n    /* \"#utility.yul\":1865:1940   */\ntag_29:\n    /* \"#utility.yul\":1908:1911   */\n  0x00\n    /* \"#utility.yul\":1929:1934   */\n  dup2\n    /* \"#utility.yul\":1922:1934   */\n  swap1\n  pop\n    /* \"#utility.yul\":1865:1940   */\n  swap2\n  swap1\n  pop\n  jump\t// out\n    /* \"#utility.yul\":1946:2215   */\ntag_30:\n    /* \"#utility.yul\":2056:2095   */\n  tag_60\n    /* \"#utility.yul\":2087:2094   */\n  dup4\n    /* \"#utility.yul\":2056:2095   */\n  tag_28\n  jump\t// in\ntag_60:\n    /* \"#utility.yul\":2117:2208   */\n  tag_61\n    /* \"#utility.yul\":2166:2207   */\n  tag_62\n    /* \"#utility.yul\":2190:2206   */\n  dup3\n    /* \"#utility.yul\":2166:2207   */\n  tag_29\n  jump\t// in\ntag_62:\n    /* \"#utility.yul\":2158:2164   */\n  dup5\n    /* \"#utility.yul\":2151:2155   */\n  dup5\n    /* \"#utility.yul\":2145:2156   */\n  sload\n    /* \"#utility.yul\":2117:2208   */\n  tag_25\n  jump\t// in\ntag_61:\n    /* \"#utility.yul\":2111:2115   */\n  dup3\n    /* \"#utility.yul\":2104:2209   */\n  sstore\n    /* \"#utility.yul\":2022:2215   */\n  pop\n    /* \"#utility.yul\":1946:2215   */\n  pop\n  pop\n  pop\n  jump\t// out\n    /* \"#utility.yul\":2221:2294   */\ntag_31:\n    /* \"#utility.yul\":2266:2269   */\n  0x00\n    /* \"#utility.yul\":2221:2294   */\n  swap1\n  jump\t// out\n    /* \"#utility.yul\":2300:2489   */\ntag_32:\n    /* \"#utility.yul\":2377:2409   */\n  tag_65\n  tag_31\n  jump\t// in\ntag_65:\n    /* \"#utility.yul\":2418:2483   */\n  tag_66\n    /* \"#utility.yul\":2476:2482   */\n  dup2\n    /* \"#utility.yul\":2468:2474   */\n  dup5\n    /* \"#utility.yul\":2462:2466   */\n  dup5\n    /* \"#utility.yul\":2418:2483   */\n  tag_30\n  jump\t// in\ntag_66:\n    /* \"#utility.yul\":2353:2489   */\n  pop\n    /* \"#utility.yul\":2300:2489   */\n  pop\n  pop\n  jump\t// out\n    /* \"#utility.yul\":2495:2681   */\ntag_33:\n    /* \"#utility.yul\":2555:2675   */\ntag_68:\n    /* \"#utility.yul\":2572:2575   */\n  dup2\n    /* \"#utility.yul\":2565:2570   */\n  dup2\n    /* \"#utility.yul\":2562:2576   */\n  lt\n    /* \"#utility.yul\":2555:2675   */\n  iszero\n  tag_70\n  jumpi\n    /* \"#utility.yul\":2626:2665   */\n  tag_71\n    /* \"#utility.yul\":2663:2664   */\n  0x00\n    /* \"#utility.yul\":2656:2661   */\n  dup3\n    /* \"#utility.yul\":2626:2665   */\n  tag_32\n  jump\t// in\ntag_71:\n    /* \"#utility.yul\":2599:2600   */\n  0x01\n    /* \"#utility.yul\":2592:2597   */\n  dup2\n    /* \"#utility.yul\":2588:2601   */\n  add\n    /* \"#utility.yul\":2579:2601   */\n  swap1\n  pop\n    /* \"#utility.yul\":2555:2675   */\n  jump(tag_68)\ntag_70:\n    /* \"#utility.yul\":2495:2681   */\n  pop\n  pop\n  jump\t// out\n    /* \"#utility.yul\":2687:3230   */\ntag_34:\n    /* \"#utility.yul\":2788:2790   */\n  0x1f\n    /* \"#utility.yul\":2783:2786   */\n  dup3\n    /* \"#utility.yul\":2780:2791   */\n  gt\n    /* \"#utility.yul\":2777:3223   */\n  iszero\n  tag_73\n  jumpi\n    /* \"#utility.yul\":2822:2860   */\n  tag_74\n    /* \"#utility.yul\":2854:2859   */\n  dup2\n    /* \"#utility.yul\":2822:2860   */\n  tag_22\n  jump\t// in\ntag_74:\n    /* \"#utility.yul\":2906:2935   */\n  tag_75\n    /* \"#utility.yul\":2924:2934   */\n  dup5\n    /* \"#utility.yul\":2906:2935   */\n  tag_23\n  jump\t// in\ntag_75:\n    /* \"#utility.yul\":2896:2904   */\n  dup2\n    /* \"#utility.yul\":2892:2936   */\n  add\n    /* \"#utility.yul\":3089:3091   */\n  0x20\n    /* \"#utility.yul\":3077:3087   */\n  dup6\n    /* \"#utility.yul\":3074:3092   */\n  lt\n    /* \"#utility.yul\":3071:3120   */\n  iszero\n  tag_76\n  jumpi\n    /* \"#utility.yul\":3110:3118   */\n  dup2\n    /* \"#utility.yul\":3095:3118   */\n  swap1\n  pop\n    /* \"#utility.yul\":3071:3120   */\ntag_76:\n    /* \"#utility.yul\":3133:3213   */\n  tag_77\n    /* \"#utility.yul\":3189:3211   */\n  tag_78\n    /* \"#utility.yul\":3207:3210   */\n  dup6\n    /* \"#utility.yul\":3189:3211   */\n  tag_23\n  jump\t// in\ntag_78:\n    /* \"#utility.yul\":3179:3187   */\n  dup4\n    /* \"#utility.yul\":3175:3212   */\n  add\n    /* \"#utility.yul\":3162:3173   */\n  dup3\n    /* \"#utility.yul\":3133:3213   */\n  tag_33\n  jump\t// in\ntag_77:\n    /* \"#utility.yul\":2792:3223   */\n  pop\n  pop\n    /* \"#utility.yul\":2777:3223   */\ntag_73:\n    /* \"#utility.yul\":2687:3230   */\n  pop\n  pop\n  pop\n  jump\t// out\n    /* \"#utility.yul\":3236:3353   */\ntag_35:\n    /* \"#utility.yul\":3290:3298   */\n  0x00\n    /* \"#utility.yul\":3340:3345   */\n  dup3\n    /* \"#utility.yul\":3334:3338   */\n  dup3\n    /* \"#utility.yul\":3330:3346   */\n  shr\n    /* \"#utility.yul\":3309:3346   */\n  swap1\n  pop\n    /* \"#utility.yul\":3236:3353   */\n  swap3\n  swap2\n  pop\n  pop\n  jump\t// out\n    /* \"#utility.yul\":3359:3528   */\ntag_36:\n    /* \"#utility.yul\":3403:3409   */\n  0x00\n    /* \"#utility.yul\":3436:3487   */\n  tag_81\n    /* \"#utility.yul\":3484:3485   */\n  0x00\n    /* \"#utility.yul\":3480:3486   */\n  not\n    /* \"#utility.yul\":3472:3477   */\n  dup5\n    /* \"#utility.yul\":3469:3470   */\n  0x08\n    /* \"#utility.yul\":3465:3478   */\n  mul\n    /* \"#utility.yul\":3436:3487   */\n  tag_35\n  jump\t// in\ntag_81:\n    /* \"#utility.yul\":3432:3488   */\n  not\n    /* \"#utility.yul\":3517:3521   */\n  dup1\n    /* \"#utility.yul\":3511:3515   */\n  dup4\n    /* \"#utility.yul\":3507:3522   */\n  and\n    /* \"#utility.yul\":3497:3522   */\n  swap2\n  pop\n    /* \"#utility.yul\":3410:3528   */\n  pop\n    /* \"#utility.yul\":3359:3528   */\n  swap3\n  swap2\n  pop\n  pop\n  jump\t// out\n    /* \"#utility.yul\":3533:3828   */\ntag_37:\n    /* \"#utility.yul\":3609:3613   */\n  0x00\n    /* \"#utility.yul\":3755:3784   */\n  tag_83\n    /* \"#utility.yul\":3780:3783   */\n  dup4\n    /* \"#utility.yul\":3774:3778   */\n  dup4\n    /* \"#utility.yul\":3755:3784   */\n  tag_36\n  jump\t// in\ntag_83:\n    /* \"#utility.yul\":3747:3784   */\n  swap2\n  pop\n    /* \"#utility.yul\":3817:3820   */\n  dup3\n    /* \"#utility.yul\":3814:3815   */\n  0x02\n    /* \"#utility.yul\":3810:3821   */\n  mul\n    /* \"#utility.yul\":3804:3808   */\n  dup3\n    /* \"#utility.yul\":3801:3822   */\n  or\n    /* \"#utility.yul\":3793:3822   */\n  swap1\n  pop\n    /* \"#utility.yul\":3533:3828   */\n  swap3\n  swap2\n  pop\n  pop\n  jump\t// out\n    /* \"#utility.yul\":3833:5228   */\ntag_7:\n    /* \"#utility.yul\":3950:3987   */\n  tag_85\n    /* \"#utility.yul\":3983:3986   */\n  dup3\n    /* \"#utility.yul\":3950:3987   */\n  tag_18\n  jump\t// in\ntag_85:\n    /* \"#utility.yul\":4052:4070   */\n  0xffffffffffffffff\n    /* \"#utility.yul\":4044:4050   */\n  dup2\n    /* \"#utility.yul\":4041:4071   */\n  gt\n    /* \"#utility.yul\":4038:4094   */\n  iszero\n  tag_86\n  jumpi\n    /* \"#utility.yul\":4074:4092   */\n  tag_87\n  tag_19\n  jump\t// in\ntag_87:\n    /* \"#utility.yul\":4038:4094   */\ntag_86:\n    /* \"#utility.yul\":4118:4156   */\n  tag_88\n    /* \"#utility.yul\":4150:4154   */\n  dup3\n    /* \"#utility.yul\":4144:4155   */\n  sload\n    /* \"#utility.yul\":4118:4156   */\n  tag_21\n  jump\t// in\ntag_88:\n    /* \"#utility.yul\":4203:4270   */\n  tag_89\n    /* \"#utility.yul\":4263:4269   */\n  dup3\n    /* \"#utility.yul\":4255:4261   */\n  dup3\n    /* \"#utility.yul\":4249:4253   */\n  dup6\n    /* \"#utility.yul\":4203:4270   */\n  tag_34\n  jump\t// in\ntag_89:\n    /* \"#utility.yul\":4297:4298   */\n  0x00\n    /* \"#utility.yul\":4321:4325   */\n  0x20\n    /* \"#utility.yul\":4308:4325   */\n  swap1\n  pop\n    /* \"#utility.yul\":4353:4355   */\n  0x1f\n    /* \"#utility.yul\":4345:4351   */\n  dup4\n    /* \"#utility.yul\":4342:4356   */\n  gt\n    /* \"#utility.yul\":4370:4371   */\n  0x01\n    /* \"#utility.yul\":4365:4983   */\n  dup2\n  eq\n  tag_91\n  jumpi\n    /* \"#utility.yul\":5027:5028   */\n  0x00\n    /* \"#utility.yul\":5044:5050   */\n  dup5\n    /* \"#utility.yul\":5041:5118   */\n  iszero\n  tag_92\n  jumpi\n    /* \"#utility.yul\":5093:5102   */\n  dup3\n    /* \"#utility.yul\":5088:5091   */\n  dup8\n    /* \"#utility.yul\":5084:5103   */\n  add\n    /* \"#utility.yul\":5078:5104   */\n  mload\n    /* \"#utility.yul\":5069:5104   */\n  swap1\n  pop\n    /* \"#utility.yul\":5041:5118   */\ntag_92:\n    /* \"#utility.yul\":5144:5211   */\n  tag_93\n    /* \"#utility.yul\":5204:5210   */\n  dup6\n    /* \"#utility.yul\":5197:5202   */\n  dup3\n    /* \"#utility.yul\":5144:5211   */\n  tag_37\n  jump\t// in\ntag_93:\n    /* \"#utility.yul\":5138:5142   */\n  dup7\n    /* \"#utility.yul\":5131:5212   */\n  sstore\n    /* \"#utility.yul\":5000:5222   */\n  pop\n    /* \"#utility.yul\":4335:5222   */\n  jump(tag_90)\n    /* \"#utility.yul\":4365:4983   */\ntag_91:\n    /* \"#utility.yul\":4417:4421   */\n  0x1f\n    /* \"#utility.yul\":4413:4422   */\n  not\n    /* \"#utility.yul\":4405:4411   */\n  dup5\n    /* \"#utility.yul\":4401:4423   */\n  and\n    /* \"#utility.yul\":4451:4488   */\n  tag_94\n    /* \"#utility.yul\":4483:4487   */\n  dup7\n    /* \"#utility.yul\":4451:4488   */\n  tag_22\n  jump\t// in\ntag_94:\n    /* \"#utility.yul\":4510:4511   */\n  0x00\n    /* \"#utility.yul\":4524:4732   */\ntag_95:\n    /* \"#utility.yul\":4538:4545   */\n  dup3\n    /* \"#utility.yul\":4535:4536   */\n  dup2\n    /* \"#utility.yul\":4532:4546   */\n  lt\n    /* \"#utility.yul\":4524:4732   */\n  iszero\n  tag_97\n  jumpi\n    /* \"#utility.yul\":4617:4626   */\n  dup5\n    /* \"#utility.yul\":4612:4615   */\n  dup10\n    /* \"#utility.yul\":4608:4627   */\n  add\n    /* \"#utility.yul\":4602:4628   */\n  mload\n    /* \"#utility.yul\":4594:4600   */\n  dup3\n    /* \"#utility.yul\":4587:4629   */\n  sstore\n    /* \"#utility.yul\":4668:4669   */\n  0x01\n    /* \"#utility.yul\":4660:4666   */\n  dup3\n    /* \"#utility.yul\":4656:4670   */\n  add\n    /* \"#utility.yul\":4646:4670   */\n  swap2\n  pop\n    /* \"#utility.yul\":4715:4717   */\n  0x20\n    /* \"#utility.yul\":4704:4713   */\n  dup6\n    /* \"#utility.yul\":4700:4718   */\n  add\n    /* \"#utility.yul\":4687:4718   */\n  swap5\n  pop\n    /* \"#utility.yul\":4561:4565   */\n  0x20\n    /* \"#utility.yul\":4558:4559   */\n  dup2\n    /* \"#utility.yul\":4554:4566   */\n  add\n    /* \"#utility.yul\":4549:4566   */\n  swap1\n  pop\n    /* \"#utility.yul\":4524:4732   */\n  jump(tag_95)\ntag_97:\n    /* \"#utility.yul\":4760:4766   */\n  dup7\n    /* \"#utility.yul\":4751:4758   */\n  dup4\n    /* \"#utility.yul\":4748:4767   */\n  lt\n    /* \"#utility.yul\":4745:4924   */\n  iszero\n  tag_98\n  jumpi\n    /* \"#utility.yul\":4818:4827   */\n  dup5\n    /* \"#utility.yul\":4813:4816   */\n  dup10\n    /* \"#utility.yul\":4809:4828   */\n  add\n    /* \"#utility.yul\":4803:4829   */\n  mload\n    /* \"#utility.yul\":4861:4909   */\n  tag_99\n    /* \"#utility.yul\":4903:4907   */\n  0x1f\n    /* \"#utility.yul\":4895:4901   */\n  dup10\n    /* \"#utility.yul\":4891:4908   */\n  and\n    /* \"#utility.yul\":4880:4889   */\n  dup3\n    /* \"#utility.yul\":4861:4909   */\n  tag_36\n  jump\t// in\ntag_99:\n    /* \"#utility.yul\":4853:4859   */\n  dup4\n    /* \"#utility.yul\":4846:4910   */\n  sstore\n    /* \"#utility.yul\":4768:4924   */\n  pop\n    /* \"#utility.yul\":4745:4924   */\ntag_98:\n    /* \"#utility.yul\":4970:4971   */\n  0x01\n    /* \"#utility.yul\":4966:4967   */\n  0x02\n    /* \"#utility.yul\":4958:4964   */\n  dup9\n    /* \"#utility.yul\":4954:4968   */\n  mul\n    /* \"#utility.yul\":4950:4972   */\n  add\n    /* \"#utility.yul\":4944:4948   */\n  dup9\n    /* \"#utility.yul\":4937:4973   */\n  sstore\n    /* \"#utility.yul\":4372:4983   */\n  pop\n  pop\n  pop\n    /* \"#utility.yul\":4335:5222   */\ntag_90:\n  pop\n    /* \"#utility.yul\":3925:5228   */\n  pop\n  pop\n  pop\n    /* \"#utility.yul\":3833:5228   */\n  pop\n  pop\n  jump\t// out\n    /* \"contracts\\\\BaseNFT.sol\":18364:19500  contract BaseNFT is ERC721Enumerable, ERC721URIStorage, Ownable {... */\ntag_15:\n  dataSize(sub_0)\n  dup1\n  dataOffset(sub_0)\n  0x00\n  codecopy\n  0x00\n  return\nstop\n\nsub_0: assembly {\n        /* \"contracts\\\\BaseNFT.sol\":18364:19500  contract BaseNFT is ERC721Enumerable, ERC721URIStorage, Ownable {... */\n      mstore(0x40, 0x80)\n      callvalue\n      dup1\n      iszero\n      tag_1\n      jumpi\n      0x00\n      dup1\n      revert\n    tag_1:\n      pop\n      jumpi(tag_2, lt(calldatasize, 0x04))\n      shr(0xe0, calldataload(0x00))\n      dup1\n      0x8da5cb5b\n      gt\n      tag_13\n      jumpi\n      dup1\n      0x8da5cb5b\n      eq\n      tag_8\n      jumpi\n      dup1\n      0x95d89b41\n      eq\n      tag_9\n      jumpi\n      dup1\n      0xc87b56dd\n      eq\n      tag_10\n      jumpi\n      dup1\n      0xd3fc9864\n      eq\n      tag_11\n      jumpi\n      dup1\n      0xf2fde38b\n      eq\n      tag_12\n      jumpi\n      jump(tag_2)\n    tag_13:\n      dup1\n      0x01ffc9a7\n      eq\n      tag_3\n      jumpi\n      dup1\n      0x06fdde03\n      eq\n      tag_4\n      jumpi\n      dup1\n      0x18160ddd\n      eq\n      tag_5\n      jumpi\n      dup1\n      0x6352211e\n      eq\n      tag_6\n      jumpi\n      dup1\n      0x70a08231\n      eq\n      tag_7\n      jumpi\n    tag_2:\n      0x00\n      dup1\n      revert\n        /* \"contracts\\\\BaseNFT.sol\":19310:19497  function supportsInterface(... */\n    tag_3:\n      tag_14\n      0x04\n      dup1\n      calldatasize\n      sub\n      dup2\n      add\n      swap1\n      tag_15\n      swap2\n      swap1\n      tag_16\n      jump\t// in\n    tag_15:\n      tag_17\n      jump\t// in\n    tag_14:\n      mload(0x40)\n      tag_18\n      swap2\n      swap1\n      tag_19\n      jump\t// in\n    tag_18:\n      mload(0x40)\n      dup1\n      swap2\n      sub\n      swap1\n      return\n        /* \"contracts\\\\BaseNFT.sol\":9554:9654  function name() public view virtual override returns (string memory) {... */\n    tag_4:\n      tag_20\n      tag_21\n      jump\t// in\n    tag_20:\n      mload(0x40)\n      tag_22\n      swap2\n      swap1\n      tag_23\n      jump\t// in\n    tag_22:\n      mload(0x40)\n      dup1\n      swap2\n      sub\n      swap1\n      return\n        /* \"contracts\\\\BaseNFT.sol\":15964:16077  function totalSupply() public view virtual override returns (uint256) {... */\n    tag_5:\n      tag_24\n      tag_25\n      jump\t// in\n    tag_24:\n      mload(0x40)\n      tag_26\n      swap2\n      swap1\n      tag_27\n      jump\t// in\n    tag_26:\n      mload(0x40)\n      dup1\n      swap2\n      sub\n      swap1\n      return\n        /* \"contracts\\\\BaseNFT.sol\":9254:9546  function ownerOf(... */\n    tag_6:\n      tag_28\n      0x04\n      dup1\n      calldatasize\n      sub\n      dup2\n      add\n      swap1\n      tag_29\n      swap2\n      swap1\n      tag_30\n      jump\t// in\n    tag_29:\n      tag_31\n      jump\t// in\n    tag_28:\n      mload(0x40)\n      tag_32\n      swap2\n      swap1\n      tag_33\n      jump\t// in\n    tag_32:\n      mload(0x40)\n      dup1\n      swap2\n      sub\n      swap1\n      return\n        /* \"contracts\\\\BaseNFT.sol\":8985:9246  function balanceOf(... */\n    tag_7:\n      tag_34\n      0x04\n      dup1\n      calldatasize\n      sub\n      dup2\n      add\n      swap1\n      tag_35\n      swap2\n      swap1\n      tag_36\n      jump\t// in\n    tag_35:\n      tag_37\n      jump\t// in\n    tag_34:\n      mload(0x40)\n      tag_38\n      swap2\n      swap1\n      tag_27\n      jump\t// in\n    tag_38:\n      mload(0x40)\n      dup1\n      swap2\n      sub\n      swap1\n      return\n        /* \"contracts\\\\BaseNFT.sol\":5952:6039  function owner() public view virtual returns (address) {... */\n    tag_8:\n      tag_39\n      tag_40\n      jump\t// in\n    tag_39:\n      mload(0x40)\n      tag_41\n      swap2\n      swap1\n      tag_33\n      jump\t// in\n    tag_41:\n      mload(0x40)\n      dup1\n      swap2\n      sub\n      swap1\n      return\n        /* \"contracts\\\\BaseNFT.sol\":9662:9766  function symbol() public view virtual override returns (string memory) {... */\n    tag_9:\n      tag_42\n      tag_43\n      jump\t// in\n    tag_42:\n      mload(0x40)\n      tag_44\n      swap2\n      swap1\n      tag_23\n      jump\t// in\n    tag_44:\n      mload(0x40)\n      dup1\n      swap2\n      sub\n      swap1\n      return\n        /* \"contracts\\\\BaseNFT.sol\":19131:19302  function tokenURI(... */\n    tag_10:\n      tag_45\n      0x04\n      dup1\n      calldatasize\n      sub\n      dup2\n      add\n      swap1\n      tag_46\n      swap2\n      swap1\n      tag_30\n      jump\t// in\n    tag_46:\n      tag_47\n      jump\t// in\n    tag_45:\n      mload(0x40)\n      tag_48\n      swap2\n      swap1\n      tag_23\n      jump\t// in\n    tag_48:\n      mload(0x40)\n      dup1\n      swap2\n      sub\n      swap1\n      return\n        /* \"contracts\\\\BaseNFT.sol\":18485:18691  function mint(... */\n    tag_11:\n      tag_49\n      0x04\n      dup1\n      calldatasize\n      sub\n      dup2\n      add\n      swap1\n      tag_50\n      swap2\n      swap1\n      tag_51\n      jump\t// in\n    tag_50:\n      tag_52\n      jump\t// in\n    tag_49:\n      stop\n        /* \"contracts\\\\BaseNFT.sol\":6175:6413  function transferOwnership(address newOwner) public virtual onlyOwner {... */\n    tag_12:\n      tag_53\n      0x04\n      dup1\n      calldatasize\n      sub\n      dup2\n      add\n      swap1\n      tag_54\n      swap2\n      swap1\n      tag_36\n      jump\t// in\n    tag_54:\n      tag_55\n      jump\t// in\n    tag_53:\n      stop\n        /* \"contracts\\\\BaseNFT.sol\":19310:19497  function supportsInterface(... */\n    tag_17:\n        /* \"contracts\\\\BaseNFT.sol\":19429:19433  bool */\n      0x00\n        /* \"contracts\\\\BaseNFT.sol\":19453:19489  super.supportsInterface(interfaceId) */\n      tag_57\n        /* \"contracts\\\\BaseNFT.sol\":19477:19488  interfaceId */\n      dup3\n        /* \"contracts\\\\BaseNFT.sol\":19453:19476  super.supportsInterface */\n      tag_58\n        /* \"contracts\\\\BaseNFT.sol\":19453:19489  super.supportsInterface(interfaceId) */\n      jump\t// in\n    tag_57:\n        /* \"contracts\\\\BaseNFT.sol\":19446:19489  return super.supportsInterface(interfaceId) */\n      swap1\n      pop\n        /* \"contracts\\\\BaseNFT.sol\":19310:19497  function supportsInterface(... */\n      swap2\n      swap1\n      pop\n      jump\t// out\n        /* \"contracts\\\\BaseNFT.sol\":9554:9654  function name() public view virtual override returns (string memory) {... */\n    tag_21:\n        /* \"contracts\\\\BaseNFT.sol\":9608:9621  string memory */\n      0x60\n        /* \"contracts\\\\BaseNFT.sol\":9641:9646  _name */\n      0x00\n        /* \"contracts\\\\BaseNFT.sol\":9634:9646  return _name */\n      dup1\n      sload\n      tag_60\n      swap1\n      tag_61\n      jump\t// in\n    tag_60:\n      dup1\n      0x1f\n      add\n      0x20\n      dup1\n      swap2\n      div\n      mul\n      0x20\n      add\n      mload(0x40)\n      swap1\n      dup2\n      add\n      0x40\n      mstore\n      dup1\n      swap3\n      swap2\n      swap1\n      dup2\n      dup2\n      mstore\n      0x20\n      add\n      dup3\n      dup1\n      sload\n      tag_62\n      swap1\n      tag_61\n      jump\t// in\n    tag_62:\n      dup1\n      iszero\n      tag_63\n      jumpi\n      dup1\n      0x1f\n      lt\n      tag_64\n      jumpi\n      0x0100\n      dup1\n      dup4\n      sload\n      div\n      mul\n      dup4\n      mstore\n      swap2\n      0x20\n      add\n      swap2\n      jump(tag_63)\n    tag_64:\n      dup3\n      add\n      swap2\n      swap1\n      0x00\n      mstore\n      keccak256(0x00, 0x20)\n      swap1\n    tag_65:\n      dup2\n      sload\n      dup2\n      mstore\n      swap1\n      0x01\n      add\n      swap1\n      0x20\n      add\n      dup1\n      dup4\n      gt\n      tag_65\n      jumpi\n      dup3\n      swap1\n      sub\n      0x1f\n      and\n      dup3\n      add\n      swap2\n    tag_63:\n      pop\n      pop\n      pop\n      pop\n      pop\n      swap1\n      pop\n        /* \"contracts\\\\BaseNFT.sol\":9554:9654  function name() public view virtual override returns (string memory) {... */\n      swap1\n      jump\t// out\n        /* \"contracts\\\\BaseNFT.sol\":15964:16077  function totalSupply() public view virtual override returns (uint256) {... */\n    tag_25:\n        /* \"contracts\\\\BaseNFT.sol\":16025:16032  uint256 */\n      0x00\n        /* \"contracts\\\\BaseNFT.sol\":16052:16062  _allTokens */\n      0x08\n        /* \"contracts\\\\BaseNFT.sol\":16052:16069  _allTokens.length */\n      dup1\n      sload\n      swap1\n      pop\n        /* \"contracts\\\\BaseNFT.sol\":16045:16069  return _allTokens.length */\n      swap1\n      pop\n        /* \"contracts\\\\BaseNFT.sol\":15964:16077  function totalSupply() public view virtual override returns (uint256) {... */\n      swap1\n      jump\t// out\n        /* \"contracts\\\\BaseNFT.sol\":9254:9546  function ownerOf(... */\n    tag_31:\n        /* \"contracts\\\\BaseNFT.sol\":9342:9349  address */\n      0x00\n        /* \"contracts\\\\BaseNFT.sol\":9362:9375  address owner */\n      dup1\n        /* \"contracts\\\\BaseNFT.sol\":9378:9385  _owners */\n      0x02\n        /* \"contracts\\\\BaseNFT.sol\":9378:9394  _owners[tokenId] */\n      0x00\n        /* \"contracts\\\\BaseNFT.sol\":9386:9393  tokenId */\n      dup5\n        /* \"contracts\\\\BaseNFT.sol\":9378:9394  _owners[tokenId] */\n      dup2\n      mstore\n      0x20\n      add\n      swap1\n      dup2\n      mstore\n      0x20\n      add\n      0x00\n      keccak256\n      0x00\n      swap1\n      sload\n      swap1\n      0x0100\n      exp\n      swap1\n      div\n      0xffffffffffffffffffffffffffffffffffffffff\n      and\n        /* \"contracts\\\\BaseNFT.sol\":9362:9394  address owner = _owners[tokenId] */\n      swap1\n      pop\n        /* \"contracts\\\\BaseNFT.sol\":9444:9445  0 */\n      0x00\n        /* \"contracts\\\\BaseNFT.sol\":9427:9446  owner != address(0) */\n      0xffffffffffffffffffffffffffffffffffffffff\n      and\n        /* \"contracts\\\\BaseNFT.sol\":9427:9432  owner */\n      dup2\n        /* \"contracts\\\\BaseNFT.sol\":9427:9446  owner != address(0) */\n      0xffffffffffffffffffffffffffffffffffffffff\n      and\n      sub\n        /* \"contracts\\\\BaseNFT.sol\":9405:9515  require(... */\n      tag_68\n      jumpi\n      mload(0x40)\n      0x08c379a000000000000000000000000000000000000000000000000000000000\n      dup2\n      mstore\n      0x04\n      add\n      tag_69\n      swap1\n      tag_70\n      jump\t// in\n    tag_69:\n      mload(0x40)\n      dup1\n      swap2\n      sub\n      swap1\n      revert\n    tag_68:\n        /* \"contracts\\\\BaseNFT.sol\":9533:9538  owner */\n      dup1\n        /* \"contracts\\\\BaseNFT.sol\":9526:9538  return owner */\n      swap2\n      pop\n      pop\n        /* \"contracts\\\\BaseNFT.sol\":9254:9546  function ownerOf(... */\n      swap2\n      swap1\n      pop\n      jump\t// out\n        /* \"contracts\\\\BaseNFT.sol\":8985:9246  function balanceOf(... */\n    tag_37:\n        /* \"contracts\\\\BaseNFT.sol\":9073:9080  uint256 */\n      0x00\n        /* \"contracts\\\\BaseNFT.sol\":9132:9133  0 */\n      dup1\n        /* \"contracts\\\\BaseNFT.sol\":9115:9134  owner != address(0) */\n      0xffffffffffffffffffffffffffffffffffffffff\n      and\n        /* \"contracts\\\\BaseNFT.sol\":9115:9120  owner */\n      dup3\n        /* \"contracts\\\\BaseNFT.sol\":9115:9134  owner != address(0) */\n      0xffffffffffffffffffffffffffffffffffffffff\n      and\n      sub\n        /* \"contracts\\\\BaseNFT.sol\":9093:9204  require(... */\n      tag_72\n      jumpi\n      mload(0x40)\n      0x08c379a000000000000000000000000000000000000000000000000000000000\n      dup2\n      mstore\n      0x04\n      add\n      tag_73\n      swap1\n      tag_74\n      jump\t// in\n    tag_73:\n      mload(0x40)\n      dup1\n      swap2\n      sub\n      swap1\n      revert\n    tag_72:\n        /* \"contracts\\\\BaseNFT.sol\":9222:9231  _balances */\n      0x03\n        /* \"contracts\\\\BaseNFT.sol\":9222:9238  _balances[owner] */\n      0x00\n        /* \"contracts\\\\BaseNFT.sol\":9232:9237  owner */\n      dup4\n        /* \"contracts\\\\BaseNFT.sol\":9222:9238  _balances[owner] */\n      0xffffffffffffffffffffffffffffffffffffffff\n      and\n      0xffffffffffffffffffffffffffffffffffffffff\n      and\n      dup2\n      mstore\n      0x20\n      add\n      swap1\n      dup2\n      mstore\n      0x20\n      add\n      0x00\n      keccak256\n      sload\n        /* \"contracts\\\\BaseNFT.sol\":9215:9238  return _balances[owner] */\n      swap1\n      pop\n        /* \"contracts\\\\BaseNFT.sol\":8985:9246  function balanceOf(... */\n      swap2\n      swap1\n      pop\n      jump\t// out\n        /* \"contracts\\\\BaseNFT.sol\":5952:6039  function owner() public view virtual returns (address) {... */\n    tag_40:\n        /* \"contracts\\\\BaseNFT.sol\":5998:6005  address */\n      0x00\n        /* \"contracts\\\\BaseNFT.sol\":6025:6031  _owner */\n      0x0b\n      0x00\n      swap1\n      sload\n      swap1\n      0x0100\n      exp\n      swap1\n      div\n      0xffffffffffffffffffffffffffffffffffffffff\n      and\n        /* \"contracts\\\\BaseNFT.sol\":6018:6031  return _owner */\n      swap1\n      pop\n        /* \"contracts\\\\BaseNFT.sol\":5952:6039  function owner() public view virtual returns (address) {... */\n      swap1\n      jump\t// out\n        /* \"contracts\\\\BaseNFT.sol\":9662:9766  function symbol() public view virtual override returns (string memory) {... */\n    tag_43:\n        /* \"contracts\\\\BaseNFT.sol\":9718:9731  string memory */\n      0x60\n        /* \"contracts\\\\BaseNFT.sol\":9751:9758  _symbol */\n      0x01\n        /* \"contracts\\\\BaseNFT.sol\":9744:9758  return _symbol */\n      dup1\n      sload\n      tag_77\n      swap1\n      tag_61\n      jump\t// in\n    tag_77:\n      dup1\n      0x1f\n      add\n      0x20\n      dup1\n      swap2\n      div\n      mul\n      0x20\n      add\n      mload(0x40)\n      swap1\n      dup2\n      add\n      0x40\n      mstore\n      dup1\n      swap3\n      swap2\n      swap1\n      dup2\n      dup2\n      mstore\n      0x20\n      add\n      dup3\n      dup1\n      sload\n      tag_78\n      swap1\n      tag_61\n      jump\t// in\n    tag_78:\n      dup1\n      iszero\n      tag_79\n      jumpi\n      dup1\n      0x1f\n      lt\n      tag_80\n      jumpi\n      0x0100\n      dup1\n      dup4\n      sload\n      div\n      mul\n      dup4\n      mstore\n      swap2\n      0x20\n      add\n      swap2\n      jump(tag_79)\n    tag_80:\n      dup3\n      add\n      swap2\n      swap1\n      0x00\n      mstore\n      keccak256(0x00, 0x20)\n      swap1\n    tag_81:\n      dup2\n      sload\n      dup2\n      mstore\n      swap1\n      0x01\n      add\n      swap1\n      0x20\n      add\n      dup1\n      dup4\n      gt\n      tag_81\n      jumpi\n      dup3\n      swap1\n      sub\n      0x1f\n      and\n      dup3\n      add\n      swap2\n    tag_79:\n      pop\n      pop\n      pop\n      pop\n      pop\n      swap1\n      pop\n        /* \"contracts\\\\BaseNFT.sol\":9662:9766  function symbol() public view virtual override returns (string memory) {... */\n      swap1\n      jump\t// out\n        /* \"contracts\\\\BaseNFT.sol\":19131:19302  function tokenURI(... */\n    tag_47:\n        /* \"contracts\\\\BaseNFT.sol\":19238:19251  string memory */\n      0x60\n        /* \"contracts\\\\BaseNFT.sol\":19271:19294  super.tokenURI(tokenId) */\n      tag_83\n        /* \"contracts\\\\BaseNFT.sol\":19286:19293  tokenId */\n      dup3\n        /* \"contracts\\\\BaseNFT.sol\":19271:19285  super.tokenURI */\n      tag_84\n        /* \"contracts\\\\BaseNFT.sol\":19271:19294  super.tokenURI(tokenId) */\n      jump\t// in\n    tag_83:\n        /* \"contracts\\\\BaseNFT.sol\":19264:19294  return super.tokenURI(tokenId) */\n      swap1\n      pop\n        /* \"contracts\\\\BaseNFT.sol\":19131:19302  function tokenURI(... */\n      swap2\n      swap1\n      pop\n      jump\t// out\n        /* \"contracts\\\\BaseNFT.sol\":18485:18691  function mint(... */\n    tag_52:\n        /* \"contracts\\\\BaseNFT.sol\":6098:6110  _msgSender() */\n      tag_86\n        /* \"contracts\\\\BaseNFT.sol\":6098:6108  _msgSender */\n      tag_87\n        /* \"contracts\\\\BaseNFT.sol\":6098:6110  _msgSender() */\n      jump\t// in\n    tag_86:\n        /* \"contracts\\\\BaseNFT.sol\":6087:6110  owner() == _msgSender() */\n      0xffffffffffffffffffffffffffffffffffffffff\n      and\n        /* \"contracts\\\\BaseNFT.sol\":6087:6094  owner() */\n      tag_88\n        /* \"contracts\\\\BaseNFT.sol\":6087:6092  owner */\n      tag_40\n        /* \"contracts\\\\BaseNFT.sol\":6087:6094  owner() */\n      jump\t// in\n    tag_88:\n        /* \"contracts\\\\BaseNFT.sol\":6087:6110  owner() == _msgSender() */\n      0xffffffffffffffffffffffffffffffffffffffff\n      and\n      eq\n        /* \"contracts\\\\BaseNFT.sol\":6079:6147  require(owner() == _msgSender(), \"Ownable: caller is not the owner\") */\n      tag_89\n      jumpi\n      mload(0x40)\n      0x08c379a000000000000000000000000000000000000000000000000000000000\n      dup2\n      mstore\n      0x04\n      add\n      tag_90\n      swap1\n      tag_91\n      jump\t// in\n    tag_90:\n      mload(0x40)\n      dup1\n      swap2\n      sub\n      swap1\n      revert\n    tag_89:\n        /* \"contracts\\\\BaseNFT.sol\":18618:18644  _safeMint(_user, _tokenId) */\n      tag_93\n        /* \"contracts\\\\BaseNFT.sol\":18628:18633  _user */\n      dup5\n        /* \"contracts\\\\BaseNFT.sol\":18635:18643  _tokenId */\n      dup5\n        /* \"contracts\\\\BaseNFT.sol\":18618:18627  _safeMint */\n      tag_94\n        /* \"contracts\\\\BaseNFT.sol\":18618:18644  _safeMint(_user, _tokenId) */\n      jump\t// in\n    tag_93:\n        /* \"contracts\\\\BaseNFT.sol\":18655:18683  _setTokenURI(_tokenId, _uri) */\n      tag_95\n        /* \"contracts\\\\BaseNFT.sol\":18668:18676  _tokenId */\n      dup4\n        /* \"contracts\\\\BaseNFT.sol\":18678:18682  _uri */\n      dup4\n      dup4\n        /* \"contracts\\\\BaseNFT.sol\":18655:18683  _setTokenURI(_tokenId, _uri) */\n      dup1\n      dup1\n      0x1f\n      add\n      0x20\n      dup1\n      swap2\n      div\n      mul\n      0x20\n      add\n      mload(0x40)\n      swap1\n      dup2\n      add\n      0x40\n      mstore\n      dup1\n      swap4\n      swap3\n      swap2\n      swap1\n      dup2\n      dup2\n      mstore\n      0x20\n      add\n      dup4\n      dup4\n      dup1\n      dup3\n      dup5\n      calldatacopy\n      0x00\n      dup2\n      dup5\n      add\n      mstore\n      not(0x1f)\n      0x1f\n      dup3\n      add\n      and\n      swap1\n      pop\n      dup1\n      dup4\n      add\n      swap3\n      pop\n      pop\n      pop\n      pop\n      pop\n      pop\n      pop\n        /* \"contracts\\\\BaseNFT.sol\":18655:18667  _setTokenURI */\n      tag_96\n        /* \"contracts\\\\BaseNFT.sol\":18655:18683  _setTokenURI(_tokenId, _uri) */\n      jump\t// in\n    tag_95:\n        /* \"contracts\\\\BaseNFT.sol\":18485:18691  function mint(... */\n      pop\n      pop\n      pop\n      pop\n      jump\t// out\n        /* \"contracts\\\\BaseNFT.sol\":6175:6413  function transferOwnership(address newOwner) public virtual onlyOwner {... */\n    tag_55:\n        /* \"contracts\\\\BaseNFT.sol\":6098:6110  _msgSender() */\n      tag_98\n        /* \"contracts\\\\BaseNFT.sol\":6098:6108  _msgSender */\n      tag_87\n        /* \"contracts\\\\BaseNFT.sol\":6098:6110  _msgSender() */\n      jump\t// in\n    tag_98:\n        /* \"contracts\\\\BaseNFT.sol\":6087:6110  owner() == _msgSender() */\n      0xffffffffffffffffffffffffffffffffffffffff\n      and\n        /* \"contracts\\\\BaseNFT.sol\":6087:6094  owner() */\n      tag_99\n        /* \"contracts\\\\BaseNFT.sol\":6087:6092  owner */\n      tag_40\n        /* \"contracts\\\\BaseNFT.sol\":6087:6094  owner() */\n      jump\t// in\n    tag_99:\n        /* \"contracts\\\\BaseNFT.sol\":6087:6110  owner() == _msgSender() */\n      0xffffffffffffffffffffffffffffffffffffffff\n      and\n      eq\n        /* \"contracts\\\\BaseNFT.sol\":6079:6147  require(owner() == _msgSender(), \"Ownable: caller is not the owner\") */\n      tag_100\n      jumpi\n      mload(0x40)\n      0x08c379a000000000000000000000000000000000000000000000000000000000\n      dup2\n      mstore\n      0x04\n      add\n      tag_101\n      swap1\n      tag_91\n      jump\t// in\n    tag_101:\n      mload(0x40)\n      dup1\n      swap2\n      sub\n      swap1\n      revert\n    tag_100:\n        /* \"contracts\\\\BaseNFT.sol\":6298:6299  0 */\n      0x00\n        /* \"contracts\\\\BaseNFT.sol\":6278:6300  newOwner != address(0) */\n      0xffffffffffffffffffffffffffffffffffffffff\n      and\n        /* \"contracts\\\\BaseNFT.sol\":6278:6286  newOwner */\n      dup2\n        /* \"contracts\\\\BaseNFT.sol\":6278:6300  newOwner != address(0) */\n      0xffffffffffffffffffffffffffffffffffffffff\n      and\n      sub\n        /* \"contracts\\\\BaseNFT.sol\":6256:6366  require(... */\n      tag_103\n      jumpi\n      mload(0x40)\n      0x08c379a000000000000000000000000000000000000000000000000000000000\n      dup2\n      mstore\n      0x04\n      add\n      tag_104\n      swap1\n      tag_105\n      jump\t// in\n    tag_104:\n      mload(0x40)\n      dup1\n      swap2\n      sub\n      swap1\n      revert\n    tag_103:\n        /* \"contracts\\\\BaseNFT.sol\":6377:6405  _transferOwnership(newOwner) */\n      tag_106\n        /* \"contracts\\\\BaseNFT.sol\":6396:6404  newOwner */\n      dup2\n        /* \"contracts\\\\BaseNFT.sol\":6377:6395  _transferOwnership */\n      tag_107\n        /* \"contracts\\\\BaseNFT.sol\":6377:6405  _transferOwnership(newOwner) */\n      jump\t// in\n    tag_106:\n        /* \"contracts\\\\BaseNFT.sol\":6175:6413  function transferOwnership(address newOwner) public virtual onlyOwner {... */\n      pop\n      jump\t// out\n        /* \"contracts\\\\BaseNFT.sol\":15690:15956  function supportsInterface(... */\n    tag_58:\n        /* \"contracts\\\\BaseNFT.sol\":15808:15812  bool */\n      0x00\n        /* \"contracts\\\\BaseNFT.sol\":15860:15895  type(IERC721Enumerable).interfaceId */\n      0x18160ddd00000000000000000000000000000000000000000000000000000000\n        /* \"contracts\\\\BaseNFT.sol\":15845:15895  interfaceId == type(IERC721Enumerable).interfaceId */\n      not(0xffffffffffffffffffffffffffffffffffffffffffffffffffffffff)\n      and\n        /* \"contracts\\\\BaseNFT.sol\":15845:15856  interfaceId */\n      dup3\n        /* \"contracts\\\\BaseNFT.sol\":15845:15895  interfaceId == type(IERC721Enumerable).interfaceId */\n      not(0xffffffffffffffffffffffffffffffffffffffffffffffffffffffff)\n      and\n      eq\n        /* \"contracts\\\\BaseNFT.sol\":15845:15948  interfaceId == type(IERC721Enumerable).interfaceId ||... */\n      dup1\n      tag_109\n      jumpi\n      pop\n        /* \"contracts\\\\BaseNFT.sol\":15912:15948  super.supportsInterface(interfaceId) */\n      tag_110\n        /* \"contracts\\\\BaseNFT.sol\":15936:15947  interfaceId */\n      dup3\n        /* \"contracts\\\\BaseNFT.sol\":15912:15935  super.supportsInterface */\n      tag_111\n        /* \"contracts\\\\BaseNFT.sol\":15912:15948  super.supportsInterface(interfaceId) */\n      jump\t// in\n    tag_110:\n        /* \"contracts\\\\BaseNFT.sol\":15845:15948  interfaceId == type(IERC721Enumerable).interfaceId ||... */\n    tag_109:\n        /* \"contracts\\\\BaseNFT.sol\":15825:15948  return... */\n      swap1\n      pop\n        /* \"contracts\\\\BaseNFT.sol\":15690:15956  function supportsInterface(... */\n      swap2\n      swap1\n      pop\n      jump\t// out\n        /* \"contracts\\\\BaseNFT.sol\":14290:14875  function tokenURI(... */\n    tag_84:\n        /* \"contracts\\\\BaseNFT.sol\":14379:14392  string memory */\n      0x60\n        /* \"contracts\\\\BaseNFT.sol\":14427:14443  _exists(tokenId) */\n      tag_113\n        /* \"contracts\\\\BaseNFT.sol\":14435:14442  tokenId */\n      dup3\n        /* \"contracts\\\\BaseNFT.sol\":14427:14434  _exists */\n      tag_114\n        /* \"contracts\\\\BaseNFT.sol\":14427:14443  _exists(tokenId) */\n      jump\t// in\n    tag_113:\n        /* \"contracts\\\\BaseNFT.sol\":14405:14520  require(... */\n      tag_115\n      jumpi\n      mload(0x40)\n      0x08c379a000000000000000000000000000000000000000000000000000000000\n      dup2\n      mstore\n      0x04\n      add\n      tag_116\n      swap1\n      tag_117\n      jump\t// in\n    tag_116:\n      mload(0x40)\n      dup1\n      swap2\n      sub\n      swap1\n      revert\n    tag_115:\n        /* \"contracts\\\\BaseNFT.sol\":14533:14556  string memory _tokenURI */\n      0x00\n        /* \"contracts\\\\BaseNFT.sol\":14559:14569  _tokenURIs */\n      0x0a\n        /* \"contracts\\\\BaseNFT.sol\":14559:14578  _tokenURIs[tokenId] */\n      0x00\n        /* \"contracts\\\\BaseNFT.sol\":14570:14577  tokenId */\n      dup5\n        /* \"contracts\\\\BaseNFT.sol\":14559:14578  _tokenURIs[tokenId] */\n      dup2\n      mstore\n      0x20\n      add\n      swap1\n      dup2\n      mstore\n      0x20\n      add\n      0x00\n      keccak256\n        /* \"contracts\\\\BaseNFT.sol\":14533:14578  string memory _tokenURI = _tokenURIs[tokenId] */\n      dup1\n      sload\n      tag_118\n      swap1\n      tag_61\n      jump\t// in\n    tag_118:\n      dup1\n      0x1f\n      add\n      0x20\n      dup1\n      swap2\n      div\n      mul\n      0x20\n      add\n      mload(0x40)\n      swap1\n      dup2\n      add\n      0x40\n      mstore\n      dup1\n      swap3\n      swap2\n      swap1\n      dup2\n      dup2\n      mstore\n      0x20\n      add\n      dup3\n      dup1\n      sload\n      tag_119\n      swap1\n      tag_61\n      jump\t// in\n    tag_119:\n      dup1\n      iszero\n      tag_120\n      jumpi\n      dup1\n      0x1f\n      lt\n      tag_121\n      jumpi\n      0x0100\n      dup1\n      dup4\n      sload\n      div\n      mul\n      dup4\n      mstore\n      swap2\n      0x20\n      add\n      swap2\n      jump(tag_120)\n    tag_121:\n      dup3\n      add\n      swap2\n      swap1\n      0x00\n      mstore\n      keccak256(0x00, 0x20)\n      swap1\n    tag_122:\n      dup2\n      sload\n      dup2\n      mstore\n      swap1\n      0x01\n      add\n      swap1\n      0x20\n      add\n      dup1\n      dup4\n      gt\n      tag_122\n      jumpi\n      dup3\n      swap1\n      sub\n      0x1f\n      and\n      dup3\n      add\n      swap2\n    tag_120:\n      pop\n      pop\n      pop\n      pop\n      pop\n      swap1\n      pop\n        /* \"contracts\\\\BaseNFT.sol\":14589:14607  string memory base */\n      0x00\n        /* \"contracts\\\\BaseNFT.sol\":14610:14620  _baseURI() */\n      tag_123\n        /* \"contracts\\\\BaseNFT.sol\":14610:14618  _baseURI */\n      tag_124\n        /* \"contracts\\\\BaseNFT.sol\":14610:14620  _baseURI() */\n      jump\t// in\n    tag_123:\n        /* \"contracts\\\\BaseNFT.sol\":14589:14620  string memory base = _baseURI() */\n      swap1\n      pop\n        /* \"contracts\\\\BaseNFT.sol\":14659:14660  0 */\n      0x00\n        /* \"contracts\\\\BaseNFT.sol\":14643:14647  base */\n      dup2\n        /* \"contracts\\\\BaseNFT.sol\":14637:14655  bytes(base).length */\n      mload\n        /* \"contracts\\\\BaseNFT.sol\":14637:14660  bytes(base).length == 0 */\n      sub\n        /* \"contracts\\\\BaseNFT.sol\":14633:14705  if (bytes(base).length == 0) {... */\n      tag_125\n      jumpi\n        /* \"contracts\\\\BaseNFT.sol\":14684:14693  _tokenURI */\n      dup2\n        /* \"contracts\\\\BaseNFT.sol\":14677:14693  return _tokenURI */\n      swap3\n      pop\n      pop\n      pop\n      jump(tag_112)\n        /* \"contracts\\\\BaseNFT.sol\":14633:14705  if (bytes(base).length == 0) {... */\n    tag_125:\n        /* \"contracts\\\\BaseNFT.sol\":14747:14748  0 */\n      0x00\n        /* \"contracts\\\\BaseNFT.sol\":14727:14736  _tokenURI */\n      dup3\n        /* \"contracts\\\\BaseNFT.sol\":14721:14744  bytes(_tokenURI).length */\n      mload\n        /* \"contracts\\\\BaseNFT.sol\":14721:14748  bytes(_tokenURI).length > 0 */\n      gt\n        /* \"contracts\\\\BaseNFT.sol\":14717:14825  if (bytes(_tokenURI).length > 0) {... */\n      iszero\n      tag_126\n      jumpi\n        /* \"contracts\\\\BaseNFT.sol\":14796:14800  base */\n      dup1\n        /* \"contracts\\\\BaseNFT.sol\":14802:14811  _tokenURI */\n      dup3\n        /* \"contracts\\\\BaseNFT.sol\":14779:14812  abi.encodePacked(base, _tokenURI) */\n      add(0x20, mload(0x40))\n      tag_127\n      swap3\n      swap2\n      swap1\n      tag_128\n      jump\t// in\n    tag_127:\n      mload(0x40)\n      0x20\n      dup2\n      dup4\n      sub\n      sub\n      dup2\n      mstore\n      swap1\n      0x40\n      mstore\n        /* \"contracts\\\\BaseNFT.sol\":14765:14813  return string(abi.encodePacked(base, _tokenURI)) */\n      swap3\n      pop\n      pop\n      pop\n      jump(tag_112)\n        /* \"contracts\\\\BaseNFT.sol\":14717:14825  if (bytes(_tokenURI).length > 0) {... */\n    tag_126:\n        /* \"contracts\\\\BaseNFT.sol\":14844:14867  super.tokenURI(tokenId) */\n      tag_129\n        /* \"contracts\\\\BaseNFT.sol\":14859:14866  tokenId */\n      dup5\n        /* \"contracts\\\\BaseNFT.sol\":14844:14858  super.tokenURI */\n      tag_130\n        /* \"contracts\\\\BaseNFT.sol\":14844:14867  super.tokenURI(tokenId) */\n      jump\t// in\n    tag_129:\n        /* \"contracts\\\\BaseNFT.sol\":14837:14867  return super.tokenURI(tokenId) */\n      swap3\n      pop\n      pop\n      pop\n        /* \"contracts\\\\BaseNFT.sol\":14290:14875  function tokenURI(... */\n    tag_112:\n      swap2\n      swap1\n      pop\n      jump\t// out\n        /* \"contracts\\\\BaseNFT.sol\":5473:5571  function _msgSender() internal view virtual returns (address) {... */\n    tag_87:\n        /* \"contracts\\\\BaseNFT.sol\":5526:5533  address */\n      0x00\n        /* \"contracts\\\\BaseNFT.sol\":5553:5563  msg.sender */\n      caller\n        /* \"contracts\\\\BaseNFT.sol\":5546:5563  return msg.sender */\n      swap1\n      pop\n        /* \"contracts\\\\BaseNFT.sol\":5473:5571  function _msgSender() internal view virtual returns (address) {... */\n      swap1\n      jump\t// out\n        /* \"contracts\\\\BaseNFT.sol\":10453:10563  function _safeMint(address to, uint256 tokenId) internal virtual {... */\n    tag_94:\n        /* \"contracts\\\\BaseNFT.sol\":10529:10555  _safeMint(to, tokenId, \"\") */\n      tag_133\n        /* \"contracts\\\\BaseNFT.sol\":10539:10541  to */\n      dup3\n        /* \"contracts\\\\BaseNFT.sol\":10543:10550  tokenId */\n      dup3\n        /* \"contracts\\\\BaseNFT.sol\":10529:10555  _safeMint(to, tokenId, \"\") */\n      mload(0x40)\n      dup1\n      0x20\n      add\n      0x40\n      mstore\n      dup1\n      0x00\n      dup2\n      mstore\n      pop\n        /* \"contracts\\\\BaseNFT.sol\":10529:10538  _safeMint */\n      tag_134\n        /* \"contracts\\\\BaseNFT.sol\":10529:10555  _safeMint(to, tokenId, \"\") */\n      jump\t// in\n    tag_133:\n        /* \"contracts\\\\BaseNFT.sol\":10453:10563  function _safeMint(address to, uint256 tokenId) internal virtual {... */\n      pop\n      pop\n      jump\t// out\n        /* \"contracts\\\\BaseNFT.sol\":14883:15162  function _setTokenURI(... */\n    tag_96:\n        /* \"contracts\\\\BaseNFT.sol\":15022:15038  _exists(tokenId) */\n      tag_136\n        /* \"contracts\\\\BaseNFT.sol\":15030:15037  tokenId */\n      dup3\n        /* \"contracts\\\\BaseNFT.sol\":15022:15029  _exists */\n      tag_114\n        /* \"contracts\\\\BaseNFT.sol\":15022:15038  _exists(tokenId) */\n      jump\t// in\n    tag_136:\n        /* \"contracts\\\\BaseNFT.sol\":15000:15112  require(... */\n      tag_137\n      jumpi\n      mload(0x40)\n      0x08c379a000000000000000000000000000000000000000000000000000000000\n      dup2\n      mstore\n      0x04\n      add\n      tag_138\n      swap1\n      tag_139\n      jump\t// in\n    tag_138:\n      mload(0x40)\n      dup1\n      swap2\n      sub\n      swap1\n      revert\n    tag_137:\n        /* \"contracts\\\\BaseNFT.sol\":15145:15154  _tokenURI */\n      dup1\n        /* \"contracts\\\\BaseNFT.sol\":15123:15133  _tokenURIs */\n      0x0a\n        /* \"contracts\\\\BaseNFT.sol\":15123:15142  _tokenURIs[tokenId] */\n      0x00\n        /* \"contracts\\\\BaseNFT.sol\":15134:15141  tokenId */\n      dup5\n        /* \"contracts\\\\BaseNFT.sol\":15123:15142  _tokenURIs[tokenId] */\n      dup2\n      mstore\n      0x20\n      add\n      swap1\n      dup2\n      mstore\n      0x20\n      add\n      0x00\n      keccak256\n        /* \"contracts\\\\BaseNFT.sol\":15123:15154  _tokenURIs[tokenId] = _tokenURI */\n      swap1\n      dup2\n      tag_140\n      swap2\n      swap1\n      tag_141\n      jump\t// in\n    tag_140:\n      pop\n        /* \"contracts\\\\BaseNFT.sol\":14883:15162  function _setTokenURI(... */\n      pop\n      pop\n      jump\t// out\n        /* \"contracts\\\\BaseNFT.sol\":6421:6612  function _transferOwnership(address newOwner) internal virtual {... */\n    tag_107:\n        /* \"contracts\\\\BaseNFT.sol\":6495:6511  address oldOwner */\n      0x00\n        /* \"contracts\\\\BaseNFT.sol\":6514:6520  _owner */\n      0x0b\n      0x00\n      swap1\n      sload\n      swap1\n      0x0100\n      exp\n      swap1\n      div\n      0xffffffffffffffffffffffffffffffffffffffff\n      and\n        /* \"contracts\\\\BaseNFT.sol\":6495:6520  address oldOwner = _owner */\n      swap1\n      pop\n        /* \"contracts\\\\BaseNFT.sol\":6540:6548  newOwner */\n      dup2\n        /* \"contracts\\\\BaseNFT.sol\":6531:6537  _owner */\n      0x0b\n      0x00\n        /* \"contracts\\\\BaseNFT.sol\":6531:6548  _owner = newOwner */\n      0x0100\n      exp\n      dup2\n      sload\n      dup2\n      0xffffffffffffffffffffffffffffffffffffffff\n      mul\n      not\n      and\n      swap1\n      dup4\n      0xffffffffffffffffffffffffffffffffffffffff\n      and\n      mul\n      or\n      swap1\n      sstore\n      pop\n        /* \"contracts\\\\BaseNFT.sol\":6595:6603  newOwner */\n      dup2\n        /* \"contracts\\\\BaseNFT.sol\":6564:6604  OwnershipTransferred(oldOwner, newOwner) */\n      0xffffffffffffffffffffffffffffffffffffffff\n      and\n        /* \"contracts\\\\BaseNFT.sol\":6585:6593  oldOwner */\n      dup2\n        /* \"contracts\\\\BaseNFT.sol\":6564:6604  OwnershipTransferred(oldOwner, newOwner) */\n      0xffffffffffffffffffffffffffffffffffffffff\n      and\n      0x8be0079c531659141344cd1fd0a4f28419497f9722a3daafe3b4186f6b6457e0\n      mload(0x40)\n      mload(0x40)\n      dup1\n      swap2\n      sub\n      swap1\n      log3\n        /* \"contracts\\\\BaseNFT.sol\":6484:6612  {... */\n      pop\n        /* \"contracts\\\\BaseNFT.sol\":6421:6612  function _transferOwnership(address newOwner) internal virtual {... */\n      pop\n      jump\t// out\n        /* \"contracts\\\\BaseNFT.sol\":8656:8977  function supportsInterface(... */\n    tag_111:\n        /* \"contracts\\\\BaseNFT.sol\":8774:8778  bool */\n      0x00\n        /* \"contracts\\\\BaseNFT.sol\":8826:8851  type(IERC721).interfaceId */\n      0x13f2a32f00000000000000000000000000000000000000000000000000000000\n        /* \"contracts\\\\BaseNFT.sol\":8811:8851  interfaceId == type(IERC721).interfaceId */\n      not(0xffffffffffffffffffffffffffffffffffffffffffffffffffffffff)\n      and\n        /* \"contracts\\\\BaseNFT.sol\":8811:8822  interfaceId */\n      dup3\n        /* \"contracts\\\\BaseNFT.sol\":8811:8851  interfaceId == type(IERC721).interfaceId */\n      not(0xffffffffffffffffffffffffffffffffffffffffffffffffffffffff)\n      and\n      eq\n        /* \"contracts\\\\BaseNFT.sol\":8811:8916  interfaceId == type(IERC721).interfaceId ||... */\n      dup1\n      tag_144\n      jumpi\n      pop\n        /* \"contracts\\\\BaseNFT.sol\":8883:8916  type(IERC721Metadata).interfaceId */\n      0x5b5e139f00000000000000000000000000000000000000000000000000000000\n        /* \"contracts\\\\BaseNFT.sol\":8868:8916  interfaceId == type(IERC721Metadata).interfaceId */\n      not(0xffffffffffffffffffffffffffffffffffffffffffffffffffffffff)\n      and\n        /* \"contracts\\\\BaseNFT.sol\":8868:8879  interfaceId */\n      dup3\n        /* \"contracts\\\\BaseNFT.sol\":8868:8916  interfaceId == type(IERC721Metadata).interfaceId */\n      not(0xffffffffffffffffffffffffffffffffffffffffffffffffffffffff)\n      and\n      eq\n        /* \"contracts\\\\BaseNFT.sol\":8811:8916  interfaceId == type(IERC721).interfaceId ||... */\n    tag_144:\n        /* \"contracts\\\\BaseNFT.sol\":8811:8969  interfaceId == type(IERC721).interfaceId ||... */\n      dup1\n      tag_145\n      jumpi\n      pop\n        /* \"contracts\\\\BaseNFT.sol\":8933:8969  super.supportsInterface(interfaceId) */\n      tag_146\n        /* \"contracts\\\\BaseNFT.sol\":8957:8968  interfaceId */\n      dup3\n        /* \"contracts\\\\BaseNFT.sol\":8933:8956  super.supportsInterface */\n      tag_147\n        /* \"contracts\\\\BaseNFT.sol\":8933:8969  super.supportsInterface(interfaceId) */\n      jump\t// in\n    tag_146:\n        /* \"contracts\\\\BaseNFT.sol\":8811:8969  interfaceId == type(IERC721).interfaceId ||... */\n    tag_145:\n        /* \"contracts\\\\BaseNFT.sol\":8791:8969  return... */\n      swap1\n      pop\n        /* \"contracts\\\\BaseNFT.sol\":8656:8977  function supportsInterface(... */\n      swap2\n      swap1\n      pop\n      jump\t// out\n        /* \"contracts\\\\BaseNFT.sol\":10318:10445  function _exists(uint256 tokenId) internal view virtual returns (bool) {... */\n    tag_114:\n        /* \"contracts\\\\BaseNFT.sol\":10383:10387  bool */\n      0x00\n        /* \"contracts\\\\BaseNFT.sol\":10435:10436  0 */\n      dup1\n        /* \"contracts\\\\BaseNFT.sol\":10407:10437  _owners[tokenId] != address(0) */\n      0xffffffffffffffffffffffffffffffffffffffff\n      and\n        /* \"contracts\\\\BaseNFT.sol\":10407:10414  _owners */\n      0x02\n        /* \"contracts\\\\BaseNFT.sol\":10407:10423  _owners[tokenId] */\n      0x00\n        /* \"contracts\\\\BaseNFT.sol\":10415:10422  tokenId */\n      dup5\n        /* \"contracts\\\\BaseNFT.sol\":10407:10423  _owners[tokenId] */\n      dup2\n      mstore\n      0x20\n      add\n      swap1\n      dup2\n      mstore\n      0x20\n      add\n      0x00\n      keccak256\n      0x00\n      swap1\n      sload\n      swap1\n      0x0100\n      exp\n      swap1\n      div\n      0xffffffffffffffffffffffffffffffffffffffff\n      and\n        /* \"contracts\\\\BaseNFT.sol\":10407:10437  _owners[tokenId] != address(0) */\n      0xffffffffffffffffffffffffffffffffffffffff\n      and\n      eq\n      iszero\n        /* \"contracts\\\\BaseNFT.sol\":10400:10437  return _owners[tokenId] != address(0) */\n      swap1\n      pop\n        /* \"contracts\\\\BaseNFT.sol\":10318:10445  function _exists(uint256 tokenId) internal view virtual returns (bool) {... */\n      swap2\n      swap1\n      pop\n      jump\t// out\n        /* \"contracts\\\\BaseNFT.sol\":10216:10310  function _baseURI() internal view virtual returns (string memory) {... */\n    tag_124:\n        /* \"contracts\\\\BaseNFT.sol\":10267:10280  string memory */\n      0x60\n        /* \"contracts\\\\BaseNFT.sol\":10293:10302  return \"\" */\n      mload(0x40)\n      dup1\n      0x20\n      add\n      0x40\n      mstore\n      dup1\n      0x00\n      dup2\n      mstore\n      pop\n      swap1\n      pop\n        /* \"contracts\\\\BaseNFT.sol\":10216:10310  function _baseURI() internal view virtual returns (string memory) {... */\n      swap1\n      jump\t// out\n        /* \"contracts\\\\BaseNFT.sol\":9774:10208  function tokenURI(... */\n    tag_130:\n        /* \"contracts\\\\BaseNFT.sol\":9863:9876  string memory */\n      0x60\n        /* \"contracts\\\\BaseNFT.sol\":9911:9927  _exists(tokenId) */\n      tag_151\n        /* \"contracts\\\\BaseNFT.sol\":9919:9926  tokenId */\n      dup3\n        /* \"contracts\\\\BaseNFT.sol\":9911:9918  _exists */\n      tag_114\n        /* \"contracts\\\\BaseNFT.sol\":9911:9927  _exists(tokenId) */\n      jump\t// in\n    tag_151:\n        /* \"contracts\\\\BaseNFT.sol\":9889:10002  require(... */\n      tag_152\n      jumpi\n      mload(0x40)\n      0x08c379a000000000000000000000000000000000000000000000000000000000\n      dup2\n      mstore\n      0x04\n      add\n      tag_153\n      swap1\n      tag_154\n      jump\t// in\n    tag_153:\n      mload(0x40)\n      dup1\n      swap2\n      sub\n      swap1\n      revert\n    tag_152:\n        /* \"contracts\\\\BaseNFT.sol\":10015:10036  string memory baseURI */\n      0x00\n        /* \"contracts\\\\BaseNFT.sol\":10039:10049  _baseURI() */\n      tag_155\n        /* \"contracts\\\\BaseNFT.sol\":10039:10047  _baseURI */\n      tag_124\n        /* \"contracts\\\\BaseNFT.sol\":10039:10049  _baseURI() */\n      jump\t// in\n    tag_155:\n        /* \"contracts\\\\BaseNFT.sol\":10015:10049  string memory baseURI = _baseURI() */\n      swap1\n      pop\n        /* \"contracts\\\\BaseNFT.sol\":10104:10105  0 */\n      0x00\n        /* \"contracts\\\\BaseNFT.sol\":10086:10093  baseURI */\n      dup2\n        /* \"contracts\\\\BaseNFT.sol\":10080:10101  bytes(baseURI).length */\n      mload\n        /* \"contracts\\\\BaseNFT.sol\":10080:10105  bytes(baseURI).length > 0 */\n      gt\n        /* \"contracts\\\\BaseNFT.sol\":10080:10200  bytes(baseURI).length > 0... */\n      tag_156\n      jumpi\n      mload(0x40)\n      dup1\n      0x20\n      add\n      0x40\n      mstore\n      dup1\n      0x00\n      dup2\n      mstore\n      pop\n      jump(tag_157)\n    tag_156:\n        /* \"contracts\\\\BaseNFT.sol\":10149:10156  baseURI */\n      dup1\n        /* \"contracts\\\\BaseNFT.sol\":10158:10176  tokenId.toString() */\n      tag_158\n        /* \"contracts\\\\BaseNFT.sol\":10158:10165  tokenId */\n      dup5\n        /* \"contracts\\\\BaseNFT.sol\":10158:10174  tokenId.toString */\n      tag_159\n        /* \"contracts\\\\BaseNFT.sol\":10158:10176  tokenId.toString() */\n      jump\t// in\n    tag_158:\n        /* \"contracts\\\\BaseNFT.sol\":10132:10177  abi.encodePacked(baseURI, tokenId.toString()) */\n      add(0x20, mload(0x40))\n      tag_160\n      swap3\n      swap2\n      swap1\n      tag_128\n      jump\t// in\n    tag_160:\n      mload(0x40)\n      0x20\n      dup2\n      dup4\n      sub\n      sub\n      dup2\n      mstore\n      swap1\n      0x40\n      mstore\n        /* \"contracts\\\\BaseNFT.sol\":10080:10200  bytes(baseURI).length > 0... */\n    tag_157:\n        /* \"contracts\\\\BaseNFT.sol\":10060:10200  return... */\n      swap2\n      pop\n      pop\n        /* \"contracts\\\\BaseNFT.sol\":9774:10208  function tokenURI(... */\n      swap2\n      swap1\n      pop\n      jump\t// out\n        /* \"contracts\\\\BaseNFT.sol\":10571:10892  function _safeMint(... */\n    tag_134:\n        /* \"contracts\\\\BaseNFT.sol\":10701:10719  _mint(to, tokenId) */\n      tag_162\n        /* \"contracts\\\\BaseNFT.sol\":10707:10709  to */\n      dup4\n        /* \"contracts\\\\BaseNFT.sol\":10711:10718  tokenId */\n      dup4\n        /* \"contracts\\\\BaseNFT.sol\":10701:10706  _mint */\n      tag_163\n        /* \"contracts\\\\BaseNFT.sol\":10701:10719  _mint(to, tokenId) */\n      jump\t// in\n    tag_162:\n        /* \"contracts\\\\BaseNFT.sol\":10752:10806  _checkOnERC721Received(address(0), to, tokenId, _data) */\n      tag_164\n        /* \"contracts\\\\BaseNFT.sol\":10783:10784  0 */\n      0x00\n        /* \"contracts\\\\BaseNFT.sol\":10787:10789  to */\n      dup5\n        /* \"contracts\\\\BaseNFT.sol\":10791:10798  tokenId */\n      dup5\n        /* \"contracts\\\\BaseNFT.sol\":10800:10805  _data */\n      dup5\n        /* \"contracts\\\\BaseNFT.sol\":10752:10774  _checkOnERC721Received */\n      tag_165\n        /* \"contracts\\\\BaseNFT.sol\":10752:10806  _checkOnERC721Received(address(0), to, tokenId, _data) */\n      jump\t// in\n    tag_164:\n        /* \"contracts\\\\BaseNFT.sol\":10730:10884  require(... */\n      tag_166\n      jumpi\n      mload(0x40)\n      0x08c379a000000000000000000000000000000000000000000000000000000000\n      dup2\n      mstore\n      0x04\n      add\n      tag_167\n      swap1\n      tag_168\n      jump\t// in\n    tag_167:\n      mload(0x40)\n      dup1\n      swap2\n      sub\n      swap1\n      revert\n    tag_166:\n        /* \"contracts\\\\BaseNFT.sol\":10571:10892  function _safeMint(... */\n      pop\n      pop\n      pop\n      jump\t// out\n        /* \"contracts\\\\BaseNFT.sol\":7912:8085  function supportsInterface(... */\n    tag_147:\n        /* \"contracts\\\\BaseNFT.sol\":8013:8017  bool */\n      0x00\n        /* \"contracts\\\\BaseNFT.sol\":8052:8077  type(IERC165).interfaceId */\n      0x01ffc9a700000000000000000000000000000000000000000000000000000000\n        /* \"contracts\\\\BaseNFT.sol\":8037:8077  interfaceId == type(IERC165).interfaceId */\n      not(0xffffffffffffffffffffffffffffffffffffffffffffffffffffffff)\n      and\n        /* \"contracts\\\\BaseNFT.sol\":8037:8048  interfaceId */\n      dup3\n        /* \"contracts\\\\BaseNFT.sol\":8037:8077  interfaceId == type(IERC165).interfaceId */\n      not(0xffffffffffffffffffffffffffffffffffffffffffffffffffffffff)\n      and\n      eq\n        /* \"contracts\\\\BaseNFT.sol\":8030:8077  return interfaceId == type(IERC165).interfaceId */\n      swap1\n      pop\n        /* \"contracts\\\\BaseNFT.sol\":7912:8085  function supportsInterface(... */\n      swap2\n      swap1\n      pop\n      jump\t// out\n        /* \"contracts\\\\BaseNFT.sol\":149:681  function toString(uint256 value) internal pure returns (string memory) {... */\n    tag_159:\n        /* \"contracts\\\\BaseNFT.sol\":205:218  string memory */\n      0x60\n        /* \"contracts\\\\BaseNFT.sol\":244:245  0 */\n      0x00\n        /* \"contracts\\\\BaseNFT.sol\":235:240  value */\n      dup3\n        /* \"contracts\\\\BaseNFT.sol\":235:245  value == 0 */\n      sub\n        /* \"contracts\\\\BaseNFT.sol\":231:284  if (value == 0) {... */\n      tag_171\n      jumpi\n        /* \"contracts\\\\BaseNFT.sol\":262:272  return \"0\" */\n      mload(0x40)\n      dup1\n      0x40\n      add\n      0x40\n      mstore\n      dup1\n      0x01\n      dup2\n      mstore\n      0x20\n      add\n      0x3000000000000000000000000000000000000000000000000000000000000000\n      dup2\n      mstore\n      pop\n      swap1\n      pop\n      jump(tag_170)\n        /* \"contracts\\\\BaseNFT.sol\":231:284  if (value == 0) {... */\n    tag_171:\n        /* \"contracts\\\\BaseNFT.sol\":294:306  uint256 temp */\n      0x00\n        /* \"contracts\\\\BaseNFT.sol\":309:314  value */\n      dup3\n        /* \"contracts\\\\BaseNFT.sol\":294:314  uint256 temp = value */\n      swap1\n      pop\n        /* \"contracts\\\\BaseNFT.sol\":325:339  uint256 digits */\n      0x00\n        /* \"contracts\\\\BaseNFT.sol\":350:428  while (temp != 0) {... */\n    tag_172:\n        /* \"contracts\\\\BaseNFT.sol\":365:366  0 */\n      0x00\n        /* \"contracts\\\\BaseNFT.sol\":357:361  temp */\n      dup3\n        /* \"contracts\\\\BaseNFT.sol\":357:366  temp != 0 */\n      eq\n        /* \"contracts\\\\BaseNFT.sol\":350:428  while (temp != 0) {... */\n      tag_173\n      jumpi\n        /* \"contracts\\\\BaseNFT.sol\":383:391  digits++ */\n      dup1\n      dup1\n      tag_174\n      swap1\n      tag_175\n      jump\t// in\n    tag_174:\n      swap2\n      pop\n      pop\n        /* \"contracts\\\\BaseNFT.sol\":414:416  10 */\n      0x0a\n        /* \"contracts\\\\BaseNFT.sol\":406:416  temp /= 10 */\n      dup3\n      tag_176\n      swap2\n      swap1\n      tag_177\n      jump\t// in\n    tag_176:\n      swap2\n      pop\n        /* \"contracts\\\\BaseNFT.sol\":350:428  while (temp != 0) {... */\n      jump(tag_172)\n    tag_173:\n        /* \"contracts\\\\BaseNFT.sol\":438:457  bytes memory buffer */\n      0x00\n        /* \"contracts\\\\BaseNFT.sol\":470:476  digits */\n      dup2\n        /* \"contracts\\\\BaseNFT.sol\":460:477  new bytes(digits) */\n      0xffffffffffffffff\n      dup2\n      gt\n      iszero\n      tag_178\n      jumpi\n      tag_179\n      tag_180\n      jump\t// in\n    tag_179:\n    tag_178:\n      mload(0x40)\n      swap1\n      dup1\n      dup3\n      mstore\n      dup1\n      0x1f\n      add\n      not(0x1f)\n      and\n      0x20\n      add\n      dup3\n      add\n      0x40\n      mstore\n      dup1\n      iszero\n      tag_181\n      jumpi\n      dup2\n      0x20\n      add\n      0x01\n      dup3\n      mul\n      dup1\n      calldatasize\n      dup4\n      calldatacopy\n      dup1\n      dup3\n      add\n      swap2\n      pop\n      pop\n      swap1\n      pop\n    tag_181:\n      pop\n        /* \"contracts\\\\BaseNFT.sol\":438:477  bytes memory buffer = new bytes(digits) */\n      swap1\n      pop\n        /* \"contracts\\\\BaseNFT.sol\":488:642  while (value != 0) {... */\n    tag_182:\n        /* \"contracts\\\\BaseNFT.sol\":504:505  0 */\n      0x00\n        /* \"contracts\\\\BaseNFT.sol\":495:500  value */\n      dup6\n        /* \"contracts\\\\BaseNFT.sol\":495:505  value != 0 */\n      eq\n        /* \"contracts\\\\BaseNFT.sol\":488:642  while (value != 0) {... */\n      tag_183\n      jumpi\n        /* \"contracts\\\\BaseNFT.sol\":532:533  1 */\n      0x01\n        /* \"contracts\\\\BaseNFT.sol\":522:533  digits -= 1 */\n      dup3\n      tag_184\n      swap2\n      swap1\n      tag_185\n      jump\t// in\n    tag_184:\n      swap2\n      pop\n        /* \"contracts\\\\BaseNFT.sol\":599:601  10 */\n      0x0a\n        /* \"contracts\\\\BaseNFT.sol\":591:596  value */\n      dup6\n        /* \"contracts\\\\BaseNFT.sol\":591:601  value % 10 */\n      tag_186\n      swap2\n      swap1\n      tag_187\n      jump\t// in\n    tag_186:\n        /* \"contracts\\\\BaseNFT.sol\":578:580  48 */\n      0x30\n        /* \"contracts\\\\BaseNFT.sol\":578:602  48 + uint256(value % 10) */\n      tag_188\n      swap2\n      swap1\n      tag_189\n      jump\t// in\n    tag_188:\n        /* \"contracts\\\\BaseNFT.sol\":565:604  bytes1(uint8(48 + uint256(value % 10))) */\n      0xf8\n      shl\n        /* \"contracts\\\\BaseNFT.sol\":548:554  buffer */\n      dup2\n        /* \"contracts\\\\BaseNFT.sol\":555:561  digits */\n      dup4\n        /* \"contracts\\\\BaseNFT.sol\":548:562  buffer[digits] */\n      dup2\n      mload\n      dup2\n      lt\n      tag_190\n      jumpi\n      tag_191\n      tag_192\n      jump\t// in\n    tag_191:\n    tag_190:\n      0x20\n      add\n      add\n        /* \"contracts\\\\BaseNFT.sol\":548:604  buffer[digits] = bytes1(uint8(48 + uint256(value % 10))) */\n      swap1\n      not(0xffffffffffffffffffffffffffffffffffffffffffffffffffffffffffffff)\n      and\n      swap1\n      dup2\n      0x00\n      byte\n      swap1\n      mstore8\n      pop\n        /* \"contracts\\\\BaseNFT.sol\":628:630  10 */\n      0x0a\n        /* \"contracts\\\\BaseNFT.sol\":619:630  value /= 10 */\n      dup6\n      tag_193\n      swap2\n      swap1\n      tag_177\n      jump\t// in\n    tag_193:\n      swap5\n      pop\n        /* \"contracts\\\\BaseNFT.sol\":488:642  while (value != 0) {... */\n      jump(tag_182)\n    tag_183:\n        /* \"contracts\\\\BaseNFT.sol\":666:672  buffer */\n      dup1\n        /* \"contracts\\\\BaseNFT.sol\":652:673  return string(buffer) */\n      swap4\n      pop\n      pop\n      pop\n      pop\n        /* \"contracts\\\\BaseNFT.sol\":149:681  function toString(uint256 value) internal pure returns (string memory) {... */\n    tag_170:\n      swap2\n      swap1\n      pop\n      jump\t// out\n        /* \"contracts\\\\BaseNFT.sol\":10900:11339  function _mint(address to, uint256 tokenId) internal virtual {... */\n    tag_163:\n        /* \"contracts\\\\BaseNFT.sol\":10994:10995  0 */\n      0x00\n        /* \"contracts\\\\BaseNFT.sol\":10980:10996  to != address(0) */\n      0xffffffffffffffffffffffffffffffffffffffff\n      and\n        /* \"contracts\\\\BaseNFT.sol\":10980:10982  to */\n      dup3\n        /* \"contracts\\\\BaseNFT.sol\":10980:10996  to != address(0) */\n      0xffffffffffffffffffffffffffffffffffffffff\n      and\n      sub\n        /* \"contracts\\\\BaseNFT.sol\":10972:11033  require(to != address(0), \"ERC721: mint to the zero address\") */\n      tag_195\n      jumpi\n      mload(0x40)\n      0x08c379a000000000000000000000000000000000000000000000000000000000\n      dup2\n      mstore\n      0x04\n      add\n      tag_196\n      swap1\n      tag_197\n      jump\t// in\n    tag_196:\n      mload(0x40)\n      dup1\n      swap2\n      sub\n      swap1\n      revert\n    tag_195:\n        /* \"contracts\\\\BaseNFT.sol\":11053:11069  _exists(tokenId) */\n      tag_198\n        /* \"contracts\\\\BaseNFT.sol\":11061:11068  tokenId */\n      dup2\n        /* \"contracts\\\\BaseNFT.sol\":11053:11060  _exists */\n      tag_114\n        /* \"contracts\\\\BaseNFT.sol\":11053:11069  _exists(tokenId) */\n      jump\t// in\n    tag_198:\n        /* \"contracts\\\\BaseNFT.sol\":11052:11069  !_exists(tokenId) */\n      iszero\n        /* \"contracts\\\\BaseNFT.sol\":11044:11102  require(!_exists(tokenId), \"ERC721: token already minted\") */\n      tag_199\n      jumpi\n      mload(0x40)\n      0x08c379a000000000000000000000000000000000000000000000000000000000\n      dup2\n      mstore\n      0x04\n      add\n      tag_200\n      swap1\n      tag_201\n      jump\t// in\n    tag_200:\n      mload(0x40)\n      dup1\n      swap2\n      sub\n      swap1\n      revert\n    tag_199:\n        /* \"contracts\\\\BaseNFT.sol\":11115:11160  _beforeTokenTransfer(address(0), to, tokenId) */\n      tag_202\n        /* \"contracts\\\\BaseNFT.sol\":11144:11145  0 */\n      0x00\n        /* \"contracts\\\\BaseNFT.sol\":11148:11150  to */\n      dup4\n        /* \"contracts\\\\BaseNFT.sol\":11152:11159  tokenId */\n      dup4\n        /* \"contracts\\\\BaseNFT.sol\":11115:11135  _beforeTokenTransfer */\n      tag_203\n        /* \"contracts\\\\BaseNFT.sol\":11115:11160  _beforeTokenTransfer(address(0), to, tokenId) */\n      jump\t// in\n    tag_202:\n        /* \"contracts\\\\BaseNFT.sol\":11190:11191  1 */\n      0x01\n        /* \"contracts\\\\BaseNFT.sol\":11173:11182  _balances */\n      0x03\n        /* \"contracts\\\\BaseNFT.sol\":11173:11186  _balances[to] */\n      0x00\n        /* \"contracts\\\\BaseNFT.sol\":11183:11185  to */\n      dup5\n        /* \"contracts\\\\BaseNFT.sol\":11173:11186  _balances[to] */\n      0xffffffffffffffffffffffffffffffffffffffff\n      and\n      0xffffffffffffffffffffffffffffffffffffffff\n      and\n      dup2\n      mstore\n      0x20\n      add\n      swap1\n      dup2\n      mstore\n      0x20\n      add\n      0x00\n      keccak256\n      0x00\n        /* \"contracts\\\\BaseNFT.sol\":11173:11191  _balances[to] += 1 */\n      dup3\n      dup3\n      sload\n      tag_204\n      swap2\n      swap1\n      tag_189\n      jump\t// in\n    tag_204:\n      swap3\n      pop\n      pop\n      dup2\n      swap1\n      sstore\n      pop\n        /* \"contracts\\\\BaseNFT.sol\":11221:11223  to */\n      dup2\n        /* \"contracts\\\\BaseNFT.sol\":11202:11209  _owners */\n      0x02\n        /* \"contracts\\\\BaseNFT.sol\":11202:11218  _owners[tokenId] */\n      0x00\n        /* \"contracts\\\\BaseNFT.sol\":11210:11217  tokenId */\n      dup4\n        /* \"contracts\\\\BaseNFT.sol\":11202:11218  _owners[tokenId] */\n      dup2\n      mstore\n      0x20\n      add\n      swap1\n      dup2\n      mstore\n      0x20\n      add\n      0x00\n      keccak256\n      0x00\n        /* \"contracts\\\\BaseNFT.sol\":11202:11223  _owners[tokenId] = to */\n      0x0100\n      exp\n      dup2\n      sload\n      dup2\n      0xffffffffffffffffffffffffffffffffffffffff\n      mul\n      not\n      and\n      swap1\n      dup4\n      0xffffffffffffffffffffffffffffffffffffffff\n      and\n      mul\n      or\n      swap1\n      sstore\n      pop\n        /* \"contracts\\\\BaseNFT.sol\":11266:11273  tokenId */\n      dup1\n        /* \"contracts\\\\BaseNFT.sol\":11262:11264  to */\n      dup3\n        /* \"contracts\\\\BaseNFT.sol\":11241:11274  Transfer(address(0), to, tokenId) */\n      0xffffffffffffffffffffffffffffffffffffffff\n      and\n        /* \"contracts\\\\BaseNFT.sol\":11258:11259  0 */\n      0x00\n        /* \"contracts\\\\BaseNFT.sol\":11241:11274  Transfer(address(0), to, tokenId) */\n      0xffffffffffffffffffffffffffffffffffffffff\n      and\n      0xddf252ad1be2c89b69c2b068fc378daa952ba7f163c4a11628f55a4df523b3ef\n      mload(0x40)\n      mload(0x40)\n      dup1\n      swap2\n      sub\n      swap1\n      log4\n        /* \"contracts\\\\BaseNFT.sol\":11287:11331  _afterTokenTransfer(address(0), to, tokenId) */\n      tag_205\n        /* \"contracts\\\\BaseNFT.sol\":11315:11316  0 */\n      0x00\n        /* \"contracts\\\\BaseNFT.sol\":11319:11321  to */\n      dup4\n        /* \"contracts\\\\BaseNFT.sol\":11323:11330  tokenId */\n      dup4\n        /* \"contracts\\\\BaseNFT.sol\":11287:11306  _afterTokenTransfer */\n      tag_206\n        /* \"contracts\\\\BaseNFT.sol\":11287:11331  _afterTokenTransfer(address(0), to, tokenId) */\n      jump\t// in\n    tag_205:\n        /* \"contracts\\\\BaseNFT.sol\":10900:11339  function _mint(address to, uint256 tokenId) internal virtual {... */\n      pop\n      pop\n      jump\t// out\n        /* \"contracts\\\\BaseNFT.sol\":12898:13878  function _checkOnERC721Received(... */\n    tag_165:\n        /* \"contracts\\\\BaseNFT.sol\":13053:13057  bool */\n      0x00\n        /* \"contracts\\\\BaseNFT.sol\":13074:13089  to.isContract() */\n      tag_208\n        /* \"contracts\\\\BaseNFT.sol\":13074:13076  to */\n      dup5\n        /* \"contracts\\\\BaseNFT.sol\":13074:13087  to.isContract */\n      0xffffffffffffffffffffffffffffffffffffffff\n      and\n      tag_209\n        /* \"contracts\\\\BaseNFT.sol\":13074:13089  to.isContract() */\n      jump\t// in\n    tag_208:\n        /* \"contracts\\\\BaseNFT.sol\":13070:13871  if (to.isContract()) {... */\n      iszero\n      tag_210\n      jumpi\n        /* \"contracts\\\\BaseNFT.sol\":13143:13145  to */\n      dup4\n        /* \"contracts\\\\BaseNFT.sol\":13127:13163  IERC721Receiver(to).onERC721Received */\n      0xffffffffffffffffffffffffffffffffffffffff\n      and\n      0x150b7a02\n        /* \"contracts\\\\BaseNFT.sol\":13186:13198  _msgSender() */\n      tag_211\n        /* \"contracts\\\\BaseNFT.sol\":13186:13196  _msgSender */\n      tag_87\n        /* \"contracts\\\\BaseNFT.sol\":13186:13198  _msgSender() */\n      jump\t// in\n    tag_211:\n        /* \"contracts\\\\BaseNFT.sol\":13221:13225  from */\n      dup8\n        /* \"contracts\\\\BaseNFT.sol\":13248:13255  tokenId */\n      dup7\n        /* \"contracts\\\\BaseNFT.sol\":13278:13283  _data */\n      dup7\n        /* \"contracts\\\\BaseNFT.sol\":13127:13302  IERC721Receiver(to).onERC721Received(... */\n      mload(0x40)\n      dup6\n      0xffffffff\n      and\n      0xe0\n      shl\n      dup2\n      mstore\n      0x04\n      add\n      tag_212\n      swap5\n      swap4\n      swap3\n      swap2\n      swap1\n      tag_213\n      jump\t// in\n    tag_212:\n      0x20\n      mload(0x40)\n      dup1\n      dup4\n      sub\n      dup2\n      0x00\n      dup8\n      gas\n      call\n      swap3\n      pop\n      pop\n      pop\n      dup1\n      iszero\n      tag_214\n      jumpi\n      pop\n      mload(0x40)\n      returndatasize\n      not(0x1f)\n      0x1f\n      dup3\n      add\n      and\n      dup3\n      add\n      dup1\n      0x40\n      mstore\n      pop\n      dup2\n      add\n      swap1\n      tag_215\n      swap2\n      swap1\n      tag_216\n      jump\t// in\n    tag_215:\n      0x01\n    tag_214:\n        /* \"contracts\\\\BaseNFT.sol\":13106:13816  try... */\n      tag_217\n      jumpi\n      returndatasize\n      dup1\n      0x00\n      dup2\n      eq\n      tag_222\n      jumpi\n      mload(0x40)\n      swap2\n      pop\n      and(add(returndatasize, 0x3f), not(0x1f))\n      dup3\n      add\n      0x40\n      mstore\n      returndatasize\n      dup3\n      mstore\n      returndatasize\n      0x00\n      0x20\n      dup5\n      add\n      returndatacopy\n      jump(tag_221)\n    tag_222:\n      0x60\n      swap2\n      pop\n    tag_221:\n      pop\n        /* \"contracts\\\\BaseNFT.sol\":13502:13503  0 */\n      0x00\n        /* \"contracts\\\\BaseNFT.sol\":13485:13491  reason */\n      dup2\n        /* \"contracts\\\\BaseNFT.sol\":13485:13498  reason.length */\n      mload\n        /* \"contracts\\\\BaseNFT.sol\":13485:13503  reason.length == 0 */\n      sub\n        /* \"contracts\\\\BaseNFT.sol\":13481:13801  if (reason.length == 0) {... */\n      tag_223\n      jumpi\n        /* \"contracts\\\\BaseNFT.sol\":13528:13636  revert(... */\n      mload(0x40)\n      0x08c379a000000000000000000000000000000000000000000000000000000000\n      dup2\n      mstore\n      0x04\n      add\n      tag_224\n      swap1\n      tag_168\n      jump\t// in\n    tag_224:\n      mload(0x40)\n      dup1\n      swap2\n      sub\n      swap1\n      revert\n        /* \"contracts\\\\BaseNFT.sol\":13481:13801  if (reason.length == 0) {... */\n    tag_223:\n        /* \"contracts\\\\BaseNFT.sol\":13751:13757  reason */\n      dup1\n        /* \"contracts\\\\BaseNFT.sol\":13745:13758  mload(reason) */\n      mload\n        /* \"contracts\\\\BaseNFT.sol\":13736:13742  reason */\n      dup2\n        /* \"contracts\\\\BaseNFT.sol\":13732:13734  32 */\n      0x20\n        /* \"contracts\\\\BaseNFT.sol\":13728:13743  add(32, reason) */\n      add\n        /* \"contracts\\\\BaseNFT.sol\":13721:13759  revert(add(32, reason), mload(reason)) */\n      revert\n        /* \"contracts\\\\BaseNFT.sol\":13106:13816  try... */\n    tag_217:\n        /* \"contracts\\\\BaseNFT.sol\":13376:13417  IERC721Receiver.onERC721Received.selector */\n      shl(0xe0, 0x150b7a02)\n        /* \"contracts\\\\BaseNFT.sol\":13366:13417  retval == IERC721Receiver.onERC721Received.selector */\n      not(0xffffffffffffffffffffffffffffffffffffffffffffffffffffffff)\n      and\n        /* \"contracts\\\\BaseNFT.sol\":13366:13372  retval */\n      dup2\n        /* \"contracts\\\\BaseNFT.sol\":13366:13417  retval == IERC721Receiver.onERC721Received.selector */\n      not(0xffffffffffffffffffffffffffffffffffffffffffffffffffffffff)\n      and\n      eq\n        /* \"contracts\\\\BaseNFT.sol\":13359:13417  return retval == IERC721Receiver.onERC721Received.selector */\n      swap2\n      pop\n      pop\n      jump(tag_207)\n        /* \"contracts\\\\BaseNFT.sol\":13070:13871  if (to.isContract()) {... */\n    tag_210:\n        /* \"contracts\\\\BaseNFT.sol\":13855:13859  true */\n      0x01\n        /* \"contracts\\\\BaseNFT.sol\":13848:13859  return true */\n      swap1\n      pop\n        /* \"contracts\\\\BaseNFT.sol\":12898:13878  function _checkOnERC721Received(... */\n    tag_207:\n      swap5\n      swap4\n      pop\n      pop\n      pop\n      pop\n      jump\t// out\n        /* \"contracts\\\\BaseNFT.sol\":18769:18984  function _beforeTokenTransfer(... */\n    tag_203:\n        /* \"contracts\\\\BaseNFT.sol\":18931:18976  super._beforeTokenTransfer(from, to, tokenId) */\n      tag_229\n        /* \"contracts\\\\BaseNFT.sol\":18958:18962  from */\n      dup4\n        /* \"contracts\\\\BaseNFT.sol\":18964:18966  to */\n      dup4\n        /* \"contracts\\\\BaseNFT.sol\":18968:18975  tokenId */\n      dup4\n        /* \"contracts\\\\BaseNFT.sol\":18931:18957  super._beforeTokenTransfer */\n      tag_230\n        /* \"contracts\\\\BaseNFT.sol\":18931:18976  super._beforeTokenTransfer(from, to, tokenId) */\n      jump\t// in\n    tag_229:\n        /* \"contracts\\\\BaseNFT.sol\":18769:18984  function _beforeTokenTransfer(... */\n      pop\n      pop\n      pop\n      jump\t// out\n        /* \"contracts\\\\BaseNFT.sol\":14020:14145  function _afterTokenTransfer(... */\n    tag_206:\n      pop\n      pop\n      pop\n      jump\t// out\n        /* \"contracts\\\\BaseNFT.sol\":1543:1658  function isContract(address account) internal view returns (bool) {... */\n    tag_209:\n        /* \"contracts\\\\BaseNFT.sol\":1603:1607  bool */\n      0x00\n        /* \"contracts\\\\BaseNFT.sol\":1649:1650  0 */\n      dup1\n        /* \"contracts\\\\BaseNFT.sol\":1627:1634  account */\n      dup3\n        /* \"contracts\\\\BaseNFT.sol\":1627:1646  account.code.length */\n      0xffffffffffffffffffffffffffffffffffffffff\n      and\n      extcodesize\n        /* \"contracts\\\\BaseNFT.sol\":1627:1650  account.code.length > 0 */\n      gt\n        /* \"contracts\\\\BaseNFT.sol\":1620:1650  return account.code.length > 0 */\n      swap1\n      pop\n        /* \"contracts\\\\BaseNFT.sol\":1543:1658  function isContract(address account) internal view returns (bool) {... */\n      swap2\n      swap1\n      pop\n      jump\t// out\n        /* \"contracts\\\\BaseNFT.sol\":16085:16674  function _beforeTokenTransfer(... */\n    tag_230:\n        /* \"contracts\\\\BaseNFT.sol\":16229:16274  super._beforeTokenTransfer(from, to, tokenId) */\n      tag_234\n        /* \"contracts\\\\BaseNFT.sol\":16256:16260  from */\n      dup4\n        /* \"contracts\\\\BaseNFT.sol\":16262:16264  to */\n      dup4\n        /* \"contracts\\\\BaseNFT.sol\":16266:16273  tokenId */\n      dup4\n        /* \"contracts\\\\BaseNFT.sol\":16229:16255  super._beforeTokenTransfer */\n      tag_235\n        /* \"contracts\\\\BaseNFT.sol\":16229:16274  super._beforeTokenTransfer(from, to, tokenId) */\n      jump\t// in\n    tag_234:\n        /* \"contracts\\\\BaseNFT.sol\":16307:16308  0 */\n      0x00\n        /* \"contracts\\\\BaseNFT.sol\":16291:16309  from == address(0) */\n      0xffffffffffffffffffffffffffffffffffffffff\n      and\n        /* \"contracts\\\\BaseNFT.sol\":16291:16295  from */\n      dup4\n        /* \"contracts\\\\BaseNFT.sol\":16291:16309  from == address(0) */\n      0xffffffffffffffffffffffffffffffffffffffff\n      and\n      sub\n        /* \"contracts\\\\BaseNFT.sol\":16287:16474  if (from == address(0)) {... */\n      tag_236\n      jumpi\n        /* \"contracts\\\\BaseNFT.sol\":16326:16366  _addTokenToAllTokensEnumeration(tokenId) */\n      tag_237\n        /* \"contracts\\\\BaseNFT.sol\":16358:16365  tokenId */\n      dup2\n        /* \"contracts\\\\BaseNFT.sol\":16326:16357  _addTokenToAllTokensEnumeration */\n      tag_238\n        /* \"contracts\\\\BaseNFT.sol\":16326:16366  _addTokenToAllTokensEnumeration(tokenId) */\n      jump\t// in\n    tag_237:\n        /* \"contracts\\\\BaseNFT.sol\":16287:16474  if (from == address(0)) {... */\n      jump(tag_239)\n    tag_236:\n        /* \"contracts\\\\BaseNFT.sol\":16396:16398  to */\n      dup2\n        /* \"contracts\\\\BaseNFT.sol\":16388:16398  from != to */\n      0xffffffffffffffffffffffffffffffffffffffff\n      and\n        /* \"contracts\\\\BaseNFT.sol\":16388:16392  from */\n      dup4\n        /* \"contracts\\\\BaseNFT.sol\":16388:16398  from != to */\n      0xffffffffffffffffffffffffffffffffffffffff\n      and\n      eq\n        /* \"contracts\\\\BaseNFT.sol\":16384:16474  if (from != to) {... */\n      tag_240\n      jumpi\n        /* \"contracts\\\\BaseNFT.sol\":16415:16462  _removeTokenFromOwnerEnumeration(from, tokenId) */\n      tag_241\n        /* \"contracts\\\\BaseNFT.sol\":16448:16452  from */\n      dup4\n        /* \"contracts\\\\BaseNFT.sol\":16454:16461  tokenId */\n      dup3\n        /* \"contracts\\\\BaseNFT.sol\":16415:16447  _removeTokenFromOwnerEnumeration */\n      tag_242\n        /* \"contracts\\\\BaseNFT.sol\":16415:16462  _removeTokenFromOwnerEnumeration(from, tokenId) */\n      jump\t// in\n    tag_241:\n        /* \"contracts\\\\BaseNFT.sol\":16384:16474  if (from != to) {... */\n    tag_240:\n        /* \"contracts\\\\BaseNFT.sol\":16287:16474  if (from == address(0)) {... */\n    tag_239:\n        /* \"contracts\\\\BaseNFT.sol\":16502:16503  0 */\n      0x00\n        /* \"contracts\\\\BaseNFT.sol\":16488:16504  to == address(0) */\n      0xffffffffffffffffffffffffffffffffffffffff\n      and\n        /* \"contracts\\\\BaseNFT.sol\":16488:16490  to */\n      dup3\n        /* \"contracts\\\\BaseNFT.sol\":16488:16504  to == address(0) */\n      0xffffffffffffffffffffffffffffffffffffffff\n      and\n      sub\n        /* \"contracts\\\\BaseNFT.sol\":16484:16667  if (to == address(0)) {... */\n      tag_243\n      jumpi\n        /* \"contracts\\\\BaseNFT.sol\":16521:16566  _removeTokenFromAllTokensEnumeration(tokenId) */\n      tag_244\n        /* \"contracts\\\\BaseNFT.sol\":16558:16565  tokenId */\n      dup2\n        /* \"contracts\\\\BaseNFT.sol\":16521:16557  _removeTokenFromAllTokensEnumeration */\n      tag_245\n        /* \"contracts\\\\BaseNFT.sol\":16521:16566  _removeTokenFromAllTokensEnumeration(tokenId) */\n      jump\t// in\n    tag_244:\n        /* \"contracts\\\\BaseNFT.sol\":16484:16667  if (to == address(0)) {... */\n      jump(tag_246)\n    tag_243:\n        /* \"contracts\\\\BaseNFT.sol\":16594:16598  from */\n      dup3\n        /* \"contracts\\\\BaseNFT.sol\":16588:16598  to != from */\n      0xffffffffffffffffffffffffffffffffffffffff\n      and\n        /* \"contracts\\\\BaseNFT.sol\":16588:16590  to */\n      dup3\n        /* \"contracts\\\\BaseNFT.sol\":16588:16598  to != from */\n      0xffffffffffffffffffffffffffffffffffffffff\n      and\n      eq\n        /* \"contracts\\\\BaseNFT.sol\":16584:16667  if (to != from) {... */\n      tag_247\n      jumpi\n        /* \"contracts\\\\BaseNFT.sol\":16615:16655  _addTokenToOwnerEnumeration(to, tokenId) */\n      tag_248\n        /* \"contracts\\\\BaseNFT.sol\":16643:16645  to */\n      dup3\n        /* \"contracts\\\\BaseNFT.sol\":16647:16654  tokenId */\n      dup3\n        /* \"contracts\\\\BaseNFT.sol\":16615:16642  _addTokenToOwnerEnumeration */\n      tag_249\n        /* \"contracts\\\\BaseNFT.sol\":16615:16655  _addTokenToOwnerEnumeration(to, tokenId) */\n      jump\t// in\n    tag_248:\n        /* \"contracts\\\\BaseNFT.sol\":16584:16667  if (to != from) {... */\n    tag_247:\n        /* \"contracts\\\\BaseNFT.sol\":16484:16667  if (to == address(0)) {... */\n    tag_246:\n        /* \"contracts\\\\BaseNFT.sol\":16085:16674  function _beforeTokenTransfer(... */\n      pop\n      pop\n      pop\n      jump\t// out\n        /* \"contracts\\\\BaseNFT.sol\":13886:14012  function _beforeTokenTransfer(... */\n    tag_235:\n      pop\n      pop\n      pop\n      jump\t// out\n        /* \"contracts\\\\BaseNFT.sol\":16911:17075  function _addTokenToAllTokensEnumeration(uint256 tokenId) private {... */\n    tag_238:\n        /* \"contracts\\\\BaseNFT.sol\":17015:17025  _allTokens */\n      0x08\n        /* \"contracts\\\\BaseNFT.sol\":17015:17032  _allTokens.length */\n      dup1\n      sload\n      swap1\n      pop\n        /* \"contracts\\\\BaseNFT.sol\":16988:17003  _allTokensIndex */\n      0x09\n        /* \"contracts\\\\BaseNFT.sol\":16988:17012  _allTokensIndex[tokenId] */\n      0x00\n        /* \"contracts\\\\BaseNFT.sol\":17004:17011  tokenId */\n      dup4\n        /* \"contracts\\\\BaseNFT.sol\":16988:17012  _allTokensIndex[tokenId] */\n      dup2\n      mstore\n      0x20\n      add\n      swap1\n      dup2\n      mstore\n      0x20\n      add\n      0x00\n      keccak256\n        /* \"contracts\\\\BaseNFT.sol\":16988:17032  _allTokensIndex[tokenId] = _allTokens.length */\n      dup2\n      swap1\n      sstore\n      pop\n        /* \"contracts\\\\BaseNFT.sol\":17043:17053  _allTokens */\n      0x08\n        /* \"contracts\\\\BaseNFT.sol\":17059:17066  tokenId */\n      dup2\n        /* \"contracts\\\\BaseNFT.sol\":17043:17067  _allTokens.push(tokenId) */\n      swap1\n      dup1\n      0x01\n      dup2\n      sload\n      add\n      dup1\n      dup3\n      sstore\n      dup1\n      swap2\n      pop\n      pop\n      0x01\n      swap1\n      sub\n      swap1\n      0x00\n      mstore\n      keccak256(0x00, 0x20)\n      add\n      0x00\n      swap1\n      swap2\n      swap1\n      swap2\n      swap1\n      swap2\n      pop\n      sstore\n        /* \"contracts\\\\BaseNFT.sol\":16911:17075  function _addTokenToAllTokensEnumeration(uint256 tokenId) private {... */\n      pop\n      jump\t// out\n        /* \"contracts\\\\BaseNFT.sol\":17083:17755  function _removeTokenFromOwnerEnumeration(... */\n    tag_242:\n        /* \"contracts\\\\BaseNFT.sol\":17200:17222  uint256 lastTokenIndex */\n      0x00\n        /* \"contracts\\\\BaseNFT.sol\":17250:17251  1 */\n      0x01\n        /* \"contracts\\\\BaseNFT.sol\":17225:17247  ERC721.balanceOf(from) */\n      tag_254\n        /* \"contracts\\\\BaseNFT.sol\":17242:17246  from */\n      dup5\n        /* \"contracts\\\\BaseNFT.sol\":17225:17241  ERC721.balanceOf */\n      tag_37\n        /* \"contracts\\\\BaseNFT.sol\":17225:17247  ERC721.balanceOf(from) */\n      jump\t// in\n    tag_254:\n        /* \"contracts\\\\BaseNFT.sol\":17225:17251  ERC721.balanceOf(from) - 1 */\n      tag_255\n      swap2\n      swap1\n      tag_185\n      jump\t// in\n    tag_255:\n        /* \"contracts\\\\BaseNFT.sol\":17200:17251  uint256 lastTokenIndex = ERC721.balanceOf(from) - 1 */\n      swap1\n      pop\n        /* \"contracts\\\\BaseNFT.sol\":17262:17280  uint256 tokenIndex */\n      0x00\n        /* \"contracts\\\\BaseNFT.sol\":17283:17300  _ownedTokensIndex */\n      0x07\n        /* \"contracts\\\\BaseNFT.sol\":17283:17309  _ownedTokensIndex[tokenId] */\n      0x00\n        /* \"contracts\\\\BaseNFT.sol\":17301:17308  tokenId */\n      dup5\n        /* \"contracts\\\\BaseNFT.sol\":17283:17309  _ownedTokensIndex[tokenId] */\n      dup2\n      mstore\n      0x20\n      add\n      swap1\n      dup2\n      mstore\n      0x20\n      add\n      0x00\n      keccak256\n      sload\n        /* \"contracts\\\\BaseNFT.sol\":17262:17309  uint256 tokenIndex = _ownedTokensIndex[tokenId] */\n      swap1\n      pop\n        /* \"contracts\\\\BaseNFT.sol\":17340:17354  lastTokenIndex */\n      dup2\n        /* \"contracts\\\\BaseNFT.sol\":17326:17336  tokenIndex */\n      dup2\n        /* \"contracts\\\\BaseNFT.sol\":17326:17354  tokenIndex != lastTokenIndex */\n      eq\n        /* \"contracts\\\\BaseNFT.sol\":17322:17650  if (tokenIndex != lastTokenIndex) {... */\n      tag_256\n      jumpi\n        /* \"contracts\\\\BaseNFT.sol\":17371:17390  uint256 lastTokenId */\n      0x00\n        /* \"contracts\\\\BaseNFT.sol\":17393:17405  _ownedTokens */\n      0x06\n        /* \"contracts\\\\BaseNFT.sol\":17393:17411  _ownedTokens[from] */\n      0x00\n        /* \"contracts\\\\BaseNFT.sol\":17406:17410  from */\n      dup7\n        /* \"contracts\\\\BaseNFT.sol\":17393:17411  _ownedTokens[from] */\n      0xffffffffffffffffffffffffffffffffffffffff\n      and\n      0xffffffffffffffffffffffffffffffffffffffff\n      and\n      dup2\n      mstore\n      0x20\n      add\n      swap1\n      dup2\n      mstore\n      0x20\n      add\n      0x00\n      keccak256\n        /* \"contracts\\\\BaseNFT.sol\":17393:17427  _ownedTokens[from][lastTokenIndex] */\n      0x00\n        /* \"contracts\\\\BaseNFT.sol\":17412:17426  lastTokenIndex */\n      dup5\n        /* \"contracts\\\\BaseNFT.sol\":17393:17427  _ownedTokens[from][lastTokenIndex] */\n      dup2\n      mstore\n      0x20\n      add\n      swap1\n      dup2\n      mstore\n      0x20\n      add\n      0x00\n      keccak256\n      sload\n        /* \"contracts\\\\BaseNFT.sol\":17371:17427  uint256 lastTokenId = _ownedTokens[from][lastTokenIndex] */\n      swap1\n      pop\n        /* \"contracts\\\\BaseNFT.sol\":17477:17488  lastTokenId */\n      dup1\n        /* \"contracts\\\\BaseNFT.sol\":17444:17456  _ownedTokens */\n      0x06\n        /* \"contracts\\\\BaseNFT.sol\":17444:17462  _ownedTokens[from] */\n      0x00\n        /* \"contracts\\\\BaseNFT.sol\":17457:17461  from */\n      dup8\n        /* \"contracts\\\\BaseNFT.sol\":17444:17462  _ownedTokens[from] */\n      0xffffffffffffffffffffffffffffffffffffffff\n      and\n      0xffffffffffffffffffffffffffffffffffffffff\n      and\n      dup2\n      mstore\n      0x20\n      add\n      swap1\n      dup2\n      mstore\n      0x20\n      add\n      0x00\n      keccak256\n        /* \"contracts\\\\BaseNFT.sol\":17444:17474  _ownedTokens[from][tokenIndex] */\n      0x00\n        /* \"contracts\\\\BaseNFT.sol\":17463:17473  tokenIndex */\n      dup5\n        /* \"contracts\\\\BaseNFT.sol\":17444:17474  _ownedTokens[from][tokenIndex] */\n      dup2\n      mstore\n      0x20\n      add\n      swap1\n      dup2\n      mstore\n      0x20\n      add\n      0x00\n      keccak256\n        /* \"contracts\\\\BaseNFT.sol\":17444:17488  _ownedTokens[from][tokenIndex] = lastTokenId */\n      dup2\n      swap1\n      sstore\n      pop\n        /* \"contracts\\\\BaseNFT.sol\":17594:17604  tokenIndex */\n      dup2\n        /* \"contracts\\\\BaseNFT.sol\":17561:17578  _ownedTokensIndex */\n      0x07\n        /* \"contracts\\\\BaseNFT.sol\":17561:17591  _ownedTokensIndex[lastTokenId] */\n      0x00\n        /* \"contracts\\\\BaseNFT.sol\":17579:17590  lastTokenId */\n      dup4\n        /* \"contracts\\\\BaseNFT.sol\":17561:17591  _ownedTokensIndex[lastTokenId] */\n      dup2\n      mstore\n      0x20\n      add\n      swap1\n      dup2\n      mstore\n      0x20\n      add\n      0x00\n      keccak256\n        /* \"contracts\\\\BaseNFT.sol\":17561:17604  _ownedTokensIndex[lastTokenId] = tokenIndex */\n      dup2\n      swap1\n      sstore\n      pop\n        /* \"contracts\\\\BaseNFT.sol\":17356:17650  {... */\n      pop\n        /* \"contracts\\\\BaseNFT.sol\":17322:17650  if (tokenIndex != lastTokenIndex) {... */\n    tag_256:\n        /* \"contracts\\\\BaseNFT.sol\":17669:17686  _ownedTokensIndex */\n      0x07\n        /* \"contracts\\\\BaseNFT.sol\":17669:17695  _ownedTokensIndex[tokenId] */\n      0x00\n        /* \"contracts\\\\BaseNFT.sol\":17687:17694  tokenId */\n      dup5\n        /* \"contracts\\\\BaseNFT.sol\":17669:17695  _ownedTokensIndex[tokenId] */\n      dup2\n      mstore\n      0x20\n      add\n      swap1\n      dup2\n      mstore\n      0x20\n      add\n      0x00\n      keccak256\n        /* \"contracts\\\\BaseNFT.sol\":17662:17695  delete _ownedTokensIndex[tokenId] */\n      0x00\n      swap1\n      sstore\n        /* \"contracts\\\\BaseNFT.sol\":17713:17725  _ownedTokens */\n      0x06\n        /* \"contracts\\\\BaseNFT.sol\":17713:17731  _ownedTokens[from] */\n      0x00\n        /* \"contracts\\\\BaseNFT.sol\":17726:17730  from */\n      dup6\n        /* \"contracts\\\\BaseNFT.sol\":17713:17731  _ownedTokens[from] */\n      0xffffffffffffffffffffffffffffffffffffffff\n      and\n      0xffffffffffffffffffffffffffffffffffffffff\n      and\n      dup2\n      mstore\n      0x20\n      add\n      swap1\n      dup2\n      mstore\n      0x20\n      add\n      0x00\n      keccak256\n        /* \"contracts\\\\BaseNFT.sol\":17713:17747  _ownedTokens[from][lastTokenIndex] */\n      0x00\n        /* \"contracts\\\\BaseNFT.sol\":17732:17746  lastTokenIndex */\n      dup4\n        /* \"contracts\\\\BaseNFT.sol\":17713:17747  _ownedTokens[from][lastTokenIndex] */\n      dup2\n      mstore\n      0x20\n      add\n      swap1\n      dup2\n      mstore\n      0x20\n      add\n      0x00\n      keccak256\n        /* \"contracts\\\\BaseNFT.sol\":17706:17747  delete _ownedTokens[from][lastTokenIndex] */\n      0x00\n      swap1\n      sstore\n        /* \"contracts\\\\BaseNFT.sol\":17189:17755  {... */\n      pop\n      pop\n        /* \"contracts\\\\BaseNFT.sol\":17083:17755  function _removeTokenFromOwnerEnumeration(... */\n      pop\n      pop\n      jump\t// out\n        /* \"contracts\\\\BaseNFT.sol\":17763:18357  function _removeTokenFromAllTokensEnumeration(uint256 tokenId) private {... */\n    tag_245:\n        /* \"contracts\\\\BaseNFT.sol\":17845:17867  uint256 lastTokenIndex */\n      0x00\n        /* \"contracts\\\\BaseNFT.sol\":17890:17891  1 */\n      0x01\n        /* \"contracts\\\\BaseNFT.sol\":17870:17880  _allTokens */\n      0x08\n        /* \"contracts\\\\BaseNFT.sol\":17870:17887  _allTokens.length */\n      dup1\n      sload\n      swap1\n      pop\n        /* \"contracts\\\\BaseNFT.sol\":17870:17891  _allTokens.length - 1 */\n      tag_258\n      swap2\n      swap1\n      tag_185\n      jump\t// in\n    tag_258:\n        /* \"contracts\\\\BaseNFT.sol\":17845:17891  uint256 lastTokenIndex = _allTokens.length - 1 */\n      swap1\n      pop\n        /* \"contracts\\\\BaseNFT.sol\":17902:17920  uint256 tokenIndex */\n      0x00\n        /* \"contracts\\\\BaseNFT.sol\":17923:17938  _allTokensIndex */\n      0x09\n        /* \"contracts\\\\BaseNFT.sol\":17923:17947  _allTokensIndex[tokenId] */\n      0x00\n        /* \"contracts\\\\BaseNFT.sol\":17939:17946  tokenId */\n      dup5\n        /* \"contracts\\\\BaseNFT.sol\":17923:17947  _allTokensIndex[tokenId] */\n      dup2\n      mstore\n      0x20\n      add\n      swap1\n      dup2\n      mstore\n      0x20\n      add\n      0x00\n      keccak256\n      sload\n        /* \"contracts\\\\BaseNFT.sol\":17902:17947  uint256 tokenIndex = _allTokensIndex[tokenId] */\n      swap1\n      pop\n        /* \"contracts\\\\BaseNFT.sol\":17960:17979  uint256 lastTokenId */\n      0x00\n        /* \"contracts\\\\BaseNFT.sol\":17982:17992  _allTokens */\n      0x08\n        /* \"contracts\\\\BaseNFT.sol\":17993:18007  lastTokenIndex */\n      dup4\n        /* \"contracts\\\\BaseNFT.sol\":17982:18008  _allTokens[lastTokenIndex] */\n      dup2\n      sload\n      dup2\n      lt\n      tag_259\n      jumpi\n      tag_260\n      tag_192\n      jump\t// in\n    tag_260:\n    tag_259:\n      swap1\n      0x00\n      mstore\n      keccak256(0x00, 0x20)\n      add\n      sload\n        /* \"contracts\\\\BaseNFT.sol\":17960:18008  uint256 lastTokenId = _allTokens[lastTokenIndex] */\n      swap1\n      pop\n        /* \"contracts\\\\BaseNFT.sol\":18046:18057  lastTokenId */\n      dup1\n        /* \"contracts\\\\BaseNFT.sol\":18021:18031  _allTokens */\n      0x08\n        /* \"contracts\\\\BaseNFT.sol\":18032:18042  tokenIndex */\n      dup4\n        /* \"contracts\\\\BaseNFT.sol\":18021:18043  _allTokens[tokenIndex] */\n      dup2\n      sload\n      dup2\n      lt\n      tag_262\n      jumpi\n      tag_263\n      tag_192\n      jump\t// in\n    tag_263:\n    tag_262:\n      swap1\n      0x00\n      mstore\n      keccak256(0x00, 0x20)\n      add\n        /* \"contracts\\\\BaseNFT.sol\":18021:18057  _allTokens[tokenIndex] = lastTokenId */\n      dup2\n      swap1\n      sstore\n      pop\n        /* \"contracts\\\\BaseNFT.sol\":18157:18167  tokenIndex */\n      dup2\n        /* \"contracts\\\\BaseNFT.sol\":18126:18141  _allTokensIndex */\n      0x09\n        /* \"contracts\\\\BaseNFT.sol\":18126:18154  _allTokensIndex[lastTokenId] */\n      0x00\n        /* \"contracts\\\\BaseNFT.sol\":18142:18153  lastTokenId */\n      dup4\n        /* \"contracts\\\\BaseNFT.sol\":18126:18154  _allTokensIndex[lastTokenId] */\n      dup2\n      mstore\n      0x20\n      add\n      swap1\n      dup2\n      mstore\n      0x20\n      add\n      0x00\n      keccak256\n        /* \"contracts\\\\BaseNFT.sol\":18126:18167  _allTokensIndex[lastTokenId] = tokenIndex */\n      dup2\n      swap1\n      sstore\n      pop\n        /* \"contracts\\\\BaseNFT.sol\":18298:18313  _allTokensIndex */\n      0x09\n        /* \"contracts\\\\BaseNFT.sol\":18298:18322  _allTokensIndex[tokenId] */\n      0x00\n        /* \"contracts\\\\BaseNFT.sol\":18314:18321  tokenId */\n      dup6\n        /* \"contracts\\\\BaseNFT.sol\":18298:18322  _allTokensIndex[tokenId] */\n      dup2\n      mstore\n      0x20\n      add\n      swap1\n      dup2\n      mstore\n      0x20\n      add\n      0x00\n      keccak256\n        /* \"contracts\\\\BaseNFT.sol\":18291:18322  delete _allTokensIndex[tokenId] */\n      0x00\n      swap1\n      sstore\n        /* \"contracts\\\\BaseNFT.sol\":18333:18343  _allTokens */\n      0x08\n        /* \"contracts\\\\BaseNFT.sol\":18333:18349  _allTokens.pop() */\n      dup1\n      sload\n      dup1\n      tag_265\n      jumpi\n      tag_266\n      tag_267\n      jump\t// in\n    tag_266:\n    tag_265:\n      0x01\n      swap1\n      sub\n      dup2\n      dup2\n      swap1\n      0x00\n      mstore\n      keccak256(0x00, 0x20)\n      add\n      0x00\n      swap1\n      sstore\n      swap1\n      sstore\n        /* \"contracts\\\\BaseNFT.sol\":17834:18357  {... */\n      pop\n      pop\n      pop\n        /* \"contracts\\\\BaseNFT.sol\":17763:18357  function _removeTokenFromAllTokensEnumeration(uint256 tokenId) private {... */\n      pop\n      jump\t// out\n        /* \"contracts\\\\BaseNFT.sol\":16682:16903  function _addTokenToOwnerEnumeration(address to, uint256 tokenId) private {... */\n    tag_249:\n        /* \"contracts\\\\BaseNFT.sol\":16767:16781  uint256 length */\n      0x00\n        /* \"contracts\\\\BaseNFT.sol\":16784:16804  ERC721.balanceOf(to) */\n      tag_270\n        /* \"contracts\\\\BaseNFT.sol\":16801:16803  to */\n      dup4\n        /* \"contracts\\\\BaseNFT.sol\":16784:16800  ERC721.balanceOf */\n      tag_37\n        /* \"contracts\\\\BaseNFT.sol\":16784:16804  ERC721.balanceOf(to) */\n      jump\t// in\n    tag_270:\n        /* \"contracts\\\\BaseNFT.sol\":16767:16804  uint256 length = ERC721.balanceOf(to) */\n      swap1\n      pop\n        /* \"contracts\\\\BaseNFT.sol\":16842:16849  tokenId */\n      dup2\n        /* \"contracts\\\\BaseNFT.sol\":16815:16827  _ownedTokens */\n      0x06\n        /* \"contracts\\\\BaseNFT.sol\":16815:16831  _ownedTokens[to] */\n      0x00\n        /* \"contracts\\\\BaseNFT.sol\":16828:16830  to */\n      dup6\n        /* \"contracts\\\\BaseNFT.sol\":16815:16831  _ownedTokens[to] */\n      0xffffffffffffffffffffffffffffffffffffffff\n      and\n      0xffffffffffffffffffffffffffffffffffffffff\n      and\n      dup2\n      mstore\n      0x20\n      add\n      swap1\n      dup2\n      mstore\n      0x20\n      add\n      0x00\n      keccak256\n        /* \"contracts\\\\BaseNFT.sol\":16815:16839  _ownedTokens[to][length] */\n      0x00\n        /* \"contracts\\\\BaseNFT.sol\":16832:16838  length */\n      dup4\n        /* \"contracts\\\\BaseNFT.sol\":16815:16839  _ownedTokens[to][length] */\n      dup2\n      mstore\n      0x20\n      add\n      swap1\n      dup2\n      mstore\n      0x20\n      add\n      0x00\n      keccak256\n        /* \"contracts\\\\BaseNFT.sol\":16815:16849  _ownedTokens[to][length] = tokenId */\n      dup2\n      swap1\n      sstore\n      pop\n        /* \"contracts\\\\BaseNFT.sol\":16889:16895  length */\n      dup1\n        /* \"contracts\\\\BaseNFT.sol\":16860:16877  _ownedTokensIndex */\n      0x07\n        /* \"contracts\\\\BaseNFT.sol\":16860:16886  _ownedTokensIndex[tokenId] */\n      0x00\n        /* \"contracts\\\\BaseNFT.sol\":16878:16885  tokenId */\n      dup5\n        /* \"contracts\\\\BaseNFT.sol\":16860:16886  _ownedTokensIndex[tokenId] */\n      dup2\n      mstore\n      0x20\n      add\n      swap1\n      dup2\n      mstore\n      0x20\n      add\n      0x00\n      keccak256\n        /* \"contracts\\\\BaseNFT.sol\":16860:16895  _ownedTokensIndex[tokenId] = length */\n      dup2\n      swap1\n      sstore\n      pop\n        /* \"contracts\\\\BaseNFT.sol\":16756:16903  {... */\n      pop\n        /* \"contracts\\\\BaseNFT.sol\":16682:16903  function _addTokenToOwnerEnumeration(address to, uint256 tokenId) private {... */\n      pop\n      pop\n      jump\t// out\n        /* \"#utility.yul\":88:205   */\n    tag_272:\n        /* \"#utility.yul\":197:198   */\n      0x00\n        /* \"#utility.yul\":194:195   */\n      dup1\n        /* \"#utility.yul\":187:199   */\n      revert\n        /* \"#utility.yul\":211:328   */\n    tag_273:\n        /* \"#utility.yul\":320:321   */\n      0x00\n        /* \"#utility.yul\":317:318   */\n      dup1\n        /* \"#utility.yul\":310:322   */\n      revert\n        /* \"#utility.yul\":334:483   */\n    tag_274:\n        /* \"#utility.yul\":370:377   */\n      0x00\n        /* \"#utility.yul\":410:476   */\n      0xffffffff00000000000000000000000000000000000000000000000000000000\n        /* \"#utility.yul\":403:408   */\n      dup3\n        /* \"#utility.yul\":399:477   */\n      and\n        /* \"#utility.yul\":388:477   */\n      swap1\n      pop\n        /* \"#utility.yul\":334:483   */\n      swap2\n      swap1\n      pop\n      jump\t// out\n        /* \"#utility.yul\":489:609   */\n    tag_275:\n        /* \"#utility.yul\":561:584   */\n      tag_347\n        /* \"#utility.yul\":578:583   */\n      dup2\n        /* \"#utility.yul\":561:584   */\n      tag_274\n      jump\t// in\n    tag_347:\n        /* \"#utility.yul\":554:559   */\n      dup2\n        /* \"#utility.yul\":551:585   */\n      eq\n        /* \"#utility.yul\":541:603   */\n      tag_348\n      jumpi\n        /* \"#utility.yul\":599:600   */\n      0x00\n        /* \"#utility.yul\":596:597   */\n      dup1\n        /* \"#utility.yul\":589:601   */\n      revert\n        /* \"#utility.yul\":541:603   */\n    tag_348:\n        /* \"#utility.yul\":489:609   */\n      pop\n      jump\t// out\n        /* \"#utility.yul\":615:752   */\n    tag_276:\n        /* \"#utility.yul\":660:665   */\n      0x00\n        /* \"#utility.yul\":698:704   */\n      dup2\n        /* \"#utility.yul\":685:705   */\n      calldataload\n        /* \"#utility.yul\":676:705   */\n      swap1\n      pop\n        /* \"#utility.yul\":714:746   */\n      tag_350\n        /* \"#utility.yul\":740:745   */\n      dup2\n        /* \"#utility.yul\":714:746   */\n      tag_275\n      jump\t// in\n    tag_350:\n        /* \"#utility.yul\":615:752   */\n      swap3\n      swap2\n      pop\n      pop\n      jump\t// out\n        /* \"#utility.yul\":758:1085   */\n    tag_16:\n        /* \"#utility.yul\":816:822   */\n      0x00\n        /* \"#utility.yul\":865:867   */\n      0x20\n        /* \"#utility.yul\":853:862   */\n      dup3\n        /* \"#utility.yul\":844:851   */\n      dup5\n        /* \"#utility.yul\":840:863   */\n      sub\n        /* \"#utility.yul\":836:868   */\n      slt\n        /* \"#utility.yul\":833:952   */\n      iszero\n      tag_352\n      jumpi\n        /* \"#utility.yul\":871:950   */\n      tag_353\n      tag_272\n      jump\t// in\n    tag_353:\n        /* \"#utility.yul\":833:952   */\n    tag_352:\n        /* \"#utility.yul\":991:992   */\n      0x00\n        /* \"#utility.yul\":1016:1068   */\n      tag_354\n        /* \"#utility.yul\":1060:1067   */\n      dup5\n        /* \"#utility.yul\":1051:1057   */\n      dup3\n        /* \"#utility.yul\":1040:1049   */\n      dup6\n        /* \"#utility.yul\":1036:1058   */\n      add\n        /* \"#utility.yul\":1016:1068   */\n      tag_276\n      jump\t// in\n    tag_354:\n        /* \"#utility.yul\":1006:1068   */\n      swap2\n      pop\n        /* \"#utility.yul\":962:1078   */\n      pop\n        /* \"#utility.yul\":758:1085   */\n      swap3\n      swap2\n      pop\n      pop\n      jump\t// out\n        /* \"#utility.yul\":1091:1181   */\n    tag_277:\n        /* \"#utility.yul\":1125:1132   */\n      0x00\n        /* \"#utility.yul\":1168:1173   */\n      dup2\n        /* \"#utility.yul\":1161:1174   */\n      iszero\n        /* \"#utility.yul\":1154:1175   */\n      iszero\n        /* \"#utility.yul\":1143:1175   */\n      swap1\n      pop\n        /* \"#utility.yul\":1091:1181   */\n      swap2\n      swap1\n      pop\n      jump\t// out\n        /* \"#utility.yul\":1187:1296   */\n    tag_278:\n        /* \"#utility.yul\":1268:1289   */\n      tag_357\n        /* \"#utility.yul\":1283:1288   */\n      dup2\n        /* \"#utility.yul\":1268:1289   */\n      tag_277\n      jump\t// in\n    tag_357:\n        /* \"#utility.yul\":1263:1266   */\n      dup3\n        /* \"#utility.yul\":1256:1290   */\n      mstore\n        /* \"#utility.yul\":1187:1296   */\n      pop\n      pop\n      jump\t// out\n        /* \"#utility.yul\":1302:1512   */\n    tag_19:\n        /* \"#utility.yul\":1389:1393   */\n      0x00\n        /* \"#utility.yul\":1427:1429   */\n      0x20\n        /* \"#utility.yul\":1416:1425   */\n      dup3\n        /* \"#utility.yul\":1412:1430   */\n      add\n        /* \"#utility.yul\":1404:1430   */\n      swap1\n      pop\n        /* \"#utility.yul\":1440:1505   */\n      tag_359\n        /* \"#utility.yul\":1502:1503   */\n      0x00\n        /* \"#utility.yul\":1491:1500   */\n      dup4\n        /* \"#utility.yul\":1487:1504   */\n      add\n        /* \"#utility.yul\":1478:1484   */\n      dup5\n        /* \"#utility.yul\":1440:1505   */\n      tag_278\n      jump\t// in\n    tag_359:\n        /* \"#utility.yul\":1302:1512   */\n      swap3\n      swap2\n      pop\n      pop\n      jump\t// out\n        /* \"#utility.yul\":1518:1617   */\n    tag_279:\n        /* \"#utility.yul\":1570:1576   */\n      0x00\n        /* \"#utility.yul\":1604:1609   */\n      dup2\n        /* \"#utility.yul\":1598:1610   */\n      mload\n        /* \"#utility.yul\":1588:1610   */\n      swap1\n      pop\n        /* \"#utility.yul\":1518:1617   */\n      swap2\n      swap1\n      pop\n      jump\t// out\n        /* \"#utility.yul\":1623:1792   */\n    tag_280:\n        /* \"#utility.yul\":1707:1718   */\n      0x00\n        /* \"#utility.yul\":1741:1747   */\n      dup3\n        /* \"#utility.yul\":1736:1739   */\n      dup3\n        /* \"#utility.yul\":1729:1748   */\n      mstore\n        /* \"#utility.yul\":1781:1785   */\n      0x20\n        /* \"#utility.yul\":1776:1779   */\n      dup3\n        /* \"#utility.yul\":1772:1786   */\n      add\n        /* \"#utility.yul\":1757:1786   */\n      swap1\n      pop\n        /* \"#utility.yul\":1623:1792   */\n      swap3\n      swap2\n      pop\n      pop\n      jump\t// out\n        /* \"#utility.yul\":1798:2044   */\n    tag_281:\n        /* \"#utility.yul\":1879:1880   */\n      0x00\n        /* \"#utility.yul\":1889:2002   */\n    tag_363:\n        /* \"#utility.yul\":1903:1909   */\n      dup4\n        /* \"#utility.yul\":1900:1901   */\n      dup2\n        /* \"#utility.yul\":1897:1910   */\n      lt\n        /* \"#utility.yul\":1889:2002   */\n      iszero\n      tag_365\n      jumpi\n        /* \"#utility.yul\":1988:1989   */\n      dup1\n        /* \"#utility.yul\":1983:1986   */\n      dup3\n        /* \"#utility.yul\":1979:1990   */\n      add\n        /* \"#utility.yul\":1973:1991   */\n      mload\n        /* \"#utility.yul\":1969:1970   */\n      dup2\n        /* \"#utility.yul\":1964:1967   */\n      dup5\n        /* \"#utility.yul\":1960:1971   */\n      add\n        /* \"#utility.yul\":1953:1992   */\n      mstore\n        /* \"#utility.yul\":1925:1927   */\n      0x20\n        /* \"#utility.yul\":1922:1923   */\n      dup2\n        /* \"#utility.yul\":1918:1928   */\n      add\n        /* \"#utility.yul\":1913:1928   */\n      swap1\n      pop\n        /* \"#utility.yul\":1889:2002   */\n      jump(tag_363)\n    tag_365:\n        /* \"#utility.yul\":2036:2037   */\n      0x00\n        /* \"#utility.yul\":2027:2033   */\n      dup5\n        /* \"#utility.yul\":2022:2025   */\n      dup5\n        /* \"#utility.yul\":2018:2034   */\n      add\n        /* \"#utility.yul\":2011:2038   */\n      mstore\n        /* \"#utility.yul\":1860:2044   */\n      pop\n        /* \"#utility.yul\":1798:2044   */\n      pop\n      pop\n      pop\n      jump\t// out\n        /* \"#utility.yul\":2050:2152   */\n    tag_282:\n        /* \"#utility.yul\":2091:2097   */\n      0x00\n        /* \"#utility.yul\":2142:2144   */\n      0x1f\n        /* \"#utility.yul\":2138:2145   */\n      not\n        /* \"#utility.yul\":2133:2135   */\n      0x1f\n        /* \"#utility.yul\":2126:2131   */\n      dup4\n        /* \"#utility.yul\":2122:2136   */\n      add\n        /* \"#utility.yul\":2118:2146   */\n      and\n        /* \"#utility.yul\":2108:2146   */\n      swap1\n      pop\n        /* \"#utility.yul\":2050:2152   */\n      swap2\n      swap1\n      pop\n      jump\t// out\n        /* \"#utility.yul\":2158:2535   */\n    tag_283:\n        /* \"#utility.yul\":2246:2249   */\n      0x00\n        /* \"#utility.yul\":2274:2313   */\n      tag_368\n        /* \"#utility.yul\":2307:2312   */\n      dup3\n        /* \"#utility.yul\":2274:2313   */\n      tag_279\n      jump\t// in\n    tag_368:\n        /* \"#utility.yul\":2329:2400   */\n      tag_369\n        /* \"#utility.yul\":2393:2399   */\n      dup2\n        /* \"#utility.yul\":2388:2391   */\n      dup6\n        /* \"#utility.yul\":2329:2400   */\n      tag_280\n      jump\t// in\n    tag_369:\n        /* \"#utility.yul\":2322:2400   */\n      swap4\n      pop\n        /* \"#utility.yul\":2409:2474   */\n      tag_370\n        /* \"#utility.yul\":2467:2473   */\n      dup2\n        /* \"#utility.yul\":2462:2465   */\n      dup6\n        /* \"#utility.yul\":2455:2459   */\n      0x20\n        /* \"#utility.yul\":2448:2453   */\n      dup7\n        /* \"#utility.yul\":2444:2460   */\n      add\n        /* \"#utility.yul\":2409:2474   */\n      tag_281\n      jump\t// in\n    tag_370:\n        /* \"#utility.yul\":2499:2528   */\n      tag_371\n        /* \"#utility.yul\":2521:2527   */\n      dup2\n        /* \"#utility.yul\":2499:2528   */\n      tag_282\n      jump\t// in\n    tag_371:\n        /* \"#utility.yul\":2494:2497   */\n      dup5\n        /* \"#utility.yul\":2490:2529   */\n      add\n        /* \"#utility.yul\":2483:2529   */\n      swap2\n      pop\n        /* \"#utility.yul\":2250:2535   */\n      pop\n        /* \"#utility.yul\":2158:2535   */\n      swap3\n      swap2\n      pop\n      pop\n      jump\t// out\n        /* \"#utility.yul\":2541:2854   */\n    tag_23:\n        /* \"#utility.yul\":2654:2658   */\n      0x00\n        /* \"#utility.yul\":2692:2694   */\n      0x20\n        /* \"#utility.yul\":2681:2690   */\n      dup3\n        /* \"#utility.yul\":2677:2695   */\n      add\n        /* \"#utility.yul\":2669:2695   */\n      swap1\n      pop\n        /* \"#utility.yul\":2741:2750   */\n      dup2\n        /* \"#utility.yul\":2735:2739   */\n      dup2\n        /* \"#utility.yul\":2731:2751   */\n      sub\n        /* \"#utility.yul\":2727:2728   */\n      0x00\n        /* \"#utility.yul\":2716:2725   */\n      dup4\n        /* \"#utility.yul\":2712:2729   */\n      add\n        /* \"#utility.yul\":2705:2752   */\n      mstore\n        /* \"#utility.yul\":2769:2847   */\n      tag_373\n        /* \"#utility.yul\":2842:2846   */\n      dup2\n        /* \"#utility.yul\":2833:2839   */\n      dup5\n        /* \"#utility.yul\":2769:2847   */\n      tag_283\n      jump\t// in\n    tag_373:\n        /* \"#utility.yul\":2761:2847   */\n      swap1\n      pop\n        /* \"#utility.yul\":2541:2854   */\n      swap3\n      swap2\n      pop\n      pop\n      jump\t// out\n        /* \"#utility.yul\":2860:2937   */\n    tag_284:\n        /* \"#utility.yul\":2897:2904   */\n      0x00\n        /* \"#utility.yul\":2926:2931   */\n      dup2\n        /* \"#utility.yul\":2915:2931   */\n      swap1\n      pop\n        /* \"#utility.yul\":2860:2937   */\n      swap2\n      swap1\n      pop\n      jump\t// out\n        /* \"#utility.yul\":2943:3061   */\n    tag_285:\n        /* \"#utility.yul\":3030:3054   */\n      tag_376\n        /* \"#utility.yul\":3048:3053   */\n      dup2\n        /* \"#utility.yul\":3030:3054   */\n      tag_284\n      jump\t// in\n    tag_376:\n        /* \"#utility.yul\":3025:3028   */\n      dup3\n        /* \"#utility.yul\":3018:3055   */\n      mstore\n        /* \"#utility.yul\":2943:3061   */\n      pop\n      pop\n      jump\t// out\n        /* \"#utility.yul\":3067:3289   */\n    tag_27:\n        /* \"#utility.yul\":3160:3164   */\n      0x00\n        /* \"#utility.yul\":3198:3200   */\n      0x20\n        /* \"#utility.yul\":3187:3196   */\n      dup3\n        /* \"#utility.yul\":3183:3201   */\n      add\n        /* \"#utility.yul\":3175:3201   */\n      swap1\n      pop\n        /* \"#utility.yul\":3211:3282   */\n      tag_378\n        /* \"#utility.yul\":3279:3280   */\n      0x00\n        /* \"#utility.yul\":3268:3277   */\n      dup4\n        /* \"#utility.yul\":3264:3281   */\n      add\n        /* \"#utility.yul\":3255:3261   */\n      dup5\n        /* \"#utility.yul\":3211:3282   */\n      tag_285\n      jump\t// in\n    tag_378:\n        /* \"#utility.yul\":3067:3289   */\n      swap3\n      swap2\n      pop\n      pop\n      jump\t// out\n        /* \"#utility.yul\":3295:3417   */\n    tag_286:\n        /* \"#utility.yul\":3368:3392   */\n      tag_380\n        /* \"#utility.yul\":3386:3391   */\n      dup2\n        /* \"#utility.yul\":3368:3392   */\n      tag_284\n      jump\t// in\n    tag_380:\n        /* \"#utility.yul\":3361:3366   */\n      dup2\n        /* \"#utility.yul\":3358:3393   */\n      eq\n        /* \"#utility.yul\":3348:3411   */\n      tag_381\n      jumpi\n        /* \"#utility.yul\":3407:3408   */\n      0x00\n        /* \"#utility.yul\":3404:3405   */\n      dup1\n        /* \"#utility.yul\":3397:3409   */\n      revert\n        /* \"#utility.yul\":3348:3411   */\n    tag_381:\n        /* \"#utility.yul\":3295:3417   */\n      pop\n      jump\t// out\n        /* \"#utility.yul\":3423:3562   */\n    tag_287:\n        /* \"#utility.yul\":3469:3474   */\n      0x00\n        /* \"#utility.yul\":3507:3513   */\n      dup2\n        /* \"#utility.yul\":3494:3514   */\n      calldataload\n        /* \"#utility.yul\":3485:3514   */\n      swap1\n      pop\n        /* \"#utility.yul\":3523:3556   */\n      tag_383\n        /* \"#utility.yul\":3550:3555   */\n      dup2\n        /* \"#utility.yul\":3523:3556   */\n      tag_286\n      jump\t// in\n    tag_383:\n        /* \"#utility.yul\":3423:3562   */\n      swap3\n      swap2\n      pop\n      pop\n      jump\t// out\n        /* \"#utility.yul\":3568:3897   */\n    tag_30:\n        /* \"#utility.yul\":3627:3633   */\n      0x00\n        /* \"#utility.yul\":3676:3678   */\n      0x20\n        /* \"#utility.yul\":3664:3673   */\n      dup3\n        /* \"#utility.yul\":3655:3662   */\n      dup5\n        /* \"#utility.yul\":3651:3674   */\n      sub\n        /* \"#utility.yul\":3647:3679   */\n      slt\n        /* \"#utility.yul\":3644:3763   */\n      iszero\n      tag_385\n      jumpi\n        /* \"#utility.yul\":3682:3761   */\n      tag_386\n      tag_272\n      jump\t// in\n    tag_386:\n        /* \"#utility.yul\":3644:3763   */\n    tag_385:\n        /* \"#utility.yul\":3802:3803   */\n      0x00\n        /* \"#utility.yul\":3827:3880   */\n      tag_387\n        /* \"#utility.yul\":3872:3879   */\n      dup5\n        /* \"#utility.yul\":3863:3869   */\n      dup3\n        /* \"#utility.yul\":3852:3861   */\n      dup6\n        /* \"#utility.yul\":3848:3870   */\n      add\n        /* \"#utility.yul\":3827:3880   */\n      tag_287\n      jump\t// in\n    tag_387:\n        /* \"#utility.yul\":3817:3880   */\n      swap2\n      pop\n        /* \"#utility.yul\":3773:3890   */\n      pop\n        /* \"#utility.yul\":3568:3897   */\n      swap3\n      swap2\n      pop\n      pop\n      jump\t// out\n        /* \"#utility.yul\":3903:4029   */\n    tag_288:\n        /* \"#utility.yul\":3940:3947   */\n      0x00\n        /* \"#utility.yul\":3980:4022   */\n      0xffffffffffffffffffffffffffffffffffffffff\n        /* \"#utility.yul\":3973:3978   */\n      dup3\n        /* \"#utility.yul\":3969:4023   */\n      and\n        /* \"#utility.yul\":3958:4023   */\n      swap1\n      pop\n        /* \"#utility.yul\":3903:4029   */\n      swap2\n      swap1\n      pop\n      jump\t// out\n        /* \"#utility.yul\":4035:4131   */\n    tag_289:\n        /* \"#utility.yul\":4072:4079   */\n      0x00\n        /* \"#utility.yul\":4101:4125   */\n      tag_390\n        /* \"#utility.yul\":4119:4124   */\n      dup3\n        /* \"#utility.yul\":4101:4125   */\n      tag_288\n      jump\t// in\n    tag_390:\n        /* \"#utility.yul\":4090:4125   */\n      swap1\n      pop\n        /* \"#utility.yul\":4035:4131   */\n      swap2\n      swap1\n      pop\n      jump\t// out\n        /* \"#utility.yul\":4137:4255   */\n    tag_290:\n        /* \"#utility.yul\":4224:4248   */\n      tag_392\n        /* \"#utility.yul\":4242:4247   */\n      dup2\n        /* \"#utility.yul\":4224:4248   */\n      tag_289\n      jump\t// in\n    tag_392:\n        /* \"#utility.yul\":4219:4222   */\n      dup3\n        /* \"#utility.yul\":4212:4249   */\n      mstore\n        /* \"#utility.yul\":4137:4255   */\n      pop\n      pop\n      jump\t// out\n        /* \"#utility.yul\":4261:4483   */\n    tag_33:\n        /* \"#utility.yul\":4354:4358   */\n      0x00\n        /* \"#utility.yul\":4392:4394   */\n      0x20\n        /* \"#utility.yul\":4381:4390   */\n      dup3\n        /* \"#utility.yul\":4377:4395   */\n      add\n        /* \"#utility.yul\":4369:4395   */\n      swap1\n      pop\n        /* \"#utility.yul\":4405:4476   */\n      tag_394\n        /* \"#utility.yul\":4473:4474   */\n      0x00\n        /* \"#utility.yul\":4462:4471   */\n      dup4\n        /* \"#utility.yul\":4458:4475   */\n      add\n        /* \"#utility.yul\":4449:4455   */\n      dup5\n        /* \"#utility.yul\":4405:4476   */\n      tag_290\n      jump\t// in\n    tag_394:\n        /* \"#utility.yul\":4261:4483   */\n      swap3\n      swap2\n      pop\n      pop\n      jump\t// out\n        /* \"#utility.yul\":4489:4611   */\n    tag_291:\n        /* \"#utility.yul\":4562:4586   */\n      tag_396\n        /* \"#utility.yul\":4580:4585   */\n      dup2\n        /* \"#utility.yul\":4562:4586   */\n      tag_289\n      jump\t// in\n    tag_396:\n        /* \"#utility.yul\":4555:4560   */\n      dup2\n        /* \"#utility.yul\":4552:4587   */\n      eq\n        /* \"#utility.yul\":4542:4605   */\n      tag_397\n      jumpi\n        /* \"#utility.yul\":4601:4602   */\n      0x00\n        /* \"#utility.yul\":4598:4599   */\n      dup1\n        /* \"#utility.yul\":4591:4603   */\n      revert\n        /* \"#utility.yul\":4542:4605   */\n    tag_397:\n        /* \"#utility.yul\":4489:4611   */\n      pop\n      jump\t// out\n        /* \"#utility.yul\":4617:4756   */\n    tag_292:\n        /* \"#utility.yul\":4663:4668   */\n      0x00\n        /* \"#utility.yul\":4701:4707   */\n      dup2\n        /* \"#utility.yul\":4688:4708   */\n      calldataload\n        /* \"#utility.yul\":4679:4708   */\n      swap1\n      pop\n        /* \"#utility.yul\":4717:4750   */\n      tag_399\n        /* \"#utility.yul\":4744:4749   */\n      dup2\n        /* \"#utility.yul\":4717:4750   */\n      tag_291\n      jump\t// in\n    tag_399:\n        /* \"#utility.yul\":4617:4756   */\n      swap3\n      swap2\n      pop\n      pop\n      jump\t// out\n        /* \"#utility.yul\":4762:5091   */\n    tag_36:\n        /* \"#utility.yul\":4821:4827   */\n      0x00\n        /* \"#utility.yul\":4870:4872   */\n      0x20\n        /* \"#utility.yul\":4858:4867   */\n      dup3\n        /* \"#utility.yul\":4849:4856   */\n      dup5\n        /* \"#utility.yul\":4845:4868   */\n      sub\n        /* \"#utility.yul\":4841:4873   */\n      slt\n        /* \"#utility.yul\":4838:4957   */\n      iszero\n      tag_401\n      jumpi\n        /* \"#utility.yul\":4876:4955   */\n      tag_402\n      tag_272\n      jump\t// in\n    tag_402:\n        /* \"#utility.yul\":4838:4957   */\n    tag_401:\n        /* \"#utility.yul\":4996:4997   */\n      0x00\n        /* \"#utility.yul\":5021:5074   */\n      tag_403\n        /* \"#utility.yul\":5066:5073   */\n      dup5\n        /* \"#utility.yul\":5057:5063   */\n      dup3\n        /* \"#utility.yul\":5046:5055   */\n      dup6\n        /* \"#utility.yul\":5042:5064   */\n      add\n        /* \"#utility.yul\":5021:5074   */\n      tag_292\n      jump\t// in\n    tag_403:\n        /* \"#utility.yul\":5011:5074   */\n      swap2\n      pop\n        /* \"#utility.yul\":4967:5084   */\n      pop\n        /* \"#utility.yul\":4762:5091   */\n      swap3\n      swap2\n      pop\n      pop\n      jump\t// out\n        /* \"#utility.yul\":5097:5214   */\n    tag_293:\n        /* \"#utility.yul\":5206:5207   */\n      0x00\n        /* \"#utility.yul\":5203:5204   */\n      dup1\n        /* \"#utility.yul\":5196:5208   */\n      revert\n        /* \"#utility.yul\":5220:5337   */\n    tag_294:\n        /* \"#utility.yul\":5329:5330   */\n      0x00\n        /* \"#utility.yul\":5326:5327   */\n      dup1\n        /* \"#utility.yul\":5319:5331   */\n      revert\n        /* \"#utility.yul\":5343:5460   */\n    tag_295:\n        /* \"#utility.yul\":5452:5453   */\n      0x00\n        /* \"#utility.yul\":5449:5450   */\n      dup1\n        /* \"#utility.yul\":5442:5454   */\n      revert\n        /* \"#utility.yul\":5480:6033   */\n    tag_296:\n        /* \"#utility.yul\":5538:5546   */\n      0x00\n        /* \"#utility.yul\":5548:5554   */\n      dup1\n        /* \"#utility.yul\":5598:5601   */\n      dup4\n        /* \"#utility.yul\":5591:5595   */\n      0x1f\n        /* \"#utility.yul\":5583:5589   */\n      dup5\n        /* \"#utility.yul\":5579:5596   */\n      add\n        /* \"#utility.yul\":5575:5602   */\n      slt\n        /* \"#utility.yul\":5565:5687   */\n      tag_408\n      jumpi\n        /* \"#utility.yul\":5606:5685   */\n      tag_409\n      tag_293\n      jump\t// in\n    tag_409:\n        /* \"#utility.yul\":5565:5687   */\n    tag_408:\n        /* \"#utility.yul\":5719:5725   */\n      dup3\n        /* \"#utility.yul\":5706:5726   */\n      calldataload\n        /* \"#utility.yul\":5696:5726   */\n      swap1\n      pop\n        /* \"#utility.yul\":5749:5767   */\n      0xffffffffffffffff\n        /* \"#utility.yul\":5741:5747   */\n      dup2\n        /* \"#utility.yul\":5738:5768   */\n      gt\n        /* \"#utility.yul\":5735:5852   */\n      iszero\n      tag_410\n      jumpi\n        /* \"#utility.yul\":5771:5850   */\n      tag_411\n      tag_294\n      jump\t// in\n    tag_411:\n        /* \"#utility.yul\":5735:5852   */\n    tag_410:\n        /* \"#utility.yul\":5885:5889   */\n      0x20\n        /* \"#utility.yul\":5877:5883   */\n      dup4\n        /* \"#utility.yul\":5873:5890   */\n      add\n        /* \"#utility.yul\":5861:5890   */\n      swap2\n      pop\n        /* \"#utility.yul\":5939:5942   */\n      dup4\n        /* \"#utility.yul\":5931:5935   */\n      0x01\n        /* \"#utility.yul\":5923:5929   */\n      dup3\n        /* \"#utility.yul\":5919:5936   */\n      mul\n        /* \"#utility.yul\":5909:5917   */\n      dup4\n        /* \"#utility.yul\":5905:5937   */\n      add\n        /* \"#utility.yul\":5902:5943   */\n      gt\n        /* \"#utility.yul\":5899:6027   */\n      iszero\n      tag_412\n      jumpi\n        /* \"#utility.yul\":5946:6025   */\n      tag_413\n      tag_295\n      jump\t// in\n    tag_413:\n        /* \"#utility.yul\":5899:6027   */\n    tag_412:\n        /* \"#utility.yul\":5480:6033   */\n      swap3\n      pop\n      swap3\n      swap1\n      pop\n      jump\t// out\n        /* \"#utility.yul\":6039:6858   */\n    tag_51:\n        /* \"#utility.yul\":6128:6134   */\n      0x00\n        /* \"#utility.yul\":6136:6142   */\n      dup1\n        /* \"#utility.yul\":6144:6150   */\n      0x00\n        /* \"#utility.yul\":6152:6158   */\n      dup1\n        /* \"#utility.yul\":6201:6203   */\n      0x60\n        /* \"#utility.yul\":6189:6198   */\n      dup6\n        /* \"#utility.yul\":6180:6187   */\n      dup8\n        /* \"#utility.yul\":6176:6199   */\n      sub\n        /* \"#utility.yul\":6172:6204   */\n      slt\n        /* \"#utility.yul\":6169:6288   */\n      iszero\n      tag_415\n      jumpi\n        /* \"#utility.yul\":6207:6286   */\n      tag_416\n      tag_272\n      jump\t// in\n    tag_416:\n        /* \"#utility.yul\":6169:6288   */\n    tag_415:\n        /* \"#utility.yul\":6327:6328   */\n      0x00\n        /* \"#utility.yul\":6352:6405   */\n      tag_417\n        /* \"#utility.yul\":6397:6404   */\n      dup8\n        /* \"#utility.yul\":6388:6394   */\n      dup3\n        /* \"#utility.yul\":6377:6386   */\n      dup9\n        /* \"#utility.yul\":6373:6395   */\n      add\n        /* \"#utility.yul\":6352:6405   */\n      tag_292\n      jump\t// in\n    tag_417:\n        /* \"#utility.yul\":6342:6405   */\n      swap5\n      pop\n        /* \"#utility.yul\":6298:6415   */\n      pop\n        /* \"#utility.yul\":6454:6456   */\n      0x20\n        /* \"#utility.yul\":6480:6533   */\n      tag_418\n        /* \"#utility.yul\":6525:6532   */\n      dup8\n        /* \"#utility.yul\":6516:6522   */\n      dup3\n        /* \"#utility.yul\":6505:6514   */\n      dup9\n        /* \"#utility.yul\":6501:6523   */\n      add\n        /* \"#utility.yul\":6480:6533   */\n      tag_287\n      jump\t// in\n    tag_418:\n        /* \"#utility.yul\":6470:6533   */\n      swap4\n      pop\n        /* \"#utility.yul\":6425:6543   */\n      pop\n        /* \"#utility.yul\":6610:6612   */\n      0x40\n        /* \"#utility.yul\":6599:6608   */\n      dup6\n        /* \"#utility.yul\":6595:6613   */\n      add\n        /* \"#utility.yul\":6582:6614   */\n      calldataload\n        /* \"#utility.yul\":6641:6659   */\n      0xffffffffffffffff\n        /* \"#utility.yul\":6633:6639   */\n      dup2\n        /* \"#utility.yul\":6630:6660   */\n      gt\n        /* \"#utility.yul\":6627:6744   */\n      iszero\n      tag_419\n      jumpi\n        /* \"#utility.yul\":6663:6742   */\n      tag_420\n      tag_273\n      jump\t// in\n    tag_420:\n        /* \"#utility.yul\":6627:6744   */\n    tag_419:\n        /* \"#utility.yul\":6776:6841   */\n      tag_421\n        /* \"#utility.yul\":6833:6840   */\n      dup8\n        /* \"#utility.yul\":6824:6830   */\n      dup3\n        /* \"#utility.yul\":6813:6822   */\n      dup9\n        /* \"#utility.yul\":6809:6831   */\n      add\n        /* \"#utility.yul\":6776:6841   */\n      tag_296\n      jump\t// in\n    tag_421:\n        /* \"#utility.yul\":6758:6841   */\n      swap3\n      pop\n      swap3\n      pop\n        /* \"#utility.yul\":6553:6851   */\n      pop\n        /* \"#utility.yul\":6039:6858   */\n      swap3\n      swap6\n      swap2\n      swap5\n      pop\n      swap3\n      pop\n      jump\t// out\n        /* \"#utility.yul\":6864:7044   */\n    tag_297:\n        /* \"#utility.yul\":6912:6989   */\n      0x4e487b7100000000000000000000000000000000000000000000000000000000\n        /* \"#utility.yul\":6909:6910   */\n      0x00\n        /* \"#utility.yul\":6902:6990   */\n      mstore\n        /* \"#utility.yul\":7009:7013   */\n      0x22\n        /* \"#utility.yul\":7006:7007   */\n      0x04\n        /* \"#utility.yul\":6999:7014   */\n      mstore\n        /* \"#utility.yul\":7033:7037   */\n      0x24\n        /* \"#utility.yul\":7030:7031   */\n      0x00\n        /* \"#utility.yul\":7023:7038   */\n      revert\n        /* \"#utility.yul\":7050:7370   */\n    tag_61:\n        /* \"#utility.yul\":7094:7100   */\n      0x00\n        /* \"#utility.yul\":7131:7132   */\n      0x02\n        /* \"#utility.yul\":7125:7129   */\n      dup3\n        /* \"#utility.yul\":7121:7133   */\n      div\n        /* \"#utility.yul\":7111:7133   */\n      swap1\n      pop\n        /* \"#utility.yul\":7178:7179   */\n      0x01\n        /* \"#utility.yul\":7172:7176   */\n      dup3\n        /* \"#utility.yul\":7168:7180   */\n      and\n        /* \"#utility.yul\":7199:7217   */\n      dup1\n        /* \"#utility.yul\":7189:7270   */\n      tag_424\n      jumpi\n        /* \"#utility.yul\":7255:7259   */\n      0x7f\n        /* \"#utility.yul\":7247:7253   */\n      dup3\n        /* \"#utility.yul\":7243:7260   */\n      and\n        /* \"#utility.yul\":7233:7260   */\n      swap2\n      pop\n        /* \"#utility.yul\":7189:7270   */\n    tag_424:\n        /* \"#utility.yul\":7317:7319   */\n      0x20\n        /* \"#utility.yul\":7309:7315   */\n      dup3\n        /* \"#utility.yul\":7306:7320   */\n      lt\n        /* \"#utility.yul\":7286:7304   */\n      dup2\n        /* \"#utility.yul\":7283:7321   */\n      sub\n        /* \"#utility.yul\":7280:7364   */\n      tag_425\n      jumpi\n        /* \"#utility.yul\":7336:7354   */\n      tag_426\n      tag_297\n      jump\t// in\n    tag_426:\n        /* \"#utility.yul\":7280:7364   */\n    tag_425:\n        /* \"#utility.yul\":7101:7370   */\n      pop\n        /* \"#utility.yul\":7050:7370   */\n      swap2\n      swap1\n      pop\n      jump\t// out\n        /* \"#utility.yul\":7376:7604   */\n    tag_298:\n        /* \"#utility.yul\":7516:7550   */\n      0x4552433732313a206f776e657220717565727920666f72206e6f6e6578697374\n        /* \"#utility.yul\":7512:7513   */\n      0x00\n        /* \"#utility.yul\":7504:7510   */\n      dup3\n        /* \"#utility.yul\":7500:7514   */\n      add\n        /* \"#utility.yul\":7493:7551   */\n      mstore\n        /* \"#utility.yul\":7585:7596   */\n      0x656e7420746f6b656e0000000000000000000000000000000000000000000000\n        /* \"#utility.yul\":7580:7582   */\n      0x20\n        /* \"#utility.yul\":7572:7578   */\n      dup3\n        /* \"#utility.yul\":7568:7583   */\n      add\n        /* \"#utility.yul\":7561:7597   */\n      mstore\n        /* \"#utility.yul\":7376:7604   */\n      pop\n      jump\t// out\n        /* \"#utility.yul\":7610:7976   */\n    tag_299:\n        /* \"#utility.yul\":7752:7755   */\n      0x00\n        /* \"#utility.yul\":7773:7840   */\n      tag_429\n        /* \"#utility.yul\":7837:7839   */\n      0x29\n        /* \"#utility.yul\":7832:7835   */\n      dup4\n        /* \"#utility.yul\":7773:7840   */\n      tag_280\n      jump\t// in\n    tag_429:\n        /* \"#utility.yul\":7766:7840   */\n      swap2\n      pop\n        /* \"#utility.yul\":7849:7942   */\n      tag_430\n        /* \"#utility.yul\":7938:7941   */\n      dup3\n        /* \"#utility.yul\":7849:7942   */\n      tag_298\n      jump\t// in\n    tag_430:\n        /* \"#utility.yul\":7967:7969   */\n      0x40\n        /* \"#utility.yul\":7962:7965   */\n      dup3\n        /* \"#utility.yul\":7958:7970   */\n      add\n        /* \"#utility.yul\":7951:7970   */\n      swap1\n      pop\n        /* \"#utility.yul\":7610:7976   */\n      swap2\n      swap1\n      pop\n      jump\t// out\n        /* \"#utility.yul\":7982:8401   */\n    tag_70:\n        /* \"#utility.yul\":8148:8152   */\n      0x00\n        /* \"#utility.yul\":8186:8188   */\n      0x20\n        /* \"#utility.yul\":8175:8184   */\n      dup3\n        /* \"#utility.yul\":8171:8189   */\n      add\n        /* \"#utility.yul\":8163:8189   */\n      swap1\n      pop\n        /* \"#utility.yul\":8235:8244   */\n      dup2\n        /* \"#utility.yul\":8229:8233   */\n      dup2\n        /* \"#utility.yul\":8225:8245   */\n      sub\n        /* \"#utility.yul\":8221:8222   */\n      0x00\n        /* \"#utility.yul\":8210:8219   */\n      dup4\n        /* \"#utility.yul\":8206:8223   */\n      add\n        /* \"#utility.yul\":8199:8246   */\n      mstore\n        /* \"#utility.yul\":8263:8394   */\n      tag_432\n        /* \"#utility.yul\":8389:8393   */\n      dup2\n        /* \"#utility.yul\":8263:8394   */\n      tag_299\n      jump\t// in\n    tag_432:\n        /* \"#utility.yul\":8255:8394   */\n      swap1\n      pop\n        /* \"#utility.yul\":7982:8401   */\n      swap2\n      swap1\n      pop\n      jump\t// out\n        /* \"#utility.yul\":8407:8636   */\n    tag_300:\n        /* \"#utility.yul\":8547:8581   */\n      0x4552433732313a2062616c616e636520717565727920666f7220746865207a65\n        /* \"#utility.yul\":8543:8544   */\n      0x00\n        /* \"#utility.yul\":8535:8541   */\n      dup3\n        /* \"#utility.yul\":8531:8545   */\n      add\n        /* \"#utility.yul\":8524:8582   */\n      mstore\n        /* \"#utility.yul\":8616:8628   */\n      0x726f206164647265737300000000000000000000000000000000000000000000\n        /* \"#utility.yul\":8611:8613   */\n      0x20\n        /* \"#utility.yul\":8603:8609   */\n      dup3\n        /* \"#utility.yul\":8599:8614   */\n      add\n        /* \"#utility.yul\":8592:8629   */\n      mstore\n        /* \"#utility.yul\":8407:8636   */\n      pop\n      jump\t// out\n        /* \"#utility.yul\":8642:9008   */\n    tag_301:\n        /* \"#utility.yul\":8784:8787   */\n      0x00\n        /* \"#utility.yul\":8805:8872   */\n      tag_435\n        /* \"#utility.yul\":8869:8871   */\n      0x2a\n        /* \"#utility.yul\":8864:8867   */\n      dup4\n        /* \"#utility.yul\":8805:8872   */\n      tag_280\n      jump\t// in\n    tag_435:\n        /* \"#utility.yul\":8798:8872   */\n      swap2\n      pop\n        /* \"#utility.yul\":8881:8974   */\n      tag_436\n        /* \"#utility.yul\":8970:8973   */\n      dup3\n        /* \"#utility.yul\":8881:8974   */\n      tag_300\n      jump\t// in\n    tag_436:\n        /* \"#utility.yul\":8999:9001   */\n      0x40\n        /* \"#utility.yul\":8994:8997   */\n      dup3\n        /* \"#utility.yul\":8990:9002   */\n      add\n        /* \"#utility.yul\":8983:9002   */\n      swap1\n      pop\n        /* \"#utility.yul\":8642:9008   */\n      swap2\n      swap1\n      pop\n      jump\t// out\n        /* \"#utility.yul\":9014:9433   */\n    tag_74:\n        /* \"#utility.yul\":9180:9184   */\n      0x00\n        /* \"#utility.yul\":9218:9220   */\n      0x20\n        /* \"#utility.yul\":9207:9216   */\n      dup3\n        /* \"#utility.yul\":9203:9221   */\n      add\n        /* \"#utility.yul\":9195:9221   */\n      swap1\n      pop\n        /* \"#utility.yul\":9267:9276   */\n      dup2\n        /* \"#utility.yul\":9261:9265   */\n      dup2\n        /* \"#utility.yul\":9257:9277   */\n      sub\n        /* \"#utility.yul\":9253:9254   */\n      0x00\n        /* \"#utility.yul\":9242:9251   */\n      dup4\n        /* \"#utility.yul\":9238:9255   */\n      add\n        /* \"#utility.yul\":9231:9278   */\n      mstore\n        /* \"#utility.yul\":9295:9426   */\n      tag_438\n        /* \"#utility.yul\":9421:9425   */\n      dup2\n        /* \"#utility.yul\":9295:9426   */\n      tag_301\n      jump\t// in\n    tag_438:\n        /* \"#utility.yul\":9287:9426   */\n      swap1\n      pop\n        /* \"#utility.yul\":9014:9433   */\n      swap2\n      swap1\n      pop\n      jump\t// out\n        /* \"#utility.yul\":9439:9621   */\n    tag_302:\n        /* \"#utility.yul\":9579:9613   */\n      0x4f776e61626c653a2063616c6c6572206973206e6f7420746865206f776e6572\n        /* \"#utility.yul\":9575:9576   */\n      0x00\n        /* \"#utility.yul\":9567:9573   */\n      dup3\n        /* \"#utility.yul\":9563:9577   */\n      add\n        /* \"#utility.yul\":9556:9614   */\n      mstore\n        /* \"#utility.yul\":9439:9621   */\n      pop\n      jump\t// out\n        /* \"#utility.yul\":9627:9993   */\n    tag_303:\n        /* \"#utility.yul\":9769:9772   */\n      0x00\n        /* \"#utility.yul\":9790:9857   */\n      tag_441\n        /* \"#utility.yul\":9854:9856   */\n      0x20\n        /* \"#utility.yul\":9849:9852   */\n      dup4\n        /* \"#utility.yul\":9790:9857   */\n      tag_280\n      jump\t// in\n    tag_441:\n        /* \"#utility.yul\":9783:9857   */\n      swap2\n      pop\n        /* \"#utility.yul\":9866:9959   */\n      tag_442\n        /* \"#utility.yul\":9955:9958   */\n      dup3\n        /* \"#utility.yul\":9866:9959   */\n      tag_302\n      jump\t// in\n    tag_442:\n        /* \"#utility.yul\":9984:9986   */\n      0x20\n        /* \"#utility.yul\":9979:9982   */\n      dup3\n        /* \"#utility.yul\":9975:9987   */\n      add\n        /* \"#utility.yul\":9968:9987   */\n      swap1\n      pop\n        /* \"#utility.yul\":9627:9993   */\n      swap2\n      swap1\n      pop\n      jump\t// out\n        /* \"#utility.yul\":9999:10418   */\n    tag_91:\n        /* \"#utility.yul\":10165:10169   */\n      0x00\n        /* \"#utility.yul\":10203:10205   */\n      0x20\n        /* \"#utility.yul\":10192:10201   */\n      dup3\n        /* \"#utility.yul\":10188:10206   */\n      add\n        /* \"#utility.yul\":10180:10206   */\n      swap1\n      pop\n        /* \"#utility.yul\":10252:10261   */\n      dup2\n        /* \"#utility.yul\":10246:10250   */\n      dup2\n        /* \"#utility.yul\":10242:10262   */\n      sub\n        /* \"#utility.yul\":10238:10239   */\n      0x00\n        /* \"#utility.yul\":10227:10236   */\n      dup4\n        /* \"#utility.yul\":10223:10240   */\n      add\n        /* \"#utility.yul\":10216:10263   */\n      mstore\n        /* \"#utility.yul\":10280:10411   */\n      tag_444\n        /* \"#utility.yul\":10406:10410   */\n      dup2\n        /* \"#utility.yul\":10280:10411   */\n      tag_303\n      jump\t// in\n    tag_444:\n        /* \"#utility.yul\":10272:10411   */\n      swap1\n      pop\n        /* \"#utility.yul\":9999:10418   */\n      swap2\n      swap1\n      pop\n      jump\t// out\n        /* \"#utility.yul\":10424:10649   */\n    tag_304:\n        /* \"#utility.yul\":10564:10598   */\n      0x4f776e61626c653a206e6577206f776e657220697320746865207a65726f2061\n        /* \"#utility.yul\":10560:10561   */\n      0x00\n        /* \"#utility.yul\":10552:10558   */\n      dup3\n        /* \"#utility.yul\":10548:10562   */\n      add\n        /* \"#utility.yul\":10541:10599   */\n      mstore\n        /* \"#utility.yul\":10633:10641   */\n      0x6464726573730000000000000000000000000000000000000000000000000000\n        /* \"#utility.yul\":10628:10630   */\n      0x20\n        /* \"#utility.yul\":10620:10626   */\n      dup3\n        /* \"#utility.yul\":10616:10631   */\n      add\n        /* \"#utility.yul\":10609:10642   */\n      mstore\n        /* \"#utility.yul\":10424:10649   */\n      pop\n      jump\t// out\n        /* \"#utility.yul\":10655:11021   */\n    tag_305:\n        /* \"#utility.yul\":10797:10800   */\n      0x00\n        /* \"#utility.yul\":10818:10885   */\n      tag_447\n        /* \"#utility.yul\":10882:10884   */\n      0x26\n        /* \"#utility.yul\":10877:10880   */\n      dup4\n        /* \"#utility.yul\":10818:10885   */\n      tag_280\n      jump\t// in\n    tag_447:\n        /* \"#utility.yul\":10811:10885   */\n      swap2\n      pop\n        /* \"#utility.yul\":10894:10987   */\n      tag_448\n        /* \"#utility.yul\":10983:10986   */\n      dup3\n        /* \"#utility.yul\":10894:10987   */\n      tag_304\n      jump\t// in\n    tag_448:\n        /* \"#utility.yul\":11012:11014   */\n      0x40\n        /* \"#utility.yul\":11007:11010   */\n      dup3\n        /* \"#utility.yul\":11003:11015   */\n      add\n        /* \"#utility.yul\":10996:11015   */\n      swap1\n      pop\n        /* \"#utility.yul\":10655:11021   */\n      swap2\n      swap1\n      pop\n      jump\t// out\n        /* \"#utility.yul\":11027:11446   */\n    tag_105:\n        /* \"#utility.yul\":11193:11197   */\n      0x00\n        /* \"#utility.yul\":11231:11233   */\n      0x20\n        /* \"#utility.yul\":11220:11229   */\n      dup3\n        /* \"#utility.yul\":11216:11234   */\n      add\n        /* \"#utility.yul\":11208:11234   */\n      swap1\n      pop\n        /* \"#utility.yul\":11280:11289   */\n      dup2\n        /* \"#utility.yul\":11274:11278   */\n      dup2\n        /* \"#utility.yul\":11270:11290   */\n      sub\n        /* \"#utility.yul\":11266:11267   */\n      0x00\n        /* \"#utility.yul\":11255:11264   */\n      dup4\n        /* \"#utility.yul\":11251:11268   */\n      add\n        /* \"#utility.yul\":11244:11291   */\n      mstore\n        /* \"#utility.yul\":11308:11439   */\n      tag_450\n        /* \"#utility.yul\":11434:11438   */\n      dup2\n        /* \"#utility.yul\":11308:11439   */\n      tag_305\n      jump\t// in\n    tag_450:\n        /* \"#utility.yul\":11300:11439   */\n      swap1\n      pop\n        /* \"#utility.yul\":11027:11446   */\n      swap2\n      swap1\n      pop\n      jump\t// out\n        /* \"#utility.yul\":11452:11688   */\n    tag_306:\n        /* \"#utility.yul\":11592:11626   */\n      0x45524337323155524953746f726167653a2055524920717565727920666f7220\n        /* \"#utility.yul\":11588:11589   */\n      0x00\n        /* \"#utility.yul\":11580:11586   */\n      dup3\n        /* \"#utility.yul\":11576:11590   */\n      add\n        /* \"#utility.yul\":11569:11627   */\n      mstore\n        /* \"#utility.yul\":11661:11680   */\n      0x6e6f6e6578697374656e7420746f6b656e000000000000000000000000000000\n        /* \"#utility.yul\":11656:11658   */\n      0x20\n        /* \"#utility.yul\":11648:11654   */\n      dup3\n        /* \"#utility.yul\":11644:11659   */\n      add\n        /* \"#utility.yul\":11637:11681   */\n      mstore\n        /* \"#utility.yul\":11452:11688   */\n      pop\n      jump\t// out\n        /* \"#utility.yul\":11694:12060   */\n    tag_307:\n        /* \"#utility.yul\":11836:11839   */\n      0x00\n        /* \"#utility.yul\":11857:11924   */\n      tag_453\n        /* \"#utility.yul\":11921:11923   */\n      0x31\n        /* \"#utility.yul\":11916:11919   */\n      dup4\n        /* \"#utility.yul\":11857:11924   */\n      tag_280\n      jump\t// in\n    tag_453:\n        /* \"#utility.yul\":11850:11924   */\n      swap2\n      pop\n        /* \"#utility.yul\":11933:12026   */\n      tag_454\n        /* \"#utility.yul\":12022:12025   */\n      dup3\n        /* \"#utility.yul\":11933:12026   */\n      tag_306\n      jump\t// in\n    tag_454:\n        /* \"#utility.yul\":12051:12053   */\n      0x40\n        /* \"#utility.yul\":12046:12049   */\n      dup3\n        /* \"#utility.yul\":12042:12054   */\n      add\n        /* \"#utility.yul\":12035:12054   */\n      swap1\n      pop\n        /* \"#utility.yul\":11694:12060   */\n      swap2\n      swap1\n      pop\n      jump\t// out\n        /* \"#utility.yul\":12066:12485   */\n    tag_117:\n        /* \"#utility.yul\":12232:12236   */\n      0x00\n        /* \"#utility.yul\":12270:12272   */\n      0x20\n        /* \"#utility.yul\":12259:12268   */\n      dup3\n        /* \"#utility.yul\":12255:12273   */\n      add\n        /* \"#utility.yul\":12247:12273   */\n      swap1\n      pop\n        /* \"#utility.yul\":12319:12328   */\n      dup2\n        /* \"#utility.yul\":12313:12317   */\n      dup2\n        /* \"#utility.yul\":12309:12329   */\n      sub\n        /* \"#utility.yul\":12305:12306   */\n      0x00\n        /* \"#utility.yul\":12294:12303   */\n      dup4\n        /* \"#utility.yul\":12290:12307   */\n      add\n        /* \"#utility.yul\":12283:12330   */\n      mstore\n        /* \"#utility.yul\":12347:12478   */\n      tag_456\n        /* \"#utility.yul\":12473:12477   */\n      dup2\n        /* \"#utility.yul\":12347:12478   */\n      tag_307\n      jump\t// in\n    tag_456:\n        /* \"#utility.yul\":12339:12478   */\n      swap1\n      pop\n        /* \"#utility.yul\":12066:12485   */\n      swap2\n      swap1\n      pop\n      jump\t// out\n        /* \"#utility.yul\":12491:12639   */\n    tag_308:\n        /* \"#utility.yul\":12593:12604   */\n      0x00\n        /* \"#utility.yul\":12630:12633   */\n      dup2\n        /* \"#utility.yul\":12615:12633   */\n      swap1\n      pop\n        /* \"#utility.yul\":12491:12639   */\n      swap3\n      swap2\n      pop\n      pop\n      jump\t// out\n        /* \"#utility.yul\":12645:13035   */\n    tag_309:\n        /* \"#utility.yul\":12751:12754   */\n      0x00\n        /* \"#utility.yul\":12779:12818   */\n      tag_459\n        /* \"#utility.yul\":12812:12817   */\n      dup3\n        /* \"#utility.yul\":12779:12818   */\n      tag_279\n      jump\t// in\n    tag_459:\n        /* \"#utility.yul\":12834:12923   */\n      tag_460\n        /* \"#utility.yul\":12916:12922   */\n      dup2\n        /* \"#utility.yul\":12911:12914   */\n      dup6\n        /* \"#utility.yul\":12834:12923   */\n      tag_308\n      jump\t// in\n    tag_460:\n        /* \"#utility.yul\":12827:12923   */\n      swap4\n      pop\n        /* \"#utility.yul\":12932:12997   */\n      tag_461\n        /* \"#utility.yul\":12990:12996   */\n      dup2\n        /* \"#utility.yul\":12985:12988   */\n      dup6\n        /* \"#utility.yul\":12978:12982   */\n      0x20\n        /* \"#utility.yul\":12971:12976   */\n      dup7\n        /* \"#utility.yul\":12967:12983   */\n      add\n        /* \"#utility.yul\":12932:12997   */\n      tag_281\n      jump\t// in\n    tag_461:\n        /* \"#utility.yul\":13022:13028   */\n      dup1\n        /* \"#utility.yul\":13017:13020   */\n      dup5\n        /* \"#utility.yul\":13013:13029   */\n      add\n        /* \"#utility.yul\":13006:13029   */\n      swap2\n      pop\n        /* \"#utility.yul\":12755:13035   */\n      pop\n        /* \"#utility.yul\":12645:13035   */\n      swap3\n      swap2\n      pop\n      pop\n      jump\t// out\n        /* \"#utility.yul\":13041:13476   */\n    tag_128:\n        /* \"#utility.yul\":13221:13224   */\n      0x00\n        /* \"#utility.yul\":13243:13338   */\n      tag_463\n        /* \"#utility.yul\":13334:13337   */\n      dup3\n        /* \"#utility.yul\":13325:13331   */\n      dup6\n        /* \"#utility.yul\":13243:13338   */\n      tag_309\n      jump\t// in\n    tag_463:\n        /* \"#utility.yul\":13236:13338   */\n      swap2\n      pop\n        /* \"#utility.yul\":13355:13450   */\n      tag_464\n        /* \"#utility.yul\":13446:13449   */\n      dup3\n        /* \"#utility.yul\":13437:13443   */\n      dup5\n        /* \"#utility.yul\":13355:13450   */\n      tag_309\n      jump\t// in\n    tag_464:\n        /* \"#utility.yul\":13348:13450   */\n      swap2\n      pop\n        /* \"#utility.yul\":13467:13470   */\n      dup2\n        /* \"#utility.yul\":13460:13470   */\n      swap1\n      pop\n        /* \"#utility.yul\":13041:13476   */\n      swap4\n      swap3\n      pop\n      pop\n      pop\n      jump\t// out\n        /* \"#utility.yul\":13482:13715   */\n    tag_310:\n        /* \"#utility.yul\":13622:13656   */\n      0x45524337323155524953746f726167653a2055524920736574206f66206e6f6e\n        /* \"#utility.yul\":13618:13619   */\n      0x00\n        /* \"#utility.yul\":13610:13616   */\n      dup3\n        /* \"#utility.yul\":13606:13620   */\n      add\n        /* \"#utility.yul\":13599:13657   */\n      mstore\n        /* \"#utility.yul\":13691:13707   */\n      0x6578697374656e7420746f6b656e000000000000000000000000000000000000\n        /* \"#utility.yul\":13686:13688   */\n      0x20\n        /* \"#utility.yul\":13678:13684   */\n      dup3\n        /* \"#utility.yul\":13674:13689   */\n      add\n        /* \"#utility.yul\":13667:13708   */\n      mstore\n        /* \"#utility.yul\":13482:13715   */\n      pop\n      jump\t// out\n        /* \"#utility.yul\":13721:14087   */\n    tag_311:\n        /* \"#utility.yul\":13863:13866   */\n      0x00\n        /* \"#utility.yul\":13884:13951   */\n      tag_467\n        /* \"#utility.yul\":13948:13950   */\n      0x2e\n        /* \"#utility.yul\":13943:13946   */\n      dup4\n        /* \"#utility.yul\":13884:13951   */\n      tag_280\n      jump\t// in\n    tag_467:\n        /* \"#utility.yul\":13877:13951   */\n      swap2\n      pop\n        /* \"#utility.yul\":13960:14053   */\n      tag_468\n        /* \"#utility.yul\":14049:14052   */\n      dup3\n        /* \"#utility.yul\":13960:14053   */\n      tag_310\n      jump\t// in\n    tag_468:\n        /* \"#utility.yul\":14078:14080   */\n      0x40\n        /* \"#utility.yul\":14073:14076   */\n      dup3\n        /* \"#utility.yul\":14069:14081   */\n      add\n        /* \"#utility.yul\":14062:14081   */\n      swap1\n      pop\n        /* \"#utility.yul\":13721:14087   */\n      swap2\n      swap1\n      pop\n      jump\t// out\n        /* \"#utility.yul\":14093:14512   */\n    tag_139:\n        /* \"#utility.yul\":14259:14263   */\n      0x00\n        /* \"#utility.yul\":14297:14299   */\n      0x20\n        /* \"#utility.yul\":14286:14295   */\n      dup3\n        /* \"#utility.yul\":14282:14300   */\n      add\n        /* \"#utility.yul\":14274:14300   */\n      swap1\n      pop\n        /* \"#utility.yul\":14346:14355   */\n      dup2\n        /* \"#utility.yul\":14340:14344   */\n      dup2\n        /* \"#utility.yul\":14336:14356   */\n      sub\n        /* \"#utility.yul\":14332:14333   */\n      0x00\n        /* \"#utility.yul\":14321:14330   */\n      dup4\n        /* \"#utility.yul\":14317:14334   */\n      add\n        /* \"#utility.yul\":14310:14357   */\n      mstore\n        /* \"#utility.yul\":14374:14505   */\n      tag_470\n        /* \"#utility.yul\":14500:14504   */\n      dup2\n        /* \"#utility.yul\":14374:14505   */\n      tag_311\n      jump\t// in\n    tag_470:\n        /* \"#utility.yul\":14366:14505   */\n      swap1\n      pop\n        /* \"#utility.yul\":14093:14512   */\n      swap2\n      swap1\n      pop\n      jump\t// out\n        /* \"#utility.yul\":14518:14698   */\n    tag_180:\n        /* \"#utility.yul\":14566:14643   */\n      0x4e487b7100000000000000000000000000000000000000000000000000000000\n        /* \"#utility.yul\":14563:14564   */\n      0x00\n        /* \"#utility.yul\":14556:14644   */\n      mstore\n        /* \"#utility.yul\":14663:14667   */\n      0x41\n        /* \"#utility.yul\":14660:14661   */\n      0x04\n        /* \"#utility.yul\":14653:14668   */\n      mstore\n        /* \"#utility.yul\":14687:14691   */\n      0x24\n        /* \"#utility.yul\":14684:14685   */\n      0x00\n        /* \"#utility.yul\":14677:14692   */\n      revert\n        /* \"#utility.yul\":14704:14845   */\n    tag_312:\n        /* \"#utility.yul\":14753:14757   */\n      0x00\n        /* \"#utility.yul\":14776:14779   */\n      dup2\n        /* \"#utility.yul\":14768:14779   */\n      swap1\n      pop\n        /* \"#utility.yul\":14799:14802   */\n      dup2\n        /* \"#utility.yul\":14796:14797   */\n      0x00\n        /* \"#utility.yul\":14789:14803   */\n      mstore\n        /* \"#utility.yul\":14833:14837   */\n      0x20\n        /* \"#utility.yul\":14830:14831   */\n      0x00\n        /* \"#utility.yul\":14820:14838   */\n      keccak256\n        /* \"#utility.yul\":14812:14838   */\n      swap1\n      pop\n        /* \"#utility.yul\":14704:14845   */\n      swap2\n      swap1\n      pop\n      jump\t// out\n        /* \"#utility.yul\":14851:14944   */\n    tag_313:\n        /* \"#utility.yul\":14888:14894   */\n      0x00\n        /* \"#utility.yul\":14935:14937   */\n      0x20\n        /* \"#utility.yul\":14930:14932   */\n      0x1f\n        /* \"#utility.yul\":14923:14928   */\n      dup4\n        /* \"#utility.yul\":14919:14933   */\n      add\n        /* \"#utility.yul\":14915:14938   */\n      div\n        /* \"#utility.yul\":14905:14938   */\n      swap1\n      pop\n        /* \"#utility.yul\":14851:14944   */\n      swap2\n      swap1\n      pop\n      jump\t// out\n        /* \"#utility.yul\":14950:15057   */\n    tag_314:\n        /* \"#utility.yul\":14994:15002   */\n      0x00\n        /* \"#utility.yul\":15044:15049   */\n      dup3\n        /* \"#utility.yul\":15038:15042   */\n      dup3\n        /* \"#utility.yul\":15034:15050   */\n      shl\n        /* \"#utility.yul\":15013:15050   */\n      swap1\n      pop\n        /* \"#utility.yul\":14950:15057   */\n      swap3\n      swap2\n      pop\n      pop\n      jump\t// out\n        /* \"#utility.yul\":15063:15456   */\n    tag_315:\n        /* \"#utility.yul\":15132:15138   */\n      0x00\n        /* \"#utility.yul\":15182:15183   */\n      0x08\n        /* \"#utility.yul\":15170:15180   */\n      dup4\n        /* \"#utility.yul\":15166:15184   */\n      mul\n        /* \"#utility.yul\":15205:15302   */\n      tag_476\n        /* \"#utility.yul\":15235:15301   */\n      0xffffffffffffffffffffffffffffffffffffffffffffffffffffffffffffffff\n        /* \"#utility.yul\":15224:15233   */\n      dup3\n        /* \"#utility.yul\":15205:15302   */\n      tag_314\n      jump\t// in\n    tag_476:\n        /* \"#utility.yul\":15323:15362   */\n      tag_477\n        /* \"#utility.yul\":15353:15361   */\n      dup7\n        /* \"#utility.yul\":15342:15351   */\n      dup4\n        /* \"#utility.yul\":15323:15362   */\n      tag_314\n      jump\t// in\n    tag_477:\n        /* \"#utility.yul\":15311:15362   */\n      swap6\n      pop\n        /* \"#utility.yul\":15395:15399   */\n      dup1\n        /* \"#utility.yul\":15391:15400   */\n      not\n        /* \"#utility.yul\":15384:15389   */\n      dup5\n        /* \"#utility.yul\":15380:15401   */\n      and\n        /* \"#utility.yul\":15371:15401   */\n      swap4\n      pop\n        /* \"#utility.yul\":15444:15448   */\n      dup1\n        /* \"#utility.yul\":15434:15442   */\n      dup7\n        /* \"#utility.yul\":15430:15449   */\n      and\n        /* \"#utility.yul\":15423:15428   */\n      dup5\n        /* \"#utility.yul\":15420:15450   */\n      or\n        /* \"#utility.yul\":15410:15450   */\n      swap3\n      pop\n        /* \"#utility.yul\":15139:15456   */\n      pop\n      pop\n        /* \"#utility.yul\":15063:15456   */\n      swap4\n      swap3\n      pop\n      pop\n      pop\n      jump\t// out\n        /* \"#utility.yul\":15462:15522   */\n    tag_316:\n        /* \"#utility.yul\":15490:15493   */\n      0x00\n        /* \"#utility.yul\":15511:15516   */\n      dup2\n        /* \"#utility.yul\":15504:15516   */\n      swap1\n      pop\n        /* \"#utility.yul\":15462:15522   */\n      swap2\n      swap1\n      pop\n      jump\t// out\n        /* \"#utility.yul\":15528:15670   */\n    tag_317:\n        /* \"#utility.yul\":15578:15587   */\n      0x00\n        /* \"#utility.yul\":15611:15664   */\n      tag_480\n        /* \"#utility.yul\":15629:15663   */\n      tag_481\n        /* \"#utility.yul\":15638:15662   */\n      tag_482\n        /* \"#utility.yul\":15656:15661   */\n      dup5\n        /* \"#utility.yul\":15638:15662   */\n      tag_284\n      jump\t// in\n    tag_482:\n        /* \"#utility.yul\":15629:15663   */\n      tag_316\n      jump\t// in\n    tag_481:\n        /* \"#utility.yul\":15611:15664   */\n      tag_284\n      jump\t// in\n    tag_480:\n        /* \"#utility.yul\":15598:15664   */\n      swap1\n      pop\n        /* \"#utility.yul\":15528:15670   */\n      swap2\n      swap1\n      pop\n      jump\t// out\n        /* \"#utility.yul\":15676:15751   */\n    tag_318:\n        /* \"#utility.yul\":15719:15722   */\n      0x00\n        /* \"#utility.yul\":15740:15745   */\n      dup2\n        /* \"#utility.yul\":15733:15745   */\n      swap1\n      pop\n        /* \"#utility.yul\":15676:15751   */\n      swap2\n      swap1\n      pop\n      jump\t// out\n        /* \"#utility.yul\":15757:16026   */\n    tag_319:\n        /* \"#utility.yul\":15867:15906   */\n      tag_485\n        /* \"#utility.yul\":15898:15905   */\n      dup4\n        /* \"#utility.yul\":15867:15906   */\n      tag_317\n      jump\t// in\n    tag_485:\n        /* \"#utility.yul\":15928:16019   */\n      tag_486\n        /* \"#utility.yul\":15977:16018   */\n      tag_487\n        /* \"#utility.yul\":16001:16017   */\n      dup3\n        /* \"#utility.yul\":15977:16018   */\n      tag_318\n      jump\t// in\n    tag_487:\n        /* \"#utility.yul\":15969:15975   */\n      dup5\n        /* \"#utility.yul\":15962:15966   */\n      dup5\n        /* \"#utility.yul\":15956:15967   */\n      sload\n        /* \"#utility.yul\":15928:16019   */\n      tag_315\n      jump\t// in\n    tag_486:\n        /* \"#utility.yul\":15922:15926   */\n      dup3\n        /* \"#utility.yul\":15915:16020   */\n      sstore\n        /* \"#utility.yul\":15833:16026   */\n      pop\n        /* \"#utility.yul\":15757:16026   */\n      pop\n      pop\n      pop\n      jump\t// out\n        /* \"#utility.yul\":16032:16105   */\n    tag_320:\n        /* \"#utility.yul\":16077:16080   */\n      0x00\n        /* \"#utility.yul\":16032:16105   */\n      swap1\n      jump\t// out\n        /* \"#utility.yul\":16111:16300   */\n    tag_321:\n        /* \"#utility.yul\":16188:16220   */\n      tag_490\n      tag_320\n      jump\t// in\n    tag_490:\n        /* \"#utility.yul\":16229:16294   */\n      tag_491\n        /* \"#utility.yul\":16287:16293   */\n      dup2\n        /* \"#utility.yul\":16279:16285   */\n      dup5\n        /* \"#utility.yul\":16273:16277   */\n      dup5\n        /* \"#utility.yul\":16229:16294   */\n      tag_319\n      jump\t// in\n    tag_491:\n        /* \"#utility.yul\":16164:16300   */\n      pop\n        /* \"#utility.yul\":16111:16300   */\n      pop\n      pop\n      jump\t// out\n        /* \"#utility.yul\":16306:16492   */\n    tag_322:\n        /* \"#utility.yul\":16366:16486   */\n    tag_493:\n        /* \"#utility.yul\":16383:16386   */\n      dup2\n        /* \"#utility.yul\":16376:16381   */\n      dup2\n        /* \"#utility.yul\":16373:16387   */\n      lt\n        /* \"#utility.yul\":16366:16486   */\n      iszero\n      tag_495\n      jumpi\n        /* \"#utility.yul\":16437:16476   */\n      tag_496\n        /* \"#utility.yul\":16474:16475   */\n      0x00\n        /* \"#utility.yul\":16467:16472   */\n      dup3\n        /* \"#utility.yul\":16437:16476   */\n      tag_321\n      jump\t// in\n    tag_496:\n        /* \"#utility.yul\":16410:16411   */\n      0x01\n        /* \"#utility.yul\":16403:16408   */\n      dup2\n        /* \"#utility.yul\":16399:16412   */\n      add\n        /* \"#utility.yul\":16390:16412   */\n      swap1\n      pop\n        /* \"#utility.yul\":16366:16486   */\n      jump(tag_493)\n    tag_495:\n        /* \"#utility.yul\":16306:16492   */\n      pop\n      pop\n      jump\t// out\n        /* \"#utility.yul\":16498:17041   */\n    tag_323:\n        /* \"#utility.yul\":16599:16601   */\n      0x1f\n        /* \"#utility.yul\":16594:16597   */\n      dup3\n        /* \"#utility.yul\":16591:16602   */\n      gt\n        /* \"#utility.yul\":16588:17034   */\n      iszero\n      tag_498\n      jumpi\n        /* \"#utility.yul\":16633:16671   */\n      tag_499\n        /* \"#utility.yul\":16665:16670   */\n      dup2\n        /* \"#utility.yul\":16633:16671   */\n      tag_312\n      jump\t// in\n    tag_499:\n        /* \"#utility.yul\":16717:16746   */\n      tag_500\n        /* \"#utility.yul\":16735:16745   */\n      dup5\n        /* \"#utility.yul\":16717:16746   */\n      tag_313\n      jump\t// in\n    tag_500:\n        /* \"#utility.yul\":16707:16715   */\n      dup2\n        /* \"#utility.yul\":16703:16747   */\n      add\n        /* \"#utility.yul\":16900:16902   */\n      0x20\n        /* \"#utility.yul\":16888:16898   */\n      dup6\n        /* \"#utility.yul\":16885:16903   */\n      lt\n        /* \"#utility.yul\":16882:16931   */\n      iszero\n      tag_501\n      jumpi\n        /* \"#utility.yul\":16921:16929   */\n      dup2\n        /* \"#utility.yul\":16906:16929   */\n      swap1\n      pop\n        /* \"#utility.yul\":16882:16931   */\n    tag_501:\n        /* \"#utility.yul\":16944:17024   */\n      tag_502\n        /* \"#utility.yul\":17000:17022   */\n      tag_503\n        /* \"#utility.yul\":17018:17021   */\n      dup6\n        /* \"#utility.yul\":17000:17022   */\n      tag_313\n      jump\t// in\n    tag_503:\n        /* \"#utility.yul\":16990:16998   */\n      dup4\n        /* \"#utility.yul\":16986:17023   */\n      add\n        /* \"#utility.yul\":16973:16984   */\n      dup3\n        /* \"#utility.yul\":16944:17024   */\n      tag_322\n      jump\t// in\n    tag_502:\n        /* \"#utility.yul\":16603:17034   */\n      pop\n      pop\n        /* \"#utility.yul\":16588:17034   */\n    tag_498:\n        /* \"#utility.yul\":16498:17041   */\n      pop\n      pop\n      pop\n      jump\t// out\n        /* \"#utility.yul\":17047:17164   */\n    tag_324:\n        /* \"#utility.yul\":17101:17109   */\n      0x00\n        /* \"#utility.yul\":17151:17156   */\n      dup3\n        /* \"#utility.yul\":17145:17149   */\n      dup3\n        /* \"#utility.yul\":17141:17157   */\n      shr\n        /* \"#utility.yul\":17120:17157   */\n      swap1\n      pop\n        /* \"#utility.yul\":17047:17164   */\n      swap3\n      swap2\n      pop\n      pop\n      jump\t// out\n        /* \"#utility.yul\":17170:17339   */\n    tag_325:\n        /* \"#utility.yul\":17214:17220   */\n      0x00\n        /* \"#utility.yul\":17247:17298   */\n      tag_506\n        /* \"#utility.yul\":17295:17296   */\n      0x00\n        /* \"#utility.yul\":17291:17297   */\n      not\n        /* \"#utility.yul\":17283:17288   */\n      dup5\n        /* \"#utility.yul\":17280:17281   */\n      0x08\n        /* \"#utility.yul\":17276:17289   */\n      mul\n        /* \"#utility.yul\":17247:17298   */\n      tag_324\n      jump\t// in\n    tag_506:\n        /* \"#utility.yul\":17243:17299   */\n      not\n        /* \"#utility.yul\":17328:17332   */\n      dup1\n        /* \"#utility.yul\":17322:17326   */\n      dup4\n        /* \"#utility.yul\":17318:17333   */\n      and\n        /* \"#utility.yul\":17308:17333   */\n      swap2\n      pop\n        /* \"#utility.yul\":17221:17339   */\n      pop\n        /* \"#utility.yul\":17170:17339   */\n      swap3\n      swap2\n      pop\n      pop\n      jump\t// out\n        /* \"#utility.yul\":17344:17639   */\n    tag_326:\n        /* \"#utility.yul\":17420:17424   */\n      0x00\n        /* \"#utility.yul\":17566:17595   */\n      tag_508\n        /* \"#utility.yul\":17591:17594   */\n      dup4\n        /* \"#utility.yul\":17585:17589   */\n      dup4\n        /* \"#utility.yul\":17566:17595   */\n      tag_325\n      jump\t// in\n    tag_508:\n        /* \"#utility.yul\":17558:17595   */\n      swap2\n      pop\n        /* \"#utility.yul\":17628:17631   */\n      dup3\n        /* \"#utility.yul\":17625:17626   */\n      0x02\n        /* \"#utility.yul\":17621:17632   */\n      mul\n        /* \"#utility.yul\":17615:17619   */\n      dup3\n        /* \"#utility.yul\":17612:17633   */\n      or\n        /* \"#utility.yul\":17604:17633   */\n      swap1\n      pop\n        /* \"#utility.yul\":17344:17639   */\n      swap3\n      swap2\n      pop\n      pop\n      jump\t// out\n        /* \"#utility.yul\":17644:19039   */\n    tag_141:\n        /* \"#utility.yul\":17761:17798   */\n      tag_510\n        /* \"#utility.yul\":17794:17797   */\n      dup3\n        /* \"#utility.yul\":17761:17798   */\n      tag_279\n      jump\t// in\n    tag_510:\n        /* \"#utility.yul\":17863:17881   */\n      0xffffffffffffffff\n        /* \"#utility.yul\":17855:17861   */\n      dup2\n        /* \"#utility.yul\":17852:17882   */\n      gt\n        /* \"#utility.yul\":17849:17905   */\n      iszero\n      tag_511\n      jumpi\n        /* \"#utility.yul\":17885:17903   */\n      tag_512\n      tag_180\n      jump\t// in\n    tag_512:\n        /* \"#utility.yul\":17849:17905   */\n    tag_511:\n        /* \"#utility.yul\":17929:17967   */\n      tag_513\n        /* \"#utility.yul\":17961:17965   */\n      dup3\n        /* \"#utility.yul\":17955:17966   */\n      sload\n        /* \"#utility.yul\":17929:17967   */\n      tag_61\n      jump\t// in\n    tag_513:\n        /* \"#utility.yul\":18014:18081   */\n      tag_514\n        /* \"#utility.yul\":18074:18080   */\n      dup3\n        /* \"#utility.yul\":18066:18072   */\n      dup3\n        /* \"#utility.yul\":18060:18064   */\n      dup6\n        /* \"#utility.yul\":18014:18081   */\n      tag_323\n      jump\t// in\n    tag_514:\n        /* \"#utility.yul\":18108:18109   */\n      0x00\n        /* \"#utility.yul\":18132:18136   */\n      0x20\n        /* \"#utility.yul\":18119:18136   */\n      swap1\n      pop\n        /* \"#utility.yul\":18164:18166   */\n      0x1f\n        /* \"#utility.yul\":18156:18162   */\n      dup4\n        /* \"#utility.yul\":18153:18167   */\n      gt\n        /* \"#utility.yul\":18181:18182   */\n      0x01\n        /* \"#utility.yul\":18176:18794   */\n      dup2\n      eq\n      tag_516\n      jumpi\n        /* \"#utility.yul\":18838:18839   */\n      0x00\n        /* \"#utility.yul\":18855:18861   */\n      dup5\n        /* \"#utility.yul\":18852:18929   */\n      iszero\n      tag_517\n      jumpi\n        /* \"#utility.yul\":18904:18913   */\n      dup3\n        /* \"#utility.yul\":18899:18902   */\n      dup8\n        /* \"#utility.yul\":18895:18914   */\n      add\n        /* \"#utility.yul\":18889:18915   */\n      mload\n        /* \"#utility.yul\":18880:18915   */\n      swap1\n      pop\n        /* \"#utility.yul\":18852:18929   */\n    tag_517:\n        /* \"#utility.yul\":18955:19022   */\n      tag_518\n        /* \"#utility.yul\":19015:19021   */\n      dup6\n        /* \"#utility.yul\":19008:19013   */\n      dup3\n        /* \"#utility.yul\":18955:19022   */\n      tag_326\n      jump\t// in\n    tag_518:\n        /* \"#utility.yul\":18949:18953   */\n      dup7\n        /* \"#utility.yul\":18942:19023   */\n      sstore\n        /* \"#utility.yul\":18811:19033   */\n      pop\n        /* \"#utility.yul\":18146:19033   */\n      jump(tag_515)\n        /* \"#utility.yul\":18176:18794   */\n    tag_516:\n        /* \"#utility.yul\":18228:18232   */\n      0x1f\n        /* \"#utility.yul\":18224:18233   */\n      not\n        /* \"#utility.yul\":18216:18222   */\n      dup5\n        /* \"#utility.yul\":18212:18234   */\n      and\n        /* \"#utility.yul\":18262:18299   */\n      tag_519\n        /* \"#utility.yul\":18294:18298   */\n      dup7\n        /* \"#utility.yul\":18262:18299   */\n      tag_312\n      jump\t// in\n    tag_519:\n        /* \"#utility.yul\":18321:18322   */\n      0x00\n        /* \"#utility.yul\":18335:18543   */\n    tag_520:\n        /* \"#utility.yul\":18349:18356   */\n      dup3\n        /* \"#utility.yul\":18346:18347   */\n      dup2\n        /* \"#utility.yul\":18343:18357   */\n      lt\n        /* \"#utility.yul\":18335:18543   */\n      iszero\n      tag_522\n      jumpi\n        /* \"#utility.yul\":18428:18437   */\n      dup5\n        /* \"#utility.yul\":18423:18426   */\n      dup10\n        /* \"#utility.yul\":18419:18438   */\n      add\n        /* \"#utility.yul\":18413:18439   */\n      mload\n        /* \"#utility.yul\":18405:18411   */\n      dup3\n        /* \"#utility.yul\":18398:18440   */\n      sstore\n        /* \"#utility.yul\":18479:18480   */\n      0x01\n        /* \"#utility.yul\":18471:18477   */\n      dup3\n        /* \"#utility.yul\":18467:18481   */\n      add\n        /* \"#utility.yul\":18457:18481   */\n      swap2\n      pop\n        /* \"#utility.yul\":18526:18528   */\n      0x20\n        /* \"#utility.yul\":18515:18524   */\n      dup6\n        /* \"#utility.yul\":18511:18529   */\n      add\n        /* \"#utility.yul\":18498:18529   */\n      swap5\n      pop\n        /* \"#utility.yul\":18372:18376   */\n      0x20\n        /* \"#utility.yul\":18369:18370   */\n      dup2\n        /* \"#utility.yul\":18365:18377   */\n      add\n        /* \"#utility.yul\":18360:18377   */\n      swap1\n      pop\n        /* \"#utility.yul\":18335:18543   */\n      jump(tag_520)\n    tag_522:\n        /* \"#utility.yul\":18571:18577   */\n      dup7\n        /* \"#utility.yul\":18562:18569   */\n      dup4\n        /* \"#utility.yul\":18559:18578   */\n      lt\n        /* \"#utility.yul\":18556:18735   */\n      iszero\n      tag_523\n      jumpi\n        /* \"#utility.yul\":18629:18638   */\n      dup5\n        /* \"#utility.yul\":18624:18627   */\n      dup10\n        /* \"#utility.yul\":18620:18639   */\n      add\n        /* \"#utility.yul\":18614:18640   */\n      mload\n        /* \"#utility.yul\":18672:18720   */\n      tag_524\n        /* \"#utility.yul\":18714:18718   */\n      0x1f\n        /* \"#utility.yul\":18706:18712   */\n      dup10\n        /* \"#utility.yul\":18702:18719   */\n      and\n        /* \"#utility.yul\":18691:18700   */\n      dup3\n        /* \"#utility.yul\":18672:18720   */\n      tag_325\n      jump\t// in\n    tag_524:\n        /* \"#utility.yul\":18664:18670   */\n      dup4\n        /* \"#utility.yul\":18657:18721   */\n      sstore\n        /* \"#utility.yul\":18579:18735   */\n      pop\n        /* \"#utility.yul\":18556:18735   */\n    tag_523:\n        /* \"#utility.yul\":18781:18782   */\n      0x01\n        /* \"#utility.yul\":18777:18778   */\n      0x02\n        /* \"#utility.yul\":18769:18775   */\n      dup9\n        /* \"#utility.yul\":18765:18779   */\n      mul\n        /* \"#utility.yul\":18761:18783   */\n      add\n        /* \"#utility.yul\":18755:18759   */\n      dup9\n        /* \"#utility.yul\":18748:18784   */\n      sstore\n        /* \"#utility.yul\":18183:18794   */\n      pop\n      pop\n      pop\n        /* \"#utility.yul\":18146:19033   */\n    tag_515:\n      pop\n        /* \"#utility.yul\":17736:19039   */\n      pop\n      pop\n      pop\n        /* \"#utility.yul\":17644:19039   */\n      pop\n      pop\n      jump\t// out\n        /* \"#utility.yul\":19045:19279   */\n    tag_327:\n        /* \"#utility.yul\":19185:19219   */\n      0x4552433732314d657461646174613a2055524920717565727920666f72206e6f\n        /* \"#utility.yul\":19181:19182   */\n      0x00\n        /* \"#utility.yul\":19173:19179   */\n      dup3\n        /* \"#utility.yul\":19169:19183   */\n      add\n        /* \"#utility.yul\":19162:19220   */\n      mstore\n        /* \"#utility.yul\":19254:19271   */\n      0x6e6578697374656e7420746f6b656e0000000000000000000000000000000000\n        /* \"#utility.yul\":19249:19251   */\n      0x20\n        /* \"#utility.yul\":19241:19247   */\n      dup3\n        /* \"#utility.yul\":19237:19252   */\n      add\n        /* \"#utility.yul\":19230:19272   */\n      mstore\n        /* \"#utility.yul\":19045:19279   */\n      pop\n      jump\t// out\n        /* \"#utility.yul\":19285:19651   */\n    tag_328:\n        /* \"#utility.yul\":19427:19430   */\n      0x00\n        /* \"#utility.yul\":19448:19515   */\n      tag_527\n        /* \"#utility.yul\":19512:19514   */\n      0x2f\n        /* \"#utility.yul\":19507:19510   */\n      dup4\n        /* \"#utility.yul\":19448:19515   */\n      tag_280\n      jump\t// in\n    tag_527:\n        /* \"#utility.yul\":19441:19515   */\n      swap2\n      pop\n        /* \"#utility.yul\":19524:19617   */\n      tag_528\n        /* \"#utility.yul\":19613:19616   */\n      dup3\n        /* \"#utility.yul\":19524:19617   */\n      tag_327\n      jump\t// in\n    tag_528:\n        /* \"#utility.yul\":19642:19644   */\n      0x40\n        /* \"#utility.yul\":19637:19640   */\n      dup3\n        /* \"#utility.yul\":19633:19645   */\n      add\n        /* \"#utility.yul\":19626:19645   */\n      swap1\n      pop\n        /* \"#utility.yul\":19285:19651   */\n      swap2\n      swap1\n      pop\n      jump\t// out\n        /* \"#utility.yul\":19657:20076   */\n    tag_154:\n        /* \"#utility.yul\":19823:19827   */\n      0x00\n        /* \"#utility.yul\":19861:19863   */\n      0x20\n        /* \"#utility.yul\":19850:19859   */\n      dup3\n        /* \"#utility.yul\":19846:19864   */\n      add\n        /* \"#utility.yul\":19838:19864   */\n      swap1\n      pop\n        /* \"#utility.yul\":19910:19919   */\n      dup2\n        /* \"#utility.yul\":19904:19908   */\n      dup2\n        /* \"#utility.yul\":19900:19920   */\n      sub\n        /* \"#utility.yul\":19896:19897   */\n      0x00\n        /* \"#utility.yul\":19885:19894   */\n      dup4\n        /* \"#utility.yul\":19881:19898   */\n      add\n        /* \"#utility.yul\":19874:19921   */\n      mstore\n        /* \"#utility.yul\":19938:20069   */\n      tag_530\n        /* \"#utility.yul\":20064:20068   */\n      dup2\n        /* \"#utility.yul\":19938:20069   */\n      tag_328\n      jump\t// in\n    tag_530:\n        /* \"#utility.yul\":19930:20069   */\n      swap1\n      pop\n        /* \"#utility.yul\":19657:20076   */\n      swap2\n      swap1\n      pop\n      jump\t// out\n        /* \"#utility.yul\":20082:20319   */\n    tag_329:\n        /* \"#utility.yul\":20222:20256   */\n      0x4552433732313a207472616e7366657220746f206e6f6e204552433732315265\n        /* \"#utility.yul\":20218:20219   */\n      0x00\n        /* \"#utility.yul\":20210:20216   */\n      dup3\n        /* \"#utility.yul\":20206:20220   */\n      add\n        /* \"#utility.yul\":20199:20257   */\n      mstore\n        /* \"#utility.yul\":20291:20311   */\n      0x63656976657220696d706c656d656e7465720000000000000000000000000000\n        /* \"#utility.yul\":20286:20288   */\n      0x20\n        /* \"#utility.yul\":20278:20284   */\n      dup3\n        /* \"#utility.yul\":20274:20289   */\n      add\n        /* \"#utility.yul\":20267:20312   */\n      mstore\n        /* \"#utility.yul\":20082:20319   */\n      pop\n      jump\t// out\n        /* \"#utility.yul\":20325:20691   */\n    tag_330:\n        /* \"#utility.yul\":20467:20470   */\n      0x00\n        /* \"#utility.yul\":20488:20555   */\n      tag_533\n        /* \"#utility.yul\":20552:20554   */\n      0x32\n        /* \"#utility.yul\":20547:20550   */\n      dup4\n        /* \"#utility.yul\":20488:20555   */\n      tag_280\n      jump\t// in\n    tag_533:\n        /* \"#utility.yul\":20481:20555   */\n      swap2\n      pop\n        /* \"#utility.yul\":20564:20657   */\n      tag_534\n        /* \"#utility.yul\":20653:20656   */\n      dup3\n        /* \"#utility.yul\":20564:20657   */\n      tag_329\n      jump\t// in\n    tag_534:\n        /* \"#utility.yul\":20682:20684   */\n      0x40\n        /* \"#utility.yul\":20677:20680   */\n      dup3\n        /* \"#utility.yul\":20673:20685   */\n      add\n        /* \"#utility.yul\":20666:20685   */\n      swap1\n      pop\n        /* \"#utility.yul\":20325:20691   */\n      swap2\n      swap1\n      pop\n      jump\t// out\n        /* \"#utility.yul\":20697:21116   */\n    tag_168:\n        /* \"#utility.yul\":20863:20867   */\n      0x00\n        /* \"#utility.yul\":20901:20903   */\n      0x20\n        /* \"#utility.yul\":20890:20899   */\n      dup3\n        /* \"#utility.yul\":20886:20904   */\n      add\n        /* \"#utility.yul\":20878:20904   */\n      swap1\n      pop\n        /* \"#utility.yul\":20950:20959   */\n      dup2\n        /* \"#utility.yul\":20944:20948   */\n      dup2\n        /* \"#utility.yul\":20940:20960   */\n      sub\n        /* \"#utility.yul\":20936:20937   */\n      0x00\n        /* \"#utility.yul\":20925:20934   */\n      dup4\n        /* \"#utility.yul\":20921:20938   */\n      add\n        /* \"#utility.yul\":20914:20961   */\n      mstore\n        /* \"#utility.yul\":20978:21109   */\n      tag_536\n        /* \"#utility.yul\":21104:21108   */\n      dup2\n        /* \"#utility.yul\":20978:21109   */\n      tag_330\n      jump\t// in\n    tag_536:\n        /* \"#utility.yul\":20970:21109   */\n      swap1\n      pop\n        /* \"#utility.yul\":20697:21116   */\n      swap2\n      swap1\n      pop\n      jump\t// out\n        /* \"#utility.yul\":21122:21302   */\n    tag_331:\n        /* \"#utility.yul\":21170:21247   */\n      0x4e487b7100000000000000000000000000000000000000000000000000000000\n        /* \"#utility.yul\":21167:21168   */\n      0x00\n        /* \"#utility.yul\":21160:21248   */\n      mstore\n        /* \"#utility.yul\":21267:21271   */\n      0x11\n        /* \"#utility.yul\":21264:21265   */\n      0x04\n        /* \"#utility.yul\":21257:21272   */\n      mstore\n        /* \"#utility.yul\":21291:21295   */\n      0x24\n        /* \"#utility.yul\":21288:21289   */\n      0x00\n        /* \"#utility.yul\":21281:21296   */\n      revert\n        /* \"#utility.yul\":21308:21541   */\n    tag_175:\n        /* \"#utility.yul\":21347:21350   */\n      0x00\n        /* \"#utility.yul\":21370:21394   */\n      tag_539\n        /* \"#utility.yul\":21388:21393   */\n      dup3\n        /* \"#utility.yul\":21370:21394   */\n      tag_284\n      jump\t// in\n    tag_539:\n        /* \"#utility.yul\":21361:21394   */\n      swap2\n      pop\n        /* \"#utility.yul\":21416:21482   */\n      0xffffffffffffffffffffffffffffffffffffffffffffffffffffffffffffffff\n        /* \"#utility.yul\":21409:21414   */\n      dup3\n        /* \"#utility.yul\":21406:21483   */\n      sub\n        /* \"#utility.yul\":21403:21506   */\n      tag_540\n      jumpi\n        /* \"#utility.yul\":21486:21504   */\n      tag_541\n      tag_331\n      jump\t// in\n    tag_541:\n        /* \"#utility.yul\":21403:21506   */\n    tag_540:\n        /* \"#utility.yul\":21533:21534   */\n      0x01\n        /* \"#utility.yul\":21526:21531   */\n      dup3\n        /* \"#utility.yul\":21522:21535   */\n      add\n        /* \"#utility.yul\":21515:21535   */\n      swap1\n      pop\n        /* \"#utility.yul\":21308:21541   */\n      swap2\n      swap1\n      pop\n      jump\t// out\n        /* \"#utility.yul\":21547:21727   */\n    tag_332:\n        /* \"#utility.yul\":21595:21672   */\n      0x4e487b7100000000000000000000000000000000000000000000000000000000\n        /* \"#utility.yul\":21592:21593   */\n      0x00\n        /* \"#utility.yul\":21585:21673   */\n      mstore\n        /* \"#utility.yul\":21692:21696   */\n      0x12\n        /* \"#utility.yul\":21689:21690   */\n      0x04\n        /* \"#utility.yul\":21682:21697   */\n      mstore\n        /* \"#utility.yul\":21716:21720   */\n      0x24\n        /* \"#utility.yul\":21713:21714   */\n      0x00\n        /* \"#utility.yul\":21706:21721   */\n      revert\n        /* \"#utility.yul\":21733:21918   */\n    tag_177:\n        /* \"#utility.yul\":21773:21774   */\n      0x00\n        /* \"#utility.yul\":21790:21810   */\n      tag_544\n        /* \"#utility.yul\":21808:21809   */\n      dup3\n        /* \"#utility.yul\":21790:21810   */\n      tag_284\n      jump\t// in\n    tag_544:\n        /* \"#utility.yul\":21785:21810   */\n      swap2\n      pop\n        /* \"#utility.yul\":21824:21844   */\n      tag_545\n        /* \"#utility.yul\":21842:21843   */\n      dup4\n        /* \"#utility.yul\":21824:21844   */\n      tag_284\n      jump\t// in\n    tag_545:\n        /* \"#utility.yul\":21819:21844   */\n      swap3\n      pop\n        /* \"#utility.yul\":21863:21864   */\n      dup3\n        /* \"#utility.yul\":21853:21888   */\n      tag_546\n      jumpi\n        /* \"#utility.yul\":21868:21886   */\n      tag_547\n      tag_332\n      jump\t// in\n    tag_547:\n        /* \"#utility.yul\":21853:21888   */\n    tag_546:\n        /* \"#utility.yul\":21910:21911   */\n      dup3\n        /* \"#utility.yul\":21907:21908   */\n      dup3\n        /* \"#utility.yul\":21903:21912   */\n      div\n        /* \"#utility.yul\":21898:21912   */\n      swap1\n      pop\n        /* \"#utility.yul\":21733:21918   */\n      swap3\n      swap2\n      pop\n      pop\n      jump\t// out\n        /* \"#utility.yul\":21924:22118   */\n    tag_185:\n        /* \"#utility.yul\":21964:21968   */\n      0x00\n        /* \"#utility.yul\":21984:22004   */\n      tag_549\n        /* \"#utility.yul\":22002:22003   */\n      dup3\n        /* \"#utility.yul\":21984:22004   */\n      tag_284\n      jump\t// in\n    tag_549:\n        /* \"#utility.yul\":21979:22004   */\n      swap2\n      pop\n        /* \"#utility.yul\":22018:22038   */\n      tag_550\n        /* \"#utility.yul\":22036:22037   */\n      dup4\n        /* \"#utility.yul\":22018:22038   */\n      tag_284\n      jump\t// in\n    tag_550:\n        /* \"#utility.yul\":22013:22038   */\n      swap3\n      pop\n        /* \"#utility.yul\":22062:22063   */\n      dup3\n        /* \"#utility.yul\":22059:22060   */\n      dup3\n        /* \"#utility.yul\":22055:22064   */\n      sub\n        /* \"#utility.yul\":22047:22064   */\n      swap1\n      pop\n        /* \"#utility.yul\":22086:22087   */\n      dup2\n        /* \"#utility.yul\":22080:22084   */\n      dup2\n        /* \"#utility.yul\":22077:22088   */\n      gt\n        /* \"#utility.yul\":22074:22111   */\n      iszero\n      tag_551\n      jumpi\n        /* \"#utility.yul\":22091:22109   */\n      tag_552\n      tag_331\n      jump\t// in\n    tag_552:\n        /* \"#utility.yul\":22074:22111   */\n    tag_551:\n        /* \"#utility.yul\":21924:22118   */\n      swap3\n      swap2\n      pop\n      pop\n      jump\t// out\n        /* \"#utility.yul\":22124:22300   */\n    tag_187:\n        /* \"#utility.yul\":22156:22157   */\n      0x00\n        /* \"#utility.yul\":22173:22193   */\n      tag_554\n        /* \"#utility.yul\":22191:22192   */\n      dup3\n        /* \"#utility.yul\":22173:22193   */\n      tag_284\n      jump\t// in\n    tag_554:\n        /* \"#utility.yul\":22168:22193   */\n      swap2\n      pop\n        /* \"#utility.yul\":22207:22227   */\n      tag_555\n        /* \"#utility.yul\":22225:22226   */\n      dup4\n        /* \"#utility.yul\":22207:22227   */\n      tag_284\n      jump\t// in\n    tag_555:\n        /* \"#utility.yul\":22202:22227   */\n      swap3\n      pop\n        /* \"#utility.yul\":22246:22247   */\n      dup3\n        /* \"#utility.yul\":22236:22271   */\n      tag_556\n      jumpi\n        /* \"#utility.yul\":22251:22269   */\n      tag_557\n      tag_332\n      jump\t// in\n    tag_557:\n        /* \"#utility.yul\":22236:22271   */\n    tag_556:\n        /* \"#utility.yul\":22292:22293   */\n      dup3\n        /* \"#utility.yul\":22289:22290   */\n      dup3\n        /* \"#utility.yul\":22285:22294   */\n      mod\n        /* \"#utility.yul\":22280:22294   */\n      swap1\n      pop\n        /* \"#utility.yul\":22124:22300   */\n      swap3\n      swap2\n      pop\n      pop\n      jump\t// out\n        /* \"#utility.yul\":22306:22497   */\n    tag_189:\n        /* \"#utility.yul\":22346:22349   */\n      0x00\n        /* \"#utility.yul\":22365:22385   */\n      tag_559\n        /* \"#utility.yul\":22383:22384   */\n      dup3\n        /* \"#utility.yul\":22365:22385   */\n      tag_284\n      jump\t// in\n    tag_559:\n        /* \"#utility.yul\":22360:22385   */\n      swap2\n      pop\n        /* \"#utility.yul\":22399:22419   */\n      tag_560\n        /* \"#utility.yul\":22417:22418   */\n      dup4\n        /* \"#utility.yul\":22399:22419   */\n      tag_284\n      jump\t// in\n    tag_560:\n        /* \"#utility.yul\":22394:22419   */\n      swap3\n      pop\n        /* \"#utility.yul\":22442:22443   */\n      dup3\n        /* \"#utility.yul\":22439:22440   */\n      dup3\n        /* \"#utility.yul\":22435:22444   */\n      add\n        /* \"#utility.yul\":22428:22444   */\n      swap1\n      pop\n        /* \"#utility.yul\":22463:22466   */\n      dup1\n        /* \"#utility.yul\":22460:22461   */\n      dup3\n        /* \"#utility.yul\":22457:22467   */\n      gt\n        /* \"#utility.yul\":22454:22490   */\n      iszero\n      tag_561\n      jumpi\n        /* \"#utility.yul\":22470:22488   */\n      tag_562\n      tag_331\n      jump\t// in\n    tag_562:\n        /* \"#utility.yul\":22454:22490   */\n    tag_561:\n        /* \"#utility.yul\":22306:22497   */\n      swap3\n      swap2\n      pop\n      pop\n      jump\t// out\n        /* \"#utility.yul\":22503:22683   */\n    tag_192:\n        /* \"#utility.yul\":22551:22628   */\n      0x4e487b7100000000000000000000000000000000000000000000000000000000\n        /* \"#utility.yul\":22548:22549   */\n      0x00\n        /* \"#utility.yul\":22541:22629   */\n      mstore\n        /* \"#utility.yul\":22648:22652   */\n      0x32\n        /* \"#utility.yul\":22645:22646   */\n      0x04\n        /* \"#utility.yul\":22638:22653   */\n      mstore\n        /* \"#utility.yul\":22672:22676   */\n      0x24\n        /* \"#utility.yul\":22669:22670   */\n      0x00\n        /* \"#utility.yul\":22662:22677   */\n      revert\n        /* \"#utility.yul\":22689:22871   */\n    tag_333:\n        /* \"#utility.yul\":22829:22863   */\n      0x4552433732313a206d696e7420746f20746865207a65726f2061646472657373\n        /* \"#utility.yul\":22825:22826   */\n      0x00\n        /* \"#utility.yul\":22817:22823   */\n      dup3\n        /* \"#utility.yul\":22813:22827   */\n      add\n        /* \"#utility.yul\":22806:22864   */\n      mstore\n        /* \"#utility.yul\":22689:22871   */\n      pop\n      jump\t// out\n        /* \"#utility.yul\":22877:23243   */\n    tag_334:\n        /* \"#utility.yul\":23019:23022   */\n      0x00\n        /* \"#utility.yul\":23040:23107   */\n      tag_566\n        /* \"#utility.yul\":23104:23106   */\n      0x20\n        /* \"#utility.yul\":23099:23102   */\n      dup4\n        /* \"#utility.yul\":23040:23107   */\n      tag_280\n      jump\t// in\n    tag_566:\n        /* \"#utility.yul\":23033:23107   */\n      swap2\n      pop\n        /* \"#utility.yul\":23116:23209   */\n      tag_567\n        /* \"#utility.yul\":23205:23208   */\n      dup3\n        /* \"#utility.yul\":23116:23209   */\n      tag_333\n      jump\t// in\n    tag_567:\n        /* \"#utility.yul\":23234:23236   */\n      0x20\n        /* \"#utility.yul\":23229:23232   */\n      dup3\n        /* \"#utility.yul\":23225:23237   */\n      add\n        /* \"#utility.yul\":23218:23237   */\n      swap1\n      pop\n        /* \"#utility.yul\":22877:23243   */\n      swap2\n      swap1\n      pop\n      jump\t// out\n        /* \"#utility.yul\":23249:23668   */\n    tag_197:\n        /* \"#utility.yul\":23415:23419   */\n      0x00\n        /* \"#utility.yul\":23453:23455   */\n      0x20\n        /* \"#utility.yul\":23442:23451   */\n      dup3\n        /* \"#utility.yul\":23438:23456   */\n      add\n        /* \"#utility.yul\":23430:23456   */\n      swap1\n      pop\n        /* \"#utility.yul\":23502:23511   */\n      dup2\n        /* \"#utility.yul\":23496:23500   */\n      dup2\n        /* \"#utility.yul\":23492:23512   */\n      sub\n        /* \"#utility.yul\":23488:23489   */\n      0x00\n        /* \"#utility.yul\":23477:23486   */\n      dup4\n        /* \"#utility.yul\":23473:23490   */\n      add\n        /* \"#utility.yul\":23466:23513   */\n      mstore\n        /* \"#utility.yul\":23530:23661   */\n      tag_569\n        /* \"#utility.yul\":23656:23660   */\n      dup2\n        /* \"#utility.yul\":23530:23661   */\n      tag_334\n      jump\t// in\n    tag_569:\n        /* \"#utility.yul\":23522:23661   */\n      swap1\n      pop\n        /* \"#utility.yul\":23249:23668   */\n      swap2\n      swap1\n      pop\n      jump\t// out\n        /* \"#utility.yul\":23674:23852   */\n    tag_335:\n        /* \"#utility.yul\":23814:23844   */\n      0x4552433732313a20746f6b656e20616c7265616479206d696e74656400000000\n        /* \"#utility.yul\":23810:23811   */\n      0x00\n        /* \"#utility.yul\":23802:23808   */\n      dup3\n        /* \"#utility.yul\":23798:23812   */\n      add\n        /* \"#utility.yul\":23791:23845   */\n      mstore\n        /* \"#utility.yul\":23674:23852   */\n      pop\n      jump\t// out\n        /* \"#utility.yul\":23858:24224   */\n    tag_336:\n        /* \"#utility.yul\":24000:24003   */\n      0x00\n        /* \"#utility.yul\":24021:24088   */\n      tag_572\n        /* \"#utility.yul\":24085:24087   */\n      0x1c\n        /* \"#utility.yul\":24080:24083   */\n      dup4\n        /* \"#utility.yul\":24021:24088   */\n      tag_280\n      jump\t// in\n    tag_572:\n        /* \"#utility.yul\":24014:24088   */\n      swap2\n      pop\n        /* \"#utility.yul\":24097:24190   */\n      tag_573\n        /* \"#utility.yul\":24186:24189   */\n      dup3\n        /* \"#utility.yul\":24097:24190   */\n      tag_335\n      jump\t// in\n    tag_573:\n        /* \"#utility.yul\":24215:24217   */\n      0x20\n        /* \"#utility.yul\":24210:24213   */\n      dup3\n        /* \"#utility.yul\":24206:24218   */\n      add\n        /* \"#utility.yul\":24199:24218   */\n      swap1\n      pop\n        /* \"#utility.yul\":23858:24224   */\n      swap2\n      swap1\n      pop\n      jump\t// out\n        /* \"#utility.yul\":24230:24649   */\n    tag_201:\n        /* \"#utility.yul\":24396:24400   */\n      0x00\n        /* \"#utility.yul\":24434:24436   */\n      0x20\n        /* \"#utility.yul\":24423:24432   */\n      dup3\n        /* \"#utility.yul\":24419:24437   */\n      add\n        /* \"#utility.yul\":24411:24437   */\n      swap1\n      pop\n        /* \"#utility.yul\":24483:24492   */\n      dup2\n        /* \"#utility.yul\":24477:24481   */\n      dup2\n        /* \"#utility.yul\":24473:24493   */\n      sub\n        /* \"#utility.yul\":24469:24470   */\n      0x00\n        /* \"#utility.yul\":24458:24467   */\n      dup4\n        /* \"#utility.yul\":24454:24471   */\n      add\n        /* \"#utility.yul\":24447:24494   */\n      mstore\n        /* \"#utility.yul\":24511:24642   */\n      tag_575\n        /* \"#utility.yul\":24637:24641   */\n      dup2\n        /* \"#utility.yul\":24511:24642   */\n      tag_336\n      jump\t// in\n    tag_575:\n        /* \"#utility.yul\":24503:24642   */\n      swap1\n      pop\n        /* \"#utility.yul\":24230:24649   */\n      swap2\n      swap1\n      pop\n      jump\t// out\n        /* \"#utility.yul\":24655:24753   */\n    tag_337:\n        /* \"#utility.yul\":24706:24712   */\n      0x00\n        /* \"#utility.yul\":24740:24745   */\n      dup2\n        /* \"#utility.yul\":24734:24746   */\n      mload\n        /* \"#utility.yul\":24724:24746   */\n      swap1\n      pop\n        /* \"#utility.yul\":24655:24753   */\n      swap2\n      swap1\n      pop\n      jump\t// out\n        /* \"#utility.yul\":24759:24927   */\n    tag_338:\n        /* \"#utility.yul\":24842:24853   */\n      0x00\n        /* \"#utility.yul\":24876:24882   */\n      dup3\n        /* \"#utility.yul\":24871:24874   */\n      dup3\n        /* \"#utility.yul\":24864:24883   */\n      mstore\n        /* \"#utility.yul\":24916:24920   */\n      0x20\n        /* \"#utility.yul\":24911:24914   */\n      dup3\n        /* \"#utility.yul\":24907:24921   */\n      add\n        /* \"#utility.yul\":24892:24921   */\n      swap1\n      pop\n        /* \"#utility.yul\":24759:24927   */\n      swap3\n      swap2\n      pop\n      pop\n      jump\t// out\n        /* \"#utility.yul\":24933:25306   */\n    tag_339:\n        /* \"#utility.yul\":25019:25022   */\n      0x00\n        /* \"#utility.yul\":25047:25085   */\n      tag_579\n        /* \"#utility.yul\":25079:25084   */\n      dup3\n        /* \"#utility.yul\":25047:25085   */\n      tag_337\n      jump\t// in\n    tag_579:\n        /* \"#utility.yul\":25101:25171   */\n      tag_580\n        /* \"#utility.yul\":25164:25170   */\n      dup2\n        /* \"#utility.yul\":25159:25162   */\n      dup6\n        /* \"#utility.yul\":25101:25171   */\n      tag_338\n      jump\t// in\n    tag_580:\n        /* \"#utility.yul\":25094:25171   */\n      swap4\n      pop\n        /* \"#utility.yul\":25180:25245   */\n      tag_581\n        /* \"#utility.yul\":25238:25244   */\n      dup2\n        /* \"#utility.yul\":25233:25236   */\n      dup6\n        /* \"#utility.yul\":25226:25230   */\n      0x20\n        /* \"#utility.yul\":25219:25224   */\n      dup7\n        /* \"#utility.yul\":25215:25231   */\n      add\n        /* \"#utility.yul\":25180:25245   */\n      tag_281\n      jump\t// in\n    tag_581:\n        /* \"#utility.yul\":25270:25299   */\n      tag_582\n        /* \"#utility.yul\":25292:25298   */\n      dup2\n        /* \"#utility.yul\":25270:25299   */\n      tag_282\n      jump\t// in\n    tag_582:\n        /* \"#utility.yul\":25265:25268   */\n      dup5\n        /* \"#utility.yul\":25261:25300   */\n      add\n        /* \"#utility.yul\":25254:25300   */\n      swap2\n      pop\n        /* \"#utility.yul\":25023:25306   */\n      pop\n        /* \"#utility.yul\":24933:25306   */\n      swap3\n      swap2\n      pop\n      pop\n      jump\t// out\n        /* \"#utility.yul\":25312:25952   */\n    tag_213:\n        /* \"#utility.yul\":25507:25511   */\n      0x00\n        /* \"#utility.yul\":25545:25548   */\n      0x80\n        /* \"#utility.yul\":25534:25543   */\n      dup3\n        /* \"#utility.yul\":25530:25549   */\n      add\n        /* \"#utility.yul\":25522:25549   */\n      swap1\n      pop\n        /* \"#utility.yul\":25559:25630   */\n      tag_584\n        /* \"#utility.yul\":25627:25628   */\n      0x00\n        /* \"#utility.yul\":25616:25625   */\n      dup4\n        /* \"#utility.yul\":25612:25629   */\n      add\n        /* \"#utility.yul\":25603:25609   */\n      dup8\n        /* \"#utility.yul\":25559:25630   */\n      tag_290\n      jump\t// in\n    tag_584:\n        /* \"#utility.yul\":25640:25712   */\n      tag_585\n        /* \"#utility.yul\":25708:25710   */\n      0x20\n        /* \"#utility.yul\":25697:25706   */\n      dup4\n        /* \"#utility.yul\":25693:25711   */\n      add\n        /* \"#utility.yul\":25684:25690   */\n      dup7\n        /* \"#utility.yul\":25640:25712   */\n      tag_290\n      jump\t// in\n    tag_585:\n        /* \"#utility.yul\":25722:25794   */\n      tag_586\n        /* \"#utility.yul\":25790:25792   */\n      0x40\n        /* \"#utility.yul\":25779:25788   */\n      dup4\n        /* \"#utility.yul\":25775:25793   */\n      add\n        /* \"#utility.yul\":25766:25772   */\n      dup6\n        /* \"#utility.yul\":25722:25794   */\n      tag_285\n      jump\t// in\n    tag_586:\n        /* \"#utility.yul\":25841:25850   */\n      dup2\n        /* \"#utility.yul\":25835:25839   */\n      dup2\n        /* \"#utility.yul\":25831:25851   */\n      sub\n        /* \"#utility.yul\":25826:25828   */\n      0x60\n        /* \"#utility.yul\":25815:25824   */\n      dup4\n        /* \"#utility.yul\":25811:25829   */\n      add\n        /* \"#utility.yul\":25804:25852   */\n      mstore\n        /* \"#utility.yul\":25869:25945   */\n      tag_587\n        /* \"#utility.yul\":25940:25944   */\n      dup2\n        /* \"#utility.yul\":25931:25937   */\n      dup5\n        /* \"#utility.yul\":25869:25945   */\n      tag_339\n      jump\t// in\n    tag_587:\n        /* \"#utility.yul\":25861:25945   */\n      swap1\n      pop\n        /* \"#utility.yul\":25312:25952   */\n      swap6\n      swap5\n      pop\n      pop\n      pop\n      pop\n      pop\n      jump\t// out\n        /* \"#utility.yul\":25958:26099   */\n    tag_340:\n        /* \"#utility.yul\":26014:26019   */\n      0x00\n        /* \"#utility.yul\":26045:26051   */\n      dup2\n        /* \"#utility.yul\":26039:26052   */\n      mload\n        /* \"#utility.yul\":26030:26052   */\n      swap1\n      pop\n        /* \"#utility.yul\":26061:26093   */\n      tag_589\n        /* \"#utility.yul\":26087:26092   */\n      dup2\n        /* \"#utility.yul\":26061:26093   */\n      tag_275\n      jump\t// in\n    tag_589:\n        /* \"#utility.yul\":25958:26099   */\n      swap3\n      swap2\n      pop\n      pop\n      jump\t// out\n        /* \"#utility.yul\":26105:26454   */\n    tag_216:\n        /* \"#utility.yul\":26174:26180   */\n      0x00\n        /* \"#utility.yul\":26223:26225   */\n      0x20\n        /* \"#utility.yul\":26211:26220   */\n      dup3\n        /* \"#utility.yul\":26202:26209   */\n      dup5\n        /* \"#utility.yul\":26198:26221   */\n      sub\n        /* \"#utility.yul\":26194:26226   */\n      slt\n        /* \"#utility.yul\":26191:26310   */\n      iszero\n      tag_591\n      jumpi\n        /* \"#utility.yul\":26229:26308   */\n      tag_592\n      tag_272\n      jump\t// in\n    tag_592:\n        /* \"#utility.yul\":26191:26310   */\n    tag_591:\n        /* \"#utility.yul\":26349:26350   */\n      0x00\n        /* \"#utility.yul\":26374:26437   */\n      tag_593\n        /* \"#utility.yul\":26429:26436   */\n      dup5\n        /* \"#utility.yul\":26420:26426   */\n      dup3\n        /* \"#utility.yul\":26409:26418   */\n      dup6\n        /* \"#utility.yul\":26405:26427   */\n      add\n        /* \"#utility.yul\":26374:26437   */\n      tag_340\n      jump\t// in\n    tag_593:\n        /* \"#utility.yul\":26364:26437   */\n      swap2\n      pop\n        /* \"#utility.yul\":26320:26447   */\n      pop\n        /* \"#utility.yul\":26105:26454   */\n      swap3\n      swap2\n      pop\n      pop\n      jump\t// out\n        /* \"#utility.yul\":26460:26640   */\n    tag_267:\n        /* \"#utility.yul\":26508:26585   */\n      0x4e487b7100000000000000000000000000000000000000000000000000000000\n        /* \"#utility.yul\":26505:26506   */\n      0x00\n        /* \"#utility.yul\":26498:26586   */\n      mstore\n        /* \"#utility.yul\":26605:26609   */\n      0x31\n        /* \"#utility.yul\":26602:26603   */\n      0x04\n        /* \"#utility.yul\":26595:26610   */\n      mstore\n        /* \"#utility.yul\":26629:26633   */\n      0x24\n        /* \"#utility.yul\":26626:26627   */\n      0x00\n        /* \"#utility.yul\":26619:26634   */\n      revert\n\n    auxdata: 0xa264697066735822122082403b57adabb319de5d45daaf69a910afa365edaf8959e3a38981928d71e2db64736f6c63430008140033\n}\n",
				"bytecode": {
					"linkReferences": {},
					"object": "608060405234801562000010575f80fd5b506040518060400160405280600881526020017f42617365204e46540000000000000000000000000000000000000000000000008152506040518060400160405280600381526020017f424e500000000000000000000000000000000000000000000000000000000000815250815f90816200008d9190620003f6565b5080600190816200009f9190620003f6565b505050620000c2620000b6620000c860201b60201c565b620000cf60201b60201c565b620004da565b5f33905090565b5f600b5f9054906101000a900473ffffffffffffffffffffffffffffffffffffffff16905081600b5f6101000a81548173ffffffffffffffffffffffffffffffffffffffff021916908373ffffffffffffffffffffffffffffffffffffffff1602179055508173ffffffffffffffffffffffffffffffffffffffff168173ffffffffffffffffffffffffffffffffffffffff167f8be0079c531659141344cd1fd0a4f28419497f9722a3daafe3b4186f6b6457e060405160405180910390a35050565b5f81519050919050565b7f4e487b71000000000000000000000000000000000000000000000000000000005f52604160045260245ffd5b7f4e487b71000000000000000000000000000000000000000000000000000000005f52602260045260245ffd5b5f60028204905060018216806200020e57607f821691505b602082108103620002245762000223620001c9565b5b50919050565b5f819050815f5260205f209050919050565b5f6020601f8301049050919050565b5f82821b905092915050565b5f60088302620002887fffffffffffffffffffffffffffffffffffffffffffffffffffffffffffffffff826200024b565b6200029486836200024b565b95508019841693508086168417925050509392505050565b5f819050919050565b5f819050919050565b5f620002de620002d8620002d284620002ac565b620002b5565b620002ac565b9050919050565b5f819050919050565b620002f983620002be565b620003116200030882620002e5565b84845462000257565b825550505050565b5f90565b6200032762000319565b62000334818484620002ee565b505050565b5b818110156200035b576200034f5f826200031d565b6001810190506200033a565b5050565b601f821115620003aa5762000374816200022a565b6200037f846200023c565b810160208510156200038f578190505b620003a76200039e856200023c565b83018262000339565b50505b505050565b5f82821c905092915050565b5f620003cc5f1984600802620003af565b1980831691505092915050565b5f620003e68383620003bb565b9150826002028217905092915050565b620004018262000192565b67ffffffffffffffff8111156200041d576200041c6200019c565b5b620004298254620001f6565b620004368282856200035f565b5f60209050601f8311600181146200046c575f841562000457578287015190505b620004638582620003d9565b865550620004d2565b601f1984166200047c866200022a565b5f5b82811015620004a5578489015182556001820191506020850194506020810190506200047e565b86831015620004c55784890151620004c1601f891682620003bb565b8355505b6001600288020188555050505b505050505050565b61240080620004e85f395ff3fe608060405234801561000f575f80fd5b506004361061009c575f3560e01c80638da5cb5b116100645780638da5cb5b1461016c57806395d89b411461018a578063c87b56dd146101a8578063d3fc9864146101d8578063f2fde38b146101f45761009c565b806301ffc9a7146100a057806306fdde03146100d057806318160ddd146100ee5780636352211e1461010c57806370a082311461013c575b5f80fd5b6100ba60048036038101906100b591906115b4565b610210565b6040516100c791906115f9565b60405180910390f35b6100d8610221565b6040516100e5919061169c565b60405180910390f35b6100f66102b0565b60405161010391906116d4565b60405180910390f35b61012660048036038101906101219190611717565b6102bc565b6040516101339190611781565b60405180910390f35b610156600480360381019061015191906117c4565b610368565b60405161016391906116d4565b60405180910390f35b61017461041c565b6040516101819190611781565b60405180910390f35b610192610444565b60405161019f919061169c565b60405180910390f35b6101c260048036038101906101bd9190611717565b6104d4565b6040516101cf919061169c565b60405180910390f35b6101f260048036038101906101ed9190611850565b6104e6565b005b61020e600480360381019061020991906117c4565b6105bf565b005b5f61021a826106b5565b9050919050565b60605f805461022f906118ee565b80601f016020809104026020016040519081016040528092919081815260200182805461025b906118ee565b80156102a65780601f1061027d576101008083540402835291602001916102a6565b820191905f5260205f20905b81548152906001019060200180831161028957829003601f168201915b5050505050905090565b5f600880549050905090565b5f8060025f8481526020019081526020015f205f9054906101000a900473ffffffffffffffffffffffffffffffffffffffff1690505f73ffffffffffffffffffffffffffffffffffffffff168173ffffffffffffffffffffffffffffffffffffffff160361035f576040517f08c379a00000000000000000000000000000000000000000000000000000000081526004016103569061198e565b60405180910390fd5b80915050919050565b5f8073ffffffffffffffffffffffffffffffffffffffff168273ffffffffffffffffffffffffffffffffffffffff16036103d7576040517f08c379a00000000000000000000000000000000000000000000000000000000081526004016103ce90611a1c565b60405180910390fd5b60035f8373ffffffffffffffffffffffffffffffffffffffff1673ffffffffffffffffffffffffffffffffffffffff1681526020019081526020015f20549050919050565b5f600b5f9054906101000a900473ffffffffffffffffffffffffffffffffffffffff16905090565b606060018054610453906118ee565b80601f016020809104026020016040519081016040528092919081815260200182805461047f906118ee565b80156104ca5780601f106104a1576101008083540402835291602001916104ca565b820191905f5260205f20905b8154815290600101906020018083116104ad57829003601f168201915b5050505050905090565b60606104df8261072e565b9050919050565b6104ee610877565b73ffffffffffffffffffffffffffffffffffffffff1661050c61041c565b73ffffffffffffffffffffffffffffffffffffffff1614610562576040517f08c379a000000000000000000000000000000000000000000000000000000000815260040161055990611a84565b60405180910390fd5b61056c848461087e565b6105b98383838080601f0160208091040260200160405190810160405280939291908181526020018383808284375f81840152601f19601f8201169050808301925050505050505061089b565b50505050565b6105c7610877565b73ffffffffffffffffffffffffffffffffffffffff166105e561041c565b73ffffffffffffffffffffffffffffffffffffffff161461063b576040517f08c379a000000000000000000000000000000000000000000000000000000000815260040161063290611a84565b60405180910390fd5b5f73ffffffffffffffffffffffffffffffffffffffff168173ffffffffffffffffffffffffffffffffffffffff16036106a9576040517f08c379a00000000000000000000000000000000000000000000000000000000081526004016106a090611b12565b60405180910390fd5b6106b281610906565b50565b5f7f18160ddd000000000000000000000000000000000000000000000000000000007bffffffffffffffffffffffffffffffffffffffffffffffffffffffff1916827bffffffffffffffffffffffffffffffffffffffffffffffffffffffff191614806107275750610726826109c9565b5b9050919050565b606061073982610aaa565b610778576040517f08c379a000000000000000000000000000000000000000000000000000000000815260040161076f90611ba0565b60405180910390fd5b5f600a5f8481526020019081526020015f208054610795906118ee565b80601f01602080910402602001604051908101604052809291908181526020018280546107c1906118ee565b801561080c5780601f106107e35761010080835404028352916020019161080c565b820191905f5260205f20905b8154815290600101906020018083116107ef57829003601f168201915b505050505090505f61081c610b12565b90505f815103610830578192505050610872565b5f8251111561086457808260405160200161084c929190611bf8565b60405160208183030381529060405292505050610872565b61086d84610b28565b925050505b919050565b5f33905090565b610897828260405180602001604052805f815250610bcc565b5050565b6108a482610aaa565b6108e3576040517f08c379a00000000000000000000000000000000000000000000000000000000081526004016108da90611c8b565b60405180910390fd5b80600a5f8481526020019081526020015f2090816109019190611e73565b505050565b5f600b5f9054906101000a900473ffffffffffffffffffffffffffffffffffffffff16905081600b5f6101000a81548173ffffffffffffffffffffffffffffffffffffffff021916908373ffffffffffffffffffffffffffffffffffffffff1602179055508173ffffffffffffffffffffffffffffffffffffffff168173ffffffffffffffffffffffffffffffffffffffff167f8be0079c531659141344cd1fd0a4f28419497f9722a3daafe3b4186f6b6457e060405160405180910390a35050565b5f7f13f2a32f000000000000000000000000000000000000000000000000000000007bffffffffffffffffffffffffffffffffffffffffffffffffffffffff1916827bffffffffffffffffffffffffffffffffffffffffffffffffffffffff19161480610a9357507f5b5e139f000000000000000000000000000000000000000000000000000000007bffffffffffffffffffffffffffffffffffffffffffffffffffffffff1916827bffffffffffffffffffffffffffffffffffffffffffffffffffffffff1916145b80610aa35750610aa282610c26565b5b9050919050565b5f8073ffffffffffffffffffffffffffffffffffffffff1660025f8481526020019081526020015f205f9054906101000a900473ffffffffffffffffffffffffffffffffffffffff1673ffffffffffffffffffffffffffffffffffffffff1614159050919050565b606060405180602001604052805f815250905090565b6060610b3382610aaa565b610b72576040517f08c379a0000000000000000000000000000000000000000000000000000000008152600401610b6990611fb2565b60405180910390fd5b5f610b7b610b12565b90505f815111610b995760405180602001604052805f815250610bc4565b80610ba384610c8f565b604051602001610bb4929190611bf8565b6040516020818303038152906040525b915050919050565b610bd68383610de8565b610be25f848484610fb7565b610c21576040517f08c379a0000000000000000000000000000000000000000000000000000000008152600401610c1890612040565b60405180910390fd5b505050565b5f7f01ffc9a7000000000000000000000000000000000000000000000000000000007bffffffffffffffffffffffffffffffffffffffffffffffffffffffff1916827bffffffffffffffffffffffffffffffffffffffffffffffffffffffff1916149050919050565b60605f8203610cd5576040518060400160405280600181526020017f30000000000000000000000000000000000000000000000000000000000000008152509050610de3565b5f8290505f5b5f8214610d04578080610ced9061208b565b915050600a82610cfd91906120ff565b9150610cdb565b5f8167ffffffffffffffff811115610d1f57610d1e611ca9565b5b6040519080825280601f01601f191660200182016040528015610d515781602001600182028036833780820191505090505b5090505b5f8514610ddc57600182610d69919061212f565b9150600a85610d789190612162565b6030610d849190612192565b60f81b818381518110610d9a57610d996121c5565b5b60200101907effffffffffffffffffffffffffffffffffffffffffffffffffffffffffffff191690815f1a905350600a85610dd591906120ff565b9450610d55565b8093505050505b919050565b5f73ffffffffffffffffffffffffffffffffffffffff168273ffffffffffffffffffffffffffffffffffffffff1603610e56576040517f08c379a0000000000000000000000000000000000000000000000000000000008152600401610e4d9061223c565b60405180910390fd5b610e5f81610aaa565b15610e9f576040517f08c379a0000000000000000000000000000000000000000000000000000000008152600401610e96906122a4565b60405180910390fd5b610eaa5f8383611139565b600160035f8473ffffffffffffffffffffffffffffffffffffffff1673ffffffffffffffffffffffffffffffffffffffff1681526020019081526020015f205f828254610ef79190612192565b925050819055508160025f8381526020019081526020015f205f6101000a81548173ffffffffffffffffffffffffffffffffffffffff021916908373ffffffffffffffffffffffffffffffffffffffff160217905550808273ffffffffffffffffffffffffffffffffffffffff165f73ffffffffffffffffffffffffffffffffffffffff167fddf252ad1be2c89b69c2b068fc378daa952ba7f163c4a11628f55a4df523b3ef60405160405180910390a4610fb35f8383611149565b5050565b5f610fd78473ffffffffffffffffffffffffffffffffffffffff1661114e565b1561112c578373ffffffffffffffffffffffffffffffffffffffff1663150b7a02611000610877565b8786866040518563ffffffff1660e01b81526004016110229493929190612314565b6020604051808303815f875af192505050801561105d57506040513d601f19601f8201168201806040525081019061105a9190612372565b60015b6110dc573d805f811461108b576040519150601f19603f3d011682016040523d82523d5f602084013e611090565b606091505b505f8151036110d4576040517f08c379a00000000000000000000000000000000000000000000000000000000081526004016110cb90612040565b60405180910390fd5b805181602001fd5b63150b7a0260e01b7bffffffffffffffffffffffffffffffffffffffffffffffffffffffff1916817bffffffffffffffffffffffffffffffffffffffffffffffffffffffff191614915050611131565b600190505b949350505050565b611144838383611170565b505050565b505050565b5f808273ffffffffffffffffffffffffffffffffffffffff163b119050919050565b61117b838383611280565b5f73ffffffffffffffffffffffffffffffffffffffff168373ffffffffffffffffffffffffffffffffffffffff16036111bc576111b781611285565b6111fb565b8173ffffffffffffffffffffffffffffffffffffffff168373ffffffffffffffffffffffffffffffffffffffff16146111fa576111f983826112c9565b5b5b5f73ffffffffffffffffffffffffffffffffffffffff168273ffffffffffffffffffffffffffffffffffffffff160361123c576112378161141f565b61127b565b8273ffffffffffffffffffffffffffffffffffffffff168273ffffffffffffffffffffffffffffffffffffffff161461127a5761127982826114df565b5b5b505050565b505050565b60088054905060095f8381526020019081526020015f2081905550600881908060018154018082558091505060019003905f5260205f20015f909190919091505550565b5f60016112d584610368565b6112df919061212f565b90505f60075f8481526020019081526020015f205490508181146113b6575f60065f8673ffffffffffffffffffffffffffffffffffffffff1673ffffffffffffffffffffffffffffffffffffffff1681526020019081526020015f205f8481526020019081526020015f205490508060065f8773ffffffffffffffffffffffffffffffffffffffff1673ffffffffffffffffffffffffffffffffffffffff1681526020019081526020015f205f8481526020019081526020015f20819055508160075f8381526020019081526020015f2081905550505b60075f8481526020019081526020015f205f905560065f8573ffffffffffffffffffffffffffffffffffffffff1673ffffffffffffffffffffffffffffffffffffffff1681526020019081526020015f205f8381526020019081526020015f205f905550505050565b5f6001600880549050611432919061212f565b90505f60095f8481526020019081526020015f205490505f6008838154811061145e5761145d6121c5565b5b905f5260205f2001549050806008838154811061147e5761147d6121c5565b5b905f5260205f2001819055508160095f8381526020019081526020015f208190555060095f8581526020019081526020015f205f905560088054806114c6576114c561239d565b5b600190038181905f5260205f20015f9055905550505050565b5f6114e983610368565b90508160065f8573ffffffffffffffffffffffffffffffffffffffff1673ffffffffffffffffffffffffffffffffffffffff1681526020019081526020015f205f8381526020019081526020015f20819055508060075f8481526020019081526020015f2081905550505050565b5f80fd5b5f80fd5b5f7fffffffff0000000000000000000000000000000000000000000000000000000082169050919050565b6115938161155f565b811461159d575f80fd5b50565b5f813590506115ae8161158a565b92915050565b5f602082840312156115c9576115c8611557565b5b5f6115d6848285016115a0565b91505092915050565b5f8115159050919050565b6115f3816115df565b82525050565b5f60208201905061160c5f8301846115ea565b92915050565b5f81519050919050565b5f82825260208201905092915050565b5f5b8381101561164957808201518184015260208101905061162e565b5f8484015250505050565b5f601f19601f8301169050919050565b5f61166e82611612565b611678818561161c565b935061168881856020860161162c565b61169181611654565b840191505092915050565b5f6020820190508181035f8301526116b48184611664565b905092915050565b5f819050919050565b6116ce816116bc565b82525050565b5f6020820190506116e75f8301846116c5565b92915050565b6116f6816116bc565b8114611700575f80fd5b50565b5f81359050611711816116ed565b92915050565b5f6020828403121561172c5761172b611557565b5b5f61173984828501611703565b91505092915050565b5f73ffffffffffffffffffffffffffffffffffffffff82169050919050565b5f61176b82611742565b9050919050565b61177b81611761565b82525050565b5f6020820190506117945f830184611772565b92915050565b6117a381611761565b81146117ad575f80fd5b50565b5f813590506117be8161179a565b92915050565b5f602082840312156117d9576117d8611557565b5b5f6117e6848285016117b0565b91505092915050565b5f80fd5b5f80fd5b5f80fd5b5f8083601f8401126118105761180f6117ef565b5b8235905067ffffffffffffffff81111561182d5761182c6117f3565b5b602083019150836001820283011115611849576118486117f7565b5b9250929050565b5f805f806060858703121561186857611867611557565b5b5f611875878288016117b0565b945050602061188687828801611703565b935050604085013567ffffffffffffffff8111156118a7576118a661155b565b5b6118b3878288016117fb565b925092505092959194509250565b7f4e487b71000000000000000000000000000000000000000000000000000000005f52602260045260245ffd5b5f600282049050600182168061190557607f821691505b602082108103611918576119176118c1565b5b50919050565b7f4552433732313a206f776e657220717565727920666f72206e6f6e65786973745f8201527f656e7420746f6b656e0000000000000000000000000000000000000000000000602082015250565b5f61197860298361161c565b91506119838261191e565b604082019050919050565b5f6020820190508181035f8301526119a58161196c565b9050919050565b7f4552433732313a2062616c616e636520717565727920666f7220746865207a655f8201527f726f206164647265737300000000000000000000000000000000000000000000602082015250565b5f611a06602a8361161c565b9150611a11826119ac565b604082019050919050565b5f6020820190508181035f830152611a33816119fa565b9050919050565b7f4f776e61626c653a2063616c6c6572206973206e6f7420746865206f776e65725f82015250565b5f611a6e60208361161c565b9150611a7982611a3a565b602082019050919050565b5f6020820190508181035f830152611a9b81611a62565b9050919050565b7f4f776e61626c653a206e6577206f776e657220697320746865207a65726f20615f8201527f6464726573730000000000000000000000000000000000000000000000000000602082015250565b5f611afc60268361161c565b9150611b0782611aa2565b604082019050919050565b5f6020820190508181035f830152611b2981611af0565b9050919050565b7f45524337323155524953746f726167653a2055524920717565727920666f72205f8201527f6e6f6e6578697374656e7420746f6b656e000000000000000000000000000000602082015250565b5f611b8a60318361161c565b9150611b9582611b30565b604082019050919050565b5f6020820190508181035f830152611bb781611b7e565b9050919050565b5f81905092915050565b5f611bd282611612565b611bdc8185611bbe565b9350611bec81856020860161162c565b80840191505092915050565b5f611c038285611bc8565b9150611c0f8284611bc8565b91508190509392505050565b7f45524337323155524953746f726167653a2055524920736574206f66206e6f6e5f8201527f6578697374656e7420746f6b656e000000000000000000000000000000000000602082015250565b5f611c75602e8361161c565b9150611c8082611c1b565b604082019050919050565b5f6020820190508181035f830152611ca281611c69565b9050919050565b7f4e487b71000000000000000000000000000000000000000000000000000000005f52604160045260245ffd5b5f819050815f5260205f209050919050565b5f6020601f8301049050919050565b5f82821b905092915050565b5f60088302611d327fffffffffffffffffffffffffffffffffffffffffffffffffffffffffffffffff82611cf7565b611d3c8683611cf7565b95508019841693508086168417925050509392505050565b5f819050919050565b5f611d77611d72611d6d846116bc565b611d54565b6116bc565b9050919050565b5f819050919050565b611d9083611d5d565b611da4611d9c82611d7e565b848454611d03565b825550505050565b5f90565b611db8611dac565b611dc3818484611d87565b505050565b5b81811015611de657611ddb5f82611db0565b600181019050611dc9565b5050565b601f821115611e2b57611dfc81611cd6565b611e0584611ce8565b81016020851015611e14578190505b611e28611e2085611ce8565b830182611dc8565b50505b505050565b5f82821c905092915050565b5f611e4b5f1984600802611e30565b1980831691505092915050565b5f611e638383611e3c565b9150826002028217905092915050565b611e7c82611612565b67ffffffffffffffff811115611e9557611e94611ca9565b5b611e9f82546118ee565b611eaa828285611dea565b5f60209050601f831160018114611edb575f8415611ec9578287015190505b611ed38582611e58565b865550611f3a565b601f198416611ee986611cd6565b5f5b82811015611f1057848901518255600182019150602085019450602081019050611eeb565b86831015611f2d5784890151611f29601f891682611e3c565b8355505b6001600288020188555050505b505050505050565b7f4552433732314d657461646174613a2055524920717565727920666f72206e6f5f8201527f6e6578697374656e7420746f6b656e0000000000000000000000000000000000602082015250565b5f611f9c602f8361161c565b9150611fa782611f42565b604082019050919050565b5f6020820190508181035f830152611fc981611f90565b9050919050565b7f4552433732313a207472616e7366657220746f206e6f6e2045524337323152655f8201527f63656976657220696d706c656d656e7465720000000000000000000000000000602082015250565b5f61202a60328361161c565b915061203582611fd0565b604082019050919050565b5f6020820190508181035f8301526120578161201e565b9050919050565b7f4e487b71000000000000000000000000000000000000000000000000000000005f52601160045260245ffd5b5f612095826116bc565b91507fffffffffffffffffffffffffffffffffffffffffffffffffffffffffffffffff82036120c7576120c661205e565b5b600182019050919050565b7f4e487b71000000000000000000000000000000000000000000000000000000005f52601260045260245ffd5b5f612109826116bc565b9150612114836116bc565b925082612124576121236120d2565b5b828204905092915050565b5f612139826116bc565b9150612144836116bc565b925082820390508181111561215c5761215b61205e565b5b92915050565b5f61216c826116bc565b9150612177836116bc565b925082612187576121866120d2565b5b828206905092915050565b5f61219c826116bc565b91506121a7836116bc565b92508282019050808211156121bf576121be61205e565b5b92915050565b7f4e487b71000000000000000000000000000000000000000000000000000000005f52603260045260245ffd5b7f4552433732313a206d696e7420746f20746865207a65726f20616464726573735f82015250565b5f61222660208361161c565b9150612231826121f2565b602082019050919050565b5f6020820190508181035f8301526122538161221a565b9050919050565b7f4552433732313a20746f6b656e20616c7265616479206d696e746564000000005f82015250565b5f61228e601c8361161c565b91506122998261225a565b602082019050919050565b5f6020820190508181035f8301526122bb81612282565b9050919050565b5f81519050919050565b5f82825260208201905092915050565b5f6122e6826122c2565b6122f081856122cc565b935061230081856020860161162c565b61230981611654565b840191505092915050565b5f6080820190506123275f830187611772565b6123346020830186611772565b61234160408301856116c5565b818103606083015261235381846122dc565b905095945050505050565b5f8151905061236c8161158a565b92915050565b5f6020828403121561238757612386611557565b5b5f6123948482850161235e565b91505092915050565b7f4e487b71000000000000000000000000000000000000000000000000000000005f52603160045260245ffdfea264697066735822122082403b57adabb319de5d45daaf69a910afa365edaf8959e3a38981928d71e2db64736f6c63430008140033",
					"opcodes": "PUSH1 0x80 PUSH1 0x40 MSTORE CALLVALUE DUP1 ISZERO PUSH3 0x10 JUMPI PUSH0 DUP1 REVERT JUMPDEST POP PUSH1 0x40 MLOAD DUP1 PUSH1 0x40 ADD PUSH1 0x40 MSTORE DUP1 PUSH1 0x8 DUP2 MSTORE PUSH1 0x20 ADD PUSH32 0x42617365204E4654000000000000000000000000000000000000000000000000 DUP2 MSTORE POP PUSH1 0x40 MLOAD DUP1 PUSH1 0x40 ADD PUSH1 0x40 MSTORE DUP1 PUSH1 0x3 DUP2 MSTORE PUSH1 0x20 ADD PUSH32 0x424E500000000000000000000000000000000000000000000000000000000000 DUP2 MSTORE POP DUP2 PUSH0 SWAP1 DUP2 PUSH3 0x8D SWAP2 SWAP1 PUSH3 0x3F6 JUMP JUMPDEST POP DUP1 PUSH1 0x1 SWAP1 DUP2 PUSH3 0x9F SWAP2 SWAP1 PUSH3 0x3F6 JUMP JUMPDEST POP POP POP PUSH3 0xC2 PUSH3 0xB6 PUSH3 0xC8 PUSH1 0x20 SHL PUSH1 0x20 SHR JUMP JUMPDEST PUSH3 0xCF PUSH1 0x20 SHL PUSH1 0x20 SHR JUMP JUMPDEST PUSH3 0x4DA JUMP JUMPDEST PUSH0 CALLER SWAP1 POP SWAP1 JUMP JUMPDEST PUSH0 PUSH1 0xB PUSH0 SWAP1 SLOAD SWAP1 PUSH2 0x100 EXP SWAP1 DIV PUSH20 0xFFFFFFFFFFFFFFFFFFFFFFFFFFFFFFFFFFFFFFFF AND SWAP1 POP DUP2 PUSH1 0xB PUSH0 PUSH2 0x100 EXP DUP2 SLOAD DUP2 PUSH20 0xFFFFFFFFFFFFFFFFFFFFFFFFFFFFFFFFFFFFFFFF MUL NOT AND SWAP1 DUP4 PUSH20 0xFFFFFFFFFFFFFFFFFFFFFFFFFFFFFFFFFFFFFFFF AND MUL OR SWAP1 SSTORE POP DUP2 PUSH20 0xFFFFFFFFFFFFFFFFFFFFFFFFFFFFFFFFFFFFFFFF AND DUP2 PUSH20 0xFFFFFFFFFFFFFFFFFFFFFFFFFFFFFFFFFFFFFFFF AND PUSH32 0x8BE0079C531659141344CD1FD0A4F28419497F9722A3DAAFE3B4186F6B6457E0 PUSH1 0x40 MLOAD PUSH1 0x40 MLOAD DUP1 SWAP2 SUB SWAP1 LOG3 POP POP JUMP JUMPDEST PUSH0 DUP2 MLOAD SWAP1 POP SWAP2 SWAP1 POP JUMP JUMPDEST PUSH32 0x4E487B7100000000000000000000000000000000000000000000000000000000 PUSH0 MSTORE PUSH1 0x41 PUSH1 0x4 MSTORE PUSH1 0x24 PUSH0 REVERT JUMPDEST PUSH32 0x4E487B7100000000000000000000000000000000000000000000000000000000 PUSH0 MSTORE PUSH1 0x22 PUSH1 0x4 MSTORE PUSH1 0x24 PUSH0 REVERT JUMPDEST PUSH0 PUSH1 0x2 DUP3 DIV SWAP1 POP PUSH1 0x1 DUP3 AND DUP1 PUSH3 0x20E JUMPI PUSH1 0x7F DUP3 AND SWAP2 POP JUMPDEST PUSH1 0x20 DUP3 LT DUP2 SUB PUSH3 0x224 JUMPI PUSH3 0x223 PUSH3 0x1C9 JUMP JUMPDEST JUMPDEST POP SWAP2 SWAP1 POP JUMP JUMPDEST PUSH0 DUP2 SWAP1 POP DUP2 PUSH0 MSTORE PUSH1 0x20 PUSH0 KECCAK256 SWAP1 POP SWAP2 SWAP1 POP JUMP JUMPDEST PUSH0 PUSH1 0x20 PUSH1 0x1F DUP4 ADD DIV SWAP1 POP SWAP2 SWAP1 POP JUMP JUMPDEST PUSH0 DUP3 DUP3 SHL SWAP1 POP SWAP3 SWAP2 POP POP JUMP JUMPDEST PUSH0 PUSH1 0x8 DUP4 MUL PUSH3 0x288 PUSH32 0xFFFFFFFFFFFFFFFFFFFFFFFFFFFFFFFFFFFFFFFFFFFFFFFFFFFFFFFFFFFFFFFF DUP3 PUSH3 0x24B JUMP JUMPDEST PUSH3 0x294 DUP7 DUP4 PUSH3 0x24B JUMP JUMPDEST SWAP6 POP DUP1 NOT DUP5 AND SWAP4 POP DUP1 DUP7 AND DUP5 OR SWAP3 POP POP POP SWAP4 SWAP3 POP POP POP JUMP JUMPDEST PUSH0 DUP2 SWAP1 POP SWAP2 SWAP1 POP JUMP JUMPDEST PUSH0 DUP2 SWAP1 POP SWAP2 SWAP1 POP JUMP JUMPDEST PUSH0 PUSH3 0x2DE PUSH3 0x2D8 PUSH3 0x2D2 DUP5 PUSH3 0x2AC JUMP JUMPDEST PUSH3 0x2B5 JUMP JUMPDEST PUSH3 0x2AC JUMP JUMPDEST SWAP1 POP SWAP2 SWAP1 POP JUMP JUMPDEST PUSH0 DUP2 SWAP1 POP SWAP2 SWAP1 POP JUMP JUMPDEST PUSH3 0x2F9 DUP4 PUSH3 0x2BE JUMP JUMPDEST PUSH3 0x311 PUSH3 0x308 DUP3 PUSH3 0x2E5 JUMP JUMPDEST DUP5 DUP5 SLOAD PUSH3 0x257 JUMP JUMPDEST DUP3 SSTORE POP POP POP POP JUMP JUMPDEST PUSH0 SWAP1 JUMP JUMPDEST PUSH3 0x327 PUSH3 0x319 JUMP JUMPDEST PUSH3 0x334 DUP2 DUP5 DUP5 PUSH3 0x2EE JUMP JUMPDEST POP POP POP JUMP JUMPDEST JUMPDEST DUP2 DUP2 LT ISZERO PUSH3 0x35B JUMPI PUSH3 0x34F PUSH0 DUP3 PUSH3 0x31D JUMP JUMPDEST PUSH1 0x1 DUP2 ADD SWAP1 POP PUSH3 0x33A JUMP JUMPDEST POP POP JUMP JUMPDEST PUSH1 0x1F DUP3 GT ISZERO PUSH3 0x3AA JUMPI PUSH3 0x374 DUP2 PUSH3 0x22A JUMP JUMPDEST PUSH3 0x37F DUP5 PUSH3 0x23C JUMP JUMPDEST DUP2 ADD PUSH1 0x20 DUP6 LT ISZERO PUSH3 0x38F JUMPI DUP2 SWAP1 POP JUMPDEST PUSH3 0x3A7 PUSH3 0x39E DUP6 PUSH3 0x23C JUMP JUMPDEST DUP4 ADD DUP3 PUSH3 0x339 JUMP JUMPDEST POP POP JUMPDEST POP POP POP JUMP JUMPDEST PUSH0 DUP3 DUP3 SHR SWAP1 POP SWAP3 SWAP2 POP POP JUMP JUMPDEST PUSH0 PUSH3 0x3CC PUSH0 NOT DUP5 PUSH1 0x8 MUL PUSH3 0x3AF JUMP JUMPDEST NOT DUP1 DUP4 AND SWAP2 POP POP SWAP3 SWAP2 POP POP JUMP JUMPDEST PUSH0 PUSH3 0x3E6 DUP4 DUP4 PUSH3 0x3BB JUMP JUMPDEST SWAP2 POP DUP3 PUSH1 0x2 MUL DUP3 OR SWAP1 POP SWAP3 SWAP2 POP POP JUMP JUMPDEST PUSH3 0x401 DUP3 PUSH3 0x192 JUMP JUMPDEST PUSH8 0xFFFFFFFFFFFFFFFF DUP2 GT ISZERO PUSH3 0x41D JUMPI PUSH3 0x41C PUSH3 0x19C JUMP JUMPDEST JUMPDEST PUSH3 0x429 DUP3 SLOAD PUSH3 0x1F6 JUMP JUMPDEST PUSH3 0x436 DUP3 DUP3 DUP6 PUSH3 0x35F JUMP JUMPDEST PUSH0 PUSH1 0x20 SWAP1 POP PUSH1 0x1F DUP4 GT PUSH1 0x1 DUP2 EQ PUSH3 0x46C JUMPI PUSH0 DUP5 ISZERO PUSH3 0x457 JUMPI DUP3 DUP8 ADD MLOAD SWAP1 POP JUMPDEST PUSH3 0x463 DUP6 DUP3 PUSH3 0x3D9 JUMP JUMPDEST DUP7 SSTORE POP PUSH3 0x4D2 JUMP JUMPDEST PUSH1 0x1F NOT DUP5 AND PUSH3 0x47C DUP7 PUSH3 0x22A JUMP JUMPDEST PUSH0 JUMPDEST DUP3 DUP2 LT ISZERO PUSH3 0x4A5 JUMPI DUP5 DUP10 ADD MLOAD DUP3 SSTORE PUSH1 0x1 DUP3 ADD SWAP2 POP PUSH1 0x20 DUP6 ADD SWAP5 POP PUSH1 0x20 DUP2 ADD SWAP1 POP PUSH3 0x47E JUMP JUMPDEST DUP7 DUP4 LT ISZERO PUSH3 0x4C5 JUMPI DUP5 DUP10 ADD MLOAD PUSH3 0x4C1 PUSH1 0x1F DUP10 AND DUP3 PUSH3 0x3BB JUMP JUMPDEST DUP4 SSTORE POP JUMPDEST PUSH1 0x1 PUSH1 0x2 DUP9 MUL ADD DUP9 SSTORE POP POP POP JUMPDEST POP POP POP POP POP POP JUMP JUMPDEST PUSH2 0x2400 DUP1 PUSH3 0x4E8 PUSH0 CODECOPY PUSH0 RETURN INVALID PUSH1 0x80 PUSH1 0x40 MSTORE CALLVALUE DUP1 ISZERO PUSH2 0xF JUMPI PUSH0 DUP1 REVERT JUMPDEST POP PUSH1 0x4 CALLDATASIZE LT PUSH2 0x9C JUMPI PUSH0 CALLDATALOAD PUSH1 0xE0 SHR DUP1 PUSH4 0x8DA5CB5B GT PUSH2 0x64 JUMPI DUP1 PUSH4 0x8DA5CB5B EQ PUSH2 0x16C JUMPI DUP1 PUSH4 0x95D89B41 EQ PUSH2 0x18A JUMPI DUP1 PUSH4 0xC87B56DD EQ PUSH2 0x1A8 JUMPI DUP1 PUSH4 0xD3FC9864 EQ PUSH2 0x1D8 JUMPI DUP1 PUSH4 0xF2FDE38B EQ PUSH2 0x1F4 JUMPI PUSH2 0x9C JUMP JUMPDEST DUP1 PUSH4 0x1FFC9A7 EQ PUSH2 0xA0 JUMPI DUP1 PUSH4 0x6FDDE03 EQ PUSH2 0xD0 JUMPI DUP1 PUSH4 0x18160DDD EQ PUSH2 0xEE JUMPI DUP1 PUSH4 0x6352211E EQ PUSH2 0x10C JUMPI DUP1 PUSH4 0x70A08231 EQ PUSH2 0x13C JUMPI JUMPDEST PUSH0 DUP1 REVERT JUMPDEST PUSH2 0xBA PUSH1 0x4 DUP1 CALLDATASIZE SUB DUP2 ADD SWAP1 PUSH2 0xB5 SWAP2 SWAP1 PUSH2 0x15B4 JUMP JUMPDEST PUSH2 0x210 JUMP JUMPDEST PUSH1 0x40 MLOAD PUSH2 0xC7 SWAP2 SWAP1 PUSH2 0x15F9 JUMP JUMPDEST PUSH1 0x40 MLOAD DUP1 SWAP2 SUB SWAP1 RETURN JUMPDEST PUSH2 0xD8 PUSH2 0x221 JUMP JUMPDEST PUSH1 0x40 MLOAD PUSH2 0xE5 SWAP2 SWAP1 PUSH2 0x169C JUMP JUMPDEST PUSH1 0x40 MLOAD DUP1 SWAP2 SUB SWAP1 RETURN JUMPDEST PUSH2 0xF6 PUSH2 0x2B0 JUMP JUMPDEST PUSH1 0x40 MLOAD PUSH2 0x103 SWAP2 SWAP1 PUSH2 0x16D4 JUMP JUMPDEST PUSH1 0x40 MLOAD DUP1 SWAP2 SUB SWAP1 RETURN JUMPDEST PUSH2 0x126 PUSH1 0x4 DUP1 CALLDATASIZE SUB DUP2 ADD SWAP1 PUSH2 0x121 SWAP2 SWAP1 PUSH2 0x1717 JUMP JUMPDEST PUSH2 0x2BC JUMP JUMPDEST PUSH1 0x40 MLOAD PUSH2 0x133 SWAP2 SWAP1 PUSH2 0x1781 JUMP JUMPDEST PUSH1 0x40 MLOAD DUP1 SWAP2 SUB SWAP1 RETURN JUMPDEST PUSH2 0x156 PUSH1 0x4 DUP1 CALLDATASIZE SUB DUP2 ADD SWAP1 PUSH2 0x151 SWAP2 SWAP1 PUSH2 0x17C4 JUMP JUMPDEST PUSH2 0x368 JUMP JUMPDEST PUSH1 0x40 MLOAD PUSH2 0x163 SWAP2 SWAP1 PUSH2 0x16D4 JUMP JUMPDEST PUSH1 0x40 MLOAD DUP1 SWAP2 SUB SWAP1 RETURN JUMPDEST PUSH2 0x174 PUSH2 0x41C JUMP JUMPDEST PUSH1 0x40 MLOAD PUSH2 0x181 SWAP2 SWAP1 PUSH2 0x1781 JUMP JUMPDEST PUSH1 0x40 MLOAD DUP1 SWAP2 SUB SWAP1 RETURN JUMPDEST PUSH2 0x192 PUSH2 0x444 JUMP JUMPDEST PUSH1 0x40 MLOAD PUSH2 0x19F SWAP2 SWAP1 PUSH2 0x169C JUMP JUMPDEST PUSH1 0x40 MLOAD DUP1 SWAP2 SUB SWAP1 RETURN JUMPDEST PUSH2 0x1C2 PUSH1 0x4 DUP1 CALLDATASIZE SUB DUP2 ADD SWAP1 PUSH2 0x1BD SWAP2 SWAP1 PUSH2 0x1717 JUMP JUMPDEST PUSH2 0x4D4 JUMP JUMPDEST PUSH1 0x40 MLOAD PUSH2 0x1CF SWAP2 SWAP1 PUSH2 0x169C JUMP JUMPDEST PUSH1 0x40 MLOAD DUP1 SWAP2 SUB SWAP1 RETURN JUMPDEST PUSH2 0x1F2 PUSH1 0x4 DUP1 CALLDATASIZE SUB DUP2 ADD SWAP1 PUSH2 0x1ED SWAP2 SWAP1 PUSH2 0x1850 JUMP JUMPDEST PUSH2 0x4E6 JUMP JUMPDEST STOP JUMPDEST PUSH2 0x20E PUSH1 0x4 DUP1 CALLDATASIZE SUB DUP2 ADD SWAP1 PUSH2 0x209 SWAP2 SWAP1 PUSH2 0x17C4 JUMP JUMPDEST PUSH2 0x5BF JUMP JUMPDEST STOP JUMPDEST PUSH0 PUSH2 0x21A DUP3 PUSH2 0x6B5 JUMP JUMPDEST SWAP1 POP SWAP2 SWAP1 POP JUMP JUMPDEST PUSH1 0x60 PUSH0 DUP1 SLOAD PUSH2 0x22F SWAP1 PUSH2 0x18EE JUMP JUMPDEST DUP1 PUSH1 0x1F ADD PUSH1 0x20 DUP1 SWAP2 DIV MUL PUSH1 0x20 ADD PUSH1 0x40 MLOAD SWAP1 DUP2 ADD PUSH1 0x40 MSTORE DUP1 SWAP3 SWAP2 SWAP1 DUP2 DUP2 MSTORE PUSH1 0x20 ADD DUP3 DUP1 SLOAD PUSH2 0x25B SWAP1 PUSH2 0x18EE JUMP JUMPDEST DUP1 ISZERO PUSH2 0x2A6 JUMPI DUP1 PUSH1 0x1F LT PUSH2 0x27D JUMPI PUSH2 0x100 DUP1 DUP4 SLOAD DIV MUL DUP4 MSTORE SWAP2 PUSH1 0x20 ADD SWAP2 PUSH2 0x2A6 JUMP JUMPDEST DUP3 ADD SWAP2 SWAP1 PUSH0 MSTORE PUSH1 0x20 PUSH0 KECCAK256 SWAP1 JUMPDEST DUP2 SLOAD DUP2 MSTORE SWAP1 PUSH1 0x1 ADD SWAP1 PUSH1 0x20 ADD DUP1 DUP4 GT PUSH2 0x289 JUMPI DUP3 SWAP1 SUB PUSH1 0x1F AND DUP3 ADD SWAP2 JUMPDEST POP POP POP POP POP SWAP1 POP SWAP1 JUMP JUMPDEST PUSH0 PUSH1 0x8 DUP1 SLOAD SWAP1 POP SWAP1 POP SWAP1 JUMP JUMPDEST PUSH0 DUP1 PUSH1 0x2 PUSH0 DUP5 DUP2 MSTORE PUSH1 0x20 ADD SWAP1 DUP2 MSTORE PUSH1 0x20 ADD PUSH0 KECCAK256 PUSH0 SWAP1 SLOAD SWAP1 PUSH2 0x100 EXP SWAP1 DIV PUSH20 0xFFFFFFFFFFFFFFFFFFFFFFFFFFFFFFFFFFFFFFFF AND SWAP1 POP PUSH0 PUSH20 0xFFFFFFFFFFFFFFFFFFFFFFFFFFFFFFFFFFFFFFFF AND DUP2 PUSH20 0xFFFFFFFFFFFFFFFFFFFFFFFFFFFFFFFFFFFFFFFF AND SUB PUSH2 0x35F JUMPI PUSH1 0x40 MLOAD PUSH32 0x8C379A000000000000000000000000000000000000000000000000000000000 DUP2 MSTORE PUSH1 0x4 ADD PUSH2 0x356 SWAP1 PUSH2 0x198E JUMP JUMPDEST PUSH1 0x40 MLOAD DUP1 SWAP2 SUB SWAP1 REVERT JUMPDEST DUP1 SWAP2 POP POP SWAP2 SWAP1 POP JUMP JUMPDEST PUSH0 DUP1 PUSH20 0xFFFFFFFFFFFFFFFFFFFFFFFFFFFFFFFFFFFFFFFF AND DUP3 PUSH20 0xFFFFFFFFFFFFFFFFFFFFFFFFFFFFFFFFFFFFFFFF AND SUB PUSH2 0x3D7 JUMPI PUSH1 0x40 MLOAD PUSH32 0x8C379A000000000000000000000000000000000000000000000000000000000 DUP2 MSTORE PUSH1 0x4 ADD PUSH2 0x3CE SWAP1 PUSH2 0x1A1C JUMP JUMPDEST PUSH1 0x40 MLOAD DUP1 SWAP2 SUB SWAP1 REVERT JUMPDEST PUSH1 0x3 PUSH0 DUP4 PUSH20 0xFFFFFFFFFFFFFFFFFFFFFFFFFFFFFFFFFFFFFFFF AND PUSH20 0xFFFFFFFFFFFFFFFFFFFFFFFFFFFFFFFFFFFFFFFF AND DUP2 MSTORE PUSH1 0x20 ADD SWAP1 DUP2 MSTORE PUSH1 0x20 ADD PUSH0 KECCAK256 SLOAD SWAP1 POP SWAP2 SWAP1 POP JUMP JUMPDEST PUSH0 PUSH1 0xB PUSH0 SWAP1 SLOAD SWAP1 PUSH2 0x100 EXP SWAP1 DIV PUSH20 0xFFFFFFFFFFFFFFFFFFFFFFFFFFFFFFFFFFFFFFFF AND SWAP1 POP SWAP1 JUMP JUMPDEST PUSH1 0x60 PUSH1 0x1 DUP1 SLOAD PUSH2 0x453 SWAP1 PUSH2 0x18EE JUMP JUMPDEST DUP1 PUSH1 0x1F ADD PUSH1 0x20 DUP1 SWAP2 DIV MUL PUSH1 0x20 ADD PUSH1 0x40 MLOAD SWAP1 DUP2 ADD PUSH1 0x40 MSTORE DUP1 SWAP3 SWAP2 SWAP1 DUP2 DUP2 MSTORE PUSH1 0x20 ADD DUP3 DUP1 SLOAD PUSH2 0x47F SWAP1 PUSH2 0x18EE JUMP JUMPDEST DUP1 ISZERO PUSH2 0x4CA JUMPI DUP1 PUSH1 0x1F LT PUSH2 0x4A1 JUMPI PUSH2 0x100 DUP1 DUP4 SLOAD DIV MUL DUP4 MSTORE SWAP2 PUSH1 0x20 ADD SWAP2 PUSH2 0x4CA JUMP JUMPDEST DUP3 ADD SWAP2 SWAP1 PUSH0 MSTORE PUSH1 0x20 PUSH0 KECCAK256 SWAP1 JUMPDEST DUP2 SLOAD DUP2 MSTORE SWAP1 PUSH1 0x1 ADD SWAP1 PUSH1 0x20 ADD DUP1 DUP4 GT PUSH2 0x4AD JUMPI DUP3 SWAP1 SUB PUSH1 0x1F AND DUP3 ADD SWAP2 JUMPDEST POP POP POP POP POP SWAP1 POP SWAP1 JUMP JUMPDEST PUSH1 0x60 PUSH2 0x4DF DUP3 PUSH2 0x72E JUMP JUMPDEST SWAP1 POP SWAP2 SWAP1 POP JUMP JUMPDEST PUSH2 0x4EE PUSH2 0x877 JUMP JUMPDEST PUSH20 0xFFFFFFFFFFFFFFFFFFFFFFFFFFFFFFFFFFFFFFFF AND PUSH2 0x50C PUSH2 0x41C JUMP JUMPDEST PUSH20 0xFFFFFFFFFFFFFFFFFFFFFFFFFFFFFFFFFFFFFFFF AND EQ PUSH2 0x562 JUMPI PUSH1 0x40 MLOAD PUSH32 0x8C379A000000000000000000000000000000000000000000000000000000000 DUP2 MSTORE PUSH1 0x4 ADD PUSH2 0x559 SWAP1 PUSH2 0x1A84 JUMP JUMPDEST PUSH1 0x40 MLOAD DUP1 SWAP2 SUB SWAP1 REVERT JUMPDEST PUSH2 0x56C DUP5 DUP5 PUSH2 0x87E JUMP JUMPDEST PUSH2 0x5B9 DUP4 DUP4 DUP4 DUP1 DUP1 PUSH1 0x1F ADD PUSH1 0x20 DUP1 SWAP2 DIV MUL PUSH1 0x20 ADD PUSH1 0x40 MLOAD SWAP1 DUP2 ADD PUSH1 0x40 MSTORE DUP1 SWAP4 SWAP3 SWAP2 SWAP1 DUP2 DUP2 MSTORE PUSH1 0x20 ADD DUP4 DUP4 DUP1 DUP3 DUP5 CALLDATACOPY PUSH0 DUP2 DUP5 ADD MSTORE PUSH1 0x1F NOT PUSH1 0x1F DUP3 ADD AND SWAP1 POP DUP1 DUP4 ADD SWAP3 POP POP POP POP POP POP POP PUSH2 0x89B JUMP JUMPDEST POP POP POP POP JUMP JUMPDEST PUSH2 0x5C7 PUSH2 0x877 JUMP JUMPDEST PUSH20 0xFFFFFFFFFFFFFFFFFFFFFFFFFFFFFFFFFFFFFFFF AND PUSH2 0x5E5 PUSH2 0x41C JUMP JUMPDEST PUSH20 0xFFFFFFFFFFFFFFFFFFFFFFFFFFFFFFFFFFFFFFFF AND EQ PUSH2 0x63B JUMPI PUSH1 0x40 MLOAD PUSH32 0x8C379A000000000000000000000000000000000000000000000000000000000 DUP2 MSTORE PUSH1 0x4 ADD PUSH2 0x632 SWAP1 PUSH2 0x1A84 JUMP JUMPDEST PUSH1 0x40 MLOAD DUP1 SWAP2 SUB SWAP1 REVERT JUMPDEST PUSH0 PUSH20 0xFFFFFFFFFFFFFFFFFFFFFFFFFFFFFFFFFFFFFFFF AND DUP2 PUSH20 0xFFFFFFFFFFFFFFFFFFFFFFFFFFFFFFFFFFFFFFFF AND SUB PUSH2 0x6A9 JUMPI PUSH1 0x40 MLOAD PUSH32 0x8C379A000000000000000000000000000000000000000000000000000000000 DUP2 MSTORE PUSH1 0x4 ADD PUSH2 0x6A0 SWAP1 PUSH2 0x1B12 JUMP JUMPDEST PUSH1 0x40 MLOAD DUP1 SWAP2 SUB SWAP1 REVERT JUMPDEST PUSH2 0x6B2 DUP2 PUSH2 0x906 JUMP JUMPDEST POP JUMP JUMPDEST PUSH0 PUSH32 0x18160DDD00000000000000000000000000000000000000000000000000000000 PUSH28 0xFFFFFFFFFFFFFFFFFFFFFFFFFFFFFFFFFFFFFFFFFFFFFFFFFFFFFFFF NOT AND DUP3 PUSH28 0xFFFFFFFFFFFFFFFFFFFFFFFFFFFFFFFFFFFFFFFFFFFFFFFFFFFFFFFF NOT AND EQ DUP1 PUSH2 0x727 JUMPI POP PUSH2 0x726 DUP3 PUSH2 0x9C9 JUMP JUMPDEST JUMPDEST SWAP1 POP SWAP2 SWAP1 POP JUMP JUMPDEST PUSH1 0x60 PUSH2 0x739 DUP3 PUSH2 0xAAA JUMP JUMPDEST PUSH2 0x778 JUMPI PUSH1 0x40 MLOAD PUSH32 0x8C379A000000000000000000000000000000000000000000000000000000000 DUP2 MSTORE PUSH1 0x4 ADD PUSH2 0x76F SWAP1 PUSH2 0x1BA0 JUMP JUMPDEST PUSH1 0x40 MLOAD DUP1 SWAP2 SUB SWAP1 REVERT JUMPDEST PUSH0 PUSH1 0xA PUSH0 DUP5 DUP2 MSTORE PUSH1 0x20 ADD SWAP1 DUP2 MSTORE PUSH1 0x20 ADD PUSH0 KECCAK256 DUP1 SLOAD PUSH2 0x795 SWAP1 PUSH2 0x18EE JUMP JUMPDEST DUP1 PUSH1 0x1F ADD PUSH1 0x20 DUP1 SWAP2 DIV MUL PUSH1 0x20 ADD PUSH1 0x40 MLOAD SWAP1 DUP2 ADD PUSH1 0x40 MSTORE DUP1 SWAP3 SWAP2 SWAP1 DUP2 DUP2 MSTORE PUSH1 0x20 ADD DUP3 DUP1 SLOAD PUSH2 0x7C1 SWAP1 PUSH2 0x18EE JUMP JUMPDEST DUP1 ISZERO PUSH2 0x80C JUMPI DUP1 PUSH1 0x1F LT PUSH2 0x7E3 JUMPI PUSH2 0x100 DUP1 DUP4 SLOAD DIV MUL DUP4 MSTORE SWAP2 PUSH1 0x20 ADD SWAP2 PUSH2 0x80C JUMP JUMPDEST DUP3 ADD SWAP2 SWAP1 PUSH0 MSTORE PUSH1 0x20 PUSH0 KECCAK256 SWAP1 JUMPDEST DUP2 SLOAD DUP2 MSTORE SWAP1 PUSH1 0x1 ADD SWAP1 PUSH1 0x20 ADD DUP1 DUP4 GT PUSH2 0x7EF JUMPI DUP3 SWAP1 SUB PUSH1 0x1F AND DUP3 ADD SWAP2 JUMPDEST POP POP POP POP POP SWAP1 POP PUSH0 PUSH2 0x81C PUSH2 0xB12 JUMP JUMPDEST SWAP1 POP PUSH0 DUP2 MLOAD SUB PUSH2 0x830 JUMPI DUP2 SWAP3 POP POP POP PUSH2 0x872 JUMP JUMPDEST PUSH0 DUP3 MLOAD GT ISZERO PUSH2 0x864 JUMPI DUP1 DUP3 PUSH1 0x40 MLOAD PUSH1 0x20 ADD PUSH2 0x84C SWAP3 SWAP2 SWAP1 PUSH2 0x1BF8 JUMP JUMPDEST PUSH1 0x40 MLOAD PUSH1 0x20 DUP2 DUP4 SUB SUB DUP2 MSTORE SWAP1 PUSH1 0x40 MSTORE SWAP3 POP POP POP PUSH2 0x872 JUMP JUMPDEST PUSH2 0x86D DUP5 PUSH2 0xB28 JUMP JUMPDEST SWAP3 POP POP POP JUMPDEST SWAP2 SWAP1 POP JUMP JUMPDEST PUSH0 CALLER SWAP1 POP SWAP1 JUMP JUMPDEST PUSH2 0x897 DUP3 DUP3 PUSH1 0x40 MLOAD DUP1 PUSH1 0x20 ADD PUSH1 0x40 MSTORE DUP1 PUSH0 DUP2 MSTORE POP PUSH2 0xBCC JUMP JUMPDEST POP POP JUMP JUMPDEST PUSH2 0x8A4 DUP3 PUSH2 0xAAA JUMP JUMPDEST PUSH2 0x8E3 JUMPI PUSH1 0x40 MLOAD PUSH32 0x8C379A000000000000000000000000000000000000000000000000000000000 DUP2 MSTORE PUSH1 0x4 ADD PUSH2 0x8DA SWAP1 PUSH2 0x1C8B JUMP JUMPDEST PUSH1 0x40 MLOAD DUP1 SWAP2 SUB SWAP1 REVERT JUMPDEST DUP1 PUSH1 0xA PUSH0 DUP5 DUP2 MSTORE PUSH1 0x20 ADD SWAP1 DUP2 MSTORE PUSH1 0x20 ADD PUSH0 KECCAK256 SWAP1 DUP2 PUSH2 0x901 SWAP2 SWAP1 PUSH2 0x1E73 JUMP JUMPDEST POP POP POP JUMP JUMPDEST PUSH0 PUSH1 0xB PUSH0 SWAP1 SLOAD SWAP1 PUSH2 0x100 EXP SWAP1 DIV PUSH20 0xFFFFFFFFFFFFFFFFFFFFFFFFFFFFFFFFFFFFFFFF AND SWAP1 POP DUP2 PUSH1 0xB PUSH0 PUSH2 0x100 EXP DUP2 SLOAD DUP2 PUSH20 0xFFFFFFFFFFFFFFFFFFFFFFFFFFFFFFFFFFFFFFFF MUL NOT AND SWAP1 DUP4 PUSH20 0xFFFFFFFFFFFFFFFFFFFFFFFFFFFFFFFFFFFFFFFF AND MUL OR SWAP1 SSTORE POP DUP2 PUSH20 0xFFFFFFFFFFFFFFFFFFFFFFFFFFFFFFFFFFFFFFFF AND DUP2 PUSH20 0xFFFFFFFFFFFFFFFFFFFFFFFFFFFFFFFFFFFFFFFF AND PUSH32 0x8BE0079C531659141344CD1FD0A4F28419497F9722A3DAAFE3B4186F6B6457E0 PUSH1 0x40 MLOAD PUSH1 0x40 MLOAD DUP1 SWAP2 SUB SWAP1 LOG3 POP POP JUMP JUMPDEST PUSH0 PUSH32 0x13F2A32F00000000000000000000000000000000000000000000000000000000 PUSH28 0xFFFFFFFFFFFFFFFFFFFFFFFFFFFFFFFFFFFFFFFFFFFFFFFFFFFFFFFF NOT AND DUP3 PUSH28 0xFFFFFFFFFFFFFFFFFFFFFFFFFFFFFFFFFFFFFFFFFFFFFFFFFFFFFFFF NOT AND EQ DUP1 PUSH2 0xA93 JUMPI POP PUSH32 0x5B5E139F00000000000000000000000000000000000000000000000000000000 PUSH28 0xFFFFFFFFFFFFFFFFFFFFFFFFFFFFFFFFFFFFFFFFFFFFFFFFFFFFFFFF NOT AND DUP3 PUSH28 0xFFFFFFFFFFFFFFFFFFFFFFFFFFFFFFFFFFFFFFFFFFFFFFFFFFFFFFFF NOT AND EQ JUMPDEST DUP1 PUSH2 0xAA3 JUMPI POP PUSH2 0xAA2 DUP3 PUSH2 0xC26 JUMP JUMPDEST JUMPDEST SWAP1 POP SWAP2 SWAP1 POP JUMP JUMPDEST PUSH0 DUP1 PUSH20 0xFFFFFFFFFFFFFFFFFFFFFFFFFFFFFFFFFFFFFFFF AND PUSH1 0x2 PUSH0 DUP5 DUP2 MSTORE PUSH1 0x20 ADD SWAP1 DUP2 MSTORE PUSH1 0x20 ADD PUSH0 KECCAK256 PUSH0 SWAP1 SLOAD SWAP1 PUSH2 0x100 EXP SWAP1 DIV PUSH20 0xFFFFFFFFFFFFFFFFFFFFFFFFFFFFFFFFFFFFFFFF AND PUSH20 0xFFFFFFFFFFFFFFFFFFFFFFFFFFFFFFFFFFFFFFFF AND EQ ISZERO SWAP1 POP SWAP2 SWAP1 POP JUMP JUMPDEST PUSH1 0x60 PUSH1 0x40 MLOAD DUP1 PUSH1 0x20 ADD PUSH1 0x40 MSTORE DUP1 PUSH0 DUP2 MSTORE POP SWAP1 POP SWAP1 JUMP JUMPDEST PUSH1 0x60 PUSH2 0xB33 DUP3 PUSH2 0xAAA JUMP JUMPDEST PUSH2 0xB72 JUMPI PUSH1 0x40 MLOAD PUSH32 0x8C379A000000000000000000000000000000000000000000000000000000000 DUP2 MSTORE PUSH1 0x4 ADD PUSH2 0xB69 SWAP1 PUSH2 0x1FB2 JUMP JUMPDEST PUSH1 0x40 MLOAD DUP1 SWAP2 SUB SWAP1 REVERT JUMPDEST PUSH0 PUSH2 0xB7B PUSH2 0xB12 JUMP JUMPDEST SWAP1 POP PUSH0 DUP2 MLOAD GT PUSH2 0xB99 JUMPI PUSH1 0x40 MLOAD DUP1 PUSH1 0x20 ADD PUSH1 0x40 MSTORE DUP1 PUSH0 DUP2 MSTORE POP PUSH2 0xBC4 JUMP JUMPDEST DUP1 PUSH2 0xBA3 DUP5 PUSH2 0xC8F JUMP JUMPDEST PUSH1 0x40 MLOAD PUSH1 0x20 ADD PUSH2 0xBB4 SWAP3 SWAP2 SWAP1 PUSH2 0x1BF8 JUMP JUMPDEST PUSH1 0x40 MLOAD PUSH1 0x20 DUP2 DUP4 SUB SUB DUP2 MSTORE SWAP1 PUSH1 0x40 MSTORE JUMPDEST SWAP2 POP POP SWAP2 SWAP1 POP JUMP JUMPDEST PUSH2 0xBD6 DUP4 DUP4 PUSH2 0xDE8 JUMP JUMPDEST PUSH2 0xBE2 PUSH0 DUP5 DUP5 DUP5 PUSH2 0xFB7 JUMP JUMPDEST PUSH2 0xC21 JUMPI PUSH1 0x40 MLOAD PUSH32 0x8C379A000000000000000000000000000000000000000000000000000000000 DUP2 MSTORE PUSH1 0x4 ADD PUSH2 0xC18 SWAP1 PUSH2 0x2040 JUMP JUMPDEST PUSH1 0x40 MLOAD DUP1 SWAP2 SUB SWAP1 REVERT JUMPDEST POP POP POP JUMP JUMPDEST PUSH0 PUSH32 0x1FFC9A700000000000000000000000000000000000000000000000000000000 PUSH28 0xFFFFFFFFFFFFFFFFFFFFFFFFFFFFFFFFFFFFFFFFFFFFFFFFFFFFFFFF NOT AND DUP3 PUSH28 0xFFFFFFFFFFFFFFFFFFFFFFFFFFFFFFFFFFFFFFFFFFFFFFFFFFFFFFFF NOT AND EQ SWAP1 POP SWAP2 SWAP1 POP JUMP JUMPDEST PUSH1 0x60 PUSH0 DUP3 SUB PUSH2 0xCD5 JUMPI PUSH1 0x40 MLOAD DUP1 PUSH1 0x40 ADD PUSH1 0x40 MSTORE DUP1 PUSH1 0x1 DUP2 MSTORE PUSH1 0x20 ADD PUSH32 0x3000000000000000000000000000000000000000000000000000000000000000 DUP2 MSTORE POP SWAP1 POP PUSH2 0xDE3 JUMP JUMPDEST PUSH0 DUP3 SWAP1 POP PUSH0 JUMPDEST PUSH0 DUP3 EQ PUSH2 0xD04 JUMPI DUP1 DUP1 PUSH2 0xCED SWAP1 PUSH2 0x208B JUMP JUMPDEST SWAP2 POP POP PUSH1 0xA DUP3 PUSH2 0xCFD SWAP2 SWAP1 PUSH2 0x20FF JUMP JUMPDEST SWAP2 POP PUSH2 0xCDB JUMP JUMPDEST PUSH0 DUP2 PUSH8 0xFFFFFFFFFFFFFFFF DUP2 GT ISZERO PUSH2 0xD1F JUMPI PUSH2 0xD1E PUSH2 0x1CA9 JUMP JUMPDEST JUMPDEST PUSH1 0x40 MLOAD SWAP1 DUP1 DUP3 MSTORE DUP1 PUSH1 0x1F ADD PUSH1 0x1F NOT AND PUSH1 0x20 ADD DUP3 ADD PUSH1 0x40 MSTORE DUP1 ISZERO PUSH2 0xD51 JUMPI DUP2 PUSH1 0x20 ADD PUSH1 0x1 DUP3 MUL DUP1 CALLDATASIZE DUP4 CALLDATACOPY DUP1 DUP3 ADD SWAP2 POP POP SWAP1 POP JUMPDEST POP SWAP1 POP JUMPDEST PUSH0 DUP6 EQ PUSH2 0xDDC JUMPI PUSH1 0x1 DUP3 PUSH2 0xD69 SWAP2 SWAP1 PUSH2 0x212F JUMP JUMPDEST SWAP2 POP PUSH1 0xA DUP6 PUSH2 0xD78 SWAP2 SWAP1 PUSH2 0x2162 JUMP JUMPDEST PUSH1 0x30 PUSH2 0xD84 SWAP2 SWAP1 PUSH2 0x2192 JUMP JUMPDEST PUSH1 0xF8 SHL DUP2 DUP4 DUP2 MLOAD DUP2 LT PUSH2 0xD9A JUMPI PUSH2 0xD99 PUSH2 0x21C5 JUMP JUMPDEST JUMPDEST PUSH1 0x20 ADD ADD SWAP1 PUSH31 0xFFFFFFFFFFFFFFFFFFFFFFFFFFFFFFFFFFFFFFFFFFFFFFFFFFFFFFFFFFFFFF NOT AND SWAP1 DUP2 PUSH0 BYTE SWAP1 MSTORE8 POP PUSH1 0xA DUP6 PUSH2 0xDD5 SWAP2 SWAP1 PUSH2 0x20FF JUMP JUMPDEST SWAP5 POP PUSH2 0xD55 JUMP JUMPDEST DUP1 SWAP4 POP POP POP POP JUMPDEST SWAP2 SWAP1 POP JUMP JUMPDEST PUSH0 PUSH20 0xFFFFFFFFFFFFFFFFFFFFFFFFFFFFFFFFFFFFFFFF AND DUP3 PUSH20 0xFFFFFFFFFFFFFFFFFFFFFFFFFFFFFFFFFFFFFFFF AND SUB PUSH2 0xE56 JUMPI PUSH1 0x40 MLOAD PUSH32 0x8C379A000000000000000000000000000000000000000000000000000000000 DUP2 MSTORE PUSH1 0x4 ADD PUSH2 0xE4D SWAP1 PUSH2 0x223C JUMP JUMPDEST PUSH1 0x40 MLOAD DUP1 SWAP2 SUB SWAP1 REVERT JUMPDEST PUSH2 0xE5F DUP2 PUSH2 0xAAA JUMP JUMPDEST ISZERO PUSH2 0xE9F JUMPI PUSH1 0x40 MLOAD PUSH32 0x8C379A000000000000000000000000000000000000000000000000000000000 DUP2 MSTORE PUSH1 0x4 ADD PUSH2 0xE96 SWAP1 PUSH2 0x22A4 JUMP JUMPDEST PUSH1 0x40 MLOAD DUP1 SWAP2 SUB SWAP1 REVERT JUMPDEST PUSH2 0xEAA PUSH0 DUP4 DUP4 PUSH2 0x1139 JUMP JUMPDEST PUSH1 0x1 PUSH1 0x3 PUSH0 DUP5 PUSH20 0xFFFFFFFFFFFFFFFFFFFFFFFFFFFFFFFFFFFFFFFF AND PUSH20 0xFFFFFFFFFFFFFFFFFFFFFFFFFFFFFFFFFFFFFFFF AND DUP2 MSTORE PUSH1 0x20 ADD SWAP1 DUP2 MSTORE PUSH1 0x20 ADD PUSH0 KECCAK256 PUSH0 DUP3 DUP3 SLOAD PUSH2 0xEF7 SWAP2 SWAP1 PUSH2 0x2192 JUMP JUMPDEST SWAP3 POP POP DUP2 SWAP1 SSTORE POP DUP2 PUSH1 0x2 PUSH0 DUP4 DUP2 MSTORE PUSH1 0x20 ADD SWAP1 DUP2 MSTORE PUSH1 0x20 ADD PUSH0 KECCAK256 PUSH0 PUSH2 0x100 EXP DUP2 SLOAD DUP2 PUSH20 0xFFFFFFFFFFFFFFFFFFFFFFFFFFFFFFFFFFFFFFFF MUL NOT AND SWAP1 DUP4 PUSH20 0xFFFFFFFFFFFFFFFFFFFFFFFFFFFFFFFFFFFFFFFF AND MUL OR SWAP1 SSTORE POP DUP1 DUP3 PUSH20 0xFFFFFFFFFFFFFFFFFFFFFFFFFFFFFFFFFFFFFFFF AND PUSH0 PUSH20 0xFFFFFFFFFFFFFFFFFFFFFFFFFFFFFFFFFFFFFFFF AND PUSH32 0xDDF252AD1BE2C89B69C2B068FC378DAA952BA7F163C4A11628F55A4DF523B3EF PUSH1 0x40 MLOAD PUSH1 0x40 MLOAD DUP1 SWAP2 SUB SWAP1 LOG4 PUSH2 0xFB3 PUSH0 DUP4 DUP4 PUSH2 0x1149 JUMP JUMPDEST POP POP JUMP JUMPDEST PUSH0 PUSH2 0xFD7 DUP5 PUSH20 0xFFFFFFFFFFFFFFFFFFFFFFFFFFFFFFFFFFFFFFFF AND PUSH2 0x114E JUMP JUMPDEST ISZERO PUSH2 0x112C JUMPI DUP4 PUSH20 0xFFFFFFFFFFFFFFFFFFFFFFFFFFFFFFFFFFFFFFFF AND PUSH4 0x150B7A02 PUSH2 0x1000 PUSH2 0x877 JUMP JUMPDEST DUP8 DUP7 DUP7 PUSH1 0x40 MLOAD DUP6 PUSH4 0xFFFFFFFF AND PUSH1 0xE0 SHL DUP2 MSTORE PUSH1 0x4 ADD PUSH2 0x1022 SWAP5 SWAP4 SWAP3 SWAP2 SWAP1 PUSH2 0x2314 JUMP JUMPDEST PUSH1 0x20 PUSH1 0x40 MLOAD DUP1 DUP4 SUB DUP2 PUSH0 DUP8 GAS CALL SWAP3 POP POP POP DUP1 ISZERO PUSH2 0x105D JUMPI POP PUSH1 0x40 MLOAD RETURNDATASIZE PUSH1 0x1F NOT PUSH1 0x1F DUP3 ADD AND DUP3 ADD DUP1 PUSH1 0x40 MSTORE POP DUP2 ADD SWAP1 PUSH2 0x105A SWAP2 SWAP1 PUSH2 0x2372 JUMP JUMPDEST PUSH1 0x1 JUMPDEST PUSH2 0x10DC JUMPI RETURNDATASIZE DUP1 PUSH0 DUP2 EQ PUSH2 0x108B JUMPI PUSH1 0x40 MLOAD SWAP2 POP PUSH1 0x1F NOT PUSH1 0x3F RETURNDATASIZE ADD AND DUP3 ADD PUSH1 0x40 MSTORE RETURNDATASIZE DUP3 MSTORE RETURNDATASIZE PUSH0 PUSH1 0x20 DUP5 ADD RETURNDATACOPY PUSH2 0x1090 JUMP JUMPDEST PUSH1 0x60 SWAP2 POP JUMPDEST POP PUSH0 DUP2 MLOAD SUB PUSH2 0x10D4 JUMPI PUSH1 0x40 MLOAD PUSH32 0x8C379A000000000000000000000000000000000000000000000000000000000 DUP2 MSTORE PUSH1 0x4 ADD PUSH2 0x10CB SWAP1 PUSH2 0x2040 JUMP JUMPDEST PUSH1 0x40 MLOAD DUP1 SWAP2 SUB SWAP1 REVERT JUMPDEST DUP1 MLOAD DUP2 PUSH1 0x20 ADD REVERT JUMPDEST PUSH4 0x150B7A02 PUSH1 0xE0 SHL PUSH28 0xFFFFFFFFFFFFFFFFFFFFFFFFFFFFFFFFFFFFFFFFFFFFFFFFFFFFFFFF NOT AND DUP2 PUSH28 0xFFFFFFFFFFFFFFFFFFFFFFFFFFFFFFFFFFFFFFFFFFFFFFFFFFFFFFFF NOT AND EQ SWAP2 POP POP PUSH2 0x1131 JUMP JUMPDEST PUSH1 0x1 SWAP1 POP JUMPDEST SWAP5 SWAP4 POP POP POP POP JUMP JUMPDEST PUSH2 0x1144 DUP4 DUP4 DUP4 PUSH2 0x1170 JUMP JUMPDEST POP POP POP JUMP JUMPDEST POP POP POP JUMP JUMPDEST PUSH0 DUP1 DUP3 PUSH20 0xFFFFFFFFFFFFFFFFFFFFFFFFFFFFFFFFFFFFFFFF AND EXTCODESIZE GT SWAP1 POP SWAP2 SWAP1 POP JUMP JUMPDEST PUSH2 0x117B DUP4 DUP4 DUP4 PUSH2 0x1280 JUMP JUMPDEST PUSH0 PUSH20 0xFFFFFFFFFFFFFFFFFFFFFFFFFFFFFFFFFFFFFFFF AND DUP4 PUSH20 0xFFFFFFFFFFFFFFFFFFFFFFFFFFFFFFFFFFFFFFFF AND SUB PUSH2 0x11BC JUMPI PUSH2 0x11B7 DUP2 PUSH2 0x1285 JUMP JUMPDEST PUSH2 0x11FB JUMP JUMPDEST DUP2 PUSH20 0xFFFFFFFFFFFFFFFFFFFFFFFFFFFFFFFFFFFFFFFF AND DUP4 PUSH20 0xFFFFFFFFFFFFFFFFFFFFFFFFFFFFFFFFFFFFFFFF AND EQ PUSH2 0x11FA JUMPI PUSH2 0x11F9 DUP4 DUP3 PUSH2 0x12C9 JUMP JUMPDEST JUMPDEST JUMPDEST PUSH0 PUSH20 0xFFFFFFFFFFFFFFFFFFFFFFFFFFFFFFFFFFFFFFFF AND DUP3 PUSH20 0xFFFFFFFFFFFFFFFFFFFFFFFFFFFFFFFFFFFFFFFF AND SUB PUSH2 0x123C JUMPI PUSH2 0x1237 DUP2 PUSH2 0x141F JUMP JUMPDEST PUSH2 0x127B JUMP JUMPDEST DUP3 PUSH20 0xFFFFFFFFFFFFFFFFFFFFFFFFFFFFFFFFFFFFFFFF AND DUP3 PUSH20 0xFFFFFFFFFFFFFFFFFFFFFFFFFFFFFFFFFFFFFFFF AND EQ PUSH2 0x127A JUMPI PUSH2 0x1279 DUP3 DUP3 PUSH2 0x14DF JUMP JUMPDEST JUMPDEST JUMPDEST POP POP POP JUMP JUMPDEST POP POP POP JUMP JUMPDEST PUSH1 0x8 DUP1 SLOAD SWAP1 POP PUSH1 0x9 PUSH0 DUP4 DUP2 MSTORE PUSH1 0x20 ADD SWAP1 DUP2 MSTORE PUSH1 0x20 ADD PUSH0 KECCAK256 DUP2 SWAP1 SSTORE POP PUSH1 0x8 DUP2 SWAP1 DUP1 PUSH1 0x1 DUP2 SLOAD ADD DUP1 DUP3 SSTORE DUP1 SWAP2 POP POP PUSH1 0x1 SWAP1 SUB SWAP1 PUSH0 MSTORE PUSH1 0x20 PUSH0 KECCAK256 ADD PUSH0 SWAP1 SWAP2 SWAP1 SWAP2 SWAP1 SWAP2 POP SSTORE POP JUMP JUMPDEST PUSH0 PUSH1 0x1 PUSH2 0x12D5 DUP5 PUSH2 0x368 JUMP JUMPDEST PUSH2 0x12DF SWAP2 SWAP1 PUSH2 0x212F JUMP JUMPDEST SWAP1 POP PUSH0 PUSH1 0x7 PUSH0 DUP5 DUP2 MSTORE PUSH1 0x20 ADD SWAP1 DUP2 MSTORE PUSH1 0x20 ADD PUSH0 KECCAK256 SLOAD SWAP1 POP DUP2 DUP2 EQ PUSH2 0x13B6 JUMPI PUSH0 PUSH1 0x6 PUSH0 DUP7 PUSH20 0xFFFFFFFFFFFFFFFFFFFFFFFFFFFFFFFFFFFFFFFF AND PUSH20 0xFFFFFFFFFFFFFFFFFFFFFFFFFFFFFFFFFFFFFFFF AND DUP2 MSTORE PUSH1 0x20 ADD SWAP1 DUP2 MSTORE PUSH1 0x20 ADD PUSH0 KECCAK256 PUSH0 DUP5 DUP2 MSTORE PUSH1 0x20 ADD SWAP1 DUP2 MSTORE PUSH1 0x20 ADD PUSH0 KECCAK256 SLOAD SWAP1 POP DUP1 PUSH1 0x6 PUSH0 DUP8 PUSH20 0xFFFFFFFFFFFFFFFFFFFFFFFFFFFFFFFFFFFFFFFF AND PUSH20 0xFFFFFFFFFFFFFFFFFFFFFFFFFFFFFFFFFFFFFFFF AND DUP2 MSTORE PUSH1 0x20 ADD SWAP1 DUP2 MSTORE PUSH1 0x20 ADD PUSH0 KECCAK256 PUSH0 DUP5 DUP2 MSTORE PUSH1 0x20 ADD SWAP1 DUP2 MSTORE PUSH1 0x20 ADD PUSH0 KECCAK256 DUP2 SWAP1 SSTORE POP DUP2 PUSH1 0x7 PUSH0 DUP4 DUP2 MSTORE PUSH1 0x20 ADD SWAP1 DUP2 MSTORE PUSH1 0x20 ADD PUSH0 KECCAK256 DUP2 SWAP1 SSTORE POP POP JUMPDEST PUSH1 0x7 PUSH0 DUP5 DUP2 MSTORE PUSH1 0x20 ADD SWAP1 DUP2 MSTORE PUSH1 0x20 ADD PUSH0 KECCAK256 PUSH0 SWAP1 SSTORE PUSH1 0x6 PUSH0 DUP6 PUSH20 0xFFFFFFFFFFFFFFFFFFFFFFFFFFFFFFFFFFFFFFFF AND PUSH20 0xFFFFFFFFFFFFFFFFFFFFFFFFFFFFFFFFFFFFFFFF AND DUP2 MSTORE PUSH1 0x20 ADD SWAP1 DUP2 MSTORE PUSH1 0x20 ADD PUSH0 KECCAK256 PUSH0 DUP4 DUP2 MSTORE PUSH1 0x20 ADD SWAP1 DUP2 MSTORE PUSH1 0x20 ADD PUSH0 KECCAK256 PUSH0 SWAP1 SSTORE POP POP POP POP JUMP JUMPDEST PUSH0 PUSH1 0x1 PUSH1 0x8 DUP1 SLOAD SWAP1 POP PUSH2 0x1432 SWAP2 SWAP1 PUSH2 0x212F JUMP JUMPDEST SWAP1 POP PUSH0 PUSH1 0x9 PUSH0 DUP5 DUP2 MSTORE PUSH1 0x20 ADD SWAP1 DUP2 MSTORE PUSH1 0x20 ADD PUSH0 KECCAK256 SLOAD SWAP1 POP PUSH0 PUSH1 0x8 DUP4 DUP2 SLOAD DUP2 LT PUSH2 0x145E JUMPI PUSH2 0x145D PUSH2 0x21C5 JUMP JUMPDEST JUMPDEST SWAP1 PUSH0 MSTORE PUSH1 0x20 PUSH0 KECCAK256 ADD SLOAD SWAP1 POP DUP1 PUSH1 0x8 DUP4 DUP2 SLOAD DUP2 LT PUSH2 0x147E JUMPI PUSH2 0x147D PUSH2 0x21C5 JUMP JUMPDEST JUMPDEST SWAP1 PUSH0 MSTORE PUSH1 0x20 PUSH0 KECCAK256 ADD DUP2 SWAP1 SSTORE POP DUP2 PUSH1 0x9 PUSH0 DUP4 DUP2 MSTORE PUSH1 0x20 ADD SWAP1 DUP2 MSTORE PUSH1 0x20 ADD PUSH0 KECCAK256 DUP2 SWAP1 SSTORE POP PUSH1 0x9 PUSH0 DUP6 DUP2 MSTORE PUSH1 0x20 ADD SWAP1 DUP2 MSTORE PUSH1 0x20 ADD PUSH0 KECCAK256 PUSH0 SWAP1 SSTORE PUSH1 0x8 DUP1 SLOAD DUP1 PUSH2 0x14C6 JUMPI PUSH2 0x14C5 PUSH2 0x239D JUMP JUMPDEST JUMPDEST PUSH1 0x1 SWAP1 SUB DUP2 DUP2 SWAP1 PUSH0 MSTORE PUSH1 0x20 PUSH0 KECCAK256 ADD PUSH0 SWAP1 SSTORE SWAP1 SSTORE POP POP POP POP JUMP JUMPDEST PUSH0 PUSH2 0x14E9 DUP4 PUSH2 0x368 JUMP JUMPDEST SWAP1 POP DUP2 PUSH1 0x6 PUSH0 DUP6 PUSH20 0xFFFFFFFFFFFFFFFFFFFFFFFFFFFFFFFFFFFFFFFF AND PUSH20 0xFFFFFFFFFFFFFFFFFFFFFFFFFFFFFFFFFFFFFFFF AND DUP2 MSTORE PUSH1 0x20 ADD SWAP1 DUP2 MSTORE PUSH1 0x20 ADD PUSH0 KECCAK256 PUSH0 DUP4 DUP2 MSTORE PUSH1 0x20 ADD SWAP1 DUP2 MSTORE PUSH1 0x20 ADD PUSH0 KECCAK256 DUP2 SWAP1 SSTORE POP DUP1 PUSH1 0x7 PUSH0 DUP5 DUP2 MSTORE PUSH1 0x20 ADD SWAP1 DUP2 MSTORE PUSH1 0x20 ADD PUSH0 KECCAK256 DUP2 SWAP1 SSTORE POP POP POP POP JUMP JUMPDEST PUSH0 DUP1 REVERT JUMPDEST PUSH0 DUP1 REVERT JUMPDEST PUSH0 PUSH32 0xFFFFFFFF00000000000000000000000000000000000000000000000000000000 DUP3 AND SWAP1 POP SWAP2 SWAP1 POP JUMP JUMPDEST PUSH2 0x1593 DUP2 PUSH2 0x155F JUMP JUMPDEST DUP2 EQ PUSH2 0x159D JUMPI PUSH0 DUP1 REVERT JUMPDEST POP JUMP JUMPDEST PUSH0 DUP2 CALLDATALOAD SWAP1 POP PUSH2 0x15AE DUP2 PUSH2 0x158A JUMP JUMPDEST SWAP3 SWAP2 POP POP JUMP JUMPDEST PUSH0 PUSH1 0x20 DUP3 DUP5 SUB SLT ISZERO PUSH2 0x15C9 JUMPI PUSH2 0x15C8 PUSH2 0x1557 JUMP JUMPDEST JUMPDEST PUSH0 PUSH2 0x15D6 DUP5 DUP3 DUP6 ADD PUSH2 0x15A0 JUMP JUMPDEST SWAP2 POP POP SWAP3 SWAP2 POP POP JUMP JUMPDEST PUSH0 DUP2 ISZERO ISZERO SWAP1 POP SWAP2 SWAP1 POP JUMP JUMPDEST PUSH2 0x15F3 DUP2 PUSH2 0x15DF JUMP JUMPDEST DUP3 MSTORE POP POP JUMP JUMPDEST PUSH0 PUSH1 0x20 DUP3 ADD SWAP1 POP PUSH2 0x160C PUSH0 DUP4 ADD DUP5 PUSH2 0x15EA JUMP JUMPDEST SWAP3 SWAP2 POP POP JUMP JUMPDEST PUSH0 DUP2 MLOAD SWAP1 POP SWAP2 SWAP1 POP JUMP JUMPDEST PUSH0 DUP3 DUP3 MSTORE PUSH1 0x20 DUP3 ADD SWAP1 POP SWAP3 SWAP2 POP POP JUMP JUMPDEST PUSH0 JUMPDEST DUP4 DUP2 LT ISZERO PUSH2 0x1649 JUMPI DUP1 DUP3 ADD MLOAD DUP2 DUP5 ADD MSTORE PUSH1 0x20 DUP2 ADD SWAP1 POP PUSH2 0x162E JUMP JUMPDEST PUSH0 DUP5 DUP5 ADD MSTORE POP POP POP POP JUMP JUMPDEST PUSH0 PUSH1 0x1F NOT PUSH1 0x1F DUP4 ADD AND SWAP1 POP SWAP2 SWAP1 POP JUMP JUMPDEST PUSH0 PUSH2 0x166E DUP3 PUSH2 0x1612 JUMP JUMPDEST PUSH2 0x1678 DUP2 DUP6 PUSH2 0x161C JUMP JUMPDEST SWAP4 POP PUSH2 0x1688 DUP2 DUP6 PUSH1 0x20 DUP7 ADD PUSH2 0x162C JUMP JUMPDEST PUSH2 0x1691 DUP2 PUSH2 0x1654 JUMP JUMPDEST DUP5 ADD SWAP2 POP POP SWAP3 SWAP2 POP POP JUMP JUMPDEST PUSH0 PUSH1 0x20 DUP3 ADD SWAP1 POP DUP2 DUP2 SUB PUSH0 DUP4 ADD MSTORE PUSH2 0x16B4 DUP2 DUP5 PUSH2 0x1664 JUMP JUMPDEST SWAP1 POP SWAP3 SWAP2 POP POP JUMP JUMPDEST PUSH0 DUP2 SWAP1 POP SWAP2 SWAP1 POP JUMP JUMPDEST PUSH2 0x16CE DUP2 PUSH2 0x16BC JUMP JUMPDEST DUP3 MSTORE POP POP JUMP JUMPDEST PUSH0 PUSH1 0x20 DUP3 ADD SWAP1 POP PUSH2 0x16E7 PUSH0 DUP4 ADD DUP5 PUSH2 0x16C5 JUMP JUMPDEST SWAP3 SWAP2 POP POP JUMP JUMPDEST PUSH2 0x16F6 DUP2 PUSH2 0x16BC JUMP JUMPDEST DUP2 EQ PUSH2 0x1700 JUMPI PUSH0 DUP1 REVERT JUMPDEST POP JUMP JUMPDEST PUSH0 DUP2 CALLDATALOAD SWAP1 POP PUSH2 0x1711 DUP2 PUSH2 0x16ED JUMP JUMPDEST SWAP3 SWAP2 POP POP JUMP JUMPDEST PUSH0 PUSH1 0x20 DUP3 DUP5 SUB SLT ISZERO PUSH2 0x172C JUMPI PUSH2 0x172B PUSH2 0x1557 JUMP JUMPDEST JUMPDEST PUSH0 PUSH2 0x1739 DUP5 DUP3 DUP6 ADD PUSH2 0x1703 JUMP JUMPDEST SWAP2 POP POP SWAP3 SWAP2 POP POP JUMP JUMPDEST PUSH0 PUSH20 0xFFFFFFFFFFFFFFFFFFFFFFFFFFFFFFFFFFFFFFFF DUP3 AND SWAP1 POP SWAP2 SWAP1 POP JUMP JUMPDEST PUSH0 PUSH2 0x176B DUP3 PUSH2 0x1742 JUMP JUMPDEST SWAP1 POP SWAP2 SWAP1 POP JUMP JUMPDEST PUSH2 0x177B DUP2 PUSH2 0x1761 JUMP JUMPDEST DUP3 MSTORE POP POP JUMP JUMPDEST PUSH0 PUSH1 0x20 DUP3 ADD SWAP1 POP PUSH2 0x1794 PUSH0 DUP4 ADD DUP5 PUSH2 0x1772 JUMP JUMPDEST SWAP3 SWAP2 POP POP JUMP JUMPDEST PUSH2 0x17A3 DUP2 PUSH2 0x1761 JUMP JUMPDEST DUP2 EQ PUSH2 0x17AD JUMPI PUSH0 DUP1 REVERT JUMPDEST POP JUMP JUMPDEST PUSH0 DUP2 CALLDATALOAD SWAP1 POP PUSH2 0x17BE DUP2 PUSH2 0x179A JUMP JUMPDEST SWAP3 SWAP2 POP POP JUMP JUMPDEST PUSH0 PUSH1 0x20 DUP3 DUP5 SUB SLT ISZERO PUSH2 0x17D9 JUMPI PUSH2 0x17D8 PUSH2 0x1557 JUMP JUMPDEST JUMPDEST PUSH0 PUSH2 0x17E6 DUP5 DUP3 DUP6 ADD PUSH2 0x17B0 JUMP JUMPDEST SWAP2 POP POP SWAP3 SWAP2 POP POP JUMP JUMPDEST PUSH0 DUP1 REVERT JUMPDEST PUSH0 DUP1 REVERT JUMPDEST PUSH0 DUP1 REVERT JUMPDEST PUSH0 DUP1 DUP4 PUSH1 0x1F DUP5 ADD SLT PUSH2 0x1810 JUMPI PUSH2 0x180F PUSH2 0x17EF JUMP JUMPDEST JUMPDEST DUP3 CALLDATALOAD SWAP1 POP PUSH8 0xFFFFFFFFFFFFFFFF DUP2 GT ISZERO PUSH2 0x182D JUMPI PUSH2 0x182C PUSH2 0x17F3 JUMP JUMPDEST JUMPDEST PUSH1 0x20 DUP4 ADD SWAP2 POP DUP4 PUSH1 0x1 DUP3 MUL DUP4 ADD GT ISZERO PUSH2 0x1849 JUMPI PUSH2 0x1848 PUSH2 0x17F7 JUMP JUMPDEST JUMPDEST SWAP3 POP SWAP3 SWAP1 POP JUMP JUMPDEST PUSH0 DUP1 PUSH0 DUP1 PUSH1 0x60 DUP6 DUP8 SUB SLT ISZERO PUSH2 0x1868 JUMPI PUSH2 0x1867 PUSH2 0x1557 JUMP JUMPDEST JUMPDEST PUSH0 PUSH2 0x1875 DUP8 DUP3 DUP9 ADD PUSH2 0x17B0 JUMP JUMPDEST SWAP5 POP POP PUSH1 0x20 PUSH2 0x1886 DUP8 DUP3 DUP9 ADD PUSH2 0x1703 JUMP JUMPDEST SWAP4 POP POP PUSH1 0x40 DUP6 ADD CALLDATALOAD PUSH8 0xFFFFFFFFFFFFFFFF DUP2 GT ISZERO PUSH2 0x18A7 JUMPI PUSH2 0x18A6 PUSH2 0x155B JUMP JUMPDEST JUMPDEST PUSH2 0x18B3 DUP8 DUP3 DUP9 ADD PUSH2 0x17FB JUMP JUMPDEST SWAP3 POP SWAP3 POP POP SWAP3 SWAP6 SWAP2 SWAP5 POP SWAP3 POP JUMP JUMPDEST PUSH32 0x4E487B7100000000000000000000000000000000000000000000000000000000 PUSH0 MSTORE PUSH1 0x22 PUSH1 0x4 MSTORE PUSH1 0x24 PUSH0 REVERT JUMPDEST PUSH0 PUSH1 0x2 DUP3 DIV SWAP1 POP PUSH1 0x1 DUP3 AND DUP1 PUSH2 0x1905 JUMPI PUSH1 0x7F DUP3 AND SWAP2 POP JUMPDEST PUSH1 0x20 DUP3 LT DUP2 SUB PUSH2 0x1918 JUMPI PUSH2 0x1917 PUSH2 0x18C1 JUMP JUMPDEST JUMPDEST POP SWAP2 SWAP1 POP JUMP JUMPDEST PUSH32 0x4552433732313A206F776E657220717565727920666F72206E6F6E6578697374 PUSH0 DUP3 ADD MSTORE PUSH32 0x656E7420746F6B656E0000000000000000000000000000000000000000000000 PUSH1 0x20 DUP3 ADD MSTORE POP JUMP JUMPDEST PUSH0 PUSH2 0x1978 PUSH1 0x29 DUP4 PUSH2 0x161C JUMP JUMPDEST SWAP2 POP PUSH2 0x1983 DUP3 PUSH2 0x191E JUMP JUMPDEST PUSH1 0x40 DUP3 ADD SWAP1 POP SWAP2 SWAP1 POP JUMP JUMPDEST PUSH0 PUSH1 0x20 DUP3 ADD SWAP1 POP DUP2 DUP2 SUB PUSH0 DUP4 ADD MSTORE PUSH2 0x19A5 DUP2 PUSH2 0x196C JUMP JUMPDEST SWAP1 POP SWAP2 SWAP1 POP JUMP JUMPDEST PUSH32 0x4552433732313A2062616C616E636520717565727920666F7220746865207A65 PUSH0 DUP3 ADD MSTORE PUSH32 0x726F206164647265737300000000000000000000000000000000000000000000 PUSH1 0x20 DUP3 ADD MSTORE POP JUMP JUMPDEST PUSH0 PUSH2 0x1A06 PUSH1 0x2A DUP4 PUSH2 0x161C JUMP JUMPDEST SWAP2 POP PUSH2 0x1A11 DUP3 PUSH2 0x19AC JUMP JUMPDEST PUSH1 0x40 DUP3 ADD SWAP1 POP SWAP2 SWAP1 POP JUMP JUMPDEST PUSH0 PUSH1 0x20 DUP3 ADD SWAP1 POP DUP2 DUP2 SUB PUSH0 DUP4 ADD MSTORE PUSH2 0x1A33 DUP2 PUSH2 0x19FA JUMP JUMPDEST SWAP1 POP SWAP2 SWAP1 POP JUMP JUMPDEST PUSH32 0x4F776E61626C653A2063616C6C6572206973206E6F7420746865206F776E6572 PUSH0 DUP3 ADD MSTORE POP JUMP JUMPDEST PUSH0 PUSH2 0x1A6E PUSH1 0x20 DUP4 PUSH2 0x161C JUMP JUMPDEST SWAP2 POP PUSH2 0x1A79 DUP3 PUSH2 0x1A3A JUMP JUMPDEST PUSH1 0x20 DUP3 ADD SWAP1 POP SWAP2 SWAP1 POP JUMP JUMPDEST PUSH0 PUSH1 0x20 DUP3 ADD SWAP1 POP DUP2 DUP2 SUB PUSH0 DUP4 ADD MSTORE PUSH2 0x1A9B DUP2 PUSH2 0x1A62 JUMP JUMPDEST SWAP1 POP SWAP2 SWAP1 POP JUMP JUMPDEST PUSH32 0x4F776E61626C653A206E6577206F776E657220697320746865207A65726F2061 PUSH0 DUP3 ADD MSTORE PUSH32 0x6464726573730000000000000000000000000000000000000000000000000000 PUSH1 0x20 DUP3 ADD MSTORE POP JUMP JUMPDEST PUSH0 PUSH2 0x1AFC PUSH1 0x26 DUP4 PUSH2 0x161C JUMP JUMPDEST SWAP2 POP PUSH2 0x1B07 DUP3 PUSH2 0x1AA2 JUMP JUMPDEST PUSH1 0x40 DUP3 ADD SWAP1 POP SWAP2 SWAP1 POP JUMP JUMPDEST PUSH0 PUSH1 0x20 DUP3 ADD SWAP1 POP DUP2 DUP2 SUB PUSH0 DUP4 ADD MSTORE PUSH2 0x1B29 DUP2 PUSH2 0x1AF0 JUMP JUMPDEST SWAP1 POP SWAP2 SWAP1 POP JUMP JUMPDEST PUSH32 0x45524337323155524953746F726167653A2055524920717565727920666F7220 PUSH0 DUP3 ADD MSTORE PUSH32 0x6E6F6E6578697374656E7420746F6B656E000000000000000000000000000000 PUSH1 0x20 DUP3 ADD MSTORE POP JUMP JUMPDEST PUSH0 PUSH2 0x1B8A PUSH1 0x31 DUP4 PUSH2 0x161C JUMP JUMPDEST SWAP2 POP PUSH2 0x1B95 DUP3 PUSH2 0x1B30 JUMP JUMPDEST PUSH1 0x40 DUP3 ADD SWAP1 POP SWAP2 SWAP1 POP JUMP JUMPDEST PUSH0 PUSH1 0x20 DUP3 ADD SWAP1 POP DUP2 DUP2 SUB PUSH0 DUP4 ADD MSTORE PUSH2 0x1BB7 DUP2 PUSH2 0x1B7E JUMP JUMPDEST SWAP1 POP SWAP2 SWAP1 POP JUMP JUMPDEST PUSH0 DUP2 SWAP1 POP SWAP3 SWAP2 POP POP JUMP JUMPDEST PUSH0 PUSH2 0x1BD2 DUP3 PUSH2 0x1612 JUMP JUMPDEST PUSH2 0x1BDC DUP2 DUP6 PUSH2 0x1BBE JUMP JUMPDEST SWAP4 POP PUSH2 0x1BEC DUP2 DUP6 PUSH1 0x20 DUP7 ADD PUSH2 0x162C JUMP JUMPDEST DUP1 DUP5 ADD SWAP2 POP POP SWAP3 SWAP2 POP POP JUMP JUMPDEST PUSH0 PUSH2 0x1C03 DUP3 DUP6 PUSH2 0x1BC8 JUMP JUMPDEST SWAP2 POP PUSH2 0x1C0F DUP3 DUP5 PUSH2 0x1BC8 JUMP JUMPDEST SWAP2 POP DUP2 SWAP1 POP SWAP4 SWAP3 POP POP POP JUMP JUMPDEST PUSH32 0x45524337323155524953746F726167653A2055524920736574206F66206E6F6E PUSH0 DUP3 ADD MSTORE PUSH32 0x6578697374656E7420746F6B656E000000000000000000000000000000000000 PUSH1 0x20 DUP3 ADD MSTORE POP JUMP JUMPDEST PUSH0 PUSH2 0x1C75 PUSH1 0x2E DUP4 PUSH2 0x161C JUMP JUMPDEST SWAP2 POP PUSH2 0x1C80 DUP3 PUSH2 0x1C1B JUMP JUMPDEST PUSH1 0x40 DUP3 ADD SWAP1 POP SWAP2 SWAP1 POP JUMP JUMPDEST PUSH0 PUSH1 0x20 DUP3 ADD SWAP1 POP DUP2 DUP2 SUB PUSH0 DUP4 ADD MSTORE PUSH2 0x1CA2 DUP2 PUSH2 0x1C69 JUMP JUMPDEST SWAP1 POP SWAP2 SWAP1 POP JUMP JUMPDEST PUSH32 0x4E487B7100000000000000000000000000000000000000000000000000000000 PUSH0 MSTORE PUSH1 0x41 PUSH1 0x4 MSTORE PUSH1 0x24 PUSH0 REVERT JUMPDEST PUSH0 DUP2 SWAP1 POP DUP2 PUSH0 MSTORE PUSH1 0x20 PUSH0 KECCAK256 SWAP1 POP SWAP2 SWAP1 POP JUMP JUMPDEST PUSH0 PUSH1 0x20 PUSH1 0x1F DUP4 ADD DIV SWAP1 POP SWAP2 SWAP1 POP JUMP JUMPDEST PUSH0 DUP3 DUP3 SHL SWAP1 POP SWAP3 SWAP2 POP POP JUMP JUMPDEST PUSH0 PUSH1 0x8 DUP4 MUL PUSH2 0x1D32 PUSH32 0xFFFFFFFFFFFFFFFFFFFFFFFFFFFFFFFFFFFFFFFFFFFFFFFFFFFFFFFFFFFFFFFF DUP3 PUSH2 0x1CF7 JUMP JUMPDEST PUSH2 0x1D3C DUP7 DUP4 PUSH2 0x1CF7 JUMP JUMPDEST SWAP6 POP DUP1 NOT DUP5 AND SWAP4 POP DUP1 DUP7 AND DUP5 OR SWAP3 POP POP POP SWAP4 SWAP3 POP POP POP JUMP JUMPDEST PUSH0 DUP2 SWAP1 POP SWAP2 SWAP1 POP JUMP JUMPDEST PUSH0 PUSH2 0x1D77 PUSH2 0x1D72 PUSH2 0x1D6D DUP5 PUSH2 0x16BC JUMP JUMPDEST PUSH2 0x1D54 JUMP JUMPDEST PUSH2 0x16BC JUMP JUMPDEST SWAP1 POP SWAP2 SWAP1 POP JUMP JUMPDEST PUSH0 DUP2 SWAP1 POP SWAP2 SWAP1 POP JUMP JUMPDEST PUSH2 0x1D90 DUP4 PUSH2 0x1D5D JUMP JUMPDEST PUSH2 0x1DA4 PUSH2 0x1D9C DUP3 PUSH2 0x1D7E JUMP JUMPDEST DUP5 DUP5 SLOAD PUSH2 0x1D03 JUMP JUMPDEST DUP3 SSTORE POP POP POP POP JUMP JUMPDEST PUSH0 SWAP1 JUMP JUMPDEST PUSH2 0x1DB8 PUSH2 0x1DAC JUMP JUMPDEST PUSH2 0x1DC3 DUP2 DUP5 DUP5 PUSH2 0x1D87 JUMP JUMPDEST POP POP POP JUMP JUMPDEST JUMPDEST DUP2 DUP2 LT ISZERO PUSH2 0x1DE6 JUMPI PUSH2 0x1DDB PUSH0 DUP3 PUSH2 0x1DB0 JUMP JUMPDEST PUSH1 0x1 DUP2 ADD SWAP1 POP PUSH2 0x1DC9 JUMP JUMPDEST POP POP JUMP JUMPDEST PUSH1 0x1F DUP3 GT ISZERO PUSH2 0x1E2B JUMPI PUSH2 0x1DFC DUP2 PUSH2 0x1CD6 JUMP JUMPDEST PUSH2 0x1E05 DUP5 PUSH2 0x1CE8 JUMP JUMPDEST DUP2 ADD PUSH1 0x20 DUP6 LT ISZERO PUSH2 0x1E14 JUMPI DUP2 SWAP1 POP JUMPDEST PUSH2 0x1E28 PUSH2 0x1E20 DUP6 PUSH2 0x1CE8 JUMP JUMPDEST DUP4 ADD DUP3 PUSH2 0x1DC8 JUMP JUMPDEST POP POP JUMPDEST POP POP POP JUMP JUMPDEST PUSH0 DUP3 DUP3 SHR SWAP1 POP SWAP3 SWAP2 POP POP JUMP JUMPDEST PUSH0 PUSH2 0x1E4B PUSH0 NOT DUP5 PUSH1 0x8 MUL PUSH2 0x1E30 JUMP JUMPDEST NOT DUP1 DUP4 AND SWAP2 POP POP SWAP3 SWAP2 POP POP JUMP JUMPDEST PUSH0 PUSH2 0x1E63 DUP4 DUP4 PUSH2 0x1E3C JUMP JUMPDEST SWAP2 POP DUP3 PUSH1 0x2 MUL DUP3 OR SWAP1 POP SWAP3 SWAP2 POP POP JUMP JUMPDEST PUSH2 0x1E7C DUP3 PUSH2 0x1612 JUMP JUMPDEST PUSH8 0xFFFFFFFFFFFFFFFF DUP2 GT ISZERO PUSH2 0x1E95 JUMPI PUSH2 0x1E94 PUSH2 0x1CA9 JUMP JUMPDEST JUMPDEST PUSH2 0x1E9F DUP3 SLOAD PUSH2 0x18EE JUMP JUMPDEST PUSH2 0x1EAA DUP3 DUP3 DUP6 PUSH2 0x1DEA JUMP JUMPDEST PUSH0 PUSH1 0x20 SWAP1 POP PUSH1 0x1F DUP4 GT PUSH1 0x1 DUP2 EQ PUSH2 0x1EDB JUMPI PUSH0 DUP5 ISZERO PUSH2 0x1EC9 JUMPI DUP3 DUP8 ADD MLOAD SWAP1 POP JUMPDEST PUSH2 0x1ED3 DUP6 DUP3 PUSH2 0x1E58 JUMP JUMPDEST DUP7 SSTORE POP PUSH2 0x1F3A JUMP JUMPDEST PUSH1 0x1F NOT DUP5 AND PUSH2 0x1EE9 DUP7 PUSH2 0x1CD6 JUMP JUMPDEST PUSH0 JUMPDEST DUP3 DUP2 LT ISZERO PUSH2 0x1F10 JUMPI DUP5 DUP10 ADD MLOAD DUP3 SSTORE PUSH1 0x1 DUP3 ADD SWAP2 POP PUSH1 0x20 DUP6 ADD SWAP5 POP PUSH1 0x20 DUP2 ADD SWAP1 POP PUSH2 0x1EEB JUMP JUMPDEST DUP7 DUP4 LT ISZERO PUSH2 0x1F2D JUMPI DUP5 DUP10 ADD MLOAD PUSH2 0x1F29 PUSH1 0x1F DUP10 AND DUP3 PUSH2 0x1E3C JUMP JUMPDEST DUP4 SSTORE POP JUMPDEST PUSH1 0x1 PUSH1 0x2 DUP9 MUL ADD DUP9 SSTORE POP POP POP JUMPDEST POP POP POP POP POP POP JUMP JUMPDEST PUSH32 0x4552433732314D657461646174613A2055524920717565727920666F72206E6F PUSH0 DUP3 ADD MSTORE PUSH32 0x6E6578697374656E7420746F6B656E0000000000000000000000000000000000 PUSH1 0x20 DUP3 ADD MSTORE POP JUMP JUMPDEST PUSH0 PUSH2 0x1F9C PUSH1 0x2F DUP4 PUSH2 0x161C JUMP JUMPDEST SWAP2 POP PUSH2 0x1FA7 DUP3 PUSH2 0x1F42 JUMP JUMPDEST PUSH1 0x40 DUP3 ADD SWAP1 POP SWAP2 SWAP1 POP JUMP JUMPDEST PUSH0 PUSH1 0x20 DUP3 ADD SWAP1 POP DUP2 DUP2 SUB PUSH0 DUP4 ADD MSTORE PUSH2 0x1FC9 DUP2 PUSH2 0x1F90 JUMP JUMPDEST SWAP1 POP SWAP2 SWAP1 POP JUMP JUMPDEST PUSH32 0x4552433732313A207472616E7366657220746F206E6F6E204552433732315265 PUSH0 DUP3 ADD MSTORE PUSH32 0x63656976657220696D706C656D656E7465720000000000000000000000000000 PUSH1 0x20 DUP3 ADD MSTORE POP JUMP JUMPDEST PUSH0 PUSH2 0x202A PUSH1 0x32 DUP4 PUSH2 0x161C JUMP JUMPDEST SWAP2 POP PUSH2 0x2035 DUP3 PUSH2 0x1FD0 JUMP JUMPDEST PUSH1 0x40 DUP3 ADD SWAP1 POP SWAP2 SWAP1 POP JUMP JUMPDEST PUSH0 PUSH1 0x20 DUP3 ADD SWAP1 POP DUP2 DUP2 SUB PUSH0 DUP4 ADD MSTORE PUSH2 0x2057 DUP2 PUSH2 0x201E JUMP JUMPDEST SWAP1 POP SWAP2 SWAP1 POP JUMP JUMPDEST PUSH32 0x4E487B7100000000000000000000000000000000000000000000000000000000 PUSH0 MSTORE PUSH1 0x11 PUSH1 0x4 MSTORE PUSH1 0x24 PUSH0 REVERT JUMPDEST PUSH0 PUSH2 0x2095 DUP3 PUSH2 0x16BC JUMP JUMPDEST SWAP2 POP PUSH32 0xFFFFFFFFFFFFFFFFFFFFFFFFFFFFFFFFFFFFFFFFFFFFFFFFFFFFFFFFFFFFFFFF DUP3 SUB PUSH2 0x20C7 JUMPI PUSH2 0x20C6 PUSH2 0x205E JUMP JUMPDEST JUMPDEST PUSH1 0x1 DUP3 ADD SWAP1 POP SWAP2 SWAP1 POP JUMP JUMPDEST PUSH32 0x4E487B7100000000000000000000000000000000000000000000000000000000 PUSH0 MSTORE PUSH1 0x12 PUSH1 0x4 MSTORE PUSH1 0x24 PUSH0 REVERT JUMPDEST PUSH0 PUSH2 0x2109 DUP3 PUSH2 0x16BC JUMP JUMPDEST SWAP2 POP PUSH2 0x2114 DUP4 PUSH2 0x16BC JUMP JUMPDEST SWAP3 POP DUP3 PUSH2 0x2124 JUMPI PUSH2 0x2123 PUSH2 0x20D2 JUMP JUMPDEST JUMPDEST DUP3 DUP3 DIV SWAP1 POP SWAP3 SWAP2 POP POP JUMP JUMPDEST PUSH0 PUSH2 0x2139 DUP3 PUSH2 0x16BC JUMP JUMPDEST SWAP2 POP PUSH2 0x2144 DUP4 PUSH2 0x16BC JUMP JUMPDEST SWAP3 POP DUP3 DUP3 SUB SWAP1 POP DUP2 DUP2 GT ISZERO PUSH2 0x215C JUMPI PUSH2 0x215B PUSH2 0x205E JUMP JUMPDEST JUMPDEST SWAP3 SWAP2 POP POP JUMP JUMPDEST PUSH0 PUSH2 0x216C DUP3 PUSH2 0x16BC JUMP JUMPDEST SWAP2 POP PUSH2 0x2177 DUP4 PUSH2 0x16BC JUMP JUMPDEST SWAP3 POP DUP3 PUSH2 0x2187 JUMPI PUSH2 0x2186 PUSH2 0x20D2 JUMP JUMPDEST JUMPDEST DUP3 DUP3 MOD SWAP1 POP SWAP3 SWAP2 POP POP JUMP JUMPDEST PUSH0 PUSH2 0x219C DUP3 PUSH2 0x16BC JUMP JUMPDEST SWAP2 POP PUSH2 0x21A7 DUP4 PUSH2 0x16BC JUMP JUMPDEST SWAP3 POP DUP3 DUP3 ADD SWAP1 POP DUP1 DUP3 GT ISZERO PUSH2 0x21BF JUMPI PUSH2 0x21BE PUSH2 0x205E JUMP JUMPDEST JUMPDEST SWAP3 SWAP2 POP POP JUMP JUMPDEST PUSH32 0x4E487B7100000000000000000000000000000000000000000000000000000000 PUSH0 MSTORE PUSH1 0x32 PUSH1 0x4 MSTORE PUSH1 0x24 PUSH0 REVERT JUMPDEST PUSH32 0x4552433732313A206D696E7420746F20746865207A65726F2061646472657373 PUSH0 DUP3 ADD MSTORE POP JUMP JUMPDEST PUSH0 PUSH2 0x2226 PUSH1 0x20 DUP4 PUSH2 0x161C JUMP JUMPDEST SWAP2 POP PUSH2 0x2231 DUP3 PUSH2 0x21F2 JUMP JUMPDEST PUSH1 0x20 DUP3 ADD SWAP1 POP SWAP2 SWAP1 POP JUMP JUMPDEST PUSH0 PUSH1 0x20 DUP3 ADD SWAP1 POP DUP2 DUP2 SUB PUSH0 DUP4 ADD MSTORE PUSH2 0x2253 DUP2 PUSH2 0x221A JUMP JUMPDEST SWAP1 POP SWAP2 SWAP1 POP JUMP JUMPDEST PUSH32 0x4552433732313A20746F6B656E20616C7265616479206D696E74656400000000 PUSH0 DUP3 ADD MSTORE POP JUMP JUMPDEST PUSH0 PUSH2 0x228E PUSH1 0x1C DUP4 PUSH2 0x161C JUMP JUMPDEST SWAP2 POP PUSH2 0x2299 DUP3 PUSH2 0x225A JUMP JUMPDEST PUSH1 0x20 DUP3 ADD SWAP1 POP SWAP2 SWAP1 POP JUMP JUMPDEST PUSH0 PUSH1 0x20 DUP3 ADD SWAP1 POP DUP2 DUP2 SUB PUSH0 DUP4 ADD MSTORE PUSH2 0x22BB DUP2 PUSH2 0x2282 JUMP JUMPDEST SWAP1 POP SWAP2 SWAP1 POP JUMP JUMPDEST PUSH0 DUP2 MLOAD SWAP1 POP SWAP2 SWAP1 POP JUMP JUMPDEST PUSH0 DUP3 DUP3 MSTORE PUSH1 0x20 DUP3 ADD SWAP1 POP SWAP3 SWAP2 POP POP JUMP JUMPDEST PUSH0 PUSH2 0x22E6 DUP3 PUSH2 0x22C2 JUMP JUMPDEST PUSH2 0x22F0 DUP2 DUP6 PUSH2 0x22CC JUMP JUMPDEST SWAP4 POP PUSH2 0x2300 DUP2 DUP6 PUSH1 0x20 DUP7 ADD PUSH2 0x162C JUMP JUMPDEST PUSH2 0x2309 DUP2 PUSH2 0x1654 JUMP JUMPDEST DUP5 ADD SWAP2 POP POP SWAP3 SWAP2 POP POP JUMP JUMPDEST PUSH0 PUSH1 0x80 DUP3 ADD SWAP1 POP PUSH2 0x2327 PUSH0 DUP4 ADD DUP8 PUSH2 0x1772 JUMP JUMPDEST PUSH2 0x2334 PUSH1 0x20 DUP4 ADD DUP7 PUSH2 0x1772 JUMP JUMPDEST PUSH2 0x2341 PUSH1 0x40 DUP4 ADD DUP6 PUSH2 0x16C5 JUMP JUMPDEST DUP2 DUP2 SUB PUSH1 0x60 DUP4 ADD MSTORE PUSH2 0x2353 DUP2 DUP5 PUSH2 0x22DC JUMP JUMPDEST SWAP1 POP SWAP6 SWAP5 POP POP POP POP POP JUMP JUMPDEST PUSH0 DUP2 MLOAD SWAP1 POP PUSH2 0x236C DUP2 PUSH2 0x158A JUMP JUMPDEST SWAP3 SWAP2 POP POP JUMP JUMPDEST PUSH0 PUSH1 0x20 DUP3 DUP5 SUB SLT ISZERO PUSH2 0x2387 JUMPI PUSH2 0x2386 PUSH2 0x1557 JUMP JUMPDEST JUMPDEST PUSH0 PUSH2 0x2394 DUP5 DUP3 DUP6 ADD PUSH2 0x235E JUMP JUMPDEST SWAP2 POP POP SWAP3 SWAP2 POP POP JUMP JUMPDEST PUSH32 0x4E487B7100000000000000000000000000000000000000000000000000000000 PUSH0 MSTORE PUSH1 0x31 PUSH1 0x4 MSTORE PUSH1 0x24 PUSH0 REVERT INVALID LOG2 PUSH5 0x6970667358 0x22 SLT KECCAK256 DUP3 BLOCKHASH EXTCODESIZE JUMPI 0xAD 0xAB 0xB3 NOT 0xDE 0x5D GASLIMIT 0xDA 0xAF PUSH10 0xA910AFA365EDAF8959E3 LOG3 DUP10 DUP2 SWAP3 DUP14 PUSH18 0xE2DB64736F6C634300081400330000000000 "
				},
				"gasEstimates": {
					"creation": {
						"codeDepositCost": "1843200",
						"executionCost": "infinite",
						"totalCost": "infinite"
					},
					"external": {
						"balanceOf(address)": "2953",
						"mint(address,uint256,string)": "infinite",
						"name()": "infinite",
						"owner()": "2515",
						"ownerOf(uint256)": "3026",
						"supportsInterface(bytes4)": "894",
						"symbol()": "infinite",
						"tokenURI(uint256)": "infinite",
						"totalSupply()": "2485",
						"transferOwnership(address)": "30795"
					},
					"internal": {
						"_beforeTokenTransfer(address,address,uint256)": "infinite",
						"_burn(uint256)": "infinite"
					}
				},
				"methodIdentifiers": {
					"balanceOf(address)": "70a08231",
					"mint(address,uint256,string)": "d3fc9864",
					"name()": "06fdde03",
					"owner()": "8da5cb5b",
					"ownerOf(uint256)": "6352211e",
					"supportsInterface(bytes4)": "01ffc9a7",
					"symbol()": "95d89b41",
					"tokenURI(uint256)": "c87b56dd",
					"totalSupply()": "18160ddd",
					"transferOwnership(address)": "f2fde38b"
				}
			},
			"storageLayout": {
				"storage": [
					{
						"astId": 706,
						"contract": "contracts\\BaseNFT.sol:BaseNFT",
						"label": "_name",
						"offset": 0,
						"slot": "0",
						"type": "t_string_storage"
					},
					{
						"astId": 708,
						"contract": "contracts\\BaseNFT.sol:BaseNFT",
						"label": "_symbol",
						"offset": 0,
						"slot": "1",
						"type": "t_string_storage"
					},
					{
						"astId": 712,
						"contract": "contracts\\BaseNFT.sol:BaseNFT",
						"label": "_owners",
						"offset": 0,
						"slot": "2",
						"type": "t_mapping(t_uint256,t_address)"
					},
					{
						"astId": 716,
						"contract": "contracts\\BaseNFT.sol:BaseNFT",
						"label": "_balances",
						"offset": 0,
						"slot": "3",
						"type": "t_mapping(t_address,t_uint256)"
					},
					{
						"astId": 720,
						"contract": "contracts\\BaseNFT.sol:BaseNFT",
						"label": "_tokenApprovals",
						"offset": 0,
						"slot": "4",
						"type": "t_mapping(t_uint256,t_address)"
					},
					{
						"astId": 726,
						"contract": "contracts\\BaseNFT.sol:BaseNFT",
						"label": "_operatorApprovals",
						"offset": 0,
						"slot": "5",
						"type": "t_mapping(t_address,t_mapping(t_address,t_bool))"
					},
					{
						"astId": 1413,
						"contract": "contracts\\BaseNFT.sol:BaseNFT",
						"label": "_ownedTokens",
						"offset": 0,
						"slot": "6",
						"type": "t_mapping(t_address,t_mapping(t_uint256,t_uint256))"
					},
					{
						"astId": 1417,
						"contract": "contracts\\BaseNFT.sol:BaseNFT",
						"label": "_ownedTokensIndex",
						"offset": 0,
						"slot": "7",
						"type": "t_mapping(t_uint256,t_uint256)"
					},
					{
						"astId": 1420,
						"contract": "contracts\\BaseNFT.sol:BaseNFT",
						"label": "_allTokens",
						"offset": 0,
						"slot": "8",
						"type": "t_array(t_uint256)dyn_storage"
					},
					{
						"astId": 1424,
						"contract": "contracts\\BaseNFT.sol:BaseNFT",
						"label": "_allTokensIndex",
						"offset": 0,
						"slot": "9",
						"type": "t_mapping(t_uint256,t_uint256)"
					},
					{
						"astId": 1291,
						"contract": "contracts\\BaseNFT.sol:BaseNFT",
						"label": "_tokenURIs",
						"offset": 0,
						"slot": "10",
						"type": "t_mapping(t_uint256,t_string_storage)"
					},
					{
						"astId": 502,
						"contract": "contracts\\BaseNFT.sol:BaseNFT",
						"label": "_owner",
						"offset": 0,
						"slot": "11",
						"type": "t_address"
					}
				],
				"types": {
					"t_address": {
						"encoding": "inplace",
						"label": "address",
						"numberOfBytes": "20"
					},
					"t_array(t_uint256)dyn_storage": {
						"base": "t_uint256",
						"encoding": "dynamic_array",
						"label": "uint256[]",
						"numberOfBytes": "32"
					},
					"t_bool": {
						"encoding": "inplace",
						"label": "bool",
						"numberOfBytes": "1"
					},
					"t_mapping(t_address,t_bool)": {
						"encoding": "mapping",
						"key": "t_address",
						"label": "mapping(address => bool)",
						"numberOfBytes": "32",
						"value": "t_bool"
					},
					"t_mapping(t_address,t_mapping(t_address,t_bool))": {
						"encoding": "mapping",
						"key": "t_address",
						"label": "mapping(address => mapping(address => bool))",
						"numberOfBytes": "32",
						"value": "t_mapping(t_address,t_bool)"
					},
					"t_mapping(t_address,t_mapping(t_uint256,t_uint256))": {
						"encoding": "mapping",
						"key": "t_address",
						"label": "mapping(address => mapping(uint256 => uint256))",
						"numberOfBytes": "32",
						"value": "t_mapping(t_uint256,t_uint256)"
					},
					"t_mapping(t_address,t_uint256)": {
						"encoding": "mapping",
						"key": "t_address",
						"label": "mapping(address => uint256)",
						"numberOfBytes": "32",
						"value": "t_uint256"
					},
					"t_mapping(t_uint256,t_address)": {
						"encoding": "mapping",
						"key": "t_uint256",
						"label": "mapping(uint256 => address)",
						"numberOfBytes": "32",
						"value": "t_address"
					},
					"t_mapping(t_uint256,t_string_storage)": {
						"encoding": "mapping",
						"key": "t_uint256",
						"label": "mapping(uint256 => string)",
						"numberOfBytes": "32",
						"value": "t_string_storage"
					},
					"t_mapping(t_uint256,t_uint256)": {
						"encoding": "mapping",
						"key": "t_uint256",
						"label": "mapping(uint256 => uint256)",
						"numberOfBytes": "32",
						"value": "t_uint256"
					},
					"t_string_storage": {
						"encoding": "bytes",
						"label": "string",
						"numberOfBytes": "32"
					},
					"t_uint256": {
						"encoding": "inplace",
						"label": "uint256",
						"numberOfBytes": "32"
					}
				}
			},
			"userdoc": {
				"kind": "user",
				"methods": {},
				"version": 1
			}
		}
	}
}