{
	"contracts\\CommissionBasedNFT.sol": {
		"CommissionBasedNFT": {
			"abi": [
				{
					"inputs": [],
					"stateMutability": "nonpayable",
					"type": "constructor"
				},
				{
					"anonymous": false,
					"inputs": [
						{
							"indexed": true,
							"internalType": "address",
							"name": "owner",
							"type": "address"
						},
						{
							"indexed": true,
							"internalType": "address",
							"name": "approved",
							"type": "address"
						},
						{
							"indexed": true,
							"internalType": "uint256",
							"name": "tokenId",
							"type": "uint256"
						}
					],
					"name": "Approval",
					"type": "event"
				},
				{
					"anonymous": false,
					"inputs": [
						{
							"indexed": true,
							"internalType": "address",
							"name": "owner",
							"type": "address"
						},
						{
							"indexed": true,
							"internalType": "address",
							"name": "operator",
							"type": "address"
						},
						{
							"indexed": false,
							"internalType": "bool",
							"name": "approved",
							"type": "bool"
						}
					],
					"name": "ApprovalForAll",
					"type": "event"
				},
				{
					"anonymous": false,
					"inputs": [
						{
							"indexed": true,
							"internalType": "address",
							"name": "previousOwner",
							"type": "address"
						},
						{
							"indexed": true,
							"internalType": "address",
							"name": "newOwner",
							"type": "address"
						}
					],
					"name": "OwnershipTransferred",
					"type": "event"
				},
				{
					"anonymous": false,
					"inputs": [
						{
							"indexed": true,
							"internalType": "address",
							"name": "from",
							"type": "address"
						},
						{
							"indexed": true,
							"internalType": "address",
							"name": "to",
							"type": "address"
						},
						{
							"indexed": true,
							"internalType": "uint256",
							"name": "tokenId",
							"type": "uint256"
						}
					],
					"name": "Transfer",
					"type": "event"
				},
				{
					"inputs": [
						{
							"internalType": "address",
							"name": "owner",
							"type": "address"
						}
					],
					"name": "balanceOf",
					"outputs": [
						{
							"internalType": "uint256",
							"name": "",
							"type": "uint256"
						}
					],
					"stateMutability": "view",
					"type": "function"
				},
				{
					"inputs": [
						{
							"internalType": "address[]",
							"name": "_users",
							"type": "address[]"
						},
						{
							"internalType": "uint256[]",
							"name": "_tokenIds",
							"type": "uint256[]"
						},
						{
							"internalType": "string[]",
							"name": "_uris",
							"type": "string[]"
						}
					],
					"name": "mint",
					"outputs": [],
					"stateMutability": "nonpayable",
					"type": "function"
				},
				{
					"inputs": [],
					"name": "name",
					"outputs": [
						{
							"internalType": "string",
							"name": "",
							"type": "string"
						}
					],
					"stateMutability": "view",
					"type": "function"
				},
				{
					"inputs": [],
					"name": "owner",
					"outputs": [
						{
							"internalType": "address",
							"name": "",
							"type": "address"
						}
					],
					"stateMutability": "view",
					"type": "function"
				},
				{
					"inputs": [
						{
							"internalType": "uint256",
							"name": "tokenId",
							"type": "uint256"
						}
					],
					"name": "ownerOf",
					"outputs": [
						{
							"internalType": "address",
							"name": "",
							"type": "address"
						}
					],
					"stateMutability": "view",
					"type": "function"
				},
				{
					"inputs": [
						{
							"internalType": "bytes4",
							"name": "interfaceId",
							"type": "bytes4"
						}
					],
					"name": "supportsInterface",
					"outputs": [
						{
							"internalType": "bool",
							"name": "",
							"type": "bool"
						}
					],
					"stateMutability": "view",
					"type": "function"
				},
				{
					"inputs": [],
					"name": "symbol",
					"outputs": [
						{
							"internalType": "string",
							"name": "",
							"type": "string"
						}
					],
					"stateMutability": "view",
					"type": "function"
				},
				{
					"inputs": [
						{
							"internalType": "uint256",
							"name": "tokenId",
							"type": "uint256"
						}
					],
					"name": "tokenURI",
					"outputs": [
						{
							"internalType": "string",
							"name": "",
							"type": "string"
						}
					],
					"stateMutability": "view",
					"type": "function"
				},
				{
					"inputs": [],
					"name": "totalSupply",
					"outputs": [
						{
							"internalType": "uint256",
							"name": "",
							"type": "uint256"
						}
					],
					"stateMutability": "view",
					"type": "function"
				},
				{
					"inputs": [
						{
							"internalType": "address",
							"name": "newOwner",
							"type": "address"
						}
					],
					"name": "transferOwnership",
					"outputs": [],
					"stateMutability": "nonpayable",
					"type": "function"
				}
			],
			"devdoc": {
				"kind": "dev",
				"methods": {},
				"version": 1
			},
			"evm": {
				"assembly": "    /* \"contracts\\\\CommissionBasedNFT.sol\":18364:19637  contract CommissionBasedNFT is ERC721Enumerable, ERC721URIStorage, Ownable {... */\n  mstore(0x40, 0x80)\n    /* \"contracts\\\\CommissionBasedNFT.sol\":18446:18500  constructor() ERC721(\"Commission Based NFT\", \"CBN\") {} */\n  callvalue\n  dup1\n  iszero\n  tag_1\n  jumpi\n  0x00\n  dup1\n  revert\ntag_1:\n  pop\n    /* \"contracts\\\\CommissionBasedNFT.sol\":8532:8648  constructor(string memory name_, string memory symbol_) {... */\n  mload(0x40)\n  dup1\n  0x40\n  add\n  0x40\n  mstore\n  dup1\n  0x14\n  dup2\n  mstore\n  0x20\n  add\n  0x436f6d6d697373696f6e204261736564204e4654000000000000000000000000\n  dup2\n  mstore\n  pop\n  mload(0x40)\n  dup1\n  0x40\n  add\n  0x40\n  mstore\n  dup1\n  0x03\n  dup2\n  mstore\n  0x20\n  add\n  0x43424e0000000000000000000000000000000000000000000000000000000000\n  dup2\n  mstore\n  pop\n    /* \"contracts\\\\CommissionBasedNFT.sol\":8607:8612  name_ */\n  dup2\n    /* \"contracts\\\\CommissionBasedNFT.sol\":8599:8604  _name */\n  0x00\n    /* \"contracts\\\\CommissionBasedNFT.sol\":8599:8612  _name = name_ */\n  swap1\n  dup2\n  tag_6\n  swap2\n  swap1\n  tag_7\n  jump\t// in\ntag_6:\n  pop\n    /* \"contracts\\\\CommissionBasedNFT.sol\":8633:8640  symbol_ */\n  dup1\n    /* \"contracts\\\\CommissionBasedNFT.sol\":8623:8630  _symbol */\n  0x01\n    /* \"contracts\\\\CommissionBasedNFT.sol\":8623:8640  _symbol = symbol_ */\n  swap1\n  dup2\n  tag_8\n  swap2\n  swap1\n  tag_7\n  jump\t// in\ntag_8:\n  pop\n    /* \"contracts\\\\CommissionBasedNFT.sol\":8532:8648  constructor(string memory name_, string memory symbol_) {... */\n  pop\n  pop\n    /* \"contracts\\\\CommissionBasedNFT.sol\":5904:5936  _transferOwnership(_msgSender()) */\n  tag_10\n    /* \"contracts\\\\CommissionBasedNFT.sol\":5923:5935  _msgSender() */\n  tag_11\n    /* \"contracts\\\\CommissionBasedNFT.sol\":5923:5933  _msgSender */\n  shl(0x20, tag_12)\n    /* \"contracts\\\\CommissionBasedNFT.sol\":5923:5935  _msgSender() */\n  0x20\n  shr\n  jump\t// in\ntag_11:\n    /* \"contracts\\\\CommissionBasedNFT.sol\":5904:5922  _transferOwnership */\n  shl(0x20, tag_13)\n    /* \"contracts\\\\CommissionBasedNFT.sol\":5904:5936  _transferOwnership(_msgSender()) */\n  0x20\n  shr\n  jump\t// in\ntag_10:\n    /* \"contracts\\\\CommissionBasedNFT.sol\":18364:19637  contract CommissionBasedNFT is ERC721Enumerable, ERC721URIStorage, Ownable {... */\n  jump(tag_15)\n    /* \"contracts\\\\CommissionBasedNFT.sol\":5473:5571  function _msgSender() internal view virtual returns (address) {... */\ntag_12:\n    /* \"contracts\\\\CommissionBasedNFT.sol\":5526:5533  address */\n  0x00\n    /* \"contracts\\\\CommissionBasedNFT.sol\":5553:5563  msg.sender */\n  caller\n    /* \"contracts\\\\CommissionBasedNFT.sol\":5546:5563  return msg.sender */\n  swap1\n  pop\n    /* \"contracts\\\\CommissionBasedNFT.sol\":5473:5571  function _msgSender() internal view virtual returns (address) {... */\n  swap1\n  jump\t// out\n    /* \"contracts\\\\CommissionBasedNFT.sol\":6421:6612  function _transferOwnership(address newOwner) internal virtual {... */\ntag_13:\n    /* \"contracts\\\\CommissionBasedNFT.sol\":6495:6511  address oldOwner */\n  0x00\n    /* \"contracts\\\\CommissionBasedNFT.sol\":6514:6520  _owner */\n  0x0b\n  0x00\n  swap1\n  sload\n  swap1\n  0x0100\n  exp\n  swap1\n  div\n  0xffffffffffffffffffffffffffffffffffffffff\n  and\n    /* \"contracts\\\\CommissionBasedNFT.sol\":6495:6520  address oldOwner = _owner */\n  swap1\n  pop\n    /* \"contracts\\\\CommissionBasedNFT.sol\":6540:6548  newOwner */\n  dup2\n    /* \"contracts\\\\CommissionBasedNFT.sol\":6531:6537  _owner */\n  0x0b\n  0x00\n    /* \"contracts\\\\CommissionBasedNFT.sol\":6531:6548  _owner = newOwner */\n  0x0100\n  exp\n  dup2\n  sload\n  dup2\n  0xffffffffffffffffffffffffffffffffffffffff\n  mul\n  not\n  and\n  swap1\n  dup4\n  0xffffffffffffffffffffffffffffffffffffffff\n  and\n  mul\n  or\n  swap1\n  sstore\n  pop\n    /* \"contracts\\\\CommissionBasedNFT.sol\":6595:6603  newOwner */\n  dup2\n    /* \"contracts\\\\CommissionBasedNFT.sol\":6564:6604  OwnershipTransferred(oldOwner, newOwner) */\n  0xffffffffffffffffffffffffffffffffffffffff\n  and\n    /* \"contracts\\\\CommissionBasedNFT.sol\":6585:6593  oldOwner */\n  dup2\n    /* \"contracts\\\\CommissionBasedNFT.sol\":6564:6604  OwnershipTransferred(oldOwner, newOwner) */\n  0xffffffffffffffffffffffffffffffffffffffff\n  and\n  0x8be0079c531659141344cd1fd0a4f28419497f9722a3daafe3b4186f6b6457e0\n  mload(0x40)\n  mload(0x40)\n  dup1\n  swap2\n  sub\n  swap1\n  log3\n    /* \"contracts\\\\CommissionBasedNFT.sol\":6484:6612  {... */\n  pop\n    /* \"contracts\\\\CommissionBasedNFT.sol\":6421:6612  function _transferOwnership(address newOwner) internal virtual {... */\n  pop\n  jump\t// out\n    /* \"#utility.yul\":7:106   */\ntag_18:\n    /* \"#utility.yul\":59:65   */\n  0x00\n    /* \"#utility.yul\":93:98   */\n  dup2\n    /* \"#utility.yul\":87:99   */\n  mload\n    /* \"#utility.yul\":77:99   */\n  swap1\n  pop\n    /* \"#utility.yul\":7:106   */\n  swap2\n  swap1\n  pop\n  jump\t// out\n    /* \"#utility.yul\":112:292   */\ntag_19:\n    /* \"#utility.yul\":160:237   */\n  0x4e487b7100000000000000000000000000000000000000000000000000000000\n    /* \"#utility.yul\":157:158   */\n  0x00\n    /* \"#utility.yul\":150:238   */\n  mstore\n    /* \"#utility.yul\":257:261   */\n  0x41\n    /* \"#utility.yul\":254:255   */\n  0x04\n    /* \"#utility.yul\":247:262   */\n  mstore\n    /* \"#utility.yul\":281:285   */\n  0x24\n    /* \"#utility.yul\":278:279   */\n  0x00\n    /* \"#utility.yul\":271:286   */\n  revert\n    /* \"#utility.yul\":298:478   */\ntag_20:\n    /* \"#utility.yul\":346:423   */\n  0x4e487b7100000000000000000000000000000000000000000000000000000000\n    /* \"#utility.yul\":343:344   */\n  0x00\n    /* \"#utility.yul\":336:424   */\n  mstore\n    /* \"#utility.yul\":443:447   */\n  0x22\n    /* \"#utility.yul\":440:441   */\n  0x04\n    /* \"#utility.yul\":433:448   */\n  mstore\n    /* \"#utility.yul\":467:471   */\n  0x24\n    /* \"#utility.yul\":464:465   */\n  0x00\n    /* \"#utility.yul\":457:472   */\n  revert\n    /* \"#utility.yul\":484:804   */\ntag_21:\n    /* \"#utility.yul\":528:534   */\n  0x00\n    /* \"#utility.yul\":565:566   */\n  0x02\n    /* \"#utility.yul\":559:563   */\n  dup3\n    /* \"#utility.yul\":555:567   */\n  div\n    /* \"#utility.yul\":545:567   */\n  swap1\n  pop\n    /* \"#utility.yul\":612:613   */\n  0x01\n    /* \"#utility.yul\":606:610   */\n  dup3\n    /* \"#utility.yul\":602:614   */\n  and\n    /* \"#utility.yul\":633:651   */\n  dup1\n    /* \"#utility.yul\":623:704   */\n  tag_43\n  jumpi\n    /* \"#utility.yul\":689:693   */\n  0x7f\n    /* \"#utility.yul\":681:687   */\n  dup3\n    /* \"#utility.yul\":677:694   */\n  and\n    /* \"#utility.yul\":667:694   */\n  swap2\n  pop\n    /* \"#utility.yul\":623:704   */\ntag_43:\n    /* \"#utility.yul\":751:753   */\n  0x20\n    /* \"#utility.yul\":743:749   */\n  dup3\n    /* \"#utility.yul\":740:754   */\n  lt\n    /* \"#utility.yul\":720:738   */\n  dup2\n    /* \"#utility.yul\":717:755   */\n  sub\n    /* \"#utility.yul\":714:798   */\n  tag_44\n  jumpi\n    /* \"#utility.yul\":770:788   */\n  tag_45\n  tag_20\n  jump\t// in\ntag_45:\n    /* \"#utility.yul\":714:798   */\ntag_44:\n    /* \"#utility.yul\":535:804   */\n  pop\n    /* \"#utility.yul\":484:804   */\n  swap2\n  swap1\n  pop\n  jump\t// out\n    /* \"#utility.yul\":810:951   */\ntag_22:\n    /* \"#utility.yul\":859:863   */\n  0x00\n    /* \"#utility.yul\":882:885   */\n  dup2\n    /* \"#utility.yul\":874:885   */\n  swap1\n  pop\n    /* \"#utility.yul\":905:908   */\n  dup2\n    /* \"#utility.yul\":902:903   */\n  0x00\n    /* \"#utility.yul\":895:909   */\n  mstore\n    /* \"#utility.yul\":939:943   */\n  0x20\n    /* \"#utility.yul\":936:937   */\n  0x00\n    /* \"#utility.yul\":926:944   */\n  keccak256\n    /* \"#utility.yul\":918:944   */\n  swap1\n  pop\n    /* \"#utility.yul\":810:951   */\n  swap2\n  swap1\n  pop\n  jump\t// out\n    /* \"#utility.yul\":957:1050   */\ntag_23:\n    /* \"#utility.yul\":994:1000   */\n  0x00\n    /* \"#utility.yul\":1041:1043   */\n  0x20\n    /* \"#utility.yul\":1036:1038   */\n  0x1f\n    /* \"#utility.yul\":1029:1034   */\n  dup4\n    /* \"#utility.yul\":1025:1039   */\n  add\n    /* \"#utility.yul\":1021:1044   */\n  div\n    /* \"#utility.yul\":1011:1044   */\n  swap1\n  pop\n    /* \"#utility.yul\":957:1050   */\n  swap2\n  swap1\n  pop\n  jump\t// out\n    /* \"#utility.yul\":1056:1163   */\ntag_24:\n    /* \"#utility.yul\":1100:1108   */\n  0x00\n    /* \"#utility.yul\":1150:1155   */\n  dup3\n    /* \"#utility.yul\":1144:1148   */\n  dup3\n    /* \"#utility.yul\":1140:1156   */\n  shl\n    /* \"#utility.yul\":1119:1156   */\n  swap1\n  pop\n    /* \"#utility.yul\":1056:1163   */\n  swap3\n  swap2\n  pop\n  pop\n  jump\t// out\n    /* \"#utility.yul\":1169:1562   */\ntag_25:\n    /* \"#utility.yul\":1238:1244   */\n  0x00\n    /* \"#utility.yul\":1288:1289   */\n  0x08\n    /* \"#utility.yul\":1276:1286   */\n  dup4\n    /* \"#utility.yul\":1272:1290   */\n  mul\n    /* \"#utility.yul\":1311:1408   */\n  tag_50\n    /* \"#utility.yul\":1341:1407   */\n  0xffffffffffffffffffffffffffffffffffffffffffffffffffffffffffffffff\n    /* \"#utility.yul\":1330:1339   */\n  dup3\n    /* \"#utility.yul\":1311:1408   */\n  tag_24\n  jump\t// in\ntag_50:\n    /* \"#utility.yul\":1429:1468   */\n  tag_51\n    /* \"#utility.yul\":1459:1467   */\n  dup7\n    /* \"#utility.yul\":1448:1457   */\n  dup4\n    /* \"#utility.yul\":1429:1468   */\n  tag_24\n  jump\t// in\ntag_51:\n    /* \"#utility.yul\":1417:1468   */\n  swap6\n  pop\n    /* \"#utility.yul\":1501:1505   */\n  dup1\n    /* \"#utility.yul\":1497:1506   */\n  not\n    /* \"#utility.yul\":1490:1495   */\n  dup5\n    /* \"#utility.yul\":1486:1507   */\n  and\n    /* \"#utility.yul\":1477:1507   */\n  swap4\n  pop\n    /* \"#utility.yul\":1550:1554   */\n  dup1\n    /* \"#utility.yul\":1540:1548   */\n  dup7\n    /* \"#utility.yul\":1536:1555   */\n  and\n    /* \"#utility.yul\":1529:1534   */\n  dup5\n    /* \"#utility.yul\":1526:1556   */\n  or\n    /* \"#utility.yul\":1516:1556   */\n  swap3\n  pop\n    /* \"#utility.yul\":1245:1562   */\n  pop\n  pop\n    /* \"#utility.yul\":1169:1562   */\n  swap4\n  swap3\n  pop\n  pop\n  pop\n  jump\t// out\n    /* \"#utility.yul\":1568:1645   */\ntag_26:\n    /* \"#utility.yul\":1605:1612   */\n  0x00\n    /* \"#utility.yul\":1634:1639   */\n  dup2\n    /* \"#utility.yul\":1623:1639   */\n  swap1\n  pop\n    /* \"#utility.yul\":1568:1645   */\n  swap2\n  swap1\n  pop\n  jump\t// out\n    /* \"#utility.yul\":1651:1711   */\ntag_27:\n    /* \"#utility.yul\":1679:1682   */\n  0x00\n    /* \"#utility.yul\":1700:1705   */\n  dup2\n    /* \"#utility.yul\":1693:1705   */\n  swap1\n  pop\n    /* \"#utility.yul\":1651:1711   */\n  swap2\n  swap1\n  pop\n  jump\t// out\n    /* \"#utility.yul\":1717:1859   */\ntag_28:\n    /* \"#utility.yul\":1767:1776   */\n  0x00\n    /* \"#utility.yul\":1800:1853   */\n  tag_55\n    /* \"#utility.yul\":1818:1852   */\n  tag_56\n    /* \"#utility.yul\":1827:1851   */\n  tag_57\n    /* \"#utility.yul\":1845:1850   */\n  dup5\n    /* \"#utility.yul\":1827:1851   */\n  tag_26\n  jump\t// in\ntag_57:\n    /* \"#utility.yul\":1818:1852   */\n  tag_27\n  jump\t// in\ntag_56:\n    /* \"#utility.yul\":1800:1853   */\n  tag_26\n  jump\t// in\ntag_55:\n    /* \"#utility.yul\":1787:1853   */\n  swap1\n  pop\n    /* \"#utility.yul\":1717:1859   */\n  swap2\n  swap1\n  pop\n  jump\t// out\n    /* \"#utility.yul\":1865:1940   */\ntag_29:\n    /* \"#utility.yul\":1908:1911   */\n  0x00\n    /* \"#utility.yul\":1929:1934   */\n  dup2\n    /* \"#utility.yul\":1922:1934   */\n  swap1\n  pop\n    /* \"#utility.yul\":1865:1940   */\n  swap2\n  swap1\n  pop\n  jump\t// out\n    /* \"#utility.yul\":1946:2215   */\ntag_30:\n    /* \"#utility.yul\":2056:2095   */\n  tag_60\n    /* \"#utility.yul\":2087:2094   */\n  dup4\n    /* \"#utility.yul\":2056:2095   */\n  tag_28\n  jump\t// in\ntag_60:\n    /* \"#utility.yul\":2117:2208   */\n  tag_61\n    /* \"#utility.yul\":2166:2207   */\n  tag_62\n    /* \"#utility.yul\":2190:2206   */\n  dup3\n    /* \"#utility.yul\":2166:2207   */\n  tag_29\n  jump\t// in\ntag_62:\n    /* \"#utility.yul\":2158:2164   */\n  dup5\n    /* \"#utility.yul\":2151:2155   */\n  dup5\n    /* \"#utility.yul\":2145:2156   */\n  sload\n    /* \"#utility.yul\":2117:2208   */\n  tag_25\n  jump\t// in\ntag_61:\n    /* \"#utility.yul\":2111:2115   */\n  dup3\n    /* \"#utility.yul\":2104:2209   */\n  sstore\n    /* \"#utility.yul\":2022:2215   */\n  pop\n    /* \"#utility.yul\":1946:2215   */\n  pop\n  pop\n  pop\n  jump\t// out\n    /* \"#utility.yul\":2221:2294   */\ntag_31:\n    /* \"#utility.yul\":2266:2269   */\n  0x00\n    /* \"#utility.yul\":2221:2294   */\n  swap1\n  jump\t// out\n    /* \"#utility.yul\":2300:2489   */\ntag_32:\n    /* \"#utility.yul\":2377:2409   */\n  tag_65\n  tag_31\n  jump\t// in\ntag_65:\n    /* \"#utility.yul\":2418:2483   */\n  tag_66\n    /* \"#utility.yul\":2476:2482   */\n  dup2\n    /* \"#utility.yul\":2468:2474   */\n  dup5\n    /* \"#utility.yul\":2462:2466   */\n  dup5\n    /* \"#utility.yul\":2418:2483   */\n  tag_30\n  jump\t// in\ntag_66:\n    /* \"#utility.yul\":2353:2489   */\n  pop\n    /* \"#utility.yul\":2300:2489   */\n  pop\n  pop\n  jump\t// out\n    /* \"#utility.yul\":2495:2681   */\ntag_33:\n    /* \"#utility.yul\":2555:2675   */\ntag_68:\n    /* \"#utility.yul\":2572:2575   */\n  dup2\n    /* \"#utility.yul\":2565:2570   */\n  dup2\n    /* \"#utility.yul\":2562:2576   */\n  lt\n    /* \"#utility.yul\":2555:2675   */\n  iszero\n  tag_70\n  jumpi\n    /* \"#utility.yul\":2626:2665   */\n  tag_71\n    /* \"#utility.yul\":2663:2664   */\n  0x00\n    /* \"#utility.yul\":2656:2661   */\n  dup3\n    /* \"#utility.yul\":2626:2665   */\n  tag_32\n  jump\t// in\ntag_71:\n    /* \"#utility.yul\":2599:2600   */\n  0x01\n    /* \"#utility.yul\":2592:2597   */\n  dup2\n    /* \"#utility.yul\":2588:2601   */\n  add\n    /* \"#utility.yul\":2579:2601   */\n  swap1\n  pop\n    /* \"#utility.yul\":2555:2675   */\n  jump(tag_68)\ntag_70:\n    /* \"#utility.yul\":2495:2681   */\n  pop\n  pop\n  jump\t// out\n    /* \"#utility.yul\":2687:3230   */\ntag_34:\n    /* \"#utility.yul\":2788:2790   */\n  0x1f\n    /* \"#utility.yul\":2783:2786   */\n  dup3\n    /* \"#utility.yul\":2780:2791   */\n  gt\n    /* \"#utility.yul\":2777:3223   */\n  iszero\n  tag_73\n  jumpi\n    /* \"#utility.yul\":2822:2860   */\n  tag_74\n    /* \"#utility.yul\":2854:2859   */\n  dup2\n    /* \"#utility.yul\":2822:2860   */\n  tag_22\n  jump\t// in\ntag_74:\n    /* \"#utility.yul\":2906:2935   */\n  tag_75\n    /* \"#utility.yul\":2924:2934   */\n  dup5\n    /* \"#utility.yul\":2906:2935   */\n  tag_23\n  jump\t// in\ntag_75:\n    /* \"#utility.yul\":2896:2904   */\n  dup2\n    /* \"#utility.yul\":2892:2936   */\n  add\n    /* \"#utility.yul\":3089:3091   */\n  0x20\n    /* \"#utility.yul\":3077:3087   */\n  dup6\n    /* \"#utility.yul\":3074:3092   */\n  lt\n    /* \"#utility.yul\":3071:3120   */\n  iszero\n  tag_76\n  jumpi\n    /* \"#utility.yul\":3110:3118   */\n  dup2\n    /* \"#utility.yul\":3095:3118   */\n  swap1\n  pop\n    /* \"#utility.yul\":3071:3120   */\ntag_76:\n    /* \"#utility.yul\":3133:3213   */\n  tag_77\n    /* \"#utility.yul\":3189:3211   */\n  tag_78\n    /* \"#utility.yul\":3207:3210   */\n  dup6\n    /* \"#utility.yul\":3189:3211   */\n  tag_23\n  jump\t// in\ntag_78:\n    /* \"#utility.yul\":3179:3187   */\n  dup4\n    /* \"#utility.yul\":3175:3212   */\n  add\n    /* \"#utility.yul\":3162:3173   */\n  dup3\n    /* \"#utility.yul\":3133:3213   */\n  tag_33\n  jump\t// in\ntag_77:\n    /* \"#utility.yul\":2792:3223   */\n  pop\n  pop\n    /* \"#utility.yul\":2777:3223   */\ntag_73:\n    /* \"#utility.yul\":2687:3230   */\n  pop\n  pop\n  pop\n  jump\t// out\n    /* \"#utility.yul\":3236:3353   */\ntag_35:\n    /* \"#utility.yul\":3290:3298   */\n  0x00\n    /* \"#utility.yul\":3340:3345   */\n  dup3\n    /* \"#utility.yul\":3334:3338   */\n  dup3\n    /* \"#utility.yul\":3330:3346   */\n  shr\n    /* \"#utility.yul\":3309:3346   */\n  swap1\n  pop\n    /* \"#utility.yul\":3236:3353   */\n  swap3\n  swap2\n  pop\n  pop\n  jump\t// out\n    /* \"#utility.yul\":3359:3528   */\ntag_36:\n    /* \"#utility.yul\":3403:3409   */\n  0x00\n    /* \"#utility.yul\":3436:3487   */\n  tag_81\n    /* \"#utility.yul\":3484:3485   */\n  0x00\n    /* \"#utility.yul\":3480:3486   */\n  not\n    /* \"#utility.yul\":3472:3477   */\n  dup5\n    /* \"#utility.yul\":3469:3470   */\n  0x08\n    /* \"#utility.yul\":3465:3478   */\n  mul\n    /* \"#utility.yul\":3436:3487   */\n  tag_35\n  jump\t// in\ntag_81:\n    /* \"#utility.yul\":3432:3488   */\n  not\n    /* \"#utility.yul\":3517:3521   */\n  dup1\n    /* \"#utility.yul\":3511:3515   */\n  dup4\n    /* \"#utility.yul\":3507:3522   */\n  and\n    /* \"#utility.yul\":3497:3522   */\n  swap2\n  pop\n    /* \"#utility.yul\":3410:3528   */\n  pop\n    /* \"#utility.yul\":3359:3528   */\n  swap3\n  swap2\n  pop\n  pop\n  jump\t// out\n    /* \"#utility.yul\":3533:3828   */\ntag_37:\n    /* \"#utility.yul\":3609:3613   */\n  0x00\n    /* \"#utility.yul\":3755:3784   */\n  tag_83\n    /* \"#utility.yul\":3780:3783   */\n  dup4\n    /* \"#utility.yul\":3774:3778   */\n  dup4\n    /* \"#utility.yul\":3755:3784   */\n  tag_36\n  jump\t// in\ntag_83:\n    /* \"#utility.yul\":3747:3784   */\n  swap2\n  pop\n    /* \"#utility.yul\":3817:3820   */\n  dup3\n    /* \"#utility.yul\":3814:3815   */\n  0x02\n    /* \"#utility.yul\":3810:3821   */\n  mul\n    /* \"#utility.yul\":3804:3808   */\n  dup3\n    /* \"#utility.yul\":3801:3822   */\n  or\n    /* \"#utility.yul\":3793:3822   */\n  swap1\n  pop\n    /* \"#utility.yul\":3533:3828   */\n  swap3\n  swap2\n  pop\n  pop\n  jump\t// out\n    /* \"#utility.yul\":3833:5228   */\ntag_7:\n    /* \"#utility.yul\":3950:3987   */\n  tag_85\n    /* \"#utility.yul\":3983:3986   */\n  dup3\n    /* \"#utility.yul\":3950:3987   */\n  tag_18\n  jump\t// in\ntag_85:\n    /* \"#utility.yul\":4052:4070   */\n  0xffffffffffffffff\n    /* \"#utility.yul\":4044:4050   */\n  dup2\n    /* \"#utility.yul\":4041:4071   */\n  gt\n    /* \"#utility.yul\":4038:4094   */\n  iszero\n  tag_86\n  jumpi\n    /* \"#utility.yul\":4074:4092   */\n  tag_87\n  tag_19\n  jump\t// in\ntag_87:\n    /* \"#utility.yul\":4038:4094   */\ntag_86:\n    /* \"#utility.yul\":4118:4156   */\n  tag_88\n    /* \"#utility.yul\":4150:4154   */\n  dup3\n    /* \"#utility.yul\":4144:4155   */\n  sload\n    /* \"#utility.yul\":4118:4156   */\n  tag_21\n  jump\t// in\ntag_88:\n    /* \"#utility.yul\":4203:4270   */\n  tag_89\n    /* \"#utility.yul\":4263:4269   */\n  dup3\n    /* \"#utility.yul\":4255:4261   */\n  dup3\n    /* \"#utility.yul\":4249:4253   */\n  dup6\n    /* \"#utility.yul\":4203:4270   */\n  tag_34\n  jump\t// in\ntag_89:\n    /* \"#utility.yul\":4297:4298   */\n  0x00\n    /* \"#utility.yul\":4321:4325   */\n  0x20\n    /* \"#utility.yul\":4308:4325   */\n  swap1\n  pop\n    /* \"#utility.yul\":4353:4355   */\n  0x1f\n    /* \"#utility.yul\":4345:4351   */\n  dup4\n    /* \"#utility.yul\":4342:4356   */\n  gt\n    /* \"#utility.yul\":4370:4371   */\n  0x01\n    /* \"#utility.yul\":4365:4983   */\n  dup2\n  eq\n  tag_91\n  jumpi\n    /* \"#utility.yul\":5027:5028   */\n  0x00\n    /* \"#utility.yul\":5044:5050   */\n  dup5\n    /* \"#utility.yul\":5041:5118   */\n  iszero\n  tag_92\n  jumpi\n    /* \"#utility.yul\":5093:5102   */\n  dup3\n    /* \"#utility.yul\":5088:5091   */\n  dup8\n    /* \"#utility.yul\":5084:5103   */\n  add\n    /* \"#utility.yul\":5078:5104   */\n  mload\n    /* \"#utility.yul\":5069:5104   */\n  swap1\n  pop\n    /* \"#utility.yul\":5041:5118   */\ntag_92:\n    /* \"#utility.yul\":5144:5211   */\n  tag_93\n    /* \"#utility.yul\":5204:5210   */\n  dup6\n    /* \"#utility.yul\":5197:5202   */\n  dup3\n    /* \"#utility.yul\":5144:5211   */\n  tag_37\n  jump\t// in\ntag_93:\n    /* \"#utility.yul\":5138:5142   */\n  dup7\n    /* \"#utility.yul\":5131:5212   */\n  sstore\n    /* \"#utility.yul\":5000:5222   */\n  pop\n    /* \"#utility.yul\":4335:5222   */\n  jump(tag_90)\n    /* \"#utility.yul\":4365:4983   */\ntag_91:\n    /* \"#utility.yul\":4417:4421   */\n  0x1f\n    /* \"#utility.yul\":4413:4422   */\n  not\n    /* \"#utility.yul\":4405:4411   */\n  dup5\n    /* \"#utility.yul\":4401:4423   */\n  and\n    /* \"#utility.yul\":4451:4488   */\n  tag_94\n    /* \"#utility.yul\":4483:4487   */\n  dup7\n    /* \"#utility.yul\":4451:4488   */\n  tag_22\n  jump\t// in\ntag_94:\n    /* \"#utility.yul\":4510:4511   */\n  0x00\n    /* \"#utility.yul\":4524:4732   */\ntag_95:\n    /* \"#utility.yul\":4538:4545   */\n  dup3\n    /* \"#utility.yul\":4535:4536   */\n  dup2\n    /* \"#utility.yul\":4532:4546   */\n  lt\n    /* \"#utility.yul\":4524:4732   */\n  iszero\n  tag_97\n  jumpi\n    /* \"#utility.yul\":4617:4626   */\n  dup5\n    /* \"#utility.yul\":4612:4615   */\n  dup10\n    /* \"#utility.yul\":4608:4627   */\n  add\n    /* \"#utility.yul\":4602:4628   */\n  mload\n    /* \"#utility.yul\":4594:4600   */\n  dup3\n    /* \"#utility.yul\":4587:4629   */\n  sstore\n    /* \"#utility.yul\":4668:4669   */\n  0x01\n    /* \"#utility.yul\":4660:4666   */\n  dup3\n    /* \"#utility.yul\":4656:4670   */\n  add\n    /* \"#utility.yul\":4646:4670   */\n  swap2\n  pop\n    /* \"#utility.yul\":4715:4717   */\n  0x20\n    /* \"#utility.yul\":4704:4713   */\n  dup6\n    /* \"#utility.yul\":4700:4718   */\n  add\n    /* \"#utility.yul\":4687:4718   */\n  swap5\n  pop\n    /* \"#utility.yul\":4561:4565   */\n  0x20\n    /* \"#utility.yul\":4558:4559   */\n  dup2\n    /* \"#utility.yul\":4554:4566   */\n  add\n    /* \"#utility.yul\":4549:4566   */\n  swap1\n  pop\n    /* \"#utility.yul\":4524:4732   */\n  jump(tag_95)\ntag_97:\n    /* \"#utility.yul\":4760:4766   */\n  dup7\n    /* \"#utility.yul\":4751:4758   */\n  dup4\n    /* \"#utility.yul\":4748:4767   */\n  lt\n    /* \"#utility.yul\":4745:4924   */\n  iszero\n  tag_98\n  jumpi\n    /* \"#utility.yul\":4818:4827   */\n  dup5\n    /* \"#utility.yul\":4813:4816   */\n  dup10\n    /* \"#utility.yul\":4809:4828   */\n  add\n    /* \"#utility.yul\":4803:4829   */\n  mload\n    /* \"#utility.yul\":4861:4909   */\n  tag_99\n    /* \"#utility.yul\":4903:4907   */\n  0x1f\n    /* \"#utility.yul\":4895:4901   */\n  dup10\n    /* \"#utility.yul\":4891:4908   */\n  and\n    /* \"#utility.yul\":4880:4889   */\n  dup3\n    /* \"#utility.yul\":4861:4909   */\n  tag_36\n  jump\t// in\ntag_99:\n    /* \"#utility.yul\":4853:4859   */\n  dup4\n    /* \"#utility.yul\":4846:4910   */\n  sstore\n    /* \"#utility.yul\":4768:4924   */\n  pop\n    /* \"#utility.yul\":4745:4924   */\ntag_98:\n    /* \"#utility.yul\":4970:4971   */\n  0x01\n    /* \"#utility.yul\":4966:4967   */\n  0x02\n    /* \"#utility.yul\":4958:4964   */\n  dup9\n    /* \"#utility.yul\":4954:4968   */\n  mul\n    /* \"#utility.yul\":4950:4972   */\n  add\n    /* \"#utility.yul\":4944:4948   */\n  dup9\n    /* \"#utility.yul\":4937:4973   */\n  sstore\n    /* \"#utility.yul\":4372:4983   */\n  pop\n  pop\n  pop\n    /* \"#utility.yul\":4335:5222   */\ntag_90:\n  pop\n    /* \"#utility.yul\":3925:5228   */\n  pop\n  pop\n  pop\n    /* \"#utility.yul\":3833:5228   */\n  pop\n  pop\n  jump\t// out\n    /* \"contracts\\\\CommissionBasedNFT.sol\":18364:19637  contract CommissionBasedNFT is ERC721Enumerable, ERC721URIStorage, Ownable {... */\ntag_15:\n  dataSize(sub_0)\n  dup1\n  dataOffset(sub_0)\n  0x00\n  codecopy\n  0x00\n  return\nstop\n\nsub_0: assembly {\n        /* \"contracts\\\\CommissionBasedNFT.sol\":18364:19637  contract CommissionBasedNFT is ERC721Enumerable, ERC721URIStorage, Ownable {... */\n      mstore(0x40, 0x80)\n      callvalue\n      dup1\n      iszero\n      tag_1\n      jumpi\n      0x00\n      dup1\n      revert\n    tag_1:\n      pop\n      jumpi(tag_2, lt(calldatasize, 0x04))\n      shr(0xe0, calldataload(0x00))\n      dup1\n      0x70a08231\n      gt\n      tag_13\n      jumpi\n      dup1\n      0x70a08231\n      eq\n      tag_8\n      jumpi\n      dup1\n      0x8da5cb5b\n      eq\n      tag_9\n      jumpi\n      dup1\n      0x95d89b41\n      eq\n      tag_10\n      jumpi\n      dup1\n      0xc87b56dd\n      eq\n      tag_11\n      jumpi\n      dup1\n      0xf2fde38b\n      eq\n      tag_12\n      jumpi\n      jump(tag_2)\n    tag_13:\n      dup1\n      0x01ffc9a7\n      eq\n      tag_3\n      jumpi\n      dup1\n      0x06fdde03\n      eq\n      tag_4\n      jumpi\n      dup1\n      0x18160ddd\n      eq\n      tag_5\n      jumpi\n      dup1\n      0x2fe37501\n      eq\n      tag_6\n      jumpi\n      dup1\n      0x6352211e\n      eq\n      tag_7\n      jumpi\n    tag_2:\n      0x00\n      dup1\n      revert\n        /* \"contracts\\\\CommissionBasedNFT.sol\":19447:19634  function supportsInterface(... */\n    tag_3:\n      tag_14\n      0x04\n      dup1\n      calldatasize\n      sub\n      dup2\n      add\n      swap1\n      tag_15\n      swap2\n      swap1\n      tag_16\n      jump\t// in\n    tag_15:\n      tag_17\n      jump\t// in\n    tag_14:\n      mload(0x40)\n      tag_18\n      swap2\n      swap1\n      tag_19\n      jump\t// in\n    tag_18:\n      mload(0x40)\n      dup1\n      swap2\n      sub\n      swap1\n      return\n        /* \"contracts\\\\CommissionBasedNFT.sol\":9554:9654  function name() public view virtual override returns (string memory) {... */\n    tag_4:\n      tag_20\n      tag_21\n      jump\t// in\n    tag_20:\n      mload(0x40)\n      tag_22\n      swap2\n      swap1\n      tag_23\n      jump\t// in\n    tag_22:\n      mload(0x40)\n      dup1\n      swap2\n      sub\n      swap1\n      return\n        /* \"contracts\\\\CommissionBasedNFT.sol\":15964:16077  function totalSupply() public view virtual override returns (uint256) {... */\n    tag_5:\n      tag_24\n      tag_25\n      jump\t// in\n    tag_24:\n      mload(0x40)\n      tag_26\n      swap2\n      swap1\n      tag_27\n      jump\t// in\n    tag_26:\n      mload(0x40)\n      dup1\n      swap2\n      sub\n      swap1\n      return\n        /* \"contracts\\\\CommissionBasedNFT.sol\":18508:18828  function mint(... */\n    tag_6:\n      tag_28\n      0x04\n      dup1\n      calldatasize\n      sub\n      dup2\n      add\n      swap1\n      tag_29\n      swap2\n      swap1\n      tag_30\n      jump\t// in\n    tag_29:\n      tag_31\n      jump\t// in\n    tag_28:\n      stop\n        /* \"contracts\\\\CommissionBasedNFT.sol\":9254:9546  function ownerOf(... */\n    tag_7:\n      tag_32\n      0x04\n      dup1\n      calldatasize\n      sub\n      dup2\n      add\n      swap1\n      tag_33\n      swap2\n      swap1\n      tag_34\n      jump\t// in\n    tag_33:\n      tag_35\n      jump\t// in\n    tag_32:\n      mload(0x40)\n      tag_36\n      swap2\n      swap1\n      tag_37\n      jump\t// in\n    tag_36:\n      mload(0x40)\n      dup1\n      swap2\n      sub\n      swap1\n      return\n        /* \"contracts\\\\CommissionBasedNFT.sol\":8985:9246  function balanceOf(... */\n    tag_8:\n      tag_38\n      0x04\n      dup1\n      calldatasize\n      sub\n      dup2\n      add\n      swap1\n      tag_39\n      swap2\n      swap1\n      tag_40\n      jump\t// in\n    tag_39:\n      tag_41\n      jump\t// in\n    tag_38:\n      mload(0x40)\n      tag_42\n      swap2\n      swap1\n      tag_27\n      jump\t// in\n    tag_42:\n      mload(0x40)\n      dup1\n      swap2\n      sub\n      swap1\n      return\n        /* \"contracts\\\\CommissionBasedNFT.sol\":5952:6039  function owner() public view virtual returns (address) {... */\n    tag_9:\n      tag_43\n      tag_44\n      jump\t// in\n    tag_43:\n      mload(0x40)\n      tag_45\n      swap2\n      swap1\n      tag_37\n      jump\t// in\n    tag_45:\n      mload(0x40)\n      dup1\n      swap2\n      sub\n      swap1\n      return\n        /* \"contracts\\\\CommissionBasedNFT.sol\":9662:9766  function symbol() public view virtual override returns (string memory) {... */\n    tag_10:\n      tag_46\n      tag_47\n      jump\t// in\n    tag_46:\n      mload(0x40)\n      tag_48\n      swap2\n      swap1\n      tag_23\n      jump\t// in\n    tag_48:\n      mload(0x40)\n      dup1\n      swap2\n      sub\n      swap1\n      return\n        /* \"contracts\\\\CommissionBasedNFT.sol\":19268:19439  function tokenURI(... */\n    tag_11:\n      tag_49\n      0x04\n      dup1\n      calldatasize\n      sub\n      dup2\n      add\n      swap1\n      tag_50\n      swap2\n      swap1\n      tag_34\n      jump\t// in\n    tag_50:\n      tag_51\n      jump\t// in\n    tag_49:\n      mload(0x40)\n      tag_52\n      swap2\n      swap1\n      tag_23\n      jump\t// in\n    tag_52:\n      mload(0x40)\n      dup1\n      swap2\n      sub\n      swap1\n      return\n        /* \"contracts\\\\CommissionBasedNFT.sol\":6175:6413  function transferOwnership(address newOwner) public virtual onlyOwner {... */\n    tag_12:\n      tag_53\n      0x04\n      dup1\n      calldatasize\n      sub\n      dup2\n      add\n      swap1\n      tag_54\n      swap2\n      swap1\n      tag_40\n      jump\t// in\n    tag_54:\n      tag_55\n      jump\t// in\n    tag_53:\n      stop\n        /* \"contracts\\\\CommissionBasedNFT.sol\":19447:19634  function supportsInterface(... */\n    tag_17:\n        /* \"contracts\\\\CommissionBasedNFT.sol\":19566:19570  bool */\n      0x00\n        /* \"contracts\\\\CommissionBasedNFT.sol\":19590:19626  super.supportsInterface(interfaceId) */\n      tag_57\n        /* \"contracts\\\\CommissionBasedNFT.sol\":19614:19625  interfaceId */\n      dup3\n        /* \"contracts\\\\CommissionBasedNFT.sol\":19590:19613  super.supportsInterface */\n      tag_58\n        /* \"contracts\\\\CommissionBasedNFT.sol\":19590:19626  super.supportsInterface(interfaceId) */\n      jump\t// in\n    tag_57:\n        /* \"contracts\\\\CommissionBasedNFT.sol\":19583:19626  return super.supportsInterface(interfaceId) */\n      swap1\n      pop\n        /* \"contracts\\\\CommissionBasedNFT.sol\":19447:19634  function supportsInterface(... */\n      swap2\n      swap1\n      pop\n      jump\t// out\n        /* \"contracts\\\\CommissionBasedNFT.sol\":9554:9654  function name() public view virtual override returns (string memory) {... */\n    tag_21:\n        /* \"contracts\\\\CommissionBasedNFT.sol\":9608:9621  string memory */\n      0x60\n        /* \"contracts\\\\CommissionBasedNFT.sol\":9641:9646  _name */\n      0x00\n        /* \"contracts\\\\CommissionBasedNFT.sol\":9634:9646  return _name */\n      dup1\n      sload\n      tag_60\n      swap1\n      tag_61\n      jump\t// in\n    tag_60:\n      dup1\n      0x1f\n      add\n      0x20\n      dup1\n      swap2\n      div\n      mul\n      0x20\n      add\n      mload(0x40)\n      swap1\n      dup2\n      add\n      0x40\n      mstore\n      dup1\n      swap3\n      swap2\n      swap1\n      dup2\n      dup2\n      mstore\n      0x20\n      add\n      dup3\n      dup1\n      sload\n      tag_62\n      swap1\n      tag_61\n      jump\t// in\n    tag_62:\n      dup1\n      iszero\n      tag_63\n      jumpi\n      dup1\n      0x1f\n      lt\n      tag_64\n      jumpi\n      0x0100\n      dup1\n      dup4\n      sload\n      div\n      mul\n      dup4\n      mstore\n      swap2\n      0x20\n      add\n      swap2\n      jump(tag_63)\n    tag_64:\n      dup3\n      add\n      swap2\n      swap1\n      0x00\n      mstore\n      keccak256(0x00, 0x20)\n      swap1\n    tag_65:\n      dup2\n      sload\n      dup2\n      mstore\n      swap1\n      0x01\n      add\n      swap1\n      0x20\n      add\n      dup1\n      dup4\n      gt\n      tag_65\n      jumpi\n      dup3\n      swap1\n      sub\n      0x1f\n      and\n      dup3\n      add\n      swap2\n    tag_63:\n      pop\n      pop\n      pop\n      pop\n      pop\n      swap1\n      pop\n        /* \"contracts\\\\CommissionBasedNFT.sol\":9554:9654  function name() public view virtual override returns (string memory) {... */\n      swap1\n      jump\t// out\n        /* \"contracts\\\\CommissionBasedNFT.sol\":15964:16077  function totalSupply() public view virtual override returns (uint256) {... */\n    tag_25:\n        /* \"contracts\\\\CommissionBasedNFT.sol\":16025:16032  uint256 */\n      0x00\n        /* \"contracts\\\\CommissionBasedNFT.sol\":16052:16062  _allTokens */\n      0x08\n        /* \"contracts\\\\CommissionBasedNFT.sol\":16052:16069  _allTokens.length */\n      dup1\n      sload\n      swap1\n      pop\n        /* \"contracts\\\\CommissionBasedNFT.sol\":16045:16069  return _allTokens.length */\n      swap1\n      pop\n        /* \"contracts\\\\CommissionBasedNFT.sol\":15964:16077  function totalSupply() public view virtual override returns (uint256) {... */\n      swap1\n      jump\t// out\n        /* \"contracts\\\\CommissionBasedNFT.sol\":18508:18828  function mint(... */\n    tag_31:\n        /* \"contracts\\\\CommissionBasedNFT.sol\":6098:6110  _msgSender() */\n      tag_68\n        /* \"contracts\\\\CommissionBasedNFT.sol\":6098:6108  _msgSender */\n      tag_69\n        /* \"contracts\\\\CommissionBasedNFT.sol\":6098:6110  _msgSender() */\n      jump\t// in\n    tag_68:\n        /* \"contracts\\\\CommissionBasedNFT.sol\":6087:6110  owner() == _msgSender() */\n      0xffffffffffffffffffffffffffffffffffffffff\n      and\n        /* \"contracts\\\\CommissionBasedNFT.sol\":6087:6094  owner() */\n      tag_70\n        /* \"contracts\\\\CommissionBasedNFT.sol\":6087:6092  owner */\n      tag_44\n        /* \"contracts\\\\CommissionBasedNFT.sol\":6087:6094  owner() */\n      jump\t// in\n    tag_70:\n        /* \"contracts\\\\CommissionBasedNFT.sol\":6087:6110  owner() == _msgSender() */\n      0xffffffffffffffffffffffffffffffffffffffff\n      and\n      eq\n        /* \"contracts\\\\CommissionBasedNFT.sol\":6079:6147  require(owner() == _msgSender(), \"Ownable: caller is not the owner\") */\n      tag_71\n      jumpi\n      mload(0x40)\n      0x08c379a000000000000000000000000000000000000000000000000000000000\n      dup2\n      mstore\n      0x04\n      add\n      tag_72\n      swap1\n      tag_73\n      jump\t// in\n    tag_72:\n      mload(0x40)\n      dup1\n      swap2\n      sub\n      swap1\n      revert\n    tag_71:\n        /* \"contracts\\\\CommissionBasedNFT.sol\":18673:18679  uint i */\n      0x00\n        /* \"contracts\\\\CommissionBasedNFT.sol\":18668:18821  for (uint i = 0; i < _users.length; i++) {... */\n    tag_75:\n        /* \"contracts\\\\CommissionBasedNFT.sol\":18689:18695  _users */\n      dup7\n      dup7\n        /* \"contracts\\\\CommissionBasedNFT.sol\":18689:18702  _users.length */\n      swap1\n      pop\n        /* \"contracts\\\\CommissionBasedNFT.sol\":18685:18686  i */\n      dup2\n        /* \"contracts\\\\CommissionBasedNFT.sol\":18685:18702  i < _users.length */\n      lt\n        /* \"contracts\\\\CommissionBasedNFT.sol\":18668:18821  for (uint i = 0; i < _users.length; i++) {... */\n      iszero\n      tag_76\n      jumpi\n        /* \"contracts\\\\CommissionBasedNFT.sol\":18724:18758  _safeMint(_users[i], _tokenIds[i]) */\n      tag_78\n        /* \"contracts\\\\CommissionBasedNFT.sol\":18734:18740  _users */\n      dup8\n      dup8\n        /* \"contracts\\\\CommissionBasedNFT.sol\":18741:18742  i */\n      dup4\n        /* \"contracts\\\\CommissionBasedNFT.sol\":18734:18743  _users[i] */\n      dup2\n      dup2\n      lt\n      tag_79\n      jumpi\n      tag_80\n      tag_81\n      jump\t// in\n    tag_80:\n    tag_79:\n      swap1\n      pop\n      0x20\n      mul\n      add\n      0x20\n      dup2\n      add\n      swap1\n      tag_82\n      swap2\n      swap1\n      tag_40\n      jump\t// in\n    tag_82:\n        /* \"contracts\\\\CommissionBasedNFT.sol\":18745:18754  _tokenIds */\n      dup7\n      dup7\n        /* \"contracts\\\\CommissionBasedNFT.sol\":18755:18756  i */\n      dup5\n        /* \"contracts\\\\CommissionBasedNFT.sol\":18745:18757  _tokenIds[i] */\n      dup2\n      dup2\n      lt\n      tag_83\n      jumpi\n      tag_84\n      tag_81\n      jump\t// in\n    tag_84:\n    tag_83:\n      swap1\n      pop\n      0x20\n      mul\n      add\n      calldataload\n        /* \"contracts\\\\CommissionBasedNFT.sol\":18724:18733  _safeMint */\n      tag_85\n        /* \"contracts\\\\CommissionBasedNFT.sol\":18724:18758  _safeMint(_users[i], _tokenIds[i]) */\n      jump\t// in\n    tag_78:\n        /* \"contracts\\\\CommissionBasedNFT.sol\":18773:18809  _setTokenURI(_tokenIds[i], _uris[i]) */\n      tag_86\n        /* \"contracts\\\\CommissionBasedNFT.sol\":18786:18795  _tokenIds */\n      dup6\n      dup6\n        /* \"contracts\\\\CommissionBasedNFT.sol\":18796:18797  i */\n      dup4\n        /* \"contracts\\\\CommissionBasedNFT.sol\":18786:18798  _tokenIds[i] */\n      dup2\n      dup2\n      lt\n      tag_87\n      jumpi\n      tag_88\n      tag_81\n      jump\t// in\n    tag_88:\n    tag_87:\n      swap1\n      pop\n      0x20\n      mul\n      add\n      calldataload\n        /* \"contracts\\\\CommissionBasedNFT.sol\":18800:18805  _uris */\n      dup5\n      dup5\n        /* \"contracts\\\\CommissionBasedNFT.sol\":18806:18807  i */\n      dup5\n        /* \"contracts\\\\CommissionBasedNFT.sol\":18800:18808  _uris[i] */\n      dup2\n      dup2\n      lt\n      tag_89\n      jumpi\n      tag_90\n      tag_81\n      jump\t// in\n    tag_90:\n    tag_89:\n      swap1\n      pop\n      0x20\n      mul\n      dup2\n      add\n      swap1\n      tag_91\n      swap2\n      swap1\n      tag_92\n      jump\t// in\n    tag_91:\n        /* \"contracts\\\\CommissionBasedNFT.sol\":18773:18809  _setTokenURI(_tokenIds[i], _uris[i]) */\n      dup1\n      dup1\n      0x1f\n      add\n      0x20\n      dup1\n      swap2\n      div\n      mul\n      0x20\n      add\n      mload(0x40)\n      swap1\n      dup2\n      add\n      0x40\n      mstore\n      dup1\n      swap4\n      swap3\n      swap2\n      swap1\n      dup2\n      dup2\n      mstore\n      0x20\n      add\n      dup4\n      dup4\n      dup1\n      dup3\n      dup5\n      calldatacopy\n      0x00\n      dup2\n      dup5\n      add\n      mstore\n      not(0x1f)\n      0x1f\n      dup3\n      add\n      and\n      swap1\n      pop\n      dup1\n      dup4\n      add\n      swap3\n      pop\n      pop\n      pop\n      pop\n      pop\n      pop\n      pop\n        /* \"contracts\\\\CommissionBasedNFT.sol\":18773:18785  _setTokenURI */\n      tag_93\n        /* \"contracts\\\\CommissionBasedNFT.sol\":18773:18809  _setTokenURI(_tokenIds[i], _uris[i]) */\n      jump\t// in\n    tag_86:\n        /* \"contracts\\\\CommissionBasedNFT.sol\":18704:18707  i++ */\n      dup1\n      dup1\n      tag_94\n      swap1\n      tag_95\n      jump\t// in\n    tag_94:\n      swap2\n      pop\n      pop\n        /* \"contracts\\\\CommissionBasedNFT.sol\":18668:18821  for (uint i = 0; i < _users.length; i++) {... */\n      jump(tag_75)\n    tag_76:\n      pop\n        /* \"contracts\\\\CommissionBasedNFT.sol\":18508:18828  function mint(... */\n      pop\n      pop\n      pop\n      pop\n      pop\n      pop\n      jump\t// out\n        /* \"contracts\\\\CommissionBasedNFT.sol\":9254:9546  function ownerOf(... */\n    tag_35:\n        /* \"contracts\\\\CommissionBasedNFT.sol\":9342:9349  address */\n      0x00\n        /* \"contracts\\\\CommissionBasedNFT.sol\":9362:9375  address owner */\n      dup1\n        /* \"contracts\\\\CommissionBasedNFT.sol\":9378:9385  _owners */\n      0x02\n        /* \"contracts\\\\CommissionBasedNFT.sol\":9378:9394  _owners[tokenId] */\n      0x00\n        /* \"contracts\\\\CommissionBasedNFT.sol\":9386:9393  tokenId */\n      dup5\n        /* \"contracts\\\\CommissionBasedNFT.sol\":9378:9394  _owners[tokenId] */\n      dup2\n      mstore\n      0x20\n      add\n      swap1\n      dup2\n      mstore\n      0x20\n      add\n      0x00\n      keccak256\n      0x00\n      swap1\n      sload\n      swap1\n      0x0100\n      exp\n      swap1\n      div\n      0xffffffffffffffffffffffffffffffffffffffff\n      and\n        /* \"contracts\\\\CommissionBasedNFT.sol\":9362:9394  address owner = _owners[tokenId] */\n      swap1\n      pop\n        /* \"contracts\\\\CommissionBasedNFT.sol\":9444:9445  0 */\n      0x00\n        /* \"contracts\\\\CommissionBasedNFT.sol\":9427:9446  owner != address(0) */\n      0xffffffffffffffffffffffffffffffffffffffff\n      and\n        /* \"contracts\\\\CommissionBasedNFT.sol\":9427:9432  owner */\n      dup2\n        /* \"contracts\\\\CommissionBasedNFT.sol\":9427:9446  owner != address(0) */\n      0xffffffffffffffffffffffffffffffffffffffff\n      and\n      sub\n        /* \"contracts\\\\CommissionBasedNFT.sol\":9405:9515  require(... */\n      tag_97\n      jumpi\n      mload(0x40)\n      0x08c379a000000000000000000000000000000000000000000000000000000000\n      dup2\n      mstore\n      0x04\n      add\n      tag_98\n      swap1\n      tag_99\n      jump\t// in\n    tag_98:\n      mload(0x40)\n      dup1\n      swap2\n      sub\n      swap1\n      revert\n    tag_97:\n        /* \"contracts\\\\CommissionBasedNFT.sol\":9533:9538  owner */\n      dup1\n        /* \"contracts\\\\CommissionBasedNFT.sol\":9526:9538  return owner */\n      swap2\n      pop\n      pop\n        /* \"contracts\\\\CommissionBasedNFT.sol\":9254:9546  function ownerOf(... */\n      swap2\n      swap1\n      pop\n      jump\t// out\n        /* \"contracts\\\\CommissionBasedNFT.sol\":8985:9246  function balanceOf(... */\n    tag_41:\n        /* \"contracts\\\\CommissionBasedNFT.sol\":9073:9080  uint256 */\n      0x00\n        /* \"contracts\\\\CommissionBasedNFT.sol\":9132:9133  0 */\n      dup1\n        /* \"contracts\\\\CommissionBasedNFT.sol\":9115:9134  owner != address(0) */\n      0xffffffffffffffffffffffffffffffffffffffff\n      and\n        /* \"contracts\\\\CommissionBasedNFT.sol\":9115:9120  owner */\n      dup3\n        /* \"contracts\\\\CommissionBasedNFT.sol\":9115:9134  owner != address(0) */\n      0xffffffffffffffffffffffffffffffffffffffff\n      and\n      sub\n        /* \"contracts\\\\CommissionBasedNFT.sol\":9093:9204  require(... */\n      tag_101\n      jumpi\n      mload(0x40)\n      0x08c379a000000000000000000000000000000000000000000000000000000000\n      dup2\n      mstore\n      0x04\n      add\n      tag_102\n      swap1\n      tag_103\n      jump\t// in\n    tag_102:\n      mload(0x40)\n      dup1\n      swap2\n      sub\n      swap1\n      revert\n    tag_101:\n        /* \"contracts\\\\CommissionBasedNFT.sol\":9222:9231  _balances */\n      0x03\n        /* \"contracts\\\\CommissionBasedNFT.sol\":9222:9238  _balances[owner] */\n      0x00\n        /* \"contracts\\\\CommissionBasedNFT.sol\":9232:9237  owner */\n      dup4\n        /* \"contracts\\\\CommissionBasedNFT.sol\":9222:9238  _balances[owner] */\n      0xffffffffffffffffffffffffffffffffffffffff\n      and\n      0xffffffffffffffffffffffffffffffffffffffff\n      and\n      dup2\n      mstore\n      0x20\n      add\n      swap1\n      dup2\n      mstore\n      0x20\n      add\n      0x00\n      keccak256\n      sload\n        /* \"contracts\\\\CommissionBasedNFT.sol\":9215:9238  return _balances[owner] */\n      swap1\n      pop\n        /* \"contracts\\\\CommissionBasedNFT.sol\":8985:9246  function balanceOf(... */\n      swap2\n      swap1\n      pop\n      jump\t// out\n        /* \"contracts\\\\CommissionBasedNFT.sol\":5952:6039  function owner() public view virtual returns (address) {... */\n    tag_44:\n        /* \"contracts\\\\CommissionBasedNFT.sol\":5998:6005  address */\n      0x00\n        /* \"contracts\\\\CommissionBasedNFT.sol\":6025:6031  _owner */\n      0x0b\n      0x00\n      swap1\n      sload\n      swap1\n      0x0100\n      exp\n      swap1\n      div\n      0xffffffffffffffffffffffffffffffffffffffff\n      and\n        /* \"contracts\\\\CommissionBasedNFT.sol\":6018:6031  return _owner */\n      swap1\n      pop\n        /* \"contracts\\\\CommissionBasedNFT.sol\":5952:6039  function owner() public view virtual returns (address) {... */\n      swap1\n      jump\t// out\n        /* \"contracts\\\\CommissionBasedNFT.sol\":9662:9766  function symbol() public view virtual override returns (string memory) {... */\n    tag_47:\n        /* \"contracts\\\\CommissionBasedNFT.sol\":9718:9731  string memory */\n      0x60\n        /* \"contracts\\\\CommissionBasedNFT.sol\":9751:9758  _symbol */\n      0x01\n        /* \"contracts\\\\CommissionBasedNFT.sol\":9744:9758  return _symbol */\n      dup1\n      sload\n      tag_106\n      swap1\n      tag_61\n      jump\t// in\n    tag_106:\n      dup1\n      0x1f\n      add\n      0x20\n      dup1\n      swap2\n      div\n      mul\n      0x20\n      add\n      mload(0x40)\n      swap1\n      dup2\n      add\n      0x40\n      mstore\n      dup1\n      swap3\n      swap2\n      swap1\n      dup2\n      dup2\n      mstore\n      0x20\n      add\n      dup3\n      dup1\n      sload\n      tag_107\n      swap1\n      tag_61\n      jump\t// in\n    tag_107:\n      dup1\n      iszero\n      tag_108\n      jumpi\n      dup1\n      0x1f\n      lt\n      tag_109\n      jumpi\n      0x0100\n      dup1\n      dup4\n      sload\n      div\n      mul\n      dup4\n      mstore\n      swap2\n      0x20\n      add\n      swap2\n      jump(tag_108)\n    tag_109:\n      dup3\n      add\n      swap2\n      swap1\n      0x00\n      mstore\n      keccak256(0x00, 0x20)\n      swap1\n    tag_110:\n      dup2\n      sload\n      dup2\n      mstore\n      swap1\n      0x01\n      add\n      swap1\n      0x20\n      add\n      dup1\n      dup4\n      gt\n      tag_110\n      jumpi\n      dup3\n      swap1\n      sub\n      0x1f\n      and\n      dup3\n      add\n      swap2\n    tag_108:\n      pop\n      pop\n      pop\n      pop\n      pop\n      swap1\n      pop\n        /* \"contracts\\\\CommissionBasedNFT.sol\":9662:9766  function symbol() public view virtual override returns (string memory) {... */\n      swap1\n      jump\t// out\n        /* \"contracts\\\\CommissionBasedNFT.sol\":19268:19439  function tokenURI(... */\n    tag_51:\n        /* \"contracts\\\\CommissionBasedNFT.sol\":19375:19388  string memory */\n      0x60\n        /* \"contracts\\\\CommissionBasedNFT.sol\":19408:19431  super.tokenURI(tokenId) */\n      tag_112\n        /* \"contracts\\\\CommissionBasedNFT.sol\":19423:19430  tokenId */\n      dup3\n        /* \"contracts\\\\CommissionBasedNFT.sol\":19408:19422  super.tokenURI */\n      tag_113\n        /* \"contracts\\\\CommissionBasedNFT.sol\":19408:19431  super.tokenURI(tokenId) */\n      jump\t// in\n    tag_112:\n        /* \"contracts\\\\CommissionBasedNFT.sol\":19401:19431  return super.tokenURI(tokenId) */\n      swap1\n      pop\n        /* \"contracts\\\\CommissionBasedNFT.sol\":19268:19439  function tokenURI(... */\n      swap2\n      swap1\n      pop\n      jump\t// out\n        /* \"contracts\\\\CommissionBasedNFT.sol\":6175:6413  function transferOwnership(address newOwner) public virtual onlyOwner {... */\n    tag_55:\n        /* \"contracts\\\\CommissionBasedNFT.sol\":6098:6110  _msgSender() */\n      tag_115\n        /* \"contracts\\\\CommissionBasedNFT.sol\":6098:6108  _msgSender */\n      tag_69\n        /* \"contracts\\\\CommissionBasedNFT.sol\":6098:6110  _msgSender() */\n      jump\t// in\n    tag_115:\n        /* \"contracts\\\\CommissionBasedNFT.sol\":6087:6110  owner() == _msgSender() */\n      0xffffffffffffffffffffffffffffffffffffffff\n      and\n        /* \"contracts\\\\CommissionBasedNFT.sol\":6087:6094  owner() */\n      tag_116\n        /* \"contracts\\\\CommissionBasedNFT.sol\":6087:6092  owner */\n      tag_44\n        /* \"contracts\\\\CommissionBasedNFT.sol\":6087:6094  owner() */\n      jump\t// in\n    tag_116:\n        /* \"contracts\\\\CommissionBasedNFT.sol\":6087:6110  owner() == _msgSender() */\n      0xffffffffffffffffffffffffffffffffffffffff\n      and\n      eq\n        /* \"contracts\\\\CommissionBasedNFT.sol\":6079:6147  require(owner() == _msgSender(), \"Ownable: caller is not the owner\") */\n      tag_117\n      jumpi\n      mload(0x40)\n      0x08c379a000000000000000000000000000000000000000000000000000000000\n      dup2\n      mstore\n      0x04\n      add\n      tag_118\n      swap1\n      tag_73\n      jump\t// in\n    tag_118:\n      mload(0x40)\n      dup1\n      swap2\n      sub\n      swap1\n      revert\n    tag_117:\n        /* \"contracts\\\\CommissionBasedNFT.sol\":6298:6299  0 */\n      0x00\n        /* \"contracts\\\\CommissionBasedNFT.sol\":6278:6300  newOwner != address(0) */\n      0xffffffffffffffffffffffffffffffffffffffff\n      and\n        /* \"contracts\\\\CommissionBasedNFT.sol\":6278:6286  newOwner */\n      dup2\n        /* \"contracts\\\\CommissionBasedNFT.sol\":6278:6300  newOwner != address(0) */\n      0xffffffffffffffffffffffffffffffffffffffff\n      and\n      sub\n        /* \"contracts\\\\CommissionBasedNFT.sol\":6256:6366  require(... */\n      tag_120\n      jumpi\n      mload(0x40)\n      0x08c379a000000000000000000000000000000000000000000000000000000000\n      dup2\n      mstore\n      0x04\n      add\n      tag_121\n      swap1\n      tag_122\n      jump\t// in\n    tag_121:\n      mload(0x40)\n      dup1\n      swap2\n      sub\n      swap1\n      revert\n    tag_120:\n        /* \"contracts\\\\CommissionBasedNFT.sol\":6377:6405  _transferOwnership(newOwner) */\n      tag_123\n        /* \"contracts\\\\CommissionBasedNFT.sol\":6396:6404  newOwner */\n      dup2\n        /* \"contracts\\\\CommissionBasedNFT.sol\":6377:6395  _transferOwnership */\n      tag_124\n        /* \"contracts\\\\CommissionBasedNFT.sol\":6377:6405  _transferOwnership(newOwner) */\n      jump\t// in\n    tag_123:\n        /* \"contracts\\\\CommissionBasedNFT.sol\":6175:6413  function transferOwnership(address newOwner) public virtual onlyOwner {... */\n      pop\n      jump\t// out\n        /* \"contracts\\\\CommissionBasedNFT.sol\":15690:15956  function supportsInterface(... */\n    tag_58:\n        /* \"contracts\\\\CommissionBasedNFT.sol\":15808:15812  bool */\n      0x00\n        /* \"contracts\\\\CommissionBasedNFT.sol\":15860:15895  type(IERC721Enumerable).interfaceId */\n      0x18160ddd00000000000000000000000000000000000000000000000000000000\n        /* \"contracts\\\\CommissionBasedNFT.sol\":15845:15895  interfaceId == type(IERC721Enumerable).interfaceId */\n      not(0xffffffffffffffffffffffffffffffffffffffffffffffffffffffff)\n      and\n        /* \"contracts\\\\CommissionBasedNFT.sol\":15845:15856  interfaceId */\n      dup3\n        /* \"contracts\\\\CommissionBasedNFT.sol\":15845:15895  interfaceId == type(IERC721Enumerable).interfaceId */\n      not(0xffffffffffffffffffffffffffffffffffffffffffffffffffffffff)\n      and\n      eq\n        /* \"contracts\\\\CommissionBasedNFT.sol\":15845:15948  interfaceId == type(IERC721Enumerable).interfaceId ||... */\n      dup1\n      tag_126\n      jumpi\n      pop\n        /* \"contracts\\\\CommissionBasedNFT.sol\":15912:15948  super.supportsInterface(interfaceId) */\n      tag_127\n        /* \"contracts\\\\CommissionBasedNFT.sol\":15936:15947  interfaceId */\n      dup3\n        /* \"contracts\\\\CommissionBasedNFT.sol\":15912:15935  super.supportsInterface */\n      tag_128\n        /* \"contracts\\\\CommissionBasedNFT.sol\":15912:15948  super.supportsInterface(interfaceId) */\n      jump\t// in\n    tag_127:\n        /* \"contracts\\\\CommissionBasedNFT.sol\":15845:15948  interfaceId == type(IERC721Enumerable).interfaceId ||... */\n    tag_126:\n        /* \"contracts\\\\CommissionBasedNFT.sol\":15825:15948  return... */\n      swap1\n      pop\n        /* \"contracts\\\\CommissionBasedNFT.sol\":15690:15956  function supportsInterface(... */\n      swap2\n      swap1\n      pop\n      jump\t// out\n        /* \"contracts\\\\CommissionBasedNFT.sol\":5473:5571  function _msgSender() internal view virtual returns (address) {... */\n    tag_69:\n        /* \"contracts\\\\CommissionBasedNFT.sol\":5526:5533  address */\n      0x00\n        /* \"contracts\\\\CommissionBasedNFT.sol\":5553:5563  msg.sender */\n      caller\n        /* \"contracts\\\\CommissionBasedNFT.sol\":5546:5563  return msg.sender */\n      swap1\n      pop\n        /* \"contracts\\\\CommissionBasedNFT.sol\":5473:5571  function _msgSender() internal view virtual returns (address) {... */\n      swap1\n      jump\t// out\n        /* \"contracts\\\\CommissionBasedNFT.sol\":10453:10563  function _safeMint(address to, uint256 tokenId) internal virtual {... */\n    tag_85:\n        /* \"contracts\\\\CommissionBasedNFT.sol\":10529:10555  _safeMint(to, tokenId, \"\") */\n      tag_131\n        /* \"contracts\\\\CommissionBasedNFT.sol\":10539:10541  to */\n      dup3\n        /* \"contracts\\\\CommissionBasedNFT.sol\":10543:10550  tokenId */\n      dup3\n        /* \"contracts\\\\CommissionBasedNFT.sol\":10529:10555  _safeMint(to, tokenId, \"\") */\n      mload(0x40)\n      dup1\n      0x20\n      add\n      0x40\n      mstore\n      dup1\n      0x00\n      dup2\n      mstore\n      pop\n        /* \"contracts\\\\CommissionBasedNFT.sol\":10529:10538  _safeMint */\n      tag_132\n        /* \"contracts\\\\CommissionBasedNFT.sol\":10529:10555  _safeMint(to, tokenId, \"\") */\n      jump\t// in\n    tag_131:\n        /* \"contracts\\\\CommissionBasedNFT.sol\":10453:10563  function _safeMint(address to, uint256 tokenId) internal virtual {... */\n      pop\n      pop\n      jump\t// out\n        /* \"contracts\\\\CommissionBasedNFT.sol\":14883:15162  function _setTokenURI(... */\n    tag_93:\n        /* \"contracts\\\\CommissionBasedNFT.sol\":15022:15038  _exists(tokenId) */\n      tag_134\n        /* \"contracts\\\\CommissionBasedNFT.sol\":15030:15037  tokenId */\n      dup3\n        /* \"contracts\\\\CommissionBasedNFT.sol\":15022:15029  _exists */\n      tag_135\n        /* \"contracts\\\\CommissionBasedNFT.sol\":15022:15038  _exists(tokenId) */\n      jump\t// in\n    tag_134:\n        /* \"contracts\\\\CommissionBasedNFT.sol\":15000:15112  require(... */\n      tag_136\n      jumpi\n      mload(0x40)\n      0x08c379a000000000000000000000000000000000000000000000000000000000\n      dup2\n      mstore\n      0x04\n      add\n      tag_137\n      swap1\n      tag_138\n      jump\t// in\n    tag_137:\n      mload(0x40)\n      dup1\n      swap2\n      sub\n      swap1\n      revert\n    tag_136:\n        /* \"contracts\\\\CommissionBasedNFT.sol\":15145:15154  _tokenURI */\n      dup1\n        /* \"contracts\\\\CommissionBasedNFT.sol\":15123:15133  _tokenURIs */\n      0x0a\n        /* \"contracts\\\\CommissionBasedNFT.sol\":15123:15142  _tokenURIs[tokenId] */\n      0x00\n        /* \"contracts\\\\CommissionBasedNFT.sol\":15134:15141  tokenId */\n      dup5\n        /* \"contracts\\\\CommissionBasedNFT.sol\":15123:15142  _tokenURIs[tokenId] */\n      dup2\n      mstore\n      0x20\n      add\n      swap1\n      dup2\n      mstore\n      0x20\n      add\n      0x00\n      keccak256\n        /* \"contracts\\\\CommissionBasedNFT.sol\":15123:15154  _tokenURIs[tokenId] = _tokenURI */\n      swap1\n      dup2\n      tag_139\n      swap2\n      swap1\n      tag_140\n      jump\t// in\n    tag_139:\n      pop\n        /* \"contracts\\\\CommissionBasedNFT.sol\":14883:15162  function _setTokenURI(... */\n      pop\n      pop\n      jump\t// out\n        /* \"contracts\\\\CommissionBasedNFT.sol\":14290:14875  function tokenURI(... */\n    tag_113:\n        /* \"contracts\\\\CommissionBasedNFT.sol\":14379:14392  string memory */\n      0x60\n        /* \"contracts\\\\CommissionBasedNFT.sol\":14427:14443  _exists(tokenId) */\n      tag_142\n        /* \"contracts\\\\CommissionBasedNFT.sol\":14435:14442  tokenId */\n      dup3\n        /* \"contracts\\\\CommissionBasedNFT.sol\":14427:14434  _exists */\n      tag_135\n        /* \"contracts\\\\CommissionBasedNFT.sol\":14427:14443  _exists(tokenId) */\n      jump\t// in\n    tag_142:\n        /* \"contracts\\\\CommissionBasedNFT.sol\":14405:14520  require(... */\n      tag_143\n      jumpi\n      mload(0x40)\n      0x08c379a000000000000000000000000000000000000000000000000000000000\n      dup2\n      mstore\n      0x04\n      add\n      tag_144\n      swap1\n      tag_145\n      jump\t// in\n    tag_144:\n      mload(0x40)\n      dup1\n      swap2\n      sub\n      swap1\n      revert\n    tag_143:\n        /* \"contracts\\\\CommissionBasedNFT.sol\":14533:14556  string memory _tokenURI */\n      0x00\n        /* \"contracts\\\\CommissionBasedNFT.sol\":14559:14569  _tokenURIs */\n      0x0a\n        /* \"contracts\\\\CommissionBasedNFT.sol\":14559:14578  _tokenURIs[tokenId] */\n      0x00\n        /* \"contracts\\\\CommissionBasedNFT.sol\":14570:14577  tokenId */\n      dup5\n        /* \"contracts\\\\CommissionBasedNFT.sol\":14559:14578  _tokenURIs[tokenId] */\n      dup2\n      mstore\n      0x20\n      add\n      swap1\n      dup2\n      mstore\n      0x20\n      add\n      0x00\n      keccak256\n        /* \"contracts\\\\CommissionBasedNFT.sol\":14533:14578  string memory _tokenURI = _tokenURIs[tokenId] */\n      dup1\n      sload\n      tag_146\n      swap1\n      tag_61\n      jump\t// in\n    tag_146:\n      dup1\n      0x1f\n      add\n      0x20\n      dup1\n      swap2\n      div\n      mul\n      0x20\n      add\n      mload(0x40)\n      swap1\n      dup2\n      add\n      0x40\n      mstore\n      dup1\n      swap3\n      swap2\n      swap1\n      dup2\n      dup2\n      mstore\n      0x20\n      add\n      dup3\n      dup1\n      sload\n      tag_147\n      swap1\n      tag_61\n      jump\t// in\n    tag_147:\n      dup1\n      iszero\n      tag_148\n      jumpi\n      dup1\n      0x1f\n      lt\n      tag_149\n      jumpi\n      0x0100\n      dup1\n      dup4\n      sload\n      div\n      mul\n      dup4\n      mstore\n      swap2\n      0x20\n      add\n      swap2\n      jump(tag_148)\n    tag_149:\n      dup3\n      add\n      swap2\n      swap1\n      0x00\n      mstore\n      keccak256(0x00, 0x20)\n      swap1\n    tag_150:\n      dup2\n      sload\n      dup2\n      mstore\n      swap1\n      0x01\n      add\n      swap1\n      0x20\n      add\n      dup1\n      dup4\n      gt\n      tag_150\n      jumpi\n      dup3\n      swap1\n      sub\n      0x1f\n      and\n      dup3\n      add\n      swap2\n    tag_148:\n      pop\n      pop\n      pop\n      pop\n      pop\n      swap1\n      pop\n        /* \"contracts\\\\CommissionBasedNFT.sol\":14589:14607  string memory base */\n      0x00\n        /* \"contracts\\\\CommissionBasedNFT.sol\":14610:14620  _baseURI() */\n      tag_151\n        /* \"contracts\\\\CommissionBasedNFT.sol\":14610:14618  _baseURI */\n      tag_152\n        /* \"contracts\\\\CommissionBasedNFT.sol\":14610:14620  _baseURI() */\n      jump\t// in\n    tag_151:\n        /* \"contracts\\\\CommissionBasedNFT.sol\":14589:14620  string memory base = _baseURI() */\n      swap1\n      pop\n        /* \"contracts\\\\CommissionBasedNFT.sol\":14659:14660  0 */\n      0x00\n        /* \"contracts\\\\CommissionBasedNFT.sol\":14643:14647  base */\n      dup2\n        /* \"contracts\\\\CommissionBasedNFT.sol\":14637:14655  bytes(base).length */\n      mload\n        /* \"contracts\\\\CommissionBasedNFT.sol\":14637:14660  bytes(base).length == 0 */\n      sub\n        /* \"contracts\\\\CommissionBasedNFT.sol\":14633:14705  if (bytes(base).length == 0) {... */\n      tag_153\n      jumpi\n        /* \"contracts\\\\CommissionBasedNFT.sol\":14684:14693  _tokenURI */\n      dup2\n        /* \"contracts\\\\CommissionBasedNFT.sol\":14677:14693  return _tokenURI */\n      swap3\n      pop\n      pop\n      pop\n      jump(tag_141)\n        /* \"contracts\\\\CommissionBasedNFT.sol\":14633:14705  if (bytes(base).length == 0) {... */\n    tag_153:\n        /* \"contracts\\\\CommissionBasedNFT.sol\":14747:14748  0 */\n      0x00\n        /* \"contracts\\\\CommissionBasedNFT.sol\":14727:14736  _tokenURI */\n      dup3\n        /* \"contracts\\\\CommissionBasedNFT.sol\":14721:14744  bytes(_tokenURI).length */\n      mload\n        /* \"contracts\\\\CommissionBasedNFT.sol\":14721:14748  bytes(_tokenURI).length > 0 */\n      gt\n        /* \"contracts\\\\CommissionBasedNFT.sol\":14717:14825  if (bytes(_tokenURI).length > 0) {... */\n      iszero\n      tag_154\n      jumpi\n        /* \"contracts\\\\CommissionBasedNFT.sol\":14796:14800  base */\n      dup1\n        /* \"contracts\\\\CommissionBasedNFT.sol\":14802:14811  _tokenURI */\n      dup3\n        /* \"contracts\\\\CommissionBasedNFT.sol\":14779:14812  abi.encodePacked(base, _tokenURI) */\n      add(0x20, mload(0x40))\n      tag_155\n      swap3\n      swap2\n      swap1\n      tag_156\n      jump\t// in\n    tag_155:\n      mload(0x40)\n      0x20\n      dup2\n      dup4\n      sub\n      sub\n      dup2\n      mstore\n      swap1\n      0x40\n      mstore\n        /* \"contracts\\\\CommissionBasedNFT.sol\":14765:14813  return string(abi.encodePacked(base, _tokenURI)) */\n      swap3\n      pop\n      pop\n      pop\n      jump(tag_141)\n        /* \"contracts\\\\CommissionBasedNFT.sol\":14717:14825  if (bytes(_tokenURI).length > 0) {... */\n    tag_154:\n        /* \"contracts\\\\CommissionBasedNFT.sol\":14844:14867  super.tokenURI(tokenId) */\n      tag_157\n        /* \"contracts\\\\CommissionBasedNFT.sol\":14859:14866  tokenId */\n      dup5\n        /* \"contracts\\\\CommissionBasedNFT.sol\":14844:14858  super.tokenURI */\n      tag_158\n        /* \"contracts\\\\CommissionBasedNFT.sol\":14844:14867  super.tokenURI(tokenId) */\n      jump\t// in\n    tag_157:\n        /* \"contracts\\\\CommissionBasedNFT.sol\":14837:14867  return super.tokenURI(tokenId) */\n      swap3\n      pop\n      pop\n      pop\n        /* \"contracts\\\\CommissionBasedNFT.sol\":14290:14875  function tokenURI(... */\n    tag_141:\n      swap2\n      swap1\n      pop\n      jump\t// out\n        /* \"contracts\\\\CommissionBasedNFT.sol\":6421:6612  function _transferOwnership(address newOwner) internal virtual {... */\n    tag_124:\n        /* \"contracts\\\\CommissionBasedNFT.sol\":6495:6511  address oldOwner */\n      0x00\n        /* \"contracts\\\\CommissionBasedNFT.sol\":6514:6520  _owner */\n      0x0b\n      0x00\n      swap1\n      sload\n      swap1\n      0x0100\n      exp\n      swap1\n      div\n      0xffffffffffffffffffffffffffffffffffffffff\n      and\n        /* \"contracts\\\\CommissionBasedNFT.sol\":6495:6520  address oldOwner = _owner */\n      swap1\n      pop\n        /* \"contracts\\\\CommissionBasedNFT.sol\":6540:6548  newOwner */\n      dup2\n        /* \"contracts\\\\CommissionBasedNFT.sol\":6531:6537  _owner */\n      0x0b\n      0x00\n        /* \"contracts\\\\CommissionBasedNFT.sol\":6531:6548  _owner = newOwner */\n      0x0100\n      exp\n      dup2\n      sload\n      dup2\n      0xffffffffffffffffffffffffffffffffffffffff\n      mul\n      not\n      and\n      swap1\n      dup4\n      0xffffffffffffffffffffffffffffffffffffffff\n      and\n      mul\n      or\n      swap1\n      sstore\n      pop\n        /* \"contracts\\\\CommissionBasedNFT.sol\":6595:6603  newOwner */\n      dup2\n        /* \"contracts\\\\CommissionBasedNFT.sol\":6564:6604  OwnershipTransferred(oldOwner, newOwner) */\n      0xffffffffffffffffffffffffffffffffffffffff\n      and\n        /* \"contracts\\\\CommissionBasedNFT.sol\":6585:6593  oldOwner */\n      dup2\n        /* \"contracts\\\\CommissionBasedNFT.sol\":6564:6604  OwnershipTransferred(oldOwner, newOwner) */\n      0xffffffffffffffffffffffffffffffffffffffff\n      and\n      0x8be0079c531659141344cd1fd0a4f28419497f9722a3daafe3b4186f6b6457e0\n      mload(0x40)\n      mload(0x40)\n      dup1\n      swap2\n      sub\n      swap1\n      log3\n        /* \"contracts\\\\CommissionBasedNFT.sol\":6484:6612  {... */\n      pop\n        /* \"contracts\\\\CommissionBasedNFT.sol\":6421:6612  function _transferOwnership(address newOwner) internal virtual {... */\n      pop\n      jump\t// out\n        /* \"contracts\\\\CommissionBasedNFT.sol\":8656:8977  function supportsInterface(... */\n    tag_128:\n        /* \"contracts\\\\CommissionBasedNFT.sol\":8774:8778  bool */\n      0x00\n        /* \"contracts\\\\CommissionBasedNFT.sol\":8826:8851  type(IERC721).interfaceId */\n      0x13f2a32f00000000000000000000000000000000000000000000000000000000\n        /* \"contracts\\\\CommissionBasedNFT.sol\":8811:8851  interfaceId == type(IERC721).interfaceId */\n      not(0xffffffffffffffffffffffffffffffffffffffffffffffffffffffff)\n      and\n        /* \"contracts\\\\CommissionBasedNFT.sol\":8811:8822  interfaceId */\n      dup3\n        /* \"contracts\\\\CommissionBasedNFT.sol\":8811:8851  interfaceId == type(IERC721).interfaceId */\n      not(0xffffffffffffffffffffffffffffffffffffffffffffffffffffffff)\n      and\n      eq\n        /* \"contracts\\\\CommissionBasedNFT.sol\":8811:8916  interfaceId == type(IERC721).interfaceId ||... */\n      dup1\n      tag_161\n      jumpi\n      pop\n        /* \"contracts\\\\CommissionBasedNFT.sol\":8883:8916  type(IERC721Metadata).interfaceId */\n      0x5b5e139f00000000000000000000000000000000000000000000000000000000\n        /* \"contracts\\\\CommissionBasedNFT.sol\":8868:8916  interfaceId == type(IERC721Metadata).interfaceId */\n      not(0xffffffffffffffffffffffffffffffffffffffffffffffffffffffff)\n      and\n        /* \"contracts\\\\CommissionBasedNFT.sol\":8868:8879  interfaceId */\n      dup3\n        /* \"contracts\\\\CommissionBasedNFT.sol\":8868:8916  interfaceId == type(IERC721Metadata).interfaceId */\n      not(0xffffffffffffffffffffffffffffffffffffffffffffffffffffffff)\n      and\n      eq\n        /* \"contracts\\\\CommissionBasedNFT.sol\":8811:8916  interfaceId == type(IERC721).interfaceId ||... */\n    tag_161:\n        /* \"contracts\\\\CommissionBasedNFT.sol\":8811:8969  interfaceId == type(IERC721).interfaceId ||... */\n      dup1\n      tag_162\n      jumpi\n      pop\n        /* \"contracts\\\\CommissionBasedNFT.sol\":8933:8969  super.supportsInterface(interfaceId) */\n      tag_163\n        /* \"contracts\\\\CommissionBasedNFT.sol\":8957:8968  interfaceId */\n      dup3\n        /* \"contracts\\\\CommissionBasedNFT.sol\":8933:8956  super.supportsInterface */\n      tag_164\n        /* \"contracts\\\\CommissionBasedNFT.sol\":8933:8969  super.supportsInterface(interfaceId) */\n      jump\t// in\n    tag_163:\n        /* \"contracts\\\\CommissionBasedNFT.sol\":8811:8969  interfaceId == type(IERC721).interfaceId ||... */\n    tag_162:\n        /* \"contracts\\\\CommissionBasedNFT.sol\":8791:8969  return... */\n      swap1\n      pop\n        /* \"contracts\\\\CommissionBasedNFT.sol\":8656:8977  function supportsInterface(... */\n      swap2\n      swap1\n      pop\n      jump\t// out\n        /* \"contracts\\\\CommissionBasedNFT.sol\":10571:10892  function _safeMint(... */\n    tag_132:\n        /* \"contracts\\\\CommissionBasedNFT.sol\":10701:10719  _mint(to, tokenId) */\n      tag_166\n        /* \"contracts\\\\CommissionBasedNFT.sol\":10707:10709  to */\n      dup4\n        /* \"contracts\\\\CommissionBasedNFT.sol\":10711:10718  tokenId */\n      dup4\n        /* \"contracts\\\\CommissionBasedNFT.sol\":10701:10706  _mint */\n      tag_167\n        /* \"contracts\\\\CommissionBasedNFT.sol\":10701:10719  _mint(to, tokenId) */\n      jump\t// in\n    tag_166:\n        /* \"contracts\\\\CommissionBasedNFT.sol\":10752:10806  _checkOnERC721Received(address(0), to, tokenId, _data) */\n      tag_168\n        /* \"contracts\\\\CommissionBasedNFT.sol\":10783:10784  0 */\n      0x00\n        /* \"contracts\\\\CommissionBasedNFT.sol\":10787:10789  to */\n      dup5\n        /* \"contracts\\\\CommissionBasedNFT.sol\":10791:10798  tokenId */\n      dup5\n        /* \"contracts\\\\CommissionBasedNFT.sol\":10800:10805  _data */\n      dup5\n        /* \"contracts\\\\CommissionBasedNFT.sol\":10752:10774  _checkOnERC721Received */\n      tag_169\n        /* \"contracts\\\\CommissionBasedNFT.sol\":10752:10806  _checkOnERC721Received(address(0), to, tokenId, _data) */\n      jump\t// in\n    tag_168:\n        /* \"contracts\\\\CommissionBasedNFT.sol\":10730:10884  require(... */\n      tag_170\n      jumpi\n      mload(0x40)\n      0x08c379a000000000000000000000000000000000000000000000000000000000\n      dup2\n      mstore\n      0x04\n      add\n      tag_171\n      swap1\n      tag_172\n      jump\t// in\n    tag_171:\n      mload(0x40)\n      dup1\n      swap2\n      sub\n      swap1\n      revert\n    tag_170:\n        /* \"contracts\\\\CommissionBasedNFT.sol\":10571:10892  function _safeMint(... */\n      pop\n      pop\n      pop\n      jump\t// out\n        /* \"contracts\\\\CommissionBasedNFT.sol\":10318:10445  function _exists(uint256 tokenId) internal view virtual returns (bool) {... */\n    tag_135:\n        /* \"contracts\\\\CommissionBasedNFT.sol\":10383:10387  bool */\n      0x00\n        /* \"contracts\\\\CommissionBasedNFT.sol\":10435:10436  0 */\n      dup1\n        /* \"contracts\\\\CommissionBasedNFT.sol\":10407:10437  _owners[tokenId] != address(0) */\n      0xffffffffffffffffffffffffffffffffffffffff\n      and\n        /* \"contracts\\\\CommissionBasedNFT.sol\":10407:10414  _owners */\n      0x02\n        /* \"contracts\\\\CommissionBasedNFT.sol\":10407:10423  _owners[tokenId] */\n      0x00\n        /* \"contracts\\\\CommissionBasedNFT.sol\":10415:10422  tokenId */\n      dup5\n        /* \"contracts\\\\CommissionBasedNFT.sol\":10407:10423  _owners[tokenId] */\n      dup2\n      mstore\n      0x20\n      add\n      swap1\n      dup2\n      mstore\n      0x20\n      add\n      0x00\n      keccak256\n      0x00\n      swap1\n      sload\n      swap1\n      0x0100\n      exp\n      swap1\n      div\n      0xffffffffffffffffffffffffffffffffffffffff\n      and\n        /* \"contracts\\\\CommissionBasedNFT.sol\":10407:10437  _owners[tokenId] != address(0) */\n      0xffffffffffffffffffffffffffffffffffffffff\n      and\n      eq\n      iszero\n        /* \"contracts\\\\CommissionBasedNFT.sol\":10400:10437  return _owners[tokenId] != address(0) */\n      swap1\n      pop\n        /* \"contracts\\\\CommissionBasedNFT.sol\":10318:10445  function _exists(uint256 tokenId) internal view virtual returns (bool) {... */\n      swap2\n      swap1\n      pop\n      jump\t// out\n        /* \"contracts\\\\CommissionBasedNFT.sol\":10216:10310  function _baseURI() internal view virtual returns (string memory) {... */\n    tag_152:\n        /* \"contracts\\\\CommissionBasedNFT.sol\":10267:10280  string memory */\n      0x60\n        /* \"contracts\\\\CommissionBasedNFT.sol\":10293:10302  return \"\" */\n      mload(0x40)\n      dup1\n      0x20\n      add\n      0x40\n      mstore\n      dup1\n      0x00\n      dup2\n      mstore\n      pop\n      swap1\n      pop\n        /* \"contracts\\\\CommissionBasedNFT.sol\":10216:10310  function _baseURI() internal view virtual returns (string memory) {... */\n      swap1\n      jump\t// out\n        /* \"contracts\\\\CommissionBasedNFT.sol\":9774:10208  function tokenURI(... */\n    tag_158:\n        /* \"contracts\\\\CommissionBasedNFT.sol\":9863:9876  string memory */\n      0x60\n        /* \"contracts\\\\CommissionBasedNFT.sol\":9911:9927  _exists(tokenId) */\n      tag_176\n        /* \"contracts\\\\CommissionBasedNFT.sol\":9919:9926  tokenId */\n      dup3\n        /* \"contracts\\\\CommissionBasedNFT.sol\":9911:9918  _exists */\n      tag_135\n        /* \"contracts\\\\CommissionBasedNFT.sol\":9911:9927  _exists(tokenId) */\n      jump\t// in\n    tag_176:\n        /* \"contracts\\\\CommissionBasedNFT.sol\":9889:10002  require(... */\n      tag_177\n      jumpi\n      mload(0x40)\n      0x08c379a000000000000000000000000000000000000000000000000000000000\n      dup2\n      mstore\n      0x04\n      add\n      tag_178\n      swap1\n      tag_179\n      jump\t// in\n    tag_178:\n      mload(0x40)\n      dup1\n      swap2\n      sub\n      swap1\n      revert\n    tag_177:\n        /* \"contracts\\\\CommissionBasedNFT.sol\":10015:10036  string memory baseURI */\n      0x00\n        /* \"contracts\\\\CommissionBasedNFT.sol\":10039:10049  _baseURI() */\n      tag_180\n        /* \"contracts\\\\CommissionBasedNFT.sol\":10039:10047  _baseURI */\n      tag_152\n        /* \"contracts\\\\CommissionBasedNFT.sol\":10039:10049  _baseURI() */\n      jump\t// in\n    tag_180:\n        /* \"contracts\\\\CommissionBasedNFT.sol\":10015:10049  string memory baseURI = _baseURI() */\n      swap1\n      pop\n        /* \"contracts\\\\CommissionBasedNFT.sol\":10104:10105  0 */\n      0x00\n        /* \"contracts\\\\CommissionBasedNFT.sol\":10086:10093  baseURI */\n      dup2\n        /* \"contracts\\\\CommissionBasedNFT.sol\":10080:10101  bytes(baseURI).length */\n      mload\n        /* \"contracts\\\\CommissionBasedNFT.sol\":10080:10105  bytes(baseURI).length > 0 */\n      gt\n        /* \"contracts\\\\CommissionBasedNFT.sol\":10080:10200  bytes(baseURI).length > 0... */\n      tag_181\n      jumpi\n      mload(0x40)\n      dup1\n      0x20\n      add\n      0x40\n      mstore\n      dup1\n      0x00\n      dup2\n      mstore\n      pop\n      jump(tag_182)\n    tag_181:\n        /* \"contracts\\\\CommissionBasedNFT.sol\":10149:10156  baseURI */\n      dup1\n        /* \"contracts\\\\CommissionBasedNFT.sol\":10158:10176  tokenId.toString() */\n      tag_183\n        /* \"contracts\\\\CommissionBasedNFT.sol\":10158:10165  tokenId */\n      dup5\n        /* \"contracts\\\\CommissionBasedNFT.sol\":10158:10174  tokenId.toString */\n      tag_184\n        /* \"contracts\\\\CommissionBasedNFT.sol\":10158:10176  tokenId.toString() */\n      jump\t// in\n    tag_183:\n        /* \"contracts\\\\CommissionBasedNFT.sol\":10132:10177  abi.encodePacked(baseURI, tokenId.toString()) */\n      add(0x20, mload(0x40))\n      tag_185\n      swap3\n      swap2\n      swap1\n      tag_156\n      jump\t// in\n    tag_185:\n      mload(0x40)\n      0x20\n      dup2\n      dup4\n      sub\n      sub\n      dup2\n      mstore\n      swap1\n      0x40\n      mstore\n        /* \"contracts\\\\CommissionBasedNFT.sol\":10080:10200  bytes(baseURI).length > 0... */\n    tag_182:\n        /* \"contracts\\\\CommissionBasedNFT.sol\":10060:10200  return... */\n      swap2\n      pop\n      pop\n        /* \"contracts\\\\CommissionBasedNFT.sol\":9774:10208  function tokenURI(... */\n      swap2\n      swap1\n      pop\n      jump\t// out\n        /* \"contracts\\\\CommissionBasedNFT.sol\":7912:8085  function supportsInterface(... */\n    tag_164:\n        /* \"contracts\\\\CommissionBasedNFT.sol\":8013:8017  bool */\n      0x00\n        /* \"contracts\\\\CommissionBasedNFT.sol\":8052:8077  type(IERC165).interfaceId */\n      0x01ffc9a700000000000000000000000000000000000000000000000000000000\n        /* \"contracts\\\\CommissionBasedNFT.sol\":8037:8077  interfaceId == type(IERC165).interfaceId */\n      not(0xffffffffffffffffffffffffffffffffffffffffffffffffffffffff)\n      and\n        /* \"contracts\\\\CommissionBasedNFT.sol\":8037:8048  interfaceId */\n      dup3\n        /* \"contracts\\\\CommissionBasedNFT.sol\":8037:8077  interfaceId == type(IERC165).interfaceId */\n      not(0xffffffffffffffffffffffffffffffffffffffffffffffffffffffff)\n      and\n      eq\n        /* \"contracts\\\\CommissionBasedNFT.sol\":8030:8077  return interfaceId == type(IERC165).interfaceId */\n      swap1\n      pop\n        /* \"contracts\\\\CommissionBasedNFT.sol\":7912:8085  function supportsInterface(... */\n      swap2\n      swap1\n      pop\n      jump\t// out\n        /* \"contracts\\\\CommissionBasedNFT.sol\":10900:11339  function _mint(address to, uint256 tokenId) internal virtual {... */\n    tag_167:\n        /* \"contracts\\\\CommissionBasedNFT.sol\":10994:10995  0 */\n      0x00\n        /* \"contracts\\\\CommissionBasedNFT.sol\":10980:10996  to != address(0) */\n      0xffffffffffffffffffffffffffffffffffffffff\n      and\n        /* \"contracts\\\\CommissionBasedNFT.sol\":10980:10982  to */\n      dup3\n        /* \"contracts\\\\CommissionBasedNFT.sol\":10980:10996  to != address(0) */\n      0xffffffffffffffffffffffffffffffffffffffff\n      and\n      sub\n        /* \"contracts\\\\CommissionBasedNFT.sol\":10972:11033  require(to != address(0), \"ERC721: mint to the zero address\") */\n      tag_188\n      jumpi\n      mload(0x40)\n      0x08c379a000000000000000000000000000000000000000000000000000000000\n      dup2\n      mstore\n      0x04\n      add\n      tag_189\n      swap1\n      tag_190\n      jump\t// in\n    tag_189:\n      mload(0x40)\n      dup1\n      swap2\n      sub\n      swap1\n      revert\n    tag_188:\n        /* \"contracts\\\\CommissionBasedNFT.sol\":11053:11069  _exists(tokenId) */\n      tag_191\n        /* \"contracts\\\\CommissionBasedNFT.sol\":11061:11068  tokenId */\n      dup2\n        /* \"contracts\\\\CommissionBasedNFT.sol\":11053:11060  _exists */\n      tag_135\n        /* \"contracts\\\\CommissionBasedNFT.sol\":11053:11069  _exists(tokenId) */\n      jump\t// in\n    tag_191:\n        /* \"contracts\\\\CommissionBasedNFT.sol\":11052:11069  !_exists(tokenId) */\n      iszero\n        /* \"contracts\\\\CommissionBasedNFT.sol\":11044:11102  require(!_exists(tokenId), \"ERC721: token already minted\") */\n      tag_192\n      jumpi\n      mload(0x40)\n      0x08c379a000000000000000000000000000000000000000000000000000000000\n      dup2\n      mstore\n      0x04\n      add\n      tag_193\n      swap1\n      tag_194\n      jump\t// in\n    tag_193:\n      mload(0x40)\n      dup1\n      swap2\n      sub\n      swap1\n      revert\n    tag_192:\n        /* \"contracts\\\\CommissionBasedNFT.sol\":11115:11160  _beforeTokenTransfer(address(0), to, tokenId) */\n      tag_195\n        /* \"contracts\\\\CommissionBasedNFT.sol\":11144:11145  0 */\n      0x00\n        /* \"contracts\\\\CommissionBasedNFT.sol\":11148:11150  to */\n      dup4\n        /* \"contracts\\\\CommissionBasedNFT.sol\":11152:11159  tokenId */\n      dup4\n        /* \"contracts\\\\CommissionBasedNFT.sol\":11115:11135  _beforeTokenTransfer */\n      tag_196\n        /* \"contracts\\\\CommissionBasedNFT.sol\":11115:11160  _beforeTokenTransfer(address(0), to, tokenId) */\n      jump\t// in\n    tag_195:\n        /* \"contracts\\\\CommissionBasedNFT.sol\":11190:11191  1 */\n      0x01\n        /* \"contracts\\\\CommissionBasedNFT.sol\":11173:11182  _balances */\n      0x03\n        /* \"contracts\\\\CommissionBasedNFT.sol\":11173:11186  _balances[to] */\n      0x00\n        /* \"contracts\\\\CommissionBasedNFT.sol\":11183:11185  to */\n      dup5\n        /* \"contracts\\\\CommissionBasedNFT.sol\":11173:11186  _balances[to] */\n      0xffffffffffffffffffffffffffffffffffffffff\n      and\n      0xffffffffffffffffffffffffffffffffffffffff\n      and\n      dup2\n      mstore\n      0x20\n      add\n      swap1\n      dup2\n      mstore\n      0x20\n      add\n      0x00\n      keccak256\n      0x00\n        /* \"contracts\\\\CommissionBasedNFT.sol\":11173:11191  _balances[to] += 1 */\n      dup3\n      dup3\n      sload\n      tag_197\n      swap2\n      swap1\n      tag_198\n      jump\t// in\n    tag_197:\n      swap3\n      pop\n      pop\n      dup2\n      swap1\n      sstore\n      pop\n        /* \"contracts\\\\CommissionBasedNFT.sol\":11221:11223  to */\n      dup2\n        /* \"contracts\\\\CommissionBasedNFT.sol\":11202:11209  _owners */\n      0x02\n        /* \"contracts\\\\CommissionBasedNFT.sol\":11202:11218  _owners[tokenId] */\n      0x00\n        /* \"contracts\\\\CommissionBasedNFT.sol\":11210:11217  tokenId */\n      dup4\n        /* \"contracts\\\\CommissionBasedNFT.sol\":11202:11218  _owners[tokenId] */\n      dup2\n      mstore\n      0x20\n      add\n      swap1\n      dup2\n      mstore\n      0x20\n      add\n      0x00\n      keccak256\n      0x00\n        /* \"contracts\\\\CommissionBasedNFT.sol\":11202:11223  _owners[tokenId] = to */\n      0x0100\n      exp\n      dup2\n      sload\n      dup2\n      0xffffffffffffffffffffffffffffffffffffffff\n      mul\n      not\n      and\n      swap1\n      dup4\n      0xffffffffffffffffffffffffffffffffffffffff\n      and\n      mul\n      or\n      swap1\n      sstore\n      pop\n        /* \"contracts\\\\CommissionBasedNFT.sol\":11266:11273  tokenId */\n      dup1\n        /* \"contracts\\\\CommissionBasedNFT.sol\":11262:11264  to */\n      dup3\n        /* \"contracts\\\\CommissionBasedNFT.sol\":11241:11274  Transfer(address(0), to, tokenId) */\n      0xffffffffffffffffffffffffffffffffffffffff\n      and\n        /* \"contracts\\\\CommissionBasedNFT.sol\":11258:11259  0 */\n      0x00\n        /* \"contracts\\\\CommissionBasedNFT.sol\":11241:11274  Transfer(address(0), to, tokenId) */\n      0xffffffffffffffffffffffffffffffffffffffff\n      and\n      0xddf252ad1be2c89b69c2b068fc378daa952ba7f163c4a11628f55a4df523b3ef\n      mload(0x40)\n      mload(0x40)\n      dup1\n      swap2\n      sub\n      swap1\n      log4\n        /* \"contracts\\\\CommissionBasedNFT.sol\":11287:11331  _afterTokenTransfer(address(0), to, tokenId) */\n      tag_199\n        /* \"contracts\\\\CommissionBasedNFT.sol\":11315:11316  0 */\n      0x00\n        /* \"contracts\\\\CommissionBasedNFT.sol\":11319:11321  to */\n      dup4\n        /* \"contracts\\\\CommissionBasedNFT.sol\":11323:11330  tokenId */\n      dup4\n        /* \"contracts\\\\CommissionBasedNFT.sol\":11287:11306  _afterTokenTransfer */\n      tag_200\n        /* \"contracts\\\\CommissionBasedNFT.sol\":11287:11331  _afterTokenTransfer(address(0), to, tokenId) */\n      jump\t// in\n    tag_199:\n        /* \"contracts\\\\CommissionBasedNFT.sol\":10900:11339  function _mint(address to, uint256 tokenId) internal virtual {... */\n      pop\n      pop\n      jump\t// out\n        /* \"contracts\\\\CommissionBasedNFT.sol\":12898:13878  function _checkOnERC721Received(... */\n    tag_169:\n        /* \"contracts\\\\CommissionBasedNFT.sol\":13053:13057  bool */\n      0x00\n        /* \"contracts\\\\CommissionBasedNFT.sol\":13074:13089  to.isContract() */\n      tag_202\n        /* \"contracts\\\\CommissionBasedNFT.sol\":13074:13076  to */\n      dup5\n        /* \"contracts\\\\CommissionBasedNFT.sol\":13074:13087  to.isContract */\n      0xffffffffffffffffffffffffffffffffffffffff\n      and\n      tag_203\n        /* \"contracts\\\\CommissionBasedNFT.sol\":13074:13089  to.isContract() */\n      jump\t// in\n    tag_202:\n        /* \"contracts\\\\CommissionBasedNFT.sol\":13070:13871  if (to.isContract()) {... */\n      iszero\n      tag_204\n      jumpi\n        /* \"contracts\\\\CommissionBasedNFT.sol\":13143:13145  to */\n      dup4\n        /* \"contracts\\\\CommissionBasedNFT.sol\":13127:13163  IERC721Receiver(to).onERC721Received */\n      0xffffffffffffffffffffffffffffffffffffffff\n      and\n      0x150b7a02\n        /* \"contracts\\\\CommissionBasedNFT.sol\":13186:13198  _msgSender() */\n      tag_205\n        /* \"contracts\\\\CommissionBasedNFT.sol\":13186:13196  _msgSender */\n      tag_69\n        /* \"contracts\\\\CommissionBasedNFT.sol\":13186:13198  _msgSender() */\n      jump\t// in\n    tag_205:\n        /* \"contracts\\\\CommissionBasedNFT.sol\":13221:13225  from */\n      dup8\n        /* \"contracts\\\\CommissionBasedNFT.sol\":13248:13255  tokenId */\n      dup7\n        /* \"contracts\\\\CommissionBasedNFT.sol\":13278:13283  _data */\n      dup7\n        /* \"contracts\\\\CommissionBasedNFT.sol\":13127:13302  IERC721Receiver(to).onERC721Received(... */\n      mload(0x40)\n      dup6\n      0xffffffff\n      and\n      0xe0\n      shl\n      dup2\n      mstore\n      0x04\n      add\n      tag_206\n      swap5\n      swap4\n      swap3\n      swap2\n      swap1\n      tag_207\n      jump\t// in\n    tag_206:\n      0x20\n      mload(0x40)\n      dup1\n      dup4\n      sub\n      dup2\n      0x00\n      dup8\n      gas\n      call\n      swap3\n      pop\n      pop\n      pop\n      dup1\n      iszero\n      tag_208\n      jumpi\n      pop\n      mload(0x40)\n      returndatasize\n      not(0x1f)\n      0x1f\n      dup3\n      add\n      and\n      dup3\n      add\n      dup1\n      0x40\n      mstore\n      pop\n      dup2\n      add\n      swap1\n      tag_209\n      swap2\n      swap1\n      tag_210\n      jump\t// in\n    tag_209:\n      0x01\n    tag_208:\n        /* \"contracts\\\\CommissionBasedNFT.sol\":13106:13816  try... */\n      tag_211\n      jumpi\n      returndatasize\n      dup1\n      0x00\n      dup2\n      eq\n      tag_216\n      jumpi\n      mload(0x40)\n      swap2\n      pop\n      and(add(returndatasize, 0x3f), not(0x1f))\n      dup3\n      add\n      0x40\n      mstore\n      returndatasize\n      dup3\n      mstore\n      returndatasize\n      0x00\n      0x20\n      dup5\n      add\n      returndatacopy\n      jump(tag_215)\n    tag_216:\n      0x60\n      swap2\n      pop\n    tag_215:\n      pop\n        /* \"contracts\\\\CommissionBasedNFT.sol\":13502:13503  0 */\n      0x00\n        /* \"contracts\\\\CommissionBasedNFT.sol\":13485:13491  reason */\n      dup2\n        /* \"contracts\\\\CommissionBasedNFT.sol\":13485:13498  reason.length */\n      mload\n        /* \"contracts\\\\CommissionBasedNFT.sol\":13485:13503  reason.length == 0 */\n      sub\n        /* \"contracts\\\\CommissionBasedNFT.sol\":13481:13801  if (reason.length == 0) {... */\n      tag_217\n      jumpi\n        /* \"contracts\\\\CommissionBasedNFT.sol\":13528:13636  revert(... */\n      mload(0x40)\n      0x08c379a000000000000000000000000000000000000000000000000000000000\n      dup2\n      mstore\n      0x04\n      add\n      tag_218\n      swap1\n      tag_172\n      jump\t// in\n    tag_218:\n      mload(0x40)\n      dup1\n      swap2\n      sub\n      swap1\n      revert\n        /* \"contracts\\\\CommissionBasedNFT.sol\":13481:13801  if (reason.length == 0) {... */\n    tag_217:\n        /* \"contracts\\\\CommissionBasedNFT.sol\":13751:13757  reason */\n      dup1\n        /* \"contracts\\\\CommissionBasedNFT.sol\":13745:13758  mload(reason) */\n      mload\n        /* \"contracts\\\\CommissionBasedNFT.sol\":13736:13742  reason */\n      dup2\n        /* \"contracts\\\\CommissionBasedNFT.sol\":13732:13734  32 */\n      0x20\n        /* \"contracts\\\\CommissionBasedNFT.sol\":13728:13743  add(32, reason) */\n      add\n        /* \"contracts\\\\CommissionBasedNFT.sol\":13721:13759  revert(add(32, reason), mload(reason)) */\n      revert\n        /* \"contracts\\\\CommissionBasedNFT.sol\":13106:13816  try... */\n    tag_211:\n        /* \"contracts\\\\CommissionBasedNFT.sol\":13376:13417  IERC721Receiver.onERC721Received.selector */\n      shl(0xe0, 0x150b7a02)\n        /* \"contracts\\\\CommissionBasedNFT.sol\":13366:13417  retval == IERC721Receiver.onERC721Received.selector */\n      not(0xffffffffffffffffffffffffffffffffffffffffffffffffffffffff)\n      and\n        /* \"contracts\\\\CommissionBasedNFT.sol\":13366:13372  retval */\n      dup2\n        /* \"contracts\\\\CommissionBasedNFT.sol\":13366:13417  retval == IERC721Receiver.onERC721Received.selector */\n      not(0xffffffffffffffffffffffffffffffffffffffffffffffffffffffff)\n      and\n      eq\n        /* \"contracts\\\\CommissionBasedNFT.sol\":13359:13417  return retval == IERC721Receiver.onERC721Received.selector */\n      swap2\n      pop\n      pop\n      jump(tag_201)\n        /* \"contracts\\\\CommissionBasedNFT.sol\":13070:13871  if (to.isContract()) {... */\n    tag_204:\n        /* \"contracts\\\\CommissionBasedNFT.sol\":13855:13859  true */\n      0x01\n        /* \"contracts\\\\CommissionBasedNFT.sol\":13848:13859  return true */\n      swap1\n      pop\n        /* \"contracts\\\\CommissionBasedNFT.sol\":12898:13878  function _checkOnERC721Received(... */\n    tag_201:\n      swap5\n      swap4\n      pop\n      pop\n      pop\n      pop\n      jump\t// out\n        /* \"contracts\\\\CommissionBasedNFT.sol\":149:681  function toString(uint256 value) internal pure returns (string memory) {... */\n    tag_184:\n        /* \"contracts\\\\CommissionBasedNFT.sol\":205:218  string memory */\n      0x60\n        /* \"contracts\\\\CommissionBasedNFT.sol\":244:245  0 */\n      0x00\n        /* \"contracts\\\\CommissionBasedNFT.sol\":235:240  value */\n      dup3\n        /* \"contracts\\\\CommissionBasedNFT.sol\":235:245  value == 0 */\n      sub\n        /* \"contracts\\\\CommissionBasedNFT.sol\":231:284  if (value == 0) {... */\n      tag_223\n      jumpi\n        /* \"contracts\\\\CommissionBasedNFT.sol\":262:272  return \"0\" */\n      mload(0x40)\n      dup1\n      0x40\n      add\n      0x40\n      mstore\n      dup1\n      0x01\n      dup2\n      mstore\n      0x20\n      add\n      0x3000000000000000000000000000000000000000000000000000000000000000\n      dup2\n      mstore\n      pop\n      swap1\n      pop\n      jump(tag_222)\n        /* \"contracts\\\\CommissionBasedNFT.sol\":231:284  if (value == 0) {... */\n    tag_223:\n        /* \"contracts\\\\CommissionBasedNFT.sol\":294:306  uint256 temp */\n      0x00\n        /* \"contracts\\\\CommissionBasedNFT.sol\":309:314  value */\n      dup3\n        /* \"contracts\\\\CommissionBasedNFT.sol\":294:314  uint256 temp = value */\n      swap1\n      pop\n        /* \"contracts\\\\CommissionBasedNFT.sol\":325:339  uint256 digits */\n      0x00\n        /* \"contracts\\\\CommissionBasedNFT.sol\":350:428  while (temp != 0) {... */\n    tag_224:\n        /* \"contracts\\\\CommissionBasedNFT.sol\":365:366  0 */\n      0x00\n        /* \"contracts\\\\CommissionBasedNFT.sol\":357:361  temp */\n      dup3\n        /* \"contracts\\\\CommissionBasedNFT.sol\":357:366  temp != 0 */\n      eq\n        /* \"contracts\\\\CommissionBasedNFT.sol\":350:428  while (temp != 0) {... */\n      tag_225\n      jumpi\n        /* \"contracts\\\\CommissionBasedNFT.sol\":383:391  digits++ */\n      dup1\n      dup1\n      tag_226\n      swap1\n      tag_95\n      jump\t// in\n    tag_226:\n      swap2\n      pop\n      pop\n        /* \"contracts\\\\CommissionBasedNFT.sol\":414:416  10 */\n      0x0a\n        /* \"contracts\\\\CommissionBasedNFT.sol\":406:416  temp /= 10 */\n      dup3\n      tag_227\n      swap2\n      swap1\n      tag_228\n      jump\t// in\n    tag_227:\n      swap2\n      pop\n        /* \"contracts\\\\CommissionBasedNFT.sol\":350:428  while (temp != 0) {... */\n      jump(tag_224)\n    tag_225:\n        /* \"contracts\\\\CommissionBasedNFT.sol\":438:457  bytes memory buffer */\n      0x00\n        /* \"contracts\\\\CommissionBasedNFT.sol\":470:476  digits */\n      dup2\n        /* \"contracts\\\\CommissionBasedNFT.sol\":460:477  new bytes(digits) */\n      0xffffffffffffffff\n      dup2\n      gt\n      iszero\n      tag_229\n      jumpi\n      tag_230\n      tag_231\n      jump\t// in\n    tag_230:\n    tag_229:\n      mload(0x40)\n      swap1\n      dup1\n      dup3\n      mstore\n      dup1\n      0x1f\n      add\n      not(0x1f)\n      and\n      0x20\n      add\n      dup3\n      add\n      0x40\n      mstore\n      dup1\n      iszero\n      tag_232\n      jumpi\n      dup2\n      0x20\n      add\n      0x01\n      dup3\n      mul\n      dup1\n      calldatasize\n      dup4\n      calldatacopy\n      dup1\n      dup3\n      add\n      swap2\n      pop\n      pop\n      swap1\n      pop\n    tag_232:\n      pop\n        /* \"contracts\\\\CommissionBasedNFT.sol\":438:477  bytes memory buffer = new bytes(digits) */\n      swap1\n      pop\n        /* \"contracts\\\\CommissionBasedNFT.sol\":488:642  while (value != 0) {... */\n    tag_233:\n        /* \"contracts\\\\CommissionBasedNFT.sol\":504:505  0 */\n      0x00\n        /* \"contracts\\\\CommissionBasedNFT.sol\":495:500  value */\n      dup6\n        /* \"contracts\\\\CommissionBasedNFT.sol\":495:505  value != 0 */\n      eq\n        /* \"contracts\\\\CommissionBasedNFT.sol\":488:642  while (value != 0) {... */\n      tag_234\n      jumpi\n        /* \"contracts\\\\CommissionBasedNFT.sol\":532:533  1 */\n      0x01\n        /* \"contracts\\\\CommissionBasedNFT.sol\":522:533  digits -= 1 */\n      dup3\n      tag_235\n      swap2\n      swap1\n      tag_236\n      jump\t// in\n    tag_235:\n      swap2\n      pop\n        /* \"contracts\\\\CommissionBasedNFT.sol\":599:601  10 */\n      0x0a\n        /* \"contracts\\\\CommissionBasedNFT.sol\":591:596  value */\n      dup6\n        /* \"contracts\\\\CommissionBasedNFT.sol\":591:601  value % 10 */\n      tag_237\n      swap2\n      swap1\n      tag_238\n      jump\t// in\n    tag_237:\n        /* \"contracts\\\\CommissionBasedNFT.sol\":578:580  48 */\n      0x30\n        /* \"contracts\\\\CommissionBasedNFT.sol\":578:602  48 + uint256(value % 10) */\n      tag_239\n      swap2\n      swap1\n      tag_198\n      jump\t// in\n    tag_239:\n        /* \"contracts\\\\CommissionBasedNFT.sol\":565:604  bytes1(uint8(48 + uint256(value % 10))) */\n      0xf8\n      shl\n        /* \"contracts\\\\CommissionBasedNFT.sol\":548:554  buffer */\n      dup2\n        /* \"contracts\\\\CommissionBasedNFT.sol\":555:561  digits */\n      dup4\n        /* \"contracts\\\\CommissionBasedNFT.sol\":548:562  buffer[digits] */\n      dup2\n      mload\n      dup2\n      lt\n      tag_240\n      jumpi\n      tag_241\n      tag_81\n      jump\t// in\n    tag_241:\n    tag_240:\n      0x20\n      add\n      add\n        /* \"contracts\\\\CommissionBasedNFT.sol\":548:604  buffer[digits] = bytes1(uint8(48 + uint256(value % 10))) */\n      swap1\n      not(0xffffffffffffffffffffffffffffffffffffffffffffffffffffffffffffff)\n      and\n      swap1\n      dup2\n      0x00\n      byte\n      swap1\n      mstore8\n      pop\n        /* \"contracts\\\\CommissionBasedNFT.sol\":628:630  10 */\n      0x0a\n        /* \"contracts\\\\CommissionBasedNFT.sol\":619:630  value /= 10 */\n      dup6\n      tag_242\n      swap2\n      swap1\n      tag_228\n      jump\t// in\n    tag_242:\n      swap5\n      pop\n        /* \"contracts\\\\CommissionBasedNFT.sol\":488:642  while (value != 0) {... */\n      jump(tag_233)\n    tag_234:\n        /* \"contracts\\\\CommissionBasedNFT.sol\":666:672  buffer */\n      dup1\n        /* \"contracts\\\\CommissionBasedNFT.sol\":652:673  return string(buffer) */\n      swap4\n      pop\n      pop\n      pop\n      pop\n        /* \"contracts\\\\CommissionBasedNFT.sol\":149:681  function toString(uint256 value) internal pure returns (string memory) {... */\n    tag_222:\n      swap2\n      swap1\n      pop\n      jump\t// out\n        /* \"contracts\\\\CommissionBasedNFT.sol\":18906:19121  function _beforeTokenTransfer(... */\n    tag_196:\n        /* \"contracts\\\\CommissionBasedNFT.sol\":19068:19113  super._beforeTokenTransfer(from, to, tokenId) */\n      tag_244\n        /* \"contracts\\\\CommissionBasedNFT.sol\":19095:19099  from */\n      dup4\n        /* \"contracts\\\\CommissionBasedNFT.sol\":19101:19103  to */\n      dup4\n        /* \"contracts\\\\CommissionBasedNFT.sol\":19105:19112  tokenId */\n      dup4\n        /* \"contracts\\\\CommissionBasedNFT.sol\":19068:19094  super._beforeTokenTransfer */\n      tag_245\n        /* \"contracts\\\\CommissionBasedNFT.sol\":19068:19113  super._beforeTokenTransfer(from, to, tokenId) */\n      jump\t// in\n    tag_244:\n        /* \"contracts\\\\CommissionBasedNFT.sol\":18906:19121  function _beforeTokenTransfer(... */\n      pop\n      pop\n      pop\n      jump\t// out\n        /* \"contracts\\\\CommissionBasedNFT.sol\":14020:14145  function _afterTokenTransfer(... */\n    tag_200:\n      pop\n      pop\n      pop\n      jump\t// out\n        /* \"contracts\\\\CommissionBasedNFT.sol\":1543:1658  function isContract(address account) internal view returns (bool) {... */\n    tag_203:\n        /* \"contracts\\\\CommissionBasedNFT.sol\":1603:1607  bool */\n      0x00\n        /* \"contracts\\\\CommissionBasedNFT.sol\":1649:1650  0 */\n      dup1\n        /* \"contracts\\\\CommissionBasedNFT.sol\":1627:1634  account */\n      dup3\n        /* \"contracts\\\\CommissionBasedNFT.sol\":1627:1646  account.code.length */\n      0xffffffffffffffffffffffffffffffffffffffff\n      and\n      extcodesize\n        /* \"contracts\\\\CommissionBasedNFT.sol\":1627:1650  account.code.length > 0 */\n      gt\n        /* \"contracts\\\\CommissionBasedNFT.sol\":1620:1650  return account.code.length > 0 */\n      swap1\n      pop\n        /* \"contracts\\\\CommissionBasedNFT.sol\":1543:1658  function isContract(address account) internal view returns (bool) {... */\n      swap2\n      swap1\n      pop\n      jump\t// out\n        /* \"contracts\\\\CommissionBasedNFT.sol\":16085:16674  function _beforeTokenTransfer(... */\n    tag_245:\n        /* \"contracts\\\\CommissionBasedNFT.sol\":16229:16274  super._beforeTokenTransfer(from, to, tokenId) */\n      tag_249\n        /* \"contracts\\\\CommissionBasedNFT.sol\":16256:16260  from */\n      dup4\n        /* \"contracts\\\\CommissionBasedNFT.sol\":16262:16264  to */\n      dup4\n        /* \"contracts\\\\CommissionBasedNFT.sol\":16266:16273  tokenId */\n      dup4\n        /* \"contracts\\\\CommissionBasedNFT.sol\":16229:16255  super._beforeTokenTransfer */\n      tag_250\n        /* \"contracts\\\\CommissionBasedNFT.sol\":16229:16274  super._beforeTokenTransfer(from, to, tokenId) */\n      jump\t// in\n    tag_249:\n        /* \"contracts\\\\CommissionBasedNFT.sol\":16307:16308  0 */\n      0x00\n        /* \"contracts\\\\CommissionBasedNFT.sol\":16291:16309  from == address(0) */\n      0xffffffffffffffffffffffffffffffffffffffff\n      and\n        /* \"contracts\\\\CommissionBasedNFT.sol\":16291:16295  from */\n      dup4\n        /* \"contracts\\\\CommissionBasedNFT.sol\":16291:16309  from == address(0) */\n      0xffffffffffffffffffffffffffffffffffffffff\n      and\n      sub\n        /* \"contracts\\\\CommissionBasedNFT.sol\":16287:16474  if (from == address(0)) {... */\n      tag_251\n      jumpi\n        /* \"contracts\\\\CommissionBasedNFT.sol\":16326:16366  _addTokenToAllTokensEnumeration(tokenId) */\n      tag_252\n        /* \"contracts\\\\CommissionBasedNFT.sol\":16358:16365  tokenId */\n      dup2\n        /* \"contracts\\\\CommissionBasedNFT.sol\":16326:16357  _addTokenToAllTokensEnumeration */\n      tag_253\n        /* \"contracts\\\\CommissionBasedNFT.sol\":16326:16366  _addTokenToAllTokensEnumeration(tokenId) */\n      jump\t// in\n    tag_252:\n        /* \"contracts\\\\CommissionBasedNFT.sol\":16287:16474  if (from == address(0)) {... */\n      jump(tag_254)\n    tag_251:\n        /* \"contracts\\\\CommissionBasedNFT.sol\":16396:16398  to */\n      dup2\n        /* \"contracts\\\\CommissionBasedNFT.sol\":16388:16398  from != to */\n      0xffffffffffffffffffffffffffffffffffffffff\n      and\n        /* \"contracts\\\\CommissionBasedNFT.sol\":16388:16392  from */\n      dup4\n        /* \"contracts\\\\CommissionBasedNFT.sol\":16388:16398  from != to */\n      0xffffffffffffffffffffffffffffffffffffffff\n      and\n      eq\n        /* \"contracts\\\\CommissionBasedNFT.sol\":16384:16474  if (from != to) {... */\n      tag_255\n      jumpi\n        /* \"contracts\\\\CommissionBasedNFT.sol\":16415:16462  _removeTokenFromOwnerEnumeration(from, tokenId) */\n      tag_256\n        /* \"contracts\\\\CommissionBasedNFT.sol\":16448:16452  from */\n      dup4\n        /* \"contracts\\\\CommissionBasedNFT.sol\":16454:16461  tokenId */\n      dup3\n        /* \"contracts\\\\CommissionBasedNFT.sol\":16415:16447  _removeTokenFromOwnerEnumeration */\n      tag_257\n        /* \"contracts\\\\CommissionBasedNFT.sol\":16415:16462  _removeTokenFromOwnerEnumeration(from, tokenId) */\n      jump\t// in\n    tag_256:\n        /* \"contracts\\\\CommissionBasedNFT.sol\":16384:16474  if (from != to) {... */\n    tag_255:\n        /* \"contracts\\\\CommissionBasedNFT.sol\":16287:16474  if (from == address(0)) {... */\n    tag_254:\n        /* \"contracts\\\\CommissionBasedNFT.sol\":16502:16503  0 */\n      0x00\n        /* \"contracts\\\\CommissionBasedNFT.sol\":16488:16504  to == address(0) */\n      0xffffffffffffffffffffffffffffffffffffffff\n      and\n        /* \"contracts\\\\CommissionBasedNFT.sol\":16488:16490  to */\n      dup3\n        /* \"contracts\\\\CommissionBasedNFT.sol\":16488:16504  to == address(0) */\n      0xffffffffffffffffffffffffffffffffffffffff\n      and\n      sub\n        /* \"contracts\\\\CommissionBasedNFT.sol\":16484:16667  if (to == address(0)) {... */\n      tag_258\n      jumpi\n        /* \"contracts\\\\CommissionBasedNFT.sol\":16521:16566  _removeTokenFromAllTokensEnumeration(tokenId) */\n      tag_259\n        /* \"contracts\\\\CommissionBasedNFT.sol\":16558:16565  tokenId */\n      dup2\n        /* \"contracts\\\\CommissionBasedNFT.sol\":16521:16557  _removeTokenFromAllTokensEnumeration */\n      tag_260\n        /* \"contracts\\\\CommissionBasedNFT.sol\":16521:16566  _removeTokenFromAllTokensEnumeration(tokenId) */\n      jump\t// in\n    tag_259:\n        /* \"contracts\\\\CommissionBasedNFT.sol\":16484:16667  if (to == address(0)) {... */\n      jump(tag_261)\n    tag_258:\n        /* \"contracts\\\\CommissionBasedNFT.sol\":16594:16598  from */\n      dup3\n        /* \"contracts\\\\CommissionBasedNFT.sol\":16588:16598  to != from */\n      0xffffffffffffffffffffffffffffffffffffffff\n      and\n        /* \"contracts\\\\CommissionBasedNFT.sol\":16588:16590  to */\n      dup3\n        /* \"contracts\\\\CommissionBasedNFT.sol\":16588:16598  to != from */\n      0xffffffffffffffffffffffffffffffffffffffff\n      and\n      eq\n        /* \"contracts\\\\CommissionBasedNFT.sol\":16584:16667  if (to != from) {... */\n      tag_262\n      jumpi\n        /* \"contracts\\\\CommissionBasedNFT.sol\":16615:16655  _addTokenToOwnerEnumeration(to, tokenId) */\n      tag_263\n        /* \"contracts\\\\CommissionBasedNFT.sol\":16643:16645  to */\n      dup3\n        /* \"contracts\\\\CommissionBasedNFT.sol\":16647:16654  tokenId */\n      dup3\n        /* \"contracts\\\\CommissionBasedNFT.sol\":16615:16642  _addTokenToOwnerEnumeration */\n      tag_264\n        /* \"contracts\\\\CommissionBasedNFT.sol\":16615:16655  _addTokenToOwnerEnumeration(to, tokenId) */\n      jump\t// in\n    tag_263:\n        /* \"contracts\\\\CommissionBasedNFT.sol\":16584:16667  if (to != from) {... */\n    tag_262:\n        /* \"contracts\\\\CommissionBasedNFT.sol\":16484:16667  if (to == address(0)) {... */\n    tag_261:\n        /* \"contracts\\\\CommissionBasedNFT.sol\":16085:16674  function _beforeTokenTransfer(... */\n      pop\n      pop\n      pop\n      jump\t// out\n        /* \"contracts\\\\CommissionBasedNFT.sol\":13886:14012  function _beforeTokenTransfer(... */\n    tag_250:\n      pop\n      pop\n      pop\n      jump\t// out\n        /* \"contracts\\\\CommissionBasedNFT.sol\":16911:17075  function _addTokenToAllTokensEnumeration(uint256 tokenId) private {... */\n    tag_253:\n        /* \"contracts\\\\CommissionBasedNFT.sol\":17015:17025  _allTokens */\n      0x08\n        /* \"contracts\\\\CommissionBasedNFT.sol\":17015:17032  _allTokens.length */\n      dup1\n      sload\n      swap1\n      pop\n        /* \"contracts\\\\CommissionBasedNFT.sol\":16988:17003  _allTokensIndex */\n      0x09\n        /* \"contracts\\\\CommissionBasedNFT.sol\":16988:17012  _allTokensIndex[tokenId] */\n      0x00\n        /* \"contracts\\\\CommissionBasedNFT.sol\":17004:17011  tokenId */\n      dup4\n        /* \"contracts\\\\CommissionBasedNFT.sol\":16988:17012  _allTokensIndex[tokenId] */\n      dup2\n      mstore\n      0x20\n      add\n      swap1\n      dup2\n      mstore\n      0x20\n      add\n      0x00\n      keccak256\n        /* \"contracts\\\\CommissionBasedNFT.sol\":16988:17032  _allTokensIndex[tokenId] = _allTokens.length */\n      dup2\n      swap1\n      sstore\n      pop\n        /* \"contracts\\\\CommissionBasedNFT.sol\":17043:17053  _allTokens */\n      0x08\n        /* \"contracts\\\\CommissionBasedNFT.sol\":17059:17066  tokenId */\n      dup2\n        /* \"contracts\\\\CommissionBasedNFT.sol\":17043:17067  _allTokens.push(tokenId) */\n      swap1\n      dup1\n      0x01\n      dup2\n      sload\n      add\n      dup1\n      dup3\n      sstore\n      dup1\n      swap2\n      pop\n      pop\n      0x01\n      swap1\n      sub\n      swap1\n      0x00\n      mstore\n      keccak256(0x00, 0x20)\n      add\n      0x00\n      swap1\n      swap2\n      swap1\n      swap2\n      swap1\n      swap2\n      pop\n      sstore\n        /* \"contracts\\\\CommissionBasedNFT.sol\":16911:17075  function _addTokenToAllTokensEnumeration(uint256 tokenId) private {... */\n      pop\n      jump\t// out\n        /* \"contracts\\\\CommissionBasedNFT.sol\":17083:17755  function _removeTokenFromOwnerEnumeration(... */\n    tag_257:\n        /* \"contracts\\\\CommissionBasedNFT.sol\":17200:17222  uint256 lastTokenIndex */\n      0x00\n        /* \"contracts\\\\CommissionBasedNFT.sol\":17250:17251  1 */\n      0x01\n        /* \"contracts\\\\CommissionBasedNFT.sol\":17225:17247  ERC721.balanceOf(from) */\n      tag_269\n        /* \"contracts\\\\CommissionBasedNFT.sol\":17242:17246  from */\n      dup5\n        /* \"contracts\\\\CommissionBasedNFT.sol\":17225:17241  ERC721.balanceOf */\n      tag_41\n        /* \"contracts\\\\CommissionBasedNFT.sol\":17225:17247  ERC721.balanceOf(from) */\n      jump\t// in\n    tag_269:\n        /* \"contracts\\\\CommissionBasedNFT.sol\":17225:17251  ERC721.balanceOf(from) - 1 */\n      tag_270\n      swap2\n      swap1\n      tag_236\n      jump\t// in\n    tag_270:\n        /* \"contracts\\\\CommissionBasedNFT.sol\":17200:17251  uint256 lastTokenIndex = ERC721.balanceOf(from) - 1 */\n      swap1\n      pop\n        /* \"contracts\\\\CommissionBasedNFT.sol\":17262:17280  uint256 tokenIndex */\n      0x00\n        /* \"contracts\\\\CommissionBasedNFT.sol\":17283:17300  _ownedTokensIndex */\n      0x07\n        /* \"contracts\\\\CommissionBasedNFT.sol\":17283:17309  _ownedTokensIndex[tokenId] */\n      0x00\n        /* \"contracts\\\\CommissionBasedNFT.sol\":17301:17308  tokenId */\n      dup5\n        /* \"contracts\\\\CommissionBasedNFT.sol\":17283:17309  _ownedTokensIndex[tokenId] */\n      dup2\n      mstore\n      0x20\n      add\n      swap1\n      dup2\n      mstore\n      0x20\n      add\n      0x00\n      keccak256\n      sload\n        /* \"contracts\\\\CommissionBasedNFT.sol\":17262:17309  uint256 tokenIndex = _ownedTokensIndex[tokenId] */\n      swap1\n      pop\n        /* \"contracts\\\\CommissionBasedNFT.sol\":17340:17354  lastTokenIndex */\n      dup2\n        /* \"contracts\\\\CommissionBasedNFT.sol\":17326:17336  tokenIndex */\n      dup2\n        /* \"contracts\\\\CommissionBasedNFT.sol\":17326:17354  tokenIndex != lastTokenIndex */\n      eq\n        /* \"contracts\\\\CommissionBasedNFT.sol\":17322:17650  if (tokenIndex != lastTokenIndex) {... */\n      tag_271\n      jumpi\n        /* \"contracts\\\\CommissionBasedNFT.sol\":17371:17390  uint256 lastTokenId */\n      0x00\n        /* \"contracts\\\\CommissionBasedNFT.sol\":17393:17405  _ownedTokens */\n      0x06\n        /* \"contracts\\\\CommissionBasedNFT.sol\":17393:17411  _ownedTokens[from] */\n      0x00\n        /* \"contracts\\\\CommissionBasedNFT.sol\":17406:17410  from */\n      dup7\n        /* \"contracts\\\\CommissionBasedNFT.sol\":17393:17411  _ownedTokens[from] */\n      0xffffffffffffffffffffffffffffffffffffffff\n      and\n      0xffffffffffffffffffffffffffffffffffffffff\n      and\n      dup2\n      mstore\n      0x20\n      add\n      swap1\n      dup2\n      mstore\n      0x20\n      add\n      0x00\n      keccak256\n        /* \"contracts\\\\CommissionBasedNFT.sol\":17393:17427  _ownedTokens[from][lastTokenIndex] */\n      0x00\n        /* \"contracts\\\\CommissionBasedNFT.sol\":17412:17426  lastTokenIndex */\n      dup5\n        /* \"contracts\\\\CommissionBasedNFT.sol\":17393:17427  _ownedTokens[from][lastTokenIndex] */\n      dup2\n      mstore\n      0x20\n      add\n      swap1\n      dup2\n      mstore\n      0x20\n      add\n      0x00\n      keccak256\n      sload\n        /* \"contracts\\\\CommissionBasedNFT.sol\":17371:17427  uint256 lastTokenId = _ownedTokens[from][lastTokenIndex] */\n      swap1\n      pop\n        /* \"contracts\\\\CommissionBasedNFT.sol\":17477:17488  lastTokenId */\n      dup1\n        /* \"contracts\\\\CommissionBasedNFT.sol\":17444:17456  _ownedTokens */\n      0x06\n        /* \"contracts\\\\CommissionBasedNFT.sol\":17444:17462  _ownedTokens[from] */\n      0x00\n        /* \"contracts\\\\CommissionBasedNFT.sol\":17457:17461  from */\n      dup8\n        /* \"contracts\\\\CommissionBasedNFT.sol\":17444:17462  _ownedTokens[from] */\n      0xffffffffffffffffffffffffffffffffffffffff\n      and\n      0xffffffffffffffffffffffffffffffffffffffff\n      and\n      dup2\n      mstore\n      0x20\n      add\n      swap1\n      dup2\n      mstore\n      0x20\n      add\n      0x00\n      keccak256\n        /* \"contracts\\\\CommissionBasedNFT.sol\":17444:17474  _ownedTokens[from][tokenIndex] */\n      0x00\n        /* \"contracts\\\\CommissionBasedNFT.sol\":17463:17473  tokenIndex */\n      dup5\n        /* \"contracts\\\\CommissionBasedNFT.sol\":17444:17474  _ownedTokens[from][tokenIndex] */\n      dup2\n      mstore\n      0x20\n      add\n      swap1\n      dup2\n      mstore\n      0x20\n      add\n      0x00\n      keccak256\n        /* \"contracts\\\\CommissionBasedNFT.sol\":17444:17488  _ownedTokens[from][tokenIndex] = lastTokenId */\n      dup2\n      swap1\n      sstore\n      pop\n        /* \"contracts\\\\CommissionBasedNFT.sol\":17594:17604  tokenIndex */\n      dup2\n        /* \"contracts\\\\CommissionBasedNFT.sol\":17561:17578  _ownedTokensIndex */\n      0x07\n        /* \"contracts\\\\CommissionBasedNFT.sol\":17561:17591  _ownedTokensIndex[lastTokenId] */\n      0x00\n        /* \"contracts\\\\CommissionBasedNFT.sol\":17579:17590  lastTokenId */\n      dup4\n        /* \"contracts\\\\CommissionBasedNFT.sol\":17561:17591  _ownedTokensIndex[lastTokenId] */\n      dup2\n      mstore\n      0x20\n      add\n      swap1\n      dup2\n      mstore\n      0x20\n      add\n      0x00\n      keccak256\n        /* \"contracts\\\\CommissionBasedNFT.sol\":17561:17604  _ownedTokensIndex[lastTokenId] = tokenIndex */\n      dup2\n      swap1\n      sstore\n      pop\n        /* \"contracts\\\\CommissionBasedNFT.sol\":17356:17650  {... */\n      pop\n        /* \"contracts\\\\CommissionBasedNFT.sol\":17322:17650  if (tokenIndex != lastTokenIndex) {... */\n    tag_271:\n        /* \"contracts\\\\CommissionBasedNFT.sol\":17669:17686  _ownedTokensIndex */\n      0x07\n        /* \"contracts\\\\CommissionBasedNFT.sol\":17669:17695  _ownedTokensIndex[tokenId] */\n      0x00\n        /* \"contracts\\\\CommissionBasedNFT.sol\":17687:17694  tokenId */\n      dup5\n        /* \"contracts\\\\CommissionBasedNFT.sol\":17669:17695  _ownedTokensIndex[tokenId] */\n      dup2\n      mstore\n      0x20\n      add\n      swap1\n      dup2\n      mstore\n      0x20\n      add\n      0x00\n      keccak256\n        /* \"contracts\\\\CommissionBasedNFT.sol\":17662:17695  delete _ownedTokensIndex[tokenId] */\n      0x00\n      swap1\n      sstore\n        /* \"contracts\\\\CommissionBasedNFT.sol\":17713:17725  _ownedTokens */\n      0x06\n        /* \"contracts\\\\CommissionBasedNFT.sol\":17713:17731  _ownedTokens[from] */\n      0x00\n        /* \"contracts\\\\CommissionBasedNFT.sol\":17726:17730  from */\n      dup6\n        /* \"contracts\\\\CommissionBasedNFT.sol\":17713:17731  _ownedTokens[from] */\n      0xffffffffffffffffffffffffffffffffffffffff\n      and\n      0xffffffffffffffffffffffffffffffffffffffff\n      and\n      dup2\n      mstore\n      0x20\n      add\n      swap1\n      dup2\n      mstore\n      0x20\n      add\n      0x00\n      keccak256\n        /* \"contracts\\\\CommissionBasedNFT.sol\":17713:17747  _ownedTokens[from][lastTokenIndex] */\n      0x00\n        /* \"contracts\\\\CommissionBasedNFT.sol\":17732:17746  lastTokenIndex */\n      dup4\n        /* \"contracts\\\\CommissionBasedNFT.sol\":17713:17747  _ownedTokens[from][lastTokenIndex] */\n      dup2\n      mstore\n      0x20\n      add\n      swap1\n      dup2\n      mstore\n      0x20\n      add\n      0x00\n      keccak256\n        /* \"contracts\\\\CommissionBasedNFT.sol\":17706:17747  delete _ownedTokens[from][lastTokenIndex] */\n      0x00\n      swap1\n      sstore\n        /* \"contracts\\\\CommissionBasedNFT.sol\":17189:17755  {... */\n      pop\n      pop\n        /* \"contracts\\\\CommissionBasedNFT.sol\":17083:17755  function _removeTokenFromOwnerEnumeration(... */\n      pop\n      pop\n      jump\t// out\n        /* \"contracts\\\\CommissionBasedNFT.sol\":17763:18357  function _removeTokenFromAllTokensEnumeration(uint256 tokenId) private {... */\n    tag_260:\n        /* \"contracts\\\\CommissionBasedNFT.sol\":17845:17867  uint256 lastTokenIndex */\n      0x00\n        /* \"contracts\\\\CommissionBasedNFT.sol\":17890:17891  1 */\n      0x01\n        /* \"contracts\\\\CommissionBasedNFT.sol\":17870:17880  _allTokens */\n      0x08\n        /* \"contracts\\\\CommissionBasedNFT.sol\":17870:17887  _allTokens.length */\n      dup1\n      sload\n      swap1\n      pop\n        /* \"contracts\\\\CommissionBasedNFT.sol\":17870:17891  _allTokens.length - 1 */\n      tag_273\n      swap2\n      swap1\n      tag_236\n      jump\t// in\n    tag_273:\n        /* \"contracts\\\\CommissionBasedNFT.sol\":17845:17891  uint256 lastTokenIndex = _allTokens.length - 1 */\n      swap1\n      pop\n        /* \"contracts\\\\CommissionBasedNFT.sol\":17902:17920  uint256 tokenIndex */\n      0x00\n        /* \"contracts\\\\CommissionBasedNFT.sol\":17923:17938  _allTokensIndex */\n      0x09\n        /* \"contracts\\\\CommissionBasedNFT.sol\":17923:17947  _allTokensIndex[tokenId] */\n      0x00\n        /* \"contracts\\\\CommissionBasedNFT.sol\":17939:17946  tokenId */\n      dup5\n        /* \"contracts\\\\CommissionBasedNFT.sol\":17923:17947  _allTokensIndex[tokenId] */\n      dup2\n      mstore\n      0x20\n      add\n      swap1\n      dup2\n      mstore\n      0x20\n      add\n      0x00\n      keccak256\n      sload\n        /* \"contracts\\\\CommissionBasedNFT.sol\":17902:17947  uint256 tokenIndex = _allTokensIndex[tokenId] */\n      swap1\n      pop\n        /* \"contracts\\\\CommissionBasedNFT.sol\":17960:17979  uint256 lastTokenId */\n      0x00\n        /* \"contracts\\\\CommissionBasedNFT.sol\":17982:17992  _allTokens */\n      0x08\n        /* \"contracts\\\\CommissionBasedNFT.sol\":17993:18007  lastTokenIndex */\n      dup4\n        /* \"contracts\\\\CommissionBasedNFT.sol\":17982:18008  _allTokens[lastTokenIndex] */\n      dup2\n      sload\n      dup2\n      lt\n      tag_274\n      jumpi\n      tag_275\n      tag_81\n      jump\t// in\n    tag_275:\n    tag_274:\n      swap1\n      0x00\n      mstore\n      keccak256(0x00, 0x20)\n      add\n      sload\n        /* \"contracts\\\\CommissionBasedNFT.sol\":17960:18008  uint256 lastTokenId = _allTokens[lastTokenIndex] */\n      swap1\n      pop\n        /* \"contracts\\\\CommissionBasedNFT.sol\":18046:18057  lastTokenId */\n      dup1\n        /* \"contracts\\\\CommissionBasedNFT.sol\":18021:18031  _allTokens */\n      0x08\n        /* \"contracts\\\\CommissionBasedNFT.sol\":18032:18042  tokenIndex */\n      dup4\n        /* \"contracts\\\\CommissionBasedNFT.sol\":18021:18043  _allTokens[tokenIndex] */\n      dup2\n      sload\n      dup2\n      lt\n      tag_277\n      jumpi\n      tag_278\n      tag_81\n      jump\t// in\n    tag_278:\n    tag_277:\n      swap1\n      0x00\n      mstore\n      keccak256(0x00, 0x20)\n      add\n        /* \"contracts\\\\CommissionBasedNFT.sol\":18021:18057  _allTokens[tokenIndex] = lastTokenId */\n      dup2\n      swap1\n      sstore\n      pop\n        /* \"contracts\\\\CommissionBasedNFT.sol\":18157:18167  tokenIndex */\n      dup2\n        /* \"contracts\\\\CommissionBasedNFT.sol\":18126:18141  _allTokensIndex */\n      0x09\n        /* \"contracts\\\\CommissionBasedNFT.sol\":18126:18154  _allTokensIndex[lastTokenId] */\n      0x00\n        /* \"contracts\\\\CommissionBasedNFT.sol\":18142:18153  lastTokenId */\n      dup4\n        /* \"contracts\\\\CommissionBasedNFT.sol\":18126:18154  _allTokensIndex[lastTokenId] */\n      dup2\n      mstore\n      0x20\n      add\n      swap1\n      dup2\n      mstore\n      0x20\n      add\n      0x00\n      keccak256\n        /* \"contracts\\\\CommissionBasedNFT.sol\":18126:18167  _allTokensIndex[lastTokenId] = tokenIndex */\n      dup2\n      swap1\n      sstore\n      pop\n        /* \"contracts\\\\CommissionBasedNFT.sol\":18298:18313  _allTokensIndex */\n      0x09\n        /* \"contracts\\\\CommissionBasedNFT.sol\":18298:18322  _allTokensIndex[tokenId] */\n      0x00\n        /* \"contracts\\\\CommissionBasedNFT.sol\":18314:18321  tokenId */\n      dup6\n        /* \"contracts\\\\CommissionBasedNFT.sol\":18298:18322  _allTokensIndex[tokenId] */\n      dup2\n      mstore\n      0x20\n      add\n      swap1\n      dup2\n      mstore\n      0x20\n      add\n      0x00\n      keccak256\n        /* \"contracts\\\\CommissionBasedNFT.sol\":18291:18322  delete _allTokensIndex[tokenId] */\n      0x00\n      swap1\n      sstore\n        /* \"contracts\\\\CommissionBasedNFT.sol\":18333:18343  _allTokens */\n      0x08\n        /* \"contracts\\\\CommissionBasedNFT.sol\":18333:18349  _allTokens.pop() */\n      dup1\n      sload\n      dup1\n      tag_280\n      jumpi\n      tag_281\n      tag_282\n      jump\t// in\n    tag_281:\n    tag_280:\n      0x01\n      swap1\n      sub\n      dup2\n      dup2\n      swap1\n      0x00\n      mstore\n      keccak256(0x00, 0x20)\n      add\n      0x00\n      swap1\n      sstore\n      swap1\n      sstore\n        /* \"contracts\\\\CommissionBasedNFT.sol\":17834:18357  {... */\n      pop\n      pop\n      pop\n        /* \"contracts\\\\CommissionBasedNFT.sol\":17763:18357  function _removeTokenFromAllTokensEnumeration(uint256 tokenId) private {... */\n      pop\n      jump\t// out\n        /* \"contracts\\\\CommissionBasedNFT.sol\":16682:16903  function _addTokenToOwnerEnumeration(address to, uint256 tokenId) private {... */\n    tag_264:\n        /* \"contracts\\\\CommissionBasedNFT.sol\":16767:16781  uint256 length */\n      0x00\n        /* \"contracts\\\\CommissionBasedNFT.sol\":16784:16804  ERC721.balanceOf(to) */\n      tag_285\n        /* \"contracts\\\\CommissionBasedNFT.sol\":16801:16803  to */\n      dup4\n        /* \"contracts\\\\CommissionBasedNFT.sol\":16784:16800  ERC721.balanceOf */\n      tag_41\n        /* \"contracts\\\\CommissionBasedNFT.sol\":16784:16804  ERC721.balanceOf(to) */\n      jump\t// in\n    tag_285:\n        /* \"contracts\\\\CommissionBasedNFT.sol\":16767:16804  uint256 length = ERC721.balanceOf(to) */\n      swap1\n      pop\n        /* \"contracts\\\\CommissionBasedNFT.sol\":16842:16849  tokenId */\n      dup2\n        /* \"contracts\\\\CommissionBasedNFT.sol\":16815:16827  _ownedTokens */\n      0x06\n        /* \"contracts\\\\CommissionBasedNFT.sol\":16815:16831  _ownedTokens[to] */\n      0x00\n        /* \"contracts\\\\CommissionBasedNFT.sol\":16828:16830  to */\n      dup6\n        /* \"contracts\\\\CommissionBasedNFT.sol\":16815:16831  _ownedTokens[to] */\n      0xffffffffffffffffffffffffffffffffffffffff\n      and\n      0xffffffffffffffffffffffffffffffffffffffff\n      and\n      dup2\n      mstore\n      0x20\n      add\n      swap1\n      dup2\n      mstore\n      0x20\n      add\n      0x00\n      keccak256\n        /* \"contracts\\\\CommissionBasedNFT.sol\":16815:16839  _ownedTokens[to][length] */\n      0x00\n        /* \"contracts\\\\CommissionBasedNFT.sol\":16832:16838  length */\n      dup4\n        /* \"contracts\\\\CommissionBasedNFT.sol\":16815:16839  _ownedTokens[to][length] */\n      dup2\n      mstore\n      0x20\n      add\n      swap1\n      dup2\n      mstore\n      0x20\n      add\n      0x00\n      keccak256\n        /* \"contracts\\\\CommissionBasedNFT.sol\":16815:16849  _ownedTokens[to][length] = tokenId */\n      dup2\n      swap1\n      sstore\n      pop\n        /* \"contracts\\\\CommissionBasedNFT.sol\":16889:16895  length */\n      dup1\n        /* \"contracts\\\\CommissionBasedNFT.sol\":16860:16877  _ownedTokensIndex */\n      0x07\n        /* \"contracts\\\\CommissionBasedNFT.sol\":16860:16886  _ownedTokensIndex[tokenId] */\n      0x00\n        /* \"contracts\\\\CommissionBasedNFT.sol\":16878:16885  tokenId */\n      dup5\n        /* \"contracts\\\\CommissionBasedNFT.sol\":16860:16886  _ownedTokensIndex[tokenId] */\n      dup2\n      mstore\n      0x20\n      add\n      swap1\n      dup2\n      mstore\n      0x20\n      add\n      0x00\n      keccak256\n        /* \"contracts\\\\CommissionBasedNFT.sol\":16860:16895  _ownedTokensIndex[tokenId] = length */\n      dup2\n      swap1\n      sstore\n      pop\n        /* \"contracts\\\\CommissionBasedNFT.sol\":16756:16903  {... */\n      pop\n        /* \"contracts\\\\CommissionBasedNFT.sol\":16682:16903  function _addTokenToOwnerEnumeration(address to, uint256 tokenId) private {... */\n      pop\n      pop\n      jump\t// out\n        /* \"#utility.yul\":88:205   */\n    tag_287:\n        /* \"#utility.yul\":197:198   */\n      0x00\n        /* \"#utility.yul\":194:195   */\n      dup1\n        /* \"#utility.yul\":187:199   */\n      revert\n        /* \"#utility.yul\":211:328   */\n    tag_288:\n        /* \"#utility.yul\":320:321   */\n      0x00\n        /* \"#utility.yul\":317:318   */\n      dup1\n        /* \"#utility.yul\":310:322   */\n      revert\n        /* \"#utility.yul\":334:483   */\n    tag_289:\n        /* \"#utility.yul\":370:377   */\n      0x00\n        /* \"#utility.yul\":410:476   */\n      0xffffffff00000000000000000000000000000000000000000000000000000000\n        /* \"#utility.yul\":403:408   */\n      dup3\n        /* \"#utility.yul\":399:477   */\n      and\n        /* \"#utility.yul\":388:477   */\n      swap1\n      pop\n        /* \"#utility.yul\":334:483   */\n      swap2\n      swap1\n      pop\n      jump\t// out\n        /* \"#utility.yul\":489:609   */\n    tag_290:\n        /* \"#utility.yul\":561:584   */\n      tag_367\n        /* \"#utility.yul\":578:583   */\n      dup2\n        /* \"#utility.yul\":561:584   */\n      tag_289\n      jump\t// in\n    tag_367:\n        /* \"#utility.yul\":554:559   */\n      dup2\n        /* \"#utility.yul\":551:585   */\n      eq\n        /* \"#utility.yul\":541:603   */\n      tag_368\n      jumpi\n        /* \"#utility.yul\":599:600   */\n      0x00\n        /* \"#utility.yul\":596:597   */\n      dup1\n        /* \"#utility.yul\":589:601   */\n      revert\n        /* \"#utility.yul\":541:603   */\n    tag_368:\n        /* \"#utility.yul\":489:609   */\n      pop\n      jump\t// out\n        /* \"#utility.yul\":615:752   */\n    tag_291:\n        /* \"#utility.yul\":660:665   */\n      0x00\n        /* \"#utility.yul\":698:704   */\n      dup2\n        /* \"#utility.yul\":685:705   */\n      calldataload\n        /* \"#utility.yul\":676:705   */\n      swap1\n      pop\n        /* \"#utility.yul\":714:746   */\n      tag_370\n        /* \"#utility.yul\":740:745   */\n      dup2\n        /* \"#utility.yul\":714:746   */\n      tag_290\n      jump\t// in\n    tag_370:\n        /* \"#utility.yul\":615:752   */\n      swap3\n      swap2\n      pop\n      pop\n      jump\t// out\n        /* \"#utility.yul\":758:1085   */\n    tag_16:\n        /* \"#utility.yul\":816:822   */\n      0x00\n        /* \"#utility.yul\":865:867   */\n      0x20\n        /* \"#utility.yul\":853:862   */\n      dup3\n        /* \"#utility.yul\":844:851   */\n      dup5\n        /* \"#utility.yul\":840:863   */\n      sub\n        /* \"#utility.yul\":836:868   */\n      slt\n        /* \"#utility.yul\":833:952   */\n      iszero\n      tag_372\n      jumpi\n        /* \"#utility.yul\":871:950   */\n      tag_373\n      tag_287\n      jump\t// in\n    tag_373:\n        /* \"#utility.yul\":833:952   */\n    tag_372:\n        /* \"#utility.yul\":991:992   */\n      0x00\n        /* \"#utility.yul\":1016:1068   */\n      tag_374\n        /* \"#utility.yul\":1060:1067   */\n      dup5\n        /* \"#utility.yul\":1051:1057   */\n      dup3\n        /* \"#utility.yul\":1040:1049   */\n      dup6\n        /* \"#utility.yul\":1036:1058   */\n      add\n        /* \"#utility.yul\":1016:1068   */\n      tag_291\n      jump\t// in\n    tag_374:\n        /* \"#utility.yul\":1006:1068   */\n      swap2\n      pop\n        /* \"#utility.yul\":962:1078   */\n      pop\n        /* \"#utility.yul\":758:1085   */\n      swap3\n      swap2\n      pop\n      pop\n      jump\t// out\n        /* \"#utility.yul\":1091:1181   */\n    tag_292:\n        /* \"#utility.yul\":1125:1132   */\n      0x00\n        /* \"#utility.yul\":1168:1173   */\n      dup2\n        /* \"#utility.yul\":1161:1174   */\n      iszero\n        /* \"#utility.yul\":1154:1175   */\n      iszero\n        /* \"#utility.yul\":1143:1175   */\n      swap1\n      pop\n        /* \"#utility.yul\":1091:1181   */\n      swap2\n      swap1\n      pop\n      jump\t// out\n        /* \"#utility.yul\":1187:1296   */\n    tag_293:\n        /* \"#utility.yul\":1268:1289   */\n      tag_377\n        /* \"#utility.yul\":1283:1288   */\n      dup2\n        /* \"#utility.yul\":1268:1289   */\n      tag_292\n      jump\t// in\n    tag_377:\n        /* \"#utility.yul\":1263:1266   */\n      dup3\n        /* \"#utility.yul\":1256:1290   */\n      mstore\n        /* \"#utility.yul\":1187:1296   */\n      pop\n      pop\n      jump\t// out\n        /* \"#utility.yul\":1302:1512   */\n    tag_19:\n        /* \"#utility.yul\":1389:1393   */\n      0x00\n        /* \"#utility.yul\":1427:1429   */\n      0x20\n        /* \"#utility.yul\":1416:1425   */\n      dup3\n        /* \"#utility.yul\":1412:1430   */\n      add\n        /* \"#utility.yul\":1404:1430   */\n      swap1\n      pop\n        /* \"#utility.yul\":1440:1505   */\n      tag_379\n        /* \"#utility.yul\":1502:1503   */\n      0x00\n        /* \"#utility.yul\":1491:1500   */\n      dup4\n        /* \"#utility.yul\":1487:1504   */\n      add\n        /* \"#utility.yul\":1478:1484   */\n      dup5\n        /* \"#utility.yul\":1440:1505   */\n      tag_293\n      jump\t// in\n    tag_379:\n        /* \"#utility.yul\":1302:1512   */\n      swap3\n      swap2\n      pop\n      pop\n      jump\t// out\n        /* \"#utility.yul\":1518:1617   */\n    tag_294:\n        /* \"#utility.yul\":1570:1576   */\n      0x00\n        /* \"#utility.yul\":1604:1609   */\n      dup2\n        /* \"#utility.yul\":1598:1610   */\n      mload\n        /* \"#utility.yul\":1588:1610   */\n      swap1\n      pop\n        /* \"#utility.yul\":1518:1617   */\n      swap2\n      swap1\n      pop\n      jump\t// out\n        /* \"#utility.yul\":1623:1792   */\n    tag_295:\n        /* \"#utility.yul\":1707:1718   */\n      0x00\n        /* \"#utility.yul\":1741:1747   */\n      dup3\n        /* \"#utility.yul\":1736:1739   */\n      dup3\n        /* \"#utility.yul\":1729:1748   */\n      mstore\n        /* \"#utility.yul\":1781:1785   */\n      0x20\n        /* \"#utility.yul\":1776:1779   */\n      dup3\n        /* \"#utility.yul\":1772:1786   */\n      add\n        /* \"#utility.yul\":1757:1786   */\n      swap1\n      pop\n        /* \"#utility.yul\":1623:1792   */\n      swap3\n      swap2\n      pop\n      pop\n      jump\t// out\n        /* \"#utility.yul\":1798:2044   */\n    tag_296:\n        /* \"#utility.yul\":1879:1880   */\n      0x00\n        /* \"#utility.yul\":1889:2002   */\n    tag_383:\n        /* \"#utility.yul\":1903:1909   */\n      dup4\n        /* \"#utility.yul\":1900:1901   */\n      dup2\n        /* \"#utility.yul\":1897:1910   */\n      lt\n        /* \"#utility.yul\":1889:2002   */\n      iszero\n      tag_385\n      jumpi\n        /* \"#utility.yul\":1988:1989   */\n      dup1\n        /* \"#utility.yul\":1983:1986   */\n      dup3\n        /* \"#utility.yul\":1979:1990   */\n      add\n        /* \"#utility.yul\":1973:1991   */\n      mload\n        /* \"#utility.yul\":1969:1970   */\n      dup2\n        /* \"#utility.yul\":1964:1967   */\n      dup5\n        /* \"#utility.yul\":1960:1971   */\n      add\n        /* \"#utility.yul\":1953:1992   */\n      mstore\n        /* \"#utility.yul\":1925:1927   */\n      0x20\n        /* \"#utility.yul\":1922:1923   */\n      dup2\n        /* \"#utility.yul\":1918:1928   */\n      add\n        /* \"#utility.yul\":1913:1928   */\n      swap1\n      pop\n        /* \"#utility.yul\":1889:2002   */\n      jump(tag_383)\n    tag_385:\n        /* \"#utility.yul\":2036:2037   */\n      0x00\n        /* \"#utility.yul\":2027:2033   */\n      dup5\n        /* \"#utility.yul\":2022:2025   */\n      dup5\n        /* \"#utility.yul\":2018:2034   */\n      add\n        /* \"#utility.yul\":2011:2038   */\n      mstore\n        /* \"#utility.yul\":1860:2044   */\n      pop\n        /* \"#utility.yul\":1798:2044   */\n      pop\n      pop\n      pop\n      jump\t// out\n        /* \"#utility.yul\":2050:2152   */\n    tag_297:\n        /* \"#utility.yul\":2091:2097   */\n      0x00\n        /* \"#utility.yul\":2142:2144   */\n      0x1f\n        /* \"#utility.yul\":2138:2145   */\n      not\n        /* \"#utility.yul\":2133:2135   */\n      0x1f\n        /* \"#utility.yul\":2126:2131   */\n      dup4\n        /* \"#utility.yul\":2122:2136   */\n      add\n        /* \"#utility.yul\":2118:2146   */\n      and\n        /* \"#utility.yul\":2108:2146   */\n      swap1\n      pop\n        /* \"#utility.yul\":2050:2152   */\n      swap2\n      swap1\n      pop\n      jump\t// out\n        /* \"#utility.yul\":2158:2535   */\n    tag_298:\n        /* \"#utility.yul\":2246:2249   */\n      0x00\n        /* \"#utility.yul\":2274:2313   */\n      tag_388\n        /* \"#utility.yul\":2307:2312   */\n      dup3\n        /* \"#utility.yul\":2274:2313   */\n      tag_294\n      jump\t// in\n    tag_388:\n        /* \"#utility.yul\":2329:2400   */\n      tag_389\n        /* \"#utility.yul\":2393:2399   */\n      dup2\n        /* \"#utility.yul\":2388:2391   */\n      dup6\n        /* \"#utility.yul\":2329:2400   */\n      tag_295\n      jump\t// in\n    tag_389:\n        /* \"#utility.yul\":2322:2400   */\n      swap4\n      pop\n        /* \"#utility.yul\":2409:2474   */\n      tag_390\n        /* \"#utility.yul\":2467:2473   */\n      dup2\n        /* \"#utility.yul\":2462:2465   */\n      dup6\n        /* \"#utility.yul\":2455:2459   */\n      0x20\n        /* \"#utility.yul\":2448:2453   */\n      dup7\n        /* \"#utility.yul\":2444:2460   */\n      add\n        /* \"#utility.yul\":2409:2474   */\n      tag_296\n      jump\t// in\n    tag_390:\n        /* \"#utility.yul\":2499:2528   */\n      tag_391\n        /* \"#utility.yul\":2521:2527   */\n      dup2\n        /* \"#utility.yul\":2499:2528   */\n      tag_297\n      jump\t// in\n    tag_391:\n        /* \"#utility.yul\":2494:2497   */\n      dup5\n        /* \"#utility.yul\":2490:2529   */\n      add\n        /* \"#utility.yul\":2483:2529   */\n      swap2\n      pop\n        /* \"#utility.yul\":2250:2535   */\n      pop\n        /* \"#utility.yul\":2158:2535   */\n      swap3\n      swap2\n      pop\n      pop\n      jump\t// out\n        /* \"#utility.yul\":2541:2854   */\n    tag_23:\n        /* \"#utility.yul\":2654:2658   */\n      0x00\n        /* \"#utility.yul\":2692:2694   */\n      0x20\n        /* \"#utility.yul\":2681:2690   */\n      dup3\n        /* \"#utility.yul\":2677:2695   */\n      add\n        /* \"#utility.yul\":2669:2695   */\n      swap1\n      pop\n        /* \"#utility.yul\":2741:2750   */\n      dup2\n        /* \"#utility.yul\":2735:2739   */\n      dup2\n        /* \"#utility.yul\":2731:2751   */\n      sub\n        /* \"#utility.yul\":2727:2728   */\n      0x00\n        /* \"#utility.yul\":2716:2725   */\n      dup4\n        /* \"#utility.yul\":2712:2729   */\n      add\n        /* \"#utility.yul\":2705:2752   */\n      mstore\n        /* \"#utility.yul\":2769:2847   */\n      tag_393\n        /* \"#utility.yul\":2842:2846   */\n      dup2\n        /* \"#utility.yul\":2833:2839   */\n      dup5\n        /* \"#utility.yul\":2769:2847   */\n      tag_298\n      jump\t// in\n    tag_393:\n        /* \"#utility.yul\":2761:2847   */\n      swap1\n      pop\n        /* \"#utility.yul\":2541:2854   */\n      swap3\n      swap2\n      pop\n      pop\n      jump\t// out\n        /* \"#utility.yul\":2860:2937   */\n    tag_299:\n        /* \"#utility.yul\":2897:2904   */\n      0x00\n        /* \"#utility.yul\":2926:2931   */\n      dup2\n        /* \"#utility.yul\":2915:2931   */\n      swap1\n      pop\n        /* \"#utility.yul\":2860:2937   */\n      swap2\n      swap1\n      pop\n      jump\t// out\n        /* \"#utility.yul\":2943:3061   */\n    tag_300:\n        /* \"#utility.yul\":3030:3054   */\n      tag_396\n        /* \"#utility.yul\":3048:3053   */\n      dup2\n        /* \"#utility.yul\":3030:3054   */\n      tag_299\n      jump\t// in\n    tag_396:\n        /* \"#utility.yul\":3025:3028   */\n      dup3\n        /* \"#utility.yul\":3018:3055   */\n      mstore\n        /* \"#utility.yul\":2943:3061   */\n      pop\n      pop\n      jump\t// out\n        /* \"#utility.yul\":3067:3289   */\n    tag_27:\n        /* \"#utility.yul\":3160:3164   */\n      0x00\n        /* \"#utility.yul\":3198:3200   */\n      0x20\n        /* \"#utility.yul\":3187:3196   */\n      dup3\n        /* \"#utility.yul\":3183:3201   */\n      add\n        /* \"#utility.yul\":3175:3201   */\n      swap1\n      pop\n        /* \"#utility.yul\":3211:3282   */\n      tag_398\n        /* \"#utility.yul\":3279:3280   */\n      0x00\n        /* \"#utility.yul\":3268:3277   */\n      dup4\n        /* \"#utility.yul\":3264:3281   */\n      add\n        /* \"#utility.yul\":3255:3261   */\n      dup5\n        /* \"#utility.yul\":3211:3282   */\n      tag_300\n      jump\t// in\n    tag_398:\n        /* \"#utility.yul\":3067:3289   */\n      swap3\n      swap2\n      pop\n      pop\n      jump\t// out\n        /* \"#utility.yul\":3295:3412   */\n    tag_301:\n        /* \"#utility.yul\":3404:3405   */\n      0x00\n        /* \"#utility.yul\":3401:3402   */\n      dup1\n        /* \"#utility.yul\":3394:3406   */\n      revert\n        /* \"#utility.yul\":3418:3535   */\n    tag_302:\n        /* \"#utility.yul\":3527:3528   */\n      0x00\n        /* \"#utility.yul\":3524:3525   */\n      dup1\n        /* \"#utility.yul\":3517:3529   */\n      revert\n        /* \"#utility.yul\":3541:3658   */\n    tag_303:\n        /* \"#utility.yul\":3650:3651   */\n      0x00\n        /* \"#utility.yul\":3647:3648   */\n      dup1\n        /* \"#utility.yul\":3640:3652   */\n      revert\n        /* \"#utility.yul\":3681:4249   */\n    tag_304:\n        /* \"#utility.yul\":3754:3762   */\n      0x00\n        /* \"#utility.yul\":3764:3770   */\n      dup1\n        /* \"#utility.yul\":3814:3817   */\n      dup4\n        /* \"#utility.yul\":3807:3811   */\n      0x1f\n        /* \"#utility.yul\":3799:3805   */\n      dup5\n        /* \"#utility.yul\":3795:3812   */\n      add\n        /* \"#utility.yul\":3791:3818   */\n      slt\n        /* \"#utility.yul\":3781:3903   */\n      tag_403\n      jumpi\n        /* \"#utility.yul\":3822:3901   */\n      tag_404\n      tag_301\n      jump\t// in\n    tag_404:\n        /* \"#utility.yul\":3781:3903   */\n    tag_403:\n        /* \"#utility.yul\":3935:3941   */\n      dup3\n        /* \"#utility.yul\":3922:3942   */\n      calldataload\n        /* \"#utility.yul\":3912:3942   */\n      swap1\n      pop\n        /* \"#utility.yul\":3965:3983   */\n      0xffffffffffffffff\n        /* \"#utility.yul\":3957:3963   */\n      dup2\n        /* \"#utility.yul\":3954:3984   */\n      gt\n        /* \"#utility.yul\":3951:4068   */\n      iszero\n      tag_405\n      jumpi\n        /* \"#utility.yul\":3987:4066   */\n      tag_406\n      tag_302\n      jump\t// in\n    tag_406:\n        /* \"#utility.yul\":3951:4068   */\n    tag_405:\n        /* \"#utility.yul\":4101:4105   */\n      0x20\n        /* \"#utility.yul\":4093:4099   */\n      dup4\n        /* \"#utility.yul\":4089:4106   */\n      add\n        /* \"#utility.yul\":4077:4106   */\n      swap2\n      pop\n        /* \"#utility.yul\":4155:4158   */\n      dup4\n        /* \"#utility.yul\":4147:4151   */\n      0x20\n        /* \"#utility.yul\":4139:4145   */\n      dup3\n        /* \"#utility.yul\":4135:4152   */\n      mul\n        /* \"#utility.yul\":4125:4133   */\n      dup4\n        /* \"#utility.yul\":4121:4153   */\n      add\n        /* \"#utility.yul\":4118:4159   */\n      gt\n        /* \"#utility.yul\":4115:4243   */\n      iszero\n      tag_407\n      jumpi\n        /* \"#utility.yul\":4162:4241   */\n      tag_408\n      tag_303\n      jump\t// in\n    tag_408:\n        /* \"#utility.yul\":4115:4243   */\n    tag_407:\n        /* \"#utility.yul\":3681:4249   */\n      swap3\n      pop\n      swap3\n      swap1\n      pop\n      jump\t// out\n        /* \"#utility.yul\":4272:4840   */\n    tag_305:\n        /* \"#utility.yul\":4345:4353   */\n      0x00\n        /* \"#utility.yul\":4355:4361   */\n      dup1\n        /* \"#utility.yul\":4405:4408   */\n      dup4\n        /* \"#utility.yul\":4398:4402   */\n      0x1f\n        /* \"#utility.yul\":4390:4396   */\n      dup5\n        /* \"#utility.yul\":4386:4403   */\n      add\n        /* \"#utility.yul\":4382:4409   */\n      slt\n        /* \"#utility.yul\":4372:4494   */\n      tag_410\n      jumpi\n        /* \"#utility.yul\":4413:4492   */\n      tag_411\n      tag_301\n      jump\t// in\n    tag_411:\n        /* \"#utility.yul\":4372:4494   */\n    tag_410:\n        /* \"#utility.yul\":4526:4532   */\n      dup3\n        /* \"#utility.yul\":4513:4533   */\n      calldataload\n        /* \"#utility.yul\":4503:4533   */\n      swap1\n      pop\n        /* \"#utility.yul\":4556:4574   */\n      0xffffffffffffffff\n        /* \"#utility.yul\":4548:4554   */\n      dup2\n        /* \"#utility.yul\":4545:4575   */\n      gt\n        /* \"#utility.yul\":4542:4659   */\n      iszero\n      tag_412\n      jumpi\n        /* \"#utility.yul\":4578:4657   */\n      tag_413\n      tag_302\n      jump\t// in\n    tag_413:\n        /* \"#utility.yul\":4542:4659   */\n    tag_412:\n        /* \"#utility.yul\":4692:4696   */\n      0x20\n        /* \"#utility.yul\":4684:4690   */\n      dup4\n        /* \"#utility.yul\":4680:4697   */\n      add\n        /* \"#utility.yul\":4668:4697   */\n      swap2\n      pop\n        /* \"#utility.yul\":4746:4749   */\n      dup4\n        /* \"#utility.yul\":4738:4742   */\n      0x20\n        /* \"#utility.yul\":4730:4736   */\n      dup3\n        /* \"#utility.yul\":4726:4743   */\n      mul\n        /* \"#utility.yul\":4716:4724   */\n      dup4\n        /* \"#utility.yul\":4712:4744   */\n      add\n        /* \"#utility.yul\":4709:4750   */\n      gt\n        /* \"#utility.yul\":4706:4834   */\n      iszero\n      tag_414\n      jumpi\n        /* \"#utility.yul\":4753:4832   */\n      tag_415\n      tag_303\n      jump\t// in\n    tag_415:\n        /* \"#utility.yul\":4706:4834   */\n    tag_414:\n        /* \"#utility.yul\":4272:4840   */\n      swap3\n      pop\n      swap3\n      swap1\n      pop\n      jump\t// out\n        /* \"#utility.yul\":4862:5442   */\n    tag_306:\n        /* \"#utility.yul\":4947:4955   */\n      0x00\n        /* \"#utility.yul\":4957:4963   */\n      dup1\n        /* \"#utility.yul\":5007:5010   */\n      dup4\n        /* \"#utility.yul\":5000:5004   */\n      0x1f\n        /* \"#utility.yul\":4992:4998   */\n      dup5\n        /* \"#utility.yul\":4988:5005   */\n      add\n        /* \"#utility.yul\":4984:5011   */\n      slt\n        /* \"#utility.yul\":4974:5096   */\n      tag_417\n      jumpi\n        /* \"#utility.yul\":5015:5094   */\n      tag_418\n      tag_301\n      jump\t// in\n    tag_418:\n        /* \"#utility.yul\":4974:5096   */\n    tag_417:\n        /* \"#utility.yul\":5128:5134   */\n      dup3\n        /* \"#utility.yul\":5115:5135   */\n      calldataload\n        /* \"#utility.yul\":5105:5135   */\n      swap1\n      pop\n        /* \"#utility.yul\":5158:5176   */\n      0xffffffffffffffff\n        /* \"#utility.yul\":5150:5156   */\n      dup2\n        /* \"#utility.yul\":5147:5177   */\n      gt\n        /* \"#utility.yul\":5144:5261   */\n      iszero\n      tag_419\n      jumpi\n        /* \"#utility.yul\":5180:5259   */\n      tag_420\n      tag_302\n      jump\t// in\n    tag_420:\n        /* \"#utility.yul\":5144:5261   */\n    tag_419:\n        /* \"#utility.yul\":5294:5298   */\n      0x20\n        /* \"#utility.yul\":5286:5292   */\n      dup4\n        /* \"#utility.yul\":5282:5299   */\n      add\n        /* \"#utility.yul\":5270:5299   */\n      swap2\n      pop\n        /* \"#utility.yul\":5348:5351   */\n      dup4\n        /* \"#utility.yul\":5340:5344   */\n      0x20\n        /* \"#utility.yul\":5332:5338   */\n      dup3\n        /* \"#utility.yul\":5328:5345   */\n      mul\n        /* \"#utility.yul\":5318:5326   */\n      dup4\n        /* \"#utility.yul\":5314:5346   */\n      add\n        /* \"#utility.yul\":5311:5352   */\n      gt\n        /* \"#utility.yul\":5308:5436   */\n      iszero\n      tag_421\n      jumpi\n        /* \"#utility.yul\":5355:5434   */\n      tag_422\n      tag_303\n      jump\t// in\n    tag_422:\n        /* \"#utility.yul\":5308:5436   */\n    tag_421:\n        /* \"#utility.yul\":4862:5442   */\n      swap3\n      pop\n      swap3\n      swap1\n      pop\n      jump\t// out\n        /* \"#utility.yul\":5448:6781   */\n    tag_30:\n        /* \"#utility.yul\":5618:5624   */\n      0x00\n        /* \"#utility.yul\":5626:5632   */\n      dup1\n        /* \"#utility.yul\":5634:5640   */\n      0x00\n        /* \"#utility.yul\":5642:5648   */\n      dup1\n        /* \"#utility.yul\":5650:5656   */\n      0x00\n        /* \"#utility.yul\":5658:5664   */\n      dup1\n        /* \"#utility.yul\":5707:5709   */\n      0x60\n        /* \"#utility.yul\":5695:5704   */\n      dup8\n        /* \"#utility.yul\":5686:5693   */\n      dup10\n        /* \"#utility.yul\":5682:5705   */\n      sub\n        /* \"#utility.yul\":5678:5710   */\n      slt\n        /* \"#utility.yul\":5675:5794   */\n      iszero\n      tag_424\n      jumpi\n        /* \"#utility.yul\":5713:5792   */\n      tag_425\n      tag_287\n      jump\t// in\n    tag_425:\n        /* \"#utility.yul\":5675:5794   */\n    tag_424:\n        /* \"#utility.yul\":5861:5862   */\n      0x00\n        /* \"#utility.yul\":5850:5859   */\n      dup8\n        /* \"#utility.yul\":5846:5863   */\n      add\n        /* \"#utility.yul\":5833:5864   */\n      calldataload\n        /* \"#utility.yul\":5891:5909   */\n      0xffffffffffffffff\n        /* \"#utility.yul\":5883:5889   */\n      dup2\n        /* \"#utility.yul\":5880:5910   */\n      gt\n        /* \"#utility.yul\":5877:5994   */\n      iszero\n      tag_426\n      jumpi\n        /* \"#utility.yul\":5913:5992   */\n      tag_427\n      tag_288\n      jump\t// in\n    tag_427:\n        /* \"#utility.yul\":5877:5994   */\n    tag_426:\n        /* \"#utility.yul\":6026:6106   */\n      tag_428\n        /* \"#utility.yul\":6098:6105   */\n      dup10\n        /* \"#utility.yul\":6089:6095   */\n      dup3\n        /* \"#utility.yul\":6078:6087   */\n      dup11\n        /* \"#utility.yul\":6074:6096   */\n      add\n        /* \"#utility.yul\":6026:6106   */\n      tag_304\n      jump\t// in\n    tag_428:\n        /* \"#utility.yul\":6008:6106   */\n      swap7\n      pop\n      swap7\n      pop\n        /* \"#utility.yul\":5804:6116   */\n      pop\n        /* \"#utility.yul\":6183:6185   */\n      0x20\n        /* \"#utility.yul\":6172:6181   */\n      dup8\n        /* \"#utility.yul\":6168:6186   */\n      add\n        /* \"#utility.yul\":6155:6187   */\n      calldataload\n        /* \"#utility.yul\":6214:6232   */\n      0xffffffffffffffff\n        /* \"#utility.yul\":6206:6212   */\n      dup2\n        /* \"#utility.yul\":6203:6233   */\n      gt\n        /* \"#utility.yul\":6200:6317   */\n      iszero\n      tag_429\n      jumpi\n        /* \"#utility.yul\":6236:6315   */\n      tag_430\n      tag_288\n      jump\t// in\n    tag_430:\n        /* \"#utility.yul\":6200:6317   */\n    tag_429:\n        /* \"#utility.yul\":6349:6429   */\n      tag_431\n        /* \"#utility.yul\":6421:6428   */\n      dup10\n        /* \"#utility.yul\":6412:6418   */\n      dup3\n        /* \"#utility.yul\":6401:6410   */\n      dup11\n        /* \"#utility.yul\":6397:6419   */\n      add\n        /* \"#utility.yul\":6349:6429   */\n      tag_305\n      jump\t// in\n    tag_431:\n        /* \"#utility.yul\":6331:6429   */\n      swap5\n      pop\n      swap5\n      pop\n        /* \"#utility.yul\":6126:6439   */\n      pop\n        /* \"#utility.yul\":6506:6508   */\n      0x40\n        /* \"#utility.yul\":6495:6504   */\n      dup8\n        /* \"#utility.yul\":6491:6509   */\n      add\n        /* \"#utility.yul\":6478:6510   */\n      calldataload\n        /* \"#utility.yul\":6537:6555   */\n      0xffffffffffffffff\n        /* \"#utility.yul\":6529:6535   */\n      dup2\n        /* \"#utility.yul\":6526:6556   */\n      gt\n        /* \"#utility.yul\":6523:6640   */\n      iszero\n      tag_432\n      jumpi\n        /* \"#utility.yul\":6559:6638   */\n      tag_433\n      tag_288\n      jump\t// in\n    tag_433:\n        /* \"#utility.yul\":6523:6640   */\n    tag_432:\n        /* \"#utility.yul\":6672:6764   */\n      tag_434\n        /* \"#utility.yul\":6756:6763   */\n      dup10\n        /* \"#utility.yul\":6747:6753   */\n      dup3\n        /* \"#utility.yul\":6736:6745   */\n      dup11\n        /* \"#utility.yul\":6732:6754   */\n      add\n        /* \"#utility.yul\":6672:6764   */\n      tag_306\n      jump\t// in\n    tag_434:\n        /* \"#utility.yul\":6654:6764   */\n      swap3\n      pop\n      swap3\n      pop\n        /* \"#utility.yul\":6449:6774   */\n      pop\n        /* \"#utility.yul\":5448:6781   */\n      swap3\n      swap6\n      pop\n      swap3\n      swap6\n      pop\n      swap3\n      swap6\n      jump\t// out\n        /* \"#utility.yul\":6787:6909   */\n    tag_307:\n        /* \"#utility.yul\":6860:6884   */\n      tag_436\n        /* \"#utility.yul\":6878:6883   */\n      dup2\n        /* \"#utility.yul\":6860:6884   */\n      tag_299\n      jump\t// in\n    tag_436:\n        /* \"#utility.yul\":6853:6858   */\n      dup2\n        /* \"#utility.yul\":6850:6885   */\n      eq\n        /* \"#utility.yul\":6840:6903   */\n      tag_437\n      jumpi\n        /* \"#utility.yul\":6899:6900   */\n      0x00\n        /* \"#utility.yul\":6896:6897   */\n      dup1\n        /* \"#utility.yul\":6889:6901   */\n      revert\n        /* \"#utility.yul\":6840:6903   */\n    tag_437:\n        /* \"#utility.yul\":6787:6909   */\n      pop\n      jump\t// out\n        /* \"#utility.yul\":6915:7054   */\n    tag_308:\n        /* \"#utility.yul\":6961:6966   */\n      0x00\n        /* \"#utility.yul\":6999:7005   */\n      dup2\n        /* \"#utility.yul\":6986:7006   */\n      calldataload\n        /* \"#utility.yul\":6977:7006   */\n      swap1\n      pop\n        /* \"#utility.yul\":7015:7048   */\n      tag_439\n        /* \"#utility.yul\":7042:7047   */\n      dup2\n        /* \"#utility.yul\":7015:7048   */\n      tag_307\n      jump\t// in\n    tag_439:\n        /* \"#utility.yul\":6915:7054   */\n      swap3\n      swap2\n      pop\n      pop\n      jump\t// out\n        /* \"#utility.yul\":7060:7389   */\n    tag_34:\n        /* \"#utility.yul\":7119:7125   */\n      0x00\n        /* \"#utility.yul\":7168:7170   */\n      0x20\n        /* \"#utility.yul\":7156:7165   */\n      dup3\n        /* \"#utility.yul\":7147:7154   */\n      dup5\n        /* \"#utility.yul\":7143:7166   */\n      sub\n        /* \"#utility.yul\":7139:7171   */\n      slt\n        /* \"#utility.yul\":7136:7255   */\n      iszero\n      tag_441\n      jumpi\n        /* \"#utility.yul\":7174:7253   */\n      tag_442\n      tag_287\n      jump\t// in\n    tag_442:\n        /* \"#utility.yul\":7136:7255   */\n    tag_441:\n        /* \"#utility.yul\":7294:7295   */\n      0x00\n        /* \"#utility.yul\":7319:7372   */\n      tag_443\n        /* \"#utility.yul\":7364:7371   */\n      dup5\n        /* \"#utility.yul\":7355:7361   */\n      dup3\n        /* \"#utility.yul\":7344:7353   */\n      dup6\n        /* \"#utility.yul\":7340:7362   */\n      add\n        /* \"#utility.yul\":7319:7372   */\n      tag_308\n      jump\t// in\n    tag_443:\n        /* \"#utility.yul\":7309:7372   */\n      swap2\n      pop\n        /* \"#utility.yul\":7265:7382   */\n      pop\n        /* \"#utility.yul\":7060:7389   */\n      swap3\n      swap2\n      pop\n      pop\n      jump\t// out\n        /* \"#utility.yul\":7395:7521   */\n    tag_309:\n        /* \"#utility.yul\":7432:7439   */\n      0x00\n        /* \"#utility.yul\":7472:7514   */\n      0xffffffffffffffffffffffffffffffffffffffff\n        /* \"#utility.yul\":7465:7470   */\n      dup3\n        /* \"#utility.yul\":7461:7515   */\n      and\n        /* \"#utility.yul\":7450:7515   */\n      swap1\n      pop\n        /* \"#utility.yul\":7395:7521   */\n      swap2\n      swap1\n      pop\n      jump\t// out\n        /* \"#utility.yul\":7527:7623   */\n    tag_310:\n        /* \"#utility.yul\":7564:7571   */\n      0x00\n        /* \"#utility.yul\":7593:7617   */\n      tag_446\n        /* \"#utility.yul\":7611:7616   */\n      dup3\n        /* \"#utility.yul\":7593:7617   */\n      tag_309\n      jump\t// in\n    tag_446:\n        /* \"#utility.yul\":7582:7617   */\n      swap1\n      pop\n        /* \"#utility.yul\":7527:7623   */\n      swap2\n      swap1\n      pop\n      jump\t// out\n        /* \"#utility.yul\":7629:7747   */\n    tag_311:\n        /* \"#utility.yul\":7716:7740   */\n      tag_448\n        /* \"#utility.yul\":7734:7739   */\n      dup2\n        /* \"#utility.yul\":7716:7740   */\n      tag_310\n      jump\t// in\n    tag_448:\n        /* \"#utility.yul\":7711:7714   */\n      dup3\n        /* \"#utility.yul\":7704:7741   */\n      mstore\n        /* \"#utility.yul\":7629:7747   */\n      pop\n      pop\n      jump\t// out\n        /* \"#utility.yul\":7753:7975   */\n    tag_37:\n        /* \"#utility.yul\":7846:7850   */\n      0x00\n        /* \"#utility.yul\":7884:7886   */\n      0x20\n        /* \"#utility.yul\":7873:7882   */\n      dup3\n        /* \"#utility.yul\":7869:7887   */\n      add\n        /* \"#utility.yul\":7861:7887   */\n      swap1\n      pop\n        /* \"#utility.yul\":7897:7968   */\n      tag_450\n        /* \"#utility.yul\":7965:7966   */\n      0x00\n        /* \"#utility.yul\":7954:7963   */\n      dup4\n        /* \"#utility.yul\":7950:7967   */\n      add\n        /* \"#utility.yul\":7941:7947   */\n      dup5\n        /* \"#utility.yul\":7897:7968   */\n      tag_311\n      jump\t// in\n    tag_450:\n        /* \"#utility.yul\":7753:7975   */\n      swap3\n      swap2\n      pop\n      pop\n      jump\t// out\n        /* \"#utility.yul\":7981:8103   */\n    tag_312:\n        /* \"#utility.yul\":8054:8078   */\n      tag_452\n        /* \"#utility.yul\":8072:8077   */\n      dup2\n        /* \"#utility.yul\":8054:8078   */\n      tag_310\n      jump\t// in\n    tag_452:\n        /* \"#utility.yul\":8047:8052   */\n      dup2\n        /* \"#utility.yul\":8044:8079   */\n      eq\n        /* \"#utility.yul\":8034:8097   */\n      tag_453\n      jumpi\n        /* \"#utility.yul\":8093:8094   */\n      0x00\n        /* \"#utility.yul\":8090:8091   */\n      dup1\n        /* \"#utility.yul\":8083:8095   */\n      revert\n        /* \"#utility.yul\":8034:8097   */\n    tag_453:\n        /* \"#utility.yul\":7981:8103   */\n      pop\n      jump\t// out\n        /* \"#utility.yul\":8109:8248   */\n    tag_313:\n        /* \"#utility.yul\":8155:8160   */\n      0x00\n        /* \"#utility.yul\":8193:8199   */\n      dup2\n        /* \"#utility.yul\":8180:8200   */\n      calldataload\n        /* \"#utility.yul\":8171:8200   */\n      swap1\n      pop\n        /* \"#utility.yul\":8209:8242   */\n      tag_455\n        /* \"#utility.yul\":8236:8241   */\n      dup2\n        /* \"#utility.yul\":8209:8242   */\n      tag_312\n      jump\t// in\n    tag_455:\n        /* \"#utility.yul\":8109:8248   */\n      swap3\n      swap2\n      pop\n      pop\n      jump\t// out\n        /* \"#utility.yul\":8254:8583   */\n    tag_40:\n        /* \"#utility.yul\":8313:8319   */\n      0x00\n        /* \"#utility.yul\":8362:8364   */\n      0x20\n        /* \"#utility.yul\":8350:8359   */\n      dup3\n        /* \"#utility.yul\":8341:8348   */\n      dup5\n        /* \"#utility.yul\":8337:8360   */\n      sub\n        /* \"#utility.yul\":8333:8365   */\n      slt\n        /* \"#utility.yul\":8330:8449   */\n      iszero\n      tag_457\n      jumpi\n        /* \"#utility.yul\":8368:8447   */\n      tag_458\n      tag_287\n      jump\t// in\n    tag_458:\n        /* \"#utility.yul\":8330:8449   */\n    tag_457:\n        /* \"#utility.yul\":8488:8489   */\n      0x00\n        /* \"#utility.yul\":8513:8566   */\n      tag_459\n        /* \"#utility.yul\":8558:8565   */\n      dup5\n        /* \"#utility.yul\":8549:8555   */\n      dup3\n        /* \"#utility.yul\":8538:8547   */\n      dup6\n        /* \"#utility.yul\":8534:8556   */\n      add\n        /* \"#utility.yul\":8513:8566   */\n      tag_313\n      jump\t// in\n    tag_459:\n        /* \"#utility.yul\":8503:8566   */\n      swap2\n      pop\n        /* \"#utility.yul\":8459:8576   */\n      pop\n        /* \"#utility.yul\":8254:8583   */\n      swap3\n      swap2\n      pop\n      pop\n      jump\t// out\n        /* \"#utility.yul\":8589:8769   */\n    tag_314:\n        /* \"#utility.yul\":8637:8714   */\n      0x4e487b7100000000000000000000000000000000000000000000000000000000\n        /* \"#utility.yul\":8634:8635   */\n      0x00\n        /* \"#utility.yul\":8627:8715   */\n      mstore\n        /* \"#utility.yul\":8734:8738   */\n      0x22\n        /* \"#utility.yul\":8731:8732   */\n      0x04\n        /* \"#utility.yul\":8724:8739   */\n      mstore\n        /* \"#utility.yul\":8758:8762   */\n      0x24\n        /* \"#utility.yul\":8755:8756   */\n      0x00\n        /* \"#utility.yul\":8748:8763   */\n      revert\n        /* \"#utility.yul\":8775:9095   */\n    tag_61:\n        /* \"#utility.yul\":8819:8825   */\n      0x00\n        /* \"#utility.yul\":8856:8857   */\n      0x02\n        /* \"#utility.yul\":8850:8854   */\n      dup3\n        /* \"#utility.yul\":8846:8858   */\n      div\n        /* \"#utility.yul\":8836:8858   */\n      swap1\n      pop\n        /* \"#utility.yul\":8903:8904   */\n      0x01\n        /* \"#utility.yul\":8897:8901   */\n      dup3\n        /* \"#utility.yul\":8893:8905   */\n      and\n        /* \"#utility.yul\":8924:8942   */\n      dup1\n        /* \"#utility.yul\":8914:8995   */\n      tag_462\n      jumpi\n        /* \"#utility.yul\":8980:8984   */\n      0x7f\n        /* \"#utility.yul\":8972:8978   */\n      dup3\n        /* \"#utility.yul\":8968:8985   */\n      and\n        /* \"#utility.yul\":8958:8985   */\n      swap2\n      pop\n        /* \"#utility.yul\":8914:8995   */\n    tag_462:\n        /* \"#utility.yul\":9042:9044   */\n      0x20\n        /* \"#utility.yul\":9034:9040   */\n      dup3\n        /* \"#utility.yul\":9031:9045   */\n      lt\n        /* \"#utility.yul\":9011:9029   */\n      dup2\n        /* \"#utility.yul\":9008:9046   */\n      sub\n        /* \"#utility.yul\":9005:9089   */\n      tag_463\n      jumpi\n        /* \"#utility.yul\":9061:9079   */\n      tag_464\n      tag_314\n      jump\t// in\n    tag_464:\n        /* \"#utility.yul\":9005:9089   */\n    tag_463:\n        /* \"#utility.yul\":8826:9095   */\n      pop\n        /* \"#utility.yul\":8775:9095   */\n      swap2\n      swap1\n      pop\n      jump\t// out\n        /* \"#utility.yul\":9101:9283   */\n    tag_315:\n        /* \"#utility.yul\":9241:9275   */\n      0x4f776e61626c653a2063616c6c6572206973206e6f7420746865206f776e6572\n        /* \"#utility.yul\":9237:9238   */\n      0x00\n        /* \"#utility.yul\":9229:9235   */\n      dup3\n        /* \"#utility.yul\":9225:9239   */\n      add\n        /* \"#utility.yul\":9218:9276   */\n      mstore\n        /* \"#utility.yul\":9101:9283   */\n      pop\n      jump\t// out\n        /* \"#utility.yul\":9289:9655   */\n    tag_316:\n        /* \"#utility.yul\":9431:9434   */\n      0x00\n        /* \"#utility.yul\":9452:9519   */\n      tag_467\n        /* \"#utility.yul\":9516:9518   */\n      0x20\n        /* \"#utility.yul\":9511:9514   */\n      dup4\n        /* \"#utility.yul\":9452:9519   */\n      tag_295\n      jump\t// in\n    tag_467:\n        /* \"#utility.yul\":9445:9519   */\n      swap2\n      pop\n        /* \"#utility.yul\":9528:9621   */\n      tag_468\n        /* \"#utility.yul\":9617:9620   */\n      dup3\n        /* \"#utility.yul\":9528:9621   */\n      tag_315\n      jump\t// in\n    tag_468:\n        /* \"#utility.yul\":9646:9648   */\n      0x20\n        /* \"#utility.yul\":9641:9644   */\n      dup3\n        /* \"#utility.yul\":9637:9649   */\n      add\n        /* \"#utility.yul\":9630:9649   */\n      swap1\n      pop\n        /* \"#utility.yul\":9289:9655   */\n      swap2\n      swap1\n      pop\n      jump\t// out\n        /* \"#utility.yul\":9661:10080   */\n    tag_73:\n        /* \"#utility.yul\":9827:9831   */\n      0x00\n        /* \"#utility.yul\":9865:9867   */\n      0x20\n        /* \"#utility.yul\":9854:9863   */\n      dup3\n        /* \"#utility.yul\":9850:9868   */\n      add\n        /* \"#utility.yul\":9842:9868   */\n      swap1\n      pop\n        /* \"#utility.yul\":9914:9923   */\n      dup2\n        /* \"#utility.yul\":9908:9912   */\n      dup2\n        /* \"#utility.yul\":9904:9924   */\n      sub\n        /* \"#utility.yul\":9900:9901   */\n      0x00\n        /* \"#utility.yul\":9889:9898   */\n      dup4\n        /* \"#utility.yul\":9885:9902   */\n      add\n        /* \"#utility.yul\":9878:9925   */\n      mstore\n        /* \"#utility.yul\":9942:10073   */\n      tag_470\n        /* \"#utility.yul\":10068:10072   */\n      dup2\n        /* \"#utility.yul\":9942:10073   */\n      tag_316\n      jump\t// in\n    tag_470:\n        /* \"#utility.yul\":9934:10073   */\n      swap1\n      pop\n        /* \"#utility.yul\":9661:10080   */\n      swap2\n      swap1\n      pop\n      jump\t// out\n        /* \"#utility.yul\":10086:10266   */\n    tag_81:\n        /* \"#utility.yul\":10134:10211   */\n      0x4e487b7100000000000000000000000000000000000000000000000000000000\n        /* \"#utility.yul\":10131:10132   */\n      0x00\n        /* \"#utility.yul\":10124:10212   */\n      mstore\n        /* \"#utility.yul\":10231:10235   */\n      0x32\n        /* \"#utility.yul\":10228:10229   */\n      0x04\n        /* \"#utility.yul\":10221:10236   */\n      mstore\n        /* \"#utility.yul\":10255:10259   */\n      0x24\n        /* \"#utility.yul\":10252:10253   */\n      0x00\n        /* \"#utility.yul\":10245:10260   */\n      revert\n        /* \"#utility.yul\":10272:10389   */\n    tag_317:\n        /* \"#utility.yul\":10381:10382   */\n      0x00\n        /* \"#utility.yul\":10378:10379   */\n      dup1\n        /* \"#utility.yul\":10371:10383   */\n      revert\n        /* \"#utility.yul\":10395:10512   */\n    tag_318:\n        /* \"#utility.yul\":10504:10505   */\n      0x00\n        /* \"#utility.yul\":10501:10502   */\n      dup1\n        /* \"#utility.yul\":10494:10506   */\n      revert\n        /* \"#utility.yul\":10518:10635   */\n    tag_319:\n        /* \"#utility.yul\":10627:10628   */\n      0x00\n        /* \"#utility.yul\":10624:10625   */\n      dup1\n        /* \"#utility.yul\":10617:10629   */\n      revert\n        /* \"#utility.yul\":10641:11366   */\n    tag_92:\n        /* \"#utility.yul\":10719:10723   */\n      0x00\n        /* \"#utility.yul\":10725:10731   */\n      dup1\n        /* \"#utility.yul\":10781:10792   */\n      dup4\n        /* \"#utility.yul\":10768:10793   */\n      calldataload\n        /* \"#utility.yul\":10881:10882   */\n      0x01\n        /* \"#utility.yul\":10875:10879   */\n      0x20\n        /* \"#utility.yul\":10871:10883   */\n      sub\n        /* \"#utility.yul\":10860:10868   */\n      dup5\n        /* \"#utility.yul\":10844:10858   */\n      calldatasize\n        /* \"#utility.yul\":10840:10869   */\n      sub\n        /* \"#utility.yul\":10836:10884   */\n      sub\n        /* \"#utility.yul\":10816:10834   */\n      dup2\n        /* \"#utility.yul\":10812:10885   */\n      slt\n        /* \"#utility.yul\":10802:10970   */\n      tag_476\n      jumpi\n        /* \"#utility.yul\":10889:10968   */\n      tag_477\n      tag_317\n      jump\t// in\n    tag_477:\n        /* \"#utility.yul\":10802:10970   */\n    tag_476:\n        /* \"#utility.yul\":11001:11019   */\n      dup1\n        /* \"#utility.yul\":10991:10999   */\n      dup5\n        /* \"#utility.yul\":10987:11020   */\n      add\n        /* \"#utility.yul\":10979:11020   */\n      swap3\n      pop\n        /* \"#utility.yul\":11053:11057   */\n      dup3\n        /* \"#utility.yul\":11040:11058   */\n      calldataload\n        /* \"#utility.yul\":11030:11058   */\n      swap2\n      pop\n        /* \"#utility.yul\":11081:11099   */\n      0xffffffffffffffff\n        /* \"#utility.yul\":11073:11079   */\n      dup3\n        /* \"#utility.yul\":11070:11100   */\n      gt\n        /* \"#utility.yul\":11067:11184   */\n      iszero\n      tag_478\n      jumpi\n        /* \"#utility.yul\":11103:11182   */\n      tag_479\n      tag_318\n      jump\t// in\n    tag_479:\n        /* \"#utility.yul\":11067:11184   */\n    tag_478:\n        /* \"#utility.yul\":11211:11213   */\n      0x20\n        /* \"#utility.yul\":11205:11209   */\n      dup4\n        /* \"#utility.yul\":11201:11214   */\n      add\n        /* \"#utility.yul\":11193:11214   */\n      swap3\n      pop\n        /* \"#utility.yul\":11268:11272   */\n      0x01\n        /* \"#utility.yul\":11260:11266   */\n      dup3\n        /* \"#utility.yul\":11256:11273   */\n      mul\n        /* \"#utility.yul\":11240:11254   */\n      calldatasize\n        /* \"#utility.yul\":11236:11274   */\n      sub\n        /* \"#utility.yul\":11230:11234   */\n      dup4\n        /* \"#utility.yul\":11226:11275   */\n      sgt\n        /* \"#utility.yul\":11223:11359   */\n      iszero\n      tag_480\n      jumpi\n        /* \"#utility.yul\":11278:11357   */\n      tag_481\n      tag_319\n      jump\t// in\n    tag_481:\n        /* \"#utility.yul\":11223:11359   */\n    tag_480:\n        /* \"#utility.yul\":10732:11366   */\n      pop\n        /* \"#utility.yul\":10641:11366   */\n      swap3\n      pop\n      swap3\n      swap1\n      pop\n      jump\t// out\n        /* \"#utility.yul\":11372:11552   */\n    tag_320:\n        /* \"#utility.yul\":11420:11497   */\n      0x4e487b7100000000000000000000000000000000000000000000000000000000\n        /* \"#utility.yul\":11417:11418   */\n      0x00\n        /* \"#utility.yul\":11410:11498   */\n      mstore\n        /* \"#utility.yul\":11517:11521   */\n      0x11\n        /* \"#utility.yul\":11514:11515   */\n      0x04\n        /* \"#utility.yul\":11507:11522   */\n      mstore\n        /* \"#utility.yul\":11541:11545   */\n      0x24\n        /* \"#utility.yul\":11538:11539   */\n      0x00\n        /* \"#utility.yul\":11531:11546   */\n      revert\n        /* \"#utility.yul\":11558:11791   */\n    tag_95:\n        /* \"#utility.yul\":11597:11600   */\n      0x00\n        /* \"#utility.yul\":11620:11644   */\n      tag_484\n        /* \"#utility.yul\":11638:11643   */\n      dup3\n        /* \"#utility.yul\":11620:11644   */\n      tag_299\n      jump\t// in\n    tag_484:\n        /* \"#utility.yul\":11611:11644   */\n      swap2\n      pop\n        /* \"#utility.yul\":11666:11732   */\n      0xffffffffffffffffffffffffffffffffffffffffffffffffffffffffffffffff\n        /* \"#utility.yul\":11659:11664   */\n      dup3\n        /* \"#utility.yul\":11656:11733   */\n      sub\n        /* \"#utility.yul\":11653:11756   */\n      tag_485\n      jumpi\n        /* \"#utility.yul\":11736:11754   */\n      tag_486\n      tag_320\n      jump\t// in\n    tag_486:\n        /* \"#utility.yul\":11653:11756   */\n    tag_485:\n        /* \"#utility.yul\":11783:11784   */\n      0x01\n        /* \"#utility.yul\":11776:11781   */\n      dup3\n        /* \"#utility.yul\":11772:11785   */\n      add\n        /* \"#utility.yul\":11765:11785   */\n      swap1\n      pop\n        /* \"#utility.yul\":11558:11791   */\n      swap2\n      swap1\n      pop\n      jump\t// out\n        /* \"#utility.yul\":11797:12025   */\n    tag_321:\n        /* \"#utility.yul\":11937:11971   */\n      0x4552433732313a206f776e657220717565727920666f72206e6f6e6578697374\n        /* \"#utility.yul\":11933:11934   */\n      0x00\n        /* \"#utility.yul\":11925:11931   */\n      dup3\n        /* \"#utility.yul\":11921:11935   */\n      add\n        /* \"#utility.yul\":11914:11972   */\n      mstore\n        /* \"#utility.yul\":12006:12017   */\n      0x656e7420746f6b656e0000000000000000000000000000000000000000000000\n        /* \"#utility.yul\":12001:12003   */\n      0x20\n        /* \"#utility.yul\":11993:11999   */\n      dup3\n        /* \"#utility.yul\":11989:12004   */\n      add\n        /* \"#utility.yul\":11982:12018   */\n      mstore\n        /* \"#utility.yul\":11797:12025   */\n      pop\n      jump\t// out\n        /* \"#utility.yul\":12031:12397   */\n    tag_322:\n        /* \"#utility.yul\":12173:12176   */\n      0x00\n        /* \"#utility.yul\":12194:12261   */\n      tag_489\n        /* \"#utility.yul\":12258:12260   */\n      0x29\n        /* \"#utility.yul\":12253:12256   */\n      dup4\n        /* \"#utility.yul\":12194:12261   */\n      tag_295\n      jump\t// in\n    tag_489:\n        /* \"#utility.yul\":12187:12261   */\n      swap2\n      pop\n        /* \"#utility.yul\":12270:12363   */\n      tag_490\n        /* \"#utility.yul\":12359:12362   */\n      dup3\n        /* \"#utility.yul\":12270:12363   */\n      tag_321\n      jump\t// in\n    tag_490:\n        /* \"#utility.yul\":12388:12390   */\n      0x40\n        /* \"#utility.yul\":12383:12386   */\n      dup3\n        /* \"#utility.yul\":12379:12391   */\n      add\n        /* \"#utility.yul\":12372:12391   */\n      swap1\n      pop\n        /* \"#utility.yul\":12031:12397   */\n      swap2\n      swap1\n      pop\n      jump\t// out\n        /* \"#utility.yul\":12403:12822   */\n    tag_99:\n        /* \"#utility.yul\":12569:12573   */\n      0x00\n        /* \"#utility.yul\":12607:12609   */\n      0x20\n        /* \"#utility.yul\":12596:12605   */\n      dup3\n        /* \"#utility.yul\":12592:12610   */\n      add\n        /* \"#utility.yul\":12584:12610   */\n      swap1\n      pop\n        /* \"#utility.yul\":12656:12665   */\n      dup2\n        /* \"#utility.yul\":12650:12654   */\n      dup2\n        /* \"#utility.yul\":12646:12666   */\n      sub\n        /* \"#utility.yul\":12642:12643   */\n      0x00\n        /* \"#utility.yul\":12631:12640   */\n      dup4\n        /* \"#utility.yul\":12627:12644   */\n      add\n        /* \"#utility.yul\":12620:12667   */\n      mstore\n        /* \"#utility.yul\":12684:12815   */\n      tag_492\n        /* \"#utility.yul\":12810:12814   */\n      dup2\n        /* \"#utility.yul\":12684:12815   */\n      tag_322\n      jump\t// in\n    tag_492:\n        /* \"#utility.yul\":12676:12815   */\n      swap1\n      pop\n        /* \"#utility.yul\":12403:12822   */\n      swap2\n      swap1\n      pop\n      jump\t// out\n        /* \"#utility.yul\":12828:13057   */\n    tag_323:\n        /* \"#utility.yul\":12968:13002   */\n      0x4552433732313a2062616c616e636520717565727920666f7220746865207a65\n        /* \"#utility.yul\":12964:12965   */\n      0x00\n        /* \"#utility.yul\":12956:12962   */\n      dup3\n        /* \"#utility.yul\":12952:12966   */\n      add\n        /* \"#utility.yul\":12945:13003   */\n      mstore\n        /* \"#utility.yul\":13037:13049   */\n      0x726f206164647265737300000000000000000000000000000000000000000000\n        /* \"#utility.yul\":13032:13034   */\n      0x20\n        /* \"#utility.yul\":13024:13030   */\n      dup3\n        /* \"#utility.yul\":13020:13035   */\n      add\n        /* \"#utility.yul\":13013:13050   */\n      mstore\n        /* \"#utility.yul\":12828:13057   */\n      pop\n      jump\t// out\n        /* \"#utility.yul\":13063:13429   */\n    tag_324:\n        /* \"#utility.yul\":13205:13208   */\n      0x00\n        /* \"#utility.yul\":13226:13293   */\n      tag_495\n        /* \"#utility.yul\":13290:13292   */\n      0x2a\n        /* \"#utility.yul\":13285:13288   */\n      dup4\n        /* \"#utility.yul\":13226:13293   */\n      tag_295\n      jump\t// in\n    tag_495:\n        /* \"#utility.yul\":13219:13293   */\n      swap2\n      pop\n        /* \"#utility.yul\":13302:13395   */\n      tag_496\n        /* \"#utility.yul\":13391:13394   */\n      dup3\n        /* \"#utility.yul\":13302:13395   */\n      tag_323\n      jump\t// in\n    tag_496:\n        /* \"#utility.yul\":13420:13422   */\n      0x40\n        /* \"#utility.yul\":13415:13418   */\n      dup3\n        /* \"#utility.yul\":13411:13423   */\n      add\n        /* \"#utility.yul\":13404:13423   */\n      swap1\n      pop\n        /* \"#utility.yul\":13063:13429   */\n      swap2\n      swap1\n      pop\n      jump\t// out\n        /* \"#utility.yul\":13435:13854   */\n    tag_103:\n        /* \"#utility.yul\":13601:13605   */\n      0x00\n        /* \"#utility.yul\":13639:13641   */\n      0x20\n        /* \"#utility.yul\":13628:13637   */\n      dup3\n        /* \"#utility.yul\":13624:13642   */\n      add\n        /* \"#utility.yul\":13616:13642   */\n      swap1\n      pop\n        /* \"#utility.yul\":13688:13697   */\n      dup2\n        /* \"#utility.yul\":13682:13686   */\n      dup2\n        /* \"#utility.yul\":13678:13698   */\n      sub\n        /* \"#utility.yul\":13674:13675   */\n      0x00\n        /* \"#utility.yul\":13663:13672   */\n      dup4\n        /* \"#utility.yul\":13659:13676   */\n      add\n        /* \"#utility.yul\":13652:13699   */\n      mstore\n        /* \"#utility.yul\":13716:13847   */\n      tag_498\n        /* \"#utility.yul\":13842:13846   */\n      dup2\n        /* \"#utility.yul\":13716:13847   */\n      tag_324\n      jump\t// in\n    tag_498:\n        /* \"#utility.yul\":13708:13847   */\n      swap1\n      pop\n        /* \"#utility.yul\":13435:13854   */\n      swap2\n      swap1\n      pop\n      jump\t// out\n        /* \"#utility.yul\":13860:14085   */\n    tag_325:\n        /* \"#utility.yul\":14000:14034   */\n      0x4f776e61626c653a206e6577206f776e657220697320746865207a65726f2061\n        /* \"#utility.yul\":13996:13997   */\n      0x00\n        /* \"#utility.yul\":13988:13994   */\n      dup3\n        /* \"#utility.yul\":13984:13998   */\n      add\n        /* \"#utility.yul\":13977:14035   */\n      mstore\n        /* \"#utility.yul\":14069:14077   */\n      0x6464726573730000000000000000000000000000000000000000000000000000\n        /* \"#utility.yul\":14064:14066   */\n      0x20\n        /* \"#utility.yul\":14056:14062   */\n      dup3\n        /* \"#utility.yul\":14052:14067   */\n      add\n        /* \"#utility.yul\":14045:14078   */\n      mstore\n        /* \"#utility.yul\":13860:14085   */\n      pop\n      jump\t// out\n        /* \"#utility.yul\":14091:14457   */\n    tag_326:\n        /* \"#utility.yul\":14233:14236   */\n      0x00\n        /* \"#utility.yul\":14254:14321   */\n      tag_501\n        /* \"#utility.yul\":14318:14320   */\n      0x26\n        /* \"#utility.yul\":14313:14316   */\n      dup4\n        /* \"#utility.yul\":14254:14321   */\n      tag_295\n      jump\t// in\n    tag_501:\n        /* \"#utility.yul\":14247:14321   */\n      swap2\n      pop\n        /* \"#utility.yul\":14330:14423   */\n      tag_502\n        /* \"#utility.yul\":14419:14422   */\n      dup3\n        /* \"#utility.yul\":14330:14423   */\n      tag_325\n      jump\t// in\n    tag_502:\n        /* \"#utility.yul\":14448:14450   */\n      0x40\n        /* \"#utility.yul\":14443:14446   */\n      dup3\n        /* \"#utility.yul\":14439:14451   */\n      add\n        /* \"#utility.yul\":14432:14451   */\n      swap1\n      pop\n        /* \"#utility.yul\":14091:14457   */\n      swap2\n      swap1\n      pop\n      jump\t// out\n        /* \"#utility.yul\":14463:14882   */\n    tag_122:\n        /* \"#utility.yul\":14629:14633   */\n      0x00\n        /* \"#utility.yul\":14667:14669   */\n      0x20\n        /* \"#utility.yul\":14656:14665   */\n      dup3\n        /* \"#utility.yul\":14652:14670   */\n      add\n        /* \"#utility.yul\":14644:14670   */\n      swap1\n      pop\n        /* \"#utility.yul\":14716:14725   */\n      dup2\n        /* \"#utility.yul\":14710:14714   */\n      dup2\n        /* \"#utility.yul\":14706:14726   */\n      sub\n        /* \"#utility.yul\":14702:14703   */\n      0x00\n        /* \"#utility.yul\":14691:14700   */\n      dup4\n        /* \"#utility.yul\":14687:14704   */\n      add\n        /* \"#utility.yul\":14680:14727   */\n      mstore\n        /* \"#utility.yul\":14744:14875   */\n      tag_504\n        /* \"#utility.yul\":14870:14874   */\n      dup2\n        /* \"#utility.yul\":14744:14875   */\n      tag_326\n      jump\t// in\n    tag_504:\n        /* \"#utility.yul\":14736:14875   */\n      swap1\n      pop\n        /* \"#utility.yul\":14463:14882   */\n      swap2\n      swap1\n      pop\n      jump\t// out\n        /* \"#utility.yul\":14888:15121   */\n    tag_327:\n        /* \"#utility.yul\":15028:15062   */\n      0x45524337323155524953746f726167653a2055524920736574206f66206e6f6e\n        /* \"#utility.yul\":15024:15025   */\n      0x00\n        /* \"#utility.yul\":15016:15022   */\n      dup3\n        /* \"#utility.yul\":15012:15026   */\n      add\n        /* \"#utility.yul\":15005:15063   */\n      mstore\n        /* \"#utility.yul\":15097:15113   */\n      0x6578697374656e7420746f6b656e000000000000000000000000000000000000\n        /* \"#utility.yul\":15092:15094   */\n      0x20\n        /* \"#utility.yul\":15084:15090   */\n      dup3\n        /* \"#utility.yul\":15080:15095   */\n      add\n        /* \"#utility.yul\":15073:15114   */\n      mstore\n        /* \"#utility.yul\":14888:15121   */\n      pop\n      jump\t// out\n        /* \"#utility.yul\":15127:15493   */\n    tag_328:\n        /* \"#utility.yul\":15269:15272   */\n      0x00\n        /* \"#utility.yul\":15290:15357   */\n      tag_507\n        /* \"#utility.yul\":15354:15356   */\n      0x2e\n        /* \"#utility.yul\":15349:15352   */\n      dup4\n        /* \"#utility.yul\":15290:15357   */\n      tag_295\n      jump\t// in\n    tag_507:\n        /* \"#utility.yul\":15283:15357   */\n      swap2\n      pop\n        /* \"#utility.yul\":15366:15459   */\n      tag_508\n        /* \"#utility.yul\":15455:15458   */\n      dup3\n        /* \"#utility.yul\":15366:15459   */\n      tag_327\n      jump\t// in\n    tag_508:\n        /* \"#utility.yul\":15484:15486   */\n      0x40\n        /* \"#utility.yul\":15479:15482   */\n      dup3\n        /* \"#utility.yul\":15475:15487   */\n      add\n        /* \"#utility.yul\":15468:15487   */\n      swap1\n      pop\n        /* \"#utility.yul\":15127:15493   */\n      swap2\n      swap1\n      pop\n      jump\t// out\n        /* \"#utility.yul\":15499:15918   */\n    tag_138:\n        /* \"#utility.yul\":15665:15669   */\n      0x00\n        /* \"#utility.yul\":15703:15705   */\n      0x20\n        /* \"#utility.yul\":15692:15701   */\n      dup3\n        /* \"#utility.yul\":15688:15706   */\n      add\n        /* \"#utility.yul\":15680:15706   */\n      swap1\n      pop\n        /* \"#utility.yul\":15752:15761   */\n      dup2\n        /* \"#utility.yul\":15746:15750   */\n      dup2\n        /* \"#utility.yul\":15742:15762   */\n      sub\n        /* \"#utility.yul\":15738:15739   */\n      0x00\n        /* \"#utility.yul\":15727:15736   */\n      dup4\n        /* \"#utility.yul\":15723:15740   */\n      add\n        /* \"#utility.yul\":15716:15763   */\n      mstore\n        /* \"#utility.yul\":15780:15911   */\n      tag_510\n        /* \"#utility.yul\":15906:15910   */\n      dup2\n        /* \"#utility.yul\":15780:15911   */\n      tag_328\n      jump\t// in\n    tag_510:\n        /* \"#utility.yul\":15772:15911   */\n      swap1\n      pop\n        /* \"#utility.yul\":15499:15918   */\n      swap2\n      swap1\n      pop\n      jump\t// out\n        /* \"#utility.yul\":15924:16104   */\n    tag_231:\n        /* \"#utility.yul\":15972:16049   */\n      0x4e487b7100000000000000000000000000000000000000000000000000000000\n        /* \"#utility.yul\":15969:15970   */\n      0x00\n        /* \"#utility.yul\":15962:16050   */\n      mstore\n        /* \"#utility.yul\":16069:16073   */\n      0x41\n        /* \"#utility.yul\":16066:16067   */\n      0x04\n        /* \"#utility.yul\":16059:16074   */\n      mstore\n        /* \"#utility.yul\":16093:16097   */\n      0x24\n        /* \"#utility.yul\":16090:16091   */\n      0x00\n        /* \"#utility.yul\":16083:16098   */\n      revert\n        /* \"#utility.yul\":16110:16251   */\n    tag_329:\n        /* \"#utility.yul\":16159:16163   */\n      0x00\n        /* \"#utility.yul\":16182:16185   */\n      dup2\n        /* \"#utility.yul\":16174:16185   */\n      swap1\n      pop\n        /* \"#utility.yul\":16205:16208   */\n      dup2\n        /* \"#utility.yul\":16202:16203   */\n      0x00\n        /* \"#utility.yul\":16195:16209   */\n      mstore\n        /* \"#utility.yul\":16239:16243   */\n      0x20\n        /* \"#utility.yul\":16236:16237   */\n      0x00\n        /* \"#utility.yul\":16226:16244   */\n      keccak256\n        /* \"#utility.yul\":16218:16244   */\n      swap1\n      pop\n        /* \"#utility.yul\":16110:16251   */\n      swap2\n      swap1\n      pop\n      jump\t// out\n        /* \"#utility.yul\":16257:16350   */\n    tag_330:\n        /* \"#utility.yul\":16294:16300   */\n      0x00\n        /* \"#utility.yul\":16341:16343   */\n      0x20\n        /* \"#utility.yul\":16336:16338   */\n      0x1f\n        /* \"#utility.yul\":16329:16334   */\n      dup4\n        /* \"#utility.yul\":16325:16339   */\n      add\n        /* \"#utility.yul\":16321:16344   */\n      div\n        /* \"#utility.yul\":16311:16344   */\n      swap1\n      pop\n        /* \"#utility.yul\":16257:16350   */\n      swap2\n      swap1\n      pop\n      jump\t// out\n        /* \"#utility.yul\":16356:16463   */\n    tag_331:\n        /* \"#utility.yul\":16400:16408   */\n      0x00\n        /* \"#utility.yul\":16450:16455   */\n      dup3\n        /* \"#utility.yul\":16444:16448   */\n      dup3\n        /* \"#utility.yul\":16440:16456   */\n      shl\n        /* \"#utility.yul\":16419:16456   */\n      swap1\n      pop\n        /* \"#utility.yul\":16356:16463   */\n      swap3\n      swap2\n      pop\n      pop\n      jump\t// out\n        /* \"#utility.yul\":16469:16862   */\n    tag_332:\n        /* \"#utility.yul\":16538:16544   */\n      0x00\n        /* \"#utility.yul\":16588:16589   */\n      0x08\n        /* \"#utility.yul\":16576:16586   */\n      dup4\n        /* \"#utility.yul\":16572:16590   */\n      mul\n        /* \"#utility.yul\":16611:16708   */\n      tag_516\n        /* \"#utility.yul\":16641:16707   */\n      0xffffffffffffffffffffffffffffffffffffffffffffffffffffffffffffffff\n        /* \"#utility.yul\":16630:16639   */\n      dup3\n        /* \"#utility.yul\":16611:16708   */\n      tag_331\n      jump\t// in\n    tag_516:\n        /* \"#utility.yul\":16729:16768   */\n      tag_517\n        /* \"#utility.yul\":16759:16767   */\n      dup7\n        /* \"#utility.yul\":16748:16757   */\n      dup4\n        /* \"#utility.yul\":16729:16768   */\n      tag_331\n      jump\t// in\n    tag_517:\n        /* \"#utility.yul\":16717:16768   */\n      swap6\n      pop\n        /* \"#utility.yul\":16801:16805   */\n      dup1\n        /* \"#utility.yul\":16797:16806   */\n      not\n        /* \"#utility.yul\":16790:16795   */\n      dup5\n        /* \"#utility.yul\":16786:16807   */\n      and\n        /* \"#utility.yul\":16777:16807   */\n      swap4\n      pop\n        /* \"#utility.yul\":16850:16854   */\n      dup1\n        /* \"#utility.yul\":16840:16848   */\n      dup7\n        /* \"#utility.yul\":16836:16855   */\n      and\n        /* \"#utility.yul\":16829:16834   */\n      dup5\n        /* \"#utility.yul\":16826:16856   */\n      or\n        /* \"#utility.yul\":16816:16856   */\n      swap3\n      pop\n        /* \"#utility.yul\":16545:16862   */\n      pop\n      pop\n        /* \"#utility.yul\":16469:16862   */\n      swap4\n      swap3\n      pop\n      pop\n      pop\n      jump\t// out\n        /* \"#utility.yul\":16868:16928   */\n    tag_333:\n        /* \"#utility.yul\":16896:16899   */\n      0x00\n        /* \"#utility.yul\":16917:16922   */\n      dup2\n        /* \"#utility.yul\":16910:16922   */\n      swap1\n      pop\n        /* \"#utility.yul\":16868:16928   */\n      swap2\n      swap1\n      pop\n      jump\t// out\n        /* \"#utility.yul\":16934:17076   */\n    tag_334:\n        /* \"#utility.yul\":16984:16993   */\n      0x00\n        /* \"#utility.yul\":17017:17070   */\n      tag_520\n        /* \"#utility.yul\":17035:17069   */\n      tag_521\n        /* \"#utility.yul\":17044:17068   */\n      tag_522\n        /* \"#utility.yul\":17062:17067   */\n      dup5\n        /* \"#utility.yul\":17044:17068   */\n      tag_299\n      jump\t// in\n    tag_522:\n        /* \"#utility.yul\":17035:17069   */\n      tag_333\n      jump\t// in\n    tag_521:\n        /* \"#utility.yul\":17017:17070   */\n      tag_299\n      jump\t// in\n    tag_520:\n        /* \"#utility.yul\":17004:17070   */\n      swap1\n      pop\n        /* \"#utility.yul\":16934:17076   */\n      swap2\n      swap1\n      pop\n      jump\t// out\n        /* \"#utility.yul\":17082:17157   */\n    tag_335:\n        /* \"#utility.yul\":17125:17128   */\n      0x00\n        /* \"#utility.yul\":17146:17151   */\n      dup2\n        /* \"#utility.yul\":17139:17151   */\n      swap1\n      pop\n        /* \"#utility.yul\":17082:17157   */\n      swap2\n      swap1\n      pop\n      jump\t// out\n        /* \"#utility.yul\":17163:17432   */\n    tag_336:\n        /* \"#utility.yul\":17273:17312   */\n      tag_525\n        /* \"#utility.yul\":17304:17311   */\n      dup4\n        /* \"#utility.yul\":17273:17312   */\n      tag_334\n      jump\t// in\n    tag_525:\n        /* \"#utility.yul\":17334:17425   */\n      tag_526\n        /* \"#utility.yul\":17383:17424   */\n      tag_527\n        /* \"#utility.yul\":17407:17423   */\n      dup3\n        /* \"#utility.yul\":17383:17424   */\n      tag_335\n      jump\t// in\n    tag_527:\n        /* \"#utility.yul\":17375:17381   */\n      dup5\n        /* \"#utility.yul\":17368:17372   */\n      dup5\n        /* \"#utility.yul\":17362:17373   */\n      sload\n        /* \"#utility.yul\":17334:17425   */\n      tag_332\n      jump\t// in\n    tag_526:\n        /* \"#utility.yul\":17328:17332   */\n      dup3\n        /* \"#utility.yul\":17321:17426   */\n      sstore\n        /* \"#utility.yul\":17239:17432   */\n      pop\n        /* \"#utility.yul\":17163:17432   */\n      pop\n      pop\n      pop\n      jump\t// out\n        /* \"#utility.yul\":17438:17511   */\n    tag_337:\n        /* \"#utility.yul\":17483:17486   */\n      0x00\n        /* \"#utility.yul\":17438:17511   */\n      swap1\n      jump\t// out\n        /* \"#utility.yul\":17517:17706   */\n    tag_338:\n        /* \"#utility.yul\":17594:17626   */\n      tag_530\n      tag_337\n      jump\t// in\n    tag_530:\n        /* \"#utility.yul\":17635:17700   */\n      tag_531\n        /* \"#utility.yul\":17693:17699   */\n      dup2\n        /* \"#utility.yul\":17685:17691   */\n      dup5\n        /* \"#utility.yul\":17679:17683   */\n      dup5\n        /* \"#utility.yul\":17635:17700   */\n      tag_336\n      jump\t// in\n    tag_531:\n        /* \"#utility.yul\":17570:17706   */\n      pop\n        /* \"#utility.yul\":17517:17706   */\n      pop\n      pop\n      jump\t// out\n        /* \"#utility.yul\":17712:17898   */\n    tag_339:\n        /* \"#utility.yul\":17772:17892   */\n    tag_533:\n        /* \"#utility.yul\":17789:17792   */\n      dup2\n        /* \"#utility.yul\":17782:17787   */\n      dup2\n        /* \"#utility.yul\":17779:17793   */\n      lt\n        /* \"#utility.yul\":17772:17892   */\n      iszero\n      tag_535\n      jumpi\n        /* \"#utility.yul\":17843:17882   */\n      tag_536\n        /* \"#utility.yul\":17880:17881   */\n      0x00\n        /* \"#utility.yul\":17873:17878   */\n      dup3\n        /* \"#utility.yul\":17843:17882   */\n      tag_338\n      jump\t// in\n    tag_536:\n        /* \"#utility.yul\":17816:17817   */\n      0x01\n        /* \"#utility.yul\":17809:17814   */\n      dup2\n        /* \"#utility.yul\":17805:17818   */\n      add\n        /* \"#utility.yul\":17796:17818   */\n      swap1\n      pop\n        /* \"#utility.yul\":17772:17892   */\n      jump(tag_533)\n    tag_535:\n        /* \"#utility.yul\":17712:17898   */\n      pop\n      pop\n      jump\t// out\n        /* \"#utility.yul\":17904:18447   */\n    tag_340:\n        /* \"#utility.yul\":18005:18007   */\n      0x1f\n        /* \"#utility.yul\":18000:18003   */\n      dup3\n        /* \"#utility.yul\":17997:18008   */\n      gt\n        /* \"#utility.yul\":17994:18440   */\n      iszero\n      tag_538\n      jumpi\n        /* \"#utility.yul\":18039:18077   */\n      tag_539\n        /* \"#utility.yul\":18071:18076   */\n      dup2\n        /* \"#utility.yul\":18039:18077   */\n      tag_329\n      jump\t// in\n    tag_539:\n        /* \"#utility.yul\":18123:18152   */\n      tag_540\n        /* \"#utility.yul\":18141:18151   */\n      dup5\n        /* \"#utility.yul\":18123:18152   */\n      tag_330\n      jump\t// in\n    tag_540:\n        /* \"#utility.yul\":18113:18121   */\n      dup2\n        /* \"#utility.yul\":18109:18153   */\n      add\n        /* \"#utility.yul\":18306:18308   */\n      0x20\n        /* \"#utility.yul\":18294:18304   */\n      dup6\n        /* \"#utility.yul\":18291:18309   */\n      lt\n        /* \"#utility.yul\":18288:18337   */\n      iszero\n      tag_541\n      jumpi\n        /* \"#utility.yul\":18327:18335   */\n      dup2\n        /* \"#utility.yul\":18312:18335   */\n      swap1\n      pop\n        /* \"#utility.yul\":18288:18337   */\n    tag_541:\n        /* \"#utility.yul\":18350:18430   */\n      tag_542\n        /* \"#utility.yul\":18406:18428   */\n      tag_543\n        /* \"#utility.yul\":18424:18427   */\n      dup6\n        /* \"#utility.yul\":18406:18428   */\n      tag_330\n      jump\t// in\n    tag_543:\n        /* \"#utility.yul\":18396:18404   */\n      dup4\n        /* \"#utility.yul\":18392:18429   */\n      add\n        /* \"#utility.yul\":18379:18390   */\n      dup3\n        /* \"#utility.yul\":18350:18430   */\n      tag_339\n      jump\t// in\n    tag_542:\n        /* \"#utility.yul\":18009:18440   */\n      pop\n      pop\n        /* \"#utility.yul\":17994:18440   */\n    tag_538:\n        /* \"#utility.yul\":17904:18447   */\n      pop\n      pop\n      pop\n      jump\t// out\n        /* \"#utility.yul\":18453:18570   */\n    tag_341:\n        /* \"#utility.yul\":18507:18515   */\n      0x00\n        /* \"#utility.yul\":18557:18562   */\n      dup3\n        /* \"#utility.yul\":18551:18555   */\n      dup3\n        /* \"#utility.yul\":18547:18563   */\n      shr\n        /* \"#utility.yul\":18526:18563   */\n      swap1\n      pop\n        /* \"#utility.yul\":18453:18570   */\n      swap3\n      swap2\n      pop\n      pop\n      jump\t// out\n        /* \"#utility.yul\":18576:18745   */\n    tag_342:\n        /* \"#utility.yul\":18620:18626   */\n      0x00\n        /* \"#utility.yul\":18653:18704   */\n      tag_546\n        /* \"#utility.yul\":18701:18702   */\n      0x00\n        /* \"#utility.yul\":18697:18703   */\n      not\n        /* \"#utility.yul\":18689:18694   */\n      dup5\n        /* \"#utility.yul\":18686:18687   */\n      0x08\n        /* \"#utility.yul\":18682:18695   */\n      mul\n        /* \"#utility.yul\":18653:18704   */\n      tag_341\n      jump\t// in\n    tag_546:\n        /* \"#utility.yul\":18649:18705   */\n      not\n        /* \"#utility.yul\":18734:18738   */\n      dup1\n        /* \"#utility.yul\":18728:18732   */\n      dup4\n        /* \"#utility.yul\":18724:18739   */\n      and\n        /* \"#utility.yul\":18714:18739   */\n      swap2\n      pop\n        /* \"#utility.yul\":18627:18745   */\n      pop\n        /* \"#utility.yul\":18576:18745   */\n      swap3\n      swap2\n      pop\n      pop\n      jump\t// out\n        /* \"#utility.yul\":18750:19045   */\n    tag_343:\n        /* \"#utility.yul\":18826:18830   */\n      0x00\n        /* \"#utility.yul\":18972:19001   */\n      tag_548\n        /* \"#utility.yul\":18997:19000   */\n      dup4\n        /* \"#utility.yul\":18991:18995   */\n      dup4\n        /* \"#utility.yul\":18972:19001   */\n      tag_342\n      jump\t// in\n    tag_548:\n        /* \"#utility.yul\":18964:19001   */\n      swap2\n      pop\n        /* \"#utility.yul\":19034:19037   */\n      dup3\n        /* \"#utility.yul\":19031:19032   */\n      0x02\n        /* \"#utility.yul\":19027:19038   */\n      mul\n        /* \"#utility.yul\":19021:19025   */\n      dup3\n        /* \"#utility.yul\":19018:19039   */\n      or\n        /* \"#utility.yul\":19010:19039   */\n      swap1\n      pop\n        /* \"#utility.yul\":18750:19045   */\n      swap3\n      swap2\n      pop\n      pop\n      jump\t// out\n        /* \"#utility.yul\":19050:20445   */\n    tag_140:\n        /* \"#utility.yul\":19167:19204   */\n      tag_550\n        /* \"#utility.yul\":19200:19203   */\n      dup3\n        /* \"#utility.yul\":19167:19204   */\n      tag_294\n      jump\t// in\n    tag_550:\n        /* \"#utility.yul\":19269:19287   */\n      0xffffffffffffffff\n        /* \"#utility.yul\":19261:19267   */\n      dup2\n        /* \"#utility.yul\":19258:19288   */\n      gt\n        /* \"#utility.yul\":19255:19311   */\n      iszero\n      tag_551\n      jumpi\n        /* \"#utility.yul\":19291:19309   */\n      tag_552\n      tag_231\n      jump\t// in\n    tag_552:\n        /* \"#utility.yul\":19255:19311   */\n    tag_551:\n        /* \"#utility.yul\":19335:19373   */\n      tag_553\n        /* \"#utility.yul\":19367:19371   */\n      dup3\n        /* \"#utility.yul\":19361:19372   */\n      sload\n        /* \"#utility.yul\":19335:19373   */\n      tag_61\n      jump\t// in\n    tag_553:\n        /* \"#utility.yul\":19420:19487   */\n      tag_554\n        /* \"#utility.yul\":19480:19486   */\n      dup3\n        /* \"#utility.yul\":19472:19478   */\n      dup3\n        /* \"#utility.yul\":19466:19470   */\n      dup6\n        /* \"#utility.yul\":19420:19487   */\n      tag_340\n      jump\t// in\n    tag_554:\n        /* \"#utility.yul\":19514:19515   */\n      0x00\n        /* \"#utility.yul\":19538:19542   */\n      0x20\n        /* \"#utility.yul\":19525:19542   */\n      swap1\n      pop\n        /* \"#utility.yul\":19570:19572   */\n      0x1f\n        /* \"#utility.yul\":19562:19568   */\n      dup4\n        /* \"#utility.yul\":19559:19573   */\n      gt\n        /* \"#utility.yul\":19587:19588   */\n      0x01\n        /* \"#utility.yul\":19582:20200   */\n      dup2\n      eq\n      tag_556\n      jumpi\n        /* \"#utility.yul\":20244:20245   */\n      0x00\n        /* \"#utility.yul\":20261:20267   */\n      dup5\n        /* \"#utility.yul\":20258:20335   */\n      iszero\n      tag_557\n      jumpi\n        /* \"#utility.yul\":20310:20319   */\n      dup3\n        /* \"#utility.yul\":20305:20308   */\n      dup8\n        /* \"#utility.yul\":20301:20320   */\n      add\n        /* \"#utility.yul\":20295:20321   */\n      mload\n        /* \"#utility.yul\":20286:20321   */\n      swap1\n      pop\n        /* \"#utility.yul\":20258:20335   */\n    tag_557:\n        /* \"#utility.yul\":20361:20428   */\n      tag_558\n        /* \"#utility.yul\":20421:20427   */\n      dup6\n        /* \"#utility.yul\":20414:20419   */\n      dup3\n        /* \"#utility.yul\":20361:20428   */\n      tag_343\n      jump\t// in\n    tag_558:\n        /* \"#utility.yul\":20355:20359   */\n      dup7\n        /* \"#utility.yul\":20348:20429   */\n      sstore\n        /* \"#utility.yul\":20217:20439   */\n      pop\n        /* \"#utility.yul\":19552:20439   */\n      jump(tag_555)\n        /* \"#utility.yul\":19582:20200   */\n    tag_556:\n        /* \"#utility.yul\":19634:19638   */\n      0x1f\n        /* \"#utility.yul\":19630:19639   */\n      not\n        /* \"#utility.yul\":19622:19628   */\n      dup5\n        /* \"#utility.yul\":19618:19640   */\n      and\n        /* \"#utility.yul\":19668:19705   */\n      tag_559\n        /* \"#utility.yul\":19700:19704   */\n      dup7\n        /* \"#utility.yul\":19668:19705   */\n      tag_329\n      jump\t// in\n    tag_559:\n        /* \"#utility.yul\":19727:19728   */\n      0x00\n        /* \"#utility.yul\":19741:19949   */\n    tag_560:\n        /* \"#utility.yul\":19755:19762   */\n      dup3\n        /* \"#utility.yul\":19752:19753   */\n      dup2\n        /* \"#utility.yul\":19749:19763   */\n      lt\n        /* \"#utility.yul\":19741:19949   */\n      iszero\n      tag_562\n      jumpi\n        /* \"#utility.yul\":19834:19843   */\n      dup5\n        /* \"#utility.yul\":19829:19832   */\n      dup10\n        /* \"#utility.yul\":19825:19844   */\n      add\n        /* \"#utility.yul\":19819:19845   */\n      mload\n        /* \"#utility.yul\":19811:19817   */\n      dup3\n        /* \"#utility.yul\":19804:19846   */\n      sstore\n        /* \"#utility.yul\":19885:19886   */\n      0x01\n        /* \"#utility.yul\":19877:19883   */\n      dup3\n        /* \"#utility.yul\":19873:19887   */\n      add\n        /* \"#utility.yul\":19863:19887   */\n      swap2\n      pop\n        /* \"#utility.yul\":19932:19934   */\n      0x20\n        /* \"#utility.yul\":19921:19930   */\n      dup6\n        /* \"#utility.yul\":19917:19935   */\n      add\n        /* \"#utility.yul\":19904:19935   */\n      swap5\n      pop\n        /* \"#utility.yul\":19778:19782   */\n      0x20\n        /* \"#utility.yul\":19775:19776   */\n      dup2\n        /* \"#utility.yul\":19771:19783   */\n      add\n        /* \"#utility.yul\":19766:19783   */\n      swap1\n      pop\n        /* \"#utility.yul\":19741:19949   */\n      jump(tag_560)\n    tag_562:\n        /* \"#utility.yul\":19977:19983   */\n      dup7\n        /* \"#utility.yul\":19968:19975   */\n      dup4\n        /* \"#utility.yul\":19965:19984   */\n      lt\n        /* \"#utility.yul\":19962:20141   */\n      iszero\n      tag_563\n      jumpi\n        /* \"#utility.yul\":20035:20044   */\n      dup5\n        /* \"#utility.yul\":20030:20033   */\n      dup10\n        /* \"#utility.yul\":20026:20045   */\n      add\n        /* \"#utility.yul\":20020:20046   */\n      mload\n        /* \"#utility.yul\":20078:20126   */\n      tag_564\n        /* \"#utility.yul\":20120:20124   */\n      0x1f\n        /* \"#utility.yul\":20112:20118   */\n      dup10\n        /* \"#utility.yul\":20108:20125   */\n      and\n        /* \"#utility.yul\":20097:20106   */\n      dup3\n        /* \"#utility.yul\":20078:20126   */\n      tag_342\n      jump\t// in\n    tag_564:\n        /* \"#utility.yul\":20070:20076   */\n      dup4\n        /* \"#utility.yul\":20063:20127   */\n      sstore\n        /* \"#utility.yul\":19985:20141   */\n      pop\n        /* \"#utility.yul\":19962:20141   */\n    tag_563:\n        /* \"#utility.yul\":20187:20188   */\n      0x01\n        /* \"#utility.yul\":20183:20184   */\n      0x02\n        /* \"#utility.yul\":20175:20181   */\n      dup9\n        /* \"#utility.yul\":20171:20185   */\n      mul\n        /* \"#utility.yul\":20167:20189   */\n      add\n        /* \"#utility.yul\":20161:20165   */\n      dup9\n        /* \"#utility.yul\":20154:20190   */\n      sstore\n        /* \"#utility.yul\":19589:20200   */\n      pop\n      pop\n      pop\n        /* \"#utility.yul\":19552:20439   */\n    tag_555:\n      pop\n        /* \"#utility.yul\":19142:20445   */\n      pop\n      pop\n      pop\n        /* \"#utility.yul\":19050:20445   */\n      pop\n      pop\n      jump\t// out\n        /* \"#utility.yul\":20451:20687   */\n    tag_344:\n        /* \"#utility.yul\":20591:20625   */\n      0x45524337323155524953746f726167653a2055524920717565727920666f7220\n        /* \"#utility.yul\":20587:20588   */\n      0x00\n        /* \"#utility.yul\":20579:20585   */\n      dup3\n        /* \"#utility.yul\":20575:20589   */\n      add\n        /* \"#utility.yul\":20568:20626   */\n      mstore\n        /* \"#utility.yul\":20660:20679   */\n      0x6e6f6e6578697374656e7420746f6b656e000000000000000000000000000000\n        /* \"#utility.yul\":20655:20657   */\n      0x20\n        /* \"#utility.yul\":20647:20653   */\n      dup3\n        /* \"#utility.yul\":20643:20658   */\n      add\n        /* \"#utility.yul\":20636:20680   */\n      mstore\n        /* \"#utility.yul\":20451:20687   */\n      pop\n      jump\t// out\n        /* \"#utility.yul\":20693:21059   */\n    tag_345:\n        /* \"#utility.yul\":20835:20838   */\n      0x00\n        /* \"#utility.yul\":20856:20923   */\n      tag_567\n        /* \"#utility.yul\":20920:20922   */\n      0x31\n        /* \"#utility.yul\":20915:20918   */\n      dup4\n        /* \"#utility.yul\":20856:20923   */\n      tag_295\n      jump\t// in\n    tag_567:\n        /* \"#utility.yul\":20849:20923   */\n      swap2\n      pop\n        /* \"#utility.yul\":20932:21025   */\n      tag_568\n        /* \"#utility.yul\":21021:21024   */\n      dup3\n        /* \"#utility.yul\":20932:21025   */\n      tag_344\n      jump\t// in\n    tag_568:\n        /* \"#utility.yul\":21050:21052   */\n      0x40\n        /* \"#utility.yul\":21045:21048   */\n      dup3\n        /* \"#utility.yul\":21041:21053   */\n      add\n        /* \"#utility.yul\":21034:21053   */\n      swap1\n      pop\n        /* \"#utility.yul\":20693:21059   */\n      swap2\n      swap1\n      pop\n      jump\t// out\n        /* \"#utility.yul\":21065:21484   */\n    tag_145:\n        /* \"#utility.yul\":21231:21235   */\n      0x00\n        /* \"#utility.yul\":21269:21271   */\n      0x20\n        /* \"#utility.yul\":21258:21267   */\n      dup3\n        /* \"#utility.yul\":21254:21272   */\n      add\n        /* \"#utility.yul\":21246:21272   */\n      swap1\n      pop\n        /* \"#utility.yul\":21318:21327   */\n      dup2\n        /* \"#utility.yul\":21312:21316   */\n      dup2\n        /* \"#utility.yul\":21308:21328   */\n      sub\n        /* \"#utility.yul\":21304:21305   */\n      0x00\n        /* \"#utility.yul\":21293:21302   */\n      dup4\n        /* \"#utility.yul\":21289:21306   */\n      add\n        /* \"#utility.yul\":21282:21329   */\n      mstore\n        /* \"#utility.yul\":21346:21477   */\n      tag_570\n        /* \"#utility.yul\":21472:21476   */\n      dup2\n        /* \"#utility.yul\":21346:21477   */\n      tag_345\n      jump\t// in\n    tag_570:\n        /* \"#utility.yul\":21338:21477   */\n      swap1\n      pop\n        /* \"#utility.yul\":21065:21484   */\n      swap2\n      swap1\n      pop\n      jump\t// out\n        /* \"#utility.yul\":21490:21638   */\n    tag_346:\n        /* \"#utility.yul\":21592:21603   */\n      0x00\n        /* \"#utility.yul\":21629:21632   */\n      dup2\n        /* \"#utility.yul\":21614:21632   */\n      swap1\n      pop\n        /* \"#utility.yul\":21490:21638   */\n      swap3\n      swap2\n      pop\n      pop\n      jump\t// out\n        /* \"#utility.yul\":21644:22034   */\n    tag_347:\n        /* \"#utility.yul\":21750:21753   */\n      0x00\n        /* \"#utility.yul\":21778:21817   */\n      tag_573\n        /* \"#utility.yul\":21811:21816   */\n      dup3\n        /* \"#utility.yul\":21778:21817   */\n      tag_294\n      jump\t// in\n    tag_573:\n        /* \"#utility.yul\":21833:21922   */\n      tag_574\n        /* \"#utility.yul\":21915:21921   */\n      dup2\n        /* \"#utility.yul\":21910:21913   */\n      dup6\n        /* \"#utility.yul\":21833:21922   */\n      tag_346\n      jump\t// in\n    tag_574:\n        /* \"#utility.yul\":21826:21922   */\n      swap4\n      pop\n        /* \"#utility.yul\":21931:21996   */\n      tag_575\n        /* \"#utility.yul\":21989:21995   */\n      dup2\n        /* \"#utility.yul\":21984:21987   */\n      dup6\n        /* \"#utility.yul\":21977:21981   */\n      0x20\n        /* \"#utility.yul\":21970:21975   */\n      dup7\n        /* \"#utility.yul\":21966:21982   */\n      add\n        /* \"#utility.yul\":21931:21996   */\n      tag_296\n      jump\t// in\n    tag_575:\n        /* \"#utility.yul\":22021:22027   */\n      dup1\n        /* \"#utility.yul\":22016:22019   */\n      dup5\n        /* \"#utility.yul\":22012:22028   */\n      add\n        /* \"#utility.yul\":22005:22028   */\n      swap2\n      pop\n        /* \"#utility.yul\":21754:22034   */\n      pop\n        /* \"#utility.yul\":21644:22034   */\n      swap3\n      swap2\n      pop\n      pop\n      jump\t// out\n        /* \"#utility.yul\":22040:22475   */\n    tag_156:\n        /* \"#utility.yul\":22220:22223   */\n      0x00\n        /* \"#utility.yul\":22242:22337   */\n      tag_577\n        /* \"#utility.yul\":22333:22336   */\n      dup3\n        /* \"#utility.yul\":22324:22330   */\n      dup6\n        /* \"#utility.yul\":22242:22337   */\n      tag_347\n      jump\t// in\n    tag_577:\n        /* \"#utility.yul\":22235:22337   */\n      swap2\n      pop\n        /* \"#utility.yul\":22354:22449   */\n      tag_578\n        /* \"#utility.yul\":22445:22448   */\n      dup3\n        /* \"#utility.yul\":22436:22442   */\n      dup5\n        /* \"#utility.yul\":22354:22449   */\n      tag_347\n      jump\t// in\n    tag_578:\n        /* \"#utility.yul\":22347:22449   */\n      swap2\n      pop\n        /* \"#utility.yul\":22466:22469   */\n      dup2\n        /* \"#utility.yul\":22459:22469   */\n      swap1\n      pop\n        /* \"#utility.yul\":22040:22475   */\n      swap4\n      swap3\n      pop\n      pop\n      pop\n      jump\t// out\n        /* \"#utility.yul\":22481:22718   */\n    tag_348:\n        /* \"#utility.yul\":22621:22655   */\n      0x4552433732313a207472616e7366657220746f206e6f6e204552433732315265\n        /* \"#utility.yul\":22617:22618   */\n      0x00\n        /* \"#utility.yul\":22609:22615   */\n      dup3\n        /* \"#utility.yul\":22605:22619   */\n      add\n        /* \"#utility.yul\":22598:22656   */\n      mstore\n        /* \"#utility.yul\":22690:22710   */\n      0x63656976657220696d706c656d656e7465720000000000000000000000000000\n        /* \"#utility.yul\":22685:22687   */\n      0x20\n        /* \"#utility.yul\":22677:22683   */\n      dup3\n        /* \"#utility.yul\":22673:22688   */\n      add\n        /* \"#utility.yul\":22666:22711   */\n      mstore\n        /* \"#utility.yul\":22481:22718   */\n      pop\n      jump\t// out\n        /* \"#utility.yul\":22724:23090   */\n    tag_349:\n        /* \"#utility.yul\":22866:22869   */\n      0x00\n        /* \"#utility.yul\":22887:22954   */\n      tag_581\n        /* \"#utility.yul\":22951:22953   */\n      0x32\n        /* \"#utility.yul\":22946:22949   */\n      dup4\n        /* \"#utility.yul\":22887:22954   */\n      tag_295\n      jump\t// in\n    tag_581:\n        /* \"#utility.yul\":22880:22954   */\n      swap2\n      pop\n        /* \"#utility.yul\":22963:23056   */\n      tag_582\n        /* \"#utility.yul\":23052:23055   */\n      dup3\n        /* \"#utility.yul\":22963:23056   */\n      tag_348\n      jump\t// in\n    tag_582:\n        /* \"#utility.yul\":23081:23083   */\n      0x40\n        /* \"#utility.yul\":23076:23079   */\n      dup3\n        /* \"#utility.yul\":23072:23084   */\n      add\n        /* \"#utility.yul\":23065:23084   */\n      swap1\n      pop\n        /* \"#utility.yul\":22724:23090   */\n      swap2\n      swap1\n      pop\n      jump\t// out\n        /* \"#utility.yul\":23096:23515   */\n    tag_172:\n        /* \"#utility.yul\":23262:23266   */\n      0x00\n        /* \"#utility.yul\":23300:23302   */\n      0x20\n        /* \"#utility.yul\":23289:23298   */\n      dup3\n        /* \"#utility.yul\":23285:23303   */\n      add\n        /* \"#utility.yul\":23277:23303   */\n      swap1\n      pop\n        /* \"#utility.yul\":23349:23358   */\n      dup2\n        /* \"#utility.yul\":23343:23347   */\n      dup2\n        /* \"#utility.yul\":23339:23359   */\n      sub\n        /* \"#utility.yul\":23335:23336   */\n      0x00\n        /* \"#utility.yul\":23324:23333   */\n      dup4\n        /* \"#utility.yul\":23320:23337   */\n      add\n        /* \"#utility.yul\":23313:23360   */\n      mstore\n        /* \"#utility.yul\":23377:23508   */\n      tag_584\n        /* \"#utility.yul\":23503:23507   */\n      dup2\n        /* \"#utility.yul\":23377:23508   */\n      tag_349\n      jump\t// in\n    tag_584:\n        /* \"#utility.yul\":23369:23508   */\n      swap1\n      pop\n        /* \"#utility.yul\":23096:23515   */\n      swap2\n      swap1\n      pop\n      jump\t// out\n        /* \"#utility.yul\":23521:23755   */\n    tag_350:\n        /* \"#utility.yul\":23661:23695   */\n      0x4552433732314d657461646174613a2055524920717565727920666f72206e6f\n        /* \"#utility.yul\":23657:23658   */\n      0x00\n        /* \"#utility.yul\":23649:23655   */\n      dup3\n        /* \"#utility.yul\":23645:23659   */\n      add\n        /* \"#utility.yul\":23638:23696   */\n      mstore\n        /* \"#utility.yul\":23730:23747   */\n      0x6e6578697374656e7420746f6b656e0000000000000000000000000000000000\n        /* \"#utility.yul\":23725:23727   */\n      0x20\n        /* \"#utility.yul\":23717:23723   */\n      dup3\n        /* \"#utility.yul\":23713:23728   */\n      add\n        /* \"#utility.yul\":23706:23748   */\n      mstore\n        /* \"#utility.yul\":23521:23755   */\n      pop\n      jump\t// out\n        /* \"#utility.yul\":23761:24127   */\n    tag_351:\n        /* \"#utility.yul\":23903:23906   */\n      0x00\n        /* \"#utility.yul\":23924:23991   */\n      tag_587\n        /* \"#utility.yul\":23988:23990   */\n      0x2f\n        /* \"#utility.yul\":23983:23986   */\n      dup4\n        /* \"#utility.yul\":23924:23991   */\n      tag_295\n      jump\t// in\n    tag_587:\n        /* \"#utility.yul\":23917:23991   */\n      swap2\n      pop\n        /* \"#utility.yul\":24000:24093   */\n      tag_588\n        /* \"#utility.yul\":24089:24092   */\n      dup3\n        /* \"#utility.yul\":24000:24093   */\n      tag_350\n      jump\t// in\n    tag_588:\n        /* \"#utility.yul\":24118:24120   */\n      0x40\n        /* \"#utility.yul\":24113:24116   */\n      dup3\n        /* \"#utility.yul\":24109:24121   */\n      add\n        /* \"#utility.yul\":24102:24121   */\n      swap1\n      pop\n        /* \"#utility.yul\":23761:24127   */\n      swap2\n      swap1\n      pop\n      jump\t// out\n        /* \"#utility.yul\":24133:24552   */\n    tag_179:\n        /* \"#utility.yul\":24299:24303   */\n      0x00\n        /* \"#utility.yul\":24337:24339   */\n      0x20\n        /* \"#utility.yul\":24326:24335   */\n      dup3\n        /* \"#utility.yul\":24322:24340   */\n      add\n        /* \"#utility.yul\":24314:24340   */\n      swap1\n      pop\n        /* \"#utility.yul\":24386:24395   */\n      dup2\n        /* \"#utility.yul\":24380:24384   */\n      dup2\n        /* \"#utility.yul\":24376:24396   */\n      sub\n        /* \"#utility.yul\":24372:24373   */\n      0x00\n        /* \"#utility.yul\":24361:24370   */\n      dup4\n        /* \"#utility.yul\":24357:24374   */\n      add\n        /* \"#utility.yul\":24350:24397   */\n      mstore\n        /* \"#utility.yul\":24414:24545   */\n      tag_590\n        /* \"#utility.yul\":24540:24544   */\n      dup2\n        /* \"#utility.yul\":24414:24545   */\n      tag_351\n      jump\t// in\n    tag_590:\n        /* \"#utility.yul\":24406:24545   */\n      swap1\n      pop\n        /* \"#utility.yul\":24133:24552   */\n      swap2\n      swap1\n      pop\n      jump\t// out\n        /* \"#utility.yul\":24558:24740   */\n    tag_352:\n        /* \"#utility.yul\":24698:24732   */\n      0x4552433732313a206d696e7420746f20746865207a65726f2061646472657373\n        /* \"#utility.yul\":24694:24695   */\n      0x00\n        /* \"#utility.yul\":24686:24692   */\n      dup3\n        /* \"#utility.yul\":24682:24696   */\n      add\n        /* \"#utility.yul\":24675:24733   */\n      mstore\n        /* \"#utility.yul\":24558:24740   */\n      pop\n      jump\t// out\n        /* \"#utility.yul\":24746:25112   */\n    tag_353:\n        /* \"#utility.yul\":24888:24891   */\n      0x00\n        /* \"#utility.yul\":24909:24976   */\n      tag_593\n        /* \"#utility.yul\":24973:24975   */\n      0x20\n        /* \"#utility.yul\":24968:24971   */\n      dup4\n        /* \"#utility.yul\":24909:24976   */\n      tag_295\n      jump\t// in\n    tag_593:\n        /* \"#utility.yul\":24902:24976   */\n      swap2\n      pop\n        /* \"#utility.yul\":24985:25078   */\n      tag_594\n        /* \"#utility.yul\":25074:25077   */\n      dup3\n        /* \"#utility.yul\":24985:25078   */\n      tag_352\n      jump\t// in\n    tag_594:\n        /* \"#utility.yul\":25103:25105   */\n      0x20\n        /* \"#utility.yul\":25098:25101   */\n      dup3\n        /* \"#utility.yul\":25094:25106   */\n      add\n        /* \"#utility.yul\":25087:25106   */\n      swap1\n      pop\n        /* \"#utility.yul\":24746:25112   */\n      swap2\n      swap1\n      pop\n      jump\t// out\n        /* \"#utility.yul\":25118:25537   */\n    tag_190:\n        /* \"#utility.yul\":25284:25288   */\n      0x00\n        /* \"#utility.yul\":25322:25324   */\n      0x20\n        /* \"#utility.yul\":25311:25320   */\n      dup3\n        /* \"#utility.yul\":25307:25325   */\n      add\n        /* \"#utility.yul\":25299:25325   */\n      swap1\n      pop\n        /* \"#utility.yul\":25371:25380   */\n      dup2\n        /* \"#utility.yul\":25365:25369   */\n      dup2\n        /* \"#utility.yul\":25361:25381   */\n      sub\n        /* \"#utility.yul\":25357:25358   */\n      0x00\n        /* \"#utility.yul\":25346:25355   */\n      dup4\n        /* \"#utility.yul\":25342:25359   */\n      add\n        /* \"#utility.yul\":25335:25382   */\n      mstore\n        /* \"#utility.yul\":25399:25530   */\n      tag_596\n        /* \"#utility.yul\":25525:25529   */\n      dup2\n        /* \"#utility.yul\":25399:25530   */\n      tag_353\n      jump\t// in\n    tag_596:\n        /* \"#utility.yul\":25391:25530   */\n      swap1\n      pop\n        /* \"#utility.yul\":25118:25537   */\n      swap2\n      swap1\n      pop\n      jump\t// out\n        /* \"#utility.yul\":25543:25721   */\n    tag_354:\n        /* \"#utility.yul\":25683:25713   */\n      0x4552433732313a20746f6b656e20616c7265616479206d696e74656400000000\n        /* \"#utility.yul\":25679:25680   */\n      0x00\n        /* \"#utility.yul\":25671:25677   */\n      dup3\n        /* \"#utility.yul\":25667:25681   */\n      add\n        /* \"#utility.yul\":25660:25714   */\n      mstore\n        /* \"#utility.yul\":25543:25721   */\n      pop\n      jump\t// out\n        /* \"#utility.yul\":25727:26093   */\n    tag_355:\n        /* \"#utility.yul\":25869:25872   */\n      0x00\n        /* \"#utility.yul\":25890:25957   */\n      tag_599\n        /* \"#utility.yul\":25954:25956   */\n      0x1c\n        /* \"#utility.yul\":25949:25952   */\n      dup4\n        /* \"#utility.yul\":25890:25957   */\n      tag_295\n      jump\t// in\n    tag_599:\n        /* \"#utility.yul\":25883:25957   */\n      swap2\n      pop\n        /* \"#utility.yul\":25966:26059   */\n      tag_600\n        /* \"#utility.yul\":26055:26058   */\n      dup3\n        /* \"#utility.yul\":25966:26059   */\n      tag_354\n      jump\t// in\n    tag_600:\n        /* \"#utility.yul\":26084:26086   */\n      0x20\n        /* \"#utility.yul\":26079:26082   */\n      dup3\n        /* \"#utility.yul\":26075:26087   */\n      add\n        /* \"#utility.yul\":26068:26087   */\n      swap1\n      pop\n        /* \"#utility.yul\":25727:26093   */\n      swap2\n      swap1\n      pop\n      jump\t// out\n        /* \"#utility.yul\":26099:26518   */\n    tag_194:\n        /* \"#utility.yul\":26265:26269   */\n      0x00\n        /* \"#utility.yul\":26303:26305   */\n      0x20\n        /* \"#utility.yul\":26292:26301   */\n      dup3\n        /* \"#utility.yul\":26288:26306   */\n      add\n        /* \"#utility.yul\":26280:26306   */\n      swap1\n      pop\n        /* \"#utility.yul\":26352:26361   */\n      dup2\n        /* \"#utility.yul\":26346:26350   */\n      dup2\n        /* \"#utility.yul\":26342:26362   */\n      sub\n        /* \"#utility.yul\":26338:26339   */\n      0x00\n        /* \"#utility.yul\":26327:26336   */\n      dup4\n        /* \"#utility.yul\":26323:26340   */\n      add\n        /* \"#utility.yul\":26316:26363   */\n      mstore\n        /* \"#utility.yul\":26380:26511   */\n      tag_602\n        /* \"#utility.yul\":26506:26510   */\n      dup2\n        /* \"#utility.yul\":26380:26511   */\n      tag_355\n      jump\t// in\n    tag_602:\n        /* \"#utility.yul\":26372:26511   */\n      swap1\n      pop\n        /* \"#utility.yul\":26099:26518   */\n      swap2\n      swap1\n      pop\n      jump\t// out\n        /* \"#utility.yul\":26524:26715   */\n    tag_198:\n        /* \"#utility.yul\":26564:26567   */\n      0x00\n        /* \"#utility.yul\":26583:26603   */\n      tag_604\n        /* \"#utility.yul\":26601:26602   */\n      dup3\n        /* \"#utility.yul\":26583:26603   */\n      tag_299\n      jump\t// in\n    tag_604:\n        /* \"#utility.yul\":26578:26603   */\n      swap2\n      pop\n        /* \"#utility.yul\":26617:26637   */\n      tag_605\n        /* \"#utility.yul\":26635:26636   */\n      dup4\n        /* \"#utility.yul\":26617:26637   */\n      tag_299\n      jump\t// in\n    tag_605:\n        /* \"#utility.yul\":26612:26637   */\n      swap3\n      pop\n        /* \"#utility.yul\":26660:26661   */\n      dup3\n        /* \"#utility.yul\":26657:26658   */\n      dup3\n        /* \"#utility.yul\":26653:26662   */\n      add\n        /* \"#utility.yul\":26646:26662   */\n      swap1\n      pop\n        /* \"#utility.yul\":26681:26684   */\n      dup1\n        /* \"#utility.yul\":26678:26679   */\n      dup3\n        /* \"#utility.yul\":26675:26685   */\n      gt\n        /* \"#utility.yul\":26672:26708   */\n      iszero\n      tag_606\n      jumpi\n        /* \"#utility.yul\":26688:26706   */\n      tag_607\n      tag_320\n      jump\t// in\n    tag_607:\n        /* \"#utility.yul\":26672:26708   */\n    tag_606:\n        /* \"#utility.yul\":26524:26715   */\n      swap3\n      swap2\n      pop\n      pop\n      jump\t// out\n        /* \"#utility.yul\":26721:26819   */\n    tag_356:\n        /* \"#utility.yul\":26772:26778   */\n      0x00\n        /* \"#utility.yul\":26806:26811   */\n      dup2\n        /* \"#utility.yul\":26800:26812   */\n      mload\n        /* \"#utility.yul\":26790:26812   */\n      swap1\n      pop\n        /* \"#utility.yul\":26721:26819   */\n      swap2\n      swap1\n      pop\n      jump\t// out\n        /* \"#utility.yul\":26825:26993   */\n    tag_357:\n        /* \"#utility.yul\":26908:26919   */\n      0x00\n        /* \"#utility.yul\":26942:26948   */\n      dup3\n        /* \"#utility.yul\":26937:26940   */\n      dup3\n        /* \"#utility.yul\":26930:26949   */\n      mstore\n        /* \"#utility.yul\":26982:26986   */\n      0x20\n        /* \"#utility.yul\":26977:26980   */\n      dup3\n        /* \"#utility.yul\":26973:26987   */\n      add\n        /* \"#utility.yul\":26958:26987   */\n      swap1\n      pop\n        /* \"#utility.yul\":26825:26993   */\n      swap3\n      swap2\n      pop\n      pop\n      jump\t// out\n        /* \"#utility.yul\":26999:27372   */\n    tag_358:\n        /* \"#utility.yul\":27085:27088   */\n      0x00\n        /* \"#utility.yul\":27113:27151   */\n      tag_611\n        /* \"#utility.yul\":27145:27150   */\n      dup3\n        /* \"#utility.yul\":27113:27151   */\n      tag_356\n      jump\t// in\n    tag_611:\n        /* \"#utility.yul\":27167:27237   */\n      tag_612\n        /* \"#utility.yul\":27230:27236   */\n      dup2\n        /* \"#utility.yul\":27225:27228   */\n      dup6\n        /* \"#utility.yul\":27167:27237   */\n      tag_357\n      jump\t// in\n    tag_612:\n        /* \"#utility.yul\":27160:27237   */\n      swap4\n      pop\n        /* \"#utility.yul\":27246:27311   */\n      tag_613\n        /* \"#utility.yul\":27304:27310   */\n      dup2\n        /* \"#utility.yul\":27299:27302   */\n      dup6\n        /* \"#utility.yul\":27292:27296   */\n      0x20\n        /* \"#utility.yul\":27285:27290   */\n      dup7\n        /* \"#utility.yul\":27281:27297   */\n      add\n        /* \"#utility.yul\":27246:27311   */\n      tag_296\n      jump\t// in\n    tag_613:\n        /* \"#utility.yul\":27336:27365   */\n      tag_614\n        /* \"#utility.yul\":27358:27364   */\n      dup2\n        /* \"#utility.yul\":27336:27365   */\n      tag_297\n      jump\t// in\n    tag_614:\n        /* \"#utility.yul\":27331:27334   */\n      dup5\n        /* \"#utility.yul\":27327:27366   */\n      add\n        /* \"#utility.yul\":27320:27366   */\n      swap2\n      pop\n        /* \"#utility.yul\":27089:27372   */\n      pop\n        /* \"#utility.yul\":26999:27372   */\n      swap3\n      swap2\n      pop\n      pop\n      jump\t// out\n        /* \"#utility.yul\":27378:28018   */\n    tag_207:\n        /* \"#utility.yul\":27573:27577   */\n      0x00\n        /* \"#utility.yul\":27611:27614   */\n      0x80\n        /* \"#utility.yul\":27600:27609   */\n      dup3\n        /* \"#utility.yul\":27596:27615   */\n      add\n        /* \"#utility.yul\":27588:27615   */\n      swap1\n      pop\n        /* \"#utility.yul\":27625:27696   */\n      tag_616\n        /* \"#utility.yul\":27693:27694   */\n      0x00\n        /* \"#utility.yul\":27682:27691   */\n      dup4\n        /* \"#utility.yul\":27678:27695   */\n      add\n        /* \"#utility.yul\":27669:27675   */\n      dup8\n        /* \"#utility.yul\":27625:27696   */\n      tag_311\n      jump\t// in\n    tag_616:\n        /* \"#utility.yul\":27706:27778   */\n      tag_617\n        /* \"#utility.yul\":27774:27776   */\n      0x20\n        /* \"#utility.yul\":27763:27772   */\n      dup4\n        /* \"#utility.yul\":27759:27777   */\n      add\n        /* \"#utility.yul\":27750:27756   */\n      dup7\n        /* \"#utility.yul\":27706:27778   */\n      tag_311\n      jump\t// in\n    tag_617:\n        /* \"#utility.yul\":27788:27860   */\n      tag_618\n        /* \"#utility.yul\":27856:27858   */\n      0x40\n        /* \"#utility.yul\":27845:27854   */\n      dup4\n        /* \"#utility.yul\":27841:27859   */\n      add\n        /* \"#utility.yul\":27832:27838   */\n      dup6\n        /* \"#utility.yul\":27788:27860   */\n      tag_300\n      jump\t// in\n    tag_618:\n        /* \"#utility.yul\":27907:27916   */\n      dup2\n        /* \"#utility.yul\":27901:27905   */\n      dup2\n        /* \"#utility.yul\":27897:27917   */\n      sub\n        /* \"#utility.yul\":27892:27894   */\n      0x60\n        /* \"#utility.yul\":27881:27890   */\n      dup4\n        /* \"#utility.yul\":27877:27895   */\n      add\n        /* \"#utility.yul\":27870:27918   */\n      mstore\n        /* \"#utility.yul\":27935:28011   */\n      tag_619\n        /* \"#utility.yul\":28006:28010   */\n      dup2\n        /* \"#utility.yul\":27997:28003   */\n      dup5\n        /* \"#utility.yul\":27935:28011   */\n      tag_358\n      jump\t// in\n    tag_619:\n        /* \"#utility.yul\":27927:28011   */\n      swap1\n      pop\n        /* \"#utility.yul\":27378:28018   */\n      swap6\n      swap5\n      pop\n      pop\n      pop\n      pop\n      pop\n      jump\t// out\n        /* \"#utility.yul\":28024:28165   */\n    tag_359:\n        /* \"#utility.yul\":28080:28085   */\n      0x00\n        /* \"#utility.yul\":28111:28117   */\n      dup2\n        /* \"#utility.yul\":28105:28118   */\n      mload\n        /* \"#utility.yul\":28096:28118   */\n      swap1\n      pop\n        /* \"#utility.yul\":28127:28159   */\n      tag_621\n        /* \"#utility.yul\":28153:28158   */\n      dup2\n        /* \"#utility.yul\":28127:28159   */\n      tag_290\n      jump\t// in\n    tag_621:\n        /* \"#utility.yul\":28024:28165   */\n      swap3\n      swap2\n      pop\n      pop\n      jump\t// out\n        /* \"#utility.yul\":28171:28520   */\n    tag_210:\n        /* \"#utility.yul\":28240:28246   */\n      0x00\n        /* \"#utility.yul\":28289:28291   */\n      0x20\n        /* \"#utility.yul\":28277:28286   */\n      dup3\n        /* \"#utility.yul\":28268:28275   */\n      dup5\n        /* \"#utility.yul\":28264:28287   */\n      sub\n        /* \"#utility.yul\":28260:28292   */\n      slt\n        /* \"#utility.yul\":28257:28376   */\n      iszero\n      tag_623\n      jumpi\n        /* \"#utility.yul\":28295:28374   */\n      tag_624\n      tag_287\n      jump\t// in\n    tag_624:\n        /* \"#utility.yul\":28257:28376   */\n    tag_623:\n        /* \"#utility.yul\":28415:28416   */\n      0x00\n        /* \"#utility.yul\":28440:28503   */\n      tag_625\n        /* \"#utility.yul\":28495:28502   */\n      dup5\n        /* \"#utility.yul\":28486:28492   */\n      dup3\n        /* \"#utility.yul\":28475:28484   */\n      dup6\n        /* \"#utility.yul\":28471:28493   */\n      add\n        /* \"#utility.yul\":28440:28503   */\n      tag_359\n      jump\t// in\n    tag_625:\n        /* \"#utility.yul\":28430:28503   */\n      swap2\n      pop\n        /* \"#utility.yul\":28386:28513   */\n      pop\n        /* \"#utility.yul\":28171:28520   */\n      swap3\n      swap2\n      pop\n      pop\n      jump\t// out\n        /* \"#utility.yul\":28526:28706   */\n    tag_360:\n        /* \"#utility.yul\":28574:28651   */\n      0x4e487b7100000000000000000000000000000000000000000000000000000000\n        /* \"#utility.yul\":28571:28572   */\n      0x00\n        /* \"#utility.yul\":28564:28652   */\n      mstore\n        /* \"#utility.yul\":28671:28675   */\n      0x12\n        /* \"#utility.yul\":28668:28669   */\n      0x04\n        /* \"#utility.yul\":28661:28676   */\n      mstore\n        /* \"#utility.yul\":28695:28699   */\n      0x24\n        /* \"#utility.yul\":28692:28693   */\n      0x00\n        /* \"#utility.yul\":28685:28700   */\n      revert\n        /* \"#utility.yul\":28712:28897   */\n    tag_228:\n        /* \"#utility.yul\":28752:28753   */\n      0x00\n        /* \"#utility.yul\":28769:28789   */\n      tag_628\n        /* \"#utility.yul\":28787:28788   */\n      dup3\n        /* \"#utility.yul\":28769:28789   */\n      tag_299\n      jump\t// in\n    tag_628:\n        /* \"#utility.yul\":28764:28789   */\n      swap2\n      pop\n        /* \"#utility.yul\":28803:28823   */\n      tag_629\n        /* \"#utility.yul\":28821:28822   */\n      dup4\n        /* \"#utility.yul\":28803:28823   */\n      tag_299\n      jump\t// in\n    tag_629:\n        /* \"#utility.yul\":28798:28823   */\n      swap3\n      pop\n        /* \"#utility.yul\":28842:28843   */\n      dup3\n        /* \"#utility.yul\":28832:28867   */\n      tag_630\n      jumpi\n        /* \"#utility.yul\":28847:28865   */\n      tag_631\n      tag_360\n      jump\t// in\n    tag_631:\n        /* \"#utility.yul\":28832:28867   */\n    tag_630:\n        /* \"#utility.yul\":28889:28890   */\n      dup3\n        /* \"#utility.yul\":28886:28887   */\n      dup3\n        /* \"#utility.yul\":28882:28891   */\n      div\n        /* \"#utility.yul\":28877:28891   */\n      swap1\n      pop\n        /* \"#utility.yul\":28712:28897   */\n      swap3\n      swap2\n      pop\n      pop\n      jump\t// out\n        /* \"#utility.yul\":28903:29097   */\n    tag_236:\n        /* \"#utility.yul\":28943:28947   */\n      0x00\n        /* \"#utility.yul\":28963:28983   */\n      tag_633\n        /* \"#utility.yul\":28981:28982   */\n      dup3\n        /* \"#utility.yul\":28963:28983   */\n      tag_299\n      jump\t// in\n    tag_633:\n        /* \"#utility.yul\":28958:28983   */\n      swap2\n      pop\n        /* \"#utility.yul\":28997:29017   */\n      tag_634\n        /* \"#utility.yul\":29015:29016   */\n      dup4\n        /* \"#utility.yul\":28997:29017   */\n      tag_299\n      jump\t// in\n    tag_634:\n        /* \"#utility.yul\":28992:29017   */\n      swap3\n      pop\n        /* \"#utility.yul\":29041:29042   */\n      dup3\n        /* \"#utility.yul\":29038:29039   */\n      dup3\n        /* \"#utility.yul\":29034:29043   */\n      sub\n        /* \"#utility.yul\":29026:29043   */\n      swap1\n      pop\n        /* \"#utility.yul\":29065:29066   */\n      dup2\n        /* \"#utility.yul\":29059:29063   */\n      dup2\n        /* \"#utility.yul\":29056:29067   */\n      gt\n        /* \"#utility.yul\":29053:29090   */\n      iszero\n      tag_635\n      jumpi\n        /* \"#utility.yul\":29070:29088   */\n      tag_636\n      tag_320\n      jump\t// in\n    tag_636:\n        /* \"#utility.yul\":29053:29090   */\n    tag_635:\n        /* \"#utility.yul\":28903:29097   */\n      swap3\n      swap2\n      pop\n      pop\n      jump\t// out\n        /* \"#utility.yul\":29103:29279   */\n    tag_238:\n        /* \"#utility.yul\":29135:29136   */\n      0x00\n        /* \"#utility.yul\":29152:29172   */\n      tag_638\n        /* \"#utility.yul\":29170:29171   */\n      dup3\n        /* \"#utility.yul\":29152:29172   */\n      tag_299\n      jump\t// in\n    tag_638:\n        /* \"#utility.yul\":29147:29172   */\n      swap2\n      pop\n        /* \"#utility.yul\":29186:29206   */\n      tag_639\n        /* \"#utility.yul\":29204:29205   */\n      dup4\n        /* \"#utility.yul\":29186:29206   */\n      tag_299\n      jump\t// in\n    tag_639:\n        /* \"#utility.yul\":29181:29206   */\n      swap3\n      pop\n        /* \"#utility.yul\":29225:29226   */\n      dup3\n        /* \"#utility.yul\":29215:29250   */\n      tag_640\n      jumpi\n        /* \"#utility.yul\":29230:29248   */\n      tag_641\n      tag_360\n      jump\t// in\n    tag_641:\n        /* \"#utility.yul\":29215:29250   */\n    tag_640:\n        /* \"#utility.yul\":29271:29272   */\n      dup3\n        /* \"#utility.yul\":29268:29269   */\n      dup3\n        /* \"#utility.yul\":29264:29273   */\n      mod\n        /* \"#utility.yul\":29259:29273   */\n      swap1\n      pop\n        /* \"#utility.yul\":29103:29279   */\n      swap3\n      swap2\n      pop\n      pop\n      jump\t// out\n        /* \"#utility.yul\":29285:29465   */\n    tag_282:\n        /* \"#utility.yul\":29333:29410   */\n      0x4e487b7100000000000000000000000000000000000000000000000000000000\n        /* \"#utility.yul\":29330:29331   */\n      0x00\n        /* \"#utility.yul\":29323:29411   */\n      mstore\n        /* \"#utility.yul\":29430:29434   */\n      0x31\n        /* \"#utility.yul\":29427:29428   */\n      0x04\n        /* \"#utility.yul\":29420:29435   */\n      mstore\n        /* \"#utility.yul\":29454:29458   */\n      0x24\n        /* \"#utility.yul\":29451:29452   */\n      0x00\n        /* \"#utility.yul\":29444:29459   */\n      revert\n\n    auxdata: 0xa26469706673582212200e6d98f4ae9fba52814292362da1701de0368f99f16aec1383d385c0c683edc364736f6c63430008140033\n}\n",
				"bytecode": {
					"linkReferences": {},
					"object": "608060405234801562000010575f80fd5b506040518060400160405280601481526020017f436f6d6d697373696f6e204261736564204e46540000000000000000000000008152506040518060400160405280600381526020017f43424e0000000000000000000000000000000000000000000000000000000000815250815f90816200008d9190620003f6565b5080600190816200009f9190620003f6565b505050620000c2620000b6620000c860201b60201c565b620000cf60201b60201c565b620004da565b5f33905090565b5f600b5f9054906101000a900473ffffffffffffffffffffffffffffffffffffffff16905081600b5f6101000a81548173ffffffffffffffffffffffffffffffffffffffff021916908373ffffffffffffffffffffffffffffffffffffffff1602179055508173ffffffffffffffffffffffffffffffffffffffff168173ffffffffffffffffffffffffffffffffffffffff167f8be0079c531659141344cd1fd0a4f28419497f9722a3daafe3b4186f6b6457e060405160405180910390a35050565b5f81519050919050565b7f4e487b71000000000000000000000000000000000000000000000000000000005f52604160045260245ffd5b7f4e487b71000000000000000000000000000000000000000000000000000000005f52602260045260245ffd5b5f60028204905060018216806200020e57607f821691505b602082108103620002245762000223620001c9565b5b50919050565b5f819050815f5260205f209050919050565b5f6020601f8301049050919050565b5f82821b905092915050565b5f60088302620002887fffffffffffffffffffffffffffffffffffffffffffffffffffffffffffffffff826200024b565b6200029486836200024b565b95508019841693508086168417925050509392505050565b5f819050919050565b5f819050919050565b5f620002de620002d8620002d284620002ac565b620002b5565b620002ac565b9050919050565b5f819050919050565b620002f983620002be565b620003116200030882620002e5565b84845462000257565b825550505050565b5f90565b6200032762000319565b62000334818484620002ee565b505050565b5b818110156200035b576200034f5f826200031d565b6001810190506200033a565b5050565b601f821115620003aa5762000374816200022a565b6200037f846200023c565b810160208510156200038f578190505b620003a76200039e856200023c565b83018262000339565b50505b505050565b5f82821c905092915050565b5f620003cc5f1984600802620003af565b1980831691505092915050565b5f620003e68383620003bb565b9150826002028217905092915050565b620004018262000192565b67ffffffffffffffff8111156200041d576200041c6200019c565b5b620004298254620001f6565b620004368282856200035f565b5f60209050601f8311600181146200046c575f841562000457578287015190505b620004638582620003d9565b865550620004d2565b601f1984166200047c866200022a565b5f5b82811015620004a5578489015182556001820191506020850194506020810190506200047e565b86831015620004c55784890151620004c1601f891682620003bb565b8355505b6001600288020188555050505b505050505050565b6125f680620004e85f395ff3fe608060405234801561000f575f80fd5b506004361061009c575f3560e01c806370a082311161006457806370a08231146101585780638da5cb5b1461018857806395d89b41146101a6578063c87b56dd146101c4578063f2fde38b146101f45761009c565b806301ffc9a7146100a057806306fdde03146100d057806318160ddd146100ee5780632fe375011461010c5780636352211e14610128575b5f80fd5b6100ba60048036038101906100b59190611653565b610210565b6040516100c79190611698565b60405180910390f35b6100d8610221565b6040516100e5919061173b565b60405180910390f35b6100f66102b0565b6040516101039190611773565b60405180910390f35b61012660048036038101906101219190611897565b6102bc565b005b610142600480360381019061013d9190611971565b610434565b60405161014f91906119db565b60405180910390f35b610172600480360381019061016d9190611a1e565b6104e0565b60405161017f9190611773565b60405180910390f35b610190610594565b60405161019d91906119db565b60405180910390f35b6101ae6105bc565b6040516101bb919061173b565b60405180910390f35b6101de60048036038101906101d99190611971565b61064c565b6040516101eb919061173b565b60405180910390f35b61020e60048036038101906102099190611a1e565b61065e565b005b5f61021a82610754565b9050919050565b60605f805461022f90611a76565b80601f016020809104026020016040519081016040528092919081815260200182805461025b90611a76565b80156102a65780601f1061027d576101008083540402835291602001916102a6565b820191905f5260205f20905b81548152906001019060200180831161028957829003601f168201915b5050505050905090565b5f600880549050905090565b6102c46107cd565b73ffffffffffffffffffffffffffffffffffffffff166102e2610594565b73ffffffffffffffffffffffffffffffffffffffff1614610338576040517f08c379a000000000000000000000000000000000000000000000000000000000815260040161032f90611af0565b60405180910390fd5b5f5b8686905081101561042b5761038f87878381811061035b5761035a611b0e565b5b90506020020160208101906103709190611a1e565b86868481811061038357610382611b0e565b5b905060200201356107d4565b6104188585838181106103a5576103a4611b0e565b5b905060200201358484848181106103bf576103be611b0e565b5b90506020028101906103d19190611b47565b8080601f0160208091040260200160405190810160405280939291908181526020018383808284375f81840152601f19601f820116905080830192505050505050506107f1565b808061042390611bd6565b91505061033a565b50505050505050565b5f8060025f8481526020019081526020015f205f9054906101000a900473ffffffffffffffffffffffffffffffffffffffff1690505f73ffffffffffffffffffffffffffffffffffffffff168173ffffffffffffffffffffffffffffffffffffffff16036104d7576040517f08c379a00000000000000000000000000000000000000000000000000000000081526004016104ce90611c8d565b60405180910390fd5b80915050919050565b5f8073ffffffffffffffffffffffffffffffffffffffff168273ffffffffffffffffffffffffffffffffffffffff160361054f576040517f08c379a000000000000000000000000000000000000000000000000000000000815260040161054690611d1b565b60405180910390fd5b60035f8373ffffffffffffffffffffffffffffffffffffffff1673ffffffffffffffffffffffffffffffffffffffff1681526020019081526020015f20549050919050565b5f600b5f9054906101000a900473ffffffffffffffffffffffffffffffffffffffff16905090565b6060600180546105cb90611a76565b80601f01602080910402602001604051908101604052809291908181526020018280546105f790611a76565b80156106425780601f1061061957610100808354040283529160200191610642565b820191905f5260205f20905b81548152906001019060200180831161062557829003601f168201915b5050505050905090565b60606106578261085c565b9050919050565b6106666107cd565b73ffffffffffffffffffffffffffffffffffffffff16610684610594565b73ffffffffffffffffffffffffffffffffffffffff16146106da576040517f08c379a00000000000000000000000000000000000000000000000000000000081526004016106d190611af0565b60405180910390fd5b5f73ffffffffffffffffffffffffffffffffffffffff168173ffffffffffffffffffffffffffffffffffffffff1603610748576040517f08c379a000000000000000000000000000000000000000000000000000000000815260040161073f90611da9565b60405180910390fd5b610751816109a5565b50565b5f7f18160ddd000000000000000000000000000000000000000000000000000000007bffffffffffffffffffffffffffffffffffffffffffffffffffffffff1916827bffffffffffffffffffffffffffffffffffffffffffffffffffffffff191614806107c657506107c582610a68565b5b9050919050565b5f33905090565b6107ed828260405180602001604052805f815250610b49565b5050565b6107fa82610ba3565b610839576040517f08c379a000000000000000000000000000000000000000000000000000000000815260040161083090611e37565b60405180910390fd5b80600a5f8481526020019081526020015f209081610857919061201f565b505050565b606061086782610ba3565b6108a6576040517f08c379a000000000000000000000000000000000000000000000000000000000815260040161089d9061215e565b60405180910390fd5b5f600a5f8481526020019081526020015f2080546108c390611a76565b80601f01602080910402602001604051908101604052809291908181526020018280546108ef90611a76565b801561093a5780601f106109115761010080835404028352916020019161093a565b820191905f5260205f20905b81548152906001019060200180831161091d57829003601f168201915b505050505090505f61094a610c0b565b90505f81510361095e5781925050506109a0565b5f8251111561099257808260405160200161097a9291906121b6565b604051602081830303815290604052925050506109a0565b61099b84610c21565b925050505b919050565b5f600b5f9054906101000a900473ffffffffffffffffffffffffffffffffffffffff16905081600b5f6101000a81548173ffffffffffffffffffffffffffffffffffffffff021916908373ffffffffffffffffffffffffffffffffffffffff1602179055508173ffffffffffffffffffffffffffffffffffffffff168173ffffffffffffffffffffffffffffffffffffffff167f8be0079c531659141344cd1fd0a4f28419497f9722a3daafe3b4186f6b6457e060405160405180910390a35050565b5f7f13f2a32f000000000000000000000000000000000000000000000000000000007bffffffffffffffffffffffffffffffffffffffffffffffffffffffff1916827bffffffffffffffffffffffffffffffffffffffffffffffffffffffff19161480610b3257507f5b5e139f000000000000000000000000000000000000000000000000000000007bffffffffffffffffffffffffffffffffffffffffffffffffffffffff1916827bffffffffffffffffffffffffffffffffffffffffffffffffffffffff1916145b80610b425750610b4182610cc5565b5b9050919050565b610b538383610d2e565b610b5f5f848484610efd565b610b9e576040517f08c379a0000000000000000000000000000000000000000000000000000000008152600401610b9590612249565b60405180910390fd5b505050565b5f8073ffffffffffffffffffffffffffffffffffffffff1660025f8481526020019081526020015f205f9054906101000a900473ffffffffffffffffffffffffffffffffffffffff1673ffffffffffffffffffffffffffffffffffffffff1614159050919050565b606060405180602001604052805f815250905090565b6060610c2c82610ba3565b610c6b576040517f08c379a0000000000000000000000000000000000000000000000000000000008152600401610c62906122d7565b60405180910390fd5b5f610c74610c0b565b90505f815111610c925760405180602001604052805f815250610cbd565b80610c9c8461107f565b604051602001610cad9291906121b6565b6040516020818303038152906040525b915050919050565b5f7f01ffc9a7000000000000000000000000000000000000000000000000000000007bffffffffffffffffffffffffffffffffffffffffffffffffffffffff1916827bffffffffffffffffffffffffffffffffffffffffffffffffffffffff1916149050919050565b5f73ffffffffffffffffffffffffffffffffffffffff168273ffffffffffffffffffffffffffffffffffffffff1603610d9c576040517f08c379a0000000000000000000000000000000000000000000000000000000008152600401610d939061233f565b60405180910390fd5b610da581610ba3565b15610de5576040517f08c379a0000000000000000000000000000000000000000000000000000000008152600401610ddc906123a7565b60405180910390fd5b610df05f83836111d8565b600160035f8473ffffffffffffffffffffffffffffffffffffffff1673ffffffffffffffffffffffffffffffffffffffff1681526020019081526020015f205f828254610e3d91906123c5565b925050819055508160025f8381526020019081526020015f205f6101000a81548173ffffffffffffffffffffffffffffffffffffffff021916908373ffffffffffffffffffffffffffffffffffffffff160217905550808273ffffffffffffffffffffffffffffffffffffffff165f73ffffffffffffffffffffffffffffffffffffffff167fddf252ad1be2c89b69c2b068fc378daa952ba7f163c4a11628f55a4df523b3ef60405160405180910390a4610ef95f83836111e8565b5050565b5f610f1d8473ffffffffffffffffffffffffffffffffffffffff166111ed565b15611072578373ffffffffffffffffffffffffffffffffffffffff1663150b7a02610f466107cd565b8786866040518563ffffffff1660e01b8152600401610f68949392919061244a565b6020604051808303815f875af1925050508015610fa357506040513d601f19601f82011682018060405250810190610fa091906124a8565b60015b611022573d805f8114610fd1576040519150601f19603f3d011682016040523d82523d5f602084013e610fd6565b606091505b505f81510361101a576040517f08c379a000000000000000000000000000000000000000000000000000000000815260040161101190612249565b60405180910390fd5b805181602001fd5b63150b7a0260e01b7bffffffffffffffffffffffffffffffffffffffffffffffffffffffff1916817bffffffffffffffffffffffffffffffffffffffffffffffffffffffff191614915050611077565b600190505b949350505050565b60605f82036110c5576040518060400160405280600181526020017f300000000000000000000000000000000000000000000000000000000000000081525090506111d3565b5f8290505f5b5f82146110f45780806110dd90611bd6565b915050600a826110ed9190612500565b91506110cb565b5f8167ffffffffffffffff81111561110f5761110e611e55565b5b6040519080825280601f01601f1916602001820160405280156111415781602001600182028036833780820191505090505b5090505b5f85146111cc576001826111599190612530565b9150600a856111689190612563565b603061117491906123c5565b60f81b81838151811061118a57611189611b0e565b5b60200101907effffffffffffffffffffffffffffffffffffffffffffffffffffffffffffff191690815f1a905350600a856111c59190612500565b9450611145565b8093505050505b919050565b6111e383838361120f565b505050565b505050565b5f808273ffffffffffffffffffffffffffffffffffffffff163b119050919050565b61121a83838361131f565b5f73ffffffffffffffffffffffffffffffffffffffff168373ffffffffffffffffffffffffffffffffffffffff160361125b5761125681611324565b61129a565b8173ffffffffffffffffffffffffffffffffffffffff168373ffffffffffffffffffffffffffffffffffffffff1614611299576112988382611368565b5b5b5f73ffffffffffffffffffffffffffffffffffffffff168273ffffffffffffffffffffffffffffffffffffffff16036112db576112d6816114be565b61131a565b8273ffffffffffffffffffffffffffffffffffffffff168273ffffffffffffffffffffffffffffffffffffffff161461131957611318828261157e565b5b5b505050565b505050565b60088054905060095f8381526020019081526020015f2081905550600881908060018154018082558091505060019003905f5260205f20015f909190919091505550565b5f6001611374846104e0565b61137e9190612530565b90505f60075f8481526020019081526020015f20549050818114611455575f60065f8673ffffffffffffffffffffffffffffffffffffffff1673ffffffffffffffffffffffffffffffffffffffff1681526020019081526020015f205f8481526020019081526020015f205490508060065f8773ffffffffffffffffffffffffffffffffffffffff1673ffffffffffffffffffffffffffffffffffffffff1681526020019081526020015f205f8481526020019081526020015f20819055508160075f8381526020019081526020015f2081905550505b60075f8481526020019081526020015f205f905560065f8573ffffffffffffffffffffffffffffffffffffffff1673ffffffffffffffffffffffffffffffffffffffff1681526020019081526020015f205f8381526020019081526020015f205f905550505050565b5f60016008805490506114d19190612530565b90505f60095f8481526020019081526020015f205490505f600883815481106114fd576114fc611b0e565b5b905f5260205f2001549050806008838154811061151d5761151c611b0e565b5b905f5260205f2001819055508160095f8381526020019081526020015f208190555060095f8581526020019081526020015f205f9055600880548061156557611564612593565b5b600190038181905f5260205f20015f9055905550505050565b5f611588836104e0565b90508160065f8573ffffffffffffffffffffffffffffffffffffffff1673ffffffffffffffffffffffffffffffffffffffff1681526020019081526020015f205f8381526020019081526020015f20819055508060075f8481526020019081526020015f2081905550505050565b5f80fd5b5f80fd5b5f7fffffffff0000000000000000000000000000000000000000000000000000000082169050919050565b611632816115fe565b811461163c575f80fd5b50565b5f8135905061164d81611629565b92915050565b5f60208284031215611668576116676115f6565b5b5f6116758482850161163f565b91505092915050565b5f8115159050919050565b6116928161167e565b82525050565b5f6020820190506116ab5f830184611689565b92915050565b5f81519050919050565b5f82825260208201905092915050565b5f5b838110156116e85780820151818401526020810190506116cd565b5f8484015250505050565b5f601f19601f8301169050919050565b5f61170d826116b1565b61171781856116bb565b93506117278185602086016116cb565b611730816116f3565b840191505092915050565b5f6020820190508181035f8301526117538184611703565b905092915050565b5f819050919050565b61176d8161175b565b82525050565b5f6020820190506117865f830184611764565b92915050565b5f80fd5b5f80fd5b5f80fd5b5f8083601f8401126117ad576117ac61178c565b5b8235905067ffffffffffffffff8111156117ca576117c9611790565b5b6020830191508360208202830111156117e6576117e5611794565b5b9250929050565b5f8083601f8401126118025761180161178c565b5b8235905067ffffffffffffffff81111561181f5761181e611790565b5b60208301915083602082028301111561183b5761183a611794565b5b9250929050565b5f8083601f8401126118575761185661178c565b5b8235905067ffffffffffffffff81111561187457611873611790565b5b6020830191508360208202830111156118905761188f611794565b5b9250929050565b5f805f805f80606087890312156118b1576118b06115f6565b5b5f87013567ffffffffffffffff8111156118ce576118cd6115fa565b5b6118da89828a01611798565b9650965050602087013567ffffffffffffffff8111156118fd576118fc6115fa565b5b61190989828a016117ed565b9450945050604087013567ffffffffffffffff81111561192c5761192b6115fa565b5b61193889828a01611842565b92509250509295509295509295565b6119508161175b565b811461195a575f80fd5b50565b5f8135905061196b81611947565b92915050565b5f60208284031215611986576119856115f6565b5b5f6119938482850161195d565b91505092915050565b5f73ffffffffffffffffffffffffffffffffffffffff82169050919050565b5f6119c58261199c565b9050919050565b6119d5816119bb565b82525050565b5f6020820190506119ee5f8301846119cc565b92915050565b6119fd816119bb565b8114611a07575f80fd5b50565b5f81359050611a18816119f4565b92915050565b5f60208284031215611a3357611a326115f6565b5b5f611a4084828501611a0a565b91505092915050565b7f4e487b71000000000000000000000000000000000000000000000000000000005f52602260045260245ffd5b5f6002820490506001821680611a8d57607f821691505b602082108103611aa057611a9f611a49565b5b50919050565b7f4f776e61626c653a2063616c6c6572206973206e6f7420746865206f776e65725f82015250565b5f611ada6020836116bb565b9150611ae582611aa6565b602082019050919050565b5f6020820190508181035f830152611b0781611ace565b9050919050565b7f4e487b71000000000000000000000000000000000000000000000000000000005f52603260045260245ffd5b5f80fd5b5f80fd5b5f80fd5b5f8083356001602003843603038112611b6357611b62611b3b565b5b80840192508235915067ffffffffffffffff821115611b8557611b84611b3f565b5b602083019250600182023603831315611ba157611ba0611b43565b5b509250929050565b7f4e487b71000000000000000000000000000000000000000000000000000000005f52601160045260245ffd5b5f611be08261175b565b91507fffffffffffffffffffffffffffffffffffffffffffffffffffffffffffffffff8203611c1257611c11611ba9565b5b600182019050919050565b7f4552433732313a206f776e657220717565727920666f72206e6f6e65786973745f8201527f656e7420746f6b656e0000000000000000000000000000000000000000000000602082015250565b5f611c776029836116bb565b9150611c8282611c1d565b604082019050919050565b5f6020820190508181035f830152611ca481611c6b565b9050919050565b7f4552433732313a2062616c616e636520717565727920666f7220746865207a655f8201527f726f206164647265737300000000000000000000000000000000000000000000602082015250565b5f611d05602a836116bb565b9150611d1082611cab565b604082019050919050565b5f6020820190508181035f830152611d3281611cf9565b9050919050565b7f4f776e61626c653a206e6577206f776e657220697320746865207a65726f20615f8201527f6464726573730000000000000000000000000000000000000000000000000000602082015250565b5f611d936026836116bb565b9150611d9e82611d39565b604082019050919050565b5f6020820190508181035f830152611dc081611d87565b9050919050565b7f45524337323155524953746f726167653a2055524920736574206f66206e6f6e5f8201527f6578697374656e7420746f6b656e000000000000000000000000000000000000602082015250565b5f611e21602e836116bb565b9150611e2c82611dc7565b604082019050919050565b5f6020820190508181035f830152611e4e81611e15565b9050919050565b7f4e487b71000000000000000000000000000000000000000000000000000000005f52604160045260245ffd5b5f819050815f5260205f209050919050565b5f6020601f8301049050919050565b5f82821b905092915050565b5f60088302611ede7fffffffffffffffffffffffffffffffffffffffffffffffffffffffffffffffff82611ea3565b611ee88683611ea3565b95508019841693508086168417925050509392505050565b5f819050919050565b5f611f23611f1e611f198461175b565b611f00565b61175b565b9050919050565b5f819050919050565b611f3c83611f09565b611f50611f4882611f2a565b848454611eaf565b825550505050565b5f90565b611f64611f58565b611f6f818484611f33565b505050565b5b81811015611f9257611f875f82611f5c565b600181019050611f75565b5050565b601f821115611fd757611fa881611e82565b611fb184611e94565b81016020851015611fc0578190505b611fd4611fcc85611e94565b830182611f74565b50505b505050565b5f82821c905092915050565b5f611ff75f1984600802611fdc565b1980831691505092915050565b5f61200f8383611fe8565b9150826002028217905092915050565b612028826116b1565b67ffffffffffffffff81111561204157612040611e55565b5b61204b8254611a76565b612056828285611f96565b5f60209050601f831160018114612087575f8415612075578287015190505b61207f8582612004565b8655506120e6565b601f19841661209586611e82565b5f5b828110156120bc57848901518255600182019150602085019450602081019050612097565b868310156120d957848901516120d5601f891682611fe8565b8355505b6001600288020188555050505b505050505050565b7f45524337323155524953746f726167653a2055524920717565727920666f72205f8201527f6e6f6e6578697374656e7420746f6b656e000000000000000000000000000000602082015250565b5f6121486031836116bb565b9150612153826120ee565b604082019050919050565b5f6020820190508181035f8301526121758161213c565b9050919050565b5f81905092915050565b5f612190826116b1565b61219a818561217c565b93506121aa8185602086016116cb565b80840191505092915050565b5f6121c18285612186565b91506121cd8284612186565b91508190509392505050565b7f4552433732313a207472616e7366657220746f206e6f6e2045524337323152655f8201527f63656976657220696d706c656d656e7465720000000000000000000000000000602082015250565b5f6122336032836116bb565b915061223e826121d9565b604082019050919050565b5f6020820190508181035f83015261226081612227565b9050919050565b7f4552433732314d657461646174613a2055524920717565727920666f72206e6f5f8201527f6e6578697374656e7420746f6b656e0000000000000000000000000000000000602082015250565b5f6122c1602f836116bb565b91506122cc82612267565b604082019050919050565b5f6020820190508181035f8301526122ee816122b5565b9050919050565b7f4552433732313a206d696e7420746f20746865207a65726f20616464726573735f82015250565b5f6123296020836116bb565b9150612334826122f5565b602082019050919050565b5f6020820190508181035f8301526123568161231d565b9050919050565b7f4552433732313a20746f6b656e20616c7265616479206d696e746564000000005f82015250565b5f612391601c836116bb565b915061239c8261235d565b602082019050919050565b5f6020820190508181035f8301526123be81612385565b9050919050565b5f6123cf8261175b565b91506123da8361175b565b92508282019050808211156123f2576123f1611ba9565b5b92915050565b5f81519050919050565b5f82825260208201905092915050565b5f61241c826123f8565b6124268185612402565b93506124368185602086016116cb565b61243f816116f3565b840191505092915050565b5f60808201905061245d5f8301876119cc565b61246a60208301866119cc565b6124776040830185611764565b81810360608301526124898184612412565b905095945050505050565b5f815190506124a281611629565b92915050565b5f602082840312156124bd576124bc6115f6565b5b5f6124ca84828501612494565b91505092915050565b7f4e487b71000000000000000000000000000000000000000000000000000000005f52601260045260245ffd5b5f61250a8261175b565b91506125158361175b565b925082612525576125246124d3565b5b828204905092915050565b5f61253a8261175b565b91506125458361175b565b925082820390508181111561255d5761255c611ba9565b5b92915050565b5f61256d8261175b565b91506125788361175b565b925082612588576125876124d3565b5b828206905092915050565b7f4e487b71000000000000000000000000000000000000000000000000000000005f52603160045260245ffdfea26469706673582212200e6d98f4ae9fba52814292362da1701de0368f99f16aec1383d385c0c683edc364736f6c63430008140033",
					"opcodes": "PUSH1 0x80 PUSH1 0x40 MSTORE CALLVALUE DUP1 ISZERO PUSH3 0x10 JUMPI PUSH0 DUP1 REVERT JUMPDEST POP PUSH1 0x40 MLOAD DUP1 PUSH1 0x40 ADD PUSH1 0x40 MSTORE DUP1 PUSH1 0x14 DUP2 MSTORE PUSH1 0x20 ADD PUSH32 0x436F6D6D697373696F6E204261736564204E4654000000000000000000000000 DUP2 MSTORE POP PUSH1 0x40 MLOAD DUP1 PUSH1 0x40 ADD PUSH1 0x40 MSTORE DUP1 PUSH1 0x3 DUP2 MSTORE PUSH1 0x20 ADD PUSH32 0x43424E0000000000000000000000000000000000000000000000000000000000 DUP2 MSTORE POP DUP2 PUSH0 SWAP1 DUP2 PUSH3 0x8D SWAP2 SWAP1 PUSH3 0x3F6 JUMP JUMPDEST POP DUP1 PUSH1 0x1 SWAP1 DUP2 PUSH3 0x9F SWAP2 SWAP1 PUSH3 0x3F6 JUMP JUMPDEST POP POP POP PUSH3 0xC2 PUSH3 0xB6 PUSH3 0xC8 PUSH1 0x20 SHL PUSH1 0x20 SHR JUMP JUMPDEST PUSH3 0xCF PUSH1 0x20 SHL PUSH1 0x20 SHR JUMP JUMPDEST PUSH3 0x4DA JUMP JUMPDEST PUSH0 CALLER SWAP1 POP SWAP1 JUMP JUMPDEST PUSH0 PUSH1 0xB PUSH0 SWAP1 SLOAD SWAP1 PUSH2 0x100 EXP SWAP1 DIV PUSH20 0xFFFFFFFFFFFFFFFFFFFFFFFFFFFFFFFFFFFFFFFF AND SWAP1 POP DUP2 PUSH1 0xB PUSH0 PUSH2 0x100 EXP DUP2 SLOAD DUP2 PUSH20 0xFFFFFFFFFFFFFFFFFFFFFFFFFFFFFFFFFFFFFFFF MUL NOT AND SWAP1 DUP4 PUSH20 0xFFFFFFFFFFFFFFFFFFFFFFFFFFFFFFFFFFFFFFFF AND MUL OR SWAP1 SSTORE POP DUP2 PUSH20 0xFFFFFFFFFFFFFFFFFFFFFFFFFFFFFFFFFFFFFFFF AND DUP2 PUSH20 0xFFFFFFFFFFFFFFFFFFFFFFFFFFFFFFFFFFFFFFFF AND PUSH32 0x8BE0079C531659141344CD1FD0A4F28419497F9722A3DAAFE3B4186F6B6457E0 PUSH1 0x40 MLOAD PUSH1 0x40 MLOAD DUP1 SWAP2 SUB SWAP1 LOG3 POP POP JUMP JUMPDEST PUSH0 DUP2 MLOAD SWAP1 POP SWAP2 SWAP1 POP JUMP JUMPDEST PUSH32 0x4E487B7100000000000000000000000000000000000000000000000000000000 PUSH0 MSTORE PUSH1 0x41 PUSH1 0x4 MSTORE PUSH1 0x24 PUSH0 REVERT JUMPDEST PUSH32 0x4E487B7100000000000000000000000000000000000000000000000000000000 PUSH0 MSTORE PUSH1 0x22 PUSH1 0x4 MSTORE PUSH1 0x24 PUSH0 REVERT JUMPDEST PUSH0 PUSH1 0x2 DUP3 DIV SWAP1 POP PUSH1 0x1 DUP3 AND DUP1 PUSH3 0x20E JUMPI PUSH1 0x7F DUP3 AND SWAP2 POP JUMPDEST PUSH1 0x20 DUP3 LT DUP2 SUB PUSH3 0x224 JUMPI PUSH3 0x223 PUSH3 0x1C9 JUMP JUMPDEST JUMPDEST POP SWAP2 SWAP1 POP JUMP JUMPDEST PUSH0 DUP2 SWAP1 POP DUP2 PUSH0 MSTORE PUSH1 0x20 PUSH0 KECCAK256 SWAP1 POP SWAP2 SWAP1 POP JUMP JUMPDEST PUSH0 PUSH1 0x20 PUSH1 0x1F DUP4 ADD DIV SWAP1 POP SWAP2 SWAP1 POP JUMP JUMPDEST PUSH0 DUP3 DUP3 SHL SWAP1 POP SWAP3 SWAP2 POP POP JUMP JUMPDEST PUSH0 PUSH1 0x8 DUP4 MUL PUSH3 0x288 PUSH32 0xFFFFFFFFFFFFFFFFFFFFFFFFFFFFFFFFFFFFFFFFFFFFFFFFFFFFFFFFFFFFFFFF DUP3 PUSH3 0x24B JUMP JUMPDEST PUSH3 0x294 DUP7 DUP4 PUSH3 0x24B JUMP JUMPDEST SWAP6 POP DUP1 NOT DUP5 AND SWAP4 POP DUP1 DUP7 AND DUP5 OR SWAP3 POP POP POP SWAP4 SWAP3 POP POP POP JUMP JUMPDEST PUSH0 DUP2 SWAP1 POP SWAP2 SWAP1 POP JUMP JUMPDEST PUSH0 DUP2 SWAP1 POP SWAP2 SWAP1 POP JUMP JUMPDEST PUSH0 PUSH3 0x2DE PUSH3 0x2D8 PUSH3 0x2D2 DUP5 PUSH3 0x2AC JUMP JUMPDEST PUSH3 0x2B5 JUMP JUMPDEST PUSH3 0x2AC JUMP JUMPDEST SWAP1 POP SWAP2 SWAP1 POP JUMP JUMPDEST PUSH0 DUP2 SWAP1 POP SWAP2 SWAP1 POP JUMP JUMPDEST PUSH3 0x2F9 DUP4 PUSH3 0x2BE JUMP JUMPDEST PUSH3 0x311 PUSH3 0x308 DUP3 PUSH3 0x2E5 JUMP JUMPDEST DUP5 DUP5 SLOAD PUSH3 0x257 JUMP JUMPDEST DUP3 SSTORE POP POP POP POP JUMP JUMPDEST PUSH0 SWAP1 JUMP JUMPDEST PUSH3 0x327 PUSH3 0x319 JUMP JUMPDEST PUSH3 0x334 DUP2 DUP5 DUP5 PUSH3 0x2EE JUMP JUMPDEST POP POP POP JUMP JUMPDEST JUMPDEST DUP2 DUP2 LT ISZERO PUSH3 0x35B JUMPI PUSH3 0x34F PUSH0 DUP3 PUSH3 0x31D JUMP JUMPDEST PUSH1 0x1 DUP2 ADD SWAP1 POP PUSH3 0x33A JUMP JUMPDEST POP POP JUMP JUMPDEST PUSH1 0x1F DUP3 GT ISZERO PUSH3 0x3AA JUMPI PUSH3 0x374 DUP2 PUSH3 0x22A JUMP JUMPDEST PUSH3 0x37F DUP5 PUSH3 0x23C JUMP JUMPDEST DUP2 ADD PUSH1 0x20 DUP6 LT ISZERO PUSH3 0x38F JUMPI DUP2 SWAP1 POP JUMPDEST PUSH3 0x3A7 PUSH3 0x39E DUP6 PUSH3 0x23C JUMP JUMPDEST DUP4 ADD DUP3 PUSH3 0x339 JUMP JUMPDEST POP POP JUMPDEST POP POP POP JUMP JUMPDEST PUSH0 DUP3 DUP3 SHR SWAP1 POP SWAP3 SWAP2 POP POP JUMP JUMPDEST PUSH0 PUSH3 0x3CC PUSH0 NOT DUP5 PUSH1 0x8 MUL PUSH3 0x3AF JUMP JUMPDEST NOT DUP1 DUP4 AND SWAP2 POP POP SWAP3 SWAP2 POP POP JUMP JUMPDEST PUSH0 PUSH3 0x3E6 DUP4 DUP4 PUSH3 0x3BB JUMP JUMPDEST SWAP2 POP DUP3 PUSH1 0x2 MUL DUP3 OR SWAP1 POP SWAP3 SWAP2 POP POP JUMP JUMPDEST PUSH3 0x401 DUP3 PUSH3 0x192 JUMP JUMPDEST PUSH8 0xFFFFFFFFFFFFFFFF DUP2 GT ISZERO PUSH3 0x41D JUMPI PUSH3 0x41C PUSH3 0x19C JUMP JUMPDEST JUMPDEST PUSH3 0x429 DUP3 SLOAD PUSH3 0x1F6 JUMP JUMPDEST PUSH3 0x436 DUP3 DUP3 DUP6 PUSH3 0x35F JUMP JUMPDEST PUSH0 PUSH1 0x20 SWAP1 POP PUSH1 0x1F DUP4 GT PUSH1 0x1 DUP2 EQ PUSH3 0x46C JUMPI PUSH0 DUP5 ISZERO PUSH3 0x457 JUMPI DUP3 DUP8 ADD MLOAD SWAP1 POP JUMPDEST PUSH3 0x463 DUP6 DUP3 PUSH3 0x3D9 JUMP JUMPDEST DUP7 SSTORE POP PUSH3 0x4D2 JUMP JUMPDEST PUSH1 0x1F NOT DUP5 AND PUSH3 0x47C DUP7 PUSH3 0x22A JUMP JUMPDEST PUSH0 JUMPDEST DUP3 DUP2 LT ISZERO PUSH3 0x4A5 JUMPI DUP5 DUP10 ADD MLOAD DUP3 SSTORE PUSH1 0x1 DUP3 ADD SWAP2 POP PUSH1 0x20 DUP6 ADD SWAP5 POP PUSH1 0x20 DUP2 ADD SWAP1 POP PUSH3 0x47E JUMP JUMPDEST DUP7 DUP4 LT ISZERO PUSH3 0x4C5 JUMPI DUP5 DUP10 ADD MLOAD PUSH3 0x4C1 PUSH1 0x1F DUP10 AND DUP3 PUSH3 0x3BB JUMP JUMPDEST DUP4 SSTORE POP JUMPDEST PUSH1 0x1 PUSH1 0x2 DUP9 MUL ADD DUP9 SSTORE POP POP POP JUMPDEST POP POP POP POP POP POP JUMP JUMPDEST PUSH2 0x25F6 DUP1 PUSH3 0x4E8 PUSH0 CODECOPY PUSH0 RETURN INVALID PUSH1 0x80 PUSH1 0x40 MSTORE CALLVALUE DUP1 ISZERO PUSH2 0xF JUMPI PUSH0 DUP1 REVERT JUMPDEST POP PUSH1 0x4 CALLDATASIZE LT PUSH2 0x9C JUMPI PUSH0 CALLDATALOAD PUSH1 0xE0 SHR DUP1 PUSH4 0x70A08231 GT PUSH2 0x64 JUMPI DUP1 PUSH4 0x70A08231 EQ PUSH2 0x158 JUMPI DUP1 PUSH4 0x8DA5CB5B EQ PUSH2 0x188 JUMPI DUP1 PUSH4 0x95D89B41 EQ PUSH2 0x1A6 JUMPI DUP1 PUSH4 0xC87B56DD EQ PUSH2 0x1C4 JUMPI DUP1 PUSH4 0xF2FDE38B EQ PUSH2 0x1F4 JUMPI PUSH2 0x9C JUMP JUMPDEST DUP1 PUSH4 0x1FFC9A7 EQ PUSH2 0xA0 JUMPI DUP1 PUSH4 0x6FDDE03 EQ PUSH2 0xD0 JUMPI DUP1 PUSH4 0x18160DDD EQ PUSH2 0xEE JUMPI DUP1 PUSH4 0x2FE37501 EQ PUSH2 0x10C JUMPI DUP1 PUSH4 0x6352211E EQ PUSH2 0x128 JUMPI JUMPDEST PUSH0 DUP1 REVERT JUMPDEST PUSH2 0xBA PUSH1 0x4 DUP1 CALLDATASIZE SUB DUP2 ADD SWAP1 PUSH2 0xB5 SWAP2 SWAP1 PUSH2 0x1653 JUMP JUMPDEST PUSH2 0x210 JUMP JUMPDEST PUSH1 0x40 MLOAD PUSH2 0xC7 SWAP2 SWAP1 PUSH2 0x1698 JUMP JUMPDEST PUSH1 0x40 MLOAD DUP1 SWAP2 SUB SWAP1 RETURN JUMPDEST PUSH2 0xD8 PUSH2 0x221 JUMP JUMPDEST PUSH1 0x40 MLOAD PUSH2 0xE5 SWAP2 SWAP1 PUSH2 0x173B JUMP JUMPDEST PUSH1 0x40 MLOAD DUP1 SWAP2 SUB SWAP1 RETURN JUMPDEST PUSH2 0xF6 PUSH2 0x2B0 JUMP JUMPDEST PUSH1 0x40 MLOAD PUSH2 0x103 SWAP2 SWAP1 PUSH2 0x1773 JUMP JUMPDEST PUSH1 0x40 MLOAD DUP1 SWAP2 SUB SWAP1 RETURN JUMPDEST PUSH2 0x126 PUSH1 0x4 DUP1 CALLDATASIZE SUB DUP2 ADD SWAP1 PUSH2 0x121 SWAP2 SWAP1 PUSH2 0x1897 JUMP JUMPDEST PUSH2 0x2BC JUMP JUMPDEST STOP JUMPDEST PUSH2 0x142 PUSH1 0x4 DUP1 CALLDATASIZE SUB DUP2 ADD SWAP1 PUSH2 0x13D SWAP2 SWAP1 PUSH2 0x1971 JUMP JUMPDEST PUSH2 0x434 JUMP JUMPDEST PUSH1 0x40 MLOAD PUSH2 0x14F SWAP2 SWAP1 PUSH2 0x19DB JUMP JUMPDEST PUSH1 0x40 MLOAD DUP1 SWAP2 SUB SWAP1 RETURN JUMPDEST PUSH2 0x172 PUSH1 0x4 DUP1 CALLDATASIZE SUB DUP2 ADD SWAP1 PUSH2 0x16D SWAP2 SWAP1 PUSH2 0x1A1E JUMP JUMPDEST PUSH2 0x4E0 JUMP JUMPDEST PUSH1 0x40 MLOAD PUSH2 0x17F SWAP2 SWAP1 PUSH2 0x1773 JUMP JUMPDEST PUSH1 0x40 MLOAD DUP1 SWAP2 SUB SWAP1 RETURN JUMPDEST PUSH2 0x190 PUSH2 0x594 JUMP JUMPDEST PUSH1 0x40 MLOAD PUSH2 0x19D SWAP2 SWAP1 PUSH2 0x19DB JUMP JUMPDEST PUSH1 0x40 MLOAD DUP1 SWAP2 SUB SWAP1 RETURN JUMPDEST PUSH2 0x1AE PUSH2 0x5BC JUMP JUMPDEST PUSH1 0x40 MLOAD PUSH2 0x1BB SWAP2 SWAP1 PUSH2 0x173B JUMP JUMPDEST PUSH1 0x40 MLOAD DUP1 SWAP2 SUB SWAP1 RETURN JUMPDEST PUSH2 0x1DE PUSH1 0x4 DUP1 CALLDATASIZE SUB DUP2 ADD SWAP1 PUSH2 0x1D9 SWAP2 SWAP1 PUSH2 0x1971 JUMP JUMPDEST PUSH2 0x64C JUMP JUMPDEST PUSH1 0x40 MLOAD PUSH2 0x1EB SWAP2 SWAP1 PUSH2 0x173B JUMP JUMPDEST PUSH1 0x40 MLOAD DUP1 SWAP2 SUB SWAP1 RETURN JUMPDEST PUSH2 0x20E PUSH1 0x4 DUP1 CALLDATASIZE SUB DUP2 ADD SWAP1 PUSH2 0x209 SWAP2 SWAP1 PUSH2 0x1A1E JUMP JUMPDEST PUSH2 0x65E JUMP JUMPDEST STOP JUMPDEST PUSH0 PUSH2 0x21A DUP3 PUSH2 0x754 JUMP JUMPDEST SWAP1 POP SWAP2 SWAP1 POP JUMP JUMPDEST PUSH1 0x60 PUSH0 DUP1 SLOAD PUSH2 0x22F SWAP1 PUSH2 0x1A76 JUMP JUMPDEST DUP1 PUSH1 0x1F ADD PUSH1 0x20 DUP1 SWAP2 DIV MUL PUSH1 0x20 ADD PUSH1 0x40 MLOAD SWAP1 DUP2 ADD PUSH1 0x40 MSTORE DUP1 SWAP3 SWAP2 SWAP1 DUP2 DUP2 MSTORE PUSH1 0x20 ADD DUP3 DUP1 SLOAD PUSH2 0x25B SWAP1 PUSH2 0x1A76 JUMP JUMPDEST DUP1 ISZERO PUSH2 0x2A6 JUMPI DUP1 PUSH1 0x1F LT PUSH2 0x27D JUMPI PUSH2 0x100 DUP1 DUP4 SLOAD DIV MUL DUP4 MSTORE SWAP2 PUSH1 0x20 ADD SWAP2 PUSH2 0x2A6 JUMP JUMPDEST DUP3 ADD SWAP2 SWAP1 PUSH0 MSTORE PUSH1 0x20 PUSH0 KECCAK256 SWAP1 JUMPDEST DUP2 SLOAD DUP2 MSTORE SWAP1 PUSH1 0x1 ADD SWAP1 PUSH1 0x20 ADD DUP1 DUP4 GT PUSH2 0x289 JUMPI DUP3 SWAP1 SUB PUSH1 0x1F AND DUP3 ADD SWAP2 JUMPDEST POP POP POP POP POP SWAP1 POP SWAP1 JUMP JUMPDEST PUSH0 PUSH1 0x8 DUP1 SLOAD SWAP1 POP SWAP1 POP SWAP1 JUMP JUMPDEST PUSH2 0x2C4 PUSH2 0x7CD JUMP JUMPDEST PUSH20 0xFFFFFFFFFFFFFFFFFFFFFFFFFFFFFFFFFFFFFFFF AND PUSH2 0x2E2 PUSH2 0x594 JUMP JUMPDEST PUSH20 0xFFFFFFFFFFFFFFFFFFFFFFFFFFFFFFFFFFFFFFFF AND EQ PUSH2 0x338 JUMPI PUSH1 0x40 MLOAD PUSH32 0x8C379A000000000000000000000000000000000000000000000000000000000 DUP2 MSTORE PUSH1 0x4 ADD PUSH2 0x32F SWAP1 PUSH2 0x1AF0 JUMP JUMPDEST PUSH1 0x40 MLOAD DUP1 SWAP2 SUB SWAP1 REVERT JUMPDEST PUSH0 JUMPDEST DUP7 DUP7 SWAP1 POP DUP2 LT ISZERO PUSH2 0x42B JUMPI PUSH2 0x38F DUP8 DUP8 DUP4 DUP2 DUP2 LT PUSH2 0x35B JUMPI PUSH2 0x35A PUSH2 0x1B0E JUMP JUMPDEST JUMPDEST SWAP1 POP PUSH1 0x20 MUL ADD PUSH1 0x20 DUP2 ADD SWAP1 PUSH2 0x370 SWAP2 SWAP1 PUSH2 0x1A1E JUMP JUMPDEST DUP7 DUP7 DUP5 DUP2 DUP2 LT PUSH2 0x383 JUMPI PUSH2 0x382 PUSH2 0x1B0E JUMP JUMPDEST JUMPDEST SWAP1 POP PUSH1 0x20 MUL ADD CALLDATALOAD PUSH2 0x7D4 JUMP JUMPDEST PUSH2 0x418 DUP6 DUP6 DUP4 DUP2 DUP2 LT PUSH2 0x3A5 JUMPI PUSH2 0x3A4 PUSH2 0x1B0E JUMP JUMPDEST JUMPDEST SWAP1 POP PUSH1 0x20 MUL ADD CALLDATALOAD DUP5 DUP5 DUP5 DUP2 DUP2 LT PUSH2 0x3BF JUMPI PUSH2 0x3BE PUSH2 0x1B0E JUMP JUMPDEST JUMPDEST SWAP1 POP PUSH1 0x20 MUL DUP2 ADD SWAP1 PUSH2 0x3D1 SWAP2 SWAP1 PUSH2 0x1B47 JUMP JUMPDEST DUP1 DUP1 PUSH1 0x1F ADD PUSH1 0x20 DUP1 SWAP2 DIV MUL PUSH1 0x20 ADD PUSH1 0x40 MLOAD SWAP1 DUP2 ADD PUSH1 0x40 MSTORE DUP1 SWAP4 SWAP3 SWAP2 SWAP1 DUP2 DUP2 MSTORE PUSH1 0x20 ADD DUP4 DUP4 DUP1 DUP3 DUP5 CALLDATACOPY PUSH0 DUP2 DUP5 ADD MSTORE PUSH1 0x1F NOT PUSH1 0x1F DUP3 ADD AND SWAP1 POP DUP1 DUP4 ADD SWAP3 POP POP POP POP POP POP POP PUSH2 0x7F1 JUMP JUMPDEST DUP1 DUP1 PUSH2 0x423 SWAP1 PUSH2 0x1BD6 JUMP JUMPDEST SWAP2 POP POP PUSH2 0x33A JUMP JUMPDEST POP POP POP POP POP POP POP JUMP JUMPDEST PUSH0 DUP1 PUSH1 0x2 PUSH0 DUP5 DUP2 MSTORE PUSH1 0x20 ADD SWAP1 DUP2 MSTORE PUSH1 0x20 ADD PUSH0 KECCAK256 PUSH0 SWAP1 SLOAD SWAP1 PUSH2 0x100 EXP SWAP1 DIV PUSH20 0xFFFFFFFFFFFFFFFFFFFFFFFFFFFFFFFFFFFFFFFF AND SWAP1 POP PUSH0 PUSH20 0xFFFFFFFFFFFFFFFFFFFFFFFFFFFFFFFFFFFFFFFF AND DUP2 PUSH20 0xFFFFFFFFFFFFFFFFFFFFFFFFFFFFFFFFFFFFFFFF AND SUB PUSH2 0x4D7 JUMPI PUSH1 0x40 MLOAD PUSH32 0x8C379A000000000000000000000000000000000000000000000000000000000 DUP2 MSTORE PUSH1 0x4 ADD PUSH2 0x4CE SWAP1 PUSH2 0x1C8D JUMP JUMPDEST PUSH1 0x40 MLOAD DUP1 SWAP2 SUB SWAP1 REVERT JUMPDEST DUP1 SWAP2 POP POP SWAP2 SWAP1 POP JUMP JUMPDEST PUSH0 DUP1 PUSH20 0xFFFFFFFFFFFFFFFFFFFFFFFFFFFFFFFFFFFFFFFF AND DUP3 PUSH20 0xFFFFFFFFFFFFFFFFFFFFFFFFFFFFFFFFFFFFFFFF AND SUB PUSH2 0x54F JUMPI PUSH1 0x40 MLOAD PUSH32 0x8C379A000000000000000000000000000000000000000000000000000000000 DUP2 MSTORE PUSH1 0x4 ADD PUSH2 0x546 SWAP1 PUSH2 0x1D1B JUMP JUMPDEST PUSH1 0x40 MLOAD DUP1 SWAP2 SUB SWAP1 REVERT JUMPDEST PUSH1 0x3 PUSH0 DUP4 PUSH20 0xFFFFFFFFFFFFFFFFFFFFFFFFFFFFFFFFFFFFFFFF AND PUSH20 0xFFFFFFFFFFFFFFFFFFFFFFFFFFFFFFFFFFFFFFFF AND DUP2 MSTORE PUSH1 0x20 ADD SWAP1 DUP2 MSTORE PUSH1 0x20 ADD PUSH0 KECCAK256 SLOAD SWAP1 POP SWAP2 SWAP1 POP JUMP JUMPDEST PUSH0 PUSH1 0xB PUSH0 SWAP1 SLOAD SWAP1 PUSH2 0x100 EXP SWAP1 DIV PUSH20 0xFFFFFFFFFFFFFFFFFFFFFFFFFFFFFFFFFFFFFFFF AND SWAP1 POP SWAP1 JUMP JUMPDEST PUSH1 0x60 PUSH1 0x1 DUP1 SLOAD PUSH2 0x5CB SWAP1 PUSH2 0x1A76 JUMP JUMPDEST DUP1 PUSH1 0x1F ADD PUSH1 0x20 DUP1 SWAP2 DIV MUL PUSH1 0x20 ADD PUSH1 0x40 MLOAD SWAP1 DUP2 ADD PUSH1 0x40 MSTORE DUP1 SWAP3 SWAP2 SWAP1 DUP2 DUP2 MSTORE PUSH1 0x20 ADD DUP3 DUP1 SLOAD PUSH2 0x5F7 SWAP1 PUSH2 0x1A76 JUMP JUMPDEST DUP1 ISZERO PUSH2 0x642 JUMPI DUP1 PUSH1 0x1F LT PUSH2 0x619 JUMPI PUSH2 0x100 DUP1 DUP4 SLOAD DIV MUL DUP4 MSTORE SWAP2 PUSH1 0x20 ADD SWAP2 PUSH2 0x642 JUMP JUMPDEST DUP3 ADD SWAP2 SWAP1 PUSH0 MSTORE PUSH1 0x20 PUSH0 KECCAK256 SWAP1 JUMPDEST DUP2 SLOAD DUP2 MSTORE SWAP1 PUSH1 0x1 ADD SWAP1 PUSH1 0x20 ADD DUP1 DUP4 GT PUSH2 0x625 JUMPI DUP3 SWAP1 SUB PUSH1 0x1F AND DUP3 ADD SWAP2 JUMPDEST POP POP POP POP POP SWAP1 POP SWAP1 JUMP JUMPDEST PUSH1 0x60 PUSH2 0x657 DUP3 PUSH2 0x85C JUMP JUMPDEST SWAP1 POP SWAP2 SWAP1 POP JUMP JUMPDEST PUSH2 0x666 PUSH2 0x7CD JUMP JUMPDEST PUSH20 0xFFFFFFFFFFFFFFFFFFFFFFFFFFFFFFFFFFFFFFFF AND PUSH2 0x684 PUSH2 0x594 JUMP JUMPDEST PUSH20 0xFFFFFFFFFFFFFFFFFFFFFFFFFFFFFFFFFFFFFFFF AND EQ PUSH2 0x6DA JUMPI PUSH1 0x40 MLOAD PUSH32 0x8C379A000000000000000000000000000000000000000000000000000000000 DUP2 MSTORE PUSH1 0x4 ADD PUSH2 0x6D1 SWAP1 PUSH2 0x1AF0 JUMP JUMPDEST PUSH1 0x40 MLOAD DUP1 SWAP2 SUB SWAP1 REVERT JUMPDEST PUSH0 PUSH20 0xFFFFFFFFFFFFFFFFFFFFFFFFFFFFFFFFFFFFFFFF AND DUP2 PUSH20 0xFFFFFFFFFFFFFFFFFFFFFFFFFFFFFFFFFFFFFFFF AND SUB PUSH2 0x748 JUMPI PUSH1 0x40 MLOAD PUSH32 0x8C379A000000000000000000000000000000000000000000000000000000000 DUP2 MSTORE PUSH1 0x4 ADD PUSH2 0x73F SWAP1 PUSH2 0x1DA9 JUMP JUMPDEST PUSH1 0x40 MLOAD DUP1 SWAP2 SUB SWAP1 REVERT JUMPDEST PUSH2 0x751 DUP2 PUSH2 0x9A5 JUMP JUMPDEST POP JUMP JUMPDEST PUSH0 PUSH32 0x18160DDD00000000000000000000000000000000000000000000000000000000 PUSH28 0xFFFFFFFFFFFFFFFFFFFFFFFFFFFFFFFFFFFFFFFFFFFFFFFFFFFFFFFF NOT AND DUP3 PUSH28 0xFFFFFFFFFFFFFFFFFFFFFFFFFFFFFFFFFFFFFFFFFFFFFFFFFFFFFFFF NOT AND EQ DUP1 PUSH2 0x7C6 JUMPI POP PUSH2 0x7C5 DUP3 PUSH2 0xA68 JUMP JUMPDEST JUMPDEST SWAP1 POP SWAP2 SWAP1 POP JUMP JUMPDEST PUSH0 CALLER SWAP1 POP SWAP1 JUMP JUMPDEST PUSH2 0x7ED DUP3 DUP3 PUSH1 0x40 MLOAD DUP1 PUSH1 0x20 ADD PUSH1 0x40 MSTORE DUP1 PUSH0 DUP2 MSTORE POP PUSH2 0xB49 JUMP JUMPDEST POP POP JUMP JUMPDEST PUSH2 0x7FA DUP3 PUSH2 0xBA3 JUMP JUMPDEST PUSH2 0x839 JUMPI PUSH1 0x40 MLOAD PUSH32 0x8C379A000000000000000000000000000000000000000000000000000000000 DUP2 MSTORE PUSH1 0x4 ADD PUSH2 0x830 SWAP1 PUSH2 0x1E37 JUMP JUMPDEST PUSH1 0x40 MLOAD DUP1 SWAP2 SUB SWAP1 REVERT JUMPDEST DUP1 PUSH1 0xA PUSH0 DUP5 DUP2 MSTORE PUSH1 0x20 ADD SWAP1 DUP2 MSTORE PUSH1 0x20 ADD PUSH0 KECCAK256 SWAP1 DUP2 PUSH2 0x857 SWAP2 SWAP1 PUSH2 0x201F JUMP JUMPDEST POP POP POP JUMP JUMPDEST PUSH1 0x60 PUSH2 0x867 DUP3 PUSH2 0xBA3 JUMP JUMPDEST PUSH2 0x8A6 JUMPI PUSH1 0x40 MLOAD PUSH32 0x8C379A000000000000000000000000000000000000000000000000000000000 DUP2 MSTORE PUSH1 0x4 ADD PUSH2 0x89D SWAP1 PUSH2 0x215E JUMP JUMPDEST PUSH1 0x40 MLOAD DUP1 SWAP2 SUB SWAP1 REVERT JUMPDEST PUSH0 PUSH1 0xA PUSH0 DUP5 DUP2 MSTORE PUSH1 0x20 ADD SWAP1 DUP2 MSTORE PUSH1 0x20 ADD PUSH0 KECCAK256 DUP1 SLOAD PUSH2 0x8C3 SWAP1 PUSH2 0x1A76 JUMP JUMPDEST DUP1 PUSH1 0x1F ADD PUSH1 0x20 DUP1 SWAP2 DIV MUL PUSH1 0x20 ADD PUSH1 0x40 MLOAD SWAP1 DUP2 ADD PUSH1 0x40 MSTORE DUP1 SWAP3 SWAP2 SWAP1 DUP2 DUP2 MSTORE PUSH1 0x20 ADD DUP3 DUP1 SLOAD PUSH2 0x8EF SWAP1 PUSH2 0x1A76 JUMP JUMPDEST DUP1 ISZERO PUSH2 0x93A JUMPI DUP1 PUSH1 0x1F LT PUSH2 0x911 JUMPI PUSH2 0x100 DUP1 DUP4 SLOAD DIV MUL DUP4 MSTORE SWAP2 PUSH1 0x20 ADD SWAP2 PUSH2 0x93A JUMP JUMPDEST DUP3 ADD SWAP2 SWAP1 PUSH0 MSTORE PUSH1 0x20 PUSH0 KECCAK256 SWAP1 JUMPDEST DUP2 SLOAD DUP2 MSTORE SWAP1 PUSH1 0x1 ADD SWAP1 PUSH1 0x20 ADD DUP1 DUP4 GT PUSH2 0x91D JUMPI DUP3 SWAP1 SUB PUSH1 0x1F AND DUP3 ADD SWAP2 JUMPDEST POP POP POP POP POP SWAP1 POP PUSH0 PUSH2 0x94A PUSH2 0xC0B JUMP JUMPDEST SWAP1 POP PUSH0 DUP2 MLOAD SUB PUSH2 0x95E JUMPI DUP2 SWAP3 POP POP POP PUSH2 0x9A0 JUMP JUMPDEST PUSH0 DUP3 MLOAD GT ISZERO PUSH2 0x992 JUMPI DUP1 DUP3 PUSH1 0x40 MLOAD PUSH1 0x20 ADD PUSH2 0x97A SWAP3 SWAP2 SWAP1 PUSH2 0x21B6 JUMP JUMPDEST PUSH1 0x40 MLOAD PUSH1 0x20 DUP2 DUP4 SUB SUB DUP2 MSTORE SWAP1 PUSH1 0x40 MSTORE SWAP3 POP POP POP PUSH2 0x9A0 JUMP JUMPDEST PUSH2 0x99B DUP5 PUSH2 0xC21 JUMP JUMPDEST SWAP3 POP POP POP JUMPDEST SWAP2 SWAP1 POP JUMP JUMPDEST PUSH0 PUSH1 0xB PUSH0 SWAP1 SLOAD SWAP1 PUSH2 0x100 EXP SWAP1 DIV PUSH20 0xFFFFFFFFFFFFFFFFFFFFFFFFFFFFFFFFFFFFFFFF AND SWAP1 POP DUP2 PUSH1 0xB PUSH0 PUSH2 0x100 EXP DUP2 SLOAD DUP2 PUSH20 0xFFFFFFFFFFFFFFFFFFFFFFFFFFFFFFFFFFFFFFFF MUL NOT AND SWAP1 DUP4 PUSH20 0xFFFFFFFFFFFFFFFFFFFFFFFFFFFFFFFFFFFFFFFF AND MUL OR SWAP1 SSTORE POP DUP2 PUSH20 0xFFFFFFFFFFFFFFFFFFFFFFFFFFFFFFFFFFFFFFFF AND DUP2 PUSH20 0xFFFFFFFFFFFFFFFFFFFFFFFFFFFFFFFFFFFFFFFF AND PUSH32 0x8BE0079C531659141344CD1FD0A4F28419497F9722A3DAAFE3B4186F6B6457E0 PUSH1 0x40 MLOAD PUSH1 0x40 MLOAD DUP1 SWAP2 SUB SWAP1 LOG3 POP POP JUMP JUMPDEST PUSH0 PUSH32 0x13F2A32F00000000000000000000000000000000000000000000000000000000 PUSH28 0xFFFFFFFFFFFFFFFFFFFFFFFFFFFFFFFFFFFFFFFFFFFFFFFFFFFFFFFF NOT AND DUP3 PUSH28 0xFFFFFFFFFFFFFFFFFFFFFFFFFFFFFFFFFFFFFFFFFFFFFFFFFFFFFFFF NOT AND EQ DUP1 PUSH2 0xB32 JUMPI POP PUSH32 0x5B5E139F00000000000000000000000000000000000000000000000000000000 PUSH28 0xFFFFFFFFFFFFFFFFFFFFFFFFFFFFFFFFFFFFFFFFFFFFFFFFFFFFFFFF NOT AND DUP3 PUSH28 0xFFFFFFFFFFFFFFFFFFFFFFFFFFFFFFFFFFFFFFFFFFFFFFFFFFFFFFFF NOT AND EQ JUMPDEST DUP1 PUSH2 0xB42 JUMPI POP PUSH2 0xB41 DUP3 PUSH2 0xCC5 JUMP JUMPDEST JUMPDEST SWAP1 POP SWAP2 SWAP1 POP JUMP JUMPDEST PUSH2 0xB53 DUP4 DUP4 PUSH2 0xD2E JUMP JUMPDEST PUSH2 0xB5F PUSH0 DUP5 DUP5 DUP5 PUSH2 0xEFD JUMP JUMPDEST PUSH2 0xB9E JUMPI PUSH1 0x40 MLOAD PUSH32 0x8C379A000000000000000000000000000000000000000000000000000000000 DUP2 MSTORE PUSH1 0x4 ADD PUSH2 0xB95 SWAP1 PUSH2 0x2249 JUMP JUMPDEST PUSH1 0x40 MLOAD DUP1 SWAP2 SUB SWAP1 REVERT JUMPDEST POP POP POP JUMP JUMPDEST PUSH0 DUP1 PUSH20 0xFFFFFFFFFFFFFFFFFFFFFFFFFFFFFFFFFFFFFFFF AND PUSH1 0x2 PUSH0 DUP5 DUP2 MSTORE PUSH1 0x20 ADD SWAP1 DUP2 MSTORE PUSH1 0x20 ADD PUSH0 KECCAK256 PUSH0 SWAP1 SLOAD SWAP1 PUSH2 0x100 EXP SWAP1 DIV PUSH20 0xFFFFFFFFFFFFFFFFFFFFFFFFFFFFFFFFFFFFFFFF AND PUSH20 0xFFFFFFFFFFFFFFFFFFFFFFFFFFFFFFFFFFFFFFFF AND EQ ISZERO SWAP1 POP SWAP2 SWAP1 POP JUMP JUMPDEST PUSH1 0x60 PUSH1 0x40 MLOAD DUP1 PUSH1 0x20 ADD PUSH1 0x40 MSTORE DUP1 PUSH0 DUP2 MSTORE POP SWAP1 POP SWAP1 JUMP JUMPDEST PUSH1 0x60 PUSH2 0xC2C DUP3 PUSH2 0xBA3 JUMP JUMPDEST PUSH2 0xC6B JUMPI PUSH1 0x40 MLOAD PUSH32 0x8C379A000000000000000000000000000000000000000000000000000000000 DUP2 MSTORE PUSH1 0x4 ADD PUSH2 0xC62 SWAP1 PUSH2 0x22D7 JUMP JUMPDEST PUSH1 0x40 MLOAD DUP1 SWAP2 SUB SWAP1 REVERT JUMPDEST PUSH0 PUSH2 0xC74 PUSH2 0xC0B JUMP JUMPDEST SWAP1 POP PUSH0 DUP2 MLOAD GT PUSH2 0xC92 JUMPI PUSH1 0x40 MLOAD DUP1 PUSH1 0x20 ADD PUSH1 0x40 MSTORE DUP1 PUSH0 DUP2 MSTORE POP PUSH2 0xCBD JUMP JUMPDEST DUP1 PUSH2 0xC9C DUP5 PUSH2 0x107F JUMP JUMPDEST PUSH1 0x40 MLOAD PUSH1 0x20 ADD PUSH2 0xCAD SWAP3 SWAP2 SWAP1 PUSH2 0x21B6 JUMP JUMPDEST PUSH1 0x40 MLOAD PUSH1 0x20 DUP2 DUP4 SUB SUB DUP2 MSTORE SWAP1 PUSH1 0x40 MSTORE JUMPDEST SWAP2 POP POP SWAP2 SWAP1 POP JUMP JUMPDEST PUSH0 PUSH32 0x1FFC9A700000000000000000000000000000000000000000000000000000000 PUSH28 0xFFFFFFFFFFFFFFFFFFFFFFFFFFFFFFFFFFFFFFFFFFFFFFFFFFFFFFFF NOT AND DUP3 PUSH28 0xFFFFFFFFFFFFFFFFFFFFFFFFFFFFFFFFFFFFFFFFFFFFFFFFFFFFFFFF NOT AND EQ SWAP1 POP SWAP2 SWAP1 POP JUMP JUMPDEST PUSH0 PUSH20 0xFFFFFFFFFFFFFFFFFFFFFFFFFFFFFFFFFFFFFFFF AND DUP3 PUSH20 0xFFFFFFFFFFFFFFFFFFFFFFFFFFFFFFFFFFFFFFFF AND SUB PUSH2 0xD9C JUMPI PUSH1 0x40 MLOAD PUSH32 0x8C379A000000000000000000000000000000000000000000000000000000000 DUP2 MSTORE PUSH1 0x4 ADD PUSH2 0xD93 SWAP1 PUSH2 0x233F JUMP JUMPDEST PUSH1 0x40 MLOAD DUP1 SWAP2 SUB SWAP1 REVERT JUMPDEST PUSH2 0xDA5 DUP2 PUSH2 0xBA3 JUMP JUMPDEST ISZERO PUSH2 0xDE5 JUMPI PUSH1 0x40 MLOAD PUSH32 0x8C379A000000000000000000000000000000000000000000000000000000000 DUP2 MSTORE PUSH1 0x4 ADD PUSH2 0xDDC SWAP1 PUSH2 0x23A7 JUMP JUMPDEST PUSH1 0x40 MLOAD DUP1 SWAP2 SUB SWAP1 REVERT JUMPDEST PUSH2 0xDF0 PUSH0 DUP4 DUP4 PUSH2 0x11D8 JUMP JUMPDEST PUSH1 0x1 PUSH1 0x3 PUSH0 DUP5 PUSH20 0xFFFFFFFFFFFFFFFFFFFFFFFFFFFFFFFFFFFFFFFF AND PUSH20 0xFFFFFFFFFFFFFFFFFFFFFFFFFFFFFFFFFFFFFFFF AND DUP2 MSTORE PUSH1 0x20 ADD SWAP1 DUP2 MSTORE PUSH1 0x20 ADD PUSH0 KECCAK256 PUSH0 DUP3 DUP3 SLOAD PUSH2 0xE3D SWAP2 SWAP1 PUSH2 0x23C5 JUMP JUMPDEST SWAP3 POP POP DUP2 SWAP1 SSTORE POP DUP2 PUSH1 0x2 PUSH0 DUP4 DUP2 MSTORE PUSH1 0x20 ADD SWAP1 DUP2 MSTORE PUSH1 0x20 ADD PUSH0 KECCAK256 PUSH0 PUSH2 0x100 EXP DUP2 SLOAD DUP2 PUSH20 0xFFFFFFFFFFFFFFFFFFFFFFFFFFFFFFFFFFFFFFFF MUL NOT AND SWAP1 DUP4 PUSH20 0xFFFFFFFFFFFFFFFFFFFFFFFFFFFFFFFFFFFFFFFF AND MUL OR SWAP1 SSTORE POP DUP1 DUP3 PUSH20 0xFFFFFFFFFFFFFFFFFFFFFFFFFFFFFFFFFFFFFFFF AND PUSH0 PUSH20 0xFFFFFFFFFFFFFFFFFFFFFFFFFFFFFFFFFFFFFFFF AND PUSH32 0xDDF252AD1BE2C89B69C2B068FC378DAA952BA7F163C4A11628F55A4DF523B3EF PUSH1 0x40 MLOAD PUSH1 0x40 MLOAD DUP1 SWAP2 SUB SWAP1 LOG4 PUSH2 0xEF9 PUSH0 DUP4 DUP4 PUSH2 0x11E8 JUMP JUMPDEST POP POP JUMP JUMPDEST PUSH0 PUSH2 0xF1D DUP5 PUSH20 0xFFFFFFFFFFFFFFFFFFFFFFFFFFFFFFFFFFFFFFFF AND PUSH2 0x11ED JUMP JUMPDEST ISZERO PUSH2 0x1072 JUMPI DUP4 PUSH20 0xFFFFFFFFFFFFFFFFFFFFFFFFFFFFFFFFFFFFFFFF AND PUSH4 0x150B7A02 PUSH2 0xF46 PUSH2 0x7CD JUMP JUMPDEST DUP8 DUP7 DUP7 PUSH1 0x40 MLOAD DUP6 PUSH4 0xFFFFFFFF AND PUSH1 0xE0 SHL DUP2 MSTORE PUSH1 0x4 ADD PUSH2 0xF68 SWAP5 SWAP4 SWAP3 SWAP2 SWAP1 PUSH2 0x244A JUMP JUMPDEST PUSH1 0x20 PUSH1 0x40 MLOAD DUP1 DUP4 SUB DUP2 PUSH0 DUP8 GAS CALL SWAP3 POP POP POP DUP1 ISZERO PUSH2 0xFA3 JUMPI POP PUSH1 0x40 MLOAD RETURNDATASIZE PUSH1 0x1F NOT PUSH1 0x1F DUP3 ADD AND DUP3 ADD DUP1 PUSH1 0x40 MSTORE POP DUP2 ADD SWAP1 PUSH2 0xFA0 SWAP2 SWAP1 PUSH2 0x24A8 JUMP JUMPDEST PUSH1 0x1 JUMPDEST PUSH2 0x1022 JUMPI RETURNDATASIZE DUP1 PUSH0 DUP2 EQ PUSH2 0xFD1 JUMPI PUSH1 0x40 MLOAD SWAP2 POP PUSH1 0x1F NOT PUSH1 0x3F RETURNDATASIZE ADD AND DUP3 ADD PUSH1 0x40 MSTORE RETURNDATASIZE DUP3 MSTORE RETURNDATASIZE PUSH0 PUSH1 0x20 DUP5 ADD RETURNDATACOPY PUSH2 0xFD6 JUMP JUMPDEST PUSH1 0x60 SWAP2 POP JUMPDEST POP PUSH0 DUP2 MLOAD SUB PUSH2 0x101A JUMPI PUSH1 0x40 MLOAD PUSH32 0x8C379A000000000000000000000000000000000000000000000000000000000 DUP2 MSTORE PUSH1 0x4 ADD PUSH2 0x1011 SWAP1 PUSH2 0x2249 JUMP JUMPDEST PUSH1 0x40 MLOAD DUP1 SWAP2 SUB SWAP1 REVERT JUMPDEST DUP1 MLOAD DUP2 PUSH1 0x20 ADD REVERT JUMPDEST PUSH4 0x150B7A02 PUSH1 0xE0 SHL PUSH28 0xFFFFFFFFFFFFFFFFFFFFFFFFFFFFFFFFFFFFFFFFFFFFFFFFFFFFFFFF NOT AND DUP2 PUSH28 0xFFFFFFFFFFFFFFFFFFFFFFFFFFFFFFFFFFFFFFFFFFFFFFFFFFFFFFFF NOT AND EQ SWAP2 POP POP PUSH2 0x1077 JUMP JUMPDEST PUSH1 0x1 SWAP1 POP JUMPDEST SWAP5 SWAP4 POP POP POP POP JUMP JUMPDEST PUSH1 0x60 PUSH0 DUP3 SUB PUSH2 0x10C5 JUMPI PUSH1 0x40 MLOAD DUP1 PUSH1 0x40 ADD PUSH1 0x40 MSTORE DUP1 PUSH1 0x1 DUP2 MSTORE PUSH1 0x20 ADD PUSH32 0x3000000000000000000000000000000000000000000000000000000000000000 DUP2 MSTORE POP SWAP1 POP PUSH2 0x11D3 JUMP JUMPDEST PUSH0 DUP3 SWAP1 POP PUSH0 JUMPDEST PUSH0 DUP3 EQ PUSH2 0x10F4 JUMPI DUP1 DUP1 PUSH2 0x10DD SWAP1 PUSH2 0x1BD6 JUMP JUMPDEST SWAP2 POP POP PUSH1 0xA DUP3 PUSH2 0x10ED SWAP2 SWAP1 PUSH2 0x2500 JUMP JUMPDEST SWAP2 POP PUSH2 0x10CB JUMP JUMPDEST PUSH0 DUP2 PUSH8 0xFFFFFFFFFFFFFFFF DUP2 GT ISZERO PUSH2 0x110F JUMPI PUSH2 0x110E PUSH2 0x1E55 JUMP JUMPDEST JUMPDEST PUSH1 0x40 MLOAD SWAP1 DUP1 DUP3 MSTORE DUP1 PUSH1 0x1F ADD PUSH1 0x1F NOT AND PUSH1 0x20 ADD DUP3 ADD PUSH1 0x40 MSTORE DUP1 ISZERO PUSH2 0x1141 JUMPI DUP2 PUSH1 0x20 ADD PUSH1 0x1 DUP3 MUL DUP1 CALLDATASIZE DUP4 CALLDATACOPY DUP1 DUP3 ADD SWAP2 POP POP SWAP1 POP JUMPDEST POP SWAP1 POP JUMPDEST PUSH0 DUP6 EQ PUSH2 0x11CC JUMPI PUSH1 0x1 DUP3 PUSH2 0x1159 SWAP2 SWAP1 PUSH2 0x2530 JUMP JUMPDEST SWAP2 POP PUSH1 0xA DUP6 PUSH2 0x1168 SWAP2 SWAP1 PUSH2 0x2563 JUMP JUMPDEST PUSH1 0x30 PUSH2 0x1174 SWAP2 SWAP1 PUSH2 0x23C5 JUMP JUMPDEST PUSH1 0xF8 SHL DUP2 DUP4 DUP2 MLOAD DUP2 LT PUSH2 0x118A JUMPI PUSH2 0x1189 PUSH2 0x1B0E JUMP JUMPDEST JUMPDEST PUSH1 0x20 ADD ADD SWAP1 PUSH31 0xFFFFFFFFFFFFFFFFFFFFFFFFFFFFFFFFFFFFFFFFFFFFFFFFFFFFFFFFFFFFFF NOT AND SWAP1 DUP2 PUSH0 BYTE SWAP1 MSTORE8 POP PUSH1 0xA DUP6 PUSH2 0x11C5 SWAP2 SWAP1 PUSH2 0x2500 JUMP JUMPDEST SWAP5 POP PUSH2 0x1145 JUMP JUMPDEST DUP1 SWAP4 POP POP POP POP JUMPDEST SWAP2 SWAP1 POP JUMP JUMPDEST PUSH2 0x11E3 DUP4 DUP4 DUP4 PUSH2 0x120F JUMP JUMPDEST POP POP POP JUMP JUMPDEST POP POP POP JUMP JUMPDEST PUSH0 DUP1 DUP3 PUSH20 0xFFFFFFFFFFFFFFFFFFFFFFFFFFFFFFFFFFFFFFFF AND EXTCODESIZE GT SWAP1 POP SWAP2 SWAP1 POP JUMP JUMPDEST PUSH2 0x121A DUP4 DUP4 DUP4 PUSH2 0x131F JUMP JUMPDEST PUSH0 PUSH20 0xFFFFFFFFFFFFFFFFFFFFFFFFFFFFFFFFFFFFFFFF AND DUP4 PUSH20 0xFFFFFFFFFFFFFFFFFFFFFFFFFFFFFFFFFFFFFFFF AND SUB PUSH2 0x125B JUMPI PUSH2 0x1256 DUP2 PUSH2 0x1324 JUMP JUMPDEST PUSH2 0x129A JUMP JUMPDEST DUP2 PUSH20 0xFFFFFFFFFFFFFFFFFFFFFFFFFFFFFFFFFFFFFFFF AND DUP4 PUSH20 0xFFFFFFFFFFFFFFFFFFFFFFFFFFFFFFFFFFFFFFFF AND EQ PUSH2 0x1299 JUMPI PUSH2 0x1298 DUP4 DUP3 PUSH2 0x1368 JUMP JUMPDEST JUMPDEST JUMPDEST PUSH0 PUSH20 0xFFFFFFFFFFFFFFFFFFFFFFFFFFFFFFFFFFFFFFFF AND DUP3 PUSH20 0xFFFFFFFFFFFFFFFFFFFFFFFFFFFFFFFFFFFFFFFF AND SUB PUSH2 0x12DB JUMPI PUSH2 0x12D6 DUP2 PUSH2 0x14BE JUMP JUMPDEST PUSH2 0x131A JUMP JUMPDEST DUP3 PUSH20 0xFFFFFFFFFFFFFFFFFFFFFFFFFFFFFFFFFFFFFFFF AND DUP3 PUSH20 0xFFFFFFFFFFFFFFFFFFFFFFFFFFFFFFFFFFFFFFFF AND EQ PUSH2 0x1319 JUMPI PUSH2 0x1318 DUP3 DUP3 PUSH2 0x157E JUMP JUMPDEST JUMPDEST JUMPDEST POP POP POP JUMP JUMPDEST POP POP POP JUMP JUMPDEST PUSH1 0x8 DUP1 SLOAD SWAP1 POP PUSH1 0x9 PUSH0 DUP4 DUP2 MSTORE PUSH1 0x20 ADD SWAP1 DUP2 MSTORE PUSH1 0x20 ADD PUSH0 KECCAK256 DUP2 SWAP1 SSTORE POP PUSH1 0x8 DUP2 SWAP1 DUP1 PUSH1 0x1 DUP2 SLOAD ADD DUP1 DUP3 SSTORE DUP1 SWAP2 POP POP PUSH1 0x1 SWAP1 SUB SWAP1 PUSH0 MSTORE PUSH1 0x20 PUSH0 KECCAK256 ADD PUSH0 SWAP1 SWAP2 SWAP1 SWAP2 SWAP1 SWAP2 POP SSTORE POP JUMP JUMPDEST PUSH0 PUSH1 0x1 PUSH2 0x1374 DUP5 PUSH2 0x4E0 JUMP JUMPDEST PUSH2 0x137E SWAP2 SWAP1 PUSH2 0x2530 JUMP JUMPDEST SWAP1 POP PUSH0 PUSH1 0x7 PUSH0 DUP5 DUP2 MSTORE PUSH1 0x20 ADD SWAP1 DUP2 MSTORE PUSH1 0x20 ADD PUSH0 KECCAK256 SLOAD SWAP1 POP DUP2 DUP2 EQ PUSH2 0x1455 JUMPI PUSH0 PUSH1 0x6 PUSH0 DUP7 PUSH20 0xFFFFFFFFFFFFFFFFFFFFFFFFFFFFFFFFFFFFFFFF AND PUSH20 0xFFFFFFFFFFFFFFFFFFFFFFFFFFFFFFFFFFFFFFFF AND DUP2 MSTORE PUSH1 0x20 ADD SWAP1 DUP2 MSTORE PUSH1 0x20 ADD PUSH0 KECCAK256 PUSH0 DUP5 DUP2 MSTORE PUSH1 0x20 ADD SWAP1 DUP2 MSTORE PUSH1 0x20 ADD PUSH0 KECCAK256 SLOAD SWAP1 POP DUP1 PUSH1 0x6 PUSH0 DUP8 PUSH20 0xFFFFFFFFFFFFFFFFFFFFFFFFFFFFFFFFFFFFFFFF AND PUSH20 0xFFFFFFFFFFFFFFFFFFFFFFFFFFFFFFFFFFFFFFFF AND DUP2 MSTORE PUSH1 0x20 ADD SWAP1 DUP2 MSTORE PUSH1 0x20 ADD PUSH0 KECCAK256 PUSH0 DUP5 DUP2 MSTORE PUSH1 0x20 ADD SWAP1 DUP2 MSTORE PUSH1 0x20 ADD PUSH0 KECCAK256 DUP2 SWAP1 SSTORE POP DUP2 PUSH1 0x7 PUSH0 DUP4 DUP2 MSTORE PUSH1 0x20 ADD SWAP1 DUP2 MSTORE PUSH1 0x20 ADD PUSH0 KECCAK256 DUP2 SWAP1 SSTORE POP POP JUMPDEST PUSH1 0x7 PUSH0 DUP5 DUP2 MSTORE PUSH1 0x20 ADD SWAP1 DUP2 MSTORE PUSH1 0x20 ADD PUSH0 KECCAK256 PUSH0 SWAP1 SSTORE PUSH1 0x6 PUSH0 DUP6 PUSH20 0xFFFFFFFFFFFFFFFFFFFFFFFFFFFFFFFFFFFFFFFF AND PUSH20 0xFFFFFFFFFFFFFFFFFFFFFFFFFFFFFFFFFFFFFFFF AND DUP2 MSTORE PUSH1 0x20 ADD SWAP1 DUP2 MSTORE PUSH1 0x20 ADD PUSH0 KECCAK256 PUSH0 DUP4 DUP2 MSTORE PUSH1 0x20 ADD SWAP1 DUP2 MSTORE PUSH1 0x20 ADD PUSH0 KECCAK256 PUSH0 SWAP1 SSTORE POP POP POP POP JUMP JUMPDEST PUSH0 PUSH1 0x1 PUSH1 0x8 DUP1 SLOAD SWAP1 POP PUSH2 0x14D1 SWAP2 SWAP1 PUSH2 0x2530 JUMP JUMPDEST SWAP1 POP PUSH0 PUSH1 0x9 PUSH0 DUP5 DUP2 MSTORE PUSH1 0x20 ADD SWAP1 DUP2 MSTORE PUSH1 0x20 ADD PUSH0 KECCAK256 SLOAD SWAP1 POP PUSH0 PUSH1 0x8 DUP4 DUP2 SLOAD DUP2 LT PUSH2 0x14FD JUMPI PUSH2 0x14FC PUSH2 0x1B0E JUMP JUMPDEST JUMPDEST SWAP1 PUSH0 MSTORE PUSH1 0x20 PUSH0 KECCAK256 ADD SLOAD SWAP1 POP DUP1 PUSH1 0x8 DUP4 DUP2 SLOAD DUP2 LT PUSH2 0x151D JUMPI PUSH2 0x151C PUSH2 0x1B0E JUMP JUMPDEST JUMPDEST SWAP1 PUSH0 MSTORE PUSH1 0x20 PUSH0 KECCAK256 ADD DUP2 SWAP1 SSTORE POP DUP2 PUSH1 0x9 PUSH0 DUP4 DUP2 MSTORE PUSH1 0x20 ADD SWAP1 DUP2 MSTORE PUSH1 0x20 ADD PUSH0 KECCAK256 DUP2 SWAP1 SSTORE POP PUSH1 0x9 PUSH0 DUP6 DUP2 MSTORE PUSH1 0x20 ADD SWAP1 DUP2 MSTORE PUSH1 0x20 ADD PUSH0 KECCAK256 PUSH0 SWAP1 SSTORE PUSH1 0x8 DUP1 SLOAD DUP1 PUSH2 0x1565 JUMPI PUSH2 0x1564 PUSH2 0x2593 JUMP JUMPDEST JUMPDEST PUSH1 0x1 SWAP1 SUB DUP2 DUP2 SWAP1 PUSH0 MSTORE PUSH1 0x20 PUSH0 KECCAK256 ADD PUSH0 SWAP1 SSTORE SWAP1 SSTORE POP POP POP POP JUMP JUMPDEST PUSH0 PUSH2 0x1588 DUP4 PUSH2 0x4E0 JUMP JUMPDEST SWAP1 POP DUP2 PUSH1 0x6 PUSH0 DUP6 PUSH20 0xFFFFFFFFFFFFFFFFFFFFFFFFFFFFFFFFFFFFFFFF AND PUSH20 0xFFFFFFFFFFFFFFFFFFFFFFFFFFFFFFFFFFFFFFFF AND DUP2 MSTORE PUSH1 0x20 ADD SWAP1 DUP2 MSTORE PUSH1 0x20 ADD PUSH0 KECCAK256 PUSH0 DUP4 DUP2 MSTORE PUSH1 0x20 ADD SWAP1 DUP2 MSTORE PUSH1 0x20 ADD PUSH0 KECCAK256 DUP2 SWAP1 SSTORE POP DUP1 PUSH1 0x7 PUSH0 DUP5 DUP2 MSTORE PUSH1 0x20 ADD SWAP1 DUP2 MSTORE PUSH1 0x20 ADD PUSH0 KECCAK256 DUP2 SWAP1 SSTORE POP POP POP POP JUMP JUMPDEST PUSH0 DUP1 REVERT JUMPDEST PUSH0 DUP1 REVERT JUMPDEST PUSH0 PUSH32 0xFFFFFFFF00000000000000000000000000000000000000000000000000000000 DUP3 AND SWAP1 POP SWAP2 SWAP1 POP JUMP JUMPDEST PUSH2 0x1632 DUP2 PUSH2 0x15FE JUMP JUMPDEST DUP2 EQ PUSH2 0x163C JUMPI PUSH0 DUP1 REVERT JUMPDEST POP JUMP JUMPDEST PUSH0 DUP2 CALLDATALOAD SWAP1 POP PUSH2 0x164D DUP2 PUSH2 0x1629 JUMP JUMPDEST SWAP3 SWAP2 POP POP JUMP JUMPDEST PUSH0 PUSH1 0x20 DUP3 DUP5 SUB SLT ISZERO PUSH2 0x1668 JUMPI PUSH2 0x1667 PUSH2 0x15F6 JUMP JUMPDEST JUMPDEST PUSH0 PUSH2 0x1675 DUP5 DUP3 DUP6 ADD PUSH2 0x163F JUMP JUMPDEST SWAP2 POP POP SWAP3 SWAP2 POP POP JUMP JUMPDEST PUSH0 DUP2 ISZERO ISZERO SWAP1 POP SWAP2 SWAP1 POP JUMP JUMPDEST PUSH2 0x1692 DUP2 PUSH2 0x167E JUMP JUMPDEST DUP3 MSTORE POP POP JUMP JUMPDEST PUSH0 PUSH1 0x20 DUP3 ADD SWAP1 POP PUSH2 0x16AB PUSH0 DUP4 ADD DUP5 PUSH2 0x1689 JUMP JUMPDEST SWAP3 SWAP2 POP POP JUMP JUMPDEST PUSH0 DUP2 MLOAD SWAP1 POP SWAP2 SWAP1 POP JUMP JUMPDEST PUSH0 DUP3 DUP3 MSTORE PUSH1 0x20 DUP3 ADD SWAP1 POP SWAP3 SWAP2 POP POP JUMP JUMPDEST PUSH0 JUMPDEST DUP4 DUP2 LT ISZERO PUSH2 0x16E8 JUMPI DUP1 DUP3 ADD MLOAD DUP2 DUP5 ADD MSTORE PUSH1 0x20 DUP2 ADD SWAP1 POP PUSH2 0x16CD JUMP JUMPDEST PUSH0 DUP5 DUP5 ADD MSTORE POP POP POP POP JUMP JUMPDEST PUSH0 PUSH1 0x1F NOT PUSH1 0x1F DUP4 ADD AND SWAP1 POP SWAP2 SWAP1 POP JUMP JUMPDEST PUSH0 PUSH2 0x170D DUP3 PUSH2 0x16B1 JUMP JUMPDEST PUSH2 0x1717 DUP2 DUP6 PUSH2 0x16BB JUMP JUMPDEST SWAP4 POP PUSH2 0x1727 DUP2 DUP6 PUSH1 0x20 DUP7 ADD PUSH2 0x16CB JUMP JUMPDEST PUSH2 0x1730 DUP2 PUSH2 0x16F3 JUMP JUMPDEST DUP5 ADD SWAP2 POP POP SWAP3 SWAP2 POP POP JUMP JUMPDEST PUSH0 PUSH1 0x20 DUP3 ADD SWAP1 POP DUP2 DUP2 SUB PUSH0 DUP4 ADD MSTORE PUSH2 0x1753 DUP2 DUP5 PUSH2 0x1703 JUMP JUMPDEST SWAP1 POP SWAP3 SWAP2 POP POP JUMP JUMPDEST PUSH0 DUP2 SWAP1 POP SWAP2 SWAP1 POP JUMP JUMPDEST PUSH2 0x176D DUP2 PUSH2 0x175B JUMP JUMPDEST DUP3 MSTORE POP POP JUMP JUMPDEST PUSH0 PUSH1 0x20 DUP3 ADD SWAP1 POP PUSH2 0x1786 PUSH0 DUP4 ADD DUP5 PUSH2 0x1764 JUMP JUMPDEST SWAP3 SWAP2 POP POP JUMP JUMPDEST PUSH0 DUP1 REVERT JUMPDEST PUSH0 DUP1 REVERT JUMPDEST PUSH0 DUP1 REVERT JUMPDEST PUSH0 DUP1 DUP4 PUSH1 0x1F DUP5 ADD SLT PUSH2 0x17AD JUMPI PUSH2 0x17AC PUSH2 0x178C JUMP JUMPDEST JUMPDEST DUP3 CALLDATALOAD SWAP1 POP PUSH8 0xFFFFFFFFFFFFFFFF DUP2 GT ISZERO PUSH2 0x17CA JUMPI PUSH2 0x17C9 PUSH2 0x1790 JUMP JUMPDEST JUMPDEST PUSH1 0x20 DUP4 ADD SWAP2 POP DUP4 PUSH1 0x20 DUP3 MUL DUP4 ADD GT ISZERO PUSH2 0x17E6 JUMPI PUSH2 0x17E5 PUSH2 0x1794 JUMP JUMPDEST JUMPDEST SWAP3 POP SWAP3 SWAP1 POP JUMP JUMPDEST PUSH0 DUP1 DUP4 PUSH1 0x1F DUP5 ADD SLT PUSH2 0x1802 JUMPI PUSH2 0x1801 PUSH2 0x178C JUMP JUMPDEST JUMPDEST DUP3 CALLDATALOAD SWAP1 POP PUSH8 0xFFFFFFFFFFFFFFFF DUP2 GT ISZERO PUSH2 0x181F JUMPI PUSH2 0x181E PUSH2 0x1790 JUMP JUMPDEST JUMPDEST PUSH1 0x20 DUP4 ADD SWAP2 POP DUP4 PUSH1 0x20 DUP3 MUL DUP4 ADD GT ISZERO PUSH2 0x183B JUMPI PUSH2 0x183A PUSH2 0x1794 JUMP JUMPDEST JUMPDEST SWAP3 POP SWAP3 SWAP1 POP JUMP JUMPDEST PUSH0 DUP1 DUP4 PUSH1 0x1F DUP5 ADD SLT PUSH2 0x1857 JUMPI PUSH2 0x1856 PUSH2 0x178C JUMP JUMPDEST JUMPDEST DUP3 CALLDATALOAD SWAP1 POP PUSH8 0xFFFFFFFFFFFFFFFF DUP2 GT ISZERO PUSH2 0x1874 JUMPI PUSH2 0x1873 PUSH2 0x1790 JUMP JUMPDEST JUMPDEST PUSH1 0x20 DUP4 ADD SWAP2 POP DUP4 PUSH1 0x20 DUP3 MUL DUP4 ADD GT ISZERO PUSH2 0x1890 JUMPI PUSH2 0x188F PUSH2 0x1794 JUMP JUMPDEST JUMPDEST SWAP3 POP SWAP3 SWAP1 POP JUMP JUMPDEST PUSH0 DUP1 PUSH0 DUP1 PUSH0 DUP1 PUSH1 0x60 DUP8 DUP10 SUB SLT ISZERO PUSH2 0x18B1 JUMPI PUSH2 0x18B0 PUSH2 0x15F6 JUMP JUMPDEST JUMPDEST PUSH0 DUP8 ADD CALLDATALOAD PUSH8 0xFFFFFFFFFFFFFFFF DUP2 GT ISZERO PUSH2 0x18CE JUMPI PUSH2 0x18CD PUSH2 0x15FA JUMP JUMPDEST JUMPDEST PUSH2 0x18DA DUP10 DUP3 DUP11 ADD PUSH2 0x1798 JUMP JUMPDEST SWAP7 POP SWAP7 POP POP PUSH1 0x20 DUP8 ADD CALLDATALOAD PUSH8 0xFFFFFFFFFFFFFFFF DUP2 GT ISZERO PUSH2 0x18FD JUMPI PUSH2 0x18FC PUSH2 0x15FA JUMP JUMPDEST JUMPDEST PUSH2 0x1909 DUP10 DUP3 DUP11 ADD PUSH2 0x17ED JUMP JUMPDEST SWAP5 POP SWAP5 POP POP PUSH1 0x40 DUP8 ADD CALLDATALOAD PUSH8 0xFFFFFFFFFFFFFFFF DUP2 GT ISZERO PUSH2 0x192C JUMPI PUSH2 0x192B PUSH2 0x15FA JUMP JUMPDEST JUMPDEST PUSH2 0x1938 DUP10 DUP3 DUP11 ADD PUSH2 0x1842 JUMP JUMPDEST SWAP3 POP SWAP3 POP POP SWAP3 SWAP6 POP SWAP3 SWAP6 POP SWAP3 SWAP6 JUMP JUMPDEST PUSH2 0x1950 DUP2 PUSH2 0x175B JUMP JUMPDEST DUP2 EQ PUSH2 0x195A JUMPI PUSH0 DUP1 REVERT JUMPDEST POP JUMP JUMPDEST PUSH0 DUP2 CALLDATALOAD SWAP1 POP PUSH2 0x196B DUP2 PUSH2 0x1947 JUMP JUMPDEST SWAP3 SWAP2 POP POP JUMP JUMPDEST PUSH0 PUSH1 0x20 DUP3 DUP5 SUB SLT ISZERO PUSH2 0x1986 JUMPI PUSH2 0x1985 PUSH2 0x15F6 JUMP JUMPDEST JUMPDEST PUSH0 PUSH2 0x1993 DUP5 DUP3 DUP6 ADD PUSH2 0x195D JUMP JUMPDEST SWAP2 POP POP SWAP3 SWAP2 POP POP JUMP JUMPDEST PUSH0 PUSH20 0xFFFFFFFFFFFFFFFFFFFFFFFFFFFFFFFFFFFFFFFF DUP3 AND SWAP1 POP SWAP2 SWAP1 POP JUMP JUMPDEST PUSH0 PUSH2 0x19C5 DUP3 PUSH2 0x199C JUMP JUMPDEST SWAP1 POP SWAP2 SWAP1 POP JUMP JUMPDEST PUSH2 0x19D5 DUP2 PUSH2 0x19BB JUMP JUMPDEST DUP3 MSTORE POP POP JUMP JUMPDEST PUSH0 PUSH1 0x20 DUP3 ADD SWAP1 POP PUSH2 0x19EE PUSH0 DUP4 ADD DUP5 PUSH2 0x19CC JUMP JUMPDEST SWAP3 SWAP2 POP POP JUMP JUMPDEST PUSH2 0x19FD DUP2 PUSH2 0x19BB JUMP JUMPDEST DUP2 EQ PUSH2 0x1A07 JUMPI PUSH0 DUP1 REVERT JUMPDEST POP JUMP JUMPDEST PUSH0 DUP2 CALLDATALOAD SWAP1 POP PUSH2 0x1A18 DUP2 PUSH2 0x19F4 JUMP JUMPDEST SWAP3 SWAP2 POP POP JUMP JUMPDEST PUSH0 PUSH1 0x20 DUP3 DUP5 SUB SLT ISZERO PUSH2 0x1A33 JUMPI PUSH2 0x1A32 PUSH2 0x15F6 JUMP JUMPDEST JUMPDEST PUSH0 PUSH2 0x1A40 DUP5 DUP3 DUP6 ADD PUSH2 0x1A0A JUMP JUMPDEST SWAP2 POP POP SWAP3 SWAP2 POP POP JUMP JUMPDEST PUSH32 0x4E487B7100000000000000000000000000000000000000000000000000000000 PUSH0 MSTORE PUSH1 0x22 PUSH1 0x4 MSTORE PUSH1 0x24 PUSH0 REVERT JUMPDEST PUSH0 PUSH1 0x2 DUP3 DIV SWAP1 POP PUSH1 0x1 DUP3 AND DUP1 PUSH2 0x1A8D JUMPI PUSH1 0x7F DUP3 AND SWAP2 POP JUMPDEST PUSH1 0x20 DUP3 LT DUP2 SUB PUSH2 0x1AA0 JUMPI PUSH2 0x1A9F PUSH2 0x1A49 JUMP JUMPDEST JUMPDEST POP SWAP2 SWAP1 POP JUMP JUMPDEST PUSH32 0x4F776E61626C653A2063616C6C6572206973206E6F7420746865206F776E6572 PUSH0 DUP3 ADD MSTORE POP JUMP JUMPDEST PUSH0 PUSH2 0x1ADA PUSH1 0x20 DUP4 PUSH2 0x16BB JUMP JUMPDEST SWAP2 POP PUSH2 0x1AE5 DUP3 PUSH2 0x1AA6 JUMP JUMPDEST PUSH1 0x20 DUP3 ADD SWAP1 POP SWAP2 SWAP1 POP JUMP JUMPDEST PUSH0 PUSH1 0x20 DUP3 ADD SWAP1 POP DUP2 DUP2 SUB PUSH0 DUP4 ADD MSTORE PUSH2 0x1B07 DUP2 PUSH2 0x1ACE JUMP JUMPDEST SWAP1 POP SWAP2 SWAP1 POP JUMP JUMPDEST PUSH32 0x4E487B7100000000000000000000000000000000000000000000000000000000 PUSH0 MSTORE PUSH1 0x32 PUSH1 0x4 MSTORE PUSH1 0x24 PUSH0 REVERT JUMPDEST PUSH0 DUP1 REVERT JUMPDEST PUSH0 DUP1 REVERT JUMPDEST PUSH0 DUP1 REVERT JUMPDEST PUSH0 DUP1 DUP4 CALLDATALOAD PUSH1 0x1 PUSH1 0x20 SUB DUP5 CALLDATASIZE SUB SUB DUP2 SLT PUSH2 0x1B63 JUMPI PUSH2 0x1B62 PUSH2 0x1B3B JUMP JUMPDEST JUMPDEST DUP1 DUP5 ADD SWAP3 POP DUP3 CALLDATALOAD SWAP2 POP PUSH8 0xFFFFFFFFFFFFFFFF DUP3 GT ISZERO PUSH2 0x1B85 JUMPI PUSH2 0x1B84 PUSH2 0x1B3F JUMP JUMPDEST JUMPDEST PUSH1 0x20 DUP4 ADD SWAP3 POP PUSH1 0x1 DUP3 MUL CALLDATASIZE SUB DUP4 SGT ISZERO PUSH2 0x1BA1 JUMPI PUSH2 0x1BA0 PUSH2 0x1B43 JUMP JUMPDEST JUMPDEST POP SWAP3 POP SWAP3 SWAP1 POP JUMP JUMPDEST PUSH32 0x4E487B7100000000000000000000000000000000000000000000000000000000 PUSH0 MSTORE PUSH1 0x11 PUSH1 0x4 MSTORE PUSH1 0x24 PUSH0 REVERT JUMPDEST PUSH0 PUSH2 0x1BE0 DUP3 PUSH2 0x175B JUMP JUMPDEST SWAP2 POP PUSH32 0xFFFFFFFFFFFFFFFFFFFFFFFFFFFFFFFFFFFFFFFFFFFFFFFFFFFFFFFFFFFFFFFF DUP3 SUB PUSH2 0x1C12 JUMPI PUSH2 0x1C11 PUSH2 0x1BA9 JUMP JUMPDEST JUMPDEST PUSH1 0x1 DUP3 ADD SWAP1 POP SWAP2 SWAP1 POP JUMP JUMPDEST PUSH32 0x4552433732313A206F776E657220717565727920666F72206E6F6E6578697374 PUSH0 DUP3 ADD MSTORE PUSH32 0x656E7420746F6B656E0000000000000000000000000000000000000000000000 PUSH1 0x20 DUP3 ADD MSTORE POP JUMP JUMPDEST PUSH0 PUSH2 0x1C77 PUSH1 0x29 DUP4 PUSH2 0x16BB JUMP JUMPDEST SWAP2 POP PUSH2 0x1C82 DUP3 PUSH2 0x1C1D JUMP JUMPDEST PUSH1 0x40 DUP3 ADD SWAP1 POP SWAP2 SWAP1 POP JUMP JUMPDEST PUSH0 PUSH1 0x20 DUP3 ADD SWAP1 POP DUP2 DUP2 SUB PUSH0 DUP4 ADD MSTORE PUSH2 0x1CA4 DUP2 PUSH2 0x1C6B JUMP JUMPDEST SWAP1 POP SWAP2 SWAP1 POP JUMP JUMPDEST PUSH32 0x4552433732313A2062616C616E636520717565727920666F7220746865207A65 PUSH0 DUP3 ADD MSTORE PUSH32 0x726F206164647265737300000000000000000000000000000000000000000000 PUSH1 0x20 DUP3 ADD MSTORE POP JUMP JUMPDEST PUSH0 PUSH2 0x1D05 PUSH1 0x2A DUP4 PUSH2 0x16BB JUMP JUMPDEST SWAP2 POP PUSH2 0x1D10 DUP3 PUSH2 0x1CAB JUMP JUMPDEST PUSH1 0x40 DUP3 ADD SWAP1 POP SWAP2 SWAP1 POP JUMP JUMPDEST PUSH0 PUSH1 0x20 DUP3 ADD SWAP1 POP DUP2 DUP2 SUB PUSH0 DUP4 ADD MSTORE PUSH2 0x1D32 DUP2 PUSH2 0x1CF9 JUMP JUMPDEST SWAP1 POP SWAP2 SWAP1 POP JUMP JUMPDEST PUSH32 0x4F776E61626C653A206E6577206F776E657220697320746865207A65726F2061 PUSH0 DUP3 ADD MSTORE PUSH32 0x6464726573730000000000000000000000000000000000000000000000000000 PUSH1 0x20 DUP3 ADD MSTORE POP JUMP JUMPDEST PUSH0 PUSH2 0x1D93 PUSH1 0x26 DUP4 PUSH2 0x16BB JUMP JUMPDEST SWAP2 POP PUSH2 0x1D9E DUP3 PUSH2 0x1D39 JUMP JUMPDEST PUSH1 0x40 DUP3 ADD SWAP1 POP SWAP2 SWAP1 POP JUMP JUMPDEST PUSH0 PUSH1 0x20 DUP3 ADD SWAP1 POP DUP2 DUP2 SUB PUSH0 DUP4 ADD MSTORE PUSH2 0x1DC0 DUP2 PUSH2 0x1D87 JUMP JUMPDEST SWAP1 POP SWAP2 SWAP1 POP JUMP JUMPDEST PUSH32 0x45524337323155524953746F726167653A2055524920736574206F66206E6F6E PUSH0 DUP3 ADD MSTORE PUSH32 0x6578697374656E7420746F6B656E000000000000000000000000000000000000 PUSH1 0x20 DUP3 ADD MSTORE POP JUMP JUMPDEST PUSH0 PUSH2 0x1E21 PUSH1 0x2E DUP4 PUSH2 0x16BB JUMP JUMPDEST SWAP2 POP PUSH2 0x1E2C DUP3 PUSH2 0x1DC7 JUMP JUMPDEST PUSH1 0x40 DUP3 ADD SWAP1 POP SWAP2 SWAP1 POP JUMP JUMPDEST PUSH0 PUSH1 0x20 DUP3 ADD SWAP1 POP DUP2 DUP2 SUB PUSH0 DUP4 ADD MSTORE PUSH2 0x1E4E DUP2 PUSH2 0x1E15 JUMP JUMPDEST SWAP1 POP SWAP2 SWAP1 POP JUMP JUMPDEST PUSH32 0x4E487B7100000000000000000000000000000000000000000000000000000000 PUSH0 MSTORE PUSH1 0x41 PUSH1 0x4 MSTORE PUSH1 0x24 PUSH0 REVERT JUMPDEST PUSH0 DUP2 SWAP1 POP DUP2 PUSH0 MSTORE PUSH1 0x20 PUSH0 KECCAK256 SWAP1 POP SWAP2 SWAP1 POP JUMP JUMPDEST PUSH0 PUSH1 0x20 PUSH1 0x1F DUP4 ADD DIV SWAP1 POP SWAP2 SWAP1 POP JUMP JUMPDEST PUSH0 DUP3 DUP3 SHL SWAP1 POP SWAP3 SWAP2 POP POP JUMP JUMPDEST PUSH0 PUSH1 0x8 DUP4 MUL PUSH2 0x1EDE PUSH32 0xFFFFFFFFFFFFFFFFFFFFFFFFFFFFFFFFFFFFFFFFFFFFFFFFFFFFFFFFFFFFFFFF DUP3 PUSH2 0x1EA3 JUMP JUMPDEST PUSH2 0x1EE8 DUP7 DUP4 PUSH2 0x1EA3 JUMP JUMPDEST SWAP6 POP DUP1 NOT DUP5 AND SWAP4 POP DUP1 DUP7 AND DUP5 OR SWAP3 POP POP POP SWAP4 SWAP3 POP POP POP JUMP JUMPDEST PUSH0 DUP2 SWAP1 POP SWAP2 SWAP1 POP JUMP JUMPDEST PUSH0 PUSH2 0x1F23 PUSH2 0x1F1E PUSH2 0x1F19 DUP5 PUSH2 0x175B JUMP JUMPDEST PUSH2 0x1F00 JUMP JUMPDEST PUSH2 0x175B JUMP JUMPDEST SWAP1 POP SWAP2 SWAP1 POP JUMP JUMPDEST PUSH0 DUP2 SWAP1 POP SWAP2 SWAP1 POP JUMP JUMPDEST PUSH2 0x1F3C DUP4 PUSH2 0x1F09 JUMP JUMPDEST PUSH2 0x1F50 PUSH2 0x1F48 DUP3 PUSH2 0x1F2A JUMP JUMPDEST DUP5 DUP5 SLOAD PUSH2 0x1EAF JUMP JUMPDEST DUP3 SSTORE POP POP POP POP JUMP JUMPDEST PUSH0 SWAP1 JUMP JUMPDEST PUSH2 0x1F64 PUSH2 0x1F58 JUMP JUMPDEST PUSH2 0x1F6F DUP2 DUP5 DUP5 PUSH2 0x1F33 JUMP JUMPDEST POP POP POP JUMP JUMPDEST JUMPDEST DUP2 DUP2 LT ISZERO PUSH2 0x1F92 JUMPI PUSH2 0x1F87 PUSH0 DUP3 PUSH2 0x1F5C JUMP JUMPDEST PUSH1 0x1 DUP2 ADD SWAP1 POP PUSH2 0x1F75 JUMP JUMPDEST POP POP JUMP JUMPDEST PUSH1 0x1F DUP3 GT ISZERO PUSH2 0x1FD7 JUMPI PUSH2 0x1FA8 DUP2 PUSH2 0x1E82 JUMP JUMPDEST PUSH2 0x1FB1 DUP5 PUSH2 0x1E94 JUMP JUMPDEST DUP2 ADD PUSH1 0x20 DUP6 LT ISZERO PUSH2 0x1FC0 JUMPI DUP2 SWAP1 POP JUMPDEST PUSH2 0x1FD4 PUSH2 0x1FCC DUP6 PUSH2 0x1E94 JUMP JUMPDEST DUP4 ADD DUP3 PUSH2 0x1F74 JUMP JUMPDEST POP POP JUMPDEST POP POP POP JUMP JUMPDEST PUSH0 DUP3 DUP3 SHR SWAP1 POP SWAP3 SWAP2 POP POP JUMP JUMPDEST PUSH0 PUSH2 0x1FF7 PUSH0 NOT DUP5 PUSH1 0x8 MUL PUSH2 0x1FDC JUMP JUMPDEST NOT DUP1 DUP4 AND SWAP2 POP POP SWAP3 SWAP2 POP POP JUMP JUMPDEST PUSH0 PUSH2 0x200F DUP4 DUP4 PUSH2 0x1FE8 JUMP JUMPDEST SWAP2 POP DUP3 PUSH1 0x2 MUL DUP3 OR SWAP1 POP SWAP3 SWAP2 POP POP JUMP JUMPDEST PUSH2 0x2028 DUP3 PUSH2 0x16B1 JUMP JUMPDEST PUSH8 0xFFFFFFFFFFFFFFFF DUP2 GT ISZERO PUSH2 0x2041 JUMPI PUSH2 0x2040 PUSH2 0x1E55 JUMP JUMPDEST JUMPDEST PUSH2 0x204B DUP3 SLOAD PUSH2 0x1A76 JUMP JUMPDEST PUSH2 0x2056 DUP3 DUP3 DUP6 PUSH2 0x1F96 JUMP JUMPDEST PUSH0 PUSH1 0x20 SWAP1 POP PUSH1 0x1F DUP4 GT PUSH1 0x1 DUP2 EQ PUSH2 0x2087 JUMPI PUSH0 DUP5 ISZERO PUSH2 0x2075 JUMPI DUP3 DUP8 ADD MLOAD SWAP1 POP JUMPDEST PUSH2 0x207F DUP6 DUP3 PUSH2 0x2004 JUMP JUMPDEST DUP7 SSTORE POP PUSH2 0x20E6 JUMP JUMPDEST PUSH1 0x1F NOT DUP5 AND PUSH2 0x2095 DUP7 PUSH2 0x1E82 JUMP JUMPDEST PUSH0 JUMPDEST DUP3 DUP2 LT ISZERO PUSH2 0x20BC JUMPI DUP5 DUP10 ADD MLOAD DUP3 SSTORE PUSH1 0x1 DUP3 ADD SWAP2 POP PUSH1 0x20 DUP6 ADD SWAP5 POP PUSH1 0x20 DUP2 ADD SWAP1 POP PUSH2 0x2097 JUMP JUMPDEST DUP7 DUP4 LT ISZERO PUSH2 0x20D9 JUMPI DUP5 DUP10 ADD MLOAD PUSH2 0x20D5 PUSH1 0x1F DUP10 AND DUP3 PUSH2 0x1FE8 JUMP JUMPDEST DUP4 SSTORE POP JUMPDEST PUSH1 0x1 PUSH1 0x2 DUP9 MUL ADD DUP9 SSTORE POP POP POP JUMPDEST POP POP POP POP POP POP JUMP JUMPDEST PUSH32 0x45524337323155524953746F726167653A2055524920717565727920666F7220 PUSH0 DUP3 ADD MSTORE PUSH32 0x6E6F6E6578697374656E7420746F6B656E000000000000000000000000000000 PUSH1 0x20 DUP3 ADD MSTORE POP JUMP JUMPDEST PUSH0 PUSH2 0x2148 PUSH1 0x31 DUP4 PUSH2 0x16BB JUMP JUMPDEST SWAP2 POP PUSH2 0x2153 DUP3 PUSH2 0x20EE JUMP JUMPDEST PUSH1 0x40 DUP3 ADD SWAP1 POP SWAP2 SWAP1 POP JUMP JUMPDEST PUSH0 PUSH1 0x20 DUP3 ADD SWAP1 POP DUP2 DUP2 SUB PUSH0 DUP4 ADD MSTORE PUSH2 0x2175 DUP2 PUSH2 0x213C JUMP JUMPDEST SWAP1 POP SWAP2 SWAP1 POP JUMP JUMPDEST PUSH0 DUP2 SWAP1 POP SWAP3 SWAP2 POP POP JUMP JUMPDEST PUSH0 PUSH2 0x2190 DUP3 PUSH2 0x16B1 JUMP JUMPDEST PUSH2 0x219A DUP2 DUP6 PUSH2 0x217C JUMP JUMPDEST SWAP4 POP PUSH2 0x21AA DUP2 DUP6 PUSH1 0x20 DUP7 ADD PUSH2 0x16CB JUMP JUMPDEST DUP1 DUP5 ADD SWAP2 POP POP SWAP3 SWAP2 POP POP JUMP JUMPDEST PUSH0 PUSH2 0x21C1 DUP3 DUP6 PUSH2 0x2186 JUMP JUMPDEST SWAP2 POP PUSH2 0x21CD DUP3 DUP5 PUSH2 0x2186 JUMP JUMPDEST SWAP2 POP DUP2 SWAP1 POP SWAP4 SWAP3 POP POP POP JUMP JUMPDEST PUSH32 0x4552433732313A207472616E7366657220746F206E6F6E204552433732315265 PUSH0 DUP3 ADD MSTORE PUSH32 0x63656976657220696D706C656D656E7465720000000000000000000000000000 PUSH1 0x20 DUP3 ADD MSTORE POP JUMP JUMPDEST PUSH0 PUSH2 0x2233 PUSH1 0x32 DUP4 PUSH2 0x16BB JUMP JUMPDEST SWAP2 POP PUSH2 0x223E DUP3 PUSH2 0x21D9 JUMP JUMPDEST PUSH1 0x40 DUP3 ADD SWAP1 POP SWAP2 SWAP1 POP JUMP JUMPDEST PUSH0 PUSH1 0x20 DUP3 ADD SWAP1 POP DUP2 DUP2 SUB PUSH0 DUP4 ADD MSTORE PUSH2 0x2260 DUP2 PUSH2 0x2227 JUMP JUMPDEST SWAP1 POP SWAP2 SWAP1 POP JUMP JUMPDEST PUSH32 0x4552433732314D657461646174613A2055524920717565727920666F72206E6F PUSH0 DUP3 ADD MSTORE PUSH32 0x6E6578697374656E7420746F6B656E0000000000000000000000000000000000 PUSH1 0x20 DUP3 ADD MSTORE POP JUMP JUMPDEST PUSH0 PUSH2 0x22C1 PUSH1 0x2F DUP4 PUSH2 0x16BB JUMP JUMPDEST SWAP2 POP PUSH2 0x22CC DUP3 PUSH2 0x2267 JUMP JUMPDEST PUSH1 0x40 DUP3 ADD SWAP1 POP SWAP2 SWAP1 POP JUMP JUMPDEST PUSH0 PUSH1 0x20 DUP3 ADD SWAP1 POP DUP2 DUP2 SUB PUSH0 DUP4 ADD MSTORE PUSH2 0x22EE DUP2 PUSH2 0x22B5 JUMP JUMPDEST SWAP1 POP SWAP2 SWAP1 POP JUMP JUMPDEST PUSH32 0x4552433732313A206D696E7420746F20746865207A65726F2061646472657373 PUSH0 DUP3 ADD MSTORE POP JUMP JUMPDEST PUSH0 PUSH2 0x2329 PUSH1 0x20 DUP4 PUSH2 0x16BB JUMP JUMPDEST SWAP2 POP PUSH2 0x2334 DUP3 PUSH2 0x22F5 JUMP JUMPDEST PUSH1 0x20 DUP3 ADD SWAP1 POP SWAP2 SWAP1 POP JUMP JUMPDEST PUSH0 PUSH1 0x20 DUP3 ADD SWAP1 POP DUP2 DUP2 SUB PUSH0 DUP4 ADD MSTORE PUSH2 0x2356 DUP2 PUSH2 0x231D JUMP JUMPDEST SWAP1 POP SWAP2 SWAP1 POP JUMP JUMPDEST PUSH32 0x4552433732313A20746F6B656E20616C7265616479206D696E74656400000000 PUSH0 DUP3 ADD MSTORE POP JUMP JUMPDEST PUSH0 PUSH2 0x2391 PUSH1 0x1C DUP4 PUSH2 0x16BB JUMP JUMPDEST SWAP2 POP PUSH2 0x239C DUP3 PUSH2 0x235D JUMP JUMPDEST PUSH1 0x20 DUP3 ADD SWAP1 POP SWAP2 SWAP1 POP JUMP JUMPDEST PUSH0 PUSH1 0x20 DUP3 ADD SWAP1 POP DUP2 DUP2 SUB PUSH0 DUP4 ADD MSTORE PUSH2 0x23BE DUP2 PUSH2 0x2385 JUMP JUMPDEST SWAP1 POP SWAP2 SWAP1 POP JUMP JUMPDEST PUSH0 PUSH2 0x23CF DUP3 PUSH2 0x175B JUMP JUMPDEST SWAP2 POP PUSH2 0x23DA DUP4 PUSH2 0x175B JUMP JUMPDEST SWAP3 POP DUP3 DUP3 ADD SWAP1 POP DUP1 DUP3 GT ISZERO PUSH2 0x23F2 JUMPI PUSH2 0x23F1 PUSH2 0x1BA9 JUMP JUMPDEST JUMPDEST SWAP3 SWAP2 POP POP JUMP JUMPDEST PUSH0 DUP2 MLOAD SWAP1 POP SWAP2 SWAP1 POP JUMP JUMPDEST PUSH0 DUP3 DUP3 MSTORE PUSH1 0x20 DUP3 ADD SWAP1 POP SWAP3 SWAP2 POP POP JUMP JUMPDEST PUSH0 PUSH2 0x241C DUP3 PUSH2 0x23F8 JUMP JUMPDEST PUSH2 0x2426 DUP2 DUP6 PUSH2 0x2402 JUMP JUMPDEST SWAP4 POP PUSH2 0x2436 DUP2 DUP6 PUSH1 0x20 DUP7 ADD PUSH2 0x16CB JUMP JUMPDEST PUSH2 0x243F DUP2 PUSH2 0x16F3 JUMP JUMPDEST DUP5 ADD SWAP2 POP POP SWAP3 SWAP2 POP POP JUMP JUMPDEST PUSH0 PUSH1 0x80 DUP3 ADD SWAP1 POP PUSH2 0x245D PUSH0 DUP4 ADD DUP8 PUSH2 0x19CC JUMP JUMPDEST PUSH2 0x246A PUSH1 0x20 DUP4 ADD DUP7 PUSH2 0x19CC JUMP JUMPDEST PUSH2 0x2477 PUSH1 0x40 DUP4 ADD DUP6 PUSH2 0x1764 JUMP JUMPDEST DUP2 DUP2 SUB PUSH1 0x60 DUP4 ADD MSTORE PUSH2 0x2489 DUP2 DUP5 PUSH2 0x2412 JUMP JUMPDEST SWAP1 POP SWAP6 SWAP5 POP POP POP POP POP JUMP JUMPDEST PUSH0 DUP2 MLOAD SWAP1 POP PUSH2 0x24A2 DUP2 PUSH2 0x1629 JUMP JUMPDEST SWAP3 SWAP2 POP POP JUMP JUMPDEST PUSH0 PUSH1 0x20 DUP3 DUP5 SUB SLT ISZERO PUSH2 0x24BD JUMPI PUSH2 0x24BC PUSH2 0x15F6 JUMP JUMPDEST JUMPDEST PUSH0 PUSH2 0x24CA DUP5 DUP3 DUP6 ADD PUSH2 0x2494 JUMP JUMPDEST SWAP2 POP POP SWAP3 SWAP2 POP POP JUMP JUMPDEST PUSH32 0x4E487B7100000000000000000000000000000000000000000000000000000000 PUSH0 MSTORE PUSH1 0x12 PUSH1 0x4 MSTORE PUSH1 0x24 PUSH0 REVERT JUMPDEST PUSH0 PUSH2 0x250A DUP3 PUSH2 0x175B JUMP JUMPDEST SWAP2 POP PUSH2 0x2515 DUP4 PUSH2 0x175B JUMP JUMPDEST SWAP3 POP DUP3 PUSH2 0x2525 JUMPI PUSH2 0x2524 PUSH2 0x24D3 JUMP JUMPDEST JUMPDEST DUP3 DUP3 DIV SWAP1 POP SWAP3 SWAP2 POP POP JUMP JUMPDEST PUSH0 PUSH2 0x253A DUP3 PUSH2 0x175B JUMP JUMPDEST SWAP2 POP PUSH2 0x2545 DUP4 PUSH2 0x175B JUMP JUMPDEST SWAP3 POP DUP3 DUP3 SUB SWAP1 POP DUP2 DUP2 GT ISZERO PUSH2 0x255D JUMPI PUSH2 0x255C PUSH2 0x1BA9 JUMP JUMPDEST JUMPDEST SWAP3 SWAP2 POP POP JUMP JUMPDEST PUSH0 PUSH2 0x256D DUP3 PUSH2 0x175B JUMP JUMPDEST SWAP2 POP PUSH2 0x2578 DUP4 PUSH2 0x175B JUMP JUMPDEST SWAP3 POP DUP3 PUSH2 0x2588 JUMPI PUSH2 0x2587 PUSH2 0x24D3 JUMP JUMPDEST JUMPDEST DUP3 DUP3 MOD SWAP1 POP SWAP3 SWAP2 POP POP JUMP JUMPDEST PUSH32 0x4E487B7100000000000000000000000000000000000000000000000000000000 PUSH0 MSTORE PUSH1 0x31 PUSH1 0x4 MSTORE PUSH1 0x24 PUSH0 REVERT INVALID LOG2 PUSH5 0x6970667358 0x22 SLT KECCAK256 0xE PUSH14 0x98F4AE9FBA52814292362DA1701D 0xE0 CALLDATASIZE DUP16 SWAP10 CALL PUSH11 0xEC1383D385C0C683EDC364 PUSH20 0x6F6C634300081400330000000000000000000000 "
				},
				"gasEstimates": {
					"creation": {
						"codeDepositCost": "1943600",
						"executionCost": "infinite",
						"totalCost": "infinite"
					},
					"external": {
						"balanceOf(address)": "2864",
						"mint(address[],uint256[],string[])": "infinite",
						"name()": "infinite",
						"owner()": "2537",
						"ownerOf(uint256)": "3048",
						"supportsInterface(bytes4)": "894",
						"symbol()": "infinite",
						"tokenURI(uint256)": "infinite",
						"totalSupply()": "2485",
						"transferOwnership(address)": "30795"
					},
					"internal": {
						"_beforeTokenTransfer(address,address,uint256)": "infinite",
						"_burn(uint256)": "infinite"
					}
				},
				"methodIdentifiers": {
					"balanceOf(address)": "70a08231",
					"mint(address[],uint256[],string[])": "2fe37501",
					"name()": "06fdde03",
					"owner()": "8da5cb5b",
					"ownerOf(uint256)": "6352211e",
					"supportsInterface(bytes4)": "01ffc9a7",
					"symbol()": "95d89b41",
					"tokenURI(uint256)": "c87b56dd",
					"totalSupply()": "18160ddd",
					"transferOwnership(address)": "f2fde38b"
				}
			},
			"storageLayout": {
				"storage": [
					{
						"astId": 706,
						"contract": "contracts\\CommissionBasedNFT.sol:CommissionBasedNFT",
						"label": "_name",
						"offset": 0,
						"slot": "0",
						"type": "t_string_storage"
					},
					{
						"astId": 708,
						"contract": "contracts\\CommissionBasedNFT.sol:CommissionBasedNFT",
						"label": "_symbol",
						"offset": 0,
						"slot": "1",
						"type": "t_string_storage"
					},
					{
						"astId": 712,
						"contract": "contracts\\CommissionBasedNFT.sol:CommissionBasedNFT",
						"label": "_owners",
						"offset": 0,
						"slot": "2",
						"type": "t_mapping(t_uint256,t_address)"
					},
					{
						"astId": 716,
						"contract": "contracts\\CommissionBasedNFT.sol:CommissionBasedNFT",
						"label": "_balances",
						"offset": 0,
						"slot": "3",
						"type": "t_mapping(t_address,t_uint256)"
					},
					{
						"astId": 720,
						"contract": "contracts\\CommissionBasedNFT.sol:CommissionBasedNFT",
						"label": "_tokenApprovals",
						"offset": 0,
						"slot": "4",
						"type": "t_mapping(t_uint256,t_address)"
					},
					{
						"astId": 726,
						"contract": "contracts\\CommissionBasedNFT.sol:CommissionBasedNFT",
						"label": "_operatorApprovals",
						"offset": 0,
						"slot": "5",
						"type": "t_mapping(t_address,t_mapping(t_address,t_bool))"
					},
					{
						"astId": 1413,
						"contract": "contracts\\CommissionBasedNFT.sol:CommissionBasedNFT",
						"label": "_ownedTokens",
						"offset": 0,
						"slot": "6",
						"type": "t_mapping(t_address,t_mapping(t_uint256,t_uint256))"
					},
					{
						"astId": 1417,
						"contract": "contracts\\CommissionBasedNFT.sol:CommissionBasedNFT",
						"label": "_ownedTokensIndex",
						"offset": 0,
						"slot": "7",
						"type": "t_mapping(t_uint256,t_uint256)"
					},
					{
						"astId": 1420,
						"contract": "contracts\\CommissionBasedNFT.sol:CommissionBasedNFT",
						"label": "_allTokens",
						"offset": 0,
						"slot": "8",
						"type": "t_array(t_uint256)dyn_storage"
					},
					{
						"astId": 1424,
						"contract": "contracts\\CommissionBasedNFT.sol:CommissionBasedNFT",
						"label": "_allTokensIndex",
						"offset": 0,
						"slot": "9",
						"type": "t_mapping(t_uint256,t_uint256)"
					},
					{
						"astId": 1291,
						"contract": "contracts\\CommissionBasedNFT.sol:CommissionBasedNFT",
						"label": "_tokenURIs",
						"offset": 0,
						"slot": "10",
						"type": "t_mapping(t_uint256,t_string_storage)"
					},
					{
						"astId": 502,
						"contract": "contracts\\CommissionBasedNFT.sol:CommissionBasedNFT",
						"label": "_owner",
						"offset": 0,
						"slot": "11",
						"type": "t_address"
					}
				],
				"types": {
					"t_address": {
						"encoding": "inplace",
						"label": "address",
						"numberOfBytes": "20"
					},
					"t_array(t_uint256)dyn_storage": {
						"base": "t_uint256",
						"encoding": "dynamic_array",
						"label": "uint256[]",
						"numberOfBytes": "32"
					},
					"t_bool": {
						"encoding": "inplace",
						"label": "bool",
						"numberOfBytes": "1"
					},
					"t_mapping(t_address,t_bool)": {
						"encoding": "mapping",
						"key": "t_address",
						"label": "mapping(address => bool)",
						"numberOfBytes": "32",
						"value": "t_bool"
					},
					"t_mapping(t_address,t_mapping(t_address,t_bool))": {
						"encoding": "mapping",
						"key": "t_address",
						"label": "mapping(address => mapping(address => bool))",
						"numberOfBytes": "32",
						"value": "t_mapping(t_address,t_bool)"
					},
					"t_mapping(t_address,t_mapping(t_uint256,t_uint256))": {
						"encoding": "mapping",
						"key": "t_address",
						"label": "mapping(address => mapping(uint256 => uint256))",
						"numberOfBytes": "32",
						"value": "t_mapping(t_uint256,t_uint256)"
					},
					"t_mapping(t_address,t_uint256)": {
						"encoding": "mapping",
						"key": "t_address",
						"label": "mapping(address => uint256)",
						"numberOfBytes": "32",
						"value": "t_uint256"
					},
					"t_mapping(t_uint256,t_address)": {
						"encoding": "mapping",
						"key": "t_uint256",
						"label": "mapping(uint256 => address)",
						"numberOfBytes": "32",
						"value": "t_address"
					},
					"t_mapping(t_uint256,t_string_storage)": {
						"encoding": "mapping",
						"key": "t_uint256",
						"label": "mapping(uint256 => string)",
						"numberOfBytes": "32",
						"value": "t_string_storage"
					},
					"t_mapping(t_uint256,t_uint256)": {
						"encoding": "mapping",
						"key": "t_uint256",
						"label": "mapping(uint256 => uint256)",
						"numberOfBytes": "32",
						"value": "t_uint256"
					},
					"t_string_storage": {
						"encoding": "bytes",
						"label": "string",
						"numberOfBytes": "32"
					},
					"t_uint256": {
						"encoding": "inplace",
						"label": "uint256",
						"numberOfBytes": "32"
					}
				}
			},
			"userdoc": {
				"kind": "user",
				"methods": {},
				"version": 1
			}
		}
	}
}