{
  "_format": "hh-sol-artifact-1",
  "contractName": "ICO",
  "sourceName": "contracts/SeedRoundIco.sol",
  "abi": [
    {
      "inputs": [],
      "stateMutability": "nonpayable",
      "type": "constructor"
    },
    {
      "anonymous": false,
      "inputs": [
        {
          "indexed": true,
          "internalType": "address",
          "name": "from",
          "type": "address"
        },
        {
          "indexed": true,
          "internalType": "address",
          "name": "to",
          "type": "address"
        },
        {
          "indexed": false,
          "internalType": "uint256",
          "name": "ethValue",
          "type": "uint256"
        },
        {
          "indexed": false,
          "internalType": "uint256",
          "name": "tokensPurchased",
          "type": "uint256"
        }
      ],
      "name": "PurchasedWithEth",
      "type": "event"
    },
    {
      "anonymous": false,
      "inputs": [
        {
          "indexed": true,
          "internalType": "address",
          "name": "from",
          "type": "address"
        },
        {
          "indexed": true,
          "internalType": "address",
          "name": "to",
          "type": "address"
        },
        {
          "indexed": false,
          "internalType": "uint256",
          "name": "tokenValue",
          "type": "uint256"
        },
        {
          "indexed": false,
          "internalType": "uint256",
          "name": "tokensPurchased",
          "type": "uint256"
        }
      ],
      "name": "PurchasedWithToken",
      "type": "event"
    },
    {
      "anonymous": false,
      "inputs": [
        {
          "indexed": false,
          "internalType": "uint256",
          "name": "releaseable",
          "type": "uint256"
        },
        {
          "indexed": false,
          "internalType": "uint256",
          "name": "claimed",
          "type": "uint256"
        }
      ],
      "name": "TokenReleased",
      "type": "event"
    },
    {
      "anonymous": false,
      "inputs": [
        {
          "indexed": true,
          "internalType": "address",
          "name": "claimer",
          "type": "address"
        },
        {
          "indexed": false,
          "internalType": "uint256",
          "name": "releasableTokens",
          "type": "uint256"
        },
        {
          "indexed": false,
          "internalType": "uint256",
          "name": "purchaseIndex",
          "type": "uint256"
        }
      ],
      "name": "TokensClaimed",
      "type": "event"
    },
    {
      "inputs": [],
      "name": "admin",
      "outputs": [
        {
          "internalType": "address",
          "name": "",
          "type": "address"
        }
      ],
      "stateMutability": "view",
      "type": "function"
    },
    {
      "inputs": [],
      "name": "buyWithEth",
      "outputs": [],
      "stateMutability": "payable",
      "type": "function"
    },
    {
      "inputs": [
        {
          "internalType": "address",
          "name": "tokenAddress",
          "type": "address"
        },
        {
          "internalType": "uint256",
          "name": "_amount",
          "type": "uint256"
        }
      ],
      "name": "buyWithToken",
      "outputs": [],
      "stateMutability": "nonpayable",
      "type": "function"
    },
    {
      "inputs": [],
      "name": "claimReleasableTokens",
      "outputs": [],
      "stateMutability": "nonpayable",
      "type": "function"
    },
    {
      "inputs": [],
      "name": "cliffPeriod",
      "outputs": [
        {
          "internalType": "uint256",
          "name": "",
          "type": "uint256"
        }
      ],
      "stateMutability": "view",
      "type": "function"
    },
    {
      "inputs": [
        {
          "internalType": "uint256",
          "name": "daiAmount",
          "type": "uint256"
        }
      ],
      "name": "convertDaiToEth",
      "outputs": [
        {
          "internalType": "uint256",
          "name": "",
          "type": "uint256"
        }
      ],
      "stateMutability": "view",
      "type": "function"
    },
    {
      "inputs": [
        {
          "internalType": "uint256",
          "name": "ethAmount",
          "type": "uint256"
        }
      ],
      "name": "convertEthToUsd",
      "outputs": [
        {
          "internalType": "uint256",
          "name": "",
          "type": "uint256"
        }
      ],
      "stateMutability": "view",
      "type": "function"
    },
    {
      "inputs": [],
      "name": "dai",
      "outputs": [
        {
          "internalType": "contract IERC20",
          "name": "",
          "type": "address"
        }
      ],
      "stateMutability": "view",
      "type": "function"
    },
    {
      "inputs": [],
      "name": "daiPriceInEth",
      "outputs": [
        {
          "internalType": "uint256",
          "name": "",
          "type": "uint256"
        }
      ],
      "stateMutability": "view",
      "type": "function"
    },
    {
      "inputs": [
        {
          "internalType": "uint256",
          "name": "",
          "type": "uint256"
        }
      ],
      "name": "daiPricePerPhase",
      "outputs": [
        {
          "internalType": "uint256",
          "name": "",
          "type": "uint256"
        }
      ],
      "stateMutability": "view",
      "type": "function"
    },
    {
      "inputs": [],
      "name": "ethPriceInUSD",
      "outputs": [
        {
          "internalType": "uint256",
          "name": "",
          "type": "uint256"
        }
      ],
      "stateMutability": "view",
      "type": "function"
    },
    {
      "inputs": [],
      "name": "getGrlPrice",
      "outputs": [
        {
          "internalType": "uint256",
          "name": "grlDaiPrice",
          "type": "uint256"
        },
        {
          "internalType": "uint256",
          "name": "grlEthPrice",
          "type": "uint256"
        },
        {
          "internalType": "uint256",
          "name": "grlUsdtPrice",
          "type": "uint256"
        }
      ],
      "stateMutability": "view",
      "type": "function"
    },
    {
      "inputs": [
        {
          "internalType": "address",
          "name": "beneficiary",
          "type": "address"
        }
      ],
      "name": "getReleaseableAmount",
      "outputs": [
        {
          "internalType": "uint256",
          "name": "totalReleasable",
          "type": "uint256"
        },
        {
          "internalType": "uint256",
          "name": "totalRemaining",
          "type": "uint256"
        }
      ],
      "stateMutability": "view",
      "type": "function"
    },
    {
      "inputs": [
        {
          "internalType": "address",
          "name": "_beneficiary",
          "type": "address"
        }
      ],
      "name": "getVestingUserCount",
      "outputs": [
        {
          "internalType": "uint256",
          "name": "",
          "type": "uint256"
        }
      ],
      "stateMutability": "view",
      "type": "function"
    },
    {
      "inputs": [],
      "name": "grl",
      "outputs": [
        {
          "internalType": "contract IERC20",
          "name": "",
          "type": "address"
        }
      ],
      "stateMutability": "view",
      "type": "function"
    },
    {
      "inputs": [
        {
          "internalType": "uint256",
          "name": "_amountOfDAI",
          "type": "uint256"
        }
      ],
      "name": "grlOfDai",
      "outputs": [
        {
          "internalType": "uint256",
          "name": "",
          "type": "uint256"
        }
      ],
      "stateMutability": "view",
      "type": "function"
    },
    {
      "inputs": [
        {
          "internalType": "uint256",
          "name": "_amountOfEth",
          "type": "uint256"
        }
      ],
      "name": "grlOfEth",
      "outputs": [
        {
          "internalType": "uint256",
          "name": "",
          "type": "uint256"
        }
      ],
      "stateMutability": "view",
      "type": "function"
    },
    {
      "inputs": [],
      "name": "immediatePercentageReleased",
      "outputs": [
        {
          "internalType": "uint256",
          "name": "",
          "type": "uint256"
        }
      ],
      "stateMutability": "view",
      "type": "function"
    },
    {
      "inputs": [],
      "name": "isGCOStarted",
      "outputs": [
        {
          "internalType": "bool",
          "name": "",
          "type": "bool"
        }
      ],
      "stateMutability": "view",
      "type": "function"
    },
    {
      "inputs": [],
      "name": "phaseDuration",
      "outputs": [
        {
          "internalType": "uint256",
          "name": "",
          "type": "uint256"
        }
      ],
      "stateMutability": "view",
      "type": "function"
    },
    {
      "inputs": [
        {
          "internalType": "uint256",
          "name": "_newCliffeDuration",
          "type": "uint256"
        }
      ],
      "name": "setCliffeDuration",
      "outputs": [],
      "stateMutability": "nonpayable",
      "type": "function"
    },
    {
      "inputs": [
        {
          "internalType": "uint256",
          "name": "_newPercentage",
          "type": "uint256"
        }
      ],
      "name": "setPercentageReleased",
      "outputs": [],
      "stateMutability": "nonpayable",
      "type": "function"
    },
    {
      "inputs": [
        {
          "internalType": "uint256",
          "name": "_durationPerPhase",
          "type": "uint256"
        }
      ],
      "name": "setPhaseDuration",
      "outputs": [],
      "stateMutability": "nonpayable",
      "type": "function"
    },
    {
      "inputs": [
        {
          "internalType": "uint256",
          "name": "_index",
          "type": "uint256"
        },
        {
          "internalType": "uint256",
          "name": "_price",
          "type": "uint256"
        }
      ],
      "name": "setPrice",
      "outputs": [],
      "stateMutability": "nonpayable",
      "type": "function"
    },
    {
      "inputs": [
        {
          "internalType": "uint256",
          "name": "_index",
          "type": "uint256"
        },
        {
          "internalType": "uint256",
          "name": "_price",
          "type": "uint256"
        }
      ],
      "name": "setUsdtPrice",
      "outputs": [],
      "stateMutability": "nonpayable",
      "type": "function"
    },
    {
      "inputs": [
        {
          "internalType": "uint256",
          "name": "_newDuration",
          "type": "uint256"
        }
      ],
      "name": "setVestingDuration",
      "outputs": [],
      "stateMutability": "nonpayable",
      "type": "function"
    },
    {
      "inputs": [],
      "name": "slicePeriod",
      "outputs": [
        {
          "internalType": "uint256",
          "name": "",
          "type": "uint256"
        }
      ],
      "stateMutability": "view",
      "type": "function"
    },
    {
      "inputs": [],
      "name": "startGCO",
      "outputs": [],
      "stateMutability": "nonpayable",
      "type": "function"
    },
    {
      "inputs": [],
      "name": "tokensPerPhase",
      "outputs": [
        {
          "internalType": "uint256",
          "name": "",
          "type": "uint256"
        }
      ],
      "stateMutability": "view",
      "type": "function"
    },
    {
      "inputs": [],
      "name": "tokensSold",
      "outputs": [
        {
          "internalType": "uint256",
          "name": "",
          "type": "uint256"
        }
      ],
      "stateMutability": "view",
      "type": "function"
    },
    {
      "inputs": [],
      "name": "totalTokens",
      "outputs": [
        {
          "internalType": "uint256",
          "name": "",
          "type": "uint256"
        }
      ],
      "stateMutability": "view",
      "type": "function"
    },
    {
      "inputs": [],
      "name": "usdc",
      "outputs": [
        {
          "internalType": "contract IERC20",
          "name": "",
          "type": "address"
        }
      ],
      "stateMutability": "view",
      "type": "function"
    },
    {
      "inputs": [],
      "name": "usdt",
      "outputs": [
        {
          "internalType": "contract IERC20",
          "name": "",
          "type": "address"
        }
      ],
      "stateMutability": "view",
      "type": "function"
    },
    {
      "inputs": [
        {
          "internalType": "uint256",
          "name": "",
          "type": "uint256"
        }
      ],
      "name": "usdtPricePerPhase",
      "outputs": [
        {
          "internalType": "uint256",
          "name": "",
          "type": "uint256"
        }
      ],
      "stateMutability": "view",
      "type": "function"
    },
    {
      "inputs": [],
      "name": "vestDuration",
      "outputs": [
        {
          "internalType": "uint256",
          "name": "",
          "type": "uint256"
        }
      ],
      "stateMutability": "view",
      "type": "function"
    },
    {
      "inputs": [
        {
          "internalType": "address",
          "name": "",
          "type": "address"
        },
        {
          "internalType": "uint256",
          "name": "",
          "type": "uint256"
        }
      ],
      "name": "vestedUserDetail",
      "outputs": [
        {
          "internalType": "address",
          "name": "beneficiary",
          "type": "address"
        },
        {
          "internalType": "uint256",
          "name": "cliff",
          "type": "uint256"
        },
        {
          "internalType": "uint256",
          "name": "start",
          "type": "uint256"
        },
        {
          "internalType": "uint256",
          "name": "duration",
          "type": "uint256"
        },
        {
          "internalType": "uint256",
          "name": "slicePeriodSeconds",
          "type": "uint256"
        },
        {
          "internalType": "uint256",
          "name": "amountTotal",
          "type": "uint256"
        },
        {
          "internalType": "uint256",
          "name": "released",
          "type": "uint256"
        }
      ],
      "stateMutability": "view",
      "type": "function"
    },
    {
      "inputs": [],
      "name": "withdrawEth",
      "outputs": [],
      "stateMutability": "nonpayable",
      "type": "function"
    },
    {
      "inputs": [],
      "name": "withdrawGrl",
      "outputs": [],
      "stateMutability": "nonpayable",
      "type": "function"
    }
  ],
  "bytecode": "0x6101006040526000805474a067237f8016d5e3770cf08b20e343ab9ee813d500610100600160a81b0319909116179055600180546001600160a01b0319908116736b175474e89094c44da98b954eedeac495271d0f1790915560028054821673dac17f958d2ee523a2206206994597c13d831ec717905560038054821673a0b86991c6218b36c1d19d4a2e9eb0ce3606eb48179055600480548216735f4ec3df9cbd43714fe2740f5e3616155c5b84191790556005805490911673773616e4d11a78f511299002da57a0a94577f1f417905567011c37937e08000060805266470de4df82000060e05262f0c29a600a556228206f600b819055600c556019600d553480156200010d57600080fd5b5060408051600480825260a0820190925290602082016080803683375050815162000140926008925060200190620002ef565b50662c91dd9e020000600860008154811062000160576200016062000356565b9060005260206000200181905550663106da2dcf000060086001815481106200018d576200018d62000356565b90600052602060002001819055506635edf00b1c42006008600281548110620001ba57620001ba62000356565b9060005260206000200181905550663b5288122e90006008600381548110620001e757620001e762000356565b60009182526020909120015560408051600480825260a08201909252908160200160208202803683375050815162000227926009925060200190620002ef565b506130fc600960008154811062000242576200024262000356565b90600052602060002001819055506135de60096001815481106200026a576200026a62000356565b9060005260206000200181905550613b42600960028154811062000292576200029262000356565b90600052602060002001819055506141326009600381548110620002ba57620002ba62000356565b6000918252602090912001553360a05262054600600f557348fd2f7cac483a923f3f164997b2b6435af5020560c0526200036c565b8280548282559060005260206000209081019282156200032d579160200282015b828111156200032d57825182559160200191906001019062000310565b506200033b9291506200033f565b5090565b5b808211156200033b576000815560010162000340565b634e487b7160e01b600052603260045260246000fd5b60805160a05160c05160e05161238562000408600039600081816106fe01526119da01526000818161117801526114fe0152600081816107d1015281816107fe01528181610958015281816109eb01528181610dec01528181611444015281816115aa0152818161168f015281816117e801528181611cb20152611e1101526000818161053901528181610bbc0152610f9801526123856000f3fe6080604052600436106102855760003560e01c806394761e2a11610153578063bf8eb3d4116100cb578063d083e2411161007f578063f4b9fa7511610064578063f4b9fa751461077f578063f7d975771461079f578063f851a440146107bf57600080fd5b8063d083e24114610735578063d517562d1461074a57600080fd5b8063ca489ca5116100b0578063ca489ca5146106cc578063ced5e2e7146106ec578063cf8a8cd01461072057600080fd5b8063bf8eb3d41461067c578063c086381e146106ac57600080fd5b8063ac5553ce11610122578063b71b14e811610107578063b71b14e814610631578063bc1862ca14610646578063bcb1798b1461066657600080fd5b8063ac5553ce146105fb578063aee1e3a21461061157600080fd5b806394761e2a14610590578063a0ef91df146105a6578063a2209a14146105bb578063a7fa93e1146105db57600080fd5b8063518ab2a8116102015780636e33a831116101b55780637e1c0c091161019a5780637e1c0c091461052757806381c639e91461055b578063891a8b851461057b57600080fd5b80636e33a831146104e7578063780f9ec11461050757600080fd5b80635edfc4d3116101e65780635edfc4d3146103f15780636af9caac1461049d5780636df8b8e4146104c757600080fd5b8063518ab2a8146103c55780635afd6eb8146103db57600080fd5b80632a04d7c1116102585780632f6619461161023d5780632f661946146103595780633e413bee1461036f5780634bb127c31461038f57600080fd5b80632a04d7c11461030b5780632f48ab7d1461033957600080fd5b80630b9b199d1461028a5780630e281f66146102a15780630ffbdcaa146102e357806311b5444f14610303575b600080fd5b34801561029657600080fd5b5061029f6107f3565b005b3480156102ad57600080fd5b506000546102c69061010090046001600160a01b031681565b6040516001600160a01b0390911681526020015b60405180910390f35b3480156102ef57600080fd5b5061029f6102fe366004612156565b6109e0565b61029f610ab4565b34801561031757600080fd5b5061032b610326366004612156565b610dc0565b6040519081526020016102da565b34801561034557600080fd5b506002546102c6906001600160a01b031681565b34801561036557600080fd5b5061032b600b5481565b34801561037b57600080fd5b506003546102c6906001600160a01b031681565b34801561039b57600080fd5b5061032b6103aa36600461218b565b6001600160a01b031660009081526011602052604090205490565b3480156103d157600080fd5b5061032b60065481565b3480156103e757600080fd5b5061032b600c5481565b3480156103fd57600080fd5b5061045e61040c3660046121ad565b601060209081526000928352604080842090915290825290208054600182015460028301546003840154600485015460058601546006909601546001600160a01b039095169593949293919290919087565b604080516001600160a01b0390981688526020880196909652948601939093526060850191909152608084015260a083015260c082015260e0016102da565b3480156104a957600080fd5b506007546104b79060ff1681565b60405190151581526020016102da565b3480156104d357600080fd5b5061029f6104e2366004612156565b610de1565b3480156104f357600080fd5b5061029f6105023660046121ad565b610ea7565b34801561051357600080fd5b5061032b610522366004612156565b611360565b34801561053357600080fd5b5061032b7f000000000000000000000000000000000000000000000000000000000000000081565b34801561056757600080fd5b5061032b610576366004612156565b611393565b34801561058757600080fd5b5061032b6113b5565b34801561059c57600080fd5b5061032b600a5481565b3480156105b257600080fd5b5061029f611439565b3480156105c757600080fd5b5061032b6105d6366004612156565b61157d565b3480156105e757600080fd5b5061029f6105f63660046121d7565b61159f565b34801561060757600080fd5b5061032b600f5481565b34801561061d57600080fd5b5061029f61062c366004612156565b611684565b34801561063d57600080fd5b5061032b611758565b34801561065257600080fd5b5061029f610661366004612156565b6117dd565b34801561067257600080fd5b5061032b600d5481565b34801561068857600080fd5b506106916118b1565b604080519384526020840192909252908201526060016102da565b3480156106b857600080fd5b5061032b6106c7366004612156565b611a88565b3480156106d857600080fd5b5061032b6106e7366004612156565b611a93565b3480156106f857600080fd5b5061032b7f000000000000000000000000000000000000000000000000000000000000000081565b34801561072c57600080fd5b5061029f611aa3565b34801561074157600080fd5b5061029f611ca7565b34801561075657600080fd5b5061076a61076536600461218b565b611d2b565b604080519283526020830191909152016102da565b34801561078b57600080fd5b506001546102c6906001600160a01b031681565b3480156107ab57600080fd5b5061029f6107ba3660046121d7565b611e06565b3480156107cb57600080fd5b506102c67f000000000000000000000000000000000000000000000000000000000000000081565b336001600160a01b037f000000000000000000000000000000000000000000000000000000000000000016146108695760405162461bcd60e51b8152602060048201526016602482015275596f75277265206e6f7420617574686f72697a65642160501b60448201526064015b60405180910390fd5b600080546040516370a0823160e01b81523060048201526101009091046001600160a01b0316906370a0823190602401602060405180830381865afa1580156108b6573d6000803e3d6000fd5b505050506040513d601f19601f820116820180604052508101906108da91906121f9565b90506000600654826108ec9190612228565b90506000811161093e5760405162461bcd60e51b815260206004820152601360248201527f6e6f2067726c20696e20636f6e747261637421000000000000000000000000006044820152606401610860565b60005460405163a9059cbb60e01b81526001600160a01b037f000000000000000000000000000000000000000000000000000000000000000081166004830152602482018490526101009092049091169063a9059cbb906044016020604051808303816000875af11580156109b7573d6000803e3d6000fd5b505050506040513d601f19601f820116820180604052508101906109db9190612241565b505050565b336001600160a01b037f00000000000000000000000000000000000000000000000000000000000000001614610a515760405162461bcd60e51b8152602060048201526016602482015275596f75277265206e6f7420617574686f72697a65642160501b6044820152606401610860565b60008111610aa15760405162461bcd60e51b815260206004820152601560248201527f4475726174696f6e2077696c6c206265203e20302100000000000000000000006044820152606401610860565b610aae8162015180612263565b600a5550565b60005460ff1615610af85760405162461bcd60e51b815260206004820152600e60248201526d4e6f2072652d656e7472616e637960901b6044820152606401610860565b6000805460ff1916600190811790915560075460ff16151514610b5d5760405162461bcd60e51b815260206004820152601460248201527f47434f206e6f74207374617274656420796574210000000000000000000000006044820152606401610860565b60003411610bad5760405162461bcd60e51b815260206004820152601260248201527f496e61766c69642065746820616d6f756e7400000000000000000000000000006044820152606401610860565b6000610bb834611360565b90507f000000000000000000000000000000000000000000000000000000000000000081600654610be9919061227a565b1115610c375760405162461bcd60e51b815260206004820152601660248201527f4e6f7420656e6f75676820746f6b656e73206c656674000000000000000000006044820152606401610860565b600f54610c45906004612263565b600e54610c52919061227a565b421115610ca15760405162461bcd60e51b815260206004820152601660248201527f4e6f206d6f726520636f696e206f66666572696e6721000000000000000000006044820152606401610860565b60006064600d5483610cb39190612263565b610cbd919061228d565b90506000610ccb8284612228565b90508260066000828254610cdf919061227a565b92505081905550610cfa3342600b54600a54600c5486611edb565b60005460405163a9059cbb60e01b8152336004820152602481018490526101009091046001600160a01b03169063a9059cbb906044016020604051808303816000875af1158015610d4f573d6000803e3d6000fd5b505050506040513d601f19601f82011682018060405250810190610d739190612241565b506040805134815260208101859052339130917ff950c03c97e9c8b25be288c9d83849749225d3edd1d9330dcbb6305704734dc5910160405180910390a350506000805460ff1916905550565b60088181548110610dd057600080fd5b600091825260209091200154905081565b336001600160a01b037f00000000000000000000000000000000000000000000000000000000000000001614610e525760405162461bcd60e51b8152602060048201526016602482015275596f75277265206e6f7420617574686f72697a65642160501b6044820152606401610860565b60008111610ea25760405162461bcd60e51b815260206004820152601760248201527f50657263656e617467652077696c6c206265203e2030210000000000000000006044820152606401610860565b600d55565b60005460ff1615610eeb5760405162461bcd60e51b815260206004820152600e60248201526d4e6f2072652d656e7472616e637960901b6044820152606401610860565b6000805460ff1916600190811790915560075460ff16151514610f505760405162461bcd60e51b815260206004820152601460248201527f47434f206e6f74207374617274656420796574210000000000000000000000006044820152606401610860565b60008111610f5d57600080fd5b60015482906000906001600160a01b03808416911614610f8857610f808361203e565b905080610f95565b610f9183611393565b9050805b507f000000000000000000000000000000000000000000000000000000000000000081600654610fc5919061227a565b11156110135760405162461bcd60e51b815260206004820152601660248201527f4e6f7420656e6f75676820746f6b656e73206c656674000000000000000000006044820152606401610860565b600f54611021906004612263565b600e5461102e919061227a565b42111561107d5760405162461bcd60e51b815260206004820152601660248201527f4e6f206d6f726520636f696e206f66666572696e6721000000000000000000006044820152606401610860565b6040516370a0823160e01b815233600482015283906001600160a01b038416906370a0823190602401602060405180830381865afa1580156110c3573d6000803e3d6000fd5b505050506040513d601f19601f820116820180604052508101906110e791906121f9565b101561115b5760405162461bcd60e51b815260206004820152602760248201527f596f75206d757374206861766520656e6f75676820546f6b656e7320746f206260448201527f75792047524c21000000000000000000000000000000000000000000000000006064820152608401610860565b6040516323b872dd60e01b81523360048201526001600160a01b037f000000000000000000000000000000000000000000000000000000000000000081166024830152604482018590528316906323b872dd906064016020604051808303816000875af11580156111d0573d6000803e3d6000fd5b505050506040513d601f19601f820116820180604052508101906111f49190612241565b6112405760405162461bcd60e51b815260206004820152601c60248201527f596f75206d757374204465706f73697420736f6d6520746f6b656e73000000006044820152606401610860565b60006064600d54836112529190612263565b61125c919061228d565b9050600061126a8284612228565b90506112803342600b54600a54600c5486611edb565b8260066000828254611292919061227a565b909155505060005460405163a9059cbb60e01b8152336004820152602481018490526101009091046001600160a01b03169063a9059cbb906044016020604051808303816000875af11580156112ec573d6000803e3d6000fd5b505050506040513d601f19601f820116820180604052508101906113109190612241565b506040805186815260208101859052339130917f2885f4d6cdac705f1bdd232f2fc19fd3b563949dbb1335c42ca8a77eb653c92c910160405180910390a350506000805460ff1916905550505050565b60008061136b6118b1565b509150600090508161138185633b9aca00612263565b61138b919061228d565b949350505050565b60008061139e6118b1565b5050905060008184633b9aca006113819190612263565b60048054604080516350d25bcd60e01b8152905160009384936001600160a01b0316926350d25bcd92818301926020928290030181865afa1580156113fe573d6000803e3d6000fd5b505050506040513d601f19601f8201168201806040525081019061142291906121f9565b9050611433816402540be4006122af565b91505090565b336001600160a01b037f000000000000000000000000000000000000000000000000000000000000000016146114aa5760405162461bcd60e51b8152602060048201526016602482015275596f75277265206e6f7420617574686f72697a65642160501b6044820152606401610860565b600047116114fa5760405162461bcd60e51b815260206004820152601360248201527f4e6f2065746820746f20776974686472617721000000000000000000000000006044820152606401610860565b60007f00000000000000000000000000000000000000000000000000000000000000006001600160a01b03164760405160006040518083038185875af1925050503d8060008114611567576040519150601f19603f3d011682016040523d82523d6000602084013e61156c565b606091505b505090508061157a57600080fd5b50565b600080611588611758565b90506000670de0b6b3a76400006113818584612263565b336001600160a01b037f000000000000000000000000000000000000000000000000000000000000000016146116105760405162461bcd60e51b8152602060048201526016602482015275596f75277265206e6f7420617574686f72697a65642160501b6044820152606401610860565b600081116116605760405162461bcd60e51b815260206004820152601260248201527f50726963652077696c6c206265203e20302100000000000000000000000000006044820152606401610860565b8060098381548110611674576116746122df565b6000918252602090912001555050565b336001600160a01b037f000000000000000000000000000000000000000000000000000000000000000016146116f55760405162461bcd60e51b8152602060048201526016602482015275596f75277265206e6f7420617574686f72697a65642160501b6044820152606401610860565b600081116117455760405162461bcd60e51b815260206004820152601560248201527f496e76616c696420636c69666620706572696f642100000000000000000000006044820152606401610860565b6117528162015180612263565b600b5550565b600080600560009054906101000a90046001600160a01b03166001600160a01b031663feaf968c6040518163ffffffff1660e01b815260040160a060405180830381865afa1580156117ae573d6000803e3d6000fd5b505050506040513d601f19601f820116820180604052508101906117d2919061230f565b509195945050505050565b336001600160a01b037f0000000000000000000000000000000000000000000000000000000000000000161461184e5760405162461bcd60e51b8152602060048201526016602482015275596f75277265206e6f7420617574686f72697a65642160501b6044820152606401610860565b6000811161189e5760405162461bcd60e51b815260206004820152601b60248201527f5068617365204475726174696f6e2077696c6c206265203e20302100000000006044820152606401610860565b6118ab8162015180612263565b600f5550565b6007546000908190819060ff1661190a5760405162461bcd60e51b815260206004820152601760248201527f47434f20686173206e6f742073746172746564207965740000000000000000006044820152606401610860565b600f54600e54429160009161191f9084612228565b611929919061228d565b60085490915081106119475760085461194490600190612228565b90505b60006008828154811061195c5761195c6122df565b9060005260206000200154905060006009838154811061197e5761197e6122df565b906000526020600020015490508196506119978261157d565b95509350836119a783600161227a565b600f546119b49190612263565b600e546119c1919061227a565b841080611a0457506119d483600161227a565b6119fe907f0000000000000000000000000000000000000000000000000000000000000000612263565b60065411155b15611a125750505050909192565b600854611a2084600161227a565b1015611a7f57611a3160018461227a565b925060088381548110611a4657611a466122df565b90600052602060002001549650611a5c8761157d565b955060098381548110611a7157611a716122df565b906000526020600020015494505b50505050909192565b6000806115886113b5565b60098181548110610dd057600080fd5b33600090815260116020526040812054819080611b025760405162461bcd60e51b815260206004820152601360248201527f4e6f20746f6b656e7320707572636861736564000000000000000000000000006044820152606401610860565b60005b81811015611bd7573360009081526010602090815260408083208484528252808320815160e08101835281546001600160a01b031681526001820154938101939093526002810154918301919091526003810154606083015260048101546080830152600581015460a0830152600681015460c083015291908190611b8990612060565b9092509050611b98828861227a565b9650611ba4818761227a565b955081836006016000828254611bba919061227a565b925050819055505050508080611bcf9061235f565b915050611b05565b5060008311611c285760405162461bcd60e51b815260206004820152601360248201527f4e4f20746f6b656e7320746f20636c61696d21000000000000000000000000006044820152606401610860565b60005460405163a9059cbb60e01b8152336004820152602481018590526101009091046001600160a01b03169063a9059cbb906044016020604051808303816000875af1158015611c7d573d6000803e3d6000fd5b505050506040513d601f19601f82011682018060405250810190611ca19190612241565b50505050565b336001600160a01b037f00000000000000000000000000000000000000000000000000000000000000001614611d185760405162461bcd60e51b8152602060048201526016602482015275596f75277265206e6f7420617574686f72697a65642160501b6044820152606401610860565b6007805460ff1916600117905542600e55565b6001600160a01b0381166000908152601160205260408120548190815b81811015611dff576001600160a01b0380861660009081526010602090815260408083208584528252808320815160e081018352815490951685526001810154928501929092526002820154908401526003810154606084015260048101546080840152600581015460a0840152600681015460c0840152918190611dcc90612060565b9092509050611ddb828861227a565b9650611de7818761227a565b95505050508080611df79061235f565b915050611d48565b5050915091565b336001600160a01b037f00000000000000000000000000000000000000000000000000000000000000001614611e775760405162461bcd60e51b8152602060048201526016602482015275596f75277265206e6f7420617574686f72697a65642160501b6044820152606401610860565b60008111611ec75760405162461bcd60e51b815260206004820152601260248201527f50726963652077696c6c206265203e20302100000000000000000000000000006044820152606401610860565b8060088381548110611674576116746122df565b83831015611f515760405162461bcd60e51b815260206004820152602760248201527f546f6b656e56657374696e673a206475726174696f6e206d757374206265203e60448201527f3d20636c696666000000000000000000000000000000000000000000000000006064820152608401610860565b6000611f5d858761227a565b6001600160a01b0388166000908152601160205260408120805492935090919082611f878361235f565b909155506040805160e0810182526001600160a01b039a8b1680825260208083019687528284019b8c5260608301998a526080830198895260a08301978852600060c084018181529281526010825284812095815294905291909220915182547fffffffffffffffffffffffff0000000000000000000000000000000000000000169a1699909917815591516001830155509451600286015591516003850155516004840155516005830155509051600690910155565b6000806120496118b1565b9250505060008184633b9aca006113819190612263565b6000806000429050600084602001518210156120975760008560c001518660a0015161208c9190612228565b935093505050915091565b846060015185604001516120ab919061227a565b82106120d1578460c001518560a001516120c59190612228565b95600095509350505050565b60008560200151836120e39190612228565b608087015190915060006120f7828461228d565b905060006121058383612263565b90508860600151818a60a0015161211c9190612263565b612126919061228d565b94505050505060c085015161213b9082612228565b9350808560a0015161214d9190612228565b92505050915091565b60006020828403121561216857600080fd5b5035919050565b80356001600160a01b038116811461218657600080fd5b919050565b60006020828403121561219d57600080fd5b6121a68261216f565b9392505050565b600080604083850312156121c057600080fd5b6121c98361216f565b946020939093013593505050565b600080604083850312156121ea57600080fd5b50508035926020909101359150565b60006020828403121561220b57600080fd5b5051919050565b634e487b7160e01b600052601160045260246000fd5b8181038181111561223b5761223b612212565b92915050565b60006020828403121561225357600080fd5b815180151581146121a657600080fd5b808202811582820484141761223b5761223b612212565b8082018082111561223b5761223b612212565b6000826122aa57634e487b7160e01b600052601260045260246000fd5b500490565b80820260008212600160ff1b841416156122cb576122cb612212565b818105831482151761223b5761223b612212565b634e487b7160e01b600052603260045260246000fd5b805169ffffffffffffffffffff8116811461218657600080fd5b600080600080600060a0868803121561232757600080fd5b612330866122f5565b9450602086015193506040860151925060608601519150612353608087016122f5565b90509295509295909350565b60006001820161237157612371612212565b506001019056fea164736f6c6343000814000a",
  "linkReferences": {},
  "deployedLinkReferences": {}
}