{
  "_format": "hh-sol-artifact-1",
  "contractName": "TeamVesting",
  "sourceName": "contracts/TeamVesting.sol",
  "abi": [
    {
      "inputs": [
        {
          "internalType": "address",
          "name": "_grlAddress",
          "type": "address"
        }
      ],
      "stateMutability": "nonpayable",
      "type": "constructor"
    },
    {
      "anonymous": false,
      "inputs": [
        {
          "indexed": false,
          "internalType": "uint256",
          "name": "releaseable",
          "type": "uint256"
        },
        {
          "indexed": false,
          "internalType": "uint256",
          "name": "claimed",
          "type": "uint256"
        }
      ],
      "name": "TokenReleased",
      "type": "event"
    },
    {
      "anonymous": false,
      "inputs": [
        {
          "indexed": true,
          "internalType": "address",
          "name": "claimer",
          "type": "address"
        },
        {
          "indexed": false,
          "internalType": "uint256",
          "name": "releasableTokens",
          "type": "uint256"
        },
        {
          "indexed": false,
          "internalType": "uint256",
          "name": "purchaseIndex",
          "type": "uint256"
        }
      ],
      "name": "TokensClaimed",
      "type": "event"
    },
    {
      "anonymous": false,
      "inputs": [
        {
          "indexed": true,
          "internalType": "address",
          "name": "from",
          "type": "address"
        },
        {
          "indexed": true,
          "internalType": "address",
          "name": "to",
          "type": "address"
        },
        {
          "indexed": false,
          "internalType": "uint256",
          "name": "value",
          "type": "uint256"
        }
      ],
      "name": "Transfer",
      "type": "event"
    },
    {
      "inputs": [],
      "name": "admin",
      "outputs": [
        {
          "internalType": "address",
          "name": "",
          "type": "address"
        }
      ],
      "stateMutability": "view",
      "type": "function"
    },
    {
      "inputs": [],
      "name": "claimReleasableTokens",
      "outputs": [],
      "stateMutability": "nonpayable",
      "type": "function"
    },
    {
      "inputs": [
        {
          "internalType": "address",
          "name": "_beneficiary",
          "type": "address"
        },
        {
          "internalType": "uint256",
          "name": "_cliff",
          "type": "uint256"
        },
        {
          "internalType": "uint256",
          "name": "_duration",
          "type": "uint256"
        },
        {
          "internalType": "uint256",
          "name": "_slicePeriod",
          "type": "uint256"
        },
        {
          "internalType": "uint256",
          "name": "_amount",
          "type": "uint256"
        }
      ],
      "name": "createVestingSchedule",
      "outputs": [],
      "stateMutability": "nonpayable",
      "type": "function"
    },
    {
      "inputs": [
        {
          "internalType": "address",
          "name": "beneficiary",
          "type": "address"
        }
      ],
      "name": "getReleaseableAmount",
      "outputs": [
        {
          "internalType": "uint256",
          "name": "totalReleasable",
          "type": "uint256"
        },
        {
          "internalType": "uint256",
          "name": "totalRemaining",
          "type": "uint256"
        }
      ],
      "stateMutability": "view",
      "type": "function"
    },
    {
      "inputs": [
        {
          "internalType": "address",
          "name": "_beneficiary",
          "type": "address"
        }
      ],
      "name": "getVestingUserCount",
      "outputs": [
        {
          "internalType": "uint256",
          "name": "",
          "type": "uint256"
        }
      ],
      "stateMutability": "view",
      "type": "function"
    },
    {
      "inputs": [],
      "name": "grl",
      "outputs": [
        {
          "internalType": "contract IERC20",
          "name": "",
          "type": "address"
        }
      ],
      "stateMutability": "view",
      "type": "function"
    },
    {
      "inputs": [
        {
          "internalType": "address",
          "name": "",
          "type": "address"
        },
        {
          "internalType": "uint256",
          "name": "",
          "type": "uint256"
        }
      ],
      "name": "vestedUserDetail",
      "outputs": [
        {
          "internalType": "address",
          "name": "beneficiary",
          "type": "address"
        },
        {
          "internalType": "uint256",
          "name": "cliff",
          "type": "uint256"
        },
        {
          "internalType": "uint256",
          "name": "start",
          "type": "uint256"
        },
        {
          "internalType": "uint256",
          "name": "duration",
          "type": "uint256"
        },
        {
          "internalType": "uint256",
          "name": "slicePeriod",
          "type": "uint256"
        },
        {
          "internalType": "uint256",
          "name": "amountTotal",
          "type": "uint256"
        },
        {
          "internalType": "uint256",
          "name": "released",
          "type": "uint256"
        }
      ],
      "stateMutability": "view",
      "type": "function"
    },
    {
      "inputs": [],
      "name": "withdrawEth",
      "outputs": [],
      "stateMutability": "nonpayable",
      "type": "function"
    },
    {
      "inputs": [],
      "name": "withdrawGrl",
      "outputs": [],
      "stateMutability": "nonpayable",
      "type": "function"
    }
  ],
  "bytecode": "0x60a060405234801561001057600080fd5b50604051610d97380380610d9783398101604081905261002f9161005e565b600080546001600160a01b0390921661010002610100600160a81b03199092169190911790553360805261008e565b60006020828403121561007057600080fd5b81516001600160a01b038116811461008757600080fd5b9392505050565b608051610ccb6100cc6000396000818161020a01528181610237015281816103980152818161042b0152818161068101526106f20152610ccb6000f3fe608060405234801561001057600080fd5b50600436106100a35760003560e01c80635edfc4d311610076578063cf8a8cd01161005b578063cf8a8cd0146101d5578063d517562d146101dd578063f851a4401461020557600080fd5b80635edfc4d314610131578063a0ef91df146101cd57600080fd5b80630b9b199d146100a85780630e281f66146100b25780631bf0b08b146100e75780634bb127c3146100fa575b600080fd5b6100b061022c565b005b6000546100ca9061010090046001600160a01b031681565b6040516001600160a01b0390911681526020015b60405180910390f35b6100b06100f5366004610b61565b610420565b610123610108366004610ba3565b6001600160a01b031660009081526003602052604090205490565b6040519081526020016100de565b61018e61013f366004610bc5565b6002602081815260009384526040808520909152918352912080546001820154928201546003830154600484015460058501546006909501546001600160a01b03909416959492939192909187565b604080516001600160a01b0390981688526020880196909652948601939093526060850191909152608084015260a083015260c082015260e0016100de565b6100b0610676565b6100b0610771565b6101f06101eb366004610ba3565b610972565b604080519283526020830191909152016100de565b6100ca7f000000000000000000000000000000000000000000000000000000000000000081565b336001600160a01b037f000000000000000000000000000000000000000000000000000000000000000016146102a95760405162461bcd60e51b815260206004820152601660248201527f596f75277265206e6f7420617574686f72697a6564210000000000000000000060448201526064015b60405180910390fd5b600080546040516370a0823160e01b81523060048201526101009091046001600160a01b0316906370a0823190602401602060405180830381865afa1580156102f6573d6000803e3d6000fd5b505050506040513d601f19601f8201168201806040525081019061031a9190610bef565b905060006001548261032c9190610c1e565b90506000811161037e5760405162461bcd60e51b815260206004820152601360248201527f6e6f2067726c20696e20636f6e7472616374210000000000000000000000000060448201526064016102a0565b60005460405163a9059cbb60e01b81526001600160a01b037f000000000000000000000000000000000000000000000000000000000000000081166004830152602482018490526101009092049091169063a9059cbb906044016020604051808303816000875af11580156103f7573d6000803e3d6000fd5b505050506040513d601f19601f8201168201806040525081019061041b9190610c37565b505050565b336001600160a01b037f000000000000000000000000000000000000000000000000000000000000000016146104985760405162461bcd60e51b815260206004820152601660248201527f596f75277265206e6f7420617574686f72697a6564210000000000000000000060448201526064016102a0565b8383101561050e5760405162461bcd60e51b815260206004820152602760248201527f546f6b656e56657374696e673a206475726174696f6e206d757374206265203e60448201527f3d20636c6966660000000000000000000000000000000000000000000000000060648201526084016102a0565b600061051d8562015180610c59565b6105279042610c70565b6001600160a01b038716600090815260036020526040812080549293509091908261055183610c83565b9190505590506040518060e00160405280886001600160a01b03168152602001838152602001428152602001866201518061058c9190610c59565b815260200161059e8662015180610c59565b81526020016105b185633b9aca00610c59565b8152600060209182018190526001600160a01b038a8116825260028084526040808420878552855292839020855181547fffffffffffffffffffffffff00000000000000000000000000000000000000001693169290921782559284015160018201559083015191810191909155606082015160038201556080820151600482015560a0820151600582015560c09091015160069091015561065783633b9aca00610c59565b600160008282546106689190610c70565b909155505050505050505050565b336001600160a01b037f000000000000000000000000000000000000000000000000000000000000000016146106ee5760405162461bcd60e51b815260206004820152601660248201527f596f75277265206e6f7420617574686f72697a6564210000000000000000000060448201526064016102a0565b60007f00000000000000000000000000000000000000000000000000000000000000006001600160a01b03164760405160006040518083038185875af1925050503d806000811461075b576040519150601f19603f3d011682016040523d82523d6000602084013e610760565b606091505b505090508061076e57600080fd5b50565b336000908152600360205260408120548190806107d05760405162461bcd60e51b815260206004820152601360248201527f4e6f20746f6b656e73207075726368617365640000000000000000000000000060448201526064016102a0565b60005b818110156108a2573360009081526002602081815260408084208585528252808420815160e08101835281546001600160a01b0316815260018201549381019390935292830154908201526003820154606082015260048201546080820152600582015460a0820152600682015460c0820152909190819061085490610a4f565b90925090506108638288610c70565b965061086f8187610c70565b9550818360060160008282546108859190610c70565b92505081905550505050808061089a90610c83565b9150506107d3565b50600083116108f35760405162461bcd60e51b815260206004820152601360248201527f4e4f20746f6b656e7320746f20636c61696d210000000000000000000000000060448201526064016102a0565b60005460405163a9059cbb60e01b8152336004820152602481018590526101009091046001600160a01b03169063a9059cbb906044016020604051808303816000875af1158015610948573d6000803e3d6000fd5b505050506040513d601f19601f8201168201806040525081019061096c9190610c37565b50505050565b6001600160a01b0381166000908152600360205260408120548190815b81811015610a48576001600160a01b0380861660009081526002602081815260408084208685528252808420815160e0810183528154909616865260018101549286019290925291810154918401919091526003810154606084015260048101546080840152600581015460a0840152600681015460c0840152918190610a1590610a4f565b9092509050610a248288610c70565b9650610a308187610c70565b95505050508080610a4090610c83565b91505061098f565b5050915091565b600080600042905060008460200151821015610a865760008560c001518660a00151610a7b9190610c1e565b935093505050915091565b84606001518560400151610a9a9190610c70565b8210610ac0578460c001518560a00151610ab49190610c1e565b95600095509350505050565b6000856020015183610ad29190610c1e565b60808701519091506000610ae68284610c9c565b90506000610af48383610c59565b90508860600151818a60a00151610b0b9190610c59565b610b159190610c9c565b94505050505060c0850151610b2a9082610c1e565b9350808560a00151610b3c9190610c1e565b92505050915091565b80356001600160a01b0381168114610b5c57600080fd5b919050565b600080600080600060a08688031215610b7957600080fd5b610b8286610b45565b97602087013597506040870135966060810135965060800135945092505050565b600060208284031215610bb557600080fd5b610bbe82610b45565b9392505050565b60008060408385031215610bd857600080fd5b610be183610b45565b946020939093013593505050565b600060208284031215610c0157600080fd5b5051919050565b634e487b7160e01b600052601160045260246000fd5b81810381811115610c3157610c31610c08565b92915050565b600060208284031215610c4957600080fd5b81518015158114610bbe57600080fd5b8082028115828204841417610c3157610c31610c08565b80820180821115610c3157610c31610c08565b600060018201610c9557610c95610c08565b5060010190565b600082610cb957634e487b7160e01b600052601260045260246000fd5b50049056fea164736f6c6343000814000a",
  "linkReferences": {},
  "deployedLinkReferences": {}
}