{
	"data": {
		"bytecode": {
			"linkReferences": {},
			"object": "60a060405234801562000010575f80fd5b506040516200171e3803806200171e833981810160405281019062000036919062000116565b805f60016101000a81548173ffffffffffffffffffffffffffffffffffffffff021916908373ffffffffffffffffffffffffffffffffffffffff1602179055503373ffffffffffffffffffffffffffffffffffffffff1660808173ffffffffffffffffffffffffffffffffffffffff16815250505062000146565b5f80fd5b5f73ffffffffffffffffffffffffffffffffffffffff82169050919050565b5f620000e082620000b5565b9050919050565b620000f281620000d4565b8114620000fd575f80fd5b50565b5f815190506200011081620000e7565b92915050565b5f602082840312156200012e576200012d620000b1565b5b5f6200013d8482850162000100565b91505092915050565b60805161159c620001825f395f81816101a40152818161035e015281816104070152818161076a015281816107f90152610cc4015261159c5ff3fe608060405234801561000f575f80fd5b5060043610610091575f3560e01c80635edfc4d3116100645780635edfc4d314610109578063a0ef91df1461013f578063cf8a8cd014610149578063d517562d14610153578063f851a4401461018457610091565b80630b9b199d146100955780630e281f661461009f5780631bf0b08b146100bd5780634bb127c3146100d9575b5f80fd5b61009d6101a2565b005b6100a76103e0565b6040516100b49190610e5a565b60405180910390f35b6100d760048036038101906100d29190610ee5565b610405565b005b6100f360048036038101906100ee9190610f5c565b6106ba565b6040516101009190610f96565b60405180910390f35b610123600480360381019061011e9190610faf565b610700565b6040516101369796959493929190610ffc565b60405180910390f35b610147610768565b005b61015161088a565b005b61016d60048036038101906101689190610f5c565b610b43565b60405161017b929190611069565b60405180910390f35b61018c610cc2565b6040516101999190611090565b60405180910390f35b7f000000000000000000000000000000000000000000000000000000000000000073ffffffffffffffffffffffffffffffffffffffff163373ffffffffffffffffffffffffffffffffffffffff1614610230576040517f08c379a000000000000000000000000000000000000000000000000000000000815260040161022790611103565b60405180910390fd5b5f8060019054906101000a900473ffffffffffffffffffffffffffffffffffffffff1673ffffffffffffffffffffffffffffffffffffffff166370a08231306040518263ffffffff1660e01b815260040161028b9190611090565b602060405180830381865afa1580156102a6573d5f803e3d5ffd5b505050506040513d601f19601f820116820180604052508101906102ca9190611135565b90505f600154826102db919061118d565b90505f811161031f576040517f08c379a00000000000000000000000000000000000000000000000000000000081526004016103169061120a565b60405180910390fd5b5f60019054906101000a900473ffffffffffffffffffffffffffffffffffffffff1673ffffffffffffffffffffffffffffffffffffffff1663a9059cbb7f0000000000000000000000000000000000000000000000000000000000000000836040518363ffffffff1660e01b815260040161039b929190611228565b6020604051808303815f875af11580156103b7573d5f803e3d5ffd5b505050506040513d601f19601f820116820180604052508101906103db9190611284565b505050565b5f60019054906101000a900473ffffffffffffffffffffffffffffffffffffffff1681565b7f000000000000000000000000000000000000000000000000000000000000000073ffffffffffffffffffffffffffffffffffffffff163373ffffffffffffffffffffffffffffffffffffffff1614610493576040517f08c379a000000000000000000000000000000000000000000000000000000000815260040161048a90611103565b60405180910390fd5b838310156104d6576040517f08c379a00000000000000000000000000000000000000000000000000000000081526004016104cd9061131f565b60405180910390fd5b5f62015180856104e6919061133d565b426104f1919061137e565b90505f60035f8873ffffffffffffffffffffffffffffffffffffffff1673ffffffffffffffffffffffffffffffffffffffff1681526020019081526020015f205f815480929190610541906113b1565b9190505590506040518060e001604052808873ffffffffffffffffffffffffffffffffffffffff1681526020018381526020014281526020016201518087610589919061133d565b8152602001620151808661059d919061133d565b8152602001633b9aca00856105b2919061133d565b81526020015f81525060025f8973ffffffffffffffffffffffffffffffffffffffff1673ffffffffffffffffffffffffffffffffffffffff1681526020019081526020015f205f8381526020019081526020015f205f820151815f015f6101000a81548173ffffffffffffffffffffffffffffffffffffffff021916908373ffffffffffffffffffffffffffffffffffffffff1602179055506020820151816001015560408201518160020155606082015181600301556080820151816004015560a0820151816005015560c08201518160060155905050633b9aca008361069a919061133d565b60015f8282546106aa919061137e565b9250508190555050505050505050565b5f60035f8373ffffffffffffffffffffffffffffffffffffffff1673ffffffffffffffffffffffffffffffffffffffff1681526020019081526020015f20549050919050565b6002602052815f5260405f20602052805f5260405f205f9150915050805f015f9054906101000a900473ffffffffffffffffffffffffffffffffffffffff16908060010154908060020154908060030154908060040154908060050154908060060154905087565b7f000000000000000000000000000000000000000000000000000000000000000073ffffffffffffffffffffffffffffffffffffffff163373ffffffffffffffffffffffffffffffffffffffff16146107f6576040517f08c379a00000000000000000000000000000000000000000000000000000000081526004016107ed90611103565b60405180910390fd5b5f7f000000000000000000000000000000000000000000000000000000000000000073ffffffffffffffffffffffffffffffffffffffff164760405161083b90611425565b5f6040518083038185875af1925050503d805f8114610875576040519150601f19603f3d011682016040523d82523d5f602084013e61087a565b606091505b5050905080610887575f80fd5b50565b5f805f60035f3373ffffffffffffffffffffffffffffffffffffffff1673ffffffffffffffffffffffffffffffffffffffff1681526020019081526020015f205490505f811161090f576040517f08c379a000000000000000000000000000000000000000000000000000000000815260040161090690611483565b60405180910390fd5b5f5b81811015610a5e575f60025f3373ffffffffffffffffffffffffffffffffffffffff1673ffffffffffffffffffffffffffffffffffffffff1681526020019081526020015f205f8381526020019081526020015f2090505f80610a0e836040518060e00160405290815f82015f9054906101000a900473ffffffffffffffffffffffffffffffffffffffff1673ffffffffffffffffffffffffffffffffffffffff1673ffffffffffffffffffffffffffffffffffffffff1681526020016001820154815260200160028201548152602001600382015481526020016004820154815260200160058201548152602001600682015481525050610ce6565b915091508187610a1e919061137e565b96508086610a2c919061137e565b955081836006015f828254610a41919061137e565b925050819055505050508080610a56906113b1565b915050610911565b505f8311610aa1576040517f08c379a0000000000000000000000000000000000000000000000000000000008152600401610a98906114eb565b60405180910390fd5b5f60019054906101000a900473ffffffffffffffffffffffffffffffffffffffff1673ffffffffffffffffffffffffffffffffffffffff1663a9059cbb33856040518363ffffffff1660e01b8152600401610afd929190611228565b6020604051808303815f875af1158015610b19573d5f803e3d5ffd5b505050506040513d601f19601f82011682018060405250810190610b3d9190611284565b50505050565b5f805f60035f8573ffffffffffffffffffffffffffffffffffffffff1673ffffffffffffffffffffffffffffffffffffffff1681526020019081526020015f205490505f5b81811015610cbb575f60025f8773ffffffffffffffffffffffffffffffffffffffff1673ffffffffffffffffffffffffffffffffffffffff1681526020019081526020015f205f8381526020019081526020015f2090505f80610c85836040518060e00160405290815f82015f9054906101000a900473ffffffffffffffffffffffffffffffffffffffff1673ffffffffffffffffffffffffffffffffffffffff1673ffffffffffffffffffffffffffffffffffffffff1681526020016001820154815260200160028201548152602001600382015481526020016004820154815260200160058201548152602001600682015481525050610ce6565b915091508187610c95919061137e565b96508086610ca3919061137e565b95505050508080610cb3906113b1565b915050610b88565b5050915091565b7f000000000000000000000000000000000000000000000000000000000000000081565b5f805f4290505f8460200151821015610d19575f8560c001518660a00151610d0e919061118d565b935093505050610ddb565b84606001518560400151610d2d919061137e565b8210610d56578460c001518560a00151610d47919061118d565b9350835f935093505050610ddb565b5f856020015183610d67919061118d565b90505f866080015190505f8183610d7e9190611536565b90505f8282610d8d919061133d565b90508860600151818a60a00151610da4919061133d565b610dae9190611536565b9450505050508460c0015181610dc4919061118d565b9350808560a00151610dd6919061118d565b925050505b915091565b5f73ffffffffffffffffffffffffffffffffffffffff82169050919050565b5f819050919050565b5f610e22610e1d610e1884610de0565b610dff565b610de0565b9050919050565b5f610e3382610e08565b9050919050565b5f610e4482610e29565b9050919050565b610e5481610e3a565b82525050565b5f602082019050610e6d5f830184610e4b565b92915050565b5f80fd5b5f610e8182610de0565b9050919050565b610e9181610e77565b8114610e9b575f80fd5b50565b5f81359050610eac81610e88565b92915050565b5f819050919050565b610ec481610eb2565b8114610ece575f80fd5b50565b5f81359050610edf81610ebb565b92915050565b5f805f805f60a08688031215610efe57610efd610e73565b5b5f610f0b88828901610e9e565b9550506020610f1c88828901610ed1565b9450506040610f2d88828901610ed1565b9350506060610f3e88828901610ed1565b9250506080610f4f88828901610ed1565b9150509295509295909350565b5f60208284031215610f7157610f70610e73565b5b5f610f7e84828501610e9e565b91505092915050565b610f9081610eb2565b82525050565b5f602082019050610fa95f830184610f87565b92915050565b5f8060408385031215610fc557610fc4610e73565b5b5f610fd285828601610e9e565b9250506020610fe385828601610ed1565b9150509250929050565b610ff681610e77565b82525050565b5f60e08201905061100f5f83018a610fed565b61101c6020830189610f87565b6110296040830188610f87565b6110366060830187610f87565b6110436080830186610f87565b61105060a0830185610f87565b61105d60c0830184610f87565b98975050505050505050565b5f60408201905061107c5f830185610f87565b6110896020830184610f87565b9392505050565b5f6020820190506110a35f830184610fed565b92915050565b5f82825260208201905092915050565b7f596f75277265206e6f7420617574686f72697a656421000000000000000000005f82015250565b5f6110ed6016836110a9565b91506110f8826110b9565b602082019050919050565b5f6020820190508181035f83015261111a816110e1565b9050919050565b5f8151905061112f81610ebb565b92915050565b5f6020828403121561114a57611149610e73565b5b5f61115784828501611121565b91505092915050565b7f4e487b71000000000000000000000000000000000000000000000000000000005f52601160045260245ffd5b5f61119782610eb2565b91506111a283610eb2565b92508282039050818111156111ba576111b9611160565b5b92915050565b7f6e6f2067726c20696e20636f6e747261637421000000000000000000000000005f82015250565b5f6111f46013836110a9565b91506111ff826111c0565b602082019050919050565b5f6020820190508181035f830152611221816111e8565b9050919050565b5f60408201905061123b5f830185610fed565b6112486020830184610f87565b9392505050565b5f8115159050919050565b6112638161124f565b811461126d575f80fd5b50565b5f8151905061127e8161125a565b92915050565b5f6020828403121561129957611298610e73565b5b5f6112a684828501611270565b91505092915050565b7f546f6b656e56657374696e673a206475726174696f6e206d757374206265203e5f8201527f3d20636c69666600000000000000000000000000000000000000000000000000602082015250565b5f6113096027836110a9565b9150611314826112af565b604082019050919050565b5f6020820190508181035f830152611336816112fd565b9050919050565b5f61134782610eb2565b915061135283610eb2565b925082820261136081610eb2565b9150828204841483151761137757611376611160565b5b5092915050565b5f61138882610eb2565b915061139383610eb2565b92508282019050808211156113ab576113aa611160565b5b92915050565b5f6113bb82610eb2565b91507fffffffffffffffffffffffffffffffffffffffffffffffffffffffffffffffff82036113ed576113ec611160565b5b600182019050919050565b5f81905092915050565b50565b5f6114105f836113f8565b915061141b82611402565b5f82019050919050565b5f61142f82611405565b9150819050919050565b7f4e6f20746f6b656e7320707572636861736564000000000000000000000000005f82015250565b5f61146d6013836110a9565b915061147882611439565b602082019050919050565b5f6020820190508181035f83015261149a81611461565b9050919050565b7f4e4f20746f6b656e7320746f20636c61696d21000000000000000000000000005f82015250565b5f6114d56013836110a9565b91506114e0826114a1565b602082019050919050565b5f6020820190508181035f830152611502816114c9565b9050919050565b7f4e487b71000000000000000000000000000000000000000000000000000000005f52601260045260245ffd5b5f61154082610eb2565b915061154b83610eb2565b92508261155b5761155a611509565b5b82820490509291505056fea264697066735822122064c9a5d9c1bc46a9bd057a4360ffbb9e11ee373b2cd680c973201f42e4e62a7b64736f6c63430008140033",
			"opcodes": "PUSH1 0xA0 PUSH1 0x40 MSTORE CALLVALUE DUP1 ISZERO PUSH3 0x10 JUMPI PUSH0 DUP1 REVERT JUMPDEST POP PUSH1 0x40 MLOAD PUSH3 0x171E CODESIZE SUB DUP1 PUSH3 0x171E DUP4 CODECOPY DUP2 DUP2 ADD PUSH1 0x40 MSTORE DUP2 ADD SWAP1 PUSH3 0x36 SWAP2 SWAP1 PUSH3 0x116 JUMP JUMPDEST DUP1 PUSH0 PUSH1 0x1 PUSH2 0x100 EXP DUP2 SLOAD DUP2 PUSH20 0xFFFFFFFFFFFFFFFFFFFFFFFFFFFFFFFFFFFFFFFF MUL NOT AND SWAP1 DUP4 PUSH20 0xFFFFFFFFFFFFFFFFFFFFFFFFFFFFFFFFFFFFFFFF AND MUL OR SWAP1 SSTORE POP CALLER PUSH20 0xFFFFFFFFFFFFFFFFFFFFFFFFFFFFFFFFFFFFFFFF AND PUSH1 0x80 DUP2 PUSH20 0xFFFFFFFFFFFFFFFFFFFFFFFFFFFFFFFFFFFFFFFF AND DUP2 MSTORE POP POP POP PUSH3 0x146 JUMP JUMPDEST PUSH0 DUP1 REVERT JUMPDEST PUSH0 PUSH20 0xFFFFFFFFFFFFFFFFFFFFFFFFFFFFFFFFFFFFFFFF DUP3 AND SWAP1 POP SWAP2 SWAP1 POP JUMP JUMPDEST PUSH0 PUSH3 0xE0 DUP3 PUSH3 0xB5 JUMP JUMPDEST SWAP1 POP SWAP2 SWAP1 POP JUMP JUMPDEST PUSH3 0xF2 DUP2 PUSH3 0xD4 JUMP JUMPDEST DUP2 EQ PUSH3 0xFD JUMPI PUSH0 DUP1 REVERT JUMPDEST POP JUMP JUMPDEST PUSH0 DUP2 MLOAD SWAP1 POP PUSH3 0x110 DUP2 PUSH3 0xE7 JUMP JUMPDEST SWAP3 SWAP2 POP POP JUMP JUMPDEST PUSH0 PUSH1 0x20 DUP3 DUP5 SUB SLT ISZERO PUSH3 0x12E JUMPI PUSH3 0x12D PUSH3 0xB1 JUMP JUMPDEST JUMPDEST PUSH0 PUSH3 0x13D DUP5 DUP3 DUP6 ADD PUSH3 0x100 JUMP JUMPDEST SWAP2 POP POP SWAP3 SWAP2 POP POP JUMP JUMPDEST PUSH1 0x80 MLOAD PUSH2 0x159C PUSH3 0x182 PUSH0 CODECOPY PUSH0 DUP2 DUP2 PUSH2 0x1A4 ADD MSTORE DUP2 DUP2 PUSH2 0x35E ADD MSTORE DUP2 DUP2 PUSH2 0x407 ADD MSTORE DUP2 DUP2 PUSH2 0x76A ADD MSTORE DUP2 DUP2 PUSH2 0x7F9 ADD MSTORE PUSH2 0xCC4 ADD MSTORE PUSH2 0x159C PUSH0 RETURN INVALID PUSH1 0x80 PUSH1 0x40 MSTORE CALLVALUE DUP1 ISZERO PUSH2 0xF JUMPI PUSH0 DUP1 REVERT JUMPDEST POP PUSH1 0x4 CALLDATASIZE LT PUSH2 0x91 JUMPI PUSH0 CALLDATALOAD PUSH1 0xE0 SHR DUP1 PUSH4 0x5EDFC4D3 GT PUSH2 0x64 JUMPI DUP1 PUSH4 0x5EDFC4D3 EQ PUSH2 0x109 JUMPI DUP1 PUSH4 0xA0EF91DF EQ PUSH2 0x13F JUMPI DUP1 PUSH4 0xCF8A8CD0 EQ PUSH2 0x149 JUMPI DUP1 PUSH4 0xD517562D EQ PUSH2 0x153 JUMPI DUP1 PUSH4 0xF851A440 EQ PUSH2 0x184 JUMPI PUSH2 0x91 JUMP JUMPDEST DUP1 PUSH4 0xB9B199D EQ PUSH2 0x95 JUMPI DUP1 PUSH4 0xE281F66 EQ PUSH2 0x9F JUMPI DUP1 PUSH4 0x1BF0B08B EQ PUSH2 0xBD JUMPI DUP1 PUSH4 0x4BB127C3 EQ PUSH2 0xD9 JUMPI JUMPDEST PUSH0 DUP1 REVERT JUMPDEST PUSH2 0x9D PUSH2 0x1A2 JUMP JUMPDEST STOP JUMPDEST PUSH2 0xA7 PUSH2 0x3E0 JUMP JUMPDEST PUSH1 0x40 MLOAD PUSH2 0xB4 SWAP2 SWAP1 PUSH2 0xE5A JUMP JUMPDEST PUSH1 0x40 MLOAD DUP1 SWAP2 SUB SWAP1 RETURN JUMPDEST PUSH2 0xD7 PUSH1 0x4 DUP1 CALLDATASIZE SUB DUP2 ADD SWAP1 PUSH2 0xD2 SWAP2 SWAP1 PUSH2 0xEE5 JUMP JUMPDEST PUSH2 0x405 JUMP JUMPDEST STOP JUMPDEST PUSH2 0xF3 PUSH1 0x4 DUP1 CALLDATASIZE SUB DUP2 ADD SWAP1 PUSH2 0xEE SWAP2 SWAP1 PUSH2 0xF5C JUMP JUMPDEST PUSH2 0x6BA JUMP JUMPDEST PUSH1 0x40 MLOAD PUSH2 0x100 SWAP2 SWAP1 PUSH2 0xF96 JUMP JUMPDEST PUSH1 0x40 MLOAD DUP1 SWAP2 SUB SWAP1 RETURN JUMPDEST PUSH2 0x123 PUSH1 0x4 DUP1 CALLDATASIZE SUB DUP2 ADD SWAP1 PUSH2 0x11E SWAP2 SWAP1 PUSH2 0xFAF JUMP JUMPDEST PUSH2 0x700 JUMP JUMPDEST PUSH1 0x40 MLOAD PUSH2 0x136 SWAP8 SWAP7 SWAP6 SWAP5 SWAP4 SWAP3 SWAP2 SWAP1 PUSH2 0xFFC JUMP JUMPDEST PUSH1 0x40 MLOAD DUP1 SWAP2 SUB SWAP1 RETURN JUMPDEST PUSH2 0x147 PUSH2 0x768 JUMP JUMPDEST STOP JUMPDEST PUSH2 0x151 PUSH2 0x88A JUMP JUMPDEST STOP JUMPDEST PUSH2 0x16D PUSH1 0x4 DUP1 CALLDATASIZE SUB DUP2 ADD SWAP1 PUSH2 0x168 SWAP2 SWAP1 PUSH2 0xF5C JUMP JUMPDEST PUSH2 0xB43 JUMP JUMPDEST PUSH1 0x40 MLOAD PUSH2 0x17B SWAP3 SWAP2 SWAP1 PUSH2 0x1069 JUMP JUMPDEST PUSH1 0x40 MLOAD DUP1 SWAP2 SUB SWAP1 RETURN JUMPDEST PUSH2 0x18C PUSH2 0xCC2 JUMP JUMPDEST PUSH1 0x40 MLOAD PUSH2 0x199 SWAP2 SWAP1 PUSH2 0x1090 JUMP JUMPDEST PUSH1 0x40 MLOAD DUP1 SWAP2 SUB SWAP1 RETURN JUMPDEST PUSH32 0x0 PUSH20 0xFFFFFFFFFFFFFFFFFFFFFFFFFFFFFFFFFFFFFFFF AND CALLER PUSH20 0xFFFFFFFFFFFFFFFFFFFFFFFFFFFFFFFFFFFFFFFF AND EQ PUSH2 0x230 JUMPI PUSH1 0x40 MLOAD PUSH32 0x8C379A000000000000000000000000000000000000000000000000000000000 DUP2 MSTORE PUSH1 0x4 ADD PUSH2 0x227 SWAP1 PUSH2 0x1103 JUMP JUMPDEST PUSH1 0x40 MLOAD DUP1 SWAP2 SUB SWAP1 REVERT JUMPDEST PUSH0 DUP1 PUSH1 0x1 SWAP1 SLOAD SWAP1 PUSH2 0x100 EXP SWAP1 DIV PUSH20 0xFFFFFFFFFFFFFFFFFFFFFFFFFFFFFFFFFFFFFFFF AND PUSH20 0xFFFFFFFFFFFFFFFFFFFFFFFFFFFFFFFFFFFFFFFF AND PUSH4 0x70A08231 ADDRESS PUSH1 0x40 MLOAD DUP3 PUSH4 0xFFFFFFFF AND PUSH1 0xE0 SHL DUP2 MSTORE PUSH1 0x4 ADD PUSH2 0x28B SWAP2 SWAP1 PUSH2 0x1090 JUMP JUMPDEST PUSH1 0x20 PUSH1 0x40 MLOAD DUP1 DUP4 SUB DUP2 DUP7 GAS STATICCALL ISZERO DUP1 ISZERO PUSH2 0x2A6 JUMPI RETURNDATASIZE PUSH0 DUP1 RETURNDATACOPY RETURNDATASIZE PUSH0 REVERT JUMPDEST POP POP POP POP PUSH1 0x40 MLOAD RETURNDATASIZE PUSH1 0x1F NOT PUSH1 0x1F DUP3 ADD AND DUP3 ADD DUP1 PUSH1 0x40 MSTORE POP DUP2 ADD SWAP1 PUSH2 0x2CA SWAP2 SWAP1 PUSH2 0x1135 JUMP JUMPDEST SWAP1 POP PUSH0 PUSH1 0x1 SLOAD DUP3 PUSH2 0x2DB SWAP2 SWAP1 PUSH2 0x118D JUMP JUMPDEST SWAP1 POP PUSH0 DUP2 GT PUSH2 0x31F JUMPI PUSH1 0x40 MLOAD PUSH32 0x8C379A000000000000000000000000000000000000000000000000000000000 DUP2 MSTORE PUSH1 0x4 ADD PUSH2 0x316 SWAP1 PUSH2 0x120A JUMP JUMPDEST PUSH1 0x40 MLOAD DUP1 SWAP2 SUB SWAP1 REVERT JUMPDEST PUSH0 PUSH1 0x1 SWAP1 SLOAD SWAP1 PUSH2 0x100 EXP SWAP1 DIV PUSH20 0xFFFFFFFFFFFFFFFFFFFFFFFFFFFFFFFFFFFFFFFF AND PUSH20 0xFFFFFFFFFFFFFFFFFFFFFFFFFFFFFFFFFFFFFFFF AND PUSH4 0xA9059CBB PUSH32 0x0 DUP4 PUSH1 0x40 MLOAD DUP4 PUSH4 0xFFFFFFFF AND PUSH1 0xE0 SHL DUP2 MSTORE PUSH1 0x4 ADD PUSH2 0x39B SWAP3 SWAP2 SWAP1 PUSH2 0x1228 JUMP JUMPDEST PUSH1 0x20 PUSH1 0x40 MLOAD DUP1 DUP4 SUB DUP2 PUSH0 DUP8 GAS CALL ISZERO DUP1 ISZERO PUSH2 0x3B7 JUMPI RETURNDATASIZE PUSH0 DUP1 RETURNDATACOPY RETURNDATASIZE PUSH0 REVERT JUMPDEST POP POP POP POP PUSH1 0x40 MLOAD RETURNDATASIZE PUSH1 0x1F NOT PUSH1 0x1F DUP3 ADD AND DUP3 ADD DUP1 PUSH1 0x40 MSTORE POP DUP2 ADD SWAP1 PUSH2 0x3DB SWAP2 SWAP1 PUSH2 0x1284 JUMP JUMPDEST POP POP POP JUMP JUMPDEST PUSH0 PUSH1 0x1 SWAP1 SLOAD SWAP1 PUSH2 0x100 EXP SWAP1 DIV PUSH20 0xFFFFFFFFFFFFFFFFFFFFFFFFFFFFFFFFFFFFFFFF AND DUP2 JUMP JUMPDEST PUSH32 0x0 PUSH20 0xFFFFFFFFFFFFFFFFFFFFFFFFFFFFFFFFFFFFFFFF AND CALLER PUSH20 0xFFFFFFFFFFFFFFFFFFFFFFFFFFFFFFFFFFFFFFFF AND EQ PUSH2 0x493 JUMPI PUSH1 0x40 MLOAD PUSH32 0x8C379A000000000000000000000000000000000000000000000000000000000 DUP2 MSTORE PUSH1 0x4 ADD PUSH2 0x48A SWAP1 PUSH2 0x1103 JUMP JUMPDEST PUSH1 0x40 MLOAD DUP1 SWAP2 SUB SWAP1 REVERT JUMPDEST DUP4 DUP4 LT ISZERO PUSH2 0x4D6 JUMPI PUSH1 0x40 MLOAD PUSH32 0x8C379A000000000000000000000000000000000000000000000000000000000 DUP2 MSTORE PUSH1 0x4 ADD PUSH2 0x4CD SWAP1 PUSH2 0x131F JUMP JUMPDEST PUSH1 0x40 MLOAD DUP1 SWAP2 SUB SWAP1 REVERT JUMPDEST PUSH0 PUSH3 0x15180 DUP6 PUSH2 0x4E6 SWAP2 SWAP1 PUSH2 0x133D JUMP JUMPDEST TIMESTAMP PUSH2 0x4F1 SWAP2 SWAP1 PUSH2 0x137E JUMP JUMPDEST SWAP1 POP PUSH0 PUSH1 0x3 PUSH0 DUP9 PUSH20 0xFFFFFFFFFFFFFFFFFFFFFFFFFFFFFFFFFFFFFFFF AND PUSH20 0xFFFFFFFFFFFFFFFFFFFFFFFFFFFFFFFFFFFFFFFF AND DUP2 MSTORE PUSH1 0x20 ADD SWAP1 DUP2 MSTORE PUSH1 0x20 ADD PUSH0 KECCAK256 PUSH0 DUP2 SLOAD DUP1 SWAP3 SWAP2 SWAP1 PUSH2 0x541 SWAP1 PUSH2 0x13B1 JUMP JUMPDEST SWAP2 SWAP1 POP SSTORE SWAP1 POP PUSH1 0x40 MLOAD DUP1 PUSH1 0xE0 ADD PUSH1 0x40 MSTORE DUP1 DUP9 PUSH20 0xFFFFFFFFFFFFFFFFFFFFFFFFFFFFFFFFFFFFFFFF AND DUP2 MSTORE PUSH1 0x20 ADD DUP4 DUP2 MSTORE PUSH1 0x20 ADD TIMESTAMP DUP2 MSTORE PUSH1 0x20 ADD PUSH3 0x15180 DUP8 PUSH2 0x589 SWAP2 SWAP1 PUSH2 0x133D JUMP JUMPDEST DUP2 MSTORE PUSH1 0x20 ADD PUSH3 0x15180 DUP7 PUSH2 0x59D SWAP2 SWAP1 PUSH2 0x133D JUMP JUMPDEST DUP2 MSTORE PUSH1 0x20 ADD PUSH4 0x3B9ACA00 DUP6 PUSH2 0x5B2 SWAP2 SWAP1 PUSH2 0x133D JUMP JUMPDEST DUP2 MSTORE PUSH1 0x20 ADD PUSH0 DUP2 MSTORE POP PUSH1 0x2 PUSH0 DUP10 PUSH20 0xFFFFFFFFFFFFFFFFFFFFFFFFFFFFFFFFFFFFFFFF AND PUSH20 0xFFFFFFFFFFFFFFFFFFFFFFFFFFFFFFFFFFFFFFFF AND DUP2 MSTORE PUSH1 0x20 ADD SWAP1 DUP2 MSTORE PUSH1 0x20 ADD PUSH0 KECCAK256 PUSH0 DUP4 DUP2 MSTORE PUSH1 0x20 ADD SWAP1 DUP2 MSTORE PUSH1 0x20 ADD PUSH0 KECCAK256 PUSH0 DUP3 ADD MLOAD DUP2 PUSH0 ADD PUSH0 PUSH2 0x100 EXP DUP2 SLOAD DUP2 PUSH20 0xFFFFFFFFFFFFFFFFFFFFFFFFFFFFFFFFFFFFFFFF MUL NOT AND SWAP1 DUP4 PUSH20 0xFFFFFFFFFFFFFFFFFFFFFFFFFFFFFFFFFFFFFFFF AND MUL OR SWAP1 SSTORE POP PUSH1 0x20 DUP3 ADD MLOAD DUP2 PUSH1 0x1 ADD SSTORE PUSH1 0x40 DUP3 ADD MLOAD DUP2 PUSH1 0x2 ADD SSTORE PUSH1 0x60 DUP3 ADD MLOAD DUP2 PUSH1 0x3 ADD SSTORE PUSH1 0x80 DUP3 ADD MLOAD DUP2 PUSH1 0x4 ADD SSTORE PUSH1 0xA0 DUP3 ADD MLOAD DUP2 PUSH1 0x5 ADD SSTORE PUSH1 0xC0 DUP3 ADD MLOAD DUP2 PUSH1 0x6 ADD SSTORE SWAP1 POP POP PUSH4 0x3B9ACA00 DUP4 PUSH2 0x69A SWAP2 SWAP1 PUSH2 0x133D JUMP JUMPDEST PUSH1 0x1 PUSH0 DUP3 DUP3 SLOAD PUSH2 0x6AA SWAP2 SWAP1 PUSH2 0x137E JUMP JUMPDEST SWAP3 POP POP DUP2 SWAP1 SSTORE POP POP POP POP POP POP POP POP JUMP JUMPDEST PUSH0 PUSH1 0x3 PUSH0 DUP4 PUSH20 0xFFFFFFFFFFFFFFFFFFFFFFFFFFFFFFFFFFFFFFFF AND PUSH20 0xFFFFFFFFFFFFFFFFFFFFFFFFFFFFFFFFFFFFFFFF AND DUP2 MSTORE PUSH1 0x20 ADD SWAP1 DUP2 MSTORE PUSH1 0x20 ADD PUSH0 KECCAK256 SLOAD SWAP1 POP SWAP2 SWAP1 POP JUMP JUMPDEST PUSH1 0x2 PUSH1 0x20 MSTORE DUP2 PUSH0 MSTORE PUSH1 0x40 PUSH0 KECCAK256 PUSH1 0x20 MSTORE DUP1 PUSH0 MSTORE PUSH1 0x40 PUSH0 KECCAK256 PUSH0 SWAP2 POP SWAP2 POP POP DUP1 PUSH0 ADD PUSH0 SWAP1 SLOAD SWAP1 PUSH2 0x100 EXP SWAP1 DIV PUSH20 0xFFFFFFFFFFFFFFFFFFFFFFFFFFFFFFFFFFFFFFFF AND SWAP1 DUP1 PUSH1 0x1 ADD SLOAD SWAP1 DUP1 PUSH1 0x2 ADD SLOAD SWAP1 DUP1 PUSH1 0x3 ADD SLOAD SWAP1 DUP1 PUSH1 0x4 ADD SLOAD SWAP1 DUP1 PUSH1 0x5 ADD SLOAD SWAP1 DUP1 PUSH1 0x6 ADD SLOAD SWAP1 POP DUP8 JUMP JUMPDEST PUSH32 0x0 PUSH20 0xFFFFFFFFFFFFFFFFFFFFFFFFFFFFFFFFFFFFFFFF AND CALLER PUSH20 0xFFFFFFFFFFFFFFFFFFFFFFFFFFFFFFFFFFFFFFFF AND EQ PUSH2 0x7F6 JUMPI PUSH1 0x40 MLOAD PUSH32 0x8C379A000000000000000000000000000000000000000000000000000000000 DUP2 MSTORE PUSH1 0x4 ADD PUSH2 0x7ED SWAP1 PUSH2 0x1103 JUMP JUMPDEST PUSH1 0x40 MLOAD DUP1 SWAP2 SUB SWAP1 REVERT JUMPDEST PUSH0 PUSH32 0x0 PUSH20 0xFFFFFFFFFFFFFFFFFFFFFFFFFFFFFFFFFFFFFFFF AND SELFBALANCE PUSH1 0x40 MLOAD PUSH2 0x83B SWAP1 PUSH2 0x1425 JUMP JUMPDEST PUSH0 PUSH1 0x40 MLOAD DUP1 DUP4 SUB DUP2 DUP6 DUP8 GAS CALL SWAP3 POP POP POP RETURNDATASIZE DUP1 PUSH0 DUP2 EQ PUSH2 0x875 JUMPI PUSH1 0x40 MLOAD SWAP2 POP PUSH1 0x1F NOT PUSH1 0x3F RETURNDATASIZE ADD AND DUP3 ADD PUSH1 0x40 MSTORE RETURNDATASIZE DUP3 MSTORE RETURNDATASIZE PUSH0 PUSH1 0x20 DUP5 ADD RETURNDATACOPY PUSH2 0x87A JUMP JUMPDEST PUSH1 0x60 SWAP2 POP JUMPDEST POP POP SWAP1 POP DUP1 PUSH2 0x887 JUMPI PUSH0 DUP1 REVERT JUMPDEST POP JUMP JUMPDEST PUSH0 DUP1 PUSH0 PUSH1 0x3 PUSH0 CALLER PUSH20 0xFFFFFFFFFFFFFFFFFFFFFFFFFFFFFFFFFFFFFFFF AND PUSH20 0xFFFFFFFFFFFFFFFFFFFFFFFFFFFFFFFFFFFFFFFF AND DUP2 MSTORE PUSH1 0x20 ADD SWAP1 DUP2 MSTORE PUSH1 0x20 ADD PUSH0 KECCAK256 SLOAD SWAP1 POP PUSH0 DUP2 GT PUSH2 0x90F JUMPI PUSH1 0x40 MLOAD PUSH32 0x8C379A000000000000000000000000000000000000000000000000000000000 DUP2 MSTORE PUSH1 0x4 ADD PUSH2 0x906 SWAP1 PUSH2 0x1483 JUMP JUMPDEST PUSH1 0x40 MLOAD DUP1 SWAP2 SUB SWAP1 REVERT JUMPDEST PUSH0 JUMPDEST DUP2 DUP2 LT ISZERO PUSH2 0xA5E JUMPI PUSH0 PUSH1 0x2 PUSH0 CALLER PUSH20 0xFFFFFFFFFFFFFFFFFFFFFFFFFFFFFFFFFFFFFFFF AND PUSH20 0xFFFFFFFFFFFFFFFFFFFFFFFFFFFFFFFFFFFFFFFF AND DUP2 MSTORE PUSH1 0x20 ADD SWAP1 DUP2 MSTORE PUSH1 0x20 ADD PUSH0 KECCAK256 PUSH0 DUP4 DUP2 MSTORE PUSH1 0x20 ADD SWAP1 DUP2 MSTORE PUSH1 0x20 ADD PUSH0 KECCAK256 SWAP1 POP PUSH0 DUP1 PUSH2 0xA0E DUP4 PUSH1 0x40 MLOAD DUP1 PUSH1 0xE0 ADD PUSH1 0x40 MSTORE SWAP1 DUP2 PUSH0 DUP3 ADD PUSH0 SWAP1 SLOAD SWAP1 PUSH2 0x100 EXP SWAP1 DIV PUSH20 0xFFFFFFFFFFFFFFFFFFFFFFFFFFFFFFFFFFFFFFFF AND PUSH20 0xFFFFFFFFFFFFFFFFFFFFFFFFFFFFFFFFFFFFFFFF AND PUSH20 0xFFFFFFFFFFFFFFFFFFFFFFFFFFFFFFFFFFFFFFFF AND DUP2 MSTORE PUSH1 0x20 ADD PUSH1 0x1 DUP3 ADD SLOAD DUP2 MSTORE PUSH1 0x20 ADD PUSH1 0x2 DUP3 ADD SLOAD DUP2 MSTORE PUSH1 0x20 ADD PUSH1 0x3 DUP3 ADD SLOAD DUP2 MSTORE PUSH1 0x20 ADD PUSH1 0x4 DUP3 ADD SLOAD DUP2 MSTORE PUSH1 0x20 ADD PUSH1 0x5 DUP3 ADD SLOAD DUP2 MSTORE PUSH1 0x20 ADD PUSH1 0x6 DUP3 ADD SLOAD DUP2 MSTORE POP POP PUSH2 0xCE6 JUMP JUMPDEST SWAP2 POP SWAP2 POP DUP2 DUP8 PUSH2 0xA1E SWAP2 SWAP1 PUSH2 0x137E JUMP JUMPDEST SWAP7 POP DUP1 DUP7 PUSH2 0xA2C SWAP2 SWAP1 PUSH2 0x137E JUMP JUMPDEST SWAP6 POP DUP2 DUP4 PUSH1 0x6 ADD PUSH0 DUP3 DUP3 SLOAD PUSH2 0xA41 SWAP2 SWAP1 PUSH2 0x137E JUMP JUMPDEST SWAP3 POP POP DUP2 SWAP1 SSTORE POP POP POP POP DUP1 DUP1 PUSH2 0xA56 SWAP1 PUSH2 0x13B1 JUMP JUMPDEST SWAP2 POP POP PUSH2 0x911 JUMP JUMPDEST POP PUSH0 DUP4 GT PUSH2 0xAA1 JUMPI PUSH1 0x40 MLOAD PUSH32 0x8C379A000000000000000000000000000000000000000000000000000000000 DUP2 MSTORE PUSH1 0x4 ADD PUSH2 0xA98 SWAP1 PUSH2 0x14EB JUMP JUMPDEST PUSH1 0x40 MLOAD DUP1 SWAP2 SUB SWAP1 REVERT JUMPDEST PUSH0 PUSH1 0x1 SWAP1 SLOAD SWAP1 PUSH2 0x100 EXP SWAP1 DIV PUSH20 0xFFFFFFFFFFFFFFFFFFFFFFFFFFFFFFFFFFFFFFFF AND PUSH20 0xFFFFFFFFFFFFFFFFFFFFFFFFFFFFFFFFFFFFFFFF AND PUSH4 0xA9059CBB CALLER DUP6 PUSH1 0x40 MLOAD DUP4 PUSH4 0xFFFFFFFF AND PUSH1 0xE0 SHL DUP2 MSTORE PUSH1 0x4 ADD PUSH2 0xAFD SWAP3 SWAP2 SWAP1 PUSH2 0x1228 JUMP JUMPDEST PUSH1 0x20 PUSH1 0x40 MLOAD DUP1 DUP4 SUB DUP2 PUSH0 DUP8 GAS CALL ISZERO DUP1 ISZERO PUSH2 0xB19 JUMPI RETURNDATASIZE PUSH0 DUP1 RETURNDATACOPY RETURNDATASIZE PUSH0 REVERT JUMPDEST POP POP POP POP PUSH1 0x40 MLOAD RETURNDATASIZE PUSH1 0x1F NOT PUSH1 0x1F DUP3 ADD AND DUP3 ADD DUP1 PUSH1 0x40 MSTORE POP DUP2 ADD SWAP1 PUSH2 0xB3D SWAP2 SWAP1 PUSH2 0x1284 JUMP JUMPDEST POP POP POP POP JUMP JUMPDEST PUSH0 DUP1 PUSH0 PUSH1 0x3 PUSH0 DUP6 PUSH20 0xFFFFFFFFFFFFFFFFFFFFFFFFFFFFFFFFFFFFFFFF AND PUSH20 0xFFFFFFFFFFFFFFFFFFFFFFFFFFFFFFFFFFFFFFFF AND DUP2 MSTORE PUSH1 0x20 ADD SWAP1 DUP2 MSTORE PUSH1 0x20 ADD PUSH0 KECCAK256 SLOAD SWAP1 POP PUSH0 JUMPDEST DUP2 DUP2 LT ISZERO PUSH2 0xCBB JUMPI PUSH0 PUSH1 0x2 PUSH0 DUP8 PUSH20 0xFFFFFFFFFFFFFFFFFFFFFFFFFFFFFFFFFFFFFFFF AND PUSH20 0xFFFFFFFFFFFFFFFFFFFFFFFFFFFFFFFFFFFFFFFF AND DUP2 MSTORE PUSH1 0x20 ADD SWAP1 DUP2 MSTORE PUSH1 0x20 ADD PUSH0 KECCAK256 PUSH0 DUP4 DUP2 MSTORE PUSH1 0x20 ADD SWAP1 DUP2 MSTORE PUSH1 0x20 ADD PUSH0 KECCAK256 SWAP1 POP PUSH0 DUP1 PUSH2 0xC85 DUP4 PUSH1 0x40 MLOAD DUP1 PUSH1 0xE0 ADD PUSH1 0x40 MSTORE SWAP1 DUP2 PUSH0 DUP3 ADD PUSH0 SWAP1 SLOAD SWAP1 PUSH2 0x100 EXP SWAP1 DIV PUSH20 0xFFFFFFFFFFFFFFFFFFFFFFFFFFFFFFFFFFFFFFFF AND PUSH20 0xFFFFFFFFFFFFFFFFFFFFFFFFFFFFFFFFFFFFFFFF AND PUSH20 0xFFFFFFFFFFFFFFFFFFFFFFFFFFFFFFFFFFFFFFFF AND DUP2 MSTORE PUSH1 0x20 ADD PUSH1 0x1 DUP3 ADD SLOAD DUP2 MSTORE PUSH1 0x20 ADD PUSH1 0x2 DUP3 ADD SLOAD DUP2 MSTORE PUSH1 0x20 ADD PUSH1 0x3 DUP3 ADD SLOAD DUP2 MSTORE PUSH1 0x20 ADD PUSH1 0x4 DUP3 ADD SLOAD DUP2 MSTORE PUSH1 0x20 ADD PUSH1 0x5 DUP3 ADD SLOAD DUP2 MSTORE PUSH1 0x20 ADD PUSH1 0x6 DUP3 ADD SLOAD DUP2 MSTORE POP POP PUSH2 0xCE6 JUMP JUMPDEST SWAP2 POP SWAP2 POP DUP2 DUP8 PUSH2 0xC95 SWAP2 SWAP1 PUSH2 0x137E JUMP JUMPDEST SWAP7 POP DUP1 DUP7 PUSH2 0xCA3 SWAP2 SWAP1 PUSH2 0x137E JUMP JUMPDEST SWAP6 POP POP POP POP DUP1 DUP1 PUSH2 0xCB3 SWAP1 PUSH2 0x13B1 JUMP JUMPDEST SWAP2 POP POP PUSH2 0xB88 JUMP JUMPDEST POP POP SWAP2 POP SWAP2 JUMP JUMPDEST PUSH32 0x0 DUP2 JUMP JUMPDEST PUSH0 DUP1 PUSH0 TIMESTAMP SWAP1 POP PUSH0 DUP5 PUSH1 0x20 ADD MLOAD DUP3 LT ISZERO PUSH2 0xD19 JUMPI PUSH0 DUP6 PUSH1 0xC0 ADD MLOAD DUP7 PUSH1 0xA0 ADD MLOAD PUSH2 0xD0E SWAP2 SWAP1 PUSH2 0x118D JUMP JUMPDEST SWAP4 POP SWAP4 POP POP POP PUSH2 0xDDB JUMP JUMPDEST DUP5 PUSH1 0x60 ADD MLOAD DUP6 PUSH1 0x40 ADD MLOAD PUSH2 0xD2D SWAP2 SWAP1 PUSH2 0x137E JUMP JUMPDEST DUP3 LT PUSH2 0xD56 JUMPI DUP5 PUSH1 0xC0 ADD MLOAD DUP6 PUSH1 0xA0 ADD MLOAD PUSH2 0xD47 SWAP2 SWAP1 PUSH2 0x118D JUMP JUMPDEST SWAP4 POP DUP4 PUSH0 SWAP4 POP SWAP4 POP POP POP PUSH2 0xDDB JUMP JUMPDEST PUSH0 DUP6 PUSH1 0x20 ADD MLOAD DUP4 PUSH2 0xD67 SWAP2 SWAP1 PUSH2 0x118D JUMP JUMPDEST SWAP1 POP PUSH0 DUP7 PUSH1 0x80 ADD MLOAD SWAP1 POP PUSH0 DUP2 DUP4 PUSH2 0xD7E SWAP2 SWAP1 PUSH2 0x1536 JUMP JUMPDEST SWAP1 POP PUSH0 DUP3 DUP3 PUSH2 0xD8D SWAP2 SWAP1 PUSH2 0x133D JUMP JUMPDEST SWAP1 POP DUP9 PUSH1 0x60 ADD MLOAD DUP2 DUP11 PUSH1 0xA0 ADD MLOAD PUSH2 0xDA4 SWAP2 SWAP1 PUSH2 0x133D JUMP JUMPDEST PUSH2 0xDAE SWAP2 SWAP1 PUSH2 0x1536 JUMP JUMPDEST SWAP5 POP POP POP POP POP DUP5 PUSH1 0xC0 ADD MLOAD DUP2 PUSH2 0xDC4 SWAP2 SWAP1 PUSH2 0x118D JUMP JUMPDEST SWAP4 POP DUP1 DUP6 PUSH1 0xA0 ADD MLOAD PUSH2 0xDD6 SWAP2 SWAP1 PUSH2 0x118D JUMP JUMPDEST SWAP3 POP POP POP JUMPDEST SWAP2 POP SWAP2 JUMP JUMPDEST PUSH0 PUSH20 0xFFFFFFFFFFFFFFFFFFFFFFFFFFFFFFFFFFFFFFFF DUP3 AND SWAP1 POP SWAP2 SWAP1 POP JUMP JUMPDEST PUSH0 DUP2 SWAP1 POP SWAP2 SWAP1 POP JUMP JUMPDEST PUSH0 PUSH2 0xE22 PUSH2 0xE1D PUSH2 0xE18 DUP5 PUSH2 0xDE0 JUMP JUMPDEST PUSH2 0xDFF JUMP JUMPDEST PUSH2 0xDE0 JUMP JUMPDEST SWAP1 POP SWAP2 SWAP1 POP JUMP JUMPDEST PUSH0 PUSH2 0xE33 DUP3 PUSH2 0xE08 JUMP JUMPDEST SWAP1 POP SWAP2 SWAP1 POP JUMP JUMPDEST PUSH0 PUSH2 0xE44 DUP3 PUSH2 0xE29 JUMP JUMPDEST SWAP1 POP SWAP2 SWAP1 POP JUMP JUMPDEST PUSH2 0xE54 DUP2 PUSH2 0xE3A JUMP JUMPDEST DUP3 MSTORE POP POP JUMP JUMPDEST PUSH0 PUSH1 0x20 DUP3 ADD SWAP1 POP PUSH2 0xE6D PUSH0 DUP4 ADD DUP5 PUSH2 0xE4B JUMP JUMPDEST SWAP3 SWAP2 POP POP JUMP JUMPDEST PUSH0 DUP1 REVERT JUMPDEST PUSH0 PUSH2 0xE81 DUP3 PUSH2 0xDE0 JUMP JUMPDEST SWAP1 POP SWAP2 SWAP1 POP JUMP JUMPDEST PUSH2 0xE91 DUP2 PUSH2 0xE77 JUMP JUMPDEST DUP2 EQ PUSH2 0xE9B JUMPI PUSH0 DUP1 REVERT JUMPDEST POP JUMP JUMPDEST PUSH0 DUP2 CALLDATALOAD SWAP1 POP PUSH2 0xEAC DUP2 PUSH2 0xE88 JUMP JUMPDEST SWAP3 SWAP2 POP POP JUMP JUMPDEST PUSH0 DUP2 SWAP1 POP SWAP2 SWAP1 POP JUMP JUMPDEST PUSH2 0xEC4 DUP2 PUSH2 0xEB2 JUMP JUMPDEST DUP2 EQ PUSH2 0xECE JUMPI PUSH0 DUP1 REVERT JUMPDEST POP JUMP JUMPDEST PUSH0 DUP2 CALLDATALOAD SWAP1 POP PUSH2 0xEDF DUP2 PUSH2 0xEBB JUMP JUMPDEST SWAP3 SWAP2 POP POP JUMP JUMPDEST PUSH0 DUP1 PUSH0 DUP1 PUSH0 PUSH1 0xA0 DUP7 DUP9 SUB SLT ISZERO PUSH2 0xEFE JUMPI PUSH2 0xEFD PUSH2 0xE73 JUMP JUMPDEST JUMPDEST PUSH0 PUSH2 0xF0B DUP9 DUP3 DUP10 ADD PUSH2 0xE9E JUMP JUMPDEST SWAP6 POP POP PUSH1 0x20 PUSH2 0xF1C DUP9 DUP3 DUP10 ADD PUSH2 0xED1 JUMP JUMPDEST SWAP5 POP POP PUSH1 0x40 PUSH2 0xF2D DUP9 DUP3 DUP10 ADD PUSH2 0xED1 JUMP JUMPDEST SWAP4 POP POP PUSH1 0x60 PUSH2 0xF3E DUP9 DUP3 DUP10 ADD PUSH2 0xED1 JUMP JUMPDEST SWAP3 POP POP PUSH1 0x80 PUSH2 0xF4F DUP9 DUP3 DUP10 ADD PUSH2 0xED1 JUMP JUMPDEST SWAP2 POP POP SWAP3 SWAP6 POP SWAP3 SWAP6 SWAP1 SWAP4 POP JUMP JUMPDEST PUSH0 PUSH1 0x20 DUP3 DUP5 SUB SLT ISZERO PUSH2 0xF71 JUMPI PUSH2 0xF70 PUSH2 0xE73 JUMP JUMPDEST JUMPDEST PUSH0 PUSH2 0xF7E DUP5 DUP3 DUP6 ADD PUSH2 0xE9E JUMP JUMPDEST SWAP2 POP POP SWAP3 SWAP2 POP POP JUMP JUMPDEST PUSH2 0xF90 DUP2 PUSH2 0xEB2 JUMP JUMPDEST DUP3 MSTORE POP POP JUMP JUMPDEST PUSH0 PUSH1 0x20 DUP3 ADD SWAP1 POP PUSH2 0xFA9 PUSH0 DUP4 ADD DUP5 PUSH2 0xF87 JUMP JUMPDEST SWAP3 SWAP2 POP POP JUMP JUMPDEST PUSH0 DUP1 PUSH1 0x40 DUP4 DUP6 SUB SLT ISZERO PUSH2 0xFC5 JUMPI PUSH2 0xFC4 PUSH2 0xE73 JUMP JUMPDEST JUMPDEST PUSH0 PUSH2 0xFD2 DUP6 DUP3 DUP7 ADD PUSH2 0xE9E JUMP JUMPDEST SWAP3 POP POP PUSH1 0x20 PUSH2 0xFE3 DUP6 DUP3 DUP7 ADD PUSH2 0xED1 JUMP JUMPDEST SWAP2 POP POP SWAP3 POP SWAP3 SWAP1 POP JUMP JUMPDEST PUSH2 0xFF6 DUP2 PUSH2 0xE77 JUMP JUMPDEST DUP3 MSTORE POP POP JUMP JUMPDEST PUSH0 PUSH1 0xE0 DUP3 ADD SWAP1 POP PUSH2 0x100F PUSH0 DUP4 ADD DUP11 PUSH2 0xFED JUMP JUMPDEST PUSH2 0x101C PUSH1 0x20 DUP4 ADD DUP10 PUSH2 0xF87 JUMP JUMPDEST PUSH2 0x1029 PUSH1 0x40 DUP4 ADD DUP9 PUSH2 0xF87 JUMP JUMPDEST PUSH2 0x1036 PUSH1 0x60 DUP4 ADD DUP8 PUSH2 0xF87 JUMP JUMPDEST PUSH2 0x1043 PUSH1 0x80 DUP4 ADD DUP7 PUSH2 0xF87 JUMP JUMPDEST PUSH2 0x1050 PUSH1 0xA0 DUP4 ADD DUP6 PUSH2 0xF87 JUMP JUMPDEST PUSH2 0x105D PUSH1 0xC0 DUP4 ADD DUP5 PUSH2 0xF87 JUMP JUMPDEST SWAP9 SWAP8 POP POP POP POP POP POP POP POP JUMP JUMPDEST PUSH0 PUSH1 0x40 DUP3 ADD SWAP1 POP PUSH2 0x107C PUSH0 DUP4 ADD DUP6 PUSH2 0xF87 JUMP JUMPDEST PUSH2 0x1089 PUSH1 0x20 DUP4 ADD DUP5 PUSH2 0xF87 JUMP JUMPDEST SWAP4 SWAP3 POP POP POP JUMP JUMPDEST PUSH0 PUSH1 0x20 DUP3 ADD SWAP1 POP PUSH2 0x10A3 PUSH0 DUP4 ADD DUP5 PUSH2 0xFED JUMP JUMPDEST SWAP3 SWAP2 POP POP JUMP JUMPDEST PUSH0 DUP3 DUP3 MSTORE PUSH1 0x20 DUP3 ADD SWAP1 POP SWAP3 SWAP2 POP POP JUMP JUMPDEST PUSH32 0x596F75277265206E6F7420617574686F72697A65642100000000000000000000 PUSH0 DUP3 ADD MSTORE POP JUMP JUMPDEST PUSH0 PUSH2 0x10ED PUSH1 0x16 DUP4 PUSH2 0x10A9 JUMP JUMPDEST SWAP2 POP PUSH2 0x10F8 DUP3 PUSH2 0x10B9 JUMP JUMPDEST PUSH1 0x20 DUP3 ADD SWAP1 POP SWAP2 SWAP1 POP JUMP JUMPDEST PUSH0 PUSH1 0x20 DUP3 ADD SWAP1 POP DUP2 DUP2 SUB PUSH0 DUP4 ADD MSTORE PUSH2 0x111A DUP2 PUSH2 0x10E1 JUMP JUMPDEST SWAP1 POP SWAP2 SWAP1 POP JUMP JUMPDEST PUSH0 DUP2 MLOAD SWAP1 POP PUSH2 0x112F DUP2 PUSH2 0xEBB JUMP JUMPDEST SWAP3 SWAP2 POP POP JUMP JUMPDEST PUSH0 PUSH1 0x20 DUP3 DUP5 SUB SLT ISZERO PUSH2 0x114A JUMPI PUSH2 0x1149 PUSH2 0xE73 JUMP JUMPDEST JUMPDEST PUSH0 PUSH2 0x1157 DUP5 DUP3 DUP6 ADD PUSH2 0x1121 JUMP JUMPDEST SWAP2 POP POP SWAP3 SWAP2 POP POP JUMP JUMPDEST PUSH32 0x4E487B7100000000000000000000000000000000000000000000000000000000 PUSH0 MSTORE PUSH1 0x11 PUSH1 0x4 MSTORE PUSH1 0x24 PUSH0 REVERT JUMPDEST PUSH0 PUSH2 0x1197 DUP3 PUSH2 0xEB2 JUMP JUMPDEST SWAP2 POP PUSH2 0x11A2 DUP4 PUSH2 0xEB2 JUMP JUMPDEST SWAP3 POP DUP3 DUP3 SUB SWAP1 POP DUP2 DUP2 GT ISZERO PUSH2 0x11BA JUMPI PUSH2 0x11B9 PUSH2 0x1160 JUMP JUMPDEST JUMPDEST SWAP3 SWAP2 POP POP JUMP JUMPDEST PUSH32 0x6E6F2067726C20696E20636F6E74726163742100000000000000000000000000 PUSH0 DUP3 ADD MSTORE POP JUMP JUMPDEST PUSH0 PUSH2 0x11F4 PUSH1 0x13 DUP4 PUSH2 0x10A9 JUMP JUMPDEST SWAP2 POP PUSH2 0x11FF DUP3 PUSH2 0x11C0 JUMP JUMPDEST PUSH1 0x20 DUP3 ADD SWAP1 POP SWAP2 SWAP1 POP JUMP JUMPDEST PUSH0 PUSH1 0x20 DUP3 ADD SWAP1 POP DUP2 DUP2 SUB PUSH0 DUP4 ADD MSTORE PUSH2 0x1221 DUP2 PUSH2 0x11E8 JUMP JUMPDEST SWAP1 POP SWAP2 SWAP1 POP JUMP JUMPDEST PUSH0 PUSH1 0x40 DUP3 ADD SWAP1 POP PUSH2 0x123B PUSH0 DUP4 ADD DUP6 PUSH2 0xFED JUMP JUMPDEST PUSH2 0x1248 PUSH1 0x20 DUP4 ADD DUP5 PUSH2 0xF87 JUMP JUMPDEST SWAP4 SWAP3 POP POP POP JUMP JUMPDEST PUSH0 DUP2 ISZERO ISZERO SWAP1 POP SWAP2 SWAP1 POP JUMP JUMPDEST PUSH2 0x1263 DUP2 PUSH2 0x124F JUMP JUMPDEST DUP2 EQ PUSH2 0x126D JUMPI PUSH0 DUP1 REVERT JUMPDEST POP JUMP JUMPDEST PUSH0 DUP2 MLOAD SWAP1 POP PUSH2 0x127E DUP2 PUSH2 0x125A JUMP JUMPDEST SWAP3 SWAP2 POP POP JUMP JUMPDEST PUSH0 PUSH1 0x20 DUP3 DUP5 SUB SLT ISZERO PUSH2 0x1299 JUMPI PUSH2 0x1298 PUSH2 0xE73 JUMP JUMPDEST JUMPDEST PUSH0 PUSH2 0x12A6 DUP5 DUP3 DUP6 ADD PUSH2 0x1270 JUMP JUMPDEST SWAP2 POP POP SWAP3 SWAP2 POP POP JUMP JUMPDEST PUSH32 0x546F6B656E56657374696E673A206475726174696F6E206D757374206265203E PUSH0 DUP3 ADD MSTORE PUSH32 0x3D20636C69666600000000000000000000000000000000000000000000000000 PUSH1 0x20 DUP3 ADD MSTORE POP JUMP JUMPDEST PUSH0 PUSH2 0x1309 PUSH1 0x27 DUP4 PUSH2 0x10A9 JUMP JUMPDEST SWAP2 POP PUSH2 0x1314 DUP3 PUSH2 0x12AF JUMP JUMPDEST PUSH1 0x40 DUP3 ADD SWAP1 POP SWAP2 SWAP1 POP JUMP JUMPDEST PUSH0 PUSH1 0x20 DUP3 ADD SWAP1 POP DUP2 DUP2 SUB PUSH0 DUP4 ADD MSTORE PUSH2 0x1336 DUP2 PUSH2 0x12FD JUMP JUMPDEST SWAP1 POP SWAP2 SWAP1 POP JUMP JUMPDEST PUSH0 PUSH2 0x1347 DUP3 PUSH2 0xEB2 JUMP JUMPDEST SWAP2 POP PUSH2 0x1352 DUP4 PUSH2 0xEB2 JUMP JUMPDEST SWAP3 POP DUP3 DUP3 MUL PUSH2 0x1360 DUP2 PUSH2 0xEB2 JUMP JUMPDEST SWAP2 POP DUP3 DUP3 DIV DUP5 EQ DUP4 ISZERO OR PUSH2 0x1377 JUMPI PUSH2 0x1376 PUSH2 0x1160 JUMP JUMPDEST JUMPDEST POP SWAP3 SWAP2 POP POP JUMP JUMPDEST PUSH0 PUSH2 0x1388 DUP3 PUSH2 0xEB2 JUMP JUMPDEST SWAP2 POP PUSH2 0x1393 DUP4 PUSH2 0xEB2 JUMP JUMPDEST SWAP3 POP DUP3 DUP3 ADD SWAP1 POP DUP1 DUP3 GT ISZERO PUSH2 0x13AB JUMPI PUSH2 0x13AA PUSH2 0x1160 JUMP JUMPDEST JUMPDEST SWAP3 SWAP2 POP POP JUMP JUMPDEST PUSH0 PUSH2 0x13BB DUP3 PUSH2 0xEB2 JUMP JUMPDEST SWAP2 POP PUSH32 0xFFFFFFFFFFFFFFFFFFFFFFFFFFFFFFFFFFFFFFFFFFFFFFFFFFFFFFFFFFFFFFFF DUP3 SUB PUSH2 0x13ED JUMPI PUSH2 0x13EC PUSH2 0x1160 JUMP JUMPDEST JUMPDEST PUSH1 0x1 DUP3 ADD SWAP1 POP SWAP2 SWAP1 POP JUMP JUMPDEST PUSH0 DUP2 SWAP1 POP SWAP3 SWAP2 POP POP JUMP JUMPDEST POP JUMP JUMPDEST PUSH0 PUSH2 0x1410 PUSH0 DUP4 PUSH2 0x13F8 JUMP JUMPDEST SWAP2 POP PUSH2 0x141B DUP3 PUSH2 0x1402 JUMP JUMPDEST PUSH0 DUP3 ADD SWAP1 POP SWAP2 SWAP1 POP JUMP JUMPDEST PUSH0 PUSH2 0x142F DUP3 PUSH2 0x1405 JUMP JUMPDEST SWAP2 POP DUP2 SWAP1 POP SWAP2 SWAP1 POP JUMP JUMPDEST PUSH32 0x4E6F20746F6B656E732070757263686173656400000000000000000000000000 PUSH0 DUP3 ADD MSTORE POP JUMP JUMPDEST PUSH0 PUSH2 0x146D PUSH1 0x13 DUP4 PUSH2 0x10A9 JUMP JUMPDEST SWAP2 POP PUSH2 0x1478 DUP3 PUSH2 0x1439 JUMP JUMPDEST PUSH1 0x20 DUP3 ADD SWAP1 POP SWAP2 SWAP1 POP JUMP JUMPDEST PUSH0 PUSH1 0x20 DUP3 ADD SWAP1 POP DUP2 DUP2 SUB PUSH0 DUP4 ADD MSTORE PUSH2 0x149A DUP2 PUSH2 0x1461 JUMP JUMPDEST SWAP1 POP SWAP2 SWAP1 POP JUMP JUMPDEST PUSH32 0x4E4F20746F6B656E7320746F20636C61696D2100000000000000000000000000 PUSH0 DUP3 ADD MSTORE POP JUMP JUMPDEST PUSH0 PUSH2 0x14D5 PUSH1 0x13 DUP4 PUSH2 0x10A9 JUMP JUMPDEST SWAP2 POP PUSH2 0x14E0 DUP3 PUSH2 0x14A1 JUMP JUMPDEST PUSH1 0x20 DUP3 ADD SWAP1 POP SWAP2 SWAP1 POP JUMP JUMPDEST PUSH0 PUSH1 0x20 DUP3 ADD SWAP1 POP DUP2 DUP2 SUB PUSH0 DUP4 ADD MSTORE PUSH2 0x1502 DUP2 PUSH2 0x14C9 JUMP JUMPDEST SWAP1 POP SWAP2 SWAP1 POP JUMP JUMPDEST PUSH32 0x4E487B7100000000000000000000000000000000000000000000000000000000 PUSH0 MSTORE PUSH1 0x12 PUSH1 0x4 MSTORE PUSH1 0x24 PUSH0 REVERT JUMPDEST PUSH0 PUSH2 0x1540 DUP3 PUSH2 0xEB2 JUMP JUMPDEST SWAP2 POP PUSH2 0x154B DUP4 PUSH2 0xEB2 JUMP JUMPDEST SWAP3 POP DUP3 PUSH2 0x155B JUMPI PUSH2 0x155A PUSH2 0x1509 JUMP JUMPDEST JUMPDEST DUP3 DUP3 DIV SWAP1 POP SWAP3 SWAP2 POP POP JUMP INVALID LOG2 PUSH5 0x6970667358 0x22 SLT KECCAK256 PUSH5 0xC9A5D9C1BC CHAINID 0xA9 0xBD SDIV PUSH27 0x4360FFBB9E11EE373B2CD680C973201F42E4E62A7B64736F6C6343 STOP ADDMOD EQ STOP CALLER "
		},
		"gasEstimates": {
			"creation": {
				"codeDepositCost": "1106400",
				"executionCost": "infinite",
				"totalCost": "infinite"
			},
			"external": {
				"admin()": "infinite",
				"claimReleasableTokens()": "infinite",
				"createVestingSchedule(address,uint256,uint256,uint256,uint256)": "infinite",
				"getReleaseableAmount(address)": "infinite",
				"getVestingUserCount(address)": "2896",
				"grl()": "infinite",
				"vestedUserDetail(address,uint256)": "infinite",
				"withdrawEth()": "infinite",
				"withdrawGrl()": "infinite"
			},
			"internal": {
				"_computeReleasableAmount(struct TeamVesting.VestingSchedule memory)": "infinite"
			}
		},
		"methodIdentifiers": {
			"admin()": "f851a440",
			"claimReleasableTokens()": "cf8a8cd0",
			"createVestingSchedule(address,uint256,uint256,uint256,uint256)": "1bf0b08b",
			"getReleaseableAmount(address)": "d517562d",
			"getVestingUserCount(address)": "4bb127c3",
			"grl()": "0e281f66",
			"vestedUserDetail(address,uint256)": "5edfc4d3",
			"withdrawEth()": "a0ef91df",
			"withdrawGrl()": "0b9b199d"
		}
	},
	"abi": [
		{
			"inputs": [
				{
					"internalType": "address",
					"name": "_grlAddress",
					"type": "address"
				}
			],
			"stateMutability": "nonpayable",
			"type": "constructor"
		},
		{
			"anonymous": false,
			"inputs": [
				{
					"indexed": false,
					"internalType": "uint256",
					"name": "releaseable",
					"type": "uint256"
				},
				{
					"indexed": false,
					"internalType": "uint256",
					"name": "claimed",
					"type": "uint256"
				}
			],
			"name": "TokenReleased",
			"type": "event"
		},
		{
			"anonymous": false,
			"inputs": [
				{
					"indexed": true,
					"internalType": "address",
					"name": "claimer",
					"type": "address"
				},
				{
					"indexed": false,
					"internalType": "uint256",
					"name": "releasableTokens",
					"type": "uint256"
				},
				{
					"indexed": false,
					"internalType": "uint256",
					"name": "purchaseIndex",
					"type": "uint256"
				}
			],
			"name": "TokensClaimed",
			"type": "event"
		},
		{
			"anonymous": false,
			"inputs": [
				{
					"indexed": true,
					"internalType": "address",
					"name": "from",
					"type": "address"
				},
				{
					"indexed": true,
					"internalType": "address",
					"name": "to",
					"type": "address"
				},
				{
					"indexed": false,
					"internalType": "uint256",
					"name": "value",
					"type": "uint256"
				}
			],
			"name": "Transfer",
			"type": "event"
		},
		{
			"inputs": [],
			"name": "admin",
			"outputs": [
				{
					"internalType": "address",
					"name": "",
					"type": "address"
				}
			],
			"stateMutability": "view",
			"type": "function"
		},
		{
			"inputs": [],
			"name": "claimReleasableTokens",
			"outputs": [],
			"stateMutability": "nonpayable",
			"type": "function"
		},
		{
			"inputs": [
				{
					"internalType": "address",
					"name": "_beneficiary",
					"type": "address"
				},
				{
					"internalType": "uint256",
					"name": "_cliff",
					"type": "uint256"
				},
				{
					"internalType": "uint256",
					"name": "_duration",
					"type": "uint256"
				},
				{
					"internalType": "uint256",
					"name": "_slicePeriod",
					"type": "uint256"
				},
				{
					"internalType": "uint256",
					"name": "_amount",
					"type": "uint256"
				}
			],
			"name": "createVestingSchedule",
			"outputs": [],
			"stateMutability": "nonpayable",
			"type": "function"
		},
		{
			"inputs": [
				{
					"internalType": "address",
					"name": "beneficiary",
					"type": "address"
				}
			],
			"name": "getReleaseableAmount",
			"outputs": [
				{
					"internalType": "uint256",
					"name": "totalReleasable",
					"type": "uint256"
				},
				{
					"internalType": "uint256",
					"name": "totalRemaining",
					"type": "uint256"
				}
			],
			"stateMutability": "view",
			"type": "function"
		},
		{
			"inputs": [
				{
					"internalType": "address",
					"name": "_beneficiary",
					"type": "address"
				}
			],
			"name": "getVestingUserCount",
			"outputs": [
				{
					"internalType": "uint256",
					"name": "",
					"type": "uint256"
				}
			],
			"stateMutability": "view",
			"type": "function"
		},
		{
			"inputs": [],
			"name": "grl",
			"outputs": [
				{
					"internalType": "contract IERC20",
					"name": "",
					"type": "address"
				}
			],
			"stateMutability": "view",
			"type": "function"
		},
		{
			"inputs": [
				{
					"internalType": "address",
					"name": "",
					"type": "address"
				},
				{
					"internalType": "uint256",
					"name": "",
					"type": "uint256"
				}
			],
			"name": "vestedUserDetail",
			"outputs": [
				{
					"internalType": "address",
					"name": "beneficiary",
					"type": "address"
				},
				{
					"internalType": "uint256",
					"name": "cliff",
					"type": "uint256"
				},
				{
					"internalType": "uint256",
					"name": "start",
					"type": "uint256"
				},
				{
					"internalType": "uint256",
					"name": "duration",
					"type": "uint256"
				},
				{
					"internalType": "uint256",
					"name": "slicePeriod",
					"type": "uint256"
				},
				{
					"internalType": "uint256",
					"name": "amountTotal",
					"type": "uint256"
				},
				{
					"internalType": "uint256",
					"name": "released",
					"type": "uint256"
				}
			],
			"stateMutability": "view",
			"type": "function"
		},
		{
			"inputs": [],
			"name": "withdrawEth",
			"outputs": [],
			"stateMutability": "nonpayable",
			"type": "function"
		},
		{
			"inputs": [],
			"name": "withdrawGrl",
			"outputs": [],
			"stateMutability": "nonpayable",
			"type": "function"
		}
	]
}