{
  "_format": "hh-sol-artifact-1",
  "contractName": "PriceGuaranteeStaking",
  "sourceName": "contracts/PriceGuranteeStaking.sol",
  "abi": [
    {
      "inputs": [
        {
          "internalType": "address",
          "name": "_grlTokenAddress",
          "type": "address"
        },
        {
          "internalType": "address",
          "name": "_wethAddress",
          "type": "address"
        },
        {
          "internalType": "address",
          "name": "_uniswapRouterAddress",
          "type": "address"
        },
        {
          "internalType": "address",
          "name": "_ethUsdAggregatorAddress",
          "type": "address"
        }
      ],
      "stateMutability": "nonpayable",
      "type": "constructor"
    },
    {
      "anonymous": false,
      "inputs": [
        {
          "indexed": true,
          "internalType": "address",
          "name": "user",
          "type": "address"
        },
        {
          "indexed": false,
          "internalType": "uint256",
          "name": "amount",
          "type": "uint256"
        },
        {
          "indexed": false,
          "internalType": "uint256",
          "name": "duration",
          "type": "uint256"
        },
        {
          "indexed": false,
          "internalType": "uint256",
          "name": "endTime",
          "type": "uint256"
        },
        {
          "indexed": false,
          "internalType": "uint256",
          "name": "priceInUsd",
          "type": "uint256"
        },
        {
          "indexed": false,
          "internalType": "uint256",
          "name": "fee",
          "type": "uint256"
        },
        {
          "indexed": false,
          "internalType": "uint256",
          "name": "amountInUsd",
          "type": "uint256"
        }
      ],
      "name": "Staked",
      "type": "event"
    },
    {
      "anonymous": false,
      "inputs": [
        {
          "indexed": true,
          "internalType": "address",
          "name": "user",
          "type": "address"
        },
        {
          "indexed": false,
          "internalType": "uint256",
          "name": "amount",
          "type": "uint256"
        }
      ],
      "name": "Unstaked",
      "type": "event"
    },
    {
      "inputs": [],
      "name": "DECIMALS",
      "outputs": [
        {
          "internalType": "uint256",
          "name": "",
          "type": "uint256"
        }
      ],
      "stateMutability": "view",
      "type": "function"
    },
    {
      "inputs": [],
      "name": "admin",
      "outputs": [
        {
          "internalType": "address",
          "name": "",
          "type": "address"
        }
      ],
      "stateMutability": "view",
      "type": "function"
    },
    {
      "inputs": [],
      "name": "calculatePriceOfGrlInUsd",
      "outputs": [
        {
          "internalType": "uint256",
          "name": "",
          "type": "uint256"
        }
      ],
      "stateMutability": "view",
      "type": "function"
    },
    {
      "inputs": [],
      "name": "ethUsdAggregatorAddress",
      "outputs": [
        {
          "internalType": "address",
          "name": "",
          "type": "address"
        }
      ],
      "stateMutability": "view",
      "type": "function"
    },
    {
      "inputs": [],
      "name": "getEthToUsdValue",
      "outputs": [
        {
          "internalType": "uint256",
          "name": "",
          "type": "uint256"
        }
      ],
      "stateMutability": "view",
      "type": "function"
    },
    {
      "inputs": [],
      "name": "getPriceOfGrlInEth",
      "outputs": [
        {
          "internalType": "uint256",
          "name": "",
          "type": "uint256"
        }
      ],
      "stateMutability": "view",
      "type": "function"
    },
    {
      "inputs": [
        {
          "internalType": "address",
          "name": "user",
          "type": "address"
        }
      ],
      "name": "getUserStakeCount",
      "outputs": [
        {
          "internalType": "uint256",
          "name": "",
          "type": "uint256"
        }
      ],
      "stateMutability": "view",
      "type": "function"
    },
    {
      "inputs": [
        {
          "internalType": "address",
          "name": "user",
          "type": "address"
        },
        {
          "internalType": "uint256",
          "name": "index",
          "type": "uint256"
        }
      ],
      "name": "getUserStakeDetails",
      "outputs": [
        {
          "internalType": "uint256",
          "name": "durationInDays",
          "type": "uint256"
        },
        {
          "internalType": "uint256",
          "name": "amount",
          "type": "uint256"
        },
        {
          "internalType": "uint256",
          "name": "timestamp",
          "type": "uint256"
        },
        {
          "internalType": "uint256",
          "name": "priceInUsd",
          "type": "uint256"
        },
        {
          "internalType": "uint256",
          "name": "amountInUsd",
          "type": "uint256"
        }
      ],
      "stateMutability": "view",
      "type": "function"
    },
    {
      "inputs": [],
      "name": "grlTokenAddress",
      "outputs": [
        {
          "internalType": "address",
          "name": "",
          "type": "address"
        }
      ],
      "stateMutability": "view",
      "type": "function"
    },
    {
      "inputs": [
        {
          "internalType": "address",
          "name": "",
          "type": "address"
        },
        {
          "internalType": "uint256",
          "name": "",
          "type": "uint256"
        }
      ],
      "name": "hasUnstaked",
      "outputs": [
        {
          "internalType": "bool",
          "name": "",
          "type": "bool"
        }
      ],
      "stateMutability": "view",
      "type": "function"
    },
    {
      "inputs": [
        {
          "internalType": "uint256",
          "name": "durationInDays",
          "type": "uint256"
        },
        {
          "internalType": "uint256",
          "name": "feePercentage",
          "type": "uint256"
        }
      ],
      "name": "setStakingFeePercentage",
      "outputs": [],
      "stateMutability": "nonpayable",
      "type": "function"
    },
    {
      "inputs": [
        {
          "internalType": "uint256",
          "name": "amount",
          "type": "uint256"
        },
        {
          "internalType": "uint256",
          "name": "durationInDays",
          "type": "uint256"
        }
      ],
      "name": "stakeGrl",
      "outputs": [],
      "stateMutability": "nonpayable",
      "type": "function"
    },
    {
      "inputs": [
        {
          "internalType": "uint256",
          "name": "",
          "type": "uint256"
        }
      ],
      "name": "stakingFeePercentage",
      "outputs": [
        {
          "internalType": "uint256",
          "name": "",
          "type": "uint256"
        }
      ],
      "stateMutability": "view",
      "type": "function"
    },
    {
      "inputs": [],
      "name": "totalStakedGrl",
      "outputs": [
        {
          "internalType": "uint256",
          "name": "",
          "type": "uint256"
        }
      ],
      "stateMutability": "view",
      "type": "function"
    },
    {
      "inputs": [],
      "name": "uniswapRouterAddress",
      "outputs": [
        {
          "internalType": "address",
          "name": "",
          "type": "address"
        }
      ],
      "stateMutability": "view",
      "type": "function"
    },
    {
      "inputs": [
        {
          "internalType": "uint256",
          "name": "index",
          "type": "uint256"
        }
      ],
      "name": "unstake",
      "outputs": [],
      "stateMutability": "nonpayable",
      "type": "function"
    },
    {
      "inputs": [
        {
          "internalType": "address",
          "name": "",
          "type": "address"
        },
        {
          "internalType": "uint256",
          "name": "",
          "type": "uint256"
        }
      ],
      "name": "userStakes",
      "outputs": [
        {
          "internalType": "uint256",
          "name": "durationInDays",
          "type": "uint256"
        },
        {
          "internalType": "uint256",
          "name": "amount",
          "type": "uint256"
        },
        {
          "internalType": "uint256",
          "name": "timestamp",
          "type": "uint256"
        },
        {
          "internalType": "uint256",
          "name": "priceInUsd",
          "type": "uint256"
        },
        {
          "internalType": "uint256",
          "name": "amountInUsd",
          "type": "uint256"
        }
      ],
      "stateMutability": "view",
      "type": "function"
    },
    {
      "inputs": [],
      "name": "wethAddress",
      "outputs": [
        {
          "internalType": "address",
          "name": "",
          "type": "address"
        }
      ],
      "stateMutability": "view",
      "type": "function"
    },
    {
      "inputs": [],
      "name": "withdrawGrl",
      "outputs": [],
      "stateMutability": "nonpayable",
      "type": "function"
    }
  ],
  "bytecode": "0x60806040523480156200001157600080fd5b506040516200166d3803806200166d833981016040819052620000349162000280565b60008054336001600160a01b03199182161782556001805482166001600160a01b03978816179055600280548216958716959095179094556003805485169386169390931790925560048054909316931692909217905560066020526205b8d87fb6ba906ff52451a7a924e2eaeb8aea3ebee7350a8703e5e417edb25358c7dcc155620895447f6ca6dcafc04b6e03616746c3528366f990e332021e35d59275be746d65cae0a755620bcd407f1727c0104c2870c3003671480695f7dab262614528b49265008e76fd3d48c5fe55620f1efa7f5451fe6494362676ddb91456d9957c85d968e6f82956407c931a14c023049e6a556201d4c07fc3a4f9c0cd86a77a5f703bc4c9de9055aca230e85714684c3c974483c02b22385562021ee87ffb78eb295a86b096b5f095822bd250a277112be4103ea4a7608d96eca726b2c15562025f537f11df4af1942cf2726df02c5b6882286fb2ac5339dae2c9d828aba6f527ff01dc556202955f7f88125b972f0a5956be604ede17ef20b4ea21225cb3a158bc1d14e1ae06dbbb54556202c1837fa005de1f4b235134f6a66019013c8498d7fe5d9c4a258bb57fe1485c0d4f3e3a556202e4d47fe35badbf25c63a5d1ab35b3ca6cb3f58b64f38e5dcf8f0175fb3933f138973f555620300a37f0e9cd98380dfef11ea41949b838e219023711089f2dc48dccc8af934d9269468556101689052620316487ff00a5d7dc5764c56ccd4375c9467b4afc0f9d6b53d77dfb27894bf31e07d5d8c55620002dd565b80516001600160a01b03811681146200027b57600080fd5b919050565b600080600080608085870312156200029757600080fd5b620002a28562000263565b9350620002b26020860162000263565b9250620002c26040860162000263565b9150620002d26060860162000263565b905092959194509250565b61138080620002ed6000396000f3fe608060405234801561001057600080fd5b50600436106101505760003560e01c806350f3845b116100cd578063b5d5b5fa11610081578063b9aa6ec411610066578063b9aa6ec4146102e7578063e4ba0d7b146102fa578063f851a4401461030d57600080fd5b8063b5d5b5fa146102a4578063b92d21c4146102df57600080fd5b8063851f7147116100b2578063851f714714610255578063ad9dbd271461025d578063aecb52571461029b57600080fd5b806350f3845b1461023a5780637a9970351461024257600080fd5b806326230e2f116101245780632e17de78116101095780632e17de781461020157806345aefbdb146102145780634f0e0ef31461022757600080fd5b806326230e2f146101d95780632e0f2625146101f957600080fd5b8062c3a272146101555780630b9b199d146101855780631b545a171461018f57806320ca3c7f146101c6575b600080fd5b600454610168906001600160a01b031681565b6040516001600160a01b0390911681526020015b60405180910390f35b61018d610320565b005b6101b861019d366004610f85565b6001600160a01b031660009081526007602052604090205490565b60405190815260200161017c565b600354610168906001600160a01b031681565b6101b86101e7366004610fa7565b60066020526000908152604090205481565b6101b8601281565b61018d61020f366004610fa7565b6104d8565b61018d610222366004610fc0565b6107e9565b600254610168906001600160a01b031681565b6101b8610abe565b61018d610250366004610fc0565b610be6565b6101b8610ca7565b61028b61026b366004610fe2565b600860209081526000928352604080842090915290825290205460ff1681565b604051901515815260200161017c565b6101b860055481565b6102b76102b2366004610fe2565b610d76565b604080519586526020860194909452928401919091526060830152608082015260a00161017c565b6101b8610dc4565b600154610168906001600160a01b031681565b6102b7610308366004610fe2565b610e04565b600054610168906001600160a01b031681565b6000546001600160a01b031633146103895760405162461bcd60e51b815260206004820152602160248201527f4f6e6c792061646d696e2063616e2063616c6c20746869732066756e6374696f6044820152603760f91b60648201526084015b60405180910390fd5b6001546040516370a0823160e01b81523060048201526000916001600160a01b0316906370a0823190602401602060405180830381865afa1580156103d2573d6000803e3d6000fd5b505050506040513d601f19601f820116820180604052508101906103f6919061100c565b9050600060055482610408919061103b565b90506000811161045a5760405162461bcd60e51b815260206004820152601060248201527f496e73756666696369656e742047524c000000000000000000000000000000006044820152606401610380565b60015460005460405163a9059cbb60e01b81526001600160a01b0391821660048201526024810184905291169063a9059cbb906044016020604051808303816000875af11580156104af573d6000803e3d6000fd5b505050506040513d601f19601f820116820180604052508101906104d3919061104e565b505050565b33600090815260086020908152604080832084845290915290205460ff16156105435760405162461bcd60e51b815260206004820152601660248201527f5374616b6520616c726561647920756e7374616b6564000000000000000000006044820152606401610380565b336000908152600760205260409020805482106105925760405162461bcd60e51b815260206004820152600d60248201526c092dcecc2d8d2c840d2dcc8caf609b1b6044820152606401610380565b60008183815481106105a6576105a6611070565b90600052602060002090600502019050806002015442116106f057600181015460006105d0610dc4565b905060008184600301546105e4919061103b565b9050801561061c57600384015460009061060283633b9aca00611086565b61060c91906110b3565b905061061881856110c7565b9350505b60015460405163a9059cbb60e01b8152336004820152602481018590526001600160a01b039091169063a9059cbb906044016020604051808303816000875af115801561066d573d6000803e3d6000fd5b505050506040513d601f19601f82011682018060405250810190610691919061104e565b503360008181526008602090815260408083208a8452825291829020805460ff1916600117905590518581527f0f5bb82176feb1b5e747e28471aa92156a04d9f3ab9f45f28e2d704232b93f75910160405180910390a25050506107c9565b600180549082015460405163a9059cbb60e01b815233600482015260248101919091526001600160a01b039091169063a9059cbb906044016020604051808303816000875af1158015610747573d6000803e3d6000fd5b505050506040513d601f19601f8201168201806040525081019061076b919061104e565b50336000818152600860209081526040808320878452825291829020805460ff1916600190811790915584015491519182527f0f5bb82176feb1b5e747e28471aa92156a04d9f3ab9f45f28e2d704232b93f75910160405180910390a25b8060010154600560008282546107df919061103b565b9091555050505050565b600082116108395760405162461bcd60e51b815260206004820152600e60248201527f496e76616c696420616d6f756e740000000000000000000000000000000000006044820152606401610380565b610844601e826110da565b156108845760405162461bcd60e51b815260206004820152601060248201526f24b73b30b634b210323ab930ba34b7b760811b6044820152606401610380565b600061088e610dc4565b9050600061089c8385610ec7565b905060006108aa828661103b565b90506000633b9aca006108bd8584611086565b6108c791906110b3565b6001546040516323b872dd60e01b8152336004820152306024820152604481018590529192506001600160a01b0316906323b872dd906064016020604051808303816000875af115801561091f573d6000803e3d6000fd5b505050506040513d601f19601f82011682018060405250810190610943919061104e565b50600061095186600a611086565b61095b90426110c7565b336000818152600760209081526040808320815160a0810183528c81528084018a8152818401888152606083018e8152608084018c8152855460018082018855968a52978920945160059098029094019687559151868501555160028601555160038501555160049384015554925490516323b872dd60e01b8152918201939093526001600160a01b0392831660248201526044810188905292935016906323b872dd906064016020604051808303816000875af1158015610a21573d6000803e3d6000fd5b505050506040513d601f19601f82011682018060405250810190610a45919061104e565b508260056000828254610a5891906110c7565b90915550506040805188815260208101889052908101829052606081018490526080810185905260a0810184905233907fc16be9a586414a157dd46b4d023aa9997a025dd1cbbaa67ac0c1b8273a5eaf559060c00160405180910390a250505050505050565b60408051600280825260608201835260009283929190602083019080368337505060015482519293506001600160a01b031691839150600090610b0357610b03611070565b6001600160a01b039283166020918202929092010152600254825191169082906001908110610b3457610b34611070565b6001600160a01b03928316602091820292909201015260035460405163d06ca61f60e01b8152911690600090829063d06ca61f90610b7c90633b9aca00908790600401611104565b600060405180830381865afa158015610b99573d6000803e3d6000fd5b505050506040513d6000823e601f3d908101601f19168201604052610bc1919081019061115b565b905080600181518110610bd657610bd6611070565b6020026020010151935050505090565b6000546001600160a01b03163314610c4a5760405162461bcd60e51b815260206004820152602160248201527f4f6e6c792061646d696e2063616e2063616c6c20746869732066756e6374696f6044820152603760f91b6064820152608401610380565b610c55601e836110da565b15610c955760405162461bcd60e51b815260206004820152601060248201526f24b73b30b634b210323ab930ba34b7b760811b6044820152606401610380565b60009182526006602052604090912055565b6004805460408051633fabe5a360e21b815290516000936001600160a01b03909316928492849263feaf968c928281019260a09291908290030181865afa158015610cf6573d6000803e3d6000fd5b505050506040513d601f19601f82011682018060405250810190610d1a9190611233565b50505091505060008113610d705760405162461bcd60e51b815260206004820152601560248201527f496e76616c6964204554482f55534420707269636500000000000000000000006044820152606401610380565b92915050565b60076020528160005260406000208181548110610d9257600080fd5b600091825260209091206005909102018054600182015460028301546003840154600490940154929550909350919085565b600080610dcf610ca7565b90506000610ddb610abe565b9050610de96012600a611367565b610df38383611086565b610dfd91906110b3565b9250505090565b6001600160a01b03821660009081526007602052604081205481908190819081908610610e635760405162461bcd60e51b815260206004820152600d60248201526c092dcecc2d8d2c840d2dcc8caf609b1b6044820152606401610380565b6001600160a01b0387166000908152600760205260408120805488908110610e8d57610e8d611070565b600091825260209091206005909102018054600182015460028301546003840154600490940154929c919b50995091975095509350505050565b60008281526006602052604081205480610f495760405162461bcd60e51b815260206004820152602860248201527f4665652070657263656e74616765206e6f742073657420666f7220746869732060448201527f6475726174696f6e0000000000000000000000000000000000000000000000006064820152608401610380565b62989680610f578285611086565b610f6191906110b3565b949350505050565b80356001600160a01b0381168114610f8057600080fd5b919050565b600060208284031215610f9757600080fd5b610fa082610f69565b9392505050565b600060208284031215610fb957600080fd5b5035919050565b60008060408385031215610fd357600080fd5b50508035926020909101359150565b60008060408385031215610ff557600080fd5b610ffe83610f69565b946020939093013593505050565b60006020828403121561101e57600080fd5b5051919050565b634e487b7160e01b600052601160045260246000fd5b81810381811115610d7057610d70611025565b60006020828403121561106057600080fd5b81518015158114610fa057600080fd5b634e487b7160e01b600052603260045260246000fd5b8082028115828204841417610d7057610d70611025565b634e487b7160e01b600052601260045260246000fd5b6000826110c2576110c261109d565b500490565b80820180821115610d7057610d70611025565b6000826110e9576110e961109d565b500690565b634e487b7160e01b600052604160045260246000fd5b6000604082018483526020604081850152818551808452606086019150828701935060005b8181101561114e5784516001600160a01b031683529383019391830191600101611129565b5090979650505050505050565b6000602080838503121561116e57600080fd5b825167ffffffffffffffff8082111561118657600080fd5b818501915085601f83011261119a57600080fd5b8151818111156111ac576111ac6110ee565b8060051b604051601f19603f830116810181811085821117156111d1576111d16110ee565b6040529182528482019250838101850191888311156111ef57600080fd5b938501935b8285101561120d578451845293850193928501926111f4565b98975050505050505050565b805169ffffffffffffffffffff81168114610f8057600080fd5b600080600080600060a0868803121561124b57600080fd5b61125486611219565b945060208601519350604086015192506060860151915061127760808701611219565b90509295509295909350565b600181815b808511156112be5781600019048211156112a4576112a4611025565b808516156112b157918102915b93841c9390800290611288565b509250929050565b6000826112d557506001610d70565b816112e257506000610d70565b81600181146112f857600281146113025761131e565b6001915050610d70565b60ff84111561131357611313611025565b50506001821b610d70565b5060208310610133831016604e8410600b8410161715611341575081810a610d70565b61134b8383611283565b806000190482111561135f5761135f611025565b029392505050565b6000610fa083836112c656fea164736f6c6343000814000a",
  "linkReferences": {},
  "deployedLinkReferences": {}
}