{
  "_format": "hh-sol-artifact-1",
  "contractName": "Greelance",
  "sourceName": "contracts/Greelance.sol",
  "abi": [
    {
      "inputs": [],
      "stateMutability": "nonpayable",
      "type": "constructor"
    },
    {
      "anonymous": false,
      "inputs": [
        {
          "indexed": true,
          "internalType": "address",
          "name": "owner",
          "type": "address"
        },
        {
          "indexed": true,
          "internalType": "address",
          "name": "spender",
          "type": "address"
        },
        {
          "indexed": false,
          "internalType": "uint256",
          "name": "value",
          "type": "uint256"
        }
      ],
      "name": "Approval",
      "type": "event"
    },
    {
      "anonymous": false,
      "inputs": [
        {
          "indexed": true,
          "internalType": "address",
          "name": "account",
          "type": "address"
        },
        {
          "indexed": false,
          "internalType": "bool",
          "name": "isExcluded",
          "type": "bool"
        }
      ],
      "name": "ExcludeFromFees",
      "type": "event"
    },
    {
      "anonymous": false,
      "inputs": [
        {
          "indexed": true,
          "internalType": "address",
          "name": "previousOwner",
          "type": "address"
        },
        {
          "indexed": true,
          "internalType": "address",
          "name": "newOwner",
          "type": "address"
        }
      ],
      "name": "OwnershipTransferred",
      "type": "event"
    },
    {
      "anonymous": false,
      "inputs": [
        {
          "indexed": true,
          "internalType": "address",
          "name": "from",
          "type": "address"
        },
        {
          "indexed": true,
          "internalType": "address",
          "name": "to",
          "type": "address"
        },
        {
          "indexed": false,
          "internalType": "uint256",
          "name": "value",
          "type": "uint256"
        }
      ],
      "name": "Transfer",
      "type": "event"
    },
    {
      "inputs": [
        {
          "internalType": "address",
          "name": "owner",
          "type": "address"
        },
        {
          "internalType": "address",
          "name": "spender",
          "type": "address"
        }
      ],
      "name": "allowance",
      "outputs": [
        {
          "internalType": "uint256",
          "name": "",
          "type": "uint256"
        }
      ],
      "stateMutability": "view",
      "type": "function"
    },
    {
      "inputs": [
        {
          "internalType": "address",
          "name": "spender",
          "type": "address"
        },
        {
          "internalType": "uint256",
          "name": "amount",
          "type": "uint256"
        }
      ],
      "name": "approve",
      "outputs": [
        {
          "internalType": "bool",
          "name": "",
          "type": "bool"
        }
      ],
      "stateMutability": "nonpayable",
      "type": "function"
    },
    {
      "inputs": [
        {
          "internalType": "address",
          "name": "account",
          "type": "address"
        }
      ],
      "name": "balanceOf",
      "outputs": [
        {
          "internalType": "uint256",
          "name": "",
          "type": "uint256"
        }
      ],
      "stateMutability": "view",
      "type": "function"
    },
    {
      "inputs": [],
      "name": "decimals",
      "outputs": [
        {
          "internalType": "uint8",
          "name": "",
          "type": "uint8"
        }
      ],
      "stateMutability": "view",
      "type": "function"
    },
    {
      "inputs": [
        {
          "internalType": "address",
          "name": "spender",
          "type": "address"
        },
        {
          "internalType": "uint256",
          "name": "subtractedValue",
          "type": "uint256"
        }
      ],
      "name": "decreaseAllowance",
      "outputs": [
        {
          "internalType": "bool",
          "name": "",
          "type": "bool"
        }
      ],
      "stateMutability": "nonpayable",
      "type": "function"
    },
    {
      "inputs": [],
      "name": "disable24HrsRestriction",
      "outputs": [],
      "stateMutability": "nonpayable",
      "type": "function"
    },
    {
      "inputs": [],
      "name": "enable24HrsRestriction",
      "outputs": [],
      "stateMutability": "nonpayable",
      "type": "function"
    },
    {
      "inputs": [],
      "name": "enableTrading",
      "outputs": [],
      "stateMutability": "nonpayable",
      "type": "function"
    },
    {
      "inputs": [
        {
          "internalType": "address",
          "name": "account",
          "type": "address"
        }
      ],
      "name": "excludeFromFees",
      "outputs": [],
      "stateMutability": "nonpayable",
      "type": "function"
    },
    {
      "inputs": [
        {
          "internalType": "address",
          "name": "spender",
          "type": "address"
        },
        {
          "internalType": "uint256",
          "name": "addedValue",
          "type": "uint256"
        }
      ],
      "name": "increaseAllowance",
      "outputs": [
        {
          "internalType": "bool",
          "name": "",
          "type": "bool"
        }
      ],
      "stateMutability": "nonpayable",
      "type": "function"
    },
    {
      "inputs": [
        {
          "internalType": "address",
          "name": "account",
          "type": "address"
        }
      ],
      "name": "isExcludedFromFees",
      "outputs": [
        {
          "internalType": "bool",
          "name": "",
          "type": "bool"
        }
      ],
      "stateMutability": "view",
      "type": "function"
    },
    {
      "inputs": [
        {
          "internalType": "address",
          "name": "",
          "type": "address"
        }
      ],
      "name": "lastTradeTime",
      "outputs": [
        {
          "internalType": "uint256",
          "name": "",
          "type": "uint256"
        }
      ],
      "stateMutability": "view",
      "type": "function"
    },
    {
      "inputs": [],
      "name": "maxSellableAmount",
      "outputs": [
        {
          "internalType": "uint256",
          "name": "",
          "type": "uint256"
        }
      ],
      "stateMutability": "view",
      "type": "function"
    },
    {
      "inputs": [],
      "name": "maxSellableRestrictionEnabled",
      "outputs": [
        {
          "internalType": "bool",
          "name": "",
          "type": "bool"
        }
      ],
      "stateMutability": "view",
      "type": "function"
    },
    {
      "inputs": [],
      "name": "mint",
      "outputs": [],
      "stateMutability": "nonpayable",
      "type": "function"
    },
    {
      "inputs": [],
      "name": "name",
      "outputs": [
        {
          "internalType": "string",
          "name": "",
          "type": "string"
        }
      ],
      "stateMutability": "view",
      "type": "function"
    },
    {
      "inputs": [],
      "name": "owner",
      "outputs": [
        {
          "internalType": "address",
          "name": "",
          "type": "address"
        }
      ],
      "stateMutability": "view",
      "type": "function"
    },
    {
      "inputs": [],
      "name": "removeMaxSellableRestriction",
      "outputs": [],
      "stateMutability": "nonpayable",
      "type": "function"
    },
    {
      "inputs": [],
      "name": "renounceOwnership",
      "outputs": [],
      "stateMutability": "nonpayable",
      "type": "function"
    },
    {
      "inputs": [
        {
          "internalType": "uint256",
          "name": "_taxAmount",
          "type": "uint256"
        }
      ],
      "name": "setBuyTaxPercentage",
      "outputs": [],
      "stateMutability": "nonpayable",
      "type": "function"
    },
    {
      "inputs": [
        {
          "internalType": "uint256",
          "name": "_maxAmount",
          "type": "uint256"
        }
      ],
      "name": "setMaxSellableAmount",
      "outputs": [],
      "stateMutability": "nonpayable",
      "type": "function"
    },
    {
      "inputs": [
        {
          "internalType": "uint256",
          "name": "_taxAmount",
          "type": "uint256"
        }
      ],
      "name": "setSellTaxPercentage",
      "outputs": [],
      "stateMutability": "nonpayable",
      "type": "function"
    },
    {
      "inputs": [
        {
          "internalType": "address",
          "name": "_uniswapV2Pair",
          "type": "address"
        }
      ],
      "name": "setUniswapPair",
      "outputs": [],
      "stateMutability": "nonpayable",
      "type": "function"
    },
    {
      "inputs": [],
      "name": "symbol",
      "outputs": [
        {
          "internalType": "string",
          "name": "",
          "type": "string"
        }
      ],
      "stateMutability": "view",
      "type": "function"
    },
    {
      "inputs": [],
      "name": "taxCollector",
      "outputs": [
        {
          "internalType": "address",
          "name": "",
          "type": "address"
        }
      ],
      "stateMutability": "view",
      "type": "function"
    },
    {
      "inputs": [],
      "name": "taxFeeOnBuy",
      "outputs": [
        {
          "internalType": "uint256",
          "name": "",
          "type": "uint256"
        }
      ],
      "stateMutability": "view",
      "type": "function"
    },
    {
      "inputs": [],
      "name": "taxFeeOnSell",
      "outputs": [
        {
          "internalType": "uint256",
          "name": "",
          "type": "uint256"
        }
      ],
      "stateMutability": "view",
      "type": "function"
    },
    {
      "inputs": [],
      "name": "totalSupply",
      "outputs": [
        {
          "internalType": "uint256",
          "name": "",
          "type": "uint256"
        }
      ],
      "stateMutability": "view",
      "type": "function"
    },
    {
      "inputs": [],
      "name": "trading24HrsRestrictionEnabled",
      "outputs": [
        {
          "internalType": "bool",
          "name": "",
          "type": "bool"
        }
      ],
      "stateMutability": "view",
      "type": "function"
    },
    {
      "inputs": [],
      "name": "tradingEnabled",
      "outputs": [
        {
          "internalType": "bool",
          "name": "",
          "type": "bool"
        }
      ],
      "stateMutability": "view",
      "type": "function"
    },
    {
      "inputs": [
        {
          "internalType": "address",
          "name": "",
          "type": "address"
        }
      ],
      "name": "tradingIn24Hours",
      "outputs": [
        {
          "internalType": "uint256",
          "name": "",
          "type": "uint256"
        }
      ],
      "stateMutability": "view",
      "type": "function"
    },
    {
      "inputs": [
        {
          "internalType": "address",
          "name": "recipient",
          "type": "address"
        },
        {
          "internalType": "uint256",
          "name": "amount",
          "type": "uint256"
        }
      ],
      "name": "transfer",
      "outputs": [
        {
          "internalType": "bool",
          "name": "",
          "type": "bool"
        }
      ],
      "stateMutability": "nonpayable",
      "type": "function"
    },
    {
      "inputs": [
        {
          "internalType": "address",
          "name": "sender",
          "type": "address"
        },
        {
          "internalType": "address",
          "name": "recipient",
          "type": "address"
        },
        {
          "internalType": "uint256",
          "name": "amount",
          "type": "uint256"
        }
      ],
      "name": "transferFrom",
      "outputs": [
        {
          "internalType": "bool",
          "name": "",
          "type": "bool"
        }
      ],
      "stateMutability": "nonpayable",
      "type": "function"
    },
    {
      "inputs": [
        {
          "internalType": "address",
          "name": "newOwner",
          "type": "address"
        }
      ],
      "name": "transferOwnership",
      "outputs": [],
      "stateMutability": "nonpayable",
      "type": "function"
    },
    {
      "inputs": [],
      "name": "uniswapV2Pair",
      "outputs": [
        {
          "internalType": "address",
          "name": "",
          "type": "address"
        }
      ],
      "stateMutability": "view",
      "type": "function"
    },
    {
      "stateMutability": "payable",
      "type": "receive"
    }
  ],
  "bytecode": "0x6080604052600a805460ff60a81b19169055600c805461ffff191690553480156200002957600080fd5b5060405180604001604052806009815260200168477265656c616e636560b81b8152506040518060400160405280600381526020016211d49360ea1b8152508160039081620000799190620001eb565b506004620000888282620001eb565b50505060006200009d6200014260201b60201c565b600580546001600160a01b0319166001600160a01b038316908117909155604051919250906000907f8be0079c531659141344cd1fd0a4f28419497f9722a3daafe3b4186f6b6457e0908290a350600554600a80546001600160a01b0319166001600160a01b039092169182179055600090815260076020526040808220805460ff1990811660019081179092553084529190922080549091169091179055620002b7565b3390565b634e487b7160e01b600052604160045260246000fd5b600181811c908216806200017157607f821691505b6020821081036200019257634e487b7160e01b600052602260045260246000fd5b50919050565b601f821115620001e657600081815260208120601f850160051c81016020861015620001c15750805b601f850160051c820191505b81811015620001e257828155600101620001cd565b5050505b505050565b81516001600160401b0381111562000207576200020762000146565b6200021f816200021884546200015c565b8462000198565b602080601f8311600181146200025757600084156200023e5750858301515b600019600386901b1c1916600185901b178555620001e2565b600085815260208120601f198616915b82811015620002885788860151825594840194600190910190840162000267565b5085821015620002a75787850151600019600388901b60f8161c191681555b5050505050600190811b01905550565b611cbc80620002c76000396000f3fe6080604052600436106102385760003560e01c80636da492dc11610138578063a457c2d7116100b0578063bea1dcf81161007f578063dd62ed3e11610064578063dd62ed3e1461064a578063e57f14e114610690578063f2fde38b146106b057600080fd5b8063bea1dcf81461060a578063d5aed6bf1461062a57600080fd5b8063a457c2d714610594578063a56d37f9146105b4578063a9059cbb146105d4578063ab4ebc1e146105f457600080fd5b80638d6366fe1161010757806395d89b41116100ec57806395d89b41146105495780639c0b9d741461055e5780639ec4be411461057457600080fd5b80638d6366fe146105115780638da5cb5b1461052b57600080fd5b80636da492dc1461049c57806370a08231146104b1578063715018a6146104e75780638a8c523c146104fc57600080fd5b80632efa788b116101cb5780634ab3bdcb1161019a5780634fbee1931161017f5780634fbee19314610420578063537eed3414610459578063630a8a0c1461046f57600080fd5b80634ab3bdcb146103df5780634ada218b146103ff57600080fd5b80632efa788b14610356578063313ce5671461036b578063395093511461038757806349bd5a5e146103a757600080fd5b80631249c58b116102075780631249c58b146102ed578063142bc8581461030257806318160ddd1461032157806323b872dd1461033657600080fd5b806303186eef1461024457806306fdde03146102845780630907ea0b146102a6578063095ea7b3146102bd57600080fd5b3661023f57005b600080fd5b34801561025057600080fd5b5061027161025f3660046119cb565b600e6020526000908152604090205481565b6040519081526020015b60405180910390f35b34801561029057600080fd5b506102996106d0565b60405161027b91906119ed565b3480156102b257600080fd5b506102bb610762565b005b3480156102c957600080fd5b506102dd6102d8366004611a3b565b6107bc565b604051901515815260200161027b565b3480156102f957600080fd5b506102bb6107d3565b34801561030e57600080fd5b50600c546102dd90610100900460ff1681565b34801561032d57600080fd5b50600254610271565b34801561034257600080fd5b506102dd610351366004611a65565b6108d9565b34801561036257600080fd5b506102bb61099f565b34801561037757600080fd5b506040516009815260200161027b565b34801561039357600080fd5b506102dd6103a2366004611a3b565b6109f8565b3480156103b357600080fd5b506006546103c7906001600160a01b031681565b6040516001600160a01b03909116815260200161027b565b3480156103eb57600080fd5b506102bb6103fa366004611aa1565b610a34565b34801561040b57600080fd5b50600a546102dd90600160a01b900460ff1681565b34801561042c57600080fd5b506102dd61043b3660046119cb565b6001600160a01b031660009081526007602052604090205460ff1690565b34801561046557600080fd5b50610271600b5481565b34801561047b57600080fd5b5061027161048a3660046119cb565b600d6020526000908152604090205481565b3480156104a857600080fd5b506102bb610ade565b3480156104bd57600080fd5b506102716104cc3660046119cb565b6001600160a01b031660009081526020819052604090205490565b3480156104f357600080fd5b506102bb610b32565b34801561050857600080fd5b506102bb610bd1565b34801561051d57600080fd5b50600c546102dd9060ff1681565b34801561053757600080fd5b506005546001600160a01b03166103c7565b34801561055557600080fd5b50610299610ca3565b34801561056a57600080fd5b5061027160095481565b34801561058057600080fd5b506102bb61058f366004611aa1565b610cb2565b3480156105a057600080fd5b506102dd6105af366004611a3b565b610d50565b3480156105c057600080fd5b506102bb6105cf366004611aa1565b610e01565b3480156105e057600080fd5b506102dd6105ef366004611a3b565b610e9f565b34801561060057600080fd5b5061027160085481565b34801561061657600080fd5b50600a546103c7906001600160a01b031681565b34801561063657600080fd5b506102bb6106453660046119cb565b610eac565b34801561065657600080fd5b50610271610665366004611aba565b6001600160a01b03918216600090815260016020908152604080832093909416825291909152205490565b34801561069c57600080fd5b506102bb6106ab3660046119cb565b610f23565b3480156106bc57600080fd5b506102bb6106cb3660046119cb565b611031565b6060600380546106df90611aed565b80601f016020809104026020016040519081016040528092919081815260200182805461070b90611aed565b80156107585780601f1061072d57610100808354040283529160200191610758565b820191906000526020600020905b81548152906001019060200180831161073b57829003601f168201915b5050505050905090565b6005546001600160a01b031633146107af5760405162461bcd60e51b81526020600482018190526024820152600080516020611c9083398151915260448201526064015b60405180910390fd5b600c805461ff0019169055565b60006107c933848461115e565b5060015b92915050565b6005546001600160a01b0316331461081b5760405162461bcd60e51b81526020600482018190526024820152600080516020611c9083398151915260448201526064016107a6565b600a54600160a81b900460ff16156108755760405162461bcd60e51b815260206004820152601660248201527f546f6b656e7320616c7265616479206d696e746564210000000000000000000060448201526064016107a6565b600a80547fffffffffffffffffffff00ffffffffffffffffffffffffffffffffffffffffff16600160a81b1790556108d76108b86005546001600160a01b031690565b6108c46009600a611c21565b6108d2906377359400611c30565b611282565b565b6001600160a01b03831660009081526001602090815260408083203384529091528120546000198114610989578281101561097c5760405162461bcd60e51b815260206004820152602860248201527f45524332303a207472616e7366657220616d6f756e742065786365656473206160448201527f6c6c6f77616e636500000000000000000000000000000000000000000000000060648201526084016107a6565b610989853385840361115e565b610994858585611361565b506001949350505050565b6005546001600160a01b031633146109e75760405162461bcd60e51b81526020600482018190526024820152600080516020611c9083398151915260448201526064016107a6565b600c805461ff001916610100179055565b3360008181526001602090815260408083206001600160a01b038716845290915281205490916107c9918590610a2f908690611c47565b61115e565b6005546001600160a01b03163314610a7c5760405162461bcd60e51b81526020600482018190526024820152600080516020611c9083398151915260448201526064016107a6565b60008111610acc5760405162461bcd60e51b815260206004820152600f60248201527f496e76616c696420616d6f756e7421000000000000000000000000000000000060448201526064016107a6565b600b55600c805460ff19166001179055565b6005546001600160a01b03163314610b265760405162461bcd60e51b81526020600482018190526024820152600080516020611c9083398151915260448201526064016107a6565b600c805460ff19169055565b6005546001600160a01b03163314610b7a5760405162461bcd60e51b81526020600482018190526024820152600080516020611c9083398151915260448201526064016107a6565b6005546040516000916001600160a01b0316907f8be0079c531659141344cd1fd0a4f28419497f9722a3daafe3b4186f6b6457e0908390a36005805473ffffffffffffffffffffffffffffffffffffffff19169055565b6005546001600160a01b03163314610c195760405162461bcd60e51b81526020600482018190526024820152600080516020611c9083398151915260448201526064016107a6565b600a54600160a01b900460ff1615610c735760405162461bcd60e51b815260206004820152601860248201527f54726164696e6720616c726561647920656e61626c65642e000000000000000060448201526064016107a6565b600a80547fffffffffffffffffffffff00ffffffffffffffffffffffffffffffffffffffff16600160a01b179055565b6060600480546106df90611aed565b6005546001600160a01b03163314610cfa5760405162461bcd60e51b81526020600482018190526024820152600080516020611c9083398151915260448201526064016107a6565b6014811115610d4b5760405162461bcd60e51b815260206004820152601560248201527f546178206e6f74206d6f7265207468616e20323021000000000000000000000060448201526064016107a6565b600955565b3360009081526001602090815260408083206001600160a01b038616845290915281205482811015610dea5760405162461bcd60e51b815260206004820152602560248201527f45524332303a2064656372656173656420616c6c6f77616e63652062656c6f7760448201527f207a65726f00000000000000000000000000000000000000000000000000000060648201526084016107a6565b610df7338585840361115e565b5060019392505050565b6005546001600160a01b03163314610e495760405162461bcd60e51b81526020600482018190526024820152600080516020611c9083398151915260448201526064016107a6565b6014811115610e9a5760405162461bcd60e51b815260206004820152601560248201527f546178206e6f74206d6f7265207468616e20323021000000000000000000000060448201526064016107a6565b600855565b60006107c9338484611361565b6005546001600160a01b03163314610ef45760405162461bcd60e51b81526020600482018190526024820152600080516020611c9083398151915260448201526064016107a6565b6006805473ffffffffffffffffffffffffffffffffffffffff19166001600160a01b0392909216919091179055565b6005546001600160a01b03163314610f6b5760405162461bcd60e51b81526020600482018190526024820152600080516020611c9083398151915260448201526064016107a6565b6001600160a01b03811660009081526007602052604090205460ff1615610fd45760405162461bcd60e51b815260206004820152601860248201527f4163636f756e7420616c7265616479206578636c75646564000000000000000060448201526064016107a6565b6001600160a01b038116600081815260076020908152604091829020805460ff1916600190811790915591519182527f9d8f7706ea1113d1a167b526eca956215946dd36cc7df39eb16180222d8b5df7910160405180910390a250565b6005546001600160a01b031633146110795760405162461bcd60e51b81526020600482018190526024820152600080516020611c9083398151915260448201526064016107a6565b6001600160a01b0381166110f55760405162461bcd60e51b815260206004820152602660248201527f4f776e61626c653a206e6577206f776e657220697320746865207a65726f206160448201527f646472657373000000000000000000000000000000000000000000000000000060648201526084016107a6565b6005546040516001600160a01b038084169216907f8be0079c531659141344cd1fd0a4f28419497f9722a3daafe3b4186f6b6457e090600090a36005805473ffffffffffffffffffffffffffffffffffffffff19166001600160a01b0392909216919091179055565b6001600160a01b0383166111c05760405162461bcd60e51b8152602060048201526024808201527f45524332303a20617070726f76652066726f6d20746865207a65726f206164646044820152637265737360e01b60648201526084016107a6565b6001600160a01b0382166112215760405162461bcd60e51b815260206004820152602260248201527f45524332303a20617070726f766520746f20746865207a65726f206164647265604482015261737360f01b60648201526084016107a6565b6001600160a01b0383811660008181526001602090815260408083209487168084529482529182902085905590518481527f8c5be1e5ebec7d5bd14f71427d1e84f3dd0314c0f7b2291e5b200ac8c7c3b925910160405180910390a3505050565b6001600160a01b0382166112d85760405162461bcd60e51b815260206004820152601f60248201527f45524332303a206d696e7420746f20746865207a65726f20616464726573730060448201526064016107a6565b80600260008282546112ea9190611c47565b90915550506001600160a01b03821660009081526020819052604081208054839290611317908490611c47565b90915550506040518181526001600160a01b038316906000907fddf252ad1be2c89b69c2b068fc378daa952ba7f163c4a11628f55a4df523b3ef9060200160405180910390a35050565b6001600160a01b0383166113c55760405162461bcd60e51b815260206004820152602560248201527f45524332303a207472616e736665722066726f6d20746865207a65726f206164604482015264647265737360d81b60648201526084016107a6565b6001600160a01b0382166114275760405162461bcd60e51b815260206004820152602360248201527f45524332303a207472616e7366657220746f20746865207a65726f206164647260448201526265737360e81b60648201526084016107a6565b600a54600160a01b900460ff168061145757506001600160a01b03831660009081526007602052604090205460ff165b8061147a57506001600160a01b03821660009081526007602052604090205460ff165b6114c65760405162461bcd60e51b815260206004820152601860248201527f54726164696e67206e6f742079657420656e61626c656421000000000000000060448201526064016107a6565b806000036114f8576114da838360006117c9565b50506001600160a01b03166000908152600e60205260409020429055565b6001600160a01b03831660009081526007602052604081205460ff168061153757506001600160a01b03831660009081526007602052604090205460ff165b159050600081611548576000611580565b6006546064906001600160a01b038781169116146115685760095461156c565b6008545b6115769085611c30565b6115809190611c5a565b90508115611773576006546001600160a01b0386811691161461177357600c5460ff161561162057600b548311156116205760405162461bcd60e51b815260206004820152602860248201527f416d6f756e742069732067726561746572207468616e204d617853656c6c616260448201527f6c65416d6f756e7400000000000000000000000000000000000000000000000060648201526084016107a6565b600c54610100900460ff161561177357600c5460ff16801561166857506001600160a01b0385166000908152600e602052604090205462015180906116659042611c7c565b10155b1561168b576001600160a01b0385166000908152600d602052604081205561173a565b600b546001600160a01b0386166000908152600d60205260409020546116b2908590611c47565b111561173a576001600160a01b0385166000908152600e602052604090205462015180906116e09042611c7c565b101561173a5760405162461bcd60e51b815260206004820152602360248201527f5472616e736665722072657374726963746564206265666f726520323420686f60448201526275727360e81b60648201526084016107a6565b600c5460ff1615611773576001600160a01b0385166000908152600d60205260408120805485929061176d908490611c47565b90915550505b801561179e57600a546117919086906001600160a01b0316836117c9565b61179b8184611c7c565b92505b6117a98585856117c9565b505050506001600160a01b03166000908152600e60205260409020429055565b6001600160a01b03831661182d5760405162461bcd60e51b815260206004820152602560248201527f45524332303a207472616e736665722066726f6d20746865207a65726f206164604482015264647265737360d81b60648201526084016107a6565b6001600160a01b03821661188f5760405162461bcd60e51b815260206004820152602360248201527f45524332303a207472616e7366657220746f20746865207a65726f206164647260448201526265737360e81b60648201526084016107a6565b6001600160a01b0383166000908152602081905260409020548181101561191e5760405162461bcd60e51b815260206004820152602660248201527f45524332303a207472616e7366657220616d6f756e742065786365656473206260448201527f616c616e6365000000000000000000000000000000000000000000000000000060648201526084016107a6565b6001600160a01b03808516600090815260208190526040808220858503905591851681529081208054849290611955908490611c47565b92505081905550826001600160a01b0316846001600160a01b03167fddf252ad1be2c89b69c2b068fc378daa952ba7f163c4a11628f55a4df523b3ef846040516119a191815260200190565b60405180910390a350505050565b80356001600160a01b03811681146119c657600080fd5b919050565b6000602082840312156119dd57600080fd5b6119e6826119af565b9392505050565b600060208083528351808285015260005b81811015611a1a578581018301518582016040015282016119fe565b506000604082860101526040601f19601f8301168501019250505092915050565b60008060408385031215611a4e57600080fd5b611a57836119af565b946020939093013593505050565b600080600060608486031215611a7a57600080fd5b611a83846119af565b9250611a91602085016119af565b9150604084013590509250925092565b600060208284031215611ab357600080fd5b5035919050565b60008060408385031215611acd57600080fd5b611ad6836119af565b9150611ae4602084016119af565b90509250929050565b600181811c90821680611b0157607f821691505b602082108103611b2157634e487b7160e01b600052602260045260246000fd5b50919050565b634e487b7160e01b600052601160045260246000fd5b600181815b80851115611b78578160001904821115611b5e57611b5e611b27565b80851615611b6b57918102915b93841c9390800290611b42565b509250929050565b600082611b8f575060016107cd565b81611b9c575060006107cd565b8160018114611bb25760028114611bbc57611bd8565b60019150506107cd565b60ff841115611bcd57611bcd611b27565b50506001821b6107cd565b5060208310610133831016604e8410600b8410161715611bfb575081810a6107cd565b611c058383611b3d565b8060001904821115611c1957611c19611b27565b029392505050565b60006119e660ff841683611b80565b80820281158282048414176107cd576107cd611b27565b808201808211156107cd576107cd611b27565b600082611c7757634e487b7160e01b600052601260045260246000fd5b500490565b818103818111156107cd576107cd611b2756fe4f776e61626c653a2063616c6c6572206973206e6f7420746865206f776e6572a164736f6c6343000814000a",
  "linkReferences": {},
  "deployedLinkReferences": {}
}