{
	"data": {
		"bytecode": {
			"linkReferences": {},
			"object": "608060405234801562000010575f80fd5b5060405162001a9538038062001a9583398181016040528101906200003691906200022f565b335f806101000a81548173ffffffffffffffffffffffffffffffffffffffff021916908373ffffffffffffffffffffffffffffffffffffffff1602179055508360015f6101000a81548173ffffffffffffffffffffffffffffffffffffffff021916908373ffffffffffffffffffffffffffffffffffffffff1602179055508260025f6101000a81548173ffffffffffffffffffffffffffffffffffffffff021916908373ffffffffffffffffffffffffffffffffffffffff1602179055508160035f6101000a81548173ffffffffffffffffffffffffffffffffffffffff021916908373ffffffffffffffffffffffffffffffffffffffff1602179055508060045f6101000a81548173ffffffffffffffffffffffffffffffffffffffff021916908373ffffffffffffffffffffffffffffffffffffffff160217905550610ea660055f601e81526020019081526020015f20819055506115f960055f603c81526020019081526020015f2081905550611e3660055f605a81526020019081526020015f2081905550505050506200029e565b5f80fd5b5f73ffffffffffffffffffffffffffffffffffffffff82169050919050565b5f620001f982620001ce565b9050919050565b6200020b81620001ed565b811462000216575f80fd5b50565b5f81519050620002298162000200565b92915050565b5f805f80608085870312156200024a5762000249620001ca565b5b5f620002598782880162000219565b94505060206200026c8782880162000219565b93505060406200027f8782880162000219565b9250506060620002928782880162000219565b91505092959194509250565b6117e980620002ac5f395ff3fe608060405234801561000f575f80fd5b50600436106100f2575f3560e01c806350f3845b11610095578063b5d5b5fa11610064578063b5d5b5fa1461025e578063b92d21c414610292578063b9aa6ec4146102b0578063f851a440146102ce576100f2565b806350f3845b146101ea5780637a997035146102085780637b0472f014610224578063851f714714610240576100f2565b806326230e2f116100d157806326230e2f146101625780632e0f2625146101925780632e17de78146101b05780634f0e0ef3146101cc576100f2565b8062c3a272146100f65780631b545a171461011457806320ca3c7f14610144575b5f80fd5b6100fe6102ec565b60405161010b9190610c7f565b60405180910390f35b61012e60048036038101906101299190610cd3565b610311565b60405161013b9190610d16565b60405180910390f35b61014c61035a565b6040516101599190610c7f565b60405180910390f35b61017c60048036038101906101779190610d59565b61037f565b6040516101899190610d16565b60405180910390f35b61019a610394565b6040516101a79190610d16565b60405180910390f35b6101ca60048036038101906101c59190610d59565b610399565b005b6101d4610500565b6040516101e19190610c7f565b60405180910390f35b6101f2610525565b6040516101ff9190610d16565b60405180910390f35b610222600480360381019061021d9190610d84565b61071f565b005b61023e60048036038101906102399190610d84565b610814565b005b610248610a10565b6040516102559190610d16565b60405180910390f35b61027860048036038101906102739190610dc2565b610af0565b604051610289959493929190610e00565b60405180910390f35b61029a610b3c565b6040516102a79190610d16565b60405180910390f35b6102b8610b7e565b6040516102c59190610c7f565b60405180910390f35b6102d6610ba3565b6040516102e39190610c7f565b60405180910390f35b60045f9054906101000a900473ffffffffffffffffffffffffffffffffffffffff1681565b5f60065f8373ffffffffffffffffffffffffffffffffffffffff1673ffffffffffffffffffffffffffffffffffffffff1681526020019081526020015f20805490509050919050565b60035f9054906101000a900473ffffffffffffffffffffffffffffffffffffffff1681565b6005602052805f5260405f205f915090505481565b601281565b5f60065f3373ffffffffffffffffffffffffffffffffffffffff1673ffffffffffffffffffffffffffffffffffffffff1681526020019081526020015f2090508080549050821061041f576040517f08c379a000000000000000000000000000000000000000000000000000000000815260040161041690610eab565b60405180910390fd5b5f81838154811061043357610432610ec9565b5b905f5260205f20906005020190505f816001015490505f610452610b3c565b90505f8184600301546104659190610f23565b90505f8111156104aa575f84600301546012600a6104839190611085565b8361048e91906110cf565b610498919061113d565b905080846104a6919061116d565b9350505b3373ffffffffffffffffffffffffffffffffffffffff167f0f5bb82176feb1b5e747e28471aa92156a04d9f3ab9f45f28e2d704232b93f75846040516104f09190610d16565b60405180910390a2505050505050565b60025f9054906101000a900473ffffffffffffffffffffffffffffffffffffffff1681565b5f80600267ffffffffffffffff811115610542576105416111a0565b5b6040519080825280602002602001820160405280156105705781602001602082028036833780820191505090505b50905060015f9054906101000a900473ffffffffffffffffffffffffffffffffffffffff16815f815181106105a8576105a7610ec9565b5b602002602001019073ffffffffffffffffffffffffffffffffffffffff16908173ffffffffffffffffffffffffffffffffffffffff168152505060025f9054906101000a900473ffffffffffffffffffffffffffffffffffffffff168160018151811061061857610617610ec9565b5b602002602001019073ffffffffffffffffffffffffffffffffffffffff16908173ffffffffffffffffffffffffffffffffffffffff16815250505f60035f9054906101000a900473ffffffffffffffffffffffffffffffffffffffff1690505f8173ffffffffffffffffffffffffffffffffffffffff1663d06ca61f633b9aca00856040518363ffffffff1660e01b81526004016106b79291906112c6565b5f60405180830381865afa1580156106d1573d5f803e3d5ffd5b505050506040513d5f823e3d601f19601f820116820180604052508101906106f9919061142b565b90508060018151811061070f5761070e610ec9565b5b6020026020010151935050505090565b5f8054906101000a900473ffffffffffffffffffffffffffffffffffffffff1673ffffffffffffffffffffffffffffffffffffffff163373ffffffffffffffffffffffffffffffffffffffff16146107ac576040517f08c379a00000000000000000000000000000000000000000000000000000000081526004016107a3906114e2565b60405180910390fd5b5f601e836107ba9190611500565b146107fa576040517f08c379a00000000000000000000000000000000000000000000000000000000081526004016107f19061157a565b60405180910390fd5b8060055f8481526020019081526020015f20819055505050565b5f8211610856576040517f08c379a000000000000000000000000000000000000000000000000000000000815260040161084d906115e2565b60405180910390fd5b5f8111610898576040517f08c379a000000000000000000000000000000000000000000000000000000000815260040161088f9061157a565b60405180910390fd5b5f6108a1610b3c565b90505f6108ae8385610bc6565b90505f6012600a6108bf9190611085565b83866108cb91906110cf565b6108d5919061113d565b90505f62015180856108e791906110cf565b426108f2919061116d565b905060065f3373ffffffffffffffffffffffffffffffffffffffff1673ffffffffffffffffffffffffffffffffffffffff1681526020019081526020015f206040518060a0016040528087815260200188815260200183815260200186815260200184815250908060018154018082558091505060019003905f5260205f2090600502015f909190919091505f820151815f01556020820151816001015560408201518160020155606082015181600301556080820151816004015550503373ffffffffffffffffffffffffffffffffffffffff167fc16be9a586414a157dd46b4d023aa9997a025dd1cbbaa67ac0c1b8273a5eaf55878784888888604051610a0096959493929190611600565b60405180910390a2505050505050565b5f8060045f9054906101000a900473ffffffffffffffffffffffffffffffffffffffff1690505f8173ffffffffffffffffffffffffffffffffffffffff166350d25bcd6040518163ffffffff1660e01b8152600401602060405180830381865afa158015610a80573d5f803e3d5ffd5b505050506040513d601f19601f82011682018060405250810190610aa49190611692565b90505f8113610ae8576040517f08c379a0000000000000000000000000000000000000000000000000000000008152600401610adf90611707565b60405180910390fd5b809250505090565b6006602052815f5260405f208181548110610b09575f80fd5b905f5260205f2090600502015f9150915050805f0154908060010154908060020154908060030154908060040154905085565b5f80610b46610a10565b90505f610b51610525565b90506012600a610b619190611085565b8282610b6d91906110cf565b610b77919061113d565b9250505090565b60015f9054906101000a900473ffffffffffffffffffffffffffffffffffffffff1681565b5f8054906101000a900473ffffffffffffffffffffffffffffffffffffffff1681565b5f8060055f8581526020019081526020015f205490505f8111610c1e576040517f08c379a0000000000000000000000000000000000000000000000000000000008152600401610c1590611795565b60405180910390fd5b6127108184610c2d91906110cf565b610c37919061113d565b91505092915050565b5f73ffffffffffffffffffffffffffffffffffffffff82169050919050565b5f610c6982610c40565b9050919050565b610c7981610c5f565b82525050565b5f602082019050610c925f830184610c70565b92915050565b5f604051905090565b5f80fd5b5f80fd5b610cb281610c5f565b8114610cbc575f80fd5b50565b5f81359050610ccd81610ca9565b92915050565b5f60208284031215610ce857610ce7610ca1565b5b5f610cf584828501610cbf565b91505092915050565b5f819050919050565b610d1081610cfe565b82525050565b5f602082019050610d295f830184610d07565b92915050565b610d3881610cfe565b8114610d42575f80fd5b50565b5f81359050610d5381610d2f565b92915050565b5f60208284031215610d6e57610d6d610ca1565b5b5f610d7b84828501610d45565b91505092915050565b5f8060408385031215610d9a57610d99610ca1565b5b5f610da785828601610d45565b9250506020610db885828601610d45565b9150509250929050565b5f8060408385031215610dd857610dd7610ca1565b5b5f610de585828601610cbf565b9250506020610df685828601610d45565b9150509250929050565b5f60a082019050610e135f830188610d07565b610e206020830187610d07565b610e2d6040830186610d07565b610e3a6060830185610d07565b610e476080830184610d07565b9695505050505050565b5f82825260208201905092915050565b7f496e76616c696420696e646578000000000000000000000000000000000000005f82015250565b5f610e95600d83610e51565b9150610ea082610e61565b602082019050919050565b5f6020820190508181035f830152610ec281610e89565b9050919050565b7f4e487b71000000000000000000000000000000000000000000000000000000005f52603260045260245ffd5b7f4e487b71000000000000000000000000000000000000000000000000000000005f52601160045260245ffd5b5f610f2d82610cfe565b9150610f3883610cfe565b9250828203905081811115610f5057610f4f610ef6565b5b92915050565b5f8160011c9050919050565b5f808291508390505b6001851115610fab57808604811115610f8757610f86610ef6565b5b6001851615610f965780820291505b8081029050610fa485610f56565b9450610f6b565b94509492505050565b5f82610fc3576001905061107e565b81610fd0575f905061107e565b8160018114610fe65760028114610ff05761101f565b600191505061107e565b60ff84111561100257611001610ef6565b5b8360020a91508482111561101957611018610ef6565b5b5061107e565b5060208310610133831016604e8410600b84101617156110545782820a90508381111561104f5761104e610ef6565b5b61107e565b6110618484846001610f62565b9250905081840481111561107857611077610ef6565b5b81810290505b9392505050565b5f61108f82610cfe565b915061109a83610cfe565b92506110c77fffffffffffffffffffffffffffffffffffffffffffffffffffffffffffffffff8484610fb4565b905092915050565b5f6110d982610cfe565b91506110e483610cfe565b92508282026110f281610cfe565b9150828204841483151761110957611108610ef6565b5b5092915050565b7f4e487b71000000000000000000000000000000000000000000000000000000005f52601260045260245ffd5b5f61114782610cfe565b915061115283610cfe565b92508261116257611161611110565b5b828204905092915050565b5f61117782610cfe565b915061118283610cfe565b925082820190508082111561119a57611199610ef6565b5b92915050565b7f4e487b71000000000000000000000000000000000000000000000000000000005f52604160045260245ffd5b5f819050919050565b5f819050919050565b5f6111f96111f46111ef846111cd565b6111d6565b610cfe565b9050919050565b611209816111df565b82525050565b5f81519050919050565b5f82825260208201905092915050565b5f819050602082019050919050565b61124181610c5f565b82525050565b5f6112528383611238565b60208301905092915050565b5f602082019050919050565b5f6112748261120f565b61127e8185611219565b935061128983611229565b805f5b838110156112b95781516112a08882611247565b97506112ab8361125e565b92505060018101905061128c565b5085935050505092915050565b5f6040820190506112d95f830185611200565b81810360208301526112eb818461126a565b90509392505050565b5f80fd5b5f601f19601f8301169050919050565b611311826112f8565b810181811067ffffffffffffffff821117156113305761132f6111a0565b5b80604052505050565b5f611342610c98565b905061134e8282611308565b919050565b5f67ffffffffffffffff82111561136d5761136c6111a0565b5b602082029050602081019050919050565b5f80fd5b5f8151905061139081610d2f565b92915050565b5f6113a86113a384611353565b611339565b905080838252602082019050602084028301858111156113cb576113ca61137e565b5b835b818110156113f457806113e08882611382565b8452602084019350506020810190506113cd565b5050509392505050565b5f82601f830112611412576114116112f4565b5b8151611422848260208601611396565b91505092915050565b5f602082840312156114405761143f610ca1565b5b5f82015167ffffffffffffffff81111561145d5761145c610ca5565b5b611469848285016113fe565b91505092915050565b7f4f6e6c792061646d696e2063616e2063616c6c20746869732066756e6374696f5f8201527f6e00000000000000000000000000000000000000000000000000000000000000602082015250565b5f6114cc602183610e51565b91506114d782611472565b604082019050919050565b5f6020820190508181035f8301526114f9816114c0565b9050919050565b5f61150a82610cfe565b915061151583610cfe565b92508261152557611524611110565b5b828206905092915050565b7f496e76616c6964206475726174696f6e000000000000000000000000000000005f82015250565b5f611564601083610e51565b915061156f82611530565b602082019050919050565b5f6020820190508181035f83015261159181611558565b9050919050565b7f496e76616c696420616d6f756e740000000000000000000000000000000000005f82015250565b5f6115cc600e83610e51565b91506115d782611598565b602082019050919050565b5f6020820190508181035f8301526115f9816115c0565b9050919050565b5f60c0820190506116135f830189610d07565b6116206020830188610d07565b61162d6040830187610d07565b61163a6060830186610d07565b6116476080830185610d07565b61165460a0830184610d07565b979650505050505050565b5f819050919050565b6116718161165f565b811461167b575f80fd5b50565b5f8151905061168c81611668565b92915050565b5f602082840312156116a7576116a6610ca1565b5b5f6116b48482850161167e565b91505092915050565b7f496e76616c6964204554482f55534420707269636500000000000000000000005f82015250565b5f6116f1601583610e51565b91506116fc826116bd565b602082019050919050565b5f6020820190508181035f83015261171e816116e5565b9050919050565b7f4665652070657263656e74616765206e6f742073657420666f722074686973205f8201527f6475726174696f6e000000000000000000000000000000000000000000000000602082015250565b5f61177f602883610e51565b915061178a82611725565b604082019050919050565b5f6020820190508181035f8301526117ac81611773565b905091905056fea2646970667358221220114e86a49585c65bc8d02e46eceb149b91095173cb3961e9d4b5cb5e4cca7f3864736f6c63430008180033",
			"opcodes": "PUSH1 0x80 PUSH1 0x40 MSTORE CALLVALUE DUP1 ISZERO PUSH3 0x10 JUMPI PUSH0 DUP1 REVERT JUMPDEST POP PUSH1 0x40 MLOAD PUSH3 0x1A95 CODESIZE SUB DUP1 PUSH3 0x1A95 DUP4 CODECOPY DUP2 DUP2 ADD PUSH1 0x40 MSTORE DUP2 ADD SWAP1 PUSH3 0x36 SWAP2 SWAP1 PUSH3 0x22F JUMP JUMPDEST CALLER PUSH0 DUP1 PUSH2 0x100 EXP DUP2 SLOAD DUP2 PUSH20 0xFFFFFFFFFFFFFFFFFFFFFFFFFFFFFFFFFFFFFFFF MUL NOT AND SWAP1 DUP4 PUSH20 0xFFFFFFFFFFFFFFFFFFFFFFFFFFFFFFFFFFFFFFFF AND MUL OR SWAP1 SSTORE POP DUP4 PUSH1 0x1 PUSH0 PUSH2 0x100 EXP DUP2 SLOAD DUP2 PUSH20 0xFFFFFFFFFFFFFFFFFFFFFFFFFFFFFFFFFFFFFFFF MUL NOT AND SWAP1 DUP4 PUSH20 0xFFFFFFFFFFFFFFFFFFFFFFFFFFFFFFFFFFFFFFFF AND MUL OR SWAP1 SSTORE POP DUP3 PUSH1 0x2 PUSH0 PUSH2 0x100 EXP DUP2 SLOAD DUP2 PUSH20 0xFFFFFFFFFFFFFFFFFFFFFFFFFFFFFFFFFFFFFFFF MUL NOT AND SWAP1 DUP4 PUSH20 0xFFFFFFFFFFFFFFFFFFFFFFFFFFFFFFFFFFFFFFFF AND MUL OR SWAP1 SSTORE POP DUP2 PUSH1 0x3 PUSH0 PUSH2 0x100 EXP DUP2 SLOAD DUP2 PUSH20 0xFFFFFFFFFFFFFFFFFFFFFFFFFFFFFFFFFFFFFFFF MUL NOT AND SWAP1 DUP4 PUSH20 0xFFFFFFFFFFFFFFFFFFFFFFFFFFFFFFFFFFFFFFFF AND MUL OR SWAP1 SSTORE POP DUP1 PUSH1 0x4 PUSH0 PUSH2 0x100 EXP DUP2 SLOAD DUP2 PUSH20 0xFFFFFFFFFFFFFFFFFFFFFFFFFFFFFFFFFFFFFFFF MUL NOT AND SWAP1 DUP4 PUSH20 0xFFFFFFFFFFFFFFFFFFFFFFFFFFFFFFFFFFFFFFFF AND MUL OR SWAP1 SSTORE POP PUSH2 0xEA6 PUSH1 0x5 PUSH0 PUSH1 0x1E DUP2 MSTORE PUSH1 0x20 ADD SWAP1 DUP2 MSTORE PUSH1 0x20 ADD PUSH0 KECCAK256 DUP2 SWAP1 SSTORE POP PUSH2 0x15F9 PUSH1 0x5 PUSH0 PUSH1 0x3C DUP2 MSTORE PUSH1 0x20 ADD SWAP1 DUP2 MSTORE PUSH1 0x20 ADD PUSH0 KECCAK256 DUP2 SWAP1 SSTORE POP PUSH2 0x1E36 PUSH1 0x5 PUSH0 PUSH1 0x5A DUP2 MSTORE PUSH1 0x20 ADD SWAP1 DUP2 MSTORE PUSH1 0x20 ADD PUSH0 KECCAK256 DUP2 SWAP1 SSTORE POP POP POP POP POP PUSH3 0x29E JUMP JUMPDEST PUSH0 DUP1 REVERT JUMPDEST PUSH0 PUSH20 0xFFFFFFFFFFFFFFFFFFFFFFFFFFFFFFFFFFFFFFFF DUP3 AND SWAP1 POP SWAP2 SWAP1 POP JUMP JUMPDEST PUSH0 PUSH3 0x1F9 DUP3 PUSH3 0x1CE JUMP JUMPDEST SWAP1 POP SWAP2 SWAP1 POP JUMP JUMPDEST PUSH3 0x20B DUP2 PUSH3 0x1ED JUMP JUMPDEST DUP2 EQ PUSH3 0x216 JUMPI PUSH0 DUP1 REVERT JUMPDEST POP JUMP JUMPDEST PUSH0 DUP2 MLOAD SWAP1 POP PUSH3 0x229 DUP2 PUSH3 0x200 JUMP JUMPDEST SWAP3 SWAP2 POP POP JUMP JUMPDEST PUSH0 DUP1 PUSH0 DUP1 PUSH1 0x80 DUP6 DUP8 SUB SLT ISZERO PUSH3 0x24A JUMPI PUSH3 0x249 PUSH3 0x1CA JUMP JUMPDEST JUMPDEST PUSH0 PUSH3 0x259 DUP8 DUP3 DUP9 ADD PUSH3 0x219 JUMP JUMPDEST SWAP5 POP POP PUSH1 0x20 PUSH3 0x26C DUP8 DUP3 DUP9 ADD PUSH3 0x219 JUMP JUMPDEST SWAP4 POP POP PUSH1 0x40 PUSH3 0x27F DUP8 DUP3 DUP9 ADD PUSH3 0x219 JUMP JUMPDEST SWAP3 POP POP PUSH1 0x60 PUSH3 0x292 DUP8 DUP3 DUP9 ADD PUSH3 0x219 JUMP JUMPDEST SWAP2 POP POP SWAP3 SWAP6 SWAP2 SWAP5 POP SWAP3 POP JUMP JUMPDEST PUSH2 0x17E9 DUP1 PUSH3 0x2AC PUSH0 CODECOPY PUSH0 RETURN INVALID PUSH1 0x80 PUSH1 0x40 MSTORE CALLVALUE DUP1 ISZERO PUSH2 0xF JUMPI PUSH0 DUP1 REVERT JUMPDEST POP PUSH1 0x4 CALLDATASIZE LT PUSH2 0xF2 JUMPI PUSH0 CALLDATALOAD PUSH1 0xE0 SHR DUP1 PUSH4 0x50F3845B GT PUSH2 0x95 JUMPI DUP1 PUSH4 0xB5D5B5FA GT PUSH2 0x64 JUMPI DUP1 PUSH4 0xB5D5B5FA EQ PUSH2 0x25E JUMPI DUP1 PUSH4 0xB92D21C4 EQ PUSH2 0x292 JUMPI DUP1 PUSH4 0xB9AA6EC4 EQ PUSH2 0x2B0 JUMPI DUP1 PUSH4 0xF851A440 EQ PUSH2 0x2CE JUMPI PUSH2 0xF2 JUMP JUMPDEST DUP1 PUSH4 0x50F3845B EQ PUSH2 0x1EA JUMPI DUP1 PUSH4 0x7A997035 EQ PUSH2 0x208 JUMPI DUP1 PUSH4 0x7B0472F0 EQ PUSH2 0x224 JUMPI DUP1 PUSH4 0x851F7147 EQ PUSH2 0x240 JUMPI PUSH2 0xF2 JUMP JUMPDEST DUP1 PUSH4 0x26230E2F GT PUSH2 0xD1 JUMPI DUP1 PUSH4 0x26230E2F EQ PUSH2 0x162 JUMPI DUP1 PUSH4 0x2E0F2625 EQ PUSH2 0x192 JUMPI DUP1 PUSH4 0x2E17DE78 EQ PUSH2 0x1B0 JUMPI DUP1 PUSH4 0x4F0E0EF3 EQ PUSH2 0x1CC JUMPI PUSH2 0xF2 JUMP JUMPDEST DUP1 PUSH3 0xC3A272 EQ PUSH2 0xF6 JUMPI DUP1 PUSH4 0x1B545A17 EQ PUSH2 0x114 JUMPI DUP1 PUSH4 0x20CA3C7F EQ PUSH2 0x144 JUMPI JUMPDEST PUSH0 DUP1 REVERT JUMPDEST PUSH2 0xFE PUSH2 0x2EC JUMP JUMPDEST PUSH1 0x40 MLOAD PUSH2 0x10B SWAP2 SWAP1 PUSH2 0xC7F JUMP JUMPDEST PUSH1 0x40 MLOAD DUP1 SWAP2 SUB SWAP1 RETURN JUMPDEST PUSH2 0x12E PUSH1 0x4 DUP1 CALLDATASIZE SUB DUP2 ADD SWAP1 PUSH2 0x129 SWAP2 SWAP1 PUSH2 0xCD3 JUMP JUMPDEST PUSH2 0x311 JUMP JUMPDEST PUSH1 0x40 MLOAD PUSH2 0x13B SWAP2 SWAP1 PUSH2 0xD16 JUMP JUMPDEST PUSH1 0x40 MLOAD DUP1 SWAP2 SUB SWAP1 RETURN JUMPDEST PUSH2 0x14C PUSH2 0x35A JUMP JUMPDEST PUSH1 0x40 MLOAD PUSH2 0x159 SWAP2 SWAP1 PUSH2 0xC7F JUMP JUMPDEST PUSH1 0x40 MLOAD DUP1 SWAP2 SUB SWAP1 RETURN JUMPDEST PUSH2 0x17C PUSH1 0x4 DUP1 CALLDATASIZE SUB DUP2 ADD SWAP1 PUSH2 0x177 SWAP2 SWAP1 PUSH2 0xD59 JUMP JUMPDEST PUSH2 0x37F JUMP JUMPDEST PUSH1 0x40 MLOAD PUSH2 0x189 SWAP2 SWAP1 PUSH2 0xD16 JUMP JUMPDEST PUSH1 0x40 MLOAD DUP1 SWAP2 SUB SWAP1 RETURN JUMPDEST PUSH2 0x19A PUSH2 0x394 JUMP JUMPDEST PUSH1 0x40 MLOAD PUSH2 0x1A7 SWAP2 SWAP1 PUSH2 0xD16 JUMP JUMPDEST PUSH1 0x40 MLOAD DUP1 SWAP2 SUB SWAP1 RETURN JUMPDEST PUSH2 0x1CA PUSH1 0x4 DUP1 CALLDATASIZE SUB DUP2 ADD SWAP1 PUSH2 0x1C5 SWAP2 SWAP1 PUSH2 0xD59 JUMP JUMPDEST PUSH2 0x399 JUMP JUMPDEST STOP JUMPDEST PUSH2 0x1D4 PUSH2 0x500 JUMP JUMPDEST PUSH1 0x40 MLOAD PUSH2 0x1E1 SWAP2 SWAP1 PUSH2 0xC7F JUMP JUMPDEST PUSH1 0x40 MLOAD DUP1 SWAP2 SUB SWAP1 RETURN JUMPDEST PUSH2 0x1F2 PUSH2 0x525 JUMP JUMPDEST PUSH1 0x40 MLOAD PUSH2 0x1FF SWAP2 SWAP1 PUSH2 0xD16 JUMP JUMPDEST PUSH1 0x40 MLOAD DUP1 SWAP2 SUB SWAP1 RETURN JUMPDEST PUSH2 0x222 PUSH1 0x4 DUP1 CALLDATASIZE SUB DUP2 ADD SWAP1 PUSH2 0x21D SWAP2 SWAP1 PUSH2 0xD84 JUMP JUMPDEST PUSH2 0x71F JUMP JUMPDEST STOP JUMPDEST PUSH2 0x23E PUSH1 0x4 DUP1 CALLDATASIZE SUB DUP2 ADD SWAP1 PUSH2 0x239 SWAP2 SWAP1 PUSH2 0xD84 JUMP JUMPDEST PUSH2 0x814 JUMP JUMPDEST STOP JUMPDEST PUSH2 0x248 PUSH2 0xA10 JUMP JUMPDEST PUSH1 0x40 MLOAD PUSH2 0x255 SWAP2 SWAP1 PUSH2 0xD16 JUMP JUMPDEST PUSH1 0x40 MLOAD DUP1 SWAP2 SUB SWAP1 RETURN JUMPDEST PUSH2 0x278 PUSH1 0x4 DUP1 CALLDATASIZE SUB DUP2 ADD SWAP1 PUSH2 0x273 SWAP2 SWAP1 PUSH2 0xDC2 JUMP JUMPDEST PUSH2 0xAF0 JUMP JUMPDEST PUSH1 0x40 MLOAD PUSH2 0x289 SWAP6 SWAP5 SWAP4 SWAP3 SWAP2 SWAP1 PUSH2 0xE00 JUMP JUMPDEST PUSH1 0x40 MLOAD DUP1 SWAP2 SUB SWAP1 RETURN JUMPDEST PUSH2 0x29A PUSH2 0xB3C JUMP JUMPDEST PUSH1 0x40 MLOAD PUSH2 0x2A7 SWAP2 SWAP1 PUSH2 0xD16 JUMP JUMPDEST PUSH1 0x40 MLOAD DUP1 SWAP2 SUB SWAP1 RETURN JUMPDEST PUSH2 0x2B8 PUSH2 0xB7E JUMP JUMPDEST PUSH1 0x40 MLOAD PUSH2 0x2C5 SWAP2 SWAP1 PUSH2 0xC7F JUMP JUMPDEST PUSH1 0x40 MLOAD DUP1 SWAP2 SUB SWAP1 RETURN JUMPDEST PUSH2 0x2D6 PUSH2 0xBA3 JUMP JUMPDEST PUSH1 0x40 MLOAD PUSH2 0x2E3 SWAP2 SWAP1 PUSH2 0xC7F JUMP JUMPDEST PUSH1 0x40 MLOAD DUP1 SWAP2 SUB SWAP1 RETURN JUMPDEST PUSH1 0x4 PUSH0 SWAP1 SLOAD SWAP1 PUSH2 0x100 EXP SWAP1 DIV PUSH20 0xFFFFFFFFFFFFFFFFFFFFFFFFFFFFFFFFFFFFFFFF AND DUP2 JUMP JUMPDEST PUSH0 PUSH1 0x6 PUSH0 DUP4 PUSH20 0xFFFFFFFFFFFFFFFFFFFFFFFFFFFFFFFFFFFFFFFF AND PUSH20 0xFFFFFFFFFFFFFFFFFFFFFFFFFFFFFFFFFFFFFFFF AND DUP2 MSTORE PUSH1 0x20 ADD SWAP1 DUP2 MSTORE PUSH1 0x20 ADD PUSH0 KECCAK256 DUP1 SLOAD SWAP1 POP SWAP1 POP SWAP2 SWAP1 POP JUMP JUMPDEST PUSH1 0x3 PUSH0 SWAP1 SLOAD SWAP1 PUSH2 0x100 EXP SWAP1 DIV PUSH20 0xFFFFFFFFFFFFFFFFFFFFFFFFFFFFFFFFFFFFFFFF AND DUP2 JUMP JUMPDEST PUSH1 0x5 PUSH1 0x20 MSTORE DUP1 PUSH0 MSTORE PUSH1 0x40 PUSH0 KECCAK256 PUSH0 SWAP2 POP SWAP1 POP SLOAD DUP2 JUMP JUMPDEST PUSH1 0x12 DUP2 JUMP JUMPDEST PUSH0 PUSH1 0x6 PUSH0 CALLER PUSH20 0xFFFFFFFFFFFFFFFFFFFFFFFFFFFFFFFFFFFFFFFF AND PUSH20 0xFFFFFFFFFFFFFFFFFFFFFFFFFFFFFFFFFFFFFFFF AND DUP2 MSTORE PUSH1 0x20 ADD SWAP1 DUP2 MSTORE PUSH1 0x20 ADD PUSH0 KECCAK256 SWAP1 POP DUP1 DUP1 SLOAD SWAP1 POP DUP3 LT PUSH2 0x41F JUMPI PUSH1 0x40 MLOAD PUSH32 0x8C379A000000000000000000000000000000000000000000000000000000000 DUP2 MSTORE PUSH1 0x4 ADD PUSH2 0x416 SWAP1 PUSH2 0xEAB JUMP JUMPDEST PUSH1 0x40 MLOAD DUP1 SWAP2 SUB SWAP1 REVERT JUMPDEST PUSH0 DUP2 DUP4 DUP2 SLOAD DUP2 LT PUSH2 0x433 JUMPI PUSH2 0x432 PUSH2 0xEC9 JUMP JUMPDEST JUMPDEST SWAP1 PUSH0 MSTORE PUSH1 0x20 PUSH0 KECCAK256 SWAP1 PUSH1 0x5 MUL ADD SWAP1 POP PUSH0 DUP2 PUSH1 0x1 ADD SLOAD SWAP1 POP PUSH0 PUSH2 0x452 PUSH2 0xB3C JUMP JUMPDEST SWAP1 POP PUSH0 DUP2 DUP5 PUSH1 0x3 ADD SLOAD PUSH2 0x465 SWAP2 SWAP1 PUSH2 0xF23 JUMP JUMPDEST SWAP1 POP PUSH0 DUP2 GT ISZERO PUSH2 0x4AA JUMPI PUSH0 DUP5 PUSH1 0x3 ADD SLOAD PUSH1 0x12 PUSH1 0xA PUSH2 0x483 SWAP2 SWAP1 PUSH2 0x1085 JUMP JUMPDEST DUP4 PUSH2 0x48E SWAP2 SWAP1 PUSH2 0x10CF JUMP JUMPDEST PUSH2 0x498 SWAP2 SWAP1 PUSH2 0x113D JUMP JUMPDEST SWAP1 POP DUP1 DUP5 PUSH2 0x4A6 SWAP2 SWAP1 PUSH2 0x116D JUMP JUMPDEST SWAP4 POP POP JUMPDEST CALLER PUSH20 0xFFFFFFFFFFFFFFFFFFFFFFFFFFFFFFFFFFFFFFFF AND PUSH32 0xF5BB82176FEB1B5E747E28471AA92156A04D9F3AB9F45F28E2D704232B93F75 DUP5 PUSH1 0x40 MLOAD PUSH2 0x4F0 SWAP2 SWAP1 PUSH2 0xD16 JUMP JUMPDEST PUSH1 0x40 MLOAD DUP1 SWAP2 SUB SWAP1 LOG2 POP POP POP POP POP POP JUMP JUMPDEST PUSH1 0x2 PUSH0 SWAP1 SLOAD SWAP1 PUSH2 0x100 EXP SWAP1 DIV PUSH20 0xFFFFFFFFFFFFFFFFFFFFFFFFFFFFFFFFFFFFFFFF AND DUP2 JUMP JUMPDEST PUSH0 DUP1 PUSH1 0x2 PUSH8 0xFFFFFFFFFFFFFFFF DUP2 GT ISZERO PUSH2 0x542 JUMPI PUSH2 0x541 PUSH2 0x11A0 JUMP JUMPDEST JUMPDEST PUSH1 0x40 MLOAD SWAP1 DUP1 DUP3 MSTORE DUP1 PUSH1 0x20 MUL PUSH1 0x20 ADD DUP3 ADD PUSH1 0x40 MSTORE DUP1 ISZERO PUSH2 0x570 JUMPI DUP2 PUSH1 0x20 ADD PUSH1 0x20 DUP3 MUL DUP1 CALLDATASIZE DUP4 CALLDATACOPY DUP1 DUP3 ADD SWAP2 POP POP SWAP1 POP JUMPDEST POP SWAP1 POP PUSH1 0x1 PUSH0 SWAP1 SLOAD SWAP1 PUSH2 0x100 EXP SWAP1 DIV PUSH20 0xFFFFFFFFFFFFFFFFFFFFFFFFFFFFFFFFFFFFFFFF AND DUP2 PUSH0 DUP2 MLOAD DUP2 LT PUSH2 0x5A8 JUMPI PUSH2 0x5A7 PUSH2 0xEC9 JUMP JUMPDEST JUMPDEST PUSH1 0x20 MUL PUSH1 0x20 ADD ADD SWAP1 PUSH20 0xFFFFFFFFFFFFFFFFFFFFFFFFFFFFFFFFFFFFFFFF AND SWAP1 DUP2 PUSH20 0xFFFFFFFFFFFFFFFFFFFFFFFFFFFFFFFFFFFFFFFF AND DUP2 MSTORE POP POP PUSH1 0x2 PUSH0 SWAP1 SLOAD SWAP1 PUSH2 0x100 EXP SWAP1 DIV PUSH20 0xFFFFFFFFFFFFFFFFFFFFFFFFFFFFFFFFFFFFFFFF AND DUP2 PUSH1 0x1 DUP2 MLOAD DUP2 LT PUSH2 0x618 JUMPI PUSH2 0x617 PUSH2 0xEC9 JUMP JUMPDEST JUMPDEST PUSH1 0x20 MUL PUSH1 0x20 ADD ADD SWAP1 PUSH20 0xFFFFFFFFFFFFFFFFFFFFFFFFFFFFFFFFFFFFFFFF AND SWAP1 DUP2 PUSH20 0xFFFFFFFFFFFFFFFFFFFFFFFFFFFFFFFFFFFFFFFF AND DUP2 MSTORE POP POP PUSH0 PUSH1 0x3 PUSH0 SWAP1 SLOAD SWAP1 PUSH2 0x100 EXP SWAP1 DIV PUSH20 0xFFFFFFFFFFFFFFFFFFFFFFFFFFFFFFFFFFFFFFFF AND SWAP1 POP PUSH0 DUP2 PUSH20 0xFFFFFFFFFFFFFFFFFFFFFFFFFFFFFFFFFFFFFFFF AND PUSH4 0xD06CA61F PUSH4 0x3B9ACA00 DUP6 PUSH1 0x40 MLOAD DUP4 PUSH4 0xFFFFFFFF AND PUSH1 0xE0 SHL DUP2 MSTORE PUSH1 0x4 ADD PUSH2 0x6B7 SWAP3 SWAP2 SWAP1 PUSH2 0x12C6 JUMP JUMPDEST PUSH0 PUSH1 0x40 MLOAD DUP1 DUP4 SUB DUP2 DUP7 GAS STATICCALL ISZERO DUP1 ISZERO PUSH2 0x6D1 JUMPI RETURNDATASIZE PUSH0 DUP1 RETURNDATACOPY RETURNDATASIZE PUSH0 REVERT JUMPDEST POP POP POP POP PUSH1 0x40 MLOAD RETURNDATASIZE PUSH0 DUP3 RETURNDATACOPY RETURNDATASIZE PUSH1 0x1F NOT PUSH1 0x1F DUP3 ADD AND DUP3 ADD DUP1 PUSH1 0x40 MSTORE POP DUP2 ADD SWAP1 PUSH2 0x6F9 SWAP2 SWAP1 PUSH2 0x142B JUMP JUMPDEST SWAP1 POP DUP1 PUSH1 0x1 DUP2 MLOAD DUP2 LT PUSH2 0x70F JUMPI PUSH2 0x70E PUSH2 0xEC9 JUMP JUMPDEST JUMPDEST PUSH1 0x20 MUL PUSH1 0x20 ADD ADD MLOAD SWAP4 POP POP POP POP SWAP1 JUMP JUMPDEST PUSH0 DUP1 SLOAD SWAP1 PUSH2 0x100 EXP SWAP1 DIV PUSH20 0xFFFFFFFFFFFFFFFFFFFFFFFFFFFFFFFFFFFFFFFF AND PUSH20 0xFFFFFFFFFFFFFFFFFFFFFFFFFFFFFFFFFFFFFFFF AND CALLER PUSH20 0xFFFFFFFFFFFFFFFFFFFFFFFFFFFFFFFFFFFFFFFF AND EQ PUSH2 0x7AC JUMPI PUSH1 0x40 MLOAD PUSH32 0x8C379A000000000000000000000000000000000000000000000000000000000 DUP2 MSTORE PUSH1 0x4 ADD PUSH2 0x7A3 SWAP1 PUSH2 0x14E2 JUMP JUMPDEST PUSH1 0x40 MLOAD DUP1 SWAP2 SUB SWAP1 REVERT JUMPDEST PUSH0 PUSH1 0x1E DUP4 PUSH2 0x7BA SWAP2 SWAP1 PUSH2 0x1500 JUMP JUMPDEST EQ PUSH2 0x7FA JUMPI PUSH1 0x40 MLOAD PUSH32 0x8C379A000000000000000000000000000000000000000000000000000000000 DUP2 MSTORE PUSH1 0x4 ADD PUSH2 0x7F1 SWAP1 PUSH2 0x157A JUMP JUMPDEST PUSH1 0x40 MLOAD DUP1 SWAP2 SUB SWAP1 REVERT JUMPDEST DUP1 PUSH1 0x5 PUSH0 DUP5 DUP2 MSTORE PUSH1 0x20 ADD SWAP1 DUP2 MSTORE PUSH1 0x20 ADD PUSH0 KECCAK256 DUP2 SWAP1 SSTORE POP POP POP JUMP JUMPDEST PUSH0 DUP3 GT PUSH2 0x856 JUMPI PUSH1 0x40 MLOAD PUSH32 0x8C379A000000000000000000000000000000000000000000000000000000000 DUP2 MSTORE PUSH1 0x4 ADD PUSH2 0x84D SWAP1 PUSH2 0x15E2 JUMP JUMPDEST PUSH1 0x40 MLOAD DUP1 SWAP2 SUB SWAP1 REVERT JUMPDEST PUSH0 DUP2 GT PUSH2 0x898 JUMPI PUSH1 0x40 MLOAD PUSH32 0x8C379A000000000000000000000000000000000000000000000000000000000 DUP2 MSTORE PUSH1 0x4 ADD PUSH2 0x88F SWAP1 PUSH2 0x157A JUMP JUMPDEST PUSH1 0x40 MLOAD DUP1 SWAP2 SUB SWAP1 REVERT JUMPDEST PUSH0 PUSH2 0x8A1 PUSH2 0xB3C JUMP JUMPDEST SWAP1 POP PUSH0 PUSH2 0x8AE DUP4 DUP6 PUSH2 0xBC6 JUMP JUMPDEST SWAP1 POP PUSH0 PUSH1 0x12 PUSH1 0xA PUSH2 0x8BF SWAP2 SWAP1 PUSH2 0x1085 JUMP JUMPDEST DUP4 DUP7 PUSH2 0x8CB SWAP2 SWAP1 PUSH2 0x10CF JUMP JUMPDEST PUSH2 0x8D5 SWAP2 SWAP1 PUSH2 0x113D JUMP JUMPDEST SWAP1 POP PUSH0 PUSH3 0x15180 DUP6 PUSH2 0x8E7 SWAP2 SWAP1 PUSH2 0x10CF JUMP JUMPDEST TIMESTAMP PUSH2 0x8F2 SWAP2 SWAP1 PUSH2 0x116D JUMP JUMPDEST SWAP1 POP PUSH1 0x6 PUSH0 CALLER PUSH20 0xFFFFFFFFFFFFFFFFFFFFFFFFFFFFFFFFFFFFFFFF AND PUSH20 0xFFFFFFFFFFFFFFFFFFFFFFFFFFFFFFFFFFFFFFFF AND DUP2 MSTORE PUSH1 0x20 ADD SWAP1 DUP2 MSTORE PUSH1 0x20 ADD PUSH0 KECCAK256 PUSH1 0x40 MLOAD DUP1 PUSH1 0xA0 ADD PUSH1 0x40 MSTORE DUP1 DUP8 DUP2 MSTORE PUSH1 0x20 ADD DUP9 DUP2 MSTORE PUSH1 0x20 ADD DUP4 DUP2 MSTORE PUSH1 0x20 ADD DUP7 DUP2 MSTORE PUSH1 0x20 ADD DUP5 DUP2 MSTORE POP SWAP1 DUP1 PUSH1 0x1 DUP2 SLOAD ADD DUP1 DUP3 SSTORE DUP1 SWAP2 POP POP PUSH1 0x1 SWAP1 SUB SWAP1 PUSH0 MSTORE PUSH1 0x20 PUSH0 KECCAK256 SWAP1 PUSH1 0x5 MUL ADD PUSH0 SWAP1 SWAP2 SWAP1 SWAP2 SWAP1 SWAP2 POP PUSH0 DUP3 ADD MLOAD DUP2 PUSH0 ADD SSTORE PUSH1 0x20 DUP3 ADD MLOAD DUP2 PUSH1 0x1 ADD SSTORE PUSH1 0x40 DUP3 ADD MLOAD DUP2 PUSH1 0x2 ADD SSTORE PUSH1 0x60 DUP3 ADD MLOAD DUP2 PUSH1 0x3 ADD SSTORE PUSH1 0x80 DUP3 ADD MLOAD DUP2 PUSH1 0x4 ADD SSTORE POP POP CALLER PUSH20 0xFFFFFFFFFFFFFFFFFFFFFFFFFFFFFFFFFFFFFFFF AND PUSH32 0xC16BE9A586414A157DD46B4D023AA9997A025DD1CBBAA67AC0C1B8273A5EAF55 DUP8 DUP8 DUP5 DUP9 DUP9 DUP9 PUSH1 0x40 MLOAD PUSH2 0xA00 SWAP7 SWAP6 SWAP5 SWAP4 SWAP3 SWAP2 SWAP1 PUSH2 0x1600 JUMP JUMPDEST PUSH1 0x40 MLOAD DUP1 SWAP2 SUB SWAP1 LOG2 POP POP POP POP POP POP JUMP JUMPDEST PUSH0 DUP1 PUSH1 0x4 PUSH0 SWAP1 SLOAD SWAP1 PUSH2 0x100 EXP SWAP1 DIV PUSH20 0xFFFFFFFFFFFFFFFFFFFFFFFFFFFFFFFFFFFFFFFF AND SWAP1 POP PUSH0 DUP2 PUSH20 0xFFFFFFFFFFFFFFFFFFFFFFFFFFFFFFFFFFFFFFFF AND PUSH4 0x50D25BCD PUSH1 0x40 MLOAD DUP2 PUSH4 0xFFFFFFFF AND PUSH1 0xE0 SHL DUP2 MSTORE PUSH1 0x4 ADD PUSH1 0x20 PUSH1 0x40 MLOAD DUP1 DUP4 SUB DUP2 DUP7 GAS STATICCALL ISZERO DUP1 ISZERO PUSH2 0xA80 JUMPI RETURNDATASIZE PUSH0 DUP1 RETURNDATACOPY RETURNDATASIZE PUSH0 REVERT JUMPDEST POP POP POP POP PUSH1 0x40 MLOAD RETURNDATASIZE PUSH1 0x1F NOT PUSH1 0x1F DUP3 ADD AND DUP3 ADD DUP1 PUSH1 0x40 MSTORE POP DUP2 ADD SWAP1 PUSH2 0xAA4 SWAP2 SWAP1 PUSH2 0x1692 JUMP JUMPDEST SWAP1 POP PUSH0 DUP2 SGT PUSH2 0xAE8 JUMPI PUSH1 0x40 MLOAD PUSH32 0x8C379A000000000000000000000000000000000000000000000000000000000 DUP2 MSTORE PUSH1 0x4 ADD PUSH2 0xADF SWAP1 PUSH2 0x1707 JUMP JUMPDEST PUSH1 0x40 MLOAD DUP1 SWAP2 SUB SWAP1 REVERT JUMPDEST DUP1 SWAP3 POP POP POP SWAP1 JUMP JUMPDEST PUSH1 0x6 PUSH1 0x20 MSTORE DUP2 PUSH0 MSTORE PUSH1 0x40 PUSH0 KECCAK256 DUP2 DUP2 SLOAD DUP2 LT PUSH2 0xB09 JUMPI PUSH0 DUP1 REVERT JUMPDEST SWAP1 PUSH0 MSTORE PUSH1 0x20 PUSH0 KECCAK256 SWAP1 PUSH1 0x5 MUL ADD PUSH0 SWAP2 POP SWAP2 POP POP DUP1 PUSH0 ADD SLOAD SWAP1 DUP1 PUSH1 0x1 ADD SLOAD SWAP1 DUP1 PUSH1 0x2 ADD SLOAD SWAP1 DUP1 PUSH1 0x3 ADD SLOAD SWAP1 DUP1 PUSH1 0x4 ADD SLOAD SWAP1 POP DUP6 JUMP JUMPDEST PUSH0 DUP1 PUSH2 0xB46 PUSH2 0xA10 JUMP JUMPDEST SWAP1 POP PUSH0 PUSH2 0xB51 PUSH2 0x525 JUMP JUMPDEST SWAP1 POP PUSH1 0x12 PUSH1 0xA PUSH2 0xB61 SWAP2 SWAP1 PUSH2 0x1085 JUMP JUMPDEST DUP3 DUP3 PUSH2 0xB6D SWAP2 SWAP1 PUSH2 0x10CF JUMP JUMPDEST PUSH2 0xB77 SWAP2 SWAP1 PUSH2 0x113D JUMP JUMPDEST SWAP3 POP POP POP SWAP1 JUMP JUMPDEST PUSH1 0x1 PUSH0 SWAP1 SLOAD SWAP1 PUSH2 0x100 EXP SWAP1 DIV PUSH20 0xFFFFFFFFFFFFFFFFFFFFFFFFFFFFFFFFFFFFFFFF AND DUP2 JUMP JUMPDEST PUSH0 DUP1 SLOAD SWAP1 PUSH2 0x100 EXP SWAP1 DIV PUSH20 0xFFFFFFFFFFFFFFFFFFFFFFFFFFFFFFFFFFFFFFFF AND DUP2 JUMP JUMPDEST PUSH0 DUP1 PUSH1 0x5 PUSH0 DUP6 DUP2 MSTORE PUSH1 0x20 ADD SWAP1 DUP2 MSTORE PUSH1 0x20 ADD PUSH0 KECCAK256 SLOAD SWAP1 POP PUSH0 DUP2 GT PUSH2 0xC1E JUMPI PUSH1 0x40 MLOAD PUSH32 0x8C379A000000000000000000000000000000000000000000000000000000000 DUP2 MSTORE PUSH1 0x4 ADD PUSH2 0xC15 SWAP1 PUSH2 0x1795 JUMP JUMPDEST PUSH1 0x40 MLOAD DUP1 SWAP2 SUB SWAP1 REVERT JUMPDEST PUSH2 0x2710 DUP2 DUP5 PUSH2 0xC2D SWAP2 SWAP1 PUSH2 0x10CF JUMP JUMPDEST PUSH2 0xC37 SWAP2 SWAP1 PUSH2 0x113D JUMP JUMPDEST SWAP2 POP POP SWAP3 SWAP2 POP POP JUMP JUMPDEST PUSH0 PUSH20 0xFFFFFFFFFFFFFFFFFFFFFFFFFFFFFFFFFFFFFFFF DUP3 AND SWAP1 POP SWAP2 SWAP1 POP JUMP JUMPDEST PUSH0 PUSH2 0xC69 DUP3 PUSH2 0xC40 JUMP JUMPDEST SWAP1 POP SWAP2 SWAP1 POP JUMP JUMPDEST PUSH2 0xC79 DUP2 PUSH2 0xC5F JUMP JUMPDEST DUP3 MSTORE POP POP JUMP JUMPDEST PUSH0 PUSH1 0x20 DUP3 ADD SWAP1 POP PUSH2 0xC92 PUSH0 DUP4 ADD DUP5 PUSH2 0xC70 JUMP JUMPDEST SWAP3 SWAP2 POP POP JUMP JUMPDEST PUSH0 PUSH1 0x40 MLOAD SWAP1 POP SWAP1 JUMP JUMPDEST PUSH0 DUP1 REVERT JUMPDEST PUSH0 DUP1 REVERT JUMPDEST PUSH2 0xCB2 DUP2 PUSH2 0xC5F JUMP JUMPDEST DUP2 EQ PUSH2 0xCBC JUMPI PUSH0 DUP1 REVERT JUMPDEST POP JUMP JUMPDEST PUSH0 DUP2 CALLDATALOAD SWAP1 POP PUSH2 0xCCD DUP2 PUSH2 0xCA9 JUMP JUMPDEST SWAP3 SWAP2 POP POP JUMP JUMPDEST PUSH0 PUSH1 0x20 DUP3 DUP5 SUB SLT ISZERO PUSH2 0xCE8 JUMPI PUSH2 0xCE7 PUSH2 0xCA1 JUMP JUMPDEST JUMPDEST PUSH0 PUSH2 0xCF5 DUP5 DUP3 DUP6 ADD PUSH2 0xCBF JUMP JUMPDEST SWAP2 POP POP SWAP3 SWAP2 POP POP JUMP JUMPDEST PUSH0 DUP2 SWAP1 POP SWAP2 SWAP1 POP JUMP JUMPDEST PUSH2 0xD10 DUP2 PUSH2 0xCFE JUMP JUMPDEST DUP3 MSTORE POP POP JUMP JUMPDEST PUSH0 PUSH1 0x20 DUP3 ADD SWAP1 POP PUSH2 0xD29 PUSH0 DUP4 ADD DUP5 PUSH2 0xD07 JUMP JUMPDEST SWAP3 SWAP2 POP POP JUMP JUMPDEST PUSH2 0xD38 DUP2 PUSH2 0xCFE JUMP JUMPDEST DUP2 EQ PUSH2 0xD42 JUMPI PUSH0 DUP1 REVERT JUMPDEST POP JUMP JUMPDEST PUSH0 DUP2 CALLDATALOAD SWAP1 POP PUSH2 0xD53 DUP2 PUSH2 0xD2F JUMP JUMPDEST SWAP3 SWAP2 POP POP JUMP JUMPDEST PUSH0 PUSH1 0x20 DUP3 DUP5 SUB SLT ISZERO PUSH2 0xD6E JUMPI PUSH2 0xD6D PUSH2 0xCA1 JUMP JUMPDEST JUMPDEST PUSH0 PUSH2 0xD7B DUP5 DUP3 DUP6 ADD PUSH2 0xD45 JUMP JUMPDEST SWAP2 POP POP SWAP3 SWAP2 POP POP JUMP JUMPDEST PUSH0 DUP1 PUSH1 0x40 DUP4 DUP6 SUB SLT ISZERO PUSH2 0xD9A JUMPI PUSH2 0xD99 PUSH2 0xCA1 JUMP JUMPDEST JUMPDEST PUSH0 PUSH2 0xDA7 DUP6 DUP3 DUP7 ADD PUSH2 0xD45 JUMP JUMPDEST SWAP3 POP POP PUSH1 0x20 PUSH2 0xDB8 DUP6 DUP3 DUP7 ADD PUSH2 0xD45 JUMP JUMPDEST SWAP2 POP POP SWAP3 POP SWAP3 SWAP1 POP JUMP JUMPDEST PUSH0 DUP1 PUSH1 0x40 DUP4 DUP6 SUB SLT ISZERO PUSH2 0xDD8 JUMPI PUSH2 0xDD7 PUSH2 0xCA1 JUMP JUMPDEST JUMPDEST PUSH0 PUSH2 0xDE5 DUP6 DUP3 DUP7 ADD PUSH2 0xCBF JUMP JUMPDEST SWAP3 POP POP PUSH1 0x20 PUSH2 0xDF6 DUP6 DUP3 DUP7 ADD PUSH2 0xD45 JUMP JUMPDEST SWAP2 POP POP SWAP3 POP SWAP3 SWAP1 POP JUMP JUMPDEST PUSH0 PUSH1 0xA0 DUP3 ADD SWAP1 POP PUSH2 0xE13 PUSH0 DUP4 ADD DUP9 PUSH2 0xD07 JUMP JUMPDEST PUSH2 0xE20 PUSH1 0x20 DUP4 ADD DUP8 PUSH2 0xD07 JUMP JUMPDEST PUSH2 0xE2D PUSH1 0x40 DUP4 ADD DUP7 PUSH2 0xD07 JUMP JUMPDEST PUSH2 0xE3A PUSH1 0x60 DUP4 ADD DUP6 PUSH2 0xD07 JUMP JUMPDEST PUSH2 0xE47 PUSH1 0x80 DUP4 ADD DUP5 PUSH2 0xD07 JUMP JUMPDEST SWAP7 SWAP6 POP POP POP POP POP POP JUMP JUMPDEST PUSH0 DUP3 DUP3 MSTORE PUSH1 0x20 DUP3 ADD SWAP1 POP SWAP3 SWAP2 POP POP JUMP JUMPDEST PUSH32 0x496E76616C696420696E64657800000000000000000000000000000000000000 PUSH0 DUP3 ADD MSTORE POP JUMP JUMPDEST PUSH0 PUSH2 0xE95 PUSH1 0xD DUP4 PUSH2 0xE51 JUMP JUMPDEST SWAP2 POP PUSH2 0xEA0 DUP3 PUSH2 0xE61 JUMP JUMPDEST PUSH1 0x20 DUP3 ADD SWAP1 POP SWAP2 SWAP1 POP JUMP JUMPDEST PUSH0 PUSH1 0x20 DUP3 ADD SWAP1 POP DUP2 DUP2 SUB PUSH0 DUP4 ADD MSTORE PUSH2 0xEC2 DUP2 PUSH2 0xE89 JUMP JUMPDEST SWAP1 POP SWAP2 SWAP1 POP JUMP JUMPDEST PUSH32 0x4E487B7100000000000000000000000000000000000000000000000000000000 PUSH0 MSTORE PUSH1 0x32 PUSH1 0x4 MSTORE PUSH1 0x24 PUSH0 REVERT JUMPDEST PUSH32 0x4E487B7100000000000000000000000000000000000000000000000000000000 PUSH0 MSTORE PUSH1 0x11 PUSH1 0x4 MSTORE PUSH1 0x24 PUSH0 REVERT JUMPDEST PUSH0 PUSH2 0xF2D DUP3 PUSH2 0xCFE JUMP JUMPDEST SWAP2 POP PUSH2 0xF38 DUP4 PUSH2 0xCFE JUMP JUMPDEST SWAP3 POP DUP3 DUP3 SUB SWAP1 POP DUP2 DUP2 GT ISZERO PUSH2 0xF50 JUMPI PUSH2 0xF4F PUSH2 0xEF6 JUMP JUMPDEST JUMPDEST SWAP3 SWAP2 POP POP JUMP JUMPDEST PUSH0 DUP2 PUSH1 0x1 SHR SWAP1 POP SWAP2 SWAP1 POP JUMP JUMPDEST PUSH0 DUP1 DUP3 SWAP2 POP DUP4 SWAP1 POP JUMPDEST PUSH1 0x1 DUP6 GT ISZERO PUSH2 0xFAB JUMPI DUP1 DUP7 DIV DUP2 GT ISZERO PUSH2 0xF87 JUMPI PUSH2 0xF86 PUSH2 0xEF6 JUMP JUMPDEST JUMPDEST PUSH1 0x1 DUP6 AND ISZERO PUSH2 0xF96 JUMPI DUP1 DUP3 MUL SWAP2 POP JUMPDEST DUP1 DUP2 MUL SWAP1 POP PUSH2 0xFA4 DUP6 PUSH2 0xF56 JUMP JUMPDEST SWAP5 POP PUSH2 0xF6B JUMP JUMPDEST SWAP5 POP SWAP5 SWAP3 POP POP POP JUMP JUMPDEST PUSH0 DUP3 PUSH2 0xFC3 JUMPI PUSH1 0x1 SWAP1 POP PUSH2 0x107E JUMP JUMPDEST DUP2 PUSH2 0xFD0 JUMPI PUSH0 SWAP1 POP PUSH2 0x107E JUMP JUMPDEST DUP2 PUSH1 0x1 DUP2 EQ PUSH2 0xFE6 JUMPI PUSH1 0x2 DUP2 EQ PUSH2 0xFF0 JUMPI PUSH2 0x101F JUMP JUMPDEST PUSH1 0x1 SWAP2 POP POP PUSH2 0x107E JUMP JUMPDEST PUSH1 0xFF DUP5 GT ISZERO PUSH2 0x1002 JUMPI PUSH2 0x1001 PUSH2 0xEF6 JUMP JUMPDEST JUMPDEST DUP4 PUSH1 0x2 EXP SWAP2 POP DUP5 DUP3 GT ISZERO PUSH2 0x1019 JUMPI PUSH2 0x1018 PUSH2 0xEF6 JUMP JUMPDEST JUMPDEST POP PUSH2 0x107E JUMP JUMPDEST POP PUSH1 0x20 DUP4 LT PUSH2 0x133 DUP4 LT AND PUSH1 0x4E DUP5 LT PUSH1 0xB DUP5 LT AND OR ISZERO PUSH2 0x1054 JUMPI DUP3 DUP3 EXP SWAP1 POP DUP4 DUP2 GT ISZERO PUSH2 0x104F JUMPI PUSH2 0x104E PUSH2 0xEF6 JUMP JUMPDEST JUMPDEST PUSH2 0x107E JUMP JUMPDEST PUSH2 0x1061 DUP5 DUP5 DUP5 PUSH1 0x1 PUSH2 0xF62 JUMP JUMPDEST SWAP3 POP SWAP1 POP DUP2 DUP5 DIV DUP2 GT ISZERO PUSH2 0x1078 JUMPI PUSH2 0x1077 PUSH2 0xEF6 JUMP JUMPDEST JUMPDEST DUP2 DUP2 MUL SWAP1 POP JUMPDEST SWAP4 SWAP3 POP POP POP JUMP JUMPDEST PUSH0 PUSH2 0x108F DUP3 PUSH2 0xCFE JUMP JUMPDEST SWAP2 POP PUSH2 0x109A DUP4 PUSH2 0xCFE JUMP JUMPDEST SWAP3 POP PUSH2 0x10C7 PUSH32 0xFFFFFFFFFFFFFFFFFFFFFFFFFFFFFFFFFFFFFFFFFFFFFFFFFFFFFFFFFFFFFFFF DUP5 DUP5 PUSH2 0xFB4 JUMP JUMPDEST SWAP1 POP SWAP3 SWAP2 POP POP JUMP JUMPDEST PUSH0 PUSH2 0x10D9 DUP3 PUSH2 0xCFE JUMP JUMPDEST SWAP2 POP PUSH2 0x10E4 DUP4 PUSH2 0xCFE JUMP JUMPDEST SWAP3 POP DUP3 DUP3 MUL PUSH2 0x10F2 DUP2 PUSH2 0xCFE JUMP JUMPDEST SWAP2 POP DUP3 DUP3 DIV DUP5 EQ DUP4 ISZERO OR PUSH2 0x1109 JUMPI PUSH2 0x1108 PUSH2 0xEF6 JUMP JUMPDEST JUMPDEST POP SWAP3 SWAP2 POP POP JUMP JUMPDEST PUSH32 0x4E487B7100000000000000000000000000000000000000000000000000000000 PUSH0 MSTORE PUSH1 0x12 PUSH1 0x4 MSTORE PUSH1 0x24 PUSH0 REVERT JUMPDEST PUSH0 PUSH2 0x1147 DUP3 PUSH2 0xCFE JUMP JUMPDEST SWAP2 POP PUSH2 0x1152 DUP4 PUSH2 0xCFE JUMP JUMPDEST SWAP3 POP DUP3 PUSH2 0x1162 JUMPI PUSH2 0x1161 PUSH2 0x1110 JUMP JUMPDEST JUMPDEST DUP3 DUP3 DIV SWAP1 POP SWAP3 SWAP2 POP POP JUMP JUMPDEST PUSH0 PUSH2 0x1177 DUP3 PUSH2 0xCFE JUMP JUMPDEST SWAP2 POP PUSH2 0x1182 DUP4 PUSH2 0xCFE JUMP JUMPDEST SWAP3 POP DUP3 DUP3 ADD SWAP1 POP DUP1 DUP3 GT ISZERO PUSH2 0x119A JUMPI PUSH2 0x1199 PUSH2 0xEF6 JUMP JUMPDEST JUMPDEST SWAP3 SWAP2 POP POP JUMP JUMPDEST PUSH32 0x4E487B7100000000000000000000000000000000000000000000000000000000 PUSH0 MSTORE PUSH1 0x41 PUSH1 0x4 MSTORE PUSH1 0x24 PUSH0 REVERT JUMPDEST PUSH0 DUP2 SWAP1 POP SWAP2 SWAP1 POP JUMP JUMPDEST PUSH0 DUP2 SWAP1 POP SWAP2 SWAP1 POP JUMP JUMPDEST PUSH0 PUSH2 0x11F9 PUSH2 0x11F4 PUSH2 0x11EF DUP5 PUSH2 0x11CD JUMP JUMPDEST PUSH2 0x11D6 JUMP JUMPDEST PUSH2 0xCFE JUMP JUMPDEST SWAP1 POP SWAP2 SWAP1 POP JUMP JUMPDEST PUSH2 0x1209 DUP2 PUSH2 0x11DF JUMP JUMPDEST DUP3 MSTORE POP POP JUMP JUMPDEST PUSH0 DUP2 MLOAD SWAP1 POP SWAP2 SWAP1 POP JUMP JUMPDEST PUSH0 DUP3 DUP3 MSTORE PUSH1 0x20 DUP3 ADD SWAP1 POP SWAP3 SWAP2 POP POP JUMP JUMPDEST PUSH0 DUP2 SWAP1 POP PUSH1 0x20 DUP3 ADD SWAP1 POP SWAP2 SWAP1 POP JUMP JUMPDEST PUSH2 0x1241 DUP2 PUSH2 0xC5F JUMP JUMPDEST DUP3 MSTORE POP POP JUMP JUMPDEST PUSH0 PUSH2 0x1252 DUP4 DUP4 PUSH2 0x1238 JUMP JUMPDEST PUSH1 0x20 DUP4 ADD SWAP1 POP SWAP3 SWAP2 POP POP JUMP JUMPDEST PUSH0 PUSH1 0x20 DUP3 ADD SWAP1 POP SWAP2 SWAP1 POP JUMP JUMPDEST PUSH0 PUSH2 0x1274 DUP3 PUSH2 0x120F JUMP JUMPDEST PUSH2 0x127E DUP2 DUP6 PUSH2 0x1219 JUMP JUMPDEST SWAP4 POP PUSH2 0x1289 DUP4 PUSH2 0x1229 JUMP JUMPDEST DUP1 PUSH0 JUMPDEST DUP4 DUP2 LT ISZERO PUSH2 0x12B9 JUMPI DUP2 MLOAD PUSH2 0x12A0 DUP9 DUP3 PUSH2 0x1247 JUMP JUMPDEST SWAP8 POP PUSH2 0x12AB DUP4 PUSH2 0x125E JUMP JUMPDEST SWAP3 POP POP PUSH1 0x1 DUP2 ADD SWAP1 POP PUSH2 0x128C JUMP JUMPDEST POP DUP6 SWAP4 POP POP POP POP SWAP3 SWAP2 POP POP JUMP JUMPDEST PUSH0 PUSH1 0x40 DUP3 ADD SWAP1 POP PUSH2 0x12D9 PUSH0 DUP4 ADD DUP6 PUSH2 0x1200 JUMP JUMPDEST DUP2 DUP2 SUB PUSH1 0x20 DUP4 ADD MSTORE PUSH2 0x12EB DUP2 DUP5 PUSH2 0x126A JUMP JUMPDEST SWAP1 POP SWAP4 SWAP3 POP POP POP JUMP JUMPDEST PUSH0 DUP1 REVERT JUMPDEST PUSH0 PUSH1 0x1F NOT PUSH1 0x1F DUP4 ADD AND SWAP1 POP SWAP2 SWAP1 POP JUMP JUMPDEST PUSH2 0x1311 DUP3 PUSH2 0x12F8 JUMP JUMPDEST DUP2 ADD DUP2 DUP2 LT PUSH8 0xFFFFFFFFFFFFFFFF DUP3 GT OR ISZERO PUSH2 0x1330 JUMPI PUSH2 0x132F PUSH2 0x11A0 JUMP JUMPDEST JUMPDEST DUP1 PUSH1 0x40 MSTORE POP POP POP JUMP JUMPDEST PUSH0 PUSH2 0x1342 PUSH2 0xC98 JUMP JUMPDEST SWAP1 POP PUSH2 0x134E DUP3 DUP3 PUSH2 0x1308 JUMP JUMPDEST SWAP2 SWAP1 POP JUMP JUMPDEST PUSH0 PUSH8 0xFFFFFFFFFFFFFFFF DUP3 GT ISZERO PUSH2 0x136D JUMPI PUSH2 0x136C PUSH2 0x11A0 JUMP JUMPDEST JUMPDEST PUSH1 0x20 DUP3 MUL SWAP1 POP PUSH1 0x20 DUP2 ADD SWAP1 POP SWAP2 SWAP1 POP JUMP JUMPDEST PUSH0 DUP1 REVERT JUMPDEST PUSH0 DUP2 MLOAD SWAP1 POP PUSH2 0x1390 DUP2 PUSH2 0xD2F JUMP JUMPDEST SWAP3 SWAP2 POP POP JUMP JUMPDEST PUSH0 PUSH2 0x13A8 PUSH2 0x13A3 DUP5 PUSH2 0x1353 JUMP JUMPDEST PUSH2 0x1339 JUMP JUMPDEST SWAP1 POP DUP1 DUP4 DUP3 MSTORE PUSH1 0x20 DUP3 ADD SWAP1 POP PUSH1 0x20 DUP5 MUL DUP4 ADD DUP6 DUP2 GT ISZERO PUSH2 0x13CB JUMPI PUSH2 0x13CA PUSH2 0x137E JUMP JUMPDEST JUMPDEST DUP4 JUMPDEST DUP2 DUP2 LT ISZERO PUSH2 0x13F4 JUMPI DUP1 PUSH2 0x13E0 DUP9 DUP3 PUSH2 0x1382 JUMP JUMPDEST DUP5 MSTORE PUSH1 0x20 DUP5 ADD SWAP4 POP POP PUSH1 0x20 DUP2 ADD SWAP1 POP PUSH2 0x13CD JUMP JUMPDEST POP POP POP SWAP4 SWAP3 POP POP POP JUMP JUMPDEST PUSH0 DUP3 PUSH1 0x1F DUP4 ADD SLT PUSH2 0x1412 JUMPI PUSH2 0x1411 PUSH2 0x12F4 JUMP JUMPDEST JUMPDEST DUP2 MLOAD PUSH2 0x1422 DUP5 DUP3 PUSH1 0x20 DUP7 ADD PUSH2 0x1396 JUMP JUMPDEST SWAP2 POP POP SWAP3 SWAP2 POP POP JUMP JUMPDEST PUSH0 PUSH1 0x20 DUP3 DUP5 SUB SLT ISZERO PUSH2 0x1440 JUMPI PUSH2 0x143F PUSH2 0xCA1 JUMP JUMPDEST JUMPDEST PUSH0 DUP3 ADD MLOAD PUSH8 0xFFFFFFFFFFFFFFFF DUP2 GT ISZERO PUSH2 0x145D JUMPI PUSH2 0x145C PUSH2 0xCA5 JUMP JUMPDEST JUMPDEST PUSH2 0x1469 DUP5 DUP3 DUP6 ADD PUSH2 0x13FE JUMP JUMPDEST SWAP2 POP POP SWAP3 SWAP2 POP POP JUMP JUMPDEST PUSH32 0x4F6E6C792061646D696E2063616E2063616C6C20746869732066756E6374696F PUSH0 DUP3 ADD MSTORE PUSH32 0x6E00000000000000000000000000000000000000000000000000000000000000 PUSH1 0x20 DUP3 ADD MSTORE POP JUMP JUMPDEST PUSH0 PUSH2 0x14CC PUSH1 0x21 DUP4 PUSH2 0xE51 JUMP JUMPDEST SWAP2 POP PUSH2 0x14D7 DUP3 PUSH2 0x1472 JUMP JUMPDEST PUSH1 0x40 DUP3 ADD SWAP1 POP SWAP2 SWAP1 POP JUMP JUMPDEST PUSH0 PUSH1 0x20 DUP3 ADD SWAP1 POP DUP2 DUP2 SUB PUSH0 DUP4 ADD MSTORE PUSH2 0x14F9 DUP2 PUSH2 0x14C0 JUMP JUMPDEST SWAP1 POP SWAP2 SWAP1 POP JUMP JUMPDEST PUSH0 PUSH2 0x150A DUP3 PUSH2 0xCFE JUMP JUMPDEST SWAP2 POP PUSH2 0x1515 DUP4 PUSH2 0xCFE JUMP JUMPDEST SWAP3 POP DUP3 PUSH2 0x1525 JUMPI PUSH2 0x1524 PUSH2 0x1110 JUMP JUMPDEST JUMPDEST DUP3 DUP3 MOD SWAP1 POP SWAP3 SWAP2 POP POP JUMP JUMPDEST PUSH32 0x496E76616C6964206475726174696F6E00000000000000000000000000000000 PUSH0 DUP3 ADD MSTORE POP JUMP JUMPDEST PUSH0 PUSH2 0x1564 PUSH1 0x10 DUP4 PUSH2 0xE51 JUMP JUMPDEST SWAP2 POP PUSH2 0x156F DUP3 PUSH2 0x1530 JUMP JUMPDEST PUSH1 0x20 DUP3 ADD SWAP1 POP SWAP2 SWAP1 POP JUMP JUMPDEST PUSH0 PUSH1 0x20 DUP3 ADD SWAP1 POP DUP2 DUP2 SUB PUSH0 DUP4 ADD MSTORE PUSH2 0x1591 DUP2 PUSH2 0x1558 JUMP JUMPDEST SWAP1 POP SWAP2 SWAP1 POP JUMP JUMPDEST PUSH32 0x496E76616C696420616D6F756E74000000000000000000000000000000000000 PUSH0 DUP3 ADD MSTORE POP JUMP JUMPDEST PUSH0 PUSH2 0x15CC PUSH1 0xE DUP4 PUSH2 0xE51 JUMP JUMPDEST SWAP2 POP PUSH2 0x15D7 DUP3 PUSH2 0x1598 JUMP JUMPDEST PUSH1 0x20 DUP3 ADD SWAP1 POP SWAP2 SWAP1 POP JUMP JUMPDEST PUSH0 PUSH1 0x20 DUP3 ADD SWAP1 POP DUP2 DUP2 SUB PUSH0 DUP4 ADD MSTORE PUSH2 0x15F9 DUP2 PUSH2 0x15C0 JUMP JUMPDEST SWAP1 POP SWAP2 SWAP1 POP JUMP JUMPDEST PUSH0 PUSH1 0xC0 DUP3 ADD SWAP1 POP PUSH2 0x1613 PUSH0 DUP4 ADD DUP10 PUSH2 0xD07 JUMP JUMPDEST PUSH2 0x1620 PUSH1 0x20 DUP4 ADD DUP9 PUSH2 0xD07 JUMP JUMPDEST PUSH2 0x162D PUSH1 0x40 DUP4 ADD DUP8 PUSH2 0xD07 JUMP JUMPDEST PUSH2 0x163A PUSH1 0x60 DUP4 ADD DUP7 PUSH2 0xD07 JUMP JUMPDEST PUSH2 0x1647 PUSH1 0x80 DUP4 ADD DUP6 PUSH2 0xD07 JUMP JUMPDEST PUSH2 0x1654 PUSH1 0xA0 DUP4 ADD DUP5 PUSH2 0xD07 JUMP JUMPDEST SWAP8 SWAP7 POP POP POP POP POP POP POP JUMP JUMPDEST PUSH0 DUP2 SWAP1 POP SWAP2 SWAP1 POP JUMP JUMPDEST PUSH2 0x1671 DUP2 PUSH2 0x165F JUMP JUMPDEST DUP2 EQ PUSH2 0x167B JUMPI PUSH0 DUP1 REVERT JUMPDEST POP JUMP JUMPDEST PUSH0 DUP2 MLOAD SWAP1 POP PUSH2 0x168C DUP2 PUSH2 0x1668 JUMP JUMPDEST SWAP3 SWAP2 POP POP JUMP JUMPDEST PUSH0 PUSH1 0x20 DUP3 DUP5 SUB SLT ISZERO PUSH2 0x16A7 JUMPI PUSH2 0x16A6 PUSH2 0xCA1 JUMP JUMPDEST JUMPDEST PUSH0 PUSH2 0x16B4 DUP5 DUP3 DUP6 ADD PUSH2 0x167E JUMP JUMPDEST SWAP2 POP POP SWAP3 SWAP2 POP POP JUMP JUMPDEST PUSH32 0x496E76616C6964204554482F5553442070726963650000000000000000000000 PUSH0 DUP3 ADD MSTORE POP JUMP JUMPDEST PUSH0 PUSH2 0x16F1 PUSH1 0x15 DUP4 PUSH2 0xE51 JUMP JUMPDEST SWAP2 POP PUSH2 0x16FC DUP3 PUSH2 0x16BD JUMP JUMPDEST PUSH1 0x20 DUP3 ADD SWAP1 POP SWAP2 SWAP1 POP JUMP JUMPDEST PUSH0 PUSH1 0x20 DUP3 ADD SWAP1 POP DUP2 DUP2 SUB PUSH0 DUP4 ADD MSTORE PUSH2 0x171E DUP2 PUSH2 0x16E5 JUMP JUMPDEST SWAP1 POP SWAP2 SWAP1 POP JUMP JUMPDEST PUSH32 0x4665652070657263656E74616765206E6F742073657420666F72207468697320 PUSH0 DUP3 ADD MSTORE PUSH32 0x6475726174696F6E000000000000000000000000000000000000000000000000 PUSH1 0x20 DUP3 ADD MSTORE POP JUMP JUMPDEST PUSH0 PUSH2 0x177F PUSH1 0x28 DUP4 PUSH2 0xE51 JUMP JUMPDEST SWAP2 POP PUSH2 0x178A DUP3 PUSH2 0x1725 JUMP JUMPDEST PUSH1 0x40 DUP3 ADD SWAP1 POP SWAP2 SWAP1 POP JUMP JUMPDEST PUSH0 PUSH1 0x20 DUP3 ADD SWAP1 POP DUP2 DUP2 SUB PUSH0 DUP4 ADD MSTORE PUSH2 0x17AC DUP2 PUSH2 0x1773 JUMP JUMPDEST SWAP1 POP SWAP2 SWAP1 POP JUMP INVALID LOG2 PUSH5 0x6970667358 0x22 SLT KECCAK256 GT 0x4E DUP7 LOG4 SWAP6 DUP6 0xC6 JUMPDEST 0xC8 0xD0 0x2E CHAINID 0xEC 0xEB EQ SWAP12 SWAP2 MULMOD MLOAD PUSH20 0xCB3961E9D4B5CB5E4CCA7F3864736F6C63430008 XOR STOP CALLER "
		},
		"gasEstimates": {
			"creation": {
				"codeDepositCost": "1224200",
				"executionCost": "infinite",
				"totalCost": "infinite"
			},
			"external": {
				"DECIMALS()": "370",
				"admin()": "2593",
				"calculatePriceOfGrlInUsd()": "infinite",
				"ethUsdAggregatorAddress()": "2532",
				"getEthToUsdValue()": "infinite",
				"getPriceOfGrlInEth()": "infinite",
				"getUserStakeCount(address)": "2883",
				"grlTokenAddress()": "2574",
				"setStakingFeePercentage(uint256,uint256)": "infinite",
				"stake(uint256,uint256)": "infinite",
				"stakingFeePercentage(uint256)": "infinite",
				"uniswapRouterAddress()": "2576",
				"unstake(uint256)": "infinite",
				"userStakes(address,uint256)": "infinite",
				"wethAddress()": "2597"
			},
			"internal": {
				"calculateStakingFee(uint256,uint256)": "infinite"
			}
		},
		"methodIdentifiers": {
			"DECIMALS()": "2e0f2625",
			"admin()": "f851a440",
			"calculatePriceOfGrlInUsd()": "b92d21c4",
			"ethUsdAggregatorAddress()": "00c3a272",
			"getEthToUsdValue()": "851f7147",
			"getPriceOfGrlInEth()": "50f3845b",
			"getUserStakeCount(address)": "1b545a17",
			"grlTokenAddress()": "b9aa6ec4",
			"setStakingFeePercentage(uint256,uint256)": "7a997035",
			"stake(uint256,uint256)": "7b0472f0",
			"stakingFeePercentage(uint256)": "26230e2f",
			"uniswapRouterAddress()": "20ca3c7f",
			"unstake(uint256)": "2e17de78",
			"userStakes(address,uint256)": "b5d5b5fa",
			"wethAddress()": "4f0e0ef3"
		}
	},
	"abi": [
		{
			"inputs": [
				{
					"internalType": "address",
					"name": "_grlTokenAddress",
					"type": "address"
				},
				{
					"internalType": "address",
					"name": "_wethAddress",
					"type": "address"
				},
				{
					"internalType": "address",
					"name": "_uniswapRouterAddress",
					"type": "address"
				},
				{
					"internalType": "address",
					"name": "_ethUsdAggregatorAddress",
					"type": "address"
				}
			],
			"stateMutability": "nonpayable",
			"type": "constructor"
		},
		{
			"anonymous": false,
			"inputs": [
				{
					"indexed": true,
					"internalType": "address",
					"name": "user",
					"type": "address"
				},
				{
					"indexed": false,
					"internalType": "uint256",
					"name": "amount",
					"type": "uint256"
				},
				{
					"indexed": false,
					"internalType": "uint256",
					"name": "duration",
					"type": "uint256"
				},
				{
					"indexed": false,
					"internalType": "uint256",
					"name": "endTime",
					"type": "uint256"
				},
				{
					"indexed": false,
					"internalType": "uint256",
					"name": "priceInUsd",
					"type": "uint256"
				},
				{
					"indexed": false,
					"internalType": "uint256",
					"name": "fee",
					"type": "uint256"
				},
				{
					"indexed": false,
					"internalType": "uint256",
					"name": "amountInUsd",
					"type": "uint256"
				}
			],
			"name": "Staked",
			"type": "event"
		},
		{
			"anonymous": false,
			"inputs": [
				{
					"indexed": true,
					"internalType": "address",
					"name": "user",
					"type": "address"
				},
				{
					"indexed": false,
					"internalType": "uint256",
					"name": "amount",
					"type": "uint256"
				}
			],
			"name": "Unstaked",
			"type": "event"
		},
		{
			"inputs": [],
			"name": "DECIMALS",
			"outputs": [
				{
					"internalType": "uint256",
					"name": "",
					"type": "uint256"
				}
			],
			"stateMutability": "view",
			"type": "function"
		},
		{
			"inputs": [],
			"name": "admin",
			"outputs": [
				{
					"internalType": "address",
					"name": "",
					"type": "address"
				}
			],
			"stateMutability": "view",
			"type": "function"
		},
		{
			"inputs": [],
			"name": "calculatePriceOfGrlInUsd",
			"outputs": [
				{
					"internalType": "uint256",
					"name": "",
					"type": "uint256"
				}
			],
			"stateMutability": "view",
			"type": "function"
		},
		{
			"inputs": [],
			"name": "ethUsdAggregatorAddress",
			"outputs": [
				{
					"internalType": "address",
					"name": "",
					"type": "address"
				}
			],
			"stateMutability": "view",
			"type": "function"
		},
		{
			"inputs": [],
			"name": "getEthToUsdValue",
			"outputs": [
				{
					"internalType": "uint256",
					"name": "",
					"type": "uint256"
				}
			],
			"stateMutability": "view",
			"type": "function"
		},
		{
			"inputs": [],
			"name": "getPriceOfGrlInEth",
			"outputs": [
				{
					"internalType": "uint256",
					"name": "",
					"type": "uint256"
				}
			],
			"stateMutability": "view",
			"type": "function"
		},
		{
			"inputs": [
				{
					"internalType": "address",
					"name": "user",
					"type": "address"
				}
			],
			"name": "getUserStakeCount",
			"outputs": [
				{
					"internalType": "uint256",
					"name": "",
					"type": "uint256"
				}
			],
			"stateMutability": "view",
			"type": "function"
		},
		{
			"inputs": [],
			"name": "grlTokenAddress",
			"outputs": [
				{
					"internalType": "address",
					"name": "",
					"type": "address"
				}
			],
			"stateMutability": "view",
			"type": "function"
		},
		{
			"inputs": [
				{
					"internalType": "uint256",
					"name": "durationInDays",
					"type": "uint256"
				},
				{
					"internalType": "uint256",
					"name": "feePercentage",
					"type": "uint256"
				}
			],
			"name": "setStakingFeePercentage",
			"outputs": [],
			"stateMutability": "nonpayable",
			"type": "function"
		},
		{
			"inputs": [
				{
					"internalType": "uint256",
					"name": "amount",
					"type": "uint256"
				},
				{
					"internalType": "uint256",
					"name": "durationInDays",
					"type": "uint256"
				}
			],
			"name": "stake",
			"outputs": [],
			"stateMutability": "nonpayable",
			"type": "function"
		},
		{
			"inputs": [
				{
					"internalType": "uint256",
					"name": "",
					"type": "uint256"
				}
			],
			"name": "stakingFeePercentage",
			"outputs": [
				{
					"internalType": "uint256",
					"name": "",
					"type": "uint256"
				}
			],
			"stateMutability": "view",
			"type": "function"
		},
		{
			"inputs": [],
			"name": "uniswapRouterAddress",
			"outputs": [
				{
					"internalType": "address",
					"name": "",
					"type": "address"
				}
			],
			"stateMutability": "view",
			"type": "function"
		},
		{
			"inputs": [
				{
					"internalType": "uint256",
					"name": "index",
					"type": "uint256"
				}
			],
			"name": "unstake",
			"outputs": [],
			"stateMutability": "nonpayable",
			"type": "function"
		},
		{
			"inputs": [
				{
					"internalType": "address",
					"name": "",
					"type": "address"
				},
				{
					"internalType": "uint256",
					"name": "",
					"type": "uint256"
				}
			],
			"name": "userStakes",
			"outputs": [
				{
					"internalType": "uint256",
					"name": "durationInDays",
					"type": "uint256"
				},
				{
					"internalType": "uint256",
					"name": "amount",
					"type": "uint256"
				},
				{
					"internalType": "uint256",
					"name": "timestamp",
					"type": "uint256"
				},
				{
					"internalType": "uint256",
					"name": "priceInUsd",
					"type": "uint256"
				},
				{
					"internalType": "uint256",
					"name": "amountInUsd",
					"type": "uint256"
				}
			],
			"stateMutability": "view",
			"type": "function"
		},
		{
			"inputs": [],
			"name": "wethAddress",
			"outputs": [
				{
					"internalType": "address",
					"name": "",
					"type": "address"
				}
			],
			"stateMutability": "view",
			"type": "function"
		}
	]
}